{
	"Contracts/AuctionSPU.sol": {
		"AuctionSPU": {
			"abi": [
				{
					"inputs": [
						{
							"internalType": "address",
							"name": "_nft",
							"type": "address"
						},
						{
							"internalType": "address",
							"name": "_docsRegister",
							"type": "address"
						},
						{
							"internalType": "string",
							"name": "_docsProcess",
							"type": "string"
						},
						{
							"internalType": "address",
							"name": "_feeAddres",
							"type": "address"
						},
						{
							"internalType": "uint256",
							"name": "_nftId",
							"type": "uint256"
						},
						{
							"internalType": "uint256",
							"name": "_startingBid",
							"type": "uint256"
						},
						{
							"internalType": "uint256",
							"name": "_period",
							"type": "uint256"
						},
						{
							"internalType": "uint256",
							"name": "_transactionFee",
							"type": "uint256"
						}
					],
					"stateMutability": "nonpayable",
					"type": "constructor"
				},
				{
					"anonymous": false,
					"inputs": [
						{
							"indexed": true,
							"internalType": "address",
							"name": "sender",
							"type": "address"
						},
						{
							"indexed": false,
							"internalType": "uint256",
							"name": "amount",
							"type": "uint256"
						}
					],
					"name": "Bid",
					"type": "event"
				},
				{
					"anonymous": false,
					"inputs": [
						{
							"indexed": true,
							"internalType": "address",
							"name": "seller",
							"type": "address"
						},
						{
							"indexed": false,
							"internalType": "uint256",
							"name": "highestBid",
							"type": "uint256"
						}
					],
					"name": "BidPayment",
					"type": "event"
				},
				{
					"anonymous": false,
					"inputs": [
						{
							"indexed": true,
							"internalType": "address",
							"name": "bidder",
							"type": "address"
						},
						{
							"indexed": false,
							"internalType": "uint256",
							"name": "amount",
							"type": "uint256"
						}
					],
					"name": "Cashback",
					"type": "event"
				},
				{
					"anonymous": false,
					"inputs": [
						{
							"indexed": false,
							"internalType": "address",
							"name": "winner",
							"type": "address"
						},
						{
							"indexed": false,
							"internalType": "uint256",
							"name": "amount",
							"type": "uint256"
						}
					],
					"name": "EndAuction",
					"type": "event"
				},
				{
					"anonymous": false,
					"inputs": [
						{
							"indexed": true,
							"internalType": "address",
							"name": "feeAddress",
							"type": "address"
						},
						{
							"indexed": false,
							"internalType": "uint256",
							"name": "totalFee",
							"type": "uint256"
						}
					],
					"name": "FeePayment",
					"type": "event"
				},
				{
					"anonymous": false,
					"inputs": [
						{
							"indexed": false,
							"internalType": "address",
							"name": "pauser",
							"type": "address"
						}
					],
					"name": "PauseAuction",
					"type": "event"
				},
				{
					"anonymous": false,
					"inputs": [
						{
							"indexed": true,
							"internalType": "address",
							"name": "account",
							"type": "address"
						},
						{
							"indexed": false,
							"internalType": "bool",
							"name": "enable",
							"type": "bool"
						}
					],
					"name": "SetWhitelistByAddress",
					"type": "event"
				},
				{
					"anonymous": false,
					"inputs": [],
					"name": "StartAuction",
					"type": "event"
				},
				{
					"anonymous": false,
					"inputs": [
						{
							"indexed": false,
							"internalType": "address",
							"name": "pauser",
							"type": "address"
						}
					],
					"name": "UnpauseAuction",
					"type": "event"
				},
				{
					"stateMutability": "payable",
					"type": "fallback"
				},
				{
					"inputs": [],
					"name": "FEE_BASE",
					"outputs": [
						{
							"internalType": "uint256",
							"name": "",
							"type": "uint256"
						}
					],
					"stateMutability": "view",
					"type": "function"
				},
				{
					"inputs": [],
					"name": "closeAuction",
					"outputs": [],
					"stateMutability": "nonpayable",
					"type": "function"
				},
				{
					"inputs": [],
					"name": "docsProcess",
					"outputs": [
						{
							"internalType": "string",
							"name": "",
							"type": "string"
						}
					],
					"stateMutability": "view",
					"type": "function"
				},
				{
					"inputs": [],
					"name": "docsRegister",
					"outputs": [
						{
							"internalType": "address",
							"name": "",
							"type": "address"
						}
					],
					"stateMutability": "view",
					"type": "function"
				},
				{
					"inputs": [],
					"name": "endAt",
					"outputs": [
						{
							"internalType": "uint256",
							"name": "",
							"type": "uint256"
						}
					],
					"stateMutability": "view",
					"type": "function"
				},
				{
					"inputs": [],
					"name": "endAuction",
					"outputs": [],
					"stateMutability": "nonpayable",
					"type": "function"
				},
				{
					"inputs": [],
					"name": "ended",
					"outputs": [
						{
							"internalType": "bool",
							"name": "",
							"type": "bool"
						}
					],
					"stateMutability": "view",
					"type": "function"
				},
				{
					"inputs": [],
					"name": "feeAddress",
					"outputs": [
						{
							"internalType": "address payable",
							"name": "",
							"type": "address"
						}
					],
					"stateMutability": "view",
					"type": "function"
				},
				{
					"inputs": [],
					"name": "getBalance",
					"outputs": [
						{
							"internalType": "uint256",
							"name": "",
							"type": "uint256"
						}
					],
					"stateMutability": "view",
					"type": "function"
				},
				{
					"inputs": [],
					"name": "highestBid",
					"outputs": [
						{
							"internalType": "uint256",
							"name": "",
							"type": "uint256"
						}
					],
					"stateMutability": "view",
					"type": "function"
				},
				{
					"inputs": [],
					"name": "highestBidder",
					"outputs": [
						{
							"internalType": "address",
							"name": "",
							"type": "address"
						}
					],
					"stateMutability": "view",
					"type": "function"
				},
				{
					"inputs": [
						{
							"internalType": "address",
							"name": "_account",
							"type": "address"
						}
					],
					"name": "isWhitelist",
					"outputs": [
						{
							"internalType": "bool",
							"name": "",
							"type": "bool"
						}
					],
					"stateMutability": "view",
					"type": "function"
				},
				{
					"inputs": [
						{
							"internalType": "uint256",
							"name": "_totalValue",
							"type": "uint256"
						},
						{
							"internalType": "uint256",
							"name": "_realValue",
							"type": "uint256"
						},
						{
							"internalType": "uint256",
							"name": "_portion",
							"type": "uint256"
						},
						{
							"internalType": "uint256",
							"name": "_clientScore",
							"type": "uint256"
						}
					],
					"name": "newBid",
					"outputs": [],
					"stateMutability": "payable",
					"type": "function"
				},
				{
					"inputs": [],
					"name": "nft",
					"outputs": [
						{
							"internalType": "contract IERC721",
							"name": "",
							"type": "address"
						}
					],
					"stateMutability": "view",
					"type": "function"
				},
				{
					"inputs": [],
					"name": "nftId",
					"outputs": [
						{
							"internalType": "uint256",
							"name": "",
							"type": "uint256"
						}
					],
					"stateMutability": "view",
					"type": "function"
				},
				{
					"inputs": [],
					"name": "numberOfBids",
					"outputs": [
						{
							"internalType": "uint256",
							"name": "",
							"type": "uint256"
						}
					],
					"stateMutability": "view",
					"type": "function"
				},
				{
					"inputs": [],
					"name": "pauseAuction",
					"outputs": [],
					"stateMutability": "nonpayable",
					"type": "function"
				},
				{
					"inputs": [],
					"name": "paused",
					"outputs": [
						{
							"internalType": "bool",
							"name": "",
							"type": "bool"
						}
					],
					"stateMutability": "view",
					"type": "function"
				},
				{
					"inputs": [
						{
							"internalType": "address",
							"name": "",
							"type": "address"
						}
					],
					"name": "receivedBids",
					"outputs": [
						{
							"internalType": "uint256",
							"name": "totalValue",
							"type": "uint256"
						},
						{
							"internalType": "uint256",
							"name": "realValue",
							"type": "uint256"
						},
						{
							"internalType": "uint256",
							"name": "portion",
							"type": "uint256"
						},
						{
							"internalType": "uint256",
							"name": "clientScore",
							"type": "uint256"
						},
						{
							"internalType": "uint256",
							"name": "downpay",
							"type": "uint256"
						}
					],
					"stateMutability": "view",
					"type": "function"
				},
				{
					"inputs": [],
					"name": "seller",
					"outputs": [
						{
							"internalType": "address payable",
							"name": "",
							"type": "address"
						}
					],
					"stateMutability": "view",
					"type": "function"
				},
				{
					"inputs": [
						{
							"internalType": "address",
							"name": "_account",
							"type": "address"
						},
						{
							"internalType": "bool",
							"name": "enable",
							"type": "bool"
						}
					],
					"name": "setWhitelist",
					"outputs": [],
					"stateMutability": "nonpayable",
					"type": "function"
				},
				{
					"inputs": [],
					"name": "startAuction",
					"outputs": [],
					"stateMutability": "nonpayable",
					"type": "function"
				},
				{
					"inputs": [],
					"name": "started",
					"outputs": [
						{
							"internalType": "bool",
							"name": "",
							"type": "bool"
						}
					],
					"stateMutability": "view",
					"type": "function"
				},
				{
					"inputs": [],
					"name": "totalFee",
					"outputs": [
						{
							"internalType": "uint256",
							"name": "",
							"type": "uint256"
						}
					],
					"stateMutability": "view",
					"type": "function"
				},
				{
					"inputs": [],
					"name": "unpauseAuction",
					"outputs": [],
					"stateMutability": "nonpayable",
					"type": "function"
				},
				{
					"stateMutability": "payable",
					"type": "receive"
				}
			],
			"devdoc": {
				"author": "Gustavo Henrique / gustavo@useinsignia.com",
				"kind": "dev",
				"methods": {
					"closeAuction()": {
						"details": "When this method is called the auction is finally closed Method steps: {1} - Verifications {2} - Safe Transfer the NFT for the highestBidder {3} - Pay the total fee of the auction {4} - Pay the highestBid to the seller {5} - Emit an event for newBid"
					},
					"constructor": {
						"details": "Sets the values for :  {_nft} -> Address of the nft  {_docsRegister} -> The smart contract that stores all the real-state documentation  {_docsProcess} -> The SPU process identifier  {_feeAddres} -> The address that will receives the fees o the auction  {_nftId} -> NFT id, in case of collection, default value 0  {_startingBid} -> The initial bid value  {_period} -> Duration of the auction, timestamp pattern  {_transactionFee} -> Fee charged on every bid , e.g. 100 = 1%"
					},
					"endAuction()": {
						"details": "Once ended only no more bids are allowed , no transfers are done yet"
					},
					"getBalance()": {
						"returns": {
							"_0": "Returns the native token amount inside this contract."
						}
					},
					"isWhitelist(address)": {
						"params": {
							"_account": "Consultant address"
						},
						"returns": {
							"_0": "Boolean of the privilege setted"
						}
					},
					"newBid(uint256,uint256,uint256,uint256)": {
						"details": "Is mandatory to add any bidder previously in the _whitelist array Method steps: {1} - Verifications {2} - Calculate transaction fee {3} - Refund for the last highestBidder {4} - Store bid data {5} - Store highest bid {6} - Emit an event for newBid"
					},
					"pauseAuction()": {
						"details": "Once paused, this method neither restart the autcion or change any bid"
					},
					"setWhitelist(address,bool)": {
						"params": {
							"_account": "The address to insert",
							"enable": "True to guarantee privilegies, false to remove privilegies"
						}
					},
					"startAuction()": {
						"details": "The owner of the NFT MUST hold the NFT before call this method"
					},
					"unpauseAuction()": {
						"details": "Once unpaused, this method neither restart the autcion or change any bid"
					}
				},
				"title": "Auction for real-state NFT sell",
				"version": 1
			},
			"evm": {
				"assembly": "    /* \"Contracts/AuctionSPU.sol\":1490:12039  contract AuctionSPU {... */\n  mstore(0x40, 0x80)\n    /* \"Contracts/AuctionSPU.sol\":3793:4366  constructor(... */\n  callvalue\n  dup1\n  iszero\n  tag_1\n  jumpi\n  0x00\n  dup1\n  revert\ntag_1:\n  pop\n  mload(0x40)\n  sub(codesize, bytecodeSize)\n  dup1\n  bytecodeSize\n  dup4\n  codecopy\n  dup2\n  dup2\n  add\n  0x40\n  mstore\n  dup2\n  add\n  swap1\n  tag_2\n  swap2\n  swap1\n  tag_3\n  jump\t// in\ntag_2:\n    /* \"Contracts/AuctionSPU.sol\":4062:4066  _nft */\n  dup8\n    /* \"Contracts/AuctionSPU.sol\":4048:4051  nft */\n  0x00\n  dup1\n    /* \"Contracts/AuctionSPU.sol\":4048:4067  nft = IERC721(_nft) */\n  0x0100\n  exp\n  dup2\n  sload\n  dup2\n  0xffffffffffffffffffffffffffffffffffffffff\n  mul\n  not\n  and\n  swap1\n  dup4\n  0xffffffffffffffffffffffffffffffffffffffff\n  and\n  mul\n  or\n  swap1\n  sstore\n  pop\n    /* \"Contracts/AuctionSPU.sol\":4086:4092  _nftId */\n  dup4\n    /* \"Contracts/AuctionSPU.sol\":4078:4083  nftId */\n  0x01\n    /* \"Contracts/AuctionSPU.sol\":4078:4092  nftId = _nftId */\n  dup2\n  swap1\n  sstore\n  pop\n    /* \"Contracts/AuctionSPU.sol\":4122:4132  msg.sender */\n  caller\n    /* \"Contracts/AuctionSPU.sol\":4105:4111  seller */\n  0x02\n  0x00\n    /* \"Contracts/AuctionSPU.sol\":4105:4133  seller = payable(msg.sender) */\n  0x0100\n  exp\n  dup2\n  sload\n  dup2\n  0xffffffffffffffffffffffffffffffffffffffff\n  mul\n  not\n  and\n  swap1\n  dup4\n  0xffffffffffffffffffffffffffffffffffffffff\n  and\n  mul\n  or\n  swap1\n  sstore\n  pop\n    /* \"Contracts/AuctionSPU.sol\":4165:4175  _feeAddres */\n  dup5\n    /* \"Contracts/AuctionSPU.sol\":4144:4154  feeAddress */\n  0x03\n  0x00\n    /* \"Contracts/AuctionSPU.sol\":4144:4176  feeAddress = payable(_feeAddres) */\n  0x0100\n  exp\n  dup2\n  sload\n  dup2\n  0xffffffffffffffffffffffffffffffffffffffff\n  mul\n  not\n  and\n  swap1\n  dup4\n  0xffffffffffffffffffffffffffffffffffffffff\n  and\n  mul\n  or\n  swap1\n  sstore\n  pop\n    /* \"Contracts/AuctionSPU.sol\":4200:4212  _startingBid */\n  dup3\n    /* \"Contracts/AuctionSPU.sol\":4187:4197  highestBid */\n  0x0c\n    /* \"Contracts/AuctionSPU.sol\":4187:4212  highestBid = _startingBid */\n  dup2\n  swap1\n  sstore\n  pop\n    /* \"Contracts/AuctionSPU.sol\":4231:4238  _period */\n  dup2\n    /* \"Contracts/AuctionSPU.sol\":4223:4228  endAt */\n  0x06\n    /* \"Contracts/AuctionSPU.sol\":4223:4238  endAt = _period */\n  dup2\n  swap1\n  sstore\n  pop\n    /* \"Contracts/AuctionSPU.sol\":4266:4281  _transactionFee */\n  dup1\n    /* \"Contracts/AuctionSPU.sol\":4249:4263  transactionFee */\n  0x09\n    /* \"Contracts/AuctionSPU.sol\":4249:4281  transactionFee = _transactionFee */\n  dup2\n  swap1\n  sstore\n  pop\n    /* \"Contracts/AuctionSPU.sol\":4347:4358  docsProcess */\n  0x05\n    /* \"Contracts/AuctionSPU.sol\":4332:4358  _docsProcess = docsProcess */\n  dup1\n  sload\n  tag_6\n  swap1\n  tag_7\n  jump\t// in\ntag_6:\n  dup1\n  0x1f\n  add\n  0x20\n  dup1\n  swap2\n  div\n  mul\n  0x20\n  add\n  mload(0x40)\n  swap1\n  dup2\n  add\n  0x40\n  mstore\n  dup1\n  swap3\n  swap2\n  swap1\n  dup2\n  dup2\n  mstore\n  0x20\n  add\n  dup3\n  dup1\n  sload\n  tag_8\n  swap1\n  tag_7\n  jump\t// in\ntag_8:\n  dup1\n  iszero\n  tag_9\n  jumpi\n  dup1\n  0x1f\n  lt\n  tag_10\n  jumpi\n  0x0100\n  dup1\n  dup4\n  sload\n  div\n  mul\n  dup4\n  mstore\n  swap2\n  0x20\n  add\n  swap2\n  jump(tag_9)\ntag_10:\n  dup3\n  add\n  swap2\n  swap1\n  0x00\n  mstore\n  keccak256(0x00, 0x20)\n  swap1\ntag_11:\n  dup2\n  sload\n  dup2\n  mstore\n  swap1\n  0x01\n  add\n  swap1\n  0x20\n  add\n  dup1\n  dup4\n  gt\n  tag_11\n  jumpi\n  dup3\n  swap1\n  sub\n  0x1f\n  and\n  dup3\n  add\n  swap2\ntag_9:\n  pop\n  pop\n  pop\n  pop\n  pop\n  swap6\n  pop\n    /* \"Contracts/AuctionSPU.sol\":3793:4366  constructor(... */\n  pop\n  pop\n  pop\n  pop\n  pop\n  pop\n  pop\n  pop\n    /* \"Contracts/AuctionSPU.sol\":1490:12039  contract AuctionSPU {... */\n  jump(tag_12)\n    /* \"#utility.yul\":7:82   */\ntag_13:\n    /* \"#utility.yul\":40:46   */\n  0x00\n    /* \"#utility.yul\":73:75   */\n  0x40\n    /* \"#utility.yul\":67:76   */\n  mload\n    /* \"#utility.yul\":57:76   */\n  swap1\n  pop\n    /* \"#utility.yul\":7:82   */\n  swap1\n  jump\t// out\n    /* \"#utility.yul\":88:205   */\ntag_14:\n    /* \"#utility.yul\":197:198   */\n  0x00\n    /* \"#utility.yul\":194:195   */\n  dup1\n    /* \"#utility.yul\":187:199   */\n  revert\n    /* \"#utility.yul\":211:328   */\ntag_15:\n    /* \"#utility.yul\":320:321   */\n  0x00\n    /* \"#utility.yul\":317:318   */\n  dup1\n    /* \"#utility.yul\":310:322   */\n  revert\n    /* \"#utility.yul\":334:460   */\ntag_16:\n    /* \"#utility.yul\":371:378   */\n  0x00\n    /* \"#utility.yul\":411:453   */\n  0xffffffffffffffffffffffffffffffffffffffff\n    /* \"#utility.yul\":404:409   */\n  dup3\n    /* \"#utility.yul\":400:454   */\n  and\n    /* \"#utility.yul\":389:454   */\n  swap1\n  pop\n    /* \"#utility.yul\":334:460   */\n  swap2\n  swap1\n  pop\n  jump\t// out\n    /* \"#utility.yul\":466:562   */\ntag_17:\n    /* \"#utility.yul\":503:510   */\n  0x00\n    /* \"#utility.yul\":532:556   */\n  tag_40\n    /* \"#utility.yul\":550:555   */\n  dup3\n    /* \"#utility.yul\":532:556   */\n  tag_16\n  jump\t// in\ntag_40:\n    /* \"#utility.yul\":521:556   */\n  swap1\n  pop\n    /* \"#utility.yul\":466:562   */\n  swap2\n  swap1\n  pop\n  jump\t// out\n    /* \"#utility.yul\":568:690   */\ntag_18:\n    /* \"#utility.yul\":641:665   */\n  tag_42\n    /* \"#utility.yul\":659:664   */\n  dup2\n    /* \"#utility.yul\":641:665   */\n  tag_17\n  jump\t// in\ntag_42:\n    /* \"#utility.yul\":634:639   */\n  dup2\n    /* \"#utility.yul\":631:666   */\n  eq\n    /* \"#utility.yul\":621:684   */\n  tag_43\n  jumpi\n    /* \"#utility.yul\":680:681   */\n  0x00\n    /* \"#utility.yul\":677:678   */\n  dup1\n    /* \"#utility.yul\":670:682   */\n  revert\n    /* \"#utility.yul\":621:684   */\ntag_43:\n    /* \"#utility.yul\":568:690   */\n  pop\n  jump\t// out\n    /* \"#utility.yul\":696:839   */\ntag_19:\n    /* \"#utility.yul\":753:758   */\n  0x00\n    /* \"#utility.yul\":784:790   */\n  dup2\n    /* \"#utility.yul\":778:791   */\n  mload\n    /* \"#utility.yul\":769:791   */\n  swap1\n  pop\n    /* \"#utility.yul\":800:833   */\n  tag_45\n    /* \"#utility.yul\":827:832   */\n  dup2\n    /* \"#utility.yul\":800:833   */\n  tag_18\n  jump\t// in\ntag_45:\n    /* \"#utility.yul\":696:839   */\n  swap3\n  swap2\n  pop\n  pop\n  jump\t// out\n    /* \"#utility.yul\":845:962   */\ntag_20:\n    /* \"#utility.yul\":954:955   */\n  0x00\n    /* \"#utility.yul\":951:952   */\n  dup1\n    /* \"#utility.yul\":944:956   */\n  revert\n    /* \"#utility.yul\":968:1085   */\ntag_21:\n    /* \"#utility.yul\":1077:1078   */\n  0x00\n    /* \"#utility.yul\":1074:1075   */\n  dup1\n    /* \"#utility.yul\":1067:1079   */\n  revert\n    /* \"#utility.yul\":1091:1193   */\ntag_22:\n    /* \"#utility.yul\":1132:1138   */\n  0x00\n    /* \"#utility.yul\":1183:1185   */\n  0x1f\n    /* \"#utility.yul\":1179:1186   */\n  not\n    /* \"#utility.yul\":1174:1176   */\n  0x1f\n    /* \"#utility.yul\":1167:1172   */\n  dup4\n    /* \"#utility.yul\":1163:1177   */\n  add\n    /* \"#utility.yul\":1159:1187   */\n  and\n    /* \"#utility.yul\":1149:1187   */\n  swap1\n  pop\n    /* \"#utility.yul\":1091:1193   */\n  swap2\n  swap1\n  pop\n  jump\t// out\n    /* \"#utility.yul\":1199:1379   */\ntag_23:\n    /* \"#utility.yul\":1247:1324   */\n  0x4e487b7100000000000000000000000000000000000000000000000000000000\n    /* \"#utility.yul\":1244:1245   */\n  0x00\n    /* \"#utility.yul\":1237:1325   */\n  mstore\n    /* \"#utility.yul\":1344:1348   */\n  0x41\n    /* \"#utility.yul\":1341:1342   */\n  0x04\n    /* \"#utility.yul\":1334:1349   */\n  mstore\n    /* \"#utility.yul\":1368:1372   */\n  0x24\n    /* \"#utility.yul\":1365:1366   */\n  0x00\n    /* \"#utility.yul\":1358:1373   */\n  revert\n    /* \"#utility.yul\":1385:1666   */\ntag_24:\n    /* \"#utility.yul\":1468:1495   */\n  tag_51\n    /* \"#utility.yul\":1490:1494   */\n  dup3\n    /* \"#utility.yul\":1468:1495   */\n  tag_22\n  jump\t// in\ntag_51:\n    /* \"#utility.yul\":1460:1466   */\n  dup2\n    /* \"#utility.yul\":1456:1496   */\n  add\n    /* \"#utility.yul\":1598:1604   */\n  dup2\n    /* \"#utility.yul\":1586:1596   */\n  dup2\n    /* \"#utility.yul\":1583:1605   */\n  lt\n    /* \"#utility.yul\":1562:1580   */\n  0xffffffffffffffff\n    /* \"#utility.yul\":1550:1560   */\n  dup3\n    /* \"#utility.yul\":1547:1581   */\n  gt\n    /* \"#utility.yul\":1544:1606   */\n  or\n    /* \"#utility.yul\":1541:1629   */\n  iszero\n  tag_52\n  jumpi\n    /* \"#utility.yul\":1609:1627   */\n  tag_53\n  tag_23\n  jump\t// in\ntag_53:\n    /* \"#utility.yul\":1541:1629   */\ntag_52:\n    /* \"#utility.yul\":1649:1659   */\n  dup1\n    /* \"#utility.yul\":1645:1647   */\n  0x40\n    /* \"#utility.yul\":1638:1660   */\n  mstore\n    /* \"#utility.yul\":1428:1666   */\n  pop\n    /* \"#utility.yul\":1385:1666   */\n  pop\n  pop\n  jump\t// out\n    /* \"#utility.yul\":1672:1801   */\ntag_25:\n    /* \"#utility.yul\":1706:1712   */\n  0x00\n    /* \"#utility.yul\":1733:1753   */\n  tag_55\n  tag_13\n  jump\t// in\ntag_55:\n    /* \"#utility.yul\":1723:1753   */\n  swap1\n  pop\n    /* \"#utility.yul\":1762:1795   */\n  tag_56\n    /* \"#utility.yul\":1790:1794   */\n  dup3\n    /* \"#utility.yul\":1782:1788   */\n  dup3\n    /* \"#utility.yul\":1762:1795   */\n  tag_24\n  jump\t// in\ntag_56:\n    /* \"#utility.yul\":1672:1801   */\n  swap2\n  swap1\n  pop\n  jump\t// out\n    /* \"#utility.yul\":1807:2115   */\ntag_26:\n    /* \"#utility.yul\":1869:1873   */\n  0x00\n    /* \"#utility.yul\":1959:1977   */\n  0xffffffffffffffff\n    /* \"#utility.yul\":1951:1957   */\n  dup3\n    /* \"#utility.yul\":1948:1978   */\n  gt\n    /* \"#utility.yul\":1945:2001   */\n  iszero\n  tag_58\n  jumpi\n    /* \"#utility.yul\":1981:1999   */\n  tag_59\n  tag_23\n  jump\t// in\ntag_59:\n    /* \"#utility.yul\":1945:2001   */\ntag_58:\n    /* \"#utility.yul\":2019:2048   */\n  tag_60\n    /* \"#utility.yul\":2041:2047   */\n  dup3\n    /* \"#utility.yul\":2019:2048   */\n  tag_22\n  jump\t// in\ntag_60:\n    /* \"#utility.yul\":2011:2048   */\n  swap1\n  pop\n    /* \"#utility.yul\":2103:2107   */\n  0x20\n    /* \"#utility.yul\":2097:2101   */\n  dup2\n    /* \"#utility.yul\":2093:2108   */\n  add\n    /* \"#utility.yul\":2085:2108   */\n  swap1\n  pop\n    /* \"#utility.yul\":1807:2115   */\n  swap2\n  swap1\n  pop\n  jump\t// out\n    /* \"#utility.yul\":2121:2367   */\ntag_27:\n    /* \"#utility.yul\":2202:2203   */\n  0x00\n    /* \"#utility.yul\":2212:2325   */\ntag_62:\n    /* \"#utility.yul\":2226:2232   */\n  dup4\n    /* \"#utility.yul\":2223:2224   */\n  dup2\n    /* \"#utility.yul\":2220:2233   */\n  lt\n    /* \"#utility.yul\":2212:2325   */\n  iszero\n  tag_64\n  jumpi\n    /* \"#utility.yul\":2311:2312   */\n  dup1\n    /* \"#utility.yul\":2306:2309   */\n  dup3\n    /* \"#utility.yul\":2302:2313   */\n  add\n    /* \"#utility.yul\":2296:2314   */\n  mload\n    /* \"#utility.yul\":2292:2293   */\n  dup2\n    /* \"#utility.yul\":2287:2290   */\n  dup5\n    /* \"#utility.yul\":2283:2294   */\n  add\n    /* \"#utility.yul\":2276:2315   */\n  mstore\n    /* \"#utility.yul\":2248:2250   */\n  0x20\n    /* \"#utility.yul\":2245:2246   */\n  dup2\n    /* \"#utility.yul\":2241:2251   */\n  add\n    /* \"#utility.yul\":2236:2251   */\n  swap1\n  pop\n    /* \"#utility.yul\":2212:2325   */\n  jump(tag_62)\ntag_64:\n    /* \"#utility.yul\":2359:2360   */\n  0x00\n    /* \"#utility.yul\":2350:2356   */\n  dup5\n    /* \"#utility.yul\":2345:2348   */\n  dup5\n    /* \"#utility.yul\":2341:2357   */\n  add\n    /* \"#utility.yul\":2334:2361   */\n  mstore\n    /* \"#utility.yul\":2183:2367   */\n  pop\n    /* \"#utility.yul\":2121:2367   */\n  pop\n  pop\n  pop\n  jump\t// out\n    /* \"#utility.yul\":2373:2807   */\ntag_28:\n    /* \"#utility.yul\":2462:2467   */\n  0x00\n    /* \"#utility.yul\":2487:2553   */\n  tag_66\n    /* \"#utility.yul\":2503:2552   */\n  tag_67\n    /* \"#utility.yul\":2545:2551   */\n  dup5\n    /* \"#utility.yul\":2503:2552   */\n  tag_26\n  jump\t// in\ntag_67:\n    /* \"#utility.yul\":2487:2553   */\n  tag_25\n  jump\t// in\ntag_66:\n    /* \"#utility.yul\":2478:2553   */\n  swap1\n  pop\n    /* \"#utility.yul\":2576:2582   */\n  dup3\n    /* \"#utility.yul\":2569:2574   */\n  dup2\n    /* \"#utility.yul\":2562:2583   */\n  mstore\n    /* \"#utility.yul\":2614:2618   */\n  0x20\n    /* \"#utility.yul\":2607:2612   */\n  dup2\n    /* \"#utility.yul\":2603:2619   */\n  add\n    /* \"#utility.yul\":2652:2655   */\n  dup5\n    /* \"#utility.yul\":2643:2649   */\n  dup5\n    /* \"#utility.yul\":2638:2641   */\n  dup5\n    /* \"#utility.yul\":2634:2650   */\n  add\n    /* \"#utility.yul\":2631:2656   */\n  gt\n    /* \"#utility.yul\":2628:2740   */\n  iszero\n  tag_68\n  jumpi\n    /* \"#utility.yul\":2659:2738   */\n  tag_69\n  tag_21\n  jump\t// in\ntag_69:\n    /* \"#utility.yul\":2628:2740   */\ntag_68:\n    /* \"#utility.yul\":2749:2801   */\n  tag_70\n    /* \"#utility.yul\":2794:2800   */\n  dup5\n    /* \"#utility.yul\":2789:2792   */\n  dup3\n    /* \"#utility.yul\":2784:2787   */\n  dup6\n    /* \"#utility.yul\":2749:2801   */\n  tag_27\n  jump\t// in\ntag_70:\n    /* \"#utility.yul\":2468:2807   */\n  pop\n    /* \"#utility.yul\":2373:2807   */\n  swap4\n  swap3\n  pop\n  pop\n  pop\n  jump\t// out\n    /* \"#utility.yul\":2827:3182   */\ntag_29:\n    /* \"#utility.yul\":2894:2899   */\n  0x00\n    /* \"#utility.yul\":2943:2946   */\n  dup3\n    /* \"#utility.yul\":2936:2940   */\n  0x1f\n    /* \"#utility.yul\":2928:2934   */\n  dup4\n    /* \"#utility.yul\":2924:2941   */\n  add\n    /* \"#utility.yul\":2920:2947   */\n  slt\n    /* \"#utility.yul\":2910:3032   */\n  tag_72\n  jumpi\n    /* \"#utility.yul\":2951:3030   */\n  tag_73\n  tag_20\n  jump\t// in\ntag_73:\n    /* \"#utility.yul\":2910:3032   */\ntag_72:\n    /* \"#utility.yul\":3061:3067   */\n  dup2\n    /* \"#utility.yul\":3055:3068   */\n  mload\n    /* \"#utility.yul\":3086:3176   */\n  tag_74\n    /* \"#utility.yul\":3172:3175   */\n  dup5\n    /* \"#utility.yul\":3164:3170   */\n  dup3\n    /* \"#utility.yul\":3157:3161   */\n  0x20\n    /* \"#utility.yul\":3149:3155   */\n  dup7\n    /* \"#utility.yul\":3145:3162   */\n  add\n    /* \"#utility.yul\":3086:3176   */\n  tag_28\n  jump\t// in\ntag_74:\n    /* \"#utility.yul\":3077:3176   */\n  swap2\n  pop\n    /* \"#utility.yul\":2900:3182   */\n  pop\n    /* \"#utility.yul\":2827:3182   */\n  swap3\n  swap2\n  pop\n  pop\n  jump\t// out\n    /* \"#utility.yul\":3188:3265   */\ntag_30:\n    /* \"#utility.yul\":3225:3232   */\n  0x00\n    /* \"#utility.yul\":3254:3259   */\n  dup2\n    /* \"#utility.yul\":3243:3259   */\n  swap1\n  pop\n    /* \"#utility.yul\":3188:3265   */\n  swap2\n  swap1\n  pop\n  jump\t// out\n    /* \"#utility.yul\":3271:3393   */\ntag_31:\n    /* \"#utility.yul\":3344:3368   */\n  tag_77\n    /* \"#utility.yul\":3362:3367   */\n  dup2\n    /* \"#utility.yul\":3344:3368   */\n  tag_30\n  jump\t// in\ntag_77:\n    /* \"#utility.yul\":3337:3342   */\n  dup2\n    /* \"#utility.yul\":3334:3369   */\n  eq\n    /* \"#utility.yul\":3324:3387   */\n  tag_78\n  jumpi\n    /* \"#utility.yul\":3383:3384   */\n  0x00\n    /* \"#utility.yul\":3380:3381   */\n  dup1\n    /* \"#utility.yul\":3373:3385   */\n  revert\n    /* \"#utility.yul\":3324:3387   */\ntag_78:\n    /* \"#utility.yul\":3271:3393   */\n  pop\n  jump\t// out\n    /* \"#utility.yul\":3399:3542   */\ntag_32:\n    /* \"#utility.yul\":3456:3461   */\n  0x00\n    /* \"#utility.yul\":3487:3493   */\n  dup2\n    /* \"#utility.yul\":3481:3494   */\n  mload\n    /* \"#utility.yul\":3472:3494   */\n  swap1\n  pop\n    /* \"#utility.yul\":3503:3536   */\n  tag_80\n    /* \"#utility.yul\":3530:3535   */\n  dup2\n    /* \"#utility.yul\":3503:3536   */\n  tag_31\n  jump\t// in\ntag_80:\n    /* \"#utility.yul\":3399:3542   */\n  swap3\n  swap2\n  pop\n  pop\n  jump\t// out\n    /* \"#utility.yul\":3548:5169   */\ntag_3:\n    /* \"#utility.yul\":3691:3697   */\n  0x00\n    /* \"#utility.yul\":3699:3705   */\n  dup1\n    /* \"#utility.yul\":3707:3713   */\n  0x00\n    /* \"#utility.yul\":3715:3721   */\n  dup1\n    /* \"#utility.yul\":3723:3729   */\n  0x00\n    /* \"#utility.yul\":3731:3737   */\n  dup1\n    /* \"#utility.yul\":3739:3745   */\n  0x00\n    /* \"#utility.yul\":3747:3753   */\n  dup1\n    /* \"#utility.yul\":3796:3799   */\n  0x0100\n    /* \"#utility.yul\":3784:3793   */\n  dup10\n    /* \"#utility.yul\":3775:3782   */\n  dup12\n    /* \"#utility.yul\":3771:3794   */\n  sub\n    /* \"#utility.yul\":3767:3800   */\n  slt\n    /* \"#utility.yul\":3764:3884   */\n  iszero\n  tag_82\n  jumpi\n    /* \"#utility.yul\":3803:3882   */\n  tag_83\n  tag_14\n  jump\t// in\ntag_83:\n    /* \"#utility.yul\":3764:3884   */\ntag_82:\n    /* \"#utility.yul\":3923:3924   */\n  0x00\n    /* \"#utility.yul\":3948:4012   */\n  tag_84\n    /* \"#utility.yul\":4004:4011   */\n  dup12\n    /* \"#utility.yul\":3995:4001   */\n  dup3\n    /* \"#utility.yul\":3984:3993   */\n  dup13\n    /* \"#utility.yul\":3980:4002   */\n  add\n    /* \"#utility.yul\":3948:4012   */\n  tag_19\n  jump\t// in\ntag_84:\n    /* \"#utility.yul\":3938:4012   */\n  swap9\n  pop\n    /* \"#utility.yul\":3894:4022   */\n  pop\n    /* \"#utility.yul\":4061:4063   */\n  0x20\n    /* \"#utility.yul\":4087:4151   */\n  tag_85\n    /* \"#utility.yul\":4143:4150   */\n  dup12\n    /* \"#utility.yul\":4134:4140   */\n  dup3\n    /* \"#utility.yul\":4123:4132   */\n  dup13\n    /* \"#utility.yul\":4119:4141   */\n  add\n    /* \"#utility.yul\":4087:4151   */\n  tag_19\n  jump\t// in\ntag_85:\n    /* \"#utility.yul\":4077:4151   */\n  swap8\n  pop\n    /* \"#utility.yul\":4032:4161   */\n  pop\n    /* \"#utility.yul\":4221:4223   */\n  0x40\n    /* \"#utility.yul\":4210:4219   */\n  dup10\n    /* \"#utility.yul\":4206:4224   */\n  add\n    /* \"#utility.yul\":4200:4225   */\n  mload\n    /* \"#utility.yul\":4252:4270   */\n  0xffffffffffffffff\n    /* \"#utility.yul\":4244:4250   */\n  dup2\n    /* \"#utility.yul\":4241:4271   */\n  gt\n    /* \"#utility.yul\":4238:4355   */\n  iszero\n  tag_86\n  jumpi\n    /* \"#utility.yul\":4274:4353   */\n  tag_87\n  tag_15\n  jump\t// in\ntag_87:\n    /* \"#utility.yul\":4238:4355   */\ntag_86:\n    /* \"#utility.yul\":4379:4453   */\n  tag_88\n    /* \"#utility.yul\":4445:4452   */\n  dup12\n    /* \"#utility.yul\":4436:4442   */\n  dup3\n    /* \"#utility.yul\":4425:4434   */\n  dup13\n    /* \"#utility.yul\":4421:4443   */\n  add\n    /* \"#utility.yul\":4379:4453   */\n  tag_29\n  jump\t// in\ntag_88:\n    /* \"#utility.yul\":4369:4453   */\n  swap7\n  pop\n    /* \"#utility.yul\":4171:4463   */\n  pop\n    /* \"#utility.yul\":4502:4504   */\n  0x60\n    /* \"#utility.yul\":4528:4592   */\n  tag_89\n    /* \"#utility.yul\":4584:4591   */\n  dup12\n    /* \"#utility.yul\":4575:4581   */\n  dup3\n    /* \"#utility.yul\":4564:4573   */\n  dup13\n    /* \"#utility.yul\":4560:4582   */\n  add\n    /* \"#utility.yul\":4528:4592   */\n  tag_19\n  jump\t// in\ntag_89:\n    /* \"#utility.yul\":4518:4592   */\n  swap6\n  pop\n    /* \"#utility.yul\":4473:4602   */\n  pop\n    /* \"#utility.yul\":4641:4644   */\n  0x80\n    /* \"#utility.yul\":4668:4732   */\n  tag_90\n    /* \"#utility.yul\":4724:4731   */\n  dup12\n    /* \"#utility.yul\":4715:4721   */\n  dup3\n    /* \"#utility.yul\":4704:4713   */\n  dup13\n    /* \"#utility.yul\":4700:4722   */\n  add\n    /* \"#utility.yul\":4668:4732   */\n  tag_32\n  jump\t// in\ntag_90:\n    /* \"#utility.yul\":4658:4732   */\n  swap5\n  pop\n    /* \"#utility.yul\":4612:4742   */\n  pop\n    /* \"#utility.yul\":4781:4784   */\n  0xa0\n    /* \"#utility.yul\":4808:4872   */\n  tag_91\n    /* \"#utility.yul\":4864:4871   */\n  dup12\n    /* \"#utility.yul\":4855:4861   */\n  dup3\n    /* \"#utility.yul\":4844:4853   */\n  dup13\n    /* \"#utility.yul\":4840:4862   */\n  add\n    /* \"#utility.yul\":4808:4872   */\n  tag_32\n  jump\t// in\ntag_91:\n    /* \"#utility.yul\":4798:4872   */\n  swap4\n  pop\n    /* \"#utility.yul\":4752:4882   */\n  pop\n    /* \"#utility.yul\":4921:4924   */\n  0xc0\n    /* \"#utility.yul\":4948:5012   */\n  tag_92\n    /* \"#utility.yul\":5004:5011   */\n  dup12\n    /* \"#utility.yul\":4995:5001   */\n  dup3\n    /* \"#utility.yul\":4984:4993   */\n  dup13\n    /* \"#utility.yul\":4980:5002   */\n  add\n    /* \"#utility.yul\":4948:5012   */\n  tag_32\n  jump\t// in\ntag_92:\n    /* \"#utility.yul\":4938:5012   */\n  swap3\n  pop\n    /* \"#utility.yul\":4892:5022   */\n  pop\n    /* \"#utility.yul\":5061:5064   */\n  0xe0\n    /* \"#utility.yul\":5088:5152   */\n  tag_93\n    /* \"#utility.yul\":5144:5151   */\n  dup12\n    /* \"#utility.yul\":5135:5141   */\n  dup3\n    /* \"#utility.yul\":5124:5133   */\n  dup13\n    /* \"#utility.yul\":5120:5142   */\n  add\n    /* \"#utility.yul\":5088:5152   */\n  tag_32\n  jump\t// in\ntag_93:\n    /* \"#utility.yul\":5078:5152   */\n  swap2\n  pop\n    /* \"#utility.yul\":5032:5162   */\n  pop\n    /* \"#utility.yul\":3548:5169   */\n  swap3\n  swap6\n  swap9\n  pop\n  swap3\n  swap6\n  swap9\n  swap1\n  swap4\n  swap7\n  pop\n  jump\t// out\n    /* \"#utility.yul\":5175:5355   */\ntag_33:\n    /* \"#utility.yul\":5223:5300   */\n  0x4e487b7100000000000000000000000000000000000000000000000000000000\n    /* \"#utility.yul\":5220:5221   */\n  0x00\n    /* \"#utility.yul\":5213:5301   */\n  mstore\n    /* \"#utility.yul\":5320:5324   */\n  0x22\n    /* \"#utility.yul\":5317:5318   */\n  0x04\n    /* \"#utility.yul\":5310:5325   */\n  mstore\n    /* \"#utility.yul\":5344:5348   */\n  0x24\n    /* \"#utility.yul\":5341:5342   */\n  0x00\n    /* \"#utility.yul\":5334:5349   */\n  revert\n    /* \"#utility.yul\":5361:5681   */\ntag_7:\n    /* \"#utility.yul\":5405:5411   */\n  0x00\n    /* \"#utility.yul\":5442:5443   */\n  0x02\n    /* \"#utility.yul\":5436:5440   */\n  dup3\n    /* \"#utility.yul\":5432:5444   */\n  div\n    /* \"#utility.yul\":5422:5444   */\n  swap1\n  pop\n    /* \"#utility.yul\":5489:5490   */\n  0x01\n    /* \"#utility.yul\":5483:5487   */\n  dup3\n    /* \"#utility.yul\":5479:5491   */\n  and\n    /* \"#utility.yul\":5510:5528   */\n  dup1\n    /* \"#utility.yul\":5500:5581   */\n  tag_96\n  jumpi\n    /* \"#utility.yul\":5566:5570   */\n  0x7f\n    /* \"#utility.yul\":5558:5564   */\n  dup3\n    /* \"#utility.yul\":5554:5571   */\n  and\n    /* \"#utility.yul\":5544:5571   */\n  swap2\n  pop\n    /* \"#utility.yul\":5500:5581   */\ntag_96:\n    /* \"#utility.yul\":5628:5630   */\n  0x20\n    /* \"#utility.yul\":5620:5626   */\n  dup3\n    /* \"#utility.yul\":5617:5631   */\n  lt\n    /* \"#utility.yul\":5597:5615   */\n  dup2\n    /* \"#utility.yul\":5594:5632   */\n  sub\n    /* \"#utility.yul\":5591:5675   */\n  tag_97\n  jumpi\n    /* \"#utility.yul\":5647:5665   */\n  tag_98\n  tag_33\n  jump\t// in\ntag_98:\n    /* \"#utility.yul\":5591:5675   */\ntag_97:\n    /* \"#utility.yul\":5412:5681   */\n  pop\n    /* \"#utility.yul\":5361:5681   */\n  swap2\n  swap1\n  pop\n  jump\t// out\n    /* \"Contracts/AuctionSPU.sol\":1490:12039  contract AuctionSPU {... */\ntag_12:\n  dataSize(sub_0)\n  dup1\n  dataOffset(sub_0)\n  0x00\n  codecopy\n  0x00\n  return\nstop\n\nsub_0: assembly {\n        /* \"Contracts/AuctionSPU.sol\":1490:12039  contract AuctionSPU {... */\n      mstore(0x40, 0x80)\n      jumpi(tag_1, lt(calldatasize, 0x04))\n      shr(0xe0, calldataload(0x00))\n      dup1\n      0x5c975abb\n      gt\n      tag_28\n      jumpi\n      dup1\n      0xc683630d\n      gt\n      tag_29\n      jumpi\n      dup1\n      0xd57bde79\n      gt\n      tag_30\n      jumpi\n      dup1\n      0xd57bde79\n      eq\n      tag_24\n      jumpi\n      dup1\n      0xd6b4675b\n      eq\n      tag_25\n      jumpi\n      dup1\n      0xecefc705\n      eq\n      tag_26\n      jumpi\n      dup1\n      0xfe67a54b\n      eq\n      tag_27\n      jumpi\n      jump(tag_2)\n    tag_30:\n      dup1\n      0xc683630d\n      eq\n      tag_21\n      jumpi\n      dup1\n      0xc6bc5182\n      eq\n      tag_22\n      jumpi\n      dup1\n      0xceb16419\n      eq\n      tag_23\n      jumpi\n      jump(tag_2)\n    tag_29:\n      dup1\n      0x5c975abb\n      eq\n      tag_15\n      jumpi\n      dup1\n      0x6b64c769\n      eq\n      tag_16\n      jumpi\n      dup1\n      0x7cc3ae8c\n      eq\n      tag_17\n      jumpi\n      dup1\n      0x91f90157\n      eq\n      tag_18\n      jumpi\n      dup1\n      0x95ecc5cc\n      eq\n      tag_19\n      jumpi\n      dup1\n      0xb9ae7364\n      eq\n      tag_20\n      jumpi\n      jump(tag_2)\n    tag_28:\n      dup1\n      0x1f2698ab\n      gt\n      tag_31\n      jumpi\n      dup1\n      0x1f2698ab\n      eq\n      tag_9\n      jumpi\n      dup1\n      0x2aeee493\n      eq\n      tag_10\n      jumpi\n      dup1\n      0x378252f2\n      eq\n      tag_11\n      jumpi\n      dup1\n      0x41275358\n      eq\n      tag_12\n      jumpi\n      dup1\n      0x47ccca02\n      eq\n      tag_13\n      jumpi\n      dup1\n      0x53d6fd59\n      eq\n      tag_14\n      jumpi\n      jump(tag_2)\n    tag_31:\n      dup1\n      0x08551a53\n      eq\n      tag_3\n      jumpi\n      dup1\n      0x12065fe0\n      eq\n      tag_4\n      jumpi\n      dup1\n      0x12fa6feb\n      eq\n      tag_5\n      jumpi\n      dup1\n      0x17d531fc\n      eq\n      tag_6\n      jumpi\n      dup1\n      0x1cf5e669\n      eq\n      tag_7\n      jumpi\n      dup1\n      0x1df4ccfc\n      eq\n      tag_8\n      jumpi\n      jump(tag_2)\n    tag_1:\n      jumpi(tag_2, calldatasize)\n        /* \"Contracts/AuctionSPU.sol\":4564:4570  seller */\n      0x02\n      0x00\n      swap1\n      sload\n      swap1\n      0x0100\n      exp\n      swap1\n      div\n      0xffffffffffffffffffffffffffffffffffffffff\n      and\n        /* \"Contracts/AuctionSPU.sol\":4550:4570  msg.sender == seller */\n      0xffffffffffffffffffffffffffffffffffffffff\n      and\n        /* \"Contracts/AuctionSPU.sol\":4550:4560  msg.sender */\n      caller\n        /* \"Contracts/AuctionSPU.sol\":4550:4570  msg.sender == seller */\n      0xffffffffffffffffffffffffffffffffffffffff\n      and\n      eq\n        /* \"Contracts/AuctionSPU.sol\":4542:4594  require(msg.sender == seller, \"Sender is not owner\") */\n      tag_34\n      jumpi\n      mload(0x40)\n      0x08c379a000000000000000000000000000000000000000000000000000000000\n      dup2\n      mstore\n      0x04\n      add\n      tag_35\n      swap1\n      tag_36\n      jump\t// in\n    tag_35:\n      mload(0x40)\n      dup1\n      swap2\n      sub\n      swap1\n      revert\n    tag_34:\n        /* \"Contracts/AuctionSPU.sol\":1490:12039  contract AuctionSPU {... */\n      stop\n    tag_2:\n        /* \"Contracts/AuctionSPU.sol\":4564:4570  seller */\n      0x02\n      0x00\n      swap1\n      sload\n      swap1\n      0x0100\n      exp\n      swap1\n      div\n      0xffffffffffffffffffffffffffffffffffffffff\n      and\n        /* \"Contracts/AuctionSPU.sol\":4550:4570  msg.sender == seller */\n      0xffffffffffffffffffffffffffffffffffffffff\n      and\n        /* \"Contracts/AuctionSPU.sol\":4550:4560  msg.sender */\n      caller\n        /* \"Contracts/AuctionSPU.sol\":4550:4570  msg.sender == seller */\n      0xffffffffffffffffffffffffffffffffffffffff\n      and\n      eq\n        /* \"Contracts/AuctionSPU.sol\":4542:4594  require(msg.sender == seller, \"Sender is not owner\") */\n      tag_40\n      jumpi\n      mload(0x40)\n      0x08c379a000000000000000000000000000000000000000000000000000000000\n      dup2\n      mstore\n      0x04\n      add\n      tag_41\n      swap1\n      tag_36\n      jump\t// in\n    tag_41:\n      mload(0x40)\n      dup1\n      swap2\n      sub\n      swap1\n      revert\n    tag_40:\n        /* \"Contracts/AuctionSPU.sol\":1490:12039  contract AuctionSPU {... */\n      stop\n        /* \"Contracts/AuctionSPU.sol\":2510:2539  address payable public seller */\n    tag_3:\n      callvalue\n      dup1\n      iszero\n      tag_43\n      jumpi\n      0x00\n      dup1\n      revert\n    tag_43:\n      pop\n      tag_44\n      tag_45\n      jump\t// in\n    tag_44:\n      mload(0x40)\n      tag_46\n      swap2\n      swap1\n      tag_47\n      jump\t// in\n    tag_46:\n      mload(0x40)\n      dup1\n      swap2\n      sub\n      swap1\n      return\n        /* \"Contracts/AuctionSPU.sol\":5440:5536  function getBalance() public view returns (uint) {... */\n    tag_4:\n      callvalue\n      dup1\n      iszero\n      tag_48\n      jumpi\n      0x00\n      dup1\n      revert\n    tag_48:\n      pop\n      tag_49\n      tag_50\n      jump\t// in\n    tag_49:\n      mload(0x40)\n      tag_51\n      swap2\n      swap1\n      tag_52\n      jump\t// in\n    tag_51:\n      mload(0x40)\n      dup1\n      swap2\n      sub\n      swap1\n      return\n        /* \"Contracts/AuctionSPU.sol\":2702:2719  bool public ended */\n    tag_5:\n      callvalue\n      dup1\n      iszero\n      tag_53\n      jumpi\n      0x00\n      dup1\n      revert\n    tag_53:\n      pop\n      tag_54\n      tag_55\n      jump\t// in\n    tag_54:\n      mload(0x40)\n      tag_56\n      swap2\n      swap1\n      tag_57\n      jump\t// in\n    tag_56:\n      mload(0x40)\n      dup1\n      swap2\n      sub\n      swap1\n      return\n        /* \"Contracts/AuctionSPU.sol\":2751:2775  uint public numberOfBids */\n    tag_6:\n      callvalue\n      dup1\n      iszero\n      tag_58\n      jumpi\n      0x00\n      dup1\n      revert\n    tag_58:\n      pop\n      tag_59\n      tag_60\n      jump\t// in\n    tag_59:\n      mload(0x40)\n      tag_61\n      swap2\n      swap1\n      tag_52\n      jump\t// in\n    tag_61:\n      mload(0x40)\n      dup1\n      swap2\n      sub\n      swap1\n      return\n        /* \"Contracts/AuctionSPU.sol\":2586:2613  address public docsRegister */\n    tag_7:\n      callvalue\n      dup1\n      iszero\n      tag_62\n      jumpi\n      0x00\n      dup1\n      revert\n    tag_62:\n      pop\n      tag_63\n      tag_64\n      jump\t// in\n    tag_63:\n      mload(0x40)\n      tag_65\n      swap2\n      swap1\n      tag_66\n      jump\t// in\n    tag_65:\n      mload(0x40)\n      dup1\n      swap2\n      sub\n      swap1\n      return\n        /* \"Contracts/AuctionSPU.sol\":2860:2880  uint public totalFee */\n    tag_8:\n      callvalue\n      dup1\n      iszero\n      tag_67\n      jumpi\n      0x00\n      dup1\n      revert\n    tag_67:\n      pop\n      tag_68\n      tag_69\n      jump\t// in\n    tag_68:\n      mload(0x40)\n      tag_70\n      swap2\n      swap1\n      tag_52\n      jump\t// in\n    tag_70:\n      mload(0x40)\n      dup1\n      swap2\n      sub\n      swap1\n      return\n        /* \"Contracts/AuctionSPU.sol\":2676:2695  bool public started */\n    tag_9:\n      callvalue\n      dup1\n      iszero\n      tag_71\n      jumpi\n      0x00\n      dup1\n      revert\n    tag_71:\n      pop\n      tag_72\n      tag_73\n      jump\t// in\n    tag_72:\n      mload(0x40)\n      tag_74\n      swap2\n      swap1\n      tag_57\n      jump\t// in\n    tag_74:\n      mload(0x40)\n      dup1\n      swap2\n      sub\n      swap1\n      return\n        /* \"Contracts/AuctionSPU.sol\":7538:8948  function newBid(... */\n    tag_10:\n      tag_75\n      0x04\n      dup1\n      calldatasize\n      sub\n      dup2\n      add\n      swap1\n      tag_76\n      swap2\n      swap1\n      tag_77\n      jump\t// in\n    tag_76:\n      tag_78\n      jump\t// in\n    tag_75:\n      stop\n        /* \"Contracts/AuctionSPU.sol\":9913:11095  function closeAuction() external onlyOwner {... */\n    tag_11:\n      callvalue\n      dup1\n      iszero\n      tag_79\n      jumpi\n      0x00\n      dup1\n      revert\n    tag_79:\n      pop\n      tag_80\n      tag_81\n      jump\t// in\n    tag_80:\n      stop\n        /* \"Contracts/AuctionSPU.sol\":2546:2579  address payable public feeAddress */\n    tag_12:\n      callvalue\n      dup1\n      iszero\n      tag_82\n      jumpi\n      0x00\n      dup1\n      revert\n    tag_82:\n      pop\n      tag_83\n      tag_84\n      jump\t// in\n    tag_83:\n      mload(0x40)\n      tag_85\n      swap2\n      swap1\n      tag_47\n      jump\t// in\n    tag_85:\n      mload(0x40)\n      dup1\n      swap2\n      sub\n      swap1\n      return\n        /* \"Contracts/AuctionSPU.sol\":2461:2479  IERC721 public nft */\n    tag_13:\n      callvalue\n      dup1\n      iszero\n      tag_86\n      jumpi\n      0x00\n      dup1\n      revert\n    tag_86:\n      pop\n      tag_87\n      tag_88\n      jump\t// in\n    tag_87:\n      mload(0x40)\n      tag_89\n      swap2\n      swap1\n      tag_90\n      jump\t// in\n    tag_89:\n      mload(0x40)\n      dup1\n      swap2\n      sub\n      swap1\n      return\n        /* \"Contracts/AuctionSPU.sol\":11295:11470  function setWhitelist(address _account, bool enable) external onlyOwner {... */\n    tag_14:\n      callvalue\n      dup1\n      iszero\n      tag_91\n      jumpi\n      0x00\n      dup1\n      revert\n    tag_91:\n      pop\n      tag_92\n      0x04\n      dup1\n      calldatasize\n      sub\n      dup2\n      add\n      swap1\n      tag_93\n      swap2\n      swap1\n      tag_94\n      jump\t// in\n    tag_93:\n      tag_95\n      jump\t// in\n    tag_92:\n      stop\n        /* \"Contracts/AuctionSPU.sol\":2726:2744  bool public paused */\n    tag_15:\n      callvalue\n      dup1\n      iszero\n      tag_96\n      jumpi\n      0x00\n      dup1\n      revert\n    tag_96:\n      pop\n      tag_97\n      tag_98\n      jump\t// in\n    tag_97:\n      mload(0x40)\n      tag_99\n      swap2\n      swap1\n      tag_57\n      jump\t// in\n    tag_99:\n      mload(0x40)\n      dup1\n      swap2\n      sub\n      swap1\n      return\n        /* \"Contracts/AuctionSPU.sol\":5656:5874  function startAuction() external onlyOwner {... */\n    tag_16:\n      callvalue\n      dup1\n      iszero\n      tag_100\n      jumpi\n      0x00\n      dup1\n      revert\n    tag_100:\n      pop\n      tag_101\n      tag_102\n      jump\t// in\n    tag_101:\n      stop\n        /* \"Contracts/AuctionSPU.sol\":2652:2669  uint public endAt */\n    tag_17:\n      callvalue\n      dup1\n      iszero\n      tag_103\n      jumpi\n      0x00\n      dup1\n      revert\n    tag_103:\n      pop\n      tag_104\n      tag_105\n      jump\t// in\n    tag_104:\n      mload(0x40)\n      tag_106\n      swap2\n      swap1\n      tag_52\n      jump\t// in\n    tag_106:\n      mload(0x40)\n      dup1\n      swap2\n      sub\n      swap1\n      return\n        /* \"Contracts/AuctionSPU.sol\":2887:2915  address public highestBidder */\n    tag_18:\n      callvalue\n      dup1\n      iszero\n      tag_107\n      jumpi\n      0x00\n      dup1\n      revert\n    tag_107:\n      pop\n      tag_108\n      tag_109\n      jump\t// in\n    tag_108:\n      mload(0x40)\n      tag_110\n      swap2\n      swap1\n      tag_66\n      jump\t// in\n    tag_110:\n      mload(0x40)\n      dup1\n      swap2\n      sub\n      swap1\n      return\n        /* \"Contracts/AuctionSPU.sol\":3108:3155  mapping(address => Bidders) public receivedBids */\n    tag_19:\n      callvalue\n      dup1\n      iszero\n      tag_111\n      jumpi\n      0x00\n      dup1\n      revert\n    tag_111:\n      pop\n      tag_112\n      0x04\n      dup1\n      calldatasize\n      sub\n      dup2\n      add\n      swap1\n      tag_113\n      swap2\n      swap1\n      tag_114\n      jump\t// in\n    tag_113:\n      tag_115\n      jump\t// in\n    tag_112:\n      mload(0x40)\n      tag_116\n      swap6\n      swap5\n      swap4\n      swap3\n      swap2\n      swap1\n      tag_117\n      jump\t// in\n    tag_116:\n      mload(0x40)\n      dup1\n      swap2\n      sub\n      swap1\n      return\n        /* \"Contracts/AuctionSPU.sol\":6370:6534  function pauseAuction() external onlyOwner {... */\n    tag_20:\n      callvalue\n      dup1\n      iszero\n      tag_118\n      jumpi\n      0x00\n      dup1\n      revert\n    tag_118:\n      pop\n      tag_119\n      tag_120\n      jump\t// in\n    tag_119:\n      stop\n        /* \"Contracts/AuctionSPU.sol\":11922:12036  function isWhitelist(address _account) public view returns (bool) {... */\n    tag_21:\n      callvalue\n      dup1\n      iszero\n      tag_121\n      jumpi\n      0x00\n      dup1\n      revert\n    tag_121:\n      pop\n      tag_122\n      0x04\n      dup1\n      calldatasize\n      sub\n      dup2\n      add\n      swap1\n      tag_123\n      swap2\n      swap1\n      tag_114\n      jump\t// in\n    tag_123:\n      tag_124\n      jump\t// in\n    tag_122:\n      mload(0x40)\n      tag_125\n      swap2\n      swap1\n      tag_57\n      jump\t// in\n    tag_125:\n      mload(0x40)\n      dup1\n      swap2\n      sub\n      swap1\n      return\n        /* \"Contracts/AuctionSPU.sol\":2486:2503  uint public nftId */\n    tag_22:\n      callvalue\n      dup1\n      iszero\n      tag_126\n      jumpi\n      0x00\n      dup1\n      revert\n    tag_126:\n      pop\n      tag_127\n      tag_128\n      jump\t// in\n    tag_127:\n      mload(0x40)\n      tag_129\n      swap2\n      swap1\n      tag_52\n      jump\t// in\n    tag_129:\n      mload(0x40)\n      dup1\n      swap2\n      sub\n      swap1\n      return\n        /* \"Contracts/AuctionSPU.sol\":6666:6835  function unpauseAuction() external onlyOwner {... */\n    tag_23:\n      callvalue\n      dup1\n      iszero\n      tag_130\n      jumpi\n      0x00\n      dup1\n      revert\n    tag_130:\n      pop\n      tag_131\n      tag_132\n      jump\t// in\n    tag_131:\n      stop\n        /* \"Contracts/AuctionSPU.sol\":2922:2944  uint public highestBid */\n    tag_24:\n      callvalue\n      dup1\n      iszero\n      tag_133\n      jumpi\n      0x00\n      dup1\n      revert\n    tag_133:\n      pop\n      tag_134\n      tag_135\n      jump\t// in\n    tag_134:\n      mload(0x40)\n      tag_136\n      swap2\n      swap1\n      tag_52\n      jump\t// in\n    tag_136:\n      mload(0x40)\n      dup1\n      swap2\n      sub\n      swap1\n      return\n        /* \"Contracts/AuctionSPU.sol\":2620:2645  string public docsProcess */\n    tag_25:\n      callvalue\n      dup1\n      iszero\n      tag_137\n      jumpi\n      0x00\n      dup1\n      revert\n    tag_137:\n      pop\n      tag_138\n      tag_139\n      jump\t// in\n    tag_138:\n      mload(0x40)\n      tag_140\n      swap2\n      swap1\n      tag_141\n      jump\t// in\n    tag_140:\n      mload(0x40)\n      dup1\n      swap2\n      sub\n      swap1\n      return\n        /* \"Contracts/AuctionSPU.sol\":2816:2853  uint public constant FEE_BASE = 10000 */\n    tag_26:\n      callvalue\n      dup1\n      iszero\n      tag_142\n      jumpi\n      0x00\n      dup1\n      revert\n    tag_142:\n      pop\n      tag_143\n      tag_144\n      jump\t// in\n    tag_143:\n      mload(0x40)\n      tag_145\n      swap2\n      swap1\n      tag_52\n      jump\t// in\n    tag_145:\n      mload(0x40)\n      dup1\n      swap2\n      sub\n      swap1\n      return\n        /* \"Contracts/AuctionSPU.sol\":5998:6242  function endAuction() external onlyOwner auctionStarted {... */\n    tag_27:\n      callvalue\n      dup1\n      iszero\n      tag_146\n      jumpi\n      0x00\n      dup1\n      revert\n    tag_146:\n      pop\n      tag_147\n      tag_148\n      jump\t// in\n    tag_147:\n      stop\n        /* \"Contracts/AuctionSPU.sol\":2510:2539  address payable public seller */\n    tag_45:\n      0x02\n      0x00\n      swap1\n      sload\n      swap1\n      0x0100\n      exp\n      swap1\n      div\n      0xffffffffffffffffffffffffffffffffffffffff\n      and\n      dup2\n      jump\t// out\n        /* \"Contracts/AuctionSPU.sol\":5440:5536  function getBalance() public view returns (uint) {... */\n    tag_50:\n        /* \"Contracts/AuctionSPU.sol\":5483:5487  uint */\n      0x00\n        /* \"Contracts/AuctionSPU.sol\":5507:5528  address(this).balance */\n      selfbalance\n        /* \"Contracts/AuctionSPU.sol\":5500:5528  return address(this).balance */\n      swap1\n      pop\n        /* \"Contracts/AuctionSPU.sol\":5440:5536  function getBalance() public view returns (uint) {... */\n      swap1\n      jump\t// out\n        /* \"Contracts/AuctionSPU.sol\":2702:2719  bool public ended */\n    tag_55:\n      0x07\n      0x01\n      swap1\n      sload\n      swap1\n      0x0100\n      exp\n      swap1\n      div\n      0xff\n      and\n      dup2\n      jump\t// out\n        /* \"Contracts/AuctionSPU.sol\":2751:2775  uint public numberOfBids */\n    tag_60:\n      sload(0x08)\n      dup2\n      jump\t// out\n        /* \"Contracts/AuctionSPU.sol\":2586:2613  address public docsRegister */\n    tag_64:\n      0x04\n      0x00\n      swap1\n      sload\n      swap1\n      0x0100\n      exp\n      swap1\n      div\n      0xffffffffffffffffffffffffffffffffffffffff\n      and\n      dup2\n      jump\t// out\n        /* \"Contracts/AuctionSPU.sol\":2860:2880  uint public totalFee */\n    tag_69:\n      sload(0x0a)\n      dup2\n      jump\t// out\n        /* \"Contracts/AuctionSPU.sol\":2676:2695  bool public started */\n    tag_73:\n      0x07\n      0x00\n      swap1\n      sload\n      swap1\n      0x0100\n      exp\n      swap1\n      div\n      0xff\n      and\n      dup2\n      jump\t// out\n        /* \"Contracts/AuctionSPU.sol\":7538:8948  function newBid(... */\n    tag_78:\n        /* \"Contracts/AuctionSPU.sol\":5022:5029  started */\n      0x07\n      0x00\n      swap1\n      sload\n      swap1\n      0x0100\n      exp\n      swap1\n      div\n      0xff\n      and\n        /* \"Contracts/AuctionSPU.sol\":5014:5049  require(started, \"Not Started Yet\") */\n      tag_151\n      jumpi\n      mload(0x40)\n      0x08c379a000000000000000000000000000000000000000000000000000000000\n      dup2\n      mstore\n      0x04\n      add\n      tag_152\n      swap1\n      tag_153\n      jump\t// in\n    tag_152:\n      mload(0x40)\n      dup1\n      swap2\n      sub\n      swap1\n      revert\n    tag_151:\n        /* \"Contracts/AuctionSPU.sol\":4790:4796  paused */\n      0x07\n      0x02\n      swap1\n      sload\n      swap1\n      0x0100\n      exp\n      swap1\n      div\n      0xff\n      and\n        /* \"Contracts/AuctionSPU.sol\":4789:4796  !paused */\n      iszero\n        /* \"Contracts/AuctionSPU.sol\":4781:4815  require(!paused, \"Auction Paused\") */\n      tag_155\n      jumpi\n      mload(0x40)\n      0x08c379a000000000000000000000000000000000000000000000000000000000\n      dup2\n      mstore\n      0x04\n      add\n      tag_156\n      swap1\n      tag_157\n      jump\t// in\n    tag_156:\n      mload(0x40)\n      dup1\n      swap2\n      sub\n      swap1\n      revert\n    tag_155:\n        /* \"Contracts/AuctionSPU.sol\":7749:7754  endAt */\n      sload(0x06)\n        /* \"Contracts/AuctionSPU.sol\":7731:7746  block.timestamp */\n      timestamp\n        /* \"Contracts/AuctionSPU.sol\":7731:7754  block.timestamp < endAt */\n      lt\n        /* \"Contracts/AuctionSPU.sol\":7723:7772  require(block.timestamp < endAt, \"Already ended\") */\n      tag_159\n      jumpi\n      mload(0x40)\n      0x08c379a000000000000000000000000000000000000000000000000000000000\n      dup2\n      mstore\n      0x04\n      add\n      tag_160\n      swap1\n      tag_161\n      jump\t// in\n    tag_160:\n      mload(0x40)\n      dup1\n      swap2\n      sub\n      swap1\n      revert\n    tag_159:\n        /* \"Contracts/AuctionSPU.sol\":7805:7811  seller */\n      0x02\n      0x00\n      swap1\n      sload\n      swap1\n      0x0100\n      exp\n      swap1\n      div\n      0xffffffffffffffffffffffffffffffffffffffff\n      and\n        /* \"Contracts/AuctionSPU.sol\":7791:7811  msg.sender != seller */\n      0xffffffffffffffffffffffffffffffffffffffff\n      and\n        /* \"Contracts/AuctionSPU.sol\":7791:7801  msg.sender */\n      caller\n        /* \"Contracts/AuctionSPU.sol\":7791:7811  msg.sender != seller */\n      0xffffffffffffffffffffffffffffffffffffffff\n      and\n      sub\n        /* \"Contracts/AuctionSPU.sol\":7783:7834  require(msg.sender != seller, \"Seller not allowed\") */\n      tag_162\n      jumpi\n      mload(0x40)\n      0x08c379a000000000000000000000000000000000000000000000000000000000\n      dup2\n      mstore\n      0x04\n      add\n      tag_163\n      swap1\n      tag_164\n      jump\t// in\n    tag_163:\n      mload(0x40)\n      dup1\n      swap2\n      sub\n      swap1\n      revert\n    tag_162:\n        /* \"Contracts/AuctionSPU.sol\":7853:7877  _isWhitelist(msg.sender) */\n      tag_165\n        /* \"Contracts/AuctionSPU.sol\":7866:7876  msg.sender */\n      caller\n        /* \"Contracts/AuctionSPU.sol\":7853:7865  _isWhitelist */\n      tag_166\n        /* \"Contracts/AuctionSPU.sol\":7853:7877  _isWhitelist(msg.sender) */\n      jump\t// in\n    tag_165:\n        /* \"Contracts/AuctionSPU.sol\":7845:7899  require(_isWhitelist(msg.sender), \"Permission denied\") */\n      tag_167\n      jumpi\n      mload(0x40)\n      0x08c379a000000000000000000000000000000000000000000000000000000000\n      dup2\n      mstore\n      0x04\n      add\n      tag_168\n      swap1\n      tag_169\n      jump\t// in\n    tag_168:\n      mload(0x40)\n      dup1\n      swap2\n      sub\n      swap1\n      revert\n    tag_167:\n        /* \"Contracts/AuctionSPU.sol\":7931:7941  highestBid */\n      sload(0x0c)\n        /* \"Contracts/AuctionSPU.sol\":7918:7928  _realValue */\n      dup4\n        /* \"Contracts/AuctionSPU.sol\":7918:7941  _realValue > highestBid */\n      gt\n        /* \"Contracts/AuctionSPU.sol\":7910:7955  require(_realValue > highestBid, \"Lower Bid\") */\n      tag_170\n      jumpi\n      mload(0x40)\n      0x08c379a000000000000000000000000000000000000000000000000000000000\n      dup2\n      mstore\n      0x04\n      add\n      tag_171\n      swap1\n      tag_172\n      jump\t// in\n    tag_171:\n      mload(0x40)\n      dup1\n      swap2\n      sub\n      swap1\n      revert\n    tag_170:\n        /* \"Contracts/AuctionSPU.sol\":7968:7976  uint fee */\n      0x00\n        /* \"Contracts/AuctionSPU.sol\":8004:8018  transactionFee */\n      sload(0x09)\n        /* \"Contracts/AuctionSPU.sol\":2848:2853  10000 */\n      0x2710\n        /* \"Contracts/AuctionSPU.sol\":7980:7989  msg.value */\n      callvalue\n        /* \"Contracts/AuctionSPU.sol\":7980:8000  msg.value / FEE_BASE */\n      tag_173\n      swap2\n      swap1\n      tag_174\n      jump\t// in\n    tag_173:\n        /* \"Contracts/AuctionSPU.sol\":7979:8018  (msg.value / FEE_BASE) * transactionFee */\n      tag_175\n      swap2\n      swap1\n      tag_176\n      jump\t// in\n    tag_175:\n        /* \"Contracts/AuctionSPU.sol\":7968:8018  uint fee = (msg.value / FEE_BASE) * transactionFee */\n      swap1\n      pop\n        /* \"Contracts/AuctionSPU.sol\":8041:8044  fee */\n      dup1\n        /* \"Contracts/AuctionSPU.sol\":8029:8037  totalFee */\n      0x0a\n      0x00\n        /* \"Contracts/AuctionSPU.sol\":8029:8044  totalFee += fee */\n      dup3\n      dup3\n      sload\n      tag_177\n      swap2\n      swap1\n      tag_178\n      jump\t// in\n    tag_177:\n      swap3\n      pop\n      pop\n      dup2\n      swap1\n      sstore\n      pop\n        /* \"Contracts/AuctionSPU.sol\":8057:8117  cashback(highestBidder, receivedBids[highestBidder].downpay) */\n      tag_179\n        /* \"Contracts/AuctionSPU.sol\":8066:8079  highestBidder */\n      0x0b\n      0x00\n      swap1\n      sload\n      swap1\n      0x0100\n      exp\n      swap1\n      div\n      0xffffffffffffffffffffffffffffffffffffffff\n      and\n        /* \"Contracts/AuctionSPU.sol\":8081:8093  receivedBids */\n      0x0d\n        /* \"Contracts/AuctionSPU.sol\":8081:8108  receivedBids[highestBidder] */\n      0x00\n        /* \"Contracts/AuctionSPU.sol\":8094:8107  highestBidder */\n      0x0b\n      0x00\n      swap1\n      sload\n      swap1\n      0x0100\n      exp\n      swap1\n      div\n      0xffffffffffffffffffffffffffffffffffffffff\n      and\n        /* \"Contracts/AuctionSPU.sol\":8081:8108  receivedBids[highestBidder] */\n      0xffffffffffffffffffffffffffffffffffffffff\n      and\n      0xffffffffffffffffffffffffffffffffffffffff\n      and\n      dup2\n      mstore\n      0x20\n      add\n      swap1\n      dup2\n      mstore\n      0x20\n      add\n      0x00\n      keccak256\n        /* \"Contracts/AuctionSPU.sol\":8081:8116  receivedBids[highestBidder].downpay */\n      0x04\n      add\n      sload\n        /* \"Contracts/AuctionSPU.sol\":8057:8065  cashback */\n      tag_180\n        /* \"Contracts/AuctionSPU.sol\":8057:8117  cashback(highestBidder, receivedBids[highestBidder].downpay) */\n      jump\t// in\n    tag_179:\n        /* \"Contracts/AuctionSPU.sol\":8173:8174  0 */\n      0x00\n        /* \"Contracts/AuctionSPU.sol\":8134:8146  receivedBids */\n      0x0d\n        /* \"Contracts/AuctionSPU.sol\":8134:8158  receivedBids[msg.sender] */\n      0x00\n        /* \"Contracts/AuctionSPU.sol\":8147:8157  msg.sender */\n      caller\n        /* \"Contracts/AuctionSPU.sol\":8134:8158  receivedBids[msg.sender] */\n      0xffffffffffffffffffffffffffffffffffffffff\n      and\n      0xffffffffffffffffffffffffffffffffffffffff\n      and\n      dup2\n      mstore\n      0x20\n      add\n      swap1\n      dup2\n      mstore\n      0x20\n      add\n      0x00\n      keccak256\n        /* \"Contracts/AuctionSPU.sol\":8134:8169  receivedBids[msg.sender].totalValue */\n      0x00\n      add\n      sload\n        /* \"Contracts/AuctionSPU.sol\":8134:8174  receivedBids[msg.sender].totalValue != 0 */\n      eq\n        /* \"Contracts/AuctionSPU.sol\":8130:8795  if (receivedBids[msg.sender].totalValue != 0) {... */\n      tag_181\n      jumpi\n        /* \"Contracts/AuctionSPU.sol\":8238:8241  fee */\n      dup1\n        /* \"Contracts/AuctionSPU.sol\":8226:8235  msg.value */\n      callvalue\n        /* \"Contracts/AuctionSPU.sol\":8226:8241  msg.value - fee */\n      tag_182\n      swap2\n      swap1\n      tag_183\n      jump\t// in\n    tag_182:\n        /* \"Contracts/AuctionSPU.sol\":8191:8203  receivedBids */\n      0x0d\n        /* \"Contracts/AuctionSPU.sol\":8191:8215  receivedBids[msg.sender] */\n      0x00\n        /* \"Contracts/AuctionSPU.sol\":8204:8214  msg.sender */\n      caller\n        /* \"Contracts/AuctionSPU.sol\":8191:8215  receivedBids[msg.sender] */\n      0xffffffffffffffffffffffffffffffffffffffff\n      and\n      0xffffffffffffffffffffffffffffffffffffffff\n      and\n      dup2\n      mstore\n      0x20\n      add\n      swap1\n      dup2\n      mstore\n      0x20\n      add\n      0x00\n      keccak256\n        /* \"Contracts/AuctionSPU.sol\":8191:8223  receivedBids[msg.sender].downpay */\n      0x04\n      add\n        /* \"Contracts/AuctionSPU.sol\":8191:8241  receivedBids[msg.sender].downpay = msg.value - fee */\n      dup2\n      swap1\n      sstore\n      pop\n        /* \"Contracts/AuctionSPU.sol\":8293:8303  _realValue */\n      dup4\n        /* \"Contracts/AuctionSPU.sol\":8256:8268  receivedBids */\n      0x0d\n        /* \"Contracts/AuctionSPU.sol\":8256:8280  receivedBids[msg.sender] */\n      0x00\n        /* \"Contracts/AuctionSPU.sol\":8269:8279  msg.sender */\n      caller\n        /* \"Contracts/AuctionSPU.sol\":8256:8280  receivedBids[msg.sender] */\n      0xffffffffffffffffffffffffffffffffffffffff\n      and\n      0xffffffffffffffffffffffffffffffffffffffff\n      and\n      dup2\n      mstore\n      0x20\n      add\n      swap1\n      dup2\n      mstore\n      0x20\n      add\n      0x00\n      keccak256\n        /* \"Contracts/AuctionSPU.sol\":8256:8290  receivedBids[msg.sender].realValue */\n      0x01\n      add\n        /* \"Contracts/AuctionSPU.sol\":8256:8303  receivedBids[msg.sender].realValue = _realValue */\n      dup2\n      swap1\n      sstore\n      pop\n        /* \"Contracts/AuctionSPU.sol\":8356:8367  _totalValue */\n      dup5\n        /* \"Contracts/AuctionSPU.sol\":8318:8330  receivedBids */\n      0x0d\n        /* \"Contracts/AuctionSPU.sol\":8318:8342  receivedBids[msg.sender] */\n      0x00\n        /* \"Contracts/AuctionSPU.sol\":8331:8341  msg.sender */\n      caller\n        /* \"Contracts/AuctionSPU.sol\":8318:8342  receivedBids[msg.sender] */\n      0xffffffffffffffffffffffffffffffffffffffff\n      and\n      0xffffffffffffffffffffffffffffffffffffffff\n      and\n      dup2\n      mstore\n      0x20\n      add\n      swap1\n      dup2\n      mstore\n      0x20\n      add\n      0x00\n      keccak256\n        /* \"Contracts/AuctionSPU.sol\":8318:8353  receivedBids[msg.sender].totalValue */\n      0x00\n      add\n        /* \"Contracts/AuctionSPU.sol\":8318:8367  receivedBids[msg.sender].totalValue = _totalValue */\n      dup2\n      swap1\n      sstore\n      pop\n        /* \"Contracts/AuctionSPU.sol\":8417:8425  _portion */\n      dup3\n        /* \"Contracts/AuctionSPU.sol\":8382:8394  receivedBids */\n      0x0d\n        /* \"Contracts/AuctionSPU.sol\":8382:8406  receivedBids[msg.sender] */\n      0x00\n        /* \"Contracts/AuctionSPU.sol\":8395:8405  msg.sender */\n      caller\n        /* \"Contracts/AuctionSPU.sol\":8382:8406  receivedBids[msg.sender] */\n      0xffffffffffffffffffffffffffffffffffffffff\n      and\n      0xffffffffffffffffffffffffffffffffffffffff\n      and\n      dup2\n      mstore\n      0x20\n      add\n      swap1\n      dup2\n      mstore\n      0x20\n      add\n      0x00\n      keccak256\n        /* \"Contracts/AuctionSPU.sol\":8382:8414  receivedBids[msg.sender].portion */\n      0x02\n      add\n        /* \"Contracts/AuctionSPU.sol\":8382:8425  receivedBids[msg.sender].portion = _portion */\n      dup2\n      swap1\n      sstore\n      pop\n        /* \"Contracts/AuctionSPU.sol\":8479:8491  _clientScore */\n      dup2\n        /* \"Contracts/AuctionSPU.sol\":8440:8452  receivedBids */\n      0x0d\n        /* \"Contracts/AuctionSPU.sol\":8440:8464  receivedBids[msg.sender] */\n      0x00\n        /* \"Contracts/AuctionSPU.sol\":8453:8463  msg.sender */\n      caller\n        /* \"Contracts/AuctionSPU.sol\":8440:8464  receivedBids[msg.sender] */\n      0xffffffffffffffffffffffffffffffffffffffff\n      and\n      0xffffffffffffffffffffffffffffffffffffffff\n      and\n      dup2\n      mstore\n      0x20\n      add\n      swap1\n      dup2\n      mstore\n      0x20\n      add\n      0x00\n      keccak256\n        /* \"Contracts/AuctionSPU.sol\":8440:8476  receivedBids[msg.sender].clientScore */\n      0x03\n      add\n        /* \"Contracts/AuctionSPU.sol\":8440:8491  receivedBids[msg.sender].clientScore = _clientScore */\n      dup2\n      swap1\n      sstore\n      pop\n        /* \"Contracts/AuctionSPU.sol\":8130:8795  if (receivedBids[msg.sender].totalValue != 0) {... */\n      jump(tag_184)\n    tag_181:\n        /* \"Contracts/AuctionSPU.sol\":8524:8540  Bidders memory b */\n      tag_185\n      tag_186\n      jump\t// in\n    tag_185:\n        /* \"Contracts/AuctionSPU.sol\":8579:8582  fee */\n      dup2\n        /* \"Contracts/AuctionSPU.sol\":8567:8576  msg.value */\n      callvalue\n        /* \"Contracts/AuctionSPU.sol\":8567:8582  msg.value - fee */\n      tag_187\n      swap2\n      swap1\n      tag_183\n      jump\t// in\n    tag_187:\n        /* \"Contracts/AuctionSPU.sol\":8555:8556  b */\n      dup2\n        /* \"Contracts/AuctionSPU.sol\":8555:8564  b.downpay */\n      0x80\n      add\n        /* \"Contracts/AuctionSPU.sol\":8555:8582  b.downpay = msg.value - fee */\n      dup2\n      dup2\n      mstore\n      pop\n      pop\n        /* \"Contracts/AuctionSPU.sol\":8612:8623  _totalValue */\n      dup6\n        /* \"Contracts/AuctionSPU.sol\":8597:8598  b */\n      dup2\n        /* \"Contracts/AuctionSPU.sol\":8597:8609  b.totalValue */\n      0x00\n      add\n        /* \"Contracts/AuctionSPU.sol\":8597:8623  b.totalValue = _totalValue */\n      dup2\n      dup2\n      mstore\n      pop\n      pop\n        /* \"Contracts/AuctionSPU.sol\":8652:8662  _realValue */\n      dup5\n        /* \"Contracts/AuctionSPU.sol\":8638:8639  b */\n      dup2\n        /* \"Contracts/AuctionSPU.sol\":8638:8649  b.realValue */\n      0x20\n      add\n        /* \"Contracts/AuctionSPU.sol\":8638:8662  b.realValue = _realValue */\n      dup2\n      dup2\n      mstore\n      pop\n      pop\n        /* \"Contracts/AuctionSPU.sol\":8689:8697  _portion */\n      dup4\n        /* \"Contracts/AuctionSPU.sol\":8677:8678  b */\n      dup2\n        /* \"Contracts/AuctionSPU.sol\":8677:8686  b.portion */\n      0x40\n      add\n        /* \"Contracts/AuctionSPU.sol\":8677:8697  b.portion = _portion */\n      dup2\n      dup2\n      mstore\n      pop\n      pop\n        /* \"Contracts/AuctionSPU.sol\":8728:8740  _clientScore */\n      dup3\n        /* \"Contracts/AuctionSPU.sol\":8712:8713  b */\n      dup2\n        /* \"Contracts/AuctionSPU.sol\":8712:8725  b.clientScore */\n      0x60\n      add\n        /* \"Contracts/AuctionSPU.sol\":8712:8740  b.clientScore = _clientScore */\n      dup2\n      dup2\n      mstore\n      pop\n      pop\n        /* \"Contracts/AuctionSPU.sol\":8782:8783  b */\n      dup1\n        /* \"Contracts/AuctionSPU.sol\":8755:8767  receivedBids */\n      0x0d\n        /* \"Contracts/AuctionSPU.sol\":8755:8779  receivedBids[msg.sender] */\n      0x00\n        /* \"Contracts/AuctionSPU.sol\":8768:8778  msg.sender */\n      caller\n        /* \"Contracts/AuctionSPU.sol\":8755:8779  receivedBids[msg.sender] */\n      0xffffffffffffffffffffffffffffffffffffffff\n      and\n      0xffffffffffffffffffffffffffffffffffffffff\n      and\n      dup2\n      mstore\n      0x20\n      add\n      swap1\n      dup2\n      mstore\n      0x20\n      add\n      0x00\n      keccak256\n        /* \"Contracts/AuctionSPU.sol\":8755:8783  receivedBids[msg.sender] = b */\n      0x00\n      dup3\n      add\n      mload\n      dup2\n      0x00\n      add\n      sstore\n      0x20\n      dup3\n      add\n      mload\n      dup2\n      0x01\n      add\n      sstore\n      0x40\n      dup3\n      add\n      mload\n      dup2\n      0x02\n      add\n      sstore\n      0x60\n      dup3\n      add\n      mload\n      dup2\n      0x03\n      add\n      sstore\n      0x80\n      dup3\n      add\n      mload\n      dup2\n      0x04\n      add\n      sstore\n      swap1\n      pop\n      pop\n        /* \"Contracts/AuctionSPU.sol\":8509:8795  {... */\n      pop\n        /* \"Contracts/AuctionSPU.sol\":8130:8795  if (receivedBids[msg.sender].totalValue != 0) {... */\n    tag_184:\n        /* \"Contracts/AuctionSPU.sol\":8823:8833  msg.sender */\n      caller\n        /* \"Contracts/AuctionSPU.sol\":8807:8820  highestBidder */\n      0x0b\n      0x00\n        /* \"Contracts/AuctionSPU.sol\":8807:8833  highestBidder = msg.sender */\n      0x0100\n      exp\n      dup2\n      sload\n      dup2\n      0xffffffffffffffffffffffffffffffffffffffff\n      mul\n      not\n      and\n      swap1\n      dup4\n      0xffffffffffffffffffffffffffffffffffffffff\n      and\n      mul\n      or\n      swap1\n      sstore\n      pop\n        /* \"Contracts/AuctionSPU.sol\":8857:8867  _realValue */\n      dup4\n        /* \"Contracts/AuctionSPU.sol\":8844:8854  highestBid */\n      0x0c\n        /* \"Contracts/AuctionSPU.sol\":8844:8867  highestBid = _realValue */\n      dup2\n      swap1\n      sstore\n      pop\n        /* \"Contracts/AuctionSPU.sol\":8894:8895  1 */\n      0x01\n        /* \"Contracts/AuctionSPU.sol\":8878:8890  numberOfBids */\n      0x08\n      0x00\n        /* \"Contracts/AuctionSPU.sol\":8878:8895  numberOfBids += 1 */\n      dup3\n      dup3\n      sload\n      tag_188\n      swap2\n      swap1\n      tag_178\n      jump\t// in\n    tag_188:\n      swap3\n      pop\n      pop\n      dup2\n      swap1\n      sstore\n      pop\n        /* \"Contracts/AuctionSPU.sol\":8917:8927  msg.sender */\n      caller\n        /* \"Contracts/AuctionSPU.sol\":8913:8940  Bid(msg.sender, _realValue) */\n      0xffffffffffffffffffffffffffffffffffffffff\n      and\n      0xe684a55f31b79eca403df938249029212a5925ec6be8012e099b45bc1019e5d2\n        /* \"Contracts/AuctionSPU.sol\":8929:8939  _realValue */\n      dup6\n        /* \"Contracts/AuctionSPU.sol\":8913:8940  Bid(msg.sender, _realValue) */\n      mload(0x40)\n      tag_189\n      swap2\n      swap1\n      tag_52\n      jump\t// in\n    tag_189:\n      mload(0x40)\n      dup1\n      swap2\n      sub\n      swap1\n      log2\n        /* \"Contracts/AuctionSPU.sol\":7712:8948  {... */\n      pop\n        /* \"Contracts/AuctionSPU.sol\":7538:8948  function newBid(... */\n      pop\n      pop\n      pop\n      pop\n      jump\t// out\n        /* \"Contracts/AuctionSPU.sol\":9913:11095  function closeAuction() external onlyOwner {... */\n    tag_81:\n        /* \"Contracts/AuctionSPU.sol\":4564:4570  seller */\n      0x02\n      0x00\n      swap1\n      sload\n      swap1\n      0x0100\n      exp\n      swap1\n      div\n      0xffffffffffffffffffffffffffffffffffffffff\n      and\n        /* \"Contracts/AuctionSPU.sol\":4550:4570  msg.sender == seller */\n      0xffffffffffffffffffffffffffffffffffffffff\n      and\n        /* \"Contracts/AuctionSPU.sol\":4550:4560  msg.sender */\n      caller\n        /* \"Contracts/AuctionSPU.sol\":4550:4570  msg.sender == seller */\n      0xffffffffffffffffffffffffffffffffffffffff\n      and\n      eq\n        /* \"Contracts/AuctionSPU.sol\":4542:4594  require(msg.sender == seller, \"Sender is not owner\") */\n      tag_191\n      jumpi\n      mload(0x40)\n      0x08c379a000000000000000000000000000000000000000000000000000000000\n      dup2\n      mstore\n      0x04\n      add\n      tag_192\n      swap1\n      tag_36\n      jump\t// in\n    tag_192:\n      mload(0x40)\n      dup1\n      swap2\n      sub\n      swap1\n      revert\n    tag_191:\n        /* \"Contracts/AuctionSPU.sol\":9994:9999  endAt */\n      sload(0x06)\n        /* \"Contracts/AuctionSPU.sol\":9975:9990  block.timestamp */\n      timestamp\n        /* \"Contracts/AuctionSPU.sol\":9975:9999  block.timestamp >= endAt */\n      lt\n      iszero\n        /* \"Contracts/AuctionSPU.sol\":9967:10013  require(block.timestamp >= endAt, \"Not Ended\") */\n      tag_194\n      jumpi\n      mload(0x40)\n      0x08c379a000000000000000000000000000000000000000000000000000000000\n      dup2\n      mstore\n      0x04\n      add\n      tag_195\n      swap1\n      tag_196\n      jump\t// in\n    tag_195:\n      mload(0x40)\n      dup1\n      swap2\n      sub\n      swap1\n      revert\n    tag_194:\n        /* \"Contracts/AuctionSPU.sol\":10053:10054  0 */\n      0x00\n        /* \"Contracts/AuctionSPU.sol\":10028:10055  highestBidder != address(0) */\n      0xffffffffffffffffffffffffffffffffffffffff\n      and\n        /* \"Contracts/AuctionSPU.sol\":10028:10041  highestBidder */\n      0x0b\n      0x00\n      swap1\n      sload\n      swap1\n      0x0100\n      exp\n      swap1\n      div\n      0xffffffffffffffffffffffffffffffffffffffff\n      and\n        /* \"Contracts/AuctionSPU.sol\":10028:10055  highestBidder != address(0) */\n      0xffffffffffffffffffffffffffffffffffffffff\n      and\n      eq\n        /* \"Contracts/AuctionSPU.sol\":10024:11088  if (highestBidder != address(0)) {... */\n      tag_197\n      jumpi\n        /* \"Contracts/AuctionSPU.sol\":10072:10075  nft */\n      0x00\n      dup1\n      sload\n      swap1\n      0x0100\n      exp\n      swap1\n      div\n      0xffffffffffffffffffffffffffffffffffffffff\n      and\n        /* \"Contracts/AuctionSPU.sol\":10072:10092  nft.safeTransferFrom */\n      0xffffffffffffffffffffffffffffffffffffffff\n      and\n      0x42842e0e\n        /* \"Contracts/AuctionSPU.sol\":10101:10105  this */\n      address\n        /* \"Contracts/AuctionSPU.sol\":10108:10121  highestBidder */\n      0x0b\n      0x00\n      swap1\n      sload\n      swap1\n      0x0100\n      exp\n      swap1\n      div\n      0xffffffffffffffffffffffffffffffffffffffff\n      and\n        /* \"Contracts/AuctionSPU.sol\":10123:10128  nftId */\n      sload(0x01)\n        /* \"Contracts/AuctionSPU.sol\":10072:10129  nft.safeTransferFrom(address(this), highestBidder, nftId) */\n      mload(0x40)\n      dup5\n      0xffffffff\n      and\n      0xe0\n      shl\n      dup2\n      mstore\n      0x04\n      add\n      tag_198\n      swap4\n      swap3\n      swap2\n      swap1\n      tag_199\n      jump\t// in\n    tag_198:\n      0x00\n      mload(0x40)\n      dup1\n      dup4\n      sub\n      dup2\n      0x00\n      dup8\n      dup1\n      extcodesize\n      iszero\n      dup1\n      iszero\n      tag_200\n      jumpi\n      0x00\n      dup1\n      revert\n    tag_200:\n      pop\n      gas\n      call\n      iszero\n      dup1\n      iszero\n      tag_202\n      jumpi\n      returndatasize\n      0x00\n      dup1\n      returndatacopy\n      revert(0x00, returndatasize)\n    tag_202:\n      pop\n      pop\n      pop\n      pop\n        /* \"Contracts/AuctionSPU.sol\":10147:10166  bool callSuccessFee */\n      0x00\n        /* \"Contracts/AuctionSPU.sol\":10180:10190  feeAddress */\n      0x03\n      0x00\n      swap1\n      sload\n      swap1\n      0x0100\n      exp\n      swap1\n      div\n      0xffffffffffffffffffffffffffffffffffffffff\n      and\n        /* \"Contracts/AuctionSPU.sol\":10172:10196  payable(feeAddress).call */\n      0xffffffffffffffffffffffffffffffffffffffff\n      and\n        /* \"Contracts/AuctionSPU.sol\":10204:10212  totalFee */\n      sload(0x0a)\n        /* \"Contracts/AuctionSPU.sol\":10172:10249  payable(feeAddress).call{value: totalFee}(... */\n      mload(0x40)\n      tag_203\n      swap1\n      tag_204\n      jump\t// in\n    tag_203:\n      0x00\n      mload(0x40)\n      dup1\n      dup4\n      sub\n      dup2\n      dup6\n      dup8\n      gas\n      call\n      swap3\n      pop\n      pop\n      pop\n      returndatasize\n      dup1\n      0x00\n      dup2\n      eq\n      tag_207\n      jumpi\n      mload(0x40)\n      swap2\n      pop\n      and(add(returndatasize, 0x3f), not(0x1f))\n      dup3\n      add\n      0x40\n      mstore\n      returndatasize\n      dup3\n      mstore\n      returndatasize\n      0x00\n      0x20\n      dup5\n      add\n      returndatacopy\n      jump(tag_206)\n    tag_207:\n      0x60\n      swap2\n      pop\n    tag_206:\n      pop\n        /* \"Contracts/AuctionSPU.sol\":10146:10249  (bool callSuccessFee, ) = payable(feeAddress).call{value: totalFee}(... */\n      pop\n      swap1\n      pop\n        /* \"Contracts/AuctionSPU.sol\":10272:10286  callSuccessFee */\n      dup1\n        /* \"Contracts/AuctionSPU.sol\":10264:10314  require(callSuccessFee, \"Return fee funds failed\") */\n      tag_208\n      jumpi\n      mload(0x40)\n      0x08c379a000000000000000000000000000000000000000000000000000000000\n      dup2\n      mstore\n      0x04\n      add\n      tag_209\n      swap1\n      tag_210\n      jump\t// in\n    tag_209:\n      mload(0x40)\n      dup1\n      swap2\n      sub\n      swap1\n      revert\n    tag_208:\n        /* \"Contracts/AuctionSPU.sol\":10347:10357  feeAddress */\n      0x03\n      0x00\n      swap1\n      sload\n      swap1\n      0x0100\n      exp\n      swap1\n      div\n      0xffffffffffffffffffffffffffffffffffffffff\n      and\n        /* \"Contracts/AuctionSPU.sol\":10336:10368  FeePayment(feeAddress, totalFee) */\n      0xffffffffffffffffffffffffffffffffffffffff\n      and\n      0x57d762ad8f1734de771f2b521b2668347c0cee2d709a12254662cd5a7d4180\n        /* \"Contracts/AuctionSPU.sol\":10359:10367  totalFee */\n      sload(0x0a)\n        /* \"Contracts/AuctionSPU.sol\":10336:10368  FeePayment(feeAddress, totalFee) */\n      mload(0x40)\n      tag_211\n      swap2\n      swap1\n      tag_52\n      jump\t// in\n    tag_211:\n      mload(0x40)\n      dup1\n      swap2\n      sub\n      swap1\n      log2\n        /* \"Contracts/AuctionSPU.sol\":10386:10402  bool callSuccess */\n      0x00\n        /* \"Contracts/AuctionSPU.sol\":10416:10422  seller */\n      0x02\n      0x00\n      swap1\n      sload\n      swap1\n      0x0100\n      exp\n      swap1\n      div\n      0xffffffffffffffffffffffffffffffffffffffff\n      and\n        /* \"Contracts/AuctionSPU.sol\":10408:10428  payable(seller).call */\n      0xffffffffffffffffffffffffffffffffffffffff\n      and\n        /* \"Contracts/AuctionSPU.sol\":10436:10446  highestBid */\n      sload(0x0c)\n        /* \"Contracts/AuctionSPU.sol\":10408:10451  payable(seller).call{value: highestBid}(\"\") */\n      mload(0x40)\n      tag_212\n      swap1\n      tag_204\n      jump\t// in\n    tag_212:\n      0x00\n      mload(0x40)\n      dup1\n      dup4\n      sub\n      dup2\n      dup6\n      dup8\n      gas\n      call\n      swap3\n      pop\n      pop\n      pop\n      returndatasize\n      dup1\n      0x00\n      dup2\n      eq\n      tag_215\n      jumpi\n      mload(0x40)\n      swap2\n      pop\n      and(add(returndatasize, 0x3f), not(0x1f))\n      dup3\n      add\n      0x40\n      mstore\n      returndatasize\n      dup3\n      mstore\n      returndatasize\n      0x00\n      0x20\n      dup5\n      add\n      returndatacopy\n      jump(tag_214)\n    tag_215:\n      0x60\n      swap2\n      pop\n    tag_214:\n      pop\n        /* \"Contracts/AuctionSPU.sol\":10385:10451  (bool callSuccess, ) = payable(seller).call{value: highestBid}(\"\") */\n      pop\n      swap1\n      pop\n        /* \"Contracts/AuctionSPU.sol\":10474:10485  callSuccess */\n      dup1\n        /* \"Contracts/AuctionSPU.sol\":10466:10509  require(callSuccess, \"Return funds failed\") */\n      tag_216\n      jumpi\n      mload(0x40)\n      0x08c379a000000000000000000000000000000000000000000000000000000000\n      dup2\n      mstore\n      0x04\n      add\n      tag_217\n      swap1\n      tag_218\n      jump\t// in\n    tag_217:\n      mload(0x40)\n      dup1\n      swap2\n      sub\n      swap1\n      revert\n    tag_216:\n        /* \"Contracts/AuctionSPU.sol\":10542:10548  seller */\n      0x02\n      0x00\n      swap1\n      sload\n      swap1\n      0x0100\n      exp\n      swap1\n      div\n      0xffffffffffffffffffffffffffffffffffffffff\n      and\n        /* \"Contracts/AuctionSPU.sol\":10531:10561  BidPayment(seller, highestBid) */\n      0xffffffffffffffffffffffffffffffffffffffff\n      and\n      0x1c1b1a7e52e22e996a7b9c93efbf98eeb6171f5ecaa8f5c1c792427b53d29e84\n        /* \"Contracts/AuctionSPU.sol\":10550:10560  highestBid */\n      sload(0x0c)\n        /* \"Contracts/AuctionSPU.sol\":10531:10561  BidPayment(seller, highestBid) */\n      mload(0x40)\n      tag_219\n      swap2\n      swap1\n      tag_52\n      jump\t// in\n    tag_219:\n      mload(0x40)\n      dup1\n      swap2\n      sub\n      swap1\n      log2\n        /* \"Contracts/AuctionSPU.sol\":10057:10573  {... */\n      pop\n      pop\n        /* \"Contracts/AuctionSPU.sol\":10024:11088  if (highestBidder != address(0)) {... */\n      jump(tag_220)\n    tag_197:\n        /* \"Contracts/AuctionSPU.sol\":10594:10597  nft */\n      0x00\n      dup1\n      sload\n      swap1\n      0x0100\n      exp\n      swap1\n      div\n      0xffffffffffffffffffffffffffffffffffffffff\n      and\n        /* \"Contracts/AuctionSPU.sol\":10594:10614  nft.safeTransferFrom */\n      0xffffffffffffffffffffffffffffffffffffffff\n      and\n      0x42842e0e\n        /* \"Contracts/AuctionSPU.sol\":10623:10627  this */\n      address\n        /* \"Contracts/AuctionSPU.sol\":10630:10636  seller */\n      0x02\n      0x00\n      swap1\n      sload\n      swap1\n      0x0100\n      exp\n      swap1\n      div\n      0xffffffffffffffffffffffffffffffffffffffff\n      and\n        /* \"Contracts/AuctionSPU.sol\":10638:10643  nftId */\n      sload(0x01)\n        /* \"Contracts/AuctionSPU.sol\":10594:10644  nft.safeTransferFrom(address(this), seller, nftId) */\n      mload(0x40)\n      dup5\n      0xffffffff\n      and\n      0xe0\n      shl\n      dup2\n      mstore\n      0x04\n      add\n      tag_221\n      swap4\n      swap3\n      swap2\n      swap1\n      tag_222\n      jump\t// in\n    tag_221:\n      0x00\n      mload(0x40)\n      dup1\n      dup4\n      sub\n      dup2\n      0x00\n      dup8\n      dup1\n      extcodesize\n      iszero\n      dup1\n      iszero\n      tag_223\n      jumpi\n      0x00\n      dup1\n      revert\n    tag_223:\n      pop\n      gas\n      call\n      iszero\n      dup1\n      iszero\n      tag_225\n      jumpi\n      returndatasize\n      0x00\n      dup1\n      returndatacopy\n      revert(0x00, returndatasize)\n    tag_225:\n      pop\n      pop\n      pop\n      pop\n        /* \"Contracts/AuctionSPU.sol\":10662:10681  bool callSuccessFee */\n      0x00\n        /* \"Contracts/AuctionSPU.sol\":10695:10705  feeAddress */\n      0x03\n      0x00\n      swap1\n      sload\n      swap1\n      0x0100\n      exp\n      swap1\n      div\n      0xffffffffffffffffffffffffffffffffffffffff\n      and\n        /* \"Contracts/AuctionSPU.sol\":10687:10711  payable(feeAddress).call */\n      0xffffffffffffffffffffffffffffffffffffffff\n      and\n        /* \"Contracts/AuctionSPU.sol\":10719:10727  totalFee */\n      sload(0x0a)\n        /* \"Contracts/AuctionSPU.sol\":10687:10764  payable(feeAddress).call{value: totalFee}(... */\n      mload(0x40)\n      tag_226\n      swap1\n      tag_204\n      jump\t// in\n    tag_226:\n      0x00\n      mload(0x40)\n      dup1\n      dup4\n      sub\n      dup2\n      dup6\n      dup8\n      gas\n      call\n      swap3\n      pop\n      pop\n      pop\n      returndatasize\n      dup1\n      0x00\n      dup2\n      eq\n      tag_229\n      jumpi\n      mload(0x40)\n      swap2\n      pop\n      and(add(returndatasize, 0x3f), not(0x1f))\n      dup3\n      add\n      0x40\n      mstore\n      returndatasize\n      dup3\n      mstore\n      returndatasize\n      0x00\n      0x20\n      dup5\n      add\n      returndatacopy\n      jump(tag_228)\n    tag_229:\n      0x60\n      swap2\n      pop\n    tag_228:\n      pop\n        /* \"Contracts/AuctionSPU.sol\":10661:10764  (bool callSuccessFee, ) = payable(feeAddress).call{value: totalFee}(... */\n      pop\n      swap1\n      pop\n        /* \"Contracts/AuctionSPU.sol\":10787:10801  callSuccessFee */\n      dup1\n        /* \"Contracts/AuctionSPU.sol\":10779:10829  require(callSuccessFee, \"Return fee funds failed\") */\n      tag_230\n      jumpi\n      mload(0x40)\n      0x08c379a000000000000000000000000000000000000000000000000000000000\n      dup2\n      mstore\n      0x04\n      add\n      tag_231\n      swap1\n      tag_210\n      jump\t// in\n    tag_231:\n      mload(0x40)\n      dup1\n      swap2\n      sub\n      swap1\n      revert\n    tag_230:\n        /* \"Contracts/AuctionSPU.sol\":10862:10872  feeAddress */\n      0x03\n      0x00\n      swap1\n      sload\n      swap1\n      0x0100\n      exp\n      swap1\n      div\n      0xffffffffffffffffffffffffffffffffffffffff\n      and\n        /* \"Contracts/AuctionSPU.sol\":10851:10883  FeePayment(feeAddress, totalFee) */\n      0xffffffffffffffffffffffffffffffffffffffff\n      and\n      0x57d762ad8f1734de771f2b521b2668347c0cee2d709a12254662cd5a7d4180\n        /* \"Contracts/AuctionSPU.sol\":10874:10882  totalFee */\n      sload(0x0a)\n        /* \"Contracts/AuctionSPU.sol\":10851:10883  FeePayment(feeAddress, totalFee) */\n      mload(0x40)\n      tag_232\n      swap2\n      swap1\n      tag_52\n      jump\t// in\n    tag_232:\n      mload(0x40)\n      dup1\n      swap2\n      sub\n      swap1\n      log2\n        /* \"Contracts/AuctionSPU.sol\":10901:10917  bool callSuccess */\n      0x00\n        /* \"Contracts/AuctionSPU.sol\":10931:10937  seller */\n      0x02\n      0x00\n      swap1\n      sload\n      swap1\n      0x0100\n      exp\n      swap1\n      div\n      0xffffffffffffffffffffffffffffffffffffffff\n      and\n        /* \"Contracts/AuctionSPU.sol\":10923:10943  payable(seller).call */\n      0xffffffffffffffffffffffffffffffffffffffff\n      and\n        /* \"Contracts/AuctionSPU.sol\":10951:10961  highestBid */\n      sload(0x0c)\n        /* \"Contracts/AuctionSPU.sol\":10923:10966  payable(seller).call{value: highestBid}(\"\") */\n      mload(0x40)\n      tag_233\n      swap1\n      tag_204\n      jump\t// in\n    tag_233:\n      0x00\n      mload(0x40)\n      dup1\n      dup4\n      sub\n      dup2\n      dup6\n      dup8\n      gas\n      call\n      swap3\n      pop\n      pop\n      pop\n      returndatasize\n      dup1\n      0x00\n      dup2\n      eq\n      tag_236\n      jumpi\n      mload(0x40)\n      swap2\n      pop\n      and(add(returndatasize, 0x3f), not(0x1f))\n      dup3\n      add\n      0x40\n      mstore\n      returndatasize\n      dup3\n      mstore\n      returndatasize\n      0x00\n      0x20\n      dup5\n      add\n      returndatacopy\n      jump(tag_235)\n    tag_236:\n      0x60\n      swap2\n      pop\n    tag_235:\n      pop\n        /* \"Contracts/AuctionSPU.sol\":10900:10966  (bool callSuccess, ) = payable(seller).call{value: highestBid}(\"\") */\n      pop\n      swap1\n      pop\n        /* \"Contracts/AuctionSPU.sol\":10989:11000  callSuccess */\n      dup1\n        /* \"Contracts/AuctionSPU.sol\":10981:11024  require(callSuccess, \"Return funds failed\") */\n      tag_237\n      jumpi\n      mload(0x40)\n      0x08c379a000000000000000000000000000000000000000000000000000000000\n      dup2\n      mstore\n      0x04\n      add\n      tag_238\n      swap1\n      tag_218\n      jump\t// in\n    tag_238:\n      mload(0x40)\n      dup1\n      swap2\n      sub\n      swap1\n      revert\n    tag_237:\n        /* \"Contracts/AuctionSPU.sol\":11057:11063  seller */\n      0x02\n      0x00\n      swap1\n      sload\n      swap1\n      0x0100\n      exp\n      swap1\n      div\n      0xffffffffffffffffffffffffffffffffffffffff\n      and\n        /* \"Contracts/AuctionSPU.sol\":11046:11076  BidPayment(seller, highestBid) */\n      0xffffffffffffffffffffffffffffffffffffffff\n      and\n      0x1c1b1a7e52e22e996a7b9c93efbf98eeb6171f5ecaa8f5c1c792427b53d29e84\n        /* \"Contracts/AuctionSPU.sol\":11065:11075  highestBid */\n      sload(0x0c)\n        /* \"Contracts/AuctionSPU.sol\":11046:11076  BidPayment(seller, highestBid) */\n      mload(0x40)\n      tag_239\n      swap2\n      swap1\n      tag_52\n      jump\t// in\n    tag_239:\n      mload(0x40)\n      dup1\n      swap2\n      sub\n      swap1\n      log2\n        /* \"Contracts/AuctionSPU.sol\":10579:11088  {... */\n      pop\n      pop\n        /* \"Contracts/AuctionSPU.sol\":10024:11088  if (highestBidder != address(0)) {... */\n    tag_220:\n        /* \"Contracts/AuctionSPU.sol\":9913:11095  function closeAuction() external onlyOwner {... */\n      jump\t// out\n        /* \"Contracts/AuctionSPU.sol\":2546:2579  address payable public feeAddress */\n    tag_84:\n      0x03\n      0x00\n      swap1\n      sload\n      swap1\n      0x0100\n      exp\n      swap1\n      div\n      0xffffffffffffffffffffffffffffffffffffffff\n      and\n      dup2\n      jump\t// out\n        /* \"Contracts/AuctionSPU.sol\":2461:2479  IERC721 public nft */\n    tag_88:\n      0x00\n      dup1\n      sload\n      swap1\n      0x0100\n      exp\n      swap1\n      div\n      0xffffffffffffffffffffffffffffffffffffffff\n      and\n      dup2\n      jump\t// out\n        /* \"Contracts/AuctionSPU.sol\":11295:11470  function setWhitelist(address _account, bool enable) external onlyOwner {... */\n    tag_95:\n        /* \"Contracts/AuctionSPU.sol\":4564:4570  seller */\n      0x02\n      0x00\n      swap1\n      sload\n      swap1\n      0x0100\n      exp\n      swap1\n      div\n      0xffffffffffffffffffffffffffffffffffffffff\n      and\n        /* \"Contracts/AuctionSPU.sol\":4550:4570  msg.sender == seller */\n      0xffffffffffffffffffffffffffffffffffffffff\n      and\n        /* \"Contracts/AuctionSPU.sol\":4550:4560  msg.sender */\n      caller\n        /* \"Contracts/AuctionSPU.sol\":4550:4570  msg.sender == seller */\n      0xffffffffffffffffffffffffffffffffffffffff\n      and\n      eq\n        /* \"Contracts/AuctionSPU.sol\":4542:4594  require(msg.sender == seller, \"Sender is not owner\") */\n      tag_241\n      jumpi\n      mload(0x40)\n      0x08c379a000000000000000000000000000000000000000000000000000000000\n      dup2\n      mstore\n      0x04\n      add\n      tag_242\n      swap1\n      tag_36\n      jump\t// in\n    tag_242:\n      mload(0x40)\n      dup1\n      swap2\n      sub\n      swap1\n      revert\n    tag_241:\n        /* \"Contracts/AuctionSPU.sol\":11401:11407  enable */\n      dup1\n        /* \"Contracts/AuctionSPU.sol\":11378:11388  _whitelist */\n      0x0e\n        /* \"Contracts/AuctionSPU.sol\":11378:11398  _whitelist[_account] */\n      0x00\n        /* \"Contracts/AuctionSPU.sol\":11389:11397  _account */\n      dup5\n        /* \"Contracts/AuctionSPU.sol\":11378:11398  _whitelist[_account] */\n      0xffffffffffffffffffffffffffffffffffffffff\n      and\n      0xffffffffffffffffffffffffffffffffffffffff\n      and\n      dup2\n      mstore\n      0x20\n      add\n      swap1\n      dup2\n      mstore\n      0x20\n      add\n      0x00\n      keccak256\n      0x00\n        /* \"Contracts/AuctionSPU.sol\":11378:11407  _whitelist[_account] = enable */\n      0x0100\n      exp\n      dup2\n      sload\n      dup2\n      0xff\n      mul\n      not\n      and\n      swap1\n      dup4\n      iszero\n      iszero\n      mul\n      or\n      swap1\n      sstore\n      pop\n        /* \"Contracts/AuctionSPU.sol\":11445:11453  _account */\n      dup2\n        /* \"Contracts/AuctionSPU.sol\":11423:11462  SetWhitelistByAddress(_account, enable) */\n      0xffffffffffffffffffffffffffffffffffffffff\n      and\n      0xc2c8beffdf047b9e6c79b0e9dcd0bd71d174d84f52e013102fcc0e200dd58ee0\n        /* \"Contracts/AuctionSPU.sol\":11455:11461  enable */\n      dup3\n        /* \"Contracts/AuctionSPU.sol\":11423:11462  SetWhitelistByAddress(_account, enable) */\n      mload(0x40)\n      tag_244\n      swap2\n      swap1\n      tag_57\n      jump\t// in\n    tag_244:\n      mload(0x40)\n      dup1\n      swap2\n      sub\n      swap1\n      log2\n        /* \"Contracts/AuctionSPU.sol\":11295:11470  function setWhitelist(address _account, bool enable) external onlyOwner {... */\n      pop\n      pop\n      jump\t// out\n        /* \"Contracts/AuctionSPU.sol\":2726:2744  bool public paused */\n    tag_98:\n      0x07\n      0x02\n      swap1\n      sload\n      swap1\n      0x0100\n      exp\n      swap1\n      div\n      0xff\n      and\n      dup2\n      jump\t// out\n        /* \"Contracts/AuctionSPU.sol\":5656:5874  function startAuction() external onlyOwner {... */\n    tag_102:\n        /* \"Contracts/AuctionSPU.sol\":4564:4570  seller */\n      0x02\n      0x00\n      swap1\n      sload\n      swap1\n      0x0100\n      exp\n      swap1\n      div\n      0xffffffffffffffffffffffffffffffffffffffff\n      and\n        /* \"Contracts/AuctionSPU.sol\":4550:4570  msg.sender == seller */\n      0xffffffffffffffffffffffffffffffffffffffff\n      and\n        /* \"Contracts/AuctionSPU.sol\":4550:4560  msg.sender */\n      caller\n        /* \"Contracts/AuctionSPU.sol\":4550:4570  msg.sender == seller */\n      0xffffffffffffffffffffffffffffffffffffffff\n      and\n      eq\n        /* \"Contracts/AuctionSPU.sol\":4542:4594  require(msg.sender == seller, \"Sender is not owner\") */\n      tag_246\n      jumpi\n      mload(0x40)\n      0x08c379a000000000000000000000000000000000000000000000000000000000\n      dup2\n      mstore\n      0x04\n      add\n      tag_247\n      swap1\n      tag_36\n      jump\t// in\n    tag_247:\n      mload(0x40)\n      dup1\n      swap2\n      sub\n      swap1\n      revert\n    tag_246:\n        /* \"Contracts/AuctionSPU.sol\":5719:5726  started */\n      0x07\n      0x00\n      swap1\n      sload\n      swap1\n      0x0100\n      exp\n      swap1\n      div\n      0xff\n      and\n        /* \"Contracts/AuctionSPU.sol\":5718:5726  !started */\n      iszero\n        /* \"Contracts/AuctionSPU.sol\":5710:5746  require(!started, \"Already Started\") */\n      tag_249\n      jumpi\n      mload(0x40)\n      0x08c379a000000000000000000000000000000000000000000000000000000000\n      dup2\n      mstore\n      0x04\n      add\n      tag_250\n      swap1\n      tag_251\n      jump\t// in\n    tag_250:\n      mload(0x40)\n      dup1\n      swap2\n      sub\n      swap1\n      revert\n    tag_249:\n        /* \"Contracts/AuctionSPU.sol\":5759:5762  nft */\n      0x00\n      dup1\n      sload\n      swap1\n      0x0100\n      exp\n      swap1\n      div\n      0xffffffffffffffffffffffffffffffffffffffff\n      and\n        /* \"Contracts/AuctionSPU.sol\":5759:5775  nft.transferFrom */\n      0xffffffffffffffffffffffffffffffffffffffff\n      and\n      0x23b872dd\n        /* \"Contracts/AuctionSPU.sol\":5776:5786  msg.sender */\n      caller\n        /* \"Contracts/AuctionSPU.sol\":5796:5800  this */\n      address\n        /* \"Contracts/AuctionSPU.sol\":5803:5808  nftId */\n      sload(0x01)\n        /* \"Contracts/AuctionSPU.sol\":5759:5809  nft.transferFrom(msg.sender, address(this), nftId) */\n      mload(0x40)\n      dup5\n      0xffffffff\n      and\n      0xe0\n      shl\n      dup2\n      mstore\n      0x04\n      add\n      tag_252\n      swap4\n      swap3\n      swap2\n      swap1\n      tag_199\n      jump\t// in\n    tag_252:\n      0x00\n      mload(0x40)\n      dup1\n      dup4\n      sub\n      dup2\n      0x00\n      dup8\n      dup1\n      extcodesize\n      iszero\n      dup1\n      iszero\n      tag_253\n      jumpi\n      0x00\n      dup1\n      revert\n    tag_253:\n      pop\n      gas\n      call\n      iszero\n      dup1\n      iszero\n      tag_255\n      jumpi\n      returndatasize\n      0x00\n      dup1\n      returndatacopy\n      revert(0x00, returndatasize)\n    tag_255:\n      pop\n      pop\n      pop\n      pop\n        /* \"Contracts/AuctionSPU.sol\":5830:5834  true */\n      0x01\n        /* \"Contracts/AuctionSPU.sol\":5820:5827  started */\n      0x07\n      0x00\n        /* \"Contracts/AuctionSPU.sol\":5820:5834  started = true */\n      0x0100\n      exp\n      dup2\n      sload\n      dup2\n      0xff\n      mul\n      not\n      and\n      swap1\n      dup4\n      iszero\n      iszero\n      mul\n      or\n      swap1\n      sstore\n      pop\n        /* \"Contracts/AuctionSPU.sol\":5852:5866  StartAuction() */\n      0xd295ebf0a48a9a43d600a6ecb8626baa711d5750dec13a08145013aa30cb92ea\n      mload(0x40)\n      mload(0x40)\n      dup1\n      swap2\n      sub\n      swap1\n      log1\n        /* \"Contracts/AuctionSPU.sol\":5656:5874  function startAuction() external onlyOwner {... */\n      jump\t// out\n        /* \"Contracts/AuctionSPU.sol\":2652:2669  uint public endAt */\n    tag_105:\n      sload(0x06)\n      dup2\n      jump\t// out\n        /* \"Contracts/AuctionSPU.sol\":2887:2915  address public highestBidder */\n    tag_109:\n      0x0b\n      0x00\n      swap1\n      sload\n      swap1\n      0x0100\n      exp\n      swap1\n      div\n      0xffffffffffffffffffffffffffffffffffffffff\n      and\n      dup2\n      jump\t// out\n        /* \"Contracts/AuctionSPU.sol\":3108:3155  mapping(address => Bidders) public receivedBids */\n    tag_115:\n      mstore(0x20, 0x0d)\n      dup1\n      0x00\n      mstore\n      keccak256(0x00, 0x40)\n      0x00\n      swap2\n      pop\n      swap1\n      pop\n      dup1\n      0x00\n      add\n      sload\n      swap1\n      dup1\n      0x01\n      add\n      sload\n      swap1\n      dup1\n      0x02\n      add\n      sload\n      swap1\n      dup1\n      0x03\n      add\n      sload\n      swap1\n      dup1\n      0x04\n      add\n      sload\n      swap1\n      pop\n      dup6\n      jump\t// out\n        /* \"Contracts/AuctionSPU.sol\":6370:6534  function pauseAuction() external onlyOwner {... */\n    tag_120:\n        /* \"Contracts/AuctionSPU.sol\":4564:4570  seller */\n      0x02\n      0x00\n      swap1\n      sload\n      swap1\n      0x0100\n      exp\n      swap1\n      div\n      0xffffffffffffffffffffffffffffffffffffffff\n      and\n        /* \"Contracts/AuctionSPU.sol\":4550:4570  msg.sender == seller */\n      0xffffffffffffffffffffffffffffffffffffffff\n      and\n        /* \"Contracts/AuctionSPU.sol\":4550:4560  msg.sender */\n      caller\n        /* \"Contracts/AuctionSPU.sol\":4550:4570  msg.sender == seller */\n      0xffffffffffffffffffffffffffffffffffffffff\n      and\n      eq\n        /* \"Contracts/AuctionSPU.sol\":4542:4594  require(msg.sender == seller, \"Sender is not owner\") */\n      tag_257\n      jumpi\n      mload(0x40)\n      0x08c379a000000000000000000000000000000000000000000000000000000000\n      dup2\n      mstore\n      0x04\n      add\n      tag_258\n      swap1\n      tag_36\n      jump\t// in\n    tag_258:\n      mload(0x40)\n      dup1\n      swap2\n      sub\n      swap1\n      revert\n    tag_257:\n        /* \"Contracts/AuctionSPU.sol\":6433:6439  paused */\n      0x07\n      0x02\n      swap1\n      sload\n      swap1\n      0x0100\n      exp\n      swap1\n      div\n      0xff\n      and\n        /* \"Contracts/AuctionSPU.sol\":6432:6439  !paused */\n      iszero\n        /* \"Contracts/AuctionSPU.sol\":6424:6458  require(!paused, \"Already Paused\") */\n      tag_260\n      jumpi\n      mload(0x40)\n      0x08c379a000000000000000000000000000000000000000000000000000000000\n      dup2\n      mstore\n      0x04\n      add\n      tag_261\n      swap1\n      tag_262\n      jump\t// in\n    tag_261:\n      mload(0x40)\n      dup1\n      swap2\n      sub\n      swap1\n      revert\n    tag_260:\n        /* \"Contracts/AuctionSPU.sol\":6480:6484  true */\n      0x01\n        /* \"Contracts/AuctionSPU.sol\":6471:6477  paused */\n      0x07\n      0x02\n        /* \"Contracts/AuctionSPU.sol\":6471:6484  paused = true */\n      0x0100\n      exp\n      dup2\n      sload\n      dup2\n      0xff\n      mul\n      not\n      and\n      swap1\n      dup4\n      iszero\n      iszero\n      mul\n      or\n      swap1\n      sstore\n      pop\n        /* \"Contracts/AuctionSPU.sol\":6502:6526  PauseAuction(msg.sender) */\n      0xdee06086e53b718fd5176fdaa88a207819a06a56b42087ac2cab84d32a335654\n        /* \"Contracts/AuctionSPU.sol\":6515:6525  msg.sender */\n      caller\n        /* \"Contracts/AuctionSPU.sol\":6502:6526  PauseAuction(msg.sender) */\n      mload(0x40)\n      tag_263\n      swap2\n      swap1\n      tag_66\n      jump\t// in\n    tag_263:\n      mload(0x40)\n      dup1\n      swap2\n      sub\n      swap1\n      log1\n        /* \"Contracts/AuctionSPU.sol\":6370:6534  function pauseAuction() external onlyOwner {... */\n      jump\t// out\n        /* \"Contracts/AuctionSPU.sol\":11922:12036  function isWhitelist(address _account) public view returns (bool) {... */\n    tag_124:\n        /* \"Contracts/AuctionSPU.sol\":11982:11986  bool */\n      0x00\n        /* \"Contracts/AuctionSPU.sol\":12006:12028  _isWhitelist(_account) */\n      tag_265\n        /* \"Contracts/AuctionSPU.sol\":12019:12027  _account */\n      dup3\n        /* \"Contracts/AuctionSPU.sol\":12006:12018  _isWhitelist */\n      tag_166\n        /* \"Contracts/AuctionSPU.sol\":12006:12028  _isWhitelist(_account) */\n      jump\t// in\n    tag_265:\n        /* \"Contracts/AuctionSPU.sol\":11999:12028  return _isWhitelist(_account) */\n      swap1\n      pop\n        /* \"Contracts/AuctionSPU.sol\":11922:12036  function isWhitelist(address _account) public view returns (bool) {... */\n      swap2\n      swap1\n      pop\n      jump\t// out\n        /* \"Contracts/AuctionSPU.sol\":2486:2503  uint public nftId */\n    tag_128:\n      sload(0x01)\n      dup2\n      jump\t// out\n        /* \"Contracts/AuctionSPU.sol\":6666:6835  function unpauseAuction() external onlyOwner {... */\n    tag_132:\n        /* \"Contracts/AuctionSPU.sol\":4564:4570  seller */\n      0x02\n      0x00\n      swap1\n      sload\n      swap1\n      0x0100\n      exp\n      swap1\n      div\n      0xffffffffffffffffffffffffffffffffffffffff\n      and\n        /* \"Contracts/AuctionSPU.sol\":4550:4570  msg.sender == seller */\n      0xffffffffffffffffffffffffffffffffffffffff\n      and\n        /* \"Contracts/AuctionSPU.sol\":4550:4560  msg.sender */\n      caller\n        /* \"Contracts/AuctionSPU.sol\":4550:4570  msg.sender == seller */\n      0xffffffffffffffffffffffffffffffffffffffff\n      and\n      eq\n        /* \"Contracts/AuctionSPU.sol\":4542:4594  require(msg.sender == seller, \"Sender is not owner\") */\n      tag_267\n      jumpi\n      mload(0x40)\n      0x08c379a000000000000000000000000000000000000000000000000000000000\n      dup2\n      mstore\n      0x04\n      add\n      tag_268\n      swap1\n      tag_36\n      jump\t// in\n    tag_268:\n      mload(0x40)\n      dup1\n      swap2\n      sub\n      swap1\n      revert\n    tag_267:\n        /* \"Contracts/AuctionSPU.sol\":6730:6736  paused */\n      0x07\n      0x02\n      swap1\n      sload\n      swap1\n      0x0100\n      exp\n      swap1\n      div\n      0xff\n      and\n        /* \"Contracts/AuctionSPU.sol\":6722:6756  require(paused, \"Already Running\") */\n      tag_270\n      jumpi\n      mload(0x40)\n      0x08c379a000000000000000000000000000000000000000000000000000000000\n      dup2\n      mstore\n      0x04\n      add\n      tag_271\n      swap1\n      tag_272\n      jump\t// in\n    tag_271:\n      mload(0x40)\n      dup1\n      swap2\n      sub\n      swap1\n      revert\n    tag_270:\n        /* \"Contracts/AuctionSPU.sol\":6778:6783  false */\n      0x00\n        /* \"Contracts/AuctionSPU.sol\":6769:6775  paused */\n      0x07\n      0x02\n        /* \"Contracts/AuctionSPU.sol\":6769:6783  paused = false */\n      0x0100\n      exp\n      dup2\n      sload\n      dup2\n      0xff\n      mul\n      not\n      and\n      swap1\n      dup4\n      iszero\n      iszero\n      mul\n      or\n      swap1\n      sstore\n      pop\n        /* \"Contracts/AuctionSPU.sol\":6801:6827  UnpauseAuction(msg.sender) */\n      0xc1a02e947cf77134ed09ac0692636f0553306db51ffe4a1d9e7b51b4dcd9c762\n        /* \"Contracts/AuctionSPU.sol\":6816:6826  msg.sender */\n      caller\n        /* \"Contracts/AuctionSPU.sol\":6801:6827  UnpauseAuction(msg.sender) */\n      mload(0x40)\n      tag_273\n      swap2\n      swap1\n      tag_66\n      jump\t// in\n    tag_273:\n      mload(0x40)\n      dup1\n      swap2\n      sub\n      swap1\n      log1\n        /* \"Contracts/AuctionSPU.sol\":6666:6835  function unpauseAuction() external onlyOwner {... */\n      jump\t// out\n        /* \"Contracts/AuctionSPU.sol\":2922:2944  uint public highestBid */\n    tag_135:\n      sload(0x0c)\n      dup2\n      jump\t// out\n        /* \"Contracts/AuctionSPU.sol\":2620:2645  string public docsProcess */\n    tag_139:\n      0x05\n      dup1\n      sload\n      tag_274\n      swap1\n      tag_275\n      jump\t// in\n    tag_274:\n      dup1\n      0x1f\n      add\n      0x20\n      dup1\n      swap2\n      div\n      mul\n      0x20\n      add\n      mload(0x40)\n      swap1\n      dup2\n      add\n      0x40\n      mstore\n      dup1\n      swap3\n      swap2\n      swap1\n      dup2\n      dup2\n      mstore\n      0x20\n      add\n      dup3\n      dup1\n      sload\n      tag_276\n      swap1\n      tag_275\n      jump\t// in\n    tag_276:\n      dup1\n      iszero\n      tag_277\n      jumpi\n      dup1\n      0x1f\n      lt\n      tag_278\n      jumpi\n      0x0100\n      dup1\n      dup4\n      sload\n      div\n      mul\n      dup4\n      mstore\n      swap2\n      0x20\n      add\n      swap2\n      jump(tag_277)\n    tag_278:\n      dup3\n      add\n      swap2\n      swap1\n      0x00\n      mstore\n      keccak256(0x00, 0x20)\n      swap1\n    tag_279:\n      dup2\n      sload\n      dup2\n      mstore\n      swap1\n      0x01\n      add\n      swap1\n      0x20\n      add\n      dup1\n      dup4\n      gt\n      tag_279\n      jumpi\n      dup3\n      swap1\n      sub\n      0x1f\n      and\n      dup3\n      add\n      swap2\n    tag_277:\n      pop\n      pop\n      pop\n      pop\n      pop\n      dup2\n      jump\t// out\n        /* \"Contracts/AuctionSPU.sol\":2816:2853  uint public constant FEE_BASE = 10000 */\n    tag_144:\n        /* \"Contracts/AuctionSPU.sol\":2848:2853  10000 */\n      0x2710\n        /* \"Contracts/AuctionSPU.sol\":2816:2853  uint public constant FEE_BASE = 10000 */\n      dup2\n      jump\t// out\n        /* \"Contracts/AuctionSPU.sol\":5998:6242  function endAuction() external onlyOwner auctionStarted {... */\n    tag_148:\n        /* \"Contracts/AuctionSPU.sol\":4564:4570  seller */\n      0x02\n      0x00\n      swap1\n      sload\n      swap1\n      0x0100\n      exp\n      swap1\n      div\n      0xffffffffffffffffffffffffffffffffffffffff\n      and\n        /* \"Contracts/AuctionSPU.sol\":4550:4570  msg.sender == seller */\n      0xffffffffffffffffffffffffffffffffffffffff\n      and\n        /* \"Contracts/AuctionSPU.sol\":4550:4560  msg.sender */\n      caller\n        /* \"Contracts/AuctionSPU.sol\":4550:4570  msg.sender == seller */\n      0xffffffffffffffffffffffffffffffffffffffff\n      and\n      eq\n        /* \"Contracts/AuctionSPU.sol\":4542:4594  require(msg.sender == seller, \"Sender is not owner\") */\n      tag_281\n      jumpi\n      mload(0x40)\n      0x08c379a000000000000000000000000000000000000000000000000000000000\n      dup2\n      mstore\n      0x04\n      add\n      tag_282\n      swap1\n      tag_36\n      jump\t// in\n    tag_282:\n      mload(0x40)\n      dup1\n      swap2\n      sub\n      swap1\n      revert\n    tag_281:\n        /* \"Contracts/AuctionSPU.sol\":5022:5029  started */\n      0x07\n      0x00\n      swap1\n      sload\n      swap1\n      0x0100\n      exp\n      swap1\n      div\n      0xff\n      and\n        /* \"Contracts/AuctionSPU.sol\":5014:5049  require(started, \"Not Started Yet\") */\n      tag_284\n      jumpi\n      mload(0x40)\n      0x08c379a000000000000000000000000000000000000000000000000000000000\n      dup2\n      mstore\n      0x04\n      add\n      tag_285\n      swap1\n      tag_153\n      jump\t// in\n    tag_285:\n      mload(0x40)\n      dup1\n      swap2\n      sub\n      swap1\n      revert\n    tag_284:\n        /* \"Contracts/AuctionSPU.sol\":6092:6097  endAt */\n      sload(0x06)\n        /* \"Contracts/AuctionSPU.sol\":6073:6088  block.timestamp */\n      timestamp\n        /* \"Contracts/AuctionSPU.sol\":6073:6097  block.timestamp >= endAt */\n      lt\n      iszero\n        /* \"Contracts/AuctionSPU.sol\":6065:6111  require(block.timestamp >= endAt, \"Not Ended\") */\n      tag_287\n      jumpi\n      mload(0x40)\n      0x08c379a000000000000000000000000000000000000000000000000000000000\n      dup2\n      mstore\n      0x04\n      add\n      tag_288\n      swap1\n      tag_196\n      jump\t// in\n    tag_288:\n      mload(0x40)\n      dup1\n      swap2\n      sub\n      swap1\n      revert\n    tag_287:\n        /* \"Contracts/AuctionSPU.sol\":6131:6136  ended */\n      0x07\n      0x01\n      swap1\n      sload\n      swap1\n      0x0100\n      exp\n      swap1\n      div\n      0xff\n      and\n        /* \"Contracts/AuctionSPU.sol\":6130:6136  !ended */\n      iszero\n        /* \"Contracts/AuctionSPU.sol\":6122:6154  require(!ended, \"Already Ended\") */\n      tag_289\n      jumpi\n      mload(0x40)\n      0x08c379a000000000000000000000000000000000000000000000000000000000\n      dup2\n      mstore\n      0x04\n      add\n      tag_290\n      swap1\n      tag_291\n      jump\t// in\n    tag_290:\n      mload(0x40)\n      dup1\n      swap2\n      sub\n      swap1\n      revert\n    tag_289:\n        /* \"Contracts/AuctionSPU.sol\":6175:6179  true */\n      0x01\n        /* \"Contracts/AuctionSPU.sol\":6167:6172  ended */\n      0x07\n      0x01\n        /* \"Contracts/AuctionSPU.sol\":6167:6179  ended = true */\n      0x0100\n      exp\n      dup2\n      sload\n      dup2\n      0xff\n      mul\n      not\n      and\n      swap1\n      dup4\n      iszero\n      iszero\n      mul\n      or\n      swap1\n      sstore\n      pop\n        /* \"Contracts/AuctionSPU.sol\":6197:6234  EndAuction(highestBidder, highestBid) */\n      0xca09734d1fc32150404dc9252b4d991c6bee44319031b7159c03d5ae2c062704\n        /* \"Contracts/AuctionSPU.sol\":6208:6221  highestBidder */\n      0x0b\n      0x00\n      swap1\n      sload\n      swap1\n      0x0100\n      exp\n      swap1\n      div\n      0xffffffffffffffffffffffffffffffffffffffff\n      and\n        /* \"Contracts/AuctionSPU.sol\":6223:6233  highestBid */\n      sload(0x0c)\n        /* \"Contracts/AuctionSPU.sol\":6197:6234  EndAuction(highestBidder, highestBid) */\n      mload(0x40)\n      tag_292\n      swap3\n      swap2\n      swap1\n      tag_293\n      jump\t// in\n    tag_292:\n      mload(0x40)\n      dup1\n      swap2\n      sub\n      swap1\n      log1\n        /* \"Contracts/AuctionSPU.sol\":5998:6242  function endAuction() external onlyOwner auctionStarted {... */\n      jump\t// out\n        /* \"Contracts/AuctionSPU.sol\":11640:11754  function _isWhitelist(address _account) private view returns (bool) {... */\n    tag_166:\n        /* \"Contracts/AuctionSPU.sol\":11702:11706  bool */\n      0x00\n        /* \"Contracts/AuctionSPU.sol\":11726:11736  _whitelist */\n      0x0e\n        /* \"Contracts/AuctionSPU.sol\":11726:11746  _whitelist[_account] */\n      0x00\n        /* \"Contracts/AuctionSPU.sol\":11737:11745  _account */\n      dup4\n        /* \"Contracts/AuctionSPU.sol\":11726:11746  _whitelist[_account] */\n      0xffffffffffffffffffffffffffffffffffffffff\n      and\n      0xffffffffffffffffffffffffffffffffffffffff\n      and\n      dup2\n      mstore\n      0x20\n      add\n      swap1\n      dup2\n      mstore\n      0x20\n      add\n      0x00\n      keccak256\n      0x00\n      swap1\n      sload\n      swap1\n      0x0100\n      exp\n      swap1\n      div\n      0xff\n      and\n        /* \"Contracts/AuctionSPU.sol\":11719:11746  return _whitelist[_account] */\n      swap1\n      pop\n        /* \"Contracts/AuctionSPU.sol\":11640:11754  function _isWhitelist(address _account) private view returns (bool) {... */\n      swap2\n      swap1\n      pop\n      jump\t// out\n        /* \"Contracts/AuctionSPU.sol\":9091:9533  function cashback(address _receiver, uint _amount) internal {... */\n    tag_180:\n        /* \"Contracts/AuctionSPU.sol\":9163:9179  bool callSuccess */\n      0x00\n        /* \"Contracts/AuctionSPU.sol\":9193:9202  _receiver */\n      dup3\n        /* \"Contracts/AuctionSPU.sol\":9185:9208  payable(_receiver).call */\n      0xffffffffffffffffffffffffffffffffffffffff\n      and\n        /* \"Contracts/AuctionSPU.sol\":9216:9223  _amount */\n      dup3\n        /* \"Contracts/AuctionSPU.sol\":9185:9228  payable(_receiver).call{value: _amount}(\"\") */\n      mload(0x40)\n      tag_296\n      swap1\n      tag_204\n      jump\t// in\n    tag_296:\n      0x00\n      mload(0x40)\n      dup1\n      dup4\n      sub\n      dup2\n      dup6\n      dup8\n      gas\n      call\n      swap3\n      pop\n      pop\n      pop\n      returndatasize\n      dup1\n      0x00\n      dup2\n      eq\n      tag_299\n      jumpi\n      mload(0x40)\n      swap2\n      pop\n      and(add(returndatasize, 0x3f), not(0x1f))\n      dup3\n      add\n      0x40\n      mstore\n      returndatasize\n      dup3\n      mstore\n      returndatasize\n      0x00\n      0x20\n      dup5\n      add\n      returndatacopy\n      jump(tag_298)\n    tag_299:\n      0x60\n      swap2\n      pop\n    tag_298:\n      pop\n        /* \"Contracts/AuctionSPU.sol\":9162:9228  (bool callSuccess, ) = payable(_receiver).call{value: _amount}(\"\") */\n      pop\n      swap1\n      pop\n        /* \"Contracts/AuctionSPU.sol\":9247:9258  callSuccess */\n      dup1\n        /* \"Contracts/AuctionSPU.sol\":9239:9282  require(callSuccess, \"Return funds failed\") */\n      tag_300\n      jumpi\n      mload(0x40)\n      0x08c379a000000000000000000000000000000000000000000000000000000000\n      dup2\n      mstore\n      0x04\n      add\n      tag_301\n      swap1\n      tag_218\n      jump\t// in\n    tag_301:\n      mload(0x40)\n      dup1\n      swap2\n      sub\n      swap1\n      revert\n    tag_300:\n        /* \"Contracts/AuctionSPU.sol\":9330:9331  0 */\n      0x00\n        /* \"Contracts/AuctionSPU.sol\":9295:9307  receivedBids */\n      0x0d\n        /* \"Contracts/AuctionSPU.sol\":9295:9319  receivedBids[msg.sender] */\n      0x00\n        /* \"Contracts/AuctionSPU.sol\":9308:9318  msg.sender */\n      caller\n        /* \"Contracts/AuctionSPU.sol\":9295:9319  receivedBids[msg.sender] */\n      0xffffffffffffffffffffffffffffffffffffffff\n      and\n      0xffffffffffffffffffffffffffffffffffffffff\n      and\n      dup2\n      mstore\n      0x20\n      add\n      swap1\n      dup2\n      mstore\n      0x20\n      add\n      0x00\n      keccak256\n        /* \"Contracts/AuctionSPU.sol\":9295:9327  receivedBids[msg.sender].downpay */\n      0x04\n      add\n        /* \"Contracts/AuctionSPU.sol\":9295:9331  receivedBids[msg.sender].downpay = 0 */\n      dup2\n      swap1\n      sstore\n      pop\n        /* \"Contracts/AuctionSPU.sol\":9380:9381  0 */\n      0x00\n        /* \"Contracts/AuctionSPU.sol\":9342:9354  receivedBids */\n      0x0d\n        /* \"Contracts/AuctionSPU.sol\":9342:9366  receivedBids[msg.sender] */\n      0x00\n        /* \"Contracts/AuctionSPU.sol\":9355:9365  msg.sender */\n      caller\n        /* \"Contracts/AuctionSPU.sol\":9342:9366  receivedBids[msg.sender] */\n      0xffffffffffffffffffffffffffffffffffffffff\n      and\n      0xffffffffffffffffffffffffffffffffffffffff\n      and\n      dup2\n      mstore\n      0x20\n      add\n      swap1\n      dup2\n      mstore\n      0x20\n      add\n      0x00\n      keccak256\n        /* \"Contracts/AuctionSPU.sol\":9342:9377  receivedBids[msg.sender].totalValue */\n      0x00\n      add\n        /* \"Contracts/AuctionSPU.sol\":9342:9381  receivedBids[msg.sender].totalValue = 0 */\n      dup2\n      swap1\n      sstore\n      pop\n        /* \"Contracts/AuctionSPU.sol\":9427:9428  0 */\n      0x00\n        /* \"Contracts/AuctionSPU.sol\":9392:9404  receivedBids */\n      0x0d\n        /* \"Contracts/AuctionSPU.sol\":9392:9416  receivedBids[msg.sender] */\n      0x00\n        /* \"Contracts/AuctionSPU.sol\":9405:9415  msg.sender */\n      caller\n        /* \"Contracts/AuctionSPU.sol\":9392:9416  receivedBids[msg.sender] */\n      0xffffffffffffffffffffffffffffffffffffffff\n      and\n      0xffffffffffffffffffffffffffffffffffffffff\n      and\n      dup2\n      mstore\n      0x20\n      add\n      swap1\n      dup2\n      mstore\n      0x20\n      add\n      0x00\n      keccak256\n        /* \"Contracts/AuctionSPU.sol\":9392:9424  receivedBids[msg.sender].portion */\n      0x02\n      add\n        /* \"Contracts/AuctionSPU.sol\":9392:9428  receivedBids[msg.sender].portion = 0 */\n      dup2\n      swap1\n      sstore\n      pop\n        /* \"Contracts/AuctionSPU.sol\":9478:9479  0 */\n      0x00\n        /* \"Contracts/AuctionSPU.sol\":9439:9451  receivedBids */\n      0x0d\n        /* \"Contracts/AuctionSPU.sol\":9439:9463  receivedBids[msg.sender] */\n      0x00\n        /* \"Contracts/AuctionSPU.sol\":9452:9462  msg.sender */\n      caller\n        /* \"Contracts/AuctionSPU.sol\":9439:9463  receivedBids[msg.sender] */\n      0xffffffffffffffffffffffffffffffffffffffff\n      and\n      0xffffffffffffffffffffffffffffffffffffffff\n      and\n      dup2\n      mstore\n      0x20\n      add\n      swap1\n      dup2\n      mstore\n      0x20\n      add\n      0x00\n      keccak256\n        /* \"Contracts/AuctionSPU.sol\":9439:9475  receivedBids[msg.sender].clientScore */\n      0x03\n      add\n        /* \"Contracts/AuctionSPU.sol\":9439:9479  receivedBids[msg.sender].clientScore = 0 */\n      dup2\n      swap1\n      sstore\n      pop\n        /* \"Contracts/AuctionSPU.sol\":9506:9515  _receiver */\n      dup3\n        /* \"Contracts/AuctionSPU.sol\":9497:9525  Cashback(_receiver, _amount) */\n      0xffffffffffffffffffffffffffffffffffffffff\n      and\n      0xe523757eee9c213543af9b06c96e0629da383d3149173f4a03ab96d8ff526760\n        /* \"Contracts/AuctionSPU.sol\":9517:9524  _amount */\n      dup4\n        /* \"Contracts/AuctionSPU.sol\":9497:9525  Cashback(_receiver, _amount) */\n      mload(0x40)\n      tag_302\n      swap2\n      swap1\n      tag_52\n      jump\t// in\n    tag_302:\n      mload(0x40)\n      dup1\n      swap2\n      sub\n      swap1\n      log2\n        /* \"Contracts/AuctionSPU.sol\":9151:9533  {... */\n      pop\n        /* \"Contracts/AuctionSPU.sol\":9091:9533  function cashback(address _receiver, uint _amount) internal {... */\n      pop\n      pop\n      jump\t// out\n    tag_186:\n      mload(0x40)\n      dup1\n      0xa0\n      add\n      0x40\n      mstore\n      dup1\n      0x00\n      dup2\n      mstore\n      0x20\n      add\n      0x00\n      dup2\n      mstore\n      0x20\n      add\n      0x00\n      dup2\n      mstore\n      0x20\n      add\n      0x00\n      dup2\n      mstore\n      0x20\n      add\n      0x00\n      dup2\n      mstore\n      pop\n      swap1\n      jump\t// out\n        /* \"#utility.yul\":7:176   */\n    tag_303:\n        /* \"#utility.yul\":91:102   */\n      0x00\n        /* \"#utility.yul\":125:131   */\n      dup3\n        /* \"#utility.yul\":120:123   */\n      dup3\n        /* \"#utility.yul\":113:132   */\n      mstore\n        /* \"#utility.yul\":165:169   */\n      0x20\n        /* \"#utility.yul\":160:163   */\n      dup3\n        /* \"#utility.yul\":156:170   */\n      add\n        /* \"#utility.yul\":141:170   */\n      swap1\n      pop\n        /* \"#utility.yul\":7:176   */\n      swap3\n      swap2\n      pop\n      pop\n      jump\t// out\n        /* \"#utility.yul\":182:351   */\n    tag_304:\n        /* \"#utility.yul\":322:343   */\n      0x53656e646572206973206e6f74206f776e657200000000000000000000000000\n        /* \"#utility.yul\":318:319   */\n      0x00\n        /* \"#utility.yul\":310:316   */\n      dup3\n        /* \"#utility.yul\":306:320   */\n      add\n        /* \"#utility.yul\":299:344   */\n      mstore\n        /* \"#utility.yul\":182:351   */\n      pop\n      jump\t// out\n        /* \"#utility.yul\":357:723   */\n    tag_305:\n        /* \"#utility.yul\":499:502   */\n      0x00\n        /* \"#utility.yul\":520:587   */\n      tag_371\n        /* \"#utility.yul\":584:586   */\n      0x13\n        /* \"#utility.yul\":579:582   */\n      dup4\n        /* \"#utility.yul\":520:587   */\n      tag_303\n      jump\t// in\n    tag_371:\n        /* \"#utility.yul\":513:587   */\n      swap2\n      pop\n        /* \"#utility.yul\":596:689   */\n      tag_372\n        /* \"#utility.yul\":685:688   */\n      dup3\n        /* \"#utility.yul\":596:689   */\n      tag_304\n      jump\t// in\n    tag_372:\n        /* \"#utility.yul\":714:716   */\n      0x20\n        /* \"#utility.yul\":709:712   */\n      dup3\n        /* \"#utility.yul\":705:717   */\n      add\n        /* \"#utility.yul\":698:717   */\n      swap1\n      pop\n        /* \"#utility.yul\":357:723   */\n      swap2\n      swap1\n      pop\n      jump\t// out\n        /* \"#utility.yul\":729:1148   */\n    tag_36:\n        /* \"#utility.yul\":895:899   */\n      0x00\n        /* \"#utility.yul\":933:935   */\n      0x20\n        /* \"#utility.yul\":922:931   */\n      dup3\n        /* \"#utility.yul\":918:936   */\n      add\n        /* \"#utility.yul\":910:936   */\n      swap1\n      pop\n        /* \"#utility.yul\":982:991   */\n      dup2\n        /* \"#utility.yul\":976:980   */\n      dup2\n        /* \"#utility.yul\":972:992   */\n      sub\n        /* \"#utility.yul\":968:969   */\n      0x00\n        /* \"#utility.yul\":957:966   */\n      dup4\n        /* \"#utility.yul\":953:970   */\n      add\n        /* \"#utility.yul\":946:993   */\n      mstore\n        /* \"#utility.yul\":1010:1141   */\n      tag_374\n        /* \"#utility.yul\":1136:1140   */\n      dup2\n        /* \"#utility.yul\":1010:1141   */\n      tag_305\n      jump\t// in\n    tag_374:\n        /* \"#utility.yul\":1002:1141   */\n      swap1\n      pop\n        /* \"#utility.yul\":729:1148   */\n      swap2\n      swap1\n      pop\n      jump\t// out\n        /* \"#utility.yul\":1154:1280   */\n    tag_306:\n        /* \"#utility.yul\":1191:1198   */\n      0x00\n        /* \"#utility.yul\":1231:1273   */\n      0xffffffffffffffffffffffffffffffffffffffff\n        /* \"#utility.yul\":1224:1229   */\n      dup3\n        /* \"#utility.yul\":1220:1274   */\n      and\n        /* \"#utility.yul\":1209:1274   */\n      swap1\n      pop\n        /* \"#utility.yul\":1154:1280   */\n      swap2\n      swap1\n      pop\n      jump\t// out\n        /* \"#utility.yul\":1286:1390   */\n    tag_307:\n        /* \"#utility.yul\":1331:1338   */\n      0x00\n        /* \"#utility.yul\":1360:1384   */\n      tag_377\n        /* \"#utility.yul\":1378:1383   */\n      dup3\n        /* \"#utility.yul\":1360:1384   */\n      tag_306\n      jump\t// in\n    tag_377:\n        /* \"#utility.yul\":1349:1384   */\n      swap1\n      pop\n        /* \"#utility.yul\":1286:1390   */\n      swap2\n      swap1\n      pop\n      jump\t// out\n        /* \"#utility.yul\":1396:1538   */\n    tag_308:\n        /* \"#utility.yul\":1499:1531   */\n      tag_379\n        /* \"#utility.yul\":1525:1530   */\n      dup2\n        /* \"#utility.yul\":1499:1531   */\n      tag_307\n      jump\t// in\n    tag_379:\n        /* \"#utility.yul\":1494:1497   */\n      dup3\n        /* \"#utility.yul\":1487:1532   */\n      mstore\n        /* \"#utility.yul\":1396:1538   */\n      pop\n      pop\n      jump\t// out\n        /* \"#utility.yul\":1544:1798   */\n    tag_47:\n        /* \"#utility.yul\":1653:1657   */\n      0x00\n        /* \"#utility.yul\":1691:1693   */\n      0x20\n        /* \"#utility.yul\":1680:1689   */\n      dup3\n        /* \"#utility.yul\":1676:1694   */\n      add\n        /* \"#utility.yul\":1668:1694   */\n      swap1\n      pop\n        /* \"#utility.yul\":1704:1791   */\n      tag_381\n        /* \"#utility.yul\":1788:1789   */\n      0x00\n        /* \"#utility.yul\":1777:1786   */\n      dup4\n        /* \"#utility.yul\":1773:1790   */\n      add\n        /* \"#utility.yul\":1764:1770   */\n      dup5\n        /* \"#utility.yul\":1704:1791   */\n      tag_308\n      jump\t// in\n    tag_381:\n        /* \"#utility.yul\":1544:1798   */\n      swap3\n      swap2\n      pop\n      pop\n      jump\t// out\n        /* \"#utility.yul\":1804:1881   */\n    tag_309:\n        /* \"#utility.yul\":1841:1848   */\n      0x00\n        /* \"#utility.yul\":1870:1875   */\n      dup2\n        /* \"#utility.yul\":1859:1875   */\n      swap1\n      pop\n        /* \"#utility.yul\":1804:1881   */\n      swap2\n      swap1\n      pop\n      jump\t// out\n        /* \"#utility.yul\":1887:2005   */\n    tag_310:\n        /* \"#utility.yul\":1974:1998   */\n      tag_384\n        /* \"#utility.yul\":1992:1997   */\n      dup2\n        /* \"#utility.yul\":1974:1998   */\n      tag_309\n      jump\t// in\n    tag_384:\n        /* \"#utility.yul\":1969:1972   */\n      dup3\n        /* \"#utility.yul\":1962:1999   */\n      mstore\n        /* \"#utility.yul\":1887:2005   */\n      pop\n      pop\n      jump\t// out\n        /* \"#utility.yul\":2011:2233   */\n    tag_52:\n        /* \"#utility.yul\":2104:2108   */\n      0x00\n        /* \"#utility.yul\":2142:2144   */\n      0x20\n        /* \"#utility.yul\":2131:2140   */\n      dup3\n        /* \"#utility.yul\":2127:2145   */\n      add\n        /* \"#utility.yul\":2119:2145   */\n      swap1\n      pop\n        /* \"#utility.yul\":2155:2226   */\n      tag_386\n        /* \"#utility.yul\":2223:2224   */\n      0x00\n        /* \"#utility.yul\":2212:2221   */\n      dup4\n        /* \"#utility.yul\":2208:2225   */\n      add\n        /* \"#utility.yul\":2199:2205   */\n      dup5\n        /* \"#utility.yul\":2155:2226   */\n      tag_310\n      jump\t// in\n    tag_386:\n        /* \"#utility.yul\":2011:2233   */\n      swap3\n      swap2\n      pop\n      pop\n      jump\t// out\n        /* \"#utility.yul\":2239:2329   */\n    tag_311:\n        /* \"#utility.yul\":2273:2280   */\n      0x00\n        /* \"#utility.yul\":2316:2321   */\n      dup2\n        /* \"#utility.yul\":2309:2322   */\n      iszero\n        /* \"#utility.yul\":2302:2323   */\n      iszero\n        /* \"#utility.yul\":2291:2323   */\n      swap1\n      pop\n        /* \"#utility.yul\":2239:2329   */\n      swap2\n      swap1\n      pop\n      jump\t// out\n        /* \"#utility.yul\":2335:2444   */\n    tag_312:\n        /* \"#utility.yul\":2416:2437   */\n      tag_389\n        /* \"#utility.yul\":2431:2436   */\n      dup2\n        /* \"#utility.yul\":2416:2437   */\n      tag_311\n      jump\t// in\n    tag_389:\n        /* \"#utility.yul\":2411:2414   */\n      dup3\n        /* \"#utility.yul\":2404:2438   */\n      mstore\n        /* \"#utility.yul\":2335:2444   */\n      pop\n      pop\n      jump\t// out\n        /* \"#utility.yul\":2450:2660   */\n    tag_57:\n        /* \"#utility.yul\":2537:2541   */\n      0x00\n        /* \"#utility.yul\":2575:2577   */\n      0x20\n        /* \"#utility.yul\":2564:2573   */\n      dup3\n        /* \"#utility.yul\":2560:2578   */\n      add\n        /* \"#utility.yul\":2552:2578   */\n      swap1\n      pop\n        /* \"#utility.yul\":2588:2653   */\n      tag_391\n        /* \"#utility.yul\":2650:2651   */\n      0x00\n        /* \"#utility.yul\":2639:2648   */\n      dup4\n        /* \"#utility.yul\":2635:2652   */\n      add\n        /* \"#utility.yul\":2626:2632   */\n      dup5\n        /* \"#utility.yul\":2588:2653   */\n      tag_312\n      jump\t// in\n    tag_391:\n        /* \"#utility.yul\":2450:2660   */\n      swap3\n      swap2\n      pop\n      pop\n      jump\t// out\n        /* \"#utility.yul\":2666:2762   */\n    tag_313:\n        /* \"#utility.yul\":2703:2710   */\n      0x00\n        /* \"#utility.yul\":2732:2756   */\n      tag_393\n        /* \"#utility.yul\":2750:2755   */\n      dup3\n        /* \"#utility.yul\":2732:2756   */\n      tag_306\n      jump\t// in\n    tag_393:\n        /* \"#utility.yul\":2721:2756   */\n      swap1\n      pop\n        /* \"#utility.yul\":2666:2762   */\n      swap2\n      swap1\n      pop\n      jump\t// out\n        /* \"#utility.yul\":2768:2886   */\n    tag_314:\n        /* \"#utility.yul\":2855:2879   */\n      tag_395\n        /* \"#utility.yul\":2873:2878   */\n      dup2\n        /* \"#utility.yul\":2855:2879   */\n      tag_313\n      jump\t// in\n    tag_395:\n        /* \"#utility.yul\":2850:2853   */\n      dup3\n        /* \"#utility.yul\":2843:2880   */\n      mstore\n        /* \"#utility.yul\":2768:2886   */\n      pop\n      pop\n      jump\t// out\n        /* \"#utility.yul\":2892:3114   */\n    tag_66:\n        /* \"#utility.yul\":2985:2989   */\n      0x00\n        /* \"#utility.yul\":3023:3025   */\n      0x20\n        /* \"#utility.yul\":3012:3021   */\n      dup3\n        /* \"#utility.yul\":3008:3026   */\n      add\n        /* \"#utility.yul\":3000:3026   */\n      swap1\n      pop\n        /* \"#utility.yul\":3036:3107   */\n      tag_397\n        /* \"#utility.yul\":3104:3105   */\n      0x00\n        /* \"#utility.yul\":3093:3102   */\n      dup4\n        /* \"#utility.yul\":3089:3106   */\n      add\n        /* \"#utility.yul\":3080:3086   */\n      dup5\n        /* \"#utility.yul\":3036:3107   */\n      tag_314\n      jump\t// in\n    tag_397:\n        /* \"#utility.yul\":2892:3114   */\n      swap3\n      swap2\n      pop\n      pop\n      jump\t// out\n        /* \"#utility.yul\":3201:3318   */\n    tag_316:\n        /* \"#utility.yul\":3310:3311   */\n      0x00\n        /* \"#utility.yul\":3307:3308   */\n      dup1\n        /* \"#utility.yul\":3300:3312   */\n      revert\n        /* \"#utility.yul\":3447:3569   */\n    tag_318:\n        /* \"#utility.yul\":3520:3544   */\n      tag_402\n        /* \"#utility.yul\":3538:3543   */\n      dup2\n        /* \"#utility.yul\":3520:3544   */\n      tag_309\n      jump\t// in\n    tag_402:\n        /* \"#utility.yul\":3513:3518   */\n      dup2\n        /* \"#utility.yul\":3510:3545   */\n      eq\n        /* \"#utility.yul\":3500:3563   */\n      tag_403\n      jumpi\n        /* \"#utility.yul\":3559:3560   */\n      0x00\n        /* \"#utility.yul\":3556:3557   */\n      dup1\n        /* \"#utility.yul\":3549:3561   */\n      revert\n        /* \"#utility.yul\":3500:3563   */\n    tag_403:\n        /* \"#utility.yul\":3447:3569   */\n      pop\n      jump\t// out\n        /* \"#utility.yul\":3575:3714   */\n    tag_319:\n        /* \"#utility.yul\":3621:3626   */\n      0x00\n        /* \"#utility.yul\":3659:3665   */\n      dup2\n        /* \"#utility.yul\":3646:3666   */\n      calldataload\n        /* \"#utility.yul\":3637:3666   */\n      swap1\n      pop\n        /* \"#utility.yul\":3675:3708   */\n      tag_405\n        /* \"#utility.yul\":3702:3707   */\n      dup2\n        /* \"#utility.yul\":3675:3708   */\n      tag_318\n      jump\t// in\n    tag_405:\n        /* \"#utility.yul\":3575:3714   */\n      swap3\n      swap2\n      pop\n      pop\n      jump\t// out\n        /* \"#utility.yul\":3720:4485   */\n    tag_77:\n        /* \"#utility.yul\":3806:3812   */\n      0x00\n        /* \"#utility.yul\":3814:3820   */\n      dup1\n        /* \"#utility.yul\":3822:3828   */\n      0x00\n        /* \"#utility.yul\":3830:3836   */\n      dup1\n        /* \"#utility.yul\":3879:3882   */\n      0x80\n        /* \"#utility.yul\":3867:3876   */\n      dup6\n        /* \"#utility.yul\":3858:3865   */\n      dup8\n        /* \"#utility.yul\":3854:3877   */\n      sub\n        /* \"#utility.yul\":3850:3883   */\n      slt\n        /* \"#utility.yul\":3847:3967   */\n      iszero\n      tag_407\n      jumpi\n        /* \"#utility.yul\":3886:3965   */\n      tag_408\n      tag_316\n      jump\t// in\n    tag_408:\n        /* \"#utility.yul\":3847:3967   */\n    tag_407:\n        /* \"#utility.yul\":4006:4007   */\n      0x00\n        /* \"#utility.yul\":4031:4084   */\n      tag_409\n        /* \"#utility.yul\":4076:4083   */\n      dup8\n        /* \"#utility.yul\":4067:4073   */\n      dup3\n        /* \"#utility.yul\":4056:4065   */\n      dup9\n        /* \"#utility.yul\":4052:4074   */\n      add\n        /* \"#utility.yul\":4031:4084   */\n      tag_319\n      jump\t// in\n    tag_409:\n        /* \"#utility.yul\":4021:4084   */\n      swap5\n      pop\n        /* \"#utility.yul\":3977:4094   */\n      pop\n        /* \"#utility.yul\":4133:4135   */\n      0x20\n        /* \"#utility.yul\":4159:4212   */\n      tag_410\n        /* \"#utility.yul\":4204:4211   */\n      dup8\n        /* \"#utility.yul\":4195:4201   */\n      dup3\n        /* \"#utility.yul\":4184:4193   */\n      dup9\n        /* \"#utility.yul\":4180:4202   */\n      add\n        /* \"#utility.yul\":4159:4212   */\n      tag_319\n      jump\t// in\n    tag_410:\n        /* \"#utility.yul\":4149:4212   */\n      swap4\n      pop\n        /* \"#utility.yul\":4104:4222   */\n      pop\n        /* \"#utility.yul\":4261:4263   */\n      0x40\n        /* \"#utility.yul\":4287:4340   */\n      tag_411\n        /* \"#utility.yul\":4332:4339   */\n      dup8\n        /* \"#utility.yul\":4323:4329   */\n      dup3\n        /* \"#utility.yul\":4312:4321   */\n      dup9\n        /* \"#utility.yul\":4308:4330   */\n      add\n        /* \"#utility.yul\":4287:4340   */\n      tag_319\n      jump\t// in\n    tag_411:\n        /* \"#utility.yul\":4277:4340   */\n      swap3\n      pop\n        /* \"#utility.yul\":4232:4350   */\n      pop\n        /* \"#utility.yul\":4389:4391   */\n      0x60\n        /* \"#utility.yul\":4415:4468   */\n      tag_412\n        /* \"#utility.yul\":4460:4467   */\n      dup8\n        /* \"#utility.yul\":4451:4457   */\n      dup3\n        /* \"#utility.yul\":4440:4449   */\n      dup9\n        /* \"#utility.yul\":4436:4458   */\n      add\n        /* \"#utility.yul\":4415:4468   */\n      tag_319\n      jump\t// in\n    tag_412:\n        /* \"#utility.yul\":4405:4468   */\n      swap2\n      pop\n        /* \"#utility.yul\":4360:4478   */\n      pop\n        /* \"#utility.yul\":3720:4485   */\n      swap3\n      swap6\n      swap2\n      swap5\n      pop\n      swap3\n      pop\n      jump\t// out\n        /* \"#utility.yul\":4491:4551   */\n    tag_320:\n        /* \"#utility.yul\":4519:4522   */\n      0x00\n        /* \"#utility.yul\":4540:4545   */\n      dup2\n        /* \"#utility.yul\":4533:4545   */\n      swap1\n      pop\n        /* \"#utility.yul\":4491:4551   */\n      swap2\n      swap1\n      pop\n      jump\t// out\n        /* \"#utility.yul\":4557:4699   */\n    tag_321:\n        /* \"#utility.yul\":4607:4616   */\n      0x00\n        /* \"#utility.yul\":4640:4693   */\n      tag_415\n        /* \"#utility.yul\":4658:4692   */\n      tag_416\n        /* \"#utility.yul\":4667:4691   */\n      tag_417\n        /* \"#utility.yul\":4685:4690   */\n      dup5\n        /* \"#utility.yul\":4667:4691   */\n      tag_306\n      jump\t// in\n    tag_417:\n        /* \"#utility.yul\":4658:4692   */\n      tag_320\n      jump\t// in\n    tag_416:\n        /* \"#utility.yul\":4640:4693   */\n      tag_306\n      jump\t// in\n    tag_415:\n        /* \"#utility.yul\":4627:4693   */\n      swap1\n      pop\n        /* \"#utility.yul\":4557:4699   */\n      swap2\n      swap1\n      pop\n      jump\t// out\n        /* \"#utility.yul\":4705:4831   */\n    tag_322:\n        /* \"#utility.yul\":4755:4764   */\n      0x00\n        /* \"#utility.yul\":4788:4825   */\n      tag_419\n        /* \"#utility.yul\":4819:4824   */\n      dup3\n        /* \"#utility.yul\":4788:4825   */\n      tag_321\n      jump\t// in\n    tag_419:\n        /* \"#utility.yul\":4775:4825   */\n      swap1\n      pop\n        /* \"#utility.yul\":4705:4831   */\n      swap2\n      swap1\n      pop\n      jump\t// out\n        /* \"#utility.yul\":4837:4977   */\n    tag_323:\n        /* \"#utility.yul\":4901:4910   */\n      0x00\n        /* \"#utility.yul\":4934:4971   */\n      tag_421\n        /* \"#utility.yul\":4965:4970   */\n      dup3\n        /* \"#utility.yul\":4934:4971   */\n      tag_322\n      jump\t// in\n    tag_421:\n        /* \"#utility.yul\":4921:4971   */\n      swap1\n      pop\n        /* \"#utility.yul\":4837:4977   */\n      swap2\n      swap1\n      pop\n      jump\t// out\n        /* \"#utility.yul\":4983:5142   */\n    tag_324:\n        /* \"#utility.yul\":5084:5135   */\n      tag_423\n        /* \"#utility.yul\":5129:5134   */\n      dup2\n        /* \"#utility.yul\":5084:5135   */\n      tag_323\n      jump\t// in\n    tag_423:\n        /* \"#utility.yul\":5079:5082   */\n      dup3\n        /* \"#utility.yul\":5072:5136   */\n      mstore\n        /* \"#utility.yul\":4983:5142   */\n      pop\n      pop\n      jump\t// out\n        /* \"#utility.yul\":5148:5398   */\n    tag_90:\n        /* \"#utility.yul\":5255:5259   */\n      0x00\n        /* \"#utility.yul\":5293:5295   */\n      0x20\n        /* \"#utility.yul\":5282:5291   */\n      dup3\n        /* \"#utility.yul\":5278:5296   */\n      add\n        /* \"#utility.yul\":5270:5296   */\n      swap1\n      pop\n        /* \"#utility.yul\":5306:5391   */\n      tag_425\n        /* \"#utility.yul\":5388:5389   */\n      0x00\n        /* \"#utility.yul\":5377:5386   */\n      dup4\n        /* \"#utility.yul\":5373:5390   */\n      add\n        /* \"#utility.yul\":5364:5370   */\n      dup5\n        /* \"#utility.yul\":5306:5391   */\n      tag_324\n      jump\t// in\n    tag_425:\n        /* \"#utility.yul\":5148:5398   */\n      swap3\n      swap2\n      pop\n      pop\n      jump\t// out\n        /* \"#utility.yul\":5404:5526   */\n    tag_325:\n        /* \"#utility.yul\":5477:5501   */\n      tag_427\n        /* \"#utility.yul\":5495:5500   */\n      dup2\n        /* \"#utility.yul\":5477:5501   */\n      tag_313\n      jump\t// in\n    tag_427:\n        /* \"#utility.yul\":5470:5475   */\n      dup2\n        /* \"#utility.yul\":5467:5502   */\n      eq\n        /* \"#utility.yul\":5457:5520   */\n      tag_428\n      jumpi\n        /* \"#utility.yul\":5516:5517   */\n      0x00\n        /* \"#utility.yul\":5513:5514   */\n      dup1\n        /* \"#utility.yul\":5506:5518   */\n      revert\n        /* \"#utility.yul\":5457:5520   */\n    tag_428:\n        /* \"#utility.yul\":5404:5526   */\n      pop\n      jump\t// out\n        /* \"#utility.yul\":5532:5671   */\n    tag_326:\n        /* \"#utility.yul\":5578:5583   */\n      0x00\n        /* \"#utility.yul\":5616:5622   */\n      dup2\n        /* \"#utility.yul\":5603:5623   */\n      calldataload\n        /* \"#utility.yul\":5594:5623   */\n      swap1\n      pop\n        /* \"#utility.yul\":5632:5665   */\n      tag_430\n        /* \"#utility.yul\":5659:5664   */\n      dup2\n        /* \"#utility.yul\":5632:5665   */\n      tag_325\n      jump\t// in\n    tag_430:\n        /* \"#utility.yul\":5532:5671   */\n      swap3\n      swap2\n      pop\n      pop\n      jump\t// out\n        /* \"#utility.yul\":5677:5793   */\n    tag_327:\n        /* \"#utility.yul\":5747:5768   */\n      tag_432\n        /* \"#utility.yul\":5762:5767   */\n      dup2\n        /* \"#utility.yul\":5747:5768   */\n      tag_311\n      jump\t// in\n    tag_432:\n        /* \"#utility.yul\":5740:5745   */\n      dup2\n        /* \"#utility.yul\":5737:5769   */\n      eq\n        /* \"#utility.yul\":5727:5787   */\n      tag_433\n      jumpi\n        /* \"#utility.yul\":5783:5784   */\n      0x00\n        /* \"#utility.yul\":5780:5781   */\n      dup1\n        /* \"#utility.yul\":5773:5785   */\n      revert\n        /* \"#utility.yul\":5727:5787   */\n    tag_433:\n        /* \"#utility.yul\":5677:5793   */\n      pop\n      jump\t// out\n        /* \"#utility.yul\":5799:5932   */\n    tag_328:\n        /* \"#utility.yul\":5842:5847   */\n      0x00\n        /* \"#utility.yul\":5880:5886   */\n      dup2\n        /* \"#utility.yul\":5867:5887   */\n      calldataload\n        /* \"#utility.yul\":5858:5887   */\n      swap1\n      pop\n        /* \"#utility.yul\":5896:5926   */\n      tag_435\n        /* \"#utility.yul\":5920:5925   */\n      dup2\n        /* \"#utility.yul\":5896:5926   */\n      tag_327\n      jump\t// in\n    tag_435:\n        /* \"#utility.yul\":5799:5932   */\n      swap3\n      swap2\n      pop\n      pop\n      jump\t// out\n        /* \"#utility.yul\":5938:6406   */\n    tag_94:\n        /* \"#utility.yul\":6003:6009   */\n      0x00\n        /* \"#utility.yul\":6011:6017   */\n      dup1\n        /* \"#utility.yul\":6060:6062   */\n      0x40\n        /* \"#utility.yul\":6048:6057   */\n      dup4\n        /* \"#utility.yul\":6039:6046   */\n      dup6\n        /* \"#utility.yul\":6035:6058   */\n      sub\n        /* \"#utility.yul\":6031:6063   */\n      slt\n        /* \"#utility.yul\":6028:6147   */\n      iszero\n      tag_437\n      jumpi\n        /* \"#utility.yul\":6066:6145   */\n      tag_438\n      tag_316\n      jump\t// in\n    tag_438:\n        /* \"#utility.yul\":6028:6147   */\n    tag_437:\n        /* \"#utility.yul\":6186:6187   */\n      0x00\n        /* \"#utility.yul\":6211:6264   */\n      tag_439\n        /* \"#utility.yul\":6256:6263   */\n      dup6\n        /* \"#utility.yul\":6247:6253   */\n      dup3\n        /* \"#utility.yul\":6236:6245   */\n      dup7\n        /* \"#utility.yul\":6232:6254   */\n      add\n        /* \"#utility.yul\":6211:6264   */\n      tag_326\n      jump\t// in\n    tag_439:\n        /* \"#utility.yul\":6201:6264   */\n      swap3\n      pop\n        /* \"#utility.yul\":6157:6274   */\n      pop\n        /* \"#utility.yul\":6313:6315   */\n      0x20\n        /* \"#utility.yul\":6339:6389   */\n      tag_440\n        /* \"#utility.yul\":6381:6388   */\n      dup6\n        /* \"#utility.yul\":6372:6378   */\n      dup3\n        /* \"#utility.yul\":6361:6370   */\n      dup7\n        /* \"#utility.yul\":6357:6379   */\n      add\n        /* \"#utility.yul\":6339:6389   */\n      tag_328\n      jump\t// in\n    tag_440:\n        /* \"#utility.yul\":6329:6389   */\n      swap2\n      pop\n        /* \"#utility.yul\":6284:6399   */\n      pop\n        /* \"#utility.yul\":5938:6406   */\n      swap3\n      pop\n      swap3\n      swap1\n      pop\n      jump\t// out\n        /* \"#utility.yul\":6412:6741   */\n    tag_114:\n        /* \"#utility.yul\":6471:6477   */\n      0x00\n        /* \"#utility.yul\":6520:6522   */\n      0x20\n        /* \"#utility.yul\":6508:6517   */\n      dup3\n        /* \"#utility.yul\":6499:6506   */\n      dup5\n        /* \"#utility.yul\":6495:6518   */\n      sub\n        /* \"#utility.yul\":6491:6523   */\n      slt\n        /* \"#utility.yul\":6488:6607   */\n      iszero\n      tag_442\n      jumpi\n        /* \"#utility.yul\":6526:6605   */\n      tag_443\n      tag_316\n      jump\t// in\n    tag_443:\n        /* \"#utility.yul\":6488:6607   */\n    tag_442:\n        /* \"#utility.yul\":6646:6647   */\n      0x00\n        /* \"#utility.yul\":6671:6724   */\n      tag_444\n        /* \"#utility.yul\":6716:6723   */\n      dup5\n        /* \"#utility.yul\":6707:6713   */\n      dup3\n        /* \"#utility.yul\":6696:6705   */\n      dup6\n        /* \"#utility.yul\":6692:6714   */\n      add\n        /* \"#utility.yul\":6671:6724   */\n      tag_326\n      jump\t// in\n    tag_444:\n        /* \"#utility.yul\":6661:6724   */\n      swap2\n      pop\n        /* \"#utility.yul\":6617:6734   */\n      pop\n        /* \"#utility.yul\":6412:6741   */\n      swap3\n      swap2\n      pop\n      pop\n      jump\t// out\n        /* \"#utility.yul\":6747:7411   */\n    tag_117:\n        /* \"#utility.yul\":6952:6956   */\n      0x00\n        /* \"#utility.yul\":6990:6993   */\n      0xa0\n        /* \"#utility.yul\":6979:6988   */\n      dup3\n        /* \"#utility.yul\":6975:6994   */\n      add\n        /* \"#utility.yul\":6967:6994   */\n      swap1\n      pop\n        /* \"#utility.yul\":7004:7075   */\n      tag_446\n        /* \"#utility.yul\":7072:7073   */\n      0x00\n        /* \"#utility.yul\":7061:7070   */\n      dup4\n        /* \"#utility.yul\":7057:7074   */\n      add\n        /* \"#utility.yul\":7048:7054   */\n      dup9\n        /* \"#utility.yul\":7004:7075   */\n      tag_310\n      jump\t// in\n    tag_446:\n        /* \"#utility.yul\":7085:7157   */\n      tag_447\n        /* \"#utility.yul\":7153:7155   */\n      0x20\n        /* \"#utility.yul\":7142:7151   */\n      dup4\n        /* \"#utility.yul\":7138:7156   */\n      add\n        /* \"#utility.yul\":7129:7135   */\n      dup8\n        /* \"#utility.yul\":7085:7157   */\n      tag_310\n      jump\t// in\n    tag_447:\n        /* \"#utility.yul\":7167:7239   */\n      tag_448\n        /* \"#utility.yul\":7235:7237   */\n      0x40\n        /* \"#utility.yul\":7224:7233   */\n      dup4\n        /* \"#utility.yul\":7220:7238   */\n      add\n        /* \"#utility.yul\":7211:7217   */\n      dup7\n        /* \"#utility.yul\":7167:7239   */\n      tag_310\n      jump\t// in\n    tag_448:\n        /* \"#utility.yul\":7249:7321   */\n      tag_449\n        /* \"#utility.yul\":7317:7319   */\n      0x60\n        /* \"#utility.yul\":7306:7315   */\n      dup4\n        /* \"#utility.yul\":7302:7320   */\n      add\n        /* \"#utility.yul\":7293:7299   */\n      dup6\n        /* \"#utility.yul\":7249:7321   */\n      tag_310\n      jump\t// in\n    tag_449:\n        /* \"#utility.yul\":7331:7404   */\n      tag_450\n        /* \"#utility.yul\":7399:7402   */\n      0x80\n        /* \"#utility.yul\":7388:7397   */\n      dup4\n        /* \"#utility.yul\":7384:7403   */\n      add\n        /* \"#utility.yul\":7375:7381   */\n      dup5\n        /* \"#utility.yul\":7331:7404   */\n      tag_310\n      jump\t// in\n    tag_450:\n        /* \"#utility.yul\":6747:7411   */\n      swap7\n      swap6\n      pop\n      pop\n      pop\n      pop\n      pop\n      pop\n      jump\t// out\n        /* \"#utility.yul\":7417:7516   */\n    tag_329:\n        /* \"#utility.yul\":7469:7475   */\n      0x00\n        /* \"#utility.yul\":7503:7508   */\n      dup2\n        /* \"#utility.yul\":7497:7509   */\n      mload\n        /* \"#utility.yul\":7487:7509   */\n      swap1\n      pop\n        /* \"#utility.yul\":7417:7516   */\n      swap2\n      swap1\n      pop\n      jump\t// out\n        /* \"#utility.yul\":7522:7768   */\n    tag_330:\n        /* \"#utility.yul\":7603:7604   */\n      0x00\n        /* \"#utility.yul\":7613:7726   */\n    tag_453:\n        /* \"#utility.yul\":7627:7633   */\n      dup4\n        /* \"#utility.yul\":7624:7625   */\n      dup2\n        /* \"#utility.yul\":7621:7634   */\n      lt\n        /* \"#utility.yul\":7613:7726   */\n      iszero\n      tag_455\n      jumpi\n        /* \"#utility.yul\":7712:7713   */\n      dup1\n        /* \"#utility.yul\":7707:7710   */\n      dup3\n        /* \"#utility.yul\":7703:7714   */\n      add\n        /* \"#utility.yul\":7697:7715   */\n      mload\n        /* \"#utility.yul\":7693:7694   */\n      dup2\n        /* \"#utility.yul\":7688:7691   */\n      dup5\n        /* \"#utility.yul\":7684:7695   */\n      add\n        /* \"#utility.yul\":7677:7716   */\n      mstore\n        /* \"#utility.yul\":7649:7651   */\n      0x20\n        /* \"#utility.yul\":7646:7647   */\n      dup2\n        /* \"#utility.yul\":7642:7652   */\n      add\n        /* \"#utility.yul\":7637:7652   */\n      swap1\n      pop\n        /* \"#utility.yul\":7613:7726   */\n      jump(tag_453)\n    tag_455:\n        /* \"#utility.yul\":7760:7761   */\n      0x00\n        /* \"#utility.yul\":7751:7757   */\n      dup5\n        /* \"#utility.yul\":7746:7749   */\n      dup5\n        /* \"#utility.yul\":7742:7758   */\n      add\n        /* \"#utility.yul\":7735:7762   */\n      mstore\n        /* \"#utility.yul\":7584:7768   */\n      pop\n        /* \"#utility.yul\":7522:7768   */\n      pop\n      pop\n      pop\n      jump\t// out\n        /* \"#utility.yul\":7774:7876   */\n    tag_331:\n        /* \"#utility.yul\":7815:7821   */\n      0x00\n        /* \"#utility.yul\":7866:7868   */\n      0x1f\n        /* \"#utility.yul\":7862:7869   */\n      not\n        /* \"#utility.yul\":7857:7859   */\n      0x1f\n        /* \"#utility.yul\":7850:7855   */\n      dup4\n        /* \"#utility.yul\":7846:7860   */\n      add\n        /* \"#utility.yul\":7842:7870   */\n      and\n        /* \"#utility.yul\":7832:7870   */\n      swap1\n      pop\n        /* \"#utility.yul\":7774:7876   */\n      swap2\n      swap1\n      pop\n      jump\t// out\n        /* \"#utility.yul\":7882:8259   */\n    tag_332:\n        /* \"#utility.yul\":7970:7973   */\n      0x00\n        /* \"#utility.yul\":7998:8037   */\n      tag_458\n        /* \"#utility.yul\":8031:8036   */\n      dup3\n        /* \"#utility.yul\":7998:8037   */\n      tag_329\n      jump\t// in\n    tag_458:\n        /* \"#utility.yul\":8053:8124   */\n      tag_459\n        /* \"#utility.yul\":8117:8123   */\n      dup2\n        /* \"#utility.yul\":8112:8115   */\n      dup6\n        /* \"#utility.yul\":8053:8124   */\n      tag_303\n      jump\t// in\n    tag_459:\n        /* \"#utility.yul\":8046:8124   */\n      swap4\n      pop\n        /* \"#utility.yul\":8133:8198   */\n      tag_460\n        /* \"#utility.yul\":8191:8197   */\n      dup2\n        /* \"#utility.yul\":8186:8189   */\n      dup6\n        /* \"#utility.yul\":8179:8183   */\n      0x20\n        /* \"#utility.yul\":8172:8177   */\n      dup7\n        /* \"#utility.yul\":8168:8184   */\n      add\n        /* \"#utility.yul\":8133:8198   */\n      tag_330\n      jump\t// in\n    tag_460:\n        /* \"#utility.yul\":8223:8252   */\n      tag_461\n        /* \"#utility.yul\":8245:8251   */\n      dup2\n        /* \"#utility.yul\":8223:8252   */\n      tag_331\n      jump\t// in\n    tag_461:\n        /* \"#utility.yul\":8218:8221   */\n      dup5\n        /* \"#utility.yul\":8214:8253   */\n      add\n        /* \"#utility.yul\":8207:8253   */\n      swap2\n      pop\n        /* \"#utility.yul\":7974:8259   */\n      pop\n        /* \"#utility.yul\":7882:8259   */\n      swap3\n      swap2\n      pop\n      pop\n      jump\t// out\n        /* \"#utility.yul\":8265:8578   */\n    tag_141:\n        /* \"#utility.yul\":8378:8382   */\n      0x00\n        /* \"#utility.yul\":8416:8418   */\n      0x20\n        /* \"#utility.yul\":8405:8414   */\n      dup3\n        /* \"#utility.yul\":8401:8419   */\n      add\n        /* \"#utility.yul\":8393:8419   */\n      swap1\n      pop\n        /* \"#utility.yul\":8465:8474   */\n      dup2\n        /* \"#utility.yul\":8459:8463   */\n      dup2\n        /* \"#utility.yul\":8455:8475   */\n      sub\n        /* \"#utility.yul\":8451:8452   */\n      0x00\n        /* \"#utility.yul\":8440:8449   */\n      dup4\n        /* \"#utility.yul\":8436:8453   */\n      add\n        /* \"#utility.yul\":8429:8476   */\n      mstore\n        /* \"#utility.yul\":8493:8571   */\n      tag_463\n        /* \"#utility.yul\":8566:8570   */\n      dup2\n        /* \"#utility.yul\":8557:8563   */\n      dup5\n        /* \"#utility.yul\":8493:8571   */\n      tag_332\n      jump\t// in\n    tag_463:\n        /* \"#utility.yul\":8485:8571   */\n      swap1\n      pop\n        /* \"#utility.yul\":8265:8578   */\n      swap3\n      swap2\n      pop\n      pop\n      jump\t// out\n        /* \"#utility.yul\":8584:8749   */\n    tag_333:\n        /* \"#utility.yul\":8724:8741   */\n      0x4e6f742053746172746564205965740000000000000000000000000000000000\n        /* \"#utility.yul\":8720:8721   */\n      0x00\n        /* \"#utility.yul\":8712:8718   */\n      dup3\n        /* \"#utility.yul\":8708:8722   */\n      add\n        /* \"#utility.yul\":8701:8742   */\n      mstore\n        /* \"#utility.yul\":8584:8749   */\n      pop\n      jump\t// out\n        /* \"#utility.yul\":8755:9121   */\n    tag_334:\n        /* \"#utility.yul\":8897:8900   */\n      0x00\n        /* \"#utility.yul\":8918:8985   */\n      tag_466\n        /* \"#utility.yul\":8982:8984   */\n      0x0f\n        /* \"#utility.yul\":8977:8980   */\n      dup4\n        /* \"#utility.yul\":8918:8985   */\n      tag_303\n      jump\t// in\n    tag_466:\n        /* \"#utility.yul\":8911:8985   */\n      swap2\n      pop\n        /* \"#utility.yul\":8994:9087   */\n      tag_467\n        /* \"#utility.yul\":9083:9086   */\n      dup3\n        /* \"#utility.yul\":8994:9087   */\n      tag_333\n      jump\t// in\n    tag_467:\n        /* \"#utility.yul\":9112:9114   */\n      0x20\n        /* \"#utility.yul\":9107:9110   */\n      dup3\n        /* \"#utility.yul\":9103:9115   */\n      add\n        /* \"#utility.yul\":9096:9115   */\n      swap1\n      pop\n        /* \"#utility.yul\":8755:9121   */\n      swap2\n      swap1\n      pop\n      jump\t// out\n        /* \"#utility.yul\":9127:9546   */\n    tag_153:\n        /* \"#utility.yul\":9293:9297   */\n      0x00\n        /* \"#utility.yul\":9331:9333   */\n      0x20\n        /* \"#utility.yul\":9320:9329   */\n      dup3\n        /* \"#utility.yul\":9316:9334   */\n      add\n        /* \"#utility.yul\":9308:9334   */\n      swap1\n      pop\n        /* \"#utility.yul\":9380:9389   */\n      dup2\n        /* \"#utility.yul\":9374:9378   */\n      dup2\n        /* \"#utility.yul\":9370:9390   */\n      sub\n        /* \"#utility.yul\":9366:9367   */\n      0x00\n        /* \"#utility.yul\":9355:9364   */\n      dup4\n        /* \"#utility.yul\":9351:9368   */\n      add\n        /* \"#utility.yul\":9344:9391   */\n      mstore\n        /* \"#utility.yul\":9408:9539   */\n      tag_469\n        /* \"#utility.yul\":9534:9538   */\n      dup2\n        /* \"#utility.yul\":9408:9539   */\n      tag_334\n      jump\t// in\n    tag_469:\n        /* \"#utility.yul\":9400:9539   */\n      swap1\n      pop\n        /* \"#utility.yul\":9127:9546   */\n      swap2\n      swap1\n      pop\n      jump\t// out\n        /* \"#utility.yul\":9552:9716   */\n    tag_335:\n        /* \"#utility.yul\":9692:9708   */\n      0x41756374696f6e20506175736564000000000000000000000000000000000000\n        /* \"#utility.yul\":9688:9689   */\n      0x00\n        /* \"#utility.yul\":9680:9686   */\n      dup3\n        /* \"#utility.yul\":9676:9690   */\n      add\n        /* \"#utility.yul\":9669:9709   */\n      mstore\n        /* \"#utility.yul\":9552:9716   */\n      pop\n      jump\t// out\n        /* \"#utility.yul\":9722:10088   */\n    tag_336:\n        /* \"#utility.yul\":9864:9867   */\n      0x00\n        /* \"#utility.yul\":9885:9952   */\n      tag_472\n        /* \"#utility.yul\":9949:9951   */\n      0x0e\n        /* \"#utility.yul\":9944:9947   */\n      dup4\n        /* \"#utility.yul\":9885:9952   */\n      tag_303\n      jump\t// in\n    tag_472:\n        /* \"#utility.yul\":9878:9952   */\n      swap2\n      pop\n        /* \"#utility.yul\":9961:10054   */\n      tag_473\n        /* \"#utility.yul\":10050:10053   */\n      dup3\n        /* \"#utility.yul\":9961:10054   */\n      tag_335\n      jump\t// in\n    tag_473:\n        /* \"#utility.yul\":10079:10081   */\n      0x20\n        /* \"#utility.yul\":10074:10077   */\n      dup3\n        /* \"#utility.yul\":10070:10082   */\n      add\n        /* \"#utility.yul\":10063:10082   */\n      swap1\n      pop\n        /* \"#utility.yul\":9722:10088   */\n      swap2\n      swap1\n      pop\n      jump\t// out\n        /* \"#utility.yul\":10094:10513   */\n    tag_157:\n        /* \"#utility.yul\":10260:10264   */\n      0x00\n        /* \"#utility.yul\":10298:10300   */\n      0x20\n        /* \"#utility.yul\":10287:10296   */\n      dup3\n        /* \"#utility.yul\":10283:10301   */\n      add\n        /* \"#utility.yul\":10275:10301   */\n      swap1\n      pop\n        /* \"#utility.yul\":10347:10356   */\n      dup2\n        /* \"#utility.yul\":10341:10345   */\n      dup2\n        /* \"#utility.yul\":10337:10357   */\n      sub\n        /* \"#utility.yul\":10333:10334   */\n      0x00\n        /* \"#utility.yul\":10322:10331   */\n      dup4\n        /* \"#utility.yul\":10318:10335   */\n      add\n        /* \"#utility.yul\":10311:10358   */\n      mstore\n        /* \"#utility.yul\":10375:10506   */\n      tag_475\n        /* \"#utility.yul\":10501:10505   */\n      dup2\n        /* \"#utility.yul\":10375:10506   */\n      tag_336\n      jump\t// in\n    tag_475:\n        /* \"#utility.yul\":10367:10506   */\n      swap1\n      pop\n        /* \"#utility.yul\":10094:10513   */\n      swap2\n      swap1\n      pop\n      jump\t// out\n        /* \"#utility.yul\":10519:10682   */\n    tag_337:\n        /* \"#utility.yul\":10659:10674   */\n      0x416c726561647920656e64656400000000000000000000000000000000000000\n        /* \"#utility.yul\":10655:10656   */\n      0x00\n        /* \"#utility.yul\":10647:10653   */\n      dup3\n        /* \"#utility.yul\":10643:10657   */\n      add\n        /* \"#utility.yul\":10636:10675   */\n      mstore\n        /* \"#utility.yul\":10519:10682   */\n      pop\n      jump\t// out\n        /* \"#utility.yul\":10688:11054   */\n    tag_338:\n        /* \"#utility.yul\":10830:10833   */\n      0x00\n        /* \"#utility.yul\":10851:10918   */\n      tag_478\n        /* \"#utility.yul\":10915:10917   */\n      0x0d\n        /* \"#utility.yul\":10910:10913   */\n      dup4\n        /* \"#utility.yul\":10851:10918   */\n      tag_303\n      jump\t// in\n    tag_478:\n        /* \"#utility.yul\":10844:10918   */\n      swap2\n      pop\n        /* \"#utility.yul\":10927:11020   */\n      tag_479\n        /* \"#utility.yul\":11016:11019   */\n      dup3\n        /* \"#utility.yul\":10927:11020   */\n      tag_337\n      jump\t// in\n    tag_479:\n        /* \"#utility.yul\":11045:11047   */\n      0x20\n        /* \"#utility.yul\":11040:11043   */\n      dup3\n        /* \"#utility.yul\":11036:11048   */\n      add\n        /* \"#utility.yul\":11029:11048   */\n      swap1\n      pop\n        /* \"#utility.yul\":10688:11054   */\n      swap2\n      swap1\n      pop\n      jump\t// out\n        /* \"#utility.yul\":11060:11479   */\n    tag_161:\n        /* \"#utility.yul\":11226:11230   */\n      0x00\n        /* \"#utility.yul\":11264:11266   */\n      0x20\n        /* \"#utility.yul\":11253:11262   */\n      dup3\n        /* \"#utility.yul\":11249:11267   */\n      add\n        /* \"#utility.yul\":11241:11267   */\n      swap1\n      pop\n        /* \"#utility.yul\":11313:11322   */\n      dup2\n        /* \"#utility.yul\":11307:11311   */\n      dup2\n        /* \"#utility.yul\":11303:11323   */\n      sub\n        /* \"#utility.yul\":11299:11300   */\n      0x00\n        /* \"#utility.yul\":11288:11297   */\n      dup4\n        /* \"#utility.yul\":11284:11301   */\n      add\n        /* \"#utility.yul\":11277:11324   */\n      mstore\n        /* \"#utility.yul\":11341:11472   */\n      tag_481\n        /* \"#utility.yul\":11467:11471   */\n      dup2\n        /* \"#utility.yul\":11341:11472   */\n      tag_338\n      jump\t// in\n    tag_481:\n        /* \"#utility.yul\":11333:11472   */\n      swap1\n      pop\n        /* \"#utility.yul\":11060:11479   */\n      swap2\n      swap1\n      pop\n      jump\t// out\n        /* \"#utility.yul\":11485:11653   */\n    tag_339:\n        /* \"#utility.yul\":11625:11645   */\n      0x53656c6c6572206e6f7420616c6c6f7765640000000000000000000000000000\n        /* \"#utility.yul\":11621:11622   */\n      0x00\n        /* \"#utility.yul\":11613:11619   */\n      dup3\n        /* \"#utility.yul\":11609:11623   */\n      add\n        /* \"#utility.yul\":11602:11646   */\n      mstore\n        /* \"#utility.yul\":11485:11653   */\n      pop\n      jump\t// out\n        /* \"#utility.yul\":11659:12025   */\n    tag_340:\n        /* \"#utility.yul\":11801:11804   */\n      0x00\n        /* \"#utility.yul\":11822:11889   */\n      tag_484\n        /* \"#utility.yul\":11886:11888   */\n      0x12\n        /* \"#utility.yul\":11881:11884   */\n      dup4\n        /* \"#utility.yul\":11822:11889   */\n      tag_303\n      jump\t// in\n    tag_484:\n        /* \"#utility.yul\":11815:11889   */\n      swap2\n      pop\n        /* \"#utility.yul\":11898:11991   */\n      tag_485\n        /* \"#utility.yul\":11987:11990   */\n      dup3\n        /* \"#utility.yul\":11898:11991   */\n      tag_339\n      jump\t// in\n    tag_485:\n        /* \"#utility.yul\":12016:12018   */\n      0x20\n        /* \"#utility.yul\":12011:12014   */\n      dup3\n        /* \"#utility.yul\":12007:12019   */\n      add\n        /* \"#utility.yul\":12000:12019   */\n      swap1\n      pop\n        /* \"#utility.yul\":11659:12025   */\n      swap2\n      swap1\n      pop\n      jump\t// out\n        /* \"#utility.yul\":12031:12450   */\n    tag_164:\n        /* \"#utility.yul\":12197:12201   */\n      0x00\n        /* \"#utility.yul\":12235:12237   */\n      0x20\n        /* \"#utility.yul\":12224:12233   */\n      dup3\n        /* \"#utility.yul\":12220:12238   */\n      add\n        /* \"#utility.yul\":12212:12238   */\n      swap1\n      pop\n        /* \"#utility.yul\":12284:12293   */\n      dup2\n        /* \"#utility.yul\":12278:12282   */\n      dup2\n        /* \"#utility.yul\":12274:12294   */\n      sub\n        /* \"#utility.yul\":12270:12271   */\n      0x00\n        /* \"#utility.yul\":12259:12268   */\n      dup4\n        /* \"#utility.yul\":12255:12272   */\n      add\n        /* \"#utility.yul\":12248:12295   */\n      mstore\n        /* \"#utility.yul\":12312:12443   */\n      tag_487\n        /* \"#utility.yul\":12438:12442   */\n      dup2\n        /* \"#utility.yul\":12312:12443   */\n      tag_340\n      jump\t// in\n    tag_487:\n        /* \"#utility.yul\":12304:12443   */\n      swap1\n      pop\n        /* \"#utility.yul\":12031:12450   */\n      swap2\n      swap1\n      pop\n      jump\t// out\n        /* \"#utility.yul\":12456:12623   */\n    tag_341:\n        /* \"#utility.yul\":12596:12615   */\n      0x5065726d697373696f6e2064656e696564000000000000000000000000000000\n        /* \"#utility.yul\":12592:12593   */\n      0x00\n        /* \"#utility.yul\":12584:12590   */\n      dup3\n        /* \"#utility.yul\":12580:12594   */\n      add\n        /* \"#utility.yul\":12573:12616   */\n      mstore\n        /* \"#utility.yul\":12456:12623   */\n      pop\n      jump\t// out\n        /* \"#utility.yul\":12629:12995   */\n    tag_342:\n        /* \"#utility.yul\":12771:12774   */\n      0x00\n        /* \"#utility.yul\":12792:12859   */\n      tag_490\n        /* \"#utility.yul\":12856:12858   */\n      0x11\n        /* \"#utility.yul\":12851:12854   */\n      dup4\n        /* \"#utility.yul\":12792:12859   */\n      tag_303\n      jump\t// in\n    tag_490:\n        /* \"#utility.yul\":12785:12859   */\n      swap2\n      pop\n        /* \"#utility.yul\":12868:12961   */\n      tag_491\n        /* \"#utility.yul\":12957:12960   */\n      dup3\n        /* \"#utility.yul\":12868:12961   */\n      tag_341\n      jump\t// in\n    tag_491:\n        /* \"#utility.yul\":12986:12988   */\n      0x20\n        /* \"#utility.yul\":12981:12984   */\n      dup3\n        /* \"#utility.yul\":12977:12989   */\n      add\n        /* \"#utility.yul\":12970:12989   */\n      swap1\n      pop\n        /* \"#utility.yul\":12629:12995   */\n      swap2\n      swap1\n      pop\n      jump\t// out\n        /* \"#utility.yul\":13001:13420   */\n    tag_169:\n        /* \"#utility.yul\":13167:13171   */\n      0x00\n        /* \"#utility.yul\":13205:13207   */\n      0x20\n        /* \"#utility.yul\":13194:13203   */\n      dup3\n        /* \"#utility.yul\":13190:13208   */\n      add\n        /* \"#utility.yul\":13182:13208   */\n      swap1\n      pop\n        /* \"#utility.yul\":13254:13263   */\n      dup2\n        /* \"#utility.yul\":13248:13252   */\n      dup2\n        /* \"#utility.yul\":13244:13264   */\n      sub\n        /* \"#utility.yul\":13240:13241   */\n      0x00\n        /* \"#utility.yul\":13229:13238   */\n      dup4\n        /* \"#utility.yul\":13225:13242   */\n      add\n        /* \"#utility.yul\":13218:13265   */\n      mstore\n        /* \"#utility.yul\":13282:13413   */\n      tag_493\n        /* \"#utility.yul\":13408:13412   */\n      dup2\n        /* \"#utility.yul\":13282:13413   */\n      tag_342\n      jump\t// in\n    tag_493:\n        /* \"#utility.yul\":13274:13413   */\n      swap1\n      pop\n        /* \"#utility.yul\":13001:13420   */\n      swap2\n      swap1\n      pop\n      jump\t// out\n        /* \"#utility.yul\":13426:13585   */\n    tag_343:\n        /* \"#utility.yul\":13566:13577   */\n      0x4c6f776572204269640000000000000000000000000000000000000000000000\n        /* \"#utility.yul\":13562:13563   */\n      0x00\n        /* \"#utility.yul\":13554:13560   */\n      dup3\n        /* \"#utility.yul\":13550:13564   */\n      add\n        /* \"#utility.yul\":13543:13578   */\n      mstore\n        /* \"#utility.yul\":13426:13585   */\n      pop\n      jump\t// out\n        /* \"#utility.yul\":13591:13956   */\n    tag_344:\n        /* \"#utility.yul\":13733:13736   */\n      0x00\n        /* \"#utility.yul\":13754:13820   */\n      tag_496\n        /* \"#utility.yul\":13818:13819   */\n      0x09\n        /* \"#utility.yul\":13813:13816   */\n      dup4\n        /* \"#utility.yul\":13754:13820   */\n      tag_303\n      jump\t// in\n    tag_496:\n        /* \"#utility.yul\":13747:13820   */\n      swap2\n      pop\n        /* \"#utility.yul\":13829:13922   */\n      tag_497\n        /* \"#utility.yul\":13918:13921   */\n      dup3\n        /* \"#utility.yul\":13829:13922   */\n      tag_343\n      jump\t// in\n    tag_497:\n        /* \"#utility.yul\":13947:13949   */\n      0x20\n        /* \"#utility.yul\":13942:13945   */\n      dup3\n        /* \"#utility.yul\":13938:13950   */\n      add\n        /* \"#utility.yul\":13931:13950   */\n      swap1\n      pop\n        /* \"#utility.yul\":13591:13956   */\n      swap2\n      swap1\n      pop\n      jump\t// out\n        /* \"#utility.yul\":13962:14381   */\n    tag_172:\n        /* \"#utility.yul\":14128:14132   */\n      0x00\n        /* \"#utility.yul\":14166:14168   */\n      0x20\n        /* \"#utility.yul\":14155:14164   */\n      dup3\n        /* \"#utility.yul\":14151:14169   */\n      add\n        /* \"#utility.yul\":14143:14169   */\n      swap1\n      pop\n        /* \"#utility.yul\":14215:14224   */\n      dup2\n        /* \"#utility.yul\":14209:14213   */\n      dup2\n        /* \"#utility.yul\":14205:14225   */\n      sub\n        /* \"#utility.yul\":14201:14202   */\n      0x00\n        /* \"#utility.yul\":14190:14199   */\n      dup4\n        /* \"#utility.yul\":14186:14203   */\n      add\n        /* \"#utility.yul\":14179:14226   */\n      mstore\n        /* \"#utility.yul\":14243:14374   */\n      tag_499\n        /* \"#utility.yul\":14369:14373   */\n      dup2\n        /* \"#utility.yul\":14243:14374   */\n      tag_344\n      jump\t// in\n    tag_499:\n        /* \"#utility.yul\":14235:14374   */\n      swap1\n      pop\n        /* \"#utility.yul\":13962:14381   */\n      swap2\n      swap1\n      pop\n      jump\t// out\n        /* \"#utility.yul\":14387:14567   */\n    tag_345:\n        /* \"#utility.yul\":14435:14512   */\n      0x4e487b7100000000000000000000000000000000000000000000000000000000\n        /* \"#utility.yul\":14432:14433   */\n      0x00\n        /* \"#utility.yul\":14425:14513   */\n      mstore\n        /* \"#utility.yul\":14532:14536   */\n      0x12\n        /* \"#utility.yul\":14529:14530   */\n      0x04\n        /* \"#utility.yul\":14522:14537   */\n      mstore\n        /* \"#utility.yul\":14556:14560   */\n      0x24\n        /* \"#utility.yul\":14553:14554   */\n      0x00\n        /* \"#utility.yul\":14546:14561   */\n      revert\n        /* \"#utility.yul\":14573:14753   */\n    tag_346:\n        /* \"#utility.yul\":14621:14698   */\n      0x4e487b7100000000000000000000000000000000000000000000000000000000\n        /* \"#utility.yul\":14618:14619   */\n      0x00\n        /* \"#utility.yul\":14611:14699   */\n      mstore\n        /* \"#utility.yul\":14718:14722   */\n      0x11\n        /* \"#utility.yul\":14715:14716   */\n      0x04\n        /* \"#utility.yul\":14708:14723   */\n      mstore\n        /* \"#utility.yul\":14742:14746   */\n      0x24\n        /* \"#utility.yul\":14739:14740   */\n      0x00\n        /* \"#utility.yul\":14732:14747   */\n      revert\n        /* \"#utility.yul\":14759:14944   */\n    tag_174:\n        /* \"#utility.yul\":14799:14800   */\n      0x00\n        /* \"#utility.yul\":14816:14836   */\n      tag_503\n        /* \"#utility.yul\":14834:14835   */\n      dup3\n        /* \"#utility.yul\":14816:14836   */\n      tag_309\n      jump\t// in\n    tag_503:\n        /* \"#utility.yul\":14811:14836   */\n      swap2\n      pop\n        /* \"#utility.yul\":14850:14870   */\n      tag_504\n        /* \"#utility.yul\":14868:14869   */\n      dup4\n        /* \"#utility.yul\":14850:14870   */\n      tag_309\n      jump\t// in\n    tag_504:\n        /* \"#utility.yul\":14845:14870   */\n      swap3\n      pop\n        /* \"#utility.yul\":14889:14890   */\n      dup3\n        /* \"#utility.yul\":14879:14914   */\n      tag_505\n      jumpi\n        /* \"#utility.yul\":14894:14912   */\n      tag_506\n      tag_345\n      jump\t// in\n    tag_506:\n        /* \"#utility.yul\":14879:14914   */\n    tag_505:\n        /* \"#utility.yul\":14936:14937   */\n      dup3\n        /* \"#utility.yul\":14933:14934   */\n      dup3\n        /* \"#utility.yul\":14929:14938   */\n      div\n        /* \"#utility.yul\":14924:14938   */\n      swap1\n      pop\n        /* \"#utility.yul\":14759:14944   */\n      swap3\n      swap2\n      pop\n      pop\n      jump\t// out\n        /* \"#utility.yul\":14950:15360   */\n    tag_176:\n        /* \"#utility.yul\":14990:14997   */\n      0x00\n        /* \"#utility.yul\":15013:15033   */\n      tag_508\n        /* \"#utility.yul\":15031:15032   */\n      dup3\n        /* \"#utility.yul\":15013:15033   */\n      tag_309\n      jump\t// in\n    tag_508:\n        /* \"#utility.yul\":15008:15033   */\n      swap2\n      pop\n        /* \"#utility.yul\":15047:15067   */\n      tag_509\n        /* \"#utility.yul\":15065:15066   */\n      dup4\n        /* \"#utility.yul\":15047:15067   */\n      tag_309\n      jump\t// in\n    tag_509:\n        /* \"#utility.yul\":15042:15067   */\n      swap3\n      pop\n        /* \"#utility.yul\":15102:15103   */\n      dup3\n        /* \"#utility.yul\":15099:15100   */\n      dup3\n        /* \"#utility.yul\":15095:15104   */\n      mul\n        /* \"#utility.yul\":15124:15154   */\n      tag_510\n        /* \"#utility.yul\":15142:15153   */\n      dup2\n        /* \"#utility.yul\":15124:15154   */\n      tag_309\n      jump\t// in\n    tag_510:\n        /* \"#utility.yul\":15113:15154   */\n      swap2\n      pop\n        /* \"#utility.yul\":15303:15304   */\n      dup3\n        /* \"#utility.yul\":15294:15301   */\n      dup3\n        /* \"#utility.yul\":15290:15305   */\n      div\n        /* \"#utility.yul\":15287:15288   */\n      dup5\n        /* \"#utility.yul\":15284:15306   */\n      eq\n        /* \"#utility.yul\":15264:15265   */\n      dup4\n        /* \"#utility.yul\":15257:15266   */\n      iszero\n        /* \"#utility.yul\":15237:15320   */\n      or\n        /* \"#utility.yul\":15214:15353   */\n      tag_511\n      jumpi\n        /* \"#utility.yul\":15333:15351   */\n      tag_512\n      tag_346\n      jump\t// in\n    tag_512:\n        /* \"#utility.yul\":15214:15353   */\n    tag_511:\n        /* \"#utility.yul\":14998:15360   */\n      pop\n        /* \"#utility.yul\":14950:15360   */\n      swap3\n      swap2\n      pop\n      pop\n      jump\t// out\n        /* \"#utility.yul\":15366:15557   */\n    tag_178:\n        /* \"#utility.yul\":15406:15409   */\n      0x00\n        /* \"#utility.yul\":15425:15445   */\n      tag_514\n        /* \"#utility.yul\":15443:15444   */\n      dup3\n        /* \"#utility.yul\":15425:15445   */\n      tag_309\n      jump\t// in\n    tag_514:\n        /* \"#utility.yul\":15420:15445   */\n      swap2\n      pop\n        /* \"#utility.yul\":15459:15479   */\n      tag_515\n        /* \"#utility.yul\":15477:15478   */\n      dup4\n        /* \"#utility.yul\":15459:15479   */\n      tag_309\n      jump\t// in\n    tag_515:\n        /* \"#utility.yul\":15454:15479   */\n      swap3\n      pop\n        /* \"#utility.yul\":15502:15503   */\n      dup3\n        /* \"#utility.yul\":15499:15500   */\n      dup3\n        /* \"#utility.yul\":15495:15504   */\n      add\n        /* \"#utility.yul\":15488:15504   */\n      swap1\n      pop\n        /* \"#utility.yul\":15523:15526   */\n      dup1\n        /* \"#utility.yul\":15520:15521   */\n      dup3\n        /* \"#utility.yul\":15517:15527   */\n      gt\n        /* \"#utility.yul\":15514:15550   */\n      iszero\n      tag_516\n      jumpi\n        /* \"#utility.yul\":15530:15548   */\n      tag_517\n      tag_346\n      jump\t// in\n    tag_517:\n        /* \"#utility.yul\":15514:15550   */\n    tag_516:\n        /* \"#utility.yul\":15366:15557   */\n      swap3\n      swap2\n      pop\n      pop\n      jump\t// out\n        /* \"#utility.yul\":15563:15757   */\n    tag_183:\n        /* \"#utility.yul\":15603:15607   */\n      0x00\n        /* \"#utility.yul\":15623:15643   */\n      tag_519\n        /* \"#utility.yul\":15641:15642   */\n      dup3\n        /* \"#utility.yul\":15623:15643   */\n      tag_309\n      jump\t// in\n    tag_519:\n        /* \"#utility.yul\":15618:15643   */\n      swap2\n      pop\n        /* \"#utility.yul\":15657:15677   */\n      tag_520\n        /* \"#utility.yul\":15675:15676   */\n      dup4\n        /* \"#utility.yul\":15657:15677   */\n      tag_309\n      jump\t// in\n    tag_520:\n        /* \"#utility.yul\":15652:15677   */\n      swap3\n      pop\n        /* \"#utility.yul\":15701:15702   */\n      dup3\n        /* \"#utility.yul\":15698:15699   */\n      dup3\n        /* \"#utility.yul\":15694:15703   */\n      sub\n        /* \"#utility.yul\":15686:15703   */\n      swap1\n      pop\n        /* \"#utility.yul\":15725:15726   */\n      dup2\n        /* \"#utility.yul\":15719:15723   */\n      dup2\n        /* \"#utility.yul\":15716:15727   */\n      gt\n        /* \"#utility.yul\":15713:15750   */\n      iszero\n      tag_521\n      jumpi\n        /* \"#utility.yul\":15730:15748   */\n      tag_522\n      tag_346\n      jump\t// in\n    tag_522:\n        /* \"#utility.yul\":15713:15750   */\n    tag_521:\n        /* \"#utility.yul\":15563:15757   */\n      swap3\n      swap2\n      pop\n      pop\n      jump\t// out\n        /* \"#utility.yul\":15763:15922   */\n    tag_347:\n        /* \"#utility.yul\":15903:15914   */\n      0x4e6f7420456e6465640000000000000000000000000000000000000000000000\n        /* \"#utility.yul\":15899:15900   */\n      0x00\n        /* \"#utility.yul\":15891:15897   */\n      dup3\n        /* \"#utility.yul\":15887:15901   */\n      add\n        /* \"#utility.yul\":15880:15915   */\n      mstore\n        /* \"#utility.yul\":15763:15922   */\n      pop\n      jump\t// out\n        /* \"#utility.yul\":15928:16293   */\n    tag_348:\n        /* \"#utility.yul\":16070:16073   */\n      0x00\n        /* \"#utility.yul\":16091:16157   */\n      tag_525\n        /* \"#utility.yul\":16155:16156   */\n      0x09\n        /* \"#utility.yul\":16150:16153   */\n      dup4\n        /* \"#utility.yul\":16091:16157   */\n      tag_303\n      jump\t// in\n    tag_525:\n        /* \"#utility.yul\":16084:16157   */\n      swap2\n      pop\n        /* \"#utility.yul\":16166:16259   */\n      tag_526\n        /* \"#utility.yul\":16255:16258   */\n      dup3\n        /* \"#utility.yul\":16166:16259   */\n      tag_347\n      jump\t// in\n    tag_526:\n        /* \"#utility.yul\":16284:16286   */\n      0x20\n        /* \"#utility.yul\":16279:16282   */\n      dup3\n        /* \"#utility.yul\":16275:16287   */\n      add\n        /* \"#utility.yul\":16268:16287   */\n      swap1\n      pop\n        /* \"#utility.yul\":15928:16293   */\n      swap2\n      swap1\n      pop\n      jump\t// out\n        /* \"#utility.yul\":16299:16718   */\n    tag_196:\n        /* \"#utility.yul\":16465:16469   */\n      0x00\n        /* \"#utility.yul\":16503:16505   */\n      0x20\n        /* \"#utility.yul\":16492:16501   */\n      dup3\n        /* \"#utility.yul\":16488:16506   */\n      add\n        /* \"#utility.yul\":16480:16506   */\n      swap1\n      pop\n        /* \"#utility.yul\":16552:16561   */\n      dup2\n        /* \"#utility.yul\":16546:16550   */\n      dup2\n        /* \"#utility.yul\":16542:16562   */\n      sub\n        /* \"#utility.yul\":16538:16539   */\n      0x00\n        /* \"#utility.yul\":16527:16536   */\n      dup4\n        /* \"#utility.yul\":16523:16540   */\n      add\n        /* \"#utility.yul\":16516:16563   */\n      mstore\n        /* \"#utility.yul\":16580:16711   */\n      tag_528\n        /* \"#utility.yul\":16706:16710   */\n      dup2\n        /* \"#utility.yul\":16580:16711   */\n      tag_348\n      jump\t// in\n    tag_528:\n        /* \"#utility.yul\":16572:16711   */\n      swap1\n      pop\n        /* \"#utility.yul\":16299:16718   */\n      swap2\n      swap1\n      pop\n      jump\t// out\n        /* \"#utility.yul\":16724:17166   */\n    tag_199:\n        /* \"#utility.yul\":16873:16877   */\n      0x00\n        /* \"#utility.yul\":16911:16913   */\n      0x60\n        /* \"#utility.yul\":16900:16909   */\n      dup3\n        /* \"#utility.yul\":16896:16914   */\n      add\n        /* \"#utility.yul\":16888:16914   */\n      swap1\n      pop\n        /* \"#utility.yul\":16924:16995   */\n      tag_530\n        /* \"#utility.yul\":16992:16993   */\n      0x00\n        /* \"#utility.yul\":16981:16990   */\n      dup4\n        /* \"#utility.yul\":16977:16994   */\n      add\n        /* \"#utility.yul\":16968:16974   */\n      dup7\n        /* \"#utility.yul\":16924:16995   */\n      tag_314\n      jump\t// in\n    tag_530:\n        /* \"#utility.yul\":17005:17077   */\n      tag_531\n        /* \"#utility.yul\":17073:17075   */\n      0x20\n        /* \"#utility.yul\":17062:17071   */\n      dup4\n        /* \"#utility.yul\":17058:17076   */\n      add\n        /* \"#utility.yul\":17049:17055   */\n      dup6\n        /* \"#utility.yul\":17005:17077   */\n      tag_314\n      jump\t// in\n    tag_531:\n        /* \"#utility.yul\":17087:17159   */\n      tag_532\n        /* \"#utility.yul\":17155:17157   */\n      0x40\n        /* \"#utility.yul\":17144:17153   */\n      dup4\n        /* \"#utility.yul\":17140:17158   */\n      add\n        /* \"#utility.yul\":17131:17137   */\n      dup5\n        /* \"#utility.yul\":17087:17159   */\n      tag_310\n      jump\t// in\n    tag_532:\n        /* \"#utility.yul\":16724:17166   */\n      swap5\n      swap4\n      pop\n      pop\n      pop\n      pop\n      jump\t// out\n        /* \"#utility.yul\":17172:17319   */\n    tag_349:\n        /* \"#utility.yul\":17273:17284   */\n      0x00\n        /* \"#utility.yul\":17310:17313   */\n      dup2\n        /* \"#utility.yul\":17295:17313   */\n      swap1\n      pop\n        /* \"#utility.yul\":17172:17319   */\n      swap3\n      swap2\n      pop\n      pop\n      jump\t// out\n        /* \"#utility.yul\":17325:17439   */\n    tag_350:\n      pop\n      jump\t// out\n        /* \"#utility.yul\":17445:17843   */\n    tag_351:\n        /* \"#utility.yul\":17604:17607   */\n      0x00\n        /* \"#utility.yul\":17625:17708   */\n      tag_536\n        /* \"#utility.yul\":17706:17707   */\n      0x00\n        /* \"#utility.yul\":17701:17704   */\n      dup4\n        /* \"#utility.yul\":17625:17708   */\n      tag_349\n      jump\t// in\n    tag_536:\n        /* \"#utility.yul\":17618:17708   */\n      swap2\n      pop\n        /* \"#utility.yul\":17717:17810   */\n      tag_537\n        /* \"#utility.yul\":17806:17809   */\n      dup3\n        /* \"#utility.yul\":17717:17810   */\n      tag_350\n      jump\t// in\n    tag_537:\n        /* \"#utility.yul\":17835:17836   */\n      0x00\n        /* \"#utility.yul\":17830:17833   */\n      dup3\n        /* \"#utility.yul\":17826:17837   */\n      add\n        /* \"#utility.yul\":17819:17837   */\n      swap1\n      pop\n        /* \"#utility.yul\":17445:17843   */\n      swap2\n      swap1\n      pop\n      jump\t// out\n        /* \"#utility.yul\":17849:18228   */\n    tag_204:\n        /* \"#utility.yul\":18033:18036   */\n      0x00\n        /* \"#utility.yul\":18055:18202   */\n      tag_539\n        /* \"#utility.yul\":18198:18201   */\n      dup3\n        /* \"#utility.yul\":18055:18202   */\n      tag_351\n      jump\t// in\n    tag_539:\n        /* \"#utility.yul\":18048:18202   */\n      swap2\n      pop\n        /* \"#utility.yul\":18219:18222   */\n      dup2\n        /* \"#utility.yul\":18212:18222   */\n      swap1\n      pop\n        /* \"#utility.yul\":17849:18228   */\n      swap2\n      swap1\n      pop\n      jump\t// out\n        /* \"#utility.yul\":18234:18407   */\n    tag_352:\n        /* \"#utility.yul\":18374:18399   */\n      0x52657475726e206665652066756e6473206661696c6564000000000000000000\n        /* \"#utility.yul\":18370:18371   */\n      0x00\n        /* \"#utility.yul\":18362:18368   */\n      dup3\n        /* \"#utility.yul\":18358:18372   */\n      add\n        /* \"#utility.yul\":18351:18400   */\n      mstore\n        /* \"#utility.yul\":18234:18407   */\n      pop\n      jump\t// out\n        /* \"#utility.yul\":18413:18779   */\n    tag_353:\n        /* \"#utility.yul\":18555:18558   */\n      0x00\n        /* \"#utility.yul\":18576:18643   */\n      tag_542\n        /* \"#utility.yul\":18640:18642   */\n      0x17\n        /* \"#utility.yul\":18635:18638   */\n      dup4\n        /* \"#utility.yul\":18576:18643   */\n      tag_303\n      jump\t// in\n    tag_542:\n        /* \"#utility.yul\":18569:18643   */\n      swap2\n      pop\n        /* \"#utility.yul\":18652:18745   */\n      tag_543\n        /* \"#utility.yul\":18741:18744   */\n      dup3\n        /* \"#utility.yul\":18652:18745   */\n      tag_352\n      jump\t// in\n    tag_543:\n        /* \"#utility.yul\":18770:18772   */\n      0x20\n        /* \"#utility.yul\":18765:18768   */\n      dup3\n        /* \"#utility.yul\":18761:18773   */\n      add\n        /* \"#utility.yul\":18754:18773   */\n      swap1\n      pop\n        /* \"#utility.yul\":18413:18779   */\n      swap2\n      swap1\n      pop\n      jump\t// out\n        /* \"#utility.yul\":18785:19204   */\n    tag_210:\n        /* \"#utility.yul\":18951:18955   */\n      0x00\n        /* \"#utility.yul\":18989:18991   */\n      0x20\n        /* \"#utility.yul\":18978:18987   */\n      dup3\n        /* \"#utility.yul\":18974:18992   */\n      add\n        /* \"#utility.yul\":18966:18992   */\n      swap1\n      pop\n        /* \"#utility.yul\":19038:19047   */\n      dup2\n        /* \"#utility.yul\":19032:19036   */\n      dup2\n        /* \"#utility.yul\":19028:19048   */\n      sub\n        /* \"#utility.yul\":19024:19025   */\n      0x00\n        /* \"#utility.yul\":19013:19022   */\n      dup4\n        /* \"#utility.yul\":19009:19026   */\n      add\n        /* \"#utility.yul\":19002:19049   */\n      mstore\n        /* \"#utility.yul\":19066:19197   */\n      tag_545\n        /* \"#utility.yul\":19192:19196   */\n      dup2\n        /* \"#utility.yul\":19066:19197   */\n      tag_353\n      jump\t// in\n    tag_545:\n        /* \"#utility.yul\":19058:19197   */\n      swap1\n      pop\n        /* \"#utility.yul\":18785:19204   */\n      swap2\n      swap1\n      pop\n      jump\t// out\n        /* \"#utility.yul\":19210:19379   */\n    tag_354:\n        /* \"#utility.yul\":19350:19371   */\n      0x52657475726e2066756e6473206661696c656400000000000000000000000000\n        /* \"#utility.yul\":19346:19347   */\n      0x00\n        /* \"#utility.yul\":19338:19344   */\n      dup3\n        /* \"#utility.yul\":19334:19348   */\n      add\n        /* \"#utility.yul\":19327:19372   */\n      mstore\n        /* \"#utility.yul\":19210:19379   */\n      pop\n      jump\t// out\n        /* \"#utility.yul\":19385:19751   */\n    tag_355:\n        /* \"#utility.yul\":19527:19530   */\n      0x00\n        /* \"#utility.yul\":19548:19615   */\n      tag_548\n        /* \"#utility.yul\":19612:19614   */\n      0x13\n        /* \"#utility.yul\":19607:19610   */\n      dup4\n        /* \"#utility.yul\":19548:19615   */\n      tag_303\n      jump\t// in\n    tag_548:\n        /* \"#utility.yul\":19541:19615   */\n      swap2\n      pop\n        /* \"#utility.yul\":19624:19717   */\n      tag_549\n        /* \"#utility.yul\":19713:19716   */\n      dup3\n        /* \"#utility.yul\":19624:19717   */\n      tag_354\n      jump\t// in\n    tag_549:\n        /* \"#utility.yul\":19742:19744   */\n      0x20\n        /* \"#utility.yul\":19737:19740   */\n      dup3\n        /* \"#utility.yul\":19733:19745   */\n      add\n        /* \"#utility.yul\":19726:19745   */\n      swap1\n      pop\n        /* \"#utility.yul\":19385:19751   */\n      swap2\n      swap1\n      pop\n      jump\t// out\n        /* \"#utility.yul\":19757:20176   */\n    tag_218:\n        /* \"#utility.yul\":19923:19927   */\n      0x00\n        /* \"#utility.yul\":19961:19963   */\n      0x20\n        /* \"#utility.yul\":19950:19959   */\n      dup3\n        /* \"#utility.yul\":19946:19964   */\n      add\n        /* \"#utility.yul\":19938:19964   */\n      swap1\n      pop\n        /* \"#utility.yul\":20010:20019   */\n      dup2\n        /* \"#utility.yul\":20004:20008   */\n      dup2\n        /* \"#utility.yul\":20000:20020   */\n      sub\n        /* \"#utility.yul\":19996:19997   */\n      0x00\n        /* \"#utility.yul\":19985:19994   */\n      dup4\n        /* \"#utility.yul\":19981:19998   */\n      add\n        /* \"#utility.yul\":19974:20021   */\n      mstore\n        /* \"#utility.yul\":20038:20169   */\n      tag_551\n        /* \"#utility.yul\":20164:20168   */\n      dup2\n        /* \"#utility.yul\":20038:20169   */\n      tag_355\n      jump\t// in\n    tag_551:\n        /* \"#utility.yul\":20030:20169   */\n      swap1\n      pop\n        /* \"#utility.yul\":19757:20176   */\n      swap2\n      swap1\n      pop\n      jump\t// out\n        /* \"#utility.yul\":20182:20316   */\n    tag_356:\n        /* \"#utility.yul\":20240:20249   */\n      0x00\n        /* \"#utility.yul\":20273:20310   */\n      tag_553\n        /* \"#utility.yul\":20304:20309   */\n      dup3\n        /* \"#utility.yul\":20273:20310   */\n      tag_322\n      jump\t// in\n    tag_553:\n        /* \"#utility.yul\":20260:20310   */\n      swap1\n      pop\n        /* \"#utility.yul\":20182:20316   */\n      swap2\n      swap1\n      pop\n      jump\t// out\n        /* \"#utility.yul\":20322:20469   */\n    tag_357:\n        /* \"#utility.yul\":20417:20462   */\n      tag_555\n        /* \"#utility.yul\":20456:20461   */\n      dup2\n        /* \"#utility.yul\":20417:20462   */\n      tag_356\n      jump\t// in\n    tag_555:\n        /* \"#utility.yul\":20412:20415   */\n      dup3\n        /* \"#utility.yul\":20405:20463   */\n      mstore\n        /* \"#utility.yul\":20322:20469   */\n      pop\n      pop\n      jump\t// out\n        /* \"#utility.yul\":20475:20933   */\n    tag_222:\n        /* \"#utility.yul\":20632:20636   */\n      0x00\n        /* \"#utility.yul\":20670:20672   */\n      0x60\n        /* \"#utility.yul\":20659:20668   */\n      dup3\n        /* \"#utility.yul\":20655:20673   */\n      add\n        /* \"#utility.yul\":20647:20673   */\n      swap1\n      pop\n        /* \"#utility.yul\":20683:20754   */\n      tag_557\n        /* \"#utility.yul\":20751:20752   */\n      0x00\n        /* \"#utility.yul\":20740:20749   */\n      dup4\n        /* \"#utility.yul\":20736:20753   */\n      add\n        /* \"#utility.yul\":20727:20733   */\n      dup7\n        /* \"#utility.yul\":20683:20754   */\n      tag_314\n      jump\t// in\n    tag_557:\n        /* \"#utility.yul\":20764:20844   */\n      tag_558\n        /* \"#utility.yul\":20840:20842   */\n      0x20\n        /* \"#utility.yul\":20829:20838   */\n      dup4\n        /* \"#utility.yul\":20825:20843   */\n      add\n        /* \"#utility.yul\":20816:20822   */\n      dup6\n        /* \"#utility.yul\":20764:20844   */\n      tag_357\n      jump\t// in\n    tag_558:\n        /* \"#utility.yul\":20854:20926   */\n      tag_559\n        /* \"#utility.yul\":20922:20924   */\n      0x40\n        /* \"#utility.yul\":20911:20920   */\n      dup4\n        /* \"#utility.yul\":20907:20925   */\n      add\n        /* \"#utility.yul\":20898:20904   */\n      dup5\n        /* \"#utility.yul\":20854:20926   */\n      tag_310\n      jump\t// in\n    tag_559:\n        /* \"#utility.yul\":20475:20933   */\n      swap5\n      swap4\n      pop\n      pop\n      pop\n      pop\n      jump\t// out\n        /* \"#utility.yul\":20939:21104   */\n    tag_358:\n        /* \"#utility.yul\":21079:21096   */\n      0x416c726561647920537461727465640000000000000000000000000000000000\n        /* \"#utility.yul\":21075:21076   */\n      0x00\n        /* \"#utility.yul\":21067:21073   */\n      dup3\n        /* \"#utility.yul\":21063:21077   */\n      add\n        /* \"#utility.yul\":21056:21097   */\n      mstore\n        /* \"#utility.yul\":20939:21104   */\n      pop\n      jump\t// out\n        /* \"#utility.yul\":21110:21476   */\n    tag_359:\n        /* \"#utility.yul\":21252:21255   */\n      0x00\n        /* \"#utility.yul\":21273:21340   */\n      tag_562\n        /* \"#utility.yul\":21337:21339   */\n      0x0f\n        /* \"#utility.yul\":21332:21335   */\n      dup4\n        /* \"#utility.yul\":21273:21340   */\n      tag_303\n      jump\t// in\n    tag_562:\n        /* \"#utility.yul\":21266:21340   */\n      swap2\n      pop\n        /* \"#utility.yul\":21349:21442   */\n      tag_563\n        /* \"#utility.yul\":21438:21441   */\n      dup3\n        /* \"#utility.yul\":21349:21442   */\n      tag_358\n      jump\t// in\n    tag_563:\n        /* \"#utility.yul\":21467:21469   */\n      0x20\n        /* \"#utility.yul\":21462:21465   */\n      dup3\n        /* \"#utility.yul\":21458:21470   */\n      add\n        /* \"#utility.yul\":21451:21470   */\n      swap1\n      pop\n        /* \"#utility.yul\":21110:21476   */\n      swap2\n      swap1\n      pop\n      jump\t// out\n        /* \"#utility.yul\":21482:21901   */\n    tag_251:\n        /* \"#utility.yul\":21648:21652   */\n      0x00\n        /* \"#utility.yul\":21686:21688   */\n      0x20\n        /* \"#utility.yul\":21675:21684   */\n      dup3\n        /* \"#utility.yul\":21671:21689   */\n      add\n        /* \"#utility.yul\":21663:21689   */\n      swap1\n      pop\n        /* \"#utility.yul\":21735:21744   */\n      dup2\n        /* \"#utility.yul\":21729:21733   */\n      dup2\n        /* \"#utility.yul\":21725:21745   */\n      sub\n        /* \"#utility.yul\":21721:21722   */\n      0x00\n        /* \"#utility.yul\":21710:21719   */\n      dup4\n        /* \"#utility.yul\":21706:21723   */\n      add\n        /* \"#utility.yul\":21699:21746   */\n      mstore\n        /* \"#utility.yul\":21763:21894   */\n      tag_565\n        /* \"#utility.yul\":21889:21893   */\n      dup2\n        /* \"#utility.yul\":21763:21894   */\n      tag_359\n      jump\t// in\n    tag_565:\n        /* \"#utility.yul\":21755:21894   */\n      swap1\n      pop\n        /* \"#utility.yul\":21482:21901   */\n      swap2\n      swap1\n      pop\n      jump\t// out\n        /* \"#utility.yul\":21907:22071   */\n    tag_360:\n        /* \"#utility.yul\":22047:22063   */\n      0x416c726561647920506175736564000000000000000000000000000000000000\n        /* \"#utility.yul\":22043:22044   */\n      0x00\n        /* \"#utility.yul\":22035:22041   */\n      dup3\n        /* \"#utility.yul\":22031:22045   */\n      add\n        /* \"#utility.yul\":22024:22064   */\n      mstore\n        /* \"#utility.yul\":21907:22071   */\n      pop\n      jump\t// out\n        /* \"#utility.yul\":22077:22443   */\n    tag_361:\n        /* \"#utility.yul\":22219:22222   */\n      0x00\n        /* \"#utility.yul\":22240:22307   */\n      tag_568\n        /* \"#utility.yul\":22304:22306   */\n      0x0e\n        /* \"#utility.yul\":22299:22302   */\n      dup4\n        /* \"#utility.yul\":22240:22307   */\n      tag_303\n      jump\t// in\n    tag_568:\n        /* \"#utility.yul\":22233:22307   */\n      swap2\n      pop\n        /* \"#utility.yul\":22316:22409   */\n      tag_569\n        /* \"#utility.yul\":22405:22408   */\n      dup3\n        /* \"#utility.yul\":22316:22409   */\n      tag_360\n      jump\t// in\n    tag_569:\n        /* \"#utility.yul\":22434:22436   */\n      0x20\n        /* \"#utility.yul\":22429:22432   */\n      dup3\n        /* \"#utility.yul\":22425:22437   */\n      add\n        /* \"#utility.yul\":22418:22437   */\n      swap1\n      pop\n        /* \"#utility.yul\":22077:22443   */\n      swap2\n      swap1\n      pop\n      jump\t// out\n        /* \"#utility.yul\":22449:22868   */\n    tag_262:\n        /* \"#utility.yul\":22615:22619   */\n      0x00\n        /* \"#utility.yul\":22653:22655   */\n      0x20\n        /* \"#utility.yul\":22642:22651   */\n      dup3\n        /* \"#utility.yul\":22638:22656   */\n      add\n        /* \"#utility.yul\":22630:22656   */\n      swap1\n      pop\n        /* \"#utility.yul\":22702:22711   */\n      dup2\n        /* \"#utility.yul\":22696:22700   */\n      dup2\n        /* \"#utility.yul\":22692:22712   */\n      sub\n        /* \"#utility.yul\":22688:22689   */\n      0x00\n        /* \"#utility.yul\":22677:22686   */\n      dup4\n        /* \"#utility.yul\":22673:22690   */\n      add\n        /* \"#utility.yul\":22666:22713   */\n      mstore\n        /* \"#utility.yul\":22730:22861   */\n      tag_571\n        /* \"#utility.yul\":22856:22860   */\n      dup2\n        /* \"#utility.yul\":22730:22861   */\n      tag_361\n      jump\t// in\n    tag_571:\n        /* \"#utility.yul\":22722:22861   */\n      swap1\n      pop\n        /* \"#utility.yul\":22449:22868   */\n      swap2\n      swap1\n      pop\n      jump\t// out\n        /* \"#utility.yul\":22874:23039   */\n    tag_362:\n        /* \"#utility.yul\":23014:23031   */\n      0x416c72656164792052756e6e696e670000000000000000000000000000000000\n        /* \"#utility.yul\":23010:23011   */\n      0x00\n        /* \"#utility.yul\":23002:23008   */\n      dup3\n        /* \"#utility.yul\":22998:23012   */\n      add\n        /* \"#utility.yul\":22991:23032   */\n      mstore\n        /* \"#utility.yul\":22874:23039   */\n      pop\n      jump\t// out\n        /* \"#utility.yul\":23045:23411   */\n    tag_363:\n        /* \"#utility.yul\":23187:23190   */\n      0x00\n        /* \"#utility.yul\":23208:23275   */\n      tag_574\n        /* \"#utility.yul\":23272:23274   */\n      0x0f\n        /* \"#utility.yul\":23267:23270   */\n      dup4\n        /* \"#utility.yul\":23208:23275   */\n      tag_303\n      jump\t// in\n    tag_574:\n        /* \"#utility.yul\":23201:23275   */\n      swap2\n      pop\n        /* \"#utility.yul\":23284:23377   */\n      tag_575\n        /* \"#utility.yul\":23373:23376   */\n      dup3\n        /* \"#utility.yul\":23284:23377   */\n      tag_362\n      jump\t// in\n    tag_575:\n        /* \"#utility.yul\":23402:23404   */\n      0x20\n        /* \"#utility.yul\":23397:23400   */\n      dup3\n        /* \"#utility.yul\":23393:23405   */\n      add\n        /* \"#utility.yul\":23386:23405   */\n      swap1\n      pop\n        /* \"#utility.yul\":23045:23411   */\n      swap2\n      swap1\n      pop\n      jump\t// out\n        /* \"#utility.yul\":23417:23836   */\n    tag_272:\n        /* \"#utility.yul\":23583:23587   */\n      0x00\n        /* \"#utility.yul\":23621:23623   */\n      0x20\n        /* \"#utility.yul\":23610:23619   */\n      dup3\n        /* \"#utility.yul\":23606:23624   */\n      add\n        /* \"#utility.yul\":23598:23624   */\n      swap1\n      pop\n        /* \"#utility.yul\":23670:23679   */\n      dup2\n        /* \"#utility.yul\":23664:23668   */\n      dup2\n        /* \"#utility.yul\":23660:23680   */\n      sub\n        /* \"#utility.yul\":23656:23657   */\n      0x00\n        /* \"#utility.yul\":23645:23654   */\n      dup4\n        /* \"#utility.yul\":23641:23658   */\n      add\n        /* \"#utility.yul\":23634:23681   */\n      mstore\n        /* \"#utility.yul\":23698:23829   */\n      tag_577\n        /* \"#utility.yul\":23824:23828   */\n      dup2\n        /* \"#utility.yul\":23698:23829   */\n      tag_363\n      jump\t// in\n    tag_577:\n        /* \"#utility.yul\":23690:23829   */\n      swap1\n      pop\n        /* \"#utility.yul\":23417:23836   */\n      swap2\n      swap1\n      pop\n      jump\t// out\n        /* \"#utility.yul\":23842:24022   */\n    tag_364:\n        /* \"#utility.yul\":23890:23967   */\n      0x4e487b7100000000000000000000000000000000000000000000000000000000\n        /* \"#utility.yul\":23887:23888   */\n      0x00\n        /* \"#utility.yul\":23880:23968   */\n      mstore\n        /* \"#utility.yul\":23987:23991   */\n      0x22\n        /* \"#utility.yul\":23984:23985   */\n      0x04\n        /* \"#utility.yul\":23977:23992   */\n      mstore\n        /* \"#utility.yul\":24011:24015   */\n      0x24\n        /* \"#utility.yul\":24008:24009   */\n      0x00\n        /* \"#utility.yul\":24001:24016   */\n      revert\n        /* \"#utility.yul\":24028:24348   */\n    tag_275:\n        /* \"#utility.yul\":24072:24078   */\n      0x00\n        /* \"#utility.yul\":24109:24110   */\n      0x02\n        /* \"#utility.yul\":24103:24107   */\n      dup3\n        /* \"#utility.yul\":24099:24111   */\n      div\n        /* \"#utility.yul\":24089:24111   */\n      swap1\n      pop\n        /* \"#utility.yul\":24156:24157   */\n      0x01\n        /* \"#utility.yul\":24150:24154   */\n      dup3\n        /* \"#utility.yul\":24146:24158   */\n      and\n        /* \"#utility.yul\":24177:24195   */\n      dup1\n        /* \"#utility.yul\":24167:24248   */\n      tag_580\n      jumpi\n        /* \"#utility.yul\":24233:24237   */\n      0x7f\n        /* \"#utility.yul\":24225:24231   */\n      dup3\n        /* \"#utility.yul\":24221:24238   */\n      and\n        /* \"#utility.yul\":24211:24238   */\n      swap2\n      pop\n        /* \"#utility.yul\":24167:24248   */\n    tag_580:\n        /* \"#utility.yul\":24295:24297   */\n      0x20\n        /* \"#utility.yul\":24287:24293   */\n      dup3\n        /* \"#utility.yul\":24284:24298   */\n      lt\n        /* \"#utility.yul\":24264:24282   */\n      dup2\n        /* \"#utility.yul\":24261:24299   */\n      sub\n        /* \"#utility.yul\":24258:24342   */\n      tag_581\n      jumpi\n        /* \"#utility.yul\":24314:24332   */\n      tag_582\n      tag_364\n      jump\t// in\n    tag_582:\n        /* \"#utility.yul\":24258:24342   */\n    tag_581:\n        /* \"#utility.yul\":24079:24348   */\n      pop\n        /* \"#utility.yul\":24028:24348   */\n      swap2\n      swap1\n      pop\n      jump\t// out\n        /* \"#utility.yul\":24354:24517   */\n    tag_365:\n        /* \"#utility.yul\":24494:24509   */\n      0x416c726561647920456e64656400000000000000000000000000000000000000\n        /* \"#utility.yul\":24490:24491   */\n      0x00\n        /* \"#utility.yul\":24482:24488   */\n      dup3\n        /* \"#utility.yul\":24478:24492   */\n      add\n        /* \"#utility.yul\":24471:24510   */\n      mstore\n        /* \"#utility.yul\":24354:24517   */\n      pop\n      jump\t// out\n        /* \"#utility.yul\":24523:24889   */\n    tag_366:\n        /* \"#utility.yul\":24665:24668   */\n      0x00\n        /* \"#utility.yul\":24686:24753   */\n      tag_585\n        /* \"#utility.yul\":24750:24752   */\n      0x0d\n        /* \"#utility.yul\":24745:24748   */\n      dup4\n        /* \"#utility.yul\":24686:24753   */\n      tag_303\n      jump\t// in\n    tag_585:\n        /* \"#utility.yul\":24679:24753   */\n      swap2\n      pop\n        /* \"#utility.yul\":24762:24855   */\n      tag_586\n        /* \"#utility.yul\":24851:24854   */\n      dup3\n        /* \"#utility.yul\":24762:24855   */\n      tag_365\n      jump\t// in\n    tag_586:\n        /* \"#utility.yul\":24880:24882   */\n      0x20\n        /* \"#utility.yul\":24875:24878   */\n      dup3\n        /* \"#utility.yul\":24871:24883   */\n      add\n        /* \"#utility.yul\":24864:24883   */\n      swap1\n      pop\n        /* \"#utility.yul\":24523:24889   */\n      swap2\n      swap1\n      pop\n      jump\t// out\n        /* \"#utility.yul\":24895:25314   */\n    tag_291:\n        /* \"#utility.yul\":25061:25065   */\n      0x00\n        /* \"#utility.yul\":25099:25101   */\n      0x20\n        /* \"#utility.yul\":25088:25097   */\n      dup3\n        /* \"#utility.yul\":25084:25102   */\n      add\n        /* \"#utility.yul\":25076:25102   */\n      swap1\n      pop\n        /* \"#utility.yul\":25148:25157   */\n      dup2\n        /* \"#utility.yul\":25142:25146   */\n      dup2\n        /* \"#utility.yul\":25138:25158   */\n      sub\n        /* \"#utility.yul\":25134:25135   */\n      0x00\n        /* \"#utility.yul\":25123:25132   */\n      dup4\n        /* \"#utility.yul\":25119:25136   */\n      add\n        /* \"#utility.yul\":25112:25159   */\n      mstore\n        /* \"#utility.yul\":25176:25307   */\n      tag_588\n        /* \"#utility.yul\":25302:25306   */\n      dup2\n        /* \"#utility.yul\":25176:25307   */\n      tag_366\n      jump\t// in\n    tag_588:\n        /* \"#utility.yul\":25168:25307   */\n      swap1\n      pop\n        /* \"#utility.yul\":24895:25314   */\n      swap2\n      swap1\n      pop\n      jump\t// out\n        /* \"#utility.yul\":25320:25652   */\n    tag_293:\n        /* \"#utility.yul\":25441:25445   */\n      0x00\n        /* \"#utility.yul\":25479:25481   */\n      0x40\n        /* \"#utility.yul\":25468:25477   */\n      dup3\n        /* \"#utility.yul\":25464:25482   */\n      add\n        /* \"#utility.yul\":25456:25482   */\n      swap1\n      pop\n        /* \"#utility.yul\":25492:25563   */\n      tag_590\n        /* \"#utility.yul\":25560:25561   */\n      0x00\n        /* \"#utility.yul\":25549:25558   */\n      dup4\n        /* \"#utility.yul\":25545:25562   */\n      add\n        /* \"#utility.yul\":25536:25542   */\n      dup6\n        /* \"#utility.yul\":25492:25563   */\n      tag_314\n      jump\t// in\n    tag_590:\n        /* \"#utility.yul\":25573:25645   */\n      tag_591\n        /* \"#utility.yul\":25641:25643   */\n      0x20\n        /* \"#utility.yul\":25630:25639   */\n      dup4\n        /* \"#utility.yul\":25626:25644   */\n      add\n        /* \"#utility.yul\":25617:25623   */\n      dup5\n        /* \"#utility.yul\":25573:25645   */\n      tag_310\n      jump\t// in\n    tag_591:\n        /* \"#utility.yul\":25320:25652   */\n      swap4\n      swap3\n      pop\n      pop\n      pop\n      jump\t// out\n\n    auxdata: 0xa2646970667358221220490526a6ea8b9094c344b4a4133b67c806d7fb4deaf4213fa3154a693fba750b64736f6c63430008110033\n}\n",
				"bytecode": {
					"linkReferences": {},
					"object": "60806040523480156200001157600080fd5b50604051620031d0380380620031d08339818101604052810190620000379190620003eb565b876000806101000a81548173ffffffffffffffffffffffffffffffffffffffff021916908373ffffffffffffffffffffffffffffffffffffffff1602179055508360018190555033600260006101000a81548173ffffffffffffffffffffffffffffffffffffffff021916908373ffffffffffffffffffffffffffffffffffffffff16021790555084600360006101000a81548173ffffffffffffffffffffffffffffffffffffffff021916908373ffffffffffffffffffffffffffffffffffffffff16021790555082600c81905550816006819055508060098190555060058054620001249062000502565b80601f0160208091040260200160405190810160405280929190818152602001828054620001529062000502565b8015620001a35780601f106200017757610100808354040283529160200191620001a3565b820191906000526020600020905b8154815290600101906020018083116200018557829003601f168201915b50505050509550505050505050505062000537565b6000604051905090565b600080fd5b600080fd5b600073ffffffffffffffffffffffffffffffffffffffff82169050919050565b6000620001f982620001cc565b9050919050565b6200020b81620001ec565b81146200021757600080fd5b50565b6000815190506200022b8162000200565b92915050565b600080fd5b600080fd5b6000601f19601f8301169050919050565b7f4e487b7100000000000000000000000000000000000000000000000000000000600052604160045260246000fd5b62000286826200023b565b810181811067ffffffffffffffff82111715620002a857620002a76200024c565b5b80604052505050565b6000620002bd620001b8565b9050620002cb82826200027b565b919050565b600067ffffffffffffffff821115620002ee57620002ed6200024c565b5b620002f9826200023b565b9050602081019050919050565b60005b838110156200032657808201518184015260208101905062000309565b60008484015250505050565b6000620003496200034384620002d0565b620002b1565b90508281526020810184848401111562000368576200036762000236565b5b6200037584828562000306565b509392505050565b600082601f83011262000395576200039462000231565b5b8151620003a784826020860162000332565b91505092915050565b6000819050919050565b620003c581620003b0565b8114620003d157600080fd5b50565b600081519050620003e581620003ba565b92915050565b600080600080600080600080610100898b0312156200040f576200040e620001c2565b5b60006200041f8b828c016200021a565b9850506020620004328b828c016200021a565b975050604089015167ffffffffffffffff811115620004565762000455620001c7565b5b620004648b828c016200037d565b9650506060620004778b828c016200021a565b95505060806200048a8b828c01620003d4565b94505060a06200049d8b828c01620003d4565b93505060c0620004b08b828c01620003d4565b92505060e0620004c38b828c01620003d4565b9150509295985092959890939650565b7f4e487b7100000000000000000000000000000000000000000000000000000000600052602260045260246000fd5b600060028204905060018216806200051b57607f821691505b602082108103620005315762000530620004d3565b5b50919050565b612c8980620005476000396000f3fe60806040526004361061016a5760003560e01c80635c975abb116100d1578063c683630d1161008a578063d57bde7911610064578063d57bde79146105e1578063d6b4675b1461060c578063ecefc70514610637578063fe67a54b1461066257610201565b8063c683630d14610562578063c6bc51821461059f578063ceb16419146105ca57610201565b80635c975abb146104725780636b64c7691461049d5780637cc3ae8c146104b457806391f90157146104df57806395ecc5cc1461050a578063b9ae73641461054b57610201565b80631f2698ab116101235780631f2698ab146103955780632aeee493146103c0578063378252f2146103dc57806341275358146103f357806347ccca021461041e57806353d6fd591461044957610201565b806308551a531461029357806312065fe0146102be57806312fa6feb146102e957806317d531fc146103145780631cf5e6691461033f5780631df4ccfc1461036a57610201565b3661020157600260009054906101000a900473ffffffffffffffffffffffffffffffffffffffff1673ffffffffffffffffffffffffffffffffffffffff163373ffffffffffffffffffffffffffffffffffffffff16146101ff576040517f08c379a00000000000000000000000000000000000000000000000000000000081526004016101f690612053565b60405180910390fd5b005b600260009054906101000a900473ffffffffffffffffffffffffffffffffffffffff1673ffffffffffffffffffffffffffffffffffffffff163373ffffffffffffffffffffffffffffffffffffffff1614610291576040517f08c379a000000000000000000000000000000000000000000000000000000000815260040161028890612053565b60405180910390fd5b005b34801561029f57600080fd5b506102a8610679565b6040516102b591906120b4565b60405180910390f35b3480156102ca57600080fd5b506102d361069f565b6040516102e091906120e8565b60405180910390f35b3480156102f557600080fd5b506102fe6106a7565b60405161030b919061211e565b60405180910390f35b34801561032057600080fd5b506103296106ba565b60405161033691906120e8565b60405180910390f35b34801561034b57600080fd5b506103546106c0565b604051610361919061215a565b60405180910390f35b34801561037657600080fd5b5061037f6106e6565b60405161038c91906120e8565b60405180910390f35b3480156103a157600080fd5b506103aa6106ec565b6040516103b7919061211e565b60405180910390f35b6103da60048036038101906103d591906121a6565b6106ff565b005b3480156103e857600080fd5b506103f1610cf6565b005b3480156103ff57600080fd5b50610408611499565b60405161041591906120b4565b60405180910390f35b34801561042a57600080fd5b506104336114bf565b604051610440919061226c565b60405180910390f35b34801561045557600080fd5b50610470600480360381019061046b91906122df565b6114e3565b005b34801561047e57600080fd5b5061048761161c565b604051610494919061211e565b60405180910390f35b3480156104a957600080fd5b506104b261162f565b005b3480156104c057600080fd5b506104c96117e9565b6040516104d691906120e8565b60405180910390f35b3480156104eb57600080fd5b506104f46117ef565b604051610501919061215a565b60405180910390f35b34801561051657600080fd5b50610531600480360381019061052c919061231f565b611815565b60405161054295949392919061234c565b60405180910390f35b34801561055757600080fd5b5061056061184b565b005b34801561056e57600080fd5b506105896004803603810190610584919061231f565b61197f565b604051610596919061211e565b60405180910390f35b3480156105ab57600080fd5b506105b4611991565b6040516105c191906120e8565b60405180910390f35b3480156105d657600080fd5b506105df611997565b005b3480156105ed57600080fd5b506105f6611aca565b60405161060391906120e8565b60405180910390f35b34801561061857600080fd5b50610621611ad0565b60405161062e919061241e565b60405180910390f35b34801561064357600080fd5b5061064c611b5e565b60405161065991906120e8565b60405180910390f35b34801561066e57600080fd5b50610677611b64565b005b600260009054906101000a900473ffffffffffffffffffffffffffffffffffffffff1681565b600047905090565b600760019054906101000a900460ff1681565b60085481565b600460009054906101000a900473ffffffffffffffffffffffffffffffffffffffff1681565b600a5481565b600760009054906101000a900460ff1681565b600760009054906101000a900460ff1661074e576040517f08c379a00000000000000000000000000000000000000000000000000000000081526004016107459061248c565b60405180910390fd5b600760029054906101000a900460ff161561079e576040517f08c379a0000000000000000000000000000000000000000000000000000000008152600401610795906124f8565b60405180910390fd5b60065442106107e2576040517f08c379a00000000000000000000000000000000000000000000000000000000081526004016107d990612564565b60405180910390fd5b600260009054906101000a900473ffffffffffffffffffffffffffffffffffffffff1673ffffffffffffffffffffffffffffffffffffffff163373ffffffffffffffffffffffffffffffffffffffff1603610872576040517f08c379a0000000000000000000000000000000000000000000000000000000008152600401610869906125d0565b60405180910390fd5b61087b33611d52565b6108ba576040517f08c379a00000000000000000000000000000000000000000000000000000000081526004016108b19061263c565b60405180910390fd5b600c5483116108fe576040517f08c379a00000000000000000000000000000000000000000000000000000000081526004016108f5906126a8565b60405180910390fd5b6000600954612710346109119190612726565b61091b9190612757565b905080600a600082825461092f9190612799565b925050819055506109c6600b60009054906101000a900473ffffffffffffffffffffffffffffffffffffffff16600d6000600b60009054906101000a900473ffffffffffffffffffffffffffffffffffffffff1673ffffffffffffffffffffffffffffffffffffffff1673ffffffffffffffffffffffffffffffffffffffff16815260200190815260200160002060040154611da8565b6000600d60003373ffffffffffffffffffffffffffffffffffffffff1673ffffffffffffffffffffffffffffffffffffffff1681526020019081526020016000206000015414610b83578034610a1c91906127cd565b600d60003373ffffffffffffffffffffffffffffffffffffffff1673ffffffffffffffffffffffffffffffffffffffff1681526020019081526020016000206004018190555083600d60003373ffffffffffffffffffffffffffffffffffffffff1673ffffffffffffffffffffffffffffffffffffffff1681526020019081526020016000206001018190555084600d60003373ffffffffffffffffffffffffffffffffffffffff1673ffffffffffffffffffffffffffffffffffffffff1681526020019081526020016000206000018190555082600d60003373ffffffffffffffffffffffffffffffffffffffff1673ffffffffffffffffffffffffffffffffffffffff1681526020019081526020016000206002018190555081600d60003373ffffffffffffffffffffffffffffffffffffffff1673ffffffffffffffffffffffffffffffffffffffff16815260200190815260200160002060030181905550610c3f565b610b8b611fc7565b8134610b9791906127cd565b8160800181815250508581600001818152505084816020018181525050838160400181815250508281606001818152505080600d60003373ffffffffffffffffffffffffffffffffffffffff1673ffffffffffffffffffffffffffffffffffffffff1681526020019081526020016000206000820151816000015560208201518160010155604082015181600201556060820151816003015560808201518160040155905050505b33600b60006101000a81548173ffffffffffffffffffffffffffffffffffffffff021916908373ffffffffffffffffffffffffffffffffffffffff16021790555083600c81905550600160086000828254610c9a9190612799565b925050819055503373ffffffffffffffffffffffffffffffffffffffff167fe684a55f31b79eca403df938249029212a5925ec6be8012e099b45bc1019e5d285604051610ce791906120e8565b60405180910390a25050505050565b600260009054906101000a900473ffffffffffffffffffffffffffffffffffffffff1673ffffffffffffffffffffffffffffffffffffffff163373ffffffffffffffffffffffffffffffffffffffff1614610d86576040517f08c379a0000000000000000000000000000000000000000000000000000000008152600401610d7d90612053565b60405180910390fd5b600654421015610dcb576040517f08c379a0000000000000000000000000000000000000000000000000000000008152600401610dc29061284d565b60405180910390fd5b600073ffffffffffffffffffffffffffffffffffffffff16600b60009054906101000a900473ffffffffffffffffffffffffffffffffffffffff1673ffffffffffffffffffffffffffffffffffffffff161461115e5760008054906101000a900473ffffffffffffffffffffffffffffffffffffffff1673ffffffffffffffffffffffffffffffffffffffff166342842e0e30600b60009054906101000a900473ffffffffffffffffffffffffffffffffffffffff166001546040518463ffffffff1660e01b8152600401610ea29392919061286d565b600060405180830381600087803b158015610ebc57600080fd5b505af1158015610ed0573d6000803e3d6000fd5b505050506000600360009054906101000a900473ffffffffffffffffffffffffffffffffffffffff1673ffffffffffffffffffffffffffffffffffffffff16600a54604051610f1e906128d5565b60006040518083038185875af1925050503d8060008114610f5b576040519150601f19603f3d011682016040523d82523d6000602084013e610f60565b606091505b5050905080610fa4576040517f08c379a0000000000000000000000000000000000000000000000000000000008152600401610f9b90612936565b60405180910390fd5b600360009054906101000a900473ffffffffffffffffffffffffffffffffffffffff1673ffffffffffffffffffffffffffffffffffffffff167e57d762ad8f1734de771f2b521b2668347c0cee2d709a12254662cd5a7d4180600a5460405161100d91906120e8565b60405180910390a26000600260009054906101000a900473ffffffffffffffffffffffffffffffffffffffff1673ffffffffffffffffffffffffffffffffffffffff16600c5460405161105f906128d5565b60006040518083038185875af1925050503d806000811461109c576040519150601f19603f3d011682016040523d82523d6000602084013e6110a1565b606091505b50509050806110e5576040517f08c379a00000000000000000000000000000000000000000000000000000000081526004016110dc906129a2565b60405180910390fd5b600260009054906101000a900473ffffffffffffffffffffffffffffffffffffffff1673ffffffffffffffffffffffffffffffffffffffff167f1c1b1a7e52e22e996a7b9c93efbf98eeb6171f5ecaa8f5c1c792427b53d29e84600c5460405161114f91906120e8565b60405180910390a25050611497565b60008054906101000a900473ffffffffffffffffffffffffffffffffffffffff1673ffffffffffffffffffffffffffffffffffffffff166342842e0e30600260009054906101000a900473ffffffffffffffffffffffffffffffffffffffff166001546040518463ffffffff1660e01b81526004016111df939291906129e3565b600060405180830381600087803b1580156111f957600080fd5b505af115801561120d573d6000803e3d6000fd5b505050506000600360009054906101000a900473ffffffffffffffffffffffffffffffffffffffff1673ffffffffffffffffffffffffffffffffffffffff16600a5460405161125b906128d5565b60006040518083038185875af1925050503d8060008114611298576040519150601f19603f3d011682016040523d82523d6000602084013e61129d565b606091505b50509050806112e1576040517f08c379a00000000000000000000000000000000000000000000000000000000081526004016112d890612936565b60405180910390fd5b600360009054906101000a900473ffffffffffffffffffffffffffffffffffffffff1673ffffffffffffffffffffffffffffffffffffffff167e57d762ad8f1734de771f2b521b2668347c0cee2d709a12254662cd5a7d4180600a5460405161134a91906120e8565b60405180910390a26000600260009054906101000a900473ffffffffffffffffffffffffffffffffffffffff1673ffffffffffffffffffffffffffffffffffffffff16600c5460405161139c906128d5565b60006040518083038185875af1925050503d80600081146113d9576040519150601f19603f3d011682016040523d82523d6000602084013e6113de565b606091505b5050905080611422576040517f08c379a0000000000000000000000000000000000000000000000000000000008152600401611419906129a2565b60405180910390fd5b600260009054906101000a900473ffffffffffffffffffffffffffffffffffffffff1673ffffffffffffffffffffffffffffffffffffffff167f1c1b1a7e52e22e996a7b9c93efbf98eeb6171f5ecaa8f5c1c792427b53d29e84600c5460405161148c91906120e8565b60405180910390a250505b565b600360009054906101000a900473ffffffffffffffffffffffffffffffffffffffff1681565b60008054906101000a900473ffffffffffffffffffffffffffffffffffffffff1681565b600260009054906101000a900473ffffffffffffffffffffffffffffffffffffffff1673ffffffffffffffffffffffffffffffffffffffff163373ffffffffffffffffffffffffffffffffffffffff1614611573576040517f08c379a000000000000000000000000000000000000000000000000000000000815260040161156a90612053565b60405180910390fd5b80600e60008473ffffffffffffffffffffffffffffffffffffffff1673ffffffffffffffffffffffffffffffffffffffff16815260200190815260200160002060006101000a81548160ff0219169083151502179055508173ffffffffffffffffffffffffffffffffffffffff167fc2c8beffdf047b9e6c79b0e9dcd0bd71d174d84f52e013102fcc0e200dd58ee082604051611610919061211e565b60405180910390a25050565b600760029054906101000a900460ff1681565b600260009054906101000a900473ffffffffffffffffffffffffffffffffffffffff1673ffffffffffffffffffffffffffffffffffffffff163373ffffffffffffffffffffffffffffffffffffffff16146116bf576040517f08c379a00000000000000000000000000000000000000000000000000000000081526004016116b690612053565b60405180910390fd5b600760009054906101000a900460ff161561170f576040517f08c379a000000000000000000000000000000000000000000000000000000000815260040161170690612a66565b60405180910390fd5b60008054906101000a900473ffffffffffffffffffffffffffffffffffffffff1673ffffffffffffffffffffffffffffffffffffffff166323b872dd33306001546040518463ffffffff1660e01b815260040161176e9392919061286d565b600060405180830381600087803b15801561178857600080fd5b505af115801561179c573d6000803e3d6000fd5b505050506001600760006101000a81548160ff0219169083151502179055507fd295ebf0a48a9a43d600a6ecb8626baa711d5750dec13a08145013aa30cb92ea60405160405180910390a1565b60065481565b600b60009054906101000a900473ffffffffffffffffffffffffffffffffffffffff1681565b600d6020528060005260406000206000915090508060000154908060010154908060020154908060030154908060040154905085565b600260009054906101000a900473ffffffffffffffffffffffffffffffffffffffff1673ffffffffffffffffffffffffffffffffffffffff163373ffffffffffffffffffffffffffffffffffffffff16146118db576040517f08c379a00000000000000000000000000000000000000000000000000000000081526004016118d290612053565b60405180910390fd5b600760029054906101000a900460ff161561192b576040517f08c379a000000000000000000000000000000000000000000000000000000000815260040161192290612ad2565b60405180910390fd5b6001600760026101000a81548160ff0219169083151502179055507fdee06086e53b718fd5176fdaa88a207819a06a56b42087ac2cab84d32a33565433604051611975919061215a565b60405180910390a1565b600061198a82611d52565b9050919050565b60015481565b600260009054906101000a900473ffffffffffffffffffffffffffffffffffffffff1673ffffffffffffffffffffffffffffffffffffffff163373ffffffffffffffffffffffffffffffffffffffff1614611a27576040517f08c379a0000000000000000000000000000000000000000000000000000000008152600401611a1e90612053565b60405180910390fd5b600760029054906101000a900460ff16611a76576040517f08c379a0000000000000000000000000000000000000000000000000000000008152600401611a6d90612b3e565b60405180910390fd5b6000600760026101000a81548160ff0219169083151502179055507fc1a02e947cf77134ed09ac0692636f0553306db51ffe4a1d9e7b51b4dcd9c76233604051611ac0919061215a565b60405180910390a1565b600c5481565b60058054611add90612b8d565b80601f0160208091040260200160405190810160405280929190818152602001828054611b0990612b8d565b8015611b565780601f10611b2b57610100808354040283529160200191611b56565b820191906000526020600020905b815481529060010190602001808311611b3957829003601f168201915b505050505081565b61271081565b600260009054906101000a900473ffffffffffffffffffffffffffffffffffffffff1673ffffffffffffffffffffffffffffffffffffffff163373ffffffffffffffffffffffffffffffffffffffff1614611bf4576040517f08c379a0000000000000000000000000000000000000000000000000000000008152600401611beb90612053565b60405180910390fd5b600760009054906101000a900460ff16611c43576040517f08c379a0000000000000000000000000000000000000000000000000000000008152600401611c3a9061248c565b60405180910390fd5b600654421015611c88576040517f08c379a0000000000000000000000000000000000000000000000000000000008152600401611c7f9061284d565b60405180910390fd5b600760019054906101000a900460ff1615611cd8576040517f08c379a0000000000000000000000000000000000000000000000000000000008152600401611ccf90612c0a565b60405180910390fd5b6001600760016101000a81548160ff0219169083151502179055507fca09734d1fc32150404dc9252b4d991c6bee44319031b7159c03d5ae2c062704600b60009054906101000a900473ffffffffffffffffffffffffffffffffffffffff16600c54604051611d48929190612c2a565b60405180910390a1565b6000600e60008373ffffffffffffffffffffffffffffffffffffffff1673ffffffffffffffffffffffffffffffffffffffff16815260200190815260200160002060009054906101000a900460ff169050919050565b60008273ffffffffffffffffffffffffffffffffffffffff1682604051611dce906128d5565b60006040518083038185875af1925050503d8060008114611e0b576040519150601f19603f3d011682016040523d82523d6000602084013e611e10565b606091505b5050905080611e54576040517f08c379a0000000000000000000000000000000000000000000000000000000008152600401611e4b906129a2565b60405180910390fd5b6000600d60003373ffffffffffffffffffffffffffffffffffffffff1673ffffffffffffffffffffffffffffffffffffffff168152602001908152602001600020600401819055506000600d60003373ffffffffffffffffffffffffffffffffffffffff1673ffffffffffffffffffffffffffffffffffffffff168152602001908152602001600020600001819055506000600d60003373ffffffffffffffffffffffffffffffffffffffff1673ffffffffffffffffffffffffffffffffffffffff168152602001908152602001600020600201819055506000600d60003373ffffffffffffffffffffffffffffffffffffffff1673ffffffffffffffffffffffffffffffffffffffff168152602001908152602001600020600301819055508273ffffffffffffffffffffffffffffffffffffffff167fe523757eee9c213543af9b06c96e0629da383d3149173f4a03ab96d8ff52676083604051611fba91906120e8565b60405180910390a2505050565b6040518060a0016040528060008152602001600081526020016000815260200160008152602001600081525090565b600082825260208201905092915050565b7f53656e646572206973206e6f74206f776e657200000000000000000000000000600082015250565b600061203d601383611ff6565b915061204882612007565b602082019050919050565b6000602082019050818103600083015261206c81612030565b9050919050565b600073ffffffffffffffffffffffffffffffffffffffff82169050919050565b600061209e82612073565b9050919050565b6120ae81612093565b82525050565b60006020820190506120c960008301846120a5565b92915050565b6000819050919050565b6120e2816120cf565b82525050565b60006020820190506120fd60008301846120d9565b92915050565b60008115159050919050565b61211881612103565b82525050565b6000602082019050612133600083018461210f565b92915050565b600061214482612073565b9050919050565b61215481612139565b82525050565b600060208201905061216f600083018461214b565b92915050565b600080fd5b612183816120cf565b811461218e57600080fd5b50565b6000813590506121a08161217a565b92915050565b600080600080608085870312156121c0576121bf612175565b5b60006121ce87828801612191565b94505060206121df87828801612191565b93505060406121f087828801612191565b925050606061220187828801612191565b91505092959194509250565b6000819050919050565b600061223261222d61222884612073565b61220d565b612073565b9050919050565b600061224482612217565b9050919050565b600061225682612239565b9050919050565b6122668161224b565b82525050565b6000602082019050612281600083018461225d565b92915050565b61229081612139565b811461229b57600080fd5b50565b6000813590506122ad81612287565b92915050565b6122bc81612103565b81146122c757600080fd5b50565b6000813590506122d9816122b3565b92915050565b600080604083850312156122f6576122f5612175565b5b60006123048582860161229e565b9250506020612315858286016122ca565b9150509250929050565b60006020828403121561233557612334612175565b5b60006123438482850161229e565b91505092915050565b600060a08201905061236160008301886120d9565b61236e60208301876120d9565b61237b60408301866120d9565b61238860608301856120d9565b61239560808301846120d9565b9695505050505050565b600081519050919050565b60005b838110156123c85780820151818401526020810190506123ad565b60008484015250505050565b6000601f19601f8301169050919050565b60006123f08261239f565b6123fa8185611ff6565b935061240a8185602086016123aa565b612413816123d4565b840191505092915050565b6000602082019050818103600083015261243881846123e5565b905092915050565b7f4e6f742053746172746564205965740000000000000000000000000000000000600082015250565b6000612476600f83611ff6565b915061248182612440565b602082019050919050565b600060208201905081810360008301526124a581612469565b9050919050565b7f41756374696f6e20506175736564000000000000000000000000000000000000600082015250565b60006124e2600e83611ff6565b91506124ed826124ac565b602082019050919050565b60006020820190508181036000830152612511816124d5565b9050919050565b7f416c726561647920656e64656400000000000000000000000000000000000000600082015250565b600061254e600d83611ff6565b915061255982612518565b602082019050919050565b6000602082019050818103600083015261257d81612541565b9050919050565b7f53656c6c6572206e6f7420616c6c6f7765640000000000000000000000000000600082015250565b60006125ba601283611ff6565b91506125c582612584565b602082019050919050565b600060208201905081810360008301526125e9816125ad565b9050919050565b7f5065726d697373696f6e2064656e696564000000000000000000000000000000600082015250565b6000612626601183611ff6565b9150612631826125f0565b602082019050919050565b6000602082019050818103600083015261265581612619565b9050919050565b7f4c6f776572204269640000000000000000000000000000000000000000000000600082015250565b6000612692600983611ff6565b915061269d8261265c565b602082019050919050565b600060208201905081810360008301526126c181612685565b9050919050565b7f4e487b7100000000000000000000000000000000000000000000000000000000600052601260045260246000fd5b7f4e487b7100000000000000000000000000000000000000000000000000000000600052601160045260246000fd5b6000612731826120cf565b915061273c836120cf565b92508261274c5761274b6126c8565b5b828204905092915050565b6000612762826120cf565b915061276d836120cf565b925082820261277b816120cf565b91508282048414831517612792576127916126f7565b5b5092915050565b60006127a4826120cf565b91506127af836120cf565b92508282019050808211156127c7576127c66126f7565b5b92915050565b60006127d8826120cf565b91506127e3836120cf565b92508282039050818111156127fb576127fa6126f7565b5b92915050565b7f4e6f7420456e6465640000000000000000000000000000000000000000000000600082015250565b6000612837600983611ff6565b915061284282612801565b602082019050919050565b600060208201905081810360008301526128668161282a565b9050919050565b6000606082019050612882600083018661214b565b61288f602083018561214b565b61289c60408301846120d9565b949350505050565b600081905092915050565b50565b60006128bf6000836128a4565b91506128ca826128af565b600082019050919050565b60006128e0826128b2565b9150819050919050565b7f52657475726e206665652066756e6473206661696c6564000000000000000000600082015250565b6000612920601783611ff6565b915061292b826128ea565b602082019050919050565b6000602082019050818103600083015261294f81612913565b9050919050565b7f52657475726e2066756e6473206661696c656400000000000000000000000000600082015250565b600061298c601383611ff6565b915061299782612956565b602082019050919050565b600060208201905081810360008301526129bb8161297f565b9050919050565b60006129cd82612239565b9050919050565b6129dd816129c2565b82525050565b60006060820190506129f8600083018661214b565b612a0560208301856129d4565b612a1260408301846120d9565b949350505050565b7f416c726561647920537461727465640000000000000000000000000000000000600082015250565b6000612a50600f83611ff6565b9150612a5b82612a1a565b602082019050919050565b60006020820190508181036000830152612a7f81612a43565b9050919050565b7f416c726561647920506175736564000000000000000000000000000000000000600082015250565b6000612abc600e83611ff6565b9150612ac782612a86565b602082019050919050565b60006020820190508181036000830152612aeb81612aaf565b9050919050565b7f416c72656164792052756e6e696e670000000000000000000000000000000000600082015250565b6000612b28600f83611ff6565b9150612b3382612af2565b602082019050919050565b60006020820190508181036000830152612b5781612b1b565b9050919050565b7f4e487b7100000000000000000000000000000000000000000000000000000000600052602260045260246000fd5b60006002820490506001821680612ba557607f821691505b602082108103612bb857612bb7612b5e565b5b50919050565b7f416c726561647920456e64656400000000000000000000000000000000000000600082015250565b6000612bf4600d83611ff6565b9150612bff82612bbe565b602082019050919050565b60006020820190508181036000830152612c2381612be7565b9050919050565b6000604082019050612c3f600083018561214b565b612c4c60208301846120d9565b939250505056fea2646970667358221220490526a6ea8b9094c344b4a4133b67c806d7fb4deaf4213fa3154a693fba750b64736f6c63430008110033",
					"opcodes": "PUSH1 0x80 PUSH1 0x40 MSTORE CALLVALUE DUP1 ISZERO PUSH3 0x11 JUMPI PUSH1 0x0 DUP1 REVERT JUMPDEST POP PUSH1 0x40 MLOAD PUSH3 0x31D0 CODESIZE SUB DUP1 PUSH3 0x31D0 DUP4 CODECOPY DUP2 DUP2 ADD PUSH1 0x40 MSTORE DUP2 ADD SWAP1 PUSH3 0x37 SWAP2 SWAP1 PUSH3 0x3EB JUMP JUMPDEST DUP8 PUSH1 0x0 DUP1 PUSH2 0x100 EXP DUP2 SLOAD DUP2 PUSH20 0xFFFFFFFFFFFFFFFFFFFFFFFFFFFFFFFFFFFFFFFF MUL NOT AND SWAP1 DUP4 PUSH20 0xFFFFFFFFFFFFFFFFFFFFFFFFFFFFFFFFFFFFFFFF AND MUL OR SWAP1 SSTORE POP DUP4 PUSH1 0x1 DUP2 SWAP1 SSTORE POP CALLER PUSH1 0x2 PUSH1 0x0 PUSH2 0x100 EXP DUP2 SLOAD DUP2 PUSH20 0xFFFFFFFFFFFFFFFFFFFFFFFFFFFFFFFFFFFFFFFF MUL NOT AND SWAP1 DUP4 PUSH20 0xFFFFFFFFFFFFFFFFFFFFFFFFFFFFFFFFFFFFFFFF AND MUL OR SWAP1 SSTORE POP DUP5 PUSH1 0x3 PUSH1 0x0 PUSH2 0x100 EXP DUP2 SLOAD DUP2 PUSH20 0xFFFFFFFFFFFFFFFFFFFFFFFFFFFFFFFFFFFFFFFF MUL NOT AND SWAP1 DUP4 PUSH20 0xFFFFFFFFFFFFFFFFFFFFFFFFFFFFFFFFFFFFFFFF AND MUL OR SWAP1 SSTORE POP DUP3 PUSH1 0xC DUP2 SWAP1 SSTORE POP DUP2 PUSH1 0x6 DUP2 SWAP1 SSTORE POP DUP1 PUSH1 0x9 DUP2 SWAP1 SSTORE POP PUSH1 0x5 DUP1 SLOAD PUSH3 0x124 SWAP1 PUSH3 0x502 JUMP JUMPDEST DUP1 PUSH1 0x1F ADD PUSH1 0x20 DUP1 SWAP2 DIV MUL PUSH1 0x20 ADD PUSH1 0x40 MLOAD SWAP1 DUP2 ADD PUSH1 0x40 MSTORE DUP1 SWAP3 SWAP2 SWAP1 DUP2 DUP2 MSTORE PUSH1 0x20 ADD DUP3 DUP1 SLOAD PUSH3 0x152 SWAP1 PUSH3 0x502 JUMP JUMPDEST DUP1 ISZERO PUSH3 0x1A3 JUMPI DUP1 PUSH1 0x1F LT PUSH3 0x177 JUMPI PUSH2 0x100 DUP1 DUP4 SLOAD DIV MUL DUP4 MSTORE SWAP2 PUSH1 0x20 ADD SWAP2 PUSH3 0x1A3 JUMP JUMPDEST DUP3 ADD SWAP2 SWAP1 PUSH1 0x0 MSTORE PUSH1 0x20 PUSH1 0x0 KECCAK256 SWAP1 JUMPDEST DUP2 SLOAD DUP2 MSTORE SWAP1 PUSH1 0x1 ADD SWAP1 PUSH1 0x20 ADD DUP1 DUP4 GT PUSH3 0x185 JUMPI DUP3 SWAP1 SUB PUSH1 0x1F AND DUP3 ADD SWAP2 JUMPDEST POP POP POP POP POP SWAP6 POP POP POP POP POP POP POP POP POP PUSH3 0x537 JUMP JUMPDEST PUSH1 0x0 PUSH1 0x40 MLOAD SWAP1 POP SWAP1 JUMP JUMPDEST PUSH1 0x0 DUP1 REVERT JUMPDEST PUSH1 0x0 DUP1 REVERT JUMPDEST PUSH1 0x0 PUSH20 0xFFFFFFFFFFFFFFFFFFFFFFFFFFFFFFFFFFFFFFFF DUP3 AND SWAP1 POP SWAP2 SWAP1 POP JUMP JUMPDEST PUSH1 0x0 PUSH3 0x1F9 DUP3 PUSH3 0x1CC JUMP JUMPDEST SWAP1 POP SWAP2 SWAP1 POP JUMP JUMPDEST PUSH3 0x20B DUP2 PUSH3 0x1EC JUMP JUMPDEST DUP2 EQ PUSH3 0x217 JUMPI PUSH1 0x0 DUP1 REVERT JUMPDEST POP JUMP JUMPDEST PUSH1 0x0 DUP2 MLOAD SWAP1 POP PUSH3 0x22B DUP2 PUSH3 0x200 JUMP JUMPDEST SWAP3 SWAP2 POP POP JUMP JUMPDEST PUSH1 0x0 DUP1 REVERT JUMPDEST PUSH1 0x0 DUP1 REVERT JUMPDEST PUSH1 0x0 PUSH1 0x1F NOT PUSH1 0x1F DUP4 ADD AND SWAP1 POP SWAP2 SWAP1 POP JUMP JUMPDEST PUSH32 0x4E487B7100000000000000000000000000000000000000000000000000000000 PUSH1 0x0 MSTORE PUSH1 0x41 PUSH1 0x4 MSTORE PUSH1 0x24 PUSH1 0x0 REVERT JUMPDEST PUSH3 0x286 DUP3 PUSH3 0x23B JUMP JUMPDEST DUP2 ADD DUP2 DUP2 LT PUSH8 0xFFFFFFFFFFFFFFFF DUP3 GT OR ISZERO PUSH3 0x2A8 JUMPI PUSH3 0x2A7 PUSH3 0x24C JUMP JUMPDEST JUMPDEST DUP1 PUSH1 0x40 MSTORE POP POP POP JUMP JUMPDEST PUSH1 0x0 PUSH3 0x2BD PUSH3 0x1B8 JUMP JUMPDEST SWAP1 POP PUSH3 0x2CB DUP3 DUP3 PUSH3 0x27B JUMP JUMPDEST SWAP2 SWAP1 POP JUMP JUMPDEST PUSH1 0x0 PUSH8 0xFFFFFFFFFFFFFFFF DUP3 GT ISZERO PUSH3 0x2EE JUMPI PUSH3 0x2ED PUSH3 0x24C JUMP JUMPDEST JUMPDEST PUSH3 0x2F9 DUP3 PUSH3 0x23B JUMP JUMPDEST SWAP1 POP PUSH1 0x20 DUP2 ADD SWAP1 POP SWAP2 SWAP1 POP JUMP JUMPDEST PUSH1 0x0 JUMPDEST DUP4 DUP2 LT ISZERO PUSH3 0x326 JUMPI DUP1 DUP3 ADD MLOAD DUP2 DUP5 ADD MSTORE PUSH1 0x20 DUP2 ADD SWAP1 POP PUSH3 0x309 JUMP JUMPDEST PUSH1 0x0 DUP5 DUP5 ADD MSTORE POP POP POP POP JUMP JUMPDEST PUSH1 0x0 PUSH3 0x349 PUSH3 0x343 DUP5 PUSH3 0x2D0 JUMP JUMPDEST PUSH3 0x2B1 JUMP JUMPDEST SWAP1 POP DUP3 DUP2 MSTORE PUSH1 0x20 DUP2 ADD DUP5 DUP5 DUP5 ADD GT ISZERO PUSH3 0x368 JUMPI PUSH3 0x367 PUSH3 0x236 JUMP JUMPDEST JUMPDEST PUSH3 0x375 DUP5 DUP3 DUP6 PUSH3 0x306 JUMP JUMPDEST POP SWAP4 SWAP3 POP POP POP JUMP JUMPDEST PUSH1 0x0 DUP3 PUSH1 0x1F DUP4 ADD SLT PUSH3 0x395 JUMPI PUSH3 0x394 PUSH3 0x231 JUMP JUMPDEST JUMPDEST DUP2 MLOAD PUSH3 0x3A7 DUP5 DUP3 PUSH1 0x20 DUP7 ADD PUSH3 0x332 JUMP JUMPDEST SWAP2 POP POP SWAP3 SWAP2 POP POP JUMP JUMPDEST PUSH1 0x0 DUP2 SWAP1 POP SWAP2 SWAP1 POP JUMP JUMPDEST PUSH3 0x3C5 DUP2 PUSH3 0x3B0 JUMP JUMPDEST DUP2 EQ PUSH3 0x3D1 JUMPI PUSH1 0x0 DUP1 REVERT JUMPDEST POP JUMP JUMPDEST PUSH1 0x0 DUP2 MLOAD SWAP1 POP PUSH3 0x3E5 DUP2 PUSH3 0x3BA JUMP JUMPDEST SWAP3 SWAP2 POP POP JUMP JUMPDEST PUSH1 0x0 DUP1 PUSH1 0x0 DUP1 PUSH1 0x0 DUP1 PUSH1 0x0 DUP1 PUSH2 0x100 DUP10 DUP12 SUB SLT ISZERO PUSH3 0x40F JUMPI PUSH3 0x40E PUSH3 0x1C2 JUMP JUMPDEST JUMPDEST PUSH1 0x0 PUSH3 0x41F DUP12 DUP3 DUP13 ADD PUSH3 0x21A JUMP JUMPDEST SWAP9 POP POP PUSH1 0x20 PUSH3 0x432 DUP12 DUP3 DUP13 ADD PUSH3 0x21A JUMP JUMPDEST SWAP8 POP POP PUSH1 0x40 DUP10 ADD MLOAD PUSH8 0xFFFFFFFFFFFFFFFF DUP2 GT ISZERO PUSH3 0x456 JUMPI PUSH3 0x455 PUSH3 0x1C7 JUMP JUMPDEST JUMPDEST PUSH3 0x464 DUP12 DUP3 DUP13 ADD PUSH3 0x37D JUMP JUMPDEST SWAP7 POP POP PUSH1 0x60 PUSH3 0x477 DUP12 DUP3 DUP13 ADD PUSH3 0x21A JUMP JUMPDEST SWAP6 POP POP PUSH1 0x80 PUSH3 0x48A DUP12 DUP3 DUP13 ADD PUSH3 0x3D4 JUMP JUMPDEST SWAP5 POP POP PUSH1 0xA0 PUSH3 0x49D DUP12 DUP3 DUP13 ADD PUSH3 0x3D4 JUMP JUMPDEST SWAP4 POP POP PUSH1 0xC0 PUSH3 0x4B0 DUP12 DUP3 DUP13 ADD PUSH3 0x3D4 JUMP JUMPDEST SWAP3 POP POP PUSH1 0xE0 PUSH3 0x4C3 DUP12 DUP3 DUP13 ADD PUSH3 0x3D4 JUMP JUMPDEST SWAP2 POP POP SWAP3 SWAP6 SWAP9 POP SWAP3 SWAP6 SWAP9 SWAP1 SWAP4 SWAP7 POP JUMP JUMPDEST PUSH32 0x4E487B7100000000000000000000000000000000000000000000000000000000 PUSH1 0x0 MSTORE PUSH1 0x22 PUSH1 0x4 MSTORE PUSH1 0x24 PUSH1 0x0 REVERT JUMPDEST PUSH1 0x0 PUSH1 0x2 DUP3 DIV SWAP1 POP PUSH1 0x1 DUP3 AND DUP1 PUSH3 0x51B JUMPI PUSH1 0x7F DUP3 AND SWAP2 POP JUMPDEST PUSH1 0x20 DUP3 LT DUP2 SUB PUSH3 0x531 JUMPI PUSH3 0x530 PUSH3 0x4D3 JUMP JUMPDEST JUMPDEST POP SWAP2 SWAP1 POP JUMP JUMPDEST PUSH2 0x2C89 DUP1 PUSH3 0x547 PUSH1 0x0 CODECOPY PUSH1 0x0 RETURN INVALID PUSH1 0x80 PUSH1 0x40 MSTORE PUSH1 0x4 CALLDATASIZE LT PUSH2 0x16A JUMPI PUSH1 0x0 CALLDATALOAD PUSH1 0xE0 SHR DUP1 PUSH4 0x5C975ABB GT PUSH2 0xD1 JUMPI DUP1 PUSH4 0xC683630D GT PUSH2 0x8A JUMPI DUP1 PUSH4 0xD57BDE79 GT PUSH2 0x64 JUMPI DUP1 PUSH4 0xD57BDE79 EQ PUSH2 0x5E1 JUMPI DUP1 PUSH4 0xD6B4675B EQ PUSH2 0x60C JUMPI DUP1 PUSH4 0xECEFC705 EQ PUSH2 0x637 JUMPI DUP1 PUSH4 0xFE67A54B EQ PUSH2 0x662 JUMPI PUSH2 0x201 JUMP JUMPDEST DUP1 PUSH4 0xC683630D EQ PUSH2 0x562 JUMPI DUP1 PUSH4 0xC6BC5182 EQ PUSH2 0x59F JUMPI DUP1 PUSH4 0xCEB16419 EQ PUSH2 0x5CA JUMPI PUSH2 0x201 JUMP JUMPDEST DUP1 PUSH4 0x5C975ABB EQ PUSH2 0x472 JUMPI DUP1 PUSH4 0x6B64C769 EQ PUSH2 0x49D JUMPI DUP1 PUSH4 0x7CC3AE8C EQ PUSH2 0x4B4 JUMPI DUP1 PUSH4 0x91F90157 EQ PUSH2 0x4DF JUMPI DUP1 PUSH4 0x95ECC5CC EQ PUSH2 0x50A JUMPI DUP1 PUSH4 0xB9AE7364 EQ PUSH2 0x54B JUMPI PUSH2 0x201 JUMP JUMPDEST DUP1 PUSH4 0x1F2698AB GT PUSH2 0x123 JUMPI DUP1 PUSH4 0x1F2698AB EQ PUSH2 0x395 JUMPI DUP1 PUSH4 0x2AEEE493 EQ PUSH2 0x3C0 JUMPI DUP1 PUSH4 0x378252F2 EQ PUSH2 0x3DC JUMPI DUP1 PUSH4 0x41275358 EQ PUSH2 0x3F3 JUMPI DUP1 PUSH4 0x47CCCA02 EQ PUSH2 0x41E JUMPI DUP1 PUSH4 0x53D6FD59 EQ PUSH2 0x449 JUMPI PUSH2 0x201 JUMP JUMPDEST DUP1 PUSH4 0x8551A53 EQ PUSH2 0x293 JUMPI DUP1 PUSH4 0x12065FE0 EQ PUSH2 0x2BE JUMPI DUP1 PUSH4 0x12FA6FEB EQ PUSH2 0x2E9 JUMPI DUP1 PUSH4 0x17D531FC EQ PUSH2 0x314 JUMPI DUP1 PUSH4 0x1CF5E669 EQ PUSH2 0x33F JUMPI DUP1 PUSH4 0x1DF4CCFC EQ PUSH2 0x36A JUMPI PUSH2 0x201 JUMP JUMPDEST CALLDATASIZE PUSH2 0x201 JUMPI PUSH1 0x2 PUSH1 0x0 SWAP1 SLOAD SWAP1 PUSH2 0x100 EXP SWAP1 DIV PUSH20 0xFFFFFFFFFFFFFFFFFFFFFFFFFFFFFFFFFFFFFFFF AND PUSH20 0xFFFFFFFFFFFFFFFFFFFFFFFFFFFFFFFFFFFFFFFF AND CALLER PUSH20 0xFFFFFFFFFFFFFFFFFFFFFFFFFFFFFFFFFFFFFFFF AND EQ PUSH2 0x1FF JUMPI PUSH1 0x40 MLOAD PUSH32 0x8C379A000000000000000000000000000000000000000000000000000000000 DUP2 MSTORE PUSH1 0x4 ADD PUSH2 0x1F6 SWAP1 PUSH2 0x2053 JUMP JUMPDEST PUSH1 0x40 MLOAD DUP1 SWAP2 SUB SWAP1 REVERT JUMPDEST STOP JUMPDEST PUSH1 0x2 PUSH1 0x0 SWAP1 SLOAD SWAP1 PUSH2 0x100 EXP SWAP1 DIV PUSH20 0xFFFFFFFFFFFFFFFFFFFFFFFFFFFFFFFFFFFFFFFF AND PUSH20 0xFFFFFFFFFFFFFFFFFFFFFFFFFFFFFFFFFFFFFFFF AND CALLER PUSH20 0xFFFFFFFFFFFFFFFFFFFFFFFFFFFFFFFFFFFFFFFF AND EQ PUSH2 0x291 JUMPI PUSH1 0x40 MLOAD PUSH32 0x8C379A000000000000000000000000000000000000000000000000000000000 DUP2 MSTORE PUSH1 0x4 ADD PUSH2 0x288 SWAP1 PUSH2 0x2053 JUMP JUMPDEST PUSH1 0x40 MLOAD DUP1 SWAP2 SUB SWAP1 REVERT JUMPDEST STOP JUMPDEST CALLVALUE DUP1 ISZERO PUSH2 0x29F JUMPI PUSH1 0x0 DUP1 REVERT JUMPDEST POP PUSH2 0x2A8 PUSH2 0x679 JUMP JUMPDEST PUSH1 0x40 MLOAD PUSH2 0x2B5 SWAP2 SWAP1 PUSH2 0x20B4 JUMP JUMPDEST PUSH1 0x40 MLOAD DUP1 SWAP2 SUB SWAP1 RETURN JUMPDEST CALLVALUE DUP1 ISZERO PUSH2 0x2CA JUMPI PUSH1 0x0 DUP1 REVERT JUMPDEST POP PUSH2 0x2D3 PUSH2 0x69F JUMP JUMPDEST PUSH1 0x40 MLOAD PUSH2 0x2E0 SWAP2 SWAP1 PUSH2 0x20E8 JUMP JUMPDEST PUSH1 0x40 MLOAD DUP1 SWAP2 SUB SWAP1 RETURN JUMPDEST CALLVALUE DUP1 ISZERO PUSH2 0x2F5 JUMPI PUSH1 0x0 DUP1 REVERT JUMPDEST POP PUSH2 0x2FE PUSH2 0x6A7 JUMP JUMPDEST PUSH1 0x40 MLOAD PUSH2 0x30B SWAP2 SWAP1 PUSH2 0x211E JUMP JUMPDEST PUSH1 0x40 MLOAD DUP1 SWAP2 SUB SWAP1 RETURN JUMPDEST CALLVALUE DUP1 ISZERO PUSH2 0x320 JUMPI PUSH1 0x0 DUP1 REVERT JUMPDEST POP PUSH2 0x329 PUSH2 0x6BA JUMP JUMPDEST PUSH1 0x40 MLOAD PUSH2 0x336 SWAP2 SWAP1 PUSH2 0x20E8 JUMP JUMPDEST PUSH1 0x40 MLOAD DUP1 SWAP2 SUB SWAP1 RETURN JUMPDEST CALLVALUE DUP1 ISZERO PUSH2 0x34B JUMPI PUSH1 0x0 DUP1 REVERT JUMPDEST POP PUSH2 0x354 PUSH2 0x6C0 JUMP JUMPDEST PUSH1 0x40 MLOAD PUSH2 0x361 SWAP2 SWAP1 PUSH2 0x215A JUMP JUMPDEST PUSH1 0x40 MLOAD DUP1 SWAP2 SUB SWAP1 RETURN JUMPDEST CALLVALUE DUP1 ISZERO PUSH2 0x376 JUMPI PUSH1 0x0 DUP1 REVERT JUMPDEST POP PUSH2 0x37F PUSH2 0x6E6 JUMP JUMPDEST PUSH1 0x40 MLOAD PUSH2 0x38C SWAP2 SWAP1 PUSH2 0x20E8 JUMP JUMPDEST PUSH1 0x40 MLOAD DUP1 SWAP2 SUB SWAP1 RETURN JUMPDEST CALLVALUE DUP1 ISZERO PUSH2 0x3A1 JUMPI PUSH1 0x0 DUP1 REVERT JUMPDEST POP PUSH2 0x3AA PUSH2 0x6EC JUMP JUMPDEST PUSH1 0x40 MLOAD PUSH2 0x3B7 SWAP2 SWAP1 PUSH2 0x211E JUMP JUMPDEST PUSH1 0x40 MLOAD DUP1 SWAP2 SUB SWAP1 RETURN JUMPDEST PUSH2 0x3DA PUSH1 0x4 DUP1 CALLDATASIZE SUB DUP2 ADD SWAP1 PUSH2 0x3D5 SWAP2 SWAP1 PUSH2 0x21A6 JUMP JUMPDEST PUSH2 0x6FF JUMP JUMPDEST STOP JUMPDEST CALLVALUE DUP1 ISZERO PUSH2 0x3E8 JUMPI PUSH1 0x0 DUP1 REVERT JUMPDEST POP PUSH2 0x3F1 PUSH2 0xCF6 JUMP JUMPDEST STOP JUMPDEST CALLVALUE DUP1 ISZERO PUSH2 0x3FF JUMPI PUSH1 0x0 DUP1 REVERT JUMPDEST POP PUSH2 0x408 PUSH2 0x1499 JUMP JUMPDEST PUSH1 0x40 MLOAD PUSH2 0x415 SWAP2 SWAP1 PUSH2 0x20B4 JUMP JUMPDEST PUSH1 0x40 MLOAD DUP1 SWAP2 SUB SWAP1 RETURN JUMPDEST CALLVALUE DUP1 ISZERO PUSH2 0x42A JUMPI PUSH1 0x0 DUP1 REVERT JUMPDEST POP PUSH2 0x433 PUSH2 0x14BF JUMP JUMPDEST PUSH1 0x40 MLOAD PUSH2 0x440 SWAP2 SWAP1 PUSH2 0x226C JUMP JUMPDEST PUSH1 0x40 MLOAD DUP1 SWAP2 SUB SWAP1 RETURN JUMPDEST CALLVALUE DUP1 ISZERO PUSH2 0x455 JUMPI PUSH1 0x0 DUP1 REVERT JUMPDEST POP PUSH2 0x470 PUSH1 0x4 DUP1 CALLDATASIZE SUB DUP2 ADD SWAP1 PUSH2 0x46B SWAP2 SWAP1 PUSH2 0x22DF JUMP JUMPDEST PUSH2 0x14E3 JUMP JUMPDEST STOP JUMPDEST CALLVALUE DUP1 ISZERO PUSH2 0x47E JUMPI PUSH1 0x0 DUP1 REVERT JUMPDEST POP PUSH2 0x487 PUSH2 0x161C JUMP JUMPDEST PUSH1 0x40 MLOAD PUSH2 0x494 SWAP2 SWAP1 PUSH2 0x211E JUMP JUMPDEST PUSH1 0x40 MLOAD DUP1 SWAP2 SUB SWAP1 RETURN JUMPDEST CALLVALUE DUP1 ISZERO PUSH2 0x4A9 JUMPI PUSH1 0x0 DUP1 REVERT JUMPDEST POP PUSH2 0x4B2 PUSH2 0x162F JUMP JUMPDEST STOP JUMPDEST CALLVALUE DUP1 ISZERO PUSH2 0x4C0 JUMPI PUSH1 0x0 DUP1 REVERT JUMPDEST POP PUSH2 0x4C9 PUSH2 0x17E9 JUMP JUMPDEST PUSH1 0x40 MLOAD PUSH2 0x4D6 SWAP2 SWAP1 PUSH2 0x20E8 JUMP JUMPDEST PUSH1 0x40 MLOAD DUP1 SWAP2 SUB SWAP1 RETURN JUMPDEST CALLVALUE DUP1 ISZERO PUSH2 0x4EB JUMPI PUSH1 0x0 DUP1 REVERT JUMPDEST POP PUSH2 0x4F4 PUSH2 0x17EF JUMP JUMPDEST PUSH1 0x40 MLOAD PUSH2 0x501 SWAP2 SWAP1 PUSH2 0x215A JUMP JUMPDEST PUSH1 0x40 MLOAD DUP1 SWAP2 SUB SWAP1 RETURN JUMPDEST CALLVALUE DUP1 ISZERO PUSH2 0x516 JUMPI PUSH1 0x0 DUP1 REVERT JUMPDEST POP PUSH2 0x531 PUSH1 0x4 DUP1 CALLDATASIZE SUB DUP2 ADD SWAP1 PUSH2 0x52C SWAP2 SWAP1 PUSH2 0x231F JUMP JUMPDEST PUSH2 0x1815 JUMP JUMPDEST PUSH1 0x40 MLOAD PUSH2 0x542 SWAP6 SWAP5 SWAP4 SWAP3 SWAP2 SWAP1 PUSH2 0x234C JUMP JUMPDEST PUSH1 0x40 MLOAD DUP1 SWAP2 SUB SWAP1 RETURN JUMPDEST CALLVALUE DUP1 ISZERO PUSH2 0x557 JUMPI PUSH1 0x0 DUP1 REVERT JUMPDEST POP PUSH2 0x560 PUSH2 0x184B JUMP JUMPDEST STOP JUMPDEST CALLVALUE DUP1 ISZERO PUSH2 0x56E JUMPI PUSH1 0x0 DUP1 REVERT JUMPDEST POP PUSH2 0x589 PUSH1 0x4 DUP1 CALLDATASIZE SUB DUP2 ADD SWAP1 PUSH2 0x584 SWAP2 SWAP1 PUSH2 0x231F JUMP JUMPDEST PUSH2 0x197F JUMP JUMPDEST PUSH1 0x40 MLOAD PUSH2 0x596 SWAP2 SWAP1 PUSH2 0x211E JUMP JUMPDEST PUSH1 0x40 MLOAD DUP1 SWAP2 SUB SWAP1 RETURN JUMPDEST CALLVALUE DUP1 ISZERO PUSH2 0x5AB JUMPI PUSH1 0x0 DUP1 REVERT JUMPDEST POP PUSH2 0x5B4 PUSH2 0x1991 JUMP JUMPDEST PUSH1 0x40 MLOAD PUSH2 0x5C1 SWAP2 SWAP1 PUSH2 0x20E8 JUMP JUMPDEST PUSH1 0x40 MLOAD DUP1 SWAP2 SUB SWAP1 RETURN JUMPDEST CALLVALUE DUP1 ISZERO PUSH2 0x5D6 JUMPI PUSH1 0x0 DUP1 REVERT JUMPDEST POP PUSH2 0x5DF PUSH2 0x1997 JUMP JUMPDEST STOP JUMPDEST CALLVALUE DUP1 ISZERO PUSH2 0x5ED JUMPI PUSH1 0x0 DUP1 REVERT JUMPDEST POP PUSH2 0x5F6 PUSH2 0x1ACA JUMP JUMPDEST PUSH1 0x40 MLOAD PUSH2 0x603 SWAP2 SWAP1 PUSH2 0x20E8 JUMP JUMPDEST PUSH1 0x40 MLOAD DUP1 SWAP2 SUB SWAP1 RETURN JUMPDEST CALLVALUE DUP1 ISZERO PUSH2 0x618 JUMPI PUSH1 0x0 DUP1 REVERT JUMPDEST POP PUSH2 0x621 PUSH2 0x1AD0 JUMP JUMPDEST PUSH1 0x40 MLOAD PUSH2 0x62E SWAP2 SWAP1 PUSH2 0x241E JUMP JUMPDEST PUSH1 0x40 MLOAD DUP1 SWAP2 SUB SWAP1 RETURN JUMPDEST CALLVALUE DUP1 ISZERO PUSH2 0x643 JUMPI PUSH1 0x0 DUP1 REVERT JUMPDEST POP PUSH2 0x64C PUSH2 0x1B5E JUMP JUMPDEST PUSH1 0x40 MLOAD PUSH2 0x659 SWAP2 SWAP1 PUSH2 0x20E8 JUMP JUMPDEST PUSH1 0x40 MLOAD DUP1 SWAP2 SUB SWAP1 RETURN JUMPDEST CALLVALUE DUP1 ISZERO PUSH2 0x66E JUMPI PUSH1 0x0 DUP1 REVERT JUMPDEST POP PUSH2 0x677 PUSH2 0x1B64 JUMP JUMPDEST STOP JUMPDEST PUSH1 0x2 PUSH1 0x0 SWAP1 SLOAD SWAP1 PUSH2 0x100 EXP SWAP1 DIV PUSH20 0xFFFFFFFFFFFFFFFFFFFFFFFFFFFFFFFFFFFFFFFF AND DUP2 JUMP JUMPDEST PUSH1 0x0 SELFBALANCE SWAP1 POP SWAP1 JUMP JUMPDEST PUSH1 0x7 PUSH1 0x1 SWAP1 SLOAD SWAP1 PUSH2 0x100 EXP SWAP1 DIV PUSH1 0xFF AND DUP2 JUMP JUMPDEST PUSH1 0x8 SLOAD DUP2 JUMP JUMPDEST PUSH1 0x4 PUSH1 0x0 SWAP1 SLOAD SWAP1 PUSH2 0x100 EXP SWAP1 DIV PUSH20 0xFFFFFFFFFFFFFFFFFFFFFFFFFFFFFFFFFFFFFFFF AND DUP2 JUMP JUMPDEST PUSH1 0xA SLOAD DUP2 JUMP JUMPDEST PUSH1 0x7 PUSH1 0x0 SWAP1 SLOAD SWAP1 PUSH2 0x100 EXP SWAP1 DIV PUSH1 0xFF AND DUP2 JUMP JUMPDEST PUSH1 0x7 PUSH1 0x0 SWAP1 SLOAD SWAP1 PUSH2 0x100 EXP SWAP1 DIV PUSH1 0xFF AND PUSH2 0x74E JUMPI PUSH1 0x40 MLOAD PUSH32 0x8C379A000000000000000000000000000000000000000000000000000000000 DUP2 MSTORE PUSH1 0x4 ADD PUSH2 0x745 SWAP1 PUSH2 0x248C JUMP JUMPDEST PUSH1 0x40 MLOAD DUP1 SWAP2 SUB SWAP1 REVERT JUMPDEST PUSH1 0x7 PUSH1 0x2 SWAP1 SLOAD SWAP1 PUSH2 0x100 EXP SWAP1 DIV PUSH1 0xFF AND ISZERO PUSH2 0x79E JUMPI PUSH1 0x40 MLOAD PUSH32 0x8C379A000000000000000000000000000000000000000000000000000000000 DUP2 MSTORE PUSH1 0x4 ADD PUSH2 0x795 SWAP1 PUSH2 0x24F8 JUMP JUMPDEST PUSH1 0x40 MLOAD DUP1 SWAP2 SUB SWAP1 REVERT JUMPDEST PUSH1 0x6 SLOAD TIMESTAMP LT PUSH2 0x7E2 JUMPI PUSH1 0x40 MLOAD PUSH32 0x8C379A000000000000000000000000000000000000000000000000000000000 DUP2 MSTORE PUSH1 0x4 ADD PUSH2 0x7D9 SWAP1 PUSH2 0x2564 JUMP JUMPDEST PUSH1 0x40 MLOAD DUP1 SWAP2 SUB SWAP1 REVERT JUMPDEST PUSH1 0x2 PUSH1 0x0 SWAP1 SLOAD SWAP1 PUSH2 0x100 EXP SWAP1 DIV PUSH20 0xFFFFFFFFFFFFFFFFFFFFFFFFFFFFFFFFFFFFFFFF AND PUSH20 0xFFFFFFFFFFFFFFFFFFFFFFFFFFFFFFFFFFFFFFFF AND CALLER PUSH20 0xFFFFFFFFFFFFFFFFFFFFFFFFFFFFFFFFFFFFFFFF AND SUB PUSH2 0x872 JUMPI PUSH1 0x40 MLOAD PUSH32 0x8C379A000000000000000000000000000000000000000000000000000000000 DUP2 MSTORE PUSH1 0x4 ADD PUSH2 0x869 SWAP1 PUSH2 0x25D0 JUMP JUMPDEST PUSH1 0x40 MLOAD DUP1 SWAP2 SUB SWAP1 REVERT JUMPDEST PUSH2 0x87B CALLER PUSH2 0x1D52 JUMP JUMPDEST PUSH2 0x8BA JUMPI PUSH1 0x40 MLOAD PUSH32 0x8C379A000000000000000000000000000000000000000000000000000000000 DUP2 MSTORE PUSH1 0x4 ADD PUSH2 0x8B1 SWAP1 PUSH2 0x263C JUMP JUMPDEST PUSH1 0x40 MLOAD DUP1 SWAP2 SUB SWAP1 REVERT JUMPDEST PUSH1 0xC SLOAD DUP4 GT PUSH2 0x8FE JUMPI PUSH1 0x40 MLOAD PUSH32 0x8C379A000000000000000000000000000000000000000000000000000000000 DUP2 MSTORE PUSH1 0x4 ADD PUSH2 0x8F5 SWAP1 PUSH2 0x26A8 JUMP JUMPDEST PUSH1 0x40 MLOAD DUP1 SWAP2 SUB SWAP1 REVERT JUMPDEST PUSH1 0x0 PUSH1 0x9 SLOAD PUSH2 0x2710 CALLVALUE PUSH2 0x911 SWAP2 SWAP1 PUSH2 0x2726 JUMP JUMPDEST PUSH2 0x91B SWAP2 SWAP1 PUSH2 0x2757 JUMP JUMPDEST SWAP1 POP DUP1 PUSH1 0xA PUSH1 0x0 DUP3 DUP3 SLOAD PUSH2 0x92F SWAP2 SWAP1 PUSH2 0x2799 JUMP JUMPDEST SWAP3 POP POP DUP2 SWAP1 SSTORE POP PUSH2 0x9C6 PUSH1 0xB PUSH1 0x0 SWAP1 SLOAD SWAP1 PUSH2 0x100 EXP SWAP1 DIV PUSH20 0xFFFFFFFFFFFFFFFFFFFFFFFFFFFFFFFFFFFFFFFF AND PUSH1 0xD PUSH1 0x0 PUSH1 0xB PUSH1 0x0 SWAP1 SLOAD SWAP1 PUSH2 0x100 EXP SWAP1 DIV PUSH20 0xFFFFFFFFFFFFFFFFFFFFFFFFFFFFFFFFFFFFFFFF AND PUSH20 0xFFFFFFFFFFFFFFFFFFFFFFFFFFFFFFFFFFFFFFFF AND PUSH20 0xFFFFFFFFFFFFFFFFFFFFFFFFFFFFFFFFFFFFFFFF AND DUP2 MSTORE PUSH1 0x20 ADD SWAP1 DUP2 MSTORE PUSH1 0x20 ADD PUSH1 0x0 KECCAK256 PUSH1 0x4 ADD SLOAD PUSH2 0x1DA8 JUMP JUMPDEST PUSH1 0x0 PUSH1 0xD PUSH1 0x0 CALLER PUSH20 0xFFFFFFFFFFFFFFFFFFFFFFFFFFFFFFFFFFFFFFFF AND PUSH20 0xFFFFFFFFFFFFFFFFFFFFFFFFFFFFFFFFFFFFFFFF AND DUP2 MSTORE PUSH1 0x20 ADD SWAP1 DUP2 MSTORE PUSH1 0x20 ADD PUSH1 0x0 KECCAK256 PUSH1 0x0 ADD SLOAD EQ PUSH2 0xB83 JUMPI DUP1 CALLVALUE PUSH2 0xA1C SWAP2 SWAP1 PUSH2 0x27CD JUMP JUMPDEST PUSH1 0xD PUSH1 0x0 CALLER PUSH20 0xFFFFFFFFFFFFFFFFFFFFFFFFFFFFFFFFFFFFFFFF AND PUSH20 0xFFFFFFFFFFFFFFFFFFFFFFFFFFFFFFFFFFFFFFFF AND DUP2 MSTORE PUSH1 0x20 ADD SWAP1 DUP2 MSTORE PUSH1 0x20 ADD PUSH1 0x0 KECCAK256 PUSH1 0x4 ADD DUP2 SWAP1 SSTORE POP DUP4 PUSH1 0xD PUSH1 0x0 CALLER PUSH20 0xFFFFFFFFFFFFFFFFFFFFFFFFFFFFFFFFFFFFFFFF AND PUSH20 0xFFFFFFFFFFFFFFFFFFFFFFFFFFFFFFFFFFFFFFFF AND DUP2 MSTORE PUSH1 0x20 ADD SWAP1 DUP2 MSTORE PUSH1 0x20 ADD PUSH1 0x0 KECCAK256 PUSH1 0x1 ADD DUP2 SWAP1 SSTORE POP DUP5 PUSH1 0xD PUSH1 0x0 CALLER PUSH20 0xFFFFFFFFFFFFFFFFFFFFFFFFFFFFFFFFFFFFFFFF AND PUSH20 0xFFFFFFFFFFFFFFFFFFFFFFFFFFFFFFFFFFFFFFFF AND DUP2 MSTORE PUSH1 0x20 ADD SWAP1 DUP2 MSTORE PUSH1 0x20 ADD PUSH1 0x0 KECCAK256 PUSH1 0x0 ADD DUP2 SWAP1 SSTORE POP DUP3 PUSH1 0xD PUSH1 0x0 CALLER PUSH20 0xFFFFFFFFFFFFFFFFFFFFFFFFFFFFFFFFFFFFFFFF AND PUSH20 0xFFFFFFFFFFFFFFFFFFFFFFFFFFFFFFFFFFFFFFFF AND DUP2 MSTORE PUSH1 0x20 ADD SWAP1 DUP2 MSTORE PUSH1 0x20 ADD PUSH1 0x0 KECCAK256 PUSH1 0x2 ADD DUP2 SWAP1 SSTORE POP DUP2 PUSH1 0xD PUSH1 0x0 CALLER PUSH20 0xFFFFFFFFFFFFFFFFFFFFFFFFFFFFFFFFFFFFFFFF AND PUSH20 0xFFFFFFFFFFFFFFFFFFFFFFFFFFFFFFFFFFFFFFFF AND DUP2 MSTORE PUSH1 0x20 ADD SWAP1 DUP2 MSTORE PUSH1 0x20 ADD PUSH1 0x0 KECCAK256 PUSH1 0x3 ADD DUP2 SWAP1 SSTORE POP PUSH2 0xC3F JUMP JUMPDEST PUSH2 0xB8B PUSH2 0x1FC7 JUMP JUMPDEST DUP2 CALLVALUE PUSH2 0xB97 SWAP2 SWAP1 PUSH2 0x27CD JUMP JUMPDEST DUP2 PUSH1 0x80 ADD DUP2 DUP2 MSTORE POP POP DUP6 DUP2 PUSH1 0x0 ADD DUP2 DUP2 MSTORE POP POP DUP5 DUP2 PUSH1 0x20 ADD DUP2 DUP2 MSTORE POP POP DUP4 DUP2 PUSH1 0x40 ADD DUP2 DUP2 MSTORE POP POP DUP3 DUP2 PUSH1 0x60 ADD DUP2 DUP2 MSTORE POP POP DUP1 PUSH1 0xD PUSH1 0x0 CALLER PUSH20 0xFFFFFFFFFFFFFFFFFFFFFFFFFFFFFFFFFFFFFFFF AND PUSH20 0xFFFFFFFFFFFFFFFFFFFFFFFFFFFFFFFFFFFFFFFF AND DUP2 MSTORE PUSH1 0x20 ADD SWAP1 DUP2 MSTORE PUSH1 0x20 ADD PUSH1 0x0 KECCAK256 PUSH1 0x0 DUP3 ADD MLOAD DUP2 PUSH1 0x0 ADD SSTORE PUSH1 0x20 DUP3 ADD MLOAD DUP2 PUSH1 0x1 ADD SSTORE PUSH1 0x40 DUP3 ADD MLOAD DUP2 PUSH1 0x2 ADD SSTORE PUSH1 0x60 DUP3 ADD MLOAD DUP2 PUSH1 0x3 ADD SSTORE PUSH1 0x80 DUP3 ADD MLOAD DUP2 PUSH1 0x4 ADD SSTORE SWAP1 POP POP POP JUMPDEST CALLER PUSH1 0xB PUSH1 0x0 PUSH2 0x100 EXP DUP2 SLOAD DUP2 PUSH20 0xFFFFFFFFFFFFFFFFFFFFFFFFFFFFFFFFFFFFFFFF MUL NOT AND SWAP1 DUP4 PUSH20 0xFFFFFFFFFFFFFFFFFFFFFFFFFFFFFFFFFFFFFFFF AND MUL OR SWAP1 SSTORE POP DUP4 PUSH1 0xC DUP2 SWAP1 SSTORE POP PUSH1 0x1 PUSH1 0x8 PUSH1 0x0 DUP3 DUP3 SLOAD PUSH2 0xC9A SWAP2 SWAP1 PUSH2 0x2799 JUMP JUMPDEST SWAP3 POP POP DUP2 SWAP1 SSTORE POP CALLER PUSH20 0xFFFFFFFFFFFFFFFFFFFFFFFFFFFFFFFFFFFFFFFF AND PUSH32 0xE684A55F31B79ECA403DF938249029212A5925EC6BE8012E099B45BC1019E5D2 DUP6 PUSH1 0x40 MLOAD PUSH2 0xCE7 SWAP2 SWAP1 PUSH2 0x20E8 JUMP JUMPDEST PUSH1 0x40 MLOAD DUP1 SWAP2 SUB SWAP1 LOG2 POP POP POP POP POP JUMP JUMPDEST PUSH1 0x2 PUSH1 0x0 SWAP1 SLOAD SWAP1 PUSH2 0x100 EXP SWAP1 DIV PUSH20 0xFFFFFFFFFFFFFFFFFFFFFFFFFFFFFFFFFFFFFFFF AND PUSH20 0xFFFFFFFFFFFFFFFFFFFFFFFFFFFFFFFFFFFFFFFF AND CALLER PUSH20 0xFFFFFFFFFFFFFFFFFFFFFFFFFFFFFFFFFFFFFFFF AND EQ PUSH2 0xD86 JUMPI PUSH1 0x40 MLOAD PUSH32 0x8C379A000000000000000000000000000000000000000000000000000000000 DUP2 MSTORE PUSH1 0x4 ADD PUSH2 0xD7D SWAP1 PUSH2 0x2053 JUMP JUMPDEST PUSH1 0x40 MLOAD DUP1 SWAP2 SUB SWAP1 REVERT JUMPDEST PUSH1 0x6 SLOAD TIMESTAMP LT ISZERO PUSH2 0xDCB JUMPI PUSH1 0x40 MLOAD PUSH32 0x8C379A000000000000000000000000000000000000000000000000000000000 DUP2 MSTORE PUSH1 0x4 ADD PUSH2 0xDC2 SWAP1 PUSH2 0x284D JUMP JUMPDEST PUSH1 0x40 MLOAD DUP1 SWAP2 SUB SWAP1 REVERT JUMPDEST PUSH1 0x0 PUSH20 0xFFFFFFFFFFFFFFFFFFFFFFFFFFFFFFFFFFFFFFFF AND PUSH1 0xB PUSH1 0x0 SWAP1 SLOAD SWAP1 PUSH2 0x100 EXP SWAP1 DIV PUSH20 0xFFFFFFFFFFFFFFFFFFFFFFFFFFFFFFFFFFFFFFFF AND PUSH20 0xFFFFFFFFFFFFFFFFFFFFFFFFFFFFFFFFFFFFFFFF AND EQ PUSH2 0x115E JUMPI PUSH1 0x0 DUP1 SLOAD SWAP1 PUSH2 0x100 EXP SWAP1 DIV PUSH20 0xFFFFFFFFFFFFFFFFFFFFFFFFFFFFFFFFFFFFFFFF AND PUSH20 0xFFFFFFFFFFFFFFFFFFFFFFFFFFFFFFFFFFFFFFFF AND PUSH4 0x42842E0E ADDRESS PUSH1 0xB PUSH1 0x0 SWAP1 SLOAD SWAP1 PUSH2 0x100 EXP SWAP1 DIV PUSH20 0xFFFFFFFFFFFFFFFFFFFFFFFFFFFFFFFFFFFFFFFF AND PUSH1 0x1 SLOAD PUSH1 0x40 MLOAD DUP5 PUSH4 0xFFFFFFFF AND PUSH1 0xE0 SHL DUP2 MSTORE PUSH1 0x4 ADD PUSH2 0xEA2 SWAP4 SWAP3 SWAP2 SWAP1 PUSH2 0x286D JUMP JUMPDEST PUSH1 0x0 PUSH1 0x40 MLOAD DUP1 DUP4 SUB DUP2 PUSH1 0x0 DUP8 DUP1 EXTCODESIZE ISZERO DUP1 ISZERO PUSH2 0xEBC JUMPI PUSH1 0x0 DUP1 REVERT JUMPDEST POP GAS CALL ISZERO DUP1 ISZERO PUSH2 0xED0 JUMPI RETURNDATASIZE PUSH1 0x0 DUP1 RETURNDATACOPY RETURNDATASIZE PUSH1 0x0 REVERT JUMPDEST POP POP POP POP PUSH1 0x0 PUSH1 0x3 PUSH1 0x0 SWAP1 SLOAD SWAP1 PUSH2 0x100 EXP SWAP1 DIV PUSH20 0xFFFFFFFFFFFFFFFFFFFFFFFFFFFFFFFFFFFFFFFF AND PUSH20 0xFFFFFFFFFFFFFFFFFFFFFFFFFFFFFFFFFFFFFFFF AND PUSH1 0xA SLOAD PUSH1 0x40 MLOAD PUSH2 0xF1E SWAP1 PUSH2 0x28D5 JUMP JUMPDEST PUSH1 0x0 PUSH1 0x40 MLOAD DUP1 DUP4 SUB DUP2 DUP6 DUP8 GAS CALL SWAP3 POP POP POP RETURNDATASIZE DUP1 PUSH1 0x0 DUP2 EQ PUSH2 0xF5B JUMPI PUSH1 0x40 MLOAD SWAP2 POP PUSH1 0x1F NOT PUSH1 0x3F RETURNDATASIZE ADD AND DUP3 ADD PUSH1 0x40 MSTORE RETURNDATASIZE DUP3 MSTORE RETURNDATASIZE PUSH1 0x0 PUSH1 0x20 DUP5 ADD RETURNDATACOPY PUSH2 0xF60 JUMP JUMPDEST PUSH1 0x60 SWAP2 POP JUMPDEST POP POP SWAP1 POP DUP1 PUSH2 0xFA4 JUMPI PUSH1 0x40 MLOAD PUSH32 0x8C379A000000000000000000000000000000000000000000000000000000000 DUP2 MSTORE PUSH1 0x4 ADD PUSH2 0xF9B SWAP1 PUSH2 0x2936 JUMP JUMPDEST PUSH1 0x40 MLOAD DUP1 SWAP2 SUB SWAP1 REVERT JUMPDEST PUSH1 0x3 PUSH1 0x0 SWAP1 SLOAD SWAP1 PUSH2 0x100 EXP SWAP1 DIV PUSH20 0xFFFFFFFFFFFFFFFFFFFFFFFFFFFFFFFFFFFFFFFF AND PUSH20 0xFFFFFFFFFFFFFFFFFFFFFFFFFFFFFFFFFFFFFFFF AND PUSH31 0x57D762AD8F1734DE771F2B521B2668347C0CEE2D709A12254662CD5A7D4180 PUSH1 0xA SLOAD PUSH1 0x40 MLOAD PUSH2 0x100D SWAP2 SWAP1 PUSH2 0x20E8 JUMP JUMPDEST PUSH1 0x40 MLOAD DUP1 SWAP2 SUB SWAP1 LOG2 PUSH1 0x0 PUSH1 0x2 PUSH1 0x0 SWAP1 SLOAD SWAP1 PUSH2 0x100 EXP SWAP1 DIV PUSH20 0xFFFFFFFFFFFFFFFFFFFFFFFFFFFFFFFFFFFFFFFF AND PUSH20 0xFFFFFFFFFFFFFFFFFFFFFFFFFFFFFFFFFFFFFFFF AND PUSH1 0xC SLOAD PUSH1 0x40 MLOAD PUSH2 0x105F SWAP1 PUSH2 0x28D5 JUMP JUMPDEST PUSH1 0x0 PUSH1 0x40 MLOAD DUP1 DUP4 SUB DUP2 DUP6 DUP8 GAS CALL SWAP3 POP POP POP RETURNDATASIZE DUP1 PUSH1 0x0 DUP2 EQ PUSH2 0x109C JUMPI PUSH1 0x40 MLOAD SWAP2 POP PUSH1 0x1F NOT PUSH1 0x3F RETURNDATASIZE ADD AND DUP3 ADD PUSH1 0x40 MSTORE RETURNDATASIZE DUP3 MSTORE RETURNDATASIZE PUSH1 0x0 PUSH1 0x20 DUP5 ADD RETURNDATACOPY PUSH2 0x10A1 JUMP JUMPDEST PUSH1 0x60 SWAP2 POP JUMPDEST POP POP SWAP1 POP DUP1 PUSH2 0x10E5 JUMPI PUSH1 0x40 MLOAD PUSH32 0x8C379A000000000000000000000000000000000000000000000000000000000 DUP2 MSTORE PUSH1 0x4 ADD PUSH2 0x10DC SWAP1 PUSH2 0x29A2 JUMP JUMPDEST PUSH1 0x40 MLOAD DUP1 SWAP2 SUB SWAP1 REVERT JUMPDEST PUSH1 0x2 PUSH1 0x0 SWAP1 SLOAD SWAP1 PUSH2 0x100 EXP SWAP1 DIV PUSH20 0xFFFFFFFFFFFFFFFFFFFFFFFFFFFFFFFFFFFFFFFF AND PUSH20 0xFFFFFFFFFFFFFFFFFFFFFFFFFFFFFFFFFFFFFFFF AND PUSH32 0x1C1B1A7E52E22E996A7B9C93EFBF98EEB6171F5ECAA8F5C1C792427B53D29E84 PUSH1 0xC SLOAD PUSH1 0x40 MLOAD PUSH2 0x114F SWAP2 SWAP1 PUSH2 0x20E8 JUMP JUMPDEST PUSH1 0x40 MLOAD DUP1 SWAP2 SUB SWAP1 LOG2 POP POP PUSH2 0x1497 JUMP JUMPDEST PUSH1 0x0 DUP1 SLOAD SWAP1 PUSH2 0x100 EXP SWAP1 DIV PUSH20 0xFFFFFFFFFFFFFFFFFFFFFFFFFFFFFFFFFFFFFFFF AND PUSH20 0xFFFFFFFFFFFFFFFFFFFFFFFFFFFFFFFFFFFFFFFF AND PUSH4 0x42842E0E ADDRESS PUSH1 0x2 PUSH1 0x0 SWAP1 SLOAD SWAP1 PUSH2 0x100 EXP SWAP1 DIV PUSH20 0xFFFFFFFFFFFFFFFFFFFFFFFFFFFFFFFFFFFFFFFF AND PUSH1 0x1 SLOAD PUSH1 0x40 MLOAD DUP5 PUSH4 0xFFFFFFFF AND PUSH1 0xE0 SHL DUP2 MSTORE PUSH1 0x4 ADD PUSH2 0x11DF SWAP4 SWAP3 SWAP2 SWAP1 PUSH2 0x29E3 JUMP JUMPDEST PUSH1 0x0 PUSH1 0x40 MLOAD DUP1 DUP4 SUB DUP2 PUSH1 0x0 DUP8 DUP1 EXTCODESIZE ISZERO DUP1 ISZERO PUSH2 0x11F9 JUMPI PUSH1 0x0 DUP1 REVERT JUMPDEST POP GAS CALL ISZERO DUP1 ISZERO PUSH2 0x120D JUMPI RETURNDATASIZE PUSH1 0x0 DUP1 RETURNDATACOPY RETURNDATASIZE PUSH1 0x0 REVERT JUMPDEST POP POP POP POP PUSH1 0x0 PUSH1 0x3 PUSH1 0x0 SWAP1 SLOAD SWAP1 PUSH2 0x100 EXP SWAP1 DIV PUSH20 0xFFFFFFFFFFFFFFFFFFFFFFFFFFFFFFFFFFFFFFFF AND PUSH20 0xFFFFFFFFFFFFFFFFFFFFFFFFFFFFFFFFFFFFFFFF AND PUSH1 0xA SLOAD PUSH1 0x40 MLOAD PUSH2 0x125B SWAP1 PUSH2 0x28D5 JUMP JUMPDEST PUSH1 0x0 PUSH1 0x40 MLOAD DUP1 DUP4 SUB DUP2 DUP6 DUP8 GAS CALL SWAP3 POP POP POP RETURNDATASIZE DUP1 PUSH1 0x0 DUP2 EQ PUSH2 0x1298 JUMPI PUSH1 0x40 MLOAD SWAP2 POP PUSH1 0x1F NOT PUSH1 0x3F RETURNDATASIZE ADD AND DUP3 ADD PUSH1 0x40 MSTORE RETURNDATASIZE DUP3 MSTORE RETURNDATASIZE PUSH1 0x0 PUSH1 0x20 DUP5 ADD RETURNDATACOPY PUSH2 0x129D JUMP JUMPDEST PUSH1 0x60 SWAP2 POP JUMPDEST POP POP SWAP1 POP DUP1 PUSH2 0x12E1 JUMPI PUSH1 0x40 MLOAD PUSH32 0x8C379A000000000000000000000000000000000000000000000000000000000 DUP2 MSTORE PUSH1 0x4 ADD PUSH2 0x12D8 SWAP1 PUSH2 0x2936 JUMP JUMPDEST PUSH1 0x40 MLOAD DUP1 SWAP2 SUB SWAP1 REVERT JUMPDEST PUSH1 0x3 PUSH1 0x0 SWAP1 SLOAD SWAP1 PUSH2 0x100 EXP SWAP1 DIV PUSH20 0xFFFFFFFFFFFFFFFFFFFFFFFFFFFFFFFFFFFFFFFF AND PUSH20 0xFFFFFFFFFFFFFFFFFFFFFFFFFFFFFFFFFFFFFFFF AND PUSH31 0x57D762AD8F1734DE771F2B521B2668347C0CEE2D709A12254662CD5A7D4180 PUSH1 0xA SLOAD PUSH1 0x40 MLOAD PUSH2 0x134A SWAP2 SWAP1 PUSH2 0x20E8 JUMP JUMPDEST PUSH1 0x40 MLOAD DUP1 SWAP2 SUB SWAP1 LOG2 PUSH1 0x0 PUSH1 0x2 PUSH1 0x0 SWAP1 SLOAD SWAP1 PUSH2 0x100 EXP SWAP1 DIV PUSH20 0xFFFFFFFFFFFFFFFFFFFFFFFFFFFFFFFFFFFFFFFF AND PUSH20 0xFFFFFFFFFFFFFFFFFFFFFFFFFFFFFFFFFFFFFFFF AND PUSH1 0xC SLOAD PUSH1 0x40 MLOAD PUSH2 0x139C SWAP1 PUSH2 0x28D5 JUMP JUMPDEST PUSH1 0x0 PUSH1 0x40 MLOAD DUP1 DUP4 SUB DUP2 DUP6 DUP8 GAS CALL SWAP3 POP POP POP RETURNDATASIZE DUP1 PUSH1 0x0 DUP2 EQ PUSH2 0x13D9 JUMPI PUSH1 0x40 MLOAD SWAP2 POP PUSH1 0x1F NOT PUSH1 0x3F RETURNDATASIZE ADD AND DUP3 ADD PUSH1 0x40 MSTORE RETURNDATASIZE DUP3 MSTORE RETURNDATASIZE PUSH1 0x0 PUSH1 0x20 DUP5 ADD RETURNDATACOPY PUSH2 0x13DE JUMP JUMPDEST PUSH1 0x60 SWAP2 POP JUMPDEST POP POP SWAP1 POP DUP1 PUSH2 0x1422 JUMPI PUSH1 0x40 MLOAD PUSH32 0x8C379A000000000000000000000000000000000000000000000000000000000 DUP2 MSTORE PUSH1 0x4 ADD PUSH2 0x1419 SWAP1 PUSH2 0x29A2 JUMP JUMPDEST PUSH1 0x40 MLOAD DUP1 SWAP2 SUB SWAP1 REVERT JUMPDEST PUSH1 0x2 PUSH1 0x0 SWAP1 SLOAD SWAP1 PUSH2 0x100 EXP SWAP1 DIV PUSH20 0xFFFFFFFFFFFFFFFFFFFFFFFFFFFFFFFFFFFFFFFF AND PUSH20 0xFFFFFFFFFFFFFFFFFFFFFFFFFFFFFFFFFFFFFFFF AND PUSH32 0x1C1B1A7E52E22E996A7B9C93EFBF98EEB6171F5ECAA8F5C1C792427B53D29E84 PUSH1 0xC SLOAD PUSH1 0x40 MLOAD PUSH2 0x148C SWAP2 SWAP1 PUSH2 0x20E8 JUMP JUMPDEST PUSH1 0x40 MLOAD DUP1 SWAP2 SUB SWAP1 LOG2 POP POP JUMPDEST JUMP JUMPDEST PUSH1 0x3 PUSH1 0x0 SWAP1 SLOAD SWAP1 PUSH2 0x100 EXP SWAP1 DIV PUSH20 0xFFFFFFFFFFFFFFFFFFFFFFFFFFFFFFFFFFFFFFFF AND DUP2 JUMP JUMPDEST PUSH1 0x0 DUP1 SLOAD SWAP1 PUSH2 0x100 EXP SWAP1 DIV PUSH20 0xFFFFFFFFFFFFFFFFFFFFFFFFFFFFFFFFFFFFFFFF AND DUP2 JUMP JUMPDEST PUSH1 0x2 PUSH1 0x0 SWAP1 SLOAD SWAP1 PUSH2 0x100 EXP SWAP1 DIV PUSH20 0xFFFFFFFFFFFFFFFFFFFFFFFFFFFFFFFFFFFFFFFF AND PUSH20 0xFFFFFFFFFFFFFFFFFFFFFFFFFFFFFFFFFFFFFFFF AND CALLER PUSH20 0xFFFFFFFFFFFFFFFFFFFFFFFFFFFFFFFFFFFFFFFF AND EQ PUSH2 0x1573 JUMPI PUSH1 0x40 MLOAD PUSH32 0x8C379A000000000000000000000000000000000000000000000000000000000 DUP2 MSTORE PUSH1 0x4 ADD PUSH2 0x156A SWAP1 PUSH2 0x2053 JUMP JUMPDEST PUSH1 0x40 MLOAD DUP1 SWAP2 SUB SWAP1 REVERT JUMPDEST DUP1 PUSH1 0xE PUSH1 0x0 DUP5 PUSH20 0xFFFFFFFFFFFFFFFFFFFFFFFFFFFFFFFFFFFFFFFF AND PUSH20 0xFFFFFFFFFFFFFFFFFFFFFFFFFFFFFFFFFFFFFFFF AND DUP2 MSTORE PUSH1 0x20 ADD SWAP1 DUP2 MSTORE PUSH1 0x20 ADD PUSH1 0x0 KECCAK256 PUSH1 0x0 PUSH2 0x100 EXP DUP2 SLOAD DUP2 PUSH1 0xFF MUL NOT AND SWAP1 DUP4 ISZERO ISZERO MUL OR SWAP1 SSTORE POP DUP2 PUSH20 0xFFFFFFFFFFFFFFFFFFFFFFFFFFFFFFFFFFFFFFFF AND PUSH32 0xC2C8BEFFDF047B9E6C79B0E9DCD0BD71D174D84F52E013102FCC0E200DD58EE0 DUP3 PUSH1 0x40 MLOAD PUSH2 0x1610 SWAP2 SWAP1 PUSH2 0x211E JUMP JUMPDEST PUSH1 0x40 MLOAD DUP1 SWAP2 SUB SWAP1 LOG2 POP POP JUMP JUMPDEST PUSH1 0x7 PUSH1 0x2 SWAP1 SLOAD SWAP1 PUSH2 0x100 EXP SWAP1 DIV PUSH1 0xFF AND DUP2 JUMP JUMPDEST PUSH1 0x2 PUSH1 0x0 SWAP1 SLOAD SWAP1 PUSH2 0x100 EXP SWAP1 DIV PUSH20 0xFFFFFFFFFFFFFFFFFFFFFFFFFFFFFFFFFFFFFFFF AND PUSH20 0xFFFFFFFFFFFFFFFFFFFFFFFFFFFFFFFFFFFFFFFF AND CALLER PUSH20 0xFFFFFFFFFFFFFFFFFFFFFFFFFFFFFFFFFFFFFFFF AND EQ PUSH2 0x16BF JUMPI PUSH1 0x40 MLOAD PUSH32 0x8C379A000000000000000000000000000000000000000000000000000000000 DUP2 MSTORE PUSH1 0x4 ADD PUSH2 0x16B6 SWAP1 PUSH2 0x2053 JUMP JUMPDEST PUSH1 0x40 MLOAD DUP1 SWAP2 SUB SWAP1 REVERT JUMPDEST PUSH1 0x7 PUSH1 0x0 SWAP1 SLOAD SWAP1 PUSH2 0x100 EXP SWAP1 DIV PUSH1 0xFF AND ISZERO PUSH2 0x170F JUMPI PUSH1 0x40 MLOAD PUSH32 0x8C379A000000000000000000000000000000000000000000000000000000000 DUP2 MSTORE PUSH1 0x4 ADD PUSH2 0x1706 SWAP1 PUSH2 0x2A66 JUMP JUMPDEST PUSH1 0x40 MLOAD DUP1 SWAP2 SUB SWAP1 REVERT JUMPDEST PUSH1 0x0 DUP1 SLOAD SWAP1 PUSH2 0x100 EXP SWAP1 DIV PUSH20 0xFFFFFFFFFFFFFFFFFFFFFFFFFFFFFFFFFFFFFFFF AND PUSH20 0xFFFFFFFFFFFFFFFFFFFFFFFFFFFFFFFFFFFFFFFF AND PUSH4 0x23B872DD CALLER ADDRESS PUSH1 0x1 SLOAD PUSH1 0x40 MLOAD DUP5 PUSH4 0xFFFFFFFF AND PUSH1 0xE0 SHL DUP2 MSTORE PUSH1 0x4 ADD PUSH2 0x176E SWAP4 SWAP3 SWAP2 SWAP1 PUSH2 0x286D JUMP JUMPDEST PUSH1 0x0 PUSH1 0x40 MLOAD DUP1 DUP4 SUB DUP2 PUSH1 0x0 DUP8 DUP1 EXTCODESIZE ISZERO DUP1 ISZERO PUSH2 0x1788 JUMPI PUSH1 0x0 DUP1 REVERT JUMPDEST POP GAS CALL ISZERO DUP1 ISZERO PUSH2 0x179C JUMPI RETURNDATASIZE PUSH1 0x0 DUP1 RETURNDATACOPY RETURNDATASIZE PUSH1 0x0 REVERT JUMPDEST POP POP POP POP PUSH1 0x1 PUSH1 0x7 PUSH1 0x0 PUSH2 0x100 EXP DUP2 SLOAD DUP2 PUSH1 0xFF MUL NOT AND SWAP1 DUP4 ISZERO ISZERO MUL OR SWAP1 SSTORE POP PUSH32 0xD295EBF0A48A9A43D600A6ECB8626BAA711D5750DEC13A08145013AA30CB92EA PUSH1 0x40 MLOAD PUSH1 0x40 MLOAD DUP1 SWAP2 SUB SWAP1 LOG1 JUMP JUMPDEST PUSH1 0x6 SLOAD DUP2 JUMP JUMPDEST PUSH1 0xB PUSH1 0x0 SWAP1 SLOAD SWAP1 PUSH2 0x100 EXP SWAP1 DIV PUSH20 0xFFFFFFFFFFFFFFFFFFFFFFFFFFFFFFFFFFFFFFFF AND DUP2 JUMP JUMPDEST PUSH1 0xD PUSH1 0x20 MSTORE DUP1 PUSH1 0x0 MSTORE PUSH1 0x40 PUSH1 0x0 KECCAK256 PUSH1 0x0 SWAP2 POP SWAP1 POP DUP1 PUSH1 0x0 ADD SLOAD SWAP1 DUP1 PUSH1 0x1 ADD SLOAD SWAP1 DUP1 PUSH1 0x2 ADD SLOAD SWAP1 DUP1 PUSH1 0x3 ADD SLOAD SWAP1 DUP1 PUSH1 0x4 ADD SLOAD SWAP1 POP DUP6 JUMP JUMPDEST PUSH1 0x2 PUSH1 0x0 SWAP1 SLOAD SWAP1 PUSH2 0x100 EXP SWAP1 DIV PUSH20 0xFFFFFFFFFFFFFFFFFFFFFFFFFFFFFFFFFFFFFFFF AND PUSH20 0xFFFFFFFFFFFFFFFFFFFFFFFFFFFFFFFFFFFFFFFF AND CALLER PUSH20 0xFFFFFFFFFFFFFFFFFFFFFFFFFFFFFFFFFFFFFFFF AND EQ PUSH2 0x18DB JUMPI PUSH1 0x40 MLOAD PUSH32 0x8C379A000000000000000000000000000000000000000000000000000000000 DUP2 MSTORE PUSH1 0x4 ADD PUSH2 0x18D2 SWAP1 PUSH2 0x2053 JUMP JUMPDEST PUSH1 0x40 MLOAD DUP1 SWAP2 SUB SWAP1 REVERT JUMPDEST PUSH1 0x7 PUSH1 0x2 SWAP1 SLOAD SWAP1 PUSH2 0x100 EXP SWAP1 DIV PUSH1 0xFF AND ISZERO PUSH2 0x192B JUMPI PUSH1 0x40 MLOAD PUSH32 0x8C379A000000000000000000000000000000000000000000000000000000000 DUP2 MSTORE PUSH1 0x4 ADD PUSH2 0x1922 SWAP1 PUSH2 0x2AD2 JUMP JUMPDEST PUSH1 0x40 MLOAD DUP1 SWAP2 SUB SWAP1 REVERT JUMPDEST PUSH1 0x1 PUSH1 0x7 PUSH1 0x2 PUSH2 0x100 EXP DUP2 SLOAD DUP2 PUSH1 0xFF MUL NOT AND SWAP1 DUP4 ISZERO ISZERO MUL OR SWAP1 SSTORE POP PUSH32 0xDEE06086E53B718FD5176FDAA88A207819A06A56B42087AC2CAB84D32A335654 CALLER PUSH1 0x40 MLOAD PUSH2 0x1975 SWAP2 SWAP1 PUSH2 0x215A JUMP JUMPDEST PUSH1 0x40 MLOAD DUP1 SWAP2 SUB SWAP1 LOG1 JUMP JUMPDEST PUSH1 0x0 PUSH2 0x198A DUP3 PUSH2 0x1D52 JUMP JUMPDEST SWAP1 POP SWAP2 SWAP1 POP JUMP JUMPDEST PUSH1 0x1 SLOAD DUP2 JUMP JUMPDEST PUSH1 0x2 PUSH1 0x0 SWAP1 SLOAD SWAP1 PUSH2 0x100 EXP SWAP1 DIV PUSH20 0xFFFFFFFFFFFFFFFFFFFFFFFFFFFFFFFFFFFFFFFF AND PUSH20 0xFFFFFFFFFFFFFFFFFFFFFFFFFFFFFFFFFFFFFFFF AND CALLER PUSH20 0xFFFFFFFFFFFFFFFFFFFFFFFFFFFFFFFFFFFFFFFF AND EQ PUSH2 0x1A27 JUMPI PUSH1 0x40 MLOAD PUSH32 0x8C379A000000000000000000000000000000000000000000000000000000000 DUP2 MSTORE PUSH1 0x4 ADD PUSH2 0x1A1E SWAP1 PUSH2 0x2053 JUMP JUMPDEST PUSH1 0x40 MLOAD DUP1 SWAP2 SUB SWAP1 REVERT JUMPDEST PUSH1 0x7 PUSH1 0x2 SWAP1 SLOAD SWAP1 PUSH2 0x100 EXP SWAP1 DIV PUSH1 0xFF AND PUSH2 0x1A76 JUMPI PUSH1 0x40 MLOAD PUSH32 0x8C379A000000000000000000000000000000000000000000000000000000000 DUP2 MSTORE PUSH1 0x4 ADD PUSH2 0x1A6D SWAP1 PUSH2 0x2B3E JUMP JUMPDEST PUSH1 0x40 MLOAD DUP1 SWAP2 SUB SWAP1 REVERT JUMPDEST PUSH1 0x0 PUSH1 0x7 PUSH1 0x2 PUSH2 0x100 EXP DUP2 SLOAD DUP2 PUSH1 0xFF MUL NOT AND SWAP1 DUP4 ISZERO ISZERO MUL OR SWAP1 SSTORE POP PUSH32 0xC1A02E947CF77134ED09AC0692636F0553306DB51FFE4A1D9E7B51B4DCD9C762 CALLER PUSH1 0x40 MLOAD PUSH2 0x1AC0 SWAP2 SWAP1 PUSH2 0x215A JUMP JUMPDEST PUSH1 0x40 MLOAD DUP1 SWAP2 SUB SWAP1 LOG1 JUMP JUMPDEST PUSH1 0xC SLOAD DUP2 JUMP JUMPDEST PUSH1 0x5 DUP1 SLOAD PUSH2 0x1ADD SWAP1 PUSH2 0x2B8D JUMP JUMPDEST DUP1 PUSH1 0x1F ADD PUSH1 0x20 DUP1 SWAP2 DIV MUL PUSH1 0x20 ADD PUSH1 0x40 MLOAD SWAP1 DUP2 ADD PUSH1 0x40 MSTORE DUP1 SWAP3 SWAP2 SWAP1 DUP2 DUP2 MSTORE PUSH1 0x20 ADD DUP3 DUP1 SLOAD PUSH2 0x1B09 SWAP1 PUSH2 0x2B8D JUMP JUMPDEST DUP1 ISZERO PUSH2 0x1B56 JUMPI DUP1 PUSH1 0x1F LT PUSH2 0x1B2B JUMPI PUSH2 0x100 DUP1 DUP4 SLOAD DIV MUL DUP4 MSTORE SWAP2 PUSH1 0x20 ADD SWAP2 PUSH2 0x1B56 JUMP JUMPDEST DUP3 ADD SWAP2 SWAP1 PUSH1 0x0 MSTORE PUSH1 0x20 PUSH1 0x0 KECCAK256 SWAP1 JUMPDEST DUP2 SLOAD DUP2 MSTORE SWAP1 PUSH1 0x1 ADD SWAP1 PUSH1 0x20 ADD DUP1 DUP4 GT PUSH2 0x1B39 JUMPI DUP3 SWAP1 SUB PUSH1 0x1F AND DUP3 ADD SWAP2 JUMPDEST POP POP POP POP POP DUP2 JUMP JUMPDEST PUSH2 0x2710 DUP2 JUMP JUMPDEST PUSH1 0x2 PUSH1 0x0 SWAP1 SLOAD SWAP1 PUSH2 0x100 EXP SWAP1 DIV PUSH20 0xFFFFFFFFFFFFFFFFFFFFFFFFFFFFFFFFFFFFFFFF AND PUSH20 0xFFFFFFFFFFFFFFFFFFFFFFFFFFFFFFFFFFFFFFFF AND CALLER PUSH20 0xFFFFFFFFFFFFFFFFFFFFFFFFFFFFFFFFFFFFFFFF AND EQ PUSH2 0x1BF4 JUMPI PUSH1 0x40 MLOAD PUSH32 0x8C379A000000000000000000000000000000000000000000000000000000000 DUP2 MSTORE PUSH1 0x4 ADD PUSH2 0x1BEB SWAP1 PUSH2 0x2053 JUMP JUMPDEST PUSH1 0x40 MLOAD DUP1 SWAP2 SUB SWAP1 REVERT JUMPDEST PUSH1 0x7 PUSH1 0x0 SWAP1 SLOAD SWAP1 PUSH2 0x100 EXP SWAP1 DIV PUSH1 0xFF AND PUSH2 0x1C43 JUMPI PUSH1 0x40 MLOAD PUSH32 0x8C379A000000000000000000000000000000000000000000000000000000000 DUP2 MSTORE PUSH1 0x4 ADD PUSH2 0x1C3A SWAP1 PUSH2 0x248C JUMP JUMPDEST PUSH1 0x40 MLOAD DUP1 SWAP2 SUB SWAP1 REVERT JUMPDEST PUSH1 0x6 SLOAD TIMESTAMP LT ISZERO PUSH2 0x1C88 JUMPI PUSH1 0x40 MLOAD PUSH32 0x8C379A000000000000000000000000000000000000000000000000000000000 DUP2 MSTORE PUSH1 0x4 ADD PUSH2 0x1C7F SWAP1 PUSH2 0x284D JUMP JUMPDEST PUSH1 0x40 MLOAD DUP1 SWAP2 SUB SWAP1 REVERT JUMPDEST PUSH1 0x7 PUSH1 0x1 SWAP1 SLOAD SWAP1 PUSH2 0x100 EXP SWAP1 DIV PUSH1 0xFF AND ISZERO PUSH2 0x1CD8 JUMPI PUSH1 0x40 MLOAD PUSH32 0x8C379A000000000000000000000000000000000000000000000000000000000 DUP2 MSTORE PUSH1 0x4 ADD PUSH2 0x1CCF SWAP1 PUSH2 0x2C0A JUMP JUMPDEST PUSH1 0x40 MLOAD DUP1 SWAP2 SUB SWAP1 REVERT JUMPDEST PUSH1 0x1 PUSH1 0x7 PUSH1 0x1 PUSH2 0x100 EXP DUP2 SLOAD DUP2 PUSH1 0xFF MUL NOT AND SWAP1 DUP4 ISZERO ISZERO MUL OR SWAP1 SSTORE POP PUSH32 0xCA09734D1FC32150404DC9252B4D991C6BEE44319031B7159C03D5AE2C062704 PUSH1 0xB PUSH1 0x0 SWAP1 SLOAD SWAP1 PUSH2 0x100 EXP SWAP1 DIV PUSH20 0xFFFFFFFFFFFFFFFFFFFFFFFFFFFFFFFFFFFFFFFF AND PUSH1 0xC SLOAD PUSH1 0x40 MLOAD PUSH2 0x1D48 SWAP3 SWAP2 SWAP1 PUSH2 0x2C2A JUMP JUMPDEST PUSH1 0x40 MLOAD DUP1 SWAP2 SUB SWAP1 LOG1 JUMP JUMPDEST PUSH1 0x0 PUSH1 0xE PUSH1 0x0 DUP4 PUSH20 0xFFFFFFFFFFFFFFFFFFFFFFFFFFFFFFFFFFFFFFFF AND PUSH20 0xFFFFFFFFFFFFFFFFFFFFFFFFFFFFFFFFFFFFFFFF AND DUP2 MSTORE PUSH1 0x20 ADD SWAP1 DUP2 MSTORE PUSH1 0x20 ADD PUSH1 0x0 KECCAK256 PUSH1 0x0 SWAP1 SLOAD SWAP1 PUSH2 0x100 EXP SWAP1 DIV PUSH1 0xFF AND SWAP1 POP SWAP2 SWAP1 POP JUMP JUMPDEST PUSH1 0x0 DUP3 PUSH20 0xFFFFFFFFFFFFFFFFFFFFFFFFFFFFFFFFFFFFFFFF AND DUP3 PUSH1 0x40 MLOAD PUSH2 0x1DCE SWAP1 PUSH2 0x28D5 JUMP JUMPDEST PUSH1 0x0 PUSH1 0x40 MLOAD DUP1 DUP4 SUB DUP2 DUP6 DUP8 GAS CALL SWAP3 POP POP POP RETURNDATASIZE DUP1 PUSH1 0x0 DUP2 EQ PUSH2 0x1E0B JUMPI PUSH1 0x40 MLOAD SWAP2 POP PUSH1 0x1F NOT PUSH1 0x3F RETURNDATASIZE ADD AND DUP3 ADD PUSH1 0x40 MSTORE RETURNDATASIZE DUP3 MSTORE RETURNDATASIZE PUSH1 0x0 PUSH1 0x20 DUP5 ADD RETURNDATACOPY PUSH2 0x1E10 JUMP JUMPDEST PUSH1 0x60 SWAP2 POP JUMPDEST POP POP SWAP1 POP DUP1 PUSH2 0x1E54 JUMPI PUSH1 0x40 MLOAD PUSH32 0x8C379A000000000000000000000000000000000000000000000000000000000 DUP2 MSTORE PUSH1 0x4 ADD PUSH2 0x1E4B SWAP1 PUSH2 0x29A2 JUMP JUMPDEST PUSH1 0x40 MLOAD DUP1 SWAP2 SUB SWAP1 REVERT JUMPDEST PUSH1 0x0 PUSH1 0xD PUSH1 0x0 CALLER PUSH20 0xFFFFFFFFFFFFFFFFFFFFFFFFFFFFFFFFFFFFFFFF AND PUSH20 0xFFFFFFFFFFFFFFFFFFFFFFFFFFFFFFFFFFFFFFFF AND DUP2 MSTORE PUSH1 0x20 ADD SWAP1 DUP2 MSTORE PUSH1 0x20 ADD PUSH1 0x0 KECCAK256 PUSH1 0x4 ADD DUP2 SWAP1 SSTORE POP PUSH1 0x0 PUSH1 0xD PUSH1 0x0 CALLER PUSH20 0xFFFFFFFFFFFFFFFFFFFFFFFFFFFFFFFFFFFFFFFF AND PUSH20 0xFFFFFFFFFFFFFFFFFFFFFFFFFFFFFFFFFFFFFFFF AND DUP2 MSTORE PUSH1 0x20 ADD SWAP1 DUP2 MSTORE PUSH1 0x20 ADD PUSH1 0x0 KECCAK256 PUSH1 0x0 ADD DUP2 SWAP1 SSTORE POP PUSH1 0x0 PUSH1 0xD PUSH1 0x0 CALLER PUSH20 0xFFFFFFFFFFFFFFFFFFFFFFFFFFFFFFFFFFFFFFFF AND PUSH20 0xFFFFFFFFFFFFFFFFFFFFFFFFFFFFFFFFFFFFFFFF AND DUP2 MSTORE PUSH1 0x20 ADD SWAP1 DUP2 MSTORE PUSH1 0x20 ADD PUSH1 0x0 KECCAK256 PUSH1 0x2 ADD DUP2 SWAP1 SSTORE POP PUSH1 0x0 PUSH1 0xD PUSH1 0x0 CALLER PUSH20 0xFFFFFFFFFFFFFFFFFFFFFFFFFFFFFFFFFFFFFFFF AND PUSH20 0xFFFFFFFFFFFFFFFFFFFFFFFFFFFFFFFFFFFFFFFF AND DUP2 MSTORE PUSH1 0x20 ADD SWAP1 DUP2 MSTORE PUSH1 0x20 ADD PUSH1 0x0 KECCAK256 PUSH1 0x3 ADD DUP2 SWAP1 SSTORE POP DUP3 PUSH20 0xFFFFFFFFFFFFFFFFFFFFFFFFFFFFFFFFFFFFFFFF AND PUSH32 0xE523757EEE9C213543AF9B06C96E0629DA383D3149173F4A03AB96D8FF526760 DUP4 PUSH1 0x40 MLOAD PUSH2 0x1FBA SWAP2 SWAP1 PUSH2 0x20E8 JUMP JUMPDEST PUSH1 0x40 MLOAD DUP1 SWAP2 SUB SWAP1 LOG2 POP POP POP JUMP JUMPDEST PUSH1 0x40 MLOAD DUP1 PUSH1 0xA0 ADD PUSH1 0x40 MSTORE DUP1 PUSH1 0x0 DUP2 MSTORE PUSH1 0x20 ADD PUSH1 0x0 DUP2 MSTORE PUSH1 0x20 ADD PUSH1 0x0 DUP2 MSTORE PUSH1 0x20 ADD PUSH1 0x0 DUP2 MSTORE PUSH1 0x20 ADD PUSH1 0x0 DUP2 MSTORE POP SWAP1 JUMP JUMPDEST PUSH1 0x0 DUP3 DUP3 MSTORE PUSH1 0x20 DUP3 ADD SWAP1 POP SWAP3 SWAP2 POP POP JUMP JUMPDEST PUSH32 0x53656E646572206973206E6F74206F776E657200000000000000000000000000 PUSH1 0x0 DUP3 ADD MSTORE POP JUMP JUMPDEST PUSH1 0x0 PUSH2 0x203D PUSH1 0x13 DUP4 PUSH2 0x1FF6 JUMP JUMPDEST SWAP2 POP PUSH2 0x2048 DUP3 PUSH2 0x2007 JUMP JUMPDEST PUSH1 0x20 DUP3 ADD SWAP1 POP SWAP2 SWAP1 POP JUMP JUMPDEST PUSH1 0x0 PUSH1 0x20 DUP3 ADD SWAP1 POP DUP2 DUP2 SUB PUSH1 0x0 DUP4 ADD MSTORE PUSH2 0x206C DUP2 PUSH2 0x2030 JUMP JUMPDEST SWAP1 POP SWAP2 SWAP1 POP JUMP JUMPDEST PUSH1 0x0 PUSH20 0xFFFFFFFFFFFFFFFFFFFFFFFFFFFFFFFFFFFFFFFF DUP3 AND SWAP1 POP SWAP2 SWAP1 POP JUMP JUMPDEST PUSH1 0x0 PUSH2 0x209E DUP3 PUSH2 0x2073 JUMP JUMPDEST SWAP1 POP SWAP2 SWAP1 POP JUMP JUMPDEST PUSH2 0x20AE DUP2 PUSH2 0x2093 JUMP JUMPDEST DUP3 MSTORE POP POP JUMP JUMPDEST PUSH1 0x0 PUSH1 0x20 DUP3 ADD SWAP1 POP PUSH2 0x20C9 PUSH1 0x0 DUP4 ADD DUP5 PUSH2 0x20A5 JUMP JUMPDEST SWAP3 SWAP2 POP POP JUMP JUMPDEST PUSH1 0x0 DUP2 SWAP1 POP SWAP2 SWAP1 POP JUMP JUMPDEST PUSH2 0x20E2 DUP2 PUSH2 0x20CF JUMP JUMPDEST DUP3 MSTORE POP POP JUMP JUMPDEST PUSH1 0x0 PUSH1 0x20 DUP3 ADD SWAP1 POP PUSH2 0x20FD PUSH1 0x0 DUP4 ADD DUP5 PUSH2 0x20D9 JUMP JUMPDEST SWAP3 SWAP2 POP POP JUMP JUMPDEST PUSH1 0x0 DUP2 ISZERO ISZERO SWAP1 POP SWAP2 SWAP1 POP JUMP JUMPDEST PUSH2 0x2118 DUP2 PUSH2 0x2103 JUMP JUMPDEST DUP3 MSTORE POP POP JUMP JUMPDEST PUSH1 0x0 PUSH1 0x20 DUP3 ADD SWAP1 POP PUSH2 0x2133 PUSH1 0x0 DUP4 ADD DUP5 PUSH2 0x210F JUMP JUMPDEST SWAP3 SWAP2 POP POP JUMP JUMPDEST PUSH1 0x0 PUSH2 0x2144 DUP3 PUSH2 0x2073 JUMP JUMPDEST SWAP1 POP SWAP2 SWAP1 POP JUMP JUMPDEST PUSH2 0x2154 DUP2 PUSH2 0x2139 JUMP JUMPDEST DUP3 MSTORE POP POP JUMP JUMPDEST PUSH1 0x0 PUSH1 0x20 DUP3 ADD SWAP1 POP PUSH2 0x216F PUSH1 0x0 DUP4 ADD DUP5 PUSH2 0x214B JUMP JUMPDEST SWAP3 SWAP2 POP POP JUMP JUMPDEST PUSH1 0x0 DUP1 REVERT JUMPDEST PUSH2 0x2183 DUP2 PUSH2 0x20CF JUMP JUMPDEST DUP2 EQ PUSH2 0x218E JUMPI PUSH1 0x0 DUP1 REVERT JUMPDEST POP JUMP JUMPDEST PUSH1 0x0 DUP2 CALLDATALOAD SWAP1 POP PUSH2 0x21A0 DUP2 PUSH2 0x217A JUMP JUMPDEST SWAP3 SWAP2 POP POP JUMP JUMPDEST PUSH1 0x0 DUP1 PUSH1 0x0 DUP1 PUSH1 0x80 DUP6 DUP8 SUB SLT ISZERO PUSH2 0x21C0 JUMPI PUSH2 0x21BF PUSH2 0x2175 JUMP JUMPDEST JUMPDEST PUSH1 0x0 PUSH2 0x21CE DUP8 DUP3 DUP9 ADD PUSH2 0x2191 JUMP JUMPDEST SWAP5 POP POP PUSH1 0x20 PUSH2 0x21DF DUP8 DUP3 DUP9 ADD PUSH2 0x2191 JUMP JUMPDEST SWAP4 POP POP PUSH1 0x40 PUSH2 0x21F0 DUP8 DUP3 DUP9 ADD PUSH2 0x2191 JUMP JUMPDEST SWAP3 POP POP PUSH1 0x60 PUSH2 0x2201 DUP8 DUP3 DUP9 ADD PUSH2 0x2191 JUMP JUMPDEST SWAP2 POP POP SWAP3 SWAP6 SWAP2 SWAP5 POP SWAP3 POP JUMP JUMPDEST PUSH1 0x0 DUP2 SWAP1 POP SWAP2 SWAP1 POP JUMP JUMPDEST PUSH1 0x0 PUSH2 0x2232 PUSH2 0x222D PUSH2 0x2228 DUP5 PUSH2 0x2073 JUMP JUMPDEST PUSH2 0x220D JUMP JUMPDEST PUSH2 0x2073 JUMP JUMPDEST SWAP1 POP SWAP2 SWAP1 POP JUMP JUMPDEST PUSH1 0x0 PUSH2 0x2244 DUP3 PUSH2 0x2217 JUMP JUMPDEST SWAP1 POP SWAP2 SWAP1 POP JUMP JUMPDEST PUSH1 0x0 PUSH2 0x2256 DUP3 PUSH2 0x2239 JUMP JUMPDEST SWAP1 POP SWAP2 SWAP1 POP JUMP JUMPDEST PUSH2 0x2266 DUP2 PUSH2 0x224B JUMP JUMPDEST DUP3 MSTORE POP POP JUMP JUMPDEST PUSH1 0x0 PUSH1 0x20 DUP3 ADD SWAP1 POP PUSH2 0x2281 PUSH1 0x0 DUP4 ADD DUP5 PUSH2 0x225D JUMP JUMPDEST SWAP3 SWAP2 POP POP JUMP JUMPDEST PUSH2 0x2290 DUP2 PUSH2 0x2139 JUMP JUMPDEST DUP2 EQ PUSH2 0x229B JUMPI PUSH1 0x0 DUP1 REVERT JUMPDEST POP JUMP JUMPDEST PUSH1 0x0 DUP2 CALLDATALOAD SWAP1 POP PUSH2 0x22AD DUP2 PUSH2 0x2287 JUMP JUMPDEST SWAP3 SWAP2 POP POP JUMP JUMPDEST PUSH2 0x22BC DUP2 PUSH2 0x2103 JUMP JUMPDEST DUP2 EQ PUSH2 0x22C7 JUMPI PUSH1 0x0 DUP1 REVERT JUMPDEST POP JUMP JUMPDEST PUSH1 0x0 DUP2 CALLDATALOAD SWAP1 POP PUSH2 0x22D9 DUP2 PUSH2 0x22B3 JUMP JUMPDEST SWAP3 SWAP2 POP POP JUMP JUMPDEST PUSH1 0x0 DUP1 PUSH1 0x40 DUP4 DUP6 SUB SLT ISZERO PUSH2 0x22F6 JUMPI PUSH2 0x22F5 PUSH2 0x2175 JUMP JUMPDEST JUMPDEST PUSH1 0x0 PUSH2 0x2304 DUP6 DUP3 DUP7 ADD PUSH2 0x229E JUMP JUMPDEST SWAP3 POP POP PUSH1 0x20 PUSH2 0x2315 DUP6 DUP3 DUP7 ADD PUSH2 0x22CA JUMP JUMPDEST SWAP2 POP POP SWAP3 POP SWAP3 SWAP1 POP JUMP JUMPDEST PUSH1 0x0 PUSH1 0x20 DUP3 DUP5 SUB SLT ISZERO PUSH2 0x2335 JUMPI PUSH2 0x2334 PUSH2 0x2175 JUMP JUMPDEST JUMPDEST PUSH1 0x0 PUSH2 0x2343 DUP5 DUP3 DUP6 ADD PUSH2 0x229E JUMP JUMPDEST SWAP2 POP POP SWAP3 SWAP2 POP POP JUMP JUMPDEST PUSH1 0x0 PUSH1 0xA0 DUP3 ADD SWAP1 POP PUSH2 0x2361 PUSH1 0x0 DUP4 ADD DUP9 PUSH2 0x20D9 JUMP JUMPDEST PUSH2 0x236E PUSH1 0x20 DUP4 ADD DUP8 PUSH2 0x20D9 JUMP JUMPDEST PUSH2 0x237B PUSH1 0x40 DUP4 ADD DUP7 PUSH2 0x20D9 JUMP JUMPDEST PUSH2 0x2388 PUSH1 0x60 DUP4 ADD DUP6 PUSH2 0x20D9 JUMP JUMPDEST PUSH2 0x2395 PUSH1 0x80 DUP4 ADD DUP5 PUSH2 0x20D9 JUMP JUMPDEST SWAP7 SWAP6 POP POP POP POP POP POP JUMP JUMPDEST PUSH1 0x0 DUP2 MLOAD SWAP1 POP SWAP2 SWAP1 POP JUMP JUMPDEST PUSH1 0x0 JUMPDEST DUP4 DUP2 LT ISZERO PUSH2 0x23C8 JUMPI DUP1 DUP3 ADD MLOAD DUP2 DUP5 ADD MSTORE PUSH1 0x20 DUP2 ADD SWAP1 POP PUSH2 0x23AD JUMP JUMPDEST PUSH1 0x0 DUP5 DUP5 ADD MSTORE POP POP POP POP JUMP JUMPDEST PUSH1 0x0 PUSH1 0x1F NOT PUSH1 0x1F DUP4 ADD AND SWAP1 POP SWAP2 SWAP1 POP JUMP JUMPDEST PUSH1 0x0 PUSH2 0x23F0 DUP3 PUSH2 0x239F JUMP JUMPDEST PUSH2 0x23FA DUP2 DUP6 PUSH2 0x1FF6 JUMP JUMPDEST SWAP4 POP PUSH2 0x240A DUP2 DUP6 PUSH1 0x20 DUP7 ADD PUSH2 0x23AA JUMP JUMPDEST PUSH2 0x2413 DUP2 PUSH2 0x23D4 JUMP JUMPDEST DUP5 ADD SWAP2 POP POP SWAP3 SWAP2 POP POP JUMP JUMPDEST PUSH1 0x0 PUSH1 0x20 DUP3 ADD SWAP1 POP DUP2 DUP2 SUB PUSH1 0x0 DUP4 ADD MSTORE PUSH2 0x2438 DUP2 DUP5 PUSH2 0x23E5 JUMP JUMPDEST SWAP1 POP SWAP3 SWAP2 POP POP JUMP JUMPDEST PUSH32 0x4E6F742053746172746564205965740000000000000000000000000000000000 PUSH1 0x0 DUP3 ADD MSTORE POP JUMP JUMPDEST PUSH1 0x0 PUSH2 0x2476 PUSH1 0xF DUP4 PUSH2 0x1FF6 JUMP JUMPDEST SWAP2 POP PUSH2 0x2481 DUP3 PUSH2 0x2440 JUMP JUMPDEST PUSH1 0x20 DUP3 ADD SWAP1 POP SWAP2 SWAP1 POP JUMP JUMPDEST PUSH1 0x0 PUSH1 0x20 DUP3 ADD SWAP1 POP DUP2 DUP2 SUB PUSH1 0x0 DUP4 ADD MSTORE PUSH2 0x24A5 DUP2 PUSH2 0x2469 JUMP JUMPDEST SWAP1 POP SWAP2 SWAP1 POP JUMP JUMPDEST PUSH32 0x41756374696F6E20506175736564000000000000000000000000000000000000 PUSH1 0x0 DUP3 ADD MSTORE POP JUMP JUMPDEST PUSH1 0x0 PUSH2 0x24E2 PUSH1 0xE DUP4 PUSH2 0x1FF6 JUMP JUMPDEST SWAP2 POP PUSH2 0x24ED DUP3 PUSH2 0x24AC JUMP JUMPDEST PUSH1 0x20 DUP3 ADD SWAP1 POP SWAP2 SWAP1 POP JUMP JUMPDEST PUSH1 0x0 PUSH1 0x20 DUP3 ADD SWAP1 POP DUP2 DUP2 SUB PUSH1 0x0 DUP4 ADD MSTORE PUSH2 0x2511 DUP2 PUSH2 0x24D5 JUMP JUMPDEST SWAP1 POP SWAP2 SWAP1 POP JUMP JUMPDEST PUSH32 0x416C726561647920656E64656400000000000000000000000000000000000000 PUSH1 0x0 DUP3 ADD MSTORE POP JUMP JUMPDEST PUSH1 0x0 PUSH2 0x254E PUSH1 0xD DUP4 PUSH2 0x1FF6 JUMP JUMPDEST SWAP2 POP PUSH2 0x2559 DUP3 PUSH2 0x2518 JUMP JUMPDEST PUSH1 0x20 DUP3 ADD SWAP1 POP SWAP2 SWAP1 POP JUMP JUMPDEST PUSH1 0x0 PUSH1 0x20 DUP3 ADD SWAP1 POP DUP2 DUP2 SUB PUSH1 0x0 DUP4 ADD MSTORE PUSH2 0x257D DUP2 PUSH2 0x2541 JUMP JUMPDEST SWAP1 POP SWAP2 SWAP1 POP JUMP JUMPDEST PUSH32 0x53656C6C6572206E6F7420616C6C6F7765640000000000000000000000000000 PUSH1 0x0 DUP3 ADD MSTORE POP JUMP JUMPDEST PUSH1 0x0 PUSH2 0x25BA PUSH1 0x12 DUP4 PUSH2 0x1FF6 JUMP JUMPDEST SWAP2 POP PUSH2 0x25C5 DUP3 PUSH2 0x2584 JUMP JUMPDEST PUSH1 0x20 DUP3 ADD SWAP1 POP SWAP2 SWAP1 POP JUMP JUMPDEST PUSH1 0x0 PUSH1 0x20 DUP3 ADD SWAP1 POP DUP2 DUP2 SUB PUSH1 0x0 DUP4 ADD MSTORE PUSH2 0x25E9 DUP2 PUSH2 0x25AD JUMP JUMPDEST SWAP1 POP SWAP2 SWAP1 POP JUMP JUMPDEST PUSH32 0x5065726D697373696F6E2064656E696564000000000000000000000000000000 PUSH1 0x0 DUP3 ADD MSTORE POP JUMP JUMPDEST PUSH1 0x0 PUSH2 0x2626 PUSH1 0x11 DUP4 PUSH2 0x1FF6 JUMP JUMPDEST SWAP2 POP PUSH2 0x2631 DUP3 PUSH2 0x25F0 JUMP JUMPDEST PUSH1 0x20 DUP3 ADD SWAP1 POP SWAP2 SWAP1 POP JUMP JUMPDEST PUSH1 0x0 PUSH1 0x20 DUP3 ADD SWAP1 POP DUP2 DUP2 SUB PUSH1 0x0 DUP4 ADD MSTORE PUSH2 0x2655 DUP2 PUSH2 0x2619 JUMP JUMPDEST SWAP1 POP SWAP2 SWAP1 POP JUMP JUMPDEST PUSH32 0x4C6F776572204269640000000000000000000000000000000000000000000000 PUSH1 0x0 DUP3 ADD MSTORE POP JUMP JUMPDEST PUSH1 0x0 PUSH2 0x2692 PUSH1 0x9 DUP4 PUSH2 0x1FF6 JUMP JUMPDEST SWAP2 POP PUSH2 0x269D DUP3 PUSH2 0x265C JUMP JUMPDEST PUSH1 0x20 DUP3 ADD SWAP1 POP SWAP2 SWAP1 POP JUMP JUMPDEST PUSH1 0x0 PUSH1 0x20 DUP3 ADD SWAP1 POP DUP2 DUP2 SUB PUSH1 0x0 DUP4 ADD MSTORE PUSH2 0x26C1 DUP2 PUSH2 0x2685 JUMP JUMPDEST SWAP1 POP SWAP2 SWAP1 POP JUMP JUMPDEST PUSH32 0x4E487B7100000000000000000000000000000000000000000000000000000000 PUSH1 0x0 MSTORE PUSH1 0x12 PUSH1 0x4 MSTORE PUSH1 0x24 PUSH1 0x0 REVERT JUMPDEST PUSH32 0x4E487B7100000000000000000000000000000000000000000000000000000000 PUSH1 0x0 MSTORE PUSH1 0x11 PUSH1 0x4 MSTORE PUSH1 0x24 PUSH1 0x0 REVERT JUMPDEST PUSH1 0x0 PUSH2 0x2731 DUP3 PUSH2 0x20CF JUMP JUMPDEST SWAP2 POP PUSH2 0x273C DUP4 PUSH2 0x20CF JUMP JUMPDEST SWAP3 POP DUP3 PUSH2 0x274C JUMPI PUSH2 0x274B PUSH2 0x26C8 JUMP JUMPDEST JUMPDEST DUP3 DUP3 DIV SWAP1 POP SWAP3 SWAP2 POP POP JUMP JUMPDEST PUSH1 0x0 PUSH2 0x2762 DUP3 PUSH2 0x20CF JUMP JUMPDEST SWAP2 POP PUSH2 0x276D DUP4 PUSH2 0x20CF JUMP JUMPDEST SWAP3 POP DUP3 DUP3 MUL PUSH2 0x277B DUP2 PUSH2 0x20CF JUMP JUMPDEST SWAP2 POP DUP3 DUP3 DIV DUP5 EQ DUP4 ISZERO OR PUSH2 0x2792 JUMPI PUSH2 0x2791 PUSH2 0x26F7 JUMP JUMPDEST JUMPDEST POP SWAP3 SWAP2 POP POP JUMP JUMPDEST PUSH1 0x0 PUSH2 0x27A4 DUP3 PUSH2 0x20CF JUMP JUMPDEST SWAP2 POP PUSH2 0x27AF DUP4 PUSH2 0x20CF JUMP JUMPDEST SWAP3 POP DUP3 DUP3 ADD SWAP1 POP DUP1 DUP3 GT ISZERO PUSH2 0x27C7 JUMPI PUSH2 0x27C6 PUSH2 0x26F7 JUMP JUMPDEST JUMPDEST SWAP3 SWAP2 POP POP JUMP JUMPDEST PUSH1 0x0 PUSH2 0x27D8 DUP3 PUSH2 0x20CF JUMP JUMPDEST SWAP2 POP PUSH2 0x27E3 DUP4 PUSH2 0x20CF JUMP JUMPDEST SWAP3 POP DUP3 DUP3 SUB SWAP1 POP DUP2 DUP2 GT ISZERO PUSH2 0x27FB JUMPI PUSH2 0x27FA PUSH2 0x26F7 JUMP JUMPDEST JUMPDEST SWAP3 SWAP2 POP POP JUMP JUMPDEST PUSH32 0x4E6F7420456E6465640000000000000000000000000000000000000000000000 PUSH1 0x0 DUP3 ADD MSTORE POP JUMP JUMPDEST PUSH1 0x0 PUSH2 0x2837 PUSH1 0x9 DUP4 PUSH2 0x1FF6 JUMP JUMPDEST SWAP2 POP PUSH2 0x2842 DUP3 PUSH2 0x2801 JUMP JUMPDEST PUSH1 0x20 DUP3 ADD SWAP1 POP SWAP2 SWAP1 POP JUMP JUMPDEST PUSH1 0x0 PUSH1 0x20 DUP3 ADD SWAP1 POP DUP2 DUP2 SUB PUSH1 0x0 DUP4 ADD MSTORE PUSH2 0x2866 DUP2 PUSH2 0x282A JUMP JUMPDEST SWAP1 POP SWAP2 SWAP1 POP JUMP JUMPDEST PUSH1 0x0 PUSH1 0x60 DUP3 ADD SWAP1 POP PUSH2 0x2882 PUSH1 0x0 DUP4 ADD DUP7 PUSH2 0x214B JUMP JUMPDEST PUSH2 0x288F PUSH1 0x20 DUP4 ADD DUP6 PUSH2 0x214B JUMP JUMPDEST PUSH2 0x289C PUSH1 0x40 DUP4 ADD DUP5 PUSH2 0x20D9 JUMP JUMPDEST SWAP5 SWAP4 POP POP POP POP JUMP JUMPDEST PUSH1 0x0 DUP2 SWAP1 POP SWAP3 SWAP2 POP POP JUMP JUMPDEST POP JUMP JUMPDEST PUSH1 0x0 PUSH2 0x28BF PUSH1 0x0 DUP4 PUSH2 0x28A4 JUMP JUMPDEST SWAP2 POP PUSH2 0x28CA DUP3 PUSH2 0x28AF JUMP JUMPDEST PUSH1 0x0 DUP3 ADD SWAP1 POP SWAP2 SWAP1 POP JUMP JUMPDEST PUSH1 0x0 PUSH2 0x28E0 DUP3 PUSH2 0x28B2 JUMP JUMPDEST SWAP2 POP DUP2 SWAP1 POP SWAP2 SWAP1 POP JUMP JUMPDEST PUSH32 0x52657475726E206665652066756E6473206661696C6564000000000000000000 PUSH1 0x0 DUP3 ADD MSTORE POP JUMP JUMPDEST PUSH1 0x0 PUSH2 0x2920 PUSH1 0x17 DUP4 PUSH2 0x1FF6 JUMP JUMPDEST SWAP2 POP PUSH2 0x292B DUP3 PUSH2 0x28EA JUMP JUMPDEST PUSH1 0x20 DUP3 ADD SWAP1 POP SWAP2 SWAP1 POP JUMP JUMPDEST PUSH1 0x0 PUSH1 0x20 DUP3 ADD SWAP1 POP DUP2 DUP2 SUB PUSH1 0x0 DUP4 ADD MSTORE PUSH2 0x294F DUP2 PUSH2 0x2913 JUMP JUMPDEST SWAP1 POP SWAP2 SWAP1 POP JUMP JUMPDEST PUSH32 0x52657475726E2066756E6473206661696C656400000000000000000000000000 PUSH1 0x0 DUP3 ADD MSTORE POP JUMP JUMPDEST PUSH1 0x0 PUSH2 0x298C PUSH1 0x13 DUP4 PUSH2 0x1FF6 JUMP JUMPDEST SWAP2 POP PUSH2 0x2997 DUP3 PUSH2 0x2956 JUMP JUMPDEST PUSH1 0x20 DUP3 ADD SWAP1 POP SWAP2 SWAP1 POP JUMP JUMPDEST PUSH1 0x0 PUSH1 0x20 DUP3 ADD SWAP1 POP DUP2 DUP2 SUB PUSH1 0x0 DUP4 ADD MSTORE PUSH2 0x29BB DUP2 PUSH2 0x297F JUMP JUMPDEST SWAP1 POP SWAP2 SWAP1 POP JUMP JUMPDEST PUSH1 0x0 PUSH2 0x29CD DUP3 PUSH2 0x2239 JUMP JUMPDEST SWAP1 POP SWAP2 SWAP1 POP JUMP JUMPDEST PUSH2 0x29DD DUP2 PUSH2 0x29C2 JUMP JUMPDEST DUP3 MSTORE POP POP JUMP JUMPDEST PUSH1 0x0 PUSH1 0x60 DUP3 ADD SWAP1 POP PUSH2 0x29F8 PUSH1 0x0 DUP4 ADD DUP7 PUSH2 0x214B JUMP JUMPDEST PUSH2 0x2A05 PUSH1 0x20 DUP4 ADD DUP6 PUSH2 0x29D4 JUMP JUMPDEST PUSH2 0x2A12 PUSH1 0x40 DUP4 ADD DUP5 PUSH2 0x20D9 JUMP JUMPDEST SWAP5 SWAP4 POP POP POP POP JUMP JUMPDEST PUSH32 0x416C726561647920537461727465640000000000000000000000000000000000 PUSH1 0x0 DUP3 ADD MSTORE POP JUMP JUMPDEST PUSH1 0x0 PUSH2 0x2A50 PUSH1 0xF DUP4 PUSH2 0x1FF6 JUMP JUMPDEST SWAP2 POP PUSH2 0x2A5B DUP3 PUSH2 0x2A1A JUMP JUMPDEST PUSH1 0x20 DUP3 ADD SWAP1 POP SWAP2 SWAP1 POP JUMP JUMPDEST PUSH1 0x0 PUSH1 0x20 DUP3 ADD SWAP1 POP DUP2 DUP2 SUB PUSH1 0x0 DUP4 ADD MSTORE PUSH2 0x2A7F DUP2 PUSH2 0x2A43 JUMP JUMPDEST SWAP1 POP SWAP2 SWAP1 POP JUMP JUMPDEST PUSH32 0x416C726561647920506175736564000000000000000000000000000000000000 PUSH1 0x0 DUP3 ADD MSTORE POP JUMP JUMPDEST PUSH1 0x0 PUSH2 0x2ABC PUSH1 0xE DUP4 PUSH2 0x1FF6 JUMP JUMPDEST SWAP2 POP PUSH2 0x2AC7 DUP3 PUSH2 0x2A86 JUMP JUMPDEST PUSH1 0x20 DUP3 ADD SWAP1 POP SWAP2 SWAP1 POP JUMP JUMPDEST PUSH1 0x0 PUSH1 0x20 DUP3 ADD SWAP1 POP DUP2 DUP2 SUB PUSH1 0x0 DUP4 ADD MSTORE PUSH2 0x2AEB DUP2 PUSH2 0x2AAF JUMP JUMPDEST SWAP1 POP SWAP2 SWAP1 POP JUMP JUMPDEST PUSH32 0x416C72656164792052756E6E696E670000000000000000000000000000000000 PUSH1 0x0 DUP3 ADD MSTORE POP JUMP JUMPDEST PUSH1 0x0 PUSH2 0x2B28 PUSH1 0xF DUP4 PUSH2 0x1FF6 JUMP JUMPDEST SWAP2 POP PUSH2 0x2B33 DUP3 PUSH2 0x2AF2 JUMP JUMPDEST PUSH1 0x20 DUP3 ADD SWAP1 POP SWAP2 SWAP1 POP JUMP JUMPDEST PUSH1 0x0 PUSH1 0x20 DUP3 ADD SWAP1 POP DUP2 DUP2 SUB PUSH1 0x0 DUP4 ADD MSTORE PUSH2 0x2B57 DUP2 PUSH2 0x2B1B JUMP JUMPDEST SWAP1 POP SWAP2 SWAP1 POP JUMP JUMPDEST PUSH32 0x4E487B7100000000000000000000000000000000000000000000000000000000 PUSH1 0x0 MSTORE PUSH1 0x22 PUSH1 0x4 MSTORE PUSH1 0x24 PUSH1 0x0 REVERT JUMPDEST PUSH1 0x0 PUSH1 0x2 DUP3 DIV SWAP1 POP PUSH1 0x1 DUP3 AND DUP1 PUSH2 0x2BA5 JUMPI PUSH1 0x7F DUP3 AND SWAP2 POP JUMPDEST PUSH1 0x20 DUP3 LT DUP2 SUB PUSH2 0x2BB8 JUMPI PUSH2 0x2BB7 PUSH2 0x2B5E JUMP JUMPDEST JUMPDEST POP SWAP2 SWAP1 POP JUMP JUMPDEST PUSH32 0x416C726561647920456E64656400000000000000000000000000000000000000 PUSH1 0x0 DUP3 ADD MSTORE POP JUMP JUMPDEST PUSH1 0x0 PUSH2 0x2BF4 PUSH1 0xD DUP4 PUSH2 0x1FF6 JUMP JUMPDEST SWAP2 POP PUSH2 0x2BFF DUP3 PUSH2 0x2BBE JUMP JUMPDEST PUSH1 0x20 DUP3 ADD SWAP1 POP SWAP2 SWAP1 POP JUMP JUMPDEST PUSH1 0x0 PUSH1 0x20 DUP3 ADD SWAP1 POP DUP2 DUP2 SUB PUSH1 0x0 DUP4 ADD MSTORE PUSH2 0x2C23 DUP2 PUSH2 0x2BE7 JUMP JUMPDEST SWAP1 POP SWAP2 SWAP1 POP JUMP JUMPDEST PUSH1 0x0 PUSH1 0x40 DUP3 ADD SWAP1 POP PUSH2 0x2C3F PUSH1 0x0 DUP4 ADD DUP6 PUSH2 0x214B JUMP JUMPDEST PUSH2 0x2C4C PUSH1 0x20 DUP4 ADD DUP5 PUSH2 0x20D9 JUMP JUMPDEST SWAP4 SWAP3 POP POP POP JUMP INVALID LOG2 PUSH5 0x6970667358 0x22 SLT KECCAK256 0x49 SDIV 0x26 0xA6 0xEA DUP12 SWAP1 SWAP5 0xC3 DIFFICULTY 0xB4 LOG4 SGT EXTCODESIZE PUSH8 0xC806D7FB4DEAF421 EXTCODEHASH LOG3 ISZERO 0x4A PUSH10 0x3FBA750B64736F6C6343 STOP ADDMOD GT STOP CALLER "
				},
				"gasEstimates": {
					"creation": {
						"codeDepositCost": "2280200",
						"executionCost": "infinite",
						"totalCost": "infinite"
					},
					"external": {
						"": "2709",
						"FEE_BASE()": "417",
						"closeAuction()": "infinite",
						"docsProcess()": "infinite",
						"docsRegister()": "2626",
						"endAt()": "2496",
						"endAuction()": "39060",
						"ended()": "2589",
						"feeAddress()": "2603",
						"getBalance()": "385",
						"highestBid()": "2473",
						"highestBidder()": "2603",
						"isWhitelist(address)": "2971",
						"newBid(uint256,uint256,uint256,uint256)": "infinite",
						"nft()": "infinite",
						"nftId()": "2496",
						"numberOfBids()": "2519",
						"pauseAuction()": "30209",
						"paused()": "2544",
						"receivedBids(address)": "infinite",
						"seller()": "2538",
						"setWhitelist(address,bool)": "infinite",
						"startAuction()": "infinite",
						"started()": "2494",
						"totalFee()": "2563",
						"unpauseAuction()": "30162"
					},
					"internal": {
						"_isWhitelist(address)": "2260",
						"cashback(address,uint256)": "infinite"
					}
				},
				"methodIdentifiers": {
					"FEE_BASE()": "ecefc705",
					"closeAuction()": "378252f2",
					"docsProcess()": "d6b4675b",
					"docsRegister()": "1cf5e669",
					"endAt()": "7cc3ae8c",
					"endAuction()": "fe67a54b",
					"ended()": "12fa6feb",
					"feeAddress()": "41275358",
					"getBalance()": "12065fe0",
					"highestBid()": "d57bde79",
					"highestBidder()": "91f90157",
					"isWhitelist(address)": "c683630d",
					"newBid(uint256,uint256,uint256,uint256)": "2aeee493",
					"nft()": "47ccca02",
					"nftId()": "c6bc5182",
					"numberOfBids()": "17d531fc",
					"pauseAuction()": "b9ae7364",
					"paused()": "5c975abb",
					"receivedBids(address)": "95ecc5cc",
					"seller()": "08551a53",
					"setWhitelist(address,bool)": "53d6fd59",
					"startAuction()": "6b64c769",
					"started()": "1f2698ab",
					"totalFee()": "1df4ccfc",
					"unpauseAuction()": "ceb16419"
				}
			},
			"storageLayout": {
				"storage": [
					{
						"astId": 82,
						"contract": "Contracts/AuctionSPU.sol:AuctionSPU",
						"label": "nft",
						"offset": 0,
						"slot": "0",
						"type": "t_contract(IERC721)23"
					},
					{
						"astId": 84,
						"contract": "Contracts/AuctionSPU.sol:AuctionSPU",
						"label": "nftId",
						"offset": 0,
						"slot": "1",
						"type": "t_uint256"
					},
					{
						"astId": 86,
						"contract": "Contracts/AuctionSPU.sol:AuctionSPU",
						"label": "seller",
						"offset": 0,
						"slot": "2",
						"type": "t_address_payable"
					},
					{
						"astId": 88,
						"contract": "Contracts/AuctionSPU.sol:AuctionSPU",
						"label": "feeAddress",
						"offset": 0,
						"slot": "3",
						"type": "t_address_payable"
					},
					{
						"astId": 90,
						"contract": "Contracts/AuctionSPU.sol:AuctionSPU",
						"label": "docsRegister",
						"offset": 0,
						"slot": "4",
						"type": "t_address"
					},
					{
						"astId": 92,
						"contract": "Contracts/AuctionSPU.sol:AuctionSPU",
						"label": "docsProcess",
						"offset": 0,
						"slot": "5",
						"type": "t_string_storage"
					},
					{
						"astId": 94,
						"contract": "Contracts/AuctionSPU.sol:AuctionSPU",
						"label": "endAt",
						"offset": 0,
						"slot": "6",
						"type": "t_uint256"
					},
					{
						"astId": 96,
						"contract": "Contracts/AuctionSPU.sol:AuctionSPU",
						"label": "started",
						"offset": 0,
						"slot": "7",
						"type": "t_bool"
					},
					{
						"astId": 98,
						"contract": "Contracts/AuctionSPU.sol:AuctionSPU",
						"label": "ended",
						"offset": 1,
						"slot": "7",
						"type": "t_bool"
					},
					{
						"astId": 100,
						"contract": "Contracts/AuctionSPU.sol:AuctionSPU",
						"label": "paused",
						"offset": 2,
						"slot": "7",
						"type": "t_bool"
					},
					{
						"astId": 102,
						"contract": "Contracts/AuctionSPU.sol:AuctionSPU",
						"label": "numberOfBids",
						"offset": 0,
						"slot": "8",
						"type": "t_uint256"
					},
					{
						"astId": 104,
						"contract": "Contracts/AuctionSPU.sol:AuctionSPU",
						"label": "transactionFee",
						"offset": 0,
						"slot": "9",
						"type": "t_uint256"
					},
					{
						"astId": 109,
						"contract": "Contracts/AuctionSPU.sol:AuctionSPU",
						"label": "totalFee",
						"offset": 0,
						"slot": "10",
						"type": "t_uint256"
					},
					{
						"astId": 111,
						"contract": "Contracts/AuctionSPU.sol:AuctionSPU",
						"label": "highestBidder",
						"offset": 0,
						"slot": "11",
						"type": "t_address"
					},
					{
						"astId": 113,
						"contract": "Contracts/AuctionSPU.sol:AuctionSPU",
						"label": "highestBid",
						"offset": 0,
						"slot": "12",
						"type": "t_uint256"
					},
					{
						"astId": 129,
						"contract": "Contracts/AuctionSPU.sol:AuctionSPU",
						"label": "receivedBids",
						"offset": 0,
						"slot": "13",
						"type": "t_mapping(t_address,t_struct(Bidders)124_storage)"
					},
					{
						"astId": 133,
						"contract": "Contracts/AuctionSPU.sol:AuctionSPU",
						"label": "_whitelist",
						"offset": 0,
						"slot": "14",
						"type": "t_mapping(t_address,t_bool)"
					}
				],
				"types": {
					"t_address": {
						"encoding": "inplace",
						"label": "address",
						"numberOfBytes": "20"
					},
					"t_address_payable": {
						"encoding": "inplace",
						"label": "address payable",
						"numberOfBytes": "20"
					},
					"t_bool": {
						"encoding": "inplace",
						"label": "bool",
						"numberOfBytes": "1"
					},
					"t_contract(IERC721)23": {
						"encoding": "inplace",
						"label": "contract IERC721",
						"numberOfBytes": "20"
					},
					"t_mapping(t_address,t_bool)": {
						"encoding": "mapping",
						"key": "t_address",
						"label": "mapping(address => bool)",
						"numberOfBytes": "32",
						"value": "t_bool"
					},
					"t_mapping(t_address,t_struct(Bidders)124_storage)": {
						"encoding": "mapping",
						"key": "t_address",
						"label": "mapping(address => struct AuctionSPU.Bidders)",
						"numberOfBytes": "32",
						"value": "t_struct(Bidders)124_storage"
					},
					"t_string_storage": {
						"encoding": "bytes",
						"label": "string",
						"numberOfBytes": "32"
					},
					"t_struct(Bidders)124_storage": {
						"encoding": "inplace",
						"label": "struct AuctionSPU.Bidders",
						"members": [
							{
								"astId": 115,
								"contract": "Contracts/AuctionSPU.sol:AuctionSPU",
								"label": "totalValue",
								"offset": 0,
								"slot": "0",
								"type": "t_uint256"
							},
							{
								"astId": 117,
								"contract": "Contracts/AuctionSPU.sol:AuctionSPU",
								"label": "realValue",
								"offset": 0,
								"slot": "1",
								"type": "t_uint256"
							},
							{
								"astId": 119,
								"contract": "Contracts/AuctionSPU.sol:AuctionSPU",
								"label": "portion",
								"offset": 0,
								"slot": "2",
								"type": "t_uint256"
							},
							{
								"astId": 121,
								"contract": "Contracts/AuctionSPU.sol:AuctionSPU",
								"label": "clientScore",
								"offset": 0,
								"slot": "3",
								"type": "t_uint256"
							},
							{
								"astId": 123,
								"contract": "Contracts/AuctionSPU.sol:AuctionSPU",
								"label": "downpay",
								"offset": 0,
								"slot": "4",
								"type": "t_uint256"
							}
						],
						"numberOfBytes": "160"
					},
					"t_uint256": {
						"encoding": "inplace",
						"label": "uint256",
						"numberOfBytes": "32"
					}
				}
			},
			"userdoc": {
				"events": {
					"Bid(address,uint256)": {
						"notice": "New bid made"
					},
					"BidPayment(address,uint256)": {
						"notice": "Bid paid for the seller"
					},
					"Cashback(address,uint256)": {
						"notice": "Amount returned for last highest bidder when highest bidder changed"
					},
					"EndAuction(address,uint256)": {
						"notice": "Auction ended"
					},
					"FeePayment(address,uint256)": {
						"notice": "Fee of the auction sent to feeAddress"
					},
					"PauseAuction(address)": {
						"notice": "Auction paused"
					},
					"SetWhitelistByAddress(address,bool)": {
						"notice": "New address added to whitelist"
					},
					"StartAuction()": {
						"notice": "Auction started"
					},
					"UnpauseAuction(address)": {
						"notice": "Auction unpaused"
					}
				},
				"kind": "user",
				"methods": {
					"endAuction()": {
						"notice": "End the auction"
					},
					"getBalance()": {
						"notice": "Function to get the balance of the contract"
					},
					"isWhitelist(address)": {
						"notice": "Public method to check if address has privilegies"
					},
					"pauseAuction()": {
						"notice": "Pause the auction"
					},
					"setWhitelist(address,bool)": {
						"notice": "Method to insert new address to the whitelist"
					},
					"startAuction()": {
						"notice": "Start the auction"
					},
					"unpauseAuction()": {
						"notice": "Unpause the auction"
					}
				},
				"notice": "AuctionSPU contract",
				"version": 1
			}
		}
	}
}