{
	"Contracts/Variable_Token_Minter.sol": {
		"VariableToken": {
			"abi": [
				{
					"inputs": [],
					"stateMutability": "nonpayable",
					"type": "constructor"
				},
				{
					"anonymous": false,
					"inputs": [
						{
							"indexed": true,
							"internalType": "address",
							"name": "owner",
							"type": "address"
						},
						{
							"indexed": true,
							"internalType": "address",
							"name": "spender",
							"type": "address"
						},
						{
							"indexed": false,
							"internalType": "uint256",
							"name": "value",
							"type": "uint256"
						}
					],
					"name": "Approval",
					"type": "event"
				},
				{
					"anonymous": false,
					"inputs": [
						{
							"indexed": true,
							"internalType": "address",
							"name": "previousOwner",
							"type": "address"
						},
						{
							"indexed": true,
							"internalType": "address",
							"name": "newOwner",
							"type": "address"
						}
					],
					"name": "OwnershipTransferred",
					"type": "event"
				},
				{
					"anonymous": false,
					"inputs": [
						{
							"indexed": true,
							"internalType": "address",
							"name": "from",
							"type": "address"
						},
						{
							"indexed": true,
							"internalType": "address",
							"name": "to",
							"type": "address"
						},
						{
							"indexed": false,
							"internalType": "uint256",
							"name": "value",
							"type": "uint256"
						}
					],
					"name": "Transfer",
					"type": "event"
				},
				{
					"inputs": [],
					"name": "DOMAIN_SEPARATOR",
					"outputs": [
						{
							"internalType": "bytes32",
							"name": "",
							"type": "bytes32"
						}
					],
					"stateMutability": "view",
					"type": "function"
				},
				{
					"inputs": [
						{
							"internalType": "address",
							"name": "owner",
							"type": "address"
						},
						{
							"internalType": "address",
							"name": "spender",
							"type": "address"
						}
					],
					"name": "allowance",
					"outputs": [
						{
							"internalType": "uint256",
							"name": "",
							"type": "uint256"
						}
					],
					"stateMutability": "view",
					"type": "function"
				},
				{
					"inputs": [
						{
							"internalType": "address",
							"name": "spender",
							"type": "address"
						},
						{
							"internalType": "uint256",
							"name": "amount",
							"type": "uint256"
						}
					],
					"name": "approve",
					"outputs": [
						{
							"internalType": "bool",
							"name": "",
							"type": "bool"
						}
					],
					"stateMutability": "nonpayable",
					"type": "function"
				},
				{
					"inputs": [
						{
							"internalType": "address",
							"name": "account",
							"type": "address"
						}
					],
					"name": "balanceOf",
					"outputs": [
						{
							"internalType": "uint256",
							"name": "",
							"type": "uint256"
						}
					],
					"stateMutability": "view",
					"type": "function"
				},
				{
					"inputs": [
						{
							"internalType": "uint256",
							"name": "amount",
							"type": "uint256"
						}
					],
					"name": "burn",
					"outputs": [],
					"stateMutability": "nonpayable",
					"type": "function"
				},
				{
					"inputs": [
						{
							"internalType": "address",
							"name": "account",
							"type": "address"
						},
						{
							"internalType": "uint256",
							"name": "amount",
							"type": "uint256"
						}
					],
					"name": "burnFrom",
					"outputs": [],
					"stateMutability": "nonpayable",
					"type": "function"
				},
				{
					"inputs": [],
					"name": "decimals",
					"outputs": [
						{
							"internalType": "uint8",
							"name": "",
							"type": "uint8"
						}
					],
					"stateMutability": "view",
					"type": "function"
				},
				{
					"inputs": [
						{
							"internalType": "address",
							"name": "spender",
							"type": "address"
						},
						{
							"internalType": "uint256",
							"name": "subtractedValue",
							"type": "uint256"
						}
					],
					"name": "decreaseAllowance",
					"outputs": [
						{
							"internalType": "bool",
							"name": "",
							"type": "bool"
						}
					],
					"stateMutability": "nonpayable",
					"type": "function"
				},
				{
					"inputs": [
						{
							"internalType": "address",
							"name": "spender",
							"type": "address"
						},
						{
							"internalType": "uint256",
							"name": "addedValue",
							"type": "uint256"
						}
					],
					"name": "increaseAllowance",
					"outputs": [
						{
							"internalType": "bool",
							"name": "",
							"type": "bool"
						}
					],
					"stateMutability": "nonpayable",
					"type": "function"
				},
				{
					"inputs": [
						{
							"internalType": "address",
							"name": "to",
							"type": "address"
						},
						{
							"internalType": "uint256",
							"name": "amount",
							"type": "uint256"
						}
					],
					"name": "mint",
					"outputs": [],
					"stateMutability": "nonpayable",
					"type": "function"
				},
				{
					"inputs": [],
					"name": "name",
					"outputs": [
						{
							"internalType": "string",
							"name": "",
							"type": "string"
						}
					],
					"stateMutability": "view",
					"type": "function"
				},
				{
					"inputs": [
						{
							"internalType": "address",
							"name": "owner",
							"type": "address"
						}
					],
					"name": "nonces",
					"outputs": [
						{
							"internalType": "uint256",
							"name": "",
							"type": "uint256"
						}
					],
					"stateMutability": "view",
					"type": "function"
				},
				{
					"inputs": [],
					"name": "owner",
					"outputs": [
						{
							"internalType": "address",
							"name": "",
							"type": "address"
						}
					],
					"stateMutability": "view",
					"type": "function"
				},
				{
					"inputs": [
						{
							"internalType": "address",
							"name": "owner",
							"type": "address"
						},
						{
							"internalType": "address",
							"name": "spender",
							"type": "address"
						},
						{
							"internalType": "uint256",
							"name": "value",
							"type": "uint256"
						},
						{
							"internalType": "uint256",
							"name": "deadline",
							"type": "uint256"
						},
						{
							"internalType": "uint8",
							"name": "v",
							"type": "uint8"
						},
						{
							"internalType": "bytes32",
							"name": "r",
							"type": "bytes32"
						},
						{
							"internalType": "bytes32",
							"name": "s",
							"type": "bytes32"
						}
					],
					"name": "permit",
					"outputs": [],
					"stateMutability": "nonpayable",
					"type": "function"
				},
				{
					"inputs": [],
					"name": "renounceOwnership",
					"outputs": [],
					"stateMutability": "nonpayable",
					"type": "function"
				},
				{
					"inputs": [],
					"name": "symbol",
					"outputs": [
						{
							"internalType": "string",
							"name": "",
							"type": "string"
						}
					],
					"stateMutability": "view",
					"type": "function"
				},
				{
					"inputs": [],
					"name": "totalSupply",
					"outputs": [
						{
							"internalType": "uint256",
							"name": "",
							"type": "uint256"
						}
					],
					"stateMutability": "view",
					"type": "function"
				},
				{
					"inputs": [
						{
							"internalType": "address",
							"name": "to",
							"type": "address"
						},
						{
							"internalType": "uint256",
							"name": "amount",
							"type": "uint256"
						}
					],
					"name": "transfer",
					"outputs": [
						{
							"internalType": "bool",
							"name": "",
							"type": "bool"
						}
					],
					"stateMutability": "nonpayable",
					"type": "function"
				},
				{
					"inputs": [
						{
							"internalType": "address",
							"name": "from",
							"type": "address"
						},
						{
							"internalType": "address",
							"name": "to",
							"type": "address"
						},
						{
							"internalType": "uint256",
							"name": "amount",
							"type": "uint256"
						}
					],
					"name": "transferFrom",
					"outputs": [
						{
							"internalType": "bool",
							"name": "",
							"type": "bool"
						}
					],
					"stateMutability": "nonpayable",
					"type": "function"
				},
				{
					"inputs": [
						{
							"internalType": "address",
							"name": "newOwner",
							"type": "address"
						}
					],
					"name": "transferOwnership",
					"outputs": [],
					"stateMutability": "nonpayable",
					"type": "function"
				}
			],
			"devdoc": {
				"kind": "dev",
				"methods": {
					"DOMAIN_SEPARATOR()": {
						"details": "See {IERC20Permit-DOMAIN_SEPARATOR}."
					},
					"allowance(address,address)": {
						"details": "See {IERC20-allowance}."
					},
					"approve(address,uint256)": {
						"details": "See {IERC20-approve}. NOTE: If `amount` is the maximum `uint256`, the allowance is not updated on `transferFrom`. This is semantically equivalent to an infinite approval. Requirements: - `spender` cannot be the zero address."
					},
					"balanceOf(address)": {
						"details": "See {IERC20-balanceOf}."
					},
					"burn(uint256)": {
						"details": "Destroys `amount` tokens from the caller. See {ERC20-_burn}."
					},
					"burnFrom(address,uint256)": {
						"details": "Destroys `amount` tokens from `account`, deducting from the caller's allowance. See {ERC20-_burn} and {ERC20-allowance}. Requirements: - the caller must have allowance for ``accounts``'s tokens of at least `amount`."
					},
					"decimals()": {
						"details": "Returns the number of decimals used to get its user representation. For example, if `decimals` equals `2`, a balance of `505` tokens should be displayed to a user as `5.05` (`505 / 10 ** 2`). Tokens usually opt for a value of 18, imitating the relationship between Ether and Wei. This is the value {ERC20} uses, unless this function is overridden; NOTE: This information is only used for _display_ purposes: it in no way affects any of the arithmetic of the contract, including {IERC20-balanceOf} and {IERC20-transfer}."
					},
					"decreaseAllowance(address,uint256)": {
						"details": "Atomically decreases the allowance granted to `spender` by the caller. This is an alternative to {approve} that can be used as a mitigation for problems described in {IERC20-approve}. Emits an {Approval} event indicating the updated allowance. Requirements: - `spender` cannot be the zero address. - `spender` must have allowance for the caller of at least `subtractedValue`."
					},
					"increaseAllowance(address,uint256)": {
						"details": "Atomically increases the allowance granted to `spender` by the caller. This is an alternative to {approve} that can be used as a mitigation for problems described in {IERC20-approve}. Emits an {Approval} event indicating the updated allowance. Requirements: - `spender` cannot be the zero address."
					},
					"name()": {
						"details": "Returns the name of the token."
					},
					"nonces(address)": {
						"details": "See {IERC20Permit-nonces}."
					},
					"owner()": {
						"details": "Returns the address of the current owner."
					},
					"permit(address,address,uint256,uint256,uint8,bytes32,bytes32)": {
						"details": "See {IERC20Permit-permit}."
					},
					"renounceOwnership()": {
						"details": "Leaves the contract without owner. It will not be possible to call `onlyOwner` functions anymore. Can only be called by the current owner. NOTE: Renouncing ownership will leave the contract without an owner, thereby removing any functionality that is only available to the owner."
					},
					"symbol()": {
						"details": "Returns the symbol of the token, usually a shorter version of the name."
					},
					"totalSupply()": {
						"details": "See {IERC20-totalSupply}."
					},
					"transfer(address,uint256)": {
						"details": "See {IERC20-transfer}. Requirements: - `to` cannot be the zero address. - the caller must have a balance of at least `amount`."
					},
					"transferFrom(address,address,uint256)": {
						"details": "See {IERC20-transferFrom}. Emits an {Approval} event indicating the updated allowance. This is not required by the EIP. See the note at the beginning of {ERC20}. NOTE: Does not update the allowance if the current allowance is the maximum `uint256`. Requirements: - `from` and `to` cannot be the zero address. - `from` must have a balance of at least `amount`. - the caller must have allowance for ``from``'s tokens of at least `amount`."
					},
					"transferOwnership(address)": {
						"details": "Transfers ownership of the contract to a new account (`newOwner`). Can only be called by the current owner."
					}
				},
				"version": 1
			},
			"evm": {
				"assembly": "    /* \"Contracts/Variable_Token_Minter.sol\":330:587  contract VariableToken is ERC20, ERC20Burnable, Ownable, ERC20Permit {... */\n  mstore(0x40, 0x0140)\n    /* \"Contracts/Variable_Token_Minter.sol\":406:481  constructor() ERC20(\"SPUISG Token\", \"PUISG\") ERC20Permit(\"SPUISG Token\") {} */\n  callvalue\n  dup1\n  iszero\n  tag_1\n  jumpi\n  0x00\n  dup1\n  revert\ntag_1:\n  pop\n    /* \"@openzeppelin/contracts/token/ERC20/extensions/draft-ERC20Permit.sol\":1829:1881  constructor(string memory name) EIP712(name, \"1\") {} */\n  mload(0x40)\n  dup1\n  0x40\n  add\n  0x40\n  mstore\n  dup1\n  0x0c\n  dup2\n  mstore\n  0x20\n  add\n  shl(0xa1, 0x29a82aa4a9a3902a37b5b2b7)\n  dup2\n  mstore\n  pop\n    /* \"@openzeppelin/contracts/token/ERC20/extensions/draft-ERC20Permit.sol\":1868:1872  name */\n  dup1\n    /* \"@openzeppelin/contracts/utils/cryptography/EIP712.sol\":2464:3066  constructor(string memory name, string memory version) {... */\n  mload(0x40)\n  dup1\n  0x40\n  add\n  0x40\n  mstore\n  dup1\n  0x01\n  dup2\n  mstore\n  0x20\n  add\n  shl(0xf8, 0x31)\n  dup2\n  mstore\n  pop\n    /* \"@openzeppelin/contracts/token/ERC20/ERC20.sol\":1976:2089  constructor(string memory name_, string memory symbol_) {... */\n  mload(0x40)\n  dup1\n  0x40\n  add\n  0x40\n  mstore\n  dup1\n  0x0c\n  dup2\n  mstore\n  0x20\n  add\n  shl(0xa1, 0x29a82aa4a9a3902a37b5b2b7)\n  dup2\n  mstore\n  pop\n  mload(0x40)\n  dup1\n  0x40\n  add\n  0x40\n  mstore\n  dup1\n  0x05\n  dup2\n  mstore\n  0x20\n  add\n  shl(0xd8, 0x5055495347)\n  dup2\n  mstore\n  pop\n    /* \"@openzeppelin/contracts/token/ERC20/ERC20.sol\":2050:2055  name_ */\n  dup2\n    /* \"@openzeppelin/contracts/token/ERC20/ERC20.sol\":2042:2047  _name */\n  0x03\n    /* \"@openzeppelin/contracts/token/ERC20/ERC20.sol\":2042:2055  _name = name_ */\n  swap1\n  dup2\n  tag_8\n  swap2\n  swap1\n  tag_9\n  jump\t// in\ntag_8:\n  pop\n    /* \"@openzeppelin/contracts/token/ERC20/ERC20.sol\":2065:2072  _symbol */\n  0x04\n    /* \"@openzeppelin/contracts/token/ERC20/ERC20.sol\":2065:2082  _symbol = symbol_ */\n  tag_10\n    /* \"@openzeppelin/contracts/token/ERC20/ERC20.sol\":2075:2082  symbol_ */\n  dup3\n    /* \"@openzeppelin/contracts/token/ERC20/ERC20.sol\":2065:2072  _symbol */\n  dup3\n    /* \"@openzeppelin/contracts/token/ERC20/ERC20.sol\":2065:2082  _symbol = symbol_ */\n  tag_9\n  jump\t// in\ntag_10:\n  pop\n    /* \"@openzeppelin/contracts/token/ERC20/ERC20.sol\":1976:2089  constructor(string memory name_, string memory symbol_) {... */\n  pop\n  pop\n    /* \"@openzeppelin/contracts/access/Ownable.sol\":936:968  _transferOwnership(_msgSender()) */\n  tag_12\n    /* \"@openzeppelin/contracts/access/Ownable.sol\":955:967  _msgSender() */\n  tag_13\n    /* \"@openzeppelin/contracts/access/Ownable.sol\":955:965  _msgSender */\n  shl(0x20, tag_14)\n    /* \"@openzeppelin/contracts/access/Ownable.sol\":955:967  _msgSender() */\n  0x20\n  shr\n  jump\t// in\ntag_13:\n    /* \"@openzeppelin/contracts/access/Ownable.sol\":936:954  _transferOwnership */\n  tag_15\n    /* \"@openzeppelin/contracts/access/Ownable.sol\":936:968  _transferOwnership(_msgSender()) */\n  jump\t// in\ntag_12:\n    /* \"@openzeppelin/contracts/utils/cryptography/EIP712.sol\":2550:2572  keccak256(bytes(name)) */\n  dup2\n  mload\n  0x20\n  swap3\n  dup4\n  add\n  keccak256\n    /* \"@openzeppelin/contracts/utils/cryptography/EIP712.sol\":2606:2631  keccak256(bytes(version)) */\n  dup2\n  mload\n  swap2\n  dup4\n  add\n  swap2\n  swap1\n  swap2\n  keccak256\n    /* \"@openzeppelin/contracts/utils/cryptography/EIP712.sol\":2787:2812  _HASHED_NAME = hashedName */\n  0xe0\n  dup3\n  swap1\n  mstore\n    /* \"@openzeppelin/contracts/utils/cryptography/EIP712.sol\":2822:2853  _HASHED_VERSION = hashedVersion */\n  0x0100\n  dup2\n  swap1\n  mstore\n    /* \"@openzeppelin/contracts/utils/cryptography/EIP712.sol\":2882:2895  block.chainid */\n  chainid\n    /* \"@openzeppelin/contracts/utils/cryptography/EIP712.sol\":2863:2895  _CACHED_CHAIN_ID = block.chainid */\n  0xa0\n  dup2\n  dup2\n  mstore\n  0x40\n    /* \"@openzeppelin/contracts/utils/cryptography/EIP712.sol\":3642:3715  abi.encode(typeHash, nameHash, versionHash, block.chainid, address(this)) */\n  dup1\n  mload\n    /* \"@openzeppelin/contracts/utils/cryptography/EIP712.sol\":2660:2777  keccak256(... */\n  0x8b73c3c69bb8fe3d512ecc4cf759cc79239f7b179b0ffacaa9a75d522b39400f\n    /* \"@openzeppelin/contracts/utils/cryptography/EIP712.sol\":3642:3715  abi.encode(typeHash, nameHash, versionHash, block.chainid, address(this)) */\n  dup2\n  dup9\n  add\n    /* \"#utility.yul\":2994:3019   */\n  dup2\n  swap1\n  mstore\n    /* \"#utility.yul\":3035:3053   */\n  dup2\n  dup4\n  add\n    /* \"#utility.yul\":3028:3062   */\n  swap7\n  swap1\n  swap7\n  mstore\n  0x60\n    /* \"#utility.yul\":3078:3096   */\n  dup2\n  add\n    /* \"#utility.yul\":3071:3105   */\n  swap5\n  swap1\n  swap5\n  mstore\n    /* \"#utility.yul\":3121:3139   */\n  0x80\n  dup1\n  dup6\n  add\n    /* \"#utility.yul\":3114:3148   */\n  swap4\n  swap1\n  swap4\n  mstore\n    /* \"@openzeppelin/contracts/utils/cryptography/EIP712.sol\":3709:3713  this */\n  address\n    /* \"#utility.yul\":3164:3183   */\n  dup5\n  dup4\n  add\n    /* \"#utility.yul\":3157:3218   */\n  dup2\n  swap1\n  mstore\n    /* \"@openzeppelin/contracts/utils/cryptography/EIP712.sol\":3642:3715  abi.encode(typeHash, nameHash, versionHash, block.chainid, address(this)) */\n  dup2\n  mload\n  dup1\n  dup7\n  sub\n  swap1\n  swap4\n  add\n  dup4\n  mstore\n    /* \"#utility.yul\":2966:2985   */\n  0xc0\n  swap5\n  dup6\n  add\n    /* \"@openzeppelin/contracts/utils/cryptography/EIP712.sol\":3642:3715  abi.encode(typeHash, nameHash, versionHash, block.chainid, address(this)) */\n  swap1\n  swap2\n  mstore\n    /* \"@openzeppelin/contracts/utils/cryptography/EIP712.sol\":3632:3716  keccak256(abi.encode(typeHash, nameHash, versionHash, block.chainid, address(this))) */\n  dup2\n  mload\n  swap2\n  swap1\n  swap6\n  add\n  keccak256\n    /* \"@openzeppelin/contracts/utils/cryptography/EIP712.sol\":2905:2990  _CACHED_DOMAIN_SEPARATOR = _buildDomainSeparator(typeHash, hashedName, hashedVersion) */\n  swap1\n  mstore\n    /* \"@openzeppelin/contracts/utils/cryptography/EIP712.sol\":3000:3028  _CACHED_THIS = address(this) */\n  swap2\n  swap1\n  swap2\n  mstore\n    /* \"@openzeppelin/contracts/utils/cryptography/EIP712.sol\":3038:3059  _TYPE_HASH = typeHash */\n  0x0120\n  mstore\n  pop\n    /* \"Contracts/Variable_Token_Minter.sol\":330:587  contract VariableToken is ERC20, ERC20Burnable, Ownable, ERC20Permit {... */\n  jump(tag_32)\n    /* \"@openzeppelin/contracts/utils/Context.sol\":640:736  function _msgSender() internal view virtual returns (address) {... */\ntag_14:\n    /* \"@openzeppelin/contracts/utils/Context.sol\":719:729  msg.sender */\n  caller\n  swap1\n    /* \"@openzeppelin/contracts/utils/Context.sol\":640:736  function _msgSender() internal view virtual returns (address) {... */\n  jump\t// out\n    /* \"@openzeppelin/contracts/access/Ownable.sol\":2433:2620  function _transferOwnership(address newOwner) internal virtual {... */\ntag_15:\n    /* \"@openzeppelin/contracts/access/Ownable.sol\":2525:2531  _owner */\n  0x05\n  dup1\n  sload\n  sub(shl(0xa0, 0x01), 0x01)\n    /* \"@openzeppelin/contracts/access/Ownable.sol\":2541:2558  _owner = newOwner */\n  dup4\n  dup2\n  and\n  not(sub(shl(0xa0, 0x01), 0x01))\n  dup4\n  and\n  dup2\n  or\n  swap1\n  swap4\n  sstore\n    /* \"@openzeppelin/contracts/access/Ownable.sol\":2573:2613  OwnershipTransferred(oldOwner, newOwner) */\n  mload(0x40)\n    /* \"@openzeppelin/contracts/access/Ownable.sol\":2525:2531  _owner */\n  swap2\n  and\n  swap2\n    /* \"@openzeppelin/contracts/access/Ownable.sol\":2541:2558  _owner = newOwner */\n  swap1\n    /* \"@openzeppelin/contracts/access/Ownable.sol\":2525:2531  _owner */\n  dup3\n  swap1\n    /* \"@openzeppelin/contracts/access/Ownable.sol\":2573:2613  OwnershipTransferred(oldOwner, newOwner) */\n  0x8be0079c531659141344cd1fd0a4f28419497f9722a3daafe3b4186f6b6457e0\n  swap1\n    /* \"@openzeppelin/contracts/access/Ownable.sol\":2506:2522  address oldOwner */\n  0x00\n  swap1\n    /* \"@openzeppelin/contracts/access/Ownable.sol\":2573:2613  OwnershipTransferred(oldOwner, newOwner) */\n  log3\n    /* \"@openzeppelin/contracts/access/Ownable.sol\":2496:2620  {... */\n  pop\n    /* \"@openzeppelin/contracts/access/Ownable.sol\":2433:2620  function _transferOwnership(address newOwner) internal virtual {... */\n  pop\n  jump\t// out\n    /* \"#utility.yul\":14:141   */\ntag_27:\n    /* \"#utility.yul\":75:85   */\n  0x4e487b71\n    /* \"#utility.yul\":70:73   */\n  0xe0\n    /* \"#utility.yul\":66:86   */\n  shl\n    /* \"#utility.yul\":63:64   */\n  0x00\n    /* \"#utility.yul\":56:87   */\n  mstore\n    /* \"#utility.yul\":106:110   */\n  0x41\n    /* \"#utility.yul\":103:104   */\n  0x04\n    /* \"#utility.yul\":96:111   */\n  mstore\n    /* \"#utility.yul\":130:134   */\n  0x24\n    /* \"#utility.yul\":127:128   */\n  0x00\n    /* \"#utility.yul\":120:135   */\n  revert\n    /* \"#utility.yul\":146:526   */\ntag_28:\n    /* \"#utility.yul\":225:226   */\n  0x01\n    /* \"#utility.yul\":221:233   */\n  dup2\n  dup2\n  shr\n  swap1\n    /* \"#utility.yul\":268:280   */\n  dup3\n  and\n  dup1\n    /* \"#utility.yul\":289:350   */\n  tag_35\n  jumpi\n    /* \"#utility.yul\":343:347   */\n  0x7f\n    /* \"#utility.yul\":335:341   */\n  dup3\n    /* \"#utility.yul\":331:348   */\n  and\n    /* \"#utility.yul\":321:348   */\n  swap2\n  pop\n    /* \"#utility.yul\":289:350   */\ntag_35:\n    /* \"#utility.yul\":396:398   */\n  0x20\n    /* \"#utility.yul\":388:394   */\n  dup3\n    /* \"#utility.yul\":385:399   */\n  lt\n    /* \"#utility.yul\":365:383   */\n  dup2\n    /* \"#utility.yul\":362:400   */\n  sub\n    /* \"#utility.yul\":359:520   */\n  tag_36\n  jumpi\n    /* \"#utility.yul\":442:452   */\n  0x4e487b71\n    /* \"#utility.yul\":437:440   */\n  0xe0\n    /* \"#utility.yul\":433:453   */\n  shl\n    /* \"#utility.yul\":430:431   */\n  0x00\n    /* \"#utility.yul\":423:454   */\n  mstore\n    /* \"#utility.yul\":477:481   */\n  0x22\n    /* \"#utility.yul\":474:475   */\n  0x04\n    /* \"#utility.yul\":467:482   */\n  mstore\n    /* \"#utility.yul\":505:509   */\n  0x24\n    /* \"#utility.yul\":502:503   */\n  0x00\n    /* \"#utility.yul\":495:510   */\n  revert\n    /* \"#utility.yul\":359:520   */\ntag_36:\n  pop\n    /* \"#utility.yul\":146:526   */\n  swap2\n  swap1\n  pop\n  jump\t// out\n    /* \"#utility.yul\":657:1202   */\ntag_30:\n    /* \"#utility.yul\":759:761   */\n  0x1f\n    /* \"#utility.yul\":754:757   */\n  dup3\n    /* \"#utility.yul\":751:762   */\n  gt\n    /* \"#utility.yul\":748:1196   */\n  iszero\n  tag_39\n  jumpi\n    /* \"#utility.yul\":795:796   */\n  0x00\n    /* \"#utility.yul\":820:825   */\n  dup2\n    /* \"#utility.yul\":816:818   */\n  dup2\n    /* \"#utility.yul\":809:826   */\n  mstore\n    /* \"#utility.yul\":865:869   */\n  0x20\n    /* \"#utility.yul\":861:863   */\n  dup2\n    /* \"#utility.yul\":851:870   */\n  keccak256\n    /* \"#utility.yul\":935:937   */\n  0x1f\n    /* \"#utility.yul\":923:933   */\n  dup6\n    /* \"#utility.yul\":919:938   */\n  add\n    /* \"#utility.yul\":916:917   */\n  0x05\n    /* \"#utility.yul\":912:939   */\n  shr\n    /* \"#utility.yul\":906:910   */\n  dup2\n    /* \"#utility.yul\":902:940   */\n  add\n    /* \"#utility.yul\":971:975   */\n  0x20\n    /* \"#utility.yul\":959:969   */\n  dup7\n    /* \"#utility.yul\":956:976   */\n  lt\n    /* \"#utility.yul\":953:1000   */\n  iszero\n  tag_40\n  jumpi\n  pop\n    /* \"#utility.yul\":994:998   */\n  dup1\n    /* \"#utility.yul\":953:1000   */\ntag_40:\n    /* \"#utility.yul\":1049:1051   */\n  0x1f\n    /* \"#utility.yul\":1044:1047   */\n  dup6\n    /* \"#utility.yul\":1040:1052   */\n  add\n    /* \"#utility.yul\":1037:1038   */\n  0x05\n    /* \"#utility.yul\":1033:1053   */\n  shr\n    /* \"#utility.yul\":1027:1031   */\n  dup3\n    /* \"#utility.yul\":1023:1054   */\n  add\n    /* \"#utility.yul\":1013:1054   */\n  swap2\n  pop\n    /* \"#utility.yul\":1104:1186   */\ntag_41:\n    /* \"#utility.yul\":1122:1124   */\n  dup2\n    /* \"#utility.yul\":1115:1120   */\n  dup2\n    /* \"#utility.yul\":1112:1125   */\n  lt\n    /* \"#utility.yul\":1104:1186   */\n  iszero\n  tag_43\n  jumpi\n    /* \"#utility.yul\":1167:1184   */\n  dup3\n  dup2\n  sstore\n    /* \"#utility.yul\":1148:1149   */\n  0x01\n    /* \"#utility.yul\":1137:1150   */\n  add\n    /* \"#utility.yul\":1104:1186   */\n  jump(tag_41)\ntag_43:\n    /* \"#utility.yul\":1108:1111   */\n  pop\n  pop\n  pop\n    /* \"#utility.yul\":748:1196   */\ntag_39:\n    /* \"#utility.yul\":657:1202   */\n  pop\n  pop\n  pop\n  jump\t// out\n    /* \"#utility.yul\":1378:2730   */\ntag_9:\n    /* \"#utility.yul\":1498:1508   */\n  dup2\n  mload\n  sub(shl(0x40, 0x01), 0x01)\n    /* \"#utility.yul\":1520:1550   */\n  dup2\n  gt\n    /* \"#utility.yul\":1517:1573   */\n  iszero\n  tag_47\n  jumpi\n    /* \"#utility.yul\":1553:1571   */\n  tag_47\n  tag_27\n  jump\t// in\ntag_47:\n    /* \"#utility.yul\":1582:1679   */\n  tag_48\n    /* \"#utility.yul\":1672:1678   */\n  dup2\n    /* \"#utility.yul\":1632:1670   */\n  tag_49\n    /* \"#utility.yul\":1664:1668   */\n  dup5\n    /* \"#utility.yul\":1658:1669   */\n  sload\n    /* \"#utility.yul\":1632:1670   */\n  tag_28\n  jump\t// in\ntag_49:\n    /* \"#utility.yul\":1626:1630   */\n  dup5\n    /* \"#utility.yul\":1582:1679   */\n  tag_30\n  jump\t// in\ntag_48:\n    /* \"#utility.yul\":1734:1738   */\n  0x20\n  dup1\n    /* \"#utility.yul\":1798:1800   */\n  0x1f\n    /* \"#utility.yul\":1787:1801   */\n  dup4\n  gt\n    /* \"#utility.yul\":1815:1816   */\n  0x01\n    /* \"#utility.yul\":1810:2473   */\n  dup2\n  eq\n  tag_51\n  jumpi\n    /* \"#utility.yul\":2517:2518   */\n  0x00\n    /* \"#utility.yul\":2534:2540   */\n  dup5\n    /* \"#utility.yul\":2531:2620   */\n  iszero\n  tag_52\n  jumpi\n  pop\n    /* \"#utility.yul\":2586:2605   */\n  dup6\n  dup4\n  add\n    /* \"#utility.yul\":2580:2606   */\n  mload\n    /* \"#utility.yul\":2531:2620   */\ntag_52:\n  not(0x00)\n    /* \"#utility.yul\":1335:1336   */\n  0x03\n    /* \"#utility.yul\":1331:1342   */\n  dup7\n  swap1\n  shl\n    /* \"#utility.yul\":1327:1351   */\n  shr\n    /* \"#utility.yul\":1323:1352   */\n  not\n    /* \"#utility.yul\":1313:1353   */\n  and\n    /* \"#utility.yul\":1359:1360   */\n  0x01\n    /* \"#utility.yul\":1355:1366   */\n  dup6\n  swap1\n  shl\n    /* \"#utility.yul\":1310:1367   */\n  or\n    /* \"#utility.yul\":2633:2714   */\n  dup6\n  sstore\n    /* \"#utility.yul\":1780:2724   */\n  jump(tag_43)\n    /* \"#utility.yul\":1810:2473   */\ntag_51:\n    /* \"#utility.yul\":604:605   */\n  0x00\n    /* \"#utility.yul\":597:611   */\n  dup6\n  dup2\n  mstore\n    /* \"#utility.yul\":641:645   */\n  0x20\n    /* \"#utility.yul\":628:646   */\n  dup2\n  keccak256\n  not(0x1f)\n    /* \"#utility.yul\":1846:1866   */\n  dup7\n  and\n  swap2\n    /* \"#utility.yul\":1964:2200   */\ntag_55:\n    /* \"#utility.yul\":1978:1985   */\n  dup3\n    /* \"#utility.yul\":1975:1976   */\n  dup2\n    /* \"#utility.yul\":1972:1986   */\n  lt\n    /* \"#utility.yul\":1964:2200   */\n  iszero\n  tag_57\n  jumpi\n    /* \"#utility.yul\":2067:2086   */\n  dup9\n  dup7\n  add\n    /* \"#utility.yul\":2061:2087   */\n  mload\n    /* \"#utility.yul\":2046:2088   */\n  dup3\n  sstore\n    /* \"#utility.yul\":2159:2186   */\n  swap5\n  dup5\n  add\n  swap5\n    /* \"#utility.yul\":2127:2128   */\n  0x01\n    /* \"#utility.yul\":2115:2129   */\n  swap1\n  swap2\n  add\n  swap1\n    /* \"#utility.yul\":1994:2013   */\n  dup5\n  add\n    /* \"#utility.yul\":1964:2200   */\n  jump(tag_55)\ntag_57:\n    /* \"#utility.yul\":1968:1971   */\n  pop\n    /* \"#utility.yul\":2228:2234   */\n  dup6\n    /* \"#utility.yul\":2219:2226   */\n  dup3\n    /* \"#utility.yul\":2216:2235   */\n  lt\n    /* \"#utility.yul\":2213:2414   */\n  iszero\n  tag_58\n  jumpi\n    /* \"#utility.yul\":2289:2308   */\n  dup8\n  dup6\n  add\n    /* \"#utility.yul\":2283:2309   */\n  mload\n  not(0x00)\n    /* \"#utility.yul\":2372:2373   */\n  0x03\n    /* \"#utility.yul\":2368:2382   */\n  dup9\n  swap1\n  shl\n    /* \"#utility.yul\":2384:2387   */\n  0xf8\n    /* \"#utility.yul\":2364:2388   */\n  and\n    /* \"#utility.yul\":2360:2397   */\n  shr\n    /* \"#utility.yul\":2356:2398   */\n  not\n    /* \"#utility.yul\":2341:2399   */\n  and\n    /* \"#utility.yul\":2326:2400   */\n  dup2\n  sstore\n    /* \"#utility.yul\":2213:2414   */\ntag_58:\n  pop\n  pop\n  pop\n  pop\n  pop\n    /* \"#utility.yul\":2460:2461   */\n  0x01\n    /* \"#utility.yul\":2444:2458   */\n  swap1\n  dup2\n  shl\n    /* \"#utility.yul\":2440:2462   */\n  add\n    /* \"#utility.yul\":2427:2463   */\n  swap1\n  sstore\n  pop\n    /* \"#utility.yul\":1378:2730   */\n  jump\t// out\n    /* \"#utility.yul\":2735:3224   */\ntag_32:\n    /* \"Contracts/Variable_Token_Minter.sol\":330:587  contract VariableToken is ERC20, ERC20Burnable, Ownable, ERC20Permit {... */\n  mload(0x80)\n  mload(0xa0)\n  mload(0xc0)\n  mload(0xe0)\n  mload(0x0100)\n  mload(0x0120)\n  codecopy(0x00, dataOffset(sub_0), dataSize(sub_0))\n  0x00\n  assignImmutable(\"0x243b2fa192aa6cedc53c277edc30a7596d526b9746b0ea0bcc65bed6d471d990\")\n  0x00\n  assignImmutable(\"0xc458fe05ac0a93d4bfc1fb2c19565a7cbce69adca8850ec132e330f4090aaacf\")\n  0x00\n  assignImmutable(\"0xd70af8e5f98000ee10613709d38641f47ce113edcefaa35bee2f34392c3efaf3\")\n  0x00\n  assignImmutable(\"0xbf8436c235a5e466e3bdd7bbb1280de40db7051dcd9fb9bad8f392a7874120e3\")\n  0x00\n  assignImmutable(\"0xfbf2d44178b5d420b78d01ab3116f1fdf3436d3f898189c8062b178264756b85\")\n  0x00\n  assignImmutable(\"0x50f2b25de7441afe5325a10159bc4f5352b2ba50570484a9e9ecec0338d16d4c\")\n  return(0x00, dataSize(sub_0))\nstop\n\nsub_0: assembly {\n        /* \"Contracts/Variable_Token_Minter.sol\":330:587  contract VariableToken is ERC20, ERC20Burnable, Ownable, ERC20Permit {... */\n      mstore(0x40, 0x80)\n      callvalue\n      dup1\n      iszero\n      tag_1\n      jumpi\n      0x00\n      dup1\n      revert\n    tag_1:\n      pop\n      jumpi(tag_2, lt(calldatasize, 0x04))\n      shr(0xe0, calldataload(0x00))\n      dup1\n      0x715018a6\n      gt\n      tag_23\n      jumpi\n      dup1\n      0xa457c2d7\n      gt\n      tag_24\n      jumpi\n      dup1\n      0xa457c2d7\n      eq\n      tag_18\n      jumpi\n      dup1\n      0xa9059cbb\n      eq\n      tag_19\n      jumpi\n      dup1\n      0xd505accf\n      eq\n      tag_20\n      jumpi\n      dup1\n      0xdd62ed3e\n      eq\n      tag_21\n      jumpi\n      dup1\n      0xf2fde38b\n      eq\n      tag_22\n      jumpi\n      0x00\n      dup1\n      revert\n    tag_24:\n      dup1\n      0x715018a6\n      eq\n      tag_13\n      jumpi\n      dup1\n      0x79cc6790\n      eq\n      tag_14\n      jumpi\n      dup1\n      0x7ecebe00\n      eq\n      tag_15\n      jumpi\n      dup1\n      0x8da5cb5b\n      eq\n      tag_16\n      jumpi\n      dup1\n      0x95d89b41\n      eq\n      tag_17\n      jumpi\n      0x00\n      dup1\n      revert\n    tag_23:\n      dup1\n      0x3644e515\n      gt\n      tag_25\n      jumpi\n      dup1\n      0x3644e515\n      eq\n      tag_8\n      jumpi\n      dup1\n      0x39509351\n      eq\n      tag_9\n      jumpi\n      dup1\n      0x40c10f19\n      eq\n      tag_10\n      jumpi\n      dup1\n      0x42966c68\n      eq\n      tag_11\n      jumpi\n      dup1\n      0x70a08231\n      eq\n      tag_12\n      jumpi\n      0x00\n      dup1\n      revert\n    tag_25:\n      dup1\n      0x06fdde03\n      eq\n      tag_3\n      jumpi\n      dup1\n      0x095ea7b3\n      eq\n      tag_4\n      jumpi\n      dup1\n      0x18160ddd\n      eq\n      tag_5\n      jumpi\n      dup1\n      0x23b872dd\n      eq\n      tag_6\n      jumpi\n      dup1\n      0x313ce567\n      eq\n      tag_7\n      jumpi\n    tag_2:\n      0x00\n      dup1\n      revert\n        /* \"@openzeppelin/contracts/token/ERC20/ERC20.sol\":2154:2252  function name() public view virtual override returns (string memory) {... */\n    tag_3:\n      tag_26\n      tag_27\n      jump\t// in\n    tag_26:\n      mload(0x40)\n      tag_28\n      swap2\n      swap1\n      tag_29\n      jump\t// in\n    tag_28:\n      mload(0x40)\n      dup1\n      swap2\n      sub\n      swap1\n      return\n        /* \"@openzeppelin/contracts/token/ERC20/ERC20.sol\":4431:4628  function approve(address spender, uint256 amount) public virtual override returns (bool) {... */\n    tag_4:\n      tag_30\n      tag_31\n      calldatasize\n      0x04\n      tag_32\n      jump\t// in\n    tag_31:\n      tag_33\n      jump\t// in\n    tag_30:\n      mload(0x40)\n        /* \"#utility.yul\":1169:1183   */\n      swap1\n      iszero\n        /* \"#utility.yul\":1162:1184   */\n      iszero\n        /* \"#utility.yul\":1144:1185   */\n      dup2\n      mstore\n        /* \"#utility.yul\":1132:1134   */\n      0x20\n        /* \"#utility.yul\":1117:1135   */\n      add\n        /* \"@openzeppelin/contracts/token/ERC20/ERC20.sol\":4431:4628  function approve(address spender, uint256 amount) public virtual override returns (bool) {... */\n      tag_28\n        /* \"#utility.yul\":1004:1191   */\n      jump\n        /* \"@openzeppelin/contracts/token/ERC20/ERC20.sol\":3242:3348  function totalSupply() public view virtual override returns (uint256) {... */\n    tag_5:\n        /* \"@openzeppelin/contracts/token/ERC20/ERC20.sol\":3329:3341  _totalSupply */\n      sload(0x02)\n        /* \"@openzeppelin/contracts/token/ERC20/ERC20.sol\":3242:3348  function totalSupply() public view virtual override returns (uint256) {... */\n    tag_36:\n      mload(0x40)\n        /* \"#utility.yul\":1342:1367   */\n      swap1\n      dup2\n      mstore\n        /* \"#utility.yul\":1330:1332   */\n      0x20\n        /* \"#utility.yul\":1315:1333   */\n      add\n        /* \"@openzeppelin/contracts/token/ERC20/ERC20.sol\":3242:3348  function totalSupply() public view virtual override returns (uint256) {... */\n      tag_28\n        /* \"#utility.yul\":1196:1373   */\n      jump\n        /* \"@openzeppelin/contracts/token/ERC20/ERC20.sol\":5190:5476  function transferFrom(... */\n    tag_6:\n      tag_30\n      tag_41\n      calldatasize\n      0x04\n      tag_42\n      jump\t// in\n    tag_41:\n      tag_43\n      jump\t// in\n        /* \"@openzeppelin/contracts/token/ERC20/ERC20.sol\":3091:3182  function decimals() public view virtual override returns (uint8) {... */\n    tag_7:\n      mload(0x40)\n        /* \"@openzeppelin/contracts/token/ERC20/ERC20.sol\":3173:3175  18 */\n      0x12\n        /* \"#utility.yul\":1853:1889   */\n      dup2\n      mstore\n        /* \"#utility.yul\":1841:1843   */\n      0x20\n        /* \"#utility.yul\":1826:1844   */\n      add\n        /* \"@openzeppelin/contracts/token/ERC20/ERC20.sol\":3091:3182  function decimals() public view virtual override returns (uint8) {... */\n      tag_28\n        /* \"#utility.yul\":1711:1895   */\n      jump\n        /* \"@openzeppelin/contracts/token/ERC20/extensions/draft-ERC20Permit.sol\":2879:2992  function DOMAIN_SEPARATOR() external view override returns (bytes32) {... */\n    tag_8:\n      tag_36\n      tag_50\n      jump\t// in\n        /* \"@openzeppelin/contracts/token/ERC20/ERC20.sol\":5871:6105  function increaseAllowance(address spender, uint256 addedValue) public virtual returns (bool) {... */\n    tag_9:\n      tag_30\n      tag_54\n      calldatasize\n      0x04\n      tag_32\n      jump\t// in\n    tag_54:\n      tag_55\n      jump\t// in\n        /* \"Contracts/Variable_Token_Minter.sol\":489:584  function mint(address to, uint256 amount) public onlyOwner {... */\n    tag_10:\n      tag_57\n      tag_58\n      calldatasize\n      0x04\n      tag_32\n      jump\t// in\n    tag_58:\n      tag_59\n      jump\t// in\n    tag_57:\n      stop\n        /* \"@openzeppelin/contracts/token/ERC20/extensions/ERC20Burnable.sol\":578:667  function burn(uint256 amount) public virtual {... */\n    tag_11:\n      tag_57\n      tag_61\n      calldatasize\n      0x04\n      tag_62\n      jump\t// in\n    tag_61:\n      tag_63\n      jump\t// in\n        /* \"@openzeppelin/contracts/token/ERC20/ERC20.sol\":3406:3531  function balanceOf(address account) public view virtual override returns (uint256) {... */\n    tag_12:\n      tag_36\n      tag_65\n      calldatasize\n      0x04\n      tag_66\n      jump\t// in\n    tag_65:\n      sub(shl(0xa0, 0x01), 0x01)\n        /* \"@openzeppelin/contracts/token/ERC20/ERC20.sol\":3506:3524  _balances[account] */\n      and\n        /* \"@openzeppelin/contracts/token/ERC20/ERC20.sol\":3480:3487  uint256 */\n      0x00\n        /* \"@openzeppelin/contracts/token/ERC20/ERC20.sol\":3506:3524  _balances[account] */\n      swap1\n      dup2\n      mstore\n      0x20\n      dup2\n      swap1\n      mstore\n      0x40\n      swap1\n      keccak256\n      sload\n      swap1\n        /* \"@openzeppelin/contracts/token/ERC20/ERC20.sol\":3406:3531  function balanceOf(address account) public view virtual override returns (uint256) {... */\n      jump\n        /* \"@openzeppelin/contracts/access/Ownable.sol\":1831:1932  function renounceOwnership() public virtual onlyOwner {... */\n    tag_13:\n      tag_57\n      tag_70\n      jump\t// in\n        /* \"@openzeppelin/contracts/token/ERC20/extensions/ERC20Burnable.sol\":973:1134  function burnFrom(address account, uint256 amount) public virtual {... */\n    tag_14:\n      tag_57\n      tag_72\n      calldatasize\n      0x04\n      tag_32\n      jump\t// in\n    tag_72:\n      tag_73\n      jump\t// in\n        /* \"@openzeppelin/contracts/token/ERC20/extensions/draft-ERC20Permit.sol\":2629:2755  function nonces(address owner) public view virtual override returns (uint256) {... */\n    tag_15:\n      tag_36\n      tag_75\n      calldatasize\n      0x04\n      tag_66\n      jump\t// in\n    tag_75:\n      tag_76\n      jump\t// in\n        /* \"@openzeppelin/contracts/access/Ownable.sol\":1201:1286  function owner() public view virtual returns (address) {... */\n    tag_16:\n        /* \"@openzeppelin/contracts/access/Ownable.sol\":1273:1279  _owner */\n      sload(0x05)\n        /* \"@openzeppelin/contracts/access/Ownable.sol\":1201:1286  function owner() public view virtual returns (address) {... */\n      mload(0x40)\n      sub(shl(0xa0, 0x01), 0x01)\n        /* \"@openzeppelin/contracts/access/Ownable.sol\":1273:1279  _owner */\n      swap1\n      swap2\n      and\n        /* \"#utility.yul\":2604:2655   */\n      dup2\n      mstore\n        /* \"#utility.yul\":2592:2594   */\n      0x20\n        /* \"#utility.yul\":2577:2595   */\n      add\n        /* \"@openzeppelin/contracts/access/Ownable.sol\":1201:1286  function owner() public view virtual returns (address) {... */\n      tag_28\n        /* \"#utility.yul\":2458:2661   */\n      jump\n        /* \"@openzeppelin/contracts/token/ERC20/ERC20.sol\":2365:2467  function symbol() public view virtual override returns (string memory) {... */\n    tag_17:\n      tag_26\n      tag_83\n      jump\t// in\n        /* \"@openzeppelin/contracts/token/ERC20/ERC20.sol\":6592:7019  function decreaseAllowance(address spender, uint256 subtractedValue) public virtual returns (bool) {... */\n    tag_18:\n      tag_30\n      tag_86\n      calldatasize\n      0x04\n      tag_32\n      jump\t// in\n    tag_86:\n      tag_87\n      jump\t// in\n        /* \"@openzeppelin/contracts/token/ERC20/ERC20.sol\":3727:3916  function transfer(address to, uint256 amount) public virtual override returns (bool) {... */\n    tag_19:\n      tag_30\n      tag_90\n      calldatasize\n      0x04\n      tag_32\n      jump\t// in\n    tag_90:\n      tag_91\n      jump\t// in\n        /* \"@openzeppelin/contracts/token/ERC20/extensions/draft-ERC20Permit.sol\":1942:2568  function permit(... */\n    tag_20:\n      tag_57\n      tag_94\n      calldatasize\n      0x04\n      tag_95\n      jump\t// in\n    tag_94:\n      tag_96\n      jump\t// in\n        /* \"@openzeppelin/contracts/token/ERC20/ERC20.sol\":3974:4123  function allowance(address owner, address spender) public view virtual override returns (uint256) {... */\n    tag_21:\n      tag_36\n      tag_98\n      calldatasize\n      0x04\n      tag_99\n      jump\t// in\n    tag_98:\n      tag_100\n      jump\t// in\n        /* \"@openzeppelin/contracts/access/Ownable.sol\":2081:2279  function transferOwnership(address newOwner) public virtual onlyOwner {... */\n    tag_22:\n      tag_57\n      tag_103\n      calldatasize\n      0x04\n      tag_66\n      jump\t// in\n    tag_103:\n      tag_104\n      jump\t// in\n        /* \"@openzeppelin/contracts/token/ERC20/ERC20.sol\":2154:2252  function name() public view virtual override returns (string memory) {... */\n    tag_27:\n        /* \"@openzeppelin/contracts/token/ERC20/ERC20.sol\":2208:2221  string memory */\n      0x60\n        /* \"@openzeppelin/contracts/token/ERC20/ERC20.sol\":2240:2245  _name */\n      0x03\n        /* \"@openzeppelin/contracts/token/ERC20/ERC20.sol\":2233:2245  return _name */\n      dup1\n      sload\n      tag_106\n      swap1\n      tag_107\n      jump\t// in\n    tag_106:\n      dup1\n      0x1f\n      add\n      0x20\n      dup1\n      swap2\n      div\n      mul\n      0x20\n      add\n      mload(0x40)\n      swap1\n      dup2\n      add\n      0x40\n      mstore\n      dup1\n      swap3\n      swap2\n      swap1\n      dup2\n      dup2\n      mstore\n      0x20\n      add\n      dup3\n      dup1\n      sload\n      tag_108\n      swap1\n      tag_107\n      jump\t// in\n    tag_108:\n      dup1\n      iszero\n      tag_109\n      jumpi\n      dup1\n      0x1f\n      lt\n      tag_110\n      jumpi\n      0x0100\n      dup1\n      dup4\n      sload\n      div\n      mul\n      dup4\n      mstore\n      swap2\n      0x20\n      add\n      swap2\n      jump(tag_109)\n    tag_110:\n      dup3\n      add\n      swap2\n      swap1\n      0x00\n      mstore\n      keccak256(0x00, 0x20)\n      swap1\n    tag_111:\n      dup2\n      sload\n      dup2\n      mstore\n      swap1\n      0x01\n      add\n      swap1\n      0x20\n      add\n      dup1\n      dup4\n      gt\n      tag_111\n      jumpi\n      dup3\n      swap1\n      sub\n      0x1f\n      and\n      dup3\n      add\n      swap2\n    tag_109:\n      pop\n      pop\n      pop\n      pop\n      pop\n      swap1\n      pop\n        /* \"@openzeppelin/contracts/token/ERC20/ERC20.sol\":2154:2252  function name() public view virtual override returns (string memory) {... */\n      swap1\n      jump\t// out\n        /* \"@openzeppelin/contracts/token/ERC20/ERC20.sol\":4431:4628  function approve(address spender, uint256 amount) public virtual override returns (bool) {... */\n    tag_33:\n        /* \"@openzeppelin/contracts/token/ERC20/ERC20.sol\":4514:4518  bool */\n      0x00\n        /* \"@openzeppelin/contracts/utils/Context.sol\":719:729  msg.sender */\n      caller\n        /* \"@openzeppelin/contracts/token/ERC20/ERC20.sol\":4568:4600  _approve(owner, spender, amount) */\n      tag_115\n        /* \"@openzeppelin/contracts/utils/Context.sol\":719:729  msg.sender */\n      dup2\n        /* \"@openzeppelin/contracts/token/ERC20/ERC20.sol\":4584:4591  spender */\n      dup6\n        /* \"@openzeppelin/contracts/token/ERC20/ERC20.sol\":4593:4599  amount */\n      dup6\n        /* \"@openzeppelin/contracts/token/ERC20/ERC20.sol\":4568:4576  _approve */\n      tag_116\n        /* \"@openzeppelin/contracts/token/ERC20/ERC20.sol\":4568:4600  _approve(owner, spender, amount) */\n      jump\t// in\n    tag_115:\n        /* \"@openzeppelin/contracts/token/ERC20/ERC20.sol\":4617:4621  true */\n      0x01\n        /* \"@openzeppelin/contracts/token/ERC20/ERC20.sol\":4610:4621  return true */\n      swap2\n      pop\n      pop\n        /* \"@openzeppelin/contracts/token/ERC20/ERC20.sol\":4431:4628  function approve(address spender, uint256 amount) public virtual override returns (bool) {... */\n    tag_112:\n      swap3\n      swap2\n      pop\n      pop\n      jump\t// out\n        /* \"@openzeppelin/contracts/token/ERC20/ERC20.sol\":5190:5476  function transferFrom(... */\n    tag_43:\n        /* \"@openzeppelin/contracts/token/ERC20/ERC20.sol\":5317:5321  bool */\n      0x00\n        /* \"@openzeppelin/contracts/utils/Context.sol\":719:729  msg.sender */\n      caller\n        /* \"@openzeppelin/contracts/token/ERC20/ERC20.sol\":5373:5411  _spendAllowance(from, spender, amount) */\n      tag_120\n        /* \"@openzeppelin/contracts/token/ERC20/ERC20.sol\":5389:5393  from */\n      dup6\n        /* \"@openzeppelin/contracts/utils/Context.sol\":719:729  msg.sender */\n      dup3\n        /* \"@openzeppelin/contracts/token/ERC20/ERC20.sol\":5404:5410  amount */\n      dup6\n        /* \"@openzeppelin/contracts/token/ERC20/ERC20.sol\":5373:5388  _spendAllowance */\n      tag_121\n        /* \"@openzeppelin/contracts/token/ERC20/ERC20.sol\":5373:5411  _spendAllowance(from, spender, amount) */\n      jump\t// in\n    tag_120:\n        /* \"@openzeppelin/contracts/token/ERC20/ERC20.sol\":5421:5448  _transfer(from, to, amount) */\n      tag_122\n        /* \"@openzeppelin/contracts/token/ERC20/ERC20.sol\":5431:5435  from */\n      dup6\n        /* \"@openzeppelin/contracts/token/ERC20/ERC20.sol\":5437:5439  to */\n      dup6\n        /* \"@openzeppelin/contracts/token/ERC20/ERC20.sol\":5441:5447  amount */\n      dup6\n        /* \"@openzeppelin/contracts/token/ERC20/ERC20.sol\":5421:5430  _transfer */\n      tag_123\n        /* \"@openzeppelin/contracts/token/ERC20/ERC20.sol\":5421:5448  _transfer(from, to, amount) */\n      jump\t// in\n    tag_122:\n      pop\n        /* \"@openzeppelin/contracts/token/ERC20/ERC20.sol\":5465:5469  true */\n      0x01\n      swap5\n        /* \"@openzeppelin/contracts/token/ERC20/ERC20.sol\":5190:5476  function transferFrom(... */\n      swap4\n      pop\n      pop\n      pop\n      pop\n      jump\t// out\n        /* \"@openzeppelin/contracts/token/ERC20/extensions/draft-ERC20Permit.sol\":2879:2992  function DOMAIN_SEPARATOR() external view override returns (bytes32) {... */\n    tag_50:\n        /* \"@openzeppelin/contracts/token/ERC20/extensions/draft-ERC20Permit.sol\":2939:2946  bytes32 */\n      0x00\n        /* \"@openzeppelin/contracts/token/ERC20/extensions/draft-ERC20Permit.sol\":2965:2985  _domainSeparatorV4() */\n      tag_126\n        /* \"@openzeppelin/contracts/token/ERC20/extensions/draft-ERC20Permit.sol\":2965:2983  _domainSeparatorV4 */\n      tag_127\n        /* \"@openzeppelin/contracts/token/ERC20/extensions/draft-ERC20Permit.sol\":2965:2985  _domainSeparatorV4() */\n      jump\t// in\n    tag_126:\n        /* \"@openzeppelin/contracts/token/ERC20/extensions/draft-ERC20Permit.sol\":2958:2985  return _domainSeparatorV4() */\n      swap1\n      pop\n        /* \"@openzeppelin/contracts/token/ERC20/extensions/draft-ERC20Permit.sol\":2879:2992  function DOMAIN_SEPARATOR() external view override returns (bytes32) {... */\n      swap1\n      jump\t// out\n        /* \"@openzeppelin/contracts/token/ERC20/ERC20.sol\":5871:6105  function increaseAllowance(address spender, uint256 addedValue) public virtual returns (bool) {... */\n    tag_55:\n        /* \"@openzeppelin/contracts/token/ERC20/ERC20.sol\":5959:5963  bool */\n      0x00\n        /* \"@openzeppelin/contracts/utils/Context.sol\":719:729  msg.sender */\n      caller\n        /* \"@openzeppelin/contracts/token/ERC20/ERC20.sol\":6013:6077  _approve(owner, spender, allowance(owner, spender) + addedValue) */\n      tag_115\n        /* \"@openzeppelin/contracts/utils/Context.sol\":719:729  msg.sender */\n      dup2\n        /* \"@openzeppelin/contracts/token/ERC20/ERC20.sol\":6029:6036  spender */\n      dup6\n        /* \"@openzeppelin/contracts/token/ERC20/ERC20.sol\":6066:6076  addedValue */\n      dup6\n        /* \"@openzeppelin/contracts/token/ERC20/ERC20.sol\":6038:6063  allowance(owner, spender) */\n      tag_131\n        /* \"@openzeppelin/contracts/utils/Context.sol\":719:729  msg.sender */\n      dup4\n        /* \"@openzeppelin/contracts/token/ERC20/ERC20.sol\":6029:6036  spender */\n      dup4\n        /* \"@openzeppelin/contracts/token/ERC20/ERC20.sol\":6038:6047  allowance */\n      tag_100\n        /* \"@openzeppelin/contracts/token/ERC20/ERC20.sol\":6038:6063  allowance(owner, spender) */\n      jump\t// in\n    tag_131:\n        /* \"@openzeppelin/contracts/token/ERC20/ERC20.sol\":6038:6076  allowance(owner, spender) + addedValue */\n      tag_132\n      swap2\n      swap1\n      tag_133\n      jump\t// in\n    tag_132:\n        /* \"@openzeppelin/contracts/token/ERC20/ERC20.sol\":6013:6021  _approve */\n      tag_116\n        /* \"@openzeppelin/contracts/token/ERC20/ERC20.sol\":6013:6077  _approve(owner, spender, allowance(owner, spender) + addedValue) */\n      jump\t// in\n        /* \"Contracts/Variable_Token_Minter.sol\":489:584  function mint(address to, uint256 amount) public onlyOwner {... */\n    tag_59:\n        /* \"@openzeppelin/contracts/access/Ownable.sol\":1094:1107  _checkOwner() */\n      tag_135\n        /* \"@openzeppelin/contracts/access/Ownable.sol\":1094:1105  _checkOwner */\n      tag_136\n        /* \"@openzeppelin/contracts/access/Ownable.sol\":1094:1107  _checkOwner() */\n      jump\t// in\n    tag_135:\n        /* \"Contracts/Variable_Token_Minter.sol\":559:576  _mint(to, amount) */\n      tag_138\n        /* \"Contracts/Variable_Token_Minter.sol\":565:567  to */\n      dup3\n        /* \"Contracts/Variable_Token_Minter.sol\":569:575  amount */\n      dup3\n        /* \"Contracts/Variable_Token_Minter.sol\":559:564  _mint */\n      tag_139\n        /* \"Contracts/Variable_Token_Minter.sol\":559:576  _mint(to, amount) */\n      jump\t// in\n    tag_138:\n        /* \"Contracts/Variable_Token_Minter.sol\":489:584  function mint(address to, uint256 amount) public onlyOwner {... */\n      pop\n      pop\n      jump\t// out\n        /* \"@openzeppelin/contracts/token/ERC20/extensions/ERC20Burnable.sol\":578:667  function burn(uint256 amount) public virtual {... */\n    tag_63:\n        /* \"@openzeppelin/contracts/token/ERC20/extensions/ERC20Burnable.sol\":633:660  _burn(_msgSender(), amount) */\n      tag_141\n        /* \"@openzeppelin/contracts/utils/Context.sol\":719:729  msg.sender */\n      caller\n        /* \"@openzeppelin/contracts/token/ERC20/extensions/ERC20Burnable.sol\":653:659  amount */\n      dup3\n        /* \"@openzeppelin/contracts/token/ERC20/extensions/ERC20Burnable.sol\":633:638  _burn */\n      tag_143\n        /* \"@openzeppelin/contracts/token/ERC20/extensions/ERC20Burnable.sol\":633:660  _burn(_msgSender(), amount) */\n      jump\t// in\n    tag_141:\n        /* \"@openzeppelin/contracts/token/ERC20/extensions/ERC20Burnable.sol\":578:667  function burn(uint256 amount) public virtual {... */\n      pop\n      jump\t// out\n        /* \"@openzeppelin/contracts/access/Ownable.sol\":1831:1932  function renounceOwnership() public virtual onlyOwner {... */\n    tag_70:\n        /* \"@openzeppelin/contracts/access/Ownable.sol\":1094:1107  _checkOwner() */\n      tag_146\n        /* \"@openzeppelin/contracts/access/Ownable.sol\":1094:1105  _checkOwner */\n      tag_136\n        /* \"@openzeppelin/contracts/access/Ownable.sol\":1094:1107  _checkOwner() */\n      jump\t// in\n    tag_146:\n        /* \"@openzeppelin/contracts/access/Ownable.sol\":1895:1925  _transferOwnership(address(0)) */\n      tag_148\n        /* \"@openzeppelin/contracts/access/Ownable.sol\":1922:1923  0 */\n      0x00\n        /* \"@openzeppelin/contracts/access/Ownable.sol\":1895:1913  _transferOwnership */\n      tag_149\n        /* \"@openzeppelin/contracts/access/Ownable.sol\":1895:1925  _transferOwnership(address(0)) */\n      jump\t// in\n    tag_148:\n        /* \"@openzeppelin/contracts/access/Ownable.sol\":1831:1932  function renounceOwnership() public virtual onlyOwner {... */\n      jump\t// out\n        /* \"@openzeppelin/contracts/token/ERC20/extensions/ERC20Burnable.sol\":973:1134  function burnFrom(address account, uint256 amount) public virtual {... */\n    tag_73:\n        /* \"@openzeppelin/contracts/token/ERC20/extensions/ERC20Burnable.sol\":1049:1095  _spendAllowance(account, _msgSender(), amount) */\n      tag_151\n        /* \"@openzeppelin/contracts/token/ERC20/extensions/ERC20Burnable.sol\":1065:1072  account */\n      dup3\n        /* \"@openzeppelin/contracts/utils/Context.sol\":719:729  msg.sender */\n      caller\n        /* \"@openzeppelin/contracts/token/ERC20/extensions/ERC20Burnable.sol\":1088:1094  amount */\n      dup4\n        /* \"@openzeppelin/contracts/token/ERC20/extensions/ERC20Burnable.sol\":1049:1064  _spendAllowance */\n      tag_121\n        /* \"@openzeppelin/contracts/token/ERC20/extensions/ERC20Burnable.sol\":1049:1095  _spendAllowance(account, _msgSender(), amount) */\n      jump\t// in\n    tag_151:\n        /* \"@openzeppelin/contracts/token/ERC20/extensions/ERC20Burnable.sol\":1105:1127  _burn(account, amount) */\n      tag_138\n        /* \"@openzeppelin/contracts/token/ERC20/extensions/ERC20Burnable.sol\":1111:1118  account */\n      dup3\n        /* \"@openzeppelin/contracts/token/ERC20/extensions/ERC20Burnable.sol\":1120:1126  amount */\n      dup3\n        /* \"@openzeppelin/contracts/token/ERC20/extensions/ERC20Burnable.sol\":1105:1110  _burn */\n      tag_143\n        /* \"@openzeppelin/contracts/token/ERC20/extensions/ERC20Burnable.sol\":1105:1127  _burn(account, amount) */\n      jump\t// in\n        /* \"@openzeppelin/contracts/token/ERC20/extensions/draft-ERC20Permit.sol\":2629:2755  function nonces(address owner) public view virtual override returns (uint256) {... */\n    tag_76:\n      sub(shl(0xa0, 0x01), 0x01)\n        /* \"@openzeppelin/contracts/token/ERC20/extensions/draft-ERC20Permit.sol\":2724:2738  _nonces[owner] */\n      dup2\n      and\n        /* \"@openzeppelin/contracts/token/ERC20/extensions/draft-ERC20Permit.sol\":2698:2705  uint256 */\n      0x00\n        /* \"@openzeppelin/contracts/token/ERC20/extensions/draft-ERC20Permit.sol\":2724:2738  _nonces[owner] */\n      swap1\n      dup2\n      mstore\n        /* \"@openzeppelin/contracts/token/ERC20/extensions/draft-ERC20Permit.sol\":2724:2731  _nonces */\n      0x06\n        /* \"@openzeppelin/contracts/token/ERC20/extensions/draft-ERC20Permit.sol\":2724:2738  _nonces[owner] */\n      0x20\n      mstore\n      0x40\n      dup2\n      keccak256\n        /* \"@openzeppelin/contracts/utils/Counters.sol\":918:932  counter._value */\n      sload\n        /* \"@openzeppelin/contracts/token/ERC20/extensions/draft-ERC20Permit.sol\":2724:2748  _nonces[owner].current() */\n      tag_112\n        /* \"@openzeppelin/contracts/utils/Counters.sol\":827:939  function current(Counter storage counter) internal view returns (uint256) {... */\n      jump\n        /* \"@openzeppelin/contracts/token/ERC20/ERC20.sol\":2365:2467  function symbol() public view virtual override returns (string memory) {... */\n    tag_83:\n        /* \"@openzeppelin/contracts/token/ERC20/ERC20.sol\":2421:2434  string memory */\n      0x60\n        /* \"@openzeppelin/contracts/token/ERC20/ERC20.sol\":2453:2460  _symbol */\n      0x04\n        /* \"@openzeppelin/contracts/token/ERC20/ERC20.sol\":2446:2460  return _symbol */\n      dup1\n      sload\n      tag_106\n      swap1\n      tag_107\n      jump\t// in\n        /* \"@openzeppelin/contracts/token/ERC20/ERC20.sol\":6592:7019  function decreaseAllowance(address spender, uint256 subtractedValue) public virtual returns (bool) {... */\n    tag_87:\n        /* \"@openzeppelin/contracts/token/ERC20/ERC20.sol\":6685:6689  bool */\n      0x00\n        /* \"@openzeppelin/contracts/utils/Context.sol\":719:729  msg.sender */\n      caller\n        /* \"@openzeppelin/contracts/token/ERC20/ERC20.sol\":6685:6689  bool */\n      dup2\n        /* \"@openzeppelin/contracts/token/ERC20/ERC20.sol\":6766:6791  allowance(owner, spender) */\n      tag_166\n        /* \"@openzeppelin/contracts/utils/Context.sol\":719:729  msg.sender */\n      dup3\n        /* \"@openzeppelin/contracts/token/ERC20/ERC20.sol\":6783:6790  spender */\n      dup7\n        /* \"@openzeppelin/contracts/token/ERC20/ERC20.sol\":6766:6775  allowance */\n      tag_100\n        /* \"@openzeppelin/contracts/token/ERC20/ERC20.sol\":6766:6791  allowance(owner, spender) */\n      jump\t// in\n    tag_166:\n        /* \"@openzeppelin/contracts/token/ERC20/ERC20.sol\":6739:6791  uint256 currentAllowance = allowance(owner, spender) */\n      swap1\n      pop\n        /* \"@openzeppelin/contracts/token/ERC20/ERC20.sol\":6829:6844  subtractedValue */\n      dup4\n        /* \"@openzeppelin/contracts/token/ERC20/ERC20.sol\":6809:6825  currentAllowance */\n      dup2\n        /* \"@openzeppelin/contracts/token/ERC20/ERC20.sol\":6809:6844  currentAllowance >= subtractedValue */\n      lt\n      iszero\n        /* \"@openzeppelin/contracts/token/ERC20/ERC20.sol\":6801:6886  require(currentAllowance >= subtractedValue, \"ERC20: decreased allowance below zero\") */\n      tag_167\n      jumpi\n      mload(0x40)\n      shl(0xe5, 0x461bcd)\n      dup2\n      mstore\n        /* \"#utility.yul\":4443:4445   */\n      0x20\n        /* \"@openzeppelin/contracts/token/ERC20/ERC20.sol\":6801:6886  require(currentAllowance >= subtractedValue, \"ERC20: decreased allowance below zero\") */\n      0x04\n      dup3\n      add\n        /* \"#utility.yul\":4425:4446   */\n      mstore\n        /* \"#utility.yul\":4482:4484   */\n      0x25\n        /* \"#utility.yul\":4462:4480   */\n      0x24\n      dup3\n      add\n        /* \"#utility.yul\":4455:4485   */\n      mstore\n        /* \"#utility.yul\":4521:4555   */\n      0x45524332303a2064656372656173656420616c6c6f77616e63652062656c6f77\n        /* \"#utility.yul\":4501:4519   */\n      0x44\n      dup3\n      add\n        /* \"#utility.yul\":4494:4556   */\n      mstore\n      shl(0xd8, 0x207a65726f)\n        /* \"#utility.yul\":4572:4590   */\n      0x64\n      dup3\n      add\n        /* \"#utility.yul\":4565:4600   */\n      mstore\n        /* \"#utility.yul\":4617:4636   */\n      0x84\n      add\n        /* \"@openzeppelin/contracts/token/ERC20/ERC20.sol\":6801:6886  require(currentAllowance >= subtractedValue, \"ERC20: decreased allowance below zero\") */\n    tag_168:\n      mload(0x40)\n      dup1\n      swap2\n      sub\n      swap1\n      revert\n    tag_167:\n        /* \"@openzeppelin/contracts/token/ERC20/ERC20.sol\":6920:6980  _approve(owner, spender, currentAllowance - subtractedValue) */\n      tag_122\n        /* \"@openzeppelin/contracts/token/ERC20/ERC20.sol\":6929:6934  owner */\n      dup3\n        /* \"@openzeppelin/contracts/token/ERC20/ERC20.sol\":6936:6943  spender */\n      dup7\n        /* \"@openzeppelin/contracts/token/ERC20/ERC20.sol\":6964:6979  subtractedValue */\n      dup7\n        /* \"@openzeppelin/contracts/token/ERC20/ERC20.sol\":6945:6961  currentAllowance */\n      dup5\n        /* \"@openzeppelin/contracts/token/ERC20/ERC20.sol\":6945:6979  currentAllowance - subtractedValue */\n      sub\n        /* \"@openzeppelin/contracts/token/ERC20/ERC20.sol\":6920:6928  _approve */\n      tag_116\n        /* \"@openzeppelin/contracts/token/ERC20/ERC20.sol\":6920:6980  _approve(owner, spender, currentAllowance - subtractedValue) */\n      jump\t// in\n        /* \"@openzeppelin/contracts/token/ERC20/ERC20.sol\":3727:3916  function transfer(address to, uint256 amount) public virtual override returns (bool) {... */\n    tag_91:\n        /* \"@openzeppelin/contracts/token/ERC20/ERC20.sol\":3806:3810  bool */\n      0x00\n        /* \"@openzeppelin/contracts/utils/Context.sol\":719:729  msg.sender */\n      caller\n        /* \"@openzeppelin/contracts/token/ERC20/ERC20.sol\":3860:3888  _transfer(owner, to, amount) */\n      tag_115\n        /* \"@openzeppelin/contracts/utils/Context.sol\":719:729  msg.sender */\n      dup2\n        /* \"@openzeppelin/contracts/token/ERC20/ERC20.sol\":3877:3879  to */\n      dup6\n        /* \"@openzeppelin/contracts/token/ERC20/ERC20.sol\":3881:3887  amount */\n      dup6\n        /* \"@openzeppelin/contracts/token/ERC20/ERC20.sol\":3860:3869  _transfer */\n      tag_123\n        /* \"@openzeppelin/contracts/token/ERC20/ERC20.sol\":3860:3888  _transfer(owner, to, amount) */\n      jump\t// in\n        /* \"@openzeppelin/contracts/token/ERC20/extensions/draft-ERC20Permit.sol\":1942:2568  function permit(... */\n    tag_96:\n        /* \"@openzeppelin/contracts/token/ERC20/extensions/draft-ERC20Permit.sol\":2177:2185  deadline */\n      dup4\n        /* \"@openzeppelin/contracts/token/ERC20/extensions/draft-ERC20Permit.sol\":2158:2173  block.timestamp */\n      timestamp\n        /* \"@openzeppelin/contracts/token/ERC20/extensions/draft-ERC20Permit.sol\":2158:2185  block.timestamp <= deadline */\n      gt\n      iszero\n        /* \"@openzeppelin/contracts/token/ERC20/extensions/draft-ERC20Permit.sol\":2150:2219  require(block.timestamp <= deadline, \"ERC20Permit: expired deadline\") */\n      tag_175\n      jumpi\n      mload(0x40)\n      shl(0xe5, 0x461bcd)\n      dup2\n      mstore\n        /* \"#utility.yul\":4849:4851   */\n      0x20\n        /* \"@openzeppelin/contracts/token/ERC20/extensions/draft-ERC20Permit.sol\":2150:2219  require(block.timestamp <= deadline, \"ERC20Permit: expired deadline\") */\n      0x04\n      dup3\n      add\n        /* \"#utility.yul\":4831:4852   */\n      mstore\n        /* \"#utility.yul\":4888:4890   */\n      0x1d\n        /* \"#utility.yul\":4868:4886   */\n      0x24\n      dup3\n      add\n        /* \"#utility.yul\":4861:4891   */\n      mstore\n        /* \"#utility.yul\":4927:4958   */\n      0x45524332305065726d69743a206578706972656420646561646c696e65000000\n        /* \"#utility.yul\":4907:4925   */\n      0x44\n      dup3\n      add\n        /* \"#utility.yul\":4900:4959   */\n      mstore\n        /* \"#utility.yul\":4976:4994   */\n      0x64\n      add\n        /* \"@openzeppelin/contracts/token/ERC20/extensions/draft-ERC20Permit.sol\":2150:2219  require(block.timestamp <= deadline, \"ERC20Permit: expired deadline\") */\n      tag_168\n        /* \"#utility.yul\":4647:5000   */\n      jump\n        /* \"@openzeppelin/contracts/token/ERC20/extensions/draft-ERC20Permit.sol\":2150:2219  require(block.timestamp <= deadline, \"ERC20Permit: expired deadline\") */\n    tag_175:\n        /* \"@openzeppelin/contracts/token/ERC20/extensions/draft-ERC20Permit.sol\":2230:2248  bytes32 structHash */\n      0x00\n        /* \"@openzeppelin/contracts/token/ERC20/extensions/draft-ERC20Permit.sol\":1137:1232  keccak256(\"Permit(address owner,address spender,uint256 value,uint256 nonce,uint256 deadline)\") */\n      0x6e71edae12b1b97f4d1f60370fef10105fa2faae0126114a169c64845d6126c9\n        /* \"@openzeppelin/contracts/token/ERC20/extensions/draft-ERC20Permit.sol\":2290:2295  owner */\n      dup9\n        /* \"@openzeppelin/contracts/token/ERC20/extensions/draft-ERC20Permit.sol\":2297:2304  spender */\n      dup9\n        /* \"@openzeppelin/contracts/token/ERC20/extensions/draft-ERC20Permit.sol\":2306:2311  value */\n      dup9\n        /* \"@openzeppelin/contracts/token/ERC20/extensions/draft-ERC20Permit.sol\":2313:2329  _useNonce(owner) */\n      tag_178\n        /* \"@openzeppelin/contracts/token/ERC20/extensions/draft-ERC20Permit.sol\":2323:2328  owner */\n      dup13\n        /* \"@openzeppelin/contracts/token/ERC20/extensions/draft-ERC20Permit.sol\":2313:2322  _useNonce */\n      tag_179\n        /* \"@openzeppelin/contracts/token/ERC20/extensions/draft-ERC20Permit.sol\":2313:2329  _useNonce(owner) */\n      jump\t// in\n    tag_178:\n        /* \"@openzeppelin/contracts/token/ERC20/extensions/draft-ERC20Permit.sol\":2261:2340  abi.encode(_PERMIT_TYPEHASH, owner, spender, value, _useNonce(owner), deadline) */\n      0x40\n      dup1\n      mload\n      0x20\n      dup2\n      add\n        /* \"#utility.yul\":5292:5317   */\n      swap7\n      swap1\n      swap7\n      mstore\n      sub(shl(0xa0, 0x01), 0x01)\n        /* \"#utility.yul\":5391:5406   */\n      swap5\n      dup6\n      and\n        /* \"#utility.yul\":5371:5389   */\n      swap1\n      dup7\n      add\n        /* \"#utility.yul\":5364:5407   */\n      mstore\n        /* \"#utility.yul\":5443:5458   */\n      swap3\n      swap1\n      swap2\n      and\n        /* \"#utility.yul\":5423:5441   */\n      0x60\n      dup5\n      add\n        /* \"#utility.yul\":5416:5459   */\n      mstore\n        /* \"#utility.yul\":5475:5493   */\n      0x80\n      dup4\n      add\n        /* \"#utility.yul\":5468:5502   */\n      mstore\n        /* \"#utility.yul\":5518:5537   */\n      0xa0\n      dup3\n      add\n        /* \"#utility.yul\":5511:5546   */\n      mstore\n        /* \"#utility.yul\":5562:5581   */\n      0xc0\n      dup2\n      add\n        /* \"#utility.yul\":5555:5590   */\n      dup7\n      swap1\n      mstore\n        /* \"#utility.yul\":5264:5283   */\n      0xe0\n      add\n        /* \"@openzeppelin/contracts/token/ERC20/extensions/draft-ERC20Permit.sol\":2261:2340  abi.encode(_PERMIT_TYPEHASH, owner, spender, value, _useNonce(owner), deadline) */\n      mload(0x40)\n      0x20\n      dup2\n      dup4\n      sub\n      sub\n      dup2\n      mstore\n      swap1\n      0x40\n      mstore\n        /* \"@openzeppelin/contracts/token/ERC20/extensions/draft-ERC20Permit.sol\":2251:2341  keccak256(abi.encode(_PERMIT_TYPEHASH, owner, spender, value, _useNonce(owner), deadline)) */\n      dup1\n      mload\n      swap1\n      0x20\n      add\n      keccak256\n        /* \"@openzeppelin/contracts/token/ERC20/extensions/draft-ERC20Permit.sol\":2230:2341  bytes32 structHash = keccak256(abi.encode(_PERMIT_TYPEHASH, owner, spender, value, _useNonce(owner), deadline)) */\n      swap1\n      pop\n        /* \"@openzeppelin/contracts/token/ERC20/extensions/draft-ERC20Permit.sol\":2352:2364  bytes32 hash */\n      0x00\n        /* \"@openzeppelin/contracts/token/ERC20/extensions/draft-ERC20Permit.sol\":2367:2395  _hashTypedDataV4(structHash) */\n      tag_182\n        /* \"@openzeppelin/contracts/token/ERC20/extensions/draft-ERC20Permit.sol\":2384:2394  structHash */\n      dup3\n        /* \"@openzeppelin/contracts/token/ERC20/extensions/draft-ERC20Permit.sol\":2367:2383  _hashTypedDataV4 */\n      tag_183\n        /* \"@openzeppelin/contracts/token/ERC20/extensions/draft-ERC20Permit.sol\":2367:2395  _hashTypedDataV4(structHash) */\n      jump\t// in\n    tag_182:\n        /* \"@openzeppelin/contracts/token/ERC20/extensions/draft-ERC20Permit.sol\":2352:2395  bytes32 hash = _hashTypedDataV4(structHash) */\n      swap1\n      pop\n        /* \"@openzeppelin/contracts/token/ERC20/extensions/draft-ERC20Permit.sol\":2406:2420  address signer */\n      0x00\n        /* \"@openzeppelin/contracts/token/ERC20/extensions/draft-ERC20Permit.sol\":2423:2451  ECDSA.recover(hash, v, r, s) */\n      tag_184\n        /* \"@openzeppelin/contracts/token/ERC20/extensions/draft-ERC20Permit.sol\":2437:2441  hash */\n      dup3\n        /* \"@openzeppelin/contracts/token/ERC20/extensions/draft-ERC20Permit.sol\":2443:2444  v */\n      dup8\n        /* \"@openzeppelin/contracts/token/ERC20/extensions/draft-ERC20Permit.sol\":2446:2447  r */\n      dup8\n        /* \"@openzeppelin/contracts/token/ERC20/extensions/draft-ERC20Permit.sol\":2449:2450  s */\n      dup8\n        /* \"@openzeppelin/contracts/token/ERC20/extensions/draft-ERC20Permit.sol\":2423:2436  ECDSA.recover */\n      tag_185\n        /* \"@openzeppelin/contracts/token/ERC20/extensions/draft-ERC20Permit.sol\":2423:2451  ECDSA.recover(hash, v, r, s) */\n      jump\t// in\n    tag_184:\n        /* \"@openzeppelin/contracts/token/ERC20/extensions/draft-ERC20Permit.sol\":2406:2451  address signer = ECDSA.recover(hash, v, r, s) */\n      swap1\n      pop\n        /* \"@openzeppelin/contracts/token/ERC20/extensions/draft-ERC20Permit.sol\":2479:2484  owner */\n      dup10\n      sub(shl(0xa0, 0x01), 0x01)\n        /* \"@openzeppelin/contracts/token/ERC20/extensions/draft-ERC20Permit.sol\":2469:2484  signer == owner */\n      and\n        /* \"@openzeppelin/contracts/token/ERC20/extensions/draft-ERC20Permit.sol\":2469:2475  signer */\n      dup2\n      sub(shl(0xa0, 0x01), 0x01)\n        /* \"@openzeppelin/contracts/token/ERC20/extensions/draft-ERC20Permit.sol\":2469:2484  signer == owner */\n      and\n      eq\n        /* \"@openzeppelin/contracts/token/ERC20/extensions/draft-ERC20Permit.sol\":2461:2519  require(signer == owner, \"ERC20Permit: invalid signature\") */\n      tag_186\n      jumpi\n      mload(0x40)\n      shl(0xe5, 0x461bcd)\n      dup2\n      mstore\n        /* \"#utility.yul\":5803:5805   */\n      0x20\n        /* \"@openzeppelin/contracts/token/ERC20/extensions/draft-ERC20Permit.sol\":2461:2519  require(signer == owner, \"ERC20Permit: invalid signature\") */\n      0x04\n      dup3\n      add\n        /* \"#utility.yul\":5785:5806   */\n      mstore\n        /* \"#utility.yul\":5842:5844   */\n      0x1e\n        /* \"#utility.yul\":5822:5840   */\n      0x24\n      dup3\n      add\n        /* \"#utility.yul\":5815:5845   */\n      mstore\n        /* \"#utility.yul\":5881:5913   */\n      0x45524332305065726d69743a20696e76616c6964207369676e61747572650000\n        /* \"#utility.yul\":5861:5879   */\n      0x44\n      dup3\n      add\n        /* \"#utility.yul\":5854:5914   */\n      mstore\n        /* \"#utility.yul\":5931:5949   */\n      0x64\n      add\n        /* \"@openzeppelin/contracts/token/ERC20/extensions/draft-ERC20Permit.sol\":2461:2519  require(signer == owner, \"ERC20Permit: invalid signature\") */\n      tag_168\n        /* \"#utility.yul\":5601:5955   */\n      jump\n        /* \"@openzeppelin/contracts/token/ERC20/extensions/draft-ERC20Permit.sol\":2461:2519  require(signer == owner, \"ERC20Permit: invalid signature\") */\n    tag_186:\n        /* \"@openzeppelin/contracts/token/ERC20/extensions/draft-ERC20Permit.sol\":2530:2561  _approve(owner, spender, value) */\n      tag_189\n        /* \"@openzeppelin/contracts/token/ERC20/extensions/draft-ERC20Permit.sol\":2539:2544  owner */\n      dup11\n        /* \"@openzeppelin/contracts/token/ERC20/extensions/draft-ERC20Permit.sol\":2546:2553  spender */\n      dup11\n        /* \"@openzeppelin/contracts/token/ERC20/extensions/draft-ERC20Permit.sol\":2555:2560  value */\n      dup11\n        /* \"@openzeppelin/contracts/token/ERC20/extensions/draft-ERC20Permit.sol\":2530:2538  _approve */\n      tag_116\n        /* \"@openzeppelin/contracts/token/ERC20/extensions/draft-ERC20Permit.sol\":2530:2561  _approve(owner, spender, value) */\n      jump\t// in\n    tag_189:\n        /* \"@openzeppelin/contracts/token/ERC20/extensions/draft-ERC20Permit.sol\":2140:2568  {... */\n      pop\n      pop\n      pop\n        /* \"@openzeppelin/contracts/token/ERC20/extensions/draft-ERC20Permit.sol\":1942:2568  function permit(... */\n      pop\n      pop\n      pop\n      pop\n      pop\n      pop\n      pop\n      jump\t// out\n        /* \"@openzeppelin/contracts/token/ERC20/ERC20.sol\":3974:4123  function allowance(address owner, address spender) public view virtual override returns (uint256) {... */\n    tag_100:\n      sub(shl(0xa0, 0x01), 0x01)\n        /* \"@openzeppelin/contracts/token/ERC20/ERC20.sol\":4089:4107  _allowances[owner] */\n      swap2\n      dup3\n      and\n        /* \"@openzeppelin/contracts/token/ERC20/ERC20.sol\":4063:4070  uint256 */\n      0x00\n        /* \"@openzeppelin/contracts/token/ERC20/ERC20.sol\":4089:4107  _allowances[owner] */\n      swap1\n      dup2\n      mstore\n        /* \"@openzeppelin/contracts/token/ERC20/ERC20.sol\":4089:4100  _allowances */\n      0x01\n        /* \"@openzeppelin/contracts/token/ERC20/ERC20.sol\":4089:4107  _allowances[owner] */\n      0x20\n      swap1\n      dup2\n      mstore\n      0x40\n      dup1\n      dup4\n      keccak256\n        /* \"@openzeppelin/contracts/token/ERC20/ERC20.sol\":4089:4116  _allowances[owner][spender] */\n      swap4\n      swap1\n      swap5\n      and\n      dup3\n      mstore\n      swap2\n      swap1\n      swap2\n      mstore\n      keccak256\n      sload\n      swap1\n        /* \"@openzeppelin/contracts/token/ERC20/ERC20.sol\":3974:4123  function allowance(address owner, address spender) public view virtual override returns (uint256) {... */\n      jump\t// out\n        /* \"@openzeppelin/contracts/access/Ownable.sol\":2081:2279  function transferOwnership(address newOwner) public virtual onlyOwner {... */\n    tag_104:\n        /* \"@openzeppelin/contracts/access/Ownable.sol\":1094:1107  _checkOwner() */\n      tag_192\n        /* \"@openzeppelin/contracts/access/Ownable.sol\":1094:1105  _checkOwner */\n      tag_136\n        /* \"@openzeppelin/contracts/access/Ownable.sol\":1094:1107  _checkOwner() */\n      jump\t// in\n    tag_192:\n      sub(shl(0xa0, 0x01), 0x01)\n        /* \"@openzeppelin/contracts/access/Ownable.sol\":2169:2191  newOwner != address(0) */\n      dup2\n      and\n        /* \"@openzeppelin/contracts/access/Ownable.sol\":2161:2234  require(newOwner != address(0), \"Ownable: new owner is the zero address\") */\n      tag_194\n      jumpi\n      mload(0x40)\n      shl(0xe5, 0x461bcd)\n      dup2\n      mstore\n        /* \"#utility.yul\":6162:6164   */\n      0x20\n        /* \"@openzeppelin/contracts/access/Ownable.sol\":2161:2234  require(newOwner != address(0), \"Ownable: new owner is the zero address\") */\n      0x04\n      dup3\n      add\n        /* \"#utility.yul\":6144:6165   */\n      mstore\n        /* \"#utility.yul\":6201:6203   */\n      0x26\n        /* \"#utility.yul\":6181:6199   */\n      0x24\n      dup3\n      add\n        /* \"#utility.yul\":6174:6204   */\n      mstore\n        /* \"#utility.yul\":6240:6274   */\n      0x4f776e61626c653a206e6577206f776e657220697320746865207a65726f2061\n        /* \"#utility.yul\":6220:6238   */\n      0x44\n      dup3\n      add\n        /* \"#utility.yul\":6213:6275   */\n      mstore\n      shl(0xd0, 0x646472657373)\n        /* \"#utility.yul\":6291:6309   */\n      0x64\n      dup3\n      add\n        /* \"#utility.yul\":6284:6320   */\n      mstore\n        /* \"#utility.yul\":6337:6356   */\n      0x84\n      add\n        /* \"@openzeppelin/contracts/access/Ownable.sol\":2161:2234  require(newOwner != address(0), \"Ownable: new owner is the zero address\") */\n      tag_168\n        /* \"#utility.yul\":5960:6362   */\n      jump\n        /* \"@openzeppelin/contracts/access/Ownable.sol\":2161:2234  require(newOwner != address(0), \"Ownable: new owner is the zero address\") */\n    tag_194:\n        /* \"@openzeppelin/contracts/access/Ownable.sol\":2244:2272  _transferOwnership(newOwner) */\n      tag_141\n        /* \"@openzeppelin/contracts/access/Ownable.sol\":2263:2271  newOwner */\n      dup2\n        /* \"@openzeppelin/contracts/access/Ownable.sol\":2244:2262  _transferOwnership */\n      tag_149\n        /* \"@openzeppelin/contracts/access/Ownable.sol\":2244:2272  _transferOwnership(newOwner) */\n      jump\t// in\n        /* \"@openzeppelin/contracts/token/ERC20/ERC20.sol\":10504:10874  function _approve(... */\n    tag_116:\n      sub(shl(0xa0, 0x01), 0x01)\n        /* \"@openzeppelin/contracts/token/ERC20/ERC20.sol\":10635:10654  owner != address(0) */\n      dup4\n      and\n        /* \"@openzeppelin/contracts/token/ERC20/ERC20.sol\":10627:10695  require(owner != address(0), \"ERC20: approve from the zero address\") */\n      tag_200\n      jumpi\n      mload(0x40)\n      shl(0xe5, 0x461bcd)\n      dup2\n      mstore\n        /* \"#utility.yul\":6569:6571   */\n      0x20\n        /* \"@openzeppelin/contracts/token/ERC20/ERC20.sol\":10627:10695  require(owner != address(0), \"ERC20: approve from the zero address\") */\n      0x04\n      dup3\n      add\n        /* \"#utility.yul\":6551:6572   */\n      mstore\n        /* \"#utility.yul\":6608:6610   */\n      0x24\n        /* \"#utility.yul\":6588:6606   */\n      dup1\n      dup3\n      add\n        /* \"#utility.yul\":6581:6611   */\n      mstore\n        /* \"#utility.yul\":6647:6681   */\n      0x45524332303a20617070726f76652066726f6d20746865207a65726f20616464\n        /* \"#utility.yul\":6627:6645   */\n      0x44\n      dup3\n      add\n        /* \"#utility.yul\":6620:6682   */\n      mstore\n      shl(0xe0, 0x72657373)\n        /* \"#utility.yul\":6698:6716   */\n      0x64\n      dup3\n      add\n        /* \"#utility.yul\":6691:6725   */\n      mstore\n        /* \"#utility.yul\":6742:6761   */\n      0x84\n      add\n        /* \"@openzeppelin/contracts/token/ERC20/ERC20.sol\":10627:10695  require(owner != address(0), \"ERC20: approve from the zero address\") */\n      tag_168\n        /* \"#utility.yul\":6367:6767   */\n      jump\n        /* \"@openzeppelin/contracts/token/ERC20/ERC20.sol\":10627:10695  require(owner != address(0), \"ERC20: approve from the zero address\") */\n    tag_200:\n      sub(shl(0xa0, 0x01), 0x01)\n        /* \"@openzeppelin/contracts/token/ERC20/ERC20.sol\":10713:10734  spender != address(0) */\n      dup3\n      and\n        /* \"@openzeppelin/contracts/token/ERC20/ERC20.sol\":10705:10773  require(spender != address(0), \"ERC20: approve to the zero address\") */\n      tag_203\n      jumpi\n      mload(0x40)\n      shl(0xe5, 0x461bcd)\n      dup2\n      mstore\n        /* \"#utility.yul\":6974:6976   */\n      0x20\n        /* \"@openzeppelin/contracts/token/ERC20/ERC20.sol\":10705:10773  require(spender != address(0), \"ERC20: approve to the zero address\") */\n      0x04\n      dup3\n      add\n        /* \"#utility.yul\":6956:6977   */\n      mstore\n        /* \"#utility.yul\":7013:7015   */\n      0x22\n        /* \"#utility.yul\":6993:7011   */\n      0x24\n      dup3\n      add\n        /* \"#utility.yul\":6986:7016   */\n      mstore\n        /* \"#utility.yul\":7052:7086   */\n      0x45524332303a20617070726f766520746f20746865207a65726f206164647265\n        /* \"#utility.yul\":7032:7050   */\n      0x44\n      dup3\n      add\n        /* \"#utility.yul\":7025:7087   */\n      mstore\n      shl(0xf0, 0x7373)\n        /* \"#utility.yul\":7103:7121   */\n      0x64\n      dup3\n      add\n        /* \"#utility.yul\":7096:7128   */\n      mstore\n        /* \"#utility.yul\":7145:7164   */\n      0x84\n      add\n        /* \"@openzeppelin/contracts/token/ERC20/ERC20.sol\":10705:10773  require(spender != address(0), \"ERC20: approve to the zero address\") */\n      tag_168\n        /* \"#utility.yul\":6772:7170   */\n      jump\n        /* \"@openzeppelin/contracts/token/ERC20/ERC20.sol\":10705:10773  require(spender != address(0), \"ERC20: approve to the zero address\") */\n    tag_203:\n      sub(shl(0xa0, 0x01), 0x01)\n        /* \"@openzeppelin/contracts/token/ERC20/ERC20.sol\":10784:10802  _allowances[owner] */\n      dup4\n      dup2\n      and\n      0x00\n      dup2\n      dup2\n      mstore\n        /* \"@openzeppelin/contracts/token/ERC20/ERC20.sol\":10784:10795  _allowances */\n      0x01\n        /* \"@openzeppelin/contracts/token/ERC20/ERC20.sol\":10784:10802  _allowances[owner] */\n      0x20\n      swap1\n      dup2\n      mstore\n      0x40\n      dup1\n      dup4\n      keccak256\n        /* \"@openzeppelin/contracts/token/ERC20/ERC20.sol\":10784:10811  _allowances[owner][spender] */\n      swap5\n      dup8\n      and\n      dup1\n      dup5\n      mstore\n      swap5\n      dup3\n      mstore\n      swap2\n      dup3\n      swap1\n      keccak256\n        /* \"@openzeppelin/contracts/token/ERC20/ERC20.sol\":10784:10820  _allowances[owner][spender] = amount */\n      dup6\n      swap1\n      sstore\n        /* \"@openzeppelin/contracts/token/ERC20/ERC20.sol\":10835:10867  Approval(owner, spender, amount) */\n      swap1\n      mload\n        /* \"#utility.yul\":1342:1367   */\n      dup5\n      dup2\n      mstore\n        /* \"@openzeppelin/contracts/token/ERC20/ERC20.sol\":10835:10867  Approval(owner, spender, amount) */\n      0x8c5be1e5ebec7d5bd14f71427d1e84f3dd0314c0f7b2291e5b200ac8c7c3b925\n      swap2\n        /* \"#utility.yul\":1315:1333   */\n      add\n        /* \"@openzeppelin/contracts/token/ERC20/ERC20.sol\":10835:10867  Approval(owner, spender, amount) */\n    tag_206:\n      mload(0x40)\n      dup1\n      swap2\n      sub\n      swap1\n      log3\n        /* \"@openzeppelin/contracts/token/ERC20/ERC20.sol\":10504:10874  function _approve(... */\n      pop\n      pop\n      pop\n      jump\t// out\n        /* \"@openzeppelin/contracts/token/ERC20/ERC20.sol\":11155:11596  function _spendAllowance(... */\n    tag_121:\n        /* \"@openzeppelin/contracts/token/ERC20/ERC20.sol\":11285:11309  uint256 currentAllowance */\n      0x00\n        /* \"@openzeppelin/contracts/token/ERC20/ERC20.sol\":11312:11337  allowance(owner, spender) */\n      tag_208\n        /* \"@openzeppelin/contracts/token/ERC20/ERC20.sol\":11322:11327  owner */\n      dup5\n        /* \"@openzeppelin/contracts/token/ERC20/ERC20.sol\":11329:11336  spender */\n      dup5\n        /* \"@openzeppelin/contracts/token/ERC20/ERC20.sol\":11312:11321  allowance */\n      tag_100\n        /* \"@openzeppelin/contracts/token/ERC20/ERC20.sol\":11312:11337  allowance(owner, spender) */\n      jump\t// in\n    tag_208:\n        /* \"@openzeppelin/contracts/token/ERC20/ERC20.sol\":11285:11337  uint256 currentAllowance = allowance(owner, spender) */\n      swap1\n      pop\n      not(0x00)\n        /* \"@openzeppelin/contracts/token/ERC20/ERC20.sol\":11351:11367  currentAllowance */\n      dup2\n        /* \"@openzeppelin/contracts/token/ERC20/ERC20.sol\":11351:11388  currentAllowance != type(uint256).max */\n      eq\n        /* \"@openzeppelin/contracts/token/ERC20/ERC20.sol\":11347:11590  if (currentAllowance != type(uint256).max) {... */\n      tag_213\n      jumpi\n        /* \"@openzeppelin/contracts/token/ERC20/ERC20.sol\":11432:11438  amount */\n      dup2\n        /* \"@openzeppelin/contracts/token/ERC20/ERC20.sol\":11412:11428  currentAllowance */\n      dup2\n        /* \"@openzeppelin/contracts/token/ERC20/ERC20.sol\":11412:11438  currentAllowance >= amount */\n      lt\n      iszero\n        /* \"@openzeppelin/contracts/token/ERC20/ERC20.sol\":11404:11472  require(currentAllowance >= amount, \"ERC20: insufficient allowance\") */\n      tag_210\n      jumpi\n      mload(0x40)\n      shl(0xe5, 0x461bcd)\n      dup2\n      mstore\n        /* \"#utility.yul\":7377:7379   */\n      0x20\n        /* \"@openzeppelin/contracts/token/ERC20/ERC20.sol\":11404:11472  require(currentAllowance >= amount, \"ERC20: insufficient allowance\") */\n      0x04\n      dup3\n      add\n        /* \"#utility.yul\":7359:7380   */\n      mstore\n        /* \"#utility.yul\":7416:7418   */\n      0x1d\n        /* \"#utility.yul\":7396:7414   */\n      0x24\n      dup3\n      add\n        /* \"#utility.yul\":7389:7419   */\n      mstore\n        /* \"#utility.yul\":7455:7486   */\n      0x45524332303a20696e73756666696369656e7420616c6c6f77616e6365000000\n        /* \"#utility.yul\":7435:7453   */\n      0x44\n      dup3\n      add\n        /* \"#utility.yul\":7428:7487   */\n      mstore\n        /* \"#utility.yul\":7504:7522   */\n      0x64\n      add\n        /* \"@openzeppelin/contracts/token/ERC20/ERC20.sol\":11404:11472  require(currentAllowance >= amount, \"ERC20: insufficient allowance\") */\n      tag_168\n        /* \"#utility.yul\":7175:7528   */\n      jump\n        /* \"@openzeppelin/contracts/token/ERC20/ERC20.sol\":11404:11472  require(currentAllowance >= amount, \"ERC20: insufficient allowance\") */\n    tag_210:\n        /* \"@openzeppelin/contracts/token/ERC20/ERC20.sol\":11514:11565  _approve(owner, spender, currentAllowance - amount) */\n      tag_213\n        /* \"@openzeppelin/contracts/token/ERC20/ERC20.sol\":11523:11528  owner */\n      dup5\n        /* \"@openzeppelin/contracts/token/ERC20/ERC20.sol\":11530:11537  spender */\n      dup5\n        /* \"@openzeppelin/contracts/token/ERC20/ERC20.sol\":11558:11564  amount */\n      dup5\n        /* \"@openzeppelin/contracts/token/ERC20/ERC20.sol\":11539:11555  currentAllowance */\n      dup5\n        /* \"@openzeppelin/contracts/token/ERC20/ERC20.sol\":11539:11564  currentAllowance - amount */\n      sub\n        /* \"@openzeppelin/contracts/token/ERC20/ERC20.sol\":11514:11522  _approve */\n      tag_116\n        /* \"@openzeppelin/contracts/token/ERC20/ERC20.sol\":11514:11565  _approve(owner, spender, currentAllowance - amount) */\n      jump\t// in\n    tag_213:\n        /* \"@openzeppelin/contracts/token/ERC20/ERC20.sol\":11275:11596  {... */\n      pop\n        /* \"@openzeppelin/contracts/token/ERC20/ERC20.sol\":11155:11596  function _spendAllowance(... */\n      pop\n      pop\n      pop\n      jump\t// out\n        /* \"@openzeppelin/contracts/token/ERC20/ERC20.sol\":7473:8291  function _transfer(... */\n    tag_123:\n      sub(shl(0xa0, 0x01), 0x01)\n        /* \"@openzeppelin/contracts/token/ERC20/ERC20.sol\":7599:7617  from != address(0) */\n      dup4\n      and\n        /* \"@openzeppelin/contracts/token/ERC20/ERC20.sol\":7591:7659  require(from != address(0), \"ERC20: transfer from the zero address\") */\n      tag_215\n      jumpi\n      mload(0x40)\n      shl(0xe5, 0x461bcd)\n      dup2\n      mstore\n        /* \"#utility.yul\":7735:7737   */\n      0x20\n        /* \"@openzeppelin/contracts/token/ERC20/ERC20.sol\":7591:7659  require(from != address(0), \"ERC20: transfer from the zero address\") */\n      0x04\n      dup3\n      add\n        /* \"#utility.yul\":7717:7738   */\n      mstore\n        /* \"#utility.yul\":7774:7776   */\n      0x25\n        /* \"#utility.yul\":7754:7772   */\n      0x24\n      dup3\n      add\n        /* \"#utility.yul\":7747:7777   */\n      mstore\n        /* \"#utility.yul\":7813:7847   */\n      0x45524332303a207472616e736665722066726f6d20746865207a65726f206164\n        /* \"#utility.yul\":7793:7811   */\n      0x44\n      dup3\n      add\n        /* \"#utility.yul\":7786:7848   */\n      mstore\n      shl(0xd8, 0x6472657373)\n        /* \"#utility.yul\":7864:7882   */\n      0x64\n      dup3\n      add\n        /* \"#utility.yul\":7857:7892   */\n      mstore\n        /* \"#utility.yul\":7909:7928   */\n      0x84\n      add\n        /* \"@openzeppelin/contracts/token/ERC20/ERC20.sol\":7591:7659  require(from != address(0), \"ERC20: transfer from the zero address\") */\n      tag_168\n        /* \"#utility.yul\":7533:7934   */\n      jump\n        /* \"@openzeppelin/contracts/token/ERC20/ERC20.sol\":7591:7659  require(from != address(0), \"ERC20: transfer from the zero address\") */\n    tag_215:\n      sub(shl(0xa0, 0x01), 0x01)\n        /* \"@openzeppelin/contracts/token/ERC20/ERC20.sol\":7677:7693  to != address(0) */\n      dup3\n      and\n        /* \"@openzeppelin/contracts/token/ERC20/ERC20.sol\":7669:7733  require(to != address(0), \"ERC20: transfer to the zero address\") */\n      tag_218\n      jumpi\n      mload(0x40)\n      shl(0xe5, 0x461bcd)\n      dup2\n      mstore\n        /* \"#utility.yul\":8141:8143   */\n      0x20\n        /* \"@openzeppelin/contracts/token/ERC20/ERC20.sol\":7669:7733  require(to != address(0), \"ERC20: transfer to the zero address\") */\n      0x04\n      dup3\n      add\n        /* \"#utility.yul\":8123:8144   */\n      mstore\n        /* \"#utility.yul\":8180:8182   */\n      0x23\n        /* \"#utility.yul\":8160:8178   */\n      0x24\n      dup3\n      add\n        /* \"#utility.yul\":8153:8183   */\n      mstore\n        /* \"#utility.yul\":8219:8253   */\n      0x45524332303a207472616e7366657220746f20746865207a65726f2061646472\n        /* \"#utility.yul\":8199:8217   */\n      0x44\n      dup3\n      add\n        /* \"#utility.yul\":8192:8254   */\n      mstore\n      shl(0xe8, 0x657373)\n        /* \"#utility.yul\":8270:8288   */\n      0x64\n      dup3\n      add\n        /* \"#utility.yul\":8263:8296   */\n      mstore\n        /* \"#utility.yul\":8313:8332   */\n      0x84\n      add\n        /* \"@openzeppelin/contracts/token/ERC20/ERC20.sol\":7669:7733  require(to != address(0), \"ERC20: transfer to the zero address\") */\n      tag_168\n        /* \"#utility.yul\":7939:8338   */\n      jump\n        /* \"@openzeppelin/contracts/token/ERC20/ERC20.sol\":7669:7733  require(to != address(0), \"ERC20: transfer to the zero address\") */\n    tag_218:\n      sub(shl(0xa0, 0x01), 0x01)\n        /* \"@openzeppelin/contracts/token/ERC20/ERC20.sol\":7815:7830  _balances[from] */\n      dup4\n      and\n        /* \"@openzeppelin/contracts/token/ERC20/ERC20.sol\":7793:7812  uint256 fromBalance */\n      0x00\n        /* \"@openzeppelin/contracts/token/ERC20/ERC20.sol\":7815:7830  _balances[from] */\n      swap1\n      dup2\n      mstore\n      0x20\n      dup2\n      swap1\n      mstore\n      0x40\n      swap1\n      keccak256\n      sload\n        /* \"@openzeppelin/contracts/token/ERC20/ERC20.sol\":7848:7869  fromBalance >= amount */\n      dup2\n      dup2\n      lt\n      iszero\n        /* \"@openzeppelin/contracts/token/ERC20/ERC20.sol\":7840:7912  require(fromBalance >= amount, \"ERC20: transfer amount exceeds balance\") */\n      tag_223\n      jumpi\n      mload(0x40)\n      shl(0xe5, 0x461bcd)\n      dup2\n      mstore\n        /* \"#utility.yul\":8545:8547   */\n      0x20\n        /* \"@openzeppelin/contracts/token/ERC20/ERC20.sol\":7840:7912  require(fromBalance >= amount, \"ERC20: transfer amount exceeds balance\") */\n      0x04\n      dup3\n      add\n        /* \"#utility.yul\":8527:8548   */\n      mstore\n        /* \"#utility.yul\":8584:8586   */\n      0x26\n        /* \"#utility.yul\":8564:8582   */\n      0x24\n      dup3\n      add\n        /* \"#utility.yul\":8557:8587   */\n      mstore\n        /* \"#utility.yul\":8623:8657   */\n      0x45524332303a207472616e7366657220616d6f756e7420657863656564732062\n        /* \"#utility.yul\":8603:8621   */\n      0x44\n      dup3\n      add\n        /* \"#utility.yul\":8596:8658   */\n      mstore\n      shl(0xd0, 0x616c616e6365)\n        /* \"#utility.yul\":8674:8692   */\n      0x64\n      dup3\n      add\n        /* \"#utility.yul\":8667:8703   */\n      mstore\n        /* \"#utility.yul\":8720:8739   */\n      0x84\n      add\n        /* \"@openzeppelin/contracts/token/ERC20/ERC20.sol\":7840:7912  require(fromBalance >= amount, \"ERC20: transfer amount exceeds balance\") */\n      tag_168\n        /* \"#utility.yul\":8343:8745   */\n      jump\n        /* \"@openzeppelin/contracts/token/ERC20/ERC20.sol\":7840:7912  require(fromBalance >= amount, \"ERC20: transfer amount exceeds balance\") */\n    tag_223:\n      sub(shl(0xa0, 0x01), 0x01)\n        /* \"@openzeppelin/contracts/token/ERC20/ERC20.sol\":7946:7961  _balances[from] */\n      dup5\n      dup2\n      and\n        /* \"@openzeppelin/contracts/token/ERC20/ERC20.sol\":7946:7955  _balances */\n      0x00\n        /* \"@openzeppelin/contracts/token/ERC20/ERC20.sol\":7946:7961  _balances[from] */\n      dup2\n      dup2\n      mstore\n      0x20\n      dup2\n      dup2\n      mstore\n      0x40\n      dup1\n      dup4\n      keccak256\n        /* \"@openzeppelin/contracts/token/ERC20/ERC20.sol\":7964:7984  fromBalance - amount */\n      dup8\n      dup8\n      sub\n        /* \"@openzeppelin/contracts/token/ERC20/ERC20.sol\":7946:7984  _balances[from] = fromBalance - amount */\n      swap1\n      sstore\n        /* \"@openzeppelin/contracts/token/ERC20/ERC20.sol\":8161:8174  _balances[to] */\n      swap4\n      dup8\n      and\n      dup1\n      dup4\n      mstore\n      swap2\n      dup5\n      swap1\n      keccak256\n        /* \"@openzeppelin/contracts/token/ERC20/ERC20.sol\":8161:8184  _balances[to] += amount */\n      dup1\n      sload\n      dup8\n      add\n      swap1\n      sstore\n        /* \"@openzeppelin/contracts/token/ERC20/ERC20.sol\":8210:8236  Transfer(from, to, amount) */\n      swap3\n      mload\n        /* \"#utility.yul\":1342:1367   */\n      dup6\n      dup2\n      mstore\n        /* \"@openzeppelin/contracts/token/ERC20/ERC20.sol\":8161:8174  _balances[to] */\n      swap1\n      swap3\n        /* \"@openzeppelin/contracts/token/ERC20/ERC20.sol\":8210:8236  Transfer(from, to, amount) */\n      0xddf252ad1be2c89b69c2b068fc378daa952ba7f163c4a11628f55a4df523b3ef\n      swap2\n        /* \"#utility.yul\":1315:1333   */\n      add\n        /* \"@openzeppelin/contracts/token/ERC20/ERC20.sol\":8210:8236  Transfer(from, to, amount) */\n      mload(0x40)\n      dup1\n      swap2\n      sub\n      swap1\n      log3\n        /* \"@openzeppelin/contracts/token/ERC20/ERC20.sol\":8247:8284  _afterTokenTransfer(from, to, amount) */\n      tag_213\n        /* \"@openzeppelin/contracts/token/ERC20/ERC20.sol\":9422:10081  function _burn(address account, uint256 amount) internal virtual {... */\n      jump\n        /* \"@openzeppelin/contracts/utils/cryptography/EIP712.sol\":3152:3460  function _domainSeparatorV4() internal view returns (bytes32) {... */\n    tag_127:\n        /* \"@openzeppelin/contracts/utils/cryptography/EIP712.sol\":3205:3212  bytes32 */\n      0x00\n        /* \"@openzeppelin/contracts/utils/cryptography/EIP712.sol\":3236:3240  this */\n      address\n      sub(shl(0xa0, 0x01), 0x01)\n        /* \"@openzeppelin/contracts/utils/cryptography/EIP712.sol\":3245:3257  _CACHED_THIS */\n      immutable(\"0xbf8436c235a5e466e3bdd7bbb1280de40db7051dcd9fb9bad8f392a7874120e3\")\n        /* \"@openzeppelin/contracts/utils/cryptography/EIP712.sol\":3228:3257  address(this) == _CACHED_THIS */\n      and\n      eq\n        /* \"@openzeppelin/contracts/utils/cryptography/EIP712.sol\":3228:3294  address(this) == _CACHED_THIS && block.chainid == _CACHED_CHAIN_ID */\n      dup1\n      iszero\n      tag_230\n      jumpi\n      pop\n        /* \"@openzeppelin/contracts/utils/cryptography/EIP712.sol\":3278:3294  _CACHED_CHAIN_ID */\n      immutable(\"0xfbf2d44178b5d420b78d01ab3116f1fdf3436d3f898189c8062b178264756b85\")\n        /* \"@openzeppelin/contracts/utils/cryptography/EIP712.sol\":3261:3274  block.chainid */\n      chainid\n        /* \"@openzeppelin/contracts/utils/cryptography/EIP712.sol\":3261:3294  block.chainid == _CACHED_CHAIN_ID */\n      eq\n        /* \"@openzeppelin/contracts/utils/cryptography/EIP712.sol\":3228:3294  address(this) == _CACHED_THIS && block.chainid == _CACHED_CHAIN_ID */\n    tag_230:\n        /* \"@openzeppelin/contracts/utils/cryptography/EIP712.sol\":3224:3454  if (address(this) == _CACHED_THIS && block.chainid == _CACHED_CHAIN_ID) {... */\n      iszero\n      tag_231\n      jumpi\n      pop\n        /* \"@openzeppelin/contracts/utils/cryptography/EIP712.sol\":3317:3341  _CACHED_DOMAIN_SEPARATOR */\n      immutable(\"0x50f2b25de7441afe5325a10159bc4f5352b2ba50570484a9e9ecec0338d16d4c\")\n      swap1\n        /* \"@openzeppelin/contracts/utils/cryptography/EIP712.sol\":3152:3460  function _domainSeparatorV4() internal view returns (bytes32) {... */\n      jump\t// out\n        /* \"@openzeppelin/contracts/utils/cryptography/EIP712.sol\":3224:3454  if (address(this) == _CACHED_THIS && block.chainid == _CACHED_CHAIN_ID) {... */\n    tag_231:\n      pop\n        /* \"@openzeppelin/contracts/utils/cryptography/EIP712.sol\":3642:3715  abi.encode(typeHash, nameHash, versionHash, block.chainid, address(this)) */\n      0x40\n      dup1\n      mload\n        /* \"@openzeppelin/contracts/utils/cryptography/EIP712.sol\":3401:3411  _TYPE_HASH */\n      immutable(\"0x243b2fa192aa6cedc53c277edc30a7596d526b9746b0ea0bcc65bed6d471d990\")\n        /* \"@openzeppelin/contracts/utils/cryptography/EIP712.sol\":3642:3715  abi.encode(typeHash, nameHash, versionHash, block.chainid, address(this)) */\n      0x20\n      dup1\n      dup4\n      add\n        /* \"#utility.yul\":10535:10560   */\n      swap2\n      swap1\n      swap2\n      mstore\n        /* \"@openzeppelin/contracts/utils/cryptography/EIP712.sol\":3413:3425  _HASHED_NAME */\n      immutable(\"0xd70af8e5f98000ee10613709d38641f47ce113edcefaa35bee2f34392c3efaf3\")\n        /* \"#utility.yul\":10576:10594   */\n      dup3\n      dup5\n      add\n        /* \"#utility.yul\":10569:10603   */\n      mstore\n        /* \"@openzeppelin/contracts/utils/cryptography/EIP712.sol\":3427:3442  _HASHED_VERSION */\n      immutable(\"0xc458fe05ac0a93d4bfc1fb2c19565a7cbce69adca8850ec132e330f4090aaacf\")\n        /* \"#utility.yul\":10619:10637   */\n      0x60\n      dup4\n      add\n        /* \"#utility.yul\":10612:10646   */\n      mstore\n        /* \"@openzeppelin/contracts/utils/cryptography/EIP712.sol\":3686:3699  block.chainid */\n      chainid\n        /* \"#utility.yul\":10662:10680   */\n      0x80\n      dup4\n      add\n        /* \"#utility.yul\":10655:10689   */\n      mstore\n        /* \"@openzeppelin/contracts/utils/cryptography/EIP712.sol\":3709:3713  this */\n      address\n        /* \"#utility.yul\":10705:10724   */\n      0xa0\n      dup1\n      dup5\n      add\n        /* \"#utility.yul\":10698:10759   */\n      swap2\n      swap1\n      swap2\n      mstore\n        /* \"@openzeppelin/contracts/utils/cryptography/EIP712.sol\":3642:3715  abi.encode(typeHash, nameHash, versionHash, block.chainid, address(this)) */\n      dup4\n      mload\n      dup1\n      dup5\n      sub\n      swap1\n      swap2\n      add\n      dup2\n      mstore\n        /* \"#utility.yul\":10507:10526   */\n      0xc0\n      swap1\n      swap3\n      add\n        /* \"@openzeppelin/contracts/utils/cryptography/EIP712.sol\":3642:3715  abi.encode(typeHash, nameHash, versionHash, block.chainid, address(this)) */\n      swap1\n      swap3\n      mstore\n        /* \"@openzeppelin/contracts/utils/cryptography/EIP712.sol\":3632:3716  keccak256(abi.encode(typeHash, nameHash, versionHash, block.chainid, address(this))) */\n      dup1\n      mload\n      swap2\n      add\n      keccak256\n      swap1\n        /* \"@openzeppelin/contracts/token/ERC20/extensions/draft-ERC20Permit.sol\":2879:2992  function DOMAIN_SEPARATOR() external view override returns (bytes32) {... */\n      jump\t// out\n        /* \"@openzeppelin/contracts/access/Ownable.sol\":1359:1489  function _checkOwner() internal view virtual {... */\n    tag_136:\n        /* \"@openzeppelin/contracts/access/Ownable.sol\":1273:1279  _owner */\n      and(sub(shl(0xa0, 0x01), 0x01), sload(0x05))\n        /* \"@openzeppelin/contracts/utils/Context.sol\":719:729  msg.sender */\n      caller\n        /* \"@openzeppelin/contracts/access/Ownable.sol\":1422:1445  owner() == _msgSender() */\n      eq\n        /* \"@openzeppelin/contracts/access/Ownable.sol\":1414:1482  require(owner() == _msgSender(), \"Ownable: caller is not the owner\") */\n      tag_148\n      jumpi\n      mload(0x40)\n      shl(0xe5, 0x461bcd)\n      dup2\n      mstore\n        /* \"#utility.yul\":8952:8954   */\n      0x20\n        /* \"@openzeppelin/contracts/access/Ownable.sol\":1414:1482  require(owner() == _msgSender(), \"Ownable: caller is not the owner\") */\n      0x04\n      dup3\n      add\n        /* \"#utility.yul\":8934:8955   */\n      dup2\n      swap1\n      mstore\n        /* \"#utility.yul\":8971:8989   */\n      0x24\n      dup3\n      add\n        /* \"#utility.yul\":8964:8994   */\n      mstore\n        /* \"#utility.yul\":9030:9064   */\n      0x4f776e61626c653a2063616c6c6572206973206e6f7420746865206f776e6572\n        /* \"#utility.yul\":9010:9028   */\n      0x44\n      dup3\n      add\n        /* \"#utility.yul\":9003:9065   */\n      mstore\n        /* \"#utility.yul\":9082:9100   */\n      0x64\n      add\n        /* \"@openzeppelin/contracts/access/Ownable.sol\":1414:1482  require(owner() == _msgSender(), \"Ownable: caller is not the owner\") */\n      tag_168\n        /* \"#utility.yul\":8750:9106   */\n      jump\n        /* \"@openzeppelin/contracts/token/ERC20/ERC20.sol\":8567:9102  function _mint(address account, uint256 amount) internal virtual {... */\n    tag_139:\n      sub(shl(0xa0, 0x01), 0x01)\n        /* \"@openzeppelin/contracts/token/ERC20/ERC20.sol\":8650:8671  account != address(0) */\n      dup3\n      and\n        /* \"@openzeppelin/contracts/token/ERC20/ERC20.sol\":8642:8707  require(account != address(0), \"ERC20: mint to the zero address\") */\n      tag_242\n      jumpi\n      mload(0x40)\n      shl(0xe5, 0x461bcd)\n      dup2\n      mstore\n        /* \"#utility.yul\":9313:9315   */\n      0x20\n        /* \"@openzeppelin/contracts/token/ERC20/ERC20.sol\":8642:8707  require(account != address(0), \"ERC20: mint to the zero address\") */\n      0x04\n      dup3\n      add\n        /* \"#utility.yul\":9295:9316   */\n      mstore\n        /* \"#utility.yul\":9352:9354   */\n      0x1f\n        /* \"#utility.yul\":9332:9350   */\n      0x24\n      dup3\n      add\n        /* \"#utility.yul\":9325:9355   */\n      mstore\n        /* \"#utility.yul\":9391:9424   */\n      0x45524332303a206d696e7420746f20746865207a65726f206164647265737300\n        /* \"#utility.yul\":9371:9389   */\n      0x44\n      dup3\n      add\n        /* \"#utility.yul\":9364:9425   */\n      mstore\n        /* \"#utility.yul\":9442:9460   */\n      0x64\n      add\n        /* \"@openzeppelin/contracts/token/ERC20/ERC20.sol\":8642:8707  require(account != address(0), \"ERC20: mint to the zero address\") */\n      tag_168\n        /* \"#utility.yul\":9111:9466   */\n      jump\n        /* \"@openzeppelin/contracts/token/ERC20/ERC20.sol\":8642:8707  require(account != address(0), \"ERC20: mint to the zero address\") */\n    tag_242:\n        /* \"@openzeppelin/contracts/token/ERC20/ERC20.sol\":8794:8800  amount */\n      dup1\n        /* \"@openzeppelin/contracts/token/ERC20/ERC20.sol\":8778:8790  _totalSupply */\n      0x02\n      0x00\n        /* \"@openzeppelin/contracts/token/ERC20/ERC20.sol\":8778:8800  _totalSupply += amount */\n      dup3\n      dup3\n      sload\n      tag_246\n      swap2\n      swap1\n      tag_133\n      jump\t// in\n    tag_246:\n      swap1\n      swap2\n      sstore\n      pop\n      pop\n      sub(shl(0xa0, 0x01), 0x01)\n        /* \"@openzeppelin/contracts/token/ERC20/ERC20.sol\":8946:8964  _balances[account] */\n      dup3\n      and\n        /* \"@openzeppelin/contracts/token/ERC20/ERC20.sol\":8946:8955  _balances */\n      0x00\n        /* \"@openzeppelin/contracts/token/ERC20/ERC20.sol\":8946:8964  _balances[account] */\n      dup2\n      dup2\n      mstore\n      0x20\n      dup2\n      dup2\n      mstore\n      0x40\n      dup1\n      dup4\n      keccak256\n        /* \"@openzeppelin/contracts/token/ERC20/ERC20.sol\":8946:8974  _balances[account] += amount */\n      dup1\n      sload\n      dup7\n      add\n      swap1\n      sstore\n        /* \"@openzeppelin/contracts/token/ERC20/ERC20.sol\":8999:9036  Transfer(address(0), account, amount) */\n      mload\n        /* \"#utility.yul\":1342:1367   */\n      dup5\n      dup2\n      mstore\n        /* \"@openzeppelin/contracts/token/ERC20/ERC20.sol\":8999:9036  Transfer(address(0), account, amount) */\n      0xddf252ad1be2c89b69c2b068fc378daa952ba7f163c4a11628f55a4df523b3ef\n      swap2\n        /* \"#utility.yul\":1315:1333   */\n      add\n        /* \"@openzeppelin/contracts/token/ERC20/ERC20.sol\":8999:9036  Transfer(address(0), account, amount) */\n      mload(0x40)\n      dup1\n      swap2\n      sub\n      swap1\n      log3\n        /* \"Contracts/Variable_Token_Minter.sol\":489:584  function mint(address to, uint256 amount) public onlyOwner {... */\n      pop\n      pop\n      jump\t// out\n        /* \"@openzeppelin/contracts/token/ERC20/ERC20.sol\":9422:10081  function _burn(address account, uint256 amount) internal virtual {... */\n    tag_143:\n      sub(shl(0xa0, 0x01), 0x01)\n        /* \"@openzeppelin/contracts/token/ERC20/ERC20.sol\":9505:9526  account != address(0) */\n      dup3\n      and\n        /* \"@openzeppelin/contracts/token/ERC20/ERC20.sol\":9497:9564  require(account != address(0), \"ERC20: burn from the zero address\") */\n      tag_250\n      jumpi\n      mload(0x40)\n      shl(0xe5, 0x461bcd)\n      dup2\n      mstore\n        /* \"#utility.yul\":9673:9675   */\n      0x20\n        /* \"@openzeppelin/contracts/token/ERC20/ERC20.sol\":9497:9564  require(account != address(0), \"ERC20: burn from the zero address\") */\n      0x04\n      dup3\n      add\n        /* \"#utility.yul\":9655:9676   */\n      mstore\n        /* \"#utility.yul\":9712:9714   */\n      0x21\n        /* \"#utility.yul\":9692:9710   */\n      0x24\n      dup3\n      add\n        /* \"#utility.yul\":9685:9715   */\n      mstore\n        /* \"#utility.yul\":9751:9785   */\n      0x45524332303a206275726e2066726f6d20746865207a65726f20616464726573\n        /* \"#utility.yul\":9731:9749   */\n      0x44\n      dup3\n      add\n        /* \"#utility.yul\":9724:9786   */\n      mstore\n      shl(0xf8, 0x73)\n        /* \"#utility.yul\":9802:9820   */\n      0x64\n      dup3\n      add\n        /* \"#utility.yul\":9795:9826   */\n      mstore\n        /* \"#utility.yul\":9843:9862   */\n      0x84\n      add\n        /* \"@openzeppelin/contracts/token/ERC20/ERC20.sol\":9497:9564  require(account != address(0), \"ERC20: burn from the zero address\") */\n      tag_168\n        /* \"#utility.yul\":9471:9868   */\n      jump\n        /* \"@openzeppelin/contracts/token/ERC20/ERC20.sol\":9497:9564  require(account != address(0), \"ERC20: burn from the zero address\") */\n    tag_250:\n      sub(shl(0xa0, 0x01), 0x01)\n        /* \"@openzeppelin/contracts/token/ERC20/ERC20.sol\":9660:9678  _balances[account] */\n      dup3\n      and\n        /* \"@openzeppelin/contracts/token/ERC20/ERC20.sol\":9635:9657  uint256 accountBalance */\n      0x00\n        /* \"@openzeppelin/contracts/token/ERC20/ERC20.sol\":9660:9678  _balances[account] */\n      swap1\n      dup2\n      mstore\n      0x20\n      dup2\n      swap1\n      mstore\n      0x40\n      swap1\n      keccak256\n      sload\n        /* \"@openzeppelin/contracts/token/ERC20/ERC20.sol\":9696:9720  accountBalance >= amount */\n      dup2\n      dup2\n      lt\n      iszero\n        /* \"@openzeppelin/contracts/token/ERC20/ERC20.sol\":9688:9759  require(accountBalance >= amount, \"ERC20: burn amount exceeds balance\") */\n      tag_254\n      jumpi\n      mload(0x40)\n      shl(0xe5, 0x461bcd)\n      dup2\n      mstore\n        /* \"#utility.yul\":10075:10077   */\n      0x20\n        /* \"@openzeppelin/contracts/token/ERC20/ERC20.sol\":9688:9759  require(accountBalance >= amount, \"ERC20: burn amount exceeds balance\") */\n      0x04\n      dup3\n      add\n        /* \"#utility.yul\":10057:10078   */\n      mstore\n        /* \"#utility.yul\":10114:10116   */\n      0x22\n        /* \"#utility.yul\":10094:10112   */\n      0x24\n      dup3\n      add\n        /* \"#utility.yul\":10087:10117   */\n      mstore\n        /* \"#utility.yul\":10153:10187   */\n      0x45524332303a206275726e20616d6f756e7420657863656564732062616c616e\n        /* \"#utility.yul\":10133:10151   */\n      0x44\n      dup3\n      add\n        /* \"#utility.yul\":10126:10188   */\n      mstore\n      shl(0xf0, 0x6365)\n        /* \"#utility.yul\":10204:10222   */\n      0x64\n      dup3\n      add\n        /* \"#utility.yul\":10197:10229   */\n      mstore\n        /* \"#utility.yul\":10246:10265   */\n      0x84\n      add\n        /* \"@openzeppelin/contracts/token/ERC20/ERC20.sol\":9688:9759  require(accountBalance >= amount, \"ERC20: burn amount exceeds balance\") */\n      tag_168\n        /* \"#utility.yul\":9873:10271   */\n      jump\n        /* \"@openzeppelin/contracts/token/ERC20/ERC20.sol\":9688:9759  require(accountBalance >= amount, \"ERC20: burn amount exceeds balance\") */\n    tag_254:\n      sub(shl(0xa0, 0x01), 0x01)\n        /* \"@openzeppelin/contracts/token/ERC20/ERC20.sol\":9793:9811  _balances[account] */\n      dup4\n      and\n        /* \"@openzeppelin/contracts/token/ERC20/ERC20.sol\":9793:9802  _balances */\n      0x00\n        /* \"@openzeppelin/contracts/token/ERC20/ERC20.sol\":9793:9811  _balances[account] */\n      dup2\n      dup2\n      mstore\n      0x20\n      dup2\n      dup2\n      mstore\n      0x40\n      dup1\n      dup4\n      keccak256\n        /* \"@openzeppelin/contracts/token/ERC20/ERC20.sol\":9814:9837  accountBalance - amount */\n      dup7\n      dup7\n      sub\n        /* \"@openzeppelin/contracts/token/ERC20/ERC20.sol\":9793:9837  _balances[account] = accountBalance - amount */\n      swap1\n      sstore\n        /* \"@openzeppelin/contracts/token/ERC20/ERC20.sol\":9930:9942  _totalSupply */\n      0x02\n        /* \"@openzeppelin/contracts/token/ERC20/ERC20.sol\":9930:9952  _totalSupply -= amount */\n      dup1\n      sload\n      dup8\n      swap1\n      sub\n      swap1\n      sstore\n        /* \"@openzeppelin/contracts/token/ERC20/ERC20.sol\":9978:10015  Transfer(account, address(0), amount) */\n      mload\n        /* \"#utility.yul\":1342:1367   */\n      dup6\n      dup2\n      mstore\n        /* \"@openzeppelin/contracts/token/ERC20/ERC20.sol\":9793:9802  _balances */\n      swap2\n      swap3\n        /* \"@openzeppelin/contracts/token/ERC20/ERC20.sol\":9793:9811  _balances[account] */\n      swap2\n        /* \"@openzeppelin/contracts/token/ERC20/ERC20.sol\":9978:10015  Transfer(account, address(0), amount) */\n      0xddf252ad1be2c89b69c2b068fc378daa952ba7f163c4a11628f55a4df523b3ef\n      swap2\n        /* \"#utility.yul\":1315:1333   */\n      add\n        /* \"@openzeppelin/contracts/token/ERC20/ERC20.sol\":9978:10015  Transfer(account, address(0), amount) */\n      tag_206\n        /* \"#utility.yul\":1196:1373   */\n      jump\n        /* \"@openzeppelin/contracts/access/Ownable.sol\":2433:2620  function _transferOwnership(address newOwner) internal virtual {... */\n    tag_149:\n        /* \"@openzeppelin/contracts/access/Ownable.sol\":2525:2531  _owner */\n      0x05\n      dup1\n      sload\n      sub(shl(0xa0, 0x01), 0x01)\n        /* \"@openzeppelin/contracts/access/Ownable.sol\":2541:2558  _owner = newOwner */\n      dup4\n      dup2\n      and\n      not(sub(shl(0xa0, 0x01), 0x01))\n      dup4\n      and\n      dup2\n      or\n      swap1\n      swap4\n      sstore\n        /* \"@openzeppelin/contracts/access/Ownable.sol\":2573:2613  OwnershipTransferred(oldOwner, newOwner) */\n      mload(0x40)\n        /* \"@openzeppelin/contracts/access/Ownable.sol\":2525:2531  _owner */\n      swap2\n      and\n      swap2\n        /* \"@openzeppelin/contracts/access/Ownable.sol\":2541:2558  _owner = newOwner */\n      swap1\n        /* \"@openzeppelin/contracts/access/Ownable.sol\":2525:2531  _owner */\n      dup3\n      swap1\n        /* \"@openzeppelin/contracts/access/Ownable.sol\":2573:2613  OwnershipTransferred(oldOwner, newOwner) */\n      0x8be0079c531659141344cd1fd0a4f28419497f9722a3daafe3b4186f6b6457e0\n      swap1\n        /* \"@openzeppelin/contracts/access/Ownable.sol\":2506:2522  address oldOwner */\n      0x00\n      swap1\n        /* \"@openzeppelin/contracts/access/Ownable.sol\":2573:2613  OwnershipTransferred(oldOwner, newOwner) */\n      log3\n        /* \"@openzeppelin/contracts/access/Ownable.sol\":2496:2620  {... */\n      pop\n        /* \"@openzeppelin/contracts/access/Ownable.sol\":2433:2620  function _transferOwnership(address newOwner) internal virtual {... */\n      pop\n      jump\t// out\n        /* \"@openzeppelin/contracts/token/ERC20/extensions/draft-ERC20Permit.sol\":3123:3326  function _useNonce(address owner) internal virtual returns (uint256 current) {... */\n    tag_179:\n      sub(shl(0xa0, 0x01), 0x01)\n        /* \"@openzeppelin/contracts/token/ERC20/extensions/draft-ERC20Permit.sol\":3243:3257  _nonces[owner] */\n      dup2\n      and\n        /* \"@openzeppelin/contracts/token/ERC20/extensions/draft-ERC20Permit.sol\":3183:3198  uint256 current */\n      0x00\n        /* \"@openzeppelin/contracts/token/ERC20/extensions/draft-ERC20Permit.sol\":3243:3257  _nonces[owner] */\n      swap1\n      dup2\n      mstore\n        /* \"@openzeppelin/contracts/token/ERC20/extensions/draft-ERC20Permit.sol\":3243:3250  _nonces */\n      0x06\n        /* \"@openzeppelin/contracts/token/ERC20/extensions/draft-ERC20Permit.sol\":3243:3257  _nonces[owner] */\n      0x20\n      mstore\n      0x40\n      swap1\n      keccak256\n        /* \"@openzeppelin/contracts/utils/Counters.sol\":918:932  counter._value */\n      dup1\n      sload\n        /* \"@openzeppelin/contracts/utils/Counters.sol\":1050:1051  1 */\n      0x01\n        /* \"@openzeppelin/contracts/utils/Counters.sol\":1032:1051  counter._value += 1 */\n      dup2\n      add\n      dup3\n      sstore\n        /* \"@openzeppelin/contracts/utils/Counters.sol\":918:932  counter._value */\n      swap1\n        /* \"@openzeppelin/contracts/token/ERC20/extensions/draft-ERC20Permit.sol\":3302:3319  nonce.increment() */\n    tag_263:\n        /* \"@openzeppelin/contracts/token/ERC20/extensions/draft-ERC20Permit.sol\":3200:3326  {... */\n      pop\n        /* \"@openzeppelin/contracts/token/ERC20/extensions/draft-ERC20Permit.sol\":3123:3326  function _useNonce(address owner) internal virtual returns (uint256 current) {... */\n      swap2\n      swap1\n      pop\n      jump\t// out\n        /* \"@openzeppelin/contracts/utils/cryptography/EIP712.sol\":4348:4513  function _hashTypedDataV4(bytes32 structHash) internal view virtual returns (bytes32) {... */\n    tag_183:\n        /* \"@openzeppelin/contracts/utils/cryptography/EIP712.sol\":4425:4432  bytes32 */\n      0x00\n        /* \"@openzeppelin/contracts/utils/cryptography/EIP712.sol\":4451:4506  ECDSA.toTypedDataHash(_domainSeparatorV4(), structHash) */\n      tag_112\n        /* \"@openzeppelin/contracts/utils/cryptography/EIP712.sol\":4473:4493  _domainSeparatorV4() */\n      tag_267\n        /* \"@openzeppelin/contracts/utils/cryptography/EIP712.sol\":4473:4491  _domainSeparatorV4 */\n      tag_127\n        /* \"@openzeppelin/contracts/utils/cryptography/EIP712.sol\":4473:4493  _domainSeparatorV4() */\n      jump\t// in\n    tag_267:\n        /* \"@openzeppelin/contracts/utils/cryptography/EIP712.sol\":4495:4505  structHash */\n      dup4\n        /* \"@openzeppelin/contracts/utils/cryptography/ECDSA.sol\":8470:8527  abi.encodePacked(\"\\x19\\x01\", domainSeparator, structHash) */\n      mload(0x40)\n      shl(0xf0, 0x1901)\n      0x20\n      dup3\n      add\n        /* \"#utility.yul\":11028:11055   */\n      mstore\n        /* \"#utility.yul\":11071:11082   */\n      0x22\n      dup2\n      add\n        /* \"#utility.yul\":11064:11091   */\n      dup4\n      swap1\n      mstore\n        /* \"#utility.yul\":11107:11119   */\n      0x42\n      dup2\n      add\n        /* \"#utility.yul\":11100:11128   */\n      dup3\n      swap1\n      mstore\n        /* \"@openzeppelin/contracts/utils/cryptography/ECDSA.sol\":8434:8441  bytes32 */\n      0x00\n      swap1\n        /* \"#utility.yul\":11144:11156   */\n      0x62\n      add\n        /* \"@openzeppelin/contracts/utils/cryptography/ECDSA.sol\":8470:8527  abi.encodePacked(\"\\x19\\x01\", domainSeparator, structHash) */\n      mload(0x40)\n      0x20\n      dup2\n      dup4\n      sub\n      sub\n      dup2\n      mstore\n      swap1\n      0x40\n      mstore\n        /* \"@openzeppelin/contracts/utils/cryptography/ECDSA.sol\":8460:8528  keccak256(abi.encodePacked(\"\\x19\\x01\", domainSeparator, structHash)) */\n      dup1\n      mload\n      swap1\n      0x20\n      add\n      keccak256\n        /* \"@openzeppelin/contracts/utils/cryptography/ECDSA.sol\":8453:8528  return keccak256(abi.encodePacked(\"\\x19\\x01\", domainSeparator, structHash)) */\n      swap1\n      pop\n        /* \"@openzeppelin/contracts/utils/cryptography/ECDSA.sol\":8341:8535  function toTypedDataHash(bytes32 domainSeparator, bytes32 structHash) internal pure returns (bytes32) {... */\n      swap3\n      swap2\n      pop\n      pop\n      jump\n        /* \"@openzeppelin/contracts/utils/cryptography/ECDSA.sol\":6696:6966  function recover(... */\n    tag_185:\n        /* \"@openzeppelin/contracts/utils/cryptography/ECDSA.sol\":6819:6826  address */\n      0x00\n        /* \"@openzeppelin/contracts/utils/cryptography/ECDSA.sol\":6839:6856  address recovered */\n      dup1\n        /* \"@openzeppelin/contracts/utils/cryptography/ECDSA.sol\":6858:6876  RecoverError error */\n      0x00\n        /* \"@openzeppelin/contracts/utils/cryptography/ECDSA.sol\":6880:6905  tryRecover(hash, v, r, s) */\n      tag_270\n        /* \"@openzeppelin/contracts/utils/cryptography/ECDSA.sol\":6891:6895  hash */\n      dup8\n        /* \"@openzeppelin/contracts/utils/cryptography/ECDSA.sol\":6897:6898  v */\n      dup8\n        /* \"@openzeppelin/contracts/utils/cryptography/ECDSA.sol\":6900:6901  r */\n      dup8\n        /* \"@openzeppelin/contracts/utils/cryptography/ECDSA.sol\":6903:6904  s */\n      dup8\n        /* \"@openzeppelin/contracts/utils/cryptography/ECDSA.sol\":6880:6890  tryRecover */\n      tag_271\n        /* \"@openzeppelin/contracts/utils/cryptography/ECDSA.sol\":6880:6905  tryRecover(hash, v, r, s) */\n      jump\t// in\n    tag_270:\n        /* \"@openzeppelin/contracts/utils/cryptography/ECDSA.sol\":6838:6905  (address recovered, RecoverError error) = tryRecover(hash, v, r, s) */\n      swap2\n      pop\n      swap2\n      pop\n        /* \"@openzeppelin/contracts/utils/cryptography/ECDSA.sol\":6915:6933  _throwError(error) */\n      tag_272\n        /* \"@openzeppelin/contracts/utils/cryptography/ECDSA.sol\":6927:6932  error */\n      dup2\n        /* \"@openzeppelin/contracts/utils/cryptography/ECDSA.sol\":6915:6926  _throwError */\n      tag_273\n        /* \"@openzeppelin/contracts/utils/cryptography/ECDSA.sol\":6915:6933  _throwError(error) */\n      jump\t// in\n    tag_272:\n      pop\n        /* \"@openzeppelin/contracts/utils/cryptography/ECDSA.sol\":6950:6959  recovered */\n      swap6\n        /* \"@openzeppelin/contracts/utils/cryptography/ECDSA.sol\":6696:6966  function recover(... */\n      swap5\n      pop\n      pop\n      pop\n      pop\n      pop\n      jump\t// out\n        /* \"@openzeppelin/contracts/utils/cryptography/ECDSA.sol\":5069:6563  function tryRecover(... */\n    tag_271:\n        /* \"@openzeppelin/contracts/utils/cryptography/ECDSA.sol\":5195:5202  address */\n      0x00\n      dup1\n        /* \"@openzeppelin/contracts/utils/cryptography/ECDSA.sol\":6119:6185  0x7FFFFFFFFFFFFFFFFFFFFFFFFFFFFFFF5D576E7357A4501DDFE92F46681B20A0 */\n      0x7fffffffffffffffffffffffffffffff5d576e7357a4501ddfe92f46681b20a0\n        /* \"@openzeppelin/contracts/utils/cryptography/ECDSA.sol\":6106:6185  uint256(s) > 0x7FFFFFFFFFFFFFFFFFFFFFFFFFFFFFFF5D576E7357A4501DDFE92F46681B20A0 */\n      dup4\n      gt\n        /* \"@openzeppelin/contracts/utils/cryptography/ECDSA.sol\":6102:6263  if (uint256(s) > 0x7FFFFFFFFFFFFFFFFFFFFFFFFFFFFFFF5D576E7357A4501DDFE92F46681B20A0) {... */\n      iszero\n      tag_284\n      jumpi\n      pop\n        /* \"@openzeppelin/contracts/utils/cryptography/ECDSA.sol\":6217:6218  0 */\n      0x00\n      swap1\n      pop\n        /* \"@openzeppelin/contracts/utils/cryptography/ECDSA.sol\":6221:6251  RecoverError.InvalidSignatureS */\n      0x03\n        /* \"@openzeppelin/contracts/utils/cryptography/ECDSA.sol\":6201:6252  return (address(0), RecoverError.InvalidSignatureS) */\n      jump(tag_283)\n        /* \"@openzeppelin/contracts/utils/cryptography/ECDSA.sol\":6102:6263  if (uint256(s) > 0x7FFFFFFFFFFFFFFFFFFFFFFFFFFFFFFF5D576E7357A4501DDFE92F46681B20A0) {... */\n    tag_284:\n        /* \"@openzeppelin/contracts/utils/cryptography/ECDSA.sol\":6374:6398  ecrecover(hash, v, r, s) */\n      0x40\n      dup1\n      mload\n        /* \"@openzeppelin/contracts/utils/cryptography/ECDSA.sol\":6357:6371  address signer */\n      0x00\n        /* \"@openzeppelin/contracts/utils/cryptography/ECDSA.sol\":6374:6398  ecrecover(hash, v, r, s) */\n      dup1\n      dup3\n      mstore\n      0x20\n      dup3\n      add\n      dup1\n      dup5\n      mstore\n        /* \"#utility.yul\":11394:11419   */\n      dup10\n      swap1\n      mstore\n        /* \"#utility.yul\":11467:11471   */\n      0xff\n        /* \"#utility.yul\":11455:11472   */\n      dup9\n      and\n        /* \"#utility.yul\":11435:11453   */\n      swap3\n      dup3\n      add\n        /* \"#utility.yul\":11428:11473   */\n      swap3\n      swap1\n      swap3\n      mstore\n        /* \"#utility.yul\":11489:11507   */\n      0x60\n      dup2\n      add\n        /* \"#utility.yul\":11482:11516   */\n      dup7\n      swap1\n      mstore\n        /* \"#utility.yul\":11532:11550   */\n      0x80\n      dup2\n      add\n        /* \"#utility.yul\":11525:11559   */\n      dup6\n      swap1\n      mstore\n        /* \"@openzeppelin/contracts/utils/cryptography/ECDSA.sol\":6374:6398  ecrecover(hash, v, r, s) */\n      0x01\n      swap1\n        /* \"#utility.yul\":11366:11385   */\n      0xa0\n      add\n        /* \"@openzeppelin/contracts/utils/cryptography/ECDSA.sol\":6374:6398  ecrecover(hash, v, r, s) */\n      0x20\n      mload(0x40)\n      0x20\n      dup2\n      sub\n      swap1\n      dup1\n      dup5\n      sub\n      swap1\n      dup6\n      gas\n      staticcall\n      iszero\n      dup1\n      iszero\n      tag_288\n      jumpi\n      returndatasize\n      0x00\n      dup1\n      returndatacopy\n      revert(0x00, returndatasize)\n    tag_288:\n      pop\n      pop\n      mload(add(not(0x1f), mload(0x40)))\n      swap2\n      pop\n      pop\n      sub(shl(0xa0, 0x01), 0x01)\n        /* \"@openzeppelin/contracts/utils/cryptography/ECDSA.sol\":6412:6432  signer == address(0) */\n      dup2\n      and\n        /* \"@openzeppelin/contracts/utils/cryptography/ECDSA.sol\":6408:6509  if (signer == address(0)) {... */\n      tag_289\n      jumpi\n        /* \"@openzeppelin/contracts/utils/cryptography/ECDSA.sol\":6464:6465  0 */\n      0x00\n        /* \"@openzeppelin/contracts/utils/cryptography/ECDSA.sol\":6468:6497  RecoverError.InvalidSignature */\n      0x01\n        /* \"@openzeppelin/contracts/utils/cryptography/ECDSA.sol\":6448:6498  return (address(0), RecoverError.InvalidSignature) */\n      swap3\n      pop\n      swap3\n      pop\n      pop\n      jump(tag_283)\n        /* \"@openzeppelin/contracts/utils/cryptography/ECDSA.sol\":6408:6509  if (signer == address(0)) {... */\n    tag_289:\n        /* \"@openzeppelin/contracts/utils/cryptography/ECDSA.sol\":6527:6533  signer */\n      swap2\n      pop\n        /* \"@openzeppelin/contracts/utils/cryptography/ECDSA.sol\":6535:6555  RecoverError.NoError */\n      0x00\n      swap1\n      pop\n        /* \"@openzeppelin/contracts/utils/cryptography/ECDSA.sol\":5069:6563  function tryRecover(... */\n    tag_283:\n      swap5\n      pop\n      swap5\n      swap3\n      pop\n      pop\n      pop\n      jump\t// out\n        /* \"@openzeppelin/contracts/utils/cryptography/ECDSA.sol\":570:1081  function _throwError(RecoverError error) private pure {... */\n    tag_273:\n        /* \"@openzeppelin/contracts/utils/cryptography/ECDSA.sol\":647:667  RecoverError.NoError */\n      0x00\n        /* \"@openzeppelin/contracts/utils/cryptography/ECDSA.sol\":638:643  error */\n      dup2\n        /* \"@openzeppelin/contracts/utils/cryptography/ECDSA.sol\":638:667  error == RecoverError.NoError */\n      0x04\n      dup2\n      gt\n      iszero\n      tag_295\n      jumpi\n      tag_295\n      tag_293\n      jump\t// in\n    tag_295:\n      sub\n        /* \"@openzeppelin/contracts/utils/cryptography/ECDSA.sol\":634:1075  if (error == RecoverError.NoError) {... */\n      tag_296\n      jumpi\n        /* \"@openzeppelin/contracts/utils/cryptography/ECDSA.sol\":570:1081  function _throwError(RecoverError error) private pure {... */\n      pop\n      jump\t// out\n        /* \"@openzeppelin/contracts/utils/cryptography/ECDSA.sol\":634:1075  if (error == RecoverError.NoError) {... */\n    tag_296:\n        /* \"@openzeppelin/contracts/utils/cryptography/ECDSA.sol\":743:772  RecoverError.InvalidSignature */\n      0x01\n        /* \"@openzeppelin/contracts/utils/cryptography/ECDSA.sol\":734:739  error */\n      dup2\n        /* \"@openzeppelin/contracts/utils/cryptography/ECDSA.sol\":734:772  error == RecoverError.InvalidSignature */\n      0x04\n      dup2\n      gt\n      iszero\n      tag_301\n      jumpi\n      tag_301\n      tag_293\n      jump\t// in\n    tag_301:\n      sub\n        /* \"@openzeppelin/contracts/utils/cryptography/ECDSA.sol\":730:1075  if (error == RecoverError.InvalidSignature) {... */\n      tag_302\n      jumpi\n        /* \"@openzeppelin/contracts/utils/cryptography/ECDSA.sol\":788:822  revert(\"ECDSA: invalid signature\") */\n      mload(0x40)\n      shl(0xe5, 0x461bcd)\n      dup2\n      mstore\n        /* \"#utility.yul\":11904:11906   */\n      0x20\n        /* \"@openzeppelin/contracts/utils/cryptography/ECDSA.sol\":788:822  revert(\"ECDSA: invalid signature\") */\n      0x04\n      dup3\n      add\n        /* \"#utility.yul\":11886:11907   */\n      mstore\n        /* \"#utility.yul\":11943:11945   */\n      0x18\n        /* \"#utility.yul\":11923:11941   */\n      0x24\n      dup3\n      add\n        /* \"#utility.yul\":11916:11946   */\n      mstore\n        /* \"#utility.yul\":11982:12008   */\n      0x45434453413a20696e76616c6964207369676e61747572650000000000000000\n        /* \"#utility.yul\":11962:11980   */\n      0x44\n      dup3\n      add\n        /* \"#utility.yul\":11955:12009   */\n      mstore\n        /* \"#utility.yul\":12026:12044   */\n      0x64\n      add\n        /* \"@openzeppelin/contracts/utils/cryptography/ECDSA.sol\":788:822  revert(\"ECDSA: invalid signature\") */\n      tag_168\n        /* \"#utility.yul\":11702:12050   */\n      jump\n        /* \"@openzeppelin/contracts/utils/cryptography/ECDSA.sol\":730:1075  if (error == RecoverError.InvalidSignature) {... */\n    tag_302:\n        /* \"@openzeppelin/contracts/utils/cryptography/ECDSA.sol\":852:887  RecoverError.InvalidSignatureLength */\n      0x02\n        /* \"@openzeppelin/contracts/utils/cryptography/ECDSA.sol\":843:848  error */\n      dup2\n        /* \"@openzeppelin/contracts/utils/cryptography/ECDSA.sol\":843:887  error == RecoverError.InvalidSignatureLength */\n      0x04\n      dup2\n      gt\n      iszero\n      tag_309\n      jumpi\n      tag_309\n      tag_293\n      jump\t// in\n    tag_309:\n      sub\n        /* \"@openzeppelin/contracts/utils/cryptography/ECDSA.sol\":839:1075  if (error == RecoverError.InvalidSignatureLength) {... */\n      tag_310\n      jumpi\n        /* \"@openzeppelin/contracts/utils/cryptography/ECDSA.sol\":903:944  revert(\"ECDSA: invalid signature length\") */\n      mload(0x40)\n      shl(0xe5, 0x461bcd)\n      dup2\n      mstore\n        /* \"#utility.yul\":12257:12259   */\n      0x20\n        /* \"@openzeppelin/contracts/utils/cryptography/ECDSA.sol\":903:944  revert(\"ECDSA: invalid signature length\") */\n      0x04\n      dup3\n      add\n        /* \"#utility.yul\":12239:12260   */\n      mstore\n        /* \"#utility.yul\":12296:12298   */\n      0x1f\n        /* \"#utility.yul\":12276:12294   */\n      0x24\n      dup3\n      add\n        /* \"#utility.yul\":12269:12299   */\n      mstore\n        /* \"#utility.yul\":12335:12368   */\n      0x45434453413a20696e76616c6964207369676e6174757265206c656e67746800\n        /* \"#utility.yul\":12315:12333   */\n      0x44\n      dup3\n      add\n        /* \"#utility.yul\":12308:12369   */\n      mstore\n        /* \"#utility.yul\":12386:12404   */\n      0x64\n      add\n        /* \"@openzeppelin/contracts/utils/cryptography/ECDSA.sol\":903:944  revert(\"ECDSA: invalid signature length\") */\n      tag_168\n        /* \"#utility.yul\":12055:12410   */\n      jump\n        /* \"@openzeppelin/contracts/utils/cryptography/ECDSA.sol\":839:1075  if (error == RecoverError.InvalidSignatureLength) {... */\n    tag_310:\n        /* \"@openzeppelin/contracts/utils/cryptography/ECDSA.sol\":974:1004  RecoverError.InvalidSignatureS */\n      0x03\n        /* \"@openzeppelin/contracts/utils/cryptography/ECDSA.sol\":965:970  error */\n      dup2\n        /* \"@openzeppelin/contracts/utils/cryptography/ECDSA.sol\":965:1004  error == RecoverError.InvalidSignatureS */\n      0x04\n      dup2\n      gt\n      iszero\n      tag_317\n      jumpi\n      tag_317\n      tag_293\n      jump\t// in\n    tag_317:\n      sub\n        /* \"@openzeppelin/contracts/utils/cryptography/ECDSA.sol\":961:1075  if (error == RecoverError.InvalidSignatureS) {... */\n      tag_141\n      jumpi\n        /* \"@openzeppelin/contracts/utils/cryptography/ECDSA.sol\":1020:1064  revert(\"ECDSA: invalid signature 's' value\") */\n      mload(0x40)\n      shl(0xe5, 0x461bcd)\n      dup2\n      mstore\n        /* \"#utility.yul\":12617:12619   */\n      0x20\n        /* \"@openzeppelin/contracts/utils/cryptography/ECDSA.sol\":1020:1064  revert(\"ECDSA: invalid signature 's' value\") */\n      0x04\n      dup3\n      add\n        /* \"#utility.yul\":12599:12620   */\n      mstore\n        /* \"#utility.yul\":12656:12658   */\n      0x22\n        /* \"#utility.yul\":12636:12654   */\n      0x24\n      dup3\n      add\n        /* \"#utility.yul\":12629:12659   */\n      mstore\n        /* \"#utility.yul\":12695:12729   */\n      0x45434453413a20696e76616c6964207369676e6174757265202773272076616c\n        /* \"#utility.yul\":12675:12693   */\n      0x44\n      dup3\n      add\n        /* \"#utility.yul\":12668:12730   */\n      mstore\n      shl(0xf0, 0x7565)\n        /* \"#utility.yul\":12746:12764   */\n      0x64\n      dup3\n      add\n        /* \"#utility.yul\":12739:12771   */\n      mstore\n        /* \"#utility.yul\":12788:12807   */\n      0x84\n      add\n        /* \"@openzeppelin/contracts/utils/cryptography/ECDSA.sol\":1020:1064  revert(\"ECDSA: invalid signature 's' value\") */\n      tag_168\n        /* \"#utility.yul\":12415:12813   */\n      jump\n        /* \"#utility.yul\":14:562   */\n    tag_29:\n        /* \"#utility.yul\":126:130   */\n      0x00\n        /* \"#utility.yul\":155:157   */\n      0x20\n        /* \"#utility.yul\":184:186   */\n      dup1\n        /* \"#utility.yul\":173:182   */\n      dup4\n        /* \"#utility.yul\":166:187   */\n      mstore\n        /* \"#utility.yul\":216:222   */\n      dup4\n        /* \"#utility.yul\":210:223   */\n      mload\n        /* \"#utility.yul\":259:265   */\n      dup1\n        /* \"#utility.yul\":254:256   */\n      dup3\n        /* \"#utility.yul\":243:252   */\n      dup6\n        /* \"#utility.yul\":239:257   */\n      add\n        /* \"#utility.yul\":232:266   */\n      mstore\n        /* \"#utility.yul\":284:285   */\n      0x00\n        /* \"#utility.yul\":294:434   */\n    tag_324:\n        /* \"#utility.yul\":308:314   */\n      dup2\n        /* \"#utility.yul\":305:306   */\n      dup2\n        /* \"#utility.yul\":302:315   */\n      lt\n        /* \"#utility.yul\":294:434   */\n      iszero\n      tag_326\n      jumpi\n        /* \"#utility.yul\":403:417   */\n      dup6\n      dup2\n      add\n        /* \"#utility.yul\":399:422   */\n      dup4\n      add\n        /* \"#utility.yul\":393:423   */\n      mload\n        /* \"#utility.yul\":369:386   */\n      dup6\n      dup3\n      add\n        /* \"#utility.yul\":388:390   */\n      0x40\n        /* \"#utility.yul\":365:391   */\n      add\n        /* \"#utility.yul\":358:424   */\n      mstore\n        /* \"#utility.yul\":323:333   */\n      dup3\n      add\n        /* \"#utility.yul\":294:434   */\n      jump(tag_324)\n    tag_326:\n        /* \"#utility.yul\":298:301   */\n      pop\n        /* \"#utility.yul\":483:484   */\n      0x00\n        /* \"#utility.yul\":478:480   */\n      0x40\n        /* \"#utility.yul\":469:475   */\n      dup3\n        /* \"#utility.yul\":458:467   */\n      dup7\n        /* \"#utility.yul\":454:476   */\n      add\n        /* \"#utility.yul\":450:481   */\n      add\n        /* \"#utility.yul\":443:485   */\n      mstore\n        /* \"#utility.yul\":553:555   */\n      0x40\n        /* \"#utility.yul\":546:548   */\n      0x1f\n        /* \"#utility.yul\":542:549   */\n      not\n        /* \"#utility.yul\":537:539   */\n      0x1f\n        /* \"#utility.yul\":529:535   */\n      dup4\n        /* \"#utility.yul\":525:540   */\n      add\n        /* \"#utility.yul\":521:550   */\n      and\n        /* \"#utility.yul\":510:519   */\n      dup6\n        /* \"#utility.yul\":506:551   */\n      add\n        /* \"#utility.yul\":502:556   */\n      add\n        /* \"#utility.yul\":494:556   */\n      swap3\n      pop\n      pop\n      pop\n        /* \"#utility.yul\":14:562   */\n      swap3\n      swap2\n      pop\n      pop\n      jump\t// out\n        /* \"#utility.yul\":567:740   */\n    tag_321:\n        /* \"#utility.yul\":635:655   */\n      dup1\n      calldataload\n      sub(shl(0xa0, 0x01), 0x01)\n        /* \"#utility.yul\":684:715   */\n      dup2\n      and\n        /* \"#utility.yul\":674:716   */\n      dup2\n      eq\n        /* \"#utility.yul\":664:734   */\n      tag_328\n      jumpi\n        /* \"#utility.yul\":730:731   */\n      0x00\n        /* \"#utility.yul\":727:728   */\n      dup1\n        /* \"#utility.yul\":720:732   */\n      revert\n        /* \"#utility.yul\":664:734   */\n    tag_328:\n        /* \"#utility.yul\":567:740   */\n      swap2\n      swap1\n      pop\n      jump\t// out\n        /* \"#utility.yul\":745:999   */\n    tag_32:\n        /* \"#utility.yul\":813:819   */\n      0x00\n        /* \"#utility.yul\":821:827   */\n      dup1\n        /* \"#utility.yul\":874:876   */\n      0x40\n        /* \"#utility.yul\":862:871   */\n      dup4\n        /* \"#utility.yul\":853:860   */\n      dup6\n        /* \"#utility.yul\":849:872   */\n      sub\n        /* \"#utility.yul\":845:877   */\n      slt\n        /* \"#utility.yul\":842:894   */\n      iszero\n      tag_330\n      jumpi\n        /* \"#utility.yul\":890:891   */\n      0x00\n        /* \"#utility.yul\":887:888   */\n      dup1\n        /* \"#utility.yul\":880:892   */\n      revert\n        /* \"#utility.yul\":842:894   */\n    tag_330:\n        /* \"#utility.yul\":913:942   */\n      tag_331\n        /* \"#utility.yul\":932:941   */\n      dup4\n        /* \"#utility.yul\":913:942   */\n      tag_321\n      jump\t// in\n    tag_331:\n        /* \"#utility.yul\":903:942   */\n      swap5\n        /* \"#utility.yul\":989:991   */\n      0x20\n        /* \"#utility.yul\":974:992   */\n      swap4\n      swap1\n      swap4\n      add\n        /* \"#utility.yul\":961:993   */\n      calldataload\n      swap4\n      pop\n      pop\n      pop\n        /* \"#utility.yul\":745:999   */\n      jump\t// out\n        /* \"#utility.yul\":1378:1706   */\n    tag_42:\n        /* \"#utility.yul\":1455:1461   */\n      0x00\n        /* \"#utility.yul\":1463:1469   */\n      dup1\n        /* \"#utility.yul\":1471:1477   */\n      0x00\n        /* \"#utility.yul\":1524:1526   */\n      0x60\n        /* \"#utility.yul\":1512:1521   */\n      dup5\n        /* \"#utility.yul\":1503:1510   */\n      dup7\n        /* \"#utility.yul\":1499:1522   */\n      sub\n        /* \"#utility.yul\":1495:1527   */\n      slt\n        /* \"#utility.yul\":1492:1544   */\n      iszero\n      tag_335\n      jumpi\n        /* \"#utility.yul\":1540:1541   */\n      0x00\n        /* \"#utility.yul\":1537:1538   */\n      dup1\n        /* \"#utility.yul\":1530:1542   */\n      revert\n        /* \"#utility.yul\":1492:1544   */\n    tag_335:\n        /* \"#utility.yul\":1563:1592   */\n      tag_336\n        /* \"#utility.yul\":1582:1591   */\n      dup5\n        /* \"#utility.yul\":1563:1592   */\n      tag_321\n      jump\t// in\n    tag_336:\n        /* \"#utility.yul\":1553:1592   */\n      swap3\n      pop\n        /* \"#utility.yul\":1611:1649   */\n      tag_337\n        /* \"#utility.yul\":1645:1647   */\n      0x20\n        /* \"#utility.yul\":1634:1643   */\n      dup6\n        /* \"#utility.yul\":1630:1648   */\n      add\n        /* \"#utility.yul\":1611:1649   */\n      tag_321\n      jump\t// in\n    tag_337:\n        /* \"#utility.yul\":1601:1649   */\n      swap2\n      pop\n        /* \"#utility.yul\":1696:1698   */\n      0x40\n        /* \"#utility.yul\":1685:1694   */\n      dup5\n        /* \"#utility.yul\":1681:1699   */\n      add\n        /* \"#utility.yul\":1668:1700   */\n      calldataload\n        /* \"#utility.yul\":1658:1700   */\n      swap1\n      pop\n        /* \"#utility.yul\":1378:1706   */\n      swap3\n      pop\n      swap3\n      pop\n      swap3\n      jump\t// out\n        /* \"#utility.yul\":2082:2262   */\n    tag_62:\n        /* \"#utility.yul\":2141:2147   */\n      0x00\n        /* \"#utility.yul\":2194:2196   */\n      0x20\n        /* \"#utility.yul\":2182:2191   */\n      dup3\n        /* \"#utility.yul\":2173:2180   */\n      dup5\n        /* \"#utility.yul\":2169:2192   */\n      sub\n        /* \"#utility.yul\":2165:2197   */\n      slt\n        /* \"#utility.yul\":2162:2214   */\n      iszero\n      tag_341\n      jumpi\n        /* \"#utility.yul\":2210:2211   */\n      0x00\n        /* \"#utility.yul\":2207:2208   */\n      dup1\n        /* \"#utility.yul\":2200:2212   */\n      revert\n        /* \"#utility.yul\":2162:2214   */\n    tag_341:\n      pop\n        /* \"#utility.yul\":2233:2256   */\n      calldataload\n      swap2\n        /* \"#utility.yul\":2082:2262   */\n      swap1\n      pop\n      jump\t// out\n        /* \"#utility.yul\":2267:2453   */\n    tag_66:\n        /* \"#utility.yul\":2326:2332   */\n      0x00\n        /* \"#utility.yul\":2379:2381   */\n      0x20\n        /* \"#utility.yul\":2367:2376   */\n      dup3\n        /* \"#utility.yul\":2358:2365   */\n      dup5\n        /* \"#utility.yul\":2354:2377   */\n      sub\n        /* \"#utility.yul\":2350:2382   */\n      slt\n        /* \"#utility.yul\":2347:2399   */\n      iszero\n      tag_343\n      jumpi\n        /* \"#utility.yul\":2395:2396   */\n      0x00\n        /* \"#utility.yul\":2392:2393   */\n      dup1\n        /* \"#utility.yul\":2385:2397   */\n      revert\n        /* \"#utility.yul\":2347:2399   */\n    tag_343:\n        /* \"#utility.yul\":2418:2447   */\n      tag_344\n        /* \"#utility.yul\":2437:2446   */\n      dup3\n        /* \"#utility.yul\":2418:2447   */\n      tag_321\n      jump\t// in\n    tag_344:\n        /* \"#utility.yul\":2408:2447   */\n      swap4\n        /* \"#utility.yul\":2267:2453   */\n      swap3\n      pop\n      pop\n      pop\n      jump\t// out\n        /* \"#utility.yul\":2666:3359   */\n    tag_95:\n        /* \"#utility.yul\":2777:2783   */\n      0x00\n        /* \"#utility.yul\":2785:2791   */\n      dup1\n        /* \"#utility.yul\":2793:2799   */\n      0x00\n        /* \"#utility.yul\":2801:2807   */\n      dup1\n        /* \"#utility.yul\":2809:2815   */\n      0x00\n        /* \"#utility.yul\":2817:2823   */\n      dup1\n        /* \"#utility.yul\":2825:2831   */\n      0x00\n        /* \"#utility.yul\":2878:2881   */\n      0xe0\n        /* \"#utility.yul\":2866:2875   */\n      dup9\n        /* \"#utility.yul\":2857:2864   */\n      dup11\n        /* \"#utility.yul\":2853:2876   */\n      sub\n        /* \"#utility.yul\":2849:2882   */\n      slt\n        /* \"#utility.yul\":2846:2899   */\n      iszero\n      tag_347\n      jumpi\n        /* \"#utility.yul\":2895:2896   */\n      0x00\n        /* \"#utility.yul\":2892:2893   */\n      dup1\n        /* \"#utility.yul\":2885:2897   */\n      revert\n        /* \"#utility.yul\":2846:2899   */\n    tag_347:\n        /* \"#utility.yul\":2918:2947   */\n      tag_348\n        /* \"#utility.yul\":2937:2946   */\n      dup9\n        /* \"#utility.yul\":2918:2947   */\n      tag_321\n      jump\t// in\n    tag_348:\n        /* \"#utility.yul\":2908:2947   */\n      swap7\n      pop\n        /* \"#utility.yul\":2966:3004   */\n      tag_349\n        /* \"#utility.yul\":3000:3002   */\n      0x20\n        /* \"#utility.yul\":2989:2998   */\n      dup10\n        /* \"#utility.yul\":2985:3003   */\n      add\n        /* \"#utility.yul\":2966:3004   */\n      tag_321\n      jump\t// in\n    tag_349:\n        /* \"#utility.yul\":2956:3004   */\n      swap6\n      pop\n        /* \"#utility.yul\":3051:3053   */\n      0x40\n        /* \"#utility.yul\":3040:3049   */\n      dup9\n        /* \"#utility.yul\":3036:3054   */\n      add\n        /* \"#utility.yul\":3023:3055   */\n      calldataload\n        /* \"#utility.yul\":3013:3055   */\n      swap5\n      pop\n        /* \"#utility.yul\":3102:3104   */\n      0x60\n        /* \"#utility.yul\":3091:3100   */\n      dup9\n        /* \"#utility.yul\":3087:3105   */\n      add\n        /* \"#utility.yul\":3074:3106   */\n      calldataload\n        /* \"#utility.yul\":3064:3106   */\n      swap4\n      pop\n        /* \"#utility.yul\":3156:3159   */\n      0x80\n        /* \"#utility.yul\":3145:3154   */\n      dup9\n        /* \"#utility.yul\":3141:3160   */\n      add\n        /* \"#utility.yul\":3128:3161   */\n      calldataload\n        /* \"#utility.yul\":3201:3205   */\n      0xff\n        /* \"#utility.yul\":3194:3199   */\n      dup2\n        /* \"#utility.yul\":3190:3206   */\n      and\n        /* \"#utility.yul\":3183:3188   */\n      dup2\n        /* \"#utility.yul\":3180:3207   */\n      eq\n        /* \"#utility.yul\":3170:3225   */\n      tag_350\n      jumpi\n        /* \"#utility.yul\":3221:3222   */\n      0x00\n        /* \"#utility.yul\":3218:3219   */\n      dup1\n        /* \"#utility.yul\":3211:3223   */\n      revert\n        /* \"#utility.yul\":3170:3225   */\n    tag_350:\n        /* \"#utility.yul\":2666:3359   */\n      swap7\n      swap10\n      swap6\n      swap9\n      pop\n      swap4\n      swap7\n      swap3\n      swap6\n        /* \"#utility.yul\":3244:3249   */\n      swap5\n        /* \"#utility.yul\":3296:3299   */\n      0xa0\n        /* \"#utility.yul\":3281:3300   */\n      dup5\n      add\n        /* \"#utility.yul\":3268:3301   */\n      calldataload\n      swap5\n      pop\n        /* \"#utility.yul\":3348:3351   */\n      0xc0\n        /* \"#utility.yul\":3333:3352   */\n      swap1\n      swap4\n      add\n        /* \"#utility.yul\":3320:3353   */\n      calldataload\n      swap3\n        /* \"#utility.yul\":2666:3359   */\n      swap2\n      pop\n      pop\n      jump\t// out\n        /* \"#utility.yul\":3364:3624   */\n    tag_99:\n        /* \"#utility.yul\":3432:3438   */\n      0x00\n        /* \"#utility.yul\":3440:3446   */\n      dup1\n        /* \"#utility.yul\":3493:3495   */\n      0x40\n        /* \"#utility.yul\":3481:3490   */\n      dup4\n        /* \"#utility.yul\":3472:3479   */\n      dup6\n        /* \"#utility.yul\":3468:3491   */\n      sub\n        /* \"#utility.yul\":3464:3496   */\n      slt\n        /* \"#utility.yul\":3461:3513   */\n      iszero\n      tag_352\n      jumpi\n        /* \"#utility.yul\":3509:3510   */\n      0x00\n        /* \"#utility.yul\":3506:3507   */\n      dup1\n        /* \"#utility.yul\":3499:3511   */\n      revert\n        /* \"#utility.yul\":3461:3513   */\n    tag_352:\n        /* \"#utility.yul\":3532:3561   */\n      tag_353\n        /* \"#utility.yul\":3551:3560   */\n      dup4\n        /* \"#utility.yul\":3532:3561   */\n      tag_321\n      jump\t// in\n    tag_353:\n        /* \"#utility.yul\":3522:3561   */\n      swap2\n      pop\n        /* \"#utility.yul\":3580:3618   */\n      tag_354\n        /* \"#utility.yul\":3614:3616   */\n      0x20\n        /* \"#utility.yul\":3603:3612   */\n      dup5\n        /* \"#utility.yul\":3599:3617   */\n      add\n        /* \"#utility.yul\":3580:3618   */\n      tag_321\n      jump\t// in\n    tag_354:\n        /* \"#utility.yul\":3570:3618   */\n      swap1\n      pop\n        /* \"#utility.yul\":3364:3624   */\n      swap3\n      pop\n      swap3\n      swap1\n      pop\n      jump\t// out\n        /* \"#utility.yul\":3629:4009   */\n    tag_107:\n        /* \"#utility.yul\":3708:3709   */\n      0x01\n        /* \"#utility.yul\":3704:3716   */\n      dup2\n      dup2\n      shr\n      swap1\n        /* \"#utility.yul\":3751:3763   */\n      dup3\n      and\n      dup1\n        /* \"#utility.yul\":3772:3833   */\n      tag_356\n      jumpi\n        /* \"#utility.yul\":3826:3830   */\n      0x7f\n        /* \"#utility.yul\":3818:3824   */\n      dup3\n        /* \"#utility.yul\":3814:3831   */\n      and\n        /* \"#utility.yul\":3804:3831   */\n      swap2\n      pop\n        /* \"#utility.yul\":3772:3833   */\n    tag_356:\n        /* \"#utility.yul\":3879:3881   */\n      0x20\n        /* \"#utility.yul\":3871:3877   */\n      dup3\n        /* \"#utility.yul\":3868:3882   */\n      lt\n        /* \"#utility.yul\":3848:3866   */\n      dup2\n        /* \"#utility.yul\":3845:3883   */\n      sub\n        /* \"#utility.yul\":3842:4003   */\n      tag_263\n      jumpi\n        /* \"#utility.yul\":3925:3935   */\n      0x4e487b71\n        /* \"#utility.yul\":3920:3923   */\n      0xe0\n        /* \"#utility.yul\":3916:3936   */\n      shl\n        /* \"#utility.yul\":3913:3914   */\n      0x00\n        /* \"#utility.yul\":3906:3937   */\n      mstore\n        /* \"#utility.yul\":3960:3964   */\n      0x22\n        /* \"#utility.yul\":3957:3958   */\n      0x04\n        /* \"#utility.yul\":3950:3965   */\n      mstore\n        /* \"#utility.yul\":3988:3992   */\n      0x24\n        /* \"#utility.yul\":3985:3986   */\n      0x00\n        /* \"#utility.yul\":3978:3993   */\n      revert\n        /* \"#utility.yul\":4014:4236   */\n    tag_133:\n        /* \"#utility.yul\":4079:4088   */\n      dup1\n      dup3\n      add\n        /* \"#utility.yul\":4100:4110   */\n      dup1\n      dup3\n      gt\n        /* \"#utility.yul\":4097:4230   */\n      iszero\n      tag_112\n      jumpi\n        /* \"#utility.yul\":4152:4162   */\n      0x4e487b71\n        /* \"#utility.yul\":4147:4150   */\n      0xe0\n        /* \"#utility.yul\":4143:4163   */\n      shl\n        /* \"#utility.yul\":4140:4141   */\n      0x00\n        /* \"#utility.yul\":4133:4164   */\n      mstore\n        /* \"#utility.yul\":4187:4191   */\n      0x11\n        /* \"#utility.yul\":4184:4185   */\n      0x04\n        /* \"#utility.yul\":4177:4192   */\n      mstore\n        /* \"#utility.yul\":4215:4219   */\n      0x24\n        /* \"#utility.yul\":4212:4213   */\n      0x00\n        /* \"#utility.yul\":4205:4220   */\n      revert\n        /* \"#utility.yul\":11570:11697   */\n    tag_293:\n        /* \"#utility.yul\":11631:11641   */\n      0x4e487b71\n        /* \"#utility.yul\":11626:11629   */\n      0xe0\n        /* \"#utility.yul\":11622:11642   */\n      shl\n        /* \"#utility.yul\":11619:11620   */\n      0x00\n        /* \"#utility.yul\":11612:11643   */\n      mstore\n        /* \"#utility.yul\":11662:11666   */\n      0x21\n        /* \"#utility.yul\":11659:11660   */\n      0x04\n        /* \"#utility.yul\":11652:11667   */\n      mstore\n        /* \"#utility.yul\":11686:11690   */\n      0x24\n        /* \"#utility.yul\":11683:11684   */\n      0x00\n        /* \"#utility.yul\":11676:11691   */\n      revert\n\n    auxdata: 0xa264697066735822122051ed5652bc5111cf8dea3a31110ac75ad7f29c83336f5d4558d8e1f32eb7afda64736f6c63430008110033\n}\n",
				"bytecode": {
					"linkReferences": {},
					"object": "6101406040523480156200001257600080fd5b506040518060400160405280600c81526020016b29a82aa4a9a3902a37b5b2b760a11b81525080604051806040016040528060018152602001603160f81b8152506040518060400160405280600c81526020016b29a82aa4a9a3902a37b5b2b760a11b81525060405180604001604052806005815260200164505549534760d81b8152508160039081620000a7919062000264565b506004620000b6828262000264565b505050620000d3620000cd6200016960201b60201c565b6200016d565b815160209283012081519183019190912060e08290526101008190524660a0818152604080517f8b73c3c69bb8fe3d512ecc4cf759cc79239f7b179b0ffacaa9a75d522b39400f818801819052818301969096526060810194909452608080850193909352308483018190528151808603909301835260c094850190915281519190950120905291909152610120525062000330565b3390565b600580546001600160a01b038381166001600160a01b0319831681179093556040519116919082907f8be0079c531659141344cd1fd0a4f28419497f9722a3daafe3b4186f6b6457e090600090a35050565b634e487b7160e01b600052604160045260246000fd5b600181811c90821680620001ea57607f821691505b6020821081036200020b57634e487b7160e01b600052602260045260246000fd5b50919050565b601f8211156200025f57600081815260208120601f850160051c810160208610156200023a5750805b601f850160051c820191505b818110156200025b5782815560010162000246565b5050505b505050565b81516001600160401b03811115620002805762000280620001bf565b6200029881620002918454620001d5565b8462000211565b602080601f831160018114620002d05760008415620002b75750858301515b600019600386901b1c1916600185901b1785556200025b565b600085815260208120601f198616915b828110156200030157888601518255948401946001909101908401620002e0565b5085821015620003205787850151600019600388901b60f8161c191681555b5050505050600190811b01905550565b60805160a05160c05160e05161010051610120516112cc620003806000396000610a9c01526000610aeb01526000610ac601526000610a1f01526000610a4901526000610a7301526112cc6000f3fe608060405234801561001057600080fd5b506004361061012c5760003560e01c8063715018a6116100ad578063a457c2d711610071578063a457c2d714610263578063a9059cbb14610276578063d505accf14610289578063dd62ed3e1461029c578063f2fde38b146102af57600080fd5b8063715018a61461021257806379cc67901461021a5780637ecebe001461022d5780638da5cb5b1461024057806395d89b411461025b57600080fd5b80633644e515116100f45780633644e515146101a657806339509351146101ae57806340c10f19146101c157806342966c68146101d657806370a08231146101e957600080fd5b806306fdde0314610131578063095ea7b31461014f57806318160ddd1461017257806323b872dd14610184578063313ce56714610197575b600080fd5b6101396102c2565b604051610146919061107a565b60405180910390f35b61016261015d3660046110e4565b610354565b6040519015158152602001610146565b6002545b604051908152602001610146565b61016261019236600461110e565b61036e565b60405160128152602001610146565b610176610392565b6101626101bc3660046110e4565b6103a1565b6101d46101cf3660046110e4565b6103c3565b005b6101d46101e436600461114a565b6103d9565b6101766101f7366004611163565b6001600160a01b031660009081526020819052604090205490565b6101d46103e6565b6101d46102283660046110e4565b6103fa565b61017661023b366004611163565b61040f565b6005546040516001600160a01b039091168152602001610146565b61013961042d565b6101626102713660046110e4565b61043c565b6101626102843660046110e4565b6104bc565b6101d4610297366004611185565b6104ca565b6101766102aa3660046111f8565b61062e565b6101d46102bd366004611163565b610659565b6060600380546102d19061122b565b80601f01602080910402602001604051908101604052809291908181526020018280546102fd9061122b565b801561034a5780601f1061031f5761010080835404028352916020019161034a565b820191906000526020600020905b81548152906001019060200180831161032d57829003601f168201915b5050505050905090565b6000336103628185856106cf565b60019150505b92915050565b60003361037c8582856107f4565b61038785858561086e565b506001949350505050565b600061039c610a12565b905090565b6000336103628185856103b4838361062e565b6103be919061125f565b6106cf565b6103cb610b39565b6103d58282610b93565b5050565b6103e33382610c52565b50565b6103ee610b39565b6103f86000610d7c565b565b6104058233836107f4565b6103d58282610c52565b6001600160a01b038116600090815260066020526040812054610368565b6060600480546102d19061122b565b6000338161044a828661062e565b9050838110156104af5760405162461bcd60e51b815260206004820152602560248201527f45524332303a2064656372656173656420616c6c6f77616e63652062656c6f77604482015264207a65726f60d81b60648201526084015b60405180910390fd5b61038782868684036106cf565b60003361036281858561086e565b8342111561051a5760405162461bcd60e51b815260206004820152601d60248201527f45524332305065726d69743a206578706972656420646561646c696e6500000060448201526064016104a6565b60007f6e71edae12b1b97f4d1f60370fef10105fa2faae0126114a169c64845d6126c98888886105498c610dce565b6040805160208101969096526001600160a01b0394851690860152929091166060840152608083015260a082015260c0810186905260e00160405160208183030381529060405280519060200120905060006105a482610df6565b905060006105b482878787610e44565b9050896001600160a01b0316816001600160a01b0316146106175760405162461bcd60e51b815260206004820152601e60248201527f45524332305065726d69743a20696e76616c6964207369676e6174757265000060448201526064016104a6565b6106228a8a8a6106cf565b50505050505050505050565b6001600160a01b03918216600090815260016020908152604080832093909416825291909152205490565b610661610b39565b6001600160a01b0381166106c65760405162461bcd60e51b815260206004820152602660248201527f4f776e61626c653a206e6577206f776e657220697320746865207a65726f206160448201526564647265737360d01b60648201526084016104a6565b6103e381610d7c565b6001600160a01b0383166107315760405162461bcd60e51b8152602060048201526024808201527f45524332303a20617070726f76652066726f6d20746865207a65726f206164646044820152637265737360e01b60648201526084016104a6565b6001600160a01b0382166107925760405162461bcd60e51b815260206004820152602260248201527f45524332303a20617070726f766520746f20746865207a65726f206164647265604482015261737360f01b60648201526084016104a6565b6001600160a01b0383811660008181526001602090815260408083209487168084529482529182902085905590518481527f8c5be1e5ebec7d5bd14f71427d1e84f3dd0314c0f7b2291e5b200ac8c7c3b92591015b60405180910390a3505050565b6000610800848461062e565b90506000198114610868578181101561085b5760405162461bcd60e51b815260206004820152601d60248201527f45524332303a20696e73756666696369656e7420616c6c6f77616e636500000060448201526064016104a6565b61086884848484036106cf565b50505050565b6001600160a01b0383166108d25760405162461bcd60e51b815260206004820152602560248201527f45524332303a207472616e736665722066726f6d20746865207a65726f206164604482015264647265737360d81b60648201526084016104a6565b6001600160a01b0382166109345760405162461bcd60e51b815260206004820152602360248201527f45524332303a207472616e7366657220746f20746865207a65726f206164647260448201526265737360e81b60648201526084016104a6565b6001600160a01b038316600090815260208190526040902054818110156109ac5760405162461bcd60e51b815260206004820152602660248201527f45524332303a207472616e7366657220616d6f756e7420657863656564732062604482015265616c616e636560d01b60648201526084016104a6565b6001600160a01b03848116600081815260208181526040808320878703905593871680835291849020805487019055925185815290927fddf252ad1be2c89b69c2b068fc378daa952ba7f163c4a11628f55a4df523b3ef910160405180910390a3610868565b6000306001600160a01b037f000000000000000000000000000000000000000000000000000000000000000016148015610a6b57507f000000000000000000000000000000000000000000000000000000000000000046145b15610a9557507f000000000000000000000000000000000000000000000000000000000000000090565b50604080517f00000000000000000000000000000000000000000000000000000000000000006020808301919091527f0000000000000000000000000000000000000000000000000000000000000000828401527f000000000000000000000000000000000000000000000000000000000000000060608301524660808301523060a0808401919091528351808403909101815260c0909201909252805191012090565b6005546001600160a01b031633146103f85760405162461bcd60e51b815260206004820181905260248201527f4f776e61626c653a2063616c6c6572206973206e6f7420746865206f776e657260448201526064016104a6565b6001600160a01b038216610be95760405162461bcd60e51b815260206004820152601f60248201527f45524332303a206d696e7420746f20746865207a65726f20616464726573730060448201526064016104a6565b8060026000828254610bfb919061125f565b90915550506001600160a01b038216600081815260208181526040808320805486019055518481527fddf252ad1be2c89b69c2b068fc378daa952ba7f163c4a11628f55a4df523b3ef910160405180910390a35050565b6001600160a01b038216610cb25760405162461bcd60e51b815260206004820152602160248201527f45524332303a206275726e2066726f6d20746865207a65726f206164647265736044820152607360f81b60648201526084016104a6565b6001600160a01b03821660009081526020819052604090205481811015610d265760405162461bcd60e51b815260206004820152602260248201527f45524332303a206275726e20616d6f756e7420657863656564732062616c616e604482015261636560f01b60648201526084016104a6565b6001600160a01b0383166000818152602081815260408083208686039055600280548790039055518581529192917fddf252ad1be2c89b69c2b068fc378daa952ba7f163c4a11628f55a4df523b3ef91016107e7565b600580546001600160a01b038381166001600160a01b0319831681179093556040519116919082907f8be0079c531659141344cd1fd0a4f28419497f9722a3daafe3b4186f6b6457e090600090a35050565b6001600160a01b03811660009081526006602052604090208054600181018255905b50919050565b6000610368610e03610a12565b8360405161190160f01b6020820152602281018390526042810182905260009060620160405160208183030381529060405280519060200120905092915050565b6000806000610e5587878787610e6c565b91509150610e6281610f30565b5095945050505050565b6000807f7fffffffffffffffffffffffffffffff5d576e7357a4501ddfe92f46681b20a0831115610ea35750600090506003610f27565b6040805160008082526020820180845289905260ff881692820192909252606081018690526080810185905260019060a0016020604051602081039080840390855afa158015610ef7573d6000803e3d6000fd5b5050604051601f1901519150506001600160a01b038116610f2057600060019250925050610f27565b9150600090505b94509492505050565b6000816004811115610f4457610f44611280565b03610f4c5750565b6001816004811115610f6057610f60611280565b03610fad5760405162461bcd60e51b815260206004820152601860248201527f45434453413a20696e76616c6964207369676e6174757265000000000000000060448201526064016104a6565b6002816004811115610fc157610fc1611280565b0361100e5760405162461bcd60e51b815260206004820152601f60248201527f45434453413a20696e76616c6964207369676e6174757265206c656e6774680060448201526064016104a6565b600381600481111561102257611022611280565b036103e35760405162461bcd60e51b815260206004820152602260248201527f45434453413a20696e76616c6964207369676e6174757265202773272076616c604482015261756560f01b60648201526084016104a6565b600060208083528351808285015260005b818110156110a75785810183015185820160400152820161108b565b506000604082860101526040601f19601f8301168501019250505092915050565b80356001600160a01b03811681146110df57600080fd5b919050565b600080604083850312156110f757600080fd5b611100836110c8565b946020939093013593505050565b60008060006060848603121561112357600080fd5b61112c846110c8565b925061113a602085016110c8565b9150604084013590509250925092565b60006020828403121561115c57600080fd5b5035919050565b60006020828403121561117557600080fd5b61117e826110c8565b9392505050565b600080600080600080600060e0888a0312156111a057600080fd5b6111a9886110c8565b96506111b7602089016110c8565b95506040880135945060608801359350608088013560ff811681146111db57600080fd5b9699959850939692959460a0840135945060c09093013592915050565b6000806040838503121561120b57600080fd5b611214836110c8565b9150611222602084016110c8565b90509250929050565b600181811c9082168061123f57607f821691505b602082108103610df057634e487b7160e01b600052602260045260246000fd5b8082018082111561036857634e487b7160e01b600052601160045260246000fd5b634e487b7160e01b600052602160045260246000fdfea264697066735822122051ed5652bc5111cf8dea3a31110ac75ad7f29c83336f5d4558d8e1f32eb7afda64736f6c63430008110033",
					"opcodes": "PUSH2 0x140 PUSH1 0x40 MSTORE CALLVALUE DUP1 ISZERO PUSH3 0x12 JUMPI PUSH1 0x0 DUP1 REVERT JUMPDEST POP PUSH1 0x40 MLOAD DUP1 PUSH1 0x40 ADD PUSH1 0x40 MSTORE DUP1 PUSH1 0xC DUP2 MSTORE PUSH1 0x20 ADD PUSH12 0x29A82AA4A9A3902A37B5B2B7 PUSH1 0xA1 SHL DUP2 MSTORE POP DUP1 PUSH1 0x40 MLOAD DUP1 PUSH1 0x40 ADD PUSH1 0x40 MSTORE DUP1 PUSH1 0x1 DUP2 MSTORE PUSH1 0x20 ADD PUSH1 0x31 PUSH1 0xF8 SHL DUP2 MSTORE POP PUSH1 0x40 MLOAD DUP1 PUSH1 0x40 ADD PUSH1 0x40 MSTORE DUP1 PUSH1 0xC DUP2 MSTORE PUSH1 0x20 ADD PUSH12 0x29A82AA4A9A3902A37B5B2B7 PUSH1 0xA1 SHL DUP2 MSTORE POP PUSH1 0x40 MLOAD DUP1 PUSH1 0x40 ADD PUSH1 0x40 MSTORE DUP1 PUSH1 0x5 DUP2 MSTORE PUSH1 0x20 ADD PUSH5 0x5055495347 PUSH1 0xD8 SHL DUP2 MSTORE POP DUP2 PUSH1 0x3 SWAP1 DUP2 PUSH3 0xA7 SWAP2 SWAP1 PUSH3 0x264 JUMP JUMPDEST POP PUSH1 0x4 PUSH3 0xB6 DUP3 DUP3 PUSH3 0x264 JUMP JUMPDEST POP POP POP PUSH3 0xD3 PUSH3 0xCD PUSH3 0x169 PUSH1 0x20 SHL PUSH1 0x20 SHR JUMP JUMPDEST PUSH3 0x16D JUMP JUMPDEST DUP2 MLOAD PUSH1 0x20 SWAP3 DUP4 ADD KECCAK256 DUP2 MLOAD SWAP2 DUP4 ADD SWAP2 SWAP1 SWAP2 KECCAK256 PUSH1 0xE0 DUP3 SWAP1 MSTORE PUSH2 0x100 DUP2 SWAP1 MSTORE CHAINID PUSH1 0xA0 DUP2 DUP2 MSTORE PUSH1 0x40 DUP1 MLOAD PUSH32 0x8B73C3C69BB8FE3D512ECC4CF759CC79239F7B179B0FFACAA9A75D522B39400F DUP2 DUP9 ADD DUP2 SWAP1 MSTORE DUP2 DUP4 ADD SWAP7 SWAP1 SWAP7 MSTORE PUSH1 0x60 DUP2 ADD SWAP5 SWAP1 SWAP5 MSTORE PUSH1 0x80 DUP1 DUP6 ADD SWAP4 SWAP1 SWAP4 MSTORE ADDRESS DUP5 DUP4 ADD DUP2 SWAP1 MSTORE DUP2 MLOAD DUP1 DUP7 SUB SWAP1 SWAP4 ADD DUP4 MSTORE PUSH1 0xC0 SWAP5 DUP6 ADD SWAP1 SWAP2 MSTORE DUP2 MLOAD SWAP2 SWAP1 SWAP6 ADD KECCAK256 SWAP1 MSTORE SWAP2 SWAP1 SWAP2 MSTORE PUSH2 0x120 MSTORE POP PUSH3 0x330 JUMP JUMPDEST CALLER SWAP1 JUMP JUMPDEST PUSH1 0x5 DUP1 SLOAD PUSH1 0x1 PUSH1 0x1 PUSH1 0xA0 SHL SUB DUP4 DUP2 AND PUSH1 0x1 PUSH1 0x1 PUSH1 0xA0 SHL SUB NOT DUP4 AND DUP2 OR SWAP1 SWAP4 SSTORE PUSH1 0x40 MLOAD SWAP2 AND SWAP2 SWAP1 DUP3 SWAP1 PUSH32 0x8BE0079C531659141344CD1FD0A4F28419497F9722A3DAAFE3B4186F6B6457E0 SWAP1 PUSH1 0x0 SWAP1 LOG3 POP POP JUMP JUMPDEST PUSH4 0x4E487B71 PUSH1 0xE0 SHL PUSH1 0x0 MSTORE PUSH1 0x41 PUSH1 0x4 MSTORE PUSH1 0x24 PUSH1 0x0 REVERT JUMPDEST PUSH1 0x1 DUP2 DUP2 SHR SWAP1 DUP3 AND DUP1 PUSH3 0x1EA JUMPI PUSH1 0x7F DUP3 AND SWAP2 POP JUMPDEST PUSH1 0x20 DUP3 LT DUP2 SUB PUSH3 0x20B JUMPI PUSH4 0x4E487B71 PUSH1 0xE0 SHL PUSH1 0x0 MSTORE PUSH1 0x22 PUSH1 0x4 MSTORE PUSH1 0x24 PUSH1 0x0 REVERT JUMPDEST POP SWAP2 SWAP1 POP JUMP JUMPDEST PUSH1 0x1F DUP3 GT ISZERO PUSH3 0x25F JUMPI PUSH1 0x0 DUP2 DUP2 MSTORE PUSH1 0x20 DUP2 KECCAK256 PUSH1 0x1F DUP6 ADD PUSH1 0x5 SHR DUP2 ADD PUSH1 0x20 DUP7 LT ISZERO PUSH3 0x23A JUMPI POP DUP1 JUMPDEST PUSH1 0x1F DUP6 ADD PUSH1 0x5 SHR DUP3 ADD SWAP2 POP JUMPDEST DUP2 DUP2 LT ISZERO PUSH3 0x25B JUMPI DUP3 DUP2 SSTORE PUSH1 0x1 ADD PUSH3 0x246 JUMP JUMPDEST POP POP POP JUMPDEST POP POP POP JUMP JUMPDEST DUP2 MLOAD PUSH1 0x1 PUSH1 0x1 PUSH1 0x40 SHL SUB DUP2 GT ISZERO PUSH3 0x280 JUMPI PUSH3 0x280 PUSH3 0x1BF JUMP JUMPDEST PUSH3 0x298 DUP2 PUSH3 0x291 DUP5 SLOAD PUSH3 0x1D5 JUMP JUMPDEST DUP5 PUSH3 0x211 JUMP JUMPDEST PUSH1 0x20 DUP1 PUSH1 0x1F DUP4 GT PUSH1 0x1 DUP2 EQ PUSH3 0x2D0 JUMPI PUSH1 0x0 DUP5 ISZERO PUSH3 0x2B7 JUMPI POP DUP6 DUP4 ADD MLOAD JUMPDEST PUSH1 0x0 NOT PUSH1 0x3 DUP7 SWAP1 SHL SHR NOT AND PUSH1 0x1 DUP6 SWAP1 SHL OR DUP6 SSTORE PUSH3 0x25B JUMP JUMPDEST PUSH1 0x0 DUP6 DUP2 MSTORE PUSH1 0x20 DUP2 KECCAK256 PUSH1 0x1F NOT DUP7 AND SWAP2 JUMPDEST DUP3 DUP2 LT ISZERO PUSH3 0x301 JUMPI DUP9 DUP7 ADD MLOAD DUP3 SSTORE SWAP5 DUP5 ADD SWAP5 PUSH1 0x1 SWAP1 SWAP2 ADD SWAP1 DUP5 ADD PUSH3 0x2E0 JUMP JUMPDEST POP DUP6 DUP3 LT ISZERO PUSH3 0x320 JUMPI DUP8 DUP6 ADD MLOAD PUSH1 0x0 NOT PUSH1 0x3 DUP9 SWAP1 SHL PUSH1 0xF8 AND SHR NOT AND DUP2 SSTORE JUMPDEST POP POP POP POP POP PUSH1 0x1 SWAP1 DUP2 SHL ADD SWAP1 SSTORE POP JUMP JUMPDEST PUSH1 0x80 MLOAD PUSH1 0xA0 MLOAD PUSH1 0xC0 MLOAD PUSH1 0xE0 MLOAD PUSH2 0x100 MLOAD PUSH2 0x120 MLOAD PUSH2 0x12CC PUSH3 0x380 PUSH1 0x0 CODECOPY PUSH1 0x0 PUSH2 0xA9C ADD MSTORE PUSH1 0x0 PUSH2 0xAEB ADD MSTORE PUSH1 0x0 PUSH2 0xAC6 ADD MSTORE PUSH1 0x0 PUSH2 0xA1F ADD MSTORE PUSH1 0x0 PUSH2 0xA49 ADD MSTORE PUSH1 0x0 PUSH2 0xA73 ADD MSTORE PUSH2 0x12CC PUSH1 0x0 RETURN INVALID PUSH1 0x80 PUSH1 0x40 MSTORE CALLVALUE DUP1 ISZERO PUSH2 0x10 JUMPI PUSH1 0x0 DUP1 REVERT JUMPDEST POP PUSH1 0x4 CALLDATASIZE LT PUSH2 0x12C JUMPI PUSH1 0x0 CALLDATALOAD PUSH1 0xE0 SHR DUP1 PUSH4 0x715018A6 GT PUSH2 0xAD JUMPI DUP1 PUSH4 0xA457C2D7 GT PUSH2 0x71 JUMPI DUP1 PUSH4 0xA457C2D7 EQ PUSH2 0x263 JUMPI DUP1 PUSH4 0xA9059CBB EQ PUSH2 0x276 JUMPI DUP1 PUSH4 0xD505ACCF EQ PUSH2 0x289 JUMPI DUP1 PUSH4 0xDD62ED3E EQ PUSH2 0x29C JUMPI DUP1 PUSH4 0xF2FDE38B EQ PUSH2 0x2AF JUMPI PUSH1 0x0 DUP1 REVERT JUMPDEST DUP1 PUSH4 0x715018A6 EQ PUSH2 0x212 JUMPI DUP1 PUSH4 0x79CC6790 EQ PUSH2 0x21A JUMPI DUP1 PUSH4 0x7ECEBE00 EQ PUSH2 0x22D JUMPI DUP1 PUSH4 0x8DA5CB5B EQ PUSH2 0x240 JUMPI DUP1 PUSH4 0x95D89B41 EQ PUSH2 0x25B JUMPI PUSH1 0x0 DUP1 REVERT JUMPDEST DUP1 PUSH4 0x3644E515 GT PUSH2 0xF4 JUMPI DUP1 PUSH4 0x3644E515 EQ PUSH2 0x1A6 JUMPI DUP1 PUSH4 0x39509351 EQ PUSH2 0x1AE JUMPI DUP1 PUSH4 0x40C10F19 EQ PUSH2 0x1C1 JUMPI DUP1 PUSH4 0x42966C68 EQ PUSH2 0x1D6 JUMPI DUP1 PUSH4 0x70A08231 EQ PUSH2 0x1E9 JUMPI PUSH1 0x0 DUP1 REVERT JUMPDEST DUP1 PUSH4 0x6FDDE03 EQ PUSH2 0x131 JUMPI DUP1 PUSH4 0x95EA7B3 EQ PUSH2 0x14F JUMPI DUP1 PUSH4 0x18160DDD EQ PUSH2 0x172 JUMPI DUP1 PUSH4 0x23B872DD EQ PUSH2 0x184 JUMPI DUP1 PUSH4 0x313CE567 EQ PUSH2 0x197 JUMPI JUMPDEST PUSH1 0x0 DUP1 REVERT JUMPDEST PUSH2 0x139 PUSH2 0x2C2 JUMP JUMPDEST PUSH1 0x40 MLOAD PUSH2 0x146 SWAP2 SWAP1 PUSH2 0x107A JUMP JUMPDEST PUSH1 0x40 MLOAD DUP1 SWAP2 SUB SWAP1 RETURN JUMPDEST PUSH2 0x162 PUSH2 0x15D CALLDATASIZE PUSH1 0x4 PUSH2 0x10E4 JUMP JUMPDEST PUSH2 0x354 JUMP JUMPDEST PUSH1 0x40 MLOAD SWAP1 ISZERO ISZERO DUP2 MSTORE PUSH1 0x20 ADD PUSH2 0x146 JUMP JUMPDEST PUSH1 0x2 SLOAD JUMPDEST PUSH1 0x40 MLOAD SWAP1 DUP2 MSTORE PUSH1 0x20 ADD PUSH2 0x146 JUMP JUMPDEST PUSH2 0x162 PUSH2 0x192 CALLDATASIZE PUSH1 0x4 PUSH2 0x110E JUMP JUMPDEST PUSH2 0x36E JUMP JUMPDEST PUSH1 0x40 MLOAD PUSH1 0x12 DUP2 MSTORE PUSH1 0x20 ADD PUSH2 0x146 JUMP JUMPDEST PUSH2 0x176 PUSH2 0x392 JUMP JUMPDEST PUSH2 0x162 PUSH2 0x1BC CALLDATASIZE PUSH1 0x4 PUSH2 0x10E4 JUMP JUMPDEST PUSH2 0x3A1 JUMP JUMPDEST PUSH2 0x1D4 PUSH2 0x1CF CALLDATASIZE PUSH1 0x4 PUSH2 0x10E4 JUMP JUMPDEST PUSH2 0x3C3 JUMP JUMPDEST STOP JUMPDEST PUSH2 0x1D4 PUSH2 0x1E4 CALLDATASIZE PUSH1 0x4 PUSH2 0x114A JUMP JUMPDEST PUSH2 0x3D9 JUMP JUMPDEST PUSH2 0x176 PUSH2 0x1F7 CALLDATASIZE PUSH1 0x4 PUSH2 0x1163 JUMP JUMPDEST PUSH1 0x1 PUSH1 0x1 PUSH1 0xA0 SHL SUB AND PUSH1 0x0 SWAP1 DUP2 MSTORE PUSH1 0x20 DUP2 SWAP1 MSTORE PUSH1 0x40 SWAP1 KECCAK256 SLOAD SWAP1 JUMP JUMPDEST PUSH2 0x1D4 PUSH2 0x3E6 JUMP JUMPDEST PUSH2 0x1D4 PUSH2 0x228 CALLDATASIZE PUSH1 0x4 PUSH2 0x10E4 JUMP JUMPDEST PUSH2 0x3FA JUMP JUMPDEST PUSH2 0x176 PUSH2 0x23B CALLDATASIZE PUSH1 0x4 PUSH2 0x1163 JUMP JUMPDEST PUSH2 0x40F JUMP JUMPDEST PUSH1 0x5 SLOAD PUSH1 0x40 MLOAD PUSH1 0x1 PUSH1 0x1 PUSH1 0xA0 SHL SUB SWAP1 SWAP2 AND DUP2 MSTORE PUSH1 0x20 ADD PUSH2 0x146 JUMP JUMPDEST PUSH2 0x139 PUSH2 0x42D JUMP JUMPDEST PUSH2 0x162 PUSH2 0x271 CALLDATASIZE PUSH1 0x4 PUSH2 0x10E4 JUMP JUMPDEST PUSH2 0x43C JUMP JUMPDEST PUSH2 0x162 PUSH2 0x284 CALLDATASIZE PUSH1 0x4 PUSH2 0x10E4 JUMP JUMPDEST PUSH2 0x4BC JUMP JUMPDEST PUSH2 0x1D4 PUSH2 0x297 CALLDATASIZE PUSH1 0x4 PUSH2 0x1185 JUMP JUMPDEST PUSH2 0x4CA JUMP JUMPDEST PUSH2 0x176 PUSH2 0x2AA CALLDATASIZE PUSH1 0x4 PUSH2 0x11F8 JUMP JUMPDEST PUSH2 0x62E JUMP JUMPDEST PUSH2 0x1D4 PUSH2 0x2BD CALLDATASIZE PUSH1 0x4 PUSH2 0x1163 JUMP JUMPDEST PUSH2 0x659 JUMP JUMPDEST PUSH1 0x60 PUSH1 0x3 DUP1 SLOAD PUSH2 0x2D1 SWAP1 PUSH2 0x122B JUMP JUMPDEST DUP1 PUSH1 0x1F ADD PUSH1 0x20 DUP1 SWAP2 DIV MUL PUSH1 0x20 ADD PUSH1 0x40 MLOAD SWAP1 DUP2 ADD PUSH1 0x40 MSTORE DUP1 SWAP3 SWAP2 SWAP1 DUP2 DUP2 MSTORE PUSH1 0x20 ADD DUP3 DUP1 SLOAD PUSH2 0x2FD SWAP1 PUSH2 0x122B JUMP JUMPDEST DUP1 ISZERO PUSH2 0x34A JUMPI DUP1 PUSH1 0x1F LT PUSH2 0x31F JUMPI PUSH2 0x100 DUP1 DUP4 SLOAD DIV MUL DUP4 MSTORE SWAP2 PUSH1 0x20 ADD SWAP2 PUSH2 0x34A JUMP JUMPDEST DUP3 ADD SWAP2 SWAP1 PUSH1 0x0 MSTORE PUSH1 0x20 PUSH1 0x0 KECCAK256 SWAP1 JUMPDEST DUP2 SLOAD DUP2 MSTORE SWAP1 PUSH1 0x1 ADD SWAP1 PUSH1 0x20 ADD DUP1 DUP4 GT PUSH2 0x32D JUMPI DUP3 SWAP1 SUB PUSH1 0x1F AND DUP3 ADD SWAP2 JUMPDEST POP POP POP POP POP SWAP1 POP SWAP1 JUMP JUMPDEST PUSH1 0x0 CALLER PUSH2 0x362 DUP2 DUP6 DUP6 PUSH2 0x6CF JUMP JUMPDEST PUSH1 0x1 SWAP2 POP POP JUMPDEST SWAP3 SWAP2 POP POP JUMP JUMPDEST PUSH1 0x0 CALLER PUSH2 0x37C DUP6 DUP3 DUP6 PUSH2 0x7F4 JUMP JUMPDEST PUSH2 0x387 DUP6 DUP6 DUP6 PUSH2 0x86E JUMP JUMPDEST POP PUSH1 0x1 SWAP5 SWAP4 POP POP POP POP JUMP JUMPDEST PUSH1 0x0 PUSH2 0x39C PUSH2 0xA12 JUMP JUMPDEST SWAP1 POP SWAP1 JUMP JUMPDEST PUSH1 0x0 CALLER PUSH2 0x362 DUP2 DUP6 DUP6 PUSH2 0x3B4 DUP4 DUP4 PUSH2 0x62E JUMP JUMPDEST PUSH2 0x3BE SWAP2 SWAP1 PUSH2 0x125F JUMP JUMPDEST PUSH2 0x6CF JUMP JUMPDEST PUSH2 0x3CB PUSH2 0xB39 JUMP JUMPDEST PUSH2 0x3D5 DUP3 DUP3 PUSH2 0xB93 JUMP JUMPDEST POP POP JUMP JUMPDEST PUSH2 0x3E3 CALLER DUP3 PUSH2 0xC52 JUMP JUMPDEST POP JUMP JUMPDEST PUSH2 0x3EE PUSH2 0xB39 JUMP JUMPDEST PUSH2 0x3F8 PUSH1 0x0 PUSH2 0xD7C JUMP JUMPDEST JUMP JUMPDEST PUSH2 0x405 DUP3 CALLER DUP4 PUSH2 0x7F4 JUMP JUMPDEST PUSH2 0x3D5 DUP3 DUP3 PUSH2 0xC52 JUMP JUMPDEST PUSH1 0x1 PUSH1 0x1 PUSH1 0xA0 SHL SUB DUP2 AND PUSH1 0x0 SWAP1 DUP2 MSTORE PUSH1 0x6 PUSH1 0x20 MSTORE PUSH1 0x40 DUP2 KECCAK256 SLOAD PUSH2 0x368 JUMP JUMPDEST PUSH1 0x60 PUSH1 0x4 DUP1 SLOAD PUSH2 0x2D1 SWAP1 PUSH2 0x122B JUMP JUMPDEST PUSH1 0x0 CALLER DUP2 PUSH2 0x44A DUP3 DUP7 PUSH2 0x62E JUMP JUMPDEST SWAP1 POP DUP4 DUP2 LT ISZERO PUSH2 0x4AF JUMPI PUSH1 0x40 MLOAD PUSH3 0x461BCD PUSH1 0xE5 SHL DUP2 MSTORE PUSH1 0x20 PUSH1 0x4 DUP3 ADD MSTORE PUSH1 0x25 PUSH1 0x24 DUP3 ADD MSTORE PUSH32 0x45524332303A2064656372656173656420616C6C6F77616E63652062656C6F77 PUSH1 0x44 DUP3 ADD MSTORE PUSH5 0x207A65726F PUSH1 0xD8 SHL PUSH1 0x64 DUP3 ADD MSTORE PUSH1 0x84 ADD JUMPDEST PUSH1 0x40 MLOAD DUP1 SWAP2 SUB SWAP1 REVERT JUMPDEST PUSH2 0x387 DUP3 DUP7 DUP7 DUP5 SUB PUSH2 0x6CF JUMP JUMPDEST PUSH1 0x0 CALLER PUSH2 0x362 DUP2 DUP6 DUP6 PUSH2 0x86E JUMP JUMPDEST DUP4 TIMESTAMP GT ISZERO PUSH2 0x51A JUMPI PUSH1 0x40 MLOAD PUSH3 0x461BCD PUSH1 0xE5 SHL DUP2 MSTORE PUSH1 0x20 PUSH1 0x4 DUP3 ADD MSTORE PUSH1 0x1D PUSH1 0x24 DUP3 ADD MSTORE PUSH32 0x45524332305065726D69743A206578706972656420646561646C696E65000000 PUSH1 0x44 DUP3 ADD MSTORE PUSH1 0x64 ADD PUSH2 0x4A6 JUMP JUMPDEST PUSH1 0x0 PUSH32 0x6E71EDAE12B1B97F4D1F60370FEF10105FA2FAAE0126114A169C64845D6126C9 DUP9 DUP9 DUP9 PUSH2 0x549 DUP13 PUSH2 0xDCE JUMP JUMPDEST PUSH1 0x40 DUP1 MLOAD PUSH1 0x20 DUP2 ADD SWAP7 SWAP1 SWAP7 MSTORE PUSH1 0x1 PUSH1 0x1 PUSH1 0xA0 SHL SUB SWAP5 DUP6 AND SWAP1 DUP7 ADD MSTORE SWAP3 SWAP1 SWAP2 AND PUSH1 0x60 DUP5 ADD MSTORE PUSH1 0x80 DUP4 ADD MSTORE PUSH1 0xA0 DUP3 ADD MSTORE PUSH1 0xC0 DUP2 ADD DUP7 SWAP1 MSTORE PUSH1 0xE0 ADD PUSH1 0x40 MLOAD PUSH1 0x20 DUP2 DUP4 SUB SUB DUP2 MSTORE SWAP1 PUSH1 0x40 MSTORE DUP1 MLOAD SWAP1 PUSH1 0x20 ADD KECCAK256 SWAP1 POP PUSH1 0x0 PUSH2 0x5A4 DUP3 PUSH2 0xDF6 JUMP JUMPDEST SWAP1 POP PUSH1 0x0 PUSH2 0x5B4 DUP3 DUP8 DUP8 DUP8 PUSH2 0xE44 JUMP JUMPDEST SWAP1 POP DUP10 PUSH1 0x1 PUSH1 0x1 PUSH1 0xA0 SHL SUB AND DUP2 PUSH1 0x1 PUSH1 0x1 PUSH1 0xA0 SHL SUB AND EQ PUSH2 0x617 JUMPI PUSH1 0x40 MLOAD PUSH3 0x461BCD PUSH1 0xE5 SHL DUP2 MSTORE PUSH1 0x20 PUSH1 0x4 DUP3 ADD MSTORE PUSH1 0x1E PUSH1 0x24 DUP3 ADD MSTORE PUSH32 0x45524332305065726D69743A20696E76616C6964207369676E61747572650000 PUSH1 0x44 DUP3 ADD MSTORE PUSH1 0x64 ADD PUSH2 0x4A6 JUMP JUMPDEST PUSH2 0x622 DUP11 DUP11 DUP11 PUSH2 0x6CF JUMP JUMPDEST POP POP POP POP POP POP POP POP POP POP JUMP JUMPDEST PUSH1 0x1 PUSH1 0x1 PUSH1 0xA0 SHL SUB SWAP2 DUP3 AND PUSH1 0x0 SWAP1 DUP2 MSTORE PUSH1 0x1 PUSH1 0x20 SWAP1 DUP2 MSTORE PUSH1 0x40 DUP1 DUP4 KECCAK256 SWAP4 SWAP1 SWAP5 AND DUP3 MSTORE SWAP2 SWAP1 SWAP2 MSTORE KECCAK256 SLOAD SWAP1 JUMP JUMPDEST PUSH2 0x661 PUSH2 0xB39 JUMP JUMPDEST PUSH1 0x1 PUSH1 0x1 PUSH1 0xA0 SHL SUB DUP2 AND PUSH2 0x6C6 JUMPI PUSH1 0x40 MLOAD PUSH3 0x461BCD PUSH1 0xE5 SHL DUP2 MSTORE PUSH1 0x20 PUSH1 0x4 DUP3 ADD MSTORE PUSH1 0x26 PUSH1 0x24 DUP3 ADD MSTORE PUSH32 0x4F776E61626C653A206E6577206F776E657220697320746865207A65726F2061 PUSH1 0x44 DUP3 ADD MSTORE PUSH6 0x646472657373 PUSH1 0xD0 SHL PUSH1 0x64 DUP3 ADD MSTORE PUSH1 0x84 ADD PUSH2 0x4A6 JUMP JUMPDEST PUSH2 0x3E3 DUP2 PUSH2 0xD7C JUMP JUMPDEST PUSH1 0x1 PUSH1 0x1 PUSH1 0xA0 SHL SUB DUP4 AND PUSH2 0x731 JUMPI PUSH1 0x40 MLOAD PUSH3 0x461BCD PUSH1 0xE5 SHL DUP2 MSTORE PUSH1 0x20 PUSH1 0x4 DUP3 ADD MSTORE PUSH1 0x24 DUP1 DUP3 ADD MSTORE PUSH32 0x45524332303A20617070726F76652066726F6D20746865207A65726F20616464 PUSH1 0x44 DUP3 ADD MSTORE PUSH4 0x72657373 PUSH1 0xE0 SHL PUSH1 0x64 DUP3 ADD MSTORE PUSH1 0x84 ADD PUSH2 0x4A6 JUMP JUMPDEST PUSH1 0x1 PUSH1 0x1 PUSH1 0xA0 SHL SUB DUP3 AND PUSH2 0x792 JUMPI PUSH1 0x40 MLOAD PUSH3 0x461BCD PUSH1 0xE5 SHL DUP2 MSTORE PUSH1 0x20 PUSH1 0x4 DUP3 ADD MSTORE PUSH1 0x22 PUSH1 0x24 DUP3 ADD MSTORE PUSH32 0x45524332303A20617070726F766520746F20746865207A65726F206164647265 PUSH1 0x44 DUP3 ADD MSTORE PUSH2 0x7373 PUSH1 0xF0 SHL PUSH1 0x64 DUP3 ADD MSTORE PUSH1 0x84 ADD PUSH2 0x4A6 JUMP JUMPDEST PUSH1 0x1 PUSH1 0x1 PUSH1 0xA0 SHL SUB DUP4 DUP2 AND PUSH1 0x0 DUP2 DUP2 MSTORE PUSH1 0x1 PUSH1 0x20 SWAP1 DUP2 MSTORE PUSH1 0x40 DUP1 DUP4 KECCAK256 SWAP5 DUP8 AND DUP1 DUP5 MSTORE SWAP5 DUP3 MSTORE SWAP2 DUP3 SWAP1 KECCAK256 DUP6 SWAP1 SSTORE SWAP1 MLOAD DUP5 DUP2 MSTORE PUSH32 0x8C5BE1E5EBEC7D5BD14F71427D1E84F3DD0314C0F7B2291E5B200AC8C7C3B925 SWAP2 ADD JUMPDEST PUSH1 0x40 MLOAD DUP1 SWAP2 SUB SWAP1 LOG3 POP POP POP JUMP JUMPDEST PUSH1 0x0 PUSH2 0x800 DUP5 DUP5 PUSH2 0x62E JUMP JUMPDEST SWAP1 POP PUSH1 0x0 NOT DUP2 EQ PUSH2 0x868 JUMPI DUP2 DUP2 LT ISZERO PUSH2 0x85B JUMPI PUSH1 0x40 MLOAD PUSH3 0x461BCD PUSH1 0xE5 SHL DUP2 MSTORE PUSH1 0x20 PUSH1 0x4 DUP3 ADD MSTORE PUSH1 0x1D PUSH1 0x24 DUP3 ADD MSTORE PUSH32 0x45524332303A20696E73756666696369656E7420616C6C6F77616E6365000000 PUSH1 0x44 DUP3 ADD MSTORE PUSH1 0x64 ADD PUSH2 0x4A6 JUMP JUMPDEST PUSH2 0x868 DUP5 DUP5 DUP5 DUP5 SUB PUSH2 0x6CF JUMP JUMPDEST POP POP POP POP JUMP JUMPDEST PUSH1 0x1 PUSH1 0x1 PUSH1 0xA0 SHL SUB DUP4 AND PUSH2 0x8D2 JUMPI PUSH1 0x40 MLOAD PUSH3 0x461BCD PUSH1 0xE5 SHL DUP2 MSTORE PUSH1 0x20 PUSH1 0x4 DUP3 ADD MSTORE PUSH1 0x25 PUSH1 0x24 DUP3 ADD MSTORE PUSH32 0x45524332303A207472616E736665722066726F6D20746865207A65726F206164 PUSH1 0x44 DUP3 ADD MSTORE PUSH5 0x6472657373 PUSH1 0xD8 SHL PUSH1 0x64 DUP3 ADD MSTORE PUSH1 0x84 ADD PUSH2 0x4A6 JUMP JUMPDEST PUSH1 0x1 PUSH1 0x1 PUSH1 0xA0 SHL SUB DUP3 AND PUSH2 0x934 JUMPI PUSH1 0x40 MLOAD PUSH3 0x461BCD PUSH1 0xE5 SHL DUP2 MSTORE PUSH1 0x20 PUSH1 0x4 DUP3 ADD MSTORE PUSH1 0x23 PUSH1 0x24 DUP3 ADD MSTORE PUSH32 0x45524332303A207472616E7366657220746F20746865207A65726F2061646472 PUSH1 0x44 DUP3 ADD MSTORE PUSH3 0x657373 PUSH1 0xE8 SHL PUSH1 0x64 DUP3 ADD MSTORE PUSH1 0x84 ADD PUSH2 0x4A6 JUMP JUMPDEST PUSH1 0x1 PUSH1 0x1 PUSH1 0xA0 SHL SUB DUP4 AND PUSH1 0x0 SWAP1 DUP2 MSTORE PUSH1 0x20 DUP2 SWAP1 MSTORE PUSH1 0x40 SWAP1 KECCAK256 SLOAD DUP2 DUP2 LT ISZERO PUSH2 0x9AC JUMPI PUSH1 0x40 MLOAD PUSH3 0x461BCD PUSH1 0xE5 SHL DUP2 MSTORE PUSH1 0x20 PUSH1 0x4 DUP3 ADD MSTORE PUSH1 0x26 PUSH1 0x24 DUP3 ADD MSTORE PUSH32 0x45524332303A207472616E7366657220616D6F756E7420657863656564732062 PUSH1 0x44 DUP3 ADD MSTORE PUSH6 0x616C616E6365 PUSH1 0xD0 SHL PUSH1 0x64 DUP3 ADD MSTORE PUSH1 0x84 ADD PUSH2 0x4A6 JUMP JUMPDEST PUSH1 0x1 PUSH1 0x1 PUSH1 0xA0 SHL SUB DUP5 DUP2 AND PUSH1 0x0 DUP2 DUP2 MSTORE PUSH1 0x20 DUP2 DUP2 MSTORE PUSH1 0x40 DUP1 DUP4 KECCAK256 DUP8 DUP8 SUB SWAP1 SSTORE SWAP4 DUP8 AND DUP1 DUP4 MSTORE SWAP2 DUP5 SWAP1 KECCAK256 DUP1 SLOAD DUP8 ADD SWAP1 SSTORE SWAP3 MLOAD DUP6 DUP2 MSTORE SWAP1 SWAP3 PUSH32 0xDDF252AD1BE2C89B69C2B068FC378DAA952BA7F163C4A11628F55A4DF523B3EF SWAP2 ADD PUSH1 0x40 MLOAD DUP1 SWAP2 SUB SWAP1 LOG3 PUSH2 0x868 JUMP JUMPDEST PUSH1 0x0 ADDRESS PUSH1 0x1 PUSH1 0x1 PUSH1 0xA0 SHL SUB PUSH32 0x0 AND EQ DUP1 ISZERO PUSH2 0xA6B JUMPI POP PUSH32 0x0 CHAINID EQ JUMPDEST ISZERO PUSH2 0xA95 JUMPI POP PUSH32 0x0 SWAP1 JUMP JUMPDEST POP PUSH1 0x40 DUP1 MLOAD PUSH32 0x0 PUSH1 0x20 DUP1 DUP4 ADD SWAP2 SWAP1 SWAP2 MSTORE PUSH32 0x0 DUP3 DUP5 ADD MSTORE PUSH32 0x0 PUSH1 0x60 DUP4 ADD MSTORE CHAINID PUSH1 0x80 DUP4 ADD MSTORE ADDRESS PUSH1 0xA0 DUP1 DUP5 ADD SWAP2 SWAP1 SWAP2 MSTORE DUP4 MLOAD DUP1 DUP5 SUB SWAP1 SWAP2 ADD DUP2 MSTORE PUSH1 0xC0 SWAP1 SWAP3 ADD SWAP1 SWAP3 MSTORE DUP1 MLOAD SWAP2 ADD KECCAK256 SWAP1 JUMP JUMPDEST PUSH1 0x5 SLOAD PUSH1 0x1 PUSH1 0x1 PUSH1 0xA0 SHL SUB AND CALLER EQ PUSH2 0x3F8 JUMPI PUSH1 0x40 MLOAD PUSH3 0x461BCD PUSH1 0xE5 SHL DUP2 MSTORE PUSH1 0x20 PUSH1 0x4 DUP3 ADD DUP2 SWAP1 MSTORE PUSH1 0x24 DUP3 ADD MSTORE PUSH32 0x4F776E61626C653A2063616C6C6572206973206E6F7420746865206F776E6572 PUSH1 0x44 DUP3 ADD MSTORE PUSH1 0x64 ADD PUSH2 0x4A6 JUMP JUMPDEST PUSH1 0x1 PUSH1 0x1 PUSH1 0xA0 SHL SUB DUP3 AND PUSH2 0xBE9 JUMPI PUSH1 0x40 MLOAD PUSH3 0x461BCD PUSH1 0xE5 SHL DUP2 MSTORE PUSH1 0x20 PUSH1 0x4 DUP3 ADD MSTORE PUSH1 0x1F PUSH1 0x24 DUP3 ADD MSTORE PUSH32 0x45524332303A206D696E7420746F20746865207A65726F206164647265737300 PUSH1 0x44 DUP3 ADD MSTORE PUSH1 0x64 ADD PUSH2 0x4A6 JUMP JUMPDEST DUP1 PUSH1 0x2 PUSH1 0x0 DUP3 DUP3 SLOAD PUSH2 0xBFB SWAP2 SWAP1 PUSH2 0x125F JUMP JUMPDEST SWAP1 SWAP2 SSTORE POP POP PUSH1 0x1 PUSH1 0x1 PUSH1 0xA0 SHL SUB DUP3 AND PUSH1 0x0 DUP2 DUP2 MSTORE PUSH1 0x20 DUP2 DUP2 MSTORE PUSH1 0x40 DUP1 DUP4 KECCAK256 DUP1 SLOAD DUP7 ADD SWAP1 SSTORE MLOAD DUP5 DUP2 MSTORE PUSH32 0xDDF252AD1BE2C89B69C2B068FC378DAA952BA7F163C4A11628F55A4DF523B3EF SWAP2 ADD PUSH1 0x40 MLOAD DUP1 SWAP2 SUB SWAP1 LOG3 POP POP JUMP JUMPDEST PUSH1 0x1 PUSH1 0x1 PUSH1 0xA0 SHL SUB DUP3 AND PUSH2 0xCB2 JUMPI PUSH1 0x40 MLOAD PUSH3 0x461BCD PUSH1 0xE5 SHL DUP2 MSTORE PUSH1 0x20 PUSH1 0x4 DUP3 ADD MSTORE PUSH1 0x21 PUSH1 0x24 DUP3 ADD MSTORE PUSH32 0x45524332303A206275726E2066726F6D20746865207A65726F20616464726573 PUSH1 0x44 DUP3 ADD MSTORE PUSH1 0x73 PUSH1 0xF8 SHL PUSH1 0x64 DUP3 ADD MSTORE PUSH1 0x84 ADD PUSH2 0x4A6 JUMP JUMPDEST PUSH1 0x1 PUSH1 0x1 PUSH1 0xA0 SHL SUB DUP3 AND PUSH1 0x0 SWAP1 DUP2 MSTORE PUSH1 0x20 DUP2 SWAP1 MSTORE PUSH1 0x40 SWAP1 KECCAK256 SLOAD DUP2 DUP2 LT ISZERO PUSH2 0xD26 JUMPI PUSH1 0x40 MLOAD PUSH3 0x461BCD PUSH1 0xE5 SHL DUP2 MSTORE PUSH1 0x20 PUSH1 0x4 DUP3 ADD MSTORE PUSH1 0x22 PUSH1 0x24 DUP3 ADD MSTORE PUSH32 0x45524332303A206275726E20616D6F756E7420657863656564732062616C616E PUSH1 0x44 DUP3 ADD MSTORE PUSH2 0x6365 PUSH1 0xF0 SHL PUSH1 0x64 DUP3 ADD MSTORE PUSH1 0x84 ADD PUSH2 0x4A6 JUMP JUMPDEST PUSH1 0x1 PUSH1 0x1 PUSH1 0xA0 SHL SUB DUP4 AND PUSH1 0x0 DUP2 DUP2 MSTORE PUSH1 0x20 DUP2 DUP2 MSTORE PUSH1 0x40 DUP1 DUP4 KECCAK256 DUP7 DUP7 SUB SWAP1 SSTORE PUSH1 0x2 DUP1 SLOAD DUP8 SWAP1 SUB SWAP1 SSTORE MLOAD DUP6 DUP2 MSTORE SWAP2 SWAP3 SWAP2 PUSH32 0xDDF252AD1BE2C89B69C2B068FC378DAA952BA7F163C4A11628F55A4DF523B3EF SWAP2 ADD PUSH2 0x7E7 JUMP JUMPDEST PUSH1 0x5 DUP1 SLOAD PUSH1 0x1 PUSH1 0x1 PUSH1 0xA0 SHL SUB DUP4 DUP2 AND PUSH1 0x1 PUSH1 0x1 PUSH1 0xA0 SHL SUB NOT DUP4 AND DUP2 OR SWAP1 SWAP4 SSTORE PUSH1 0x40 MLOAD SWAP2 AND SWAP2 SWAP1 DUP3 SWAP1 PUSH32 0x8BE0079C531659141344CD1FD0A4F28419497F9722A3DAAFE3B4186F6B6457E0 SWAP1 PUSH1 0x0 SWAP1 LOG3 POP POP JUMP JUMPDEST PUSH1 0x1 PUSH1 0x1 PUSH1 0xA0 SHL SUB DUP2 AND PUSH1 0x0 SWAP1 DUP2 MSTORE PUSH1 0x6 PUSH1 0x20 MSTORE PUSH1 0x40 SWAP1 KECCAK256 DUP1 SLOAD PUSH1 0x1 DUP2 ADD DUP3 SSTORE SWAP1 JUMPDEST POP SWAP2 SWAP1 POP JUMP JUMPDEST PUSH1 0x0 PUSH2 0x368 PUSH2 0xE03 PUSH2 0xA12 JUMP JUMPDEST DUP4 PUSH1 0x40 MLOAD PUSH2 0x1901 PUSH1 0xF0 SHL PUSH1 0x20 DUP3 ADD MSTORE PUSH1 0x22 DUP2 ADD DUP4 SWAP1 MSTORE PUSH1 0x42 DUP2 ADD DUP3 SWAP1 MSTORE PUSH1 0x0 SWAP1 PUSH1 0x62 ADD PUSH1 0x40 MLOAD PUSH1 0x20 DUP2 DUP4 SUB SUB DUP2 MSTORE SWAP1 PUSH1 0x40 MSTORE DUP1 MLOAD SWAP1 PUSH1 0x20 ADD KECCAK256 SWAP1 POP SWAP3 SWAP2 POP POP JUMP JUMPDEST PUSH1 0x0 DUP1 PUSH1 0x0 PUSH2 0xE55 DUP8 DUP8 DUP8 DUP8 PUSH2 0xE6C JUMP JUMPDEST SWAP2 POP SWAP2 POP PUSH2 0xE62 DUP2 PUSH2 0xF30 JUMP JUMPDEST POP SWAP6 SWAP5 POP POP POP POP POP JUMP JUMPDEST PUSH1 0x0 DUP1 PUSH32 0x7FFFFFFFFFFFFFFFFFFFFFFFFFFFFFFF5D576E7357A4501DDFE92F46681B20A0 DUP4 GT ISZERO PUSH2 0xEA3 JUMPI POP PUSH1 0x0 SWAP1 POP PUSH1 0x3 PUSH2 0xF27 JUMP JUMPDEST PUSH1 0x40 DUP1 MLOAD PUSH1 0x0 DUP1 DUP3 MSTORE PUSH1 0x20 DUP3 ADD DUP1 DUP5 MSTORE DUP10 SWAP1 MSTORE PUSH1 0xFF DUP9 AND SWAP3 DUP3 ADD SWAP3 SWAP1 SWAP3 MSTORE PUSH1 0x60 DUP2 ADD DUP7 SWAP1 MSTORE PUSH1 0x80 DUP2 ADD DUP6 SWAP1 MSTORE PUSH1 0x1 SWAP1 PUSH1 0xA0 ADD PUSH1 0x20 PUSH1 0x40 MLOAD PUSH1 0x20 DUP2 SUB SWAP1 DUP1 DUP5 SUB SWAP1 DUP6 GAS STATICCALL ISZERO DUP1 ISZERO PUSH2 0xEF7 JUMPI RETURNDATASIZE PUSH1 0x0 DUP1 RETURNDATACOPY RETURNDATASIZE PUSH1 0x0 REVERT JUMPDEST POP POP PUSH1 0x40 MLOAD PUSH1 0x1F NOT ADD MLOAD SWAP2 POP POP PUSH1 0x1 PUSH1 0x1 PUSH1 0xA0 SHL SUB DUP2 AND PUSH2 0xF20 JUMPI PUSH1 0x0 PUSH1 0x1 SWAP3 POP SWAP3 POP POP PUSH2 0xF27 JUMP JUMPDEST SWAP2 POP PUSH1 0x0 SWAP1 POP JUMPDEST SWAP5 POP SWAP5 SWAP3 POP POP POP JUMP JUMPDEST PUSH1 0x0 DUP2 PUSH1 0x4 DUP2 GT ISZERO PUSH2 0xF44 JUMPI PUSH2 0xF44 PUSH2 0x1280 JUMP JUMPDEST SUB PUSH2 0xF4C JUMPI POP JUMP JUMPDEST PUSH1 0x1 DUP2 PUSH1 0x4 DUP2 GT ISZERO PUSH2 0xF60 JUMPI PUSH2 0xF60 PUSH2 0x1280 JUMP JUMPDEST SUB PUSH2 0xFAD JUMPI PUSH1 0x40 MLOAD PUSH3 0x461BCD PUSH1 0xE5 SHL DUP2 MSTORE PUSH1 0x20 PUSH1 0x4 DUP3 ADD MSTORE PUSH1 0x18 PUSH1 0x24 DUP3 ADD MSTORE PUSH32 0x45434453413A20696E76616C6964207369676E61747572650000000000000000 PUSH1 0x44 DUP3 ADD MSTORE PUSH1 0x64 ADD PUSH2 0x4A6 JUMP JUMPDEST PUSH1 0x2 DUP2 PUSH1 0x4 DUP2 GT ISZERO PUSH2 0xFC1 JUMPI PUSH2 0xFC1 PUSH2 0x1280 JUMP JUMPDEST SUB PUSH2 0x100E JUMPI PUSH1 0x40 MLOAD PUSH3 0x461BCD PUSH1 0xE5 SHL DUP2 MSTORE PUSH1 0x20 PUSH1 0x4 DUP3 ADD MSTORE PUSH1 0x1F PUSH1 0x24 DUP3 ADD MSTORE PUSH32 0x45434453413A20696E76616C6964207369676E6174757265206C656E67746800 PUSH1 0x44 DUP3 ADD MSTORE PUSH1 0x64 ADD PUSH2 0x4A6 JUMP JUMPDEST PUSH1 0x3 DUP2 PUSH1 0x4 DUP2 GT ISZERO PUSH2 0x1022 JUMPI PUSH2 0x1022 PUSH2 0x1280 JUMP JUMPDEST SUB PUSH2 0x3E3 JUMPI PUSH1 0x40 MLOAD PUSH3 0x461BCD PUSH1 0xE5 SHL DUP2 MSTORE PUSH1 0x20 PUSH1 0x4 DUP3 ADD MSTORE PUSH1 0x22 PUSH1 0x24 DUP3 ADD MSTORE PUSH32 0x45434453413A20696E76616C6964207369676E6174757265202773272076616C PUSH1 0x44 DUP3 ADD MSTORE PUSH2 0x7565 PUSH1 0xF0 SHL PUSH1 0x64 DUP3 ADD MSTORE PUSH1 0x84 ADD PUSH2 0x4A6 JUMP JUMPDEST PUSH1 0x0 PUSH1 0x20 DUP1 DUP4 MSTORE DUP4 MLOAD DUP1 DUP3 DUP6 ADD MSTORE PUSH1 0x0 JUMPDEST DUP2 DUP2 LT ISZERO PUSH2 0x10A7 JUMPI DUP6 DUP2 ADD DUP4 ADD MLOAD DUP6 DUP3 ADD PUSH1 0x40 ADD MSTORE DUP3 ADD PUSH2 0x108B JUMP JUMPDEST POP PUSH1 0x0 PUSH1 0x40 DUP3 DUP7 ADD ADD MSTORE PUSH1 0x40 PUSH1 0x1F NOT PUSH1 0x1F DUP4 ADD AND DUP6 ADD ADD SWAP3 POP POP POP SWAP3 SWAP2 POP POP JUMP JUMPDEST DUP1 CALLDATALOAD PUSH1 0x1 PUSH1 0x1 PUSH1 0xA0 SHL SUB DUP2 AND DUP2 EQ PUSH2 0x10DF JUMPI PUSH1 0x0 DUP1 REVERT JUMPDEST SWAP2 SWAP1 POP JUMP JUMPDEST PUSH1 0x0 DUP1 PUSH1 0x40 DUP4 DUP6 SUB SLT ISZERO PUSH2 0x10F7 JUMPI PUSH1 0x0 DUP1 REVERT JUMPDEST PUSH2 0x1100 DUP4 PUSH2 0x10C8 JUMP JUMPDEST SWAP5 PUSH1 0x20 SWAP4 SWAP1 SWAP4 ADD CALLDATALOAD SWAP4 POP POP POP JUMP JUMPDEST PUSH1 0x0 DUP1 PUSH1 0x0 PUSH1 0x60 DUP5 DUP7 SUB SLT ISZERO PUSH2 0x1123 JUMPI PUSH1 0x0 DUP1 REVERT JUMPDEST PUSH2 0x112C DUP5 PUSH2 0x10C8 JUMP JUMPDEST SWAP3 POP PUSH2 0x113A PUSH1 0x20 DUP6 ADD PUSH2 0x10C8 JUMP JUMPDEST SWAP2 POP PUSH1 0x40 DUP5 ADD CALLDATALOAD SWAP1 POP SWAP3 POP SWAP3 POP SWAP3 JUMP JUMPDEST PUSH1 0x0 PUSH1 0x20 DUP3 DUP5 SUB SLT ISZERO PUSH2 0x115C JUMPI PUSH1 0x0 DUP1 REVERT JUMPDEST POP CALLDATALOAD SWAP2 SWAP1 POP JUMP JUMPDEST PUSH1 0x0 PUSH1 0x20 DUP3 DUP5 SUB SLT ISZERO PUSH2 0x1175 JUMPI PUSH1 0x0 DUP1 REVERT JUMPDEST PUSH2 0x117E DUP3 PUSH2 0x10C8 JUMP JUMPDEST SWAP4 SWAP3 POP POP POP JUMP JUMPDEST PUSH1 0x0 DUP1 PUSH1 0x0 DUP1 PUSH1 0x0 DUP1 PUSH1 0x0 PUSH1 0xE0 DUP9 DUP11 SUB SLT ISZERO PUSH2 0x11A0 JUMPI PUSH1 0x0 DUP1 REVERT JUMPDEST PUSH2 0x11A9 DUP9 PUSH2 0x10C8 JUMP JUMPDEST SWAP7 POP PUSH2 0x11B7 PUSH1 0x20 DUP10 ADD PUSH2 0x10C8 JUMP JUMPDEST SWAP6 POP PUSH1 0x40 DUP9 ADD CALLDATALOAD SWAP5 POP PUSH1 0x60 DUP9 ADD CALLDATALOAD SWAP4 POP PUSH1 0x80 DUP9 ADD CALLDATALOAD PUSH1 0xFF DUP2 AND DUP2 EQ PUSH2 0x11DB JUMPI PUSH1 0x0 DUP1 REVERT JUMPDEST SWAP7 SWAP10 SWAP6 SWAP9 POP SWAP4 SWAP7 SWAP3 SWAP6 SWAP5 PUSH1 0xA0 DUP5 ADD CALLDATALOAD SWAP5 POP PUSH1 0xC0 SWAP1 SWAP4 ADD CALLDATALOAD SWAP3 SWAP2 POP POP JUMP JUMPDEST PUSH1 0x0 DUP1 PUSH1 0x40 DUP4 DUP6 SUB SLT ISZERO PUSH2 0x120B JUMPI PUSH1 0x0 DUP1 REVERT JUMPDEST PUSH2 0x1214 DUP4 PUSH2 0x10C8 JUMP JUMPDEST SWAP2 POP PUSH2 0x1222 PUSH1 0x20 DUP5 ADD PUSH2 0x10C8 JUMP JUMPDEST SWAP1 POP SWAP3 POP SWAP3 SWAP1 POP JUMP JUMPDEST PUSH1 0x1 DUP2 DUP2 SHR SWAP1 DUP3 AND DUP1 PUSH2 0x123F JUMPI PUSH1 0x7F DUP3 AND SWAP2 POP JUMPDEST PUSH1 0x20 DUP3 LT DUP2 SUB PUSH2 0xDF0 JUMPI PUSH4 0x4E487B71 PUSH1 0xE0 SHL PUSH1 0x0 MSTORE PUSH1 0x22 PUSH1 0x4 MSTORE PUSH1 0x24 PUSH1 0x0 REVERT JUMPDEST DUP1 DUP3 ADD DUP1 DUP3 GT ISZERO PUSH2 0x368 JUMPI PUSH4 0x4E487B71 PUSH1 0xE0 SHL PUSH1 0x0 MSTORE PUSH1 0x11 PUSH1 0x4 MSTORE PUSH1 0x24 PUSH1 0x0 REVERT JUMPDEST PUSH4 0x4E487B71 PUSH1 0xE0 SHL PUSH1 0x0 MSTORE PUSH1 0x21 PUSH1 0x4 MSTORE PUSH1 0x24 PUSH1 0x0 REVERT INVALID LOG2 PUSH5 0x6970667358 0x22 SLT KECCAK256 MLOAD 0xED JUMP MSTORE 0xBC MLOAD GT 0xCF DUP14 0xEA GASPRICE BALANCE GT EXP 0xC7 GAS 0xD7 CALLCODE SWAP13 DUP4 CALLER PUSH16 0x5D4558D8E1F32EB7AFDA64736F6C6343 STOP ADDMOD GT STOP CALLER "
				},
				"gasEstimates": {
					"creation": {
						"codeDepositCost": "962400",
						"executionCost": "infinite",
						"totalCost": "infinite"
					},
					"external": {
						"DOMAIN_SEPARATOR()": "infinite",
						"allowance(address,address)": "infinite",
						"approve(address,uint256)": "24652",
						"balanceOf(address)": "2651",
						"burn(uint256)": "50849",
						"burnFrom(address,uint256)": "infinite",
						"decimals()": "289",
						"decreaseAllowance(address,uint256)": "26973",
						"increaseAllowance(address,uint256)": "infinite",
						"mint(address,uint256)": "53036",
						"name()": "infinite",
						"nonces(address)": "2638",
						"owner()": "2390",
						"permit(address,address,uint256,uint256,uint8,bytes32,bytes32)": "infinite",
						"renounceOwnership()": "infinite",
						"symbol()": "infinite",
						"totalSupply()": "2349",
						"transfer(address,uint256)": "51094",
						"transferFrom(address,address,uint256)": "infinite",
						"transferOwnership(address)": "28446"
					}
				},
				"methodIdentifiers": {
					"DOMAIN_SEPARATOR()": "3644e515",
					"allowance(address,address)": "dd62ed3e",
					"approve(address,uint256)": "095ea7b3",
					"balanceOf(address)": "70a08231",
					"burn(uint256)": "42966c68",
					"burnFrom(address,uint256)": "79cc6790",
					"decimals()": "313ce567",
					"decreaseAllowance(address,uint256)": "a457c2d7",
					"increaseAllowance(address,uint256)": "39509351",
					"mint(address,uint256)": "40c10f19",
					"name()": "06fdde03",
					"nonces(address)": "7ecebe00",
					"owner()": "8da5cb5b",
					"permit(address,address,uint256,uint256,uint8,bytes32,bytes32)": "d505accf",
					"renounceOwnership()": "715018a6",
					"symbol()": "95d89b41",
					"totalSupply()": "18160ddd",
					"transfer(address,uint256)": "a9059cbb",
					"transferFrom(address,address,uint256)": "23b872dd",
					"transferOwnership(address)": "f2fde38b"
				}
			},
			"storageLayout": {
				"storage": [
					{
						"astId": 128,
						"contract": "Contracts/Variable_Token_Minter.sol:VariableToken",
						"label": "_balances",
						"offset": 0,
						"slot": "0",
						"type": "t_mapping(t_address,t_uint256)"
					},
					{
						"astId": 134,
						"contract": "Contracts/Variable_Token_Minter.sol:VariableToken",
						"label": "_allowances",
						"offset": 0,
						"slot": "1",
						"type": "t_mapping(t_address,t_mapping(t_address,t_uint256))"
					},
					{
						"astId": 136,
						"contract": "Contracts/Variable_Token_Minter.sol:VariableToken",
						"label": "_totalSupply",
						"offset": 0,
						"slot": "2",
						"type": "t_uint256"
					},
					{
						"astId": 138,
						"contract": "Contracts/Variable_Token_Minter.sol:VariableToken",
						"label": "_name",
						"offset": 0,
						"slot": "3",
						"type": "t_string_storage"
					},
					{
						"astId": 140,
						"contract": "Contracts/Variable_Token_Minter.sol:VariableToken",
						"label": "_symbol",
						"offset": 0,
						"slot": "4",
						"type": "t_string_storage"
					},
					{
						"astId": 7,
						"contract": "Contracts/Variable_Token_Minter.sol:VariableToken",
						"label": "_owner",
						"offset": 0,
						"slot": "5",
						"type": "t_address"
					},
					{
						"astId": 869,
						"contract": "Contracts/Variable_Token_Minter.sol:VariableToken",
						"label": "_nonces",
						"offset": 0,
						"slot": "6",
						"type": "t_mapping(t_address,t_struct(Counter)1082_storage)"
					},
					{
						"astId": 877,
						"contract": "Contracts/Variable_Token_Minter.sol:VariableToken",
						"label": "_PERMIT_TYPEHASH_DEPRECATED_SLOT",
						"offset": 0,
						"slot": "7",
						"type": "t_bytes32"
					}
				],
				"types": {
					"t_address": {
						"encoding": "inplace",
						"label": "address",
						"numberOfBytes": "20"
					},
					"t_bytes32": {
						"encoding": "inplace",
						"label": "bytes32",
						"numberOfBytes": "32"
					},
					"t_mapping(t_address,t_mapping(t_address,t_uint256))": {
						"encoding": "mapping",
						"key": "t_address",
						"label": "mapping(address => mapping(address => uint256))",
						"numberOfBytes": "32",
						"value": "t_mapping(t_address,t_uint256)"
					},
					"t_mapping(t_address,t_struct(Counter)1082_storage)": {
						"encoding": "mapping",
						"key": "t_address",
						"label": "mapping(address => struct Counters.Counter)",
						"numberOfBytes": "32",
						"value": "t_struct(Counter)1082_storage"
					},
					"t_mapping(t_address,t_uint256)": {
						"encoding": "mapping",
						"key": "t_address",
						"label": "mapping(address => uint256)",
						"numberOfBytes": "32",
						"value": "t_uint256"
					},
					"t_string_storage": {
						"encoding": "bytes",
						"label": "string",
						"numberOfBytes": "32"
					},
					"t_struct(Counter)1082_storage": {
						"encoding": "inplace",
						"label": "struct Counters.Counter",
						"members": [
							{
								"astId": 1081,
								"contract": "Contracts/Variable_Token_Minter.sol:VariableToken",
								"label": "_value",
								"offset": 0,
								"slot": "0",
								"type": "t_uint256"
							}
						],
						"numberOfBytes": "32"
					},
					"t_uint256": {
						"encoding": "inplace",
						"label": "uint256",
						"numberOfBytes": "32"
					}
				}
			},
			"userdoc": {
				"kind": "user",
				"methods": {},
				"version": 1
			}
		}
	}
}