{
	"Contracts/PaymentSplit.sol": {
		"PaymentSplit": {
			"abi": [
				{
					"inputs": [
						{
							"internalType": "address payable",
							"name": "_owner",
							"type": "address"
						}
					],
					"stateMutability": "nonpayable",
					"type": "constructor"
				},
				{
					"anonymous": false,
					"inputs": [
						{
							"indexed": false,
							"internalType": "address",
							"name": "_from",
							"type": "address"
						},
						{
							"indexed": false,
							"internalType": "uint256",
							"name": "_amount",
							"type": "uint256"
						}
					],
					"name": "FeePaid",
					"type": "event"
				},
				{
					"stateMutability": "payable",
					"type": "fallback"
				},
				{
					"inputs": [],
					"name": "FEE_BASE",
					"outputs": [
						{
							"internalType": "uint256",
							"name": "",
							"type": "uint256"
						}
					],
					"stateMutability": "view",
					"type": "function"
				},
				{
					"inputs": [
						{
							"internalType": "address",
							"name": "",
							"type": "address"
						}
					],
					"name": "_recipients",
					"outputs": [
						{
							"internalType": "uint256",
							"name": "",
							"type": "uint256"
						}
					],
					"stateMutability": "view",
					"type": "function"
				},
				{
					"inputs": [
						{
							"internalType": "address payable",
							"name": "_addrs",
							"type": "address"
						},
						{
							"internalType": "uint256",
							"name": "_amount",
							"type": "uint256"
						}
					],
					"name": "addRecipients",
					"outputs": [],
					"stateMutability": "nonpayable",
					"type": "function"
				},
				{
					"inputs": [
						{
							"internalType": "address payable",
							"name": "_addrs",
							"type": "address"
						}
					],
					"name": "getFeeByAddress",
					"outputs": [
						{
							"internalType": "uint256",
							"name": "fee",
							"type": "uint256"
						}
					],
					"stateMutability": "view",
					"type": "function"
				},
				{
					"inputs": [],
					"name": "getTotalFee",
					"outputs": [
						{
							"internalType": "uint256",
							"name": "totalFee",
							"type": "uint256"
						}
					],
					"stateMutability": "view",
					"type": "function"
				},
				{
					"inputs": [],
					"name": "owner",
					"outputs": [
						{
							"internalType": "address payable",
							"name": "",
							"type": "address"
						}
					],
					"stateMutability": "view",
					"type": "function"
				},
				{
					"inputs": [],
					"name": "paySplitFee",
					"outputs": [],
					"stateMutability": "nonpayable",
					"type": "function"
				},
				{
					"inputs": [
						{
							"internalType": "uint256",
							"name": "",
							"type": "uint256"
						}
					],
					"name": "recipients",
					"outputs": [
						{
							"internalType": "address payable",
							"name": "",
							"type": "address"
						}
					],
					"stateMutability": "view",
					"type": "function"
				},
				{
					"stateMutability": "payable",
					"type": "receive"
				}
			],
			"devdoc": {
				"kind": "dev",
				"methods": {},
				"version": 1
			},
			"evm": {
				"assembly": "    /* \"Contracts/PaymentSplit.sol\":61:2274  contract PaymentSplit{... */\n  mstore(0x40, 0x80)\n    /* \"Contracts/PaymentSplit.sol\":348:458  constructor(... */\n  callvalue\n  dup1\n  iszero\n  tag_1\n  jumpi\n  0x00\n  dup1\n  revert\ntag_1:\n  pop\n  mload(0x40)\n  sub(codesize, bytecodeSize)\n  dup1\n  bytecodeSize\n  dup4\n  codecopy\n  dup2\n  add\n  0x40\n  dup2\n  swap1\n  mstore\n  tag_2\n  swap2\n  tag_3\n  jump\t// in\ntag_2:\n    /* \"Contracts/PaymentSplit.sol\":431:436  owner */\n  0x00\n    /* \"Contracts/PaymentSplit.sol\":431:445  owner = _owner */\n  dup1\n  sload\n  not(sub(shl(0xa0, 0x01), 0x01))\n  and\n  sub(shl(0xa0, 0x01), 0x01)\n  swap3\n  swap1\n  swap3\n  and\n  swap2\n  swap1\n  swap2\n  or\n  swap1\n  sstore\n    /* \"Contracts/PaymentSplit.sol\":61:2274  contract PaymentSplit{... */\n  jump(tag_7)\n    /* \"#utility.yul\":14:312   */\ntag_3:\n    /* \"#utility.yul\":92:98   */\n  0x00\n    /* \"#utility.yul\":145:147   */\n  0x20\n    /* \"#utility.yul\":133:142   */\n  dup3\n    /* \"#utility.yul\":124:131   */\n  dup5\n    /* \"#utility.yul\":120:143   */\n  sub\n    /* \"#utility.yul\":116:148   */\n  slt\n    /* \"#utility.yul\":113:165   */\n  iszero\n  tag_9\n  jumpi\n    /* \"#utility.yul\":161:162   */\n  0x00\n    /* \"#utility.yul\":158:159   */\n  dup1\n    /* \"#utility.yul\":151:163   */\n  revert\n    /* \"#utility.yul\":113:165   */\ntag_9:\n    /* \"#utility.yul\":187:203   */\n  dup2\n  mload\n  sub(shl(0xa0, 0x01), 0x01)\n    /* \"#utility.yul\":232:263   */\n  dup2\n  and\n    /* \"#utility.yul\":222:264   */\n  dup2\n  eq\n    /* \"#utility.yul\":212:282   */\n  tag_10\n  jumpi\n    /* \"#utility.yul\":278:279   */\n  0x00\n    /* \"#utility.yul\":275:276   */\n  dup1\n    /* \"#utility.yul\":268:280   */\n  revert\n    /* \"#utility.yul\":212:282   */\ntag_10:\n    /* \"#utility.yul\":301:306   */\n  swap4\n    /* \"#utility.yul\":14:312   */\n  swap3\n  pop\n  pop\n  pop\n  jump\t// out\ntag_7:\n    /* \"Contracts/PaymentSplit.sol\":61:2274  contract PaymentSplit{... */\n  dataSize(sub_0)\n  dup1\n  dataOffset(sub_0)\n  0x00\n  codecopy\n  0x00\n  return\nstop\n\nsub_0: assembly {\n        /* \"Contracts/PaymentSplit.sol\":61:2274  contract PaymentSplit{... */\n      mstore(0x40, 0x80)\n      jumpi(tag_1, lt(calldatasize, 0x04))\n      shr(0xe0, calldataload(0x00))\n      dup1\n      0x8da5cb5b\n      gt\n      tag_11\n      jumpi\n      dup1\n      0x8da5cb5b\n      eq\n      tag_7\n      jumpi\n      dup1\n      0xd1bc76a1\n      eq\n      tag_8\n      jumpi\n      dup1\n      0xe59de500\n      eq\n      tag_9\n      jumpi\n      dup1\n      0xecefc705\n      eq\n      tag_10\n      jumpi\n      jump(tag_2)\n    tag_11:\n      dup1\n      0x3afe58af\n      eq\n      tag_3\n      jumpi\n      dup1\n      0x6a9df2b5\n      eq\n      tag_4\n      jumpi\n      dup1\n      0x7ae316d0\n      eq\n      tag_5\n      jumpi\n      dup1\n      0x8a0e72bb\n      eq\n      tag_6\n      jumpi\n      jump(tag_2)\n    tag_1:\n      jumpi(tag_2, calldatasize)\n        /* \"Contracts/PaymentSplit.sol\":528:533  owner */\n      and(sub(shl(0xa0, 0x01), 0x01), sload(0x00))\n        /* \"Contracts/PaymentSplit.sol\":514:524  msg.sender */\n      caller\n        /* \"Contracts/PaymentSplit.sol\":514:533  msg.sender == owner */\n      eq\n        /* \"Contracts/PaymentSplit.sol\":506:557  require(msg.sender == owner, \"Sender is not owner\") */\n      tag_14\n      jumpi\n      mload(0x40)\n      shl(0xe5, 0x461bcd)\n      dup2\n      mstore\n      0x04\n      add\n      tag_15\n      swap1\n      tag_16\n      jump\t// in\n    tag_15:\n      mload(0x40)\n      dup1\n      swap2\n      sub\n      swap1\n      revert\n    tag_14:\n        /* \"Contracts/PaymentSplit.sol\":61:2274  contract PaymentSplit{... */\n      stop\n    tag_2:\n        /* \"Contracts/PaymentSplit.sol\":528:533  owner */\n      and(sub(shl(0xa0, 0x01), 0x01), sload(0x00))\n        /* \"Contracts/PaymentSplit.sol\":514:524  msg.sender */\n      caller\n        /* \"Contracts/PaymentSplit.sol\":514:533  msg.sender == owner */\n      eq\n        /* \"Contracts/PaymentSplit.sol\":506:557  require(msg.sender == owner, \"Sender is not owner\") */\n      tag_14\n      jumpi\n      mload(0x40)\n      shl(0xe5, 0x461bcd)\n      dup2\n      mstore\n      0x04\n      add\n      tag_15\n      swap1\n      tag_16\n      jump\t// in\n        /* \"Contracts/PaymentSplit.sol\":605:792  function addRecipients(address payable _addrs , uint _amount)public onlyOwner{... */\n    tag_3:\n      callvalue\n      dup1\n      iszero\n      tag_23\n      jumpi\n      0x00\n      dup1\n      revert\n    tag_23:\n      pop\n      tag_14\n      tag_25\n      calldatasize\n      0x04\n      tag_26\n      jump\t// in\n    tag_25:\n      tag_27\n      jump\t// in\n        /* \"Contracts/PaymentSplit.sol\":1387:2033  function paySplitFee() public onlyOwner{... */\n    tag_4:\n      callvalue\n      dup1\n      iszero\n      tag_28\n      jumpi\n      0x00\n      dup1\n      revert\n    tag_28:\n      pop\n      tag_14\n      tag_30\n      jump\t// in\n        /* \"Contracts/PaymentSplit.sol\":962:1160  function getTotalFee() public view returns(uint totalFee){... */\n    tag_5:\n      callvalue\n      dup1\n      iszero\n      tag_31\n      jumpi\n      0x00\n      dup1\n      revert\n    tag_31:\n      pop\n      tag_32\n      tag_33\n      jump\t// in\n    tag_32:\n      mload(0x40)\n        /* \"#utility.yul\":988:1013   */\n      swap1\n      dup2\n      mstore\n        /* \"#utility.yul\":976:978   */\n      0x20\n        /* \"#utility.yul\":961:979   */\n      add\n        /* \"Contracts/PaymentSplit.sol\":962:1160  function getTotalFee() public view returns(uint totalFee){... */\n    tag_34:\n      mload(0x40)\n      dup1\n      swap2\n      sub\n      swap1\n      return\n        /* \"Contracts/PaymentSplit.sol\":812:942  function getFeeByAddress(address payable _addrs) public view returns(uint fee){... */\n    tag_6:\n      callvalue\n      dup1\n      iszero\n      tag_36\n      jumpi\n      0x00\n      dup1\n      revert\n    tag_36:\n      pop\n      tag_32\n      tag_38\n      calldatasize\n      0x04\n      tag_39\n      jump\t// in\n    tag_38:\n      sub(shl(0xa0, 0x01), 0x01)\n        /* \"Contracts/PaymentSplit.sol\":911:930  _recipients[_addrs] */\n      and\n        /* \"Contracts/PaymentSplit.sol\":881:889  uint fee */\n      0x00\n        /* \"Contracts/PaymentSplit.sol\":911:930  _recipients[_addrs] */\n      swap1\n      dup2\n      mstore\n        /* \"Contracts/PaymentSplit.sol\":911:922  _recipients */\n      0x01\n        /* \"Contracts/PaymentSplit.sol\":911:930  _recipients[_addrs] */\n      0x20\n      mstore\n      0x40\n      swap1\n      keccak256\n      sload\n      swap1\n        /* \"Contracts/PaymentSplit.sol\":812:942  function getFeeByAddress(address payable _addrs) public view returns(uint fee){... */\n      jump\n        /* \"Contracts/PaymentSplit.sol\":150:178  address payable public owner */\n    tag_7:\n      callvalue\n      dup1\n      iszero\n      tag_42\n      jumpi\n      0x00\n      dup1\n      revert\n    tag_42:\n      pop\n      sload(0x00)\n      tag_43\n      swap1\n      sub(shl(0xa0, 0x01), 0x01)\n      and\n      dup2\n      jump\n    tag_43:\n      mload(0x40)\n      sub(shl(0xa0, 0x01), 0x01)\n        /* \"#utility.yul\":1472:1504   */\n      swap1\n      swap2\n      and\n        /* \"#utility.yul\":1454:1505   */\n      dup2\n      mstore\n        /* \"#utility.yul\":1442:1444   */\n      0x20\n        /* \"#utility.yul\":1427:1445   */\n      add\n        /* \"Contracts/PaymentSplit.sol\":150:178  address payable public owner */\n      tag_34\n        /* \"#utility.yul\":1292:1511   */\n      jump\n        /* \"Contracts/PaymentSplit.sol\":243:279  address payable [] public recipients */\n    tag_8:\n      callvalue\n      dup1\n      iszero\n      tag_47\n      jumpi\n      0x00\n      dup1\n      revert\n    tag_47:\n      pop\n      tag_43\n      tag_49\n      calldatasize\n      0x04\n      tag_50\n      jump\t// in\n    tag_49:\n      tag_51\n      jump\t// in\n        /* \"Contracts/PaymentSplit.sol\":189:232  mapping(address => uint) public _recipients */\n    tag_9:\n      callvalue\n      dup1\n      iszero\n      tag_53\n      jumpi\n      0x00\n      dup1\n      revert\n    tag_53:\n      pop\n      tag_32\n      tag_55\n      calldatasize\n      0x04\n      tag_39\n      jump\t// in\n    tag_55:\n      mstore(0x20, 0x01)\n      0x00\n      swap1\n      dup2\n      mstore\n      0x40\n      swap1\n      keccak256\n      sload\n      dup2\n      jump\n        /* \"Contracts/PaymentSplit.sol\":290:327  uint public constant FEE_BASE = 10000 */\n    tag_10:\n      callvalue\n      dup1\n      iszero\n      tag_59\n      jumpi\n      0x00\n      dup1\n      revert\n    tag_59:\n      pop\n      tag_32\n        /* \"Contracts/PaymentSplit.sol\":322:327  10000 */\n      0x2710\n        /* \"Contracts/PaymentSplit.sol\":290:327  uint public constant FEE_BASE = 10000 */\n      dup2\n      jump\n        /* \"Contracts/PaymentSplit.sol\":605:792  function addRecipients(address payable _addrs , uint _amount)public onlyOwner{... */\n    tag_27:\n        /* \"Contracts/PaymentSplit.sol\":528:533  owner */\n      and(sub(shl(0xa0, 0x01), 0x01), sload(0x00))\n        /* \"Contracts/PaymentSplit.sol\":514:524  msg.sender */\n      caller\n        /* \"Contracts/PaymentSplit.sol\":514:533  msg.sender == owner */\n      eq\n        /* \"Contracts/PaymentSplit.sol\":506:557  require(msg.sender == owner, \"Sender is not owner\") */\n      tag_64\n      jumpi\n      mload(0x40)\n      shl(0xe5, 0x461bcd)\n      dup2\n      mstore\n      0x04\n      add\n      tag_15\n      swap1\n      tag_16\n      jump\t// in\n    tag_64:\n      sub(shl(0xa0, 0x01), 0x01)\n        /* \"Contracts/PaymentSplit.sol\":711:730  _recipients[_addrs] */\n      swap1\n      swap2\n      and\n      0x00\n      dup2\n      dup2\n      mstore\n        /* \"Contracts/PaymentSplit.sol\":711:722  _recipients */\n      0x01\n        /* \"Contracts/PaymentSplit.sol\":711:730  _recipients[_addrs] */\n      0x20\n      dup2\n      swap1\n      mstore\n      0x40\n      dup3\n      keccak256\n        /* \"Contracts/PaymentSplit.sol\":711:740  _recipients[_addrs] = _amount */\n      swap4\n      swap1\n      swap4\n      sstore\n        /* \"Contracts/PaymentSplit.sol\":755:765  recipients */\n      0x02\n        /* \"Contracts/PaymentSplit.sol\":755:778  recipients.push(_addrs) */\n      dup1\n      sload\n      swap4\n      dup5\n      add\n      dup2\n      sstore\n      swap1\n      mstore\n      0x405787fa12a823e0f2b7631cc41b3ba8828b3321ca811111fa75cd3aa3bb5ace\n      swap1\n      swap2\n      add\n      dup1\n      sload\n      not(sub(shl(0xa0, 0x01), 0x01))\n      and\n      swap1\n      swap2\n      or\n      swap1\n      sstore\n        /* \"Contracts/PaymentSplit.sol\":605:792  function addRecipients(address payable _addrs , uint _amount)public onlyOwner{... */\n      jump\t// out\n        /* \"Contracts/PaymentSplit.sol\":1387:2033  function paySplitFee() public onlyOwner{... */\n    tag_30:\n        /* \"Contracts/PaymentSplit.sol\":528:533  owner */\n      and(sub(shl(0xa0, 0x01), 0x01), sload(0x00))\n        /* \"Contracts/PaymentSplit.sol\":514:524  msg.sender */\n      caller\n        /* \"Contracts/PaymentSplit.sol\":514:533  msg.sender == owner */\n      eq\n        /* \"Contracts/PaymentSplit.sol\":506:557  require(msg.sender == owner, \"Sender is not owner\") */\n      tag_69\n      jumpi\n      mload(0x40)\n      shl(0xe5, 0x461bcd)\n      dup2\n      mstore\n      0x04\n      add\n      tag_15\n      swap1\n      tag_16\n      jump\t// in\n    tag_69:\n        /* \"Contracts/PaymentSplit.sol\":1449:1470  address(this).balance */\n      selfbalance\n        /* \"Contracts/PaymentSplit.sol\":1474:1475  0 */\n      0x00\n        /* \"Contracts/PaymentSplit.sol\":1449:1475  address(this).balance != 0 */\n      sub\n        /* \"Contracts/PaymentSplit.sol\":1441:1495  require(address(this).balance != 0, \"Not enugh funds\") */\n      tag_72\n      jumpi\n      mload(0x40)\n      shl(0xe5, 0x461bcd)\n      dup2\n      mstore\n        /* \"#utility.yul\":2163:2165   */\n      0x20\n        /* \"Contracts/PaymentSplit.sol\":1441:1495  require(address(this).balance != 0, \"Not enugh funds\") */\n      0x04\n      dup3\n      add\n        /* \"#utility.yul\":2145:2166   */\n      mstore\n        /* \"#utility.yul\":2202:2204   */\n      0x0f\n        /* \"#utility.yul\":2182:2200   */\n      0x24\n      dup3\n      add\n        /* \"#utility.yul\":2175:2205   */\n      mstore\n      shl(0x88, 0x4e6f7420656e7567682066756e6473)\n        /* \"#utility.yul\":2221:2239   */\n      0x44\n      dup3\n      add\n        /* \"#utility.yul\":2214:2259   */\n      mstore\n        /* \"#utility.yul\":2276:2294   */\n      0x64\n      add\n        /* \"Contracts/PaymentSplit.sol\":1441:1495  require(address(this).balance != 0, \"Not enugh funds\") */\n      tag_15\n        /* \"#utility.yul\":1961:2300   */\n      jump\n        /* \"Contracts/PaymentSplit.sol\":1441:1495  require(address(this).balance != 0, \"Not enugh funds\") */\n    tag_72:\n        /* \"Contracts/PaymentSplit.sol\":322:327  10000 */\n      0x2710\n        /* \"Contracts/PaymentSplit.sol\":1518:1532  _getTotalFee() */\n      tag_75\n        /* \"Contracts/PaymentSplit.sol\":1518:1530  _getTotalFee */\n      tag_76\n        /* \"Contracts/PaymentSplit.sol\":1518:1532  _getTotalFee() */\n      jump\t// in\n    tag_75:\n        /* \"Contracts/PaymentSplit.sol\":1518:1544  _getTotalFee() == FEE_BASE */\n      eq\n        /* \"Contracts/PaymentSplit.sol\":1510:1575  require(_getTotalFee() == FEE_BASE, \"Payment not split entirely\") */\n      tag_77\n      jumpi\n      mload(0x40)\n      shl(0xe5, 0x461bcd)\n      dup2\n      mstore\n        /* \"#utility.yul\":2507:2509   */\n      0x20\n        /* \"Contracts/PaymentSplit.sol\":1510:1575  require(_getTotalFee() == FEE_BASE, \"Payment not split entirely\") */\n      0x04\n      dup3\n      add\n        /* \"#utility.yul\":2489:2510   */\n      mstore\n        /* \"#utility.yul\":2546:2548   */\n      0x1a\n        /* \"#utility.yul\":2526:2544   */\n      0x24\n      dup3\n      add\n        /* \"#utility.yul\":2519:2549   */\n      mstore\n        /* \"#utility.yul\":2585:2613   */\n      0x5061796d656e74206e6f742073706c697420656e746972656c79000000000000\n        /* \"#utility.yul\":2565:2583   */\n      0x44\n      dup3\n      add\n        /* \"#utility.yul\":2558:2614   */\n      mstore\n        /* \"#utility.yul\":2631:2649   */\n      0x64\n      add\n        /* \"Contracts/PaymentSplit.sol\":1510:1575  require(_getTotalFee() == FEE_BASE, \"Payment not split entirely\") */\n      tag_15\n        /* \"#utility.yul\":2305:2655   */\n      jump\n        /* \"Contracts/PaymentSplit.sol\":1510:1575  require(_getTotalFee() == FEE_BASE, \"Payment not split entirely\") */\n    tag_77:\n        /* \"Contracts/PaymentSplit.sol\":1592:1605  uint256 share */\n      0x00\n        /* \"Contracts/PaymentSplit.sol\":1651:1657  uint i */\n      dup1\n        /* \"Contracts/PaymentSplit.sol\":1647:2005  for(uint i=0; i < recipients.length; i++){... */\n    tag_80:\n        /* \"Contracts/PaymentSplit.sol\":1665:1675  recipients */\n      0x02\n        /* \"Contracts/PaymentSplit.sol\":1665:1682  recipients.length */\n      sload\n        /* \"Contracts/PaymentSplit.sol\":1661:1682  i < recipients.length */\n      dup2\n      lt\n        /* \"Contracts/PaymentSplit.sol\":1647:2005  for(uint i=0; i < recipients.length; i++){... */\n      iszero\n      tag_81\n      jumpi\n        /* \"Contracts/PaymentSplit.sol\":1751:1762  _recipients */\n      0x01\n        /* \"Contracts/PaymentSplit.sol\":1751:1777  _recipients[recipients[i]] */\n      0x00\n        /* \"Contracts/PaymentSplit.sol\":1763:1773  recipients */\n      0x02\n        /* \"Contracts/PaymentSplit.sol\":1774:1775  i */\n      dup4\n        /* \"Contracts/PaymentSplit.sol\":1763:1776  recipients[i] */\n      dup2\n      sload\n      dup2\n      lt\n      tag_84\n      jumpi\n      tag_84\n      tag_85\n      jump\t// in\n    tag_84:\n      0x00\n      swap2\n      dup3\n      mstore\n      0x20\n      dup1\n      dup4\n      keccak256\n      swap1\n      swap2\n      add\n      sload\n      sub(shl(0xa0, 0x01), 0x01)\n      and\n        /* \"Contracts/PaymentSplit.sol\":1751:1777  _recipients[recipients[i]] */\n      dup4\n      mstore\n      dup3\n      add\n      swap3\n      swap1\n      swap3\n      mstore\n      0x40\n      add\n      swap1\n      keccak256\n      sload\n        /* \"Contracts/PaymentSplit.sol\":1716:1747  address(this).balance/ FEE_BASE */\n      tag_87\n        /* \"Contracts/PaymentSplit.sol\":322:327  10000 */\n      0x2710\n        /* \"Contracts/PaymentSplit.sol\":1716:1737  address(this).balance */\n      selfbalance\n        /* \"Contracts/PaymentSplit.sol\":1716:1747  address(this).balance/ FEE_BASE */\n      tag_88\n      jump\t// in\n    tag_87:\n        /* \"Contracts/PaymentSplit.sol\":1715:1777  (address(this).balance/ FEE_BASE) * _recipients[recipients[i]] */\n      tag_89\n      swap2\n      swap1\n      tag_90\n      jump\t// in\n    tag_89:\n        /* \"Contracts/PaymentSplit.sol\":1707:1777  share = (address(this).balance/ FEE_BASE) * _recipients[recipients[i]] */\n      swap2\n      pop\n        /* \"Contracts/PaymentSplit.sol\":1797:1816  bool callSuccessFee */\n      0x00\n        /* \"Contracts/PaymentSplit.sol\":1830:1840  recipients */\n      0x02\n        /* \"Contracts/PaymentSplit.sol\":1841:1842  i */\n      dup3\n        /* \"Contracts/PaymentSplit.sol\":1830:1843  recipients[i] */\n      dup2\n      sload\n      dup2\n      lt\n      tag_92\n      jumpi\n      tag_92\n      tag_85\n      jump\t// in\n    tag_92:\n      0x00\n      swap2\n      dup3\n      mstore\n      0x20\n      dup3\n      keccak256\n      add\n      sload\n        /* \"Contracts/PaymentSplit.sol\":1822:1867  payable(recipients[i]).call{value: share}(\"\") */\n      mload(0x40)\n      sub(shl(0xa0, 0x01), 0x01)\n        /* \"Contracts/PaymentSplit.sol\":1830:1843  recipients[i] */\n      swap1\n      swap2\n      and\n      swap2\n        /* \"Contracts/PaymentSplit.sol\":1857:1862  share */\n      dup6\n      swap2\n        /* \"Contracts/PaymentSplit.sol\":1822:1867  payable(recipients[i]).call{value: share}(\"\") */\n      swap1\n      dup2\n        /* \"Contracts/PaymentSplit.sol\":1830:1843  recipients[i] */\n      dup2\n        /* \"Contracts/PaymentSplit.sol\":1822:1867  payable(recipients[i]).call{value: share}(\"\") */\n      dup2\n        /* \"Contracts/PaymentSplit.sol\":1857:1862  share */\n      dup6\n        /* \"Contracts/PaymentSplit.sol\":1830:1843  recipients[i] */\n      dup8\n        /* \"Contracts/PaymentSplit.sol\":1822:1867  payable(recipients[i]).call{value: share}(\"\") */\n      gas\n      call\n      swap3\n      pop\n      pop\n      pop\n      returndatasize\n      dup1\n      0x00\n      dup2\n      eq\n      tag_98\n      jumpi\n      mload(0x40)\n      swap2\n      pop\n      and(add(returndatasize, 0x3f), not(0x1f))\n      dup3\n      add\n      0x40\n      mstore\n      returndatasize\n      dup3\n      mstore\n      returndatasize\n      0x00\n      0x20\n      dup5\n      add\n      returndatacopy\n      jump(tag_97)\n    tag_98:\n      0x60\n      swap2\n      pop\n    tag_97:\n      pop\n        /* \"Contracts/PaymentSplit.sol\":1796:1867  (bool callSuccessFee, ) = payable(recipients[i]).call{value: share}(\"\") */\n      pop\n      swap1\n      pop\n        /* \"Contracts/PaymentSplit.sol\":1894:1908  callSuccessFee */\n      dup1\n        /* \"Contracts/PaymentSplit.sol\":1886:1936  require(callSuccessFee, \"Return fee funds failed\") */\n      tag_99\n      jumpi\n      mload(0x40)\n      shl(0xe5, 0x461bcd)\n      dup2\n      mstore\n        /* \"#utility.yul\":3731:3733   */\n      0x20\n        /* \"Contracts/PaymentSplit.sol\":1886:1936  require(callSuccessFee, \"Return fee funds failed\") */\n      0x04\n      dup3\n      add\n        /* \"#utility.yul\":3713:3734   */\n      mstore\n        /* \"#utility.yul\":3770:3772   */\n      0x17\n        /* \"#utility.yul\":3750:3768   */\n      0x24\n      dup3\n      add\n        /* \"#utility.yul\":3743:3773   */\n      mstore\n        /* \"#utility.yul\":3809:3834   */\n      0x52657475726e206665652066756e6473206661696c6564000000000000000000\n        /* \"#utility.yul\":3789:3807   */\n      0x44\n      dup3\n      add\n        /* \"#utility.yul\":3782:3835   */\n      mstore\n        /* \"#utility.yul\":3852:3870   */\n      0x64\n      add\n        /* \"Contracts/PaymentSplit.sol\":1886:1936  require(callSuccessFee, \"Return fee funds failed\") */\n      tag_15\n        /* \"#utility.yul\":3529:3876   */\n      jump\n        /* \"Contracts/PaymentSplit.sol\":1886:1936  require(callSuccessFee, \"Return fee funds failed\") */\n    tag_99:\n        /* \"Contracts/PaymentSplit.sol\":1960:1989  FeePaid(recipients[i], share) */\n      0x075a2720282fdf622141dae0b048ef90a21a7e57c134c76912d19d006b3b3f6f\n        /* \"Contracts/PaymentSplit.sol\":1968:1978  recipients */\n      0x02\n        /* \"Contracts/PaymentSplit.sol\":1979:1980  i */\n      dup4\n        /* \"Contracts/PaymentSplit.sol\":1968:1981  recipients[i] */\n      dup2\n      sload\n      dup2\n      lt\n      tag_103\n      jumpi\n      tag_103\n      tag_85\n      jump\t// in\n    tag_103:\n      0x00\n      swap2\n      dup3\n      mstore\n      0x20\n      swap2\n      dup3\n      swap1\n      keccak256\n      add\n      sload\n        /* \"Contracts/PaymentSplit.sol\":1960:1989  FeePaid(recipients[i], share) */\n      0x40\n      dup1\n      mload\n      sub(shl(0xa0, 0x01), 0x01)\n        /* \"Contracts/PaymentSplit.sol\":1968:1981  recipients[i] */\n      swap1\n      swap3\n      and\n        /* \"#utility.yul\":4063:4114   */\n      dup3\n      mstore\n        /* \"#utility.yul\":4130:4148   */\n      swap2\n      dup2\n      add\n        /* \"#utility.yul\":4123:4157   */\n      dup7\n      swap1\n      mstore\n        /* \"#utility.yul\":4036:4054   */\n      add\n        /* \"Contracts/PaymentSplit.sol\":1960:1989  FeePaid(recipients[i], share) */\n      mload(0x40)\n      dup1\n      swap2\n      sub\n      swap1\n      log1\n      pop\n        /* \"Contracts/PaymentSplit.sol\":1684:1687  i++ */\n      dup1\n      tag_107\n      dup2\n      tag_108\n      jump\t// in\n    tag_107:\n      swap2\n      pop\n      pop\n        /* \"Contracts/PaymentSplit.sol\":1647:2005  for(uint i=0; i < recipients.length; i++){... */\n      jump(tag_80)\n    tag_81:\n      pop\n        /* \"Contracts/PaymentSplit.sol\":1426:2033  {... */\n      pop\n        /* \"Contracts/PaymentSplit.sol\":1387:2033  function paySplitFee() public onlyOwner{... */\n      jump\t// out\n        /* \"Contracts/PaymentSplit.sol\":962:1160  function getTotalFee() public view returns(uint totalFee){... */\n    tag_33:\n        /* \"Contracts/PaymentSplit.sol\":1005:1018  uint totalFee */\n      0x00\n      dup1\n        /* \"Contracts/PaymentSplit.sol\":1034:1148  for(uint i=0; i < recipients.length; i++){... */\n    tag_110:\n        /* \"Contracts/PaymentSplit.sol\":1052:1062  recipients */\n      0x02\n        /* \"Contracts/PaymentSplit.sol\":1052:1069  recipients.length */\n      sload\n        /* \"Contracts/PaymentSplit.sol\":1048:1069  i < recipients.length */\n      dup2\n      lt\n        /* \"Contracts/PaymentSplit.sol\":1034:1148  for(uint i=0; i < recipients.length; i++){... */\n      iszero\n      tag_111\n      jumpi\n        /* \"Contracts/PaymentSplit.sol\":1106:1117  _recipients */\n      0x01\n        /* \"Contracts/PaymentSplit.sol\":1106:1132  _recipients[recipients[i]] */\n      0x00\n        /* \"Contracts/PaymentSplit.sol\":1118:1128  recipients */\n      0x02\n        /* \"Contracts/PaymentSplit.sol\":1129:1130  i */\n      dup4\n        /* \"Contracts/PaymentSplit.sol\":1118:1131  recipients[i] */\n      dup2\n      sload\n      dup2\n      lt\n      tag_114\n      jumpi\n      tag_114\n      tag_85\n      jump\t// in\n    tag_114:\n      0x00\n      swap2\n      dup3\n      mstore\n      0x20\n      dup1\n      dup4\n      keccak256\n      swap1\n      swap2\n      add\n      sload\n      sub(shl(0xa0, 0x01), 0x01)\n      and\n        /* \"Contracts/PaymentSplit.sol\":1106:1132  _recipients[recipients[i]] */\n      dup4\n      mstore\n      dup3\n      add\n      swap3\n      swap1\n      swap3\n      mstore\n      0x40\n      add\n      swap1\n      keccak256\n      sload\n        /* \"Contracts/PaymentSplit.sol\":1094:1132  totalFee += _recipients[recipients[i]] */\n      tag_116\n      swap1\n      dup4\n      tag_117\n      jump\t// in\n    tag_116:\n      swap2\n      pop\n        /* \"Contracts/PaymentSplit.sol\":1071:1074  i++ */\n      dup1\n      tag_118\n      dup2\n      tag_108\n      jump\t// in\n    tag_118:\n      swap2\n      pop\n      pop\n        /* \"Contracts/PaymentSplit.sol\":1034:1148  for(uint i=0; i < recipients.length; i++){... */\n      jump(tag_110)\n    tag_111:\n      pop\n        /* \"Contracts/PaymentSplit.sol\":962:1160  function getTotalFee() public view returns(uint totalFee){... */\n      swap1\n      jump\t// out\n        /* \"Contracts/PaymentSplit.sol\":243:279  address payable [] public recipients */\n    tag_51:\n      0x02\n      dup2\n      dup2\n      sload\n      dup2\n      lt\n      tag_120\n      jumpi\n      0x00\n      dup1\n      revert\n    tag_120:\n      0x00\n      swap2\n      dup3\n      mstore\n      0x20\n      swap1\n      swap2\n      keccak256\n      add\n      sload\n      sub(shl(0xa0, 0x01), 0x01)\n      and\n      swap1\n      pop\n      dup2\n      jump\t// out\n        /* \"Contracts/PaymentSplit.sol\":1174:1375  function _getTotalFee() internal view returns(uint totalFee){... */\n    tag_76:\n        /* \"Contracts/PaymentSplit.sol\":1220:1233  uint totalFee */\n      0x00\n      dup1\n        /* \"Contracts/PaymentSplit.sol\":1249:1363  for(uint i=0; i < recipients.length; i++){... */\n    tag_123:\n        /* \"Contracts/PaymentSplit.sol\":1267:1277  recipients */\n      0x02\n        /* \"Contracts/PaymentSplit.sol\":1267:1284  recipients.length */\n      sload\n        /* \"Contracts/PaymentSplit.sol\":1263:1284  i < recipients.length */\n      dup2\n      lt\n        /* \"Contracts/PaymentSplit.sol\":1249:1363  for(uint i=0; i < recipients.length; i++){... */\n      iszero\n      tag_111\n      jumpi\n        /* \"Contracts/PaymentSplit.sol\":1321:1332  _recipients */\n      0x01\n        /* \"Contracts/PaymentSplit.sol\":1321:1347  _recipients[recipients[i]] */\n      0x00\n        /* \"Contracts/PaymentSplit.sol\":1333:1343  recipients */\n      0x02\n        /* \"Contracts/PaymentSplit.sol\":1344:1345  i */\n      dup4\n        /* \"Contracts/PaymentSplit.sol\":1333:1346  recipients[i] */\n      dup2\n      sload\n      dup2\n      lt\n      tag_127\n      jumpi\n      tag_127\n      tag_85\n      jump\t// in\n    tag_127:\n      0x00\n      swap2\n      dup3\n      mstore\n      0x20\n      dup1\n      dup4\n      keccak256\n      swap1\n      swap2\n      add\n      sload\n      sub(shl(0xa0, 0x01), 0x01)\n      and\n        /* \"Contracts/PaymentSplit.sol\":1321:1347  _recipients[recipients[i]] */\n      dup4\n      mstore\n      dup3\n      add\n      swap3\n      swap1\n      swap3\n      mstore\n      0x40\n      add\n      swap1\n      keccak256\n      sload\n        /* \"Contracts/PaymentSplit.sol\":1309:1347  totalFee += _recipients[recipients[i]] */\n      tag_129\n      swap1\n      dup4\n      tag_117\n      jump\t// in\n    tag_129:\n      swap2\n      pop\n        /* \"Contracts/PaymentSplit.sol\":1286:1289  i++ */\n      dup1\n      tag_130\n      dup2\n      tag_108\n      jump\t// in\n    tag_130:\n      swap2\n      pop\n      pop\n        /* \"Contracts/PaymentSplit.sol\":1249:1363  for(uint i=0; i < recipients.length; i++){... */\n      jump(tag_123)\n        /* \"#utility.yul\":14:357   */\n    tag_16:\n        /* \"#utility.yul\":216:218   */\n      0x20\n        /* \"#utility.yul\":198:219   */\n      dup1\n      dup3\n      mstore\n        /* \"#utility.yul\":255:257   */\n      0x13\n        /* \"#utility.yul\":235:253   */\n      swap1\n      dup3\n      add\n        /* \"#utility.yul\":228:258   */\n      mstore\n      shl(0x69, 0x29b2b73232b91034b9903737ba1037bbb732b9)\n        /* \"#utility.yul\":289:291   */\n      0x40\n        /* \"#utility.yul\":274:292   */\n      dup3\n      add\n        /* \"#utility.yul\":267:316   */\n      mstore\n        /* \"#utility.yul\":348:350   */\n      0x60\n        /* \"#utility.yul\":333:351   */\n      add\n      swap1\n        /* \"#utility.yul\":14:357   */\n      jump\t// out\n        /* \"#utility.yul\":362:501   */\n    tag_131:\n      sub(shl(0xa0, 0x01), 0x01)\n        /* \"#utility.yul\":445:476   */\n      dup2\n      and\n        /* \"#utility.yul\":435:477   */\n      dup2\n      eq\n        /* \"#utility.yul\":425:495   */\n      tag_136\n      jumpi\n        /* \"#utility.yul\":491:492   */\n      0x00\n        /* \"#utility.yul\":488:489   */\n      dup1\n        /* \"#utility.yul\":481:493   */\n      revert\n        /* \"#utility.yul\":425:495   */\n    tag_136:\n        /* \"#utility.yul\":362:501   */\n      pop\n      jump\t// out\n        /* \"#utility.yul\":506:837   */\n    tag_26:\n        /* \"#utility.yul\":582:588   */\n      0x00\n        /* \"#utility.yul\":590:596   */\n      dup1\n        /* \"#utility.yul\":643:645   */\n      0x40\n        /* \"#utility.yul\":631:640   */\n      dup4\n        /* \"#utility.yul\":622:629   */\n      dup6\n        /* \"#utility.yul\":618:641   */\n      sub\n        /* \"#utility.yul\":614:646   */\n      slt\n        /* \"#utility.yul\":611:663   */\n      iszero\n      tag_138\n      jumpi\n        /* \"#utility.yul\":659:660   */\n      0x00\n        /* \"#utility.yul\":656:657   */\n      dup1\n        /* \"#utility.yul\":649:661   */\n      revert\n        /* \"#utility.yul\":611:663   */\n    tag_138:\n        /* \"#utility.yul\":698:707   */\n      dup3\n        /* \"#utility.yul\":685:708   */\n      calldataload\n        /* \"#utility.yul\":717:756   */\n      tag_139\n        /* \"#utility.yul\":750:755   */\n      dup2\n        /* \"#utility.yul\":717:756   */\n      tag_131\n      jump\t// in\n    tag_139:\n        /* \"#utility.yul\":775:780   */\n      swap5\n        /* \"#utility.yul\":827:829   */\n      0x20\n        /* \"#utility.yul\":812:830   */\n      swap4\n      swap1\n      swap4\n      add\n        /* \"#utility.yul\":799:831   */\n      calldataload\n      swap4\n      pop\n      pop\n      pop\n        /* \"#utility.yul\":506:837   */\n      jump\t// out\n        /* \"#utility.yul\":1024:1287   */\n    tag_39:\n        /* \"#utility.yul\":1091:1097   */\n      0x00\n        /* \"#utility.yul\":1144:1146   */\n      0x20\n        /* \"#utility.yul\":1132:1141   */\n      dup3\n        /* \"#utility.yul\":1123:1130   */\n      dup5\n        /* \"#utility.yul\":1119:1142   */\n      sub\n        /* \"#utility.yul\":1115:1147   */\n      slt\n        /* \"#utility.yul\":1112:1164   */\n      iszero\n      tag_142\n      jumpi\n        /* \"#utility.yul\":1160:1161   */\n      0x00\n        /* \"#utility.yul\":1157:1158   */\n      dup1\n        /* \"#utility.yul\":1150:1162   */\n      revert\n        /* \"#utility.yul\":1112:1164   */\n    tag_142:\n        /* \"#utility.yul\":1199:1208   */\n      dup2\n        /* \"#utility.yul\":1186:1209   */\n      calldataload\n        /* \"#utility.yul\":1218:1257   */\n      tag_143\n        /* \"#utility.yul\":1251:1256   */\n      dup2\n        /* \"#utility.yul\":1218:1257   */\n      tag_131\n      jump\t// in\n    tag_143:\n        /* \"#utility.yul\":1276:1281   */\n      swap4\n        /* \"#utility.yul\":1024:1287   */\n      swap3\n      pop\n      pop\n      pop\n      jump\t// out\n        /* \"#utility.yul\":1516:1696   */\n    tag_50:\n        /* \"#utility.yul\":1575:1581   */\n      0x00\n        /* \"#utility.yul\":1628:1630   */\n      0x20\n        /* \"#utility.yul\":1616:1625   */\n      dup3\n        /* \"#utility.yul\":1607:1614   */\n      dup5\n        /* \"#utility.yul\":1603:1626   */\n      sub\n        /* \"#utility.yul\":1599:1631   */\n      slt\n        /* \"#utility.yul\":1596:1648   */\n      iszero\n      tag_146\n      jumpi\n        /* \"#utility.yul\":1644:1645   */\n      0x00\n        /* \"#utility.yul\":1641:1642   */\n      dup1\n        /* \"#utility.yul\":1634:1646   */\n      revert\n        /* \"#utility.yul\":1596:1648   */\n    tag_146:\n      pop\n        /* \"#utility.yul\":1667:1690   */\n      calldataload\n      swap2\n        /* \"#utility.yul\":1516:1696   */\n      swap1\n      pop\n      jump\t// out\n        /* \"#utility.yul\":2660:2787   */\n    tag_85:\n        /* \"#utility.yul\":2721:2731   */\n      0x4e487b71\n        /* \"#utility.yul\":2716:2719   */\n      0xe0\n        /* \"#utility.yul\":2712:2732   */\n      shl\n        /* \"#utility.yul\":2709:2710   */\n      0x00\n        /* \"#utility.yul\":2702:2733   */\n      mstore\n        /* \"#utility.yul\":2752:2756   */\n      0x32\n        /* \"#utility.yul\":2749:2750   */\n      0x04\n        /* \"#utility.yul\":2742:2757   */\n      mstore\n        /* \"#utility.yul\":2776:2780   */\n      0x24\n        /* \"#utility.yul\":2773:2774   */\n      0x00\n        /* \"#utility.yul\":2766:2781   */\n      revert\n        /* \"#utility.yul\":2792:2919   */\n    tag_132:\n        /* \"#utility.yul\":2853:2863   */\n      0x4e487b71\n        /* \"#utility.yul\":2848:2851   */\n      0xe0\n        /* \"#utility.yul\":2844:2864   */\n      shl\n        /* \"#utility.yul\":2841:2842   */\n      0x00\n        /* \"#utility.yul\":2834:2865   */\n      mstore\n        /* \"#utility.yul\":2884:2888   */\n      0x11\n        /* \"#utility.yul\":2881:2882   */\n      0x04\n        /* \"#utility.yul\":2874:2889   */\n      mstore\n        /* \"#utility.yul\":2908:2912   */\n      0x24\n        /* \"#utility.yul\":2905:2906   */\n      0x00\n        /* \"#utility.yul\":2898:2913   */\n      revert\n        /* \"#utility.yul\":2924:3141   */\n    tag_88:\n        /* \"#utility.yul\":2964:2965   */\n      0x00\n        /* \"#utility.yul\":2990:2991   */\n      dup3\n        /* \"#utility.yul\":2980:3112   */\n      tag_155\n      jumpi\n        /* \"#utility.yul\":3034:3044   */\n      0x4e487b71\n        /* \"#utility.yul\":3029:3032   */\n      0xe0\n        /* \"#utility.yul\":3025:3045   */\n      shl\n        /* \"#utility.yul\":3022:3023   */\n      0x00\n        /* \"#utility.yul\":3015:3046   */\n      mstore\n        /* \"#utility.yul\":3069:3073   */\n      0x12\n        /* \"#utility.yul\":3066:3067   */\n      0x04\n        /* \"#utility.yul\":3059:3074   */\n      mstore\n        /* \"#utility.yul\":3097:3101   */\n      0x24\n        /* \"#utility.yul\":3094:3095   */\n      0x00\n        /* \"#utility.yul\":3087:3102   */\n      revert\n        /* \"#utility.yul\":2980:3112   */\n    tag_155:\n      pop\n        /* \"#utility.yul\":3126:3135   */\n      div\n      swap1\n        /* \"#utility.yul\":2924:3141   */\n      jump\t// out\n        /* \"#utility.yul\":3146:3314   */\n    tag_90:\n        /* \"#utility.yul\":3219:3228   */\n      dup1\n      dup3\n      mul\n        /* \"#utility.yul\":3250:3259   */\n      dup2\n      iszero\n        /* \"#utility.yul\":3267:3282   */\n      dup3\n      dup3\n      div\n        /* \"#utility.yul\":3261:3283   */\n      dup5\n      eq\n        /* \"#utility.yul\":3247:3284   */\n      or\n        /* \"#utility.yul\":3237:3308   */\n      tag_158\n      jumpi\n        /* \"#utility.yul\":3288:3306   */\n      tag_158\n      tag_132\n      jump\t// in\n    tag_158:\n        /* \"#utility.yul\":3146:3314   */\n      swap3\n      swap2\n      pop\n      pop\n      jump\t// out\n        /* \"#utility.yul\":4168:4303   */\n    tag_108:\n        /* \"#utility.yul\":4207:4210   */\n      0x00\n        /* \"#utility.yul\":4228:4245   */\n      0x01\n      dup3\n      add\n        /* \"#utility.yul\":4225:4268   */\n      tag_164\n      jumpi\n        /* \"#utility.yul\":4248:4266   */\n      tag_164\n      tag_132\n      jump\t// in\n    tag_164:\n      pop\n        /* \"#utility.yul\":4295:4296   */\n      0x01\n        /* \"#utility.yul\":4284:4297   */\n      add\n      swap1\n        /* \"#utility.yul\":4168:4303   */\n      jump\t// out\n        /* \"#utility.yul\":4308:4433   */\n    tag_117:\n        /* \"#utility.yul\":4373:4382   */\n      dup1\n      dup3\n      add\n        /* \"#utility.yul\":4394:4404   */\n      dup1\n      dup3\n      gt\n        /* \"#utility.yul\":4391:4427   */\n      iszero\n      tag_158\n      jumpi\n        /* \"#utility.yul\":4407:4425   */\n      tag_158\n      tag_132\n      jump\t// in\n\n    auxdata: 0xa2646970667358221220aa0fafdee57c19f0af83f9101910cfd77aae486b8271f6e17978a81e4ade282f64736f6c63430008110033\n}\n",
				"bytecode": {
					"linkReferences": {},
					"object": "608060405234801561001057600080fd5b5060405161080538038061080583398101604081905261002f91610054565b600080546001600160a01b0319166001600160a01b0392909216919091179055610084565b60006020828403121561006657600080fd5b81516001600160a01b038116811461007d57600080fd5b9392505050565b610772806100936000396000f3fe60806040526004361061007f5760003560e01c80638da5cb5b1161004e5780638da5cb5b14610176578063d1bc76a1146101ae578063e59de500146101ce578063ecefc705146101fb576100b9565b80633afe58af146100e35780636a9df2b5146101035780637ae316d0146101185780638a0e72bb14610140576100b9565b366100b9576000546001600160a01b031633146100b75760405162461bcd60e51b81526004016100ae906105f7565b60405180910390fd5b005b6000546001600160a01b031633146100b75760405162461bcd60e51b81526004016100ae906105f7565b3480156100ef57600080fd5b506100b76100fe36600461063c565b610211565b34801561010f57600080fd5b506100b761029c565b34801561012457600080fd5b5061012d6104f9565b6040519081526020015b60405180910390f35b34801561014c57600080fd5b5061012d61015b366004610668565b6001600160a01b031660009081526001602052604090205490565b34801561018257600080fd5b50600054610196906001600160a01b031681565b6040516001600160a01b039091168152602001610137565b3480156101ba57600080fd5b506101966101c936600461068c565b610565565b3480156101da57600080fd5b5061012d6101e9366004610668565b60016020526000908152604090205481565b34801561020757600080fd5b5061012d61271081565b6000546001600160a01b0316331461023b5760405162461bcd60e51b81526004016100ae906105f7565b6001600160a01b03909116600081815260016020819052604082209390935560028054938401815590527f405787fa12a823e0f2b7631cc41b3ba8828b3321ca811111fa75cd3aa3bb5ace90910180546001600160a01b0319169091179055565b6000546001600160a01b031633146102c65760405162461bcd60e51b81526004016100ae906105f7565b476000036103085760405162461bcd60e51b815260206004820152600f60248201526e4e6f7420656e7567682066756e647360881b60448201526064016100ae565b61271061031361058f565b146103605760405162461bcd60e51b815260206004820152601a60248201527f5061796d656e74206e6f742073706c697420656e746972656c7900000000000060448201526064016100ae565b6000805b6002548110156104f5576001600060028381548110610385576103856106a5565b60009182526020808320909101546001600160a01b031683528201929092526040019020546103b6612710476106d1565b6103c091906106f3565b91506000600282815481106103d7576103d76106a5565b60009182526020822001546040516001600160a01b039091169185919081818185875af1925050503d806000811461042b576040519150601f19603f3d011682016040523d82523d6000602084013e610430565b606091505b50509050806104815760405162461bcd60e51b815260206004820152601760248201527f52657475726e206665652066756e6473206661696c656400000000000000000060448201526064016100ae565b7f075a2720282fdf622141dae0b048ef90a21a7e57c134c76912d19d006b3b3f6f600283815481106104b5576104b56106a5565b60009182526020918290200154604080516001600160a01b0390921682529181018690520160405180910390a150806104ed81610710565b915050610364565b5050565b6000805b60025481101561056157600160006002838154811061051e5761051e6106a5565b60009182526020808320909101546001600160a01b0316835282019290925260400190205461054d9083610729565b91508061055981610710565b9150506104fd565b5090565b6002818154811061057557600080fd5b6000918252602090912001546001600160a01b0316905081565b6000805b6002548110156105615760016000600283815481106105b4576105b46106a5565b60009182526020808320909101546001600160a01b031683528201929092526040019020546105e39083610729565b9150806105ef81610710565b915050610593565b60208082526013908201527229b2b73232b91034b9903737ba1037bbb732b960691b604082015260600190565b6001600160a01b038116811461063957600080fd5b50565b6000806040838503121561064f57600080fd5b823561065a81610624565b946020939093013593505050565b60006020828403121561067a57600080fd5b813561068581610624565b9392505050565b60006020828403121561069e57600080fd5b5035919050565b634e487b7160e01b600052603260045260246000fd5b634e487b7160e01b600052601160045260246000fd5b6000826106ee57634e487b7160e01b600052601260045260246000fd5b500490565b808202811582820484141761070a5761070a6106bb565b92915050565b600060018201610722576107226106bb565b5060010190565b8082018082111561070a5761070a6106bb56fea2646970667358221220aa0fafdee57c19f0af83f9101910cfd77aae486b8271f6e17978a81e4ade282f64736f6c63430008110033",
					"opcodes": "PUSH1 0x80 PUSH1 0x40 MSTORE CALLVALUE DUP1 ISZERO PUSH2 0x10 JUMPI PUSH1 0x0 DUP1 REVERT JUMPDEST POP PUSH1 0x40 MLOAD PUSH2 0x805 CODESIZE SUB DUP1 PUSH2 0x805 DUP4 CODECOPY DUP2 ADD PUSH1 0x40 DUP2 SWAP1 MSTORE PUSH2 0x2F SWAP2 PUSH2 0x54 JUMP JUMPDEST PUSH1 0x0 DUP1 SLOAD PUSH1 0x1 PUSH1 0x1 PUSH1 0xA0 SHL SUB NOT AND PUSH1 0x1 PUSH1 0x1 PUSH1 0xA0 SHL SUB SWAP3 SWAP1 SWAP3 AND SWAP2 SWAP1 SWAP2 OR SWAP1 SSTORE PUSH2 0x84 JUMP JUMPDEST PUSH1 0x0 PUSH1 0x20 DUP3 DUP5 SUB SLT ISZERO PUSH2 0x66 JUMPI PUSH1 0x0 DUP1 REVERT JUMPDEST DUP2 MLOAD PUSH1 0x1 PUSH1 0x1 PUSH1 0xA0 SHL SUB DUP2 AND DUP2 EQ PUSH2 0x7D JUMPI PUSH1 0x0 DUP1 REVERT JUMPDEST SWAP4 SWAP3 POP POP POP JUMP JUMPDEST PUSH2 0x772 DUP1 PUSH2 0x93 PUSH1 0x0 CODECOPY PUSH1 0x0 RETURN INVALID PUSH1 0x80 PUSH1 0x40 MSTORE PUSH1 0x4 CALLDATASIZE LT PUSH2 0x7F JUMPI PUSH1 0x0 CALLDATALOAD PUSH1 0xE0 SHR DUP1 PUSH4 0x8DA5CB5B GT PUSH2 0x4E JUMPI DUP1 PUSH4 0x8DA5CB5B EQ PUSH2 0x176 JUMPI DUP1 PUSH4 0xD1BC76A1 EQ PUSH2 0x1AE JUMPI DUP1 PUSH4 0xE59DE500 EQ PUSH2 0x1CE JUMPI DUP1 PUSH4 0xECEFC705 EQ PUSH2 0x1FB JUMPI PUSH2 0xB9 JUMP JUMPDEST DUP1 PUSH4 0x3AFE58AF EQ PUSH2 0xE3 JUMPI DUP1 PUSH4 0x6A9DF2B5 EQ PUSH2 0x103 JUMPI DUP1 PUSH4 0x7AE316D0 EQ PUSH2 0x118 JUMPI DUP1 PUSH4 0x8A0E72BB EQ PUSH2 0x140 JUMPI PUSH2 0xB9 JUMP JUMPDEST CALLDATASIZE PUSH2 0xB9 JUMPI PUSH1 0x0 SLOAD PUSH1 0x1 PUSH1 0x1 PUSH1 0xA0 SHL SUB AND CALLER EQ PUSH2 0xB7 JUMPI PUSH1 0x40 MLOAD PUSH3 0x461BCD PUSH1 0xE5 SHL DUP2 MSTORE PUSH1 0x4 ADD PUSH2 0xAE SWAP1 PUSH2 0x5F7 JUMP JUMPDEST PUSH1 0x40 MLOAD DUP1 SWAP2 SUB SWAP1 REVERT JUMPDEST STOP JUMPDEST PUSH1 0x0 SLOAD PUSH1 0x1 PUSH1 0x1 PUSH1 0xA0 SHL SUB AND CALLER EQ PUSH2 0xB7 JUMPI PUSH1 0x40 MLOAD PUSH3 0x461BCD PUSH1 0xE5 SHL DUP2 MSTORE PUSH1 0x4 ADD PUSH2 0xAE SWAP1 PUSH2 0x5F7 JUMP JUMPDEST CALLVALUE DUP1 ISZERO PUSH2 0xEF JUMPI PUSH1 0x0 DUP1 REVERT JUMPDEST POP PUSH2 0xB7 PUSH2 0xFE CALLDATASIZE PUSH1 0x4 PUSH2 0x63C JUMP JUMPDEST PUSH2 0x211 JUMP JUMPDEST CALLVALUE DUP1 ISZERO PUSH2 0x10F JUMPI PUSH1 0x0 DUP1 REVERT JUMPDEST POP PUSH2 0xB7 PUSH2 0x29C JUMP JUMPDEST CALLVALUE DUP1 ISZERO PUSH2 0x124 JUMPI PUSH1 0x0 DUP1 REVERT JUMPDEST POP PUSH2 0x12D PUSH2 0x4F9 JUMP JUMPDEST PUSH1 0x40 MLOAD SWAP1 DUP2 MSTORE PUSH1 0x20 ADD JUMPDEST PUSH1 0x40 MLOAD DUP1 SWAP2 SUB SWAP1 RETURN JUMPDEST CALLVALUE DUP1 ISZERO PUSH2 0x14C JUMPI PUSH1 0x0 DUP1 REVERT JUMPDEST POP PUSH2 0x12D PUSH2 0x15B CALLDATASIZE PUSH1 0x4 PUSH2 0x668 JUMP JUMPDEST PUSH1 0x1 PUSH1 0x1 PUSH1 0xA0 SHL SUB AND PUSH1 0x0 SWAP1 DUP2 MSTORE PUSH1 0x1 PUSH1 0x20 MSTORE PUSH1 0x40 SWAP1 KECCAK256 SLOAD SWAP1 JUMP JUMPDEST CALLVALUE DUP1 ISZERO PUSH2 0x182 JUMPI PUSH1 0x0 DUP1 REVERT JUMPDEST POP PUSH1 0x0 SLOAD PUSH2 0x196 SWAP1 PUSH1 0x1 PUSH1 0x1 PUSH1 0xA0 SHL SUB AND DUP2 JUMP JUMPDEST PUSH1 0x40 MLOAD PUSH1 0x1 PUSH1 0x1 PUSH1 0xA0 SHL SUB SWAP1 SWAP2 AND DUP2 MSTORE PUSH1 0x20 ADD PUSH2 0x137 JUMP JUMPDEST CALLVALUE DUP1 ISZERO PUSH2 0x1BA JUMPI PUSH1 0x0 DUP1 REVERT JUMPDEST POP PUSH2 0x196 PUSH2 0x1C9 CALLDATASIZE PUSH1 0x4 PUSH2 0x68C JUMP JUMPDEST PUSH2 0x565 JUMP JUMPDEST CALLVALUE DUP1 ISZERO PUSH2 0x1DA JUMPI PUSH1 0x0 DUP1 REVERT JUMPDEST POP PUSH2 0x12D PUSH2 0x1E9 CALLDATASIZE PUSH1 0x4 PUSH2 0x668 JUMP JUMPDEST PUSH1 0x1 PUSH1 0x20 MSTORE PUSH1 0x0 SWAP1 DUP2 MSTORE PUSH1 0x40 SWAP1 KECCAK256 SLOAD DUP2 JUMP JUMPDEST CALLVALUE DUP1 ISZERO PUSH2 0x207 JUMPI PUSH1 0x0 DUP1 REVERT JUMPDEST POP PUSH2 0x12D PUSH2 0x2710 DUP2 JUMP JUMPDEST PUSH1 0x0 SLOAD PUSH1 0x1 PUSH1 0x1 PUSH1 0xA0 SHL SUB AND CALLER EQ PUSH2 0x23B JUMPI PUSH1 0x40 MLOAD PUSH3 0x461BCD PUSH1 0xE5 SHL DUP2 MSTORE PUSH1 0x4 ADD PUSH2 0xAE SWAP1 PUSH2 0x5F7 JUMP JUMPDEST PUSH1 0x1 PUSH1 0x1 PUSH1 0xA0 SHL SUB SWAP1 SWAP2 AND PUSH1 0x0 DUP2 DUP2 MSTORE PUSH1 0x1 PUSH1 0x20 DUP2 SWAP1 MSTORE PUSH1 0x40 DUP3 KECCAK256 SWAP4 SWAP1 SWAP4 SSTORE PUSH1 0x2 DUP1 SLOAD SWAP4 DUP5 ADD DUP2 SSTORE SWAP1 MSTORE PUSH32 0x405787FA12A823E0F2B7631CC41B3BA8828B3321CA811111FA75CD3AA3BB5ACE SWAP1 SWAP2 ADD DUP1 SLOAD PUSH1 0x1 PUSH1 0x1 PUSH1 0xA0 SHL SUB NOT AND SWAP1 SWAP2 OR SWAP1 SSTORE JUMP JUMPDEST PUSH1 0x0 SLOAD PUSH1 0x1 PUSH1 0x1 PUSH1 0xA0 SHL SUB AND CALLER EQ PUSH2 0x2C6 JUMPI PUSH1 0x40 MLOAD PUSH3 0x461BCD PUSH1 0xE5 SHL DUP2 MSTORE PUSH1 0x4 ADD PUSH2 0xAE SWAP1 PUSH2 0x5F7 JUMP JUMPDEST SELFBALANCE PUSH1 0x0 SUB PUSH2 0x308 JUMPI PUSH1 0x40 MLOAD PUSH3 0x461BCD PUSH1 0xE5 SHL DUP2 MSTORE PUSH1 0x20 PUSH1 0x4 DUP3 ADD MSTORE PUSH1 0xF PUSH1 0x24 DUP3 ADD MSTORE PUSH15 0x4E6F7420656E7567682066756E6473 PUSH1 0x88 SHL PUSH1 0x44 DUP3 ADD MSTORE PUSH1 0x64 ADD PUSH2 0xAE JUMP JUMPDEST PUSH2 0x2710 PUSH2 0x313 PUSH2 0x58F JUMP JUMPDEST EQ PUSH2 0x360 JUMPI PUSH1 0x40 MLOAD PUSH3 0x461BCD PUSH1 0xE5 SHL DUP2 MSTORE PUSH1 0x20 PUSH1 0x4 DUP3 ADD MSTORE PUSH1 0x1A PUSH1 0x24 DUP3 ADD MSTORE PUSH32 0x5061796D656E74206E6F742073706C697420656E746972656C79000000000000 PUSH1 0x44 DUP3 ADD MSTORE PUSH1 0x64 ADD PUSH2 0xAE JUMP JUMPDEST PUSH1 0x0 DUP1 JUMPDEST PUSH1 0x2 SLOAD DUP2 LT ISZERO PUSH2 0x4F5 JUMPI PUSH1 0x1 PUSH1 0x0 PUSH1 0x2 DUP4 DUP2 SLOAD DUP2 LT PUSH2 0x385 JUMPI PUSH2 0x385 PUSH2 0x6A5 JUMP JUMPDEST PUSH1 0x0 SWAP2 DUP3 MSTORE PUSH1 0x20 DUP1 DUP4 KECCAK256 SWAP1 SWAP2 ADD SLOAD PUSH1 0x1 PUSH1 0x1 PUSH1 0xA0 SHL SUB AND DUP4 MSTORE DUP3 ADD SWAP3 SWAP1 SWAP3 MSTORE PUSH1 0x40 ADD SWAP1 KECCAK256 SLOAD PUSH2 0x3B6 PUSH2 0x2710 SELFBALANCE PUSH2 0x6D1 JUMP JUMPDEST PUSH2 0x3C0 SWAP2 SWAP1 PUSH2 0x6F3 JUMP JUMPDEST SWAP2 POP PUSH1 0x0 PUSH1 0x2 DUP3 DUP2 SLOAD DUP2 LT PUSH2 0x3D7 JUMPI PUSH2 0x3D7 PUSH2 0x6A5 JUMP JUMPDEST PUSH1 0x0 SWAP2 DUP3 MSTORE PUSH1 0x20 DUP3 KECCAK256 ADD SLOAD PUSH1 0x40 MLOAD PUSH1 0x1 PUSH1 0x1 PUSH1 0xA0 SHL SUB SWAP1 SWAP2 AND SWAP2 DUP6 SWAP2 SWAP1 DUP2 DUP2 DUP2 DUP6 DUP8 GAS CALL SWAP3 POP POP POP RETURNDATASIZE DUP1 PUSH1 0x0 DUP2 EQ PUSH2 0x42B JUMPI PUSH1 0x40 MLOAD SWAP2 POP PUSH1 0x1F NOT PUSH1 0x3F RETURNDATASIZE ADD AND DUP3 ADD PUSH1 0x40 MSTORE RETURNDATASIZE DUP3 MSTORE RETURNDATASIZE PUSH1 0x0 PUSH1 0x20 DUP5 ADD RETURNDATACOPY PUSH2 0x430 JUMP JUMPDEST PUSH1 0x60 SWAP2 POP JUMPDEST POP POP SWAP1 POP DUP1 PUSH2 0x481 JUMPI PUSH1 0x40 MLOAD PUSH3 0x461BCD PUSH1 0xE5 SHL DUP2 MSTORE PUSH1 0x20 PUSH1 0x4 DUP3 ADD MSTORE PUSH1 0x17 PUSH1 0x24 DUP3 ADD MSTORE PUSH32 0x52657475726E206665652066756E6473206661696C6564000000000000000000 PUSH1 0x44 DUP3 ADD MSTORE PUSH1 0x64 ADD PUSH2 0xAE JUMP JUMPDEST PUSH32 0x75A2720282FDF622141DAE0B048EF90A21A7E57C134C76912D19D006B3B3F6F PUSH1 0x2 DUP4 DUP2 SLOAD DUP2 LT PUSH2 0x4B5 JUMPI PUSH2 0x4B5 PUSH2 0x6A5 JUMP JUMPDEST PUSH1 0x0 SWAP2 DUP3 MSTORE PUSH1 0x20 SWAP2 DUP3 SWAP1 KECCAK256 ADD SLOAD PUSH1 0x40 DUP1 MLOAD PUSH1 0x1 PUSH1 0x1 PUSH1 0xA0 SHL SUB SWAP1 SWAP3 AND DUP3 MSTORE SWAP2 DUP2 ADD DUP7 SWAP1 MSTORE ADD PUSH1 0x40 MLOAD DUP1 SWAP2 SUB SWAP1 LOG1 POP DUP1 PUSH2 0x4ED DUP2 PUSH2 0x710 JUMP JUMPDEST SWAP2 POP POP PUSH2 0x364 JUMP JUMPDEST POP POP JUMP JUMPDEST PUSH1 0x0 DUP1 JUMPDEST PUSH1 0x2 SLOAD DUP2 LT ISZERO PUSH2 0x561 JUMPI PUSH1 0x1 PUSH1 0x0 PUSH1 0x2 DUP4 DUP2 SLOAD DUP2 LT PUSH2 0x51E JUMPI PUSH2 0x51E PUSH2 0x6A5 JUMP JUMPDEST PUSH1 0x0 SWAP2 DUP3 MSTORE PUSH1 0x20 DUP1 DUP4 KECCAK256 SWAP1 SWAP2 ADD SLOAD PUSH1 0x1 PUSH1 0x1 PUSH1 0xA0 SHL SUB AND DUP4 MSTORE DUP3 ADD SWAP3 SWAP1 SWAP3 MSTORE PUSH1 0x40 ADD SWAP1 KECCAK256 SLOAD PUSH2 0x54D SWAP1 DUP4 PUSH2 0x729 JUMP JUMPDEST SWAP2 POP DUP1 PUSH2 0x559 DUP2 PUSH2 0x710 JUMP JUMPDEST SWAP2 POP POP PUSH2 0x4FD JUMP JUMPDEST POP SWAP1 JUMP JUMPDEST PUSH1 0x2 DUP2 DUP2 SLOAD DUP2 LT PUSH2 0x575 JUMPI PUSH1 0x0 DUP1 REVERT JUMPDEST PUSH1 0x0 SWAP2 DUP3 MSTORE PUSH1 0x20 SWAP1 SWAP2 KECCAK256 ADD SLOAD PUSH1 0x1 PUSH1 0x1 PUSH1 0xA0 SHL SUB AND SWAP1 POP DUP2 JUMP JUMPDEST PUSH1 0x0 DUP1 JUMPDEST PUSH1 0x2 SLOAD DUP2 LT ISZERO PUSH2 0x561 JUMPI PUSH1 0x1 PUSH1 0x0 PUSH1 0x2 DUP4 DUP2 SLOAD DUP2 LT PUSH2 0x5B4 JUMPI PUSH2 0x5B4 PUSH2 0x6A5 JUMP JUMPDEST PUSH1 0x0 SWAP2 DUP3 MSTORE PUSH1 0x20 DUP1 DUP4 KECCAK256 SWAP1 SWAP2 ADD SLOAD PUSH1 0x1 PUSH1 0x1 PUSH1 0xA0 SHL SUB AND DUP4 MSTORE DUP3 ADD SWAP3 SWAP1 SWAP3 MSTORE PUSH1 0x40 ADD SWAP1 KECCAK256 SLOAD PUSH2 0x5E3 SWAP1 DUP4 PUSH2 0x729 JUMP JUMPDEST SWAP2 POP DUP1 PUSH2 0x5EF DUP2 PUSH2 0x710 JUMP JUMPDEST SWAP2 POP POP PUSH2 0x593 JUMP JUMPDEST PUSH1 0x20 DUP1 DUP3 MSTORE PUSH1 0x13 SWAP1 DUP3 ADD MSTORE PUSH19 0x29B2B73232B91034B9903737BA1037BBB732B9 PUSH1 0x69 SHL PUSH1 0x40 DUP3 ADD MSTORE PUSH1 0x60 ADD SWAP1 JUMP JUMPDEST PUSH1 0x1 PUSH1 0x1 PUSH1 0xA0 SHL SUB DUP2 AND DUP2 EQ PUSH2 0x639 JUMPI PUSH1 0x0 DUP1 REVERT JUMPDEST POP JUMP JUMPDEST PUSH1 0x0 DUP1 PUSH1 0x40 DUP4 DUP6 SUB SLT ISZERO PUSH2 0x64F JUMPI PUSH1 0x0 DUP1 REVERT JUMPDEST DUP3 CALLDATALOAD PUSH2 0x65A DUP2 PUSH2 0x624 JUMP JUMPDEST SWAP5 PUSH1 0x20 SWAP4 SWAP1 SWAP4 ADD CALLDATALOAD SWAP4 POP POP POP JUMP JUMPDEST PUSH1 0x0 PUSH1 0x20 DUP3 DUP5 SUB SLT ISZERO PUSH2 0x67A JUMPI PUSH1 0x0 DUP1 REVERT JUMPDEST DUP2 CALLDATALOAD PUSH2 0x685 DUP2 PUSH2 0x624 JUMP JUMPDEST SWAP4 SWAP3 POP POP POP JUMP JUMPDEST PUSH1 0x0 PUSH1 0x20 DUP3 DUP5 SUB SLT ISZERO PUSH2 0x69E JUMPI PUSH1 0x0 DUP1 REVERT JUMPDEST POP CALLDATALOAD SWAP2 SWAP1 POP JUMP JUMPDEST PUSH4 0x4E487B71 PUSH1 0xE0 SHL PUSH1 0x0 MSTORE PUSH1 0x32 PUSH1 0x4 MSTORE PUSH1 0x24 PUSH1 0x0 REVERT JUMPDEST PUSH4 0x4E487B71 PUSH1 0xE0 SHL PUSH1 0x0 MSTORE PUSH1 0x11 PUSH1 0x4 MSTORE PUSH1 0x24 PUSH1 0x0 REVERT JUMPDEST PUSH1 0x0 DUP3 PUSH2 0x6EE JUMPI PUSH4 0x4E487B71 PUSH1 0xE0 SHL PUSH1 0x0 MSTORE PUSH1 0x12 PUSH1 0x4 MSTORE PUSH1 0x24 PUSH1 0x0 REVERT JUMPDEST POP DIV SWAP1 JUMP JUMPDEST DUP1 DUP3 MUL DUP2 ISZERO DUP3 DUP3 DIV DUP5 EQ OR PUSH2 0x70A JUMPI PUSH2 0x70A PUSH2 0x6BB JUMP JUMPDEST SWAP3 SWAP2 POP POP JUMP JUMPDEST PUSH1 0x0 PUSH1 0x1 DUP3 ADD PUSH2 0x722 JUMPI PUSH2 0x722 PUSH2 0x6BB JUMP JUMPDEST POP PUSH1 0x1 ADD SWAP1 JUMP JUMPDEST DUP1 DUP3 ADD DUP1 DUP3 GT ISZERO PUSH2 0x70A JUMPI PUSH2 0x70A PUSH2 0x6BB JUMP INVALID LOG2 PUSH5 0x6970667358 0x22 SLT KECCAK256 0xAA 0xF 0xAF 0xDE 0xE5 PUSH29 0x19F0AF83F9101910CFD77AAE486B8271F6E17978A81E4ADE282F64736F PUSH13 0x63430008110033000000000000 "
				},
				"gasEstimates": {
					"creation": {
						"codeDepositCost": "381200",
						"executionCost": "infinite",
						"totalCost": "infinite"
					},
					"external": {
						"": "2457",
						"FEE_BASE()": "250",
						"_recipients(address)": "2546",
						"addRecipients(address,uint256)": "73138",
						"getFeeByAddress(address)": "2587",
						"getTotalFee()": "infinite",
						"owner()": "2337",
						"paySplitFee()": "infinite",
						"recipients(uint256)": "4636"
					},
					"internal": {
						"_getTotalFee()": "infinite"
					}
				},
				"methodIdentifiers": {
					"FEE_BASE()": "ecefc705",
					"_recipients(address)": "e59de500",
					"addRecipients(address,uint256)": "3afe58af",
					"getFeeByAddress(address)": "8a0e72bb",
					"getTotalFee()": "7ae316d0",
					"owner()": "8da5cb5b",
					"paySplitFee()": "6a9df2b5",
					"recipients(uint256)": "d1bc76a1"
				}
			},
			"storageLayout": {
				"storage": [
					{
						"astId": 9,
						"contract": "Contracts/PaymentSplit.sol:PaymentSplit",
						"label": "owner",
						"offset": 0,
						"slot": "0",
						"type": "t_address_payable"
					},
					{
						"astId": 13,
						"contract": "Contracts/PaymentSplit.sol:PaymentSplit",
						"label": "_recipients",
						"offset": 0,
						"slot": "1",
						"type": "t_mapping(t_address,t_uint256)"
					},
					{
						"astId": 16,
						"contract": "Contracts/PaymentSplit.sol:PaymentSplit",
						"label": "recipients",
						"offset": 0,
						"slot": "2",
						"type": "t_array(t_address_payable)dyn_storage"
					}
				],
				"types": {
					"t_address": {
						"encoding": "inplace",
						"label": "address",
						"numberOfBytes": "20"
					},
					"t_address_payable": {
						"encoding": "inplace",
						"label": "address payable",
						"numberOfBytes": "20"
					},
					"t_array(t_address_payable)dyn_storage": {
						"base": "t_address_payable",
						"encoding": "dynamic_array",
						"label": "address payable[]",
						"numberOfBytes": "32"
					},
					"t_mapping(t_address,t_uint256)": {
						"encoding": "mapping",
						"key": "t_address",
						"label": "mapping(address => uint256)",
						"numberOfBytes": "32",
						"value": "t_uint256"
					},
					"t_uint256": {
						"encoding": "inplace",
						"label": "uint256",
						"numberOfBytes": "32"
					}
				}
			},
			"userdoc": {
				"kind": "user",
				"methods": {},
				"version": 1
			}
		}
	}
}