{
	"Contracts/AuctionSPU.sol": {
		"AuctionSPU": {
			"abi": [
				{
					"inputs": [
						{
							"internalType": "address",
							"name": "_nft",
							"type": "address"
						},
						{
							"internalType": "address",
							"name": "_docsRegister",
							"type": "address"
						},
						{
							"internalType": "uint256",
							"name": "_docsProcess",
							"type": "uint256"
						},
						{
							"internalType": "address",
							"name": "_feeAddres",
							"type": "address"
						},
						{
							"internalType": "uint256",
							"name": "_nftId",
							"type": "uint256"
						},
						{
							"internalType": "uint256",
							"name": "_startingBid",
							"type": "uint256"
						},
						{
							"internalType": "uint256",
							"name": "_period",
							"type": "uint256"
						},
						{
							"internalType": "uint256",
							"name": "_transactionFee",
							"type": "uint256"
						}
					],
					"stateMutability": "nonpayable",
					"type": "constructor"
				},
				{
					"anonymous": false,
					"inputs": [
						{
							"indexed": true,
							"internalType": "address",
							"name": "sender",
							"type": "address"
						},
						{
							"indexed": false,
							"internalType": "uint256",
							"name": "amount",
							"type": "uint256"
						}
					],
					"name": "Bid",
					"type": "event"
				},
				{
					"anonymous": false,
					"inputs": [
						{
							"indexed": true,
							"internalType": "address",
							"name": "seller",
							"type": "address"
						},
						{
							"indexed": false,
							"internalType": "uint256",
							"name": "highestBid",
							"type": "uint256"
						}
					],
					"name": "BidPayment",
					"type": "event"
				},
				{
					"anonymous": false,
					"inputs": [
						{
							"indexed": true,
							"internalType": "address",
							"name": "bidder",
							"type": "address"
						},
						{
							"indexed": false,
							"internalType": "uint256",
							"name": "amount",
							"type": "uint256"
						}
					],
					"name": "Cashback",
					"type": "event"
				},
				{
					"anonymous": false,
					"inputs": [
						{
							"indexed": false,
							"internalType": "address",
							"name": "winner",
							"type": "address"
						},
						{
							"indexed": false,
							"internalType": "uint256",
							"name": "amount",
							"type": "uint256"
						}
					],
					"name": "EndAuction",
					"type": "event"
				},
				{
					"anonymous": false,
					"inputs": [
						{
							"indexed": true,
							"internalType": "address",
							"name": "feeAddress",
							"type": "address"
						},
						{
							"indexed": false,
							"internalType": "uint256",
							"name": "totalFee",
							"type": "uint256"
						}
					],
					"name": "FeePayment",
					"type": "event"
				},
				{
					"anonymous": false,
					"inputs": [
						{
							"indexed": false,
							"internalType": "address",
							"name": "pauser",
							"type": "address"
						}
					],
					"name": "PauseAuction",
					"type": "event"
				},
				{
					"anonymous": false,
					"inputs": [
						{
							"indexed": true,
							"internalType": "address",
							"name": "account",
							"type": "address"
						},
						{
							"indexed": false,
							"internalType": "bool",
							"name": "enable",
							"type": "bool"
						}
					],
					"name": "SetWhitelistByAddress",
					"type": "event"
				},
				{
					"anonymous": false,
					"inputs": [],
					"name": "StartAuction",
					"type": "event"
				},
				{
					"anonymous": false,
					"inputs": [
						{
							"indexed": false,
							"internalType": "address",
							"name": "pauser",
							"type": "address"
						}
					],
					"name": "UnpauseAuction",
					"type": "event"
				},
				{
					"stateMutability": "payable",
					"type": "fallback"
				},
				{
					"inputs": [],
					"name": "FEE_BASE",
					"outputs": [
						{
							"internalType": "uint256",
							"name": "",
							"type": "uint256"
						}
					],
					"stateMutability": "view",
					"type": "function"
				},
				{
					"inputs": [],
					"name": "closeAuction",
					"outputs": [],
					"stateMutability": "nonpayable",
					"type": "function"
				},
				{
					"inputs": [],
					"name": "docsProcess",
					"outputs": [
						{
							"internalType": "uint256",
							"name": "",
							"type": "uint256"
						}
					],
					"stateMutability": "view",
					"type": "function"
				},
				{
					"inputs": [],
					"name": "docsRegister",
					"outputs": [
						{
							"internalType": "address",
							"name": "",
							"type": "address"
						}
					],
					"stateMutability": "view",
					"type": "function"
				},
				{
					"inputs": [],
					"name": "endAt",
					"outputs": [
						{
							"internalType": "uint256",
							"name": "",
							"type": "uint256"
						}
					],
					"stateMutability": "view",
					"type": "function"
				},
				{
					"inputs": [],
					"name": "endAuction",
					"outputs": [],
					"stateMutability": "nonpayable",
					"type": "function"
				},
				{
					"inputs": [],
					"name": "ended",
					"outputs": [
						{
							"internalType": "bool",
							"name": "",
							"type": "bool"
						}
					],
					"stateMutability": "view",
					"type": "function"
				},
				{
					"inputs": [],
					"name": "feeAddress",
					"outputs": [
						{
							"internalType": "address payable",
							"name": "",
							"type": "address"
						}
					],
					"stateMutability": "view",
					"type": "function"
				},
				{
					"inputs": [],
					"name": "getBalance",
					"outputs": [
						{
							"internalType": "uint256",
							"name": "",
							"type": "uint256"
						}
					],
					"stateMutability": "view",
					"type": "function"
				},
				{
					"inputs": [],
					"name": "highestBid",
					"outputs": [
						{
							"internalType": "uint256",
							"name": "",
							"type": "uint256"
						}
					],
					"stateMutability": "view",
					"type": "function"
				},
				{
					"inputs": [],
					"name": "highestBidder",
					"outputs": [
						{
							"internalType": "address",
							"name": "",
							"type": "address"
						}
					],
					"stateMutability": "view",
					"type": "function"
				},
				{
					"inputs": [
						{
							"internalType": "address",
							"name": "_account",
							"type": "address"
						}
					],
					"name": "isWhitelist",
					"outputs": [
						{
							"internalType": "bool",
							"name": "",
							"type": "bool"
						}
					],
					"stateMutability": "view",
					"type": "function"
				},
				{
					"inputs": [
						{
							"internalType": "uint256",
							"name": "_totalValue",
							"type": "uint256"
						},
						{
							"internalType": "uint256",
							"name": "_realValue",
							"type": "uint256"
						},
						{
							"internalType": "uint256",
							"name": "_portion",
							"type": "uint256"
						},
						{
							"internalType": "uint256",
							"name": "_clientScore",
							"type": "uint256"
						}
					],
					"name": "newBid",
					"outputs": [],
					"stateMutability": "payable",
					"type": "function"
				},
				{
					"inputs": [],
					"name": "nft",
					"outputs": [
						{
							"internalType": "contract IERC721",
							"name": "",
							"type": "address"
						}
					],
					"stateMutability": "view",
					"type": "function"
				},
				{
					"inputs": [],
					"name": "nftId",
					"outputs": [
						{
							"internalType": "uint256",
							"name": "",
							"type": "uint256"
						}
					],
					"stateMutability": "view",
					"type": "function"
				},
				{
					"inputs": [],
					"name": "numberOfBids",
					"outputs": [
						{
							"internalType": "uint256",
							"name": "",
							"type": "uint256"
						}
					],
					"stateMutability": "view",
					"type": "function"
				},
				{
					"inputs": [],
					"name": "pauseAuction",
					"outputs": [],
					"stateMutability": "nonpayable",
					"type": "function"
				},
				{
					"inputs": [],
					"name": "paused",
					"outputs": [
						{
							"internalType": "bool",
							"name": "",
							"type": "bool"
						}
					],
					"stateMutability": "view",
					"type": "function"
				},
				{
					"inputs": [
						{
							"internalType": "address",
							"name": "",
							"type": "address"
						}
					],
					"name": "receivedBids",
					"outputs": [
						{
							"internalType": "uint256",
							"name": "totalValue",
							"type": "uint256"
						},
						{
							"internalType": "uint256",
							"name": "realValue",
							"type": "uint256"
						},
						{
							"internalType": "uint256",
							"name": "portion",
							"type": "uint256"
						},
						{
							"internalType": "uint256",
							"name": "clientScore",
							"type": "uint256"
						},
						{
							"internalType": "uint256",
							"name": "downpay",
							"type": "uint256"
						}
					],
					"stateMutability": "view",
					"type": "function"
				},
				{
					"inputs": [],
					"name": "seller",
					"outputs": [
						{
							"internalType": "address payable",
							"name": "",
							"type": "address"
						}
					],
					"stateMutability": "view",
					"type": "function"
				},
				{
					"inputs": [
						{
							"internalType": "address",
							"name": "_account",
							"type": "address"
						},
						{
							"internalType": "bool",
							"name": "enable",
							"type": "bool"
						}
					],
					"name": "setWhitelist",
					"outputs": [],
					"stateMutability": "nonpayable",
					"type": "function"
				},
				{
					"inputs": [],
					"name": "startAuction",
					"outputs": [],
					"stateMutability": "nonpayable",
					"type": "function"
				},
				{
					"inputs": [],
					"name": "started",
					"outputs": [
						{
							"internalType": "bool",
							"name": "",
							"type": "bool"
						}
					],
					"stateMutability": "view",
					"type": "function"
				},
				{
					"inputs": [],
					"name": "totalFee",
					"outputs": [
						{
							"internalType": "uint256",
							"name": "",
							"type": "uint256"
						}
					],
					"stateMutability": "view",
					"type": "function"
				},
				{
					"inputs": [],
					"name": "unpauseAuction",
					"outputs": [],
					"stateMutability": "nonpayable",
					"type": "function"
				},
				{
					"stateMutability": "payable",
					"type": "receive"
				}
			],
			"devdoc": {
				"author": "Gustavo Henrique / gustavo@useinsignia.com",
				"kind": "dev",
				"methods": {
					"closeAuction()": {
						"details": "When this method is called the auction is finally closed Method steps: {1} - Verifications {2} - Safe Transfer the NFT for the highestBidder {3} - Pay the total fee of the auction {4} - Pay the highestBid to the seller {5} - Emit an event for newBid"
					},
					"constructor": {
						"details": "Sets the values for :  {_nft} -> Address of the nft  {_docsRegister} -> The smart contract that stores all the real-state documentation  {_docsProcess} -> The SPU process identifier  {_feeAddres} -> The address that will receives the fees o the auction  {_nftId} -> NFT id, in case of collection, default value 0  {_startingBid} -> The initial bid value  {_period} -> Duration of the auction, timestamp pattern  {_transactionFee} -> Fee charged on every bid , e.g. 100 = 1%"
					},
					"endAuction()": {
						"details": "Once ended only no more bids are allowed , no transfers are done yet"
					},
					"getBalance()": {
						"returns": {
							"_0": "Returns the native token amount inside this contract."
						}
					},
					"isWhitelist(address)": {
						"params": {
							"_account": "Consultant address"
						},
						"returns": {
							"_0": "Boolean of the privilege setted"
						}
					},
					"newBid(uint256,uint256,uint256,uint256)": {
						"details": "Is mandatory to add any bidder previously in the _whitelist array Method steps: {1} - Verifications {2} - Calculate transaction fee {3} - Refund for the last highestBidder {4} - Store bid data {5} - Store highest bid {6} - Emit an event for newBid"
					},
					"pauseAuction()": {
						"details": "Once paused, this method neither restart the autcion or change any bid"
					},
					"setWhitelist(address,bool)": {
						"params": {
							"_account": "The address to insert",
							"enable": "True to guarantee privilegies, false to remove privilegies"
						}
					},
					"startAuction()": {
						"details": "The owner of the NFT MUST hold the NFT before call this method"
					},
					"unpauseAuction()": {
						"details": "Once unpaused, this method neither restart the autcion or change any bid"
					}
				},
				"title": "Auction for real-state NFT sell",
				"version": 1
			},
			"evm": {
				"assembly": "    /* \"Contracts/AuctionSPU.sol\":1528:12066  contract AuctionSPU {... */\n  mstore(0x40, 0x80)\n    /* \"Contracts/AuctionSPU.sol\":3829:4393  constructor(... */\n  callvalue\n  dup1\n  iszero\n  tag_1\n  jumpi\n  0x00\n  dup1\n  revert\ntag_1:\n  pop\n  mload(0x40)\n  sub(codesize, bytecodeSize)\n  dup1\n  bytecodeSize\n  dup4\n  codecopy\n  dup2\n  add\n  0x40\n  dup2\n  swap1\n  mstore\n  tag_2\n  swap2\n  tag_3\n  jump\t// in\ntag_2:\n    /* \"Contracts/AuctionSPU.sol\":4075:4078  nft */\n  0x00\n    /* \"Contracts/AuctionSPU.sol\":4075:4094  nft = IERC721(_nft) */\n  dup1\n  sload\n  not(sub(shl(0xa0, 0x01), 0x01))\n  swap1\n  dup2\n  and\n  sub(shl(0xa0, 0x01), 0x01)\n  swap11\n  dup12\n  and\n  or\n  swap1\n  swap2\n  sstore\n  0x01\n    /* \"Contracts/AuctionSPU.sol\":4105:4119  nftId = _nftId */\n  swap5\n  swap1\n  swap5\n  sstore\n    /* \"Contracts/AuctionSPU.sol\":4132:4138  seller */\n  0x02\n    /* \"Contracts/AuctionSPU.sol\":4132:4160  seller = payable(msg.sender) */\n  dup1\n  sload\n    /* \"Contracts/AuctionSPU.sol\":4149:4159  msg.sender */\n  caller\n    /* \"Contracts/AuctionSPU.sol\":4132:4160  seller = payable(msg.sender) */\n  swap1\n  dup7\n  and\n  or\n  swap1\n  sstore\n    /* \"Contracts/AuctionSPU.sol\":4171:4181  feeAddress */\n  0x03\n    /* \"Contracts/AuctionSPU.sol\":4171:4203  feeAddress = payable(_feeAddres) */\n  dup1\n  sload\n  swap1\n  swap5\n  and\n  swap5\n  swap1\n  swap8\n  and\n  swap4\n  swap1\n  swap4\n  or\n  swap1\n  swap2\n  sstore\n    /* \"Contracts/AuctionSPU.sol\":4214:4224  highestBid */\n  0x0c\n    /* \"Contracts/AuctionSPU.sol\":4214:4239  highestBid = _startingBid */\n  sstore\n    /* \"Contracts/AuctionSPU.sol\":4250:4255  endAt */\n  0x06\n    /* \"Contracts/AuctionSPU.sol\":4250:4265  endAt = _period */\n  sstore\n  pop\n  pop\n    /* \"Contracts/AuctionSPU.sol\":4276:4290  transactionFee */\n  0x09\n    /* \"Contracts/AuctionSPU.sol\":4276:4308  transactionFee = _transactionFee */\n  sstore\n    /* \"Contracts/AuctionSPU.sol\":1528:12066  contract AuctionSPU {... */\n  jump(tag_8)\n    /* \"#utility.yul\":14:191   */\ntag_7:\n    /* \"#utility.yul\":93:106   */\n  dup1\n  mload\n  sub(shl(0xa0, 0x01), 0x01)\n    /* \"#utility.yul\":135:166   */\n  dup2\n  and\n    /* \"#utility.yul\":125:167   */\n  dup2\n  eq\n    /* \"#utility.yul\":115:185   */\n  tag_10\n  jumpi\n    /* \"#utility.yul\":181:182   */\n  0x00\n    /* \"#utility.yul\":178:179   */\n  dup1\n    /* \"#utility.yul\":171:183   */\n  revert\n    /* \"#utility.yul\":115:185   */\ntag_10:\n    /* \"#utility.yul\":14:191   */\n  swap2\n  swap1\n  pop\n  jump\t// out\n    /* \"#utility.yul\":196:884   */\ntag_3:\n    /* \"#utility.yul\":329:335   */\n  0x00\n    /* \"#utility.yul\":337:343   */\n  dup1\n    /* \"#utility.yul\":345:351   */\n  0x00\n    /* \"#utility.yul\":353:359   */\n  dup1\n    /* \"#utility.yul\":361:367   */\n  0x00\n    /* \"#utility.yul\":369:375   */\n  dup1\n    /* \"#utility.yul\":377:383   */\n  0x00\n    /* \"#utility.yul\":385:391   */\n  dup1\n    /* \"#utility.yul\":438:441   */\n  0x0100\n    /* \"#utility.yul\":426:435   */\n  dup10\n    /* \"#utility.yul\":417:424   */\n  dup12\n    /* \"#utility.yul\":413:436   */\n  sub\n    /* \"#utility.yul\":409:442   */\n  slt\n    /* \"#utility.yul\":406:459   */\n  iszero\n  tag_12\n  jumpi\n    /* \"#utility.yul\":455:456   */\n  0x00\n    /* \"#utility.yul\":452:453   */\n  dup1\n    /* \"#utility.yul\":445:457   */\n  revert\n    /* \"#utility.yul\":406:459   */\ntag_12:\n    /* \"#utility.yul\":478:518   */\n  tag_13\n    /* \"#utility.yul\":508:517   */\n  dup10\n    /* \"#utility.yul\":478:518   */\n  tag_7\n  jump\t// in\ntag_13:\n    /* \"#utility.yul\":468:518   */\n  swap8\n  pop\n    /* \"#utility.yul\":537:586   */\n  tag_14\n    /* \"#utility.yul\":582:584   */\n  0x20\n    /* \"#utility.yul\":571:580   */\n  dup11\n    /* \"#utility.yul\":567:585   */\n  add\n    /* \"#utility.yul\":537:586   */\n  tag_7\n  jump\t// in\ntag_14:\n    /* \"#utility.yul\":527:586   */\n  swap7\n  pop\n    /* \"#utility.yul\":626:628   */\n  0x40\n    /* \"#utility.yul\":615:624   */\n  dup10\n    /* \"#utility.yul\":611:629   */\n  add\n    /* \"#utility.yul\":605:630   */\n  mload\n    /* \"#utility.yul\":595:630   */\n  swap6\n  pop\n    /* \"#utility.yul\":649:698   */\n  tag_15\n    /* \"#utility.yul\":694:696   */\n  0x60\n    /* \"#utility.yul\":683:692   */\n  dup11\n    /* \"#utility.yul\":679:697   */\n  add\n    /* \"#utility.yul\":649:698   */\n  tag_7\n  jump\t// in\ntag_15:\n    /* \"#utility.yul\":639:698   */\n  swap5\n  pop\n    /* \"#utility.yul\":738:741   */\n  0x80\n    /* \"#utility.yul\":727:736   */\n  dup10\n    /* \"#utility.yul\":723:742   */\n  add\n    /* \"#utility.yul\":717:743   */\n  mload\n    /* \"#utility.yul\":707:743   */\n  swap4\n  pop\n    /* \"#utility.yul\":783:786   */\n  0xa0\n    /* \"#utility.yul\":772:781   */\n  dup10\n    /* \"#utility.yul\":768:787   */\n  add\n    /* \"#utility.yul\":762:788   */\n  mload\n    /* \"#utility.yul\":752:788   */\n  swap3\n  pop\n    /* \"#utility.yul\":828:831   */\n  0xc0\n    /* \"#utility.yul\":817:826   */\n  dup10\n    /* \"#utility.yul\":813:832   */\n  add\n    /* \"#utility.yul\":807:833   */\n  mload\n    /* \"#utility.yul\":797:833   */\n  swap2\n  pop\n    /* \"#utility.yul\":873:876   */\n  0xe0\n    /* \"#utility.yul\":862:871   */\n  dup10\n    /* \"#utility.yul\":858:877   */\n  add\n    /* \"#utility.yul\":852:878   */\n  mload\n    /* \"#utility.yul\":842:878   */\n  swap1\n  pop\n    /* \"#utility.yul\":196:884   */\n  swap3\n  swap6\n  swap9\n  pop\n  swap3\n  swap6\n  swap9\n  swap1\n  swap4\n  swap7\n  pop\n  jump\t// out\ntag_8:\n    /* \"Contracts/AuctionSPU.sol\":1528:12066  contract AuctionSPU {... */\n  dataSize(sub_0)\n  dup1\n  dataOffset(sub_0)\n  0x00\n  codecopy\n  0x00\n  return\nstop\n\nsub_0: assembly {\n        /* \"Contracts/AuctionSPU.sol\":1528:12066  contract AuctionSPU {... */\n      mstore(0x40, 0x80)\n      jumpi(tag_1, lt(calldatasize, 0x04))\n      shr(0xe0, calldataload(0x00))\n      dup1\n      0x5c975abb\n      gt\n      tag_28\n      jumpi\n      dup1\n      0xc683630d\n      gt\n      tag_29\n      jumpi\n      dup1\n      0xd57bde79\n      gt\n      tag_30\n      jumpi\n      dup1\n      0xd57bde79\n      eq\n      tag_24\n      jumpi\n      dup1\n      0xd6b4675b\n      eq\n      tag_25\n      jumpi\n      dup1\n      0xecefc705\n      eq\n      tag_26\n      jumpi\n      dup1\n      0xfe67a54b\n      eq\n      tag_27\n      jumpi\n      jump(tag_2)\n    tag_30:\n      dup1\n      0xc683630d\n      eq\n      tag_21\n      jumpi\n      dup1\n      0xc6bc5182\n      eq\n      tag_22\n      jumpi\n      dup1\n      0xceb16419\n      eq\n      tag_23\n      jumpi\n      jump(tag_2)\n    tag_29:\n      dup1\n      0x5c975abb\n      eq\n      tag_15\n      jumpi\n      dup1\n      0x6b64c769\n      eq\n      tag_16\n      jumpi\n      dup1\n      0x7cc3ae8c\n      eq\n      tag_17\n      jumpi\n      dup1\n      0x91f90157\n      eq\n      tag_18\n      jumpi\n      dup1\n      0x95ecc5cc\n      eq\n      tag_19\n      jumpi\n      dup1\n      0xb9ae7364\n      eq\n      tag_20\n      jumpi\n      jump(tag_2)\n    tag_28:\n      dup1\n      0x1f2698ab\n      gt\n      tag_31\n      jumpi\n      dup1\n      0x1f2698ab\n      eq\n      tag_9\n      jumpi\n      dup1\n      0x2aeee493\n      eq\n      tag_10\n      jumpi\n      dup1\n      0x378252f2\n      eq\n      tag_11\n      jumpi\n      dup1\n      0x41275358\n      eq\n      tag_12\n      jumpi\n      dup1\n      0x47ccca02\n      eq\n      tag_13\n      jumpi\n      dup1\n      0x53d6fd59\n      eq\n      tag_14\n      jumpi\n      jump(tag_2)\n    tag_31:\n      dup1\n      0x08551a53\n      eq\n      tag_3\n      jumpi\n      dup1\n      0x12065fe0\n      eq\n      tag_4\n      jumpi\n      dup1\n      0x12fa6feb\n      eq\n      tag_5\n      jumpi\n      dup1\n      0x17d531fc\n      eq\n      tag_6\n      jumpi\n      dup1\n      0x1cf5e669\n      eq\n      tag_7\n      jumpi\n      dup1\n      0x1df4ccfc\n      eq\n      tag_8\n      jumpi\n      jump(tag_2)\n    tag_1:\n      jumpi(tag_2, calldatasize)\n        /* \"Contracts/AuctionSPU.sol\":4591:4597  seller */\n      and(sub(shl(0xa0, 0x01), 0x01), sload(0x02))\n        /* \"Contracts/AuctionSPU.sol\":4577:4587  msg.sender */\n      caller\n        /* \"Contracts/AuctionSPU.sol\":4577:4597  msg.sender == seller */\n      eq\n        /* \"Contracts/AuctionSPU.sol\":4569:4621  require(msg.sender == seller, \"Sender is not owner\") */\n      tag_34\n      jumpi\n      mload(0x40)\n      shl(0xe5, 0x461bcd)\n      dup2\n      mstore\n      0x04\n      add\n      tag_35\n      swap1\n      tag_36\n      jump\t// in\n    tag_35:\n      mload(0x40)\n      dup1\n      swap2\n      sub\n      swap1\n      revert\n    tag_34:\n        /* \"Contracts/AuctionSPU.sol\":1528:12066  contract AuctionSPU {... */\n      stop\n    tag_2:\n        /* \"Contracts/AuctionSPU.sol\":4591:4597  seller */\n      and(sub(shl(0xa0, 0x01), 0x01), sload(0x02))\n        /* \"Contracts/AuctionSPU.sol\":4577:4587  msg.sender */\n      caller\n        /* \"Contracts/AuctionSPU.sol\":4577:4597  msg.sender == seller */\n      eq\n        /* \"Contracts/AuctionSPU.sol\":4569:4621  require(msg.sender == seller, \"Sender is not owner\") */\n      tag_34\n      jumpi\n      mload(0x40)\n      shl(0xe5, 0x461bcd)\n      dup2\n      mstore\n      0x04\n      add\n      tag_35\n      swap1\n      tag_36\n      jump\t// in\n        /* \"Contracts/AuctionSPU.sol\":2548:2577  address payable public seller */\n    tag_3:\n      callvalue\n      dup1\n      iszero\n      tag_43\n      jumpi\n      0x00\n      dup1\n      revert\n    tag_43:\n      pop\n      sload(0x02)\n      tag_44\n      swap1\n      sub(shl(0xa0, 0x01), 0x01)\n      and\n      dup2\n      jump\n    tag_44:\n      mload(0x40)\n      sub(shl(0xa0, 0x01), 0x01)\n        /* \"#utility.yul\":542:574   */\n      swap1\n      swap2\n      and\n        /* \"#utility.yul\":524:575   */\n      dup2\n      mstore\n        /* \"#utility.yul\":512:514   */\n      0x20\n        /* \"#utility.yul\":497:515   */\n      add\n        /* \"Contracts/AuctionSPU.sol\":2548:2577  address payable public seller */\n    tag_46:\n      mload(0x40)\n      dup1\n      swap2\n      sub\n      swap1\n      return\n        /* \"Contracts/AuctionSPU.sol\":5467:5563  function getBalance() public view returns (uint) {... */\n    tag_4:\n      callvalue\n      dup1\n      iszero\n      tag_48\n      jumpi\n      0x00\n      dup1\n      revert\n    tag_48:\n      pop\n        /* \"Contracts/AuctionSPU.sol\":5534:5555  address(this).balance */\n      selfbalance\n        /* \"Contracts/AuctionSPU.sol\":5467:5563  function getBalance() public view returns (uint) {... */\n    tag_49:\n      mload(0x40)\n        /* \"#utility.yul\":732:757   */\n      swap1\n      dup2\n      mstore\n        /* \"#utility.yul\":720:722   */\n      0x20\n        /* \"#utility.yul\":705:723   */\n      add\n        /* \"Contracts/AuctionSPU.sol\":5467:5563  function getBalance() public view returns (uint) {... */\n      tag_46\n        /* \"#utility.yul\":586:763   */\n      jump\n        /* \"Contracts/AuctionSPU.sol\":2738:2755  bool public ended */\n    tag_5:\n      callvalue\n      dup1\n      iszero\n      tag_53\n      jumpi\n      0x00\n      dup1\n      revert\n    tag_53:\n      pop\n      sload(0x07)\n      tag_54\n      swap1\n      0x0100\n      swap1\n      div\n      0xff\n      and\n      dup2\n      jump\n    tag_54:\n      mload(0x40)\n        /* \"#utility.yul\":933:947   */\n      swap1\n      iszero\n        /* \"#utility.yul\":926:948   */\n      iszero\n        /* \"#utility.yul\":908:949   */\n      dup2\n      mstore\n        /* \"#utility.yul\":896:898   */\n      0x20\n        /* \"#utility.yul\":881:899   */\n      add\n        /* \"Contracts/AuctionSPU.sol\":2738:2755  bool public ended */\n      tag_46\n        /* \"#utility.yul\":768:955   */\n      jump\n        /* \"Contracts/AuctionSPU.sol\":2787:2811  uint public numberOfBids */\n    tag_6:\n      callvalue\n      dup1\n      iszero\n      tag_58\n      jumpi\n      0x00\n      dup1\n      revert\n    tag_58:\n      pop\n      tag_49\n      sload(0x08)\n      dup2\n      jump\n        /* \"Contracts/AuctionSPU.sol\":2624:2651  address public docsRegister */\n    tag_7:\n      callvalue\n      dup1\n      iszero\n      tag_62\n      jumpi\n      0x00\n      dup1\n      revert\n    tag_62:\n      pop\n      sload(0x04)\n      tag_44\n      swap1\n      sub(shl(0xa0, 0x01), 0x01)\n      and\n      dup2\n      jump\n        /* \"Contracts/AuctionSPU.sol\":2896:2916  uint public totalFee */\n    tag_8:\n      callvalue\n      dup1\n      iszero\n      tag_67\n      jumpi\n      0x00\n      dup1\n      revert\n    tag_67:\n      pop\n      tag_49\n      sload(0x0a)\n      dup2\n      jump\n        /* \"Contracts/AuctionSPU.sol\":2712:2731  bool public started */\n    tag_9:\n      callvalue\n      dup1\n      iszero\n      tag_71\n      jumpi\n      0x00\n      dup1\n      revert\n    tag_71:\n      pop\n      sload(0x07)\n      tag_54\n      swap1\n      0xff\n      and\n      dup2\n      jump\n        /* \"Contracts/AuctionSPU.sol\":7565:8975  function newBid(... */\n    tag_10:\n      tag_34\n      tag_76\n      calldatasize\n      0x04\n      tag_77\n      jump\t// in\n    tag_76:\n      tag_78\n      jump\t// in\n        /* \"Contracts/AuctionSPU.sol\":9940:11122  function closeAuction() external onlyOwner {... */\n    tag_11:\n      callvalue\n      dup1\n      iszero\n      tag_79\n      jumpi\n      0x00\n      dup1\n      revert\n    tag_79:\n      pop\n      tag_34\n      tag_81\n      jump\t// in\n        /* \"Contracts/AuctionSPU.sol\":2584:2617  address payable public feeAddress */\n    tag_12:\n      callvalue\n      dup1\n      iszero\n      tag_82\n      jumpi\n      0x00\n      dup1\n      revert\n    tag_82:\n      pop\n      sload(0x03)\n      tag_44\n      swap1\n      sub(shl(0xa0, 0x01), 0x01)\n      and\n      dup2\n      jump\n        /* \"Contracts/AuctionSPU.sol\":2499:2517  IERC721 public nft */\n    tag_13:\n      callvalue\n      dup1\n      iszero\n      tag_86\n      jumpi\n      0x00\n      dup1\n      revert\n    tag_86:\n      pop\n      sload(0x00)\n      tag_44\n      swap1\n      sub(shl(0xa0, 0x01), 0x01)\n      and\n      dup2\n      jump\n        /* \"Contracts/AuctionSPU.sol\":11322:11497  function setWhitelist(address _account, bool enable) external onlyOwner {... */\n    tag_14:\n      callvalue\n      dup1\n      iszero\n      tag_91\n      jumpi\n      0x00\n      dup1\n      revert\n    tag_91:\n      pop\n      tag_34\n      tag_93\n      calldatasize\n      0x04\n      tag_94\n      jump\t// in\n    tag_93:\n      tag_95\n      jump\t// in\n        /* \"Contracts/AuctionSPU.sol\":2762:2780  bool public paused */\n    tag_15:\n      callvalue\n      dup1\n      iszero\n      tag_96\n      jumpi\n      0x00\n      dup1\n      revert\n    tag_96:\n      pop\n      sload(0x07)\n      tag_54\n      swap1\n      0x010000\n      swap1\n      div\n      0xff\n      and\n      dup2\n      jump\n        /* \"Contracts/AuctionSPU.sol\":5683:5901  function startAuction() external onlyOwner {... */\n    tag_16:\n      callvalue\n      dup1\n      iszero\n      tag_100\n      jumpi\n      0x00\n      dup1\n      revert\n    tag_100:\n      pop\n      tag_34\n      tag_102\n      jump\t// in\n        /* \"Contracts/AuctionSPU.sol\":2688:2705  uint public endAt */\n    tag_17:\n      callvalue\n      dup1\n      iszero\n      tag_103\n      jumpi\n      0x00\n      dup1\n      revert\n    tag_103:\n      pop\n      tag_49\n      sload(0x06)\n      dup2\n      jump\n        /* \"Contracts/AuctionSPU.sol\":2923:2951  address public highestBidder */\n    tag_18:\n      callvalue\n      dup1\n      iszero\n      tag_107\n      jumpi\n      0x00\n      dup1\n      revert\n    tag_107:\n      pop\n      sload(0x0b)\n      tag_44\n      swap1\n      sub(shl(0xa0, 0x01), 0x01)\n      and\n      dup2\n      jump\n        /* \"Contracts/AuctionSPU.sol\":3144:3191  mapping(address => Bidders) public receivedBids */\n    tag_19:\n      callvalue\n      dup1\n      iszero\n      tag_111\n      jumpi\n      0x00\n      dup1\n      revert\n    tag_111:\n      pop\n      tag_112\n      tag_113\n      calldatasize\n      0x04\n      tag_114\n      jump\t// in\n    tag_113:\n      mstore(0x20, 0x0d)\n      0x00\n      swap1\n      dup2\n      mstore\n      0x40\n      swap1\n      keccak256\n      dup1\n      sload\n      0x01\n      dup3\n      add\n      sload\n      0x02\n      dup4\n      add\n      sload\n      0x03\n      dup5\n      add\n      sload\n      0x04\n      swap1\n      swap5\n      add\n      sload\n      swap3\n      swap4\n      swap2\n      swap3\n      swap1\n      swap2\n      swap1\n      dup6\n      jump\n    tag_112:\n      0x40\n      dup1\n      mload\n        /* \"#utility.yul\":2760:2785   */\n      swap6\n      dup7\n      mstore\n        /* \"#utility.yul\":2816:2818   */\n      0x20\n        /* \"#utility.yul\":2801:2819   */\n      dup7\n      add\n        /* \"#utility.yul\":2794:2828   */\n      swap5\n      swap1\n      swap5\n      mstore\n        /* \"#utility.yul\":2844:2862   */\n      swap3\n      dup5\n      add\n        /* \"#utility.yul\":2837:2871   */\n      swap2\n      swap1\n      swap2\n      mstore\n        /* \"#utility.yul\":2902:2904   */\n      0x60\n        /* \"#utility.yul\":2887:2905   */\n      dup4\n      add\n        /* \"#utility.yul\":2880:2914   */\n      mstore\n        /* \"#utility.yul\":2945:2948   */\n      0x80\n        /* \"#utility.yul\":2930:2949   */\n      dup3\n      add\n        /* \"#utility.yul\":2923:2958   */\n      mstore\n        /* \"#utility.yul\":2747:2750   */\n      0xa0\n        /* \"#utility.yul\":2732:2751   */\n      add\n        /* \"Contracts/AuctionSPU.sol\":3144:3191  mapping(address => Bidders) public receivedBids */\n      tag_46\n        /* \"#utility.yul\":2501:2964   */\n      jump\n        /* \"Contracts/AuctionSPU.sol\":6397:6561  function pauseAuction() external onlyOwner {... */\n    tag_20:\n      callvalue\n      dup1\n      iszero\n      tag_118\n      jumpi\n      0x00\n      dup1\n      revert\n    tag_118:\n      pop\n      tag_34\n      tag_120\n      jump\t// in\n        /* \"Contracts/AuctionSPU.sol\":11949:12063  function isWhitelist(address _account) public view returns (bool) {... */\n    tag_21:\n      callvalue\n      dup1\n      iszero\n      tag_121\n      jumpi\n      0x00\n      dup1\n      revert\n    tag_121:\n      pop\n      tag_54\n      tag_123\n      calldatasize\n      0x04\n      tag_114\n      jump\t// in\n    tag_123:\n      tag_124\n      jump\t// in\n        /* \"Contracts/AuctionSPU.sol\":2524:2541  uint public nftId */\n    tag_22:\n      callvalue\n      dup1\n      iszero\n      tag_126\n      jumpi\n      0x00\n      dup1\n      revert\n    tag_126:\n      pop\n      tag_49\n      sload(0x01)\n      dup2\n      jump\n        /* \"Contracts/AuctionSPU.sol\":6693:6862  function unpauseAuction() external onlyOwner {... */\n    tag_23:\n      callvalue\n      dup1\n      iszero\n      tag_130\n      jumpi\n      0x00\n      dup1\n      revert\n    tag_130:\n      pop\n      tag_34\n      tag_132\n      jump\t// in\n        /* \"Contracts/AuctionSPU.sol\":2958:2980  uint public highestBid */\n    tag_24:\n      callvalue\n      dup1\n      iszero\n      tag_133\n      jumpi\n      0x00\n      dup1\n      revert\n    tag_133:\n      pop\n      tag_49\n      sload(0x0c)\n      dup2\n      jump\n        /* \"Contracts/AuctionSPU.sol\":2658:2681  uint public docsProcess */\n    tag_25:\n      callvalue\n      dup1\n      iszero\n      tag_137\n      jumpi\n      0x00\n      dup1\n      revert\n    tag_137:\n      pop\n      tag_49\n      sload(0x05)\n      dup2\n      jump\n        /* \"Contracts/AuctionSPU.sol\":2852:2889  uint public constant FEE_BASE = 10000 */\n    tag_26:\n      callvalue\n      dup1\n      iszero\n      tag_141\n      jumpi\n      0x00\n      dup1\n      revert\n    tag_141:\n      pop\n      tag_49\n        /* \"Contracts/AuctionSPU.sol\":2884:2889  10000 */\n      0x2710\n        /* \"Contracts/AuctionSPU.sol\":2852:2889  uint public constant FEE_BASE = 10000 */\n      dup2\n      jump\n        /* \"Contracts/AuctionSPU.sol\":6025:6269  function endAuction() external onlyOwner auctionStarted {... */\n    tag_27:\n      callvalue\n      dup1\n      iszero\n      tag_145\n      jumpi\n      0x00\n      dup1\n      revert\n    tag_145:\n      pop\n      tag_34\n      tag_147\n      jump\t// in\n        /* \"Contracts/AuctionSPU.sol\":7565:8975  function newBid(... */\n    tag_78:\n        /* \"Contracts/AuctionSPU.sol\":5049:5056  started */\n      and(0xff, sload(0x07))\n        /* \"Contracts/AuctionSPU.sol\":5041:5076  require(started, \"Not Started Yet\") */\n      tag_150\n      jumpi\n      mload(0x40)\n      shl(0xe5, 0x461bcd)\n      dup2\n      mstore\n        /* \"#utility.yul\":3171:3173   */\n      0x20\n        /* \"Contracts/AuctionSPU.sol\":5041:5076  require(started, \"Not Started Yet\") */\n      0x04\n      dup3\n      add\n        /* \"#utility.yul\":3153:3174   */\n      mstore\n        /* \"#utility.yul\":3210:3212   */\n      0x0f\n        /* \"#utility.yul\":3190:3208   */\n      0x24\n      dup3\n      add\n        /* \"#utility.yul\":3183:3213   */\n      mstore\n      shl(0x8a, 0x139bdd0814dd185c9d19590816595d)\n        /* \"#utility.yul\":3229:3247   */\n      0x44\n      dup3\n      add\n        /* \"#utility.yul\":3222:3267   */\n      mstore\n        /* \"#utility.yul\":3284:3302   */\n      0x64\n      add\n        /* \"Contracts/AuctionSPU.sol\":5041:5076  require(started, \"Not Started Yet\") */\n      tag_35\n        /* \"#utility.yul\":2969:3308   */\n      jump\n        /* \"Contracts/AuctionSPU.sol\":5041:5076  require(started, \"Not Started Yet\") */\n    tag_150:\n        /* \"Contracts/AuctionSPU.sol\":4817:4823  paused */\n      sload(0x07)\n      0x010000\n      swap1\n      div\n      0xff\n      and\n        /* \"Contracts/AuctionSPU.sol\":4816:4823  !paused */\n      iszero\n        /* \"Contracts/AuctionSPU.sol\":4808:4842  require(!paused, \"Auction Paused\") */\n      tag_154\n      jumpi\n      mload(0x40)\n      shl(0xe5, 0x461bcd)\n      dup2\n      mstore\n        /* \"#utility.yul\":3515:3517   */\n      0x20\n        /* \"Contracts/AuctionSPU.sol\":4808:4842  require(!paused, \"Auction Paused\") */\n      0x04\n      dup3\n      add\n        /* \"#utility.yul\":3497:3518   */\n      mstore\n        /* \"#utility.yul\":3554:3556   */\n      0x0e\n        /* \"#utility.yul\":3534:3552   */\n      0x24\n      dup3\n      add\n        /* \"#utility.yul\":3527:3557   */\n      mstore\n      shl(0x92, 0x105d58dd1a5bdb8814185d5cd959)\n        /* \"#utility.yul\":3573:3591   */\n      0x44\n      dup3\n      add\n        /* \"#utility.yul\":3566:3610   */\n      mstore\n        /* \"#utility.yul\":3627:3645   */\n      0x64\n      add\n        /* \"Contracts/AuctionSPU.sol\":4808:4842  require(!paused, \"Auction Paused\") */\n      tag_35\n        /* \"#utility.yul\":3313:3651   */\n      jump\n        /* \"Contracts/AuctionSPU.sol\":4808:4842  require(!paused, \"Auction Paused\") */\n    tag_154:\n        /* \"Contracts/AuctionSPU.sol\":7776:7781  endAt */\n      sload(0x06)\n        /* \"Contracts/AuctionSPU.sol\":7758:7773  block.timestamp */\n      timestamp\n        /* \"Contracts/AuctionSPU.sol\":7758:7781  block.timestamp < endAt */\n      lt\n        /* \"Contracts/AuctionSPU.sol\":7750:7799  require(block.timestamp < endAt, \"Already ended\") */\n      tag_158\n      jumpi\n      mload(0x40)\n      shl(0xe5, 0x461bcd)\n      dup2\n      mstore\n        /* \"#utility.yul\":3858:3860   */\n      0x20\n        /* \"Contracts/AuctionSPU.sol\":7750:7799  require(block.timestamp < endAt, \"Already ended\") */\n      0x04\n      dup3\n      add\n        /* \"#utility.yul\":3840:3861   */\n      mstore\n        /* \"#utility.yul\":3897:3899   */\n      0x0d\n        /* \"#utility.yul\":3877:3895   */\n      0x24\n      dup3\n      add\n        /* \"#utility.yul\":3870:3900   */\n      mstore\n      shl(0x9a, 0x105b1c9958591e48195b991959)\n        /* \"#utility.yul\":3916:3934   */\n      0x44\n      dup3\n      add\n        /* \"#utility.yul\":3909:3952   */\n      mstore\n        /* \"#utility.yul\":3969:3987   */\n      0x64\n      add\n        /* \"Contracts/AuctionSPU.sol\":7750:7799  require(block.timestamp < endAt, \"Already ended\") */\n      tag_35\n        /* \"#utility.yul\":3656:3993   */\n      jump\n        /* \"Contracts/AuctionSPU.sol\":7750:7799  require(block.timestamp < endAt, \"Already ended\") */\n    tag_158:\n        /* \"Contracts/AuctionSPU.sol\":7832:7838  seller */\n      and(sub(shl(0xa0, 0x01), 0x01), sload(0x02))\n        /* \"Contracts/AuctionSPU.sol\":7818:7828  msg.sender */\n      caller\n        /* \"Contracts/AuctionSPU.sol\":7818:7838  msg.sender != seller */\n      sub\n        /* \"Contracts/AuctionSPU.sol\":7810:7861  require(msg.sender != seller, \"Seller not allowed\") */\n      tag_161\n      jumpi\n      mload(0x40)\n      shl(0xe5, 0x461bcd)\n      dup2\n      mstore\n        /* \"#utility.yul\":4200:4202   */\n      0x20\n        /* \"Contracts/AuctionSPU.sol\":7810:7861  require(msg.sender != seller, \"Seller not allowed\") */\n      0x04\n      dup3\n      add\n        /* \"#utility.yul\":4182:4203   */\n      mstore\n        /* \"#utility.yul\":4239:4241   */\n      0x12\n        /* \"#utility.yul\":4219:4237   */\n      0x24\n      dup3\n      add\n        /* \"#utility.yul\":4212:4242   */\n      mstore\n      shl(0x72, 0x14d95b1b195c881b9bdd08185b1b1bddd959)\n        /* \"#utility.yul\":4258:4276   */\n      0x44\n      dup3\n      add\n        /* \"#utility.yul\":4251:4299   */\n      mstore\n        /* \"#utility.yul\":4316:4334   */\n      0x64\n      add\n        /* \"Contracts/AuctionSPU.sol\":7810:7861  require(msg.sender != seller, \"Seller not allowed\") */\n      tag_35\n        /* \"#utility.yul\":3998:4340   */\n      jump\n        /* \"Contracts/AuctionSPU.sol\":7810:7861  require(msg.sender != seller, \"Seller not allowed\") */\n    tag_161:\n        /* \"Contracts/AuctionSPU.sol\":7893:7903  msg.sender */\n      caller\n        /* \"Contracts/AuctionSPU.sol\":11729:11733  bool */\n      0x00\n        /* \"Contracts/AuctionSPU.sol\":11753:11773  _whitelist[_account] */\n      swap1\n      dup2\n      mstore\n        /* \"Contracts/AuctionSPU.sol\":11753:11763  _whitelist */\n      0x0e\n        /* \"Contracts/AuctionSPU.sol\":11753:11773  _whitelist[_account] */\n      0x20\n      mstore\n      0x40\n      swap1\n      keccak256\n      sload\n      0xff\n      and\n        /* \"Contracts/AuctionSPU.sol\":7872:7926  require(_isWhitelist(msg.sender), \"Permission denied\") */\n      tag_166\n      jumpi\n      mload(0x40)\n      shl(0xe5, 0x461bcd)\n      dup2\n      mstore\n        /* \"#utility.yul\":4547:4549   */\n      0x20\n        /* \"Contracts/AuctionSPU.sol\":7872:7926  require(_isWhitelist(msg.sender), \"Permission denied\") */\n      0x04\n      dup3\n      add\n        /* \"#utility.yul\":4529:4550   */\n      mstore\n        /* \"#utility.yul\":4586:4588   */\n      0x11\n        /* \"#utility.yul\":4566:4584   */\n      0x24\n      dup3\n      add\n        /* \"#utility.yul\":4559:4589   */\n      mstore\n      shl(0x7a, 0x14195c9b5a5cdcda5bdb8819195b9a5959)\n        /* \"#utility.yul\":4605:4623   */\n      0x44\n      dup3\n      add\n        /* \"#utility.yul\":4598:4645   */\n      mstore\n        /* \"#utility.yul\":4662:4680   */\n      0x64\n      add\n        /* \"Contracts/AuctionSPU.sol\":7872:7926  require(_isWhitelist(msg.sender), \"Permission denied\") */\n      tag_35\n        /* \"#utility.yul\":4345:4686   */\n      jump\n        /* \"Contracts/AuctionSPU.sol\":7872:7926  require(_isWhitelist(msg.sender), \"Permission denied\") */\n    tag_166:\n        /* \"Contracts/AuctionSPU.sol\":7958:7968  highestBid */\n      sload(0x0c)\n        /* \"Contracts/AuctionSPU.sol\":7945:7955  _realValue */\n      dup4\n        /* \"Contracts/AuctionSPU.sol\":7945:7968  _realValue > highestBid */\n      gt\n        /* \"Contracts/AuctionSPU.sol\":7937:7982  require(_realValue > highestBid, \"Lower Bid\") */\n      tag_169\n      jumpi\n      mload(0x40)\n      shl(0xe5, 0x461bcd)\n      dup2\n      mstore\n        /* \"#utility.yul\":4893:4895   */\n      0x20\n        /* \"Contracts/AuctionSPU.sol\":7937:7982  require(_realValue > highestBid, \"Lower Bid\") */\n      0x04\n      dup3\n      add\n        /* \"#utility.yul\":4875:4896   */\n      mstore\n        /* \"#utility.yul\":4932:4933   */\n      0x09\n        /* \"#utility.yul\":4912:4930   */\n      0x24\n      dup3\n      add\n        /* \"#utility.yul\":4905:4934   */\n      mstore\n      shl(0xba, 0x131bddd95c88109a59)\n        /* \"#utility.yul\":4950:4968   */\n      0x44\n      dup3\n      add\n        /* \"#utility.yul\":4943:4982   */\n      mstore\n        /* \"#utility.yul\":4999:5017   */\n      0x64\n      add\n        /* \"Contracts/AuctionSPU.sol\":7937:7982  require(_realValue > highestBid, \"Lower Bid\") */\n      tag_35\n        /* \"#utility.yul\":4691:5023   */\n      jump\n        /* \"Contracts/AuctionSPU.sol\":7937:7982  require(_realValue > highestBid, \"Lower Bid\") */\n    tag_169:\n        /* \"Contracts/AuctionSPU.sol\":8031:8045  transactionFee */\n      sload(0x09)\n        /* \"Contracts/AuctionSPU.sol\":7995:8003  uint fee */\n      0x00\n      swap1\n        /* \"Contracts/AuctionSPU.sol\":8007:8027  msg.value / FEE_BASE */\n      tag_172\n        /* \"Contracts/AuctionSPU.sol\":2884:2889  10000 */\n      0x2710\n        /* \"Contracts/AuctionSPU.sol\":8007:8016  msg.value */\n      callvalue\n        /* \"Contracts/AuctionSPU.sol\":8007:8027  msg.value / FEE_BASE */\n      tag_173\n      jump\t// in\n    tag_172:\n        /* \"Contracts/AuctionSPU.sol\":8006:8045  (msg.value / FEE_BASE) * transactionFee */\n      tag_174\n      swap2\n      swap1\n      tag_175\n      jump\t// in\n    tag_174:\n        /* \"Contracts/AuctionSPU.sol\":7995:8045  uint fee = (msg.value / FEE_BASE) * transactionFee */\n      swap1\n      pop\n        /* \"Contracts/AuctionSPU.sol\":8068:8071  fee */\n      dup1\n        /* \"Contracts/AuctionSPU.sol\":8056:8064  totalFee */\n      0x0a\n      0x00\n        /* \"Contracts/AuctionSPU.sol\":8056:8071  totalFee += fee */\n      dup3\n      dup3\n      sload\n      tag_176\n      swap2\n      swap1\n      tag_177\n      jump\t// in\n    tag_176:\n      swap1\n      swap2\n      sstore\n      pop\n      pop\n        /* \"Contracts/AuctionSPU.sol\":8093:8106  highestBidder */\n      and(sub(shl(0xa0, 0x01), 0x01), sload(0x0b))\n      0x00\n        /* \"Contracts/AuctionSPU.sol\":8108:8135  receivedBids[highestBidder] */\n      dup2\n      dup2\n      mstore\n        /* \"Contracts/AuctionSPU.sol\":8108:8120  receivedBids */\n      0x0d\n        /* \"Contracts/AuctionSPU.sol\":8108:8135  receivedBids[highestBidder] */\n      0x20\n      mstore\n      0x40\n      swap1\n      keccak256\n        /* \"Contracts/AuctionSPU.sol\":8108:8143  receivedBids[highestBidder].downpay */\n      0x04\n      add\n      sload\n        /* \"Contracts/AuctionSPU.sol\":8084:8144  cashback(highestBidder, receivedBids[highestBidder].downpay) */\n      tag_178\n      swap2\n        /* \"Contracts/AuctionSPU.sol\":8093:8106  highestBidder */\n      swap1\n        /* \"Contracts/AuctionSPU.sol\":8084:8092  cashback */\n      tag_179\n        /* \"Contracts/AuctionSPU.sol\":8084:8144  cashback(highestBidder, receivedBids[highestBidder].downpay) */\n      jump\t// in\n    tag_178:\n        /* \"Contracts/AuctionSPU.sol\":8174:8184  msg.sender */\n      caller\n        /* \"Contracts/AuctionSPU.sol\":8161:8185  receivedBids[msg.sender] */\n      0x00\n      swap1\n      dup2\n      mstore\n        /* \"Contracts/AuctionSPU.sol\":8161:8173  receivedBids */\n      0x0d\n        /* \"Contracts/AuctionSPU.sol\":8161:8185  receivedBids[msg.sender] */\n      0x20\n      mstore\n      0x40\n      swap1\n      keccak256\n        /* \"Contracts/AuctionSPU.sol\":8161:8196  receivedBids[msg.sender].totalValue */\n      sload\n        /* \"Contracts/AuctionSPU.sol\":8161:8201  receivedBids[msg.sender].totalValue != 0 */\n      iszero\n        /* \"Contracts/AuctionSPU.sol\":8157:8822  if (receivedBids[msg.sender].totalValue != 0) {... */\n      tag_180\n      jumpi\n        /* \"Contracts/AuctionSPU.sol\":8253:8268  msg.value - fee */\n      tag_181\n        /* \"Contracts/AuctionSPU.sol\":8265:8268  fee */\n      dup2\n        /* \"Contracts/AuctionSPU.sol\":8253:8262  msg.value */\n      callvalue\n        /* \"Contracts/AuctionSPU.sol\":8253:8268  msg.value - fee */\n      tag_182\n      jump\t// in\n    tag_181:\n        /* \"Contracts/AuctionSPU.sol\":8231:8241  msg.sender */\n      caller\n        /* \"Contracts/AuctionSPU.sol\":8218:8242  receivedBids[msg.sender] */\n      0x00\n      swap1\n      dup2\n      mstore\n        /* \"Contracts/AuctionSPU.sol\":8218:8230  receivedBids */\n      0x0d\n        /* \"Contracts/AuctionSPU.sol\":8218:8242  receivedBids[msg.sender] */\n      0x20\n      mstore\n      0x40\n      swap1\n      keccak256\n        /* \"Contracts/AuctionSPU.sol\":8218:8250  receivedBids[msg.sender].downpay */\n      0x04\n      dup2\n      add\n        /* \"Contracts/AuctionSPU.sol\":8218:8268  receivedBids[msg.sender].downpay = msg.value - fee */\n      swap2\n      swap1\n      swap2\n      sstore\n        /* \"Contracts/AuctionSPU.sol\":8283:8317  receivedBids[msg.sender].realValue */\n      0x01\n      dup2\n      add\n        /* \"Contracts/AuctionSPU.sol\":8283:8330  receivedBids[msg.sender].realValue = _realValue */\n      dup6\n      swap1\n      sstore\n        /* \"Contracts/AuctionSPU.sol\":8345:8394  receivedBids[msg.sender].totalValue = _totalValue */\n      dup6\n      dup2\n      sstore\n        /* \"Contracts/AuctionSPU.sol\":8409:8441  receivedBids[msg.sender].portion */\n      0x02\n      dup2\n      add\n        /* \"Contracts/AuctionSPU.sol\":8409:8452  receivedBids[msg.sender].portion = _portion */\n      dup5\n      swap1\n      sstore\n      0x03\n        /* \"Contracts/AuctionSPU.sol\":8467:8503  receivedBids[msg.sender].clientScore */\n      add\n        /* \"Contracts/AuctionSPU.sol\":8467:8518  receivedBids[msg.sender].clientScore = _clientScore */\n      dup3\n      swap1\n      sstore\n        /* \"Contracts/AuctionSPU.sol\":8157:8822  if (receivedBids[msg.sender].totalValue != 0) {... */\n      jump(tag_183)\n    tag_180:\n        /* \"Contracts/AuctionSPU.sol\":8551:8567  Bidders memory b */\n      tag_184\n      mload(0x40)\n      dup1\n      0xa0\n      add\n      0x40\n      mstore\n      dup1\n      0x00\n      dup2\n      mstore\n      0x20\n      add\n      0x00\n      dup2\n      mstore\n      0x20\n      add\n      0x00\n      dup2\n      mstore\n      0x20\n      add\n      0x00\n      dup2\n      mstore\n      0x20\n      add\n      0x00\n      dup2\n      mstore\n      pop\n      swap1\n      jump\n    tag_184:\n        /* \"Contracts/AuctionSPU.sol\":8594:8609  msg.value - fee */\n      tag_186\n        /* \"Contracts/AuctionSPU.sol\":8606:8609  fee */\n      dup3\n        /* \"Contracts/AuctionSPU.sol\":8594:8603  msg.value */\n      callvalue\n        /* \"Contracts/AuctionSPU.sol\":8594:8609  msg.value - fee */\n      tag_182\n      jump\t// in\n    tag_186:\n        /* \"Contracts/AuctionSPU.sol\":8582:8591  b.downpay */\n      0x80\n      dup3\n      add\n        /* \"Contracts/AuctionSPU.sol\":8582:8609  b.downpay = msg.value - fee */\n      swap1\n      dup2\n      mstore\n        /* \"Contracts/AuctionSPU.sol\":8624:8650  b.totalValue = _totalValue */\n      dup7\n      dup3\n      mstore\n        /* \"Contracts/AuctionSPU.sol\":8665:8676  b.realValue */\n      0x20\n      dup1\n      dup4\n      add\n        /* \"Contracts/AuctionSPU.sol\":8665:8689  b.realValue = _realValue */\n      dup8\n      dup2\n      mstore\n        /* \"Contracts/AuctionSPU.sol\":8704:8713  b.portion */\n      0x40\n      dup1\n      dup6\n      add\n        /* \"Contracts/AuctionSPU.sol\":8704:8724  b.portion = _portion */\n      dup9\n      dup2\n      mstore\n      0x60\n        /* \"Contracts/AuctionSPU.sol\":8739:8752  b.clientScore */\n      dup7\n      add\n        /* \"Contracts/AuctionSPU.sol\":8739:8767  b.clientScore = _clientScore */\n      dup9\n      dup2\n      mstore\n        /* \"Contracts/AuctionSPU.sol\":8795:8805  msg.sender */\n      caller\n        /* \"Contracts/AuctionSPU.sol\":8624:8636  b.totalValue */\n      0x00\n        /* \"Contracts/AuctionSPU.sol\":8782:8806  receivedBids[msg.sender] */\n      swap1\n      dup2\n      mstore\n        /* \"Contracts/AuctionSPU.sol\":8782:8794  receivedBids */\n      0x0d\n        /* \"Contracts/AuctionSPU.sol\":8782:8806  receivedBids[msg.sender] */\n      swap1\n      swap6\n      mstore\n      swap2\n      swap1\n      swap4\n      keccak256\n        /* \"Contracts/AuctionSPU.sol\":8782:8810  receivedBids[msg.sender] = b */\n      swap5\n      mload\n      dup6\n      sstore\n      swap1\n      mload\n      0x01\n      dup6\n      add\n      sstore\n      swap1\n      mload\n      0x02\n      dup5\n      add\n      sstore\n      mload\n      0x03\n      dup4\n      add\n      sstore\n      mload\n      0x04\n      swap1\n      swap2\n      add\n      sstore\n        /* \"Contracts/AuctionSPU.sol\":8157:8822  if (receivedBids[msg.sender].totalValue != 0) {... */\n    tag_183:\n        /* \"Contracts/AuctionSPU.sol\":8834:8847  highestBidder */\n      0x0b\n        /* \"Contracts/AuctionSPU.sol\":8834:8860  highestBidder = msg.sender */\n      dup1\n      sload\n      not(sub(shl(0xa0, 0x01), 0x01))\n      and\n        /* \"Contracts/AuctionSPU.sol\":8850:8860  msg.sender */\n      caller\n        /* \"Contracts/AuctionSPU.sol\":8834:8860  highestBidder = msg.sender */\n      or\n      swap1\n      sstore\n        /* \"Contracts/AuctionSPU.sol\":8871:8881  highestBid */\n      0x0c\n        /* \"Contracts/AuctionSPU.sol\":8871:8894  highestBid = _realValue */\n      dup5\n      swap1\n      sstore\n        /* \"Contracts/AuctionSPU.sol\":8905:8917  numberOfBids */\n      0x08\n        /* \"Contracts/AuctionSPU.sol\":8905:8922  numberOfBids += 1 */\n      dup1\n      sload\n        /* \"Contracts/AuctionSPU.sol\":8834:8860  highestBidder = msg.sender */\n      0x01\n      swap2\n        /* \"Contracts/AuctionSPU.sol\":8905:8917  numberOfBids */\n      swap1\n        /* \"Contracts/AuctionSPU.sol\":8834:8847  highestBidder */\n      0x00\n      swap1\n        /* \"Contracts/AuctionSPU.sol\":8905:8922  numberOfBids += 1 */\n      tag_187\n      swap1\n        /* \"Contracts/AuctionSPU.sol\":8834:8860  highestBidder = msg.sender */\n      dup5\n      swap1\n        /* \"Contracts/AuctionSPU.sol\":8905:8922  numberOfBids += 1 */\n      tag_177\n      jump\t// in\n    tag_187:\n      swap1\n      swap2\n      sstore\n      pop\n      pop\n        /* \"Contracts/AuctionSPU.sol\":8940:8967  Bid(msg.sender, _realValue) */\n      mload(0x40)\n        /* \"#utility.yul\":732:757   */\n      dup5\n      dup2\n      mstore\n        /* \"Contracts/AuctionSPU.sol\":8944:8954  msg.sender */\n      caller\n      swap1\n        /* \"Contracts/AuctionSPU.sol\":8940:8967  Bid(msg.sender, _realValue) */\n      0xe684a55f31b79eca403df938249029212a5925ec6be8012e099b45bc1019e5d2\n      swap1\n        /* \"#utility.yul\":720:722   */\n      0x20\n        /* \"#utility.yul\":705:723   */\n      add\n        /* \"Contracts/AuctionSPU.sol\":8940:8967  Bid(msg.sender, _realValue) */\n      mload(0x40)\n      dup1\n      swap2\n      sub\n      swap1\n      log2\n        /* \"Contracts/AuctionSPU.sol\":7739:8975  {... */\n      pop\n        /* \"Contracts/AuctionSPU.sol\":7565:8975  function newBid(... */\n      pop\n      pop\n      pop\n      pop\n      jump\t// out\n        /* \"Contracts/AuctionSPU.sol\":9940:11122  function closeAuction() external onlyOwner {... */\n    tag_81:\n        /* \"Contracts/AuctionSPU.sol\":4591:4597  seller */\n      and(sub(shl(0xa0, 0x01), 0x01), sload(0x02))\n        /* \"Contracts/AuctionSPU.sol\":4577:4587  msg.sender */\n      caller\n        /* \"Contracts/AuctionSPU.sol\":4577:4597  msg.sender == seller */\n      eq\n        /* \"Contracts/AuctionSPU.sol\":4569:4621  require(msg.sender == seller, \"Sender is not owner\") */\n      tag_190\n      jumpi\n      mload(0x40)\n      shl(0xe5, 0x461bcd)\n      dup2\n      mstore\n      0x04\n      add\n      tag_35\n      swap1\n      tag_36\n      jump\t// in\n    tag_190:\n        /* \"Contracts/AuctionSPU.sol\":10021:10026  endAt */\n      sload(0x06)\n        /* \"Contracts/AuctionSPU.sol\":10002:10017  block.timestamp */\n      timestamp\n        /* \"Contracts/AuctionSPU.sol\":10002:10026  block.timestamp >= endAt */\n      lt\n      iszero\n        /* \"Contracts/AuctionSPU.sol\":9994:10040  require(block.timestamp >= endAt, \"Not Ended\") */\n      tag_193\n      jumpi\n      mload(0x40)\n      shl(0xe5, 0x461bcd)\n      dup2\n      mstore\n        /* \"#utility.yul\":6020:6022   */\n      0x20\n        /* \"Contracts/AuctionSPU.sol\":9994:10040  require(block.timestamp >= endAt, \"Not Ended\") */\n      0x04\n      dup3\n      add\n        /* \"#utility.yul\":6002:6023   */\n      mstore\n        /* \"#utility.yul\":6059:6060   */\n      0x09\n        /* \"#utility.yul\":6039:6057   */\n      0x24\n      dup3\n      add\n        /* \"#utility.yul\":6032:6061   */\n      mstore\n      shl(0xba, 0x139bdd08115b991959)\n        /* \"#utility.yul\":6077:6095   */\n      0x44\n      dup3\n      add\n        /* \"#utility.yul\":6070:6109   */\n      mstore\n        /* \"#utility.yul\":6126:6144   */\n      0x64\n      add\n        /* \"Contracts/AuctionSPU.sol\":9994:10040  require(block.timestamp >= endAt, \"Not Ended\") */\n      tag_35\n        /* \"#utility.yul\":5818:6150   */\n      jump\n        /* \"Contracts/AuctionSPU.sol\":9994:10040  require(block.timestamp >= endAt, \"Not Ended\") */\n    tag_193:\n        /* \"Contracts/AuctionSPU.sol\":10055:10068  highestBidder */\n      and(sub(shl(0xa0, 0x01), 0x01), sload(0x0b))\n        /* \"Contracts/AuctionSPU.sol\":10055:10082  highestBidder != address(0) */\n      iszero\n        /* \"Contracts/AuctionSPU.sol\":10051:11115  if (highestBidder != address(0)) {... */\n      tag_196\n      jumpi\n        /* \"Contracts/AuctionSPU.sol\":10099:10102  nft */\n      sload(0x00)\n        /* \"Contracts/AuctionSPU.sol\":10135:10148  highestBidder */\n      sload(0x0b)\n        /* \"Contracts/AuctionSPU.sol\":10099:10102  nft */\n      0x01\n        /* \"Contracts/AuctionSPU.sol\":10150:10155  nftId */\n      sload\n        /* \"Contracts/AuctionSPU.sol\":10099:10156  nft.safeTransferFrom(address(this), highestBidder, nftId) */\n      mload(0x40)\n      shl(0xe1, 0x21421707)\n      dup2\n      mstore\n        /* \"Contracts/AuctionSPU.sol\":10128:10132  this */\n      address\n        /* \"Contracts/AuctionSPU.sol\":10099:10156  nft.safeTransferFrom(address(this), highestBidder, nftId) */\n      0x04\n      dup3\n      add\n        /* \"#utility.yul\":6395:6429   */\n      mstore\n      sub(shl(0xa0, 0x01), 0x01)\n        /* \"Contracts/AuctionSPU.sol\":10135:10148  highestBidder */\n      swap3\n      dup4\n      and\n        /* \"#utility.yul\":6445:6463   */\n      0x24\n      dup3\n      add\n        /* \"#utility.yul\":6438:6481   */\n      mstore\n        /* \"#utility.yul\":6497:6515   */\n      0x44\n      dup2\n      add\n        /* \"#utility.yul\":6490:6524   */\n      swap2\n      swap1\n      swap2\n      mstore\n        /* \"Contracts/AuctionSPU.sol\":10099:10102  nft */\n      swap2\n      and\n      swap1\n        /* \"Contracts/AuctionSPU.sol\":10099:10119  nft.safeTransferFrom */\n      0x42842e0e\n      swap1\n        /* \"#utility.yul\":6330:6348   */\n      0x64\n      add\n        /* \"Contracts/AuctionSPU.sol\":10099:10156  nft.safeTransferFrom(address(this), highestBidder, nftId) */\n    tag_197:\n      0x00\n      mload(0x40)\n      dup1\n      dup4\n      sub\n      dup2\n      0x00\n      dup8\n      dup1\n      extcodesize\n      iszero\n      dup1\n      iszero\n      tag_199\n      jumpi\n      0x00\n      dup1\n      revert\n    tag_199:\n      pop\n      gas\n      call\n      iszero\n      dup1\n      iszero\n      tag_201\n      jumpi\n      returndatasize\n      0x00\n      dup1\n      returndatacopy\n      revert(0x00, returndatasize)\n    tag_201:\n      pop\n      pop\n        /* \"Contracts/AuctionSPU.sol\":10207:10217  feeAddress */\n      sload(0x03)\n        /* \"Contracts/AuctionSPU.sol\":10231:10239  totalFee */\n      sload(0x0a)\n        /* \"Contracts/AuctionSPU.sol\":10199:10276  payable(feeAddress).call{value: totalFee}(... */\n      mload(0x40)\n        /* \"Contracts/AuctionSPU.sol\":10174:10193  bool callSuccessFee */\n      0x00\n      swap5\n      pop\n      sub(shl(0xa0, 0x01), 0x01)\n        /* \"Contracts/AuctionSPU.sol\":10207:10217  feeAddress */\n      swap1\n      swap3\n      and\n      swap3\n      pop\n        /* \"Contracts/AuctionSPU.sol\":10231:10239  totalFee */\n      swap1\n        /* \"Contracts/AuctionSPU.sol\":10174:10193  bool callSuccessFee */\n      dup4\n        /* \"Contracts/AuctionSPU.sol\":10199:10276  payable(feeAddress).call{value: totalFee}(... */\n      dup2\n        /* \"Contracts/AuctionSPU.sol\":10174:10193  bool callSuccessFee */\n      dup2\n        /* \"Contracts/AuctionSPU.sol\":10199:10276  payable(feeAddress).call{value: totalFee}(... */\n      dup2\n        /* \"Contracts/AuctionSPU.sol\":10231:10239  totalFee */\n      dup6\n        /* \"Contracts/AuctionSPU.sol\":10207:10217  feeAddress */\n      dup8\n        /* \"Contracts/AuctionSPU.sol\":10199:10276  payable(feeAddress).call{value: totalFee}(... */\n      gas\n      call\n      swap3\n      pop\n      pop\n      pop\n      returndatasize\n      dup1\n      0x00\n      dup2\n      eq\n      tag_206\n      jumpi\n      mload(0x40)\n      swap2\n      pop\n      and(add(returndatasize, 0x3f), not(0x1f))\n      dup3\n      add\n      0x40\n      mstore\n      returndatasize\n      dup3\n      mstore\n      returndatasize\n      0x00\n      0x20\n      dup5\n      add\n      returndatacopy\n      jump(tag_205)\n    tag_206:\n      0x60\n      swap2\n      pop\n    tag_205:\n      pop\n        /* \"Contracts/AuctionSPU.sol\":10173:10276  (bool callSuccessFee, ) = payable(feeAddress).call{value: totalFee}(... */\n      pop\n      swap1\n      pop\n        /* \"Contracts/AuctionSPU.sol\":10299:10313  callSuccessFee */\n      dup1\n        /* \"Contracts/AuctionSPU.sol\":10291:10341  require(callSuccessFee, \"Return fee funds failed\") */\n      tag_207\n      jumpi\n      mload(0x40)\n      shl(0xe5, 0x461bcd)\n      dup2\n      mstore\n        /* \"#utility.yul\":6947:6949   */\n      0x20\n        /* \"Contracts/AuctionSPU.sol\":10291:10341  require(callSuccessFee, \"Return fee funds failed\") */\n      0x04\n      dup3\n      add\n        /* \"#utility.yul\":6929:6950   */\n      mstore\n        /* \"#utility.yul\":6986:6988   */\n      0x17\n        /* \"#utility.yul\":6966:6984   */\n      0x24\n      dup3\n      add\n        /* \"#utility.yul\":6959:6989   */\n      mstore\n        /* \"#utility.yul\":7025:7050   */\n      0x52657475726e206665652066756e6473206661696c6564000000000000000000\n        /* \"#utility.yul\":7005:7023   */\n      0x44\n      dup3\n      add\n        /* \"#utility.yul\":6998:7051   */\n      mstore\n        /* \"#utility.yul\":7068:7086   */\n      0x64\n      add\n        /* \"Contracts/AuctionSPU.sol\":10291:10341  require(callSuccessFee, \"Return fee funds failed\") */\n      tag_35\n        /* \"#utility.yul\":6745:7092   */\n      jump\n        /* \"Contracts/AuctionSPU.sol\":10291:10341  require(callSuccessFee, \"Return fee funds failed\") */\n    tag_207:\n        /* \"Contracts/AuctionSPU.sol\":10374:10384  feeAddress */\n      sload(0x03)\n        /* \"Contracts/AuctionSPU.sol\":10386:10394  totalFee */\n      sload(0x0a)\n        /* \"Contracts/AuctionSPU.sol\":10363:10395  FeePayment(feeAddress, totalFee) */\n      mload(0x40)\n        /* \"#utility.yul\":732:757   */\n      swap1\n      dup2\n      mstore\n      sub(shl(0xa0, 0x01), 0x01)\n        /* \"Contracts/AuctionSPU.sol\":10374:10384  feeAddress */\n      swap1\n      swap2\n      and\n      swap1\n        /* \"Contracts/AuctionSPU.sol\":10363:10395  FeePayment(feeAddress, totalFee) */\n      0x57d762ad8f1734de771f2b521b2668347c0cee2d709a12254662cd5a7d4180\n      swap1\n        /* \"#utility.yul\":720:722   */\n      0x20\n        /* \"#utility.yul\":705:723   */\n      add\n        /* \"Contracts/AuctionSPU.sol\":10363:10395  FeePayment(feeAddress, totalFee) */\n      mload(0x40)\n      dup1\n      swap2\n      sub\n      swap1\n      log2\n        /* \"Contracts/AuctionSPU.sol\":10443:10449  seller */\n      sload(0x02)\n        /* \"Contracts/AuctionSPU.sol\":10463:10473  highestBid */\n      sload(0x0c)\n        /* \"Contracts/AuctionSPU.sol\":10435:10478  payable(seller).call{value: highestBid}(\"\") */\n      mload(0x40)\n        /* \"Contracts/AuctionSPU.sol\":10413:10429  bool callSuccess */\n      0x00\n      swap3\n      sub(shl(0xa0, 0x01), 0x01)\n        /* \"Contracts/AuctionSPU.sol\":10443:10449  seller */\n      and\n      swap2\n        /* \"Contracts/AuctionSPU.sol\":10463:10473  highestBid */\n      swap1\n        /* \"Contracts/AuctionSPU.sol\":10413:10429  bool callSuccess */\n      dup4\n        /* \"Contracts/AuctionSPU.sol\":10435:10478  payable(seller).call{value: highestBid}(\"\") */\n      dup2\n        /* \"Contracts/AuctionSPU.sol\":10413:10429  bool callSuccess */\n      dup2\n        /* \"Contracts/AuctionSPU.sol\":10435:10478  payable(seller).call{value: highestBid}(\"\") */\n      dup2\n        /* \"Contracts/AuctionSPU.sol\":10463:10473  highestBid */\n      dup6\n        /* \"Contracts/AuctionSPU.sol\":10443:10449  seller */\n      dup8\n        /* \"Contracts/AuctionSPU.sol\":10435:10478  payable(seller).call{value: highestBid}(\"\") */\n      gas\n      call\n      swap3\n      pop\n      pop\n      pop\n      returndatasize\n      dup1\n      0x00\n      dup2\n      eq\n      tag_214\n      jumpi\n      mload(0x40)\n      swap2\n      pop\n      and(add(returndatasize, 0x3f), not(0x1f))\n      dup3\n      add\n      0x40\n      mstore\n      returndatasize\n      dup3\n      mstore\n      returndatasize\n      0x00\n      0x20\n      dup5\n      add\n      returndatacopy\n      jump(tag_213)\n    tag_214:\n      0x60\n      swap2\n      pop\n    tag_213:\n      pop\n        /* \"Contracts/AuctionSPU.sol\":10412:10478  (bool callSuccess, ) = payable(seller).call{value: highestBid}(\"\") */\n      pop\n      swap1\n      pop\n        /* \"Contracts/AuctionSPU.sol\":10501:10512  callSuccess */\n      dup1\n        /* \"Contracts/AuctionSPU.sol\":10493:10536  require(callSuccess, \"Return funds failed\") */\n      tag_215\n      jumpi\n      mload(0x40)\n      shl(0xe5, 0x461bcd)\n      dup2\n      mstore\n        /* \"#utility.yul\":7299:7301   */\n      0x20\n        /* \"Contracts/AuctionSPU.sol\":10493:10536  require(callSuccess, \"Return funds failed\") */\n      0x04\n      dup3\n      add\n        /* \"#utility.yul\":7281:7302   */\n      mstore\n        /* \"#utility.yul\":7338:7340   */\n      0x13\n        /* \"#utility.yul\":7318:7336   */\n      0x24\n      dup3\n      add\n        /* \"#utility.yul\":7311:7341   */\n      mstore\n      shl(0x6a, 0x14995d1d5c9b88199d5b991cc819985a5b1959)\n        /* \"#utility.yul\":7357:7375   */\n      0x44\n      dup3\n      add\n        /* \"#utility.yul\":7350:7399   */\n      mstore\n        /* \"#utility.yul\":7416:7434   */\n      0x64\n      add\n        /* \"Contracts/AuctionSPU.sol\":10493:10536  require(callSuccess, \"Return funds failed\") */\n      tag_35\n        /* \"#utility.yul\":7097:7440   */\n      jump\n        /* \"Contracts/AuctionSPU.sol\":10493:10536  require(callSuccess, \"Return funds failed\") */\n    tag_215:\n        /* \"Contracts/AuctionSPU.sol\":10569:10575  seller */\n      sload(0x02)\n        /* \"Contracts/AuctionSPU.sol\":10577:10587  highestBid */\n      sload(0x0c)\n        /* \"Contracts/AuctionSPU.sol\":10558:10588  BidPayment(seller, highestBid) */\n      mload(0x40)\n        /* \"#utility.yul\":732:757   */\n      swap1\n      dup2\n      mstore\n      sub(shl(0xa0, 0x01), 0x01)\n        /* \"Contracts/AuctionSPU.sol\":10569:10575  seller */\n      swap1\n      swap2\n      and\n      swap1\n        /* \"Contracts/AuctionSPU.sol\":10558:10588  BidPayment(seller, highestBid) */\n      0x1c1b1a7e52e22e996a7b9c93efbf98eeb6171f5ecaa8f5c1c792427b53d29e84\n      swap1\n        /* \"#utility.yul\":720:722   */\n      0x20\n        /* \"#utility.yul\":705:723   */\n      add\n        /* \"Contracts/AuctionSPU.sol\":10558:10588  BidPayment(seller, highestBid) */\n    tag_218:\n      mload(0x40)\n      dup1\n      swap2\n      sub\n      swap1\n      log2\n        /* \"Contracts/AuctionSPU.sol\":10084:10600  {... */\n      pop\n      pop\n        /* \"Contracts/AuctionSPU.sol\":9940:11122  function closeAuction() external onlyOwner {... */\n      jump\t// out\n        /* \"Contracts/AuctionSPU.sol\":10051:11115  if (highestBidder != address(0)) {... */\n    tag_196:\n        /* \"Contracts/AuctionSPU.sol\":10621:10624  nft */\n      sload(0x00)\n        /* \"Contracts/AuctionSPU.sol\":10657:10663  seller */\n      sload(0x02)\n        /* \"Contracts/AuctionSPU.sol\":10621:10624  nft */\n      0x01\n        /* \"Contracts/AuctionSPU.sol\":10665:10670  nftId */\n      sload\n        /* \"Contracts/AuctionSPU.sol\":10621:10671  nft.safeTransferFrom(address(this), seller, nftId) */\n      mload(0x40)\n      shl(0xe1, 0x21421707)\n      dup2\n      mstore\n        /* \"Contracts/AuctionSPU.sol\":10650:10654  this */\n      address\n        /* \"Contracts/AuctionSPU.sol\":10621:10671  nft.safeTransferFrom(address(this), seller, nftId) */\n      0x04\n      dup3\n      add\n        /* \"#utility.yul\":6395:6429   */\n      mstore\n      sub(shl(0xa0, 0x01), 0x01)\n        /* \"Contracts/AuctionSPU.sol\":10657:10663  seller */\n      swap3\n      dup4\n      and\n        /* \"#utility.yul\":6445:6463   */\n      0x24\n      dup3\n      add\n        /* \"#utility.yul\":6438:6481   */\n      mstore\n        /* \"#utility.yul\":6497:6515   */\n      0x44\n      dup2\n      add\n        /* \"#utility.yul\":6490:6524   */\n      swap2\n      swap1\n      swap2\n      mstore\n        /* \"Contracts/AuctionSPU.sol\":10621:10624  nft */\n      swap2\n      and\n      swap1\n        /* \"Contracts/AuctionSPU.sol\":10621:10641  nft.safeTransferFrom */\n      0x42842e0e\n      swap1\n        /* \"#utility.yul\":6330:6348   */\n      0x64\n      add\n        /* \"Contracts/AuctionSPU.sol\":10621:10671  nft.safeTransferFrom(address(this), seller, nftId) */\n      tag_197\n        /* \"#utility.yul\":6155:6530   */\n      jump\n        /* \"Contracts/AuctionSPU.sol\":11322:11497  function setWhitelist(address _account, bool enable) external onlyOwner {... */\n    tag_95:\n        /* \"Contracts/AuctionSPU.sol\":4591:4597  seller */\n      and(sub(shl(0xa0, 0x01), 0x01), sload(0x02))\n        /* \"Contracts/AuctionSPU.sol\":4577:4587  msg.sender */\n      caller\n        /* \"Contracts/AuctionSPU.sol\":4577:4597  msg.sender == seller */\n      eq\n        /* \"Contracts/AuctionSPU.sol\":4569:4621  require(msg.sender == seller, \"Sender is not owner\") */\n      tag_240\n      jumpi\n      mload(0x40)\n      shl(0xe5, 0x461bcd)\n      dup2\n      mstore\n      0x04\n      add\n      tag_35\n      swap1\n      tag_36\n      jump\t// in\n    tag_240:\n      sub(shl(0xa0, 0x01), 0x01)\n        /* \"Contracts/AuctionSPU.sol\":11405:11425  _whitelist[_account] */\n      dup3\n      and\n      0x00\n      dup2\n      dup2\n      mstore\n        /* \"Contracts/AuctionSPU.sol\":11405:11415  _whitelist */\n      0x0e\n        /* \"Contracts/AuctionSPU.sol\":11405:11425  _whitelist[_account] */\n      0x20\n      swap1\n      dup2\n      mstore\n      0x40\n      swap2\n      dup3\n      swap1\n      keccak256\n        /* \"Contracts/AuctionSPU.sol\":11405:11434  _whitelist[_account] = enable */\n      dup1\n      sload\n      not(0xff)\n      and\n      dup6\n      iszero\n      iszero\n      swap1\n      dup2\n      or\n      swap1\n      swap2\n      sstore\n        /* \"Contracts/AuctionSPU.sol\":11450:11489  SetWhitelistByAddress(_account, enable) */\n      swap2\n      mload\n        /* \"#utility.yul\":908:949   */\n      swap2\n      dup3\n      mstore\n        /* \"Contracts/AuctionSPU.sol\":11450:11489  SetWhitelistByAddress(_account, enable) */\n      0xc2c8beffdf047b9e6c79b0e9dcd0bd71d174d84f52e013102fcc0e200dd58ee0\n      swap2\n        /* \"#utility.yul\":881:899   */\n      add\n        /* \"Contracts/AuctionSPU.sol\":11450:11489  SetWhitelistByAddress(_account, enable) */\n      tag_218\n        /* \"#utility.yul\":768:955   */\n      jump\n        /* \"Contracts/AuctionSPU.sol\":5683:5901  function startAuction() external onlyOwner {... */\n    tag_102:\n        /* \"Contracts/AuctionSPU.sol\":4591:4597  seller */\n      and(sub(shl(0xa0, 0x01), 0x01), sload(0x02))\n        /* \"Contracts/AuctionSPU.sol\":4577:4587  msg.sender */\n      caller\n        /* \"Contracts/AuctionSPU.sol\":4577:4597  msg.sender == seller */\n      eq\n        /* \"Contracts/AuctionSPU.sol\":4569:4621  require(msg.sender == seller, \"Sender is not owner\") */\n      tag_245\n      jumpi\n      mload(0x40)\n      shl(0xe5, 0x461bcd)\n      dup2\n      mstore\n      0x04\n      add\n      tag_35\n      swap1\n      tag_36\n      jump\t// in\n    tag_245:\n        /* \"Contracts/AuctionSPU.sol\":5746:5753  started */\n      and(0xff, sload(0x07))\n        /* \"Contracts/AuctionSPU.sol\":5745:5753  !started */\n      iszero\n        /* \"Contracts/AuctionSPU.sol\":5737:5773  require(!started, \"Already Started\") */\n      tag_248\n      jumpi\n      mload(0x40)\n      shl(0xe5, 0x461bcd)\n      dup2\n      mstore\n        /* \"#utility.yul\":8035:8037   */\n      0x20\n        /* \"Contracts/AuctionSPU.sol\":5737:5773  require(!started, \"Already Started\") */\n      0x04\n      dup3\n      add\n        /* \"#utility.yul\":8017:8038   */\n      mstore\n        /* \"#utility.yul\":8074:8076   */\n      0x0f\n        /* \"#utility.yul\":8054:8072   */\n      0x24\n      dup3\n      add\n        /* \"#utility.yul\":8047:8077   */\n      mstore\n      shl(0x8a, 0x105b1c9958591e4814dd185c9d1959)\n        /* \"#utility.yul\":8093:8111   */\n      0x44\n      dup3\n      add\n        /* \"#utility.yul\":8086:8131   */\n      mstore\n        /* \"#utility.yul\":8148:8166   */\n      0x64\n      add\n        /* \"Contracts/AuctionSPU.sol\":5737:5773  require(!started, \"Already Started\") */\n      tag_35\n        /* \"#utility.yul\":7833:8172   */\n      jump\n        /* \"Contracts/AuctionSPU.sol\":5737:5773  require(!started, \"Already Started\") */\n    tag_248:\n        /* \"Contracts/AuctionSPU.sol\":5786:5789  nft */\n      sload(0x00)\n      0x01\n        /* \"Contracts/AuctionSPU.sol\":5830:5835  nftId */\n      sload\n        /* \"Contracts/AuctionSPU.sol\":5786:5836  nft.transferFrom(msg.sender, address(this), nftId) */\n      mload(0x40)\n      shl(0xe0, 0x23b872dd)\n      dup2\n      mstore\n        /* \"Contracts/AuctionSPU.sol\":5803:5813  msg.sender */\n      caller\n        /* \"Contracts/AuctionSPU.sol\":5786:5836  nft.transferFrom(msg.sender, address(this), nftId) */\n      0x04\n      dup3\n      add\n        /* \"#utility.yul\":6395:6429   */\n      mstore\n        /* \"Contracts/AuctionSPU.sol\":5823:5827  this */\n      address\n        /* \"#utility.yul\":6445:6463   */\n      0x24\n      dup3\n      add\n        /* \"#utility.yul\":6438:6481   */\n      mstore\n        /* \"#utility.yul\":6497:6515   */\n      0x44\n      dup2\n      add\n        /* \"#utility.yul\":6490:6524   */\n      swap2\n      swap1\n      swap2\n      mstore\n      sub(shl(0xa0, 0x01), 0x01)\n        /* \"Contracts/AuctionSPU.sol\":5786:5789  nft */\n      swap1\n      swap2\n      and\n      swap1\n        /* \"Contracts/AuctionSPU.sol\":5786:5802  nft.transferFrom */\n      0x23b872dd\n      swap1\n        /* \"#utility.yul\":6330:6348   */\n      0x64\n      add\n        /* \"Contracts/AuctionSPU.sol\":5786:5836  nft.transferFrom(msg.sender, address(this), nftId) */\n      0x00\n      mload(0x40)\n      dup1\n      dup4\n      sub\n      dup2\n      0x00\n      dup8\n      dup1\n      extcodesize\n      iszero\n      dup1\n      iszero\n      tag_252\n      jumpi\n      0x00\n      dup1\n      revert\n    tag_252:\n      pop\n      gas\n      call\n      iszero\n      dup1\n      iszero\n      tag_254\n      jumpi\n      returndatasize\n      0x00\n      dup1\n      returndatacopy\n      revert(0x00, returndatasize)\n    tag_254:\n      pop\n      pop\n        /* \"Contracts/AuctionSPU.sol\":5847:5854  started */\n      0x07\n        /* \"Contracts/AuctionSPU.sol\":5847:5861  started = true */\n      dup1\n      sload\n      not(0xff)\n      and\n        /* \"Contracts/AuctionSPU.sol\":5857:5861  true */\n      0x01\n        /* \"Contracts/AuctionSPU.sol\":5847:5861  started = true */\n      or\n      swap1\n      sstore\n      pop\n      pop\n        /* \"Contracts/AuctionSPU.sol\":5879:5893  StartAuction() */\n      mload(0x40)\n      0xd295ebf0a48a9a43d600a6ecb8626baa711d5750dec13a08145013aa30cb92ea\n      swap1\n        /* \"Contracts/AuctionSPU.sol\":5847:5854  started */\n      0x00\n      swap1\n        /* \"Contracts/AuctionSPU.sol\":5879:5893  StartAuction() */\n      log1\n        /* \"Contracts/AuctionSPU.sol\":5683:5901  function startAuction() external onlyOwner {... */\n      jump\t// out\n        /* \"Contracts/AuctionSPU.sol\":6397:6561  function pauseAuction() external onlyOwner {... */\n    tag_120:\n        /* \"Contracts/AuctionSPU.sol\":4591:4597  seller */\n      and(sub(shl(0xa0, 0x01), 0x01), sload(0x02))\n        /* \"Contracts/AuctionSPU.sol\":4577:4587  msg.sender */\n      caller\n        /* \"Contracts/AuctionSPU.sol\":4577:4597  msg.sender == seller */\n      eq\n        /* \"Contracts/AuctionSPU.sol\":4569:4621  require(msg.sender == seller, \"Sender is not owner\") */\n      tag_256\n      jumpi\n      mload(0x40)\n      shl(0xe5, 0x461bcd)\n      dup2\n      mstore\n      0x04\n      add\n      tag_35\n      swap1\n      tag_36\n      jump\t// in\n    tag_256:\n        /* \"Contracts/AuctionSPU.sol\":6460:6466  paused */\n      sload(0x07)\n      0x010000\n      swap1\n      div\n      0xff\n      and\n        /* \"Contracts/AuctionSPU.sol\":6459:6466  !paused */\n      iszero\n        /* \"Contracts/AuctionSPU.sol\":6451:6485  require(!paused, \"Already Paused\") */\n      tag_259\n      jumpi\n      mload(0x40)\n      shl(0xe5, 0x461bcd)\n      dup2\n      mstore\n        /* \"#utility.yul\":8379:8381   */\n      0x20\n        /* \"Contracts/AuctionSPU.sol\":6451:6485  require(!paused, \"Already Paused\") */\n      0x04\n      dup3\n      add\n        /* \"#utility.yul\":8361:8382   */\n      mstore\n        /* \"#utility.yul\":8418:8420   */\n      0x0e\n        /* \"#utility.yul\":8398:8416   */\n      0x24\n      dup3\n      add\n        /* \"#utility.yul\":8391:8421   */\n      mstore\n      shl(0x92, 0x105b1c9958591e4814185d5cd959)\n        /* \"#utility.yul\":8437:8455   */\n      0x44\n      dup3\n      add\n        /* \"#utility.yul\":8430:8474   */\n      mstore\n        /* \"#utility.yul\":8491:8509   */\n      0x64\n      add\n        /* \"Contracts/AuctionSPU.sol\":6451:6485  require(!paused, \"Already Paused\") */\n      tag_35\n        /* \"#utility.yul\":8177:8515   */\n      jump\n        /* \"Contracts/AuctionSPU.sol\":6451:6485  require(!paused, \"Already Paused\") */\n    tag_259:\n        /* \"Contracts/AuctionSPU.sol\":6498:6504  paused */\n      0x07\n        /* \"Contracts/AuctionSPU.sol\":6498:6511  paused = true */\n      dup1\n      sload\n      not(0xff0000)\n      and\n      0x010000\n      or\n      swap1\n      sstore\n        /* \"Contracts/AuctionSPU.sol\":6529:6553  PauseAuction(msg.sender) */\n      mload(0x40)\n        /* \"Contracts/AuctionSPU.sol\":6542:6552  msg.sender */\n      caller\n        /* \"#utility.yul\":524:575   */\n      dup2\n      mstore\n        /* \"Contracts/AuctionSPU.sol\":6529:6553  PauseAuction(msg.sender) */\n      0xdee06086e53b718fd5176fdaa88a207819a06a56b42087ac2cab84d32a335654\n      swap1\n        /* \"#utility.yul\":512:514   */\n      0x20\n        /* \"#utility.yul\":497:515   */\n      add\n        /* \"Contracts/AuctionSPU.sol\":6529:6553  PauseAuction(msg.sender) */\n    tag_262:\n      mload(0x40)\n      dup1\n      swap2\n      sub\n      swap1\n      log1\n        /* \"Contracts/AuctionSPU.sol\":6397:6561  function pauseAuction() external onlyOwner {... */\n      jump\t// out\n        /* \"Contracts/AuctionSPU.sol\":11949:12063  function isWhitelist(address _account) public view returns (bool) {... */\n    tag_124:\n      sub(shl(0xa0, 0x01), 0x01)\n        /* \"Contracts/AuctionSPU.sol\":11753:11773  _whitelist[_account] */\n      dup2\n      and\n        /* \"Contracts/AuctionSPU.sol\":12009:12013  bool */\n      0x00\n        /* \"Contracts/AuctionSPU.sol\":11753:11773  _whitelist[_account] */\n      swap1\n      dup2\n      mstore\n        /* \"Contracts/AuctionSPU.sol\":11753:11763  _whitelist */\n      0x0e\n        /* \"Contracts/AuctionSPU.sol\":11753:11773  _whitelist[_account] */\n      0x20\n      mstore\n      0x40\n      dup2\n      keccak256\n      sload\n      0xff\n      and\n        /* \"Contracts/AuctionSPU.sol\":12033:12055  _isWhitelist(_account) */\n    tag_264:\n        /* \"Contracts/AuctionSPU.sol\":12026:12055  return _isWhitelist(_account) */\n      swap3\n        /* \"Contracts/AuctionSPU.sol\":11949:12063  function isWhitelist(address _account) public view returns (bool) {... */\n      swap2\n      pop\n      pop\n      jump\t// out\n        /* \"Contracts/AuctionSPU.sol\":6693:6862  function unpauseAuction() external onlyOwner {... */\n    tag_132:\n        /* \"Contracts/AuctionSPU.sol\":4591:4597  seller */\n      and(sub(shl(0xa0, 0x01), 0x01), sload(0x02))\n        /* \"Contracts/AuctionSPU.sol\":4577:4587  msg.sender */\n      caller\n        /* \"Contracts/AuctionSPU.sol\":4577:4597  msg.sender == seller */\n      eq\n        /* \"Contracts/AuctionSPU.sol\":4569:4621  require(msg.sender == seller, \"Sender is not owner\") */\n      tag_266\n      jumpi\n      mload(0x40)\n      shl(0xe5, 0x461bcd)\n      dup2\n      mstore\n      0x04\n      add\n      tag_35\n      swap1\n      tag_36\n      jump\t// in\n    tag_266:\n        /* \"Contracts/AuctionSPU.sol\":6757:6763  paused */\n      sload(0x07)\n      0x010000\n      swap1\n      div\n      0xff\n      and\n        /* \"Contracts/AuctionSPU.sol\":6749:6783  require(paused, \"Already Running\") */\n      tag_269\n      jumpi\n      mload(0x40)\n      shl(0xe5, 0x461bcd)\n      dup2\n      mstore\n        /* \"#utility.yul\":8722:8724   */\n      0x20\n        /* \"Contracts/AuctionSPU.sol\":6749:6783  require(paused, \"Already Running\") */\n      0x04\n      dup3\n      add\n        /* \"#utility.yul\":8704:8725   */\n      mstore\n        /* \"#utility.yul\":8761:8763   */\n      0x0f\n        /* \"#utility.yul\":8741:8759   */\n      0x24\n      dup3\n      add\n        /* \"#utility.yul\":8734:8764   */\n      mstore\n      shl(0x88, 0x416c72656164792052756e6e696e67)\n        /* \"#utility.yul\":8780:8798   */\n      0x44\n      dup3\n      add\n        /* \"#utility.yul\":8773:8818   */\n      mstore\n        /* \"#utility.yul\":8835:8853   */\n      0x64\n      add\n        /* \"Contracts/AuctionSPU.sol\":6749:6783  require(paused, \"Already Running\") */\n      tag_35\n        /* \"#utility.yul\":8520:8859   */\n      jump\n        /* \"Contracts/AuctionSPU.sol\":6749:6783  require(paused, \"Already Running\") */\n    tag_269:\n        /* \"Contracts/AuctionSPU.sol\":6796:6802  paused */\n      0x07\n        /* \"Contracts/AuctionSPU.sol\":6796:6810  paused = false */\n      dup1\n      sload\n      not(0xff0000)\n      and\n      swap1\n      sstore\n        /* \"Contracts/AuctionSPU.sol\":6828:6854  UnpauseAuction(msg.sender) */\n      mload(0x40)\n        /* \"Contracts/AuctionSPU.sol\":6843:6853  msg.sender */\n      caller\n        /* \"#utility.yul\":524:575   */\n      dup2\n      mstore\n        /* \"Contracts/AuctionSPU.sol\":6828:6854  UnpauseAuction(msg.sender) */\n      0xc1a02e947cf77134ed09ac0692636f0553306db51ffe4a1d9e7b51b4dcd9c762\n      swap1\n        /* \"#utility.yul\":512:514   */\n      0x20\n        /* \"#utility.yul\":497:515   */\n      add\n        /* \"Contracts/AuctionSPU.sol\":6828:6854  UnpauseAuction(msg.sender) */\n      tag_262\n        /* \"#utility.yul\":362:581   */\n      jump\n        /* \"Contracts/AuctionSPU.sol\":6025:6269  function endAuction() external onlyOwner auctionStarted {... */\n    tag_147:\n        /* \"Contracts/AuctionSPU.sol\":4591:4597  seller */\n      and(sub(shl(0xa0, 0x01), 0x01), sload(0x02))\n        /* \"Contracts/AuctionSPU.sol\":4577:4587  msg.sender */\n      caller\n        /* \"Contracts/AuctionSPU.sol\":4577:4597  msg.sender == seller */\n      eq\n        /* \"Contracts/AuctionSPU.sol\":4569:4621  require(msg.sender == seller, \"Sender is not owner\") */\n      tag_274\n      jumpi\n      mload(0x40)\n      shl(0xe5, 0x461bcd)\n      dup2\n      mstore\n      0x04\n      add\n      tag_35\n      swap1\n      tag_36\n      jump\t// in\n    tag_274:\n        /* \"Contracts/AuctionSPU.sol\":5049:5056  started */\n      and(0xff, sload(0x07))\n        /* \"Contracts/AuctionSPU.sol\":5041:5076  require(started, \"Not Started Yet\") */\n      tag_277\n      jumpi\n      mload(0x40)\n      shl(0xe5, 0x461bcd)\n      dup2\n      mstore\n        /* \"#utility.yul\":3171:3173   */\n      0x20\n        /* \"Contracts/AuctionSPU.sol\":5041:5076  require(started, \"Not Started Yet\") */\n      0x04\n      dup3\n      add\n        /* \"#utility.yul\":3153:3174   */\n      mstore\n        /* \"#utility.yul\":3210:3212   */\n      0x0f\n        /* \"#utility.yul\":3190:3208   */\n      0x24\n      dup3\n      add\n        /* \"#utility.yul\":3183:3213   */\n      mstore\n      shl(0x8a, 0x139bdd0814dd185c9d19590816595d)\n        /* \"#utility.yul\":3229:3247   */\n      0x44\n      dup3\n      add\n        /* \"#utility.yul\":3222:3267   */\n      mstore\n        /* \"#utility.yul\":3284:3302   */\n      0x64\n      add\n        /* \"Contracts/AuctionSPU.sol\":5041:5076  require(started, \"Not Started Yet\") */\n      tag_35\n        /* \"#utility.yul\":2969:3308   */\n      jump\n        /* \"Contracts/AuctionSPU.sol\":5041:5076  require(started, \"Not Started Yet\") */\n    tag_277:\n        /* \"Contracts/AuctionSPU.sol\":6119:6124  endAt */\n      sload(0x06)\n        /* \"Contracts/AuctionSPU.sol\":6100:6115  block.timestamp */\n      timestamp\n        /* \"Contracts/AuctionSPU.sol\":6100:6124  block.timestamp >= endAt */\n      lt\n      iszero\n        /* \"Contracts/AuctionSPU.sol\":6092:6138  require(block.timestamp >= endAt, \"Not Ended\") */\n      tag_280\n      jumpi\n      mload(0x40)\n      shl(0xe5, 0x461bcd)\n      dup2\n      mstore\n        /* \"#utility.yul\":6020:6022   */\n      0x20\n        /* \"Contracts/AuctionSPU.sol\":6092:6138  require(block.timestamp >= endAt, \"Not Ended\") */\n      0x04\n      dup3\n      add\n        /* \"#utility.yul\":6002:6023   */\n      mstore\n        /* \"#utility.yul\":6059:6060   */\n      0x09\n        /* \"#utility.yul\":6039:6057   */\n      0x24\n      dup3\n      add\n        /* \"#utility.yul\":6032:6061   */\n      mstore\n      shl(0xba, 0x139bdd08115b991959)\n        /* \"#utility.yul\":6077:6095   */\n      0x44\n      dup3\n      add\n        /* \"#utility.yul\":6070:6109   */\n      mstore\n        /* \"#utility.yul\":6126:6144   */\n      0x64\n      add\n        /* \"Contracts/AuctionSPU.sol\":6092:6138  require(block.timestamp >= endAt, \"Not Ended\") */\n      tag_35\n        /* \"#utility.yul\":5818:6150   */\n      jump\n        /* \"Contracts/AuctionSPU.sol\":6092:6138  require(block.timestamp >= endAt, \"Not Ended\") */\n    tag_280:\n        /* \"Contracts/AuctionSPU.sol\":6158:6163  ended */\n      sload(0x07)\n      0x0100\n      swap1\n      div\n      0xff\n      and\n        /* \"Contracts/AuctionSPU.sol\":6157:6163  !ended */\n      iszero\n        /* \"Contracts/AuctionSPU.sol\":6149:6181  require(!ended, \"Already Ended\") */\n      tag_282\n      jumpi\n      mload(0x40)\n      shl(0xe5, 0x461bcd)\n      dup2\n      mstore\n        /* \"#utility.yul\":9066:9068   */\n      0x20\n        /* \"Contracts/AuctionSPU.sol\":6149:6181  require(!ended, \"Already Ended\") */\n      0x04\n      dup3\n      add\n        /* \"#utility.yul\":9048:9069   */\n      mstore\n        /* \"#utility.yul\":9105:9107   */\n      0x0d\n        /* \"#utility.yul\":9085:9103   */\n      0x24\n      dup3\n      add\n        /* \"#utility.yul\":9078:9108   */\n      mstore\n      shl(0x9a, 0x105b1c9958591e48115b991959)\n        /* \"#utility.yul\":9124:9142   */\n      0x44\n      dup3\n      add\n        /* \"#utility.yul\":9117:9160   */\n      mstore\n        /* \"#utility.yul\":9177:9195   */\n      0x64\n      add\n        /* \"Contracts/AuctionSPU.sol\":6149:6181  require(!ended, \"Already Ended\") */\n      tag_35\n        /* \"#utility.yul\":8864:9201   */\n      jump\n        /* \"Contracts/AuctionSPU.sol\":6149:6181  require(!ended, \"Already Ended\") */\n    tag_282:\n        /* \"Contracts/AuctionSPU.sol\":6194:6199  ended */\n      0x07\n        /* \"Contracts/AuctionSPU.sol\":6194:6206  ended = true */\n      dup1\n      sload\n      not(0xff00)\n      and\n      0x0100\n      or\n      swap1\n      sstore\n        /* \"Contracts/AuctionSPU.sol\":6235:6248  highestBidder */\n      sload(0x0b)\n        /* \"Contracts/AuctionSPU.sol\":6250:6260  highestBid */\n      sload(0x0c)\n        /* \"Contracts/AuctionSPU.sol\":6224:6261  EndAuction(highestBidder, highestBid) */\n      0x40\n      dup1\n      mload\n      sub(shl(0xa0, 0x01), 0x01)\n        /* \"Contracts/AuctionSPU.sol\":6235:6248  highestBidder */\n      swap1\n      swap4\n      and\n        /* \"#utility.yul\":9380:9431   */\n      dup4\n      mstore\n        /* \"#utility.yul\":9462:9464   */\n      0x20\n        /* \"#utility.yul\":9447:9465   */\n      dup4\n      add\n        /* \"#utility.yul\":9440:9474   */\n      swap2\n      swap1\n      swap2\n      mstore\n        /* \"Contracts/AuctionSPU.sol\":6224:6261  EndAuction(highestBidder, highestBid) */\n      0xca09734d1fc32150404dc9252b4d991c6bee44319031b7159c03d5ae2c062704\n      swap2\n        /* \"#utility.yul\":9353:9371   */\n      add\n        /* \"Contracts/AuctionSPU.sol\":6224:6261  EndAuction(highestBidder, highestBid) */\n      tag_262\n        /* \"#utility.yul\":9206:9480   */\n      jump\n        /* \"Contracts/AuctionSPU.sol\":9118:9560  function cashback(address _receiver, uint _amount) internal {... */\n    tag_179:\n        /* \"Contracts/AuctionSPU.sol\":9190:9206  bool callSuccess */\n      0x00\n        /* \"Contracts/AuctionSPU.sol\":9220:9229  _receiver */\n      dup3\n      sub(shl(0xa0, 0x01), 0x01)\n        /* \"Contracts/AuctionSPU.sol\":9212:9235  payable(_receiver).call */\n      and\n        /* \"Contracts/AuctionSPU.sol\":9243:9250  _amount */\n      dup3\n        /* \"Contracts/AuctionSPU.sol\":9212:9255  payable(_receiver).call{value: _amount}(\"\") */\n      mload(0x40)\n      0x00\n      mload(0x40)\n      dup1\n      dup4\n      sub\n      dup2\n      dup6\n      dup8\n      gas\n      call\n      swap3\n      pop\n      pop\n      pop\n      returndatasize\n      dup1\n      0x00\n      dup2\n      eq\n      tag_292\n      jumpi\n      mload(0x40)\n      swap2\n      pop\n      and(add(returndatasize, 0x3f), not(0x1f))\n      dup3\n      add\n      0x40\n      mstore\n      returndatasize\n      dup3\n      mstore\n      returndatasize\n      0x00\n      0x20\n      dup5\n      add\n      returndatacopy\n      jump(tag_291)\n    tag_292:\n      0x60\n      swap2\n      pop\n    tag_291:\n      pop\n        /* \"Contracts/AuctionSPU.sol\":9189:9255  (bool callSuccess, ) = payable(_receiver).call{value: _amount}(\"\") */\n      pop\n      swap1\n      pop\n        /* \"Contracts/AuctionSPU.sol\":9274:9285  callSuccess */\n      dup1\n        /* \"Contracts/AuctionSPU.sol\":9266:9309  require(callSuccess, \"Return funds failed\") */\n      tag_293\n      jumpi\n      mload(0x40)\n      shl(0xe5, 0x461bcd)\n      dup2\n      mstore\n        /* \"#utility.yul\":7299:7301   */\n      0x20\n        /* \"Contracts/AuctionSPU.sol\":9266:9309  require(callSuccess, \"Return funds failed\") */\n      0x04\n      dup3\n      add\n        /* \"#utility.yul\":7281:7302   */\n      mstore\n        /* \"#utility.yul\":7338:7340   */\n      0x13\n        /* \"#utility.yul\":7318:7336   */\n      0x24\n      dup3\n      add\n        /* \"#utility.yul\":7311:7341   */\n      mstore\n      shl(0x6a, 0x14995d1d5c9b88199d5b991cc819985a5b1959)\n        /* \"#utility.yul\":7357:7375   */\n      0x44\n      dup3\n      add\n        /* \"#utility.yul\":7350:7399   */\n      mstore\n        /* \"#utility.yul\":7416:7434   */\n      0x64\n      add\n        /* \"Contracts/AuctionSPU.sol\":9266:9309  require(callSuccess, \"Return funds failed\") */\n      tag_35\n        /* \"#utility.yul\":7097:7440   */\n      jump\n        /* \"Contracts/AuctionSPU.sol\":9266:9309  require(callSuccess, \"Return funds failed\") */\n    tag_293:\n        /* \"Contracts/AuctionSPU.sol\":9335:9345  msg.sender */\n      caller\n        /* \"Contracts/AuctionSPU.sol\":9357:9358  0 */\n      0x00\n        /* \"Contracts/AuctionSPU.sol\":9322:9346  receivedBids[msg.sender] */\n      swap1\n      dup2\n      mstore\n        /* \"Contracts/AuctionSPU.sol\":9322:9334  receivedBids */\n      0x0d\n        /* \"Contracts/AuctionSPU.sol\":9322:9346  receivedBids[msg.sender] */\n      0x20\n      mstore\n      0x40\n      dup1\n      dup3\n      keccak256\n        /* \"Contracts/AuctionSPU.sol\":9322:9354  receivedBids[msg.sender].downpay */\n      0x04\n      dup2\n      add\n        /* \"Contracts/AuctionSPU.sol\":9322:9358  receivedBids[msg.sender].downpay = 0 */\n      dup4\n      swap1\n      sstore\n        /* \"Contracts/AuctionSPU.sol\":9369:9408  receivedBids[msg.sender].totalValue = 0 */\n      dup3\n      dup2\n      sstore\n        /* \"Contracts/AuctionSPU.sol\":9419:9451  receivedBids[msg.sender].portion */\n      0x02\n      dup2\n      add\n        /* \"Contracts/AuctionSPU.sol\":9419:9455  receivedBids[msg.sender].portion = 0 */\n      dup4\n      swap1\n      sstore\n        /* \"Contracts/AuctionSPU.sol\":9466:9502  receivedBids[msg.sender].clientScore */\n      0x03\n      add\n        /* \"Contracts/AuctionSPU.sol\":9466:9506  receivedBids[msg.sender].clientScore = 0 */\n      swap2\n      swap1\n      swap2\n      sstore\n        /* \"Contracts/AuctionSPU.sol\":9524:9552  Cashback(_receiver, _amount) */\n      mload\n      sub(shl(0xa0, 0x01), 0x01)\n      dup5\n      and\n      swap1\n      0xe523757eee9c213543af9b06c96e0629da383d3149173f4a03ab96d8ff526760\n      swap1\n      tag_295\n      swap1\n        /* \"Contracts/AuctionSPU.sol\":9544:9551  _amount */\n      dup6\n        /* \"#utility.yul\":732:757   */\n      dup2\n      mstore\n        /* \"#utility.yul\":720:722   */\n      0x20\n        /* \"#utility.yul\":705:723   */\n      add\n      swap1\n        /* \"#utility.yul\":586:763   */\n      jump\n        /* \"Contracts/AuctionSPU.sol\":9524:9552  Cashback(_receiver, _amount) */\n    tag_295:\n      mload(0x40)\n      dup1\n      swap2\n      sub\n      swap1\n      log2\n        /* \"Contracts/AuctionSPU.sol\":9178:9560  {... */\n      pop\n        /* \"Contracts/AuctionSPU.sol\":9118:9560  function cashback(address _receiver, uint _amount) internal {... */\n      pop\n      pop\n      jump\t// out\n        /* \"#utility.yul\":14:357   */\n    tag_36:\n        /* \"#utility.yul\":216:218   */\n      0x20\n        /* \"#utility.yul\":198:219   */\n      dup1\n      dup3\n      mstore\n        /* \"#utility.yul\":255:257   */\n      0x13\n        /* \"#utility.yul\":235:253   */\n      swap1\n      dup3\n      add\n        /* \"#utility.yul\":228:258   */\n      mstore\n      shl(0x69, 0x29b2b73232b91034b9903737ba1037bbb732b9)\n        /* \"#utility.yul\":289:291   */\n      0x40\n        /* \"#utility.yul\":274:292   */\n      dup3\n      add\n        /* \"#utility.yul\":267:316   */\n      mstore\n        /* \"#utility.yul\":348:350   */\n      0x60\n        /* \"#utility.yul\":333:351   */\n      add\n      swap1\n        /* \"#utility.yul\":14:357   */\n      jump\t// out\n        /* \"#utility.yul\":1168:1553   */\n    tag_77:\n        /* \"#utility.yul\":1254:1260   */\n      0x00\n        /* \"#utility.yul\":1262:1268   */\n      dup1\n        /* \"#utility.yul\":1270:1276   */\n      0x00\n        /* \"#utility.yul\":1278:1284   */\n      dup1\n        /* \"#utility.yul\":1331:1334   */\n      0x80\n        /* \"#utility.yul\":1319:1328   */\n      dup6\n        /* \"#utility.yul\":1310:1317   */\n      dup8\n        /* \"#utility.yul\":1306:1329   */\n      sub\n        /* \"#utility.yul\":1302:1335   */\n      slt\n        /* \"#utility.yul\":1299:1352   */\n      iszero\n      tag_305\n      jumpi\n        /* \"#utility.yul\":1348:1349   */\n      0x00\n        /* \"#utility.yul\":1345:1346   */\n      dup1\n        /* \"#utility.yul\":1338:1350   */\n      revert\n        /* \"#utility.yul\":1299:1352   */\n    tag_305:\n      pop\n      pop\n        /* \"#utility.yul\":1371:1394   */\n      dup3\n      calldataload\n      swap5\n        /* \"#utility.yul\":1441:1443   */\n      0x20\n        /* \"#utility.yul\":1426:1444   */\n      dup5\n      add\n        /* \"#utility.yul\":1413:1445   */\n      calldataload\n      swap5\n      pop\n        /* \"#utility.yul\":1492:1494   */\n      0x40\n        /* \"#utility.yul\":1477:1495   */\n      dup5\n      add\n        /* \"#utility.yul\":1464:1496   */\n      calldataload\n      swap4\n        /* \"#utility.yul\":1543:1545   */\n      0x60\n        /* \"#utility.yul\":1528:1546   */\n      add\n        /* \"#utility.yul\":1515:1547   */\n      calldataload\n      swap3\n      pop\n        /* \"#utility.yul\":1168:1553   */\n      swap1\n      pop\n      jump\t// out\n        /* \"#utility.yul\":1780:1953   */\n    tag_296:\n        /* \"#utility.yul\":1848:1868   */\n      dup1\n      calldataload\n      sub(shl(0xa0, 0x01), 0x01)\n        /* \"#utility.yul\":1897:1928   */\n      dup2\n      and\n        /* \"#utility.yul\":1887:1929   */\n      dup2\n      eq\n        /* \"#utility.yul\":1877:1947   */\n      tag_308\n      jumpi\n        /* \"#utility.yul\":1943:1944   */\n      0x00\n        /* \"#utility.yul\":1940:1941   */\n      dup1\n        /* \"#utility.yul\":1933:1945   */\n      revert\n        /* \"#utility.yul\":1877:1947   */\n    tag_308:\n        /* \"#utility.yul\":1780:1953   */\n      swap2\n      swap1\n      pop\n      jump\t// out\n        /* \"#utility.yul\":1958:2305   */\n    tag_94:\n        /* \"#utility.yul\":2023:2029   */\n      0x00\n        /* \"#utility.yul\":2031:2037   */\n      dup1\n        /* \"#utility.yul\":2084:2086   */\n      0x40\n        /* \"#utility.yul\":2072:2081   */\n      dup4\n        /* \"#utility.yul\":2063:2070   */\n      dup6\n        /* \"#utility.yul\":2059:2082   */\n      sub\n        /* \"#utility.yul\":2055:2087   */\n      slt\n        /* \"#utility.yul\":2052:2104   */\n      iszero\n      tag_310\n      jumpi\n        /* \"#utility.yul\":2100:2101   */\n      0x00\n        /* \"#utility.yul\":2097:2098   */\n      dup1\n        /* \"#utility.yul\":2090:2102   */\n      revert\n        /* \"#utility.yul\":2052:2104   */\n    tag_310:\n        /* \"#utility.yul\":2123:2152   */\n      tag_311\n        /* \"#utility.yul\":2142:2151   */\n      dup4\n        /* \"#utility.yul\":2123:2152   */\n      tag_296\n      jump\t// in\n    tag_311:\n        /* \"#utility.yul\":2113:2152   */\n      swap2\n      pop\n        /* \"#utility.yul\":2202:2204   */\n      0x20\n        /* \"#utility.yul\":2191:2200   */\n      dup4\n        /* \"#utility.yul\":2187:2205   */\n      add\n        /* \"#utility.yul\":2174:2206   */\n      calldataload\n        /* \"#utility.yul\":2249:2254   */\n      dup1\n        /* \"#utility.yul\":2242:2255   */\n      iszero\n        /* \"#utility.yul\":2235:2256   */\n      iszero\n        /* \"#utility.yul\":2228:2233   */\n      dup2\n        /* \"#utility.yul\":2225:2257   */\n      eq\n        /* \"#utility.yul\":2215:2275   */\n      tag_312\n      jumpi\n        /* \"#utility.yul\":2271:2272   */\n      0x00\n        /* \"#utility.yul\":2268:2269   */\n      dup1\n        /* \"#utility.yul\":2261:2273   */\n      revert\n        /* \"#utility.yul\":2215:2275   */\n    tag_312:\n        /* \"#utility.yul\":2294:2299   */\n      dup1\n        /* \"#utility.yul\":2284:2299   */\n      swap2\n      pop\n      pop\n        /* \"#utility.yul\":1958:2305   */\n      swap3\n      pop\n      swap3\n      swap1\n      pop\n      jump\t// out\n        /* \"#utility.yul\":2310:2496   */\n    tag_114:\n        /* \"#utility.yul\":2369:2375   */\n      0x00\n        /* \"#utility.yul\":2422:2424   */\n      0x20\n        /* \"#utility.yul\":2410:2419   */\n      dup3\n        /* \"#utility.yul\":2401:2408   */\n      dup5\n        /* \"#utility.yul\":2397:2420   */\n      sub\n        /* \"#utility.yul\":2393:2425   */\n      slt\n        /* \"#utility.yul\":2390:2442   */\n      iszero\n      tag_314\n      jumpi\n        /* \"#utility.yul\":2438:2439   */\n      0x00\n        /* \"#utility.yul\":2435:2436   */\n      dup1\n        /* \"#utility.yul\":2428:2440   */\n      revert\n        /* \"#utility.yul\":2390:2442   */\n    tag_314:\n        /* \"#utility.yul\":2461:2490   */\n      tag_315\n        /* \"#utility.yul\":2480:2489   */\n      dup3\n        /* \"#utility.yul\":2461:2490   */\n      tag_296\n      jump\t// in\n    tag_315:\n        /* \"#utility.yul\":2451:2490   */\n      swap4\n        /* \"#utility.yul\":2310:2496   */\n      swap3\n      pop\n      pop\n      pop\n      jump\t// out\n        /* \"#utility.yul\":5028:5155   */\n    tag_297:\n        /* \"#utility.yul\":5089:5099   */\n      0x4e487b71\n        /* \"#utility.yul\":5084:5087   */\n      0xe0\n        /* \"#utility.yul\":5080:5100   */\n      shl\n        /* \"#utility.yul\":5077:5078   */\n      0x00\n        /* \"#utility.yul\":5070:5101   */\n      mstore\n        /* \"#utility.yul\":5120:5124   */\n      0x11\n        /* \"#utility.yul\":5117:5118   */\n      0x04\n        /* \"#utility.yul\":5110:5125   */\n      mstore\n        /* \"#utility.yul\":5144:5148   */\n      0x24\n        /* \"#utility.yul\":5141:5142   */\n      0x00\n        /* \"#utility.yul\":5134:5149   */\n      revert\n        /* \"#utility.yul\":5160:5377   */\n    tag_173:\n        /* \"#utility.yul\":5200:5201   */\n      0x00\n        /* \"#utility.yul\":5226:5227   */\n      dup3\n        /* \"#utility.yul\":5216:5348   */\n      tag_325\n      jumpi\n        /* \"#utility.yul\":5270:5280   */\n      0x4e487b71\n        /* \"#utility.yul\":5265:5268   */\n      0xe0\n        /* \"#utility.yul\":5261:5281   */\n      shl\n        /* \"#utility.yul\":5258:5259   */\n      0x00\n        /* \"#utility.yul\":5251:5282   */\n      mstore\n        /* \"#utility.yul\":5305:5309   */\n      0x12\n        /* \"#utility.yul\":5302:5303   */\n      0x04\n        /* \"#utility.yul\":5295:5310   */\n      mstore\n        /* \"#utility.yul\":5333:5337   */\n      0x24\n        /* \"#utility.yul\":5330:5331   */\n      0x00\n        /* \"#utility.yul\":5323:5338   */\n      revert\n        /* \"#utility.yul\":5216:5348   */\n    tag_325:\n      pop\n        /* \"#utility.yul\":5362:5371   */\n      div\n      swap1\n        /* \"#utility.yul\":5160:5377   */\n      jump\t// out\n        /* \"#utility.yul\":5382:5550   */\n    tag_175:\n        /* \"#utility.yul\":5455:5464   */\n      dup1\n      dup3\n      mul\n        /* \"#utility.yul\":5486:5495   */\n      dup2\n      iszero\n        /* \"#utility.yul\":5503:5518   */\n      dup3\n      dup3\n      div\n        /* \"#utility.yul\":5497:5519   */\n      dup5\n      eq\n        /* \"#utility.yul\":5483:5520   */\n      or\n        /* \"#utility.yul\":5473:5544   */\n      tag_264\n      jumpi\n        /* \"#utility.yul\":5524:5542   */\n      tag_264\n      tag_297\n      jump\t// in\n        /* \"#utility.yul\":5555:5680   */\n    tag_177:\n        /* \"#utility.yul\":5620:5629   */\n      dup1\n      dup3\n      add\n        /* \"#utility.yul\":5641:5651   */\n      dup1\n      dup3\n      gt\n        /* \"#utility.yul\":5638:5674   */\n      iszero\n      tag_264\n      jumpi\n        /* \"#utility.yul\":5654:5672   */\n      tag_264\n      tag_297\n      jump\t// in\n        /* \"#utility.yul\":5685:5813   */\n    tag_182:\n        /* \"#utility.yul\":5752:5761   */\n      dup2\n      dup2\n      sub\n        /* \"#utility.yul\":5773:5784   */\n      dup2\n      dup2\n      gt\n        /* \"#utility.yul\":5770:5807   */\n      iszero\n      tag_264\n      jumpi\n        /* \"#utility.yul\":5787:5805   */\n      tag_264\n      tag_297\n      jump\t// in\n\n    auxdata: 0xa26469706673582212207d455ce986ea16da0bfe07b47fd77727a4ca808fd509ba96990cbcf0fa5a4d9c64736f6c63430008110033\n}\n",
				"bytecode": {
					"linkReferences": {},
					"object": "608060405234801561001057600080fd5b5060405161134d38038061134d83398101604081905261002f9161009d565b600080546001600160a01b03199081166001600160a01b039a8b16179091556001949094556002805433908616179055600380549094169490971693909317909155600c556006555050600955610111565b80516001600160a01b038116811461009857600080fd5b919050565b600080600080600080600080610100898b0312156100ba57600080fd5b6100c389610081565b97506100d160208a01610081565b9650604089015195506100e660608a01610081565b94506080890151935060a0890151925060c0890151915060e089015190509295985092959890939650565b61122d806101206000396000f3fe60806040526004361061016a5760003560e01c80635c975abb116100d1578063c683630d1161008a578063d57bde7911610064578063d57bde7914610482578063d6b4675b14610498578063ecefc705146104ae578063fe67a54b146104c4576101a4565b8063c683630d14610437578063c6bc518214610457578063ceb164191461046d576101a4565b80635c975abb146103455780636b64c769146103655780637cc3ae8c1461037a57806391f901571461039057806395ecc5cc146103b0578063b9ae736414610422576101a4565b80631f2698ab116101235780631f2698ab146102a35780632aeee493146102bd578063378252f2146102d057806341275358146102e557806347ccca021461030557806353d6fd5914610325576101a4565b806308551a53146101ce57806312065fe01461020b57806312fa6feb1461022857806317d531fc146102575780631cf5e6691461026d5780631df4ccfc1461028d576101a4565b366101a4576002546001600160a01b031633146101a25760405162461bcd60e51b8152600401610199906110a9565b60405180910390fd5b005b6002546001600160a01b031633146101a25760405162461bcd60e51b8152600401610199906110a9565b3480156101da57600080fd5b506002546101ee906001600160a01b031681565b6040516001600160a01b0390911681526020015b60405180910390f35b34801561021757600080fd5b50475b604051908152602001610202565b34801561023457600080fd5b5060075461024790610100900460ff1681565b6040519015158152602001610202565b34801561026357600080fd5b5061021a60085481565b34801561027957600080fd5b506004546101ee906001600160a01b031681565b34801561029957600080fd5b5061021a600a5481565b3480156102af57600080fd5b506007546102479060ff1681565b6101a26102cb3660046110d6565b6104d9565b3480156102dc57600080fd5b506101a2610830565b3480156102f157600080fd5b506003546101ee906001600160a01b031681565b34801561031157600080fd5b506000546101ee906001600160a01b031681565b34801561033157600080fd5b506101a2610340366004611124565b610b31565b34801561035157600080fd5b506007546102479062010000900460ff1681565b34801561037157600080fd5b506101a2610bb3565b34801561038657600080fd5b5061021a60065481565b34801561039c57600080fd5b50600b546101ee906001600160a01b031681565b3480156103bc57600080fd5b506103fa6103cb366004611160565b600d60205260009081526040902080546001820154600283015460038401546004909401549293919290919085565b604080519586526020860194909452928401919091526060830152608082015260a001610202565b34801561042e57600080fd5b506101a2610cc8565b34801561044357600080fd5b50610247610452366004611160565b610d83565b34801561046357600080fd5b5061021a60015481565b34801561047957600080fd5b506101a2610da6565b34801561048e57600080fd5b5061021a600c5481565b3480156104a457600080fd5b5061021a60055481565b3480156104ba57600080fd5b5061021a61271081565b3480156104d057600080fd5b506101a2610e56565b60075460ff1661051d5760405162461bcd60e51b815260206004820152600f60248201526e139bdd0814dd185c9d19590816595d608a1b6044820152606401610199565b60075462010000900460ff16156105675760405162461bcd60e51b815260206004820152600e60248201526d105d58dd1a5bdb8814185d5cd95960921b6044820152606401610199565b60065442106105a85760405162461bcd60e51b815260206004820152600d60248201526c105b1c9958591e48195b991959609a1b6044820152606401610199565b6002546001600160a01b031633036105f75760405162461bcd60e51b815260206004820152601260248201527114d95b1b195c881b9bdd08185b1b1bddd95960721b6044820152606401610199565b336000908152600e602052604090205460ff1661064a5760405162461bcd60e51b815260206004820152601160248201527014195c9b5a5cdcda5bdb8819195b9a5959607a1b6044820152606401610199565b600c5483116106875760405162461bcd60e51b8152602060048201526009602482015268131bddd95c88109a5960ba1b6044820152606401610199565b60095460009061069961271034611198565b6106a391906111ba565b905080600a60008282546106b791906111d1565b9091555050600b546001600160a01b03166000818152600d60205260409020600401546106e49190610fa0565b336000908152600d6020526040902054156107365761070381346111e4565b336000908152600d60205260409020600481019190915560018101859055858155600281018490556003018290556107c2565b6107686040518060a0016040528060008152602001600081526020016000815260200160008152602001600081525090565b61077282346111e4565b608082019081528682526020808301878152604080850188815260608601888152336000908152600d90955291909320945185559051600185015590516002840155516003830155516004909101555b600b80546001600160a01b03191633179055600c84905560088054600191906000906107ef9084906111d1565b909155505060405184815233907fe684a55f31b79eca403df938249029212a5925ec6be8012e099b45bc1019e5d29060200160405180910390a25050505050565b6002546001600160a01b0316331461085a5760405162461bcd60e51b8152600401610199906110a9565b6006544210156108985760405162461bcd60e51b8152602060048201526009602482015268139bdd08115b99195960ba1b6044820152606401610199565b600b546001600160a01b031615610aec57600054600b54600154604051632142170760e11b81523060048201526001600160a01b03928316602482015260448101919091529116906342842e0e906064015b600060405180830381600087803b15801561090457600080fd5b505af1158015610918573d6000803e3d6000fd5b5050600354600a54604051600094506001600160a01b039092169250908381818185875af1925050503d806000811461096d576040519150601f19603f3d011682016040523d82523d6000602084013e610972565b606091505b50509050806109c35760405162461bcd60e51b815260206004820152601760248201527f52657475726e206665652066756e6473206661696c65640000000000000000006044820152606401610199565b600354600a546040519081526001600160a01b03909116907e57d762ad8f1734de771f2b521b2668347c0cee2d709a12254662cd5a7d41809060200160405180910390a2600254600c546040516000926001600160a01b031691908381818185875af1925050503d8060008114610a56576040519150601f19603f3d011682016040523d82523d6000602084013e610a5b565b606091505b5050905080610aa25760405162461bcd60e51b815260206004820152601360248201527214995d1d5c9b88199d5b991cc819985a5b1959606a1b6044820152606401610199565b600254600c546040519081526001600160a01b03909116907f1c1b1a7e52e22e996a7b9c93efbf98eeb6171f5ecaa8f5c1c792427b53d29e84906020015b60405180910390a25050565b600054600254600154604051632142170760e11b81523060048201526001600160a01b03928316602482015260448101919091529116906342842e0e906064016108ea565b6002546001600160a01b03163314610b5b5760405162461bcd60e51b8152600401610199906110a9565b6001600160a01b0382166000818152600e6020908152604091829020805460ff191685151590811790915591519182527fc2c8beffdf047b9e6c79b0e9dcd0bd71d174d84f52e013102fcc0e200dd58ee09101610ae0565b6002546001600160a01b03163314610bdd5760405162461bcd60e51b8152600401610199906110a9565b60075460ff1615610c225760405162461bcd60e51b815260206004820152600f60248201526e105b1c9958591e4814dd185c9d1959608a1b6044820152606401610199565b6000546001546040516323b872dd60e01b815233600482015230602482015260448101919091526001600160a01b03909116906323b872dd90606401600060405180830381600087803b158015610c7857600080fd5b505af1158015610c8c573d6000803e3d6000fd5b50506007805460ff1916600117905550506040517fd295ebf0a48a9a43d600a6ecb8626baa711d5750dec13a08145013aa30cb92ea90600090a1565b6002546001600160a01b03163314610cf25760405162461bcd60e51b8152600401610199906110a9565b60075462010000900460ff1615610d3c5760405162461bcd60e51b815260206004820152600e60248201526d105b1c9958591e4814185d5cd95960921b6044820152606401610199565b6007805462ff00001916620100001790556040513381527fdee06086e53b718fd5176fdaa88a207819a06a56b42087ac2cab84d32a335654906020015b60405180910390a1565b6001600160a01b0381166000908152600e602052604081205460ff165b92915050565b6002546001600160a01b03163314610dd05760405162461bcd60e51b8152600401610199906110a9565b60075462010000900460ff16610e1a5760405162461bcd60e51b815260206004820152600f60248201526e416c72656164792052756e6e696e6760881b6044820152606401610199565b6007805462ff0000191690556040513381527fc1a02e947cf77134ed09ac0692636f0553306db51ffe4a1d9e7b51b4dcd9c76290602001610d79565b6002546001600160a01b03163314610e805760405162461bcd60e51b8152600401610199906110a9565b60075460ff16610ec45760405162461bcd60e51b815260206004820152600f60248201526e139bdd0814dd185c9d19590816595d608a1b6044820152606401610199565b600654421015610f025760405162461bcd60e51b8152602060048201526009602482015268139bdd08115b99195960ba1b6044820152606401610199565b600754610100900460ff1615610f4a5760405162461bcd60e51b815260206004820152600d60248201526c105b1c9958591e48115b991959609a1b6044820152606401610199565b6007805461ff001916610100179055600b54600c54604080516001600160a01b03909316835260208301919091527fca09734d1fc32150404dc9252b4d991c6bee44319031b7159c03d5ae2c0627049101610d79565b6000826001600160a01b03168260405160006040518083038185875af1925050503d8060008114610fed576040519150601f19603f3d011682016040523d82523d6000602084013e610ff2565b606091505b50509050806110395760405162461bcd60e51b815260206004820152601360248201527214995d1d5c9b88199d5b991cc819985a5b1959606a1b6044820152606401610199565b336000908152600d6020526040808220600481018390558281556002810183905560030191909155516001600160a01b038416907fe523757eee9c213543af9b06c96e0629da383d3149173f4a03ab96d8ff5267609061109c9085815260200190565b60405180910390a2505050565b60208082526013908201527229b2b73232b91034b9903737ba1037bbb732b960691b604082015260600190565b600080600080608085870312156110ec57600080fd5b5050823594602084013594506040840135936060013592509050565b80356001600160a01b038116811461111f57600080fd5b919050565b6000806040838503121561113757600080fd5b61114083611108565b91506020830135801515811461115557600080fd5b809150509250929050565b60006020828403121561117257600080fd5b61117b82611108565b9392505050565b634e487b7160e01b600052601160045260246000fd5b6000826111b557634e487b7160e01b600052601260045260246000fd5b500490565b8082028115828204841417610da057610da0611182565b80820180821115610da057610da0611182565b81810381811115610da057610da061118256fea26469706673582212207d455ce986ea16da0bfe07b47fd77727a4ca808fd509ba96990cbcf0fa5a4d9c64736f6c63430008110033",
					"opcodes": "PUSH1 0x80 PUSH1 0x40 MSTORE CALLVALUE DUP1 ISZERO PUSH2 0x10 JUMPI PUSH1 0x0 DUP1 REVERT JUMPDEST POP PUSH1 0x40 MLOAD PUSH2 0x134D CODESIZE SUB DUP1 PUSH2 0x134D DUP4 CODECOPY DUP2 ADD PUSH1 0x40 DUP2 SWAP1 MSTORE PUSH2 0x2F SWAP2 PUSH2 0x9D JUMP JUMPDEST PUSH1 0x0 DUP1 SLOAD PUSH1 0x1 PUSH1 0x1 PUSH1 0xA0 SHL SUB NOT SWAP1 DUP2 AND PUSH1 0x1 PUSH1 0x1 PUSH1 0xA0 SHL SUB SWAP11 DUP12 AND OR SWAP1 SWAP2 SSTORE PUSH1 0x1 SWAP5 SWAP1 SWAP5 SSTORE PUSH1 0x2 DUP1 SLOAD CALLER SWAP1 DUP7 AND OR SWAP1 SSTORE PUSH1 0x3 DUP1 SLOAD SWAP1 SWAP5 AND SWAP5 SWAP1 SWAP8 AND SWAP4 SWAP1 SWAP4 OR SWAP1 SWAP2 SSTORE PUSH1 0xC SSTORE PUSH1 0x6 SSTORE POP POP PUSH1 0x9 SSTORE PUSH2 0x111 JUMP JUMPDEST DUP1 MLOAD PUSH1 0x1 PUSH1 0x1 PUSH1 0xA0 SHL SUB DUP2 AND DUP2 EQ PUSH2 0x98 JUMPI PUSH1 0x0 DUP1 REVERT JUMPDEST SWAP2 SWAP1 POP JUMP JUMPDEST PUSH1 0x0 DUP1 PUSH1 0x0 DUP1 PUSH1 0x0 DUP1 PUSH1 0x0 DUP1 PUSH2 0x100 DUP10 DUP12 SUB SLT ISZERO PUSH2 0xBA JUMPI PUSH1 0x0 DUP1 REVERT JUMPDEST PUSH2 0xC3 DUP10 PUSH2 0x81 JUMP JUMPDEST SWAP8 POP PUSH2 0xD1 PUSH1 0x20 DUP11 ADD PUSH2 0x81 JUMP JUMPDEST SWAP7 POP PUSH1 0x40 DUP10 ADD MLOAD SWAP6 POP PUSH2 0xE6 PUSH1 0x60 DUP11 ADD PUSH2 0x81 JUMP JUMPDEST SWAP5 POP PUSH1 0x80 DUP10 ADD MLOAD SWAP4 POP PUSH1 0xA0 DUP10 ADD MLOAD SWAP3 POP PUSH1 0xC0 DUP10 ADD MLOAD SWAP2 POP PUSH1 0xE0 DUP10 ADD MLOAD SWAP1 POP SWAP3 SWAP6 SWAP9 POP SWAP3 SWAP6 SWAP9 SWAP1 SWAP4 SWAP7 POP JUMP JUMPDEST PUSH2 0x122D DUP1 PUSH2 0x120 PUSH1 0x0 CODECOPY PUSH1 0x0 RETURN INVALID PUSH1 0x80 PUSH1 0x40 MSTORE PUSH1 0x4 CALLDATASIZE LT PUSH2 0x16A JUMPI PUSH1 0x0 CALLDATALOAD PUSH1 0xE0 SHR DUP1 PUSH4 0x5C975ABB GT PUSH2 0xD1 JUMPI DUP1 PUSH4 0xC683630D GT PUSH2 0x8A JUMPI DUP1 PUSH4 0xD57BDE79 GT PUSH2 0x64 JUMPI DUP1 PUSH4 0xD57BDE79 EQ PUSH2 0x482 JUMPI DUP1 PUSH4 0xD6B4675B EQ PUSH2 0x498 JUMPI DUP1 PUSH4 0xECEFC705 EQ PUSH2 0x4AE JUMPI DUP1 PUSH4 0xFE67A54B EQ PUSH2 0x4C4 JUMPI PUSH2 0x1A4 JUMP JUMPDEST DUP1 PUSH4 0xC683630D EQ PUSH2 0x437 JUMPI DUP1 PUSH4 0xC6BC5182 EQ PUSH2 0x457 JUMPI DUP1 PUSH4 0xCEB16419 EQ PUSH2 0x46D JUMPI PUSH2 0x1A4 JUMP JUMPDEST DUP1 PUSH4 0x5C975ABB EQ PUSH2 0x345 JUMPI DUP1 PUSH4 0x6B64C769 EQ PUSH2 0x365 JUMPI DUP1 PUSH4 0x7CC3AE8C EQ PUSH2 0x37A JUMPI DUP1 PUSH4 0x91F90157 EQ PUSH2 0x390 JUMPI DUP1 PUSH4 0x95ECC5CC EQ PUSH2 0x3B0 JUMPI DUP1 PUSH4 0xB9AE7364 EQ PUSH2 0x422 JUMPI PUSH2 0x1A4 JUMP JUMPDEST DUP1 PUSH4 0x1F2698AB GT PUSH2 0x123 JUMPI DUP1 PUSH4 0x1F2698AB EQ PUSH2 0x2A3 JUMPI DUP1 PUSH4 0x2AEEE493 EQ PUSH2 0x2BD JUMPI DUP1 PUSH4 0x378252F2 EQ PUSH2 0x2D0 JUMPI DUP1 PUSH4 0x41275358 EQ PUSH2 0x2E5 JUMPI DUP1 PUSH4 0x47CCCA02 EQ PUSH2 0x305 JUMPI DUP1 PUSH4 0x53D6FD59 EQ PUSH2 0x325 JUMPI PUSH2 0x1A4 JUMP JUMPDEST DUP1 PUSH4 0x8551A53 EQ PUSH2 0x1CE JUMPI DUP1 PUSH4 0x12065FE0 EQ PUSH2 0x20B JUMPI DUP1 PUSH4 0x12FA6FEB EQ PUSH2 0x228 JUMPI DUP1 PUSH4 0x17D531FC EQ PUSH2 0x257 JUMPI DUP1 PUSH4 0x1CF5E669 EQ PUSH2 0x26D JUMPI DUP1 PUSH4 0x1DF4CCFC EQ PUSH2 0x28D JUMPI PUSH2 0x1A4 JUMP JUMPDEST CALLDATASIZE PUSH2 0x1A4 JUMPI PUSH1 0x2 SLOAD PUSH1 0x1 PUSH1 0x1 PUSH1 0xA0 SHL SUB AND CALLER EQ PUSH2 0x1A2 JUMPI PUSH1 0x40 MLOAD PUSH3 0x461BCD PUSH1 0xE5 SHL DUP2 MSTORE PUSH1 0x4 ADD PUSH2 0x199 SWAP1 PUSH2 0x10A9 JUMP JUMPDEST PUSH1 0x40 MLOAD DUP1 SWAP2 SUB SWAP1 REVERT JUMPDEST STOP JUMPDEST PUSH1 0x2 SLOAD PUSH1 0x1 PUSH1 0x1 PUSH1 0xA0 SHL SUB AND CALLER EQ PUSH2 0x1A2 JUMPI PUSH1 0x40 MLOAD PUSH3 0x461BCD PUSH1 0xE5 SHL DUP2 MSTORE PUSH1 0x4 ADD PUSH2 0x199 SWAP1 PUSH2 0x10A9 JUMP JUMPDEST CALLVALUE DUP1 ISZERO PUSH2 0x1DA JUMPI PUSH1 0x0 DUP1 REVERT JUMPDEST POP PUSH1 0x2 SLOAD PUSH2 0x1EE SWAP1 PUSH1 0x1 PUSH1 0x1 PUSH1 0xA0 SHL SUB AND DUP2 JUMP JUMPDEST PUSH1 0x40 MLOAD PUSH1 0x1 PUSH1 0x1 PUSH1 0xA0 SHL SUB SWAP1 SWAP2 AND DUP2 MSTORE PUSH1 0x20 ADD JUMPDEST PUSH1 0x40 MLOAD DUP1 SWAP2 SUB SWAP1 RETURN JUMPDEST CALLVALUE DUP1 ISZERO PUSH2 0x217 JUMPI PUSH1 0x0 DUP1 REVERT JUMPDEST POP SELFBALANCE JUMPDEST PUSH1 0x40 MLOAD SWAP1 DUP2 MSTORE PUSH1 0x20 ADD PUSH2 0x202 JUMP JUMPDEST CALLVALUE DUP1 ISZERO PUSH2 0x234 JUMPI PUSH1 0x0 DUP1 REVERT JUMPDEST POP PUSH1 0x7 SLOAD PUSH2 0x247 SWAP1 PUSH2 0x100 SWAP1 DIV PUSH1 0xFF AND DUP2 JUMP JUMPDEST PUSH1 0x40 MLOAD SWAP1 ISZERO ISZERO DUP2 MSTORE PUSH1 0x20 ADD PUSH2 0x202 JUMP JUMPDEST CALLVALUE DUP1 ISZERO PUSH2 0x263 JUMPI PUSH1 0x0 DUP1 REVERT JUMPDEST POP PUSH2 0x21A PUSH1 0x8 SLOAD DUP2 JUMP JUMPDEST CALLVALUE DUP1 ISZERO PUSH2 0x279 JUMPI PUSH1 0x0 DUP1 REVERT JUMPDEST POP PUSH1 0x4 SLOAD PUSH2 0x1EE SWAP1 PUSH1 0x1 PUSH1 0x1 PUSH1 0xA0 SHL SUB AND DUP2 JUMP JUMPDEST CALLVALUE DUP1 ISZERO PUSH2 0x299 JUMPI PUSH1 0x0 DUP1 REVERT JUMPDEST POP PUSH2 0x21A PUSH1 0xA SLOAD DUP2 JUMP JUMPDEST CALLVALUE DUP1 ISZERO PUSH2 0x2AF JUMPI PUSH1 0x0 DUP1 REVERT JUMPDEST POP PUSH1 0x7 SLOAD PUSH2 0x247 SWAP1 PUSH1 0xFF AND DUP2 JUMP JUMPDEST PUSH2 0x1A2 PUSH2 0x2CB CALLDATASIZE PUSH1 0x4 PUSH2 0x10D6 JUMP JUMPDEST PUSH2 0x4D9 JUMP JUMPDEST CALLVALUE DUP1 ISZERO PUSH2 0x2DC JUMPI PUSH1 0x0 DUP1 REVERT JUMPDEST POP PUSH2 0x1A2 PUSH2 0x830 JUMP JUMPDEST CALLVALUE DUP1 ISZERO PUSH2 0x2F1 JUMPI PUSH1 0x0 DUP1 REVERT JUMPDEST POP PUSH1 0x3 SLOAD PUSH2 0x1EE SWAP1 PUSH1 0x1 PUSH1 0x1 PUSH1 0xA0 SHL SUB AND DUP2 JUMP JUMPDEST CALLVALUE DUP1 ISZERO PUSH2 0x311 JUMPI PUSH1 0x0 DUP1 REVERT JUMPDEST POP PUSH1 0x0 SLOAD PUSH2 0x1EE SWAP1 PUSH1 0x1 PUSH1 0x1 PUSH1 0xA0 SHL SUB AND DUP2 JUMP JUMPDEST CALLVALUE DUP1 ISZERO PUSH2 0x331 JUMPI PUSH1 0x0 DUP1 REVERT JUMPDEST POP PUSH2 0x1A2 PUSH2 0x340 CALLDATASIZE PUSH1 0x4 PUSH2 0x1124 JUMP JUMPDEST PUSH2 0xB31 JUMP JUMPDEST CALLVALUE DUP1 ISZERO PUSH2 0x351 JUMPI PUSH1 0x0 DUP1 REVERT JUMPDEST POP PUSH1 0x7 SLOAD PUSH2 0x247 SWAP1 PUSH3 0x10000 SWAP1 DIV PUSH1 0xFF AND DUP2 JUMP JUMPDEST CALLVALUE DUP1 ISZERO PUSH2 0x371 JUMPI PUSH1 0x0 DUP1 REVERT JUMPDEST POP PUSH2 0x1A2 PUSH2 0xBB3 JUMP JUMPDEST CALLVALUE DUP1 ISZERO PUSH2 0x386 JUMPI PUSH1 0x0 DUP1 REVERT JUMPDEST POP PUSH2 0x21A PUSH1 0x6 SLOAD DUP2 JUMP JUMPDEST CALLVALUE DUP1 ISZERO PUSH2 0x39C JUMPI PUSH1 0x0 DUP1 REVERT JUMPDEST POP PUSH1 0xB SLOAD PUSH2 0x1EE SWAP1 PUSH1 0x1 PUSH1 0x1 PUSH1 0xA0 SHL SUB AND DUP2 JUMP JUMPDEST CALLVALUE DUP1 ISZERO PUSH2 0x3BC JUMPI PUSH1 0x0 DUP1 REVERT JUMPDEST POP PUSH2 0x3FA PUSH2 0x3CB CALLDATASIZE PUSH1 0x4 PUSH2 0x1160 JUMP JUMPDEST PUSH1 0xD PUSH1 0x20 MSTORE PUSH1 0x0 SWAP1 DUP2 MSTORE PUSH1 0x40 SWAP1 KECCAK256 DUP1 SLOAD PUSH1 0x1 DUP3 ADD SLOAD PUSH1 0x2 DUP4 ADD SLOAD PUSH1 0x3 DUP5 ADD SLOAD PUSH1 0x4 SWAP1 SWAP5 ADD SLOAD SWAP3 SWAP4 SWAP2 SWAP3 SWAP1 SWAP2 SWAP1 DUP6 JUMP JUMPDEST PUSH1 0x40 DUP1 MLOAD SWAP6 DUP7 MSTORE PUSH1 0x20 DUP7 ADD SWAP5 SWAP1 SWAP5 MSTORE SWAP3 DUP5 ADD SWAP2 SWAP1 SWAP2 MSTORE PUSH1 0x60 DUP4 ADD MSTORE PUSH1 0x80 DUP3 ADD MSTORE PUSH1 0xA0 ADD PUSH2 0x202 JUMP JUMPDEST CALLVALUE DUP1 ISZERO PUSH2 0x42E JUMPI PUSH1 0x0 DUP1 REVERT JUMPDEST POP PUSH2 0x1A2 PUSH2 0xCC8 JUMP JUMPDEST CALLVALUE DUP1 ISZERO PUSH2 0x443 JUMPI PUSH1 0x0 DUP1 REVERT JUMPDEST POP PUSH2 0x247 PUSH2 0x452 CALLDATASIZE PUSH1 0x4 PUSH2 0x1160 JUMP JUMPDEST PUSH2 0xD83 JUMP JUMPDEST CALLVALUE DUP1 ISZERO PUSH2 0x463 JUMPI PUSH1 0x0 DUP1 REVERT JUMPDEST POP PUSH2 0x21A PUSH1 0x1 SLOAD DUP2 JUMP JUMPDEST CALLVALUE DUP1 ISZERO PUSH2 0x479 JUMPI PUSH1 0x0 DUP1 REVERT JUMPDEST POP PUSH2 0x1A2 PUSH2 0xDA6 JUMP JUMPDEST CALLVALUE DUP1 ISZERO PUSH2 0x48E JUMPI PUSH1 0x0 DUP1 REVERT JUMPDEST POP PUSH2 0x21A PUSH1 0xC SLOAD DUP2 JUMP JUMPDEST CALLVALUE DUP1 ISZERO PUSH2 0x4A4 JUMPI PUSH1 0x0 DUP1 REVERT JUMPDEST POP PUSH2 0x21A PUSH1 0x5 SLOAD DUP2 JUMP JUMPDEST CALLVALUE DUP1 ISZERO PUSH2 0x4BA JUMPI PUSH1 0x0 DUP1 REVERT JUMPDEST POP PUSH2 0x21A PUSH2 0x2710 DUP2 JUMP JUMPDEST CALLVALUE DUP1 ISZERO PUSH2 0x4D0 JUMPI PUSH1 0x0 DUP1 REVERT JUMPDEST POP PUSH2 0x1A2 PUSH2 0xE56 JUMP JUMPDEST PUSH1 0x7 SLOAD PUSH1 0xFF AND PUSH2 0x51D JUMPI PUSH1 0x40 MLOAD PUSH3 0x461BCD PUSH1 0xE5 SHL DUP2 MSTORE PUSH1 0x20 PUSH1 0x4 DUP3 ADD MSTORE PUSH1 0xF PUSH1 0x24 DUP3 ADD MSTORE PUSH15 0x139BDD0814DD185C9D19590816595D PUSH1 0x8A SHL PUSH1 0x44 DUP3 ADD MSTORE PUSH1 0x64 ADD PUSH2 0x199 JUMP JUMPDEST PUSH1 0x7 SLOAD PUSH3 0x10000 SWAP1 DIV PUSH1 0xFF AND ISZERO PUSH2 0x567 JUMPI PUSH1 0x40 MLOAD PUSH3 0x461BCD PUSH1 0xE5 SHL DUP2 MSTORE PUSH1 0x20 PUSH1 0x4 DUP3 ADD MSTORE PUSH1 0xE PUSH1 0x24 DUP3 ADD MSTORE PUSH14 0x105D58DD1A5BDB8814185D5CD959 PUSH1 0x92 SHL PUSH1 0x44 DUP3 ADD MSTORE PUSH1 0x64 ADD PUSH2 0x199 JUMP JUMPDEST PUSH1 0x6 SLOAD TIMESTAMP LT PUSH2 0x5A8 JUMPI PUSH1 0x40 MLOAD PUSH3 0x461BCD PUSH1 0xE5 SHL DUP2 MSTORE PUSH1 0x20 PUSH1 0x4 DUP3 ADD MSTORE PUSH1 0xD PUSH1 0x24 DUP3 ADD MSTORE PUSH13 0x105B1C9958591E48195B991959 PUSH1 0x9A SHL PUSH1 0x44 DUP3 ADD MSTORE PUSH1 0x64 ADD PUSH2 0x199 JUMP JUMPDEST PUSH1 0x2 SLOAD PUSH1 0x1 PUSH1 0x1 PUSH1 0xA0 SHL SUB AND CALLER SUB PUSH2 0x5F7 JUMPI PUSH1 0x40 MLOAD PUSH3 0x461BCD PUSH1 0xE5 SHL DUP2 MSTORE PUSH1 0x20 PUSH1 0x4 DUP3 ADD MSTORE PUSH1 0x12 PUSH1 0x24 DUP3 ADD MSTORE PUSH18 0x14D95B1B195C881B9BDD08185B1B1BDDD959 PUSH1 0x72 SHL PUSH1 0x44 DUP3 ADD MSTORE PUSH1 0x64 ADD PUSH2 0x199 JUMP JUMPDEST CALLER PUSH1 0x0 SWAP1 DUP2 MSTORE PUSH1 0xE PUSH1 0x20 MSTORE PUSH1 0x40 SWAP1 KECCAK256 SLOAD PUSH1 0xFF AND PUSH2 0x64A JUMPI PUSH1 0x40 MLOAD PUSH3 0x461BCD PUSH1 0xE5 SHL DUP2 MSTORE PUSH1 0x20 PUSH1 0x4 DUP3 ADD MSTORE PUSH1 0x11 PUSH1 0x24 DUP3 ADD MSTORE PUSH17 0x14195C9B5A5CDCDA5BDB8819195B9A5959 PUSH1 0x7A SHL PUSH1 0x44 DUP3 ADD MSTORE PUSH1 0x64 ADD PUSH2 0x199 JUMP JUMPDEST PUSH1 0xC SLOAD DUP4 GT PUSH2 0x687 JUMPI PUSH1 0x40 MLOAD PUSH3 0x461BCD PUSH1 0xE5 SHL DUP2 MSTORE PUSH1 0x20 PUSH1 0x4 DUP3 ADD MSTORE PUSH1 0x9 PUSH1 0x24 DUP3 ADD MSTORE PUSH9 0x131BDDD95C88109A59 PUSH1 0xBA SHL PUSH1 0x44 DUP3 ADD MSTORE PUSH1 0x64 ADD PUSH2 0x199 JUMP JUMPDEST PUSH1 0x9 SLOAD PUSH1 0x0 SWAP1 PUSH2 0x699 PUSH2 0x2710 CALLVALUE PUSH2 0x1198 JUMP JUMPDEST PUSH2 0x6A3 SWAP2 SWAP1 PUSH2 0x11BA JUMP JUMPDEST SWAP1 POP DUP1 PUSH1 0xA PUSH1 0x0 DUP3 DUP3 SLOAD PUSH2 0x6B7 SWAP2 SWAP1 PUSH2 0x11D1 JUMP JUMPDEST SWAP1 SWAP2 SSTORE POP POP PUSH1 0xB SLOAD PUSH1 0x1 PUSH1 0x1 PUSH1 0xA0 SHL SUB AND PUSH1 0x0 DUP2 DUP2 MSTORE PUSH1 0xD PUSH1 0x20 MSTORE PUSH1 0x40 SWAP1 KECCAK256 PUSH1 0x4 ADD SLOAD PUSH2 0x6E4 SWAP2 SWAP1 PUSH2 0xFA0 JUMP JUMPDEST CALLER PUSH1 0x0 SWAP1 DUP2 MSTORE PUSH1 0xD PUSH1 0x20 MSTORE PUSH1 0x40 SWAP1 KECCAK256 SLOAD ISZERO PUSH2 0x736 JUMPI PUSH2 0x703 DUP2 CALLVALUE PUSH2 0x11E4 JUMP JUMPDEST CALLER PUSH1 0x0 SWAP1 DUP2 MSTORE PUSH1 0xD PUSH1 0x20 MSTORE PUSH1 0x40 SWAP1 KECCAK256 PUSH1 0x4 DUP2 ADD SWAP2 SWAP1 SWAP2 SSTORE PUSH1 0x1 DUP2 ADD DUP6 SWAP1 SSTORE DUP6 DUP2 SSTORE PUSH1 0x2 DUP2 ADD DUP5 SWAP1 SSTORE PUSH1 0x3 ADD DUP3 SWAP1 SSTORE PUSH2 0x7C2 JUMP JUMPDEST PUSH2 0x768 PUSH1 0x40 MLOAD DUP1 PUSH1 0xA0 ADD PUSH1 0x40 MSTORE DUP1 PUSH1 0x0 DUP2 MSTORE PUSH1 0x20 ADD PUSH1 0x0 DUP2 MSTORE PUSH1 0x20 ADD PUSH1 0x0 DUP2 MSTORE PUSH1 0x20 ADD PUSH1 0x0 DUP2 MSTORE PUSH1 0x20 ADD PUSH1 0x0 DUP2 MSTORE POP SWAP1 JUMP JUMPDEST PUSH2 0x772 DUP3 CALLVALUE PUSH2 0x11E4 JUMP JUMPDEST PUSH1 0x80 DUP3 ADD SWAP1 DUP2 MSTORE DUP7 DUP3 MSTORE PUSH1 0x20 DUP1 DUP4 ADD DUP8 DUP2 MSTORE PUSH1 0x40 DUP1 DUP6 ADD DUP9 DUP2 MSTORE PUSH1 0x60 DUP7 ADD DUP9 DUP2 MSTORE CALLER PUSH1 0x0 SWAP1 DUP2 MSTORE PUSH1 0xD SWAP1 SWAP6 MSTORE SWAP2 SWAP1 SWAP4 KECCAK256 SWAP5 MLOAD DUP6 SSTORE SWAP1 MLOAD PUSH1 0x1 DUP6 ADD SSTORE SWAP1 MLOAD PUSH1 0x2 DUP5 ADD SSTORE MLOAD PUSH1 0x3 DUP4 ADD SSTORE MLOAD PUSH1 0x4 SWAP1 SWAP2 ADD SSTORE JUMPDEST PUSH1 0xB DUP1 SLOAD PUSH1 0x1 PUSH1 0x1 PUSH1 0xA0 SHL SUB NOT AND CALLER OR SWAP1 SSTORE PUSH1 0xC DUP5 SWAP1 SSTORE PUSH1 0x8 DUP1 SLOAD PUSH1 0x1 SWAP2 SWAP1 PUSH1 0x0 SWAP1 PUSH2 0x7EF SWAP1 DUP5 SWAP1 PUSH2 0x11D1 JUMP JUMPDEST SWAP1 SWAP2 SSTORE POP POP PUSH1 0x40 MLOAD DUP5 DUP2 MSTORE CALLER SWAP1 PUSH32 0xE684A55F31B79ECA403DF938249029212A5925EC6BE8012E099B45BC1019E5D2 SWAP1 PUSH1 0x20 ADD PUSH1 0x40 MLOAD DUP1 SWAP2 SUB SWAP1 LOG2 POP POP POP POP POP JUMP JUMPDEST PUSH1 0x2 SLOAD PUSH1 0x1 PUSH1 0x1 PUSH1 0xA0 SHL SUB AND CALLER EQ PUSH2 0x85A JUMPI PUSH1 0x40 MLOAD PUSH3 0x461BCD PUSH1 0xE5 SHL DUP2 MSTORE PUSH1 0x4 ADD PUSH2 0x199 SWAP1 PUSH2 0x10A9 JUMP JUMPDEST PUSH1 0x6 SLOAD TIMESTAMP LT ISZERO PUSH2 0x898 JUMPI PUSH1 0x40 MLOAD PUSH3 0x461BCD PUSH1 0xE5 SHL DUP2 MSTORE PUSH1 0x20 PUSH1 0x4 DUP3 ADD MSTORE PUSH1 0x9 PUSH1 0x24 DUP3 ADD MSTORE PUSH9 0x139BDD08115B991959 PUSH1 0xBA SHL PUSH1 0x44 DUP3 ADD MSTORE PUSH1 0x64 ADD PUSH2 0x199 JUMP JUMPDEST PUSH1 0xB SLOAD PUSH1 0x1 PUSH1 0x1 PUSH1 0xA0 SHL SUB AND ISZERO PUSH2 0xAEC JUMPI PUSH1 0x0 SLOAD PUSH1 0xB SLOAD PUSH1 0x1 SLOAD PUSH1 0x40 MLOAD PUSH4 0x21421707 PUSH1 0xE1 SHL DUP2 MSTORE ADDRESS PUSH1 0x4 DUP3 ADD MSTORE PUSH1 0x1 PUSH1 0x1 PUSH1 0xA0 SHL SUB SWAP3 DUP4 AND PUSH1 0x24 DUP3 ADD MSTORE PUSH1 0x44 DUP2 ADD SWAP2 SWAP1 SWAP2 MSTORE SWAP2 AND SWAP1 PUSH4 0x42842E0E SWAP1 PUSH1 0x64 ADD JUMPDEST PUSH1 0x0 PUSH1 0x40 MLOAD DUP1 DUP4 SUB DUP2 PUSH1 0x0 DUP8 DUP1 EXTCODESIZE ISZERO DUP1 ISZERO PUSH2 0x904 JUMPI PUSH1 0x0 DUP1 REVERT JUMPDEST POP GAS CALL ISZERO DUP1 ISZERO PUSH2 0x918 JUMPI RETURNDATASIZE PUSH1 0x0 DUP1 RETURNDATACOPY RETURNDATASIZE PUSH1 0x0 REVERT JUMPDEST POP POP PUSH1 0x3 SLOAD PUSH1 0xA SLOAD PUSH1 0x40 MLOAD PUSH1 0x0 SWAP5 POP PUSH1 0x1 PUSH1 0x1 PUSH1 0xA0 SHL SUB SWAP1 SWAP3 AND SWAP3 POP SWAP1 DUP4 DUP2 DUP2 DUP2 DUP6 DUP8 GAS CALL SWAP3 POP POP POP RETURNDATASIZE DUP1 PUSH1 0x0 DUP2 EQ PUSH2 0x96D JUMPI PUSH1 0x40 MLOAD SWAP2 POP PUSH1 0x1F NOT PUSH1 0x3F RETURNDATASIZE ADD AND DUP3 ADD PUSH1 0x40 MSTORE RETURNDATASIZE DUP3 MSTORE RETURNDATASIZE PUSH1 0x0 PUSH1 0x20 DUP5 ADD RETURNDATACOPY PUSH2 0x972 JUMP JUMPDEST PUSH1 0x60 SWAP2 POP JUMPDEST POP POP SWAP1 POP DUP1 PUSH2 0x9C3 JUMPI PUSH1 0x40 MLOAD PUSH3 0x461BCD PUSH1 0xE5 SHL DUP2 MSTORE PUSH1 0x20 PUSH1 0x4 DUP3 ADD MSTORE PUSH1 0x17 PUSH1 0x24 DUP3 ADD MSTORE PUSH32 0x52657475726E206665652066756E6473206661696C6564000000000000000000 PUSH1 0x44 DUP3 ADD MSTORE PUSH1 0x64 ADD PUSH2 0x199 JUMP JUMPDEST PUSH1 0x3 SLOAD PUSH1 0xA SLOAD PUSH1 0x40 MLOAD SWAP1 DUP2 MSTORE PUSH1 0x1 PUSH1 0x1 PUSH1 0xA0 SHL SUB SWAP1 SWAP2 AND SWAP1 PUSH31 0x57D762AD8F1734DE771F2B521B2668347C0CEE2D709A12254662CD5A7D4180 SWAP1 PUSH1 0x20 ADD PUSH1 0x40 MLOAD DUP1 SWAP2 SUB SWAP1 LOG2 PUSH1 0x2 SLOAD PUSH1 0xC SLOAD PUSH1 0x40 MLOAD PUSH1 0x0 SWAP3 PUSH1 0x1 PUSH1 0x1 PUSH1 0xA0 SHL SUB AND SWAP2 SWAP1 DUP4 DUP2 DUP2 DUP2 DUP6 DUP8 GAS CALL SWAP3 POP POP POP RETURNDATASIZE DUP1 PUSH1 0x0 DUP2 EQ PUSH2 0xA56 JUMPI PUSH1 0x40 MLOAD SWAP2 POP PUSH1 0x1F NOT PUSH1 0x3F RETURNDATASIZE ADD AND DUP3 ADD PUSH1 0x40 MSTORE RETURNDATASIZE DUP3 MSTORE RETURNDATASIZE PUSH1 0x0 PUSH1 0x20 DUP5 ADD RETURNDATACOPY PUSH2 0xA5B JUMP JUMPDEST PUSH1 0x60 SWAP2 POP JUMPDEST POP POP SWAP1 POP DUP1 PUSH2 0xAA2 JUMPI PUSH1 0x40 MLOAD PUSH3 0x461BCD PUSH1 0xE5 SHL DUP2 MSTORE PUSH1 0x20 PUSH1 0x4 DUP3 ADD MSTORE PUSH1 0x13 PUSH1 0x24 DUP3 ADD MSTORE PUSH19 0x14995D1D5C9B88199D5B991CC819985A5B1959 PUSH1 0x6A SHL PUSH1 0x44 DUP3 ADD MSTORE PUSH1 0x64 ADD PUSH2 0x199 JUMP JUMPDEST PUSH1 0x2 SLOAD PUSH1 0xC SLOAD PUSH1 0x40 MLOAD SWAP1 DUP2 MSTORE PUSH1 0x1 PUSH1 0x1 PUSH1 0xA0 SHL SUB SWAP1 SWAP2 AND SWAP1 PUSH32 0x1C1B1A7E52E22E996A7B9C93EFBF98EEB6171F5ECAA8F5C1C792427B53D29E84 SWAP1 PUSH1 0x20 ADD JUMPDEST PUSH1 0x40 MLOAD DUP1 SWAP2 SUB SWAP1 LOG2 POP POP JUMP JUMPDEST PUSH1 0x0 SLOAD PUSH1 0x2 SLOAD PUSH1 0x1 SLOAD PUSH1 0x40 MLOAD PUSH4 0x21421707 PUSH1 0xE1 SHL DUP2 MSTORE ADDRESS PUSH1 0x4 DUP3 ADD MSTORE PUSH1 0x1 PUSH1 0x1 PUSH1 0xA0 SHL SUB SWAP3 DUP4 AND PUSH1 0x24 DUP3 ADD MSTORE PUSH1 0x44 DUP2 ADD SWAP2 SWAP1 SWAP2 MSTORE SWAP2 AND SWAP1 PUSH4 0x42842E0E SWAP1 PUSH1 0x64 ADD PUSH2 0x8EA JUMP JUMPDEST PUSH1 0x2 SLOAD PUSH1 0x1 PUSH1 0x1 PUSH1 0xA0 SHL SUB AND CALLER EQ PUSH2 0xB5B JUMPI PUSH1 0x40 MLOAD PUSH3 0x461BCD PUSH1 0xE5 SHL DUP2 MSTORE PUSH1 0x4 ADD PUSH2 0x199 SWAP1 PUSH2 0x10A9 JUMP JUMPDEST PUSH1 0x1 PUSH1 0x1 PUSH1 0xA0 SHL SUB DUP3 AND PUSH1 0x0 DUP2 DUP2 MSTORE PUSH1 0xE PUSH1 0x20 SWAP1 DUP2 MSTORE PUSH1 0x40 SWAP2 DUP3 SWAP1 KECCAK256 DUP1 SLOAD PUSH1 0xFF NOT AND DUP6 ISZERO ISZERO SWAP1 DUP2 OR SWAP1 SWAP2 SSTORE SWAP2 MLOAD SWAP2 DUP3 MSTORE PUSH32 0xC2C8BEFFDF047B9E6C79B0E9DCD0BD71D174D84F52E013102FCC0E200DD58EE0 SWAP2 ADD PUSH2 0xAE0 JUMP JUMPDEST PUSH1 0x2 SLOAD PUSH1 0x1 PUSH1 0x1 PUSH1 0xA0 SHL SUB AND CALLER EQ PUSH2 0xBDD JUMPI PUSH1 0x40 MLOAD PUSH3 0x461BCD PUSH1 0xE5 SHL DUP2 MSTORE PUSH1 0x4 ADD PUSH2 0x199 SWAP1 PUSH2 0x10A9 JUMP JUMPDEST PUSH1 0x7 SLOAD PUSH1 0xFF AND ISZERO PUSH2 0xC22 JUMPI PUSH1 0x40 MLOAD PUSH3 0x461BCD PUSH1 0xE5 SHL DUP2 MSTORE PUSH1 0x20 PUSH1 0x4 DUP3 ADD MSTORE PUSH1 0xF PUSH1 0x24 DUP3 ADD MSTORE PUSH15 0x105B1C9958591E4814DD185C9D1959 PUSH1 0x8A SHL PUSH1 0x44 DUP3 ADD MSTORE PUSH1 0x64 ADD PUSH2 0x199 JUMP JUMPDEST PUSH1 0x0 SLOAD PUSH1 0x1 SLOAD PUSH1 0x40 MLOAD PUSH4 0x23B872DD PUSH1 0xE0 SHL DUP2 MSTORE CALLER PUSH1 0x4 DUP3 ADD MSTORE ADDRESS PUSH1 0x24 DUP3 ADD MSTORE PUSH1 0x44 DUP2 ADD SWAP2 SWAP1 SWAP2 MSTORE PUSH1 0x1 PUSH1 0x1 PUSH1 0xA0 SHL SUB SWAP1 SWAP2 AND SWAP1 PUSH4 0x23B872DD SWAP1 PUSH1 0x64 ADD PUSH1 0x0 PUSH1 0x40 MLOAD DUP1 DUP4 SUB DUP2 PUSH1 0x0 DUP8 DUP1 EXTCODESIZE ISZERO DUP1 ISZERO PUSH2 0xC78 JUMPI PUSH1 0x0 DUP1 REVERT JUMPDEST POP GAS CALL ISZERO DUP1 ISZERO PUSH2 0xC8C JUMPI RETURNDATASIZE PUSH1 0x0 DUP1 RETURNDATACOPY RETURNDATASIZE PUSH1 0x0 REVERT JUMPDEST POP POP PUSH1 0x7 DUP1 SLOAD PUSH1 0xFF NOT AND PUSH1 0x1 OR SWAP1 SSTORE POP POP PUSH1 0x40 MLOAD PUSH32 0xD295EBF0A48A9A43D600A6ECB8626BAA711D5750DEC13A08145013AA30CB92EA SWAP1 PUSH1 0x0 SWAP1 LOG1 JUMP JUMPDEST PUSH1 0x2 SLOAD PUSH1 0x1 PUSH1 0x1 PUSH1 0xA0 SHL SUB AND CALLER EQ PUSH2 0xCF2 JUMPI PUSH1 0x40 MLOAD PUSH3 0x461BCD PUSH1 0xE5 SHL DUP2 MSTORE PUSH1 0x4 ADD PUSH2 0x199 SWAP1 PUSH2 0x10A9 JUMP JUMPDEST PUSH1 0x7 SLOAD PUSH3 0x10000 SWAP1 DIV PUSH1 0xFF AND ISZERO PUSH2 0xD3C JUMPI PUSH1 0x40 MLOAD PUSH3 0x461BCD PUSH1 0xE5 SHL DUP2 MSTORE PUSH1 0x20 PUSH1 0x4 DUP3 ADD MSTORE PUSH1 0xE PUSH1 0x24 DUP3 ADD MSTORE PUSH14 0x105B1C9958591E4814185D5CD959 PUSH1 0x92 SHL PUSH1 0x44 DUP3 ADD MSTORE PUSH1 0x64 ADD PUSH2 0x199 JUMP JUMPDEST PUSH1 0x7 DUP1 SLOAD PUSH3 0xFF0000 NOT AND PUSH3 0x10000 OR SWAP1 SSTORE PUSH1 0x40 MLOAD CALLER DUP2 MSTORE PUSH32 0xDEE06086E53B718FD5176FDAA88A207819A06A56B42087AC2CAB84D32A335654 SWAP1 PUSH1 0x20 ADD JUMPDEST PUSH1 0x40 MLOAD DUP1 SWAP2 SUB SWAP1 LOG1 JUMP JUMPDEST PUSH1 0x1 PUSH1 0x1 PUSH1 0xA0 SHL SUB DUP2 AND PUSH1 0x0 SWAP1 DUP2 MSTORE PUSH1 0xE PUSH1 0x20 MSTORE PUSH1 0x40 DUP2 KECCAK256 SLOAD PUSH1 0xFF AND JUMPDEST SWAP3 SWAP2 POP POP JUMP JUMPDEST PUSH1 0x2 SLOAD PUSH1 0x1 PUSH1 0x1 PUSH1 0xA0 SHL SUB AND CALLER EQ PUSH2 0xDD0 JUMPI PUSH1 0x40 MLOAD PUSH3 0x461BCD PUSH1 0xE5 SHL DUP2 MSTORE PUSH1 0x4 ADD PUSH2 0x199 SWAP1 PUSH2 0x10A9 JUMP JUMPDEST PUSH1 0x7 SLOAD PUSH3 0x10000 SWAP1 DIV PUSH1 0xFF AND PUSH2 0xE1A JUMPI PUSH1 0x40 MLOAD PUSH3 0x461BCD PUSH1 0xE5 SHL DUP2 MSTORE PUSH1 0x20 PUSH1 0x4 DUP3 ADD MSTORE PUSH1 0xF PUSH1 0x24 DUP3 ADD MSTORE PUSH15 0x416C72656164792052756E6E696E67 PUSH1 0x88 SHL PUSH1 0x44 DUP3 ADD MSTORE PUSH1 0x64 ADD PUSH2 0x199 JUMP JUMPDEST PUSH1 0x7 DUP1 SLOAD PUSH3 0xFF0000 NOT AND SWAP1 SSTORE PUSH1 0x40 MLOAD CALLER DUP2 MSTORE PUSH32 0xC1A02E947CF77134ED09AC0692636F0553306DB51FFE4A1D9E7B51B4DCD9C762 SWAP1 PUSH1 0x20 ADD PUSH2 0xD79 JUMP JUMPDEST PUSH1 0x2 SLOAD PUSH1 0x1 PUSH1 0x1 PUSH1 0xA0 SHL SUB AND CALLER EQ PUSH2 0xE80 JUMPI PUSH1 0x40 MLOAD PUSH3 0x461BCD PUSH1 0xE5 SHL DUP2 MSTORE PUSH1 0x4 ADD PUSH2 0x199 SWAP1 PUSH2 0x10A9 JUMP JUMPDEST PUSH1 0x7 SLOAD PUSH1 0xFF AND PUSH2 0xEC4 JUMPI PUSH1 0x40 MLOAD PUSH3 0x461BCD PUSH1 0xE5 SHL DUP2 MSTORE PUSH1 0x20 PUSH1 0x4 DUP3 ADD MSTORE PUSH1 0xF PUSH1 0x24 DUP3 ADD MSTORE PUSH15 0x139BDD0814DD185C9D19590816595D PUSH1 0x8A SHL PUSH1 0x44 DUP3 ADD MSTORE PUSH1 0x64 ADD PUSH2 0x199 JUMP JUMPDEST PUSH1 0x6 SLOAD TIMESTAMP LT ISZERO PUSH2 0xF02 JUMPI PUSH1 0x40 MLOAD PUSH3 0x461BCD PUSH1 0xE5 SHL DUP2 MSTORE PUSH1 0x20 PUSH1 0x4 DUP3 ADD MSTORE PUSH1 0x9 PUSH1 0x24 DUP3 ADD MSTORE PUSH9 0x139BDD08115B991959 PUSH1 0xBA SHL PUSH1 0x44 DUP3 ADD MSTORE PUSH1 0x64 ADD PUSH2 0x199 JUMP JUMPDEST PUSH1 0x7 SLOAD PUSH2 0x100 SWAP1 DIV PUSH1 0xFF AND ISZERO PUSH2 0xF4A JUMPI PUSH1 0x40 MLOAD PUSH3 0x461BCD PUSH1 0xE5 SHL DUP2 MSTORE PUSH1 0x20 PUSH1 0x4 DUP3 ADD MSTORE PUSH1 0xD PUSH1 0x24 DUP3 ADD MSTORE PUSH13 0x105B1C9958591E48115B991959 PUSH1 0x9A SHL PUSH1 0x44 DUP3 ADD MSTORE PUSH1 0x64 ADD PUSH2 0x199 JUMP JUMPDEST PUSH1 0x7 DUP1 SLOAD PUSH2 0xFF00 NOT AND PUSH2 0x100 OR SWAP1 SSTORE PUSH1 0xB SLOAD PUSH1 0xC SLOAD PUSH1 0x40 DUP1 MLOAD PUSH1 0x1 PUSH1 0x1 PUSH1 0xA0 SHL SUB SWAP1 SWAP4 AND DUP4 MSTORE PUSH1 0x20 DUP4 ADD SWAP2 SWAP1 SWAP2 MSTORE PUSH32 0xCA09734D1FC32150404DC9252B4D991C6BEE44319031B7159C03D5AE2C062704 SWAP2 ADD PUSH2 0xD79 JUMP JUMPDEST PUSH1 0x0 DUP3 PUSH1 0x1 PUSH1 0x1 PUSH1 0xA0 SHL SUB AND DUP3 PUSH1 0x40 MLOAD PUSH1 0x0 PUSH1 0x40 MLOAD DUP1 DUP4 SUB DUP2 DUP6 DUP8 GAS CALL SWAP3 POP POP POP RETURNDATASIZE DUP1 PUSH1 0x0 DUP2 EQ PUSH2 0xFED JUMPI PUSH1 0x40 MLOAD SWAP2 POP PUSH1 0x1F NOT PUSH1 0x3F RETURNDATASIZE ADD AND DUP3 ADD PUSH1 0x40 MSTORE RETURNDATASIZE DUP3 MSTORE RETURNDATASIZE PUSH1 0x0 PUSH1 0x20 DUP5 ADD RETURNDATACOPY PUSH2 0xFF2 JUMP JUMPDEST PUSH1 0x60 SWAP2 POP JUMPDEST POP POP SWAP1 POP DUP1 PUSH2 0x1039 JUMPI PUSH1 0x40 MLOAD PUSH3 0x461BCD PUSH1 0xE5 SHL DUP2 MSTORE PUSH1 0x20 PUSH1 0x4 DUP3 ADD MSTORE PUSH1 0x13 PUSH1 0x24 DUP3 ADD MSTORE PUSH19 0x14995D1D5C9B88199D5B991CC819985A5B1959 PUSH1 0x6A SHL PUSH1 0x44 DUP3 ADD MSTORE PUSH1 0x64 ADD PUSH2 0x199 JUMP JUMPDEST CALLER PUSH1 0x0 SWAP1 DUP2 MSTORE PUSH1 0xD PUSH1 0x20 MSTORE PUSH1 0x40 DUP1 DUP3 KECCAK256 PUSH1 0x4 DUP2 ADD DUP4 SWAP1 SSTORE DUP3 DUP2 SSTORE PUSH1 0x2 DUP2 ADD DUP4 SWAP1 SSTORE PUSH1 0x3 ADD SWAP2 SWAP1 SWAP2 SSTORE MLOAD PUSH1 0x1 PUSH1 0x1 PUSH1 0xA0 SHL SUB DUP5 AND SWAP1 PUSH32 0xE523757EEE9C213543AF9B06C96E0629DA383D3149173F4A03AB96D8FF526760 SWAP1 PUSH2 0x109C SWAP1 DUP6 DUP2 MSTORE PUSH1 0x20 ADD SWAP1 JUMP JUMPDEST PUSH1 0x40 MLOAD DUP1 SWAP2 SUB SWAP1 LOG2 POP POP POP JUMP JUMPDEST PUSH1 0x20 DUP1 DUP3 MSTORE PUSH1 0x13 SWAP1 DUP3 ADD MSTORE PUSH19 0x29B2B73232B91034B9903737BA1037BBB732B9 PUSH1 0x69 SHL PUSH1 0x40 DUP3 ADD MSTORE PUSH1 0x60 ADD SWAP1 JUMP JUMPDEST PUSH1 0x0 DUP1 PUSH1 0x0 DUP1 PUSH1 0x80 DUP6 DUP8 SUB SLT ISZERO PUSH2 0x10EC JUMPI PUSH1 0x0 DUP1 REVERT JUMPDEST POP POP DUP3 CALLDATALOAD SWAP5 PUSH1 0x20 DUP5 ADD CALLDATALOAD SWAP5 POP PUSH1 0x40 DUP5 ADD CALLDATALOAD SWAP4 PUSH1 0x60 ADD CALLDATALOAD SWAP3 POP SWAP1 POP JUMP JUMPDEST DUP1 CALLDATALOAD PUSH1 0x1 PUSH1 0x1 PUSH1 0xA0 SHL SUB DUP2 AND DUP2 EQ PUSH2 0x111F JUMPI PUSH1 0x0 DUP1 REVERT JUMPDEST SWAP2 SWAP1 POP JUMP JUMPDEST PUSH1 0x0 DUP1 PUSH1 0x40 DUP4 DUP6 SUB SLT ISZERO PUSH2 0x1137 JUMPI PUSH1 0x0 DUP1 REVERT JUMPDEST PUSH2 0x1140 DUP4 PUSH2 0x1108 JUMP JUMPDEST SWAP2 POP PUSH1 0x20 DUP4 ADD CALLDATALOAD DUP1 ISZERO ISZERO DUP2 EQ PUSH2 0x1155 JUMPI PUSH1 0x0 DUP1 REVERT JUMPDEST DUP1 SWAP2 POP POP SWAP3 POP SWAP3 SWAP1 POP JUMP JUMPDEST PUSH1 0x0 PUSH1 0x20 DUP3 DUP5 SUB SLT ISZERO PUSH2 0x1172 JUMPI PUSH1 0x0 DUP1 REVERT JUMPDEST PUSH2 0x117B DUP3 PUSH2 0x1108 JUMP JUMPDEST SWAP4 SWAP3 POP POP POP JUMP JUMPDEST PUSH4 0x4E487B71 PUSH1 0xE0 SHL PUSH1 0x0 MSTORE PUSH1 0x11 PUSH1 0x4 MSTORE PUSH1 0x24 PUSH1 0x0 REVERT JUMPDEST PUSH1 0x0 DUP3 PUSH2 0x11B5 JUMPI PUSH4 0x4E487B71 PUSH1 0xE0 SHL PUSH1 0x0 MSTORE PUSH1 0x12 PUSH1 0x4 MSTORE PUSH1 0x24 PUSH1 0x0 REVERT JUMPDEST POP DIV SWAP1 JUMP JUMPDEST DUP1 DUP3 MUL DUP2 ISZERO DUP3 DUP3 DIV DUP5 EQ OR PUSH2 0xDA0 JUMPI PUSH2 0xDA0 PUSH2 0x1182 JUMP JUMPDEST DUP1 DUP3 ADD DUP1 DUP3 GT ISZERO PUSH2 0xDA0 JUMPI PUSH2 0xDA0 PUSH2 0x1182 JUMP JUMPDEST DUP2 DUP2 SUB DUP2 DUP2 GT ISZERO PUSH2 0xDA0 JUMPI PUSH2 0xDA0 PUSH2 0x1182 JUMP INVALID LOG2 PUSH5 0x6970667358 0x22 SLT KECCAK256 PUSH30 0x455CE986EA16DA0BFE07B47FD77727A4CA808FD509BA96990CBCF0FA5A4D SWAP13 PUSH5 0x736F6C6343 STOP ADDMOD GT STOP CALLER "
				},
				"gasEstimates": {
					"creation": {
						"codeDepositCost": "930600",
						"executionCost": "infinite",
						"totalCost": "infinite"
					},
					"external": {
						"": "2524",
						"FEE_BASE()": "283",
						"closeAuction()": "infinite",
						"docsProcess()": "2361",
						"docsRegister()": "2438",
						"endAt()": "2362",
						"endAuction()": "38579",
						"ended()": "2389",
						"feeAddress()": "2415",
						"getBalance()": "229",
						"highestBid()": "2339",
						"highestBidder()": "2415",
						"isWhitelist(address)": "2617",
						"newBid(uint256,uint256,uint256,uint256)": "infinite",
						"nft()": "2437",
						"nftId()": "2362",
						"numberOfBids()": "2385",
						"pauseAuction()": "29835",
						"paused()": "2344",
						"receivedBids(address)": "11174",
						"seller()": "2350",
						"setWhitelist(address,bool)": "28418",
						"startAuction()": "infinite",
						"started()": "2333",
						"totalFee()": "2429",
						"unpauseAuction()": "29793"
					},
					"internal": {
						"_isWhitelist(address)": "infinite",
						"cashback(address,uint256)": "infinite"
					}
				},
				"methodIdentifiers": {
					"FEE_BASE()": "ecefc705",
					"closeAuction()": "378252f2",
					"docsProcess()": "d6b4675b",
					"docsRegister()": "1cf5e669",
					"endAt()": "7cc3ae8c",
					"endAuction()": "fe67a54b",
					"ended()": "12fa6feb",
					"feeAddress()": "41275358",
					"getBalance()": "12065fe0",
					"highestBid()": "d57bde79",
					"highestBidder()": "91f90157",
					"isWhitelist(address)": "c683630d",
					"newBid(uint256,uint256,uint256,uint256)": "2aeee493",
					"nft()": "47ccca02",
					"nftId()": "c6bc5182",
					"numberOfBids()": "17d531fc",
					"pauseAuction()": "b9ae7364",
					"paused()": "5c975abb",
					"receivedBids(address)": "95ecc5cc",
					"seller()": "08551a53",
					"setWhitelist(address,bool)": "53d6fd59",
					"startAuction()": "6b64c769",
					"started()": "1f2698ab",
					"totalFee()": "1df4ccfc",
					"unpauseAuction()": "ceb16419"
				}
			},
			"storageLayout": {
				"storage": [
					{
						"astId": 82,
						"contract": "Contracts/AuctionSPU.sol:AuctionSPU",
						"label": "nft",
						"offset": 0,
						"slot": "0",
						"type": "t_contract(IERC721)23"
					},
					{
						"astId": 84,
						"contract": "Contracts/AuctionSPU.sol:AuctionSPU",
						"label": "nftId",
						"offset": 0,
						"slot": "1",
						"type": "t_uint256"
					},
					{
						"astId": 86,
						"contract": "Contracts/AuctionSPU.sol:AuctionSPU",
						"label": "seller",
						"offset": 0,
						"slot": "2",
						"type": "t_address_payable"
					},
					{
						"astId": 88,
						"contract": "Contracts/AuctionSPU.sol:AuctionSPU",
						"label": "feeAddress",
						"offset": 0,
						"slot": "3",
						"type": "t_address_payable"
					},
					{
						"astId": 90,
						"contract": "Contracts/AuctionSPU.sol:AuctionSPU",
						"label": "docsRegister",
						"offset": 0,
						"slot": "4",
						"type": "t_address"
					},
					{
						"astId": 92,
						"contract": "Contracts/AuctionSPU.sol:AuctionSPU",
						"label": "docsProcess",
						"offset": 0,
						"slot": "5",
						"type": "t_uint256"
					},
					{
						"astId": 94,
						"contract": "Contracts/AuctionSPU.sol:AuctionSPU",
						"label": "endAt",
						"offset": 0,
						"slot": "6",
						"type": "t_uint256"
					},
					{
						"astId": 96,
						"contract": "Contracts/AuctionSPU.sol:AuctionSPU",
						"label": "started",
						"offset": 0,
						"slot": "7",
						"type": "t_bool"
					},
					{
						"astId": 98,
						"contract": "Contracts/AuctionSPU.sol:AuctionSPU",
						"label": "ended",
						"offset": 1,
						"slot": "7",
						"type": "t_bool"
					},
					{
						"astId": 100,
						"contract": "Contracts/AuctionSPU.sol:AuctionSPU",
						"label": "paused",
						"offset": 2,
						"slot": "7",
						"type": "t_bool"
					},
					{
						"astId": 102,
						"contract": "Contracts/AuctionSPU.sol:AuctionSPU",
						"label": "numberOfBids",
						"offset": 0,
						"slot": "8",
						"type": "t_uint256"
					},
					{
						"astId": 104,
						"contract": "Contracts/AuctionSPU.sol:AuctionSPU",
						"label": "transactionFee",
						"offset": 0,
						"slot": "9",
						"type": "t_uint256"
					},
					{
						"astId": 109,
						"contract": "Contracts/AuctionSPU.sol:AuctionSPU",
						"label": "totalFee",
						"offset": 0,
						"slot": "10",
						"type": "t_uint256"
					},
					{
						"astId": 111,
						"contract": "Contracts/AuctionSPU.sol:AuctionSPU",
						"label": "highestBidder",
						"offset": 0,
						"slot": "11",
						"type": "t_address"
					},
					{
						"astId": 113,
						"contract": "Contracts/AuctionSPU.sol:AuctionSPU",
						"label": "highestBid",
						"offset": 0,
						"slot": "12",
						"type": "t_uint256"
					},
					{
						"astId": 129,
						"contract": "Contracts/AuctionSPU.sol:AuctionSPU",
						"label": "receivedBids",
						"offset": 0,
						"slot": "13",
						"type": "t_mapping(t_address,t_struct(Bidders)124_storage)"
					},
					{
						"astId": 133,
						"contract": "Contracts/AuctionSPU.sol:AuctionSPU",
						"label": "_whitelist",
						"offset": 0,
						"slot": "14",
						"type": "t_mapping(t_address,t_bool)"
					}
				],
				"types": {
					"t_address": {
						"encoding": "inplace",
						"label": "address",
						"numberOfBytes": "20"
					},
					"t_address_payable": {
						"encoding": "inplace",
						"label": "address payable",
						"numberOfBytes": "20"
					},
					"t_bool": {
						"encoding": "inplace",
						"label": "bool",
						"numberOfBytes": "1"
					},
					"t_contract(IERC721)23": {
						"encoding": "inplace",
						"label": "contract IERC721",
						"numberOfBytes": "20"
					},
					"t_mapping(t_address,t_bool)": {
						"encoding": "mapping",
						"key": "t_address",
						"label": "mapping(address => bool)",
						"numberOfBytes": "32",
						"value": "t_bool"
					},
					"t_mapping(t_address,t_struct(Bidders)124_storage)": {
						"encoding": "mapping",
						"key": "t_address",
						"label": "mapping(address => struct AuctionSPU.Bidders)",
						"numberOfBytes": "32",
						"value": "t_struct(Bidders)124_storage"
					},
					"t_struct(Bidders)124_storage": {
						"encoding": "inplace",
						"label": "struct AuctionSPU.Bidders",
						"members": [
							{
								"astId": 115,
								"contract": "Contracts/AuctionSPU.sol:AuctionSPU",
								"label": "totalValue",
								"offset": 0,
								"slot": "0",
								"type": "t_uint256"
							},
							{
								"astId": 117,
								"contract": "Contracts/AuctionSPU.sol:AuctionSPU",
								"label": "realValue",
								"offset": 0,
								"slot": "1",
								"type": "t_uint256"
							},
							{
								"astId": 119,
								"contract": "Contracts/AuctionSPU.sol:AuctionSPU",
								"label": "portion",
								"offset": 0,
								"slot": "2",
								"type": "t_uint256"
							},
							{
								"astId": 121,
								"contract": "Contracts/AuctionSPU.sol:AuctionSPU",
								"label": "clientScore",
								"offset": 0,
								"slot": "3",
								"type": "t_uint256"
							},
							{
								"astId": 123,
								"contract": "Contracts/AuctionSPU.sol:AuctionSPU",
								"label": "downpay",
								"offset": 0,
								"slot": "4",
								"type": "t_uint256"
							}
						],
						"numberOfBytes": "160"
					},
					"t_uint256": {
						"encoding": "inplace",
						"label": "uint256",
						"numberOfBytes": "32"
					}
				}
			},
			"userdoc": {
				"events": {
					"Bid(address,uint256)": {
						"notice": "New bid made"
					},
					"BidPayment(address,uint256)": {
						"notice": "Bid paid for the seller"
					},
					"Cashback(address,uint256)": {
						"notice": "Amount returned for last highest bidder when highest bidder changed"
					},
					"EndAuction(address,uint256)": {
						"notice": "Auction ended"
					},
					"FeePayment(address,uint256)": {
						"notice": "Fee of the auction sent to feeAddress"
					},
					"PauseAuction(address)": {
						"notice": "Auction paused"
					},
					"SetWhitelistByAddress(address,bool)": {
						"notice": "New address added to whitelist"
					},
					"StartAuction()": {
						"notice": "Auction started"
					},
					"UnpauseAuction(address)": {
						"notice": "Auction unpaused"
					}
				},
				"kind": "user",
				"methods": {
					"endAuction()": {
						"notice": "End the auction"
					},
					"getBalance()": {
						"notice": "Function to get the balance of the contract"
					},
					"isWhitelist(address)": {
						"notice": "Public method to check if address has privilegies"
					},
					"pauseAuction()": {
						"notice": "Pause the auction"
					},
					"setWhitelist(address,bool)": {
						"notice": "Method to insert new address to the whitelist"
					},
					"startAuction()": {
						"notice": "Start the auction"
					},
					"unpauseAuction()": {
						"notice": "Unpause the auction"
					}
				},
				"notice": "AuctionSPU contract",
				"version": 1
			}
		}
	}
}