{
	"Contracts/AuctionSPU.sol": {
		"AuctionSPU": {
			"abi": [
				{
					"inputs": [
						{
							"internalType": "address",
							"name": "_nft",
							"type": "address"
						},
						{
							"internalType": "address",
							"name": "_feeAddres",
							"type": "address"
						},
						{
							"internalType": "uint256",
							"name": "_nftId",
							"type": "uint256"
						},
						{
							"internalType": "uint256",
							"name": "_startingBid",
							"type": "uint256"
						},
						{
							"internalType": "uint256",
							"name": "_period",
							"type": "uint256"
						},
						{
							"internalType": "uint256",
							"name": "_transactionFee",
							"type": "uint256"
						}
					],
					"stateMutability": "nonpayable",
					"type": "constructor"
				},
				{
					"anonymous": false,
					"inputs": [
						{
							"indexed": true,
							"internalType": "address",
							"name": "sender",
							"type": "address"
						},
						{
							"indexed": false,
							"internalType": "uint256",
							"name": "amount",
							"type": "uint256"
						}
					],
					"name": "Bid",
					"type": "event"
				},
				{
					"anonymous": false,
					"inputs": [
						{
							"indexed": true,
							"internalType": "address",
							"name": "seller",
							"type": "address"
						},
						{
							"indexed": false,
							"internalType": "uint256",
							"name": "highestBid",
							"type": "uint256"
						}
					],
					"name": "BidPayment",
					"type": "event"
				},
				{
					"anonymous": false,
					"inputs": [
						{
							"indexed": true,
							"internalType": "address",
							"name": "bidder",
							"type": "address"
						},
						{
							"indexed": false,
							"internalType": "uint256",
							"name": "amount",
							"type": "uint256"
						}
					],
					"name": "Cashback",
					"type": "event"
				},
				{
					"anonymous": false,
					"inputs": [
						{
							"indexed": false,
							"internalType": "address",
							"name": "winner",
							"type": "address"
						},
						{
							"indexed": false,
							"internalType": "uint256",
							"name": "amount",
							"type": "uint256"
						}
					],
					"name": "EndAuction",
					"type": "event"
				},
				{
					"anonymous": false,
					"inputs": [
						{
							"indexed": true,
							"internalType": "address",
							"name": "feeAddress",
							"type": "address"
						},
						{
							"indexed": false,
							"internalType": "uint256",
							"name": "totalFee",
							"type": "uint256"
						}
					],
					"name": "FeePayment",
					"type": "event"
				},
				{
					"anonymous": false,
					"inputs": [
						{
							"indexed": false,
							"internalType": "address",
							"name": "pauser",
							"type": "address"
						}
					],
					"name": "PauseAuction",
					"type": "event"
				},
				{
					"anonymous": false,
					"inputs": [
						{
							"indexed": true,
							"internalType": "address",
							"name": "account",
							"type": "address"
						},
						{
							"indexed": false,
							"internalType": "bool",
							"name": "enable",
							"type": "bool"
						}
					],
					"name": "SetWhitelistByAddress",
					"type": "event"
				},
				{
					"anonymous": false,
					"inputs": [],
					"name": "StartAuction",
					"type": "event"
				},
				{
					"anonymous": false,
					"inputs": [
						{
							"indexed": false,
							"internalType": "address",
							"name": "pauser",
							"type": "address"
						}
					],
					"name": "UnpauseAuction",
					"type": "event"
				},
				{
					"anonymous": false,
					"inputs": [
						{
							"indexed": true,
							"internalType": "address",
							"name": "bidder",
							"type": "address"
						},
						{
							"indexed": false,
							"internalType": "uint256",
							"name": "amount",
							"type": "uint256"
						}
					],
					"name": "Withdraw",
					"type": "event"
				},
				{
					"stateMutability": "payable",
					"type": "fallback"
				},
				{
					"inputs": [],
					"name": "FEE_BASE",
					"outputs": [
						{
							"internalType": "uint256",
							"name": "",
							"type": "uint256"
						}
					],
					"stateMutability": "view",
					"type": "function"
				},
				{
					"inputs": [],
					"name": "closeAuction",
					"outputs": [],
					"stateMutability": "nonpayable",
					"type": "function"
				},
				{
					"inputs": [],
					"name": "endAt",
					"outputs": [
						{
							"internalType": "uint256",
							"name": "",
							"type": "uint256"
						}
					],
					"stateMutability": "view",
					"type": "function"
				},
				{
					"inputs": [],
					"name": "endAuction",
					"outputs": [],
					"stateMutability": "nonpayable",
					"type": "function"
				},
				{
					"inputs": [],
					"name": "ended",
					"outputs": [
						{
							"internalType": "bool",
							"name": "",
							"type": "bool"
						}
					],
					"stateMutability": "view",
					"type": "function"
				},
				{
					"inputs": [],
					"name": "feeAddress",
					"outputs": [
						{
							"internalType": "address payable",
							"name": "",
							"type": "address"
						}
					],
					"stateMutability": "view",
					"type": "function"
				},
				{
					"inputs": [],
					"name": "getBalance",
					"outputs": [
						{
							"internalType": "uint256",
							"name": "",
							"type": "uint256"
						}
					],
					"stateMutability": "view",
					"type": "function"
				},
				{
					"inputs": [],
					"name": "highestBid",
					"outputs": [
						{
							"internalType": "uint256",
							"name": "",
							"type": "uint256"
						}
					],
					"stateMutability": "view",
					"type": "function"
				},
				{
					"inputs": [],
					"name": "highestBidder",
					"outputs": [
						{
							"internalType": "address",
							"name": "",
							"type": "address"
						}
					],
					"stateMutability": "view",
					"type": "function"
				},
				{
					"inputs": [
						{
							"internalType": "address",
							"name": "_account",
							"type": "address"
						}
					],
					"name": "isWhitelist",
					"outputs": [
						{
							"internalType": "bool",
							"name": "",
							"type": "bool"
						}
					],
					"stateMutability": "view",
					"type": "function"
				},
				{
					"inputs": [
						{
							"internalType": "uint256",
							"name": "_totalValue",
							"type": "uint256"
						},
						{
							"internalType": "uint256",
							"name": "_portion",
							"type": "uint256"
						},
						{
							"internalType": "uint256",
							"name": "_clientScore",
							"type": "uint256"
						}
					],
					"name": "newBid",
					"outputs": [],
					"stateMutability": "payable",
					"type": "function"
				},
				{
					"inputs": [],
					"name": "nft",
					"outputs": [
						{
							"internalType": "contract IERC721",
							"name": "",
							"type": "address"
						}
					],
					"stateMutability": "view",
					"type": "function"
				},
				{
					"inputs": [],
					"name": "nftId",
					"outputs": [
						{
							"internalType": "uint256",
							"name": "",
							"type": "uint256"
						}
					],
					"stateMutability": "view",
					"type": "function"
				},
				{
					"inputs": [],
					"name": "numberOfBids",
					"outputs": [
						{
							"internalType": "uint256",
							"name": "",
							"type": "uint256"
						}
					],
					"stateMutability": "view",
					"type": "function"
				},
				{
					"inputs": [],
					"name": "pauseAuction",
					"outputs": [],
					"stateMutability": "nonpayable",
					"type": "function"
				},
				{
					"inputs": [],
					"name": "paused",
					"outputs": [
						{
							"internalType": "bool",
							"name": "",
							"type": "bool"
						}
					],
					"stateMutability": "view",
					"type": "function"
				},
				{
					"inputs": [
						{
							"internalType": "address",
							"name": "",
							"type": "address"
						}
					],
					"name": "receivedBids",
					"outputs": [
						{
							"internalType": "uint256",
							"name": "totalValue",
							"type": "uint256"
						},
						{
							"internalType": "uint256",
							"name": "portion",
							"type": "uint256"
						},
						{
							"internalType": "uint256",
							"name": "clientScore",
							"type": "uint256"
						},
						{
							"internalType": "uint256",
							"name": "downpay",
							"type": "uint256"
						}
					],
					"stateMutability": "view",
					"type": "function"
				},
				{
					"inputs": [],
					"name": "seller",
					"outputs": [
						{
							"internalType": "address payable",
							"name": "",
							"type": "address"
						}
					],
					"stateMutability": "view",
					"type": "function"
				},
				{
					"inputs": [
						{
							"internalType": "address",
							"name": "_account",
							"type": "address"
						},
						{
							"internalType": "bool",
							"name": "enable",
							"type": "bool"
						}
					],
					"name": "setWhitelist",
					"outputs": [],
					"stateMutability": "nonpayable",
					"type": "function"
				},
				{
					"inputs": [],
					"name": "startAuction",
					"outputs": [],
					"stateMutability": "nonpayable",
					"type": "function"
				},
				{
					"inputs": [],
					"name": "started",
					"outputs": [
						{
							"internalType": "bool",
							"name": "",
							"type": "bool"
						}
					],
					"stateMutability": "view",
					"type": "function"
				},
				{
					"inputs": [],
					"name": "totalFee",
					"outputs": [
						{
							"internalType": "uint256",
							"name": "",
							"type": "uint256"
						}
					],
					"stateMutability": "view",
					"type": "function"
				},
				{
					"inputs": [],
					"name": "unpauseAuction",
					"outputs": [],
					"stateMutability": "nonpayable",
					"type": "function"
				},
				{
					"inputs": [],
					"name": "withdraw",
					"outputs": [],
					"stateMutability": "nonpayable",
					"type": "function"
				},
				{
					"stateMutability": "payable",
					"type": "receive"
				}
			],
			"devdoc": {
				"kind": "dev",
				"methods": {},
				"version": 1
			},
			"evm": {
				"assembly": "    /* \"Contracts/AuctionSPU.sol\":893:8961  contract AuctionSPU {... */\n  mstore(0x40, 0x80)\n    /* \"Contracts/AuctionSPU.sol\":2642:3105  constructor(... */\n  callvalue\n  dup1\n  iszero\n  tag_1\n  jumpi\n  0x00\n  dup1\n  revert\ntag_1:\n  pop\n  mload(0x40)\n  sub(codesize, bytecodeSize)\n  dup1\n  bytecodeSize\n  dup4\n  codecopy\n  dup2\n  add\n  0x40\n  dup2\n  swap1\n  mstore\n  tag_2\n  swap2\n  tag_3\n  jump\t// in\ntag_2:\n    /* \"Contracts/AuctionSPU.sol\":2838:2841  nft */\n  0x00\n    /* \"Contracts/AuctionSPU.sol\":2838:2857  nft = IERC721(_nft) */\n  dup1\n  sload\n  not(sub(shl(0xa0, 0x01), 0x01))\n  swap1\n  dup2\n  and\n  sub(shl(0xa0, 0x01), 0x01)\n  swap9\n  dup10\n  and\n  or\n  swap1\n  swap2\n  sstore\n  0x01\n    /* \"Contracts/AuctionSPU.sol\":2868:2882  nftId = _nftId */\n  swap5\n  swap1\n  swap5\n  sstore\n    /* \"Contracts/AuctionSPU.sol\":2895:2901  seller */\n  0x02\n    /* \"Contracts/AuctionSPU.sol\":2895:2923  seller = payable(msg.sender) */\n  dup1\n  sload\n    /* \"Contracts/AuctionSPU.sol\":2912:2922  msg.sender */\n  caller\n    /* \"Contracts/AuctionSPU.sol\":2895:2923  seller = payable(msg.sender) */\n  swap1\n  dup7\n  and\n  or\n  swap1\n  sstore\n    /* \"Contracts/AuctionSPU.sol\":2934:2944  feeAddress */\n  0x03\n    /* \"Contracts/AuctionSPU.sol\":2934:2966  feeAddress = payable(_feeAddres) */\n  dup1\n  sload\n  swap1\n  swap5\n  and\n  swap5\n  swap1\n  swap6\n  and\n  swap4\n  swap1\n  swap4\n  or\n  swap1\n  swap2\n  sstore\n    /* \"Contracts/AuctionSPU.sol\":2977:2987  highestBid */\n  0x0a\n    /* \"Contracts/AuctionSPU.sol\":2977:3002  highestBid = _startingBid */\n  sstore\n    /* \"Contracts/AuctionSPU.sol\":3013:3018  endAt */\n  0x04\n    /* \"Contracts/AuctionSPU.sol\":3013:3028  endAt = _period */\n  sstore\n    /* \"Contracts/AuctionSPU.sol\":3051:3065  transactionFee */\n  0x07\n    /* \"Contracts/AuctionSPU.sol\":3051:3083  transactionFee = _transactionFee */\n  sstore\n    /* \"Contracts/AuctionSPU.sol\":893:8961  contract AuctionSPU {... */\n  jump(tag_8)\n    /* \"#utility.yul\":14:191   */\ntag_7:\n    /* \"#utility.yul\":93:106   */\n  dup1\n  mload\n  sub(shl(0xa0, 0x01), 0x01)\n    /* \"#utility.yul\":135:166   */\n  dup2\n  and\n    /* \"#utility.yul\":125:167   */\n  dup2\n  eq\n    /* \"#utility.yul\":115:185   */\n  tag_10\n  jumpi\n    /* \"#utility.yul\":181:182   */\n  0x00\n    /* \"#utility.yul\":178:179   */\n  dup1\n    /* \"#utility.yul\":171:183   */\n  revert\n    /* \"#utility.yul\":115:185   */\ntag_10:\n    /* \"#utility.yul\":14:191   */\n  swap2\n  swap1\n  pop\n  jump\t// out\n    /* \"#utility.yul\":196:736   */\ntag_3:\n    /* \"#utility.yul\":311:317   */\n  0x00\n    /* \"#utility.yul\":319:325   */\n  dup1\n    /* \"#utility.yul\":327:333   */\n  0x00\n    /* \"#utility.yul\":335:341   */\n  dup1\n    /* \"#utility.yul\":343:349   */\n  0x00\n    /* \"#utility.yul\":351:357   */\n  dup1\n    /* \"#utility.yul\":404:407   */\n  0xc0\n    /* \"#utility.yul\":392:401   */\n  dup8\n    /* \"#utility.yul\":383:390   */\n  dup10\n    /* \"#utility.yul\":379:402   */\n  sub\n    /* \"#utility.yul\":375:408   */\n  slt\n    /* \"#utility.yul\":372:425   */\n  iszero\n  tag_12\n  jumpi\n    /* \"#utility.yul\":421:422   */\n  0x00\n    /* \"#utility.yul\":418:419   */\n  dup1\n    /* \"#utility.yul\":411:423   */\n  revert\n    /* \"#utility.yul\":372:425   */\ntag_12:\n    /* \"#utility.yul\":444:484   */\n  tag_13\n    /* \"#utility.yul\":474:483   */\n  dup8\n    /* \"#utility.yul\":444:484   */\n  tag_7\n  jump\t// in\ntag_13:\n    /* \"#utility.yul\":434:484   */\n  swap6\n  pop\n    /* \"#utility.yul\":503:552   */\n  tag_14\n    /* \"#utility.yul\":548:550   */\n  0x20\n    /* \"#utility.yul\":537:546   */\n  dup9\n    /* \"#utility.yul\":533:551   */\n  add\n    /* \"#utility.yul\":503:552   */\n  tag_7\n  jump\t// in\ntag_14:\n    /* \"#utility.yul\":493:552   */\n  swap5\n  pop\n    /* \"#utility.yul\":592:594   */\n  0x40\n    /* \"#utility.yul\":581:590   */\n  dup8\n    /* \"#utility.yul\":577:595   */\n  add\n    /* \"#utility.yul\":571:596   */\n  mload\n    /* \"#utility.yul\":561:596   */\n  swap4\n  pop\n    /* \"#utility.yul\":636:638   */\n  0x60\n    /* \"#utility.yul\":625:634   */\n  dup8\n    /* \"#utility.yul\":621:639   */\n  add\n    /* \"#utility.yul\":615:640   */\n  mload\n    /* \"#utility.yul\":605:640   */\n  swap3\n  pop\n    /* \"#utility.yul\":680:683   */\n  0x80\n    /* \"#utility.yul\":669:678   */\n  dup8\n    /* \"#utility.yul\":665:684   */\n  add\n    /* \"#utility.yul\":659:685   */\n  mload\n    /* \"#utility.yul\":649:685   */\n  swap2\n  pop\n    /* \"#utility.yul\":725:728   */\n  0xa0\n    /* \"#utility.yul\":714:723   */\n  dup8\n    /* \"#utility.yul\":710:729   */\n  add\n    /* \"#utility.yul\":704:730   */\n  mload\n    /* \"#utility.yul\":694:730   */\n  swap1\n  pop\n    /* \"#utility.yul\":196:736   */\n  swap3\n  swap6\n  pop\n  swap3\n  swap6\n  pop\n  swap3\n  swap6\n  jump\t// out\ntag_8:\n    /* \"Contracts/AuctionSPU.sol\":893:8961  contract AuctionSPU {... */\n  dataSize(sub_0)\n  dup1\n  dataOffset(sub_0)\n  0x00\n  codecopy\n  0x00\n  return\nstop\n\nsub_0: assembly {\n        /* \"Contracts/AuctionSPU.sol\":893:8961  contract AuctionSPU {... */\n      mstore(0x40, 0x80)\n      jumpi(tag_1, lt(calldatasize, 0x04))\n      shr(0xe0, calldataload(0x00))\n      dup1\n      0x6b64c769\n      gt\n      tag_27\n      jumpi\n      dup1\n      0xc6bc5182\n      gt\n      tag_28\n      jumpi\n      dup1\n      0xc6bc5182\n      eq\n      tag_21\n      jumpi\n      dup1\n      0xceb16419\n      eq\n      tag_22\n      jumpi\n      dup1\n      0xd57bde79\n      eq\n      tag_23\n      jumpi\n      dup1\n      0xdb15c437\n      eq\n      tag_24\n      jumpi\n      dup1\n      0xecefc705\n      eq\n      tag_25\n      jumpi\n      dup1\n      0xfe67a54b\n      eq\n      tag_26\n      jumpi\n      jump(tag_2)\n    tag_28:\n      dup1\n      0x6b64c769\n      eq\n      tag_15\n      jumpi\n      dup1\n      0x7cc3ae8c\n      eq\n      tag_16\n      jumpi\n      dup1\n      0x91f90157\n      eq\n      tag_17\n      jumpi\n      dup1\n      0x95ecc5cc\n      eq\n      tag_18\n      jumpi\n      dup1\n      0xb9ae7364\n      eq\n      tag_19\n      jumpi\n      dup1\n      0xc683630d\n      eq\n      tag_20\n      jumpi\n      jump(tag_2)\n    tag_27:\n      dup1\n      0x378252f2\n      gt\n      tag_29\n      jumpi\n      dup1\n      0x378252f2\n      eq\n      tag_9\n      jumpi\n      dup1\n      0x3ccfd60b\n      eq\n      tag_10\n      jumpi\n      dup1\n      0x41275358\n      eq\n      tag_11\n      jumpi\n      dup1\n      0x47ccca02\n      eq\n      tag_12\n      jumpi\n      dup1\n      0x53d6fd59\n      eq\n      tag_13\n      jumpi\n      dup1\n      0x5c975abb\n      eq\n      tag_14\n      jumpi\n      jump(tag_2)\n    tag_29:\n      dup1\n      0x08551a53\n      eq\n      tag_3\n      jumpi\n      dup1\n      0x12065fe0\n      eq\n      tag_4\n      jumpi\n      dup1\n      0x12fa6feb\n      eq\n      tag_5\n      jumpi\n      dup1\n      0x17d531fc\n      eq\n      tag_6\n      jumpi\n      dup1\n      0x1df4ccfc\n      eq\n      tag_7\n      jumpi\n      dup1\n      0x1f2698ab\n      eq\n      tag_8\n      jumpi\n      jump(tag_2)\n    tag_1:\n      jumpi(tag_2, calldatasize)\n        /* \"Contracts/AuctionSPU.sol\":3167:3173  seller */\n      and(sub(shl(0xa0, 0x01), 0x01), sload(0x02))\n        /* \"Contracts/AuctionSPU.sol\":3153:3163  msg.sender */\n      caller\n        /* \"Contracts/AuctionSPU.sol\":3153:3173  msg.sender == seller */\n      eq\n        /* \"Contracts/AuctionSPU.sol\":3145:3197  require(msg.sender == seller, \"Sender is not owner\") */\n      tag_32\n      jumpi\n      mload(0x40)\n      shl(0xe5, 0x461bcd)\n      dup2\n      mstore\n      0x04\n      add\n      tag_33\n      swap1\n      tag_34\n      jump\t// in\n    tag_33:\n      mload(0x40)\n      dup1\n      swap2\n      sub\n      swap1\n      revert\n    tag_32:\n        /* \"Contracts/AuctionSPU.sol\":893:8961  contract AuctionSPU {... */\n      stop\n    tag_2:\n        /* \"Contracts/AuctionSPU.sol\":3167:3173  seller */\n      and(sub(shl(0xa0, 0x01), 0x01), sload(0x02))\n        /* \"Contracts/AuctionSPU.sol\":3153:3163  msg.sender */\n      caller\n        /* \"Contracts/AuctionSPU.sol\":3153:3173  msg.sender == seller */\n      eq\n        /* \"Contracts/AuctionSPU.sol\":3145:3197  require(msg.sender == seller, \"Sender is not owner\") */\n      tag_32\n      jumpi\n      mload(0x40)\n      shl(0xe5, 0x461bcd)\n      dup2\n      mstore\n      0x04\n      add\n      tag_33\n      swap1\n      tag_34\n      jump\t// in\n        /* \"Contracts/AuctionSPU.sol\":1654:1683  address payable public seller */\n    tag_3:\n      callvalue\n      dup1\n      iszero\n      tag_41\n      jumpi\n      0x00\n      dup1\n      revert\n    tag_41:\n      pop\n      sload(0x02)\n      tag_42\n      swap1\n      sub(shl(0xa0, 0x01), 0x01)\n      and\n      dup2\n      jump\n    tag_42:\n      mload(0x40)\n      sub(shl(0xa0, 0x01), 0x01)\n        /* \"#utility.yul\":542:574   */\n      swap1\n      swap2\n      and\n        /* \"#utility.yul\":524:575   */\n      dup2\n      mstore\n        /* \"#utility.yul\":512:514   */\n      0x20\n        /* \"#utility.yul\":497:515   */\n      add\n        /* \"Contracts/AuctionSPU.sol\":1654:1683  address payable public seller */\n    tag_44:\n      mload(0x40)\n      dup1\n      swap2\n      sub\n      swap1\n      return\n        /* \"Contracts/AuctionSPU.sol\":3643:3739  function getBalance() public view returns (uint) {... */\n    tag_4:\n      callvalue\n      dup1\n      iszero\n      tag_46\n      jumpi\n      0x00\n      dup1\n      revert\n    tag_46:\n      pop\n        /* \"Contracts/AuctionSPU.sol\":3710:3731  address(this).balance */\n      selfbalance\n        /* \"Contracts/AuctionSPU.sol\":3643:3739  function getBalance() public view returns (uint) {... */\n    tag_47:\n      mload(0x40)\n        /* \"#utility.yul\":732:757   */\n      swap1\n      dup2\n      mstore\n        /* \"#utility.yul\":720:722   */\n      0x20\n        /* \"#utility.yul\":705:723   */\n      add\n        /* \"Contracts/AuctionSPU.sol\":3643:3739  function getBalance() public view returns (uint) {... */\n      tag_44\n        /* \"#utility.yul\":586:763   */\n      jump\n        /* \"Contracts/AuctionSPU.sol\":1780:1797  bool public ended */\n    tag_5:\n      callvalue\n      dup1\n      iszero\n      tag_51\n      jumpi\n      0x00\n      dup1\n      revert\n    tag_51:\n      pop\n      sload(0x05)\n      tag_52\n      swap1\n      0x0100\n      swap1\n      div\n      0xff\n      and\n      dup2\n      jump\n    tag_52:\n      mload(0x40)\n        /* \"#utility.yul\":933:947   */\n      swap1\n      iszero\n        /* \"#utility.yul\":926:948   */\n      iszero\n        /* \"#utility.yul\":908:949   */\n      dup2\n      mstore\n        /* \"#utility.yul\":896:898   */\n      0x20\n        /* \"#utility.yul\":881:899   */\n      add\n        /* \"Contracts/AuctionSPU.sol\":1780:1797  bool public ended */\n      tag_44\n        /* \"#utility.yul\":768:955   */\n      jump\n        /* \"Contracts/AuctionSPU.sol\":1829:1853  uint public numberOfBids */\n    tag_6:\n      callvalue\n      dup1\n      iszero\n      tag_56\n      jumpi\n      0x00\n      dup1\n      revert\n    tag_56:\n      pop\n      tag_47\n      sload(0x06)\n      dup2\n      jump\n        /* \"Contracts/AuctionSPU.sol\":1938:1958  uint public totalFee */\n    tag_7:\n      callvalue\n      dup1\n      iszero\n      tag_60\n      jumpi\n      0x00\n      dup1\n      revert\n    tag_60:\n      pop\n      tag_47\n      sload(0x08)\n      dup2\n      jump\n        /* \"Contracts/AuctionSPU.sol\":1754:1773  bool public started */\n    tag_8:\n      callvalue\n      dup1\n      iszero\n      tag_64\n      jumpi\n      0x00\n      dup1\n      revert\n    tag_64:\n      pop\n      sload(0x05)\n      tag_52\n      swap1\n      0xff\n      and\n      dup2\n      jump\n        /* \"Contracts/AuctionSPU.sol\":7322:8518  function closeAuction () external onlyOwner{... */\n    tag_9:\n      callvalue\n      dup1\n      iszero\n      tag_68\n      jumpi\n      0x00\n      dup1\n      revert\n    tag_68:\n      pop\n      tag_32\n      tag_70\n      jump\t// in\n        /* \"Contracts/AuctionSPU.sol\":6336:6861  function withdraw() external {... */\n    tag_10:\n      callvalue\n      dup1\n      iszero\n      tag_71\n      jumpi\n      0x00\n      dup1\n      revert\n    tag_71:\n      pop\n      tag_32\n      tag_73\n      jump\t// in\n        /* \"Contracts/AuctionSPU.sol\":1690:1723  address payable public feeAddress */\n    tag_11:\n      callvalue\n      dup1\n      iszero\n      tag_74\n      jumpi\n      0x00\n      dup1\n      revert\n    tag_74:\n      pop\n      sload(0x03)\n      tag_42\n      swap1\n      sub(shl(0xa0, 0x01), 0x01)\n      and\n      dup2\n      jump\n        /* \"Contracts/AuctionSPU.sol\":1557:1575  IERC721 public nft */\n    tag_12:\n      callvalue\n      dup1\n      iszero\n      tag_78\n      jumpi\n      0x00\n      dup1\n      revert\n    tag_78:\n      pop\n      sload(0x00)\n      tag_42\n      swap1\n      sub(shl(0xa0, 0x01), 0x01)\n      and\n      dup2\n      jump\n        /* \"Contracts/AuctionSPU.sol\":8527:8702  function setWhitelist(address _account, bool enable) external  onlyOwner{... */\n    tag_13:\n      callvalue\n      dup1\n      iszero\n      tag_83\n      jumpi\n      0x00\n      dup1\n      revert\n    tag_83:\n      pop\n      tag_32\n      tag_85\n      calldatasize\n      0x04\n      tag_86\n      jump\t// in\n    tag_85:\n      tag_87\n      jump\t// in\n        /* \"Contracts/AuctionSPU.sol\":1804:1822  bool public paused */\n    tag_14:\n      callvalue\n      dup1\n      iszero\n      tag_88\n      jumpi\n      0x00\n      dup1\n      revert\n    tag_88:\n      pop\n      sload(0x05)\n      tag_52\n      swap1\n      0x010000\n      swap1\n      div\n      0xff\n      and\n      dup2\n      jump\n        /* \"Contracts/AuctionSPU.sol\":3792:4010  function startAuction() external onlyOwner {... */\n    tag_15:\n      callvalue\n      dup1\n      iszero\n      tag_92\n      jumpi\n      0x00\n      dup1\n      revert\n    tag_92:\n      pop\n      tag_32\n      tag_94\n      jump\t// in\n        /* \"Contracts/AuctionSPU.sol\":1730:1747  uint public endAt */\n    tag_16:\n      callvalue\n      dup1\n      iszero\n      tag_95\n      jumpi\n      0x00\n      dup1\n      revert\n    tag_95:\n      pop\n      tag_47\n      sload(0x04)\n      dup2\n      jump\n        /* \"Contracts/AuctionSPU.sol\":2008:2036  address public highestBidder */\n    tag_17:\n      callvalue\n      dup1\n      iszero\n      tag_99\n      jumpi\n      0x00\n      dup1\n      revert\n    tag_99:\n      pop\n      sload(0x09)\n      tag_42\n      swap1\n      sub(shl(0xa0, 0x01), 0x01)\n      and\n      dup2\n      jump\n        /* \"Contracts/AuctionSPU.sol\":2216:2263  mapping(address => Bidders) public receivedBids */\n    tag_18:\n      callvalue\n      dup1\n      iszero\n      tag_104\n      jumpi\n      0x00\n      dup1\n      revert\n    tag_104:\n      pop\n      tag_105\n      tag_106\n      calldatasize\n      0x04\n      tag_107\n      jump\t// in\n    tag_106:\n      mstore(0x20, 0x0b)\n      0x00\n      swap1\n      dup2\n      mstore\n      0x40\n      swap1\n      keccak256\n      dup1\n      sload\n      0x01\n      dup3\n      add\n      sload\n      0x02\n      dup4\n      add\n      sload\n      0x03\n      swap1\n      swap4\n      add\n      sload\n      swap2\n      swap3\n      swap1\n      swap2\n      dup5\n      jump\n    tag_105:\n      0x40\n      dup1\n      mload\n        /* \"#utility.yul\":2342:2367   */\n      swap5\n      dup6\n      mstore\n        /* \"#utility.yul\":2398:2400   */\n      0x20\n        /* \"#utility.yul\":2383:2401   */\n      dup6\n      add\n        /* \"#utility.yul\":2376:2410   */\n      swap4\n      swap1\n      swap4\n      mstore\n        /* \"#utility.yul\":2426:2444   */\n      swap2\n      dup4\n      add\n        /* \"#utility.yul\":2419:2453   */\n      mstore\n        /* \"#utility.yul\":2484:2486   */\n      0x60\n        /* \"#utility.yul\":2469:2487   */\n      dup3\n      add\n        /* \"#utility.yul\":2462:2496   */\n      mstore\n        /* \"#utility.yul\":2329:2332   */\n      0x80\n        /* \"#utility.yul\":2314:2333   */\n      add\n        /* \"Contracts/AuctionSPU.sol\":2216:2263  mapping(address => Bidders) public receivedBids */\n      tag_44\n        /* \"#utility.yul\":2111:2502   */\n      jump\n        /* \"Contracts/AuctionSPU.sol\":4364:4528  function pauseAuction() external onlyOwner {... */\n    tag_19:\n      callvalue\n      dup1\n      iszero\n      tag_111\n      jumpi\n      0x00\n      dup1\n      revert\n    tag_111:\n      pop\n      tag_32\n      tag_113\n      jump\t// in\n        /* \"Contracts/AuctionSPU.sol\":8844:8958  function isWhitelist(address _account) public view returns (bool) {... */\n    tag_20:\n      callvalue\n      dup1\n      iszero\n      tag_114\n      jumpi\n      0x00\n      dup1\n      revert\n    tag_114:\n      pop\n      tag_52\n      tag_116\n      calldatasize\n      0x04\n      tag_107\n      jump\t// in\n    tag_116:\n      tag_117\n      jump\t// in\n        /* \"Contracts/AuctionSPU.sol\":1582:1599  uint public nftId */\n    tag_21:\n      callvalue\n      dup1\n      iszero\n      tag_119\n      jumpi\n      0x00\n      dup1\n      revert\n    tag_119:\n      pop\n      tag_47\n      sload(0x01)\n      dup2\n      jump\n        /* \"Contracts/AuctionSPU.sol\":4583:4752  function unpauseAuction() external onlyOwner {... */\n    tag_22:\n      callvalue\n      dup1\n      iszero\n      tag_123\n      jumpi\n      0x00\n      dup1\n      revert\n    tag_123:\n      pop\n      tag_32\n      tag_125\n      jump\t// in\n        /* \"Contracts/AuctionSPU.sol\":2043:2065  uint public highestBid */\n    tag_23:\n      callvalue\n      dup1\n      iszero\n      tag_126\n      jumpi\n      0x00\n      dup1\n      revert\n    tag_126:\n      pop\n      tag_47\n      sload(0x0a)\n      dup2\n      jump\n        /* \"Contracts/AuctionSPU.sol\":4952:6328  function newBid(... */\n    tag_24:\n      tag_32\n      tag_131\n      calldatasize\n      0x04\n      tag_132\n      jump\t// in\n    tag_131:\n      tag_133\n      jump\t// in\n        /* \"Contracts/AuctionSPU.sol\":1894:1931  uint public constant FEE_BASE = 10000 */\n    tag_25:\n      callvalue\n      dup1\n      iszero\n      tag_134\n      jumpi\n      0x00\n      dup1\n      revert\n    tag_134:\n      pop\n      tag_47\n        /* \"Contracts/AuctionSPU.sol\":1926:1931  10000 */\n      0x2710\n        /* \"Contracts/AuctionSPU.sol\":1894:1931  uint public constant FEE_BASE = 10000 */\n      dup2\n      jump\n        /* \"Contracts/AuctionSPU.sol\":4059:4311  function endAuction() external onlyOwner auctionStarted {... */\n    tag_26:\n      callvalue\n      dup1\n      iszero\n      tag_138\n      jumpi\n      0x00\n      dup1\n      revert\n    tag_138:\n      pop\n      tag_32\n      tag_140\n      jump\t// in\n        /* \"Contracts/AuctionSPU.sol\":7322:8518  function closeAuction () external onlyOwner{... */\n    tag_70:\n        /* \"Contracts/AuctionSPU.sol\":3167:3173  seller */\n      and(sub(shl(0xa0, 0x01), 0x01), sload(0x02))\n        /* \"Contracts/AuctionSPU.sol\":3153:3163  msg.sender */\n      caller\n        /* \"Contracts/AuctionSPU.sol\":3153:3173  msg.sender == seller */\n      eq\n        /* \"Contracts/AuctionSPU.sol\":3145:3197  require(msg.sender == seller, \"Sender is not owner\") */\n      tag_143\n      jumpi\n      mload(0x40)\n      shl(0xe5, 0x461bcd)\n      dup2\n      mstore\n      0x04\n      add\n      tag_33\n      swap1\n      tag_34\n      jump\t// in\n    tag_143:\n        /* \"Contracts/AuctionSPU.sol\":7403:7408  endAt */\n      sload(0x04)\n        /* \"Contracts/AuctionSPU.sol\":7384:7399  block.timestamp */\n      timestamp\n        /* \"Contracts/AuctionSPU.sol\":7384:7408  block.timestamp >= endAt */\n      lt\n      iszero\n        /* \"Contracts/AuctionSPU.sol\":7376:7422  require(block.timestamp >= endAt, \"Not Ended\") */\n      tag_146\n      jumpi\n      mload(0x40)\n      shl(0xe5, 0x461bcd)\n      dup2\n      mstore\n        /* \"#utility.yul\":3030:3032   */\n      0x20\n        /* \"Contracts/AuctionSPU.sol\":7376:7422  require(block.timestamp >= endAt, \"Not Ended\") */\n      0x04\n      dup3\n      add\n        /* \"#utility.yul\":3012:3033   */\n      mstore\n        /* \"#utility.yul\":3069:3070   */\n      0x09\n        /* \"#utility.yul\":3049:3067   */\n      0x24\n      dup3\n      add\n        /* \"#utility.yul\":3042:3071   */\n      mstore\n      shl(0xba, 0x139bdd08115b991959)\n        /* \"#utility.yul\":3087:3105   */\n      0x44\n      dup3\n      add\n        /* \"#utility.yul\":3080:3119   */\n      mstore\n        /* \"#utility.yul\":3136:3154   */\n      0x64\n      add\n        /* \"Contracts/AuctionSPU.sol\":7376:7422  require(block.timestamp >= endAt, \"Not Ended\") */\n      tag_33\n        /* \"#utility.yul\":2828:3160   */\n      jump\n        /* \"Contracts/AuctionSPU.sol\":7376:7422  require(block.timestamp >= endAt, \"Not Ended\") */\n    tag_146:\n        /* \"Contracts/AuctionSPU.sol\":7437:7450  highestBidder */\n      and(sub(shl(0xa0, 0x01), 0x01), sload(0x09))\n        /* \"Contracts/AuctionSPU.sol\":7437:7464  highestBidder != address(0) */\n      iszero\n        /* \"Contracts/AuctionSPU.sol\":7433:8511  if (highestBidder != address(0)) {... */\n      tag_149\n      jumpi\n        /* \"Contracts/AuctionSPU.sol\":7481:7484  nft */\n      sload(0x00)\n        /* \"Contracts/AuctionSPU.sol\":7517:7530  highestBidder */\n      sload(0x09)\n        /* \"Contracts/AuctionSPU.sol\":7481:7484  nft */\n      0x01\n        /* \"Contracts/AuctionSPU.sol\":7532:7537  nftId */\n      sload\n        /* \"Contracts/AuctionSPU.sol\":7481:7538  nft.safeTransferFrom(address(this), highestBidder, nftId) */\n      mload(0x40)\n      shl(0xe1, 0x21421707)\n      dup2\n      mstore\n        /* \"Contracts/AuctionSPU.sol\":7510:7514  this */\n      address\n        /* \"Contracts/AuctionSPU.sol\":7481:7538  nft.safeTransferFrom(address(this), highestBidder, nftId) */\n      0x04\n      dup3\n      add\n        /* \"#utility.yul\":3405:3439   */\n      mstore\n      sub(shl(0xa0, 0x01), 0x01)\n        /* \"Contracts/AuctionSPU.sol\":7517:7530  highestBidder */\n      swap3\n      dup4\n      and\n        /* \"#utility.yul\":3455:3473   */\n      0x24\n      dup3\n      add\n        /* \"#utility.yul\":3448:3491   */\n      mstore\n        /* \"#utility.yul\":3507:3525   */\n      0x44\n      dup2\n      add\n        /* \"#utility.yul\":3500:3534   */\n      swap2\n      swap1\n      swap2\n      mstore\n        /* \"Contracts/AuctionSPU.sol\":7481:7484  nft */\n      swap2\n      and\n      swap1\n        /* \"Contracts/AuctionSPU.sol\":7481:7501  nft.safeTransferFrom */\n      0x42842e0e\n      swap1\n        /* \"#utility.yul\":3340:3358   */\n      0x64\n      add\n        /* \"Contracts/AuctionSPU.sol\":7481:7538  nft.safeTransferFrom(address(this), highestBidder, nftId) */\n    tag_150:\n      0x00\n      mload(0x40)\n      dup1\n      dup4\n      sub\n      dup2\n      0x00\n      dup8\n      dup1\n      extcodesize\n      iszero\n      dup1\n      iszero\n      tag_152\n      jumpi\n      0x00\n      dup1\n      revert\n    tag_152:\n      pop\n      gas\n      call\n      iszero\n      dup1\n      iszero\n      tag_154\n      jumpi\n      returndatasize\n      0x00\n      dup1\n      returndatacopy\n      revert(0x00, returndatasize)\n    tag_154:\n      pop\n      pop\n        /* \"Contracts/AuctionSPU.sol\":7601:7611  feeAddress */\n      sload(0x03)\n        /* \"Contracts/AuctionSPU.sol\":7625:7633  totalFee */\n      sload(0x08)\n        /* \"Contracts/AuctionSPU.sol\":7593:7638  payable(feeAddress).call{value: totalFee}(\"\") */\n      mload(0x40)\n        /* \"Contracts/AuctionSPU.sol\":7568:7587  bool callSuccessFee */\n      0x00\n      swap5\n      pop\n      sub(shl(0xa0, 0x01), 0x01)\n        /* \"Contracts/AuctionSPU.sol\":7601:7611  feeAddress */\n      swap1\n      swap3\n      and\n      swap3\n      pop\n        /* \"Contracts/AuctionSPU.sol\":7625:7633  totalFee */\n      swap1\n        /* \"Contracts/AuctionSPU.sol\":7568:7587  bool callSuccessFee */\n      dup4\n        /* \"Contracts/AuctionSPU.sol\":7593:7638  payable(feeAddress).call{value: totalFee}(\"\") */\n      dup2\n        /* \"Contracts/AuctionSPU.sol\":7568:7587  bool callSuccessFee */\n      dup2\n        /* \"Contracts/AuctionSPU.sol\":7593:7638  payable(feeAddress).call{value: totalFee}(\"\") */\n      dup2\n        /* \"Contracts/AuctionSPU.sol\":7625:7633  totalFee */\n      dup6\n        /* \"Contracts/AuctionSPU.sol\":7601:7611  feeAddress */\n      dup8\n        /* \"Contracts/AuctionSPU.sol\":7593:7638  payable(feeAddress).call{value: totalFee}(\"\") */\n      gas\n      call\n      swap3\n      pop\n      pop\n      pop\n      returndatasize\n      dup1\n      0x00\n      dup2\n      eq\n      tag_159\n      jumpi\n      mload(0x40)\n      swap2\n      pop\n      and(add(returndatasize, 0x3f), not(0x1f))\n      dup3\n      add\n      0x40\n      mstore\n      returndatasize\n      dup3\n      mstore\n      returndatasize\n      0x00\n      0x20\n      dup5\n      add\n      returndatacopy\n      jump(tag_158)\n    tag_159:\n      0x60\n      swap2\n      pop\n    tag_158:\n      pop\n        /* \"Contracts/AuctionSPU.sol\":7567:7638  (bool callSuccessFee, ) = payable(feeAddress).call{value: totalFee}(\"\") */\n      pop\n      swap1\n      pop\n        /* \"Contracts/AuctionSPU.sol\":7661:7675  callSuccessFee */\n      dup1\n        /* \"Contracts/AuctionSPU.sol\":7653:7703  require(callSuccessFee, \"Return fee funds failed\") */\n      tag_160\n      jumpi\n      mload(0x40)\n      shl(0xe5, 0x461bcd)\n      dup2\n      mstore\n        /* \"#utility.yul\":3957:3959   */\n      0x20\n        /* \"Contracts/AuctionSPU.sol\":7653:7703  require(callSuccessFee, \"Return fee funds failed\") */\n      0x04\n      dup3\n      add\n        /* \"#utility.yul\":3939:3960   */\n      mstore\n        /* \"#utility.yul\":3996:3998   */\n      0x17\n        /* \"#utility.yul\":3976:3994   */\n      0x24\n      dup3\n      add\n        /* \"#utility.yul\":3969:3999   */\n      mstore\n        /* \"#utility.yul\":4035:4060   */\n      0x52657475726e206665652066756e6473206661696c6564000000000000000000\n        /* \"#utility.yul\":4015:4033   */\n      0x44\n      dup3\n      add\n        /* \"#utility.yul\":4008:4061   */\n      mstore\n        /* \"#utility.yul\":4078:4096   */\n      0x64\n      add\n        /* \"Contracts/AuctionSPU.sol\":7653:7703  require(callSuccessFee, \"Return fee funds failed\") */\n      tag_33\n        /* \"#utility.yul\":3755:4102   */\n      jump\n        /* \"Contracts/AuctionSPU.sol\":7653:7703  require(callSuccessFee, \"Return fee funds failed\") */\n    tag_160:\n        /* \"Contracts/AuctionSPU.sol\":7748:7758  feeAddress */\n      sload(0x03)\n        /* \"Contracts/AuctionSPU.sol\":7761:7769  totalFee */\n      sload(0x08)\n        /* \"Contracts/AuctionSPU.sol\":7737:7770  FeePayment(feeAddress , totalFee) */\n      mload(0x40)\n        /* \"#utility.yul\":732:757   */\n      swap1\n      dup2\n      mstore\n      sub(shl(0xa0, 0x01), 0x01)\n        /* \"Contracts/AuctionSPU.sol\":7748:7758  feeAddress */\n      swap1\n      swap2\n      and\n      swap1\n        /* \"Contracts/AuctionSPU.sol\":7737:7770  FeePayment(feeAddress , totalFee) */\n      0x57d762ad8f1734de771f2b521b2668347c0cee2d709a12254662cd5a7d4180\n      swap1\n        /* \"#utility.yul\":720:722   */\n      0x20\n        /* \"#utility.yul\":705:723   */\n      add\n        /* \"Contracts/AuctionSPU.sol\":7737:7770  FeePayment(feeAddress , totalFee) */\n      mload(0x40)\n      dup1\n      swap2\n      sub\n      swap1\n      log2\n        /* \"Contracts/AuctionSPU.sol\":7830:7836  seller */\n      sload(0x02)\n        /* \"Contracts/AuctionSPU.sol\":7850:7860  highestBid */\n      sload(0x0a)\n        /* \"Contracts/AuctionSPU.sol\":7822:7865  payable(seller).call{value: highestBid}(\"\") */\n      mload(0x40)\n        /* \"Contracts/AuctionSPU.sol\":7800:7816  bool callSuccess */\n      0x00\n      swap3\n      sub(shl(0xa0, 0x01), 0x01)\n        /* \"Contracts/AuctionSPU.sol\":7830:7836  seller */\n      and\n      swap2\n        /* \"Contracts/AuctionSPU.sol\":7850:7860  highestBid */\n      swap1\n        /* \"Contracts/AuctionSPU.sol\":7800:7816  bool callSuccess */\n      dup4\n        /* \"Contracts/AuctionSPU.sol\":7822:7865  payable(seller).call{value: highestBid}(\"\") */\n      dup2\n        /* \"Contracts/AuctionSPU.sol\":7800:7816  bool callSuccess */\n      dup2\n        /* \"Contracts/AuctionSPU.sol\":7822:7865  payable(seller).call{value: highestBid}(\"\") */\n      dup2\n        /* \"Contracts/AuctionSPU.sol\":7850:7860  highestBid */\n      dup6\n        /* \"Contracts/AuctionSPU.sol\":7830:7836  seller */\n      dup8\n        /* \"Contracts/AuctionSPU.sol\":7822:7865  payable(seller).call{value: highestBid}(\"\") */\n      gas\n      call\n      swap3\n      pop\n      pop\n      pop\n      returndatasize\n      dup1\n      0x00\n      dup2\n      eq\n      tag_167\n      jumpi\n      mload(0x40)\n      swap2\n      pop\n      and(add(returndatasize, 0x3f), not(0x1f))\n      dup3\n      add\n      0x40\n      mstore\n      returndatasize\n      dup3\n      mstore\n      returndatasize\n      0x00\n      0x20\n      dup5\n      add\n      returndatacopy\n      jump(tag_166)\n    tag_167:\n      0x60\n      swap2\n      pop\n    tag_166:\n      pop\n        /* \"Contracts/AuctionSPU.sol\":7799:7865  (bool callSuccess, ) = payable(seller).call{value: highestBid}(\"\") */\n      pop\n      swap1\n      pop\n        /* \"Contracts/AuctionSPU.sol\":7888:7899  callSuccess */\n      dup1\n        /* \"Contracts/AuctionSPU.sol\":7880:7923  require(callSuccess, \"Return funds failed\") */\n      tag_168\n      jumpi\n      mload(0x40)\n      shl(0xe5, 0x461bcd)\n      dup2\n      mstore\n        /* \"#utility.yul\":4309:4311   */\n      0x20\n        /* \"Contracts/AuctionSPU.sol\":7880:7923  require(callSuccess, \"Return funds failed\") */\n      0x04\n      dup3\n      add\n        /* \"#utility.yul\":4291:4312   */\n      mstore\n        /* \"#utility.yul\":4348:4350   */\n      0x13\n        /* \"#utility.yul\":4328:4346   */\n      0x24\n      dup3\n      add\n        /* \"#utility.yul\":4321:4351   */\n      mstore\n      shl(0x6a, 0x14995d1d5c9b88199d5b991cc819985a5b1959)\n        /* \"#utility.yul\":4367:4385   */\n      0x44\n      dup3\n      add\n        /* \"#utility.yul\":4360:4409   */\n      mstore\n        /* \"#utility.yul\":4426:4444   */\n      0x64\n      add\n        /* \"Contracts/AuctionSPU.sol\":7880:7923  require(callSuccess, \"Return funds failed\") */\n      tag_33\n        /* \"#utility.yul\":4107:4450   */\n      jump\n        /* \"Contracts/AuctionSPU.sol\":7880:7923  require(callSuccess, \"Return funds failed\") */\n    tag_168:\n        /* \"Contracts/AuctionSPU.sol\":7956:7962  seller */\n      sload(0x02)\n        /* \"Contracts/AuctionSPU.sol\":7965:7975  highestBid */\n      sload(0x0a)\n        /* \"Contracts/AuctionSPU.sol\":7945:7976  BidPayment(seller , highestBid) */\n      mload(0x40)\n        /* \"#utility.yul\":732:757   */\n      swap1\n      dup2\n      mstore\n      sub(shl(0xa0, 0x01), 0x01)\n        /* \"Contracts/AuctionSPU.sol\":7956:7962  seller */\n      swap1\n      swap2\n      and\n      swap1\n        /* \"Contracts/AuctionSPU.sol\":7945:7976  BidPayment(seller , highestBid) */\n      0x1c1b1a7e52e22e996a7b9c93efbf98eeb6171f5ecaa8f5c1c792427b53d29e84\n      swap1\n        /* \"#utility.yul\":720:722   */\n      0x20\n        /* \"#utility.yul\":705:723   */\n      add\n        /* \"Contracts/AuctionSPU.sol\":7945:7976  BidPayment(seller , highestBid) */\n    tag_171:\n      mload(0x40)\n      dup1\n      swap2\n      sub\n      swap1\n      log2\n        /* \"Contracts/AuctionSPU.sol\":7466:8002  {... */\n      pop\n      pop\n        /* \"Contracts/AuctionSPU.sol\":7322:8518  function closeAuction () external onlyOwner{... */\n      jump\t// out\n        /* \"Contracts/AuctionSPU.sol\":7433:8511  if (highestBidder != address(0)) {... */\n    tag_149:\n        /* \"Contracts/AuctionSPU.sol\":8023:8026  nft */\n      sload(0x00)\n        /* \"Contracts/AuctionSPU.sol\":8059:8065  seller */\n      sload(0x02)\n        /* \"Contracts/AuctionSPU.sol\":8023:8026  nft */\n      0x01\n        /* \"Contracts/AuctionSPU.sol\":8067:8072  nftId */\n      sload\n        /* \"Contracts/AuctionSPU.sol\":8023:8073  nft.safeTransferFrom(address(this), seller, nftId) */\n      mload(0x40)\n      shl(0xe1, 0x21421707)\n      dup2\n      mstore\n        /* \"Contracts/AuctionSPU.sol\":8052:8056  this */\n      address\n        /* \"Contracts/AuctionSPU.sol\":8023:8073  nft.safeTransferFrom(address(this), seller, nftId) */\n      0x04\n      dup3\n      add\n        /* \"#utility.yul\":3405:3439   */\n      mstore\n      sub(shl(0xa0, 0x01), 0x01)\n        /* \"Contracts/AuctionSPU.sol\":8059:8065  seller */\n      swap3\n      dup4\n      and\n        /* \"#utility.yul\":3455:3473   */\n      0x24\n      dup3\n      add\n        /* \"#utility.yul\":3448:3491   */\n      mstore\n        /* \"#utility.yul\":3507:3525   */\n      0x44\n      dup2\n      add\n        /* \"#utility.yul\":3500:3534   */\n      swap2\n      swap1\n      swap2\n      mstore\n        /* \"Contracts/AuctionSPU.sol\":8023:8026  nft */\n      swap2\n      and\n      swap1\n        /* \"Contracts/AuctionSPU.sol\":8023:8043  nft.safeTransferFrom */\n      0x42842e0e\n      swap1\n        /* \"#utility.yul\":3340:3358   */\n      0x64\n      add\n        /* \"Contracts/AuctionSPU.sol\":8023:8073  nft.safeTransferFrom(address(this), seller, nftId) */\n      tag_150\n        /* \"#utility.yul\":3165:3540   */\n      jump\n        /* \"Contracts/AuctionSPU.sol\":6336:6861  function withdraw() external {... */\n    tag_73:\n        /* \"Contracts/AuctionSPU.sol\":6400:6413  highestBidder */\n      and(sub(shl(0xa0, 0x01), 0x01), sload(0x09))\n        /* \"Contracts/AuctionSPU.sol\":6386:6396  msg.sender */\n      caller\n        /* \"Contracts/AuctionSPU.sol\":6386:6413  msg.sender == highestBidder */\n      sub\n        /* \"Contracts/AuctionSPU.sol\":6376:6441  require(!(msg.sender == highestBidder), \"Your Bid is the higher\") */\n      tag_193\n      jumpi\n      mload(0x40)\n      shl(0xe5, 0x461bcd)\n      dup2\n      mstore\n        /* \"#utility.yul\":5045:5047   */\n      0x20\n        /* \"Contracts/AuctionSPU.sol\":6376:6441  require(!(msg.sender == highestBidder), \"Your Bid is the higher\") */\n      0x04\n      dup3\n      add\n        /* \"#utility.yul\":5027:5048   */\n      mstore\n        /* \"#utility.yul\":5084:5086   */\n      0x16\n        /* \"#utility.yul\":5064:5082   */\n      0x24\n      dup3\n      add\n        /* \"#utility.yul\":5057:5087   */\n      mstore\n      shl(0x51, 0x2cb7bab9102134b21034b9903a3432903434b3b432b9)\n        /* \"#utility.yul\":5103:5121   */\n      0x44\n      dup3\n      add\n        /* \"#utility.yul\":5096:5148   */\n      mstore\n        /* \"#utility.yul\":5165:5183   */\n      0x64\n      add\n        /* \"Contracts/AuctionSPU.sol\":6376:6441  require(!(msg.sender == highestBidder), \"Your Bid is the higher\") */\n      tag_33\n        /* \"#utility.yul\":4843:5189   */\n      jump\n        /* \"Contracts/AuctionSPU.sol\":6376:6441  require(!(msg.sender == highestBidder), \"Your Bid is the higher\") */\n    tag_193:\n        /* \"Contracts/AuctionSPU.sol\":6473:6483  msg.sender */\n      caller\n        /* \"Contracts/AuctionSPU.sol\":6460:6484  receivedBids[msg.sender] */\n      0x00\n      swap1\n      dup2\n      mstore\n        /* \"Contracts/AuctionSPU.sol\":6460:6472  receivedBids */\n      0x0b\n        /* \"Contracts/AuctionSPU.sol\":6460:6484  receivedBids[msg.sender] */\n      0x20\n      mstore\n      0x40\n      dup2\n      keccak256\n        /* \"Contracts/AuctionSPU.sol\":6460:6492  receivedBids[msg.sender].downpay */\n      0x03\n      add\n      sload\n        /* \"Contracts/AuctionSPU.sol\":6460:6497  receivedBids[msg.sender].downpay != 0 */\n      swap1\n      sub\n        /* \"Contracts/AuctionSPU.sol\":6452:6517  require(receivedBids[msg.sender].downpay != 0, \"No bids founded\") */\n      tag_196\n      jumpi\n      mload(0x40)\n      shl(0xe5, 0x461bcd)\n      dup2\n      mstore\n        /* \"#utility.yul\":5396:5398   */\n      0x20\n        /* \"Contracts/AuctionSPU.sol\":6452:6517  require(receivedBids[msg.sender].downpay != 0, \"No bids founded\") */\n      0x04\n      dup3\n      add\n        /* \"#utility.yul\":5378:5399   */\n      mstore\n        /* \"#utility.yul\":5435:5437   */\n      0x0f\n        /* \"#utility.yul\":5415:5433   */\n      0x24\n      dup3\n      add\n        /* \"#utility.yul\":5408:5438   */\n      mstore\n      shl(0x8a, 0x139bc8189a591cc8199bdd5b991959)\n        /* \"#utility.yul\":5454:5472   */\n      0x44\n      dup3\n      add\n        /* \"#utility.yul\":5447:5492   */\n      mstore\n        /* \"#utility.yul\":5509:5527   */\n      0x64\n      add\n        /* \"Contracts/AuctionSPU.sol\":6452:6517  require(receivedBids[msg.sender].downpay != 0, \"No bids founded\") */\n      tag_33\n        /* \"#utility.yul\":5194:5533   */\n      jump\n        /* \"Contracts/AuctionSPU.sol\":6452:6517  require(receivedBids[msg.sender].downpay != 0, \"No bids founded\") */\n    tag_196:\n        /* \"Contracts/AuctionSPU.sol\":6539:6549  msg.sender */\n      caller\n        /* \"Contracts/AuctionSPU.sol\":6551:6575  receivedBids[msg.sender] */\n      0x00\n      dup2\n      dup2\n      mstore\n        /* \"Contracts/AuctionSPU.sol\":6551:6563  receivedBids */\n      0x0b\n        /* \"Contracts/AuctionSPU.sol\":6551:6575  receivedBids[msg.sender] */\n      0x20\n      mstore\n      0x40\n      swap1\n      keccak256\n        /* \"Contracts/AuctionSPU.sol\":6551:6583  receivedBids[msg.sender].downpay */\n      0x03\n      add\n      sload\n        /* \"Contracts/AuctionSPU.sol\":6530:6584  cashback(msg.sender, receivedBids[msg.sender].downpay) */\n      tag_199\n      swap2\n        /* \"Contracts/AuctionSPU.sol\":6539:6549  msg.sender */\n      swap1\n        /* \"Contracts/AuctionSPU.sol\":6530:6538  cashback */\n      tag_200\n        /* \"Contracts/AuctionSPU.sol\":6530:6584  cashback(msg.sender, receivedBids[msg.sender].downpay) */\n      jump\t// in\n    tag_199:\n        /* \"Contracts/AuctionSPU.sol\":6610:6620  msg.sender */\n      caller\n        /* \"Contracts/AuctionSPU.sol\":6632:6633  0 */\n      0x00\n        /* \"Contracts/AuctionSPU.sol\":6597:6621  receivedBids[msg.sender] */\n      dup2\n      dup2\n      mstore\n        /* \"Contracts/AuctionSPU.sol\":6597:6609  receivedBids */\n      0x0b\n        /* \"Contracts/AuctionSPU.sol\":6597:6621  receivedBids[msg.sender] */\n      0x20\n      swap1\n      dup2\n      mstore\n      0x40\n      dup1\n      dup4\n      keccak256\n        /* \"Contracts/AuctionSPU.sol\":6597:6629  receivedBids[msg.sender].downpay */\n      0x03\n      dup2\n      add\n        /* \"Contracts/AuctionSPU.sol\":6597:6633  receivedBids[msg.sender].downpay = 0 */\n      dup5\n      swap1\n      sstore\n        /* \"Contracts/AuctionSPU.sol\":6644:6683  receivedBids[msg.sender].totalValue = 0 */\n      dup4\n      dup2\n      sstore\n        /* \"Contracts/AuctionSPU.sol\":6694:6726  receivedBids[msg.sender].portion */\n      0x01\n      dup2\n      add\n        /* \"Contracts/AuctionSPU.sol\":6694:6730  receivedBids[msg.sender].portion = 0 */\n      dup5\n      swap1\n      sstore\n      0x02\n        /* \"Contracts/AuctionSPU.sol\":6741:6777  receivedBids[msg.sender].clientScore */\n      add\n        /* \"Contracts/AuctionSPU.sol\":6741:6781  receivedBids[msg.sender].clientScore = 0 */\n      dup4\n      swap1\n      sstore\n        /* \"Contracts/AuctionSPU.sol\":6799:6853  Withdraw(msg.sender, receivedBids[msg.sender].downpay) */\n      mload\n        /* \"#utility.yul\":732:757   */\n      swap2\n      dup3\n      mstore\n        /* \"Contracts/AuctionSPU.sol\":6799:6853  Withdraw(msg.sender, receivedBids[msg.sender].downpay) */\n      0x884edad9ce6fa2440d8a54cc123490eb96d2768479d49ff9c7366125a9424364\n      swap2\n        /* \"#utility.yul\":705:723   */\n      add\n        /* \"Contracts/AuctionSPU.sol\":6799:6853  Withdraw(msg.sender, receivedBids[msg.sender].downpay) */\n      mload(0x40)\n      dup1\n      swap2\n      sub\n      swap1\n      log2\n        /* \"Contracts/AuctionSPU.sol\":6336:6861  function withdraw() external {... */\n      jump\t// out\n        /* \"Contracts/AuctionSPU.sol\":8527:8702  function setWhitelist(address _account, bool enable) external  onlyOwner{... */\n    tag_87:\n        /* \"Contracts/AuctionSPU.sol\":3167:3173  seller */\n      and(sub(shl(0xa0, 0x01), 0x01), sload(0x02))\n        /* \"Contracts/AuctionSPU.sol\":3153:3163  msg.sender */\n      caller\n        /* \"Contracts/AuctionSPU.sol\":3153:3173  msg.sender == seller */\n      eq\n        /* \"Contracts/AuctionSPU.sol\":3145:3197  require(msg.sender == seller, \"Sender is not owner\") */\n      tag_203\n      jumpi\n      mload(0x40)\n      shl(0xe5, 0x461bcd)\n      dup2\n      mstore\n      0x04\n      add\n      tag_33\n      swap1\n      tag_34\n      jump\t// in\n    tag_203:\n      sub(shl(0xa0, 0x01), 0x01)\n        /* \"Contracts/AuctionSPU.sol\":8610:8630  _whitelist[_account] */\n      dup3\n      and\n      0x00\n      dup2\n      dup2\n      mstore\n        /* \"Contracts/AuctionSPU.sol\":8610:8620  _whitelist */\n      0x0c\n        /* \"Contracts/AuctionSPU.sol\":8610:8630  _whitelist[_account] */\n      0x20\n      swap1\n      dup2\n      mstore\n      0x40\n      swap2\n      dup3\n      swap1\n      keccak256\n        /* \"Contracts/AuctionSPU.sol\":8610:8639  _whitelist[_account] = enable */\n      dup1\n      sload\n      not(0xff)\n      and\n      dup6\n      iszero\n      iszero\n      swap1\n      dup2\n      or\n      swap1\n      swap2\n      sstore\n        /* \"Contracts/AuctionSPU.sol\":8655:8694  SetWhitelistByAddress(_account, enable) */\n      swap2\n      mload\n        /* \"#utility.yul\":908:949   */\n      swap2\n      dup3\n      mstore\n        /* \"Contracts/AuctionSPU.sol\":8655:8694  SetWhitelistByAddress(_account, enable) */\n      0xc2c8beffdf047b9e6c79b0e9dcd0bd71d174d84f52e013102fcc0e200dd58ee0\n      swap2\n        /* \"#utility.yul\":881:899   */\n      add\n        /* \"Contracts/AuctionSPU.sol\":8655:8694  SetWhitelistByAddress(_account, enable) */\n      tag_171\n        /* \"#utility.yul\":768:955   */\n      jump\n        /* \"Contracts/AuctionSPU.sol\":3792:4010  function startAuction() external onlyOwner {... */\n    tag_94:\n        /* \"Contracts/AuctionSPU.sol\":3167:3173  seller */\n      and(sub(shl(0xa0, 0x01), 0x01), sload(0x02))\n        /* \"Contracts/AuctionSPU.sol\":3153:3163  msg.sender */\n      caller\n        /* \"Contracts/AuctionSPU.sol\":3153:3173  msg.sender == seller */\n      eq\n        /* \"Contracts/AuctionSPU.sol\":3145:3197  require(msg.sender == seller, \"Sender is not owner\") */\n      tag_208\n      jumpi\n      mload(0x40)\n      shl(0xe5, 0x461bcd)\n      dup2\n      mstore\n      0x04\n      add\n      tag_33\n      swap1\n      tag_34\n      jump\t// in\n    tag_208:\n        /* \"Contracts/AuctionSPU.sol\":3855:3862  started */\n      and(0xff, sload(0x05))\n        /* \"Contracts/AuctionSPU.sol\":3854:3862  !started */\n      iszero\n        /* \"Contracts/AuctionSPU.sol\":3846:3882  require(!started, \"Already Started\") */\n      tag_211\n      jumpi\n      mload(0x40)\n      shl(0xe5, 0x461bcd)\n      dup2\n      mstore\n        /* \"#utility.yul\":5740:5742   */\n      0x20\n        /* \"Contracts/AuctionSPU.sol\":3846:3882  require(!started, \"Already Started\") */\n      0x04\n      dup3\n      add\n        /* \"#utility.yul\":5722:5743   */\n      mstore\n        /* \"#utility.yul\":5779:5781   */\n      0x0f\n        /* \"#utility.yul\":5759:5777   */\n      0x24\n      dup3\n      add\n        /* \"#utility.yul\":5752:5782   */\n      mstore\n      shl(0x8a, 0x105b1c9958591e4814dd185c9d1959)\n        /* \"#utility.yul\":5798:5816   */\n      0x44\n      dup3\n      add\n        /* \"#utility.yul\":5791:5836   */\n      mstore\n        /* \"#utility.yul\":5853:5871   */\n      0x64\n      add\n        /* \"Contracts/AuctionSPU.sol\":3846:3882  require(!started, \"Already Started\") */\n      tag_33\n        /* \"#utility.yul\":5538:5877   */\n      jump\n        /* \"Contracts/AuctionSPU.sol\":3846:3882  require(!started, \"Already Started\") */\n    tag_211:\n        /* \"Contracts/AuctionSPU.sol\":3895:3898  nft */\n      sload(0x00)\n      0x01\n        /* \"Contracts/AuctionSPU.sol\":3939:3944  nftId */\n      sload\n        /* \"Contracts/AuctionSPU.sol\":3895:3945  nft.transferFrom(msg.sender, address(this), nftId) */\n      mload(0x40)\n      shl(0xe0, 0x23b872dd)\n      dup2\n      mstore\n        /* \"Contracts/AuctionSPU.sol\":3912:3922  msg.sender */\n      caller\n        /* \"Contracts/AuctionSPU.sol\":3895:3945  nft.transferFrom(msg.sender, address(this), nftId) */\n      0x04\n      dup3\n      add\n        /* \"#utility.yul\":3405:3439   */\n      mstore\n        /* \"Contracts/AuctionSPU.sol\":3932:3936  this */\n      address\n        /* \"#utility.yul\":3455:3473   */\n      0x24\n      dup3\n      add\n        /* \"#utility.yul\":3448:3491   */\n      mstore\n        /* \"#utility.yul\":3507:3525   */\n      0x44\n      dup2\n      add\n        /* \"#utility.yul\":3500:3534   */\n      swap2\n      swap1\n      swap2\n      mstore\n      sub(shl(0xa0, 0x01), 0x01)\n        /* \"Contracts/AuctionSPU.sol\":3895:3898  nft */\n      swap1\n      swap2\n      and\n      swap1\n        /* \"Contracts/AuctionSPU.sol\":3895:3911  nft.transferFrom */\n      0x23b872dd\n      swap1\n        /* \"#utility.yul\":3340:3358   */\n      0x64\n      add\n        /* \"Contracts/AuctionSPU.sol\":3895:3945  nft.transferFrom(msg.sender, address(this), nftId) */\n      0x00\n      mload(0x40)\n      dup1\n      dup4\n      sub\n      dup2\n      0x00\n      dup8\n      dup1\n      extcodesize\n      iszero\n      dup1\n      iszero\n      tag_215\n      jumpi\n      0x00\n      dup1\n      revert\n    tag_215:\n      pop\n      gas\n      call\n      iszero\n      dup1\n      iszero\n      tag_217\n      jumpi\n      returndatasize\n      0x00\n      dup1\n      returndatacopy\n      revert(0x00, returndatasize)\n    tag_217:\n      pop\n      pop\n        /* \"Contracts/AuctionSPU.sol\":3956:3963  started */\n      0x05\n        /* \"Contracts/AuctionSPU.sol\":3956:3970  started = true */\n      dup1\n      sload\n      not(0xff)\n      and\n        /* \"Contracts/AuctionSPU.sol\":3966:3970  true */\n      0x01\n        /* \"Contracts/AuctionSPU.sol\":3956:3970  started = true */\n      or\n      swap1\n      sstore\n      pop\n      pop\n        /* \"Contracts/AuctionSPU.sol\":3988:4002  StartAuction() */\n      mload(0x40)\n      0xd295ebf0a48a9a43d600a6ecb8626baa711d5750dec13a08145013aa30cb92ea\n      swap1\n        /* \"Contracts/AuctionSPU.sol\":3956:3963  started */\n      0x00\n      swap1\n        /* \"Contracts/AuctionSPU.sol\":3988:4002  StartAuction() */\n      log1\n        /* \"Contracts/AuctionSPU.sol\":3792:4010  function startAuction() external onlyOwner {... */\n      jump\t// out\n        /* \"Contracts/AuctionSPU.sol\":4364:4528  function pauseAuction() external onlyOwner {... */\n    tag_113:\n        /* \"Contracts/AuctionSPU.sol\":3167:3173  seller */\n      and(sub(shl(0xa0, 0x01), 0x01), sload(0x02))\n        /* \"Contracts/AuctionSPU.sol\":3153:3163  msg.sender */\n      caller\n        /* \"Contracts/AuctionSPU.sol\":3153:3173  msg.sender == seller */\n      eq\n        /* \"Contracts/AuctionSPU.sol\":3145:3197  require(msg.sender == seller, \"Sender is not owner\") */\n      tag_219\n      jumpi\n      mload(0x40)\n      shl(0xe5, 0x461bcd)\n      dup2\n      mstore\n      0x04\n      add\n      tag_33\n      swap1\n      tag_34\n      jump\t// in\n    tag_219:\n        /* \"Contracts/AuctionSPU.sol\":4427:4433  paused */\n      sload(0x05)\n      0x010000\n      swap1\n      div\n      0xff\n      and\n        /* \"Contracts/AuctionSPU.sol\":4426:4433  !paused */\n      iszero\n        /* \"Contracts/AuctionSPU.sol\":4418:4452  require(!paused, \"Already Paused\") */\n      tag_222\n      jumpi\n      mload(0x40)\n      shl(0xe5, 0x461bcd)\n      dup2\n      mstore\n        /* \"#utility.yul\":6084:6086   */\n      0x20\n        /* \"Contracts/AuctionSPU.sol\":4418:4452  require(!paused, \"Already Paused\") */\n      0x04\n      dup3\n      add\n        /* \"#utility.yul\":6066:6087   */\n      mstore\n        /* \"#utility.yul\":6123:6125   */\n      0x0e\n        /* \"#utility.yul\":6103:6121   */\n      0x24\n      dup3\n      add\n        /* \"#utility.yul\":6096:6126   */\n      mstore\n      shl(0x92, 0x105b1c9958591e4814185d5cd959)\n        /* \"#utility.yul\":6142:6160   */\n      0x44\n      dup3\n      add\n        /* \"#utility.yul\":6135:6179   */\n      mstore\n        /* \"#utility.yul\":6196:6214   */\n      0x64\n      add\n        /* \"Contracts/AuctionSPU.sol\":4418:4452  require(!paused, \"Already Paused\") */\n      tag_33\n        /* \"#utility.yul\":5882:6220   */\n      jump\n        /* \"Contracts/AuctionSPU.sol\":4418:4452  require(!paused, \"Already Paused\") */\n    tag_222:\n        /* \"Contracts/AuctionSPU.sol\":4465:4471  paused */\n      0x05\n        /* \"Contracts/AuctionSPU.sol\":4465:4478  paused = true */\n      dup1\n      sload\n      not(0xff0000)\n      and\n      0x010000\n      or\n      swap1\n      sstore\n        /* \"Contracts/AuctionSPU.sol\":4496:4520  PauseAuction(msg.sender) */\n      mload(0x40)\n        /* \"Contracts/AuctionSPU.sol\":4509:4519  msg.sender */\n      caller\n        /* \"#utility.yul\":524:575   */\n      dup2\n      mstore\n        /* \"Contracts/AuctionSPU.sol\":4496:4520  PauseAuction(msg.sender) */\n      0xdee06086e53b718fd5176fdaa88a207819a06a56b42087ac2cab84d32a335654\n      swap1\n        /* \"#utility.yul\":512:514   */\n      0x20\n        /* \"#utility.yul\":497:515   */\n      add\n        /* \"Contracts/AuctionSPU.sol\":4496:4520  PauseAuction(msg.sender) */\n    tag_225:\n      mload(0x40)\n      dup1\n      swap2\n      sub\n      swap1\n      log1\n        /* \"Contracts/AuctionSPU.sol\":4364:4528  function pauseAuction() external onlyOwner {... */\n      jump\t// out\n        /* \"Contracts/AuctionSPU.sol\":8844:8958  function isWhitelist(address _account) public view returns (bool) {... */\n    tag_117:\n      sub(shl(0xa0, 0x01), 0x01)\n        /* \"Contracts/AuctionSPU.sol\":8802:8822  _whitelist[_account] */\n      dup2\n      and\n        /* \"Contracts/AuctionSPU.sol\":8904:8908  bool */\n      0x00\n        /* \"Contracts/AuctionSPU.sol\":8802:8822  _whitelist[_account] */\n      swap1\n      dup2\n      mstore\n        /* \"Contracts/AuctionSPU.sol\":8802:8812  _whitelist */\n      0x0c\n        /* \"Contracts/AuctionSPU.sol\":8802:8822  _whitelist[_account] */\n      0x20\n      mstore\n      0x40\n      dup2\n      keccak256\n      sload\n      0xff\n      and\n        /* \"Contracts/AuctionSPU.sol\":8928:8950  _isWhitelist(_account) */\n    tag_227:\n        /* \"Contracts/AuctionSPU.sol\":8921:8950  return _isWhitelist(_account) */\n      swap3\n        /* \"Contracts/AuctionSPU.sol\":8844:8958  function isWhitelist(address _account) public view returns (bool) {... */\n      swap2\n      pop\n      pop\n      jump\t// out\n        /* \"Contracts/AuctionSPU.sol\":4583:4752  function unpauseAuction() external onlyOwner {... */\n    tag_125:\n        /* \"Contracts/AuctionSPU.sol\":3167:3173  seller */\n      and(sub(shl(0xa0, 0x01), 0x01), sload(0x02))\n        /* \"Contracts/AuctionSPU.sol\":3153:3163  msg.sender */\n      caller\n        /* \"Contracts/AuctionSPU.sol\":3153:3173  msg.sender == seller */\n      eq\n        /* \"Contracts/AuctionSPU.sol\":3145:3197  require(msg.sender == seller, \"Sender is not owner\") */\n      tag_230\n      jumpi\n      mload(0x40)\n      shl(0xe5, 0x461bcd)\n      dup2\n      mstore\n      0x04\n      add\n      tag_33\n      swap1\n      tag_34\n      jump\t// in\n    tag_230:\n        /* \"Contracts/AuctionSPU.sol\":4647:4653  paused */\n      sload(0x05)\n      0x010000\n      swap1\n      div\n      0xff\n      and\n        /* \"Contracts/AuctionSPU.sol\":4639:4673  require(paused, \"Already Running\") */\n      tag_233\n      jumpi\n      mload(0x40)\n      shl(0xe5, 0x461bcd)\n      dup2\n      mstore\n        /* \"#utility.yul\":6427:6429   */\n      0x20\n        /* \"Contracts/AuctionSPU.sol\":4639:4673  require(paused, \"Already Running\") */\n      0x04\n      dup3\n      add\n        /* \"#utility.yul\":6409:6430   */\n      mstore\n        /* \"#utility.yul\":6466:6468   */\n      0x0f\n        /* \"#utility.yul\":6446:6464   */\n      0x24\n      dup3\n      add\n        /* \"#utility.yul\":6439:6469   */\n      mstore\n      shl(0x88, 0x416c72656164792052756e6e696e67)\n        /* \"#utility.yul\":6485:6503   */\n      0x44\n      dup3\n      add\n        /* \"#utility.yul\":6478:6523   */\n      mstore\n        /* \"#utility.yul\":6540:6558   */\n      0x64\n      add\n        /* \"Contracts/AuctionSPU.sol\":4639:4673  require(paused, \"Already Running\") */\n      tag_33\n        /* \"#utility.yul\":6225:6564   */\n      jump\n        /* \"Contracts/AuctionSPU.sol\":4639:4673  require(paused, \"Already Running\") */\n    tag_233:\n        /* \"Contracts/AuctionSPU.sol\":4686:4692  paused */\n      0x05\n        /* \"Contracts/AuctionSPU.sol\":4686:4700  paused = false */\n      dup1\n      sload\n      not(0xff0000)\n      and\n      swap1\n      sstore\n        /* \"Contracts/AuctionSPU.sol\":4718:4744  UnpauseAuction(msg.sender) */\n      mload(0x40)\n        /* \"Contracts/AuctionSPU.sol\":4733:4743  msg.sender */\n      caller\n        /* \"#utility.yul\":524:575   */\n      dup2\n      mstore\n        /* \"Contracts/AuctionSPU.sol\":4718:4744  UnpauseAuction(msg.sender) */\n      0xc1a02e947cf77134ed09ac0692636f0553306db51ffe4a1d9e7b51b4dcd9c762\n      swap1\n        /* \"#utility.yul\":512:514   */\n      0x20\n        /* \"#utility.yul\":497:515   */\n      add\n        /* \"Contracts/AuctionSPU.sol\":4718:4744  UnpauseAuction(msg.sender) */\n      tag_225\n        /* \"#utility.yul\":362:581   */\n      jump\n        /* \"Contracts/AuctionSPU.sol\":4952:6328  function newBid(... */\n    tag_133:\n        /* \"Contracts/AuctionSPU.sol\":3368:3375  started */\n      and(0xff, sload(0x05))\n        /* \"Contracts/AuctionSPU.sol\":3360:3395  require(started, \"Not Started Yet\") */\n      tag_238\n      jumpi\n      mload(0x40)\n      shl(0xe5, 0x461bcd)\n      dup2\n      mstore\n        /* \"#utility.yul\":6771:6773   */\n      0x20\n        /* \"Contracts/AuctionSPU.sol\":3360:3395  require(started, \"Not Started Yet\") */\n      0x04\n      dup3\n      add\n        /* \"#utility.yul\":6753:6774   */\n      mstore\n        /* \"#utility.yul\":6810:6812   */\n      0x0f\n        /* \"#utility.yul\":6790:6808   */\n      0x24\n      dup3\n      add\n        /* \"#utility.yul\":6783:6813   */\n      mstore\n      shl(0x8a, 0x139bdd0814dd185c9d19590816595d)\n        /* \"#utility.yul\":6829:6847   */\n      0x44\n      dup3\n      add\n        /* \"#utility.yul\":6822:6867   */\n      mstore\n        /* \"#utility.yul\":6884:6902   */\n      0x64\n      add\n        /* \"Contracts/AuctionSPU.sol\":3360:3395  require(started, \"Not Started Yet\") */\n      tag_33\n        /* \"#utility.yul\":6569:6908   */\n      jump\n        /* \"Contracts/AuctionSPU.sol\":3360:3395  require(started, \"Not Started Yet\") */\n    tag_238:\n        /* \"Contracts/AuctionSPU.sol\":3270:3276  paused */\n      sload(0x05)\n      0x010000\n      swap1\n      div\n      0xff\n      and\n        /* \"Contracts/AuctionSPU.sol\":3269:3276  !paused */\n      iszero\n        /* \"Contracts/AuctionSPU.sol\":3261:3295  require(!paused, \"Auction Paused\") */\n      tag_242\n      jumpi\n      mload(0x40)\n      shl(0xe5, 0x461bcd)\n      dup2\n      mstore\n        /* \"#utility.yul\":7115:7117   */\n      0x20\n        /* \"Contracts/AuctionSPU.sol\":3261:3295  require(!paused, \"Auction Paused\") */\n      0x04\n      dup3\n      add\n        /* \"#utility.yul\":7097:7118   */\n      mstore\n        /* \"#utility.yul\":7154:7156   */\n      0x0e\n        /* \"#utility.yul\":7134:7152   */\n      0x24\n      dup3\n      add\n        /* \"#utility.yul\":7127:7157   */\n      mstore\n      shl(0x92, 0x105d58dd1a5bdb8814185d5cd959)\n        /* \"#utility.yul\":7173:7191   */\n      0x44\n      dup3\n      add\n        /* \"#utility.yul\":7166:7210   */\n      mstore\n        /* \"#utility.yul\":7227:7245   */\n      0x64\n      add\n        /* \"Contracts/AuctionSPU.sol\":3261:3295  require(!paused, \"Auction Paused\") */\n      tag_33\n        /* \"#utility.yul\":6913:7251   */\n      jump\n        /* \"Contracts/AuctionSPU.sol\":3261:3295  require(!paused, \"Auction Paused\") */\n    tag_242:\n        /* \"Contracts/AuctionSPU.sol\":5149:5154  endAt */\n      sload(0x04)\n        /* \"Contracts/AuctionSPU.sol\":5131:5146  block.timestamp */\n      timestamp\n        /* \"Contracts/AuctionSPU.sol\":5131:5154  block.timestamp < endAt */\n      lt\n        /* \"Contracts/AuctionSPU.sol\":5123:5172  require(block.timestamp < endAt, \"Already ended\") */\n      tag_246\n      jumpi\n      mload(0x40)\n      shl(0xe5, 0x461bcd)\n      dup2\n      mstore\n        /* \"#utility.yul\":7458:7460   */\n      0x20\n        /* \"Contracts/AuctionSPU.sol\":5123:5172  require(block.timestamp < endAt, \"Already ended\") */\n      0x04\n      dup3\n      add\n        /* \"#utility.yul\":7440:7461   */\n      mstore\n        /* \"#utility.yul\":7497:7499   */\n      0x0d\n        /* \"#utility.yul\":7477:7495   */\n      0x24\n      dup3\n      add\n        /* \"#utility.yul\":7470:7500   */\n      mstore\n      shl(0x9a, 0x105b1c9958591e48195b991959)\n        /* \"#utility.yul\":7516:7534   */\n      0x44\n      dup3\n      add\n        /* \"#utility.yul\":7509:7552   */\n      mstore\n        /* \"#utility.yul\":7569:7587   */\n      0x64\n      add\n        /* \"Contracts/AuctionSPU.sol\":5123:5172  require(block.timestamp < endAt, \"Already ended\") */\n      tag_33\n        /* \"#utility.yul\":7256:7593   */\n      jump\n        /* \"Contracts/AuctionSPU.sol\":5123:5172  require(block.timestamp < endAt, \"Already ended\") */\n    tag_246:\n        /* \"Contracts/AuctionSPU.sol\":5213:5219  seller */\n      and(sub(shl(0xa0, 0x01), 0x01), sload(0x02))\n        /* \"Contracts/AuctionSPU.sol\":5199:5209  msg.sender */\n      caller\n        /* \"Contracts/AuctionSPU.sol\":5199:5219  msg.sender != seller */\n      sub\n        /* \"Contracts/AuctionSPU.sol\":5191:5242  require(msg.sender != seller, \"Seller not allowed\") */\n      tag_249\n      jumpi\n      mload(0x40)\n      shl(0xe5, 0x461bcd)\n      dup2\n      mstore\n        /* \"#utility.yul\":7800:7802   */\n      0x20\n        /* \"Contracts/AuctionSPU.sol\":5191:5242  require(msg.sender != seller, \"Seller not allowed\") */\n      0x04\n      dup3\n      add\n        /* \"#utility.yul\":7782:7803   */\n      mstore\n        /* \"#utility.yul\":7839:7841   */\n      0x12\n        /* \"#utility.yul\":7819:7837   */\n      0x24\n      dup3\n      add\n        /* \"#utility.yul\":7812:7842   */\n      mstore\n      shl(0x72, 0x14d95b1b195c881b9bdd08185b1b1bddd959)\n        /* \"#utility.yul\":7858:7876   */\n      0x44\n      dup3\n      add\n        /* \"#utility.yul\":7851:7899   */\n      mstore\n        /* \"#utility.yul\":7916:7934   */\n      0x64\n      add\n        /* \"Contracts/AuctionSPU.sol\":5191:5242  require(msg.sender != seller, \"Seller not allowed\") */\n      tag_33\n        /* \"#utility.yul\":7598:7940   */\n      jump\n        /* \"Contracts/AuctionSPU.sol\":5191:5242  require(msg.sender != seller, \"Seller not allowed\") */\n    tag_249:\n        /* \"Contracts/AuctionSPU.sol\":5274:5284  msg.sender */\n      caller\n        /* \"Contracts/AuctionSPU.sol\":8778:8782  bool */\n      0x00\n        /* \"Contracts/AuctionSPU.sol\":8802:8822  _whitelist[_account] */\n      swap1\n      dup2\n      mstore\n        /* \"Contracts/AuctionSPU.sol\":8802:8812  _whitelist */\n      0x0c\n        /* \"Contracts/AuctionSPU.sol\":8802:8822  _whitelist[_account] */\n      0x20\n      mstore\n      0x40\n      swap1\n      keccak256\n      sload\n      0xff\n      and\n        /* \"Contracts/AuctionSPU.sol\":5253:5307  require(_isWhitelist(msg.sender), \"Permission denied\") */\n      tag_253\n      jumpi\n      mload(0x40)\n      shl(0xe5, 0x461bcd)\n      dup2\n      mstore\n        /* \"#utility.yul\":8147:8149   */\n      0x20\n        /* \"Contracts/AuctionSPU.sol\":5253:5307  require(_isWhitelist(msg.sender), \"Permission denied\") */\n      0x04\n      dup3\n      add\n        /* \"#utility.yul\":8129:8150   */\n      mstore\n        /* \"#utility.yul\":8186:8188   */\n      0x11\n        /* \"#utility.yul\":8166:8184   */\n      0x24\n      dup3\n      add\n        /* \"#utility.yul\":8159:8189   */\n      mstore\n      shl(0x7a, 0x14195c9b5a5cdcda5bdb8819195b9a5959)\n        /* \"#utility.yul\":8205:8223   */\n      0x44\n      dup3\n      add\n        /* \"#utility.yul\":8198:8245   */\n      mstore\n        /* \"#utility.yul\":8262:8280   */\n      0x64\n      add\n        /* \"Contracts/AuctionSPU.sol\":5253:5307  require(_isWhitelist(msg.sender), \"Permission denied\") */\n      tag_33\n        /* \"#utility.yul\":7945:8286   */\n      jump\n        /* \"Contracts/AuctionSPU.sol\":5253:5307  require(_isWhitelist(msg.sender), \"Permission denied\") */\n    tag_253:\n        /* \"Contracts/AuctionSPU.sol\":5359:5373  transactionFee */\n      sload(0x07)\n        /* \"Contracts/AuctionSPU.sol\":5322:5330  uint fee */\n      0x00\n      swap1\n        /* \"Contracts/AuctionSPU.sol\":5335:5355  msg.value / FEE_BASE */\n      tag_256\n        /* \"Contracts/AuctionSPU.sol\":1926:1931  10000 */\n      0x2710\n        /* \"Contracts/AuctionSPU.sol\":5335:5344  msg.value */\n      callvalue\n        /* \"Contracts/AuctionSPU.sol\":5335:5355  msg.value / FEE_BASE */\n      tag_257\n      jump\t// in\n    tag_256:\n        /* \"Contracts/AuctionSPU.sol\":5333:5373  ( msg.value / FEE_BASE) * transactionFee */\n      tag_258\n      swap2\n      swap1\n      tag_259\n      jump\t// in\n    tag_258:\n        /* \"Contracts/AuctionSPU.sol\":5322:5373  uint fee = ( msg.value / FEE_BASE) * transactionFee */\n      swap1\n      pop\n        /* \"Contracts/AuctionSPU.sol\":5396:5399  fee */\n      dup1\n        /* \"Contracts/AuctionSPU.sol\":5384:5392  totalFee */\n      0x08\n      0x00\n        /* \"Contracts/AuctionSPU.sol\":5384:5399  totalFee += fee */\n      dup3\n      dup3\n      sload\n      tag_260\n      swap2\n      swap1\n      tag_261\n      jump\t// in\n    tag_260:\n      swap1\n      swap2\n      sstore\n      pop\n      pop\n        /* \"Contracts/AuctionSPU.sol\":5440:5450  highestBid */\n      sload(0x0a)\n        /* \"Contracts/AuctionSPU.sol\":5422:5437  msg.value - fee */\n      tag_262\n        /* \"Contracts/AuctionSPU.sol\":5434:5437  fee */\n      dup3\n        /* \"Contracts/AuctionSPU.sol\":5422:5431  msg.value */\n      callvalue\n        /* \"Contracts/AuctionSPU.sol\":5422:5437  msg.value - fee */\n      tag_263\n      jump\t// in\n    tag_262:\n        /* \"Contracts/AuctionSPU.sol\":5422:5450  msg.value - fee > highestBid */\n      gt\n        /* \"Contracts/AuctionSPU.sol\":5414:5464  require(msg.value - fee > highestBid, \"Lower Bid\") */\n      tag_264\n      jumpi\n      mload(0x40)\n      shl(0xe5, 0x461bcd)\n      dup2\n      mstore\n        /* \"#utility.yul\":9283:9285   */\n      0x20\n        /* \"Contracts/AuctionSPU.sol\":5414:5464  require(msg.value - fee > highestBid, \"Lower Bid\") */\n      0x04\n      dup3\n      add\n        /* \"#utility.yul\":9265:9286   */\n      mstore\n        /* \"#utility.yul\":9322:9323   */\n      0x09\n        /* \"#utility.yul\":9302:9320   */\n      0x24\n      dup3\n      add\n        /* \"#utility.yul\":9295:9324   */\n      mstore\n      shl(0xba, 0x131bddd95c88109a59)\n        /* \"#utility.yul\":9340:9358   */\n      0x44\n      dup3\n      add\n        /* \"#utility.yul\":9333:9372   */\n      mstore\n        /* \"#utility.yul\":9389:9407   */\n      0x64\n      add\n        /* \"Contracts/AuctionSPU.sol\":5414:5464  require(msg.value - fee > highestBid, \"Lower Bid\") */\n      tag_33\n        /* \"#utility.yul\":9081:9413   */\n      jump\n        /* \"Contracts/AuctionSPU.sol\":5414:5464  require(msg.value - fee > highestBid, \"Lower Bid\") */\n    tag_264:\n        /* \"Contracts/AuctionSPU.sol\":5486:5499  highestBidder */\n      and(sub(shl(0xa0, 0x01), 0x01), sload(0x09))\n      0x00\n        /* \"Contracts/AuctionSPU.sol\":5501:5528  receivedBids[highestBidder] */\n      dup2\n      dup2\n      mstore\n        /* \"Contracts/AuctionSPU.sol\":5501:5513  receivedBids */\n      0x0b\n        /* \"Contracts/AuctionSPU.sol\":5501:5528  receivedBids[highestBidder] */\n      0x20\n      mstore\n      0x40\n      swap1\n      keccak256\n        /* \"Contracts/AuctionSPU.sol\":5501:5536  receivedBids[highestBidder].downpay */\n      0x03\n      add\n      sload\n        /* \"Contracts/AuctionSPU.sol\":5477:5537  cashback(highestBidder, receivedBids[highestBidder].downpay) */\n      tag_267\n      swap2\n        /* \"Contracts/AuctionSPU.sol\":5486:5499  highestBidder */\n      swap1\n        /* \"Contracts/AuctionSPU.sol\":5477:5485  cashback */\n      tag_200\n        /* \"Contracts/AuctionSPU.sol\":5477:5537  cashback(highestBidder, receivedBids[highestBidder].downpay) */\n      jump\t// in\n    tag_267:\n        /* \"Contracts/AuctionSPU.sol\":5570:5580  msg.sender */\n      caller\n        /* \"Contracts/AuctionSPU.sol\":5557:5581  receivedBids[msg.sender] */\n      0x00\n      swap1\n      dup2\n      mstore\n        /* \"Contracts/AuctionSPU.sol\":5557:5569  receivedBids */\n      0x0b\n        /* \"Contracts/AuctionSPU.sol\":5557:5581  receivedBids[msg.sender] */\n      0x20\n      mstore\n      0x40\n      swap1\n      keccak256\n        /* \"Contracts/AuctionSPU.sol\":5557:5592  receivedBids[msg.sender].totalValue */\n      sload\n        /* \"Contracts/AuctionSPU.sol\":5557:5597  receivedBids[msg.sender].totalValue != 0 */\n      iszero\n        /* \"Contracts/AuctionSPU.sol\":5553:6165  if (receivedBids[msg.sender].totalValue != 0) {             ... */\n      tag_268\n      jumpi\n        /* \"Contracts/AuctionSPU.sol\":5654:5664  msg.sender */\n      caller\n        /* \"Contracts/AuctionSPU.sol\":5641:5665  receivedBids[msg.sender] */\n      0x00\n      swap1\n      dup2\n      mstore\n        /* \"Contracts/AuctionSPU.sol\":5641:5653  receivedBids */\n      0x0b\n        /* \"Contracts/AuctionSPU.sol\":5641:5665  receivedBids[msg.sender] */\n      0x20\n      mstore\n      0x40\n      swap1\n      keccak256\n        /* \"Contracts/AuctionSPU.sol\":5641:5690  receivedBids[msg.sender].totalValue = _totalValue */\n      dup5\n      swap1\n      sstore\n        /* \"Contracts/AuctionSPU.sol\":5740:5755  msg.value - fee */\n      tag_269\n        /* \"Contracts/AuctionSPU.sol\":5752:5755  fee */\n      dup2\n        /* \"Contracts/AuctionSPU.sol\":5740:5749  msg.value */\n      callvalue\n        /* \"Contracts/AuctionSPU.sol\":5740:5755  msg.value - fee */\n      tag_263\n      jump\t// in\n    tag_269:\n        /* \"Contracts/AuctionSPU.sol\":5718:5728  msg.sender */\n      caller\n        /* \"Contracts/AuctionSPU.sol\":5705:5729  receivedBids[msg.sender] */\n      0x00\n      swap1\n      dup2\n      mstore\n        /* \"Contracts/AuctionSPU.sol\":5705:5717  receivedBids */\n      0x0b\n        /* \"Contracts/AuctionSPU.sol\":5705:5729  receivedBids[msg.sender] */\n      0x20\n      mstore\n      0x40\n      swap1\n      keccak256\n        /* \"Contracts/AuctionSPU.sol\":5705:5737  receivedBids[msg.sender].downpay */\n      0x03\n      dup2\n      add\n        /* \"Contracts/AuctionSPU.sol\":5705:5755  receivedBids[msg.sender].downpay = msg.value - fee */\n      swap2\n      swap1\n      swap2\n      sstore\n        /* \"Contracts/AuctionSPU.sol\":5770:5802  receivedBids[msg.sender].portion */\n      0x01\n      dup2\n      add\n        /* \"Contracts/AuctionSPU.sol\":5770:5813  receivedBids[msg.sender].portion = _portion */\n      dup5\n      swap1\n      sstore\n      0x02\n        /* \"Contracts/AuctionSPU.sol\":5828:5864  receivedBids[msg.sender].clientScore */\n      add\n        /* \"Contracts/AuctionSPU.sol\":5828:5879  receivedBids[msg.sender].clientScore = _clientScore */\n      dup3\n      swap1\n      sstore\n        /* \"Contracts/AuctionSPU.sol\":5553:6165  if (receivedBids[msg.sender].totalValue != 0) {             ... */\n      jump(tag_270)\n    tag_268:\n        /* \"Contracts/AuctionSPU.sol\":5927:5943  Bidders memory b */\n      tag_271\n      mload(0x40)\n      dup1\n      0x80\n      add\n      0x40\n      mstore\n      dup1\n      0x00\n      dup2\n      mstore\n      0x20\n      add\n      0x00\n      dup2\n      mstore\n      0x20\n      add\n      0x00\n      dup2\n      mstore\n      0x20\n      add\n      0x00\n      dup2\n      mstore\n      pop\n      swap1\n      jump\n    tag_271:\n        /* \"Contracts/AuctionSPU.sol\":5970:5985  msg.value - fee */\n      tag_273\n        /* \"Contracts/AuctionSPU.sol\":5982:5985  fee */\n      dup3\n        /* \"Contracts/AuctionSPU.sol\":5970:5979  msg.value */\n      callvalue\n        /* \"Contracts/AuctionSPU.sol\":5970:5985  msg.value - fee */\n      tag_263\n      jump\t// in\n    tag_273:\n        /* \"Contracts/AuctionSPU.sol\":5958:5967  b.downpay */\n      0x60\n      dup3\n      add\n        /* \"Contracts/AuctionSPU.sol\":5958:5985  b.downpay = msg.value - fee */\n      swap1\n      dup2\n      mstore\n        /* \"Contracts/AuctionSPU.sol\":6000:6026  b.totalValue = _totalValue */\n      dup6\n      dup3\n      mstore\n        /* \"Contracts/AuctionSPU.sol\":6047:6056  b.portion */\n      0x20\n      dup1\n      dup4\n      add\n        /* \"Contracts/AuctionSPU.sol\":6047:6067  b.portion = _portion */\n      dup7\n      dup2\n      mstore\n      0x40\n        /* \"Contracts/AuctionSPU.sol\":6082:6095  b.clientScore */\n      dup1\n      dup6\n      add\n        /* \"Contracts/AuctionSPU.sol\":6082:6110  b.clientScore = _clientScore */\n      dup8\n      dup2\n      mstore\n        /* \"Contracts/AuctionSPU.sol\":6138:6148  msg.sender */\n      caller\n        /* \"Contracts/AuctionSPU.sol\":6000:6012  b.totalValue */\n      0x00\n        /* \"Contracts/AuctionSPU.sol\":6125:6149  receivedBids[msg.sender] */\n      swap1\n      dup2\n      mstore\n        /* \"Contracts/AuctionSPU.sol\":6125:6137  receivedBids */\n      0x0b\n        /* \"Contracts/AuctionSPU.sol\":6125:6149  receivedBids[msg.sender] */\n      swap1\n      swap5\n      mstore\n      swap3\n      keccak256\n        /* \"Contracts/AuctionSPU.sol\":6125:6153  receivedBids[msg.sender] = b */\n      swap4\n      mload\n      dup5\n      sstore\n      mload\n      0x01\n      dup5\n      add\n      sstore\n      mload\n      0x02\n      dup4\n      add\n      sstore\n      mload\n      0x03\n      swap1\n      swap2\n      add\n      sstore\n        /* \"Contracts/AuctionSPU.sol\":5553:6165  if (receivedBids[msg.sender].totalValue != 0) {             ... */\n    tag_270:\n        /* \"Contracts/AuctionSPU.sol\":6177:6190  highestBidder */\n      0x09\n        /* \"Contracts/AuctionSPU.sol\":6177:6203  highestBidder = msg.sender */\n      dup1\n      sload\n      not(sub(shl(0xa0, 0x01), 0x01))\n      and\n        /* \"Contracts/AuctionSPU.sol\":6193:6203  msg.sender */\n      caller\n        /* \"Contracts/AuctionSPU.sol\":6177:6203  highestBidder = msg.sender */\n      or\n      swap1\n      sstore\n        /* \"Contracts/AuctionSPU.sol\":6227:6242  msg.value - fee */\n      tag_274\n        /* \"Contracts/AuctionSPU.sol\":6239:6242  fee */\n      dup2\n        /* \"Contracts/AuctionSPU.sol\":6227:6236  msg.value */\n      callvalue\n        /* \"Contracts/AuctionSPU.sol\":6227:6242  msg.value - fee */\n      tag_263\n      jump\t// in\n    tag_274:\n        /* \"Contracts/AuctionSPU.sol\":6214:6224  highestBid */\n      0x0a\n        /* \"Contracts/AuctionSPU.sol\":6214:6242  highestBid = msg.value - fee */\n      dup2\n      swap1\n      sstore\n      pop\n        /* \"Contracts/AuctionSPU.sol\":6269:6270  1 */\n      0x01\n        /* \"Contracts/AuctionSPU.sol\":6253:6265  numberOfBids */\n      0x06\n      0x00\n        /* \"Contracts/AuctionSPU.sol\":6253:6270  numberOfBids += 1 */\n      dup3\n      dup3\n      sload\n      tag_275\n      swap2\n      swap1\n      tag_261\n      jump\t// in\n    tag_275:\n      swap1\n      swap2\n      sstore\n      pop\n        /* \"Contracts/AuctionSPU.sol\":6292:6302  msg.sender */\n      caller\n      swap1\n      pop\n        /* \"Contracts/AuctionSPU.sol\":6288:6320  Bid(msg.sender, msg.value - fee) */\n      0xe684a55f31b79eca403df938249029212a5925ec6be8012e099b45bc1019e5d2\n        /* \"Contracts/AuctionSPU.sol\":6304:6319  msg.value - fee */\n      tag_276\n        /* \"Contracts/AuctionSPU.sol\":6316:6319  fee */\n      dup4\n        /* \"Contracts/AuctionSPU.sol\":6304:6313  msg.value */\n      callvalue\n        /* \"Contracts/AuctionSPU.sol\":6304:6319  msg.value - fee */\n      tag_263\n      jump\t// in\n    tag_276:\n        /* \"Contracts/AuctionSPU.sol\":6288:6320  Bid(msg.sender, msg.value - fee) */\n      mload(0x40)\n        /* \"#utility.yul\":732:757   */\n      swap1\n      dup2\n      mstore\n        /* \"#utility.yul\":720:722   */\n      0x20\n        /* \"#utility.yul\":705:723   */\n      add\n        /* \"Contracts/AuctionSPU.sol\":6288:6320  Bid(msg.sender, msg.value - fee) */\n      mload(0x40)\n      dup1\n      swap2\n      sub\n      swap1\n      log2\n        /* \"Contracts/AuctionSPU.sol\":5112:6328  {... */\n      pop\n        /* \"Contracts/AuctionSPU.sol\":4952:6328  function newBid(... */\n      pop\n      pop\n      pop\n      jump\t// out\n        /* \"Contracts/AuctionSPU.sol\":4059:4311  function endAuction() external onlyOwner auctionStarted {... */\n    tag_140:\n        /* \"Contracts/AuctionSPU.sol\":3167:3173  seller */\n      and(sub(shl(0xa0, 0x01), 0x01), sload(0x02))\n        /* \"Contracts/AuctionSPU.sol\":3153:3163  msg.sender */\n      caller\n        /* \"Contracts/AuctionSPU.sol\":3153:3173  msg.sender == seller */\n      eq\n        /* \"Contracts/AuctionSPU.sol\":3145:3197  require(msg.sender == seller, \"Sender is not owner\") */\n      tag_279\n      jumpi\n      mload(0x40)\n      shl(0xe5, 0x461bcd)\n      dup2\n      mstore\n      0x04\n      add\n      tag_33\n      swap1\n      tag_34\n      jump\t// in\n    tag_279:\n        /* \"Contracts/AuctionSPU.sol\":3368:3375  started */\n      and(0xff, sload(0x05))\n        /* \"Contracts/AuctionSPU.sol\":3360:3395  require(started, \"Not Started Yet\") */\n      tag_282\n      jumpi\n      mload(0x40)\n      shl(0xe5, 0x461bcd)\n      dup2\n      mstore\n        /* \"#utility.yul\":6771:6773   */\n      0x20\n        /* \"Contracts/AuctionSPU.sol\":3360:3395  require(started, \"Not Started Yet\") */\n      0x04\n      dup3\n      add\n        /* \"#utility.yul\":6753:6774   */\n      mstore\n        /* \"#utility.yul\":6810:6812   */\n      0x0f\n        /* \"#utility.yul\":6790:6808   */\n      0x24\n      dup3\n      add\n        /* \"#utility.yul\":6783:6813   */\n      mstore\n      shl(0x8a, 0x139bdd0814dd185c9d19590816595d)\n        /* \"#utility.yul\":6829:6847   */\n      0x44\n      dup3\n      add\n        /* \"#utility.yul\":6822:6867   */\n      mstore\n        /* \"#utility.yul\":6884:6902   */\n      0x64\n      add\n        /* \"Contracts/AuctionSPU.sol\":3360:3395  require(started, \"Not Started Yet\") */\n      tag_33\n        /* \"#utility.yul\":6569:6908   */\n      jump\n        /* \"Contracts/AuctionSPU.sol\":3360:3395  require(started, \"Not Started Yet\") */\n    tag_282:\n        /* \"Contracts/AuctionSPU.sol\":4153:4158  endAt */\n      sload(0x04)\n        /* \"Contracts/AuctionSPU.sol\":4134:4149  block.timestamp */\n      timestamp\n        /* \"Contracts/AuctionSPU.sol\":4134:4158  block.timestamp >= endAt */\n      lt\n      iszero\n        /* \"Contracts/AuctionSPU.sol\":4126:4172  require(block.timestamp >= endAt, \"Not Ended\") */\n      tag_285\n      jumpi\n      mload(0x40)\n      shl(0xe5, 0x461bcd)\n      dup2\n      mstore\n        /* \"#utility.yul\":3030:3032   */\n      0x20\n        /* \"Contracts/AuctionSPU.sol\":4126:4172  require(block.timestamp >= endAt, \"Not Ended\") */\n      0x04\n      dup3\n      add\n        /* \"#utility.yul\":3012:3033   */\n      mstore\n        /* \"#utility.yul\":3069:3070   */\n      0x09\n        /* \"#utility.yul\":3049:3067   */\n      0x24\n      dup3\n      add\n        /* \"#utility.yul\":3042:3071   */\n      mstore\n      shl(0xba, 0x139bdd08115b991959)\n        /* \"#utility.yul\":3087:3105   */\n      0x44\n      dup3\n      add\n        /* \"#utility.yul\":3080:3119   */\n      mstore\n        /* \"#utility.yul\":3136:3154   */\n      0x64\n      add\n        /* \"Contracts/AuctionSPU.sol\":4126:4172  require(block.timestamp >= endAt, \"Not Ended\") */\n      tag_33\n        /* \"#utility.yul\":2828:3160   */\n      jump\n        /* \"Contracts/AuctionSPU.sol\":4126:4172  require(block.timestamp >= endAt, \"Not Ended\") */\n    tag_285:\n        /* \"Contracts/AuctionSPU.sol\":4192:4197  ended */\n      sload(0x05)\n      0x0100\n      swap1\n      div\n      0xff\n      and\n        /* \"Contracts/AuctionSPU.sol\":4191:4197  !ended */\n      iszero\n        /* \"Contracts/AuctionSPU.sol\":4183:4215  require(!ended, \"Already Ended\") */\n      tag_287\n      jumpi\n      mload(0x40)\n      shl(0xe5, 0x461bcd)\n      dup2\n      mstore\n        /* \"#utility.yul\":9620:9622   */\n      0x20\n        /* \"Contracts/AuctionSPU.sol\":4183:4215  require(!ended, \"Already Ended\") */\n      0x04\n      dup3\n      add\n        /* \"#utility.yul\":9602:9623   */\n      mstore\n        /* \"#utility.yul\":9659:9661   */\n      0x0d\n        /* \"#utility.yul\":9639:9657   */\n      0x24\n      dup3\n      add\n        /* \"#utility.yul\":9632:9662   */\n      mstore\n      shl(0x9a, 0x105b1c9958591e48115b991959)\n        /* \"#utility.yul\":9678:9696   */\n      0x44\n      dup3\n      add\n        /* \"#utility.yul\":9671:9714   */\n      mstore\n        /* \"#utility.yul\":9731:9749   */\n      0x64\n      add\n        /* \"Contracts/AuctionSPU.sol\":4183:4215  require(!ended, \"Already Ended\") */\n      tag_33\n        /* \"#utility.yul\":9418:9755   */\n      jump\n        /* \"Contracts/AuctionSPU.sol\":4183:4215  require(!ended, \"Already Ended\") */\n    tag_287:\n        /* \"Contracts/AuctionSPU.sol\":4228:4233  ended */\n      0x05\n        /* \"Contracts/AuctionSPU.sol\":4228:4240  ended = true */\n      dup1\n      sload\n      not(0xff00)\n      and\n      0x0100\n      or\n      swap1\n      sstore\n        /* \"Contracts/AuctionSPU.sol\":4277:4290  highestBidder */\n      sload(0x09)\n        /* \"Contracts/AuctionSPU.sol\":4292:4302  highestBid */\n      sload(0x0a)\n        /* \"Contracts/AuctionSPU.sol\":4266:4303  EndAuction(highestBidder, highestBid) */\n      0x40\n      dup1\n      mload\n      sub(shl(0xa0, 0x01), 0x01)\n        /* \"Contracts/AuctionSPU.sol\":4277:4290  highestBidder */\n      swap1\n      swap4\n      and\n        /* \"#utility.yul\":9934:9985   */\n      dup4\n      mstore\n        /* \"#utility.yul\":10016:10018   */\n      0x20\n        /* \"#utility.yul\":10001:10019   */\n      dup4\n      add\n        /* \"#utility.yul\":9994:10028   */\n      swap2\n      swap1\n      swap2\n      mstore\n        /* \"Contracts/AuctionSPU.sol\":4266:4303  EndAuction(highestBidder, highestBid) */\n      0xca09734d1fc32150404dc9252b4d991c6bee44319031b7159c03d5ae2c062704\n      swap2\n        /* \"#utility.yul\":9907:9925   */\n      add\n        /* \"Contracts/AuctionSPU.sol\":4266:4303  EndAuction(highestBidder, highestBid) */\n      tag_225\n        /* \"#utility.yul\":9760:10034   */\n      jump\n        /* \"Contracts/AuctionSPU.sol\":6869:7310  function cashback(address _receiver, uint _amount) internal{... */\n    tag_200:\n        /* \"Contracts/AuctionSPU.sol\":6940:6956  bool callSuccess */\n      0x00\n        /* \"Contracts/AuctionSPU.sol\":6970:6979  _receiver */\n      dup3\n      sub(shl(0xa0, 0x01), 0x01)\n        /* \"Contracts/AuctionSPU.sol\":6962:6985  payable(_receiver).call */\n      and\n        /* \"Contracts/AuctionSPU.sol\":6993:7000  _amount */\n      dup3\n        /* \"Contracts/AuctionSPU.sol\":6962:7005  payable(_receiver).call{value: _amount}(\"\") */\n      mload(0x40)\n      0x00\n      mload(0x40)\n      dup1\n      dup4\n      sub\n      dup2\n      dup6\n      dup8\n      gas\n      call\n      swap3\n      pop\n      pop\n      pop\n      returndatasize\n      dup1\n      0x00\n      dup2\n      eq\n      tag_296\n      jumpi\n      mload(0x40)\n      swap2\n      pop\n      and(add(returndatasize, 0x3f), not(0x1f))\n      dup3\n      add\n      0x40\n      mstore\n      returndatasize\n      dup3\n      mstore\n      returndatasize\n      0x00\n      0x20\n      dup5\n      add\n      returndatacopy\n      jump(tag_295)\n    tag_296:\n      0x60\n      swap2\n      pop\n    tag_295:\n      pop\n        /* \"Contracts/AuctionSPU.sol\":6939:7005  (bool callSuccess, ) = payable(_receiver).call{value: _amount}(\"\") */\n      pop\n      swap1\n      pop\n        /* \"Contracts/AuctionSPU.sol\":7024:7035  callSuccess */\n      dup1\n        /* \"Contracts/AuctionSPU.sol\":7016:7059  require(callSuccess, \"Return funds failed\") */\n      tag_297\n      jumpi\n      mload(0x40)\n      shl(0xe5, 0x461bcd)\n      dup2\n      mstore\n        /* \"#utility.yul\":4309:4311   */\n      0x20\n        /* \"Contracts/AuctionSPU.sol\":7016:7059  require(callSuccess, \"Return funds failed\") */\n      0x04\n      dup3\n      add\n        /* \"#utility.yul\":4291:4312   */\n      mstore\n        /* \"#utility.yul\":4348:4350   */\n      0x13\n        /* \"#utility.yul\":4328:4346   */\n      0x24\n      dup3\n      add\n        /* \"#utility.yul\":4321:4351   */\n      mstore\n      shl(0x6a, 0x14995d1d5c9b88199d5b991cc819985a5b1959)\n        /* \"#utility.yul\":4367:4385   */\n      0x44\n      dup3\n      add\n        /* \"#utility.yul\":4360:4409   */\n      mstore\n        /* \"#utility.yul\":4426:4444   */\n      0x64\n      add\n        /* \"Contracts/AuctionSPU.sol\":7016:7059  require(callSuccess, \"Return funds failed\") */\n      tag_33\n        /* \"#utility.yul\":4107:4450   */\n      jump\n        /* \"Contracts/AuctionSPU.sol\":7016:7059  require(callSuccess, \"Return funds failed\") */\n    tag_297:\n        /* \"Contracts/AuctionSPU.sol\":7085:7095  msg.sender */\n      caller\n        /* \"Contracts/AuctionSPU.sol\":7107:7108  0 */\n      0x00\n        /* \"Contracts/AuctionSPU.sol\":7072:7096  receivedBids[msg.sender] */\n      swap1\n      dup2\n      mstore\n        /* \"Contracts/AuctionSPU.sol\":7072:7084  receivedBids */\n      0x0b\n        /* \"Contracts/AuctionSPU.sol\":7072:7096  receivedBids[msg.sender] */\n      0x20\n      mstore\n      0x40\n      dup1\n      dup3\n      keccak256\n        /* \"Contracts/AuctionSPU.sol\":7072:7104  receivedBids[msg.sender].downpay */\n      0x03\n      dup2\n      add\n        /* \"Contracts/AuctionSPU.sol\":7072:7108  receivedBids[msg.sender].downpay = 0 */\n      dup4\n      swap1\n      sstore\n        /* \"Contracts/AuctionSPU.sol\":7119:7158  receivedBids[msg.sender].totalValue = 0 */\n      dup3\n      dup2\n      sstore\n        /* \"Contracts/AuctionSPU.sol\":7169:7201  receivedBids[msg.sender].portion */\n      0x01\n      dup2\n      add\n        /* \"Contracts/AuctionSPU.sol\":7169:7205  receivedBids[msg.sender].portion = 0 */\n      dup4\n      swap1\n      sstore\n      0x02\n        /* \"Contracts/AuctionSPU.sol\":7216:7252  receivedBids[msg.sender].clientScore */\n      add\n        /* \"Contracts/AuctionSPU.sol\":7216:7256  receivedBids[msg.sender].clientScore = 0 */\n      swap2\n      swap1\n      swap2\n      sstore\n        /* \"Contracts/AuctionSPU.sol\":7274:7302  Cashback(_receiver, _amount) */\n      mload\n      sub(shl(0xa0, 0x01), 0x01)\n      dup5\n      and\n      swap1\n      0xe523757eee9c213543af9b06c96e0629da383d3149173f4a03ab96d8ff526760\n      swap1\n      tag_299\n      swap1\n        /* \"Contracts/AuctionSPU.sol\":7294:7301  _amount */\n      dup6\n        /* \"#utility.yul\":732:757   */\n      dup2\n      mstore\n        /* \"#utility.yul\":720:722   */\n      0x20\n        /* \"#utility.yul\":705:723   */\n      add\n      swap1\n        /* \"#utility.yul\":586:763   */\n      jump\n        /* \"Contracts/AuctionSPU.sol\":7274:7302  Cashback(_receiver, _amount) */\n    tag_299:\n      mload(0x40)\n      dup1\n      swap2\n      sub\n      swap1\n      log2\n        /* \"Contracts/AuctionSPU.sol\":6928:7310  {... */\n      pop\n        /* \"Contracts/AuctionSPU.sol\":6869:7310  function cashback(address _receiver, uint _amount) internal{... */\n      pop\n      pop\n      jump\t// out\n        /* \"#utility.yul\":14:357   */\n    tag_34:\n        /* \"#utility.yul\":216:218   */\n      0x20\n        /* \"#utility.yul\":198:219   */\n      dup1\n      dup3\n      mstore\n        /* \"#utility.yul\":255:257   */\n      0x13\n        /* \"#utility.yul\":235:253   */\n      swap1\n      dup3\n      add\n        /* \"#utility.yul\":228:258   */\n      mstore\n      shl(0x69, 0x29b2b73232b91034b9903737ba1037bbb732b9)\n        /* \"#utility.yul\":289:291   */\n      0x40\n        /* \"#utility.yul\":274:292   */\n      dup3\n      add\n        /* \"#utility.yul\":267:316   */\n      mstore\n        /* \"#utility.yul\":348:350   */\n      0x60\n        /* \"#utility.yul\":333:351   */\n      add\n      swap1\n        /* \"#utility.yul\":14:357   */\n      jump\t// out\n        /* \"#utility.yul\":1182:1355   */\n    tag_301:\n        /* \"#utility.yul\":1250:1270   */\n      dup1\n      calldataload\n      sub(shl(0xa0, 0x01), 0x01)\n        /* \"#utility.yul\":1299:1330   */\n      dup2\n      and\n        /* \"#utility.yul\":1289:1331   */\n      dup2\n      eq\n        /* \"#utility.yul\":1279:1349   */\n      tag_310\n      jumpi\n        /* \"#utility.yul\":1345:1346   */\n      0x00\n        /* \"#utility.yul\":1342:1343   */\n      dup1\n        /* \"#utility.yul\":1335:1347   */\n      revert\n        /* \"#utility.yul\":1279:1349   */\n    tag_310:\n        /* \"#utility.yul\":1182:1355   */\n      swap2\n      swap1\n      pop\n      jump\t// out\n        /* \"#utility.yul\":1360:1707   */\n    tag_86:\n        /* \"#utility.yul\":1425:1431   */\n      0x00\n        /* \"#utility.yul\":1433:1439   */\n      dup1\n        /* \"#utility.yul\":1486:1488   */\n      0x40\n        /* \"#utility.yul\":1474:1483   */\n      dup4\n        /* \"#utility.yul\":1465:1472   */\n      dup6\n        /* \"#utility.yul\":1461:1484   */\n      sub\n        /* \"#utility.yul\":1457:1489   */\n      slt\n        /* \"#utility.yul\":1454:1506   */\n      iszero\n      tag_312\n      jumpi\n        /* \"#utility.yul\":1502:1503   */\n      0x00\n        /* \"#utility.yul\":1499:1500   */\n      dup1\n        /* \"#utility.yul\":1492:1504   */\n      revert\n        /* \"#utility.yul\":1454:1506   */\n    tag_312:\n        /* \"#utility.yul\":1525:1554   */\n      tag_313\n        /* \"#utility.yul\":1544:1553   */\n      dup4\n        /* \"#utility.yul\":1525:1554   */\n      tag_301\n      jump\t// in\n    tag_313:\n        /* \"#utility.yul\":1515:1554   */\n      swap2\n      pop\n        /* \"#utility.yul\":1604:1606   */\n      0x20\n        /* \"#utility.yul\":1593:1602   */\n      dup4\n        /* \"#utility.yul\":1589:1607   */\n      add\n        /* \"#utility.yul\":1576:1608   */\n      calldataload\n        /* \"#utility.yul\":1651:1656   */\n      dup1\n        /* \"#utility.yul\":1644:1657   */\n      iszero\n        /* \"#utility.yul\":1637:1658   */\n      iszero\n        /* \"#utility.yul\":1630:1635   */\n      dup2\n        /* \"#utility.yul\":1627:1659   */\n      eq\n        /* \"#utility.yul\":1617:1677   */\n      tag_314\n      jumpi\n        /* \"#utility.yul\":1673:1674   */\n      0x00\n        /* \"#utility.yul\":1670:1671   */\n      dup1\n        /* \"#utility.yul\":1663:1675   */\n      revert\n        /* \"#utility.yul\":1617:1677   */\n    tag_314:\n        /* \"#utility.yul\":1696:1701   */\n      dup1\n        /* \"#utility.yul\":1686:1701   */\n      swap2\n      pop\n      pop\n        /* \"#utility.yul\":1360:1707   */\n      swap3\n      pop\n      swap3\n      swap1\n      pop\n      jump\t// out\n        /* \"#utility.yul\":1920:2106   */\n    tag_107:\n        /* \"#utility.yul\":1979:1985   */\n      0x00\n        /* \"#utility.yul\":2032:2034   */\n      0x20\n        /* \"#utility.yul\":2020:2029   */\n      dup3\n        /* \"#utility.yul\":2011:2018   */\n      dup5\n        /* \"#utility.yul\":2007:2030   */\n      sub\n        /* \"#utility.yul\":2003:2035   */\n      slt\n        /* \"#utility.yul\":2000:2052   */\n      iszero\n      tag_317\n      jumpi\n        /* \"#utility.yul\":2048:2049   */\n      0x00\n        /* \"#utility.yul\":2045:2046   */\n      dup1\n        /* \"#utility.yul\":2038:2050   */\n      revert\n        /* \"#utility.yul\":2000:2052   */\n    tag_317:\n        /* \"#utility.yul\":2071:2100   */\n      tag_318\n        /* \"#utility.yul\":2090:2099   */\n      dup3\n        /* \"#utility.yul\":2071:2100   */\n      tag_301\n      jump\t// in\n    tag_318:\n        /* \"#utility.yul\":2061:2100   */\n      swap4\n        /* \"#utility.yul\":1920:2106   */\n      swap3\n      pop\n      pop\n      pop\n      jump\t// out\n        /* \"#utility.yul\":2507:2823   */\n    tag_132:\n        /* \"#utility.yul\":2584:2590   */\n      0x00\n        /* \"#utility.yul\":2592:2598   */\n      dup1\n        /* \"#utility.yul\":2600:2606   */\n      0x00\n        /* \"#utility.yul\":2653:2655   */\n      0x60\n        /* \"#utility.yul\":2641:2650   */\n      dup5\n        /* \"#utility.yul\":2632:2639   */\n      dup7\n        /* \"#utility.yul\":2628:2651   */\n      sub\n        /* \"#utility.yul\":2624:2656   */\n      slt\n        /* \"#utility.yul\":2621:2673   */\n      iszero\n      tag_321\n      jumpi\n        /* \"#utility.yul\":2669:2670   */\n      0x00\n        /* \"#utility.yul\":2666:2667   */\n      dup1\n        /* \"#utility.yul\":2659:2671   */\n      revert\n        /* \"#utility.yul\":2621:2673   */\n    tag_321:\n      pop\n      pop\n        /* \"#utility.yul\":2692:2715   */\n      dup2\n      calldataload\n      swap4\n        /* \"#utility.yul\":2762:2764   */\n      0x20\n        /* \"#utility.yul\":2747:2765   */\n      dup4\n      add\n        /* \"#utility.yul\":2734:2766   */\n      calldataload\n      swap4\n      pop\n        /* \"#utility.yul\":2813:2815   */\n      0x40\n        /* \"#utility.yul\":2798:2816   */\n      swap1\n      swap3\n      add\n        /* \"#utility.yul\":2785:2817   */\n      calldataload\n      swap2\n        /* \"#utility.yul\":2507:2823   */\n      swap1\n      pop\n      jump\t// out\n        /* \"#utility.yul\":8291:8418   */\n    tag_302:\n        /* \"#utility.yul\":8352:8362   */\n      0x4e487b71\n        /* \"#utility.yul\":8347:8350   */\n      0xe0\n        /* \"#utility.yul\":8343:8363   */\n      shl\n        /* \"#utility.yul\":8340:8341   */\n      0x00\n        /* \"#utility.yul\":8333:8364   */\n      mstore\n        /* \"#utility.yul\":8383:8387   */\n      0x11\n        /* \"#utility.yul\":8380:8381   */\n      0x04\n        /* \"#utility.yul\":8373:8388   */\n      mstore\n        /* \"#utility.yul\":8407:8411   */\n      0x24\n        /* \"#utility.yul\":8404:8405   */\n      0x00\n        /* \"#utility.yul\":8397:8412   */\n      revert\n        /* \"#utility.yul\":8423:8640   */\n    tag_257:\n        /* \"#utility.yul\":8463:8464   */\n      0x00\n        /* \"#utility.yul\":8489:8490   */\n      dup3\n        /* \"#utility.yul\":8479:8611   */\n      tag_340\n      jumpi\n        /* \"#utility.yul\":8533:8543   */\n      0x4e487b71\n        /* \"#utility.yul\":8528:8531   */\n      0xe0\n        /* \"#utility.yul\":8524:8544   */\n      shl\n        /* \"#utility.yul\":8521:8522   */\n      0x00\n        /* \"#utility.yul\":8514:8545   */\n      mstore\n        /* \"#utility.yul\":8568:8572   */\n      0x12\n        /* \"#utility.yul\":8565:8566   */\n      0x04\n        /* \"#utility.yul\":8558:8573   */\n      mstore\n        /* \"#utility.yul\":8596:8600   */\n      0x24\n        /* \"#utility.yul\":8593:8594   */\n      0x00\n        /* \"#utility.yul\":8586:8601   */\n      revert\n        /* \"#utility.yul\":8479:8611   */\n    tag_340:\n      pop\n        /* \"#utility.yul\":8625:8634   */\n      div\n      swap1\n        /* \"#utility.yul\":8423:8640   */\n      jump\t// out\n        /* \"#utility.yul\":8645:8813   */\n    tag_259:\n        /* \"#utility.yul\":8718:8727   */\n      dup1\n      dup3\n      mul\n        /* \"#utility.yul\":8749:8758   */\n      dup2\n      iszero\n        /* \"#utility.yul\":8766:8781   */\n      dup3\n      dup3\n      div\n        /* \"#utility.yul\":8760:8782   */\n      dup5\n      eq\n        /* \"#utility.yul\":8746:8783   */\n      or\n        /* \"#utility.yul\":8736:8807   */\n      tag_227\n      jumpi\n        /* \"#utility.yul\":8787:8805   */\n      tag_227\n      tag_302\n      jump\t// in\n        /* \"#utility.yul\":8818:8943   */\n    tag_261:\n        /* \"#utility.yul\":8883:8892   */\n      dup1\n      dup3\n      add\n        /* \"#utility.yul\":8904:8914   */\n      dup1\n      dup3\n      gt\n        /* \"#utility.yul\":8901:8937   */\n      iszero\n      tag_227\n      jumpi\n        /* \"#utility.yul\":8917:8935   */\n      tag_227\n      tag_302\n      jump\t// in\n        /* \"#utility.yul\":8948:9076   */\n    tag_263:\n        /* \"#utility.yul\":9015:9024   */\n      dup2\n      dup2\n      sub\n        /* \"#utility.yul\":9036:9047   */\n      dup2\n      dup2\n      gt\n        /* \"#utility.yul\":9033:9070   */\n      iszero\n      tag_227\n      jumpi\n        /* \"#utility.yul\":9050:9068   */\n      tag_227\n      tag_302\n      jump\t// in\n\n    auxdata: 0xa26469706673582212208e73c8d19f2b6884f3253be9fab1ceaff3f6d975611aae9ad376bb27ab732a2064736f6c63430008110033\n}\n",
				"bytecode": {
					"linkReferences": {},
					"object": "608060405234801561001057600080fd5b5060405161140338038061140383398101604081905261002f9161009b565b600080546001600160a01b03199081166001600160a01b03988916179091556001949094556002805433908616179055600380549094169490951693909317909155600a556004556007556100f3565b80516001600160a01b038116811461009657600080fd5b919050565b60008060008060008060c087890312156100b457600080fd5b6100bd8761007f565b95506100cb6020880161007f565b945060408701519350606087015192506080870151915060a087015190509295509295509295565b611301806101026000396000f3fe60806040526004361061014f5760003560e01c80636b64c769116100b6578063c6bc51821161006f578063c6bc51821461040e578063ceb1641914610424578063d57bde7914610439578063db15c4371461044f578063ecefc70514610462578063fe67a54b1461047857610189565b80636b64c7691461032c5780637cc3ae8c1461034157806391f901571461035757806395ecc5cc14610377578063b9ae7364146103d9578063c683630d146103ee57610189565b8063378252f211610108578063378252f2146102825780633ccfd60b1461029757806341275358146102ac57806347ccca02146102cc57806353d6fd59146102ec5780635c975abb1461030c57610189565b806308551a53146101b357806312065fe0146101f057806312fa6feb1461020d57806317d531fc1461023c5780631df4ccfc146102525780631f2698ab1461026857610189565b36610189576002546001600160a01b031633146101875760405162461bcd60e51b815260040161017e90611183565b60405180910390fd5b005b6002546001600160a01b031633146101875760405162461bcd60e51b815260040161017e90611183565b3480156101bf57600080fd5b506002546101d3906001600160a01b031681565b6040516001600160a01b0390911681526020015b60405180910390f35b3480156101fc57600080fd5b50475b6040519081526020016101e7565b34801561021957600080fd5b5060055461022c90610100900460ff1681565b60405190151581526020016101e7565b34801561024857600080fd5b506101ff60065481565b34801561025e57600080fd5b506101ff60085481565b34801561027457600080fd5b5060055461022c9060ff1681565b34801561028e57600080fd5b5061018761048d565b3480156102a357600080fd5b5061018761078e565b3480156102b857600080fd5b506003546101d3906001600160a01b031681565b3480156102d857600080fd5b506000546101d3906001600160a01b031681565b3480156102f857600080fd5b506101876103073660046111cc565b6108ab565b34801561031857600080fd5b5060055461022c9062010000900460ff1681565b34801561033857600080fd5b5061018761092d565b34801561034d57600080fd5b506101ff60045481565b34801561036357600080fd5b506009546101d3906001600160a01b031681565b34801561038357600080fd5b506103b9610392366004611208565b600b6020526000908152604090208054600182015460028301546003909301549192909184565b6040805194855260208501939093529183015260608201526080016101e7565b3480156103e557600080fd5b50610187610a42565b3480156103fa57600080fd5b5061022c610409366004611208565b610afd565b34801561041a57600080fd5b506101ff60015481565b34801561043057600080fd5b50610187610b20565b34801561044557600080fd5b506101ff600a5481565b61018761045d36600461122a565b610bd0565b34801561046e57600080fd5b506101ff61271081565b34801561048457600080fd5b50610187610f30565b6002546001600160a01b031633146104b75760405162461bcd60e51b815260040161017e90611183565b6004544210156104f55760405162461bcd60e51b8152602060048201526009602482015268139bdd08115b99195960ba1b604482015260640161017e565b6009546001600160a01b03161561074957600054600954600154604051632142170760e11b81523060048201526001600160a01b03928316602482015260448101919091529116906342842e0e906064015b600060405180830381600087803b15801561056157600080fd5b505af1158015610575573d6000803e3d6000fd5b5050600354600854604051600094506001600160a01b039092169250908381818185875af1925050503d80600081146105ca576040519150601f19603f3d011682016040523d82523d6000602084013e6105cf565b606091505b50509050806106205760405162461bcd60e51b815260206004820152601760248201527f52657475726e206665652066756e6473206661696c6564000000000000000000604482015260640161017e565b6003546008546040519081526001600160a01b03909116907e57d762ad8f1734de771f2b521b2668347c0cee2d709a12254662cd5a7d41809060200160405180910390a2600254600a546040516000926001600160a01b031691908381818185875af1925050503d80600081146106b3576040519150601f19603f3d011682016040523d82523d6000602084013e6106b8565b606091505b50509050806106ff5760405162461bcd60e51b815260206004820152601360248201527214995d1d5c9b88199d5b991cc819985a5b1959606a1b604482015260640161017e565b600254600a546040519081526001600160a01b03909116907f1c1b1a7e52e22e996a7b9c93efbf98eeb6171f5ecaa8f5c1c792427b53d29e84906020015b60405180910390a25050565b600054600254600154604051632142170760e11b81523060048201526001600160a01b03928316602482015260448101919091529116906342842e0e90606401610547565b6009546001600160a01b031633036107e15760405162461bcd60e51b81526020600482015260166024820152752cb7bab9102134b21034b9903a3432903434b3b432b960511b604482015260640161017e565b336000908152600b602052604081206003015490036108345760405162461bcd60e51b815260206004820152600f60248201526e139bc8189a591cc8199bdd5b991959608a1b604482015260640161017e565b336000818152600b6020526040902060030154610851919061107a565b336000818152600b602090815260408083206003810184905583815560018101849055600201839055519182527f884edad9ce6fa2440d8a54cc123490eb96d2768479d49ff9c7366125a9424364910160405180910390a2565b6002546001600160a01b031633146108d55760405162461bcd60e51b815260040161017e90611183565b6001600160a01b0382166000818152600c6020908152604091829020805460ff191685151590811790915591519182527fc2c8beffdf047b9e6c79b0e9dcd0bd71d174d84f52e013102fcc0e200dd58ee0910161073d565b6002546001600160a01b031633146109575760405162461bcd60e51b815260040161017e90611183565b60055460ff161561099c5760405162461bcd60e51b815260206004820152600f60248201526e105b1c9958591e4814dd185c9d1959608a1b604482015260640161017e565b6000546001546040516323b872dd60e01b815233600482015230602482015260448101919091526001600160a01b03909116906323b872dd90606401600060405180830381600087803b1580156109f257600080fd5b505af1158015610a06573d6000803e3d6000fd5b50506005805460ff1916600117905550506040517fd295ebf0a48a9a43d600a6ecb8626baa711d5750dec13a08145013aa30cb92ea90600090a1565b6002546001600160a01b03163314610a6c5760405162461bcd60e51b815260040161017e90611183565b60055462010000900460ff1615610ab65760405162461bcd60e51b815260206004820152600e60248201526d105b1c9958591e4814185d5cd95960921b604482015260640161017e565b6005805462ff00001916620100001790556040513381527fdee06086e53b718fd5176fdaa88a207819a06a56b42087ac2cab84d32a335654906020015b60405180910390a1565b6001600160a01b0381166000908152600c602052604081205460ff165b92915050565b6002546001600160a01b03163314610b4a5760405162461bcd60e51b815260040161017e90611183565b60055462010000900460ff16610b945760405162461bcd60e51b815260206004820152600f60248201526e416c72656164792052756e6e696e6760881b604482015260640161017e565b6005805462ff0000191690556040513381527fc1a02e947cf77134ed09ac0692636f0553306db51ffe4a1d9e7b51b4dcd9c76290602001610af3565b60055460ff16610c145760405162461bcd60e51b815260206004820152600f60248201526e139bdd0814dd185c9d19590816595d608a1b604482015260640161017e565b60055462010000900460ff1615610c5e5760405162461bcd60e51b815260206004820152600e60248201526d105d58dd1a5bdb8814185d5cd95960921b604482015260640161017e565b6004544210610c9f5760405162461bcd60e51b815260206004820152600d60248201526c105b1c9958591e48195b991959609a1b604482015260640161017e565b6002546001600160a01b03163303610cee5760405162461bcd60e51b815260206004820152601260248201527114d95b1b195c881b9bdd08185b1b1bddd95960721b604482015260640161017e565b336000908152600c602052604090205460ff16610d415760405162461bcd60e51b815260206004820152601160248201527014195c9b5a5cdcda5bdb8819195b9a5959607a1b604482015260640161017e565b600754600090610d536127103461126c565b610d5d919061128e565b90508060086000828254610d7191906112a5565b9091555050600a54610d8382346112b8565b11610dbc5760405162461bcd60e51b8152602060048201526009602482015268131bddd95c88109a5960ba1b604482015260640161017e565b6009546001600160a01b03166000818152600b6020526040902060030154610de4919061107a565b336000908152600b602052604090205415610e3e57336000908152600b60205260409020849055610e1581346112b8565b336000908152600b60205260409020600381019190915560018101849055600201829055610eb2565b610e696040518060800160405280600081526020016000815260200160008152602001600081525090565b610e7382346112b8565b6060820190815285825260208083018681526040808501878152336000908152600b909452922093518455516001840155516002830155516003909101555b600980546001600160a01b03191633179055610ece81346112b8565b600a81905550600160066000828254610ee791906112a5565b909155503390507fe684a55f31b79eca403df938249029212a5925ec6be8012e099b45bc1019e5d2610f1983346112b8565b60405190815260200160405180910390a250505050565b6002546001600160a01b03163314610f5a5760405162461bcd60e51b815260040161017e90611183565b60055460ff16610f9e5760405162461bcd60e51b815260206004820152600f60248201526e139bdd0814dd185c9d19590816595d608a1b604482015260640161017e565b600454421015610fdc5760405162461bcd60e51b8152602060048201526009602482015268139bdd08115b99195960ba1b604482015260640161017e565b600554610100900460ff16156110245760405162461bcd60e51b815260206004820152600d60248201526c105b1c9958591e48115b991959609a1b604482015260640161017e565b6005805461ff001916610100179055600954600a54604080516001600160a01b03909316835260208301919091527fca09734d1fc32150404dc9252b4d991c6bee44319031b7159c03d5ae2c0627049101610af3565b6000826001600160a01b03168260405160006040518083038185875af1925050503d80600081146110c7576040519150601f19603f3d011682016040523d82523d6000602084013e6110cc565b606091505b50509050806111135760405162461bcd60e51b815260206004820152601360248201527214995d1d5c9b88199d5b991cc819985a5b1959606a1b604482015260640161017e565b336000908152600b6020526040808220600381018390558281556001810183905560020191909155516001600160a01b038416907fe523757eee9c213543af9b06c96e0629da383d3149173f4a03ab96d8ff526760906111769085815260200190565b60405180910390a2505050565b60208082526013908201527229b2b73232b91034b9903737ba1037bbb732b960691b604082015260600190565b80356001600160a01b03811681146111c757600080fd5b919050565b600080604083850312156111df57600080fd5b6111e8836111b0565b9150602083013580151581146111fd57600080fd5b809150509250929050565b60006020828403121561121a57600080fd5b611223826111b0565b9392505050565b60008060006060848603121561123f57600080fd5b505081359360208301359350604090920135919050565b634e487b7160e01b600052601160045260246000fd5b60008261128957634e487b7160e01b600052601260045260246000fd5b500490565b8082028115828204841417610b1a57610b1a611256565b80820180821115610b1a57610b1a611256565b81810381811115610b1a57610b1a61125656fea26469706673582212208e73c8d19f2b6884f3253be9fab1ceaff3f6d975611aae9ad376bb27ab732a2064736f6c63430008110033",
					"opcodes": "PUSH1 0x80 PUSH1 0x40 MSTORE CALLVALUE DUP1 ISZERO PUSH2 0x10 JUMPI PUSH1 0x0 DUP1 REVERT JUMPDEST POP PUSH1 0x40 MLOAD PUSH2 0x1403 CODESIZE SUB DUP1 PUSH2 0x1403 DUP4 CODECOPY DUP2 ADD PUSH1 0x40 DUP2 SWAP1 MSTORE PUSH2 0x2F SWAP2 PUSH2 0x9B JUMP JUMPDEST PUSH1 0x0 DUP1 SLOAD PUSH1 0x1 PUSH1 0x1 PUSH1 0xA0 SHL SUB NOT SWAP1 DUP2 AND PUSH1 0x1 PUSH1 0x1 PUSH1 0xA0 SHL SUB SWAP9 DUP10 AND OR SWAP1 SWAP2 SSTORE PUSH1 0x1 SWAP5 SWAP1 SWAP5 SSTORE PUSH1 0x2 DUP1 SLOAD CALLER SWAP1 DUP7 AND OR SWAP1 SSTORE PUSH1 0x3 DUP1 SLOAD SWAP1 SWAP5 AND SWAP5 SWAP1 SWAP6 AND SWAP4 SWAP1 SWAP4 OR SWAP1 SWAP2 SSTORE PUSH1 0xA SSTORE PUSH1 0x4 SSTORE PUSH1 0x7 SSTORE PUSH2 0xF3 JUMP JUMPDEST DUP1 MLOAD PUSH1 0x1 PUSH1 0x1 PUSH1 0xA0 SHL SUB DUP2 AND DUP2 EQ PUSH2 0x96 JUMPI PUSH1 0x0 DUP1 REVERT JUMPDEST SWAP2 SWAP1 POP JUMP JUMPDEST PUSH1 0x0 DUP1 PUSH1 0x0 DUP1 PUSH1 0x0 DUP1 PUSH1 0xC0 DUP8 DUP10 SUB SLT ISZERO PUSH2 0xB4 JUMPI PUSH1 0x0 DUP1 REVERT JUMPDEST PUSH2 0xBD DUP8 PUSH2 0x7F JUMP JUMPDEST SWAP6 POP PUSH2 0xCB PUSH1 0x20 DUP9 ADD PUSH2 0x7F JUMP JUMPDEST SWAP5 POP PUSH1 0x40 DUP8 ADD MLOAD SWAP4 POP PUSH1 0x60 DUP8 ADD MLOAD SWAP3 POP PUSH1 0x80 DUP8 ADD MLOAD SWAP2 POP PUSH1 0xA0 DUP8 ADD MLOAD SWAP1 POP SWAP3 SWAP6 POP SWAP3 SWAP6 POP SWAP3 SWAP6 JUMP JUMPDEST PUSH2 0x1301 DUP1 PUSH2 0x102 PUSH1 0x0 CODECOPY PUSH1 0x0 RETURN INVALID PUSH1 0x80 PUSH1 0x40 MSTORE PUSH1 0x4 CALLDATASIZE LT PUSH2 0x14F JUMPI PUSH1 0x0 CALLDATALOAD PUSH1 0xE0 SHR DUP1 PUSH4 0x6B64C769 GT PUSH2 0xB6 JUMPI DUP1 PUSH4 0xC6BC5182 GT PUSH2 0x6F JUMPI DUP1 PUSH4 0xC6BC5182 EQ PUSH2 0x40E JUMPI DUP1 PUSH4 0xCEB16419 EQ PUSH2 0x424 JUMPI DUP1 PUSH4 0xD57BDE79 EQ PUSH2 0x439 JUMPI DUP1 PUSH4 0xDB15C437 EQ PUSH2 0x44F JUMPI DUP1 PUSH4 0xECEFC705 EQ PUSH2 0x462 JUMPI DUP1 PUSH4 0xFE67A54B EQ PUSH2 0x478 JUMPI PUSH2 0x189 JUMP JUMPDEST DUP1 PUSH4 0x6B64C769 EQ PUSH2 0x32C JUMPI DUP1 PUSH4 0x7CC3AE8C EQ PUSH2 0x341 JUMPI DUP1 PUSH4 0x91F90157 EQ PUSH2 0x357 JUMPI DUP1 PUSH4 0x95ECC5CC EQ PUSH2 0x377 JUMPI DUP1 PUSH4 0xB9AE7364 EQ PUSH2 0x3D9 JUMPI DUP1 PUSH4 0xC683630D EQ PUSH2 0x3EE JUMPI PUSH2 0x189 JUMP JUMPDEST DUP1 PUSH4 0x378252F2 GT PUSH2 0x108 JUMPI DUP1 PUSH4 0x378252F2 EQ PUSH2 0x282 JUMPI DUP1 PUSH4 0x3CCFD60B EQ PUSH2 0x297 JUMPI DUP1 PUSH4 0x41275358 EQ PUSH2 0x2AC JUMPI DUP1 PUSH4 0x47CCCA02 EQ PUSH2 0x2CC JUMPI DUP1 PUSH4 0x53D6FD59 EQ PUSH2 0x2EC JUMPI DUP1 PUSH4 0x5C975ABB EQ PUSH2 0x30C JUMPI PUSH2 0x189 JUMP JUMPDEST DUP1 PUSH4 0x8551A53 EQ PUSH2 0x1B3 JUMPI DUP1 PUSH4 0x12065FE0 EQ PUSH2 0x1F0 JUMPI DUP1 PUSH4 0x12FA6FEB EQ PUSH2 0x20D JUMPI DUP1 PUSH4 0x17D531FC EQ PUSH2 0x23C JUMPI DUP1 PUSH4 0x1DF4CCFC EQ PUSH2 0x252 JUMPI DUP1 PUSH4 0x1F2698AB EQ PUSH2 0x268 JUMPI PUSH2 0x189 JUMP JUMPDEST CALLDATASIZE PUSH2 0x189 JUMPI PUSH1 0x2 SLOAD PUSH1 0x1 PUSH1 0x1 PUSH1 0xA0 SHL SUB AND CALLER EQ PUSH2 0x187 JUMPI PUSH1 0x40 MLOAD PUSH3 0x461BCD PUSH1 0xE5 SHL DUP2 MSTORE PUSH1 0x4 ADD PUSH2 0x17E SWAP1 PUSH2 0x1183 JUMP JUMPDEST PUSH1 0x40 MLOAD DUP1 SWAP2 SUB SWAP1 REVERT JUMPDEST STOP JUMPDEST PUSH1 0x2 SLOAD PUSH1 0x1 PUSH1 0x1 PUSH1 0xA0 SHL SUB AND CALLER EQ PUSH2 0x187 JUMPI PUSH1 0x40 MLOAD PUSH3 0x461BCD PUSH1 0xE5 SHL DUP2 MSTORE PUSH1 0x4 ADD PUSH2 0x17E SWAP1 PUSH2 0x1183 JUMP JUMPDEST CALLVALUE DUP1 ISZERO PUSH2 0x1BF JUMPI PUSH1 0x0 DUP1 REVERT JUMPDEST POP PUSH1 0x2 SLOAD PUSH2 0x1D3 SWAP1 PUSH1 0x1 PUSH1 0x1 PUSH1 0xA0 SHL SUB AND DUP2 JUMP JUMPDEST PUSH1 0x40 MLOAD PUSH1 0x1 PUSH1 0x1 PUSH1 0xA0 SHL SUB SWAP1 SWAP2 AND DUP2 MSTORE PUSH1 0x20 ADD JUMPDEST PUSH1 0x40 MLOAD DUP1 SWAP2 SUB SWAP1 RETURN JUMPDEST CALLVALUE DUP1 ISZERO PUSH2 0x1FC JUMPI PUSH1 0x0 DUP1 REVERT JUMPDEST POP SELFBALANCE JUMPDEST PUSH1 0x40 MLOAD SWAP1 DUP2 MSTORE PUSH1 0x20 ADD PUSH2 0x1E7 JUMP JUMPDEST CALLVALUE DUP1 ISZERO PUSH2 0x219 JUMPI PUSH1 0x0 DUP1 REVERT JUMPDEST POP PUSH1 0x5 SLOAD PUSH2 0x22C SWAP1 PUSH2 0x100 SWAP1 DIV PUSH1 0xFF AND DUP2 JUMP JUMPDEST PUSH1 0x40 MLOAD SWAP1 ISZERO ISZERO DUP2 MSTORE PUSH1 0x20 ADD PUSH2 0x1E7 JUMP JUMPDEST CALLVALUE DUP1 ISZERO PUSH2 0x248 JUMPI PUSH1 0x0 DUP1 REVERT JUMPDEST POP PUSH2 0x1FF PUSH1 0x6 SLOAD DUP2 JUMP JUMPDEST CALLVALUE DUP1 ISZERO PUSH2 0x25E JUMPI PUSH1 0x0 DUP1 REVERT JUMPDEST POP PUSH2 0x1FF PUSH1 0x8 SLOAD DUP2 JUMP JUMPDEST CALLVALUE DUP1 ISZERO PUSH2 0x274 JUMPI PUSH1 0x0 DUP1 REVERT JUMPDEST POP PUSH1 0x5 SLOAD PUSH2 0x22C SWAP1 PUSH1 0xFF AND DUP2 JUMP JUMPDEST CALLVALUE DUP1 ISZERO PUSH2 0x28E JUMPI PUSH1 0x0 DUP1 REVERT JUMPDEST POP PUSH2 0x187 PUSH2 0x48D JUMP JUMPDEST CALLVALUE DUP1 ISZERO PUSH2 0x2A3 JUMPI PUSH1 0x0 DUP1 REVERT JUMPDEST POP PUSH2 0x187 PUSH2 0x78E JUMP JUMPDEST CALLVALUE DUP1 ISZERO PUSH2 0x2B8 JUMPI PUSH1 0x0 DUP1 REVERT JUMPDEST POP PUSH1 0x3 SLOAD PUSH2 0x1D3 SWAP1 PUSH1 0x1 PUSH1 0x1 PUSH1 0xA0 SHL SUB AND DUP2 JUMP JUMPDEST CALLVALUE DUP1 ISZERO PUSH2 0x2D8 JUMPI PUSH1 0x0 DUP1 REVERT JUMPDEST POP PUSH1 0x0 SLOAD PUSH2 0x1D3 SWAP1 PUSH1 0x1 PUSH1 0x1 PUSH1 0xA0 SHL SUB AND DUP2 JUMP JUMPDEST CALLVALUE DUP1 ISZERO PUSH2 0x2F8 JUMPI PUSH1 0x0 DUP1 REVERT JUMPDEST POP PUSH2 0x187 PUSH2 0x307 CALLDATASIZE PUSH1 0x4 PUSH2 0x11CC JUMP JUMPDEST PUSH2 0x8AB JUMP JUMPDEST CALLVALUE DUP1 ISZERO PUSH2 0x318 JUMPI PUSH1 0x0 DUP1 REVERT JUMPDEST POP PUSH1 0x5 SLOAD PUSH2 0x22C SWAP1 PUSH3 0x10000 SWAP1 DIV PUSH1 0xFF AND DUP2 JUMP JUMPDEST CALLVALUE DUP1 ISZERO PUSH2 0x338 JUMPI PUSH1 0x0 DUP1 REVERT JUMPDEST POP PUSH2 0x187 PUSH2 0x92D JUMP JUMPDEST CALLVALUE DUP1 ISZERO PUSH2 0x34D JUMPI PUSH1 0x0 DUP1 REVERT JUMPDEST POP PUSH2 0x1FF PUSH1 0x4 SLOAD DUP2 JUMP JUMPDEST CALLVALUE DUP1 ISZERO PUSH2 0x363 JUMPI PUSH1 0x0 DUP1 REVERT JUMPDEST POP PUSH1 0x9 SLOAD PUSH2 0x1D3 SWAP1 PUSH1 0x1 PUSH1 0x1 PUSH1 0xA0 SHL SUB AND DUP2 JUMP JUMPDEST CALLVALUE DUP1 ISZERO PUSH2 0x383 JUMPI PUSH1 0x0 DUP1 REVERT JUMPDEST POP PUSH2 0x3B9 PUSH2 0x392 CALLDATASIZE PUSH1 0x4 PUSH2 0x1208 JUMP JUMPDEST PUSH1 0xB PUSH1 0x20 MSTORE PUSH1 0x0 SWAP1 DUP2 MSTORE PUSH1 0x40 SWAP1 KECCAK256 DUP1 SLOAD PUSH1 0x1 DUP3 ADD SLOAD PUSH1 0x2 DUP4 ADD SLOAD PUSH1 0x3 SWAP1 SWAP4 ADD SLOAD SWAP2 SWAP3 SWAP1 SWAP2 DUP5 JUMP JUMPDEST PUSH1 0x40 DUP1 MLOAD SWAP5 DUP6 MSTORE PUSH1 0x20 DUP6 ADD SWAP4 SWAP1 SWAP4 MSTORE SWAP2 DUP4 ADD MSTORE PUSH1 0x60 DUP3 ADD MSTORE PUSH1 0x80 ADD PUSH2 0x1E7 JUMP JUMPDEST CALLVALUE DUP1 ISZERO PUSH2 0x3E5 JUMPI PUSH1 0x0 DUP1 REVERT JUMPDEST POP PUSH2 0x187 PUSH2 0xA42 JUMP JUMPDEST CALLVALUE DUP1 ISZERO PUSH2 0x3FA JUMPI PUSH1 0x0 DUP1 REVERT JUMPDEST POP PUSH2 0x22C PUSH2 0x409 CALLDATASIZE PUSH1 0x4 PUSH2 0x1208 JUMP JUMPDEST PUSH2 0xAFD JUMP JUMPDEST CALLVALUE DUP1 ISZERO PUSH2 0x41A JUMPI PUSH1 0x0 DUP1 REVERT JUMPDEST POP PUSH2 0x1FF PUSH1 0x1 SLOAD DUP2 JUMP JUMPDEST CALLVALUE DUP1 ISZERO PUSH2 0x430 JUMPI PUSH1 0x0 DUP1 REVERT JUMPDEST POP PUSH2 0x187 PUSH2 0xB20 JUMP JUMPDEST CALLVALUE DUP1 ISZERO PUSH2 0x445 JUMPI PUSH1 0x0 DUP1 REVERT JUMPDEST POP PUSH2 0x1FF PUSH1 0xA SLOAD DUP2 JUMP JUMPDEST PUSH2 0x187 PUSH2 0x45D CALLDATASIZE PUSH1 0x4 PUSH2 0x122A JUMP JUMPDEST PUSH2 0xBD0 JUMP JUMPDEST CALLVALUE DUP1 ISZERO PUSH2 0x46E JUMPI PUSH1 0x0 DUP1 REVERT JUMPDEST POP PUSH2 0x1FF PUSH2 0x2710 DUP2 JUMP JUMPDEST CALLVALUE DUP1 ISZERO PUSH2 0x484 JUMPI PUSH1 0x0 DUP1 REVERT JUMPDEST POP PUSH2 0x187 PUSH2 0xF30 JUMP JUMPDEST PUSH1 0x2 SLOAD PUSH1 0x1 PUSH1 0x1 PUSH1 0xA0 SHL SUB AND CALLER EQ PUSH2 0x4B7 JUMPI PUSH1 0x40 MLOAD PUSH3 0x461BCD PUSH1 0xE5 SHL DUP2 MSTORE PUSH1 0x4 ADD PUSH2 0x17E SWAP1 PUSH2 0x1183 JUMP JUMPDEST PUSH1 0x4 SLOAD TIMESTAMP LT ISZERO PUSH2 0x4F5 JUMPI PUSH1 0x40 MLOAD PUSH3 0x461BCD PUSH1 0xE5 SHL DUP2 MSTORE PUSH1 0x20 PUSH1 0x4 DUP3 ADD MSTORE PUSH1 0x9 PUSH1 0x24 DUP3 ADD MSTORE PUSH9 0x139BDD08115B991959 PUSH1 0xBA SHL PUSH1 0x44 DUP3 ADD MSTORE PUSH1 0x64 ADD PUSH2 0x17E JUMP JUMPDEST PUSH1 0x9 SLOAD PUSH1 0x1 PUSH1 0x1 PUSH1 0xA0 SHL SUB AND ISZERO PUSH2 0x749 JUMPI PUSH1 0x0 SLOAD PUSH1 0x9 SLOAD PUSH1 0x1 SLOAD PUSH1 0x40 MLOAD PUSH4 0x21421707 PUSH1 0xE1 SHL DUP2 MSTORE ADDRESS PUSH1 0x4 DUP3 ADD MSTORE PUSH1 0x1 PUSH1 0x1 PUSH1 0xA0 SHL SUB SWAP3 DUP4 AND PUSH1 0x24 DUP3 ADD MSTORE PUSH1 0x44 DUP2 ADD SWAP2 SWAP1 SWAP2 MSTORE SWAP2 AND SWAP1 PUSH4 0x42842E0E SWAP1 PUSH1 0x64 ADD JUMPDEST PUSH1 0x0 PUSH1 0x40 MLOAD DUP1 DUP4 SUB DUP2 PUSH1 0x0 DUP8 DUP1 EXTCODESIZE ISZERO DUP1 ISZERO PUSH2 0x561 JUMPI PUSH1 0x0 DUP1 REVERT JUMPDEST POP GAS CALL ISZERO DUP1 ISZERO PUSH2 0x575 JUMPI RETURNDATASIZE PUSH1 0x0 DUP1 RETURNDATACOPY RETURNDATASIZE PUSH1 0x0 REVERT JUMPDEST POP POP PUSH1 0x3 SLOAD PUSH1 0x8 SLOAD PUSH1 0x40 MLOAD PUSH1 0x0 SWAP5 POP PUSH1 0x1 PUSH1 0x1 PUSH1 0xA0 SHL SUB SWAP1 SWAP3 AND SWAP3 POP SWAP1 DUP4 DUP2 DUP2 DUP2 DUP6 DUP8 GAS CALL SWAP3 POP POP POP RETURNDATASIZE DUP1 PUSH1 0x0 DUP2 EQ PUSH2 0x5CA JUMPI PUSH1 0x40 MLOAD SWAP2 POP PUSH1 0x1F NOT PUSH1 0x3F RETURNDATASIZE ADD AND DUP3 ADD PUSH1 0x40 MSTORE RETURNDATASIZE DUP3 MSTORE RETURNDATASIZE PUSH1 0x0 PUSH1 0x20 DUP5 ADD RETURNDATACOPY PUSH2 0x5CF JUMP JUMPDEST PUSH1 0x60 SWAP2 POP JUMPDEST POP POP SWAP1 POP DUP1 PUSH2 0x620 JUMPI PUSH1 0x40 MLOAD PUSH3 0x461BCD PUSH1 0xE5 SHL DUP2 MSTORE PUSH1 0x20 PUSH1 0x4 DUP3 ADD MSTORE PUSH1 0x17 PUSH1 0x24 DUP3 ADD MSTORE PUSH32 0x52657475726E206665652066756E6473206661696C6564000000000000000000 PUSH1 0x44 DUP3 ADD MSTORE PUSH1 0x64 ADD PUSH2 0x17E JUMP JUMPDEST PUSH1 0x3 SLOAD PUSH1 0x8 SLOAD PUSH1 0x40 MLOAD SWAP1 DUP2 MSTORE PUSH1 0x1 PUSH1 0x1 PUSH1 0xA0 SHL SUB SWAP1 SWAP2 AND SWAP1 PUSH31 0x57D762AD8F1734DE771F2B521B2668347C0CEE2D709A12254662CD5A7D4180 SWAP1 PUSH1 0x20 ADD PUSH1 0x40 MLOAD DUP1 SWAP2 SUB SWAP1 LOG2 PUSH1 0x2 SLOAD PUSH1 0xA SLOAD PUSH1 0x40 MLOAD PUSH1 0x0 SWAP3 PUSH1 0x1 PUSH1 0x1 PUSH1 0xA0 SHL SUB AND SWAP2 SWAP1 DUP4 DUP2 DUP2 DUP2 DUP6 DUP8 GAS CALL SWAP3 POP POP POP RETURNDATASIZE DUP1 PUSH1 0x0 DUP2 EQ PUSH2 0x6B3 JUMPI PUSH1 0x40 MLOAD SWAP2 POP PUSH1 0x1F NOT PUSH1 0x3F RETURNDATASIZE ADD AND DUP3 ADD PUSH1 0x40 MSTORE RETURNDATASIZE DUP3 MSTORE RETURNDATASIZE PUSH1 0x0 PUSH1 0x20 DUP5 ADD RETURNDATACOPY PUSH2 0x6B8 JUMP JUMPDEST PUSH1 0x60 SWAP2 POP JUMPDEST POP POP SWAP1 POP DUP1 PUSH2 0x6FF JUMPI PUSH1 0x40 MLOAD PUSH3 0x461BCD PUSH1 0xE5 SHL DUP2 MSTORE PUSH1 0x20 PUSH1 0x4 DUP3 ADD MSTORE PUSH1 0x13 PUSH1 0x24 DUP3 ADD MSTORE PUSH19 0x14995D1D5C9B88199D5B991CC819985A5B1959 PUSH1 0x6A SHL PUSH1 0x44 DUP3 ADD MSTORE PUSH1 0x64 ADD PUSH2 0x17E JUMP JUMPDEST PUSH1 0x2 SLOAD PUSH1 0xA SLOAD PUSH1 0x40 MLOAD SWAP1 DUP2 MSTORE PUSH1 0x1 PUSH1 0x1 PUSH1 0xA0 SHL SUB SWAP1 SWAP2 AND SWAP1 PUSH32 0x1C1B1A7E52E22E996A7B9C93EFBF98EEB6171F5ECAA8F5C1C792427B53D29E84 SWAP1 PUSH1 0x20 ADD JUMPDEST PUSH1 0x40 MLOAD DUP1 SWAP2 SUB SWAP1 LOG2 POP POP JUMP JUMPDEST PUSH1 0x0 SLOAD PUSH1 0x2 SLOAD PUSH1 0x1 SLOAD PUSH1 0x40 MLOAD PUSH4 0x21421707 PUSH1 0xE1 SHL DUP2 MSTORE ADDRESS PUSH1 0x4 DUP3 ADD MSTORE PUSH1 0x1 PUSH1 0x1 PUSH1 0xA0 SHL SUB SWAP3 DUP4 AND PUSH1 0x24 DUP3 ADD MSTORE PUSH1 0x44 DUP2 ADD SWAP2 SWAP1 SWAP2 MSTORE SWAP2 AND SWAP1 PUSH4 0x42842E0E SWAP1 PUSH1 0x64 ADD PUSH2 0x547 JUMP JUMPDEST PUSH1 0x9 SLOAD PUSH1 0x1 PUSH1 0x1 PUSH1 0xA0 SHL SUB AND CALLER SUB PUSH2 0x7E1 JUMPI PUSH1 0x40 MLOAD PUSH3 0x461BCD PUSH1 0xE5 SHL DUP2 MSTORE PUSH1 0x20 PUSH1 0x4 DUP3 ADD MSTORE PUSH1 0x16 PUSH1 0x24 DUP3 ADD MSTORE PUSH22 0x2CB7BAB9102134B21034B9903A3432903434B3B432B9 PUSH1 0x51 SHL PUSH1 0x44 DUP3 ADD MSTORE PUSH1 0x64 ADD PUSH2 0x17E JUMP JUMPDEST CALLER PUSH1 0x0 SWAP1 DUP2 MSTORE PUSH1 0xB PUSH1 0x20 MSTORE PUSH1 0x40 DUP2 KECCAK256 PUSH1 0x3 ADD SLOAD SWAP1 SUB PUSH2 0x834 JUMPI PUSH1 0x40 MLOAD PUSH3 0x461BCD PUSH1 0xE5 SHL DUP2 MSTORE PUSH1 0x20 PUSH1 0x4 DUP3 ADD MSTORE PUSH1 0xF PUSH1 0x24 DUP3 ADD MSTORE PUSH15 0x139BC8189A591CC8199BDD5B991959 PUSH1 0x8A SHL PUSH1 0x44 DUP3 ADD MSTORE PUSH1 0x64 ADD PUSH2 0x17E JUMP JUMPDEST CALLER PUSH1 0x0 DUP2 DUP2 MSTORE PUSH1 0xB PUSH1 0x20 MSTORE PUSH1 0x40 SWAP1 KECCAK256 PUSH1 0x3 ADD SLOAD PUSH2 0x851 SWAP2 SWAP1 PUSH2 0x107A JUMP JUMPDEST CALLER PUSH1 0x0 DUP2 DUP2 MSTORE PUSH1 0xB PUSH1 0x20 SWAP1 DUP2 MSTORE PUSH1 0x40 DUP1 DUP4 KECCAK256 PUSH1 0x3 DUP2 ADD DUP5 SWAP1 SSTORE DUP4 DUP2 SSTORE PUSH1 0x1 DUP2 ADD DUP5 SWAP1 SSTORE PUSH1 0x2 ADD DUP4 SWAP1 SSTORE MLOAD SWAP2 DUP3 MSTORE PUSH32 0x884EDAD9CE6FA2440D8A54CC123490EB96D2768479D49FF9C7366125A9424364 SWAP2 ADD PUSH1 0x40 MLOAD DUP1 SWAP2 SUB SWAP1 LOG2 JUMP JUMPDEST PUSH1 0x2 SLOAD PUSH1 0x1 PUSH1 0x1 PUSH1 0xA0 SHL SUB AND CALLER EQ PUSH2 0x8D5 JUMPI PUSH1 0x40 MLOAD PUSH3 0x461BCD PUSH1 0xE5 SHL DUP2 MSTORE PUSH1 0x4 ADD PUSH2 0x17E SWAP1 PUSH2 0x1183 JUMP JUMPDEST PUSH1 0x1 PUSH1 0x1 PUSH1 0xA0 SHL SUB DUP3 AND PUSH1 0x0 DUP2 DUP2 MSTORE PUSH1 0xC PUSH1 0x20 SWAP1 DUP2 MSTORE PUSH1 0x40 SWAP2 DUP3 SWAP1 KECCAK256 DUP1 SLOAD PUSH1 0xFF NOT AND DUP6 ISZERO ISZERO SWAP1 DUP2 OR SWAP1 SWAP2 SSTORE SWAP2 MLOAD SWAP2 DUP3 MSTORE PUSH32 0xC2C8BEFFDF047B9E6C79B0E9DCD0BD71D174D84F52E013102FCC0E200DD58EE0 SWAP2 ADD PUSH2 0x73D JUMP JUMPDEST PUSH1 0x2 SLOAD PUSH1 0x1 PUSH1 0x1 PUSH1 0xA0 SHL SUB AND CALLER EQ PUSH2 0x957 JUMPI PUSH1 0x40 MLOAD PUSH3 0x461BCD PUSH1 0xE5 SHL DUP2 MSTORE PUSH1 0x4 ADD PUSH2 0x17E SWAP1 PUSH2 0x1183 JUMP JUMPDEST PUSH1 0x5 SLOAD PUSH1 0xFF AND ISZERO PUSH2 0x99C JUMPI PUSH1 0x40 MLOAD PUSH3 0x461BCD PUSH1 0xE5 SHL DUP2 MSTORE PUSH1 0x20 PUSH1 0x4 DUP3 ADD MSTORE PUSH1 0xF PUSH1 0x24 DUP3 ADD MSTORE PUSH15 0x105B1C9958591E4814DD185C9D1959 PUSH1 0x8A SHL PUSH1 0x44 DUP3 ADD MSTORE PUSH1 0x64 ADD PUSH2 0x17E JUMP JUMPDEST PUSH1 0x0 SLOAD PUSH1 0x1 SLOAD PUSH1 0x40 MLOAD PUSH4 0x23B872DD PUSH1 0xE0 SHL DUP2 MSTORE CALLER PUSH1 0x4 DUP3 ADD MSTORE ADDRESS PUSH1 0x24 DUP3 ADD MSTORE PUSH1 0x44 DUP2 ADD SWAP2 SWAP1 SWAP2 MSTORE PUSH1 0x1 PUSH1 0x1 PUSH1 0xA0 SHL SUB SWAP1 SWAP2 AND SWAP1 PUSH4 0x23B872DD SWAP1 PUSH1 0x64 ADD PUSH1 0x0 PUSH1 0x40 MLOAD DUP1 DUP4 SUB DUP2 PUSH1 0x0 DUP8 DUP1 EXTCODESIZE ISZERO DUP1 ISZERO PUSH2 0x9F2 JUMPI PUSH1 0x0 DUP1 REVERT JUMPDEST POP GAS CALL ISZERO DUP1 ISZERO PUSH2 0xA06 JUMPI RETURNDATASIZE PUSH1 0x0 DUP1 RETURNDATACOPY RETURNDATASIZE PUSH1 0x0 REVERT JUMPDEST POP POP PUSH1 0x5 DUP1 SLOAD PUSH1 0xFF NOT AND PUSH1 0x1 OR SWAP1 SSTORE POP POP PUSH1 0x40 MLOAD PUSH32 0xD295EBF0A48A9A43D600A6ECB8626BAA711D5750DEC13A08145013AA30CB92EA SWAP1 PUSH1 0x0 SWAP1 LOG1 JUMP JUMPDEST PUSH1 0x2 SLOAD PUSH1 0x1 PUSH1 0x1 PUSH1 0xA0 SHL SUB AND CALLER EQ PUSH2 0xA6C JUMPI PUSH1 0x40 MLOAD PUSH3 0x461BCD PUSH1 0xE5 SHL DUP2 MSTORE PUSH1 0x4 ADD PUSH2 0x17E SWAP1 PUSH2 0x1183 JUMP JUMPDEST PUSH1 0x5 SLOAD PUSH3 0x10000 SWAP1 DIV PUSH1 0xFF AND ISZERO PUSH2 0xAB6 JUMPI PUSH1 0x40 MLOAD PUSH3 0x461BCD PUSH1 0xE5 SHL DUP2 MSTORE PUSH1 0x20 PUSH1 0x4 DUP3 ADD MSTORE PUSH1 0xE PUSH1 0x24 DUP3 ADD MSTORE PUSH14 0x105B1C9958591E4814185D5CD959 PUSH1 0x92 SHL PUSH1 0x44 DUP3 ADD MSTORE PUSH1 0x64 ADD PUSH2 0x17E JUMP JUMPDEST PUSH1 0x5 DUP1 SLOAD PUSH3 0xFF0000 NOT AND PUSH3 0x10000 OR SWAP1 SSTORE PUSH1 0x40 MLOAD CALLER DUP2 MSTORE PUSH32 0xDEE06086E53B718FD5176FDAA88A207819A06A56B42087AC2CAB84D32A335654 SWAP1 PUSH1 0x20 ADD JUMPDEST PUSH1 0x40 MLOAD DUP1 SWAP2 SUB SWAP1 LOG1 JUMP JUMPDEST PUSH1 0x1 PUSH1 0x1 PUSH1 0xA0 SHL SUB DUP2 AND PUSH1 0x0 SWAP1 DUP2 MSTORE PUSH1 0xC PUSH1 0x20 MSTORE PUSH1 0x40 DUP2 KECCAK256 SLOAD PUSH1 0xFF AND JUMPDEST SWAP3 SWAP2 POP POP JUMP JUMPDEST PUSH1 0x2 SLOAD PUSH1 0x1 PUSH1 0x1 PUSH1 0xA0 SHL SUB AND CALLER EQ PUSH2 0xB4A JUMPI PUSH1 0x40 MLOAD PUSH3 0x461BCD PUSH1 0xE5 SHL DUP2 MSTORE PUSH1 0x4 ADD PUSH2 0x17E SWAP1 PUSH2 0x1183 JUMP JUMPDEST PUSH1 0x5 SLOAD PUSH3 0x10000 SWAP1 DIV PUSH1 0xFF AND PUSH2 0xB94 JUMPI PUSH1 0x40 MLOAD PUSH3 0x461BCD PUSH1 0xE5 SHL DUP2 MSTORE PUSH1 0x20 PUSH1 0x4 DUP3 ADD MSTORE PUSH1 0xF PUSH1 0x24 DUP3 ADD MSTORE PUSH15 0x416C72656164792052756E6E696E67 PUSH1 0x88 SHL PUSH1 0x44 DUP3 ADD MSTORE PUSH1 0x64 ADD PUSH2 0x17E JUMP JUMPDEST PUSH1 0x5 DUP1 SLOAD PUSH3 0xFF0000 NOT AND SWAP1 SSTORE PUSH1 0x40 MLOAD CALLER DUP2 MSTORE PUSH32 0xC1A02E947CF77134ED09AC0692636F0553306DB51FFE4A1D9E7B51B4DCD9C762 SWAP1 PUSH1 0x20 ADD PUSH2 0xAF3 JUMP JUMPDEST PUSH1 0x5 SLOAD PUSH1 0xFF AND PUSH2 0xC14 JUMPI PUSH1 0x40 MLOAD PUSH3 0x461BCD PUSH1 0xE5 SHL DUP2 MSTORE PUSH1 0x20 PUSH1 0x4 DUP3 ADD MSTORE PUSH1 0xF PUSH1 0x24 DUP3 ADD MSTORE PUSH15 0x139BDD0814DD185C9D19590816595D PUSH1 0x8A SHL PUSH1 0x44 DUP3 ADD MSTORE PUSH1 0x64 ADD PUSH2 0x17E JUMP JUMPDEST PUSH1 0x5 SLOAD PUSH3 0x10000 SWAP1 DIV PUSH1 0xFF AND ISZERO PUSH2 0xC5E JUMPI PUSH1 0x40 MLOAD PUSH3 0x461BCD PUSH1 0xE5 SHL DUP2 MSTORE PUSH1 0x20 PUSH1 0x4 DUP3 ADD MSTORE PUSH1 0xE PUSH1 0x24 DUP3 ADD MSTORE PUSH14 0x105D58DD1A5BDB8814185D5CD959 PUSH1 0x92 SHL PUSH1 0x44 DUP3 ADD MSTORE PUSH1 0x64 ADD PUSH2 0x17E JUMP JUMPDEST PUSH1 0x4 SLOAD TIMESTAMP LT PUSH2 0xC9F JUMPI PUSH1 0x40 MLOAD PUSH3 0x461BCD PUSH1 0xE5 SHL DUP2 MSTORE PUSH1 0x20 PUSH1 0x4 DUP3 ADD MSTORE PUSH1 0xD PUSH1 0x24 DUP3 ADD MSTORE PUSH13 0x105B1C9958591E48195B991959 PUSH1 0x9A SHL PUSH1 0x44 DUP3 ADD MSTORE PUSH1 0x64 ADD PUSH2 0x17E JUMP JUMPDEST PUSH1 0x2 SLOAD PUSH1 0x1 PUSH1 0x1 PUSH1 0xA0 SHL SUB AND CALLER SUB PUSH2 0xCEE JUMPI PUSH1 0x40 MLOAD PUSH3 0x461BCD PUSH1 0xE5 SHL DUP2 MSTORE PUSH1 0x20 PUSH1 0x4 DUP3 ADD MSTORE PUSH1 0x12 PUSH1 0x24 DUP3 ADD MSTORE PUSH18 0x14D95B1B195C881B9BDD08185B1B1BDDD959 PUSH1 0x72 SHL PUSH1 0x44 DUP3 ADD MSTORE PUSH1 0x64 ADD PUSH2 0x17E JUMP JUMPDEST CALLER PUSH1 0x0 SWAP1 DUP2 MSTORE PUSH1 0xC PUSH1 0x20 MSTORE PUSH1 0x40 SWAP1 KECCAK256 SLOAD PUSH1 0xFF AND PUSH2 0xD41 JUMPI PUSH1 0x40 MLOAD PUSH3 0x461BCD PUSH1 0xE5 SHL DUP2 MSTORE PUSH1 0x20 PUSH1 0x4 DUP3 ADD MSTORE PUSH1 0x11 PUSH1 0x24 DUP3 ADD MSTORE PUSH17 0x14195C9B5A5CDCDA5BDB8819195B9A5959 PUSH1 0x7A SHL PUSH1 0x44 DUP3 ADD MSTORE PUSH1 0x64 ADD PUSH2 0x17E JUMP JUMPDEST PUSH1 0x7 SLOAD PUSH1 0x0 SWAP1 PUSH2 0xD53 PUSH2 0x2710 CALLVALUE PUSH2 0x126C JUMP JUMPDEST PUSH2 0xD5D SWAP2 SWAP1 PUSH2 0x128E JUMP JUMPDEST SWAP1 POP DUP1 PUSH1 0x8 PUSH1 0x0 DUP3 DUP3 SLOAD PUSH2 0xD71 SWAP2 SWAP1 PUSH2 0x12A5 JUMP JUMPDEST SWAP1 SWAP2 SSTORE POP POP PUSH1 0xA SLOAD PUSH2 0xD83 DUP3 CALLVALUE PUSH2 0x12B8 JUMP JUMPDEST GT PUSH2 0xDBC JUMPI PUSH1 0x40 MLOAD PUSH3 0x461BCD PUSH1 0xE5 SHL DUP2 MSTORE PUSH1 0x20 PUSH1 0x4 DUP3 ADD MSTORE PUSH1 0x9 PUSH1 0x24 DUP3 ADD MSTORE PUSH9 0x131BDDD95C88109A59 PUSH1 0xBA SHL PUSH1 0x44 DUP3 ADD MSTORE PUSH1 0x64 ADD PUSH2 0x17E JUMP JUMPDEST PUSH1 0x9 SLOAD PUSH1 0x1 PUSH1 0x1 PUSH1 0xA0 SHL SUB AND PUSH1 0x0 DUP2 DUP2 MSTORE PUSH1 0xB PUSH1 0x20 MSTORE PUSH1 0x40 SWAP1 KECCAK256 PUSH1 0x3 ADD SLOAD PUSH2 0xDE4 SWAP2 SWAP1 PUSH2 0x107A JUMP JUMPDEST CALLER PUSH1 0x0 SWAP1 DUP2 MSTORE PUSH1 0xB PUSH1 0x20 MSTORE PUSH1 0x40 SWAP1 KECCAK256 SLOAD ISZERO PUSH2 0xE3E JUMPI CALLER PUSH1 0x0 SWAP1 DUP2 MSTORE PUSH1 0xB PUSH1 0x20 MSTORE PUSH1 0x40 SWAP1 KECCAK256 DUP5 SWAP1 SSTORE PUSH2 0xE15 DUP2 CALLVALUE PUSH2 0x12B8 JUMP JUMPDEST CALLER PUSH1 0x0 SWAP1 DUP2 MSTORE PUSH1 0xB PUSH1 0x20 MSTORE PUSH1 0x40 SWAP1 KECCAK256 PUSH1 0x3 DUP2 ADD SWAP2 SWAP1 SWAP2 SSTORE PUSH1 0x1 DUP2 ADD DUP5 SWAP1 SSTORE PUSH1 0x2 ADD DUP3 SWAP1 SSTORE PUSH2 0xEB2 JUMP JUMPDEST PUSH2 0xE69 PUSH1 0x40 MLOAD DUP1 PUSH1 0x80 ADD PUSH1 0x40 MSTORE DUP1 PUSH1 0x0 DUP2 MSTORE PUSH1 0x20 ADD PUSH1 0x0 DUP2 MSTORE PUSH1 0x20 ADD PUSH1 0x0 DUP2 MSTORE PUSH1 0x20 ADD PUSH1 0x0 DUP2 MSTORE POP SWAP1 JUMP JUMPDEST PUSH2 0xE73 DUP3 CALLVALUE PUSH2 0x12B8 JUMP JUMPDEST PUSH1 0x60 DUP3 ADD SWAP1 DUP2 MSTORE DUP6 DUP3 MSTORE PUSH1 0x20 DUP1 DUP4 ADD DUP7 DUP2 MSTORE PUSH1 0x40 DUP1 DUP6 ADD DUP8 DUP2 MSTORE CALLER PUSH1 0x0 SWAP1 DUP2 MSTORE PUSH1 0xB SWAP1 SWAP5 MSTORE SWAP3 KECCAK256 SWAP4 MLOAD DUP5 SSTORE MLOAD PUSH1 0x1 DUP5 ADD SSTORE MLOAD PUSH1 0x2 DUP4 ADD SSTORE MLOAD PUSH1 0x3 SWAP1 SWAP2 ADD SSTORE JUMPDEST PUSH1 0x9 DUP1 SLOAD PUSH1 0x1 PUSH1 0x1 PUSH1 0xA0 SHL SUB NOT AND CALLER OR SWAP1 SSTORE PUSH2 0xECE DUP2 CALLVALUE PUSH2 0x12B8 JUMP JUMPDEST PUSH1 0xA DUP2 SWAP1 SSTORE POP PUSH1 0x1 PUSH1 0x6 PUSH1 0x0 DUP3 DUP3 SLOAD PUSH2 0xEE7 SWAP2 SWAP1 PUSH2 0x12A5 JUMP JUMPDEST SWAP1 SWAP2 SSTORE POP CALLER SWAP1 POP PUSH32 0xE684A55F31B79ECA403DF938249029212A5925EC6BE8012E099B45BC1019E5D2 PUSH2 0xF19 DUP4 CALLVALUE PUSH2 0x12B8 JUMP JUMPDEST PUSH1 0x40 MLOAD SWAP1 DUP2 MSTORE PUSH1 0x20 ADD PUSH1 0x40 MLOAD DUP1 SWAP2 SUB SWAP1 LOG2 POP POP POP POP JUMP JUMPDEST PUSH1 0x2 SLOAD PUSH1 0x1 PUSH1 0x1 PUSH1 0xA0 SHL SUB AND CALLER EQ PUSH2 0xF5A JUMPI PUSH1 0x40 MLOAD PUSH3 0x461BCD PUSH1 0xE5 SHL DUP2 MSTORE PUSH1 0x4 ADD PUSH2 0x17E SWAP1 PUSH2 0x1183 JUMP JUMPDEST PUSH1 0x5 SLOAD PUSH1 0xFF AND PUSH2 0xF9E JUMPI PUSH1 0x40 MLOAD PUSH3 0x461BCD PUSH1 0xE5 SHL DUP2 MSTORE PUSH1 0x20 PUSH1 0x4 DUP3 ADD MSTORE PUSH1 0xF PUSH1 0x24 DUP3 ADD MSTORE PUSH15 0x139BDD0814DD185C9D19590816595D PUSH1 0x8A SHL PUSH1 0x44 DUP3 ADD MSTORE PUSH1 0x64 ADD PUSH2 0x17E JUMP JUMPDEST PUSH1 0x4 SLOAD TIMESTAMP LT ISZERO PUSH2 0xFDC JUMPI PUSH1 0x40 MLOAD PUSH3 0x461BCD PUSH1 0xE5 SHL DUP2 MSTORE PUSH1 0x20 PUSH1 0x4 DUP3 ADD MSTORE PUSH1 0x9 PUSH1 0x24 DUP3 ADD MSTORE PUSH9 0x139BDD08115B991959 PUSH1 0xBA SHL PUSH1 0x44 DUP3 ADD MSTORE PUSH1 0x64 ADD PUSH2 0x17E JUMP JUMPDEST PUSH1 0x5 SLOAD PUSH2 0x100 SWAP1 DIV PUSH1 0xFF AND ISZERO PUSH2 0x1024 JUMPI PUSH1 0x40 MLOAD PUSH3 0x461BCD PUSH1 0xE5 SHL DUP2 MSTORE PUSH1 0x20 PUSH1 0x4 DUP3 ADD MSTORE PUSH1 0xD PUSH1 0x24 DUP3 ADD MSTORE PUSH13 0x105B1C9958591E48115B991959 PUSH1 0x9A SHL PUSH1 0x44 DUP3 ADD MSTORE PUSH1 0x64 ADD PUSH2 0x17E JUMP JUMPDEST PUSH1 0x5 DUP1 SLOAD PUSH2 0xFF00 NOT AND PUSH2 0x100 OR SWAP1 SSTORE PUSH1 0x9 SLOAD PUSH1 0xA SLOAD PUSH1 0x40 DUP1 MLOAD PUSH1 0x1 PUSH1 0x1 PUSH1 0xA0 SHL SUB SWAP1 SWAP4 AND DUP4 MSTORE PUSH1 0x20 DUP4 ADD SWAP2 SWAP1 SWAP2 MSTORE PUSH32 0xCA09734D1FC32150404DC9252B4D991C6BEE44319031B7159C03D5AE2C062704 SWAP2 ADD PUSH2 0xAF3 JUMP JUMPDEST PUSH1 0x0 DUP3 PUSH1 0x1 PUSH1 0x1 PUSH1 0xA0 SHL SUB AND DUP3 PUSH1 0x40 MLOAD PUSH1 0x0 PUSH1 0x40 MLOAD DUP1 DUP4 SUB DUP2 DUP6 DUP8 GAS CALL SWAP3 POP POP POP RETURNDATASIZE DUP1 PUSH1 0x0 DUP2 EQ PUSH2 0x10C7 JUMPI PUSH1 0x40 MLOAD SWAP2 POP PUSH1 0x1F NOT PUSH1 0x3F RETURNDATASIZE ADD AND DUP3 ADD PUSH1 0x40 MSTORE RETURNDATASIZE DUP3 MSTORE RETURNDATASIZE PUSH1 0x0 PUSH1 0x20 DUP5 ADD RETURNDATACOPY PUSH2 0x10CC JUMP JUMPDEST PUSH1 0x60 SWAP2 POP JUMPDEST POP POP SWAP1 POP DUP1 PUSH2 0x1113 JUMPI PUSH1 0x40 MLOAD PUSH3 0x461BCD PUSH1 0xE5 SHL DUP2 MSTORE PUSH1 0x20 PUSH1 0x4 DUP3 ADD MSTORE PUSH1 0x13 PUSH1 0x24 DUP3 ADD MSTORE PUSH19 0x14995D1D5C9B88199D5B991CC819985A5B1959 PUSH1 0x6A SHL PUSH1 0x44 DUP3 ADD MSTORE PUSH1 0x64 ADD PUSH2 0x17E JUMP JUMPDEST CALLER PUSH1 0x0 SWAP1 DUP2 MSTORE PUSH1 0xB PUSH1 0x20 MSTORE PUSH1 0x40 DUP1 DUP3 KECCAK256 PUSH1 0x3 DUP2 ADD DUP4 SWAP1 SSTORE DUP3 DUP2 SSTORE PUSH1 0x1 DUP2 ADD DUP4 SWAP1 SSTORE PUSH1 0x2 ADD SWAP2 SWAP1 SWAP2 SSTORE MLOAD PUSH1 0x1 PUSH1 0x1 PUSH1 0xA0 SHL SUB DUP5 AND SWAP1 PUSH32 0xE523757EEE9C213543AF9B06C96E0629DA383D3149173F4A03AB96D8FF526760 SWAP1 PUSH2 0x1176 SWAP1 DUP6 DUP2 MSTORE PUSH1 0x20 ADD SWAP1 JUMP JUMPDEST PUSH1 0x40 MLOAD DUP1 SWAP2 SUB SWAP1 LOG2 POP POP POP JUMP JUMPDEST PUSH1 0x20 DUP1 DUP3 MSTORE PUSH1 0x13 SWAP1 DUP3 ADD MSTORE PUSH19 0x29B2B73232B91034B9903737BA1037BBB732B9 PUSH1 0x69 SHL PUSH1 0x40 DUP3 ADD MSTORE PUSH1 0x60 ADD SWAP1 JUMP JUMPDEST DUP1 CALLDATALOAD PUSH1 0x1 PUSH1 0x1 PUSH1 0xA0 SHL SUB DUP2 AND DUP2 EQ PUSH2 0x11C7 JUMPI PUSH1 0x0 DUP1 REVERT JUMPDEST SWAP2 SWAP1 POP JUMP JUMPDEST PUSH1 0x0 DUP1 PUSH1 0x40 DUP4 DUP6 SUB SLT ISZERO PUSH2 0x11DF JUMPI PUSH1 0x0 DUP1 REVERT JUMPDEST PUSH2 0x11E8 DUP4 PUSH2 0x11B0 JUMP JUMPDEST SWAP2 POP PUSH1 0x20 DUP4 ADD CALLDATALOAD DUP1 ISZERO ISZERO DUP2 EQ PUSH2 0x11FD JUMPI PUSH1 0x0 DUP1 REVERT JUMPDEST DUP1 SWAP2 POP POP SWAP3 POP SWAP3 SWAP1 POP JUMP JUMPDEST PUSH1 0x0 PUSH1 0x20 DUP3 DUP5 SUB SLT ISZERO PUSH2 0x121A JUMPI PUSH1 0x0 DUP1 REVERT JUMPDEST PUSH2 0x1223 DUP3 PUSH2 0x11B0 JUMP JUMPDEST SWAP4 SWAP3 POP POP POP JUMP JUMPDEST PUSH1 0x0 DUP1 PUSH1 0x0 PUSH1 0x60 DUP5 DUP7 SUB SLT ISZERO PUSH2 0x123F JUMPI PUSH1 0x0 DUP1 REVERT JUMPDEST POP POP DUP2 CALLDATALOAD SWAP4 PUSH1 0x20 DUP4 ADD CALLDATALOAD SWAP4 POP PUSH1 0x40 SWAP1 SWAP3 ADD CALLDATALOAD SWAP2 SWAP1 POP JUMP JUMPDEST PUSH4 0x4E487B71 PUSH1 0xE0 SHL PUSH1 0x0 MSTORE PUSH1 0x11 PUSH1 0x4 MSTORE PUSH1 0x24 PUSH1 0x0 REVERT JUMPDEST PUSH1 0x0 DUP3 PUSH2 0x1289 JUMPI PUSH4 0x4E487B71 PUSH1 0xE0 SHL PUSH1 0x0 MSTORE PUSH1 0x12 PUSH1 0x4 MSTORE PUSH1 0x24 PUSH1 0x0 REVERT JUMPDEST POP DIV SWAP1 JUMP JUMPDEST DUP1 DUP3 MUL DUP2 ISZERO DUP3 DUP3 DIV DUP5 EQ OR PUSH2 0xB1A JUMPI PUSH2 0xB1A PUSH2 0x1256 JUMP JUMPDEST DUP1 DUP3 ADD DUP1 DUP3 GT ISZERO PUSH2 0xB1A JUMPI PUSH2 0xB1A PUSH2 0x1256 JUMP JUMPDEST DUP2 DUP2 SUB DUP2 DUP2 GT ISZERO PUSH2 0xB1A JUMPI PUSH2 0xB1A PUSH2 0x1256 JUMP INVALID LOG2 PUSH5 0x6970667358 0x22 SLT KECCAK256 DUP15 PUSH20 0xC8D19F2B6884F3253BE9FAB1CEAFF3F6D975611A 0xAE SWAP11 0xD3 PUSH23 0xBB27AB732A2064736F6C63430008110033000000000000 "
				},
				"gasEstimates": {
					"creation": {
						"codeDepositCost": "973000",
						"executionCost": "infinite",
						"totalCost": "infinite"
					},
					"external": {
						"": "2524",
						"FEE_BASE()": "305",
						"closeAuction()": "infinite",
						"endAt()": "2340",
						"endAuction()": "38601",
						"ended()": "2389",
						"feeAddress()": "2393",
						"getBalance()": "229",
						"highestBid()": "2361",
						"highestBidder()": "2393",
						"isWhitelist(address)": "2705",
						"newBid(uint256,uint256,uint256)": "infinite",
						"nft()": "2415",
						"nftId()": "2317",
						"numberOfBids()": "2385",
						"pauseAuction()": "29813",
						"paused()": "2454",
						"receivedBids(address)": "9010",
						"seller()": "2350",
						"setWhitelist(address,bool)": "28396",
						"startAuction()": "infinite",
						"started()": "2444",
						"totalFee()": "2407",
						"unpauseAuction()": "29748",
						"withdraw()": "infinite"
					},
					"internal": {
						"_isWhitelist(address)": "infinite",
						"cashback(address,uint256)": "infinite"
					}
				},
				"methodIdentifiers": {
					"FEE_BASE()": "ecefc705",
					"closeAuction()": "378252f2",
					"endAt()": "7cc3ae8c",
					"endAuction()": "fe67a54b",
					"ended()": "12fa6feb",
					"feeAddress()": "41275358",
					"getBalance()": "12065fe0",
					"highestBid()": "d57bde79",
					"highestBidder()": "91f90157",
					"isWhitelist(address)": "c683630d",
					"newBid(uint256,uint256,uint256)": "db15c437",
					"nft()": "47ccca02",
					"nftId()": "c6bc5182",
					"numberOfBids()": "17d531fc",
					"pauseAuction()": "b9ae7364",
					"paused()": "5c975abb",
					"receivedBids(address)": "95ecc5cc",
					"seller()": "08551a53",
					"setWhitelist(address,bool)": "53d6fd59",
					"startAuction()": "6b64c769",
					"started()": "1f2698ab",
					"totalFee()": "1df4ccfc",
					"unpauseAuction()": "ceb16419",
					"withdraw()": "3ccfd60b"
				}
			},
			"storageLayout": {
				"storage": [
					{
						"astId": 75,
						"contract": "Contracts/AuctionSPU.sol:AuctionSPU",
						"label": "nft",
						"offset": 0,
						"slot": "0",
						"type": "t_contract(IERC721)20"
					},
					{
						"astId": 77,
						"contract": "Contracts/AuctionSPU.sol:AuctionSPU",
						"label": "nftId",
						"offset": 0,
						"slot": "1",
						"type": "t_uint256"
					},
					{
						"astId": 79,
						"contract": "Contracts/AuctionSPU.sol:AuctionSPU",
						"label": "seller",
						"offset": 0,
						"slot": "2",
						"type": "t_address_payable"
					},
					{
						"astId": 81,
						"contract": "Contracts/AuctionSPU.sol:AuctionSPU",
						"label": "feeAddress",
						"offset": 0,
						"slot": "3",
						"type": "t_address_payable"
					},
					{
						"astId": 83,
						"contract": "Contracts/AuctionSPU.sol:AuctionSPU",
						"label": "endAt",
						"offset": 0,
						"slot": "4",
						"type": "t_uint256"
					},
					{
						"astId": 85,
						"contract": "Contracts/AuctionSPU.sol:AuctionSPU",
						"label": "started",
						"offset": 0,
						"slot": "5",
						"type": "t_bool"
					},
					{
						"astId": 87,
						"contract": "Contracts/AuctionSPU.sol:AuctionSPU",
						"label": "ended",
						"offset": 1,
						"slot": "5",
						"type": "t_bool"
					},
					{
						"astId": 89,
						"contract": "Contracts/AuctionSPU.sol:AuctionSPU",
						"label": "paused",
						"offset": 2,
						"slot": "5",
						"type": "t_bool"
					},
					{
						"astId": 91,
						"contract": "Contracts/AuctionSPU.sol:AuctionSPU",
						"label": "numberOfBids",
						"offset": 0,
						"slot": "6",
						"type": "t_uint256"
					},
					{
						"astId": 93,
						"contract": "Contracts/AuctionSPU.sol:AuctionSPU",
						"label": "transactionFee",
						"offset": 0,
						"slot": "7",
						"type": "t_uint256"
					},
					{
						"astId": 98,
						"contract": "Contracts/AuctionSPU.sol:AuctionSPU",
						"label": "totalFee",
						"offset": 0,
						"slot": "8",
						"type": "t_uint256"
					},
					{
						"astId": 100,
						"contract": "Contracts/AuctionSPU.sol:AuctionSPU",
						"label": "highestBidder",
						"offset": 0,
						"slot": "9",
						"type": "t_address"
					},
					{
						"astId": 102,
						"contract": "Contracts/AuctionSPU.sol:AuctionSPU",
						"label": "highestBid",
						"offset": 0,
						"slot": "10",
						"type": "t_uint256"
					},
					{
						"astId": 116,
						"contract": "Contracts/AuctionSPU.sol:AuctionSPU",
						"label": "receivedBids",
						"offset": 0,
						"slot": "11",
						"type": "t_mapping(t_address,t_struct(Bidders)111_storage)"
					},
					{
						"astId": 120,
						"contract": "Contracts/AuctionSPU.sol:AuctionSPU",
						"label": "_whitelist",
						"offset": 0,
						"slot": "12",
						"type": "t_mapping(t_address,t_bool)"
					}
				],
				"types": {
					"t_address": {
						"encoding": "inplace",
						"label": "address",
						"numberOfBytes": "20"
					},
					"t_address_payable": {
						"encoding": "inplace",
						"label": "address payable",
						"numberOfBytes": "20"
					},
					"t_bool": {
						"encoding": "inplace",
						"label": "bool",
						"numberOfBytes": "1"
					},
					"t_contract(IERC721)20": {
						"encoding": "inplace",
						"label": "contract IERC721",
						"numberOfBytes": "20"
					},
					"t_mapping(t_address,t_bool)": {
						"encoding": "mapping",
						"key": "t_address",
						"label": "mapping(address => bool)",
						"numberOfBytes": "32",
						"value": "t_bool"
					},
					"t_mapping(t_address,t_struct(Bidders)111_storage)": {
						"encoding": "mapping",
						"key": "t_address",
						"label": "mapping(address => struct AuctionSPU.Bidders)",
						"numberOfBytes": "32",
						"value": "t_struct(Bidders)111_storage"
					},
					"t_struct(Bidders)111_storage": {
						"encoding": "inplace",
						"label": "struct AuctionSPU.Bidders",
						"members": [
							{
								"astId": 104,
								"contract": "Contracts/AuctionSPU.sol:AuctionSPU",
								"label": "totalValue",
								"offset": 0,
								"slot": "0",
								"type": "t_uint256"
							},
							{
								"astId": 106,
								"contract": "Contracts/AuctionSPU.sol:AuctionSPU",
								"label": "portion",
								"offset": 0,
								"slot": "1",
								"type": "t_uint256"
							},
							{
								"astId": 108,
								"contract": "Contracts/AuctionSPU.sol:AuctionSPU",
								"label": "clientScore",
								"offset": 0,
								"slot": "2",
								"type": "t_uint256"
							},
							{
								"astId": 110,
								"contract": "Contracts/AuctionSPU.sol:AuctionSPU",
								"label": "downpay",
								"offset": 0,
								"slot": "3",
								"type": "t_uint256"
							}
						],
						"numberOfBytes": "128"
					},
					"t_uint256": {
						"encoding": "inplace",
						"label": "uint256",
						"numberOfBytes": "32"
					}
				}
			},
			"userdoc": {
				"kind": "user",
				"methods": {},
				"version": 1
			}
		}
	}
}