{
	"Contracts/DocumentVault.sol": {
		"DocumentVault": {
			"abi": [
				{
					"inputs": [
						{
							"internalType": "uint256",
							"name": "_minimunFee",
							"type": "uint256"
						}
					],
					"stateMutability": "nonpayable",
					"type": "constructor"
				},
				{
					"anonymous": false,
					"inputs": [
						{
							"indexed": true,
							"internalType": "address",
							"name": "publisher",
							"type": "address"
						},
						{
							"indexed": false,
							"internalType": "string",
							"name": "docProcess",
							"type": "string"
						}
					],
					"name": "NewDocAdded",
					"type": "event"
				},
				{
					"anonymous": false,
					"inputs": [
						{
							"indexed": true,
							"internalType": "address",
							"name": "account",
							"type": "address"
						},
						{
							"indexed": false,
							"internalType": "bool",
							"name": "enable",
							"type": "bool"
						}
					],
					"name": "SetWhitelistByAddress",
					"type": "event"
				},
				{
					"stateMutability": "payable",
					"type": "fallback"
				},
				{
					"inputs": [
						{
							"internalType": "string",
							"name": "_typeOfDocument",
							"type": "string"
						},
						{
							"internalType": "string",
							"name": "_docsURI",
							"type": "string"
						},
						{
							"internalType": "string",
							"name": "_docsURIChesksum",
							"type": "string"
						},
						{
							"internalType": "string",
							"name": "_publisherResponsible",
							"type": "string"
						},
						{
							"internalType": "string",
							"name": "_docProcess",
							"type": "string"
						}
					],
					"name": "addNewDoc",
					"outputs": [],
					"stateMutability": "payable",
					"type": "function"
				},
				{
					"inputs": [],
					"name": "getBalance",
					"outputs": [
						{
							"internalType": "uint256",
							"name": "",
							"type": "uint256"
						}
					],
					"stateMutability": "view",
					"type": "function"
				},
				{
					"inputs": [
						{
							"internalType": "address",
							"name": "_account",
							"type": "address"
						}
					],
					"name": "isWhitelist",
					"outputs": [
						{
							"internalType": "bool",
							"name": "",
							"type": "bool"
						}
					],
					"stateMutability": "view",
					"type": "function"
				},
				{
					"inputs": [],
					"name": "owner",
					"outputs": [
						{
							"internalType": "address payable",
							"name": "",
							"type": "address"
						}
					],
					"stateMutability": "view",
					"type": "function"
				},
				{
					"inputs": [
						{
							"internalType": "string",
							"name": "",
							"type": "string"
						}
					],
					"name": "registeredDocs",
					"outputs": [
						{
							"internalType": "string",
							"name": "typeOfDocument",
							"type": "string"
						},
						{
							"internalType": "string",
							"name": "docsURI",
							"type": "string"
						},
						{
							"internalType": "string",
							"name": "docsURIChesksum",
							"type": "string"
						},
						{
							"internalType": "string",
							"name": "publisherResponsible",
							"type": "string"
						}
					],
					"stateMutability": "view",
					"type": "function"
				},
				{
					"inputs": [
						{
							"internalType": "address",
							"name": "_account",
							"type": "address"
						},
						{
							"internalType": "bool",
							"name": "enable",
							"type": "bool"
						}
					],
					"name": "setWhitelist",
					"outputs": [],
					"stateMutability": "nonpayable",
					"type": "function"
				},
				{
					"stateMutability": "payable",
					"type": "receive"
				}
			],
			"devdoc": {
				"author": "Gustavo Henrique / gustavo@useinsignia.com",
				"kind": "dev",
				"methods": {
					"addNewDoc(string,string,string,string,string)": {
						"details": "The owner of the contract could insert a fee to publish data, default 0 , e.g. 100 = 1%",
						"params": {
							"_docProcess": "The string to retrieve the data, should be related to the context of the documentation",
							"_docsURI": "The IPFS CID of the tree documentation  e.g. Auction_Docs",
							"_docsURIChesksum": "The hash of the tree documentation, certify the integrity of the data",
							"_publisherResponsible": "The responsible for publishing the documentation",
							"_typeOfDocument": "Type of the document added"
						}
					},
					"constructor": {
						"details": "Sets the values for :  {minimunFee} -> The fee charged on every new document added"
					},
					"getBalance()": {
						"returns": {
							"_0": "uint of the total native token balance"
						}
					},
					"isWhitelist(address)": {
						"params": {
							"_account": "Consultant address"
						},
						"returns": {
							"_0": "Boolean of the privilege setted"
						}
					},
					"setWhitelist(address,bool)": {
						"params": {
							"_account": "The address to insert",
							"enable": "True to guarantee privilegies, false to remove privilegies"
						}
					}
				},
				"title": "Vault for store real estate documents",
				"version": 1
			},
			"evm": {
				"assembly": "    /* \"Contracts/DocumentVault.sol\":476:4395  contract DocumentVault {... */\n  mstore(0x40, 0x80)\n    /* \"Contracts/DocumentVault.sol\":1297:1408  constructor(uint _minimunFee) {... */\n  callvalue\n  dup1\n  iszero\n  tag_1\n  jumpi\n  0x00\n  dup1\n  revert\ntag_1:\n  pop\n  mload(0x40)\n  sub(codesize, bytecodeSize)\n  dup1\n  bytecodeSize\n  dup4\n  codecopy\n  dup2\n  dup2\n  add\n  0x40\n  mstore\n  dup2\n  add\n  swap1\n  tag_2\n  swap2\n  swap1\n  tag_3\n  jump\t// in\ntag_2:\n    /* \"Contracts/DocumentVault.sol\":1354:1364  msg.sender */\n  caller\n    /* \"Contracts/DocumentVault.sol\":1338:1343  owner */\n  0x00\n  dup1\n    /* \"Contracts/DocumentVault.sol\":1338:1365  owner = payable(msg.sender) */\n  0x0100\n  exp\n  dup2\n  sload\n  dup2\n  0xffffffffffffffffffffffffffffffffffffffff\n  mul\n  not\n  and\n  swap1\n  dup4\n  0xffffffffffffffffffffffffffffffffffffffff\n  and\n  mul\n  or\n  swap1\n  sstore\n  pop\n    /* \"Contracts/DocumentVault.sol\":1389:1400  _minimunFee */\n  dup1\n    /* \"Contracts/DocumentVault.sol\":1376:1386  minimunFee */\n  0x01\n    /* \"Contracts/DocumentVault.sol\":1376:1400  minimunFee = _minimunFee */\n  dup2\n  swap1\n  sstore\n  pop\n    /* \"Contracts/DocumentVault.sol\":1297:1408  constructor(uint _minimunFee) {... */\n  pop\n    /* \"Contracts/DocumentVault.sol\":476:4395  contract DocumentVault {... */\n  jump(tag_6)\n    /* \"#utility.yul\":88:205   */\ntag_8:\n    /* \"#utility.yul\":197:198   */\n  0x00\n    /* \"#utility.yul\":194:195   */\n  dup1\n    /* \"#utility.yul\":187:199   */\n  revert\n    /* \"#utility.yul\":334:411   */\ntag_10:\n    /* \"#utility.yul\":371:378   */\n  0x00\n    /* \"#utility.yul\":400:405   */\n  dup2\n    /* \"#utility.yul\":389:405   */\n  swap1\n  pop\n    /* \"#utility.yul\":334:411   */\n  swap2\n  swap1\n  pop\n  jump\t// out\n    /* \"#utility.yul\":417:539   */\ntag_11:\n    /* \"#utility.yul\":490:514   */\n  tag_19\n    /* \"#utility.yul\":508:513   */\n  dup2\n    /* \"#utility.yul\":490:514   */\n  tag_10\n  jump\t// in\ntag_19:\n    /* \"#utility.yul\":483:488   */\n  dup2\n    /* \"#utility.yul\":480:515   */\n  eq\n    /* \"#utility.yul\":470:533   */\n  tag_20\n  jumpi\n    /* \"#utility.yul\":529:530   */\n  0x00\n    /* \"#utility.yul\":526:527   */\n  dup1\n    /* \"#utility.yul\":519:531   */\n  revert\n    /* \"#utility.yul\":470:533   */\ntag_20:\n    /* \"#utility.yul\":417:539   */\n  pop\n  jump\t// out\n    /* \"#utility.yul\":545:688   */\ntag_12:\n    /* \"#utility.yul\":602:607   */\n  0x00\n    /* \"#utility.yul\":633:639   */\n  dup2\n    /* \"#utility.yul\":627:640   */\n  mload\n    /* \"#utility.yul\":618:640   */\n  swap1\n  pop\n    /* \"#utility.yul\":649:682   */\n  tag_22\n    /* \"#utility.yul\":676:681   */\n  dup2\n    /* \"#utility.yul\":649:682   */\n  tag_11\n  jump\t// in\ntag_22:\n    /* \"#utility.yul\":545:688   */\n  swap3\n  swap2\n  pop\n  pop\n  jump\t// out\n    /* \"#utility.yul\":694:1045   */\ntag_3:\n    /* \"#utility.yul\":764:770   */\n  0x00\n    /* \"#utility.yul\":813:815   */\n  0x20\n    /* \"#utility.yul\":801:810   */\n  dup3\n    /* \"#utility.yul\":792:799   */\n  dup5\n    /* \"#utility.yul\":788:811   */\n  sub\n    /* \"#utility.yul\":784:816   */\n  slt\n    /* \"#utility.yul\":781:900   */\n  iszero\n  tag_24\n  jumpi\n    /* \"#utility.yul\":819:898   */\n  tag_25\n  tag_8\n  jump\t// in\ntag_25:\n    /* \"#utility.yul\":781:900   */\ntag_24:\n    /* \"#utility.yul\":939:940   */\n  0x00\n    /* \"#utility.yul\":964:1028   */\n  tag_26\n    /* \"#utility.yul\":1020:1027   */\n  dup5\n    /* \"#utility.yul\":1011:1017   */\n  dup3\n    /* \"#utility.yul\":1000:1009   */\n  dup6\n    /* \"#utility.yul\":996:1018   */\n  add\n    /* \"#utility.yul\":964:1028   */\n  tag_12\n  jump\t// in\ntag_26:\n    /* \"#utility.yul\":954:1028   */\n  swap2\n  pop\n    /* \"#utility.yul\":910:1038   */\n  pop\n    /* \"#utility.yul\":694:1045   */\n  swap3\n  swap2\n  pop\n  pop\n  jump\t// out\n    /* \"Contracts/DocumentVault.sol\":476:4395  contract DocumentVault {... */\ntag_6:\n  dataSize(sub_0)\n  dup1\n  dataOffset(sub_0)\n  0x00\n  codecopy\n  0x00\n  return\nstop\n\nsub_0: assembly {\n        /* \"Contracts/DocumentVault.sol\":476:4395  contract DocumentVault {... */\n      mstore(0x40, 0x80)\n      jumpi(tag_1, lt(calldatasize, 0x04))\n      shr(0xe0, calldataload(0x00))\n      dup1\n      0x12065fe0\n      eq\n      tag_3\n      jumpi\n      dup1\n      0x53d6fd59\n      eq\n      tag_4\n      jumpi\n      dup1\n      0x8da5cb5b\n      eq\n      tag_5\n      jumpi\n      dup1\n      0xc683630d\n      eq\n      tag_6\n      jumpi\n      dup1\n      0xd2bfb0bc\n      eq\n      tag_7\n      jumpi\n      dup1\n      0xf7ac5182\n      eq\n      tag_8\n      jumpi\n      jump(tag_2)\n    tag_1:\n      jumpi(tag_2, calldatasize)\n        /* \"Contracts/DocumentVault.sol\":1837:1842  owner */\n      0x00\n      dup1\n      sload\n      swap1\n      0x0100\n      exp\n      swap1\n      div\n      0xffffffffffffffffffffffffffffffffffffffff\n      and\n        /* \"Contracts/DocumentVault.sol\":1823:1842  msg.sender == owner */\n      0xffffffffffffffffffffffffffffffffffffffff\n      and\n        /* \"Contracts/DocumentVault.sol\":1823:1833  msg.sender */\n      caller\n        /* \"Contracts/DocumentVault.sol\":1823:1842  msg.sender == owner */\n      0xffffffffffffffffffffffffffffffffffffffff\n      and\n      eq\n        /* \"Contracts/DocumentVault.sol\":1815:1866  require(msg.sender == owner, \"Sender is not owner\") */\n      tag_11\n      jumpi\n      mload(0x40)\n      0x08c379a000000000000000000000000000000000000000000000000000000000\n      dup2\n      mstore\n      0x04\n      add\n      tag_12\n      swap1\n      tag_13\n      jump\t// in\n    tag_12:\n      mload(0x40)\n      dup1\n      swap2\n      sub\n      swap1\n      revert\n    tag_11:\n        /* \"Contracts/DocumentVault.sol\":476:4395  contract DocumentVault {... */\n      stop\n    tag_2:\n        /* \"Contracts/DocumentVault.sol\":1837:1842  owner */\n      0x00\n      dup1\n      sload\n      swap1\n      0x0100\n      exp\n      swap1\n      div\n      0xffffffffffffffffffffffffffffffffffffffff\n      and\n        /* \"Contracts/DocumentVault.sol\":1823:1842  msg.sender == owner */\n      0xffffffffffffffffffffffffffffffffffffffff\n      and\n        /* \"Contracts/DocumentVault.sol\":1823:1833  msg.sender */\n      caller\n        /* \"Contracts/DocumentVault.sol\":1823:1842  msg.sender == owner */\n      0xffffffffffffffffffffffffffffffffffffffff\n      and\n      eq\n        /* \"Contracts/DocumentVault.sol\":1815:1866  require(msg.sender == owner, \"Sender is not owner\") */\n      tag_17\n      jumpi\n      mload(0x40)\n      0x08c379a000000000000000000000000000000000000000000000000000000000\n      dup2\n      mstore\n      0x04\n      add\n      tag_18\n      swap1\n      tag_13\n      jump\t// in\n    tag_18:\n      mload(0x40)\n      dup1\n      swap2\n      sub\n      swap1\n      revert\n    tag_17:\n        /* \"Contracts/DocumentVault.sol\":476:4395  contract DocumentVault {... */\n      stop\n        /* \"Contracts/DocumentVault.sol\":4296:4392  function getBalance() public view returns (uint) {... */\n    tag_3:\n      callvalue\n      dup1\n      iszero\n      tag_20\n      jumpi\n      0x00\n      dup1\n      revert\n    tag_20:\n      pop\n      tag_21\n      tag_22\n      jump\t// in\n    tag_21:\n      mload(0x40)\n      tag_23\n      swap2\n      swap1\n      tag_24\n      jump\t// in\n    tag_23:\n      mload(0x40)\n      dup1\n      swap2\n      sub\n      swap1\n      return\n        /* \"Contracts/DocumentVault.sol\":3413:3596  function setWhitelist(address _account, bool enable) external onlyOwner {... */\n    tag_4:\n      callvalue\n      dup1\n      iszero\n      tag_25\n      jumpi\n      0x00\n      dup1\n      revert\n    tag_25:\n      pop\n      tag_26\n      0x04\n      dup1\n      calldatasize\n      sub\n      dup2\n      add\n      swap1\n      tag_27\n      swap2\n      swap1\n      tag_28\n      jump\t// in\n    tag_27:\n      tag_29\n      jump\t// in\n    tag_26:\n      stop\n        /* \"Contracts/DocumentVault.sol\":820:848  address payable public owner */\n    tag_5:\n      callvalue\n      dup1\n      iszero\n      tag_30\n      jumpi\n      0x00\n      dup1\n      revert\n    tag_30:\n      pop\n      tag_31\n      tag_32\n      jump\t// in\n    tag_31:\n      mload(0x40)\n      tag_33\n      swap2\n      swap1\n      tag_34\n      jump\t// in\n    tag_33:\n      mload(0x40)\n      dup1\n      swap2\n      sub\n      swap1\n      return\n        /* \"Contracts/DocumentVault.sol\":4056:4170  function isWhitelist(address _account) public view returns (bool) {... */\n    tag_6:\n      callvalue\n      dup1\n      iszero\n      tag_35\n      jumpi\n      0x00\n      dup1\n      revert\n    tag_35:\n      pop\n      tag_36\n      0x04\n      dup1\n      calldatasize\n      sub\n      dup2\n      add\n      swap1\n      tag_37\n      swap2\n      swap1\n      tag_38\n      jump\t// in\n    tag_37:\n      tag_39\n      jump\t// in\n    tag_36:\n      mload(0x40)\n      tag_40\n      swap2\n      swap1\n      tag_41\n      jump\t// in\n    tag_40:\n      mload(0x40)\n      dup1\n      swap2\n      sub\n      swap1\n      return\n        /* \"Contracts/DocumentVault.sol\":2498:3213  function addNewDoc(... */\n    tag_7:\n      tag_42\n      0x04\n      dup1\n      calldatasize\n      sub\n      dup2\n      add\n      swap1\n      tag_43\n      swap2\n      swap1\n      tag_44\n      jump\t// in\n    tag_43:\n      tag_45\n      jump\t// in\n    tag_42:\n      stop\n        /* \"Contracts/DocumentVault.sol\":1044:1098  mapping(string => Documentation) public registeredDocs */\n    tag_8:\n      callvalue\n      dup1\n      iszero\n      tag_46\n      jumpi\n      0x00\n      dup1\n      revert\n    tag_46:\n      pop\n      tag_47\n      0x04\n      dup1\n      calldatasize\n      sub\n      dup2\n      add\n      swap1\n      tag_48\n      swap2\n      swap1\n      tag_49\n      jump\t// in\n    tag_48:\n      tag_50\n      jump\t// in\n    tag_47:\n      mload(0x40)\n      tag_51\n      swap5\n      swap4\n      swap3\n      swap2\n      swap1\n      tag_52\n      jump\t// in\n    tag_51:\n      mload(0x40)\n      dup1\n      swap2\n      sub\n      swap1\n      return\n        /* \"Contracts/DocumentVault.sol\":4296:4392  function getBalance() public view returns (uint) {... */\n    tag_22:\n        /* \"Contracts/DocumentVault.sol\":4339:4343  uint */\n      0x00\n        /* \"Contracts/DocumentVault.sol\":4363:4384  address(this).balance */\n      selfbalance\n        /* \"Contracts/DocumentVault.sol\":4356:4384  return address(this).balance */\n      swap1\n      pop\n        /* \"Contracts/DocumentVault.sol\":4296:4392  function getBalance() public view returns (uint) {... */\n      swap1\n      jump\t// out\n        /* \"Contracts/DocumentVault.sol\":3413:3596  function setWhitelist(address _account, bool enable) external onlyOwner {... */\n    tag_29:\n        /* \"Contracts/DocumentVault.sol\":1837:1842  owner */\n      0x00\n      dup1\n      sload\n      swap1\n      0x0100\n      exp\n      swap1\n      div\n      0xffffffffffffffffffffffffffffffffffffffff\n      and\n        /* \"Contracts/DocumentVault.sol\":1823:1842  msg.sender == owner */\n      0xffffffffffffffffffffffffffffffffffffffff\n      and\n        /* \"Contracts/DocumentVault.sol\":1823:1833  msg.sender */\n      caller\n        /* \"Contracts/DocumentVault.sol\":1823:1842  msg.sender == owner */\n      0xffffffffffffffffffffffffffffffffffffffff\n      and\n      eq\n        /* \"Contracts/DocumentVault.sol\":1815:1866  require(msg.sender == owner, \"Sender is not owner\") */\n      tag_55\n      jumpi\n      mload(0x40)\n      0x08c379a000000000000000000000000000000000000000000000000000000000\n      dup2\n      mstore\n      0x04\n      add\n      tag_56\n      swap1\n      tag_13\n      jump\t// in\n    tag_56:\n      mload(0x40)\n      dup1\n      swap2\n      sub\n      swap1\n      revert\n    tag_55:\n        /* \"Contracts/DocumentVault.sol\":3527:3533  enable */\n      dup1\n        /* \"Contracts/DocumentVault.sol\":3496:3514  _allowedPublishers */\n      0x03\n        /* \"Contracts/DocumentVault.sol\":3496:3524  _allowedPublishers[_account] */\n      0x00\n        /* \"Contracts/DocumentVault.sol\":3515:3523  _account */\n      dup5\n        /* \"Contracts/DocumentVault.sol\":3496:3524  _allowedPublishers[_account] */\n      0xffffffffffffffffffffffffffffffffffffffff\n      and\n      0xffffffffffffffffffffffffffffffffffffffff\n      and\n      dup2\n      mstore\n      0x20\n      add\n      swap1\n      dup2\n      mstore\n      0x20\n      add\n      0x00\n      keccak256\n      0x00\n        /* \"Contracts/DocumentVault.sol\":3496:3533  _allowedPublishers[_account] = enable */\n      0x0100\n      exp\n      dup2\n      sload\n      dup2\n      0xff\n      mul\n      not\n      and\n      swap1\n      dup4\n      iszero\n      iszero\n      mul\n      or\n      swap1\n      sstore\n      pop\n        /* \"Contracts/DocumentVault.sol\":3571:3579  _account */\n      dup2\n        /* \"Contracts/DocumentVault.sol\":3549:3588  SetWhitelistByAddress(_account, enable) */\n      0xffffffffffffffffffffffffffffffffffffffff\n      and\n      0xc2c8beffdf047b9e6c79b0e9dcd0bd71d174d84f52e013102fcc0e200dd58ee0\n        /* \"Contracts/DocumentVault.sol\":3581:3587  enable */\n      dup3\n        /* \"Contracts/DocumentVault.sol\":3549:3588  SetWhitelistByAddress(_account, enable) */\n      mload(0x40)\n      tag_58\n      swap2\n      swap1\n      tag_41\n      jump\t// in\n    tag_58:\n      mload(0x40)\n      dup1\n      swap2\n      sub\n      swap1\n      log2\n        /* \"Contracts/DocumentVault.sol\":3413:3596  function setWhitelist(address _account, bool enable) external onlyOwner {... */\n      pop\n      pop\n      jump\t// out\n        /* \"Contracts/DocumentVault.sol\":820:848  address payable public owner */\n    tag_32:\n      0x00\n      dup1\n      sload\n      swap1\n      0x0100\n      exp\n      swap1\n      div\n      0xffffffffffffffffffffffffffffffffffffffff\n      and\n      dup2\n      jump\t// out\n        /* \"Contracts/DocumentVault.sol\":4056:4170  function isWhitelist(address _account) public view returns (bool) {... */\n    tag_39:\n        /* \"Contracts/DocumentVault.sol\":4116:4120  bool */\n      0x00\n        /* \"Contracts/DocumentVault.sol\":4140:4162  _isWhitelist(_account) */\n      tag_60\n        /* \"Contracts/DocumentVault.sol\":4153:4161  _account */\n      dup3\n        /* \"Contracts/DocumentVault.sol\":4140:4152  _isWhitelist */\n      tag_61\n        /* \"Contracts/DocumentVault.sol\":4140:4162  _isWhitelist(_account) */\n      jump\t// in\n    tag_60:\n        /* \"Contracts/DocumentVault.sol\":4133:4162  return _isWhitelist(_account) */\n      swap1\n      pop\n        /* \"Contracts/DocumentVault.sol\":4056:4170  function isWhitelist(address _account) public view returns (bool) {... */\n      swap2\n      swap1\n      pop\n      jump\t// out\n        /* \"Contracts/DocumentVault.sol\":2498:3213  function addNewDoc(... */\n    tag_45:\n        /* \"Contracts/DocumentVault.sol\":2766:2776  minimunFee */\n      sload(0x01)\n        /* \"Contracts/DocumentVault.sol\":2754:2763  msg.value */\n      callvalue\n        /* \"Contracts/DocumentVault.sol\":2754:2776  msg.value > minimunFee */\n      gt\n        /* \"Contracts/DocumentVault.sol\":2746:2811  require(msg.value > minimunFee, \"Minimum fee needed to register\") */\n      tag_63\n      jumpi\n      mload(0x40)\n      0x08c379a000000000000000000000000000000000000000000000000000000000\n      dup2\n      mstore\n      0x04\n      add\n      tag_64\n      swap1\n      tag_65\n      jump\t// in\n    tag_64:\n      mload(0x40)\n      dup1\n      swap2\n      sub\n      swap1\n      revert\n    tag_63:\n        /* \"Contracts/DocumentVault.sol\":2830:2854  _isWhitelist(msg.sender) */\n      tag_66\n        /* \"Contracts/DocumentVault.sol\":2843:2853  msg.sender */\n      caller\n        /* \"Contracts/DocumentVault.sol\":2830:2842  _isWhitelist */\n      tag_61\n        /* \"Contracts/DocumentVault.sol\":2830:2854  _isWhitelist(msg.sender) */\n      jump\t// in\n    tag_66:\n        /* \"Contracts/DocumentVault.sol\":2822:2876  require(_isWhitelist(msg.sender), \"Permission denied\") */\n      tag_67\n      jumpi\n      mload(0x40)\n      0x08c379a000000000000000000000000000000000000000000000000000000000\n      dup2\n      mstore\n      0x04\n      add\n      tag_68\n      swap1\n      tag_69\n      jump\t// in\n    tag_68:\n      mload(0x40)\n      dup1\n      swap2\n      sub\n      swap1\n      revert\n    tag_67:\n        /* \"Contracts/DocumentVault.sol\":2889:2914  Documentation memory docs */\n      tag_70\n      tag_71\n      jump\t// in\n    tag_70:\n        /* \"Contracts/DocumentVault.sol\":2947:2962  _typeOfDocument */\n      dup6\n        /* \"Contracts/DocumentVault.sol\":2925:2929  docs */\n      dup2\n        /* \"Contracts/DocumentVault.sol\":2925:2944  docs.typeOfDocument */\n      0x00\n      add\n        /* \"Contracts/DocumentVault.sol\":2925:2962  docs.typeOfDocument = _typeOfDocument */\n      dup2\n      swap1\n      mstore\n      pop\n        /* \"Contracts/DocumentVault.sol\":2988:2996  _docsURI */\n      dup5\n        /* \"Contracts/DocumentVault.sol\":2973:2977  docs */\n      dup2\n        /* \"Contracts/DocumentVault.sol\":2973:2985  docs.docsURI */\n      0x20\n      add\n        /* \"Contracts/DocumentVault.sol\":2973:2996  docs.docsURI = _docsURI */\n      dup2\n      swap1\n      mstore\n      pop\n        /* \"Contracts/DocumentVault.sol\":3030:3046  _docsURIChesksum */\n      dup4\n        /* \"Contracts/DocumentVault.sol\":3007:3011  docs */\n      dup2\n        /* \"Contracts/DocumentVault.sol\":3007:3027  docs.docsURIChesksum */\n      0x40\n      add\n        /* \"Contracts/DocumentVault.sol\":3007:3046  docs.docsURIChesksum = _docsURIChesksum */\n      dup2\n      swap1\n      mstore\n      pop\n        /* \"Contracts/DocumentVault.sol\":3085:3106  _publisherResponsible */\n      dup3\n        /* \"Contracts/DocumentVault.sol\":3057:3061  docs */\n      dup2\n        /* \"Contracts/DocumentVault.sol\":3057:3082  docs.publisherResponsible */\n      0x60\n      add\n        /* \"Contracts/DocumentVault.sol\":3057:3106  docs.publisherResponsible = _publisherResponsible */\n      dup2\n      swap1\n      mstore\n      pop\n        /* \"Contracts/DocumentVault.sol\":3147:3151  docs */\n      dup1\n        /* \"Contracts/DocumentVault.sol\":3117:3131  registeredDocs */\n      0x02\n        /* \"Contracts/DocumentVault.sol\":3132:3143  _docProcess */\n      dup4\n        /* \"Contracts/DocumentVault.sol\":3117:3144  registeredDocs[_docProcess] */\n      mload(0x40)\n      tag_72\n      swap2\n      swap1\n      tag_73\n      jump\t// in\n    tag_72:\n      swap1\n      dup2\n      mstore\n      0x20\n      add\n      mload(0x40)\n      dup1\n      swap2\n      sub\n      swap1\n      keccak256\n        /* \"Contracts/DocumentVault.sol\":3117:3151  registeredDocs[_docProcess] = docs */\n      0x00\n      dup3\n      add\n      mload\n      dup2\n      0x00\n      add\n      swap1\n      dup2\n      tag_74\n      swap2\n      swap1\n      tag_75\n      jump\t// in\n    tag_74:\n      pop\n      0x20\n      dup3\n      add\n      mload\n      dup2\n      0x01\n      add\n      swap1\n      dup2\n      tag_76\n      swap2\n      swap1\n      tag_75\n      jump\t// in\n    tag_76:\n      pop\n      0x40\n      dup3\n      add\n      mload\n      dup2\n      0x02\n      add\n      swap1\n      dup2\n      tag_77\n      swap2\n      swap1\n      tag_75\n      jump\t// in\n    tag_77:\n      pop\n      0x60\n      dup3\n      add\n      mload\n      dup2\n      0x03\n      add\n      swap1\n      dup2\n      tag_78\n      swap2\n      swap1\n      tag_75\n      jump\t// in\n    tag_78:\n      pop\n      swap1\n      pop\n      pop\n        /* \"Contracts/DocumentVault.sol\":3181:3191  msg.sender */\n      caller\n        /* \"Contracts/DocumentVault.sol\":3169:3205  NewDocAdded(msg.sender, _docProcess) */\n      0xffffffffffffffffffffffffffffffffffffffff\n      and\n      0xa6a69184572b903be08b48268bce3da3a79d5d2cff476eb6e4c43ec0662cbe33\n        /* \"Contracts/DocumentVault.sol\":3193:3204  _docProcess */\n      dup4\n        /* \"Contracts/DocumentVault.sol\":3169:3205  NewDocAdded(msg.sender, _docProcess) */\n      mload(0x40)\n      tag_79\n      swap2\n      swap1\n      tag_80\n      jump\t// in\n    tag_79:\n      mload(0x40)\n      dup1\n      swap2\n      sub\n      swap1\n      log2\n        /* \"Contracts/DocumentVault.sol\":2735:3213  {... */\n      pop\n        /* \"Contracts/DocumentVault.sol\":2498:3213  function addNewDoc(... */\n      pop\n      pop\n      pop\n      pop\n      pop\n      jump\t// out\n        /* \"Contracts/DocumentVault.sol\":1044:1098  mapping(string => Documentation) public registeredDocs */\n    tag_50:\n      0x02\n      dup2\n      dup1\n      mload\n      0x20\n      dup2\n      add\n      dup3\n      add\n      dup1\n      mload\n      dup5\n      dup3\n      mstore\n      0x20\n      dup4\n      add\n      0x20\n      dup6\n      add\n      keccak256\n      dup2\n      dup4\n      mstore\n      dup1\n      swap6\n      pop\n      pop\n      pop\n      pop\n      pop\n      pop\n      0x00\n      swap2\n      pop\n      swap1\n      pop\n      dup1\n      0x00\n      add\n      dup1\n      sload\n      tag_81\n      swap1\n      tag_82\n      jump\t// in\n    tag_81:\n      dup1\n      0x1f\n      add\n      0x20\n      dup1\n      swap2\n      div\n      mul\n      0x20\n      add\n      mload(0x40)\n      swap1\n      dup2\n      add\n      0x40\n      mstore\n      dup1\n      swap3\n      swap2\n      swap1\n      dup2\n      dup2\n      mstore\n      0x20\n      add\n      dup3\n      dup1\n      sload\n      tag_83\n      swap1\n      tag_82\n      jump\t// in\n    tag_83:\n      dup1\n      iszero\n      tag_84\n      jumpi\n      dup1\n      0x1f\n      lt\n      tag_85\n      jumpi\n      0x0100\n      dup1\n      dup4\n      sload\n      div\n      mul\n      dup4\n      mstore\n      swap2\n      0x20\n      add\n      swap2\n      jump(tag_84)\n    tag_85:\n      dup3\n      add\n      swap2\n      swap1\n      0x00\n      mstore\n      keccak256(0x00, 0x20)\n      swap1\n    tag_86:\n      dup2\n      sload\n      dup2\n      mstore\n      swap1\n      0x01\n      add\n      swap1\n      0x20\n      add\n      dup1\n      dup4\n      gt\n      tag_86\n      jumpi\n      dup3\n      swap1\n      sub\n      0x1f\n      and\n      dup3\n      add\n      swap2\n    tag_84:\n      pop\n      pop\n      pop\n      pop\n      pop\n      swap1\n      dup1\n      0x01\n      add\n      dup1\n      sload\n      tag_87\n      swap1\n      tag_82\n      jump\t// in\n    tag_87:\n      dup1\n      0x1f\n      add\n      0x20\n      dup1\n      swap2\n      div\n      mul\n      0x20\n      add\n      mload(0x40)\n      swap1\n      dup2\n      add\n      0x40\n      mstore\n      dup1\n      swap3\n      swap2\n      swap1\n      dup2\n      dup2\n      mstore\n      0x20\n      add\n      dup3\n      dup1\n      sload\n      tag_88\n      swap1\n      tag_82\n      jump\t// in\n    tag_88:\n      dup1\n      iszero\n      tag_89\n      jumpi\n      dup1\n      0x1f\n      lt\n      tag_90\n      jumpi\n      0x0100\n      dup1\n      dup4\n      sload\n      div\n      mul\n      dup4\n      mstore\n      swap2\n      0x20\n      add\n      swap2\n      jump(tag_89)\n    tag_90:\n      dup3\n      add\n      swap2\n      swap1\n      0x00\n      mstore\n      keccak256(0x00, 0x20)\n      swap1\n    tag_91:\n      dup2\n      sload\n      dup2\n      mstore\n      swap1\n      0x01\n      add\n      swap1\n      0x20\n      add\n      dup1\n      dup4\n      gt\n      tag_91\n      jumpi\n      dup3\n      swap1\n      sub\n      0x1f\n      and\n      dup3\n      add\n      swap2\n    tag_89:\n      pop\n      pop\n      pop\n      pop\n      pop\n      swap1\n      dup1\n      0x02\n      add\n      dup1\n      sload\n      tag_92\n      swap1\n      tag_82\n      jump\t// in\n    tag_92:\n      dup1\n      0x1f\n      add\n      0x20\n      dup1\n      swap2\n      div\n      mul\n      0x20\n      add\n      mload(0x40)\n      swap1\n      dup2\n      add\n      0x40\n      mstore\n      dup1\n      swap3\n      swap2\n      swap1\n      dup2\n      dup2\n      mstore\n      0x20\n      add\n      dup3\n      dup1\n      sload\n      tag_93\n      swap1\n      tag_82\n      jump\t// in\n    tag_93:\n      dup1\n      iszero\n      tag_94\n      jumpi\n      dup1\n      0x1f\n      lt\n      tag_95\n      jumpi\n      0x0100\n      dup1\n      dup4\n      sload\n      div\n      mul\n      dup4\n      mstore\n      swap2\n      0x20\n      add\n      swap2\n      jump(tag_94)\n    tag_95:\n      dup3\n      add\n      swap2\n      swap1\n      0x00\n      mstore\n      keccak256(0x00, 0x20)\n      swap1\n    tag_96:\n      dup2\n      sload\n      dup2\n      mstore\n      swap1\n      0x01\n      add\n      swap1\n      0x20\n      add\n      dup1\n      dup4\n      gt\n      tag_96\n      jumpi\n      dup3\n      swap1\n      sub\n      0x1f\n      and\n      dup3\n      add\n      swap2\n    tag_94:\n      pop\n      pop\n      pop\n      pop\n      pop\n      swap1\n      dup1\n      0x03\n      add\n      dup1\n      sload\n      tag_97\n      swap1\n      tag_82\n      jump\t// in\n    tag_97:\n      dup1\n      0x1f\n      add\n      0x20\n      dup1\n      swap2\n      div\n      mul\n      0x20\n      add\n      mload(0x40)\n      swap1\n      dup2\n      add\n      0x40\n      mstore\n      dup1\n      swap3\n      swap2\n      swap1\n      dup2\n      dup2\n      mstore\n      0x20\n      add\n      dup3\n      dup1\n      sload\n      tag_98\n      swap1\n      tag_82\n      jump\t// in\n    tag_98:\n      dup1\n      iszero\n      tag_99\n      jumpi\n      dup1\n      0x1f\n      lt\n      tag_100\n      jumpi\n      0x0100\n      dup1\n      dup4\n      sload\n      div\n      mul\n      dup4\n      mstore\n      swap2\n      0x20\n      add\n      swap2\n      jump(tag_99)\n    tag_100:\n      dup3\n      add\n      swap2\n      swap1\n      0x00\n      mstore\n      keccak256(0x00, 0x20)\n      swap1\n    tag_101:\n      dup2\n      sload\n      dup2\n      mstore\n      swap1\n      0x01\n      add\n      swap1\n      0x20\n      add\n      dup1\n      dup4\n      gt\n      tag_101\n      jumpi\n      dup3\n      swap1\n      sub\n      0x1f\n      and\n      dup3\n      add\n      swap2\n    tag_99:\n      pop\n      pop\n      pop\n      pop\n      pop\n      swap1\n      pop\n      dup5\n      jump\t// out\n        /* \"Contracts/DocumentVault.sol\":3766:3888  function _isWhitelist(address _account) private view returns (bool) {... */\n    tag_61:\n        /* \"Contracts/DocumentVault.sol\":3828:3832  bool */\n      0x00\n        /* \"Contracts/DocumentVault.sol\":3852:3870  _allowedPublishers */\n      0x03\n        /* \"Contracts/DocumentVault.sol\":3852:3880  _allowedPublishers[_account] */\n      0x00\n        /* \"Contracts/DocumentVault.sol\":3871:3879  _account */\n      dup4\n        /* \"Contracts/DocumentVault.sol\":3852:3880  _allowedPublishers[_account] */\n      0xffffffffffffffffffffffffffffffffffffffff\n      and\n      0xffffffffffffffffffffffffffffffffffffffff\n      and\n      dup2\n      mstore\n      0x20\n      add\n      swap1\n      dup2\n      mstore\n      0x20\n      add\n      0x00\n      keccak256\n      0x00\n      swap1\n      sload\n      swap1\n      0x0100\n      exp\n      swap1\n      div\n      0xff\n      and\n        /* \"Contracts/DocumentVault.sol\":3845:3880  return _allowedPublishers[_account] */\n      swap1\n      pop\n        /* \"Contracts/DocumentVault.sol\":3766:3888  function _isWhitelist(address _account) private view returns (bool) {... */\n      swap2\n      swap1\n      pop\n      jump\t// out\n    tag_71:\n      mload(0x40)\n      dup1\n      0x80\n      add\n      0x40\n      mstore\n      dup1\n      0x60\n      dup2\n      mstore\n      0x20\n      add\n      0x60\n      dup2\n      mstore\n      0x20\n      add\n      0x60\n      dup2\n      mstore\n      0x20\n      add\n      0x60\n      dup2\n      mstore\n      pop\n      swap1\n      jump\t// out\n        /* \"#utility.yul\":7:176   */\n    tag_103:\n        /* \"#utility.yul\":91:102   */\n      0x00\n        /* \"#utility.yul\":125:131   */\n      dup3\n        /* \"#utility.yul\":120:123   */\n      dup3\n        /* \"#utility.yul\":113:132   */\n      mstore\n        /* \"#utility.yul\":165:169   */\n      0x20\n        /* \"#utility.yul\":160:163   */\n      dup3\n        /* \"#utility.yul\":156:170   */\n      add\n        /* \"#utility.yul\":141:170   */\n      swap1\n      pop\n        /* \"#utility.yul\":7:176   */\n      swap3\n      swap2\n      pop\n      pop\n      jump\t// out\n        /* \"#utility.yul\":182:351   */\n    tag_104:\n        /* \"#utility.yul\":322:343   */\n      0x53656e646572206973206e6f74206f776e657200000000000000000000000000\n        /* \"#utility.yul\":318:319   */\n      0x00\n        /* \"#utility.yul\":310:316   */\n      dup3\n        /* \"#utility.yul\":306:320   */\n      add\n        /* \"#utility.yul\":299:344   */\n      mstore\n        /* \"#utility.yul\":182:351   */\n      pop\n      jump\t// out\n        /* \"#utility.yul\":357:723   */\n    tag_105:\n        /* \"#utility.yul\":499:502   */\n      0x00\n        /* \"#utility.yul\":520:587   */\n      tag_160\n        /* \"#utility.yul\":584:586   */\n      0x13\n        /* \"#utility.yul\":579:582   */\n      dup4\n        /* \"#utility.yul\":520:587   */\n      tag_103\n      jump\t// in\n    tag_160:\n        /* \"#utility.yul\":513:587   */\n      swap2\n      pop\n        /* \"#utility.yul\":596:689   */\n      tag_161\n        /* \"#utility.yul\":685:688   */\n      dup3\n        /* \"#utility.yul\":596:689   */\n      tag_104\n      jump\t// in\n    tag_161:\n        /* \"#utility.yul\":714:716   */\n      0x20\n        /* \"#utility.yul\":709:712   */\n      dup3\n        /* \"#utility.yul\":705:717   */\n      add\n        /* \"#utility.yul\":698:717   */\n      swap1\n      pop\n        /* \"#utility.yul\":357:723   */\n      swap2\n      swap1\n      pop\n      jump\t// out\n        /* \"#utility.yul\":729:1148   */\n    tag_13:\n        /* \"#utility.yul\":895:899   */\n      0x00\n        /* \"#utility.yul\":933:935   */\n      0x20\n        /* \"#utility.yul\":922:931   */\n      dup3\n        /* \"#utility.yul\":918:936   */\n      add\n        /* \"#utility.yul\":910:936   */\n      swap1\n      pop\n        /* \"#utility.yul\":982:991   */\n      dup2\n        /* \"#utility.yul\":976:980   */\n      dup2\n        /* \"#utility.yul\":972:992   */\n      sub\n        /* \"#utility.yul\":968:969   */\n      0x00\n        /* \"#utility.yul\":957:966   */\n      dup4\n        /* \"#utility.yul\":953:970   */\n      add\n        /* \"#utility.yul\":946:993   */\n      mstore\n        /* \"#utility.yul\":1010:1141   */\n      tag_163\n        /* \"#utility.yul\":1136:1140   */\n      dup2\n        /* \"#utility.yul\":1010:1141   */\n      tag_105\n      jump\t// in\n    tag_163:\n        /* \"#utility.yul\":1002:1141   */\n      swap1\n      pop\n        /* \"#utility.yul\":729:1148   */\n      swap2\n      swap1\n      pop\n      jump\t// out\n        /* \"#utility.yul\":1154:1231   */\n    tag_106:\n        /* \"#utility.yul\":1191:1198   */\n      0x00\n        /* \"#utility.yul\":1220:1225   */\n      dup2\n        /* \"#utility.yul\":1209:1225   */\n      swap1\n      pop\n        /* \"#utility.yul\":1154:1231   */\n      swap2\n      swap1\n      pop\n      jump\t// out\n        /* \"#utility.yul\":1237:1355   */\n    tag_107:\n        /* \"#utility.yul\":1324:1348   */\n      tag_166\n        /* \"#utility.yul\":1342:1347   */\n      dup2\n        /* \"#utility.yul\":1324:1348   */\n      tag_106\n      jump\t// in\n    tag_166:\n        /* \"#utility.yul\":1319:1322   */\n      dup3\n        /* \"#utility.yul\":1312:1349   */\n      mstore\n        /* \"#utility.yul\":1237:1355   */\n      pop\n      pop\n      jump\t// out\n        /* \"#utility.yul\":1361:1583   */\n    tag_24:\n        /* \"#utility.yul\":1454:1458   */\n      0x00\n        /* \"#utility.yul\":1492:1494   */\n      0x20\n        /* \"#utility.yul\":1481:1490   */\n      dup3\n        /* \"#utility.yul\":1477:1495   */\n      add\n        /* \"#utility.yul\":1469:1495   */\n      swap1\n      pop\n        /* \"#utility.yul\":1505:1576   */\n      tag_168\n        /* \"#utility.yul\":1573:1574   */\n      0x00\n        /* \"#utility.yul\":1562:1571   */\n      dup4\n        /* \"#utility.yul\":1558:1575   */\n      add\n        /* \"#utility.yul\":1549:1555   */\n      dup5\n        /* \"#utility.yul\":1505:1576   */\n      tag_107\n      jump\t// in\n    tag_168:\n        /* \"#utility.yul\":1361:1583   */\n      swap3\n      swap2\n      pop\n      pop\n      jump\t// out\n        /* \"#utility.yul\":1589:1664   */\n    tag_108:\n        /* \"#utility.yul\":1622:1628   */\n      0x00\n        /* \"#utility.yul\":1655:1657   */\n      0x40\n        /* \"#utility.yul\":1649:1658   */\n      mload\n        /* \"#utility.yul\":1639:1658   */\n      swap1\n      pop\n        /* \"#utility.yul\":1589:1664   */\n      swap1\n      jump\t// out\n        /* \"#utility.yul\":1670:1787   */\n    tag_109:\n        /* \"#utility.yul\":1779:1780   */\n      0x00\n        /* \"#utility.yul\":1776:1777   */\n      dup1\n        /* \"#utility.yul\":1769:1781   */\n      revert\n        /* \"#utility.yul\":1793:1910   */\n    tag_110:\n        /* \"#utility.yul\":1902:1903   */\n      0x00\n        /* \"#utility.yul\":1899:1900   */\n      dup1\n        /* \"#utility.yul\":1892:1904   */\n      revert\n        /* \"#utility.yul\":1916:2042   */\n    tag_111:\n        /* \"#utility.yul\":1953:1960   */\n      0x00\n        /* \"#utility.yul\":1993:2035   */\n      0xffffffffffffffffffffffffffffffffffffffff\n        /* \"#utility.yul\":1986:1991   */\n      dup3\n        /* \"#utility.yul\":1982:2036   */\n      and\n        /* \"#utility.yul\":1971:2036   */\n      swap1\n      pop\n        /* \"#utility.yul\":1916:2042   */\n      swap2\n      swap1\n      pop\n      jump\t// out\n        /* \"#utility.yul\":2048:2144   */\n    tag_112:\n        /* \"#utility.yul\":2085:2092   */\n      0x00\n        /* \"#utility.yul\":2114:2138   */\n      tag_174\n        /* \"#utility.yul\":2132:2137   */\n      dup3\n        /* \"#utility.yul\":2114:2138   */\n      tag_111\n      jump\t// in\n    tag_174:\n        /* \"#utility.yul\":2103:2138   */\n      swap1\n      pop\n        /* \"#utility.yul\":2048:2144   */\n      swap2\n      swap1\n      pop\n      jump\t// out\n        /* \"#utility.yul\":2150:2272   */\n    tag_113:\n        /* \"#utility.yul\":2223:2247   */\n      tag_176\n        /* \"#utility.yul\":2241:2246   */\n      dup2\n        /* \"#utility.yul\":2223:2247   */\n      tag_112\n      jump\t// in\n    tag_176:\n        /* \"#utility.yul\":2216:2221   */\n      dup2\n        /* \"#utility.yul\":2213:2248   */\n      eq\n        /* \"#utility.yul\":2203:2266   */\n      tag_177\n      jumpi\n        /* \"#utility.yul\":2262:2263   */\n      0x00\n        /* \"#utility.yul\":2259:2260   */\n      dup1\n        /* \"#utility.yul\":2252:2264   */\n      revert\n        /* \"#utility.yul\":2203:2266   */\n    tag_177:\n        /* \"#utility.yul\":2150:2272   */\n      pop\n      jump\t// out\n        /* \"#utility.yul\":2278:2417   */\n    tag_114:\n        /* \"#utility.yul\":2324:2329   */\n      0x00\n        /* \"#utility.yul\":2362:2368   */\n      dup2\n        /* \"#utility.yul\":2349:2369   */\n      calldataload\n        /* \"#utility.yul\":2340:2369   */\n      swap1\n      pop\n        /* \"#utility.yul\":2378:2411   */\n      tag_179\n        /* \"#utility.yul\":2405:2410   */\n      dup2\n        /* \"#utility.yul\":2378:2411   */\n      tag_113\n      jump\t// in\n    tag_179:\n        /* \"#utility.yul\":2278:2417   */\n      swap3\n      swap2\n      pop\n      pop\n      jump\t// out\n        /* \"#utility.yul\":2423:2513   */\n    tag_115:\n        /* \"#utility.yul\":2457:2464   */\n      0x00\n        /* \"#utility.yul\":2500:2505   */\n      dup2\n        /* \"#utility.yul\":2493:2506   */\n      iszero\n        /* \"#utility.yul\":2486:2507   */\n      iszero\n        /* \"#utility.yul\":2475:2507   */\n      swap1\n      pop\n        /* \"#utility.yul\":2423:2513   */\n      swap2\n      swap1\n      pop\n      jump\t// out\n        /* \"#utility.yul\":2519:2635   */\n    tag_116:\n        /* \"#utility.yul\":2589:2610   */\n      tag_182\n        /* \"#utility.yul\":2604:2609   */\n      dup2\n        /* \"#utility.yul\":2589:2610   */\n      tag_115\n      jump\t// in\n    tag_182:\n        /* \"#utility.yul\":2582:2587   */\n      dup2\n        /* \"#utility.yul\":2579:2611   */\n      eq\n        /* \"#utility.yul\":2569:2629   */\n      tag_183\n      jumpi\n        /* \"#utility.yul\":2625:2626   */\n      0x00\n        /* \"#utility.yul\":2622:2623   */\n      dup1\n        /* \"#utility.yul\":2615:2627   */\n      revert\n        /* \"#utility.yul\":2569:2629   */\n    tag_183:\n        /* \"#utility.yul\":2519:2635   */\n      pop\n      jump\t// out\n        /* \"#utility.yul\":2641:2774   */\n    tag_117:\n        /* \"#utility.yul\":2684:2689   */\n      0x00\n        /* \"#utility.yul\":2722:2728   */\n      dup2\n        /* \"#utility.yul\":2709:2729   */\n      calldataload\n        /* \"#utility.yul\":2700:2729   */\n      swap1\n      pop\n        /* \"#utility.yul\":2738:2768   */\n      tag_185\n        /* \"#utility.yul\":2762:2767   */\n      dup2\n        /* \"#utility.yul\":2738:2768   */\n      tag_116\n      jump\t// in\n    tag_185:\n        /* \"#utility.yul\":2641:2774   */\n      swap3\n      swap2\n      pop\n      pop\n      jump\t// out\n        /* \"#utility.yul\":2780:3248   */\n    tag_28:\n        /* \"#utility.yul\":2845:2851   */\n      0x00\n        /* \"#utility.yul\":2853:2859   */\n      dup1\n        /* \"#utility.yul\":2902:2904   */\n      0x40\n        /* \"#utility.yul\":2890:2899   */\n      dup4\n        /* \"#utility.yul\":2881:2888   */\n      dup6\n        /* \"#utility.yul\":2877:2900   */\n      sub\n        /* \"#utility.yul\":2873:2905   */\n      slt\n        /* \"#utility.yul\":2870:2989   */\n      iszero\n      tag_187\n      jumpi\n        /* \"#utility.yul\":2908:2987   */\n      tag_188\n      tag_109\n      jump\t// in\n    tag_188:\n        /* \"#utility.yul\":2870:2989   */\n    tag_187:\n        /* \"#utility.yul\":3028:3029   */\n      0x00\n        /* \"#utility.yul\":3053:3106   */\n      tag_189\n        /* \"#utility.yul\":3098:3105   */\n      dup6\n        /* \"#utility.yul\":3089:3095   */\n      dup3\n        /* \"#utility.yul\":3078:3087   */\n      dup7\n        /* \"#utility.yul\":3074:3096   */\n      add\n        /* \"#utility.yul\":3053:3106   */\n      tag_114\n      jump\t// in\n    tag_189:\n        /* \"#utility.yul\":3043:3106   */\n      swap3\n      pop\n        /* \"#utility.yul\":2999:3116   */\n      pop\n        /* \"#utility.yul\":3155:3157   */\n      0x20\n        /* \"#utility.yul\":3181:3231   */\n      tag_190\n        /* \"#utility.yul\":3223:3230   */\n      dup6\n        /* \"#utility.yul\":3214:3220   */\n      dup3\n        /* \"#utility.yul\":3203:3212   */\n      dup7\n        /* \"#utility.yul\":3199:3221   */\n      add\n        /* \"#utility.yul\":3181:3231   */\n      tag_117\n      jump\t// in\n    tag_190:\n        /* \"#utility.yul\":3171:3231   */\n      swap2\n      pop\n        /* \"#utility.yul\":3126:3241   */\n      pop\n        /* \"#utility.yul\":2780:3248   */\n      swap3\n      pop\n      swap3\n      swap1\n      pop\n      jump\t// out\n        /* \"#utility.yul\":3254:3358   */\n    tag_118:\n        /* \"#utility.yul\":3299:3306   */\n      0x00\n        /* \"#utility.yul\":3328:3352   */\n      tag_192\n        /* \"#utility.yul\":3346:3351   */\n      dup3\n        /* \"#utility.yul\":3328:3352   */\n      tag_111\n      jump\t// in\n    tag_192:\n        /* \"#utility.yul\":3317:3352   */\n      swap1\n      pop\n        /* \"#utility.yul\":3254:3358   */\n      swap2\n      swap1\n      pop\n      jump\t// out\n        /* \"#utility.yul\":3364:3506   */\n    tag_119:\n        /* \"#utility.yul\":3467:3499   */\n      tag_194\n        /* \"#utility.yul\":3493:3498   */\n      dup2\n        /* \"#utility.yul\":3467:3499   */\n      tag_118\n      jump\t// in\n    tag_194:\n        /* \"#utility.yul\":3462:3465   */\n      dup3\n        /* \"#utility.yul\":3455:3500   */\n      mstore\n        /* \"#utility.yul\":3364:3506   */\n      pop\n      pop\n      jump\t// out\n        /* \"#utility.yul\":3512:3766   */\n    tag_34:\n        /* \"#utility.yul\":3621:3625   */\n      0x00\n        /* \"#utility.yul\":3659:3661   */\n      0x20\n        /* \"#utility.yul\":3648:3657   */\n      dup3\n        /* \"#utility.yul\":3644:3662   */\n      add\n        /* \"#utility.yul\":3636:3662   */\n      swap1\n      pop\n        /* \"#utility.yul\":3672:3759   */\n      tag_196\n        /* \"#utility.yul\":3756:3757   */\n      0x00\n        /* \"#utility.yul\":3745:3754   */\n      dup4\n        /* \"#utility.yul\":3741:3758   */\n      add\n        /* \"#utility.yul\":3732:3738   */\n      dup5\n        /* \"#utility.yul\":3672:3759   */\n      tag_119\n      jump\t// in\n    tag_196:\n        /* \"#utility.yul\":3512:3766   */\n      swap3\n      swap2\n      pop\n      pop\n      jump\t// out\n        /* \"#utility.yul\":3772:4101   */\n    tag_38:\n        /* \"#utility.yul\":3831:3837   */\n      0x00\n        /* \"#utility.yul\":3880:3882   */\n      0x20\n        /* \"#utility.yul\":3868:3877   */\n      dup3\n        /* \"#utility.yul\":3859:3866   */\n      dup5\n        /* \"#utility.yul\":3855:3878   */\n      sub\n        /* \"#utility.yul\":3851:3883   */\n      slt\n        /* \"#utility.yul\":3848:3967   */\n      iszero\n      tag_198\n      jumpi\n        /* \"#utility.yul\":3886:3965   */\n      tag_199\n      tag_109\n      jump\t// in\n    tag_199:\n        /* \"#utility.yul\":3848:3967   */\n    tag_198:\n        /* \"#utility.yul\":4006:4007   */\n      0x00\n        /* \"#utility.yul\":4031:4084   */\n      tag_200\n        /* \"#utility.yul\":4076:4083   */\n      dup5\n        /* \"#utility.yul\":4067:4073   */\n      dup3\n        /* \"#utility.yul\":4056:4065   */\n      dup6\n        /* \"#utility.yul\":4052:4074   */\n      add\n        /* \"#utility.yul\":4031:4084   */\n      tag_114\n      jump\t// in\n    tag_200:\n        /* \"#utility.yul\":4021:4084   */\n      swap2\n      pop\n        /* \"#utility.yul\":3977:4094   */\n      pop\n        /* \"#utility.yul\":3772:4101   */\n      swap3\n      swap2\n      pop\n      pop\n      jump\t// out\n        /* \"#utility.yul\":4107:4216   */\n    tag_120:\n        /* \"#utility.yul\":4188:4209   */\n      tag_202\n        /* \"#utility.yul\":4203:4208   */\n      dup2\n        /* \"#utility.yul\":4188:4209   */\n      tag_115\n      jump\t// in\n    tag_202:\n        /* \"#utility.yul\":4183:4186   */\n      dup3\n        /* \"#utility.yul\":4176:4210   */\n      mstore\n        /* \"#utility.yul\":4107:4216   */\n      pop\n      pop\n      jump\t// out\n        /* \"#utility.yul\":4222:4432   */\n    tag_41:\n        /* \"#utility.yul\":4309:4313   */\n      0x00\n        /* \"#utility.yul\":4347:4349   */\n      0x20\n        /* \"#utility.yul\":4336:4345   */\n      dup3\n        /* \"#utility.yul\":4332:4350   */\n      add\n        /* \"#utility.yul\":4324:4350   */\n      swap1\n      pop\n        /* \"#utility.yul\":4360:4425   */\n      tag_204\n        /* \"#utility.yul\":4422:4423   */\n      0x00\n        /* \"#utility.yul\":4411:4420   */\n      dup4\n        /* \"#utility.yul\":4407:4424   */\n      add\n        /* \"#utility.yul\":4398:4404   */\n      dup5\n        /* \"#utility.yul\":4360:4425   */\n      tag_120\n      jump\t// in\n    tag_204:\n        /* \"#utility.yul\":4222:4432   */\n      swap3\n      swap2\n      pop\n      pop\n      jump\t// out\n        /* \"#utility.yul\":4438:4555   */\n    tag_121:\n        /* \"#utility.yul\":4547:4548   */\n      0x00\n        /* \"#utility.yul\":4544:4545   */\n      dup1\n        /* \"#utility.yul\":4537:4549   */\n      revert\n        /* \"#utility.yul\":4561:4678   */\n    tag_122:\n        /* \"#utility.yul\":4670:4671   */\n      0x00\n        /* \"#utility.yul\":4667:4668   */\n      dup1\n        /* \"#utility.yul\":4660:4672   */\n      revert\n        /* \"#utility.yul\":4684:4786   */\n    tag_123:\n        /* \"#utility.yul\":4725:4731   */\n      0x00\n        /* \"#utility.yul\":4776:4778   */\n      0x1f\n        /* \"#utility.yul\":4772:4779   */\n      not\n        /* \"#utility.yul\":4767:4769   */\n      0x1f\n        /* \"#utility.yul\":4760:4765   */\n      dup4\n        /* \"#utility.yul\":4756:4770   */\n      add\n        /* \"#utility.yul\":4752:4780   */\n      and\n        /* \"#utility.yul\":4742:4780   */\n      swap1\n      pop\n        /* \"#utility.yul\":4684:4786   */\n      swap2\n      swap1\n      pop\n      jump\t// out\n        /* \"#utility.yul\":4792:4972   */\n    tag_124:\n        /* \"#utility.yul\":4840:4917   */\n      0x4e487b7100000000000000000000000000000000000000000000000000000000\n        /* \"#utility.yul\":4837:4838   */\n      0x00\n        /* \"#utility.yul\":4830:4918   */\n      mstore\n        /* \"#utility.yul\":4937:4941   */\n      0x41\n        /* \"#utility.yul\":4934:4935   */\n      0x04\n        /* \"#utility.yul\":4927:4942   */\n      mstore\n        /* \"#utility.yul\":4961:4965   */\n      0x24\n        /* \"#utility.yul\":4958:4959   */\n      0x00\n        /* \"#utility.yul\":4951:4966   */\n      revert\n        /* \"#utility.yul\":4978:5259   */\n    tag_125:\n        /* \"#utility.yul\":5061:5088   */\n      tag_210\n        /* \"#utility.yul\":5083:5087   */\n      dup3\n        /* \"#utility.yul\":5061:5088   */\n      tag_123\n      jump\t// in\n    tag_210:\n        /* \"#utility.yul\":5053:5059   */\n      dup2\n        /* \"#utility.yul\":5049:5089   */\n      add\n        /* \"#utility.yul\":5191:5197   */\n      dup2\n        /* \"#utility.yul\":5179:5189   */\n      dup2\n        /* \"#utility.yul\":5176:5198   */\n      lt\n        /* \"#utility.yul\":5155:5173   */\n      0xffffffffffffffff\n        /* \"#utility.yul\":5143:5153   */\n      dup3\n        /* \"#utility.yul\":5140:5174   */\n      gt\n        /* \"#utility.yul\":5137:5199   */\n      or\n        /* \"#utility.yul\":5134:5222   */\n      iszero\n      tag_211\n      jumpi\n        /* \"#utility.yul\":5202:5220   */\n      tag_212\n      tag_124\n      jump\t// in\n    tag_212:\n        /* \"#utility.yul\":5134:5222   */\n    tag_211:\n        /* \"#utility.yul\":5242:5252   */\n      dup1\n        /* \"#utility.yul\":5238:5240   */\n      0x40\n        /* \"#utility.yul\":5231:5253   */\n      mstore\n        /* \"#utility.yul\":5021:5259   */\n      pop\n        /* \"#utility.yul\":4978:5259   */\n      pop\n      pop\n      jump\t// out\n        /* \"#utility.yul\":5265:5394   */\n    tag_126:\n        /* \"#utility.yul\":5299:5305   */\n      0x00\n        /* \"#utility.yul\":5326:5346   */\n      tag_214\n      tag_108\n      jump\t// in\n    tag_214:\n        /* \"#utility.yul\":5316:5346   */\n      swap1\n      pop\n        /* \"#utility.yul\":5355:5388   */\n      tag_215\n        /* \"#utility.yul\":5383:5387   */\n      dup3\n        /* \"#utility.yul\":5375:5381   */\n      dup3\n        /* \"#utility.yul\":5355:5388   */\n      tag_125\n      jump\t// in\n    tag_215:\n        /* \"#utility.yul\":5265:5394   */\n      swap2\n      swap1\n      pop\n      jump\t// out\n        /* \"#utility.yul\":5400:5708   */\n    tag_127:\n        /* \"#utility.yul\":5462:5466   */\n      0x00\n        /* \"#utility.yul\":5552:5570   */\n      0xffffffffffffffff\n        /* \"#utility.yul\":5544:5550   */\n      dup3\n        /* \"#utility.yul\":5541:5571   */\n      gt\n        /* \"#utility.yul\":5538:5594   */\n      iszero\n      tag_217\n      jumpi\n        /* \"#utility.yul\":5574:5592   */\n      tag_218\n      tag_124\n      jump\t// in\n    tag_218:\n        /* \"#utility.yul\":5538:5594   */\n    tag_217:\n        /* \"#utility.yul\":5612:5641   */\n      tag_219\n        /* \"#utility.yul\":5634:5640   */\n      dup3\n        /* \"#utility.yul\":5612:5641   */\n      tag_123\n      jump\t// in\n    tag_219:\n        /* \"#utility.yul\":5604:5641   */\n      swap1\n      pop\n        /* \"#utility.yul\":5696:5700   */\n      0x20\n        /* \"#utility.yul\":5690:5694   */\n      dup2\n        /* \"#utility.yul\":5686:5701   */\n      add\n        /* \"#utility.yul\":5678:5701   */\n      swap1\n      pop\n        /* \"#utility.yul\":5400:5708   */\n      swap2\n      swap1\n      pop\n      jump\t// out\n        /* \"#utility.yul\":5714:5860   */\n    tag_128:\n        /* \"#utility.yul\":5811:5817   */\n      dup3\n        /* \"#utility.yul\":5806:5809   */\n      dup2\n        /* \"#utility.yul\":5801:5804   */\n      dup4\n        /* \"#utility.yul\":5788:5818   */\n      calldatacopy\n        /* \"#utility.yul\":5852:5853   */\n      0x00\n        /* \"#utility.yul\":5843:5849   */\n      dup4\n        /* \"#utility.yul\":5838:5841   */\n      dup4\n        /* \"#utility.yul\":5834:5850   */\n      add\n        /* \"#utility.yul\":5827:5854   */\n      mstore\n        /* \"#utility.yul\":5714:5860   */\n      pop\n      pop\n      pop\n      jump\t// out\n        /* \"#utility.yul\":5866:6291   */\n    tag_129:\n        /* \"#utility.yul\":5944:5949   */\n      0x00\n        /* \"#utility.yul\":5969:6035   */\n      tag_222\n        /* \"#utility.yul\":5985:6034   */\n      tag_223\n        /* \"#utility.yul\":6027:6033   */\n      dup5\n        /* \"#utility.yul\":5985:6034   */\n      tag_127\n      jump\t// in\n    tag_223:\n        /* \"#utility.yul\":5969:6035   */\n      tag_126\n      jump\t// in\n    tag_222:\n        /* \"#utility.yul\":5960:6035   */\n      swap1\n      pop\n        /* \"#utility.yul\":6058:6064   */\n      dup3\n        /* \"#utility.yul\":6051:6056   */\n      dup2\n        /* \"#utility.yul\":6044:6065   */\n      mstore\n        /* \"#utility.yul\":6096:6100   */\n      0x20\n        /* \"#utility.yul\":6089:6094   */\n      dup2\n        /* \"#utility.yul\":6085:6101   */\n      add\n        /* \"#utility.yul\":6134:6137   */\n      dup5\n        /* \"#utility.yul\":6125:6131   */\n      dup5\n        /* \"#utility.yul\":6120:6123   */\n      dup5\n        /* \"#utility.yul\":6116:6132   */\n      add\n        /* \"#utility.yul\":6113:6138   */\n      gt\n        /* \"#utility.yul\":6110:6222   */\n      iszero\n      tag_224\n      jumpi\n        /* \"#utility.yul\":6141:6220   */\n      tag_225\n      tag_122\n      jump\t// in\n    tag_225:\n        /* \"#utility.yul\":6110:6222   */\n    tag_224:\n        /* \"#utility.yul\":6231:6285   */\n      tag_226\n        /* \"#utility.yul\":6278:6284   */\n      dup5\n        /* \"#utility.yul\":6273:6276   */\n      dup3\n        /* \"#utility.yul\":6268:6271   */\n      dup6\n        /* \"#utility.yul\":6231:6285   */\n      tag_128\n      jump\t// in\n    tag_226:\n        /* \"#utility.yul\":5950:6291   */\n      pop\n        /* \"#utility.yul\":5866:6291   */\n      swap4\n      swap3\n      pop\n      pop\n      pop\n      jump\t// out\n        /* \"#utility.yul\":6311:6651   */\n    tag_130:\n        /* \"#utility.yul\":6367:6372   */\n      0x00\n        /* \"#utility.yul\":6416:6419   */\n      dup3\n        /* \"#utility.yul\":6409:6413   */\n      0x1f\n        /* \"#utility.yul\":6401:6407   */\n      dup4\n        /* \"#utility.yul\":6397:6414   */\n      add\n        /* \"#utility.yul\":6393:6420   */\n      slt\n        /* \"#utility.yul\":6383:6505   */\n      tag_228\n      jumpi\n        /* \"#utility.yul\":6424:6503   */\n      tag_229\n      tag_121\n      jump\t// in\n    tag_229:\n        /* \"#utility.yul\":6383:6505   */\n    tag_228:\n        /* \"#utility.yul\":6541:6547   */\n      dup2\n        /* \"#utility.yul\":6528:6548   */\n      calldataload\n        /* \"#utility.yul\":6566:6645   */\n      tag_230\n        /* \"#utility.yul\":6641:6644   */\n      dup5\n        /* \"#utility.yul\":6633:6639   */\n      dup3\n        /* \"#utility.yul\":6626:6630   */\n      0x20\n        /* \"#utility.yul\":6618:6624   */\n      dup7\n        /* \"#utility.yul\":6614:6631   */\n      add\n        /* \"#utility.yul\":6566:6645   */\n      tag_129\n      jump\t// in\n    tag_230:\n        /* \"#utility.yul\":6557:6645   */\n      swap2\n      pop\n        /* \"#utility.yul\":6373:6651   */\n      pop\n        /* \"#utility.yul\":6311:6651   */\n      swap3\n      swap2\n      pop\n      pop\n      jump\t// out\n        /* \"#utility.yul\":6657:8468   */\n    tag_44:\n        /* \"#utility.yul\":6802:6808   */\n      0x00\n        /* \"#utility.yul\":6810:6816   */\n      dup1\n        /* \"#utility.yul\":6818:6824   */\n      0x00\n        /* \"#utility.yul\":6826:6832   */\n      dup1\n        /* \"#utility.yul\":6834:6840   */\n      0x00\n        /* \"#utility.yul\":6883:6886   */\n      0xa0\n        /* \"#utility.yul\":6871:6880   */\n      dup7\n        /* \"#utility.yul\":6862:6869   */\n      dup9\n        /* \"#utility.yul\":6858:6881   */\n      sub\n        /* \"#utility.yul\":6854:6887   */\n      slt\n        /* \"#utility.yul\":6851:6971   */\n      iszero\n      tag_232\n      jumpi\n        /* \"#utility.yul\":6890:6969   */\n      tag_233\n      tag_109\n      jump\t// in\n    tag_233:\n        /* \"#utility.yul\":6851:6971   */\n    tag_232:\n        /* \"#utility.yul\":7038:7039   */\n      0x00\n        /* \"#utility.yul\":7027:7036   */\n      dup7\n        /* \"#utility.yul\":7023:7040   */\n      add\n        /* \"#utility.yul\":7010:7041   */\n      calldataload\n        /* \"#utility.yul\":7068:7086   */\n      0xffffffffffffffff\n        /* \"#utility.yul\":7060:7066   */\n      dup2\n        /* \"#utility.yul\":7057:7087   */\n      gt\n        /* \"#utility.yul\":7054:7171   */\n      iszero\n      tag_234\n      jumpi\n        /* \"#utility.yul\":7090:7169   */\n      tag_235\n      tag_110\n      jump\t// in\n    tag_235:\n        /* \"#utility.yul\":7054:7171   */\n    tag_234:\n        /* \"#utility.yul\":7195:7258   */\n      tag_236\n        /* \"#utility.yul\":7250:7257   */\n      dup9\n        /* \"#utility.yul\":7241:7247   */\n      dup3\n        /* \"#utility.yul\":7230:7239   */\n      dup10\n        /* \"#utility.yul\":7226:7248   */\n      add\n        /* \"#utility.yul\":7195:7258   */\n      tag_130\n      jump\t// in\n    tag_236:\n        /* \"#utility.yul\":7185:7258   */\n      swap6\n      pop\n        /* \"#utility.yul\":6981:7268   */\n      pop\n        /* \"#utility.yul\":7335:7337   */\n      0x20\n        /* \"#utility.yul\":7324:7333   */\n      dup7\n        /* \"#utility.yul\":7320:7338   */\n      add\n        /* \"#utility.yul\":7307:7339   */\n      calldataload\n        /* \"#utility.yul\":7366:7384   */\n      0xffffffffffffffff\n        /* \"#utility.yul\":7358:7364   */\n      dup2\n        /* \"#utility.yul\":7355:7385   */\n      gt\n        /* \"#utility.yul\":7352:7469   */\n      iszero\n      tag_237\n      jumpi\n        /* \"#utility.yul\":7388:7467   */\n      tag_238\n      tag_110\n      jump\t// in\n    tag_238:\n        /* \"#utility.yul\":7352:7469   */\n    tag_237:\n        /* \"#utility.yul\":7493:7556   */\n      tag_239\n        /* \"#utility.yul\":7548:7555   */\n      dup9\n        /* \"#utility.yul\":7539:7545   */\n      dup3\n        /* \"#utility.yul\":7528:7537   */\n      dup10\n        /* \"#utility.yul\":7524:7546   */\n      add\n        /* \"#utility.yul\":7493:7556   */\n      tag_130\n      jump\t// in\n    tag_239:\n        /* \"#utility.yul\":7483:7556   */\n      swap5\n      pop\n        /* \"#utility.yul\":7278:7566   */\n      pop\n        /* \"#utility.yul\":7633:7635   */\n      0x40\n        /* \"#utility.yul\":7622:7631   */\n      dup7\n        /* \"#utility.yul\":7618:7636   */\n      add\n        /* \"#utility.yul\":7605:7637   */\n      calldataload\n        /* \"#utility.yul\":7664:7682   */\n      0xffffffffffffffff\n        /* \"#utility.yul\":7656:7662   */\n      dup2\n        /* \"#utility.yul\":7653:7683   */\n      gt\n        /* \"#utility.yul\":7650:7767   */\n      iszero\n      tag_240\n      jumpi\n        /* \"#utility.yul\":7686:7765   */\n      tag_241\n      tag_110\n      jump\t// in\n    tag_241:\n        /* \"#utility.yul\":7650:7767   */\n    tag_240:\n        /* \"#utility.yul\":7791:7854   */\n      tag_242\n        /* \"#utility.yul\":7846:7853   */\n      dup9\n        /* \"#utility.yul\":7837:7843   */\n      dup3\n        /* \"#utility.yul\":7826:7835   */\n      dup10\n        /* \"#utility.yul\":7822:7844   */\n      add\n        /* \"#utility.yul\":7791:7854   */\n      tag_130\n      jump\t// in\n    tag_242:\n        /* \"#utility.yul\":7781:7854   */\n      swap4\n      pop\n        /* \"#utility.yul\":7576:7864   */\n      pop\n        /* \"#utility.yul\":7931:7933   */\n      0x60\n        /* \"#utility.yul\":7920:7929   */\n      dup7\n        /* \"#utility.yul\":7916:7934   */\n      add\n        /* \"#utility.yul\":7903:7935   */\n      calldataload\n        /* \"#utility.yul\":7962:7980   */\n      0xffffffffffffffff\n        /* \"#utility.yul\":7954:7960   */\n      dup2\n        /* \"#utility.yul\":7951:7981   */\n      gt\n        /* \"#utility.yul\":7948:8065   */\n      iszero\n      tag_243\n      jumpi\n        /* \"#utility.yul\":7984:8063   */\n      tag_244\n      tag_110\n      jump\t// in\n    tag_244:\n        /* \"#utility.yul\":7948:8065   */\n    tag_243:\n        /* \"#utility.yul\":8089:8152   */\n      tag_245\n        /* \"#utility.yul\":8144:8151   */\n      dup9\n        /* \"#utility.yul\":8135:8141   */\n      dup3\n        /* \"#utility.yul\":8124:8133   */\n      dup10\n        /* \"#utility.yul\":8120:8142   */\n      add\n        /* \"#utility.yul\":8089:8152   */\n      tag_130\n      jump\t// in\n    tag_245:\n        /* \"#utility.yul\":8079:8152   */\n      swap3\n      pop\n        /* \"#utility.yul\":7874:8162   */\n      pop\n        /* \"#utility.yul\":8229:8232   */\n      0x80\n        /* \"#utility.yul\":8218:8227   */\n      dup7\n        /* \"#utility.yul\":8214:8233   */\n      add\n        /* \"#utility.yul\":8201:8234   */\n      calldataload\n        /* \"#utility.yul\":8261:8279   */\n      0xffffffffffffffff\n        /* \"#utility.yul\":8253:8259   */\n      dup2\n        /* \"#utility.yul\":8250:8280   */\n      gt\n        /* \"#utility.yul\":8247:8364   */\n      iszero\n      tag_246\n      jumpi\n        /* \"#utility.yul\":8283:8362   */\n      tag_247\n      tag_110\n      jump\t// in\n    tag_247:\n        /* \"#utility.yul\":8247:8364   */\n    tag_246:\n        /* \"#utility.yul\":8388:8451   */\n      tag_248\n        /* \"#utility.yul\":8443:8450   */\n      dup9\n        /* \"#utility.yul\":8434:8440   */\n      dup3\n        /* \"#utility.yul\":8423:8432   */\n      dup10\n        /* \"#utility.yul\":8419:8441   */\n      add\n        /* \"#utility.yul\":8388:8451   */\n      tag_130\n      jump\t// in\n    tag_248:\n        /* \"#utility.yul\":8378:8451   */\n      swap2\n      pop\n        /* \"#utility.yul\":8172:8461   */\n      pop\n        /* \"#utility.yul\":6657:8468   */\n      swap3\n      swap6\n      pop\n      swap3\n      swap6\n      swap1\n      swap4\n      pop\n      jump\t// out\n        /* \"#utility.yul\":8474:8983   */\n    tag_49:\n        /* \"#utility.yul\":8543:8549   */\n      0x00\n        /* \"#utility.yul\":8592:8594   */\n      0x20\n        /* \"#utility.yul\":8580:8589   */\n      dup3\n        /* \"#utility.yul\":8571:8578   */\n      dup5\n        /* \"#utility.yul\":8567:8590   */\n      sub\n        /* \"#utility.yul\":8563:8595   */\n      slt\n        /* \"#utility.yul\":8560:8679   */\n      iszero\n      tag_250\n      jumpi\n        /* \"#utility.yul\":8598:8677   */\n      tag_251\n      tag_109\n      jump\t// in\n    tag_251:\n        /* \"#utility.yul\":8560:8679   */\n    tag_250:\n        /* \"#utility.yul\":8746:8747   */\n      0x00\n        /* \"#utility.yul\":8735:8744   */\n      dup3\n        /* \"#utility.yul\":8731:8748   */\n      add\n        /* \"#utility.yul\":8718:8749   */\n      calldataload\n        /* \"#utility.yul\":8776:8794   */\n      0xffffffffffffffff\n        /* \"#utility.yul\":8768:8774   */\n      dup2\n        /* \"#utility.yul\":8765:8795   */\n      gt\n        /* \"#utility.yul\":8762:8879   */\n      iszero\n      tag_252\n      jumpi\n        /* \"#utility.yul\":8798:8877   */\n      tag_253\n      tag_110\n      jump\t// in\n    tag_253:\n        /* \"#utility.yul\":8762:8879   */\n    tag_252:\n        /* \"#utility.yul\":8903:8966   */\n      tag_254\n        /* \"#utility.yul\":8958:8965   */\n      dup5\n        /* \"#utility.yul\":8949:8955   */\n      dup3\n        /* \"#utility.yul\":8938:8947   */\n      dup6\n        /* \"#utility.yul\":8934:8956   */\n      add\n        /* \"#utility.yul\":8903:8966   */\n      tag_130\n      jump\t// in\n    tag_254:\n        /* \"#utility.yul\":8893:8966   */\n      swap2\n      pop\n        /* \"#utility.yul\":8689:8976   */\n      pop\n        /* \"#utility.yul\":8474:8983   */\n      swap3\n      swap2\n      pop\n      pop\n      jump\t// out\n        /* \"#utility.yul\":8989:9088   */\n    tag_131:\n        /* \"#utility.yul\":9041:9047   */\n      0x00\n        /* \"#utility.yul\":9075:9080   */\n      dup2\n        /* \"#utility.yul\":9069:9081   */\n      mload\n        /* \"#utility.yul\":9059:9081   */\n      swap1\n      pop\n        /* \"#utility.yul\":8989:9088   */\n      swap2\n      swap1\n      pop\n      jump\t// out\n        /* \"#utility.yul\":9094:9340   */\n    tag_132:\n        /* \"#utility.yul\":9175:9176   */\n      0x00\n        /* \"#utility.yul\":9185:9298   */\n    tag_257:\n        /* \"#utility.yul\":9199:9205   */\n      dup4\n        /* \"#utility.yul\":9196:9197   */\n      dup2\n        /* \"#utility.yul\":9193:9206   */\n      lt\n        /* \"#utility.yul\":9185:9298   */\n      iszero\n      tag_259\n      jumpi\n        /* \"#utility.yul\":9284:9285   */\n      dup1\n        /* \"#utility.yul\":9279:9282   */\n      dup3\n        /* \"#utility.yul\":9275:9286   */\n      add\n        /* \"#utility.yul\":9269:9287   */\n      mload\n        /* \"#utility.yul\":9265:9266   */\n      dup2\n        /* \"#utility.yul\":9260:9263   */\n      dup5\n        /* \"#utility.yul\":9256:9267   */\n      add\n        /* \"#utility.yul\":9249:9288   */\n      mstore\n        /* \"#utility.yul\":9221:9223   */\n      0x20\n        /* \"#utility.yul\":9218:9219   */\n      dup2\n        /* \"#utility.yul\":9214:9224   */\n      add\n        /* \"#utility.yul\":9209:9224   */\n      swap1\n      pop\n        /* \"#utility.yul\":9185:9298   */\n      jump(tag_257)\n    tag_259:\n        /* \"#utility.yul\":9332:9333   */\n      0x00\n        /* \"#utility.yul\":9323:9329   */\n      dup5\n        /* \"#utility.yul\":9318:9321   */\n      dup5\n        /* \"#utility.yul\":9314:9330   */\n      add\n        /* \"#utility.yul\":9307:9334   */\n      mstore\n        /* \"#utility.yul\":9156:9340   */\n      pop\n        /* \"#utility.yul\":9094:9340   */\n      pop\n      pop\n      pop\n      jump\t// out\n        /* \"#utility.yul\":9346:9723   */\n    tag_133:\n        /* \"#utility.yul\":9434:9437   */\n      0x00\n        /* \"#utility.yul\":9462:9501   */\n      tag_261\n        /* \"#utility.yul\":9495:9500   */\n      dup3\n        /* \"#utility.yul\":9462:9501   */\n      tag_131\n      jump\t// in\n    tag_261:\n        /* \"#utility.yul\":9517:9588   */\n      tag_262\n        /* \"#utility.yul\":9581:9587   */\n      dup2\n        /* \"#utility.yul\":9576:9579   */\n      dup6\n        /* \"#utility.yul\":9517:9588   */\n      tag_103\n      jump\t// in\n    tag_262:\n        /* \"#utility.yul\":9510:9588   */\n      swap4\n      pop\n        /* \"#utility.yul\":9597:9662   */\n      tag_263\n        /* \"#utility.yul\":9655:9661   */\n      dup2\n        /* \"#utility.yul\":9650:9653   */\n      dup6\n        /* \"#utility.yul\":9643:9647   */\n      0x20\n        /* \"#utility.yul\":9636:9641   */\n      dup7\n        /* \"#utility.yul\":9632:9648   */\n      add\n        /* \"#utility.yul\":9597:9662   */\n      tag_132\n      jump\t// in\n    tag_263:\n        /* \"#utility.yul\":9687:9716   */\n      tag_264\n        /* \"#utility.yul\":9709:9715   */\n      dup2\n        /* \"#utility.yul\":9687:9716   */\n      tag_123\n      jump\t// in\n    tag_264:\n        /* \"#utility.yul\":9682:9685   */\n      dup5\n        /* \"#utility.yul\":9678:9717   */\n      add\n        /* \"#utility.yul\":9671:9717   */\n      swap2\n      pop\n        /* \"#utility.yul\":9438:9723   */\n      pop\n        /* \"#utility.yul\":9346:9723   */\n      swap3\n      swap2\n      pop\n      pop\n      jump\t// out\n        /* \"#utility.yul\":9729:10646   */\n    tag_52:\n        /* \"#utility.yul\":9986:9990   */\n      0x00\n        /* \"#utility.yul\":10024:10027   */\n      0x80\n        /* \"#utility.yul\":10013:10022   */\n      dup3\n        /* \"#utility.yul\":10009:10028   */\n      add\n        /* \"#utility.yul\":10001:10028   */\n      swap1\n      pop\n        /* \"#utility.yul\":10074:10083   */\n      dup2\n        /* \"#utility.yul\":10068:10072   */\n      dup2\n        /* \"#utility.yul\":10064:10084   */\n      sub\n        /* \"#utility.yul\":10060:10061   */\n      0x00\n        /* \"#utility.yul\":10049:10058   */\n      dup4\n        /* \"#utility.yul\":10045:10062   */\n      add\n        /* \"#utility.yul\":10038:10085   */\n      mstore\n        /* \"#utility.yul\":10102:10180   */\n      tag_266\n        /* \"#utility.yul\":10175:10179   */\n      dup2\n        /* \"#utility.yul\":10166:10172   */\n      dup8\n        /* \"#utility.yul\":10102:10180   */\n      tag_133\n      jump\t// in\n    tag_266:\n        /* \"#utility.yul\":10094:10180   */\n      swap1\n      pop\n        /* \"#utility.yul\":10227:10236   */\n      dup2\n        /* \"#utility.yul\":10221:10225   */\n      dup2\n        /* \"#utility.yul\":10217:10237   */\n      sub\n        /* \"#utility.yul\":10212:10214   */\n      0x20\n        /* \"#utility.yul\":10201:10210   */\n      dup4\n        /* \"#utility.yul\":10197:10215   */\n      add\n        /* \"#utility.yul\":10190:10238   */\n      mstore\n        /* \"#utility.yul\":10255:10333   */\n      tag_267\n        /* \"#utility.yul\":10328:10332   */\n      dup2\n        /* \"#utility.yul\":10319:10325   */\n      dup7\n        /* \"#utility.yul\":10255:10333   */\n      tag_133\n      jump\t// in\n    tag_267:\n        /* \"#utility.yul\":10247:10333   */\n      swap1\n      pop\n        /* \"#utility.yul\":10380:10389   */\n      dup2\n        /* \"#utility.yul\":10374:10378   */\n      dup2\n        /* \"#utility.yul\":10370:10390   */\n      sub\n        /* \"#utility.yul\":10365:10367   */\n      0x40\n        /* \"#utility.yul\":10354:10363   */\n      dup4\n        /* \"#utility.yul\":10350:10368   */\n      add\n        /* \"#utility.yul\":10343:10391   */\n      mstore\n        /* \"#utility.yul\":10408:10486   */\n      tag_268\n        /* \"#utility.yul\":10481:10485   */\n      dup2\n        /* \"#utility.yul\":10472:10478   */\n      dup6\n        /* \"#utility.yul\":10408:10486   */\n      tag_133\n      jump\t// in\n    tag_268:\n        /* \"#utility.yul\":10400:10486   */\n      swap1\n      pop\n        /* \"#utility.yul\":10533:10542   */\n      dup2\n        /* \"#utility.yul\":10527:10531   */\n      dup2\n        /* \"#utility.yul\":10523:10543   */\n      sub\n        /* \"#utility.yul\":10518:10520   */\n      0x60\n        /* \"#utility.yul\":10507:10516   */\n      dup4\n        /* \"#utility.yul\":10503:10521   */\n      add\n        /* \"#utility.yul\":10496:10544   */\n      mstore\n        /* \"#utility.yul\":10561:10639   */\n      tag_269\n        /* \"#utility.yul\":10634:10638   */\n      dup2\n        /* \"#utility.yul\":10625:10631   */\n      dup5\n        /* \"#utility.yul\":10561:10639   */\n      tag_133\n      jump\t// in\n    tag_269:\n        /* \"#utility.yul\":10553:10639   */\n      swap1\n      pop\n        /* \"#utility.yul\":9729:10646   */\n      swap6\n      swap5\n      pop\n      pop\n      pop\n      pop\n      pop\n      jump\t// out\n        /* \"#utility.yul\":10652:10832   */\n    tag_134:\n        /* \"#utility.yul\":10792:10824   */\n      0x4d696e696d756d20666565206e656564656420746f2072656769737465720000\n        /* \"#utility.yul\":10788:10789   */\n      0x00\n        /* \"#utility.yul\":10780:10786   */\n      dup3\n        /* \"#utility.yul\":10776:10790   */\n      add\n        /* \"#utility.yul\":10769:10825   */\n      mstore\n        /* \"#utility.yul\":10652:10832   */\n      pop\n      jump\t// out\n        /* \"#utility.yul\":10838:11204   */\n    tag_135:\n        /* \"#utility.yul\":10980:10983   */\n      0x00\n        /* \"#utility.yul\":11001:11068   */\n      tag_272\n        /* \"#utility.yul\":11065:11067   */\n      0x1e\n        /* \"#utility.yul\":11060:11063   */\n      dup4\n        /* \"#utility.yul\":11001:11068   */\n      tag_103\n      jump\t// in\n    tag_272:\n        /* \"#utility.yul\":10994:11068   */\n      swap2\n      pop\n        /* \"#utility.yul\":11077:11170   */\n      tag_273\n        /* \"#utility.yul\":11166:11169   */\n      dup3\n        /* \"#utility.yul\":11077:11170   */\n      tag_134\n      jump\t// in\n    tag_273:\n        /* \"#utility.yul\":11195:11197   */\n      0x20\n        /* \"#utility.yul\":11190:11193   */\n      dup3\n        /* \"#utility.yul\":11186:11198   */\n      add\n        /* \"#utility.yul\":11179:11198   */\n      swap1\n      pop\n        /* \"#utility.yul\":10838:11204   */\n      swap2\n      swap1\n      pop\n      jump\t// out\n        /* \"#utility.yul\":11210:11629   */\n    tag_65:\n        /* \"#utility.yul\":11376:11380   */\n      0x00\n        /* \"#utility.yul\":11414:11416   */\n      0x20\n        /* \"#utility.yul\":11403:11412   */\n      dup3\n        /* \"#utility.yul\":11399:11417   */\n      add\n        /* \"#utility.yul\":11391:11417   */\n      swap1\n      pop\n        /* \"#utility.yul\":11463:11472   */\n      dup2\n        /* \"#utility.yul\":11457:11461   */\n      dup2\n        /* \"#utility.yul\":11453:11473   */\n      sub\n        /* \"#utility.yul\":11449:11450   */\n      0x00\n        /* \"#utility.yul\":11438:11447   */\n      dup4\n        /* \"#utility.yul\":11434:11451   */\n      add\n        /* \"#utility.yul\":11427:11474   */\n      mstore\n        /* \"#utility.yul\":11491:11622   */\n      tag_275\n        /* \"#utility.yul\":11617:11621   */\n      dup2\n        /* \"#utility.yul\":11491:11622   */\n      tag_135\n      jump\t// in\n    tag_275:\n        /* \"#utility.yul\":11483:11622   */\n      swap1\n      pop\n        /* \"#utility.yul\":11210:11629   */\n      swap2\n      swap1\n      pop\n      jump\t// out\n        /* \"#utility.yul\":11635:11802   */\n    tag_136:\n        /* \"#utility.yul\":11775:11794   */\n      0x5065726d697373696f6e2064656e696564000000000000000000000000000000\n        /* \"#utility.yul\":11771:11772   */\n      0x00\n        /* \"#utility.yul\":11763:11769   */\n      dup3\n        /* \"#utility.yul\":11759:11773   */\n      add\n        /* \"#utility.yul\":11752:11795   */\n      mstore\n        /* \"#utility.yul\":11635:11802   */\n      pop\n      jump\t// out\n        /* \"#utility.yul\":11808:12174   */\n    tag_137:\n        /* \"#utility.yul\":11950:11953   */\n      0x00\n        /* \"#utility.yul\":11971:12038   */\n      tag_278\n        /* \"#utility.yul\":12035:12037   */\n      0x11\n        /* \"#utility.yul\":12030:12033   */\n      dup4\n        /* \"#utility.yul\":11971:12038   */\n      tag_103\n      jump\t// in\n    tag_278:\n        /* \"#utility.yul\":11964:12038   */\n      swap2\n      pop\n        /* \"#utility.yul\":12047:12140   */\n      tag_279\n        /* \"#utility.yul\":12136:12139   */\n      dup3\n        /* \"#utility.yul\":12047:12140   */\n      tag_136\n      jump\t// in\n    tag_279:\n        /* \"#utility.yul\":12165:12167   */\n      0x20\n        /* \"#utility.yul\":12160:12163   */\n      dup3\n        /* \"#utility.yul\":12156:12168   */\n      add\n        /* \"#utility.yul\":12149:12168   */\n      swap1\n      pop\n        /* \"#utility.yul\":11808:12174   */\n      swap2\n      swap1\n      pop\n      jump\t// out\n        /* \"#utility.yul\":12180:12599   */\n    tag_69:\n        /* \"#utility.yul\":12346:12350   */\n      0x00\n        /* \"#utility.yul\":12384:12386   */\n      0x20\n        /* \"#utility.yul\":12373:12382   */\n      dup3\n        /* \"#utility.yul\":12369:12387   */\n      add\n        /* \"#utility.yul\":12361:12387   */\n      swap1\n      pop\n        /* \"#utility.yul\":12433:12442   */\n      dup2\n        /* \"#utility.yul\":12427:12431   */\n      dup2\n        /* \"#utility.yul\":12423:12443   */\n      sub\n        /* \"#utility.yul\":12419:12420   */\n      0x00\n        /* \"#utility.yul\":12408:12417   */\n      dup4\n        /* \"#utility.yul\":12404:12421   */\n      add\n        /* \"#utility.yul\":12397:12444   */\n      mstore\n        /* \"#utility.yul\":12461:12592   */\n      tag_281\n        /* \"#utility.yul\":12587:12591   */\n      dup2\n        /* \"#utility.yul\":12461:12592   */\n      tag_137\n      jump\t// in\n    tag_281:\n        /* \"#utility.yul\":12453:12592   */\n      swap1\n      pop\n        /* \"#utility.yul\":12180:12599   */\n      swap2\n      swap1\n      pop\n      jump\t// out\n        /* \"#utility.yul\":12605:12753   */\n    tag_138:\n        /* \"#utility.yul\":12707:12718   */\n      0x00\n        /* \"#utility.yul\":12744:12747   */\n      dup2\n        /* \"#utility.yul\":12729:12747   */\n      swap1\n      pop\n        /* \"#utility.yul\":12605:12753   */\n      swap3\n      swap2\n      pop\n      pop\n      jump\t// out\n        /* \"#utility.yul\":12759:13149   */\n    tag_139:\n        /* \"#utility.yul\":12865:12868   */\n      0x00\n        /* \"#utility.yul\":12893:12932   */\n      tag_284\n        /* \"#utility.yul\":12926:12931   */\n      dup3\n        /* \"#utility.yul\":12893:12932   */\n      tag_131\n      jump\t// in\n    tag_284:\n        /* \"#utility.yul\":12948:13037   */\n      tag_285\n        /* \"#utility.yul\":13030:13036   */\n      dup2\n        /* \"#utility.yul\":13025:13028   */\n      dup6\n        /* \"#utility.yul\":12948:13037   */\n      tag_138\n      jump\t// in\n    tag_285:\n        /* \"#utility.yul\":12941:13037   */\n      swap4\n      pop\n        /* \"#utility.yul\":13046:13111   */\n      tag_286\n        /* \"#utility.yul\":13104:13110   */\n      dup2\n        /* \"#utility.yul\":13099:13102   */\n      dup6\n        /* \"#utility.yul\":13092:13096   */\n      0x20\n        /* \"#utility.yul\":13085:13090   */\n      dup7\n        /* \"#utility.yul\":13081:13097   */\n      add\n        /* \"#utility.yul\":13046:13111   */\n      tag_132\n      jump\t// in\n    tag_286:\n        /* \"#utility.yul\":13136:13142   */\n      dup1\n        /* \"#utility.yul\":13131:13134   */\n      dup5\n        /* \"#utility.yul\":13127:13143   */\n      add\n        /* \"#utility.yul\":13120:13143   */\n      swap2\n      pop\n        /* \"#utility.yul\":12869:13149   */\n      pop\n        /* \"#utility.yul\":12759:13149   */\n      swap3\n      swap2\n      pop\n      pop\n      jump\t// out\n        /* \"#utility.yul\":13155:13430   */\n    tag_73:\n        /* \"#utility.yul\":13287:13290   */\n      0x00\n        /* \"#utility.yul\":13309:13404   */\n      tag_288\n        /* \"#utility.yul\":13400:13403   */\n      dup3\n        /* \"#utility.yul\":13391:13397   */\n      dup5\n        /* \"#utility.yul\":13309:13404   */\n      tag_139\n      jump\t// in\n    tag_288:\n        /* \"#utility.yul\":13302:13404   */\n      swap2\n      pop\n        /* \"#utility.yul\":13421:13424   */\n      dup2\n        /* \"#utility.yul\":13414:13424   */\n      swap1\n      pop\n        /* \"#utility.yul\":13155:13430   */\n      swap3\n      swap2\n      pop\n      pop\n      jump\t// out\n        /* \"#utility.yul\":13436:13616   */\n    tag_140:\n        /* \"#utility.yul\":13484:13561   */\n      0x4e487b7100000000000000000000000000000000000000000000000000000000\n        /* \"#utility.yul\":13481:13482   */\n      0x00\n        /* \"#utility.yul\":13474:13562   */\n      mstore\n        /* \"#utility.yul\":13581:13585   */\n      0x22\n        /* \"#utility.yul\":13578:13579   */\n      0x04\n        /* \"#utility.yul\":13571:13586   */\n      mstore\n        /* \"#utility.yul\":13605:13609   */\n      0x24\n        /* \"#utility.yul\":13602:13603   */\n      0x00\n        /* \"#utility.yul\":13595:13610   */\n      revert\n        /* \"#utility.yul\":13622:13942   */\n    tag_82:\n        /* \"#utility.yul\":13666:13672   */\n      0x00\n        /* \"#utility.yul\":13703:13704   */\n      0x02\n        /* \"#utility.yul\":13697:13701   */\n      dup3\n        /* \"#utility.yul\":13693:13705   */\n      div\n        /* \"#utility.yul\":13683:13705   */\n      swap1\n      pop\n        /* \"#utility.yul\":13750:13751   */\n      0x01\n        /* \"#utility.yul\":13744:13748   */\n      dup3\n        /* \"#utility.yul\":13740:13752   */\n      and\n        /* \"#utility.yul\":13771:13789   */\n      dup1\n        /* \"#utility.yul\":13761:13842   */\n      tag_291\n      jumpi\n        /* \"#utility.yul\":13827:13831   */\n      0x7f\n        /* \"#utility.yul\":13819:13825   */\n      dup3\n        /* \"#utility.yul\":13815:13832   */\n      and\n        /* \"#utility.yul\":13805:13832   */\n      swap2\n      pop\n        /* \"#utility.yul\":13761:13842   */\n    tag_291:\n        /* \"#utility.yul\":13889:13891   */\n      0x20\n        /* \"#utility.yul\":13881:13887   */\n      dup3\n        /* \"#utility.yul\":13878:13892   */\n      lt\n        /* \"#utility.yul\":13858:13876   */\n      dup2\n        /* \"#utility.yul\":13855:13893   */\n      sub\n        /* \"#utility.yul\":13852:13936   */\n      tag_292\n      jumpi\n        /* \"#utility.yul\":13908:13926   */\n      tag_293\n      tag_140\n      jump\t// in\n    tag_293:\n        /* \"#utility.yul\":13852:13936   */\n    tag_292:\n        /* \"#utility.yul\":13673:13942   */\n      pop\n        /* \"#utility.yul\":13622:13942   */\n      swap2\n      swap1\n      pop\n      jump\t// out\n        /* \"#utility.yul\":13948:14089   */\n    tag_141:\n        /* \"#utility.yul\":13997:14001   */\n      0x00\n        /* \"#utility.yul\":14020:14023   */\n      dup2\n        /* \"#utility.yul\":14012:14023   */\n      swap1\n      pop\n        /* \"#utility.yul\":14043:14046   */\n      dup2\n        /* \"#utility.yul\":14040:14041   */\n      0x00\n        /* \"#utility.yul\":14033:14047   */\n      mstore\n        /* \"#utility.yul\":14077:14081   */\n      0x20\n        /* \"#utility.yul\":14074:14075   */\n      0x00\n        /* \"#utility.yul\":14064:14082   */\n      keccak256\n        /* \"#utility.yul\":14056:14082   */\n      swap1\n      pop\n        /* \"#utility.yul\":13948:14089   */\n      swap2\n      swap1\n      pop\n      jump\t// out\n        /* \"#utility.yul\":14095:14188   */\n    tag_142:\n        /* \"#utility.yul\":14132:14138   */\n      0x00\n        /* \"#utility.yul\":14179:14181   */\n      0x20\n        /* \"#utility.yul\":14174:14176   */\n      0x1f\n        /* \"#utility.yul\":14167:14172   */\n      dup4\n        /* \"#utility.yul\":14163:14177   */\n      add\n        /* \"#utility.yul\":14159:14182   */\n      div\n        /* \"#utility.yul\":14149:14182   */\n      swap1\n      pop\n        /* \"#utility.yul\":14095:14188   */\n      swap2\n      swap1\n      pop\n      jump\t// out\n        /* \"#utility.yul\":14194:14301   */\n    tag_143:\n        /* \"#utility.yul\":14238:14246   */\n      0x00\n        /* \"#utility.yul\":14288:14293   */\n      dup3\n        /* \"#utility.yul\":14282:14286   */\n      dup3\n        /* \"#utility.yul\":14278:14294   */\n      shl\n        /* \"#utility.yul\":14257:14294   */\n      swap1\n      pop\n        /* \"#utility.yul\":14194:14301   */\n      swap3\n      swap2\n      pop\n      pop\n      jump\t// out\n        /* \"#utility.yul\":14307:14700   */\n    tag_144:\n        /* \"#utility.yul\":14376:14382   */\n      0x00\n        /* \"#utility.yul\":14426:14427   */\n      0x08\n        /* \"#utility.yul\":14414:14424   */\n      dup4\n        /* \"#utility.yul\":14410:14428   */\n      mul\n        /* \"#utility.yul\":14449:14546   */\n      tag_298\n        /* \"#utility.yul\":14479:14545   */\n      0xffffffffffffffffffffffffffffffffffffffffffffffffffffffffffffffff\n        /* \"#utility.yul\":14468:14477   */\n      dup3\n        /* \"#utility.yul\":14449:14546   */\n      tag_143\n      jump\t// in\n    tag_298:\n        /* \"#utility.yul\":14567:14606   */\n      tag_299\n        /* \"#utility.yul\":14597:14605   */\n      dup7\n        /* \"#utility.yul\":14586:14595   */\n      dup4\n        /* \"#utility.yul\":14567:14606   */\n      tag_143\n      jump\t// in\n    tag_299:\n        /* \"#utility.yul\":14555:14606   */\n      swap6\n      pop\n        /* \"#utility.yul\":14639:14643   */\n      dup1\n        /* \"#utility.yul\":14635:14644   */\n      not\n        /* \"#utility.yul\":14628:14633   */\n      dup5\n        /* \"#utility.yul\":14624:14645   */\n      and\n        /* \"#utility.yul\":14615:14645   */\n      swap4\n      pop\n        /* \"#utility.yul\":14688:14692   */\n      dup1\n        /* \"#utility.yul\":14678:14686   */\n      dup7\n        /* \"#utility.yul\":14674:14693   */\n      and\n        /* \"#utility.yul\":14667:14672   */\n      dup5\n        /* \"#utility.yul\":14664:14694   */\n      or\n        /* \"#utility.yul\":14654:14694   */\n      swap3\n      pop\n        /* \"#utility.yul\":14383:14700   */\n      pop\n      pop\n        /* \"#utility.yul\":14307:14700   */\n      swap4\n      swap3\n      pop\n      pop\n      pop\n      jump\t// out\n        /* \"#utility.yul\":14706:14766   */\n    tag_145:\n        /* \"#utility.yul\":14734:14737   */\n      0x00\n        /* \"#utility.yul\":14755:14760   */\n      dup2\n        /* \"#utility.yul\":14748:14760   */\n      swap1\n      pop\n        /* \"#utility.yul\":14706:14766   */\n      swap2\n      swap1\n      pop\n      jump\t// out\n        /* \"#utility.yul\":14772:14914   */\n    tag_146:\n        /* \"#utility.yul\":14822:14831   */\n      0x00\n        /* \"#utility.yul\":14855:14908   */\n      tag_302\n        /* \"#utility.yul\":14873:14907   */\n      tag_303\n        /* \"#utility.yul\":14882:14906   */\n      tag_304\n        /* \"#utility.yul\":14900:14905   */\n      dup5\n        /* \"#utility.yul\":14882:14906   */\n      tag_106\n      jump\t// in\n    tag_304:\n        /* \"#utility.yul\":14873:14907   */\n      tag_145\n      jump\t// in\n    tag_303:\n        /* \"#utility.yul\":14855:14908   */\n      tag_106\n      jump\t// in\n    tag_302:\n        /* \"#utility.yul\":14842:14908   */\n      swap1\n      pop\n        /* \"#utility.yul\":14772:14914   */\n      swap2\n      swap1\n      pop\n      jump\t// out\n        /* \"#utility.yul\":14920:14995   */\n    tag_147:\n        /* \"#utility.yul\":14963:14966   */\n      0x00\n        /* \"#utility.yul\":14984:14989   */\n      dup2\n        /* \"#utility.yul\":14977:14989   */\n      swap1\n      pop\n        /* \"#utility.yul\":14920:14995   */\n      swap2\n      swap1\n      pop\n      jump\t// out\n        /* \"#utility.yul\":15001:15270   */\n    tag_148:\n        /* \"#utility.yul\":15111:15150   */\n      tag_307\n        /* \"#utility.yul\":15142:15149   */\n      dup4\n        /* \"#utility.yul\":15111:15150   */\n      tag_146\n      jump\t// in\n    tag_307:\n        /* \"#utility.yul\":15172:15263   */\n      tag_308\n        /* \"#utility.yul\":15221:15262   */\n      tag_309\n        /* \"#utility.yul\":15245:15261   */\n      dup3\n        /* \"#utility.yul\":15221:15262   */\n      tag_147\n      jump\t// in\n    tag_309:\n        /* \"#utility.yul\":15213:15219   */\n      dup5\n        /* \"#utility.yul\":15206:15210   */\n      dup5\n        /* \"#utility.yul\":15200:15211   */\n      sload\n        /* \"#utility.yul\":15172:15263   */\n      tag_144\n      jump\t// in\n    tag_308:\n        /* \"#utility.yul\":15166:15170   */\n      dup3\n        /* \"#utility.yul\":15159:15264   */\n      sstore\n        /* \"#utility.yul\":15077:15270   */\n      pop\n        /* \"#utility.yul\":15001:15270   */\n      pop\n      pop\n      pop\n      jump\t// out\n        /* \"#utility.yul\":15276:15349   */\n    tag_149:\n        /* \"#utility.yul\":15321:15324   */\n      0x00\n        /* \"#utility.yul\":15276:15349   */\n      swap1\n      jump\t// out\n        /* \"#utility.yul\":15355:15544   */\n    tag_150:\n        /* \"#utility.yul\":15432:15464   */\n      tag_312\n      tag_149\n      jump\t// in\n    tag_312:\n        /* \"#utility.yul\":15473:15538   */\n      tag_313\n        /* \"#utility.yul\":15531:15537   */\n      dup2\n        /* \"#utility.yul\":15523:15529   */\n      dup5\n        /* \"#utility.yul\":15517:15521   */\n      dup5\n        /* \"#utility.yul\":15473:15538   */\n      tag_148\n      jump\t// in\n    tag_313:\n        /* \"#utility.yul\":15408:15544   */\n      pop\n        /* \"#utility.yul\":15355:15544   */\n      pop\n      pop\n      jump\t// out\n        /* \"#utility.yul\":15550:15736   */\n    tag_151:\n        /* \"#utility.yul\":15610:15730   */\n    tag_315:\n        /* \"#utility.yul\":15627:15630   */\n      dup2\n        /* \"#utility.yul\":15620:15625   */\n      dup2\n        /* \"#utility.yul\":15617:15631   */\n      lt\n        /* \"#utility.yul\":15610:15730   */\n      iszero\n      tag_317\n      jumpi\n        /* \"#utility.yul\":15681:15720   */\n      tag_318\n        /* \"#utility.yul\":15718:15719   */\n      0x00\n        /* \"#utility.yul\":15711:15716   */\n      dup3\n        /* \"#utility.yul\":15681:15720   */\n      tag_150\n      jump\t// in\n    tag_318:\n        /* \"#utility.yul\":15654:15655   */\n      0x01\n        /* \"#utility.yul\":15647:15652   */\n      dup2\n        /* \"#utility.yul\":15643:15656   */\n      add\n        /* \"#utility.yul\":15634:15656   */\n      swap1\n      pop\n        /* \"#utility.yul\":15610:15730   */\n      jump(tag_315)\n    tag_317:\n        /* \"#utility.yul\":15550:15736   */\n      pop\n      pop\n      jump\t// out\n        /* \"#utility.yul\":15742:16285   */\n    tag_152:\n        /* \"#utility.yul\":15843:15845   */\n      0x1f\n        /* \"#utility.yul\":15838:15841   */\n      dup3\n        /* \"#utility.yul\":15835:15846   */\n      gt\n        /* \"#utility.yul\":15832:16278   */\n      iszero\n      tag_320\n      jumpi\n        /* \"#utility.yul\":15877:15915   */\n      tag_321\n        /* \"#utility.yul\":15909:15914   */\n      dup2\n        /* \"#utility.yul\":15877:15915   */\n      tag_141\n      jump\t// in\n    tag_321:\n        /* \"#utility.yul\":15961:15990   */\n      tag_322\n        /* \"#utility.yul\":15979:15989   */\n      dup5\n        /* \"#utility.yul\":15961:15990   */\n      tag_142\n      jump\t// in\n    tag_322:\n        /* \"#utility.yul\":15951:15959   */\n      dup2\n        /* \"#utility.yul\":15947:15991   */\n      add\n        /* \"#utility.yul\":16144:16146   */\n      0x20\n        /* \"#utility.yul\":16132:16142   */\n      dup6\n        /* \"#utility.yul\":16129:16147   */\n      lt\n        /* \"#utility.yul\":16126:16175   */\n      iszero\n      tag_323\n      jumpi\n        /* \"#utility.yul\":16165:16173   */\n      dup2\n        /* \"#utility.yul\":16150:16173   */\n      swap1\n      pop\n        /* \"#utility.yul\":16126:16175   */\n    tag_323:\n        /* \"#utility.yul\":16188:16268   */\n      tag_324\n        /* \"#utility.yul\":16244:16266   */\n      tag_325\n        /* \"#utility.yul\":16262:16265   */\n      dup6\n        /* \"#utility.yul\":16244:16266   */\n      tag_142\n      jump\t// in\n    tag_325:\n        /* \"#utility.yul\":16234:16242   */\n      dup4\n        /* \"#utility.yul\":16230:16267   */\n      add\n        /* \"#utility.yul\":16217:16228   */\n      dup3\n        /* \"#utility.yul\":16188:16268   */\n      tag_151\n      jump\t// in\n    tag_324:\n        /* \"#utility.yul\":15847:16278   */\n      pop\n      pop\n        /* \"#utility.yul\":15832:16278   */\n    tag_320:\n        /* \"#utility.yul\":15742:16285   */\n      pop\n      pop\n      pop\n      jump\t// out\n        /* \"#utility.yul\":16291:16408   */\n    tag_153:\n        /* \"#utility.yul\":16345:16353   */\n      0x00\n        /* \"#utility.yul\":16395:16400   */\n      dup3\n        /* \"#utility.yul\":16389:16393   */\n      dup3\n        /* \"#utility.yul\":16385:16401   */\n      shr\n        /* \"#utility.yul\":16364:16401   */\n      swap1\n      pop\n        /* \"#utility.yul\":16291:16408   */\n      swap3\n      swap2\n      pop\n      pop\n      jump\t// out\n        /* \"#utility.yul\":16414:16583   */\n    tag_154:\n        /* \"#utility.yul\":16458:16464   */\n      0x00\n        /* \"#utility.yul\":16491:16542   */\n      tag_328\n        /* \"#utility.yul\":16539:16540   */\n      0x00\n        /* \"#utility.yul\":16535:16541   */\n      not\n        /* \"#utility.yul\":16527:16532   */\n      dup5\n        /* \"#utility.yul\":16524:16525   */\n      0x08\n        /* \"#utility.yul\":16520:16533   */\n      mul\n        /* \"#utility.yul\":16491:16542   */\n      tag_153\n      jump\t// in\n    tag_328:\n        /* \"#utility.yul\":16487:16543   */\n      not\n        /* \"#utility.yul\":16572:16576   */\n      dup1\n        /* \"#utility.yul\":16566:16570   */\n      dup4\n        /* \"#utility.yul\":16562:16577   */\n      and\n        /* \"#utility.yul\":16552:16577   */\n      swap2\n      pop\n        /* \"#utility.yul\":16465:16583   */\n      pop\n        /* \"#utility.yul\":16414:16583   */\n      swap3\n      swap2\n      pop\n      pop\n      jump\t// out\n        /* \"#utility.yul\":16588:16883   */\n    tag_155:\n        /* \"#utility.yul\":16664:16668   */\n      0x00\n        /* \"#utility.yul\":16810:16839   */\n      tag_330\n        /* \"#utility.yul\":16835:16838   */\n      dup4\n        /* \"#utility.yul\":16829:16833   */\n      dup4\n        /* \"#utility.yul\":16810:16839   */\n      tag_154\n      jump\t// in\n    tag_330:\n        /* \"#utility.yul\":16802:16839   */\n      swap2\n      pop\n        /* \"#utility.yul\":16872:16875   */\n      dup3\n        /* \"#utility.yul\":16869:16870   */\n      0x02\n        /* \"#utility.yul\":16865:16876   */\n      mul\n        /* \"#utility.yul\":16859:16863   */\n      dup3\n        /* \"#utility.yul\":16856:16877   */\n      or\n        /* \"#utility.yul\":16848:16877   */\n      swap1\n      pop\n        /* \"#utility.yul\":16588:16883   */\n      swap3\n      swap2\n      pop\n      pop\n      jump\t// out\n        /* \"#utility.yul\":16888:18283   */\n    tag_75:\n        /* \"#utility.yul\":17005:17042   */\n      tag_332\n        /* \"#utility.yul\":17038:17041   */\n      dup3\n        /* \"#utility.yul\":17005:17042   */\n      tag_131\n      jump\t// in\n    tag_332:\n        /* \"#utility.yul\":17107:17125   */\n      0xffffffffffffffff\n        /* \"#utility.yul\":17099:17105   */\n      dup2\n        /* \"#utility.yul\":17096:17126   */\n      gt\n        /* \"#utility.yul\":17093:17149   */\n      iszero\n      tag_333\n      jumpi\n        /* \"#utility.yul\":17129:17147   */\n      tag_334\n      tag_124\n      jump\t// in\n    tag_334:\n        /* \"#utility.yul\":17093:17149   */\n    tag_333:\n        /* \"#utility.yul\":17173:17211   */\n      tag_335\n        /* \"#utility.yul\":17205:17209   */\n      dup3\n        /* \"#utility.yul\":17199:17210   */\n      sload\n        /* \"#utility.yul\":17173:17211   */\n      tag_82\n      jump\t// in\n    tag_335:\n        /* \"#utility.yul\":17258:17325   */\n      tag_336\n        /* \"#utility.yul\":17318:17324   */\n      dup3\n        /* \"#utility.yul\":17310:17316   */\n      dup3\n        /* \"#utility.yul\":17304:17308   */\n      dup6\n        /* \"#utility.yul\":17258:17325   */\n      tag_152\n      jump\t// in\n    tag_336:\n        /* \"#utility.yul\":17352:17353   */\n      0x00\n        /* \"#utility.yul\":17376:17380   */\n      0x20\n        /* \"#utility.yul\":17363:17380   */\n      swap1\n      pop\n        /* \"#utility.yul\":17408:17410   */\n      0x1f\n        /* \"#utility.yul\":17400:17406   */\n      dup4\n        /* \"#utility.yul\":17397:17411   */\n      gt\n        /* \"#utility.yul\":17425:17426   */\n      0x01\n        /* \"#utility.yul\":17420:18038   */\n      dup2\n      eq\n      tag_338\n      jumpi\n        /* \"#utility.yul\":18082:18083   */\n      0x00\n        /* \"#utility.yul\":18099:18105   */\n      dup5\n        /* \"#utility.yul\":18096:18173   */\n      iszero\n      tag_339\n      jumpi\n        /* \"#utility.yul\":18148:18157   */\n      dup3\n        /* \"#utility.yul\":18143:18146   */\n      dup8\n        /* \"#utility.yul\":18139:18158   */\n      add\n        /* \"#utility.yul\":18133:18159   */\n      mload\n        /* \"#utility.yul\":18124:18159   */\n      swap1\n      pop\n        /* \"#utility.yul\":18096:18173   */\n    tag_339:\n        /* \"#utility.yul\":18199:18266   */\n      tag_340\n        /* \"#utility.yul\":18259:18265   */\n      dup6\n        /* \"#utility.yul\":18252:18257   */\n      dup3\n        /* \"#utility.yul\":18199:18266   */\n      tag_155\n      jump\t// in\n    tag_340:\n        /* \"#utility.yul\":18193:18197   */\n      dup7\n        /* \"#utility.yul\":18186:18267   */\n      sstore\n        /* \"#utility.yul\":18055:18277   */\n      pop\n        /* \"#utility.yul\":17390:18277   */\n      jump(tag_337)\n        /* \"#utility.yul\":17420:18038   */\n    tag_338:\n        /* \"#utility.yul\":17472:17476   */\n      0x1f\n        /* \"#utility.yul\":17468:17477   */\n      not\n        /* \"#utility.yul\":17460:17466   */\n      dup5\n        /* \"#utility.yul\":17456:17478   */\n      and\n        /* \"#utility.yul\":17506:17543   */\n      tag_341\n        /* \"#utility.yul\":17538:17542   */\n      dup7\n        /* \"#utility.yul\":17506:17543   */\n      tag_141\n      jump\t// in\n    tag_341:\n        /* \"#utility.yul\":17565:17566   */\n      0x00\n        /* \"#utility.yul\":17579:17787   */\n    tag_342:\n        /* \"#utility.yul\":17593:17600   */\n      dup3\n        /* \"#utility.yul\":17590:17591   */\n      dup2\n        /* \"#utility.yul\":17587:17601   */\n      lt\n        /* \"#utility.yul\":17579:17787   */\n      iszero\n      tag_344\n      jumpi\n        /* \"#utility.yul\":17672:17681   */\n      dup5\n        /* \"#utility.yul\":17667:17670   */\n      dup10\n        /* \"#utility.yul\":17663:17682   */\n      add\n        /* \"#utility.yul\":17657:17683   */\n      mload\n        /* \"#utility.yul\":17649:17655   */\n      dup3\n        /* \"#utility.yul\":17642:17684   */\n      sstore\n        /* \"#utility.yul\":17723:17724   */\n      0x01\n        /* \"#utility.yul\":17715:17721   */\n      dup3\n        /* \"#utility.yul\":17711:17725   */\n      add\n        /* \"#utility.yul\":17701:17725   */\n      swap2\n      pop\n        /* \"#utility.yul\":17770:17772   */\n      0x20\n        /* \"#utility.yul\":17759:17768   */\n      dup6\n        /* \"#utility.yul\":17755:17773   */\n      add\n        /* \"#utility.yul\":17742:17773   */\n      swap5\n      pop\n        /* \"#utility.yul\":17616:17620   */\n      0x20\n        /* \"#utility.yul\":17613:17614   */\n      dup2\n        /* \"#utility.yul\":17609:17621   */\n      add\n        /* \"#utility.yul\":17604:17621   */\n      swap1\n      pop\n        /* \"#utility.yul\":17579:17787   */\n      jump(tag_342)\n    tag_344:\n        /* \"#utility.yul\":17815:17821   */\n      dup7\n        /* \"#utility.yul\":17806:17813   */\n      dup4\n        /* \"#utility.yul\":17803:17822   */\n      lt\n        /* \"#utility.yul\":17800:17979   */\n      iszero\n      tag_345\n      jumpi\n        /* \"#utility.yul\":17873:17882   */\n      dup5\n        /* \"#utility.yul\":17868:17871   */\n      dup10\n        /* \"#utility.yul\":17864:17883   */\n      add\n        /* \"#utility.yul\":17858:17884   */\n      mload\n        /* \"#utility.yul\":17916:17964   */\n      tag_346\n        /* \"#utility.yul\":17958:17962   */\n      0x1f\n        /* \"#utility.yul\":17950:17956   */\n      dup10\n        /* \"#utility.yul\":17946:17963   */\n      and\n        /* \"#utility.yul\":17935:17944   */\n      dup3\n        /* \"#utility.yul\":17916:17964   */\n      tag_154\n      jump\t// in\n    tag_346:\n        /* \"#utility.yul\":17908:17914   */\n      dup4\n        /* \"#utility.yul\":17901:17965   */\n      sstore\n        /* \"#utility.yul\":17823:17979   */\n      pop\n        /* \"#utility.yul\":17800:17979   */\n    tag_345:\n        /* \"#utility.yul\":18025:18026   */\n      0x01\n        /* \"#utility.yul\":18021:18022   */\n      0x02\n        /* \"#utility.yul\":18013:18019   */\n      dup9\n        /* \"#utility.yul\":18009:18023   */\n      mul\n        /* \"#utility.yul\":18005:18027   */\n      add\n        /* \"#utility.yul\":17999:18003   */\n      dup9\n        /* \"#utility.yul\":17992:18028   */\n      sstore\n        /* \"#utility.yul\":17427:18038   */\n      pop\n      pop\n      pop\n        /* \"#utility.yul\":17390:18277   */\n    tag_337:\n      pop\n        /* \"#utility.yul\":16980:18283   */\n      pop\n      pop\n      pop\n        /* \"#utility.yul\":16888:18283   */\n      pop\n      pop\n      jump\t// out\n        /* \"#utility.yul\":18289:18602   */\n    tag_80:\n        /* \"#utility.yul\":18402:18406   */\n      0x00\n        /* \"#utility.yul\":18440:18442   */\n      0x20\n        /* \"#utility.yul\":18429:18438   */\n      dup3\n        /* \"#utility.yul\":18425:18443   */\n      add\n        /* \"#utility.yul\":18417:18443   */\n      swap1\n      pop\n        /* \"#utility.yul\":18489:18498   */\n      dup2\n        /* \"#utility.yul\":18483:18487   */\n      dup2\n        /* \"#utility.yul\":18479:18499   */\n      sub\n        /* \"#utility.yul\":18475:18476   */\n      0x00\n        /* \"#utility.yul\":18464:18473   */\n      dup4\n        /* \"#utility.yul\":18460:18477   */\n      add\n        /* \"#utility.yul\":18453:18500   */\n      mstore\n        /* \"#utility.yul\":18517:18595   */\n      tag_348\n        /* \"#utility.yul\":18590:18594   */\n      dup2\n        /* \"#utility.yul\":18581:18587   */\n      dup5\n        /* \"#utility.yul\":18517:18595   */\n      tag_133\n      jump\t// in\n    tag_348:\n        /* \"#utility.yul\":18509:18595   */\n      swap1\n      pop\n        /* \"#utility.yul\":18289:18602   */\n      swap3\n      swap2\n      pop\n      pop\n      jump\t// out\n\n    auxdata: 0xa264697066735822122059d417f56260577df68546bcd42bfc7c93b9cd9bb3a02687d95fc1ceab971bde64736f6c63430008110033\n}\n",
				"bytecode": {
					"linkReferences": {},
					"object": "60806040523480156200001157600080fd5b5060405162001372380380620013728339818101604052810190620000379190620000c5565b336000806101000a81548173ffffffffffffffffffffffffffffffffffffffff021916908373ffffffffffffffffffffffffffffffffffffffff1602179055508060018190555050620000f7565b600080fd5b6000819050919050565b6200009f816200008a565b8114620000ab57600080fd5b50565b600081519050620000bf8162000094565b92915050565b600060208284031215620000de57620000dd62000085565b5b6000620000ee84828501620000ae565b91505092915050565b61126b80620001076000396000f3fe6080604052600436106100595760003560e01c806312065fe01461017e57806353d6fd59146101a95780638da5cb5b146101d2578063c683630d146101fd578063d2bfb0bc1461023a578063f7ac518214610256576100ee565b366100ee5760008054906101000a900473ffffffffffffffffffffffffffffffffffffffff1673ffffffffffffffffffffffffffffffffffffffff163373ffffffffffffffffffffffffffffffffffffffff16146100ec576040517f08c379a00000000000000000000000000000000000000000000000000000000081526004016100e3906108d4565b60405180910390fd5b005b60008054906101000a900473ffffffffffffffffffffffffffffffffffffffff1673ffffffffffffffffffffffffffffffffffffffff163373ffffffffffffffffffffffffffffffffffffffff161461017c576040517f08c379a0000000000000000000000000000000000000000000000000000000008152600401610173906108d4565b60405180910390fd5b005b34801561018a57600080fd5b50610193610296565b6040516101a0919061090d565b60405180910390f35b3480156101b557600080fd5b506101d060048036038101906101cb91906109d2565b61029e565b005b3480156101de57600080fd5b506101e76103d5565b6040516101f49190610a33565b60405180910390f35b34801561020957600080fd5b50610224600480360381019061021f9190610a4e565b6103f9565b6040516102319190610a8a565b60405180910390f35b610254600480360381019061024f9190610beb565b61040b565b005b34801561026257600080fd5b5061027d60048036038101906102789190610cf2565b610593565b60405161028d9493929190610da9565b60405180910390f35b600047905090565b60008054906101000a900473ffffffffffffffffffffffffffffffffffffffff1673ffffffffffffffffffffffffffffffffffffffff163373ffffffffffffffffffffffffffffffffffffffff161461032c576040517f08c379a0000000000000000000000000000000000000000000000000000000008152600401610323906108d4565b60405180910390fd5b80600360008473ffffffffffffffffffffffffffffffffffffffff1673ffffffffffffffffffffffffffffffffffffffff16815260200190815260200160002060006101000a81548160ff0219169083151502179055508173ffffffffffffffffffffffffffffffffffffffff167fc2c8beffdf047b9e6c79b0e9dcd0bd71d174d84f52e013102fcc0e200dd58ee0826040516103c99190610a8a565b60405180910390a25050565b60008054906101000a900473ffffffffffffffffffffffffffffffffffffffff1681565b6000610404826107f9565b9050919050565b600154341161044f576040517f08c379a000000000000000000000000000000000000000000000000000000000815260040161044690610e56565b60405180910390fd5b610458336107f9565b610497576040517f08c379a000000000000000000000000000000000000000000000000000000000815260040161048e90610ec2565b60405180910390fd5b61049f61084f565b858160000181905250848160200181905250838160400181905250828160600181905250806002836040516104d49190610f1e565b908152602001604051809103902060008201518160000190816104f79190611141565b50602082015181600101908161050d9190611141565b5060408201518160020190816105239190611141565b5060608201518160030190816105399190611141565b509050503373ffffffffffffffffffffffffffffffffffffffff167fa6a69184572b903be08b48268bce3da3a79d5d2cff476eb6e4c43ec0662cbe33836040516105839190611213565b60405180910390a2505050505050565b6002818051602081018201805184825260208301602085012081835280955050505050506000915090508060000180546105cc90610f64565b80601f01602080910402602001604051908101604052809291908181526020018280546105f890610f64565b80156106455780601f1061061a57610100808354040283529160200191610645565b820191906000526020600020905b81548152906001019060200180831161062857829003601f168201915b50505050509080600101805461065a90610f64565b80601f016020809104026020016040519081016040528092919081815260200182805461068690610f64565b80156106d35780601f106106a8576101008083540402835291602001916106d3565b820191906000526020600020905b8154815290600101906020018083116106b657829003601f168201915b5050505050908060020180546106e890610f64565b80601f016020809104026020016040519081016040528092919081815260200182805461071490610f64565b80156107615780601f1061073657610100808354040283529160200191610761565b820191906000526020600020905b81548152906001019060200180831161074457829003601f168201915b50505050509080600301805461077690610f64565b80601f01602080910402602001604051908101604052809291908181526020018280546107a290610f64565b80156107ef5780601f106107c4576101008083540402835291602001916107ef565b820191906000526020600020905b8154815290600101906020018083116107d257829003601f168201915b5050505050905084565b6000600360008373ffffffffffffffffffffffffffffffffffffffff1673ffffffffffffffffffffffffffffffffffffffff16815260200190815260200160002060009054906101000a900460ff169050919050565b6040518060800160405280606081526020016060815260200160608152602001606081525090565b600082825260208201905092915050565b7f53656e646572206973206e6f74206f776e657200000000000000000000000000600082015250565b60006108be601383610877565b91506108c982610888565b602082019050919050565b600060208201905081810360008301526108ed816108b1565b9050919050565b6000819050919050565b610907816108f4565b82525050565b600060208201905061092260008301846108fe565b92915050565b6000604051905090565b600080fd5b600080fd5b600073ffffffffffffffffffffffffffffffffffffffff82169050919050565b60006109678261093c565b9050919050565b6109778161095c565b811461098257600080fd5b50565b6000813590506109948161096e565b92915050565b60008115159050919050565b6109af8161099a565b81146109ba57600080fd5b50565b6000813590506109cc816109a6565b92915050565b600080604083850312156109e9576109e8610932565b5b60006109f785828601610985565b9250506020610a08858286016109bd565b9150509250929050565b6000610a1d8261093c565b9050919050565b610a2d81610a12565b82525050565b6000602082019050610a486000830184610a24565b92915050565b600060208284031215610a6457610a63610932565b5b6000610a7284828501610985565b91505092915050565b610a848161099a565b82525050565b6000602082019050610a9f6000830184610a7b565b92915050565b600080fd5b600080fd5b6000601f19601f8301169050919050565b7f4e487b7100000000000000000000000000000000000000000000000000000000600052604160045260246000fd5b610af882610aaf565b810181811067ffffffffffffffff82111715610b1757610b16610ac0565b5b80604052505050565b6000610b2a610928565b9050610b368282610aef565b919050565b600067ffffffffffffffff821115610b5657610b55610ac0565b5b610b5f82610aaf565b9050602081019050919050565b82818337600083830152505050565b6000610b8e610b8984610b3b565b610b20565b905082815260208101848484011115610baa57610ba9610aaa565b5b610bb5848285610b6c565b509392505050565b600082601f830112610bd257610bd1610aa5565b5b8135610be2848260208601610b7b565b91505092915050565b600080600080600060a08688031215610c0757610c06610932565b5b600086013567ffffffffffffffff811115610c2557610c24610937565b5b610c3188828901610bbd565b955050602086013567ffffffffffffffff811115610c5257610c51610937565b5b610c5e88828901610bbd565b945050604086013567ffffffffffffffff811115610c7f57610c7e610937565b5b610c8b88828901610bbd565b935050606086013567ffffffffffffffff811115610cac57610cab610937565b5b610cb888828901610bbd565b925050608086013567ffffffffffffffff811115610cd957610cd8610937565b5b610ce588828901610bbd565b9150509295509295909350565b600060208284031215610d0857610d07610932565b5b600082013567ffffffffffffffff811115610d2657610d25610937565b5b610d3284828501610bbd565b91505092915050565b600081519050919050565b60005b83811015610d64578082015181840152602081019050610d49565b60008484015250505050565b6000610d7b82610d3b565b610d858185610877565b9350610d95818560208601610d46565b610d9e81610aaf565b840191505092915050565b60006080820190508181036000830152610dc38187610d70565b90508181036020830152610dd78186610d70565b90508181036040830152610deb8185610d70565b90508181036060830152610dff8184610d70565b905095945050505050565b7f4d696e696d756d20666565206e656564656420746f2072656769737465720000600082015250565b6000610e40601e83610877565b9150610e4b82610e0a565b602082019050919050565b60006020820190508181036000830152610e6f81610e33565b9050919050565b7f5065726d697373696f6e2064656e696564000000000000000000000000000000600082015250565b6000610eac601183610877565b9150610eb782610e76565b602082019050919050565b60006020820190508181036000830152610edb81610e9f565b9050919050565b600081905092915050565b6000610ef882610d3b565b610f028185610ee2565b9350610f12818560208601610d46565b80840191505092915050565b6000610f2a8284610eed565b915081905092915050565b7f4e487b7100000000000000000000000000000000000000000000000000000000600052602260045260246000fd5b60006002820490506001821680610f7c57607f821691505b602082108103610f8f57610f8e610f35565b5b50919050565b60008190508160005260206000209050919050565b60006020601f8301049050919050565b600082821b905092915050565b600060088302610ff77fffffffffffffffffffffffffffffffffffffffffffffffffffffffffffffffff82610fba565b6110018683610fba565b95508019841693508086168417925050509392505050565b6000819050919050565b600061103e611039611034846108f4565b611019565b6108f4565b9050919050565b6000819050919050565b61105883611023565b61106c61106482611045565b848454610fc7565b825550505050565b600090565b611081611074565b61108c81848461104f565b505050565b5b818110156110b0576110a5600082611079565b600181019050611092565b5050565b601f8211156110f5576110c681610f95565b6110cf84610faa565b810160208510156110de578190505b6110f26110ea85610faa565b830182611091565b50505b505050565b600082821c905092915050565b6000611118600019846008026110fa565b1980831691505092915050565b60006111318383611107565b9150826002028217905092915050565b61114a82610d3b565b67ffffffffffffffff81111561116357611162610ac0565b5b61116d8254610f64565b6111788282856110b4565b600060209050601f8311600181146111ab5760008415611199578287015190505b6111a38582611125565b86555061120b565b601f1984166111b986610f95565b60005b828110156111e1578489015182556001820191506020850194506020810190506111bc565b868310156111fe57848901516111fa601f891682611107565b8355505b6001600288020188555050505b505050505050565b6000602082019050818103600083015261122d8184610d70565b90509291505056fea264697066735822122059d417f56260577df68546bcd42bfc7c93b9cd9bb3a02687d95fc1ceab971bde64736f6c63430008110033",
					"opcodes": "PUSH1 0x80 PUSH1 0x40 MSTORE CALLVALUE DUP1 ISZERO PUSH3 0x11 JUMPI PUSH1 0x0 DUP1 REVERT JUMPDEST POP PUSH1 0x40 MLOAD PUSH3 0x1372 CODESIZE SUB DUP1 PUSH3 0x1372 DUP4 CODECOPY DUP2 DUP2 ADD PUSH1 0x40 MSTORE DUP2 ADD SWAP1 PUSH3 0x37 SWAP2 SWAP1 PUSH3 0xC5 JUMP JUMPDEST CALLER PUSH1 0x0 DUP1 PUSH2 0x100 EXP DUP2 SLOAD DUP2 PUSH20 0xFFFFFFFFFFFFFFFFFFFFFFFFFFFFFFFFFFFFFFFF MUL NOT AND SWAP1 DUP4 PUSH20 0xFFFFFFFFFFFFFFFFFFFFFFFFFFFFFFFFFFFFFFFF AND MUL OR SWAP1 SSTORE POP DUP1 PUSH1 0x1 DUP2 SWAP1 SSTORE POP POP PUSH3 0xF7 JUMP JUMPDEST PUSH1 0x0 DUP1 REVERT JUMPDEST PUSH1 0x0 DUP2 SWAP1 POP SWAP2 SWAP1 POP JUMP JUMPDEST PUSH3 0x9F DUP2 PUSH3 0x8A JUMP JUMPDEST DUP2 EQ PUSH3 0xAB JUMPI PUSH1 0x0 DUP1 REVERT JUMPDEST POP JUMP JUMPDEST PUSH1 0x0 DUP2 MLOAD SWAP1 POP PUSH3 0xBF DUP2 PUSH3 0x94 JUMP JUMPDEST SWAP3 SWAP2 POP POP JUMP JUMPDEST PUSH1 0x0 PUSH1 0x20 DUP3 DUP5 SUB SLT ISZERO PUSH3 0xDE JUMPI PUSH3 0xDD PUSH3 0x85 JUMP JUMPDEST JUMPDEST PUSH1 0x0 PUSH3 0xEE DUP5 DUP3 DUP6 ADD PUSH3 0xAE JUMP JUMPDEST SWAP2 POP POP SWAP3 SWAP2 POP POP JUMP JUMPDEST PUSH2 0x126B DUP1 PUSH3 0x107 PUSH1 0x0 CODECOPY PUSH1 0x0 RETURN INVALID PUSH1 0x80 PUSH1 0x40 MSTORE PUSH1 0x4 CALLDATASIZE LT PUSH2 0x59 JUMPI PUSH1 0x0 CALLDATALOAD PUSH1 0xE0 SHR DUP1 PUSH4 0x12065FE0 EQ PUSH2 0x17E JUMPI DUP1 PUSH4 0x53D6FD59 EQ PUSH2 0x1A9 JUMPI DUP1 PUSH4 0x8DA5CB5B EQ PUSH2 0x1D2 JUMPI DUP1 PUSH4 0xC683630D EQ PUSH2 0x1FD JUMPI DUP1 PUSH4 0xD2BFB0BC EQ PUSH2 0x23A JUMPI DUP1 PUSH4 0xF7AC5182 EQ PUSH2 0x256 JUMPI PUSH2 0xEE JUMP JUMPDEST CALLDATASIZE PUSH2 0xEE JUMPI PUSH1 0x0 DUP1 SLOAD SWAP1 PUSH2 0x100 EXP SWAP1 DIV PUSH20 0xFFFFFFFFFFFFFFFFFFFFFFFFFFFFFFFFFFFFFFFF AND PUSH20 0xFFFFFFFFFFFFFFFFFFFFFFFFFFFFFFFFFFFFFFFF AND CALLER PUSH20 0xFFFFFFFFFFFFFFFFFFFFFFFFFFFFFFFFFFFFFFFF AND EQ PUSH2 0xEC JUMPI PUSH1 0x40 MLOAD PUSH32 0x8C379A000000000000000000000000000000000000000000000000000000000 DUP2 MSTORE PUSH1 0x4 ADD PUSH2 0xE3 SWAP1 PUSH2 0x8D4 JUMP JUMPDEST PUSH1 0x40 MLOAD DUP1 SWAP2 SUB SWAP1 REVERT JUMPDEST STOP JUMPDEST PUSH1 0x0 DUP1 SLOAD SWAP1 PUSH2 0x100 EXP SWAP1 DIV PUSH20 0xFFFFFFFFFFFFFFFFFFFFFFFFFFFFFFFFFFFFFFFF AND PUSH20 0xFFFFFFFFFFFFFFFFFFFFFFFFFFFFFFFFFFFFFFFF AND CALLER PUSH20 0xFFFFFFFFFFFFFFFFFFFFFFFFFFFFFFFFFFFFFFFF AND EQ PUSH2 0x17C JUMPI PUSH1 0x40 MLOAD PUSH32 0x8C379A000000000000000000000000000000000000000000000000000000000 DUP2 MSTORE PUSH1 0x4 ADD PUSH2 0x173 SWAP1 PUSH2 0x8D4 JUMP JUMPDEST PUSH1 0x40 MLOAD DUP1 SWAP2 SUB SWAP1 REVERT JUMPDEST STOP JUMPDEST CALLVALUE DUP1 ISZERO PUSH2 0x18A JUMPI PUSH1 0x0 DUP1 REVERT JUMPDEST POP PUSH2 0x193 PUSH2 0x296 JUMP JUMPDEST PUSH1 0x40 MLOAD PUSH2 0x1A0 SWAP2 SWAP1 PUSH2 0x90D JUMP JUMPDEST PUSH1 0x40 MLOAD DUP1 SWAP2 SUB SWAP1 RETURN JUMPDEST CALLVALUE DUP1 ISZERO PUSH2 0x1B5 JUMPI PUSH1 0x0 DUP1 REVERT JUMPDEST POP PUSH2 0x1D0 PUSH1 0x4 DUP1 CALLDATASIZE SUB DUP2 ADD SWAP1 PUSH2 0x1CB SWAP2 SWAP1 PUSH2 0x9D2 JUMP JUMPDEST PUSH2 0x29E JUMP JUMPDEST STOP JUMPDEST CALLVALUE DUP1 ISZERO PUSH2 0x1DE JUMPI PUSH1 0x0 DUP1 REVERT JUMPDEST POP PUSH2 0x1E7 PUSH2 0x3D5 JUMP JUMPDEST PUSH1 0x40 MLOAD PUSH2 0x1F4 SWAP2 SWAP1 PUSH2 0xA33 JUMP JUMPDEST PUSH1 0x40 MLOAD DUP1 SWAP2 SUB SWAP1 RETURN JUMPDEST CALLVALUE DUP1 ISZERO PUSH2 0x209 JUMPI PUSH1 0x0 DUP1 REVERT JUMPDEST POP PUSH2 0x224 PUSH1 0x4 DUP1 CALLDATASIZE SUB DUP2 ADD SWAP1 PUSH2 0x21F SWAP2 SWAP1 PUSH2 0xA4E JUMP JUMPDEST PUSH2 0x3F9 JUMP JUMPDEST PUSH1 0x40 MLOAD PUSH2 0x231 SWAP2 SWAP1 PUSH2 0xA8A JUMP JUMPDEST PUSH1 0x40 MLOAD DUP1 SWAP2 SUB SWAP1 RETURN JUMPDEST PUSH2 0x254 PUSH1 0x4 DUP1 CALLDATASIZE SUB DUP2 ADD SWAP1 PUSH2 0x24F SWAP2 SWAP1 PUSH2 0xBEB JUMP JUMPDEST PUSH2 0x40B JUMP JUMPDEST STOP JUMPDEST CALLVALUE DUP1 ISZERO PUSH2 0x262 JUMPI PUSH1 0x0 DUP1 REVERT JUMPDEST POP PUSH2 0x27D PUSH1 0x4 DUP1 CALLDATASIZE SUB DUP2 ADD SWAP1 PUSH2 0x278 SWAP2 SWAP1 PUSH2 0xCF2 JUMP JUMPDEST PUSH2 0x593 JUMP JUMPDEST PUSH1 0x40 MLOAD PUSH2 0x28D SWAP5 SWAP4 SWAP3 SWAP2 SWAP1 PUSH2 0xDA9 JUMP JUMPDEST PUSH1 0x40 MLOAD DUP1 SWAP2 SUB SWAP1 RETURN JUMPDEST PUSH1 0x0 SELFBALANCE SWAP1 POP SWAP1 JUMP JUMPDEST PUSH1 0x0 DUP1 SLOAD SWAP1 PUSH2 0x100 EXP SWAP1 DIV PUSH20 0xFFFFFFFFFFFFFFFFFFFFFFFFFFFFFFFFFFFFFFFF AND PUSH20 0xFFFFFFFFFFFFFFFFFFFFFFFFFFFFFFFFFFFFFFFF AND CALLER PUSH20 0xFFFFFFFFFFFFFFFFFFFFFFFFFFFFFFFFFFFFFFFF AND EQ PUSH2 0x32C JUMPI PUSH1 0x40 MLOAD PUSH32 0x8C379A000000000000000000000000000000000000000000000000000000000 DUP2 MSTORE PUSH1 0x4 ADD PUSH2 0x323 SWAP1 PUSH2 0x8D4 JUMP JUMPDEST PUSH1 0x40 MLOAD DUP1 SWAP2 SUB SWAP1 REVERT JUMPDEST DUP1 PUSH1 0x3 PUSH1 0x0 DUP5 PUSH20 0xFFFFFFFFFFFFFFFFFFFFFFFFFFFFFFFFFFFFFFFF AND PUSH20 0xFFFFFFFFFFFFFFFFFFFFFFFFFFFFFFFFFFFFFFFF AND DUP2 MSTORE PUSH1 0x20 ADD SWAP1 DUP2 MSTORE PUSH1 0x20 ADD PUSH1 0x0 KECCAK256 PUSH1 0x0 PUSH2 0x100 EXP DUP2 SLOAD DUP2 PUSH1 0xFF MUL NOT AND SWAP1 DUP4 ISZERO ISZERO MUL OR SWAP1 SSTORE POP DUP2 PUSH20 0xFFFFFFFFFFFFFFFFFFFFFFFFFFFFFFFFFFFFFFFF AND PUSH32 0xC2C8BEFFDF047B9E6C79B0E9DCD0BD71D174D84F52E013102FCC0E200DD58EE0 DUP3 PUSH1 0x40 MLOAD PUSH2 0x3C9 SWAP2 SWAP1 PUSH2 0xA8A JUMP JUMPDEST PUSH1 0x40 MLOAD DUP1 SWAP2 SUB SWAP1 LOG2 POP POP JUMP JUMPDEST PUSH1 0x0 DUP1 SLOAD SWAP1 PUSH2 0x100 EXP SWAP1 DIV PUSH20 0xFFFFFFFFFFFFFFFFFFFFFFFFFFFFFFFFFFFFFFFF AND DUP2 JUMP JUMPDEST PUSH1 0x0 PUSH2 0x404 DUP3 PUSH2 0x7F9 JUMP JUMPDEST SWAP1 POP SWAP2 SWAP1 POP JUMP JUMPDEST PUSH1 0x1 SLOAD CALLVALUE GT PUSH2 0x44F JUMPI PUSH1 0x40 MLOAD PUSH32 0x8C379A000000000000000000000000000000000000000000000000000000000 DUP2 MSTORE PUSH1 0x4 ADD PUSH2 0x446 SWAP1 PUSH2 0xE56 JUMP JUMPDEST PUSH1 0x40 MLOAD DUP1 SWAP2 SUB SWAP1 REVERT JUMPDEST PUSH2 0x458 CALLER PUSH2 0x7F9 JUMP JUMPDEST PUSH2 0x497 JUMPI PUSH1 0x40 MLOAD PUSH32 0x8C379A000000000000000000000000000000000000000000000000000000000 DUP2 MSTORE PUSH1 0x4 ADD PUSH2 0x48E SWAP1 PUSH2 0xEC2 JUMP JUMPDEST PUSH1 0x40 MLOAD DUP1 SWAP2 SUB SWAP1 REVERT JUMPDEST PUSH2 0x49F PUSH2 0x84F JUMP JUMPDEST DUP6 DUP2 PUSH1 0x0 ADD DUP2 SWAP1 MSTORE POP DUP5 DUP2 PUSH1 0x20 ADD DUP2 SWAP1 MSTORE POP DUP4 DUP2 PUSH1 0x40 ADD DUP2 SWAP1 MSTORE POP DUP3 DUP2 PUSH1 0x60 ADD DUP2 SWAP1 MSTORE POP DUP1 PUSH1 0x2 DUP4 PUSH1 0x40 MLOAD PUSH2 0x4D4 SWAP2 SWAP1 PUSH2 0xF1E JUMP JUMPDEST SWAP1 DUP2 MSTORE PUSH1 0x20 ADD PUSH1 0x40 MLOAD DUP1 SWAP2 SUB SWAP1 KECCAK256 PUSH1 0x0 DUP3 ADD MLOAD DUP2 PUSH1 0x0 ADD SWAP1 DUP2 PUSH2 0x4F7 SWAP2 SWAP1 PUSH2 0x1141 JUMP JUMPDEST POP PUSH1 0x20 DUP3 ADD MLOAD DUP2 PUSH1 0x1 ADD SWAP1 DUP2 PUSH2 0x50D SWAP2 SWAP1 PUSH2 0x1141 JUMP JUMPDEST POP PUSH1 0x40 DUP3 ADD MLOAD DUP2 PUSH1 0x2 ADD SWAP1 DUP2 PUSH2 0x523 SWAP2 SWAP1 PUSH2 0x1141 JUMP JUMPDEST POP PUSH1 0x60 DUP3 ADD MLOAD DUP2 PUSH1 0x3 ADD SWAP1 DUP2 PUSH2 0x539 SWAP2 SWAP1 PUSH2 0x1141 JUMP JUMPDEST POP SWAP1 POP POP CALLER PUSH20 0xFFFFFFFFFFFFFFFFFFFFFFFFFFFFFFFFFFFFFFFF AND PUSH32 0xA6A69184572B903BE08B48268BCE3DA3A79D5D2CFF476EB6E4C43EC0662CBE33 DUP4 PUSH1 0x40 MLOAD PUSH2 0x583 SWAP2 SWAP1 PUSH2 0x1213 JUMP JUMPDEST PUSH1 0x40 MLOAD DUP1 SWAP2 SUB SWAP1 LOG2 POP POP POP POP POP POP JUMP JUMPDEST PUSH1 0x2 DUP2 DUP1 MLOAD PUSH1 0x20 DUP2 ADD DUP3 ADD DUP1 MLOAD DUP5 DUP3 MSTORE PUSH1 0x20 DUP4 ADD PUSH1 0x20 DUP6 ADD KECCAK256 DUP2 DUP4 MSTORE DUP1 SWAP6 POP POP POP POP POP POP PUSH1 0x0 SWAP2 POP SWAP1 POP DUP1 PUSH1 0x0 ADD DUP1 SLOAD PUSH2 0x5CC SWAP1 PUSH2 0xF64 JUMP JUMPDEST DUP1 PUSH1 0x1F ADD PUSH1 0x20 DUP1 SWAP2 DIV MUL PUSH1 0x20 ADD PUSH1 0x40 MLOAD SWAP1 DUP2 ADD PUSH1 0x40 MSTORE DUP1 SWAP3 SWAP2 SWAP1 DUP2 DUP2 MSTORE PUSH1 0x20 ADD DUP3 DUP1 SLOAD PUSH2 0x5F8 SWAP1 PUSH2 0xF64 JUMP JUMPDEST DUP1 ISZERO PUSH2 0x645 JUMPI DUP1 PUSH1 0x1F LT PUSH2 0x61A JUMPI PUSH2 0x100 DUP1 DUP4 SLOAD DIV MUL DUP4 MSTORE SWAP2 PUSH1 0x20 ADD SWAP2 PUSH2 0x645 JUMP JUMPDEST DUP3 ADD SWAP2 SWAP1 PUSH1 0x0 MSTORE PUSH1 0x20 PUSH1 0x0 KECCAK256 SWAP1 JUMPDEST DUP2 SLOAD DUP2 MSTORE SWAP1 PUSH1 0x1 ADD SWAP1 PUSH1 0x20 ADD DUP1 DUP4 GT PUSH2 0x628 JUMPI DUP3 SWAP1 SUB PUSH1 0x1F AND DUP3 ADD SWAP2 JUMPDEST POP POP POP POP POP SWAP1 DUP1 PUSH1 0x1 ADD DUP1 SLOAD PUSH2 0x65A SWAP1 PUSH2 0xF64 JUMP JUMPDEST DUP1 PUSH1 0x1F ADD PUSH1 0x20 DUP1 SWAP2 DIV MUL PUSH1 0x20 ADD PUSH1 0x40 MLOAD SWAP1 DUP2 ADD PUSH1 0x40 MSTORE DUP1 SWAP3 SWAP2 SWAP1 DUP2 DUP2 MSTORE PUSH1 0x20 ADD DUP3 DUP1 SLOAD PUSH2 0x686 SWAP1 PUSH2 0xF64 JUMP JUMPDEST DUP1 ISZERO PUSH2 0x6D3 JUMPI DUP1 PUSH1 0x1F LT PUSH2 0x6A8 JUMPI PUSH2 0x100 DUP1 DUP4 SLOAD DIV MUL DUP4 MSTORE SWAP2 PUSH1 0x20 ADD SWAP2 PUSH2 0x6D3 JUMP JUMPDEST DUP3 ADD SWAP2 SWAP1 PUSH1 0x0 MSTORE PUSH1 0x20 PUSH1 0x0 KECCAK256 SWAP1 JUMPDEST DUP2 SLOAD DUP2 MSTORE SWAP1 PUSH1 0x1 ADD SWAP1 PUSH1 0x20 ADD DUP1 DUP4 GT PUSH2 0x6B6 JUMPI DUP3 SWAP1 SUB PUSH1 0x1F AND DUP3 ADD SWAP2 JUMPDEST POP POP POP POP POP SWAP1 DUP1 PUSH1 0x2 ADD DUP1 SLOAD PUSH2 0x6E8 SWAP1 PUSH2 0xF64 JUMP JUMPDEST DUP1 PUSH1 0x1F ADD PUSH1 0x20 DUP1 SWAP2 DIV MUL PUSH1 0x20 ADD PUSH1 0x40 MLOAD SWAP1 DUP2 ADD PUSH1 0x40 MSTORE DUP1 SWAP3 SWAP2 SWAP1 DUP2 DUP2 MSTORE PUSH1 0x20 ADD DUP3 DUP1 SLOAD PUSH2 0x714 SWAP1 PUSH2 0xF64 JUMP JUMPDEST DUP1 ISZERO PUSH2 0x761 JUMPI DUP1 PUSH1 0x1F LT PUSH2 0x736 JUMPI PUSH2 0x100 DUP1 DUP4 SLOAD DIV MUL DUP4 MSTORE SWAP2 PUSH1 0x20 ADD SWAP2 PUSH2 0x761 JUMP JUMPDEST DUP3 ADD SWAP2 SWAP1 PUSH1 0x0 MSTORE PUSH1 0x20 PUSH1 0x0 KECCAK256 SWAP1 JUMPDEST DUP2 SLOAD DUP2 MSTORE SWAP1 PUSH1 0x1 ADD SWAP1 PUSH1 0x20 ADD DUP1 DUP4 GT PUSH2 0x744 JUMPI DUP3 SWAP1 SUB PUSH1 0x1F AND DUP3 ADD SWAP2 JUMPDEST POP POP POP POP POP SWAP1 DUP1 PUSH1 0x3 ADD DUP1 SLOAD PUSH2 0x776 SWAP1 PUSH2 0xF64 JUMP JUMPDEST DUP1 PUSH1 0x1F ADD PUSH1 0x20 DUP1 SWAP2 DIV MUL PUSH1 0x20 ADD PUSH1 0x40 MLOAD SWAP1 DUP2 ADD PUSH1 0x40 MSTORE DUP1 SWAP3 SWAP2 SWAP1 DUP2 DUP2 MSTORE PUSH1 0x20 ADD DUP3 DUP1 SLOAD PUSH2 0x7A2 SWAP1 PUSH2 0xF64 JUMP JUMPDEST DUP1 ISZERO PUSH2 0x7EF JUMPI DUP1 PUSH1 0x1F LT PUSH2 0x7C4 JUMPI PUSH2 0x100 DUP1 DUP4 SLOAD DIV MUL DUP4 MSTORE SWAP2 PUSH1 0x20 ADD SWAP2 PUSH2 0x7EF JUMP JUMPDEST DUP3 ADD SWAP2 SWAP1 PUSH1 0x0 MSTORE PUSH1 0x20 PUSH1 0x0 KECCAK256 SWAP1 JUMPDEST DUP2 SLOAD DUP2 MSTORE SWAP1 PUSH1 0x1 ADD SWAP1 PUSH1 0x20 ADD DUP1 DUP4 GT PUSH2 0x7D2 JUMPI DUP3 SWAP1 SUB PUSH1 0x1F AND DUP3 ADD SWAP2 JUMPDEST POP POP POP POP POP SWAP1 POP DUP5 JUMP JUMPDEST PUSH1 0x0 PUSH1 0x3 PUSH1 0x0 DUP4 PUSH20 0xFFFFFFFFFFFFFFFFFFFFFFFFFFFFFFFFFFFFFFFF AND PUSH20 0xFFFFFFFFFFFFFFFFFFFFFFFFFFFFFFFFFFFFFFFF AND DUP2 MSTORE PUSH1 0x20 ADD SWAP1 DUP2 MSTORE PUSH1 0x20 ADD PUSH1 0x0 KECCAK256 PUSH1 0x0 SWAP1 SLOAD SWAP1 PUSH2 0x100 EXP SWAP1 DIV PUSH1 0xFF AND SWAP1 POP SWAP2 SWAP1 POP JUMP JUMPDEST PUSH1 0x40 MLOAD DUP1 PUSH1 0x80 ADD PUSH1 0x40 MSTORE DUP1 PUSH1 0x60 DUP2 MSTORE PUSH1 0x20 ADD PUSH1 0x60 DUP2 MSTORE PUSH1 0x20 ADD PUSH1 0x60 DUP2 MSTORE PUSH1 0x20 ADD PUSH1 0x60 DUP2 MSTORE POP SWAP1 JUMP JUMPDEST PUSH1 0x0 DUP3 DUP3 MSTORE PUSH1 0x20 DUP3 ADD SWAP1 POP SWAP3 SWAP2 POP POP JUMP JUMPDEST PUSH32 0x53656E646572206973206E6F74206F776E657200000000000000000000000000 PUSH1 0x0 DUP3 ADD MSTORE POP JUMP JUMPDEST PUSH1 0x0 PUSH2 0x8BE PUSH1 0x13 DUP4 PUSH2 0x877 JUMP JUMPDEST SWAP2 POP PUSH2 0x8C9 DUP3 PUSH2 0x888 JUMP JUMPDEST PUSH1 0x20 DUP3 ADD SWAP1 POP SWAP2 SWAP1 POP JUMP JUMPDEST PUSH1 0x0 PUSH1 0x20 DUP3 ADD SWAP1 POP DUP2 DUP2 SUB PUSH1 0x0 DUP4 ADD MSTORE PUSH2 0x8ED DUP2 PUSH2 0x8B1 JUMP JUMPDEST SWAP1 POP SWAP2 SWAP1 POP JUMP JUMPDEST PUSH1 0x0 DUP2 SWAP1 POP SWAP2 SWAP1 POP JUMP JUMPDEST PUSH2 0x907 DUP2 PUSH2 0x8F4 JUMP JUMPDEST DUP3 MSTORE POP POP JUMP JUMPDEST PUSH1 0x0 PUSH1 0x20 DUP3 ADD SWAP1 POP PUSH2 0x922 PUSH1 0x0 DUP4 ADD DUP5 PUSH2 0x8FE JUMP JUMPDEST SWAP3 SWAP2 POP POP JUMP JUMPDEST PUSH1 0x0 PUSH1 0x40 MLOAD SWAP1 POP SWAP1 JUMP JUMPDEST PUSH1 0x0 DUP1 REVERT JUMPDEST PUSH1 0x0 DUP1 REVERT JUMPDEST PUSH1 0x0 PUSH20 0xFFFFFFFFFFFFFFFFFFFFFFFFFFFFFFFFFFFFFFFF DUP3 AND SWAP1 POP SWAP2 SWAP1 POP JUMP JUMPDEST PUSH1 0x0 PUSH2 0x967 DUP3 PUSH2 0x93C JUMP JUMPDEST SWAP1 POP SWAP2 SWAP1 POP JUMP JUMPDEST PUSH2 0x977 DUP2 PUSH2 0x95C JUMP JUMPDEST DUP2 EQ PUSH2 0x982 JUMPI PUSH1 0x0 DUP1 REVERT JUMPDEST POP JUMP JUMPDEST PUSH1 0x0 DUP2 CALLDATALOAD SWAP1 POP PUSH2 0x994 DUP2 PUSH2 0x96E JUMP JUMPDEST SWAP3 SWAP2 POP POP JUMP JUMPDEST PUSH1 0x0 DUP2 ISZERO ISZERO SWAP1 POP SWAP2 SWAP1 POP JUMP JUMPDEST PUSH2 0x9AF DUP2 PUSH2 0x99A JUMP JUMPDEST DUP2 EQ PUSH2 0x9BA JUMPI PUSH1 0x0 DUP1 REVERT JUMPDEST POP JUMP JUMPDEST PUSH1 0x0 DUP2 CALLDATALOAD SWAP1 POP PUSH2 0x9CC DUP2 PUSH2 0x9A6 JUMP JUMPDEST SWAP3 SWAP2 POP POP JUMP JUMPDEST PUSH1 0x0 DUP1 PUSH1 0x40 DUP4 DUP6 SUB SLT ISZERO PUSH2 0x9E9 JUMPI PUSH2 0x9E8 PUSH2 0x932 JUMP JUMPDEST JUMPDEST PUSH1 0x0 PUSH2 0x9F7 DUP6 DUP3 DUP7 ADD PUSH2 0x985 JUMP JUMPDEST SWAP3 POP POP PUSH1 0x20 PUSH2 0xA08 DUP6 DUP3 DUP7 ADD PUSH2 0x9BD JUMP JUMPDEST SWAP2 POP POP SWAP3 POP SWAP3 SWAP1 POP JUMP JUMPDEST PUSH1 0x0 PUSH2 0xA1D DUP3 PUSH2 0x93C JUMP JUMPDEST SWAP1 POP SWAP2 SWAP1 POP JUMP JUMPDEST PUSH2 0xA2D DUP2 PUSH2 0xA12 JUMP JUMPDEST DUP3 MSTORE POP POP JUMP JUMPDEST PUSH1 0x0 PUSH1 0x20 DUP3 ADD SWAP1 POP PUSH2 0xA48 PUSH1 0x0 DUP4 ADD DUP5 PUSH2 0xA24 JUMP JUMPDEST SWAP3 SWAP2 POP POP JUMP JUMPDEST PUSH1 0x0 PUSH1 0x20 DUP3 DUP5 SUB SLT ISZERO PUSH2 0xA64 JUMPI PUSH2 0xA63 PUSH2 0x932 JUMP JUMPDEST JUMPDEST PUSH1 0x0 PUSH2 0xA72 DUP5 DUP3 DUP6 ADD PUSH2 0x985 JUMP JUMPDEST SWAP2 POP POP SWAP3 SWAP2 POP POP JUMP JUMPDEST PUSH2 0xA84 DUP2 PUSH2 0x99A JUMP JUMPDEST DUP3 MSTORE POP POP JUMP JUMPDEST PUSH1 0x0 PUSH1 0x20 DUP3 ADD SWAP1 POP PUSH2 0xA9F PUSH1 0x0 DUP4 ADD DUP5 PUSH2 0xA7B JUMP JUMPDEST SWAP3 SWAP2 POP POP JUMP JUMPDEST PUSH1 0x0 DUP1 REVERT JUMPDEST PUSH1 0x0 DUP1 REVERT JUMPDEST PUSH1 0x0 PUSH1 0x1F NOT PUSH1 0x1F DUP4 ADD AND SWAP1 POP SWAP2 SWAP1 POP JUMP JUMPDEST PUSH32 0x4E487B7100000000000000000000000000000000000000000000000000000000 PUSH1 0x0 MSTORE PUSH1 0x41 PUSH1 0x4 MSTORE PUSH1 0x24 PUSH1 0x0 REVERT JUMPDEST PUSH2 0xAF8 DUP3 PUSH2 0xAAF JUMP JUMPDEST DUP2 ADD DUP2 DUP2 LT PUSH8 0xFFFFFFFFFFFFFFFF DUP3 GT OR ISZERO PUSH2 0xB17 JUMPI PUSH2 0xB16 PUSH2 0xAC0 JUMP JUMPDEST JUMPDEST DUP1 PUSH1 0x40 MSTORE POP POP POP JUMP JUMPDEST PUSH1 0x0 PUSH2 0xB2A PUSH2 0x928 JUMP JUMPDEST SWAP1 POP PUSH2 0xB36 DUP3 DUP3 PUSH2 0xAEF JUMP JUMPDEST SWAP2 SWAP1 POP JUMP JUMPDEST PUSH1 0x0 PUSH8 0xFFFFFFFFFFFFFFFF DUP3 GT ISZERO PUSH2 0xB56 JUMPI PUSH2 0xB55 PUSH2 0xAC0 JUMP JUMPDEST JUMPDEST PUSH2 0xB5F DUP3 PUSH2 0xAAF JUMP JUMPDEST SWAP1 POP PUSH1 0x20 DUP2 ADD SWAP1 POP SWAP2 SWAP1 POP JUMP JUMPDEST DUP3 DUP2 DUP4 CALLDATACOPY PUSH1 0x0 DUP4 DUP4 ADD MSTORE POP POP POP JUMP JUMPDEST PUSH1 0x0 PUSH2 0xB8E PUSH2 0xB89 DUP5 PUSH2 0xB3B JUMP JUMPDEST PUSH2 0xB20 JUMP JUMPDEST SWAP1 POP DUP3 DUP2 MSTORE PUSH1 0x20 DUP2 ADD DUP5 DUP5 DUP5 ADD GT ISZERO PUSH2 0xBAA JUMPI PUSH2 0xBA9 PUSH2 0xAAA JUMP JUMPDEST JUMPDEST PUSH2 0xBB5 DUP5 DUP3 DUP6 PUSH2 0xB6C JUMP JUMPDEST POP SWAP4 SWAP3 POP POP POP JUMP JUMPDEST PUSH1 0x0 DUP3 PUSH1 0x1F DUP4 ADD SLT PUSH2 0xBD2 JUMPI PUSH2 0xBD1 PUSH2 0xAA5 JUMP JUMPDEST JUMPDEST DUP2 CALLDATALOAD PUSH2 0xBE2 DUP5 DUP3 PUSH1 0x20 DUP7 ADD PUSH2 0xB7B JUMP JUMPDEST SWAP2 POP POP SWAP3 SWAP2 POP POP JUMP JUMPDEST PUSH1 0x0 DUP1 PUSH1 0x0 DUP1 PUSH1 0x0 PUSH1 0xA0 DUP7 DUP9 SUB SLT ISZERO PUSH2 0xC07 JUMPI PUSH2 0xC06 PUSH2 0x932 JUMP JUMPDEST JUMPDEST PUSH1 0x0 DUP7 ADD CALLDATALOAD PUSH8 0xFFFFFFFFFFFFFFFF DUP2 GT ISZERO PUSH2 0xC25 JUMPI PUSH2 0xC24 PUSH2 0x937 JUMP JUMPDEST JUMPDEST PUSH2 0xC31 DUP9 DUP3 DUP10 ADD PUSH2 0xBBD JUMP JUMPDEST SWAP6 POP POP PUSH1 0x20 DUP7 ADD CALLDATALOAD PUSH8 0xFFFFFFFFFFFFFFFF DUP2 GT ISZERO PUSH2 0xC52 JUMPI PUSH2 0xC51 PUSH2 0x937 JUMP JUMPDEST JUMPDEST PUSH2 0xC5E DUP9 DUP3 DUP10 ADD PUSH2 0xBBD JUMP JUMPDEST SWAP5 POP POP PUSH1 0x40 DUP7 ADD CALLDATALOAD PUSH8 0xFFFFFFFFFFFFFFFF DUP2 GT ISZERO PUSH2 0xC7F JUMPI PUSH2 0xC7E PUSH2 0x937 JUMP JUMPDEST JUMPDEST PUSH2 0xC8B DUP9 DUP3 DUP10 ADD PUSH2 0xBBD JUMP JUMPDEST SWAP4 POP POP PUSH1 0x60 DUP7 ADD CALLDATALOAD PUSH8 0xFFFFFFFFFFFFFFFF DUP2 GT ISZERO PUSH2 0xCAC JUMPI PUSH2 0xCAB PUSH2 0x937 JUMP JUMPDEST JUMPDEST PUSH2 0xCB8 DUP9 DUP3 DUP10 ADD PUSH2 0xBBD JUMP JUMPDEST SWAP3 POP POP PUSH1 0x80 DUP7 ADD CALLDATALOAD PUSH8 0xFFFFFFFFFFFFFFFF DUP2 GT ISZERO PUSH2 0xCD9 JUMPI PUSH2 0xCD8 PUSH2 0x937 JUMP JUMPDEST JUMPDEST PUSH2 0xCE5 DUP9 DUP3 DUP10 ADD PUSH2 0xBBD JUMP JUMPDEST SWAP2 POP POP SWAP3 SWAP6 POP SWAP3 SWAP6 SWAP1 SWAP4 POP JUMP JUMPDEST PUSH1 0x0 PUSH1 0x20 DUP3 DUP5 SUB SLT ISZERO PUSH2 0xD08 JUMPI PUSH2 0xD07 PUSH2 0x932 JUMP JUMPDEST JUMPDEST PUSH1 0x0 DUP3 ADD CALLDATALOAD PUSH8 0xFFFFFFFFFFFFFFFF DUP2 GT ISZERO PUSH2 0xD26 JUMPI PUSH2 0xD25 PUSH2 0x937 JUMP JUMPDEST JUMPDEST PUSH2 0xD32 DUP5 DUP3 DUP6 ADD PUSH2 0xBBD JUMP JUMPDEST SWAP2 POP POP SWAP3 SWAP2 POP POP JUMP JUMPDEST PUSH1 0x0 DUP2 MLOAD SWAP1 POP SWAP2 SWAP1 POP JUMP JUMPDEST PUSH1 0x0 JUMPDEST DUP4 DUP2 LT ISZERO PUSH2 0xD64 JUMPI DUP1 DUP3 ADD MLOAD DUP2 DUP5 ADD MSTORE PUSH1 0x20 DUP2 ADD SWAP1 POP PUSH2 0xD49 JUMP JUMPDEST PUSH1 0x0 DUP5 DUP5 ADD MSTORE POP POP POP POP JUMP JUMPDEST PUSH1 0x0 PUSH2 0xD7B DUP3 PUSH2 0xD3B JUMP JUMPDEST PUSH2 0xD85 DUP2 DUP6 PUSH2 0x877 JUMP JUMPDEST SWAP4 POP PUSH2 0xD95 DUP2 DUP6 PUSH1 0x20 DUP7 ADD PUSH2 0xD46 JUMP JUMPDEST PUSH2 0xD9E DUP2 PUSH2 0xAAF JUMP JUMPDEST DUP5 ADD SWAP2 POP POP SWAP3 SWAP2 POP POP JUMP JUMPDEST PUSH1 0x0 PUSH1 0x80 DUP3 ADD SWAP1 POP DUP2 DUP2 SUB PUSH1 0x0 DUP4 ADD MSTORE PUSH2 0xDC3 DUP2 DUP8 PUSH2 0xD70 JUMP JUMPDEST SWAP1 POP DUP2 DUP2 SUB PUSH1 0x20 DUP4 ADD MSTORE PUSH2 0xDD7 DUP2 DUP7 PUSH2 0xD70 JUMP JUMPDEST SWAP1 POP DUP2 DUP2 SUB PUSH1 0x40 DUP4 ADD MSTORE PUSH2 0xDEB DUP2 DUP6 PUSH2 0xD70 JUMP JUMPDEST SWAP1 POP DUP2 DUP2 SUB PUSH1 0x60 DUP4 ADD MSTORE PUSH2 0xDFF DUP2 DUP5 PUSH2 0xD70 JUMP JUMPDEST SWAP1 POP SWAP6 SWAP5 POP POP POP POP POP JUMP JUMPDEST PUSH32 0x4D696E696D756D20666565206E656564656420746F2072656769737465720000 PUSH1 0x0 DUP3 ADD MSTORE POP JUMP JUMPDEST PUSH1 0x0 PUSH2 0xE40 PUSH1 0x1E DUP4 PUSH2 0x877 JUMP JUMPDEST SWAP2 POP PUSH2 0xE4B DUP3 PUSH2 0xE0A JUMP JUMPDEST PUSH1 0x20 DUP3 ADD SWAP1 POP SWAP2 SWAP1 POP JUMP JUMPDEST PUSH1 0x0 PUSH1 0x20 DUP3 ADD SWAP1 POP DUP2 DUP2 SUB PUSH1 0x0 DUP4 ADD MSTORE PUSH2 0xE6F DUP2 PUSH2 0xE33 JUMP JUMPDEST SWAP1 POP SWAP2 SWAP1 POP JUMP JUMPDEST PUSH32 0x5065726D697373696F6E2064656E696564000000000000000000000000000000 PUSH1 0x0 DUP3 ADD MSTORE POP JUMP JUMPDEST PUSH1 0x0 PUSH2 0xEAC PUSH1 0x11 DUP4 PUSH2 0x877 JUMP JUMPDEST SWAP2 POP PUSH2 0xEB7 DUP3 PUSH2 0xE76 JUMP JUMPDEST PUSH1 0x20 DUP3 ADD SWAP1 POP SWAP2 SWAP1 POP JUMP JUMPDEST PUSH1 0x0 PUSH1 0x20 DUP3 ADD SWAP1 POP DUP2 DUP2 SUB PUSH1 0x0 DUP4 ADD MSTORE PUSH2 0xEDB DUP2 PUSH2 0xE9F JUMP JUMPDEST SWAP1 POP SWAP2 SWAP1 POP JUMP JUMPDEST PUSH1 0x0 DUP2 SWAP1 POP SWAP3 SWAP2 POP POP JUMP JUMPDEST PUSH1 0x0 PUSH2 0xEF8 DUP3 PUSH2 0xD3B JUMP JUMPDEST PUSH2 0xF02 DUP2 DUP6 PUSH2 0xEE2 JUMP JUMPDEST SWAP4 POP PUSH2 0xF12 DUP2 DUP6 PUSH1 0x20 DUP7 ADD PUSH2 0xD46 JUMP JUMPDEST DUP1 DUP5 ADD SWAP2 POP POP SWAP3 SWAP2 POP POP JUMP JUMPDEST PUSH1 0x0 PUSH2 0xF2A DUP3 DUP5 PUSH2 0xEED JUMP JUMPDEST SWAP2 POP DUP2 SWAP1 POP SWAP3 SWAP2 POP POP JUMP JUMPDEST PUSH32 0x4E487B7100000000000000000000000000000000000000000000000000000000 PUSH1 0x0 MSTORE PUSH1 0x22 PUSH1 0x4 MSTORE PUSH1 0x24 PUSH1 0x0 REVERT JUMPDEST PUSH1 0x0 PUSH1 0x2 DUP3 DIV SWAP1 POP PUSH1 0x1 DUP3 AND DUP1 PUSH2 0xF7C JUMPI PUSH1 0x7F DUP3 AND SWAP2 POP JUMPDEST PUSH1 0x20 DUP3 LT DUP2 SUB PUSH2 0xF8F JUMPI PUSH2 0xF8E PUSH2 0xF35 JUMP JUMPDEST JUMPDEST POP SWAP2 SWAP1 POP JUMP JUMPDEST PUSH1 0x0 DUP2 SWAP1 POP DUP2 PUSH1 0x0 MSTORE PUSH1 0x20 PUSH1 0x0 KECCAK256 SWAP1 POP SWAP2 SWAP1 POP JUMP JUMPDEST PUSH1 0x0 PUSH1 0x20 PUSH1 0x1F DUP4 ADD DIV SWAP1 POP SWAP2 SWAP1 POP JUMP JUMPDEST PUSH1 0x0 DUP3 DUP3 SHL SWAP1 POP SWAP3 SWAP2 POP POP JUMP JUMPDEST PUSH1 0x0 PUSH1 0x8 DUP4 MUL PUSH2 0xFF7 PUSH32 0xFFFFFFFFFFFFFFFFFFFFFFFFFFFFFFFFFFFFFFFFFFFFFFFFFFFFFFFFFFFFFFFF DUP3 PUSH2 0xFBA JUMP JUMPDEST PUSH2 0x1001 DUP7 DUP4 PUSH2 0xFBA JUMP JUMPDEST SWAP6 POP DUP1 NOT DUP5 AND SWAP4 POP DUP1 DUP7 AND DUP5 OR SWAP3 POP POP POP SWAP4 SWAP3 POP POP POP JUMP JUMPDEST PUSH1 0x0 DUP2 SWAP1 POP SWAP2 SWAP1 POP JUMP JUMPDEST PUSH1 0x0 PUSH2 0x103E PUSH2 0x1039 PUSH2 0x1034 DUP5 PUSH2 0x8F4 JUMP JUMPDEST PUSH2 0x1019 JUMP JUMPDEST PUSH2 0x8F4 JUMP JUMPDEST SWAP1 POP SWAP2 SWAP1 POP JUMP JUMPDEST PUSH1 0x0 DUP2 SWAP1 POP SWAP2 SWAP1 POP JUMP JUMPDEST PUSH2 0x1058 DUP4 PUSH2 0x1023 JUMP JUMPDEST PUSH2 0x106C PUSH2 0x1064 DUP3 PUSH2 0x1045 JUMP JUMPDEST DUP5 DUP5 SLOAD PUSH2 0xFC7 JUMP JUMPDEST DUP3 SSTORE POP POP POP POP JUMP JUMPDEST PUSH1 0x0 SWAP1 JUMP JUMPDEST PUSH2 0x1081 PUSH2 0x1074 JUMP JUMPDEST PUSH2 0x108C DUP2 DUP5 DUP5 PUSH2 0x104F JUMP JUMPDEST POP POP POP JUMP JUMPDEST JUMPDEST DUP2 DUP2 LT ISZERO PUSH2 0x10B0 JUMPI PUSH2 0x10A5 PUSH1 0x0 DUP3 PUSH2 0x1079 JUMP JUMPDEST PUSH1 0x1 DUP2 ADD SWAP1 POP PUSH2 0x1092 JUMP JUMPDEST POP POP JUMP JUMPDEST PUSH1 0x1F DUP3 GT ISZERO PUSH2 0x10F5 JUMPI PUSH2 0x10C6 DUP2 PUSH2 0xF95 JUMP JUMPDEST PUSH2 0x10CF DUP5 PUSH2 0xFAA JUMP JUMPDEST DUP2 ADD PUSH1 0x20 DUP6 LT ISZERO PUSH2 0x10DE JUMPI DUP2 SWAP1 POP JUMPDEST PUSH2 0x10F2 PUSH2 0x10EA DUP6 PUSH2 0xFAA JUMP JUMPDEST DUP4 ADD DUP3 PUSH2 0x1091 JUMP JUMPDEST POP POP JUMPDEST POP POP POP JUMP JUMPDEST PUSH1 0x0 DUP3 DUP3 SHR SWAP1 POP SWAP3 SWAP2 POP POP JUMP JUMPDEST PUSH1 0x0 PUSH2 0x1118 PUSH1 0x0 NOT DUP5 PUSH1 0x8 MUL PUSH2 0x10FA JUMP JUMPDEST NOT DUP1 DUP4 AND SWAP2 POP POP SWAP3 SWAP2 POP POP JUMP JUMPDEST PUSH1 0x0 PUSH2 0x1131 DUP4 DUP4 PUSH2 0x1107 JUMP JUMPDEST SWAP2 POP DUP3 PUSH1 0x2 MUL DUP3 OR SWAP1 POP SWAP3 SWAP2 POP POP JUMP JUMPDEST PUSH2 0x114A DUP3 PUSH2 0xD3B JUMP JUMPDEST PUSH8 0xFFFFFFFFFFFFFFFF DUP2 GT ISZERO PUSH2 0x1163 JUMPI PUSH2 0x1162 PUSH2 0xAC0 JUMP JUMPDEST JUMPDEST PUSH2 0x116D DUP3 SLOAD PUSH2 0xF64 JUMP JUMPDEST PUSH2 0x1178 DUP3 DUP3 DUP6 PUSH2 0x10B4 JUMP JUMPDEST PUSH1 0x0 PUSH1 0x20 SWAP1 POP PUSH1 0x1F DUP4 GT PUSH1 0x1 DUP2 EQ PUSH2 0x11AB JUMPI PUSH1 0x0 DUP5 ISZERO PUSH2 0x1199 JUMPI DUP3 DUP8 ADD MLOAD SWAP1 POP JUMPDEST PUSH2 0x11A3 DUP6 DUP3 PUSH2 0x1125 JUMP JUMPDEST DUP7 SSTORE POP PUSH2 0x120B JUMP JUMPDEST PUSH1 0x1F NOT DUP5 AND PUSH2 0x11B9 DUP7 PUSH2 0xF95 JUMP JUMPDEST PUSH1 0x0 JUMPDEST DUP3 DUP2 LT ISZERO PUSH2 0x11E1 JUMPI DUP5 DUP10 ADD MLOAD DUP3 SSTORE PUSH1 0x1 DUP3 ADD SWAP2 POP PUSH1 0x20 DUP6 ADD SWAP5 POP PUSH1 0x20 DUP2 ADD SWAP1 POP PUSH2 0x11BC JUMP JUMPDEST DUP7 DUP4 LT ISZERO PUSH2 0x11FE JUMPI DUP5 DUP10 ADD MLOAD PUSH2 0x11FA PUSH1 0x1F DUP10 AND DUP3 PUSH2 0x1107 JUMP JUMPDEST DUP4 SSTORE POP JUMPDEST PUSH1 0x1 PUSH1 0x2 DUP9 MUL ADD DUP9 SSTORE POP POP POP JUMPDEST POP POP POP POP POP POP JUMP JUMPDEST PUSH1 0x0 PUSH1 0x20 DUP3 ADD SWAP1 POP DUP2 DUP2 SUB PUSH1 0x0 DUP4 ADD MSTORE PUSH2 0x122D DUP2 DUP5 PUSH2 0xD70 JUMP JUMPDEST SWAP1 POP SWAP3 SWAP2 POP POP JUMP INVALID LOG2 PUSH5 0x6970667358 0x22 SLT KECCAK256 MSIZE 0xD4 OR CREATE2 PUSH3 0x60577D 0xF6 DUP6 CHAINID 0xBC 0xD4 0x2B 0xFC PUSH29 0x93B9CD9BB3A02687D95FC1CEAB971BDE64736F6C634300081100330000 "
				},
				"gasEstimates": {
					"creation": {
						"codeDepositCost": "943000",
						"executionCost": "infinite",
						"totalCost": "infinite"
					},
					"external": {
						"": "2660",
						"addNewDoc(string,string,string,string,string)": "infinite",
						"getBalance()": "317",
						"isWhitelist(address)": "2970",
						"owner()": "2533",
						"registeredDocs(string)": "infinite",
						"setWhitelist(address,bool)": "infinite"
					},
					"internal": {
						"_isWhitelist(address)": "2260"
					}
				},
				"methodIdentifiers": {
					"addNewDoc(string,string,string,string,string)": "d2bfb0bc",
					"getBalance()": "12065fe0",
					"isWhitelist(address)": "c683630d",
					"owner()": "8da5cb5b",
					"registeredDocs(string)": "f7ac5182",
					"setWhitelist(address,bool)": "53d6fd59"
				}
			},
			"storageLayout": {
				"storage": [
					{
						"astId": 18,
						"contract": "Contracts/DocumentVault.sol:DocumentVault",
						"label": "owner",
						"offset": 0,
						"slot": "0",
						"type": "t_address_payable"
					},
					{
						"astId": 20,
						"contract": "Contracts/DocumentVault.sol:DocumentVault",
						"label": "minimunFee",
						"offset": 0,
						"slot": "1",
						"type": "t_uint256"
					},
					{
						"astId": 34,
						"contract": "Contracts/DocumentVault.sol:DocumentVault",
						"label": "registeredDocs",
						"offset": 0,
						"slot": "2",
						"type": "t_mapping(t_string_memory_ptr,t_struct(Documentation)29_storage)"
					},
					{
						"astId": 38,
						"contract": "Contracts/DocumentVault.sol:DocumentVault",
						"label": "_allowedPublishers",
						"offset": 0,
						"slot": "3",
						"type": "t_mapping(t_address,t_bool)"
					}
				],
				"types": {
					"t_address": {
						"encoding": "inplace",
						"label": "address",
						"numberOfBytes": "20"
					},
					"t_address_payable": {
						"encoding": "inplace",
						"label": "address payable",
						"numberOfBytes": "20"
					},
					"t_bool": {
						"encoding": "inplace",
						"label": "bool",
						"numberOfBytes": "1"
					},
					"t_mapping(t_address,t_bool)": {
						"encoding": "mapping",
						"key": "t_address",
						"label": "mapping(address => bool)",
						"numberOfBytes": "32",
						"value": "t_bool"
					},
					"t_mapping(t_string_memory_ptr,t_struct(Documentation)29_storage)": {
						"encoding": "mapping",
						"key": "t_string_memory_ptr",
						"label": "mapping(string => struct DocumentVault.Documentation)",
						"numberOfBytes": "32",
						"value": "t_struct(Documentation)29_storage"
					},
					"t_string_memory_ptr": {
						"encoding": "bytes",
						"label": "string",
						"numberOfBytes": "32"
					},
					"t_string_storage": {
						"encoding": "bytes",
						"label": "string",
						"numberOfBytes": "32"
					},
					"t_struct(Documentation)29_storage": {
						"encoding": "inplace",
						"label": "struct DocumentVault.Documentation",
						"members": [
							{
								"astId": 22,
								"contract": "Contracts/DocumentVault.sol:DocumentVault",
								"label": "typeOfDocument",
								"offset": 0,
								"slot": "0",
								"type": "t_string_storage"
							},
							{
								"astId": 24,
								"contract": "Contracts/DocumentVault.sol:DocumentVault",
								"label": "docsURI",
								"offset": 0,
								"slot": "1",
								"type": "t_string_storage"
							},
							{
								"astId": 26,
								"contract": "Contracts/DocumentVault.sol:DocumentVault",
								"label": "docsURIChesksum",
								"offset": 0,
								"slot": "2",
								"type": "t_string_storage"
							},
							{
								"astId": 28,
								"contract": "Contracts/DocumentVault.sol:DocumentVault",
								"label": "publisherResponsible",
								"offset": 0,
								"slot": "3",
								"type": "t_string_storage"
							}
						],
						"numberOfBytes": "128"
					},
					"t_uint256": {
						"encoding": "inplace",
						"label": "uint256",
						"numberOfBytes": "32"
					}
				}
			},
			"userdoc": {
				"events": {
					"NewDocAdded(address,string)": {
						"notice": "New document added"
					},
					"SetWhitelistByAddress(address,bool)": {
						"notice": "New address added to allowed publishers"
					}
				},
				"kind": "user",
				"methods": {
					"addNewDoc(string,string,string,string,string)": {
						"notice": "Method for adding new documentation"
					},
					"getBalance()": {
						"notice": "Public method to retrieve contract's balance"
					},
					"isWhitelist(address)": {
						"notice": "Public method to check if address has privilegies"
					},
					"setWhitelist(address,bool)": {
						"notice": "Method to insert new address to the whitelist"
					}
				},
				"notice": "DocumentVault contract",
				"version": 1
			}
		}
	}
}