{
	"Contracts/AuctionSPU.sol": {
		"AuctionSPU": {
			"abi": [
				{
					"inputs": [
						{
							"internalType": "address",
							"name": "_nft",
							"type": "address"
						},
						{
							"internalType": "address",
							"name": "_docsRegister",
							"type": "address"
						},
						{
							"internalType": "uint256",
							"name": "_docsProcess",
							"type": "uint256"
						},
						{
							"internalType": "address",
							"name": "_feeAddres",
							"type": "address"
						},
						{
							"internalType": "uint256",
							"name": "_nftId",
							"type": "uint256"
						},
						{
							"internalType": "uint256",
							"name": "_startingBid",
							"type": "uint256"
						},
						{
							"internalType": "uint256",
							"name": "_period",
							"type": "uint256"
						},
						{
							"internalType": "uint256",
							"name": "_transactionFee",
							"type": "uint256"
						}
					],
					"stateMutability": "nonpayable",
					"type": "constructor"
				},
				{
					"anonymous": false,
					"inputs": [
						{
							"indexed": true,
							"internalType": "address",
							"name": "sender",
							"type": "address"
						},
						{
							"indexed": false,
							"internalType": "uint256",
							"name": "amount",
							"type": "uint256"
						}
					],
					"name": "Bid",
					"type": "event"
				},
				{
					"anonymous": false,
					"inputs": [
						{
							"indexed": true,
							"internalType": "address",
							"name": "seller",
							"type": "address"
						},
						{
							"indexed": false,
							"internalType": "uint256",
							"name": "highestBid",
							"type": "uint256"
						}
					],
					"name": "BidPayment",
					"type": "event"
				},
				{
					"anonymous": false,
					"inputs": [
						{
							"indexed": true,
							"internalType": "address",
							"name": "bidder",
							"type": "address"
						},
						{
							"indexed": false,
							"internalType": "uint256",
							"name": "amount",
							"type": "uint256"
						}
					],
					"name": "Cashback",
					"type": "event"
				},
				{
					"anonymous": false,
					"inputs": [
						{
							"indexed": false,
							"internalType": "address",
							"name": "winner",
							"type": "address"
						},
						{
							"indexed": false,
							"internalType": "uint256",
							"name": "amount",
							"type": "uint256"
						}
					],
					"name": "EndAuction",
					"type": "event"
				},
				{
					"anonymous": false,
					"inputs": [
						{
							"indexed": true,
							"internalType": "address",
							"name": "feeAddress",
							"type": "address"
						},
						{
							"indexed": false,
							"internalType": "uint256",
							"name": "totalFee",
							"type": "uint256"
						}
					],
					"name": "FeePayment",
					"type": "event"
				},
				{
					"anonymous": false,
					"inputs": [
						{
							"indexed": false,
							"internalType": "address",
							"name": "pauser",
							"type": "address"
						}
					],
					"name": "PauseAuction",
					"type": "event"
				},
				{
					"anonymous": false,
					"inputs": [
						{
							"indexed": true,
							"internalType": "address",
							"name": "account",
							"type": "address"
						},
						{
							"indexed": false,
							"internalType": "bool",
							"name": "enable",
							"type": "bool"
						}
					],
					"name": "SetWhitelistByAddress",
					"type": "event"
				},
				{
					"anonymous": false,
					"inputs": [],
					"name": "StartAuction",
					"type": "event"
				},
				{
					"anonymous": false,
					"inputs": [
						{
							"indexed": false,
							"internalType": "address",
							"name": "pauser",
							"type": "address"
						}
					],
					"name": "UnpauseAuction",
					"type": "event"
				},
				{
					"anonymous": false,
					"inputs": [
						{
							"indexed": true,
							"internalType": "address",
							"name": "bidder",
							"type": "address"
						},
						{
							"indexed": false,
							"internalType": "uint256",
							"name": "amount",
							"type": "uint256"
						}
					],
					"name": "Withdraw",
					"type": "event"
				},
				{
					"stateMutability": "payable",
					"type": "fallback"
				},
				{
					"inputs": [],
					"name": "FEE_BASE",
					"outputs": [
						{
							"internalType": "uint256",
							"name": "",
							"type": "uint256"
						}
					],
					"stateMutability": "view",
					"type": "function"
				},
				{
					"inputs": [],
					"name": "closeAuction",
					"outputs": [],
					"stateMutability": "nonpayable",
					"type": "function"
				},
				{
					"inputs": [],
					"name": "docsProcess",
					"outputs": [
						{
							"internalType": "uint256",
							"name": "",
							"type": "uint256"
						}
					],
					"stateMutability": "view",
					"type": "function"
				},
				{
					"inputs": [],
					"name": "docsRegister",
					"outputs": [
						{
							"internalType": "address",
							"name": "",
							"type": "address"
						}
					],
					"stateMutability": "view",
					"type": "function"
				},
				{
					"inputs": [],
					"name": "endAt",
					"outputs": [
						{
							"internalType": "uint256",
							"name": "",
							"type": "uint256"
						}
					],
					"stateMutability": "view",
					"type": "function"
				},
				{
					"inputs": [],
					"name": "endAuction",
					"outputs": [],
					"stateMutability": "nonpayable",
					"type": "function"
				},
				{
					"inputs": [],
					"name": "ended",
					"outputs": [
						{
							"internalType": "bool",
							"name": "",
							"type": "bool"
						}
					],
					"stateMutability": "view",
					"type": "function"
				},
				{
					"inputs": [],
					"name": "feeAddress",
					"outputs": [
						{
							"internalType": "address payable",
							"name": "",
							"type": "address"
						}
					],
					"stateMutability": "view",
					"type": "function"
				},
				{
					"inputs": [],
					"name": "getBalance",
					"outputs": [
						{
							"internalType": "uint256",
							"name": "",
							"type": "uint256"
						}
					],
					"stateMutability": "view",
					"type": "function"
				},
				{
					"inputs": [],
					"name": "highestBid",
					"outputs": [
						{
							"internalType": "uint256",
							"name": "",
							"type": "uint256"
						}
					],
					"stateMutability": "view",
					"type": "function"
				},
				{
					"inputs": [],
					"name": "highestBidder",
					"outputs": [
						{
							"internalType": "address",
							"name": "",
							"type": "address"
						}
					],
					"stateMutability": "view",
					"type": "function"
				},
				{
					"inputs": [
						{
							"internalType": "address",
							"name": "_account",
							"type": "address"
						}
					],
					"name": "isWhitelist",
					"outputs": [
						{
							"internalType": "bool",
							"name": "",
							"type": "bool"
						}
					],
					"stateMutability": "view",
					"type": "function"
				},
				{
					"inputs": [
						{
							"internalType": "uint256",
							"name": "_totalValue",
							"type": "uint256"
						},
						{
							"internalType": "uint256",
							"name": "_realValue",
							"type": "uint256"
						},
						{
							"internalType": "uint256",
							"name": "_portion",
							"type": "uint256"
						},
						{
							"internalType": "uint256",
							"name": "_clientScore",
							"type": "uint256"
						}
					],
					"name": "newBid",
					"outputs": [],
					"stateMutability": "payable",
					"type": "function"
				},
				{
					"inputs": [],
					"name": "nft",
					"outputs": [
						{
							"internalType": "contract IERC721",
							"name": "",
							"type": "address"
						}
					],
					"stateMutability": "view",
					"type": "function"
				},
				{
					"inputs": [],
					"name": "nftId",
					"outputs": [
						{
							"internalType": "uint256",
							"name": "",
							"type": "uint256"
						}
					],
					"stateMutability": "view",
					"type": "function"
				},
				{
					"inputs": [],
					"name": "numberOfBids",
					"outputs": [
						{
							"internalType": "uint256",
							"name": "",
							"type": "uint256"
						}
					],
					"stateMutability": "view",
					"type": "function"
				},
				{
					"inputs": [],
					"name": "pauseAuction",
					"outputs": [],
					"stateMutability": "nonpayable",
					"type": "function"
				},
				{
					"inputs": [],
					"name": "paused",
					"outputs": [
						{
							"internalType": "bool",
							"name": "",
							"type": "bool"
						}
					],
					"stateMutability": "view",
					"type": "function"
				},
				{
					"inputs": [
						{
							"internalType": "address",
							"name": "",
							"type": "address"
						}
					],
					"name": "receivedBids",
					"outputs": [
						{
							"internalType": "uint256",
							"name": "totalValue",
							"type": "uint256"
						},
						{
							"internalType": "uint256",
							"name": "realValue",
							"type": "uint256"
						},
						{
							"internalType": "uint256",
							"name": "portion",
							"type": "uint256"
						},
						{
							"internalType": "uint256",
							"name": "clientScore",
							"type": "uint256"
						},
						{
							"internalType": "uint256",
							"name": "downpay",
							"type": "uint256"
						}
					],
					"stateMutability": "view",
					"type": "function"
				},
				{
					"inputs": [],
					"name": "seller",
					"outputs": [
						{
							"internalType": "address payable",
							"name": "",
							"type": "address"
						}
					],
					"stateMutability": "view",
					"type": "function"
				},
				{
					"inputs": [
						{
							"internalType": "address",
							"name": "_account",
							"type": "address"
						},
						{
							"internalType": "bool",
							"name": "enable",
							"type": "bool"
						}
					],
					"name": "setWhitelist",
					"outputs": [],
					"stateMutability": "nonpayable",
					"type": "function"
				},
				{
					"inputs": [],
					"name": "startAuction",
					"outputs": [],
					"stateMutability": "nonpayable",
					"type": "function"
				},
				{
					"inputs": [],
					"name": "started",
					"outputs": [
						{
							"internalType": "bool",
							"name": "",
							"type": "bool"
						}
					],
					"stateMutability": "view",
					"type": "function"
				},
				{
					"inputs": [],
					"name": "totalFee",
					"outputs": [
						{
							"internalType": "uint256",
							"name": "",
							"type": "uint256"
						}
					],
					"stateMutability": "view",
					"type": "function"
				},
				{
					"inputs": [],
					"name": "unpauseAuction",
					"outputs": [],
					"stateMutability": "nonpayable",
					"type": "function"
				},
				{
					"inputs": [],
					"name": "withdraw",
					"outputs": [],
					"stateMutability": "nonpayable",
					"type": "function"
				},
				{
					"stateMutability": "payable",
					"type": "receive"
				}
			],
			"devdoc": {
				"kind": "dev",
				"methods": {},
				"version": 1
			},
			"evm": {
				"assembly": "    /* \"Contracts/AuctionSPU.sol\":893:9336  contract AuctionSPU {... */\n  mstore(0x40, 0x80)\n    /* \"Contracts/AuctionSPU.sol\":2743:3353  constructor(... */\n  callvalue\n  dup1\n  iszero\n  tag_1\n  jumpi\n  0x00\n  dup1\n  revert\ntag_1:\n  pop\n  mload(0x40)\n  sub(codesize, bytecodeSize)\n  dup1\n  bytecodeSize\n  dup4\n  codecopy\n  dup2\n  add\n  0x40\n  dup2\n  swap1\n  mstore\n  tag_2\n  swap2\n  tag_3\n  jump\t// in\ntag_2:\n    /* \"Contracts/AuctionSPU.sol\":3009:3012  nft */\n  0x00\n    /* \"Contracts/AuctionSPU.sol\":3009:3028  nft = IERC721(_nft) */\n  dup1\n  sload\n  not(sub(shl(0xa0, 0x01), 0x01))\n  swap1\n  dup2\n  and\n  sub(shl(0xa0, 0x01), 0x01)\n  swap11\n  dup12\n  and\n  or\n  swap1\n  swap2\n  sstore\n  0x01\n    /* \"Contracts/AuctionSPU.sol\":3039:3053  nftId = _nftId */\n  swap5\n  swap1\n  swap5\n  sstore\n    /* \"Contracts/AuctionSPU.sol\":3066:3072  seller */\n  0x02\n    /* \"Contracts/AuctionSPU.sol\":3066:3094  seller = payable(msg.sender) */\n  dup1\n  sload\n    /* \"Contracts/AuctionSPU.sol\":3083:3093  msg.sender */\n  caller\n    /* \"Contracts/AuctionSPU.sol\":3066:3094  seller = payable(msg.sender) */\n  swap1\n  dup7\n  and\n  or\n  swap1\n  sstore\n    /* \"Contracts/AuctionSPU.sol\":3105:3115  feeAddress */\n  0x03\n    /* \"Contracts/AuctionSPU.sol\":3105:3137  feeAddress = payable(_feeAddres) */\n  dup1\n  sload\n  swap1\n  swap5\n  and\n  swap5\n  swap1\n  swap8\n  and\n  swap4\n  swap1\n  swap4\n  or\n  swap1\n  swap2\n  sstore\n    /* \"Contracts/AuctionSPU.sol\":3148:3158  highestBid */\n  0x0c\n    /* \"Contracts/AuctionSPU.sol\":3148:3173  highestBid = _startingBid */\n  sstore\n    /* \"Contracts/AuctionSPU.sol\":3184:3189  endAt */\n  0x06\n    /* \"Contracts/AuctionSPU.sol\":3184:3199  endAt = _period */\n  sstore\n  pop\n  pop\n    /* \"Contracts/AuctionSPU.sol\":3222:3236  transactionFee */\n  0x09\n    /* \"Contracts/AuctionSPU.sol\":3222:3254  transactionFee = _transactionFee */\n  sstore\n    /* \"Contracts/AuctionSPU.sol\":893:9336  contract AuctionSPU {... */\n  jump(tag_8)\n    /* \"#utility.yul\":14:191   */\ntag_7:\n    /* \"#utility.yul\":93:106   */\n  dup1\n  mload\n  sub(shl(0xa0, 0x01), 0x01)\n    /* \"#utility.yul\":135:166   */\n  dup2\n  and\n    /* \"#utility.yul\":125:167   */\n  dup2\n  eq\n    /* \"#utility.yul\":115:185   */\n  tag_10\n  jumpi\n    /* \"#utility.yul\":181:182   */\n  0x00\n    /* \"#utility.yul\":178:179   */\n  dup1\n    /* \"#utility.yul\":171:183   */\n  revert\n    /* \"#utility.yul\":115:185   */\ntag_10:\n    /* \"#utility.yul\":14:191   */\n  swap2\n  swap1\n  pop\n  jump\t// out\n    /* \"#utility.yul\":196:884   */\ntag_3:\n    /* \"#utility.yul\":329:335   */\n  0x00\n    /* \"#utility.yul\":337:343   */\n  dup1\n    /* \"#utility.yul\":345:351   */\n  0x00\n    /* \"#utility.yul\":353:359   */\n  dup1\n    /* \"#utility.yul\":361:367   */\n  0x00\n    /* \"#utility.yul\":369:375   */\n  dup1\n    /* \"#utility.yul\":377:383   */\n  0x00\n    /* \"#utility.yul\":385:391   */\n  dup1\n    /* \"#utility.yul\":438:441   */\n  0x0100\n    /* \"#utility.yul\":426:435   */\n  dup10\n    /* \"#utility.yul\":417:424   */\n  dup12\n    /* \"#utility.yul\":413:436   */\n  sub\n    /* \"#utility.yul\":409:442   */\n  slt\n    /* \"#utility.yul\":406:459   */\n  iszero\n  tag_12\n  jumpi\n    /* \"#utility.yul\":455:456   */\n  0x00\n    /* \"#utility.yul\":452:453   */\n  dup1\n    /* \"#utility.yul\":445:457   */\n  revert\n    /* \"#utility.yul\":406:459   */\ntag_12:\n    /* \"#utility.yul\":478:518   */\n  tag_13\n    /* \"#utility.yul\":508:517   */\n  dup10\n    /* \"#utility.yul\":478:518   */\n  tag_7\n  jump\t// in\ntag_13:\n    /* \"#utility.yul\":468:518   */\n  swap8\n  pop\n    /* \"#utility.yul\":537:586   */\n  tag_14\n    /* \"#utility.yul\":582:584   */\n  0x20\n    /* \"#utility.yul\":571:580   */\n  dup11\n    /* \"#utility.yul\":567:585   */\n  add\n    /* \"#utility.yul\":537:586   */\n  tag_7\n  jump\t// in\ntag_14:\n    /* \"#utility.yul\":527:586   */\n  swap7\n  pop\n    /* \"#utility.yul\":626:628   */\n  0x40\n    /* \"#utility.yul\":615:624   */\n  dup10\n    /* \"#utility.yul\":611:629   */\n  add\n    /* \"#utility.yul\":605:630   */\n  mload\n    /* \"#utility.yul\":595:630   */\n  swap6\n  pop\n    /* \"#utility.yul\":649:698   */\n  tag_15\n    /* \"#utility.yul\":694:696   */\n  0x60\n    /* \"#utility.yul\":683:692   */\n  dup11\n    /* \"#utility.yul\":679:697   */\n  add\n    /* \"#utility.yul\":649:698   */\n  tag_7\n  jump\t// in\ntag_15:\n    /* \"#utility.yul\":639:698   */\n  swap5\n  pop\n    /* \"#utility.yul\":738:741   */\n  0x80\n    /* \"#utility.yul\":727:736   */\n  dup10\n    /* \"#utility.yul\":723:742   */\n  add\n    /* \"#utility.yul\":717:743   */\n  mload\n    /* \"#utility.yul\":707:743   */\n  swap4\n  pop\n    /* \"#utility.yul\":783:786   */\n  0xa0\n    /* \"#utility.yul\":772:781   */\n  dup10\n    /* \"#utility.yul\":768:787   */\n  add\n    /* \"#utility.yul\":762:788   */\n  mload\n    /* \"#utility.yul\":752:788   */\n  swap3\n  pop\n    /* \"#utility.yul\":828:831   */\n  0xc0\n    /* \"#utility.yul\":817:826   */\n  dup10\n    /* \"#utility.yul\":813:832   */\n  add\n    /* \"#utility.yul\":807:833   */\n  mload\n    /* \"#utility.yul\":797:833   */\n  swap2\n  pop\n    /* \"#utility.yul\":873:876   */\n  0xe0\n    /* \"#utility.yul\":862:871   */\n  dup10\n    /* \"#utility.yul\":858:877   */\n  add\n    /* \"#utility.yul\":852:878   */\n  mload\n    /* \"#utility.yul\":842:878   */\n  swap1\n  pop\n    /* \"#utility.yul\":196:884   */\n  swap3\n  swap6\n  swap9\n  pop\n  swap3\n  swap6\n  swap9\n  swap1\n  swap4\n  swap7\n  pop\n  jump\t// out\ntag_8:\n    /* \"Contracts/AuctionSPU.sol\":893:9336  contract AuctionSPU {... */\n  dataSize(sub_0)\n  dup1\n  dataOffset(sub_0)\n  0x00\n  codecopy\n  0x00\n  return\nstop\n\nsub_0: assembly {\n        /* \"Contracts/AuctionSPU.sol\":893:9336  contract AuctionSPU {... */\n      mstore(0x40, 0x80)\n      jumpi(tag_1, lt(calldatasize, 0x04))\n      shr(0xe0, calldataload(0x00))\n      dup1\n      0x5c975abb\n      gt\n      tag_29\n      jumpi\n      dup1\n      0xc683630d\n      gt\n      tag_30\n      jumpi\n      dup1\n      0xd57bde79\n      gt\n      tag_31\n      jumpi\n      dup1\n      0xd57bde79\n      eq\n      tag_25\n      jumpi\n      dup1\n      0xd6b4675b\n      eq\n      tag_26\n      jumpi\n      dup1\n      0xecefc705\n      eq\n      tag_27\n      jumpi\n      dup1\n      0xfe67a54b\n      eq\n      tag_28\n      jumpi\n      jump(tag_2)\n    tag_31:\n      dup1\n      0xc683630d\n      eq\n      tag_22\n      jumpi\n      dup1\n      0xc6bc5182\n      eq\n      tag_23\n      jumpi\n      dup1\n      0xceb16419\n      eq\n      tag_24\n      jumpi\n      jump(tag_2)\n    tag_30:\n      dup1\n      0x5c975abb\n      eq\n      tag_16\n      jumpi\n      dup1\n      0x6b64c769\n      eq\n      tag_17\n      jumpi\n      dup1\n      0x7cc3ae8c\n      eq\n      tag_18\n      jumpi\n      dup1\n      0x91f90157\n      eq\n      tag_19\n      jumpi\n      dup1\n      0x95ecc5cc\n      eq\n      tag_20\n      jumpi\n      dup1\n      0xb9ae7364\n      eq\n      tag_21\n      jumpi\n      jump(tag_2)\n    tag_29:\n      dup1\n      0x1f2698ab\n      gt\n      tag_32\n      jumpi\n      dup1\n      0x3ccfd60b\n      gt\n      tag_33\n      jumpi\n      dup1\n      0x3ccfd60b\n      eq\n      tag_12\n      jumpi\n      dup1\n      0x41275358\n      eq\n      tag_13\n      jumpi\n      dup1\n      0x47ccca02\n      eq\n      tag_14\n      jumpi\n      dup1\n      0x53d6fd59\n      eq\n      tag_15\n      jumpi\n      jump(tag_2)\n    tag_33:\n      dup1\n      0x1f2698ab\n      eq\n      tag_9\n      jumpi\n      dup1\n      0x2aeee493\n      eq\n      tag_10\n      jumpi\n      dup1\n      0x378252f2\n      eq\n      tag_11\n      jumpi\n      jump(tag_2)\n    tag_32:\n      dup1\n      0x08551a53\n      eq\n      tag_3\n      jumpi\n      dup1\n      0x12065fe0\n      eq\n      tag_4\n      jumpi\n      dup1\n      0x12fa6feb\n      eq\n      tag_5\n      jumpi\n      dup1\n      0x17d531fc\n      eq\n      tag_6\n      jumpi\n      dup1\n      0x1cf5e669\n      eq\n      tag_7\n      jumpi\n      dup1\n      0x1df4ccfc\n      eq\n      tag_8\n      jumpi\n      jump(tag_2)\n    tag_1:\n      jumpi(tag_2, calldatasize)\n        /* \"Contracts/AuctionSPU.sol\":3415:3421  seller */\n      and(sub(shl(0xa0, 0x01), 0x01), sload(0x02))\n        /* \"Contracts/AuctionSPU.sol\":3401:3411  msg.sender */\n      caller\n        /* \"Contracts/AuctionSPU.sol\":3401:3421  msg.sender == seller */\n      eq\n        /* \"Contracts/AuctionSPU.sol\":3393:3445  require(msg.sender == seller, \"Sender is not owner\") */\n      tag_36\n      jumpi\n      mload(0x40)\n      shl(0xe5, 0x461bcd)\n      dup2\n      mstore\n      0x04\n      add\n      tag_37\n      swap1\n      tag_38\n      jump\t// in\n    tag_37:\n      mload(0x40)\n      dup1\n      swap2\n      sub\n      swap1\n      revert\n    tag_36:\n        /* \"Contracts/AuctionSPU.sol\":893:9336  contract AuctionSPU {... */\n      stop\n    tag_2:\n        /* \"Contracts/AuctionSPU.sol\":3415:3421  seller */\n      and(sub(shl(0xa0, 0x01), 0x01), sload(0x02))\n        /* \"Contracts/AuctionSPU.sol\":3401:3411  msg.sender */\n      caller\n        /* \"Contracts/AuctionSPU.sol\":3401:3421  msg.sender == seller */\n      eq\n        /* \"Contracts/AuctionSPU.sol\":3393:3445  require(msg.sender == seller, \"Sender is not owner\") */\n      tag_36\n      jumpi\n      mload(0x40)\n      shl(0xe5, 0x461bcd)\n      dup2\n      mstore\n      0x04\n      add\n      tag_37\n      swap1\n      tag_38\n      jump\t// in\n        /* \"Contracts/AuctionSPU.sol\":1654:1683  address payable public seller */\n    tag_3:\n      callvalue\n      dup1\n      iszero\n      tag_45\n      jumpi\n      0x00\n      dup1\n      revert\n    tag_45:\n      pop\n      sload(0x02)\n      tag_46\n      swap1\n      sub(shl(0xa0, 0x01), 0x01)\n      and\n      dup2\n      jump\n    tag_46:\n      mload(0x40)\n      sub(shl(0xa0, 0x01), 0x01)\n        /* \"#utility.yul\":542:574   */\n      swap1\n      swap2\n      and\n        /* \"#utility.yul\":524:575   */\n      dup2\n      mstore\n        /* \"#utility.yul\":512:514   */\n      0x20\n        /* \"#utility.yul\":497:515   */\n      add\n        /* \"Contracts/AuctionSPU.sol\":1654:1683  address payable public seller */\n    tag_48:\n      mload(0x40)\n      dup1\n      swap2\n      sub\n      swap1\n      return\n        /* \"Contracts/AuctionSPU.sol\":3891:3987  function getBalance() public view returns (uint) {... */\n    tag_4:\n      callvalue\n      dup1\n      iszero\n      tag_50\n      jumpi\n      0x00\n      dup1\n      revert\n    tag_50:\n      pop\n        /* \"Contracts/AuctionSPU.sol\":3958:3979  address(this).balance */\n      selfbalance\n        /* \"Contracts/AuctionSPU.sol\":3891:3987  function getBalance() public view returns (uint) {... */\n    tag_51:\n      mload(0x40)\n        /* \"#utility.yul\":732:757   */\n      swap1\n      dup2\n      mstore\n        /* \"#utility.yul\":720:722   */\n      0x20\n        /* \"#utility.yul\":705:723   */\n      add\n        /* \"Contracts/AuctionSPU.sol\":3891:3987  function getBalance() public view returns (uint) {... */\n      tag_48\n        /* \"#utility.yul\":586:763   */\n      jump\n        /* \"Contracts/AuctionSPU.sol\":1844:1861  bool public ended */\n    tag_5:\n      callvalue\n      dup1\n      iszero\n      tag_55\n      jumpi\n      0x00\n      dup1\n      revert\n    tag_55:\n      pop\n      sload(0x07)\n      tag_56\n      swap1\n      0x0100\n      swap1\n      div\n      0xff\n      and\n      dup2\n      jump\n    tag_56:\n      mload(0x40)\n        /* \"#utility.yul\":933:947   */\n      swap1\n      iszero\n        /* \"#utility.yul\":926:948   */\n      iszero\n        /* \"#utility.yul\":908:949   */\n      dup2\n      mstore\n        /* \"#utility.yul\":896:898   */\n      0x20\n        /* \"#utility.yul\":881:899   */\n      add\n        /* \"Contracts/AuctionSPU.sol\":1844:1861  bool public ended */\n      tag_48\n        /* \"#utility.yul\":768:955   */\n      jump\n        /* \"Contracts/AuctionSPU.sol\":1893:1917  uint public numberOfBids */\n    tag_6:\n      callvalue\n      dup1\n      iszero\n      tag_60\n      jumpi\n      0x00\n      dup1\n      revert\n    tag_60:\n      pop\n      tag_51\n      sload(0x08)\n      dup2\n      jump\n        /* \"Contracts/AuctionSPU.sol\":1730:1757  address public docsRegister */\n    tag_7:\n      callvalue\n      dup1\n      iszero\n      tag_64\n      jumpi\n      0x00\n      dup1\n      revert\n    tag_64:\n      pop\n      sload(0x04)\n      tag_46\n      swap1\n      sub(shl(0xa0, 0x01), 0x01)\n      and\n      dup2\n      jump\n        /* \"Contracts/AuctionSPU.sol\":2002:2022  uint public totalFee */\n    tag_8:\n      callvalue\n      dup1\n      iszero\n      tag_69\n      jumpi\n      0x00\n      dup1\n      revert\n    tag_69:\n      pop\n      tag_51\n      sload(0x0a)\n      dup2\n      jump\n        /* \"Contracts/AuctionSPU.sol\":1818:1837  bool public started */\n    tag_9:\n      callvalue\n      dup1\n      iszero\n      tag_73\n      jumpi\n      0x00\n      dup1\n      revert\n    tag_73:\n      pop\n      sload(0x07)\n      tag_56\n      swap1\n      0xff\n      and\n      dup2\n      jump\n        /* \"Contracts/AuctionSPU.sol\":5200:6703  function newBid(... */\n    tag_10:\n      tag_36\n      tag_78\n      calldatasize\n      0x04\n      tag_79\n      jump\t// in\n    tag_78:\n      tag_80\n      jump\t// in\n        /* \"Contracts/AuctionSPU.sol\":7697:8893  function closeAuction () external onlyOwner{... */\n    tag_11:\n      callvalue\n      dup1\n      iszero\n      tag_81\n      jumpi\n      0x00\n      dup1\n      revert\n    tag_81:\n      pop\n      tag_36\n      tag_83\n      jump\t// in\n        /* \"Contracts/AuctionSPU.sol\":6711:7236  function withdraw() external {... */\n    tag_12:\n      callvalue\n      dup1\n      iszero\n      tag_84\n      jumpi\n      0x00\n      dup1\n      revert\n    tag_84:\n      pop\n      tag_36\n      tag_86\n      jump\t// in\n        /* \"Contracts/AuctionSPU.sol\":1690:1723  address payable public feeAddress */\n    tag_13:\n      callvalue\n      dup1\n      iszero\n      tag_87\n      jumpi\n      0x00\n      dup1\n      revert\n    tag_87:\n      pop\n      sload(0x03)\n      tag_46\n      swap1\n      sub(shl(0xa0, 0x01), 0x01)\n      and\n      dup2\n      jump\n        /* \"Contracts/AuctionSPU.sol\":1557:1575  IERC721 public nft */\n    tag_14:\n      callvalue\n      dup1\n      iszero\n      tag_91\n      jumpi\n      0x00\n      dup1\n      revert\n    tag_91:\n      pop\n      sload(0x00)\n      tag_46\n      swap1\n      sub(shl(0xa0, 0x01), 0x01)\n      and\n      dup2\n      jump\n        /* \"Contracts/AuctionSPU.sol\":8902:9077  function setWhitelist(address _account, bool enable) external  onlyOwner{... */\n    tag_15:\n      callvalue\n      dup1\n      iszero\n      tag_96\n      jumpi\n      0x00\n      dup1\n      revert\n    tag_96:\n      pop\n      tag_36\n      tag_98\n      calldatasize\n      0x04\n      tag_99\n      jump\t// in\n    tag_98:\n      tag_100\n      jump\t// in\n        /* \"Contracts/AuctionSPU.sol\":1868:1886  bool public paused */\n    tag_16:\n      callvalue\n      dup1\n      iszero\n      tag_101\n      jumpi\n      0x00\n      dup1\n      revert\n    tag_101:\n      pop\n      sload(0x07)\n      tag_56\n      swap1\n      0x010000\n      swap1\n      div\n      0xff\n      and\n      dup2\n      jump\n        /* \"Contracts/AuctionSPU.sol\":4040:4258  function startAuction() external onlyOwner {... */\n    tag_17:\n      callvalue\n      dup1\n      iszero\n      tag_105\n      jumpi\n      0x00\n      dup1\n      revert\n    tag_105:\n      pop\n      tag_36\n      tag_107\n      jump\t// in\n        /* \"Contracts/AuctionSPU.sol\":1794:1811  uint public endAt */\n    tag_18:\n      callvalue\n      dup1\n      iszero\n      tag_108\n      jumpi\n      0x00\n      dup1\n      revert\n    tag_108:\n      pop\n      tag_51\n      sload(0x06)\n      dup2\n      jump\n        /* \"Contracts/AuctionSPU.sol\":2078:2106  address public highestBidder */\n    tag_19:\n      callvalue\n      dup1\n      iszero\n      tag_112\n      jumpi\n      0x00\n      dup1\n      revert\n    tag_112:\n      pop\n      sload(0x0b)\n      tag_46\n      swap1\n      sub(shl(0xa0, 0x01), 0x01)\n      and\n      dup2\n      jump\n        /* \"Contracts/AuctionSPU.sol\":2319:2366  mapping(address => Bidders) public receivedBids */\n    tag_20:\n      callvalue\n      dup1\n      iszero\n      tag_116\n      jumpi\n      0x00\n      dup1\n      revert\n    tag_116:\n      pop\n      tag_117\n      tag_118\n      calldatasize\n      0x04\n      tag_119\n      jump\t// in\n    tag_118:\n      mstore(0x20, 0x0d)\n      0x00\n      swap1\n      dup2\n      mstore\n      0x40\n      swap1\n      keccak256\n      dup1\n      sload\n      0x01\n      dup3\n      add\n      sload\n      0x02\n      dup4\n      add\n      sload\n      0x03\n      dup5\n      add\n      sload\n      0x04\n      swap1\n      swap5\n      add\n      sload\n      swap3\n      swap4\n      swap2\n      swap3\n      swap1\n      swap2\n      swap1\n      dup6\n      jump\n    tag_117:\n      0x40\n      dup1\n      mload\n        /* \"#utility.yul\":2760:2785   */\n      swap6\n      dup7\n      mstore\n        /* \"#utility.yul\":2816:2818   */\n      0x20\n        /* \"#utility.yul\":2801:2819   */\n      dup7\n      add\n        /* \"#utility.yul\":2794:2828   */\n      swap5\n      swap1\n      swap5\n      mstore\n        /* \"#utility.yul\":2844:2862   */\n      swap3\n      dup5\n      add\n        /* \"#utility.yul\":2837:2871   */\n      swap2\n      swap1\n      swap2\n      mstore\n        /* \"#utility.yul\":2902:2904   */\n      0x60\n        /* \"#utility.yul\":2887:2905   */\n      dup4\n      add\n        /* \"#utility.yul\":2880:2914   */\n      mstore\n        /* \"#utility.yul\":2945:2948   */\n      0x80\n        /* \"#utility.yul\":2930:2949   */\n      dup3\n      add\n        /* \"#utility.yul\":2923:2958   */\n      mstore\n        /* \"#utility.yul\":2747:2750   */\n      0xa0\n        /* \"#utility.yul\":2732:2751   */\n      add\n        /* \"Contracts/AuctionSPU.sol\":2319:2366  mapping(address => Bidders) public receivedBids */\n      tag_48\n        /* \"#utility.yul\":2501:2964   */\n      jump\n        /* \"Contracts/AuctionSPU.sol\":4612:4776  function pauseAuction() external onlyOwner {... */\n    tag_21:\n      callvalue\n      dup1\n      iszero\n      tag_123\n      jumpi\n      0x00\n      dup1\n      revert\n    tag_123:\n      pop\n      tag_36\n      tag_125\n      jump\t// in\n        /* \"Contracts/AuctionSPU.sol\":9219:9333  function isWhitelist(address _account) public view returns (bool) {... */\n    tag_22:\n      callvalue\n      dup1\n      iszero\n      tag_126\n      jumpi\n      0x00\n      dup1\n      revert\n    tag_126:\n      pop\n      tag_56\n      tag_128\n      calldatasize\n      0x04\n      tag_119\n      jump\t// in\n    tag_128:\n      tag_129\n      jump\t// in\n        /* \"Contracts/AuctionSPU.sol\":1582:1599  uint public nftId */\n    tag_23:\n      callvalue\n      dup1\n      iszero\n      tag_131\n      jumpi\n      0x00\n      dup1\n      revert\n    tag_131:\n      pop\n      tag_51\n      sload(0x01)\n      dup2\n      jump\n        /* \"Contracts/AuctionSPU.sol\":4831:5000  function unpauseAuction() external onlyOwner {... */\n    tag_24:\n      callvalue\n      dup1\n      iszero\n      tag_135\n      jumpi\n      0x00\n      dup1\n      revert\n    tag_135:\n      pop\n      tag_36\n      tag_137\n      jump\t// in\n        /* \"Contracts/AuctionSPU.sol\":2113:2135  uint public highestBid */\n    tag_25:\n      callvalue\n      dup1\n      iszero\n      tag_138\n      jumpi\n      0x00\n      dup1\n      revert\n    tag_138:\n      pop\n      tag_51\n      sload(0x0c)\n      dup2\n      jump\n        /* \"Contracts/AuctionSPU.sol\":1764:1787  uint public docsProcess */\n    tag_26:\n      callvalue\n      dup1\n      iszero\n      tag_142\n      jumpi\n      0x00\n      dup1\n      revert\n    tag_142:\n      pop\n      tag_51\n      sload(0x05)\n      dup2\n      jump\n        /* \"Contracts/AuctionSPU.sol\":1958:1995  uint public constant FEE_BASE = 10000 */\n    tag_27:\n      callvalue\n      dup1\n      iszero\n      tag_146\n      jumpi\n      0x00\n      dup1\n      revert\n    tag_146:\n      pop\n      tag_51\n        /* \"Contracts/AuctionSPU.sol\":1990:1995  10000 */\n      0x2710\n        /* \"Contracts/AuctionSPU.sol\":1958:1995  uint public constant FEE_BASE = 10000 */\n      dup2\n      jump\n        /* \"Contracts/AuctionSPU.sol\":4307:4559  function endAuction() external onlyOwner auctionStarted {... */\n    tag_28:\n      callvalue\n      dup1\n      iszero\n      tag_150\n      jumpi\n      0x00\n      dup1\n      revert\n    tag_150:\n      pop\n      tag_36\n      tag_152\n      jump\t// in\n        /* \"Contracts/AuctionSPU.sol\":5200:6703  function newBid(... */\n    tag_80:\n        /* \"Contracts/AuctionSPU.sol\":3616:3623  started */\n      and(0xff, sload(0x07))\n        /* \"Contracts/AuctionSPU.sol\":3608:3643  require(started, \"Not Started Yet\") */\n      tag_155\n      jumpi\n      mload(0x40)\n      shl(0xe5, 0x461bcd)\n      dup2\n      mstore\n        /* \"#utility.yul\":3171:3173   */\n      0x20\n        /* \"Contracts/AuctionSPU.sol\":3608:3643  require(started, \"Not Started Yet\") */\n      0x04\n      dup3\n      add\n        /* \"#utility.yul\":3153:3174   */\n      mstore\n        /* \"#utility.yul\":3210:3212   */\n      0x0f\n        /* \"#utility.yul\":3190:3208   */\n      0x24\n      dup3\n      add\n        /* \"#utility.yul\":3183:3213   */\n      mstore\n      shl(0x8a, 0x139bdd0814dd185c9d19590816595d)\n        /* \"#utility.yul\":3229:3247   */\n      0x44\n      dup3\n      add\n        /* \"#utility.yul\":3222:3267   */\n      mstore\n        /* \"#utility.yul\":3284:3302   */\n      0x64\n      add\n        /* \"Contracts/AuctionSPU.sol\":3608:3643  require(started, \"Not Started Yet\") */\n      tag_37\n        /* \"#utility.yul\":2969:3308   */\n      jump\n        /* \"Contracts/AuctionSPU.sol\":3608:3643  require(started, \"Not Started Yet\") */\n    tag_155:\n        /* \"Contracts/AuctionSPU.sol\":3518:3524  paused */\n      sload(0x07)\n      0x010000\n      swap1\n      div\n      0xff\n      and\n        /* \"Contracts/AuctionSPU.sol\":3517:3524  !paused */\n      iszero\n        /* \"Contracts/AuctionSPU.sol\":3509:3543  require(!paused, \"Auction Paused\") */\n      tag_159\n      jumpi\n      mload(0x40)\n      shl(0xe5, 0x461bcd)\n      dup2\n      mstore\n        /* \"#utility.yul\":3515:3517   */\n      0x20\n        /* \"Contracts/AuctionSPU.sol\":3509:3543  require(!paused, \"Auction Paused\") */\n      0x04\n      dup3\n      add\n        /* \"#utility.yul\":3497:3518   */\n      mstore\n        /* \"#utility.yul\":3554:3556   */\n      0x0e\n        /* \"#utility.yul\":3534:3552   */\n      0x24\n      dup3\n      add\n        /* \"#utility.yul\":3527:3557   */\n      mstore\n      shl(0x92, 0x105d58dd1a5bdb8814185d5cd959)\n        /* \"#utility.yul\":3573:3591   */\n      0x44\n      dup3\n      add\n        /* \"#utility.yul\":3566:3610   */\n      mstore\n        /* \"#utility.yul\":3627:3645   */\n      0x64\n      add\n        /* \"Contracts/AuctionSPU.sol\":3509:3543  require(!paused, \"Auction Paused\") */\n      tag_37\n        /* \"#utility.yul\":3313:3651   */\n      jump\n        /* \"Contracts/AuctionSPU.sol\":3509:3543  require(!paused, \"Auction Paused\") */\n    tag_159:\n        /* \"Contracts/AuctionSPU.sol\":5423:5428  endAt */\n      sload(0x06)\n        /* \"Contracts/AuctionSPU.sol\":5405:5420  block.timestamp */\n      timestamp\n        /* \"Contracts/AuctionSPU.sol\":5405:5428  block.timestamp < endAt */\n      lt\n        /* \"Contracts/AuctionSPU.sol\":5397:5446  require(block.timestamp < endAt, \"Already ended\") */\n      tag_163\n      jumpi\n      mload(0x40)\n      shl(0xe5, 0x461bcd)\n      dup2\n      mstore\n        /* \"#utility.yul\":3858:3860   */\n      0x20\n        /* \"Contracts/AuctionSPU.sol\":5397:5446  require(block.timestamp < endAt, \"Already ended\") */\n      0x04\n      dup3\n      add\n        /* \"#utility.yul\":3840:3861   */\n      mstore\n        /* \"#utility.yul\":3897:3899   */\n      0x0d\n        /* \"#utility.yul\":3877:3895   */\n      0x24\n      dup3\n      add\n        /* \"#utility.yul\":3870:3900   */\n      mstore\n      shl(0x9a, 0x105b1c9958591e48195b991959)\n        /* \"#utility.yul\":3916:3934   */\n      0x44\n      dup3\n      add\n        /* \"#utility.yul\":3909:3952   */\n      mstore\n        /* \"#utility.yul\":3969:3987   */\n      0x64\n      add\n        /* \"Contracts/AuctionSPU.sol\":5397:5446  require(block.timestamp < endAt, \"Already ended\") */\n      tag_37\n        /* \"#utility.yul\":3656:3993   */\n      jump\n        /* \"Contracts/AuctionSPU.sol\":5397:5446  require(block.timestamp < endAt, \"Already ended\") */\n    tag_163:\n        /* \"Contracts/AuctionSPU.sol\":5487:5493  seller */\n      and(sub(shl(0xa0, 0x01), 0x01), sload(0x02))\n        /* \"Contracts/AuctionSPU.sol\":5473:5483  msg.sender */\n      caller\n        /* \"Contracts/AuctionSPU.sol\":5473:5493  msg.sender != seller */\n      sub\n        /* \"Contracts/AuctionSPU.sol\":5465:5516  require(msg.sender != seller, \"Seller not allowed\") */\n      tag_166\n      jumpi\n      mload(0x40)\n      shl(0xe5, 0x461bcd)\n      dup2\n      mstore\n        /* \"#utility.yul\":4200:4202   */\n      0x20\n        /* \"Contracts/AuctionSPU.sol\":5465:5516  require(msg.sender != seller, \"Seller not allowed\") */\n      0x04\n      dup3\n      add\n        /* \"#utility.yul\":4182:4203   */\n      mstore\n        /* \"#utility.yul\":4239:4241   */\n      0x12\n        /* \"#utility.yul\":4219:4237   */\n      0x24\n      dup3\n      add\n        /* \"#utility.yul\":4212:4242   */\n      mstore\n      shl(0x72, 0x14d95b1b195c881b9bdd08185b1b1bddd959)\n        /* \"#utility.yul\":4258:4276   */\n      0x44\n      dup3\n      add\n        /* \"#utility.yul\":4251:4299   */\n      mstore\n        /* \"#utility.yul\":4316:4334   */\n      0x64\n      add\n        /* \"Contracts/AuctionSPU.sol\":5465:5516  require(msg.sender != seller, \"Seller not allowed\") */\n      tag_37\n        /* \"#utility.yul\":3998:4340   */\n      jump\n        /* \"Contracts/AuctionSPU.sol\":5465:5516  require(msg.sender != seller, \"Seller not allowed\") */\n    tag_166:\n        /* \"Contracts/AuctionSPU.sol\":5548:5558  msg.sender */\n      caller\n        /* \"Contracts/AuctionSPU.sol\":9153:9157  bool */\n      0x00\n        /* \"Contracts/AuctionSPU.sol\":9177:9197  _whitelist[_account] */\n      swap1\n      dup2\n      mstore\n        /* \"Contracts/AuctionSPU.sol\":9177:9187  _whitelist */\n      0x0e\n        /* \"Contracts/AuctionSPU.sol\":9177:9197  _whitelist[_account] */\n      0x20\n      mstore\n      0x40\n      swap1\n      keccak256\n      sload\n      0xff\n      and\n        /* \"Contracts/AuctionSPU.sol\":5527:5581  require(_isWhitelist(msg.sender), \"Permission denied\") */\n      tag_171\n      jumpi\n      mload(0x40)\n      shl(0xe5, 0x461bcd)\n      dup2\n      mstore\n        /* \"#utility.yul\":4547:4549   */\n      0x20\n        /* \"Contracts/AuctionSPU.sol\":5527:5581  require(_isWhitelist(msg.sender), \"Permission denied\") */\n      0x04\n      dup3\n      add\n        /* \"#utility.yul\":4529:4550   */\n      mstore\n        /* \"#utility.yul\":4586:4588   */\n      0x11\n        /* \"#utility.yul\":4566:4584   */\n      0x24\n      dup3\n      add\n        /* \"#utility.yul\":4559:4589   */\n      mstore\n      shl(0x7a, 0x14195c9b5a5cdcda5bdb8819195b9a5959)\n        /* \"#utility.yul\":4605:4623   */\n      0x44\n      dup3\n      add\n        /* \"#utility.yul\":4598:4645   */\n      mstore\n        /* \"#utility.yul\":4662:4680   */\n      0x64\n      add\n        /* \"Contracts/AuctionSPU.sol\":5527:5581  require(_isWhitelist(msg.sender), \"Permission denied\") */\n      tag_37\n        /* \"#utility.yul\":4345:4686   */\n      jump\n        /* \"Contracts/AuctionSPU.sol\":5527:5581  require(_isWhitelist(msg.sender), \"Permission denied\") */\n    tag_171:\n        /* \"Contracts/AuctionSPU.sol\":5615:5625  highestBid */\n      sload(0x0c)\n        /* \"Contracts/AuctionSPU.sol\":5602:5612  _realValue */\n      dup4\n        /* \"Contracts/AuctionSPU.sol\":5602:5625  _realValue > highestBid */\n      gt\n        /* \"Contracts/AuctionSPU.sol\":5594:5639  require(_realValue > highestBid, \"Lower Bid\") */\n      tag_174\n      jumpi\n      mload(0x40)\n      shl(0xe5, 0x461bcd)\n      dup2\n      mstore\n        /* \"#utility.yul\":4893:4895   */\n      0x20\n        /* \"Contracts/AuctionSPU.sol\":5594:5639  require(_realValue > highestBid, \"Lower Bid\") */\n      0x04\n      dup3\n      add\n        /* \"#utility.yul\":4875:4896   */\n      mstore\n        /* \"#utility.yul\":4932:4933   */\n      0x09\n        /* \"#utility.yul\":4912:4930   */\n      0x24\n      dup3\n      add\n        /* \"#utility.yul\":4905:4934   */\n      mstore\n      shl(0xba, 0x131bddd95c88109a59)\n        /* \"#utility.yul\":4950:4968   */\n      0x44\n      dup3\n      add\n        /* \"#utility.yul\":4943:4982   */\n      mstore\n        /* \"#utility.yul\":4999:5017   */\n      0x64\n      add\n        /* \"Contracts/AuctionSPU.sol\":5594:5639  require(_realValue > highestBid, \"Lower Bid\") */\n      tag_37\n        /* \"#utility.yul\":4691:5023   */\n      jump\n        /* \"Contracts/AuctionSPU.sol\":5594:5639  require(_realValue > highestBid, \"Lower Bid\") */\n    tag_174:\n        /* \"Contracts/AuctionSPU.sol\":5689:5703  transactionFee */\n      sload(0x09)\n        /* \"Contracts/AuctionSPU.sol\":5652:5660  uint fee */\n      0x00\n      swap1\n        /* \"Contracts/AuctionSPU.sol\":5665:5685  msg.value / FEE_BASE */\n      tag_177\n        /* \"Contracts/AuctionSPU.sol\":1990:1995  10000 */\n      0x2710\n        /* \"Contracts/AuctionSPU.sol\":5665:5674  msg.value */\n      callvalue\n        /* \"Contracts/AuctionSPU.sol\":5665:5685  msg.value / FEE_BASE */\n      tag_178\n      jump\t// in\n    tag_177:\n        /* \"Contracts/AuctionSPU.sol\":5663:5703  ( msg.value / FEE_BASE) * transactionFee */\n      tag_179\n      swap2\n      swap1\n      tag_180\n      jump\t// in\n    tag_179:\n        /* \"Contracts/AuctionSPU.sol\":5652:5703  uint fee = ( msg.value / FEE_BASE) * transactionFee */\n      swap1\n      pop\n        /* \"Contracts/AuctionSPU.sol\":5726:5729  fee */\n      dup1\n        /* \"Contracts/AuctionSPU.sol\":5714:5722  totalFee */\n      0x0a\n      0x00\n        /* \"Contracts/AuctionSPU.sol\":5714:5729  totalFee += fee */\n      dup3\n      dup3\n      sload\n      tag_181\n      swap2\n      swap1\n      tag_182\n      jump\t// in\n    tag_181:\n      swap1\n      swap2\n      sstore\n      pop\n      pop\n        /* \"Contracts/AuctionSPU.sol\":5760:5773  highestBidder */\n      and(sub(shl(0xa0, 0x01), 0x01), sload(0x0b))\n      0x00\n        /* \"Contracts/AuctionSPU.sol\":5775:5802  receivedBids[highestBidder] */\n      dup2\n      dup2\n      mstore\n        /* \"Contracts/AuctionSPU.sol\":5775:5787  receivedBids */\n      0x0d\n        /* \"Contracts/AuctionSPU.sol\":5775:5802  receivedBids[highestBidder] */\n      0x20\n      mstore\n      0x40\n      swap1\n      keccak256\n        /* \"Contracts/AuctionSPU.sol\":5775:5810  receivedBids[highestBidder].downpay */\n      0x04\n      add\n      sload\n        /* \"Contracts/AuctionSPU.sol\":5751:5811  cashback(highestBidder, receivedBids[highestBidder].downpay) */\n      tag_183\n      swap2\n        /* \"Contracts/AuctionSPU.sol\":5760:5773  highestBidder */\n      swap1\n        /* \"Contracts/AuctionSPU.sol\":5751:5759  cashback */\n      tag_184\n        /* \"Contracts/AuctionSPU.sol\":5751:5811  cashback(highestBidder, receivedBids[highestBidder].downpay) */\n      jump\t// in\n    tag_183:\n        /* \"Contracts/AuctionSPU.sol\":5844:5854  msg.sender */\n      caller\n        /* \"Contracts/AuctionSPU.sol\":5831:5855  receivedBids[msg.sender] */\n      0x00\n      swap1\n      dup2\n      mstore\n        /* \"Contracts/AuctionSPU.sol\":5831:5843  receivedBids */\n      0x0d\n        /* \"Contracts/AuctionSPU.sol\":5831:5855  receivedBids[msg.sender] */\n      0x20\n      mstore\n      0x40\n      swap1\n      keccak256\n        /* \"Contracts/AuctionSPU.sol\":5831:5866  receivedBids[msg.sender].totalValue */\n      sload\n        /* \"Contracts/AuctionSPU.sol\":5831:5871  receivedBids[msg.sender].totalValue != 0 */\n      iszero\n        /* \"Contracts/AuctionSPU.sol\":5827:6550  if (receivedBids[msg.sender].totalValue != 0) {             ... */\n      tag_185\n      jumpi\n        /* \"Contracts/AuctionSPU.sol\":5950:5965  msg.value - fee */\n      tag_186\n        /* \"Contracts/AuctionSPU.sol\":5962:5965  fee */\n      dup2\n        /* \"Contracts/AuctionSPU.sol\":5950:5959  msg.value */\n      callvalue\n        /* \"Contracts/AuctionSPU.sol\":5950:5965  msg.value - fee */\n      tag_187\n      jump\t// in\n    tag_186:\n        /* \"Contracts/AuctionSPU.sol\":5928:5938  msg.sender */\n      caller\n        /* \"Contracts/AuctionSPU.sol\":5915:5939  receivedBids[msg.sender] */\n      0x00\n      swap1\n      dup2\n      mstore\n        /* \"Contracts/AuctionSPU.sol\":5915:5927  receivedBids */\n      0x0d\n        /* \"Contracts/AuctionSPU.sol\":5915:5939  receivedBids[msg.sender] */\n      0x20\n      mstore\n      0x40\n      swap1\n      keccak256\n        /* \"Contracts/AuctionSPU.sol\":5915:5947  receivedBids[msg.sender].downpay */\n      0x04\n      dup2\n      add\n        /* \"Contracts/AuctionSPU.sol\":5915:5965  receivedBids[msg.sender].downpay = msg.value - fee */\n      swap2\n      swap1\n      swap2\n      sstore\n        /* \"Contracts/AuctionSPU.sol\":5980:6014  receivedBids[msg.sender].realValue */\n      0x01\n      dup2\n      add\n        /* \"Contracts/AuctionSPU.sol\":5980:6027  receivedBids[msg.sender].realValue = _realValue */\n      dup6\n      swap1\n      sstore\n        /* \"Contracts/AuctionSPU.sol\":6042:6091  receivedBids[msg.sender].totalValue = _totalValue */\n      dup6\n      dup2\n      sstore\n        /* \"Contracts/AuctionSPU.sol\":6118:6150  receivedBids[msg.sender].portion */\n      0x02\n      dup2\n      add\n        /* \"Contracts/AuctionSPU.sol\":6118:6161  receivedBids[msg.sender].portion = _portion */\n      dup5\n      swap1\n      sstore\n      0x03\n        /* \"Contracts/AuctionSPU.sol\":6176:6212  receivedBids[msg.sender].clientScore */\n      add\n        /* \"Contracts/AuctionSPU.sol\":6176:6227  receivedBids[msg.sender].clientScore = _clientScore */\n      dup3\n      swap1\n      sstore\n        /* \"Contracts/AuctionSPU.sol\":5827:6550  if (receivedBids[msg.sender].totalValue != 0) {             ... */\n      jump(tag_188)\n    tag_185:\n        /* \"Contracts/AuctionSPU.sol\":6275:6291  Bidders memory b */\n      tag_189\n      mload(0x40)\n      dup1\n      0xa0\n      add\n      0x40\n      mstore\n      dup1\n      0x00\n      dup2\n      mstore\n      0x20\n      add\n      0x00\n      dup2\n      mstore\n      0x20\n      add\n      0x00\n      dup2\n      mstore\n      0x20\n      add\n      0x00\n      dup2\n      mstore\n      0x20\n      add\n      0x00\n      dup2\n      mstore\n      pop\n      swap1\n      jump\n    tag_189:\n        /* \"Contracts/AuctionSPU.sol\":6318:6333  msg.value - fee */\n      tag_191\n        /* \"Contracts/AuctionSPU.sol\":6330:6333  fee */\n      dup3\n        /* \"Contracts/AuctionSPU.sol\":6318:6327  msg.value */\n      callvalue\n        /* \"Contracts/AuctionSPU.sol\":6318:6333  msg.value - fee */\n      tag_187\n      jump\t// in\n    tag_191:\n        /* \"Contracts/AuctionSPU.sol\":6306:6315  b.downpay */\n      0x80\n      dup3\n      add\n        /* \"Contracts/AuctionSPU.sol\":6306:6333  b.downpay = msg.value - fee */\n      swap1\n      dup2\n      mstore\n        /* \"Contracts/AuctionSPU.sol\":6348:6374  b.totalValue = _totalValue */\n      dup7\n      dup3\n      mstore\n        /* \"Contracts/AuctionSPU.sol\":6389:6400  b.realValue */\n      0x20\n      dup1\n      dup4\n      add\n        /* \"Contracts/AuctionSPU.sol\":6389:6413  b.realValue = _realValue */\n      dup8\n      dup2\n      mstore\n        /* \"Contracts/AuctionSPU.sol\":6432:6441  b.portion */\n      0x40\n      dup1\n      dup6\n      add\n        /* \"Contracts/AuctionSPU.sol\":6432:6452  b.portion = _portion */\n      dup9\n      dup2\n      mstore\n      0x60\n        /* \"Contracts/AuctionSPU.sol\":6467:6480  b.clientScore */\n      dup7\n      add\n        /* \"Contracts/AuctionSPU.sol\":6467:6495  b.clientScore = _clientScore */\n      dup9\n      dup2\n      mstore\n        /* \"Contracts/AuctionSPU.sol\":6523:6533  msg.sender */\n      caller\n        /* \"Contracts/AuctionSPU.sol\":6348:6360  b.totalValue */\n      0x00\n        /* \"Contracts/AuctionSPU.sol\":6510:6534  receivedBids[msg.sender] */\n      swap1\n      dup2\n      mstore\n        /* \"Contracts/AuctionSPU.sol\":6510:6522  receivedBids */\n      0x0d\n        /* \"Contracts/AuctionSPU.sol\":6510:6534  receivedBids[msg.sender] */\n      swap1\n      swap6\n      mstore\n      swap2\n      swap1\n      swap4\n      keccak256\n        /* \"Contracts/AuctionSPU.sol\":6510:6538  receivedBids[msg.sender] = b */\n      swap5\n      mload\n      dup6\n      sstore\n      swap1\n      mload\n      0x01\n      dup6\n      add\n      sstore\n      swap1\n      mload\n      0x02\n      dup5\n      add\n      sstore\n      mload\n      0x03\n      dup4\n      add\n      sstore\n      mload\n      0x04\n      swap1\n      swap2\n      add\n      sstore\n        /* \"Contracts/AuctionSPU.sol\":5827:6550  if (receivedBids[msg.sender].totalValue != 0) {             ... */\n    tag_188:\n        /* \"Contracts/AuctionSPU.sol\":6562:6575  highestBidder */\n      0x0b\n        /* \"Contracts/AuctionSPU.sol\":6562:6588  highestBidder = msg.sender */\n      dup1\n      sload\n      not(sub(shl(0xa0, 0x01), 0x01))\n      and\n        /* \"Contracts/AuctionSPU.sol\":6578:6588  msg.sender */\n      caller\n        /* \"Contracts/AuctionSPU.sol\":6562:6588  highestBidder = msg.sender */\n      or\n      swap1\n      sstore\n        /* \"Contracts/AuctionSPU.sol\":6599:6609  highestBid */\n      0x0c\n        /* \"Contracts/AuctionSPU.sol\":6599:6622  highestBid = _realValue */\n      dup5\n      swap1\n      sstore\n        /* \"Contracts/AuctionSPU.sol\":6633:6645  numberOfBids */\n      0x08\n        /* \"Contracts/AuctionSPU.sol\":6633:6650  numberOfBids += 1 */\n      dup1\n      sload\n        /* \"Contracts/AuctionSPU.sol\":6562:6588  highestBidder = msg.sender */\n      0x01\n      swap2\n        /* \"Contracts/AuctionSPU.sol\":6633:6645  numberOfBids */\n      swap1\n        /* \"Contracts/AuctionSPU.sol\":6562:6575  highestBidder */\n      0x00\n      swap1\n        /* \"Contracts/AuctionSPU.sol\":6633:6650  numberOfBids += 1 */\n      tag_192\n      swap1\n        /* \"Contracts/AuctionSPU.sol\":6562:6588  highestBidder = msg.sender */\n      dup5\n      swap1\n        /* \"Contracts/AuctionSPU.sol\":6633:6650  numberOfBids += 1 */\n      tag_182\n      jump\t// in\n    tag_192:\n      swap1\n      swap2\n      sstore\n      pop\n      pop\n        /* \"Contracts/AuctionSPU.sol\":6668:6695  Bid(msg.sender, _realValue) */\n      mload(0x40)\n        /* \"#utility.yul\":732:757   */\n      dup5\n      dup2\n      mstore\n        /* \"Contracts/AuctionSPU.sol\":6672:6682  msg.sender */\n      caller\n      swap1\n        /* \"Contracts/AuctionSPU.sol\":6668:6695  Bid(msg.sender, _realValue) */\n      0xe684a55f31b79eca403df938249029212a5925ec6be8012e099b45bc1019e5d2\n      swap1\n        /* \"#utility.yul\":720:722   */\n      0x20\n        /* \"#utility.yul\":705:723   */\n      add\n        /* \"Contracts/AuctionSPU.sol\":6668:6695  Bid(msg.sender, _realValue) */\n      mload(0x40)\n      dup1\n      swap2\n      sub\n      swap1\n      log2\n        /* \"Contracts/AuctionSPU.sol\":5386:6703  {... */\n      pop\n        /* \"Contracts/AuctionSPU.sol\":5200:6703  function newBid(... */\n      pop\n      pop\n      pop\n      pop\n      jump\t// out\n        /* \"Contracts/AuctionSPU.sol\":7697:8893  function closeAuction () external onlyOwner{... */\n    tag_83:\n        /* \"Contracts/AuctionSPU.sol\":3415:3421  seller */\n      and(sub(shl(0xa0, 0x01), 0x01), sload(0x02))\n        /* \"Contracts/AuctionSPU.sol\":3401:3411  msg.sender */\n      caller\n        /* \"Contracts/AuctionSPU.sol\":3401:3421  msg.sender == seller */\n      eq\n        /* \"Contracts/AuctionSPU.sol\":3393:3445  require(msg.sender == seller, \"Sender is not owner\") */\n      tag_195\n      jumpi\n      mload(0x40)\n      shl(0xe5, 0x461bcd)\n      dup2\n      mstore\n      0x04\n      add\n      tag_37\n      swap1\n      tag_38\n      jump\t// in\n    tag_195:\n        /* \"Contracts/AuctionSPU.sol\":7778:7783  endAt */\n      sload(0x06)\n        /* \"Contracts/AuctionSPU.sol\":7759:7774  block.timestamp */\n      timestamp\n        /* \"Contracts/AuctionSPU.sol\":7759:7783  block.timestamp >= endAt */\n      lt\n      iszero\n        /* \"Contracts/AuctionSPU.sol\":7751:7797  require(block.timestamp >= endAt, \"Not Ended\") */\n      tag_198\n      jumpi\n      mload(0x40)\n      shl(0xe5, 0x461bcd)\n      dup2\n      mstore\n        /* \"#utility.yul\":6020:6022   */\n      0x20\n        /* \"Contracts/AuctionSPU.sol\":7751:7797  require(block.timestamp >= endAt, \"Not Ended\") */\n      0x04\n      dup3\n      add\n        /* \"#utility.yul\":6002:6023   */\n      mstore\n        /* \"#utility.yul\":6059:6060   */\n      0x09\n        /* \"#utility.yul\":6039:6057   */\n      0x24\n      dup3\n      add\n        /* \"#utility.yul\":6032:6061   */\n      mstore\n      shl(0xba, 0x139bdd08115b991959)\n        /* \"#utility.yul\":6077:6095   */\n      0x44\n      dup3\n      add\n        /* \"#utility.yul\":6070:6109   */\n      mstore\n        /* \"#utility.yul\":6126:6144   */\n      0x64\n      add\n        /* \"Contracts/AuctionSPU.sol\":7751:7797  require(block.timestamp >= endAt, \"Not Ended\") */\n      tag_37\n        /* \"#utility.yul\":5818:6150   */\n      jump\n        /* \"Contracts/AuctionSPU.sol\":7751:7797  require(block.timestamp >= endAt, \"Not Ended\") */\n    tag_198:\n        /* \"Contracts/AuctionSPU.sol\":7812:7825  highestBidder */\n      and(sub(shl(0xa0, 0x01), 0x01), sload(0x0b))\n        /* \"Contracts/AuctionSPU.sol\":7812:7839  highestBidder != address(0) */\n      iszero\n        /* \"Contracts/AuctionSPU.sol\":7808:8886  if (highestBidder != address(0)) {... */\n      tag_201\n      jumpi\n        /* \"Contracts/AuctionSPU.sol\":7856:7859  nft */\n      sload(0x00)\n        /* \"Contracts/AuctionSPU.sol\":7892:7905  highestBidder */\n      sload(0x0b)\n        /* \"Contracts/AuctionSPU.sol\":7856:7859  nft */\n      0x01\n        /* \"Contracts/AuctionSPU.sol\":7907:7912  nftId */\n      sload\n        /* \"Contracts/AuctionSPU.sol\":7856:7913  nft.safeTransferFrom(address(this), highestBidder, nftId) */\n      mload(0x40)\n      shl(0xe1, 0x21421707)\n      dup2\n      mstore\n        /* \"Contracts/AuctionSPU.sol\":7885:7889  this */\n      address\n        /* \"Contracts/AuctionSPU.sol\":7856:7913  nft.safeTransferFrom(address(this), highestBidder, nftId) */\n      0x04\n      dup3\n      add\n        /* \"#utility.yul\":6395:6429   */\n      mstore\n      sub(shl(0xa0, 0x01), 0x01)\n        /* \"Contracts/AuctionSPU.sol\":7892:7905  highestBidder */\n      swap3\n      dup4\n      and\n        /* \"#utility.yul\":6445:6463   */\n      0x24\n      dup3\n      add\n        /* \"#utility.yul\":6438:6481   */\n      mstore\n        /* \"#utility.yul\":6497:6515   */\n      0x44\n      dup2\n      add\n        /* \"#utility.yul\":6490:6524   */\n      swap2\n      swap1\n      swap2\n      mstore\n        /* \"Contracts/AuctionSPU.sol\":7856:7859  nft */\n      swap2\n      and\n      swap1\n        /* \"Contracts/AuctionSPU.sol\":7856:7876  nft.safeTransferFrom */\n      0x42842e0e\n      swap1\n        /* \"#utility.yul\":6330:6348   */\n      0x64\n      add\n        /* \"Contracts/AuctionSPU.sol\":7856:7913  nft.safeTransferFrom(address(this), highestBidder, nftId) */\n    tag_202:\n      0x00\n      mload(0x40)\n      dup1\n      dup4\n      sub\n      dup2\n      0x00\n      dup8\n      dup1\n      extcodesize\n      iszero\n      dup1\n      iszero\n      tag_204\n      jumpi\n      0x00\n      dup1\n      revert\n    tag_204:\n      pop\n      gas\n      call\n      iszero\n      dup1\n      iszero\n      tag_206\n      jumpi\n      returndatasize\n      0x00\n      dup1\n      returndatacopy\n      revert(0x00, returndatasize)\n    tag_206:\n      pop\n      pop\n        /* \"Contracts/AuctionSPU.sol\":7976:7986  feeAddress */\n      sload(0x03)\n        /* \"Contracts/AuctionSPU.sol\":8000:8008  totalFee */\n      sload(0x0a)\n        /* \"Contracts/AuctionSPU.sol\":7968:8013  payable(feeAddress).call{value: totalFee}(\"\") */\n      mload(0x40)\n        /* \"Contracts/AuctionSPU.sol\":7943:7962  bool callSuccessFee */\n      0x00\n      swap5\n      pop\n      sub(shl(0xa0, 0x01), 0x01)\n        /* \"Contracts/AuctionSPU.sol\":7976:7986  feeAddress */\n      swap1\n      swap3\n      and\n      swap3\n      pop\n        /* \"Contracts/AuctionSPU.sol\":8000:8008  totalFee */\n      swap1\n        /* \"Contracts/AuctionSPU.sol\":7943:7962  bool callSuccessFee */\n      dup4\n        /* \"Contracts/AuctionSPU.sol\":7968:8013  payable(feeAddress).call{value: totalFee}(\"\") */\n      dup2\n        /* \"Contracts/AuctionSPU.sol\":7943:7962  bool callSuccessFee */\n      dup2\n        /* \"Contracts/AuctionSPU.sol\":7968:8013  payable(feeAddress).call{value: totalFee}(\"\") */\n      dup2\n        /* \"Contracts/AuctionSPU.sol\":8000:8008  totalFee */\n      dup6\n        /* \"Contracts/AuctionSPU.sol\":7976:7986  feeAddress */\n      dup8\n        /* \"Contracts/AuctionSPU.sol\":7968:8013  payable(feeAddress).call{value: totalFee}(\"\") */\n      gas\n      call\n      swap3\n      pop\n      pop\n      pop\n      returndatasize\n      dup1\n      0x00\n      dup2\n      eq\n      tag_211\n      jumpi\n      mload(0x40)\n      swap2\n      pop\n      and(add(returndatasize, 0x3f), not(0x1f))\n      dup3\n      add\n      0x40\n      mstore\n      returndatasize\n      dup3\n      mstore\n      returndatasize\n      0x00\n      0x20\n      dup5\n      add\n      returndatacopy\n      jump(tag_210)\n    tag_211:\n      0x60\n      swap2\n      pop\n    tag_210:\n      pop\n        /* \"Contracts/AuctionSPU.sol\":7942:8013  (bool callSuccessFee, ) = payable(feeAddress).call{value: totalFee}(\"\") */\n      pop\n      swap1\n      pop\n        /* \"Contracts/AuctionSPU.sol\":8036:8050  callSuccessFee */\n      dup1\n        /* \"Contracts/AuctionSPU.sol\":8028:8078  require(callSuccessFee, \"Return fee funds failed\") */\n      tag_212\n      jumpi\n      mload(0x40)\n      shl(0xe5, 0x461bcd)\n      dup2\n      mstore\n        /* \"#utility.yul\":6947:6949   */\n      0x20\n        /* \"Contracts/AuctionSPU.sol\":8028:8078  require(callSuccessFee, \"Return fee funds failed\") */\n      0x04\n      dup3\n      add\n        /* \"#utility.yul\":6929:6950   */\n      mstore\n        /* \"#utility.yul\":6986:6988   */\n      0x17\n        /* \"#utility.yul\":6966:6984   */\n      0x24\n      dup3\n      add\n        /* \"#utility.yul\":6959:6989   */\n      mstore\n        /* \"#utility.yul\":7025:7050   */\n      0x52657475726e206665652066756e6473206661696c6564000000000000000000\n        /* \"#utility.yul\":7005:7023   */\n      0x44\n      dup3\n      add\n        /* \"#utility.yul\":6998:7051   */\n      mstore\n        /* \"#utility.yul\":7068:7086   */\n      0x64\n      add\n        /* \"Contracts/AuctionSPU.sol\":8028:8078  require(callSuccessFee, \"Return fee funds failed\") */\n      tag_37\n        /* \"#utility.yul\":6745:7092   */\n      jump\n        /* \"Contracts/AuctionSPU.sol\":8028:8078  require(callSuccessFee, \"Return fee funds failed\") */\n    tag_212:\n        /* \"Contracts/AuctionSPU.sol\":8123:8133  feeAddress */\n      sload(0x03)\n        /* \"Contracts/AuctionSPU.sol\":8136:8144  totalFee */\n      sload(0x0a)\n        /* \"Contracts/AuctionSPU.sol\":8112:8145  FeePayment(feeAddress , totalFee) */\n      mload(0x40)\n        /* \"#utility.yul\":732:757   */\n      swap1\n      dup2\n      mstore\n      sub(shl(0xa0, 0x01), 0x01)\n        /* \"Contracts/AuctionSPU.sol\":8123:8133  feeAddress */\n      swap1\n      swap2\n      and\n      swap1\n        /* \"Contracts/AuctionSPU.sol\":8112:8145  FeePayment(feeAddress , totalFee) */\n      0x57d762ad8f1734de771f2b521b2668347c0cee2d709a12254662cd5a7d4180\n      swap1\n        /* \"#utility.yul\":720:722   */\n      0x20\n        /* \"#utility.yul\":705:723   */\n      add\n        /* \"Contracts/AuctionSPU.sol\":8112:8145  FeePayment(feeAddress , totalFee) */\n      mload(0x40)\n      dup1\n      swap2\n      sub\n      swap1\n      log2\n        /* \"Contracts/AuctionSPU.sol\":8205:8211  seller */\n      sload(0x02)\n        /* \"Contracts/AuctionSPU.sol\":8225:8235  highestBid */\n      sload(0x0c)\n        /* \"Contracts/AuctionSPU.sol\":8197:8240  payable(seller).call{value: highestBid}(\"\") */\n      mload(0x40)\n        /* \"Contracts/AuctionSPU.sol\":8175:8191  bool callSuccess */\n      0x00\n      swap3\n      sub(shl(0xa0, 0x01), 0x01)\n        /* \"Contracts/AuctionSPU.sol\":8205:8211  seller */\n      and\n      swap2\n        /* \"Contracts/AuctionSPU.sol\":8225:8235  highestBid */\n      swap1\n        /* \"Contracts/AuctionSPU.sol\":8175:8191  bool callSuccess */\n      dup4\n        /* \"Contracts/AuctionSPU.sol\":8197:8240  payable(seller).call{value: highestBid}(\"\") */\n      dup2\n        /* \"Contracts/AuctionSPU.sol\":8175:8191  bool callSuccess */\n      dup2\n        /* \"Contracts/AuctionSPU.sol\":8197:8240  payable(seller).call{value: highestBid}(\"\") */\n      dup2\n        /* \"Contracts/AuctionSPU.sol\":8225:8235  highestBid */\n      dup6\n        /* \"Contracts/AuctionSPU.sol\":8205:8211  seller */\n      dup8\n        /* \"Contracts/AuctionSPU.sol\":8197:8240  payable(seller).call{value: highestBid}(\"\") */\n      gas\n      call\n      swap3\n      pop\n      pop\n      pop\n      returndatasize\n      dup1\n      0x00\n      dup2\n      eq\n      tag_219\n      jumpi\n      mload(0x40)\n      swap2\n      pop\n      and(add(returndatasize, 0x3f), not(0x1f))\n      dup3\n      add\n      0x40\n      mstore\n      returndatasize\n      dup3\n      mstore\n      returndatasize\n      0x00\n      0x20\n      dup5\n      add\n      returndatacopy\n      jump(tag_218)\n    tag_219:\n      0x60\n      swap2\n      pop\n    tag_218:\n      pop\n        /* \"Contracts/AuctionSPU.sol\":8174:8240  (bool callSuccess, ) = payable(seller).call{value: highestBid}(\"\") */\n      pop\n      swap1\n      pop\n        /* \"Contracts/AuctionSPU.sol\":8263:8274  callSuccess */\n      dup1\n        /* \"Contracts/AuctionSPU.sol\":8255:8298  require(callSuccess, \"Return funds failed\") */\n      tag_220\n      jumpi\n      mload(0x40)\n      shl(0xe5, 0x461bcd)\n      dup2\n      mstore\n        /* \"#utility.yul\":7299:7301   */\n      0x20\n        /* \"Contracts/AuctionSPU.sol\":8255:8298  require(callSuccess, \"Return funds failed\") */\n      0x04\n      dup3\n      add\n        /* \"#utility.yul\":7281:7302   */\n      mstore\n        /* \"#utility.yul\":7338:7340   */\n      0x13\n        /* \"#utility.yul\":7318:7336   */\n      0x24\n      dup3\n      add\n        /* \"#utility.yul\":7311:7341   */\n      mstore\n      shl(0x6a, 0x14995d1d5c9b88199d5b991cc819985a5b1959)\n        /* \"#utility.yul\":7357:7375   */\n      0x44\n      dup3\n      add\n        /* \"#utility.yul\":7350:7399   */\n      mstore\n        /* \"#utility.yul\":7416:7434   */\n      0x64\n      add\n        /* \"Contracts/AuctionSPU.sol\":8255:8298  require(callSuccess, \"Return funds failed\") */\n      tag_37\n        /* \"#utility.yul\":7097:7440   */\n      jump\n        /* \"Contracts/AuctionSPU.sol\":8255:8298  require(callSuccess, \"Return funds failed\") */\n    tag_220:\n        /* \"Contracts/AuctionSPU.sol\":8331:8337  seller */\n      sload(0x02)\n        /* \"Contracts/AuctionSPU.sol\":8340:8350  highestBid */\n      sload(0x0c)\n        /* \"Contracts/AuctionSPU.sol\":8320:8351  BidPayment(seller , highestBid) */\n      mload(0x40)\n        /* \"#utility.yul\":732:757   */\n      swap1\n      dup2\n      mstore\n      sub(shl(0xa0, 0x01), 0x01)\n        /* \"Contracts/AuctionSPU.sol\":8331:8337  seller */\n      swap1\n      swap2\n      and\n      swap1\n        /* \"Contracts/AuctionSPU.sol\":8320:8351  BidPayment(seller , highestBid) */\n      0x1c1b1a7e52e22e996a7b9c93efbf98eeb6171f5ecaa8f5c1c792427b53d29e84\n      swap1\n        /* \"#utility.yul\":720:722   */\n      0x20\n        /* \"#utility.yul\":705:723   */\n      add\n        /* \"Contracts/AuctionSPU.sol\":8320:8351  BidPayment(seller , highestBid) */\n    tag_223:\n      mload(0x40)\n      dup1\n      swap2\n      sub\n      swap1\n      log2\n        /* \"Contracts/AuctionSPU.sol\":7841:8377  {... */\n      pop\n      pop\n        /* \"Contracts/AuctionSPU.sol\":7697:8893  function closeAuction () external onlyOwner{... */\n      jump\t// out\n        /* \"Contracts/AuctionSPU.sol\":7808:8886  if (highestBidder != address(0)) {... */\n    tag_201:\n        /* \"Contracts/AuctionSPU.sol\":8398:8401  nft */\n      sload(0x00)\n        /* \"Contracts/AuctionSPU.sol\":8434:8440  seller */\n      sload(0x02)\n        /* \"Contracts/AuctionSPU.sol\":8398:8401  nft */\n      0x01\n        /* \"Contracts/AuctionSPU.sol\":8442:8447  nftId */\n      sload\n        /* \"Contracts/AuctionSPU.sol\":8398:8448  nft.safeTransferFrom(address(this), seller, nftId) */\n      mload(0x40)\n      shl(0xe1, 0x21421707)\n      dup2\n      mstore\n        /* \"Contracts/AuctionSPU.sol\":8427:8431  this */\n      address\n        /* \"Contracts/AuctionSPU.sol\":8398:8448  nft.safeTransferFrom(address(this), seller, nftId) */\n      0x04\n      dup3\n      add\n        /* \"#utility.yul\":6395:6429   */\n      mstore\n      sub(shl(0xa0, 0x01), 0x01)\n        /* \"Contracts/AuctionSPU.sol\":8434:8440  seller */\n      swap3\n      dup4\n      and\n        /* \"#utility.yul\":6445:6463   */\n      0x24\n      dup3\n      add\n        /* \"#utility.yul\":6438:6481   */\n      mstore\n        /* \"#utility.yul\":6497:6515   */\n      0x44\n      dup2\n      add\n        /* \"#utility.yul\":6490:6524   */\n      swap2\n      swap1\n      swap2\n      mstore\n        /* \"Contracts/AuctionSPU.sol\":8398:8401  nft */\n      swap2\n      and\n      swap1\n        /* \"Contracts/AuctionSPU.sol\":8398:8418  nft.safeTransferFrom */\n      0x42842e0e\n      swap1\n        /* \"#utility.yul\":6330:6348   */\n      0x64\n      add\n        /* \"Contracts/AuctionSPU.sol\":8398:8448  nft.safeTransferFrom(address(this), seller, nftId) */\n      tag_202\n        /* \"#utility.yul\":6155:6530   */\n      jump\n        /* \"Contracts/AuctionSPU.sol\":6711:7236  function withdraw() external {... */\n    tag_86:\n        /* \"Contracts/AuctionSPU.sol\":6775:6788  highestBidder */\n      and(sub(shl(0xa0, 0x01), 0x01), sload(0x0b))\n        /* \"Contracts/AuctionSPU.sol\":6761:6771  msg.sender */\n      caller\n        /* \"Contracts/AuctionSPU.sol\":6761:6788  msg.sender == highestBidder */\n      sub\n        /* \"Contracts/AuctionSPU.sol\":6751:6816  require(!(msg.sender == highestBidder), \"Your Bid is the higher\") */\n      tag_245\n      jumpi\n      mload(0x40)\n      shl(0xe5, 0x461bcd)\n      dup2\n      mstore\n        /* \"#utility.yul\":8035:8037   */\n      0x20\n        /* \"Contracts/AuctionSPU.sol\":6751:6816  require(!(msg.sender == highestBidder), \"Your Bid is the higher\") */\n      0x04\n      dup3\n      add\n        /* \"#utility.yul\":8017:8038   */\n      mstore\n        /* \"#utility.yul\":8074:8076   */\n      0x16\n        /* \"#utility.yul\":8054:8072   */\n      0x24\n      dup3\n      add\n        /* \"#utility.yul\":8047:8077   */\n      mstore\n      shl(0x51, 0x2cb7bab9102134b21034b9903a3432903434b3b432b9)\n        /* \"#utility.yul\":8093:8111   */\n      0x44\n      dup3\n      add\n        /* \"#utility.yul\":8086:8138   */\n      mstore\n        /* \"#utility.yul\":8155:8173   */\n      0x64\n      add\n        /* \"Contracts/AuctionSPU.sol\":6751:6816  require(!(msg.sender == highestBidder), \"Your Bid is the higher\") */\n      tag_37\n        /* \"#utility.yul\":7833:8179   */\n      jump\n        /* \"Contracts/AuctionSPU.sol\":6751:6816  require(!(msg.sender == highestBidder), \"Your Bid is the higher\") */\n    tag_245:\n        /* \"Contracts/AuctionSPU.sol\":6848:6858  msg.sender */\n      caller\n        /* \"Contracts/AuctionSPU.sol\":6835:6859  receivedBids[msg.sender] */\n      0x00\n      swap1\n      dup2\n      mstore\n        /* \"Contracts/AuctionSPU.sol\":6835:6847  receivedBids */\n      0x0d\n        /* \"Contracts/AuctionSPU.sol\":6835:6859  receivedBids[msg.sender] */\n      0x20\n      mstore\n      0x40\n      dup2\n      keccak256\n        /* \"Contracts/AuctionSPU.sol\":6835:6867  receivedBids[msg.sender].downpay */\n      0x04\n      add\n      sload\n        /* \"Contracts/AuctionSPU.sol\":6835:6872  receivedBids[msg.sender].downpay != 0 */\n      swap1\n      sub\n        /* \"Contracts/AuctionSPU.sol\":6827:6892  require(receivedBids[msg.sender].downpay != 0, \"No bids founded\") */\n      tag_248\n      jumpi\n      mload(0x40)\n      shl(0xe5, 0x461bcd)\n      dup2\n      mstore\n        /* \"#utility.yul\":8386:8388   */\n      0x20\n        /* \"Contracts/AuctionSPU.sol\":6827:6892  require(receivedBids[msg.sender].downpay != 0, \"No bids founded\") */\n      0x04\n      dup3\n      add\n        /* \"#utility.yul\":8368:8389   */\n      mstore\n        /* \"#utility.yul\":8425:8427   */\n      0x0f\n        /* \"#utility.yul\":8405:8423   */\n      0x24\n      dup3\n      add\n        /* \"#utility.yul\":8398:8428   */\n      mstore\n      shl(0x8a, 0x139bc8189a591cc8199bdd5b991959)\n        /* \"#utility.yul\":8444:8462   */\n      0x44\n      dup3\n      add\n        /* \"#utility.yul\":8437:8482   */\n      mstore\n        /* \"#utility.yul\":8499:8517   */\n      0x64\n      add\n        /* \"Contracts/AuctionSPU.sol\":6827:6892  require(receivedBids[msg.sender].downpay != 0, \"No bids founded\") */\n      tag_37\n        /* \"#utility.yul\":8184:8523   */\n      jump\n        /* \"Contracts/AuctionSPU.sol\":6827:6892  require(receivedBids[msg.sender].downpay != 0, \"No bids founded\") */\n    tag_248:\n        /* \"Contracts/AuctionSPU.sol\":6914:6924  msg.sender */\n      caller\n        /* \"Contracts/AuctionSPU.sol\":6926:6950  receivedBids[msg.sender] */\n      0x00\n      dup2\n      dup2\n      mstore\n        /* \"Contracts/AuctionSPU.sol\":6926:6938  receivedBids */\n      0x0d\n        /* \"Contracts/AuctionSPU.sol\":6926:6950  receivedBids[msg.sender] */\n      0x20\n      mstore\n      0x40\n      swap1\n      keccak256\n        /* \"Contracts/AuctionSPU.sol\":6926:6958  receivedBids[msg.sender].downpay */\n      0x04\n      add\n      sload\n        /* \"Contracts/AuctionSPU.sol\":6905:6959  cashback(msg.sender, receivedBids[msg.sender].downpay) */\n      tag_251\n      swap2\n        /* \"Contracts/AuctionSPU.sol\":6914:6924  msg.sender */\n      swap1\n        /* \"Contracts/AuctionSPU.sol\":6905:6913  cashback */\n      tag_184\n        /* \"Contracts/AuctionSPU.sol\":6905:6959  cashback(msg.sender, receivedBids[msg.sender].downpay) */\n      jump\t// in\n    tag_251:\n        /* \"Contracts/AuctionSPU.sol\":6985:6995  msg.sender */\n      caller\n        /* \"Contracts/AuctionSPU.sol\":7007:7008  0 */\n      0x00\n        /* \"Contracts/AuctionSPU.sol\":6972:6996  receivedBids[msg.sender] */\n      dup2\n      dup2\n      mstore\n        /* \"Contracts/AuctionSPU.sol\":6972:6984  receivedBids */\n      0x0d\n        /* \"Contracts/AuctionSPU.sol\":6972:6996  receivedBids[msg.sender] */\n      0x20\n      swap1\n      dup2\n      mstore\n      0x40\n      dup1\n      dup4\n      keccak256\n        /* \"Contracts/AuctionSPU.sol\":6972:7004  receivedBids[msg.sender].downpay */\n      0x04\n      dup2\n      add\n        /* \"Contracts/AuctionSPU.sol\":6972:7008  receivedBids[msg.sender].downpay = 0 */\n      dup5\n      swap1\n      sstore\n        /* \"Contracts/AuctionSPU.sol\":7019:7058  receivedBids[msg.sender].totalValue = 0 */\n      dup4\n      dup2\n      sstore\n        /* \"Contracts/AuctionSPU.sol\":7069:7101  receivedBids[msg.sender].portion */\n      0x02\n      dup2\n      add\n        /* \"Contracts/AuctionSPU.sol\":7069:7105  receivedBids[msg.sender].portion = 0 */\n      dup5\n      swap1\n      sstore\n        /* \"Contracts/AuctionSPU.sol\":7116:7152  receivedBids[msg.sender].clientScore */\n      0x03\n      add\n        /* \"Contracts/AuctionSPU.sol\":7116:7156  receivedBids[msg.sender].clientScore = 0 */\n      dup4\n      swap1\n      sstore\n        /* \"Contracts/AuctionSPU.sol\":7174:7228  Withdraw(msg.sender, receivedBids[msg.sender].downpay) */\n      mload\n        /* \"#utility.yul\":732:757   */\n      swap2\n      dup3\n      mstore\n        /* \"Contracts/AuctionSPU.sol\":7174:7228  Withdraw(msg.sender, receivedBids[msg.sender].downpay) */\n      0x884edad9ce6fa2440d8a54cc123490eb96d2768479d49ff9c7366125a9424364\n      swap2\n        /* \"#utility.yul\":705:723   */\n      add\n        /* \"Contracts/AuctionSPU.sol\":7174:7228  Withdraw(msg.sender, receivedBids[msg.sender].downpay) */\n      mload(0x40)\n      dup1\n      swap2\n      sub\n      swap1\n      log2\n        /* \"Contracts/AuctionSPU.sol\":6711:7236  function withdraw() external {... */\n      jump\t// out\n        /* \"Contracts/AuctionSPU.sol\":8902:9077  function setWhitelist(address _account, bool enable) external  onlyOwner{... */\n    tag_100:\n        /* \"Contracts/AuctionSPU.sol\":3415:3421  seller */\n      and(sub(shl(0xa0, 0x01), 0x01), sload(0x02))\n        /* \"Contracts/AuctionSPU.sol\":3401:3411  msg.sender */\n      caller\n        /* \"Contracts/AuctionSPU.sol\":3401:3421  msg.sender == seller */\n      eq\n        /* \"Contracts/AuctionSPU.sol\":3393:3445  require(msg.sender == seller, \"Sender is not owner\") */\n      tag_254\n      jumpi\n      mload(0x40)\n      shl(0xe5, 0x461bcd)\n      dup2\n      mstore\n      0x04\n      add\n      tag_37\n      swap1\n      tag_38\n      jump\t// in\n    tag_254:\n      sub(shl(0xa0, 0x01), 0x01)\n        /* \"Contracts/AuctionSPU.sol\":8985:9005  _whitelist[_account] */\n      dup3\n      and\n      0x00\n      dup2\n      dup2\n      mstore\n        /* \"Contracts/AuctionSPU.sol\":8985:8995  _whitelist */\n      0x0e\n        /* \"Contracts/AuctionSPU.sol\":8985:9005  _whitelist[_account] */\n      0x20\n      swap1\n      dup2\n      mstore\n      0x40\n      swap2\n      dup3\n      swap1\n      keccak256\n        /* \"Contracts/AuctionSPU.sol\":8985:9014  _whitelist[_account] = enable */\n      dup1\n      sload\n      not(0xff)\n      and\n      dup6\n      iszero\n      iszero\n      swap1\n      dup2\n      or\n      swap1\n      swap2\n      sstore\n        /* \"Contracts/AuctionSPU.sol\":9030:9069  SetWhitelistByAddress(_account, enable) */\n      swap2\n      mload\n        /* \"#utility.yul\":908:949   */\n      swap2\n      dup3\n      mstore\n        /* \"Contracts/AuctionSPU.sol\":9030:9069  SetWhitelistByAddress(_account, enable) */\n      0xc2c8beffdf047b9e6c79b0e9dcd0bd71d174d84f52e013102fcc0e200dd58ee0\n      swap2\n        /* \"#utility.yul\":881:899   */\n      add\n        /* \"Contracts/AuctionSPU.sol\":9030:9069  SetWhitelistByAddress(_account, enable) */\n      tag_223\n        /* \"#utility.yul\":768:955   */\n      jump\n        /* \"Contracts/AuctionSPU.sol\":4040:4258  function startAuction() external onlyOwner {... */\n    tag_107:\n        /* \"Contracts/AuctionSPU.sol\":3415:3421  seller */\n      and(sub(shl(0xa0, 0x01), 0x01), sload(0x02))\n        /* \"Contracts/AuctionSPU.sol\":3401:3411  msg.sender */\n      caller\n        /* \"Contracts/AuctionSPU.sol\":3401:3421  msg.sender == seller */\n      eq\n        /* \"Contracts/AuctionSPU.sol\":3393:3445  require(msg.sender == seller, \"Sender is not owner\") */\n      tag_259\n      jumpi\n      mload(0x40)\n      shl(0xe5, 0x461bcd)\n      dup2\n      mstore\n      0x04\n      add\n      tag_37\n      swap1\n      tag_38\n      jump\t// in\n    tag_259:\n        /* \"Contracts/AuctionSPU.sol\":4103:4110  started */\n      and(0xff, sload(0x07))\n        /* \"Contracts/AuctionSPU.sol\":4102:4110  !started */\n      iszero\n        /* \"Contracts/AuctionSPU.sol\":4094:4130  require(!started, \"Already Started\") */\n      tag_262\n      jumpi\n      mload(0x40)\n      shl(0xe5, 0x461bcd)\n      dup2\n      mstore\n        /* \"#utility.yul\":8730:8732   */\n      0x20\n        /* \"Contracts/AuctionSPU.sol\":4094:4130  require(!started, \"Already Started\") */\n      0x04\n      dup3\n      add\n        /* \"#utility.yul\":8712:8733   */\n      mstore\n        /* \"#utility.yul\":8769:8771   */\n      0x0f\n        /* \"#utility.yul\":8749:8767   */\n      0x24\n      dup3\n      add\n        /* \"#utility.yul\":8742:8772   */\n      mstore\n      shl(0x8a, 0x105b1c9958591e4814dd185c9d1959)\n        /* \"#utility.yul\":8788:8806   */\n      0x44\n      dup3\n      add\n        /* \"#utility.yul\":8781:8826   */\n      mstore\n        /* \"#utility.yul\":8843:8861   */\n      0x64\n      add\n        /* \"Contracts/AuctionSPU.sol\":4094:4130  require(!started, \"Already Started\") */\n      tag_37\n        /* \"#utility.yul\":8528:8867   */\n      jump\n        /* \"Contracts/AuctionSPU.sol\":4094:4130  require(!started, \"Already Started\") */\n    tag_262:\n        /* \"Contracts/AuctionSPU.sol\":4143:4146  nft */\n      sload(0x00)\n      0x01\n        /* \"Contracts/AuctionSPU.sol\":4187:4192  nftId */\n      sload\n        /* \"Contracts/AuctionSPU.sol\":4143:4193  nft.transferFrom(msg.sender, address(this), nftId) */\n      mload(0x40)\n      shl(0xe0, 0x23b872dd)\n      dup2\n      mstore\n        /* \"Contracts/AuctionSPU.sol\":4160:4170  msg.sender */\n      caller\n        /* \"Contracts/AuctionSPU.sol\":4143:4193  nft.transferFrom(msg.sender, address(this), nftId) */\n      0x04\n      dup3\n      add\n        /* \"#utility.yul\":6395:6429   */\n      mstore\n        /* \"Contracts/AuctionSPU.sol\":4180:4184  this */\n      address\n        /* \"#utility.yul\":6445:6463   */\n      0x24\n      dup3\n      add\n        /* \"#utility.yul\":6438:6481   */\n      mstore\n        /* \"#utility.yul\":6497:6515   */\n      0x44\n      dup2\n      add\n        /* \"#utility.yul\":6490:6524   */\n      swap2\n      swap1\n      swap2\n      mstore\n      sub(shl(0xa0, 0x01), 0x01)\n        /* \"Contracts/AuctionSPU.sol\":4143:4146  nft */\n      swap1\n      swap2\n      and\n      swap1\n        /* \"Contracts/AuctionSPU.sol\":4143:4159  nft.transferFrom */\n      0x23b872dd\n      swap1\n        /* \"#utility.yul\":6330:6348   */\n      0x64\n      add\n        /* \"Contracts/AuctionSPU.sol\":4143:4193  nft.transferFrom(msg.sender, address(this), nftId) */\n      0x00\n      mload(0x40)\n      dup1\n      dup4\n      sub\n      dup2\n      0x00\n      dup8\n      dup1\n      extcodesize\n      iszero\n      dup1\n      iszero\n      tag_266\n      jumpi\n      0x00\n      dup1\n      revert\n    tag_266:\n      pop\n      gas\n      call\n      iszero\n      dup1\n      iszero\n      tag_268\n      jumpi\n      returndatasize\n      0x00\n      dup1\n      returndatacopy\n      revert(0x00, returndatasize)\n    tag_268:\n      pop\n      pop\n        /* \"Contracts/AuctionSPU.sol\":4204:4211  started */\n      0x07\n        /* \"Contracts/AuctionSPU.sol\":4204:4218  started = true */\n      dup1\n      sload\n      not(0xff)\n      and\n        /* \"Contracts/AuctionSPU.sol\":4214:4218  true */\n      0x01\n        /* \"Contracts/AuctionSPU.sol\":4204:4218  started = true */\n      or\n      swap1\n      sstore\n      pop\n      pop\n        /* \"Contracts/AuctionSPU.sol\":4236:4250  StartAuction() */\n      mload(0x40)\n      0xd295ebf0a48a9a43d600a6ecb8626baa711d5750dec13a08145013aa30cb92ea\n      swap1\n        /* \"Contracts/AuctionSPU.sol\":4204:4211  started */\n      0x00\n      swap1\n        /* \"Contracts/AuctionSPU.sol\":4236:4250  StartAuction() */\n      log1\n        /* \"Contracts/AuctionSPU.sol\":4040:4258  function startAuction() external onlyOwner {... */\n      jump\t// out\n        /* \"Contracts/AuctionSPU.sol\":4612:4776  function pauseAuction() external onlyOwner {... */\n    tag_125:\n        /* \"Contracts/AuctionSPU.sol\":3415:3421  seller */\n      and(sub(shl(0xa0, 0x01), 0x01), sload(0x02))\n        /* \"Contracts/AuctionSPU.sol\":3401:3411  msg.sender */\n      caller\n        /* \"Contracts/AuctionSPU.sol\":3401:3421  msg.sender == seller */\n      eq\n        /* \"Contracts/AuctionSPU.sol\":3393:3445  require(msg.sender == seller, \"Sender is not owner\") */\n      tag_270\n      jumpi\n      mload(0x40)\n      shl(0xe5, 0x461bcd)\n      dup2\n      mstore\n      0x04\n      add\n      tag_37\n      swap1\n      tag_38\n      jump\t// in\n    tag_270:\n        /* \"Contracts/AuctionSPU.sol\":4675:4681  paused */\n      sload(0x07)\n      0x010000\n      swap1\n      div\n      0xff\n      and\n        /* \"Contracts/AuctionSPU.sol\":4674:4681  !paused */\n      iszero\n        /* \"Contracts/AuctionSPU.sol\":4666:4700  require(!paused, \"Already Paused\") */\n      tag_273\n      jumpi\n      mload(0x40)\n      shl(0xe5, 0x461bcd)\n      dup2\n      mstore\n        /* \"#utility.yul\":9074:9076   */\n      0x20\n        /* \"Contracts/AuctionSPU.sol\":4666:4700  require(!paused, \"Already Paused\") */\n      0x04\n      dup3\n      add\n        /* \"#utility.yul\":9056:9077   */\n      mstore\n        /* \"#utility.yul\":9113:9115   */\n      0x0e\n        /* \"#utility.yul\":9093:9111   */\n      0x24\n      dup3\n      add\n        /* \"#utility.yul\":9086:9116   */\n      mstore\n      shl(0x92, 0x105b1c9958591e4814185d5cd959)\n        /* \"#utility.yul\":9132:9150   */\n      0x44\n      dup3\n      add\n        /* \"#utility.yul\":9125:9169   */\n      mstore\n        /* \"#utility.yul\":9186:9204   */\n      0x64\n      add\n        /* \"Contracts/AuctionSPU.sol\":4666:4700  require(!paused, \"Already Paused\") */\n      tag_37\n        /* \"#utility.yul\":8872:9210   */\n      jump\n        /* \"Contracts/AuctionSPU.sol\":4666:4700  require(!paused, \"Already Paused\") */\n    tag_273:\n        /* \"Contracts/AuctionSPU.sol\":4713:4719  paused */\n      0x07\n        /* \"Contracts/AuctionSPU.sol\":4713:4726  paused = true */\n      dup1\n      sload\n      not(0xff0000)\n      and\n      0x010000\n      or\n      swap1\n      sstore\n        /* \"Contracts/AuctionSPU.sol\":4744:4768  PauseAuction(msg.sender) */\n      mload(0x40)\n        /* \"Contracts/AuctionSPU.sol\":4757:4767  msg.sender */\n      caller\n        /* \"#utility.yul\":524:575   */\n      dup2\n      mstore\n        /* \"Contracts/AuctionSPU.sol\":4744:4768  PauseAuction(msg.sender) */\n      0xdee06086e53b718fd5176fdaa88a207819a06a56b42087ac2cab84d32a335654\n      swap1\n        /* \"#utility.yul\":512:514   */\n      0x20\n        /* \"#utility.yul\":497:515   */\n      add\n        /* \"Contracts/AuctionSPU.sol\":4744:4768  PauseAuction(msg.sender) */\n    tag_276:\n      mload(0x40)\n      dup1\n      swap2\n      sub\n      swap1\n      log1\n        /* \"Contracts/AuctionSPU.sol\":4612:4776  function pauseAuction() external onlyOwner {... */\n      jump\t// out\n        /* \"Contracts/AuctionSPU.sol\":9219:9333  function isWhitelist(address _account) public view returns (bool) {... */\n    tag_129:\n      sub(shl(0xa0, 0x01), 0x01)\n        /* \"Contracts/AuctionSPU.sol\":9177:9197  _whitelist[_account] */\n      dup2\n      and\n        /* \"Contracts/AuctionSPU.sol\":9279:9283  bool */\n      0x00\n        /* \"Contracts/AuctionSPU.sol\":9177:9197  _whitelist[_account] */\n      swap1\n      dup2\n      mstore\n        /* \"Contracts/AuctionSPU.sol\":9177:9187  _whitelist */\n      0x0e\n        /* \"Contracts/AuctionSPU.sol\":9177:9197  _whitelist[_account] */\n      0x20\n      mstore\n      0x40\n      dup2\n      keccak256\n      sload\n      0xff\n      and\n        /* \"Contracts/AuctionSPU.sol\":9303:9325  _isWhitelist(_account) */\n    tag_278:\n        /* \"Contracts/AuctionSPU.sol\":9296:9325  return _isWhitelist(_account) */\n      swap3\n        /* \"Contracts/AuctionSPU.sol\":9219:9333  function isWhitelist(address _account) public view returns (bool) {... */\n      swap2\n      pop\n      pop\n      jump\t// out\n        /* \"Contracts/AuctionSPU.sol\":4831:5000  function unpauseAuction() external onlyOwner {... */\n    tag_137:\n        /* \"Contracts/AuctionSPU.sol\":3415:3421  seller */\n      and(sub(shl(0xa0, 0x01), 0x01), sload(0x02))\n        /* \"Contracts/AuctionSPU.sol\":3401:3411  msg.sender */\n      caller\n        /* \"Contracts/AuctionSPU.sol\":3401:3421  msg.sender == seller */\n      eq\n        /* \"Contracts/AuctionSPU.sol\":3393:3445  require(msg.sender == seller, \"Sender is not owner\") */\n      tag_280\n      jumpi\n      mload(0x40)\n      shl(0xe5, 0x461bcd)\n      dup2\n      mstore\n      0x04\n      add\n      tag_37\n      swap1\n      tag_38\n      jump\t// in\n    tag_280:\n        /* \"Contracts/AuctionSPU.sol\":4895:4901  paused */\n      sload(0x07)\n      0x010000\n      swap1\n      div\n      0xff\n      and\n        /* \"Contracts/AuctionSPU.sol\":4887:4921  require(paused, \"Already Running\") */\n      tag_283\n      jumpi\n      mload(0x40)\n      shl(0xe5, 0x461bcd)\n      dup2\n      mstore\n        /* \"#utility.yul\":9417:9419   */\n      0x20\n        /* \"Contracts/AuctionSPU.sol\":4887:4921  require(paused, \"Already Running\") */\n      0x04\n      dup3\n      add\n        /* \"#utility.yul\":9399:9420   */\n      mstore\n        /* \"#utility.yul\":9456:9458   */\n      0x0f\n        /* \"#utility.yul\":9436:9454   */\n      0x24\n      dup3\n      add\n        /* \"#utility.yul\":9429:9459   */\n      mstore\n      shl(0x88, 0x416c72656164792052756e6e696e67)\n        /* \"#utility.yul\":9475:9493   */\n      0x44\n      dup3\n      add\n        /* \"#utility.yul\":9468:9513   */\n      mstore\n        /* \"#utility.yul\":9530:9548   */\n      0x64\n      add\n        /* \"Contracts/AuctionSPU.sol\":4887:4921  require(paused, \"Already Running\") */\n      tag_37\n        /* \"#utility.yul\":9215:9554   */\n      jump\n        /* \"Contracts/AuctionSPU.sol\":4887:4921  require(paused, \"Already Running\") */\n    tag_283:\n        /* \"Contracts/AuctionSPU.sol\":4934:4940  paused */\n      0x07\n        /* \"Contracts/AuctionSPU.sol\":4934:4948  paused = false */\n      dup1\n      sload\n      not(0xff0000)\n      and\n      swap1\n      sstore\n        /* \"Contracts/AuctionSPU.sol\":4966:4992  UnpauseAuction(msg.sender) */\n      mload(0x40)\n        /* \"Contracts/AuctionSPU.sol\":4981:4991  msg.sender */\n      caller\n        /* \"#utility.yul\":524:575   */\n      dup2\n      mstore\n        /* \"Contracts/AuctionSPU.sol\":4966:4992  UnpauseAuction(msg.sender) */\n      0xc1a02e947cf77134ed09ac0692636f0553306db51ffe4a1d9e7b51b4dcd9c762\n      swap1\n        /* \"#utility.yul\":512:514   */\n      0x20\n        /* \"#utility.yul\":497:515   */\n      add\n        /* \"Contracts/AuctionSPU.sol\":4966:4992  UnpauseAuction(msg.sender) */\n      tag_276\n        /* \"#utility.yul\":362:581   */\n      jump\n        /* \"Contracts/AuctionSPU.sol\":4307:4559  function endAuction() external onlyOwner auctionStarted {... */\n    tag_152:\n        /* \"Contracts/AuctionSPU.sol\":3415:3421  seller */\n      and(sub(shl(0xa0, 0x01), 0x01), sload(0x02))\n        /* \"Contracts/AuctionSPU.sol\":3401:3411  msg.sender */\n      caller\n        /* \"Contracts/AuctionSPU.sol\":3401:3421  msg.sender == seller */\n      eq\n        /* \"Contracts/AuctionSPU.sol\":3393:3445  require(msg.sender == seller, \"Sender is not owner\") */\n      tag_288\n      jumpi\n      mload(0x40)\n      shl(0xe5, 0x461bcd)\n      dup2\n      mstore\n      0x04\n      add\n      tag_37\n      swap1\n      tag_38\n      jump\t// in\n    tag_288:\n        /* \"Contracts/AuctionSPU.sol\":3616:3623  started */\n      and(0xff, sload(0x07))\n        /* \"Contracts/AuctionSPU.sol\":3608:3643  require(started, \"Not Started Yet\") */\n      tag_291\n      jumpi\n      mload(0x40)\n      shl(0xe5, 0x461bcd)\n      dup2\n      mstore\n        /* \"#utility.yul\":3171:3173   */\n      0x20\n        /* \"Contracts/AuctionSPU.sol\":3608:3643  require(started, \"Not Started Yet\") */\n      0x04\n      dup3\n      add\n        /* \"#utility.yul\":3153:3174   */\n      mstore\n        /* \"#utility.yul\":3210:3212   */\n      0x0f\n        /* \"#utility.yul\":3190:3208   */\n      0x24\n      dup3\n      add\n        /* \"#utility.yul\":3183:3213   */\n      mstore\n      shl(0x8a, 0x139bdd0814dd185c9d19590816595d)\n        /* \"#utility.yul\":3229:3247   */\n      0x44\n      dup3\n      add\n        /* \"#utility.yul\":3222:3267   */\n      mstore\n        /* \"#utility.yul\":3284:3302   */\n      0x64\n      add\n        /* \"Contracts/AuctionSPU.sol\":3608:3643  require(started, \"Not Started Yet\") */\n      tag_37\n        /* \"#utility.yul\":2969:3308   */\n      jump\n        /* \"Contracts/AuctionSPU.sol\":3608:3643  require(started, \"Not Started Yet\") */\n    tag_291:\n        /* \"Contracts/AuctionSPU.sol\":4401:4406  endAt */\n      sload(0x06)\n        /* \"Contracts/AuctionSPU.sol\":4382:4397  block.timestamp */\n      timestamp\n        /* \"Contracts/AuctionSPU.sol\":4382:4406  block.timestamp >= endAt */\n      lt\n      iszero\n        /* \"Contracts/AuctionSPU.sol\":4374:4420  require(block.timestamp >= endAt, \"Not Ended\") */\n      tag_294\n      jumpi\n      mload(0x40)\n      shl(0xe5, 0x461bcd)\n      dup2\n      mstore\n        /* \"#utility.yul\":6020:6022   */\n      0x20\n        /* \"Contracts/AuctionSPU.sol\":4374:4420  require(block.timestamp >= endAt, \"Not Ended\") */\n      0x04\n      dup3\n      add\n        /* \"#utility.yul\":6002:6023   */\n      mstore\n        /* \"#utility.yul\":6059:6060   */\n      0x09\n        /* \"#utility.yul\":6039:6057   */\n      0x24\n      dup3\n      add\n        /* \"#utility.yul\":6032:6061   */\n      mstore\n      shl(0xba, 0x139bdd08115b991959)\n        /* \"#utility.yul\":6077:6095   */\n      0x44\n      dup3\n      add\n        /* \"#utility.yul\":6070:6109   */\n      mstore\n        /* \"#utility.yul\":6126:6144   */\n      0x64\n      add\n        /* \"Contracts/AuctionSPU.sol\":4374:4420  require(block.timestamp >= endAt, \"Not Ended\") */\n      tag_37\n        /* \"#utility.yul\":5818:6150   */\n      jump\n        /* \"Contracts/AuctionSPU.sol\":4374:4420  require(block.timestamp >= endAt, \"Not Ended\") */\n    tag_294:\n        /* \"Contracts/AuctionSPU.sol\":4440:4445  ended */\n      sload(0x07)\n      0x0100\n      swap1\n      div\n      0xff\n      and\n        /* \"Contracts/AuctionSPU.sol\":4439:4445  !ended */\n      iszero\n        /* \"Contracts/AuctionSPU.sol\":4431:4463  require(!ended, \"Already Ended\") */\n      tag_296\n      jumpi\n      mload(0x40)\n      shl(0xe5, 0x461bcd)\n      dup2\n      mstore\n        /* \"#utility.yul\":9761:9763   */\n      0x20\n        /* \"Contracts/AuctionSPU.sol\":4431:4463  require(!ended, \"Already Ended\") */\n      0x04\n      dup3\n      add\n        /* \"#utility.yul\":9743:9764   */\n      mstore\n        /* \"#utility.yul\":9800:9802   */\n      0x0d\n        /* \"#utility.yul\":9780:9798   */\n      0x24\n      dup3\n      add\n        /* \"#utility.yul\":9773:9803   */\n      mstore\n      shl(0x9a, 0x105b1c9958591e48115b991959)\n        /* \"#utility.yul\":9819:9837   */\n      0x44\n      dup3\n      add\n        /* \"#utility.yul\":9812:9855   */\n      mstore\n        /* \"#utility.yul\":9872:9890   */\n      0x64\n      add\n        /* \"Contracts/AuctionSPU.sol\":4431:4463  require(!ended, \"Already Ended\") */\n      tag_37\n        /* \"#utility.yul\":9559:9896   */\n      jump\n        /* \"Contracts/AuctionSPU.sol\":4431:4463  require(!ended, \"Already Ended\") */\n    tag_296:\n        /* \"Contracts/AuctionSPU.sol\":4476:4481  ended */\n      0x07\n        /* \"Contracts/AuctionSPU.sol\":4476:4488  ended = true */\n      dup1\n      sload\n      not(0xff00)\n      and\n      0x0100\n      or\n      swap1\n      sstore\n        /* \"Contracts/AuctionSPU.sol\":4525:4538  highestBidder */\n      sload(0x0b)\n        /* \"Contracts/AuctionSPU.sol\":4540:4550  highestBid */\n      sload(0x0c)\n        /* \"Contracts/AuctionSPU.sol\":4514:4551  EndAuction(highestBidder, highestBid) */\n      0x40\n      dup1\n      mload\n      sub(shl(0xa0, 0x01), 0x01)\n        /* \"Contracts/AuctionSPU.sol\":4525:4538  highestBidder */\n      swap1\n      swap4\n      and\n        /* \"#utility.yul\":10075:10126   */\n      dup4\n      mstore\n        /* \"#utility.yul\":10157:10159   */\n      0x20\n        /* \"#utility.yul\":10142:10160   */\n      dup4\n      add\n        /* \"#utility.yul\":10135:10169   */\n      swap2\n      swap1\n      swap2\n      mstore\n        /* \"Contracts/AuctionSPU.sol\":4514:4551  EndAuction(highestBidder, highestBid) */\n      0xca09734d1fc32150404dc9252b4d991c6bee44319031b7159c03d5ae2c062704\n      swap2\n        /* \"#utility.yul\":10048:10066   */\n      add\n        /* \"Contracts/AuctionSPU.sol\":4514:4551  EndAuction(highestBidder, highestBid) */\n      tag_276\n        /* \"#utility.yul\":9901:10175   */\n      jump\n        /* \"Contracts/AuctionSPU.sol\":7244:7685  function cashback(address _receiver, uint _amount) internal{... */\n    tag_184:\n        /* \"Contracts/AuctionSPU.sol\":7315:7331  bool callSuccess */\n      0x00\n        /* \"Contracts/AuctionSPU.sol\":7345:7354  _receiver */\n      dup3\n      sub(shl(0xa0, 0x01), 0x01)\n        /* \"Contracts/AuctionSPU.sol\":7337:7360  payable(_receiver).call */\n      and\n        /* \"Contracts/AuctionSPU.sol\":7368:7375  _amount */\n      dup3\n        /* \"Contracts/AuctionSPU.sol\":7337:7380  payable(_receiver).call{value: _amount}(\"\") */\n      mload(0x40)\n      0x00\n      mload(0x40)\n      dup1\n      dup4\n      sub\n      dup2\n      dup6\n      dup8\n      gas\n      call\n      swap3\n      pop\n      pop\n      pop\n      returndatasize\n      dup1\n      0x00\n      dup2\n      eq\n      tag_306\n      jumpi\n      mload(0x40)\n      swap2\n      pop\n      and(add(returndatasize, 0x3f), not(0x1f))\n      dup3\n      add\n      0x40\n      mstore\n      returndatasize\n      dup3\n      mstore\n      returndatasize\n      0x00\n      0x20\n      dup5\n      add\n      returndatacopy\n      jump(tag_305)\n    tag_306:\n      0x60\n      swap2\n      pop\n    tag_305:\n      pop\n        /* \"Contracts/AuctionSPU.sol\":7314:7380  (bool callSuccess, ) = payable(_receiver).call{value: _amount}(\"\") */\n      pop\n      swap1\n      pop\n        /* \"Contracts/AuctionSPU.sol\":7399:7410  callSuccess */\n      dup1\n        /* \"Contracts/AuctionSPU.sol\":7391:7434  require(callSuccess, \"Return funds failed\") */\n      tag_307\n      jumpi\n      mload(0x40)\n      shl(0xe5, 0x461bcd)\n      dup2\n      mstore\n        /* \"#utility.yul\":7299:7301   */\n      0x20\n        /* \"Contracts/AuctionSPU.sol\":7391:7434  require(callSuccess, \"Return funds failed\") */\n      0x04\n      dup3\n      add\n        /* \"#utility.yul\":7281:7302   */\n      mstore\n        /* \"#utility.yul\":7338:7340   */\n      0x13\n        /* \"#utility.yul\":7318:7336   */\n      0x24\n      dup3\n      add\n        /* \"#utility.yul\":7311:7341   */\n      mstore\n      shl(0x6a, 0x14995d1d5c9b88199d5b991cc819985a5b1959)\n        /* \"#utility.yul\":7357:7375   */\n      0x44\n      dup3\n      add\n        /* \"#utility.yul\":7350:7399   */\n      mstore\n        /* \"#utility.yul\":7416:7434   */\n      0x64\n      add\n        /* \"Contracts/AuctionSPU.sol\":7391:7434  require(callSuccess, \"Return funds failed\") */\n      tag_37\n        /* \"#utility.yul\":7097:7440   */\n      jump\n        /* \"Contracts/AuctionSPU.sol\":7391:7434  require(callSuccess, \"Return funds failed\") */\n    tag_307:\n        /* \"Contracts/AuctionSPU.sol\":7460:7470  msg.sender */\n      caller\n        /* \"Contracts/AuctionSPU.sol\":7482:7483  0 */\n      0x00\n        /* \"Contracts/AuctionSPU.sol\":7447:7471  receivedBids[msg.sender] */\n      swap1\n      dup2\n      mstore\n        /* \"Contracts/AuctionSPU.sol\":7447:7459  receivedBids */\n      0x0d\n        /* \"Contracts/AuctionSPU.sol\":7447:7471  receivedBids[msg.sender] */\n      0x20\n      mstore\n      0x40\n      dup1\n      dup3\n      keccak256\n        /* \"Contracts/AuctionSPU.sol\":7447:7479  receivedBids[msg.sender].downpay */\n      0x04\n      dup2\n      add\n        /* \"Contracts/AuctionSPU.sol\":7447:7483  receivedBids[msg.sender].downpay = 0 */\n      dup4\n      swap1\n      sstore\n        /* \"Contracts/AuctionSPU.sol\":7494:7533  receivedBids[msg.sender].totalValue = 0 */\n      dup3\n      dup2\n      sstore\n        /* \"Contracts/AuctionSPU.sol\":7544:7576  receivedBids[msg.sender].portion */\n      0x02\n      dup2\n      add\n        /* \"Contracts/AuctionSPU.sol\":7544:7580  receivedBids[msg.sender].portion = 0 */\n      dup4\n      swap1\n      sstore\n        /* \"Contracts/AuctionSPU.sol\":7591:7627  receivedBids[msg.sender].clientScore */\n      0x03\n      add\n        /* \"Contracts/AuctionSPU.sol\":7591:7631  receivedBids[msg.sender].clientScore = 0 */\n      swap2\n      swap1\n      swap2\n      sstore\n        /* \"Contracts/AuctionSPU.sol\":7649:7677  Cashback(_receiver, _amount) */\n      mload\n      sub(shl(0xa0, 0x01), 0x01)\n      dup5\n      and\n      swap1\n      0xe523757eee9c213543af9b06c96e0629da383d3149173f4a03ab96d8ff526760\n      swap1\n      tag_309\n      swap1\n        /* \"Contracts/AuctionSPU.sol\":7669:7676  _amount */\n      dup6\n        /* \"#utility.yul\":732:757   */\n      dup2\n      mstore\n        /* \"#utility.yul\":720:722   */\n      0x20\n        /* \"#utility.yul\":705:723   */\n      add\n      swap1\n        /* \"#utility.yul\":586:763   */\n      jump\n        /* \"Contracts/AuctionSPU.sol\":7649:7677  Cashback(_receiver, _amount) */\n    tag_309:\n      mload(0x40)\n      dup1\n      swap2\n      sub\n      swap1\n      log2\n        /* \"Contracts/AuctionSPU.sol\":7303:7685  {... */\n      pop\n        /* \"Contracts/AuctionSPU.sol\":7244:7685  function cashback(address _receiver, uint _amount) internal{... */\n      pop\n      pop\n      jump\t// out\n        /* \"#utility.yul\":14:357   */\n    tag_38:\n        /* \"#utility.yul\":216:218   */\n      0x20\n        /* \"#utility.yul\":198:219   */\n      dup1\n      dup3\n      mstore\n        /* \"#utility.yul\":255:257   */\n      0x13\n        /* \"#utility.yul\":235:253   */\n      swap1\n      dup3\n      add\n        /* \"#utility.yul\":228:258   */\n      mstore\n      shl(0x69, 0x29b2b73232b91034b9903737ba1037bbb732b9)\n        /* \"#utility.yul\":289:291   */\n      0x40\n        /* \"#utility.yul\":274:292   */\n      dup3\n      add\n        /* \"#utility.yul\":267:316   */\n      mstore\n        /* \"#utility.yul\":348:350   */\n      0x60\n        /* \"#utility.yul\":333:351   */\n      add\n      swap1\n        /* \"#utility.yul\":14:357   */\n      jump\t// out\n        /* \"#utility.yul\":1168:1553   */\n    tag_79:\n        /* \"#utility.yul\":1254:1260   */\n      0x00\n        /* \"#utility.yul\":1262:1268   */\n      dup1\n        /* \"#utility.yul\":1270:1276   */\n      0x00\n        /* \"#utility.yul\":1278:1284   */\n      dup1\n        /* \"#utility.yul\":1331:1334   */\n      0x80\n        /* \"#utility.yul\":1319:1328   */\n      dup6\n        /* \"#utility.yul\":1310:1317   */\n      dup8\n        /* \"#utility.yul\":1306:1329   */\n      sub\n        /* \"#utility.yul\":1302:1335   */\n      slt\n        /* \"#utility.yul\":1299:1352   */\n      iszero\n      tag_319\n      jumpi\n        /* \"#utility.yul\":1348:1349   */\n      0x00\n        /* \"#utility.yul\":1345:1346   */\n      dup1\n        /* \"#utility.yul\":1338:1350   */\n      revert\n        /* \"#utility.yul\":1299:1352   */\n    tag_319:\n      pop\n      pop\n        /* \"#utility.yul\":1371:1394   */\n      dup3\n      calldataload\n      swap5\n        /* \"#utility.yul\":1441:1443   */\n      0x20\n        /* \"#utility.yul\":1426:1444   */\n      dup5\n      add\n        /* \"#utility.yul\":1413:1445   */\n      calldataload\n      swap5\n      pop\n        /* \"#utility.yul\":1492:1494   */\n      0x40\n        /* \"#utility.yul\":1477:1495   */\n      dup5\n      add\n        /* \"#utility.yul\":1464:1496   */\n      calldataload\n      swap4\n        /* \"#utility.yul\":1543:1545   */\n      0x60\n        /* \"#utility.yul\":1528:1546   */\n      add\n        /* \"#utility.yul\":1515:1547   */\n      calldataload\n      swap3\n      pop\n        /* \"#utility.yul\":1168:1553   */\n      swap1\n      pop\n      jump\t// out\n        /* \"#utility.yul\":1780:1953   */\n    tag_310:\n        /* \"#utility.yul\":1848:1868   */\n      dup1\n      calldataload\n      sub(shl(0xa0, 0x01), 0x01)\n        /* \"#utility.yul\":1897:1928   */\n      dup2\n      and\n        /* \"#utility.yul\":1887:1929   */\n      dup2\n      eq\n        /* \"#utility.yul\":1877:1947   */\n      tag_322\n      jumpi\n        /* \"#utility.yul\":1943:1944   */\n      0x00\n        /* \"#utility.yul\":1940:1941   */\n      dup1\n        /* \"#utility.yul\":1933:1945   */\n      revert\n        /* \"#utility.yul\":1877:1947   */\n    tag_322:\n        /* \"#utility.yul\":1780:1953   */\n      swap2\n      swap1\n      pop\n      jump\t// out\n        /* \"#utility.yul\":1958:2305   */\n    tag_99:\n        /* \"#utility.yul\":2023:2029   */\n      0x00\n        /* \"#utility.yul\":2031:2037   */\n      dup1\n        /* \"#utility.yul\":2084:2086   */\n      0x40\n        /* \"#utility.yul\":2072:2081   */\n      dup4\n        /* \"#utility.yul\":2063:2070   */\n      dup6\n        /* \"#utility.yul\":2059:2082   */\n      sub\n        /* \"#utility.yul\":2055:2087   */\n      slt\n        /* \"#utility.yul\":2052:2104   */\n      iszero\n      tag_324\n      jumpi\n        /* \"#utility.yul\":2100:2101   */\n      0x00\n        /* \"#utility.yul\":2097:2098   */\n      dup1\n        /* \"#utility.yul\":2090:2102   */\n      revert\n        /* \"#utility.yul\":2052:2104   */\n    tag_324:\n        /* \"#utility.yul\":2123:2152   */\n      tag_325\n        /* \"#utility.yul\":2142:2151   */\n      dup4\n        /* \"#utility.yul\":2123:2152   */\n      tag_310\n      jump\t// in\n    tag_325:\n        /* \"#utility.yul\":2113:2152   */\n      swap2\n      pop\n        /* \"#utility.yul\":2202:2204   */\n      0x20\n        /* \"#utility.yul\":2191:2200   */\n      dup4\n        /* \"#utility.yul\":2187:2205   */\n      add\n        /* \"#utility.yul\":2174:2206   */\n      calldataload\n        /* \"#utility.yul\":2249:2254   */\n      dup1\n        /* \"#utility.yul\":2242:2255   */\n      iszero\n        /* \"#utility.yul\":2235:2256   */\n      iszero\n        /* \"#utility.yul\":2228:2233   */\n      dup2\n        /* \"#utility.yul\":2225:2257   */\n      eq\n        /* \"#utility.yul\":2215:2275   */\n      tag_326\n      jumpi\n        /* \"#utility.yul\":2271:2272   */\n      0x00\n        /* \"#utility.yul\":2268:2269   */\n      dup1\n        /* \"#utility.yul\":2261:2273   */\n      revert\n        /* \"#utility.yul\":2215:2275   */\n    tag_326:\n        /* \"#utility.yul\":2294:2299   */\n      dup1\n        /* \"#utility.yul\":2284:2299   */\n      swap2\n      pop\n      pop\n        /* \"#utility.yul\":1958:2305   */\n      swap3\n      pop\n      swap3\n      swap1\n      pop\n      jump\t// out\n        /* \"#utility.yul\":2310:2496   */\n    tag_119:\n        /* \"#utility.yul\":2369:2375   */\n      0x00\n        /* \"#utility.yul\":2422:2424   */\n      0x20\n        /* \"#utility.yul\":2410:2419   */\n      dup3\n        /* \"#utility.yul\":2401:2408   */\n      dup5\n        /* \"#utility.yul\":2397:2420   */\n      sub\n        /* \"#utility.yul\":2393:2425   */\n      slt\n        /* \"#utility.yul\":2390:2442   */\n      iszero\n      tag_328\n      jumpi\n        /* \"#utility.yul\":2438:2439   */\n      0x00\n        /* \"#utility.yul\":2435:2436   */\n      dup1\n        /* \"#utility.yul\":2428:2440   */\n      revert\n        /* \"#utility.yul\":2390:2442   */\n    tag_328:\n        /* \"#utility.yul\":2461:2490   */\n      tag_329\n        /* \"#utility.yul\":2480:2489   */\n      dup3\n        /* \"#utility.yul\":2461:2490   */\n      tag_310\n      jump\t// in\n    tag_329:\n        /* \"#utility.yul\":2451:2490   */\n      swap4\n        /* \"#utility.yul\":2310:2496   */\n      swap3\n      pop\n      pop\n      pop\n      jump\t// out\n        /* \"#utility.yul\":5028:5155   */\n    tag_311:\n        /* \"#utility.yul\":5089:5099   */\n      0x4e487b71\n        /* \"#utility.yul\":5084:5087   */\n      0xe0\n        /* \"#utility.yul\":5080:5100   */\n      shl\n        /* \"#utility.yul\":5077:5078   */\n      0x00\n        /* \"#utility.yul\":5070:5101   */\n      mstore\n        /* \"#utility.yul\":5120:5124   */\n      0x11\n        /* \"#utility.yul\":5117:5118   */\n      0x04\n        /* \"#utility.yul\":5110:5125   */\n      mstore\n        /* \"#utility.yul\":5144:5148   */\n      0x24\n        /* \"#utility.yul\":5141:5142   */\n      0x00\n        /* \"#utility.yul\":5134:5149   */\n      revert\n        /* \"#utility.yul\":5160:5377   */\n    tag_178:\n        /* \"#utility.yul\":5200:5201   */\n      0x00\n        /* \"#utility.yul\":5226:5227   */\n      dup3\n        /* \"#utility.yul\":5216:5348   */\n      tag_339\n      jumpi\n        /* \"#utility.yul\":5270:5280   */\n      0x4e487b71\n        /* \"#utility.yul\":5265:5268   */\n      0xe0\n        /* \"#utility.yul\":5261:5281   */\n      shl\n        /* \"#utility.yul\":5258:5259   */\n      0x00\n        /* \"#utility.yul\":5251:5282   */\n      mstore\n        /* \"#utility.yul\":5305:5309   */\n      0x12\n        /* \"#utility.yul\":5302:5303   */\n      0x04\n        /* \"#utility.yul\":5295:5310   */\n      mstore\n        /* \"#utility.yul\":5333:5337   */\n      0x24\n        /* \"#utility.yul\":5330:5331   */\n      0x00\n        /* \"#utility.yul\":5323:5338   */\n      revert\n        /* \"#utility.yul\":5216:5348   */\n    tag_339:\n      pop\n        /* \"#utility.yul\":5362:5371   */\n      div\n      swap1\n        /* \"#utility.yul\":5160:5377   */\n      jump\t// out\n        /* \"#utility.yul\":5382:5550   */\n    tag_180:\n        /* \"#utility.yul\":5455:5464   */\n      dup1\n      dup3\n      mul\n        /* \"#utility.yul\":5486:5495   */\n      dup2\n      iszero\n        /* \"#utility.yul\":5503:5518   */\n      dup3\n      dup3\n      div\n        /* \"#utility.yul\":5497:5519   */\n      dup5\n      eq\n        /* \"#utility.yul\":5483:5520   */\n      or\n        /* \"#utility.yul\":5473:5544   */\n      tag_278\n      jumpi\n        /* \"#utility.yul\":5524:5542   */\n      tag_278\n      tag_311\n      jump\t// in\n        /* \"#utility.yul\":5555:5680   */\n    tag_182:\n        /* \"#utility.yul\":5620:5629   */\n      dup1\n      dup3\n      add\n        /* \"#utility.yul\":5641:5651   */\n      dup1\n      dup3\n      gt\n        /* \"#utility.yul\":5638:5674   */\n      iszero\n      tag_278\n      jumpi\n        /* \"#utility.yul\":5654:5672   */\n      tag_278\n      tag_311\n      jump\t// in\n        /* \"#utility.yul\":5685:5813   */\n    tag_187:\n        /* \"#utility.yul\":5752:5761   */\n      dup2\n      dup2\n      sub\n        /* \"#utility.yul\":5773:5784   */\n      dup2\n      dup2\n      gt\n        /* \"#utility.yul\":5770:5807   */\n      iszero\n      tag_278\n      jumpi\n        /* \"#utility.yul\":5787:5805   */\n      tag_278\n      tag_311\n      jump\t// in\n\n    auxdata: 0xa264697066735822122080bfe38453e37d56dfa5593196c4f52919e17ae2fcc9b56a68ccd5983c2b2aa664736f6c63430008110033\n}\n",
				"bytecode": {
					"linkReferences": {},
					"object": "608060405234801561001057600080fd5b506040516200149d3803806200149d8339810160408190526100319161009f565b600080546001600160a01b03199081166001600160a01b039a8b16179091556001949094556002805433908616179055600380549094169490971693909317909155600c556006555050600955610113565b80516001600160a01b038116811461009a57600080fd5b919050565b600080600080600080600080610100898b0312156100bc57600080fd5b6100c589610083565b97506100d360208a01610083565b9650604089015195506100e860608a01610083565b94506080890151935060a0890151925060c0890151915060e089015190509295985092959890939650565b61137a80620001236000396000f3fe6080604052600436106101855760003560e01c80635c975abb116100d1578063c683630d1161008a578063d57bde7911610064578063d57bde79146104b2578063d6b4675b146104c8578063ecefc705146104de578063fe67a54b146104f4576101bf565b8063c683630d14610467578063c6bc518214610487578063ceb164191461049d576101bf565b80635c975abb146103755780636b64c769146103955780637cc3ae8c146103aa57806391f90157146103c057806395ecc5cc146103e0578063b9ae736414610452576101bf565b80631f2698ab1161013e5780633ccfd60b116101185780633ccfd60b14610300578063412753581461031557806347ccca021461033557806353d6fd5914610355576101bf565b80631f2698ab146102be5780632aeee493146102d8578063378252f2146102eb576101bf565b806308551a53146101e957806312065fe01461022657806312fa6feb1461024357806317d531fc146102725780631cf5e669146102885780631df4ccfc146102a8576101bf565b366101bf576002546001600160a01b031633146101bd5760405162461bcd60e51b81526004016101b4906111f6565b60405180910390fd5b005b6002546001600160a01b031633146101bd5760405162461bcd60e51b81526004016101b4906111f6565b3480156101f557600080fd5b50600254610209906001600160a01b031681565b6040516001600160a01b0390911681526020015b60405180910390f35b34801561023257600080fd5b50475b60405190815260200161021d565b34801561024f57600080fd5b5060075461026290610100900460ff1681565b604051901515815260200161021d565b34801561027e57600080fd5b5061023560085481565b34801561029457600080fd5b50600454610209906001600160a01b031681565b3480156102b457600080fd5b50610235600a5481565b3480156102ca57600080fd5b506007546102629060ff1681565b6101bd6102e6366004611223565b610509565b3480156102f757600080fd5b506101bd610860565b34801561030c57600080fd5b506101bd610b61565b34801561032157600080fd5b50600354610209906001600160a01b031681565b34801561034157600080fd5b50600054610209906001600160a01b031681565b34801561036157600080fd5b506101bd610370366004611271565b610c7e565b34801561038157600080fd5b506007546102629062010000900460ff1681565b3480156103a157600080fd5b506101bd610d00565b3480156103b657600080fd5b5061023560065481565b3480156103cc57600080fd5b50600b54610209906001600160a01b031681565b3480156103ec57600080fd5b5061042a6103fb3660046112ad565b600d60205260009081526040902080546001820154600283015460038401546004909401549293919290919085565b604080519586526020860194909452928401919091526060830152608082015260a00161021d565b34801561045e57600080fd5b506101bd610e15565b34801561047357600080fd5b506102626104823660046112ad565b610ed0565b34801561049357600080fd5b5061023560015481565b3480156104a957600080fd5b506101bd610ef3565b3480156104be57600080fd5b50610235600c5481565b3480156104d457600080fd5b5061023560055481565b3480156104ea57600080fd5b5061023561271081565b34801561050057600080fd5b506101bd610fa3565b60075460ff1661054d5760405162461bcd60e51b815260206004820152600f60248201526e139bdd0814dd185c9d19590816595d608a1b60448201526064016101b4565b60075462010000900460ff16156105975760405162461bcd60e51b815260206004820152600e60248201526d105d58dd1a5bdb8814185d5cd95960921b60448201526064016101b4565b60065442106105d85760405162461bcd60e51b815260206004820152600d60248201526c105b1c9958591e48195b991959609a1b60448201526064016101b4565b6002546001600160a01b031633036106275760405162461bcd60e51b815260206004820152601260248201527114d95b1b195c881b9bdd08185b1b1bddd95960721b60448201526064016101b4565b336000908152600e602052604090205460ff1661067a5760405162461bcd60e51b815260206004820152601160248201527014195c9b5a5cdcda5bdb8819195b9a5959607a1b60448201526064016101b4565b600c5483116106b75760405162461bcd60e51b8152602060048201526009602482015268131bddd95c88109a5960ba1b60448201526064016101b4565b6009546000906106c9612710346112e5565b6106d39190611307565b905080600a60008282546106e7919061131e565b9091555050600b546001600160a01b03166000818152600d602052604090206004015461071491906110ed565b336000908152600d602052604090205415610766576107338134611331565b336000908152600d60205260409020600481019190915560018101859055858155600281018490556003018290556107f2565b6107986040518060a0016040528060008152602001600081526020016000815260200160008152602001600081525090565b6107a28234611331565b608082019081528682526020808301878152604080850188815260608601888152336000908152600d90955291909320945185559051600185015590516002840155516003830155516004909101555b600b80546001600160a01b03191633179055600c849055600880546001919060009061081f90849061131e565b909155505060405184815233907fe684a55f31b79eca403df938249029212a5925ec6be8012e099b45bc1019e5d29060200160405180910390a25050505050565b6002546001600160a01b0316331461088a5760405162461bcd60e51b81526004016101b4906111f6565b6006544210156108c85760405162461bcd60e51b8152602060048201526009602482015268139bdd08115b99195960ba1b60448201526064016101b4565b600b546001600160a01b031615610b1c57600054600b54600154604051632142170760e11b81523060048201526001600160a01b03928316602482015260448101919091529116906342842e0e906064015b600060405180830381600087803b15801561093457600080fd5b505af1158015610948573d6000803e3d6000fd5b5050600354600a54604051600094506001600160a01b039092169250908381818185875af1925050503d806000811461099d576040519150601f19603f3d011682016040523d82523d6000602084013e6109a2565b606091505b50509050806109f35760405162461bcd60e51b815260206004820152601760248201527f52657475726e206665652066756e6473206661696c656400000000000000000060448201526064016101b4565b600354600a546040519081526001600160a01b03909116907e57d762ad8f1734de771f2b521b2668347c0cee2d709a12254662cd5a7d41809060200160405180910390a2600254600c546040516000926001600160a01b031691908381818185875af1925050503d8060008114610a86576040519150601f19603f3d011682016040523d82523d6000602084013e610a8b565b606091505b5050905080610ad25760405162461bcd60e51b815260206004820152601360248201527214995d1d5c9b88199d5b991cc819985a5b1959606a1b60448201526064016101b4565b600254600c546040519081526001600160a01b03909116907f1c1b1a7e52e22e996a7b9c93efbf98eeb6171f5ecaa8f5c1c792427b53d29e84906020015b60405180910390a25050565b600054600254600154604051632142170760e11b81523060048201526001600160a01b03928316602482015260448101919091529116906342842e0e9060640161091a565b600b546001600160a01b03163303610bb45760405162461bcd60e51b81526020600482015260166024820152752cb7bab9102134b21034b9903a3432903434b3b432b960511b60448201526064016101b4565b336000908152600d60205260408120600401549003610c075760405162461bcd60e51b815260206004820152600f60248201526e139bc8189a591cc8199bdd5b991959608a1b60448201526064016101b4565b336000818152600d6020526040902060040154610c2491906110ed565b336000818152600d602090815260408083206004810184905583815560028101849055600301839055519182527f884edad9ce6fa2440d8a54cc123490eb96d2768479d49ff9c7366125a9424364910160405180910390a2565b6002546001600160a01b03163314610ca85760405162461bcd60e51b81526004016101b4906111f6565b6001600160a01b0382166000818152600e6020908152604091829020805460ff191685151590811790915591519182527fc2c8beffdf047b9e6c79b0e9dcd0bd71d174d84f52e013102fcc0e200dd58ee09101610b10565b6002546001600160a01b03163314610d2a5760405162461bcd60e51b81526004016101b4906111f6565b60075460ff1615610d6f5760405162461bcd60e51b815260206004820152600f60248201526e105b1c9958591e4814dd185c9d1959608a1b60448201526064016101b4565b6000546001546040516323b872dd60e01b815233600482015230602482015260448101919091526001600160a01b03909116906323b872dd90606401600060405180830381600087803b158015610dc557600080fd5b505af1158015610dd9573d6000803e3d6000fd5b50506007805460ff1916600117905550506040517fd295ebf0a48a9a43d600a6ecb8626baa711d5750dec13a08145013aa30cb92ea90600090a1565b6002546001600160a01b03163314610e3f5760405162461bcd60e51b81526004016101b4906111f6565b60075462010000900460ff1615610e895760405162461bcd60e51b815260206004820152600e60248201526d105b1c9958591e4814185d5cd95960921b60448201526064016101b4565b6007805462ff00001916620100001790556040513381527fdee06086e53b718fd5176fdaa88a207819a06a56b42087ac2cab84d32a335654906020015b60405180910390a1565b6001600160a01b0381166000908152600e602052604081205460ff165b92915050565b6002546001600160a01b03163314610f1d5760405162461bcd60e51b81526004016101b4906111f6565b60075462010000900460ff16610f675760405162461bcd60e51b815260206004820152600f60248201526e416c72656164792052756e6e696e6760881b60448201526064016101b4565b6007805462ff0000191690556040513381527fc1a02e947cf77134ed09ac0692636f0553306db51ffe4a1d9e7b51b4dcd9c76290602001610ec6565b6002546001600160a01b03163314610fcd5760405162461bcd60e51b81526004016101b4906111f6565b60075460ff166110115760405162461bcd60e51b815260206004820152600f60248201526e139bdd0814dd185c9d19590816595d608a1b60448201526064016101b4565b60065442101561104f5760405162461bcd60e51b8152602060048201526009602482015268139bdd08115b99195960ba1b60448201526064016101b4565b600754610100900460ff16156110975760405162461bcd60e51b815260206004820152600d60248201526c105b1c9958591e48115b991959609a1b60448201526064016101b4565b6007805461ff001916610100179055600b54600c54604080516001600160a01b03909316835260208301919091527fca09734d1fc32150404dc9252b4d991c6bee44319031b7159c03d5ae2c0627049101610ec6565b6000826001600160a01b03168260405160006040518083038185875af1925050503d806000811461113a576040519150601f19603f3d011682016040523d82523d6000602084013e61113f565b606091505b50509050806111865760405162461bcd60e51b815260206004820152601360248201527214995d1d5c9b88199d5b991cc819985a5b1959606a1b60448201526064016101b4565b336000908152600d6020526040808220600481018390558281556002810183905560030191909155516001600160a01b038416907fe523757eee9c213543af9b06c96e0629da383d3149173f4a03ab96d8ff526760906111e99085815260200190565b60405180910390a2505050565b60208082526013908201527229b2b73232b91034b9903737ba1037bbb732b960691b604082015260600190565b6000806000806080858703121561123957600080fd5b5050823594602084013594506040840135936060013592509050565b80356001600160a01b038116811461126c57600080fd5b919050565b6000806040838503121561128457600080fd5b61128d83611255565b9150602083013580151581146112a257600080fd5b809150509250929050565b6000602082840312156112bf57600080fd5b6112c882611255565b9392505050565b634e487b7160e01b600052601160045260246000fd5b60008261130257634e487b7160e01b600052601260045260246000fd5b500490565b8082028115828204841417610eed57610eed6112cf565b80820180821115610eed57610eed6112cf565b81810381811115610eed57610eed6112cf56fea264697066735822122080bfe38453e37d56dfa5593196c4f52919e17ae2fcc9b56a68ccd5983c2b2aa664736f6c63430008110033",
					"opcodes": "PUSH1 0x80 PUSH1 0x40 MSTORE CALLVALUE DUP1 ISZERO PUSH2 0x10 JUMPI PUSH1 0x0 DUP1 REVERT JUMPDEST POP PUSH1 0x40 MLOAD PUSH3 0x149D CODESIZE SUB DUP1 PUSH3 0x149D DUP4 CODECOPY DUP2 ADD PUSH1 0x40 DUP2 SWAP1 MSTORE PUSH2 0x31 SWAP2 PUSH2 0x9F JUMP JUMPDEST PUSH1 0x0 DUP1 SLOAD PUSH1 0x1 PUSH1 0x1 PUSH1 0xA0 SHL SUB NOT SWAP1 DUP2 AND PUSH1 0x1 PUSH1 0x1 PUSH1 0xA0 SHL SUB SWAP11 DUP12 AND OR SWAP1 SWAP2 SSTORE PUSH1 0x1 SWAP5 SWAP1 SWAP5 SSTORE PUSH1 0x2 DUP1 SLOAD CALLER SWAP1 DUP7 AND OR SWAP1 SSTORE PUSH1 0x3 DUP1 SLOAD SWAP1 SWAP5 AND SWAP5 SWAP1 SWAP8 AND SWAP4 SWAP1 SWAP4 OR SWAP1 SWAP2 SSTORE PUSH1 0xC SSTORE PUSH1 0x6 SSTORE POP POP PUSH1 0x9 SSTORE PUSH2 0x113 JUMP JUMPDEST DUP1 MLOAD PUSH1 0x1 PUSH1 0x1 PUSH1 0xA0 SHL SUB DUP2 AND DUP2 EQ PUSH2 0x9A JUMPI PUSH1 0x0 DUP1 REVERT JUMPDEST SWAP2 SWAP1 POP JUMP JUMPDEST PUSH1 0x0 DUP1 PUSH1 0x0 DUP1 PUSH1 0x0 DUP1 PUSH1 0x0 DUP1 PUSH2 0x100 DUP10 DUP12 SUB SLT ISZERO PUSH2 0xBC JUMPI PUSH1 0x0 DUP1 REVERT JUMPDEST PUSH2 0xC5 DUP10 PUSH2 0x83 JUMP JUMPDEST SWAP8 POP PUSH2 0xD3 PUSH1 0x20 DUP11 ADD PUSH2 0x83 JUMP JUMPDEST SWAP7 POP PUSH1 0x40 DUP10 ADD MLOAD SWAP6 POP PUSH2 0xE8 PUSH1 0x60 DUP11 ADD PUSH2 0x83 JUMP JUMPDEST SWAP5 POP PUSH1 0x80 DUP10 ADD MLOAD SWAP4 POP PUSH1 0xA0 DUP10 ADD MLOAD SWAP3 POP PUSH1 0xC0 DUP10 ADD MLOAD SWAP2 POP PUSH1 0xE0 DUP10 ADD MLOAD SWAP1 POP SWAP3 SWAP6 SWAP9 POP SWAP3 SWAP6 SWAP9 SWAP1 SWAP4 SWAP7 POP JUMP JUMPDEST PUSH2 0x137A DUP1 PUSH3 0x123 PUSH1 0x0 CODECOPY PUSH1 0x0 RETURN INVALID PUSH1 0x80 PUSH1 0x40 MSTORE PUSH1 0x4 CALLDATASIZE LT PUSH2 0x185 JUMPI PUSH1 0x0 CALLDATALOAD PUSH1 0xE0 SHR DUP1 PUSH4 0x5C975ABB GT PUSH2 0xD1 JUMPI DUP1 PUSH4 0xC683630D GT PUSH2 0x8A JUMPI DUP1 PUSH4 0xD57BDE79 GT PUSH2 0x64 JUMPI DUP1 PUSH4 0xD57BDE79 EQ PUSH2 0x4B2 JUMPI DUP1 PUSH4 0xD6B4675B EQ PUSH2 0x4C8 JUMPI DUP1 PUSH4 0xECEFC705 EQ PUSH2 0x4DE JUMPI DUP1 PUSH4 0xFE67A54B EQ PUSH2 0x4F4 JUMPI PUSH2 0x1BF JUMP JUMPDEST DUP1 PUSH4 0xC683630D EQ PUSH2 0x467 JUMPI DUP1 PUSH4 0xC6BC5182 EQ PUSH2 0x487 JUMPI DUP1 PUSH4 0xCEB16419 EQ PUSH2 0x49D JUMPI PUSH2 0x1BF JUMP JUMPDEST DUP1 PUSH4 0x5C975ABB EQ PUSH2 0x375 JUMPI DUP1 PUSH4 0x6B64C769 EQ PUSH2 0x395 JUMPI DUP1 PUSH4 0x7CC3AE8C EQ PUSH2 0x3AA JUMPI DUP1 PUSH4 0x91F90157 EQ PUSH2 0x3C0 JUMPI DUP1 PUSH4 0x95ECC5CC EQ PUSH2 0x3E0 JUMPI DUP1 PUSH4 0xB9AE7364 EQ PUSH2 0x452 JUMPI PUSH2 0x1BF JUMP JUMPDEST DUP1 PUSH4 0x1F2698AB GT PUSH2 0x13E JUMPI DUP1 PUSH4 0x3CCFD60B GT PUSH2 0x118 JUMPI DUP1 PUSH4 0x3CCFD60B EQ PUSH2 0x300 JUMPI DUP1 PUSH4 0x41275358 EQ PUSH2 0x315 JUMPI DUP1 PUSH4 0x47CCCA02 EQ PUSH2 0x335 JUMPI DUP1 PUSH4 0x53D6FD59 EQ PUSH2 0x355 JUMPI PUSH2 0x1BF JUMP JUMPDEST DUP1 PUSH4 0x1F2698AB EQ PUSH2 0x2BE JUMPI DUP1 PUSH4 0x2AEEE493 EQ PUSH2 0x2D8 JUMPI DUP1 PUSH4 0x378252F2 EQ PUSH2 0x2EB JUMPI PUSH2 0x1BF JUMP JUMPDEST DUP1 PUSH4 0x8551A53 EQ PUSH2 0x1E9 JUMPI DUP1 PUSH4 0x12065FE0 EQ PUSH2 0x226 JUMPI DUP1 PUSH4 0x12FA6FEB EQ PUSH2 0x243 JUMPI DUP1 PUSH4 0x17D531FC EQ PUSH2 0x272 JUMPI DUP1 PUSH4 0x1CF5E669 EQ PUSH2 0x288 JUMPI DUP1 PUSH4 0x1DF4CCFC EQ PUSH2 0x2A8 JUMPI PUSH2 0x1BF JUMP JUMPDEST CALLDATASIZE PUSH2 0x1BF JUMPI PUSH1 0x2 SLOAD PUSH1 0x1 PUSH1 0x1 PUSH1 0xA0 SHL SUB AND CALLER EQ PUSH2 0x1BD JUMPI PUSH1 0x40 MLOAD PUSH3 0x461BCD PUSH1 0xE5 SHL DUP2 MSTORE PUSH1 0x4 ADD PUSH2 0x1B4 SWAP1 PUSH2 0x11F6 JUMP JUMPDEST PUSH1 0x40 MLOAD DUP1 SWAP2 SUB SWAP1 REVERT JUMPDEST STOP JUMPDEST PUSH1 0x2 SLOAD PUSH1 0x1 PUSH1 0x1 PUSH1 0xA0 SHL SUB AND CALLER EQ PUSH2 0x1BD JUMPI PUSH1 0x40 MLOAD PUSH3 0x461BCD PUSH1 0xE5 SHL DUP2 MSTORE PUSH1 0x4 ADD PUSH2 0x1B4 SWAP1 PUSH2 0x11F6 JUMP JUMPDEST CALLVALUE DUP1 ISZERO PUSH2 0x1F5 JUMPI PUSH1 0x0 DUP1 REVERT JUMPDEST POP PUSH1 0x2 SLOAD PUSH2 0x209 SWAP1 PUSH1 0x1 PUSH1 0x1 PUSH1 0xA0 SHL SUB AND DUP2 JUMP JUMPDEST PUSH1 0x40 MLOAD PUSH1 0x1 PUSH1 0x1 PUSH1 0xA0 SHL SUB SWAP1 SWAP2 AND DUP2 MSTORE PUSH1 0x20 ADD JUMPDEST PUSH1 0x40 MLOAD DUP1 SWAP2 SUB SWAP1 RETURN JUMPDEST CALLVALUE DUP1 ISZERO PUSH2 0x232 JUMPI PUSH1 0x0 DUP1 REVERT JUMPDEST POP SELFBALANCE JUMPDEST PUSH1 0x40 MLOAD SWAP1 DUP2 MSTORE PUSH1 0x20 ADD PUSH2 0x21D JUMP JUMPDEST CALLVALUE DUP1 ISZERO PUSH2 0x24F JUMPI PUSH1 0x0 DUP1 REVERT JUMPDEST POP PUSH1 0x7 SLOAD PUSH2 0x262 SWAP1 PUSH2 0x100 SWAP1 DIV PUSH1 0xFF AND DUP2 JUMP JUMPDEST PUSH1 0x40 MLOAD SWAP1 ISZERO ISZERO DUP2 MSTORE PUSH1 0x20 ADD PUSH2 0x21D JUMP JUMPDEST CALLVALUE DUP1 ISZERO PUSH2 0x27E JUMPI PUSH1 0x0 DUP1 REVERT JUMPDEST POP PUSH2 0x235 PUSH1 0x8 SLOAD DUP2 JUMP JUMPDEST CALLVALUE DUP1 ISZERO PUSH2 0x294 JUMPI PUSH1 0x0 DUP1 REVERT JUMPDEST POP PUSH1 0x4 SLOAD PUSH2 0x209 SWAP1 PUSH1 0x1 PUSH1 0x1 PUSH1 0xA0 SHL SUB AND DUP2 JUMP JUMPDEST CALLVALUE DUP1 ISZERO PUSH2 0x2B4 JUMPI PUSH1 0x0 DUP1 REVERT JUMPDEST POP PUSH2 0x235 PUSH1 0xA SLOAD DUP2 JUMP JUMPDEST CALLVALUE DUP1 ISZERO PUSH2 0x2CA JUMPI PUSH1 0x0 DUP1 REVERT JUMPDEST POP PUSH1 0x7 SLOAD PUSH2 0x262 SWAP1 PUSH1 0xFF AND DUP2 JUMP JUMPDEST PUSH2 0x1BD PUSH2 0x2E6 CALLDATASIZE PUSH1 0x4 PUSH2 0x1223 JUMP JUMPDEST PUSH2 0x509 JUMP JUMPDEST CALLVALUE DUP1 ISZERO PUSH2 0x2F7 JUMPI PUSH1 0x0 DUP1 REVERT JUMPDEST POP PUSH2 0x1BD PUSH2 0x860 JUMP JUMPDEST CALLVALUE DUP1 ISZERO PUSH2 0x30C JUMPI PUSH1 0x0 DUP1 REVERT JUMPDEST POP PUSH2 0x1BD PUSH2 0xB61 JUMP JUMPDEST CALLVALUE DUP1 ISZERO PUSH2 0x321 JUMPI PUSH1 0x0 DUP1 REVERT JUMPDEST POP PUSH1 0x3 SLOAD PUSH2 0x209 SWAP1 PUSH1 0x1 PUSH1 0x1 PUSH1 0xA0 SHL SUB AND DUP2 JUMP JUMPDEST CALLVALUE DUP1 ISZERO PUSH2 0x341 JUMPI PUSH1 0x0 DUP1 REVERT JUMPDEST POP PUSH1 0x0 SLOAD PUSH2 0x209 SWAP1 PUSH1 0x1 PUSH1 0x1 PUSH1 0xA0 SHL SUB AND DUP2 JUMP JUMPDEST CALLVALUE DUP1 ISZERO PUSH2 0x361 JUMPI PUSH1 0x0 DUP1 REVERT JUMPDEST POP PUSH2 0x1BD PUSH2 0x370 CALLDATASIZE PUSH1 0x4 PUSH2 0x1271 JUMP JUMPDEST PUSH2 0xC7E JUMP JUMPDEST CALLVALUE DUP1 ISZERO PUSH2 0x381 JUMPI PUSH1 0x0 DUP1 REVERT JUMPDEST POP PUSH1 0x7 SLOAD PUSH2 0x262 SWAP1 PUSH3 0x10000 SWAP1 DIV PUSH1 0xFF AND DUP2 JUMP JUMPDEST CALLVALUE DUP1 ISZERO PUSH2 0x3A1 JUMPI PUSH1 0x0 DUP1 REVERT JUMPDEST POP PUSH2 0x1BD PUSH2 0xD00 JUMP JUMPDEST CALLVALUE DUP1 ISZERO PUSH2 0x3B6 JUMPI PUSH1 0x0 DUP1 REVERT JUMPDEST POP PUSH2 0x235 PUSH1 0x6 SLOAD DUP2 JUMP JUMPDEST CALLVALUE DUP1 ISZERO PUSH2 0x3CC JUMPI PUSH1 0x0 DUP1 REVERT JUMPDEST POP PUSH1 0xB SLOAD PUSH2 0x209 SWAP1 PUSH1 0x1 PUSH1 0x1 PUSH1 0xA0 SHL SUB AND DUP2 JUMP JUMPDEST CALLVALUE DUP1 ISZERO PUSH2 0x3EC JUMPI PUSH1 0x0 DUP1 REVERT JUMPDEST POP PUSH2 0x42A PUSH2 0x3FB CALLDATASIZE PUSH1 0x4 PUSH2 0x12AD JUMP JUMPDEST PUSH1 0xD PUSH1 0x20 MSTORE PUSH1 0x0 SWAP1 DUP2 MSTORE PUSH1 0x40 SWAP1 KECCAK256 DUP1 SLOAD PUSH1 0x1 DUP3 ADD SLOAD PUSH1 0x2 DUP4 ADD SLOAD PUSH1 0x3 DUP5 ADD SLOAD PUSH1 0x4 SWAP1 SWAP5 ADD SLOAD SWAP3 SWAP4 SWAP2 SWAP3 SWAP1 SWAP2 SWAP1 DUP6 JUMP JUMPDEST PUSH1 0x40 DUP1 MLOAD SWAP6 DUP7 MSTORE PUSH1 0x20 DUP7 ADD SWAP5 SWAP1 SWAP5 MSTORE SWAP3 DUP5 ADD SWAP2 SWAP1 SWAP2 MSTORE PUSH1 0x60 DUP4 ADD MSTORE PUSH1 0x80 DUP3 ADD MSTORE PUSH1 0xA0 ADD PUSH2 0x21D JUMP JUMPDEST CALLVALUE DUP1 ISZERO PUSH2 0x45E JUMPI PUSH1 0x0 DUP1 REVERT JUMPDEST POP PUSH2 0x1BD PUSH2 0xE15 JUMP JUMPDEST CALLVALUE DUP1 ISZERO PUSH2 0x473 JUMPI PUSH1 0x0 DUP1 REVERT JUMPDEST POP PUSH2 0x262 PUSH2 0x482 CALLDATASIZE PUSH1 0x4 PUSH2 0x12AD JUMP JUMPDEST PUSH2 0xED0 JUMP JUMPDEST CALLVALUE DUP1 ISZERO PUSH2 0x493 JUMPI PUSH1 0x0 DUP1 REVERT JUMPDEST POP PUSH2 0x235 PUSH1 0x1 SLOAD DUP2 JUMP JUMPDEST CALLVALUE DUP1 ISZERO PUSH2 0x4A9 JUMPI PUSH1 0x0 DUP1 REVERT JUMPDEST POP PUSH2 0x1BD PUSH2 0xEF3 JUMP JUMPDEST CALLVALUE DUP1 ISZERO PUSH2 0x4BE JUMPI PUSH1 0x0 DUP1 REVERT JUMPDEST POP PUSH2 0x235 PUSH1 0xC SLOAD DUP2 JUMP JUMPDEST CALLVALUE DUP1 ISZERO PUSH2 0x4D4 JUMPI PUSH1 0x0 DUP1 REVERT JUMPDEST POP PUSH2 0x235 PUSH1 0x5 SLOAD DUP2 JUMP JUMPDEST CALLVALUE DUP1 ISZERO PUSH2 0x4EA JUMPI PUSH1 0x0 DUP1 REVERT JUMPDEST POP PUSH2 0x235 PUSH2 0x2710 DUP2 JUMP JUMPDEST CALLVALUE DUP1 ISZERO PUSH2 0x500 JUMPI PUSH1 0x0 DUP1 REVERT JUMPDEST POP PUSH2 0x1BD PUSH2 0xFA3 JUMP JUMPDEST PUSH1 0x7 SLOAD PUSH1 0xFF AND PUSH2 0x54D JUMPI PUSH1 0x40 MLOAD PUSH3 0x461BCD PUSH1 0xE5 SHL DUP2 MSTORE PUSH1 0x20 PUSH1 0x4 DUP3 ADD MSTORE PUSH1 0xF PUSH1 0x24 DUP3 ADD MSTORE PUSH15 0x139BDD0814DD185C9D19590816595D PUSH1 0x8A SHL PUSH1 0x44 DUP3 ADD MSTORE PUSH1 0x64 ADD PUSH2 0x1B4 JUMP JUMPDEST PUSH1 0x7 SLOAD PUSH3 0x10000 SWAP1 DIV PUSH1 0xFF AND ISZERO PUSH2 0x597 JUMPI PUSH1 0x40 MLOAD PUSH3 0x461BCD PUSH1 0xE5 SHL DUP2 MSTORE PUSH1 0x20 PUSH1 0x4 DUP3 ADD MSTORE PUSH1 0xE PUSH1 0x24 DUP3 ADD MSTORE PUSH14 0x105D58DD1A5BDB8814185D5CD959 PUSH1 0x92 SHL PUSH1 0x44 DUP3 ADD MSTORE PUSH1 0x64 ADD PUSH2 0x1B4 JUMP JUMPDEST PUSH1 0x6 SLOAD TIMESTAMP LT PUSH2 0x5D8 JUMPI PUSH1 0x40 MLOAD PUSH3 0x461BCD PUSH1 0xE5 SHL DUP2 MSTORE PUSH1 0x20 PUSH1 0x4 DUP3 ADD MSTORE PUSH1 0xD PUSH1 0x24 DUP3 ADD MSTORE PUSH13 0x105B1C9958591E48195B991959 PUSH1 0x9A SHL PUSH1 0x44 DUP3 ADD MSTORE PUSH1 0x64 ADD PUSH2 0x1B4 JUMP JUMPDEST PUSH1 0x2 SLOAD PUSH1 0x1 PUSH1 0x1 PUSH1 0xA0 SHL SUB AND CALLER SUB PUSH2 0x627 JUMPI PUSH1 0x40 MLOAD PUSH3 0x461BCD PUSH1 0xE5 SHL DUP2 MSTORE PUSH1 0x20 PUSH1 0x4 DUP3 ADD MSTORE PUSH1 0x12 PUSH1 0x24 DUP3 ADD MSTORE PUSH18 0x14D95B1B195C881B9BDD08185B1B1BDDD959 PUSH1 0x72 SHL PUSH1 0x44 DUP3 ADD MSTORE PUSH1 0x64 ADD PUSH2 0x1B4 JUMP JUMPDEST CALLER PUSH1 0x0 SWAP1 DUP2 MSTORE PUSH1 0xE PUSH1 0x20 MSTORE PUSH1 0x40 SWAP1 KECCAK256 SLOAD PUSH1 0xFF AND PUSH2 0x67A JUMPI PUSH1 0x40 MLOAD PUSH3 0x461BCD PUSH1 0xE5 SHL DUP2 MSTORE PUSH1 0x20 PUSH1 0x4 DUP3 ADD MSTORE PUSH1 0x11 PUSH1 0x24 DUP3 ADD MSTORE PUSH17 0x14195C9B5A5CDCDA5BDB8819195B9A5959 PUSH1 0x7A SHL PUSH1 0x44 DUP3 ADD MSTORE PUSH1 0x64 ADD PUSH2 0x1B4 JUMP JUMPDEST PUSH1 0xC SLOAD DUP4 GT PUSH2 0x6B7 JUMPI PUSH1 0x40 MLOAD PUSH3 0x461BCD PUSH1 0xE5 SHL DUP2 MSTORE PUSH1 0x20 PUSH1 0x4 DUP3 ADD MSTORE PUSH1 0x9 PUSH1 0x24 DUP3 ADD MSTORE PUSH9 0x131BDDD95C88109A59 PUSH1 0xBA SHL PUSH1 0x44 DUP3 ADD MSTORE PUSH1 0x64 ADD PUSH2 0x1B4 JUMP JUMPDEST PUSH1 0x9 SLOAD PUSH1 0x0 SWAP1 PUSH2 0x6C9 PUSH2 0x2710 CALLVALUE PUSH2 0x12E5 JUMP JUMPDEST PUSH2 0x6D3 SWAP2 SWAP1 PUSH2 0x1307 JUMP JUMPDEST SWAP1 POP DUP1 PUSH1 0xA PUSH1 0x0 DUP3 DUP3 SLOAD PUSH2 0x6E7 SWAP2 SWAP1 PUSH2 0x131E JUMP JUMPDEST SWAP1 SWAP2 SSTORE POP POP PUSH1 0xB SLOAD PUSH1 0x1 PUSH1 0x1 PUSH1 0xA0 SHL SUB AND PUSH1 0x0 DUP2 DUP2 MSTORE PUSH1 0xD PUSH1 0x20 MSTORE PUSH1 0x40 SWAP1 KECCAK256 PUSH1 0x4 ADD SLOAD PUSH2 0x714 SWAP2 SWAP1 PUSH2 0x10ED JUMP JUMPDEST CALLER PUSH1 0x0 SWAP1 DUP2 MSTORE PUSH1 0xD PUSH1 0x20 MSTORE PUSH1 0x40 SWAP1 KECCAK256 SLOAD ISZERO PUSH2 0x766 JUMPI PUSH2 0x733 DUP2 CALLVALUE PUSH2 0x1331 JUMP JUMPDEST CALLER PUSH1 0x0 SWAP1 DUP2 MSTORE PUSH1 0xD PUSH1 0x20 MSTORE PUSH1 0x40 SWAP1 KECCAK256 PUSH1 0x4 DUP2 ADD SWAP2 SWAP1 SWAP2 SSTORE PUSH1 0x1 DUP2 ADD DUP6 SWAP1 SSTORE DUP6 DUP2 SSTORE PUSH1 0x2 DUP2 ADD DUP5 SWAP1 SSTORE PUSH1 0x3 ADD DUP3 SWAP1 SSTORE PUSH2 0x7F2 JUMP JUMPDEST PUSH2 0x798 PUSH1 0x40 MLOAD DUP1 PUSH1 0xA0 ADD PUSH1 0x40 MSTORE DUP1 PUSH1 0x0 DUP2 MSTORE PUSH1 0x20 ADD PUSH1 0x0 DUP2 MSTORE PUSH1 0x20 ADD PUSH1 0x0 DUP2 MSTORE PUSH1 0x20 ADD PUSH1 0x0 DUP2 MSTORE PUSH1 0x20 ADD PUSH1 0x0 DUP2 MSTORE POP SWAP1 JUMP JUMPDEST PUSH2 0x7A2 DUP3 CALLVALUE PUSH2 0x1331 JUMP JUMPDEST PUSH1 0x80 DUP3 ADD SWAP1 DUP2 MSTORE DUP7 DUP3 MSTORE PUSH1 0x20 DUP1 DUP4 ADD DUP8 DUP2 MSTORE PUSH1 0x40 DUP1 DUP6 ADD DUP9 DUP2 MSTORE PUSH1 0x60 DUP7 ADD DUP9 DUP2 MSTORE CALLER PUSH1 0x0 SWAP1 DUP2 MSTORE PUSH1 0xD SWAP1 SWAP6 MSTORE SWAP2 SWAP1 SWAP4 KECCAK256 SWAP5 MLOAD DUP6 SSTORE SWAP1 MLOAD PUSH1 0x1 DUP6 ADD SSTORE SWAP1 MLOAD PUSH1 0x2 DUP5 ADD SSTORE MLOAD PUSH1 0x3 DUP4 ADD SSTORE MLOAD PUSH1 0x4 SWAP1 SWAP2 ADD SSTORE JUMPDEST PUSH1 0xB DUP1 SLOAD PUSH1 0x1 PUSH1 0x1 PUSH1 0xA0 SHL SUB NOT AND CALLER OR SWAP1 SSTORE PUSH1 0xC DUP5 SWAP1 SSTORE PUSH1 0x8 DUP1 SLOAD PUSH1 0x1 SWAP2 SWAP1 PUSH1 0x0 SWAP1 PUSH2 0x81F SWAP1 DUP5 SWAP1 PUSH2 0x131E JUMP JUMPDEST SWAP1 SWAP2 SSTORE POP POP PUSH1 0x40 MLOAD DUP5 DUP2 MSTORE CALLER SWAP1 PUSH32 0xE684A55F31B79ECA403DF938249029212A5925EC6BE8012E099B45BC1019E5D2 SWAP1 PUSH1 0x20 ADD PUSH1 0x40 MLOAD DUP1 SWAP2 SUB SWAP1 LOG2 POP POP POP POP POP JUMP JUMPDEST PUSH1 0x2 SLOAD PUSH1 0x1 PUSH1 0x1 PUSH1 0xA0 SHL SUB AND CALLER EQ PUSH2 0x88A JUMPI PUSH1 0x40 MLOAD PUSH3 0x461BCD PUSH1 0xE5 SHL DUP2 MSTORE PUSH1 0x4 ADD PUSH2 0x1B4 SWAP1 PUSH2 0x11F6 JUMP JUMPDEST PUSH1 0x6 SLOAD TIMESTAMP LT ISZERO PUSH2 0x8C8 JUMPI PUSH1 0x40 MLOAD PUSH3 0x461BCD PUSH1 0xE5 SHL DUP2 MSTORE PUSH1 0x20 PUSH1 0x4 DUP3 ADD MSTORE PUSH1 0x9 PUSH1 0x24 DUP3 ADD MSTORE PUSH9 0x139BDD08115B991959 PUSH1 0xBA SHL PUSH1 0x44 DUP3 ADD MSTORE PUSH1 0x64 ADD PUSH2 0x1B4 JUMP JUMPDEST PUSH1 0xB SLOAD PUSH1 0x1 PUSH1 0x1 PUSH1 0xA0 SHL SUB AND ISZERO PUSH2 0xB1C JUMPI PUSH1 0x0 SLOAD PUSH1 0xB SLOAD PUSH1 0x1 SLOAD PUSH1 0x40 MLOAD PUSH4 0x21421707 PUSH1 0xE1 SHL DUP2 MSTORE ADDRESS PUSH1 0x4 DUP3 ADD MSTORE PUSH1 0x1 PUSH1 0x1 PUSH1 0xA0 SHL SUB SWAP3 DUP4 AND PUSH1 0x24 DUP3 ADD MSTORE PUSH1 0x44 DUP2 ADD SWAP2 SWAP1 SWAP2 MSTORE SWAP2 AND SWAP1 PUSH4 0x42842E0E SWAP1 PUSH1 0x64 ADD JUMPDEST PUSH1 0x0 PUSH1 0x40 MLOAD DUP1 DUP4 SUB DUP2 PUSH1 0x0 DUP8 DUP1 EXTCODESIZE ISZERO DUP1 ISZERO PUSH2 0x934 JUMPI PUSH1 0x0 DUP1 REVERT JUMPDEST POP GAS CALL ISZERO DUP1 ISZERO PUSH2 0x948 JUMPI RETURNDATASIZE PUSH1 0x0 DUP1 RETURNDATACOPY RETURNDATASIZE PUSH1 0x0 REVERT JUMPDEST POP POP PUSH1 0x3 SLOAD PUSH1 0xA SLOAD PUSH1 0x40 MLOAD PUSH1 0x0 SWAP5 POP PUSH1 0x1 PUSH1 0x1 PUSH1 0xA0 SHL SUB SWAP1 SWAP3 AND SWAP3 POP SWAP1 DUP4 DUP2 DUP2 DUP2 DUP6 DUP8 GAS CALL SWAP3 POP POP POP RETURNDATASIZE DUP1 PUSH1 0x0 DUP2 EQ PUSH2 0x99D JUMPI PUSH1 0x40 MLOAD SWAP2 POP PUSH1 0x1F NOT PUSH1 0x3F RETURNDATASIZE ADD AND DUP3 ADD PUSH1 0x40 MSTORE RETURNDATASIZE DUP3 MSTORE RETURNDATASIZE PUSH1 0x0 PUSH1 0x20 DUP5 ADD RETURNDATACOPY PUSH2 0x9A2 JUMP JUMPDEST PUSH1 0x60 SWAP2 POP JUMPDEST POP POP SWAP1 POP DUP1 PUSH2 0x9F3 JUMPI PUSH1 0x40 MLOAD PUSH3 0x461BCD PUSH1 0xE5 SHL DUP2 MSTORE PUSH1 0x20 PUSH1 0x4 DUP3 ADD MSTORE PUSH1 0x17 PUSH1 0x24 DUP3 ADD MSTORE PUSH32 0x52657475726E206665652066756E6473206661696C6564000000000000000000 PUSH1 0x44 DUP3 ADD MSTORE PUSH1 0x64 ADD PUSH2 0x1B4 JUMP JUMPDEST PUSH1 0x3 SLOAD PUSH1 0xA SLOAD PUSH1 0x40 MLOAD SWAP1 DUP2 MSTORE PUSH1 0x1 PUSH1 0x1 PUSH1 0xA0 SHL SUB SWAP1 SWAP2 AND SWAP1 PUSH31 0x57D762AD8F1734DE771F2B521B2668347C0CEE2D709A12254662CD5A7D4180 SWAP1 PUSH1 0x20 ADD PUSH1 0x40 MLOAD DUP1 SWAP2 SUB SWAP1 LOG2 PUSH1 0x2 SLOAD PUSH1 0xC SLOAD PUSH1 0x40 MLOAD PUSH1 0x0 SWAP3 PUSH1 0x1 PUSH1 0x1 PUSH1 0xA0 SHL SUB AND SWAP2 SWAP1 DUP4 DUP2 DUP2 DUP2 DUP6 DUP8 GAS CALL SWAP3 POP POP POP RETURNDATASIZE DUP1 PUSH1 0x0 DUP2 EQ PUSH2 0xA86 JUMPI PUSH1 0x40 MLOAD SWAP2 POP PUSH1 0x1F NOT PUSH1 0x3F RETURNDATASIZE ADD AND DUP3 ADD PUSH1 0x40 MSTORE RETURNDATASIZE DUP3 MSTORE RETURNDATASIZE PUSH1 0x0 PUSH1 0x20 DUP5 ADD RETURNDATACOPY PUSH2 0xA8B JUMP JUMPDEST PUSH1 0x60 SWAP2 POP JUMPDEST POP POP SWAP1 POP DUP1 PUSH2 0xAD2 JUMPI PUSH1 0x40 MLOAD PUSH3 0x461BCD PUSH1 0xE5 SHL DUP2 MSTORE PUSH1 0x20 PUSH1 0x4 DUP3 ADD MSTORE PUSH1 0x13 PUSH1 0x24 DUP3 ADD MSTORE PUSH19 0x14995D1D5C9B88199D5B991CC819985A5B1959 PUSH1 0x6A SHL PUSH1 0x44 DUP3 ADD MSTORE PUSH1 0x64 ADD PUSH2 0x1B4 JUMP JUMPDEST PUSH1 0x2 SLOAD PUSH1 0xC SLOAD PUSH1 0x40 MLOAD SWAP1 DUP2 MSTORE PUSH1 0x1 PUSH1 0x1 PUSH1 0xA0 SHL SUB SWAP1 SWAP2 AND SWAP1 PUSH32 0x1C1B1A7E52E22E996A7B9C93EFBF98EEB6171F5ECAA8F5C1C792427B53D29E84 SWAP1 PUSH1 0x20 ADD JUMPDEST PUSH1 0x40 MLOAD DUP1 SWAP2 SUB SWAP1 LOG2 POP POP JUMP JUMPDEST PUSH1 0x0 SLOAD PUSH1 0x2 SLOAD PUSH1 0x1 SLOAD PUSH1 0x40 MLOAD PUSH4 0x21421707 PUSH1 0xE1 SHL DUP2 MSTORE ADDRESS PUSH1 0x4 DUP3 ADD MSTORE PUSH1 0x1 PUSH1 0x1 PUSH1 0xA0 SHL SUB SWAP3 DUP4 AND PUSH1 0x24 DUP3 ADD MSTORE PUSH1 0x44 DUP2 ADD SWAP2 SWAP1 SWAP2 MSTORE SWAP2 AND SWAP1 PUSH4 0x42842E0E SWAP1 PUSH1 0x64 ADD PUSH2 0x91A JUMP JUMPDEST PUSH1 0xB SLOAD PUSH1 0x1 PUSH1 0x1 PUSH1 0xA0 SHL SUB AND CALLER SUB PUSH2 0xBB4 JUMPI PUSH1 0x40 MLOAD PUSH3 0x461BCD PUSH1 0xE5 SHL DUP2 MSTORE PUSH1 0x20 PUSH1 0x4 DUP3 ADD MSTORE PUSH1 0x16 PUSH1 0x24 DUP3 ADD MSTORE PUSH22 0x2CB7BAB9102134B21034B9903A3432903434B3B432B9 PUSH1 0x51 SHL PUSH1 0x44 DUP3 ADD MSTORE PUSH1 0x64 ADD PUSH2 0x1B4 JUMP JUMPDEST CALLER PUSH1 0x0 SWAP1 DUP2 MSTORE PUSH1 0xD PUSH1 0x20 MSTORE PUSH1 0x40 DUP2 KECCAK256 PUSH1 0x4 ADD SLOAD SWAP1 SUB PUSH2 0xC07 JUMPI PUSH1 0x40 MLOAD PUSH3 0x461BCD PUSH1 0xE5 SHL DUP2 MSTORE PUSH1 0x20 PUSH1 0x4 DUP3 ADD MSTORE PUSH1 0xF PUSH1 0x24 DUP3 ADD MSTORE PUSH15 0x139BC8189A591CC8199BDD5B991959 PUSH1 0x8A SHL PUSH1 0x44 DUP3 ADD MSTORE PUSH1 0x64 ADD PUSH2 0x1B4 JUMP JUMPDEST CALLER PUSH1 0x0 DUP2 DUP2 MSTORE PUSH1 0xD PUSH1 0x20 MSTORE PUSH1 0x40 SWAP1 KECCAK256 PUSH1 0x4 ADD SLOAD PUSH2 0xC24 SWAP2 SWAP1 PUSH2 0x10ED JUMP JUMPDEST CALLER PUSH1 0x0 DUP2 DUP2 MSTORE PUSH1 0xD PUSH1 0x20 SWAP1 DUP2 MSTORE PUSH1 0x40 DUP1 DUP4 KECCAK256 PUSH1 0x4 DUP2 ADD DUP5 SWAP1 SSTORE DUP4 DUP2 SSTORE PUSH1 0x2 DUP2 ADD DUP5 SWAP1 SSTORE PUSH1 0x3 ADD DUP4 SWAP1 SSTORE MLOAD SWAP2 DUP3 MSTORE PUSH32 0x884EDAD9CE6FA2440D8A54CC123490EB96D2768479D49FF9C7366125A9424364 SWAP2 ADD PUSH1 0x40 MLOAD DUP1 SWAP2 SUB SWAP1 LOG2 JUMP JUMPDEST PUSH1 0x2 SLOAD PUSH1 0x1 PUSH1 0x1 PUSH1 0xA0 SHL SUB AND CALLER EQ PUSH2 0xCA8 JUMPI PUSH1 0x40 MLOAD PUSH3 0x461BCD PUSH1 0xE5 SHL DUP2 MSTORE PUSH1 0x4 ADD PUSH2 0x1B4 SWAP1 PUSH2 0x11F6 JUMP JUMPDEST PUSH1 0x1 PUSH1 0x1 PUSH1 0xA0 SHL SUB DUP3 AND PUSH1 0x0 DUP2 DUP2 MSTORE PUSH1 0xE PUSH1 0x20 SWAP1 DUP2 MSTORE PUSH1 0x40 SWAP2 DUP3 SWAP1 KECCAK256 DUP1 SLOAD PUSH1 0xFF NOT AND DUP6 ISZERO ISZERO SWAP1 DUP2 OR SWAP1 SWAP2 SSTORE SWAP2 MLOAD SWAP2 DUP3 MSTORE PUSH32 0xC2C8BEFFDF047B9E6C79B0E9DCD0BD71D174D84F52E013102FCC0E200DD58EE0 SWAP2 ADD PUSH2 0xB10 JUMP JUMPDEST PUSH1 0x2 SLOAD PUSH1 0x1 PUSH1 0x1 PUSH1 0xA0 SHL SUB AND CALLER EQ PUSH2 0xD2A JUMPI PUSH1 0x40 MLOAD PUSH3 0x461BCD PUSH1 0xE5 SHL DUP2 MSTORE PUSH1 0x4 ADD PUSH2 0x1B4 SWAP1 PUSH2 0x11F6 JUMP JUMPDEST PUSH1 0x7 SLOAD PUSH1 0xFF AND ISZERO PUSH2 0xD6F JUMPI PUSH1 0x40 MLOAD PUSH3 0x461BCD PUSH1 0xE5 SHL DUP2 MSTORE PUSH1 0x20 PUSH1 0x4 DUP3 ADD MSTORE PUSH1 0xF PUSH1 0x24 DUP3 ADD MSTORE PUSH15 0x105B1C9958591E4814DD185C9D1959 PUSH1 0x8A SHL PUSH1 0x44 DUP3 ADD MSTORE PUSH1 0x64 ADD PUSH2 0x1B4 JUMP JUMPDEST PUSH1 0x0 SLOAD PUSH1 0x1 SLOAD PUSH1 0x40 MLOAD PUSH4 0x23B872DD PUSH1 0xE0 SHL DUP2 MSTORE CALLER PUSH1 0x4 DUP3 ADD MSTORE ADDRESS PUSH1 0x24 DUP3 ADD MSTORE PUSH1 0x44 DUP2 ADD SWAP2 SWAP1 SWAP2 MSTORE PUSH1 0x1 PUSH1 0x1 PUSH1 0xA0 SHL SUB SWAP1 SWAP2 AND SWAP1 PUSH4 0x23B872DD SWAP1 PUSH1 0x64 ADD PUSH1 0x0 PUSH1 0x40 MLOAD DUP1 DUP4 SUB DUP2 PUSH1 0x0 DUP8 DUP1 EXTCODESIZE ISZERO DUP1 ISZERO PUSH2 0xDC5 JUMPI PUSH1 0x0 DUP1 REVERT JUMPDEST POP GAS CALL ISZERO DUP1 ISZERO PUSH2 0xDD9 JUMPI RETURNDATASIZE PUSH1 0x0 DUP1 RETURNDATACOPY RETURNDATASIZE PUSH1 0x0 REVERT JUMPDEST POP POP PUSH1 0x7 DUP1 SLOAD PUSH1 0xFF NOT AND PUSH1 0x1 OR SWAP1 SSTORE POP POP PUSH1 0x40 MLOAD PUSH32 0xD295EBF0A48A9A43D600A6ECB8626BAA711D5750DEC13A08145013AA30CB92EA SWAP1 PUSH1 0x0 SWAP1 LOG1 JUMP JUMPDEST PUSH1 0x2 SLOAD PUSH1 0x1 PUSH1 0x1 PUSH1 0xA0 SHL SUB AND CALLER EQ PUSH2 0xE3F JUMPI PUSH1 0x40 MLOAD PUSH3 0x461BCD PUSH1 0xE5 SHL DUP2 MSTORE PUSH1 0x4 ADD PUSH2 0x1B4 SWAP1 PUSH2 0x11F6 JUMP JUMPDEST PUSH1 0x7 SLOAD PUSH3 0x10000 SWAP1 DIV PUSH1 0xFF AND ISZERO PUSH2 0xE89 JUMPI PUSH1 0x40 MLOAD PUSH3 0x461BCD PUSH1 0xE5 SHL DUP2 MSTORE PUSH1 0x20 PUSH1 0x4 DUP3 ADD MSTORE PUSH1 0xE PUSH1 0x24 DUP3 ADD MSTORE PUSH14 0x105B1C9958591E4814185D5CD959 PUSH1 0x92 SHL PUSH1 0x44 DUP3 ADD MSTORE PUSH1 0x64 ADD PUSH2 0x1B4 JUMP JUMPDEST PUSH1 0x7 DUP1 SLOAD PUSH3 0xFF0000 NOT AND PUSH3 0x10000 OR SWAP1 SSTORE PUSH1 0x40 MLOAD CALLER DUP2 MSTORE PUSH32 0xDEE06086E53B718FD5176FDAA88A207819A06A56B42087AC2CAB84D32A335654 SWAP1 PUSH1 0x20 ADD JUMPDEST PUSH1 0x40 MLOAD DUP1 SWAP2 SUB SWAP1 LOG1 JUMP JUMPDEST PUSH1 0x1 PUSH1 0x1 PUSH1 0xA0 SHL SUB DUP2 AND PUSH1 0x0 SWAP1 DUP2 MSTORE PUSH1 0xE PUSH1 0x20 MSTORE PUSH1 0x40 DUP2 KECCAK256 SLOAD PUSH1 0xFF AND JUMPDEST SWAP3 SWAP2 POP POP JUMP JUMPDEST PUSH1 0x2 SLOAD PUSH1 0x1 PUSH1 0x1 PUSH1 0xA0 SHL SUB AND CALLER EQ PUSH2 0xF1D JUMPI PUSH1 0x40 MLOAD PUSH3 0x461BCD PUSH1 0xE5 SHL DUP2 MSTORE PUSH1 0x4 ADD PUSH2 0x1B4 SWAP1 PUSH2 0x11F6 JUMP JUMPDEST PUSH1 0x7 SLOAD PUSH3 0x10000 SWAP1 DIV PUSH1 0xFF AND PUSH2 0xF67 JUMPI PUSH1 0x40 MLOAD PUSH3 0x461BCD PUSH1 0xE5 SHL DUP2 MSTORE PUSH1 0x20 PUSH1 0x4 DUP3 ADD MSTORE PUSH1 0xF PUSH1 0x24 DUP3 ADD MSTORE PUSH15 0x416C72656164792052756E6E696E67 PUSH1 0x88 SHL PUSH1 0x44 DUP3 ADD MSTORE PUSH1 0x64 ADD PUSH2 0x1B4 JUMP JUMPDEST PUSH1 0x7 DUP1 SLOAD PUSH3 0xFF0000 NOT AND SWAP1 SSTORE PUSH1 0x40 MLOAD CALLER DUP2 MSTORE PUSH32 0xC1A02E947CF77134ED09AC0692636F0553306DB51FFE4A1D9E7B51B4DCD9C762 SWAP1 PUSH1 0x20 ADD PUSH2 0xEC6 JUMP JUMPDEST PUSH1 0x2 SLOAD PUSH1 0x1 PUSH1 0x1 PUSH1 0xA0 SHL SUB AND CALLER EQ PUSH2 0xFCD JUMPI PUSH1 0x40 MLOAD PUSH3 0x461BCD PUSH1 0xE5 SHL DUP2 MSTORE PUSH1 0x4 ADD PUSH2 0x1B4 SWAP1 PUSH2 0x11F6 JUMP JUMPDEST PUSH1 0x7 SLOAD PUSH1 0xFF AND PUSH2 0x1011 JUMPI PUSH1 0x40 MLOAD PUSH3 0x461BCD PUSH1 0xE5 SHL DUP2 MSTORE PUSH1 0x20 PUSH1 0x4 DUP3 ADD MSTORE PUSH1 0xF PUSH1 0x24 DUP3 ADD MSTORE PUSH15 0x139BDD0814DD185C9D19590816595D PUSH1 0x8A SHL PUSH1 0x44 DUP3 ADD MSTORE PUSH1 0x64 ADD PUSH2 0x1B4 JUMP JUMPDEST PUSH1 0x6 SLOAD TIMESTAMP LT ISZERO PUSH2 0x104F JUMPI PUSH1 0x40 MLOAD PUSH3 0x461BCD PUSH1 0xE5 SHL DUP2 MSTORE PUSH1 0x20 PUSH1 0x4 DUP3 ADD MSTORE PUSH1 0x9 PUSH1 0x24 DUP3 ADD MSTORE PUSH9 0x139BDD08115B991959 PUSH1 0xBA SHL PUSH1 0x44 DUP3 ADD MSTORE PUSH1 0x64 ADD PUSH2 0x1B4 JUMP JUMPDEST PUSH1 0x7 SLOAD PUSH2 0x100 SWAP1 DIV PUSH1 0xFF AND ISZERO PUSH2 0x1097 JUMPI PUSH1 0x40 MLOAD PUSH3 0x461BCD PUSH1 0xE5 SHL DUP2 MSTORE PUSH1 0x20 PUSH1 0x4 DUP3 ADD MSTORE PUSH1 0xD PUSH1 0x24 DUP3 ADD MSTORE PUSH13 0x105B1C9958591E48115B991959 PUSH1 0x9A SHL PUSH1 0x44 DUP3 ADD MSTORE PUSH1 0x64 ADD PUSH2 0x1B4 JUMP JUMPDEST PUSH1 0x7 DUP1 SLOAD PUSH2 0xFF00 NOT AND PUSH2 0x100 OR SWAP1 SSTORE PUSH1 0xB SLOAD PUSH1 0xC SLOAD PUSH1 0x40 DUP1 MLOAD PUSH1 0x1 PUSH1 0x1 PUSH1 0xA0 SHL SUB SWAP1 SWAP4 AND DUP4 MSTORE PUSH1 0x20 DUP4 ADD SWAP2 SWAP1 SWAP2 MSTORE PUSH32 0xCA09734D1FC32150404DC9252B4D991C6BEE44319031B7159C03D5AE2C062704 SWAP2 ADD PUSH2 0xEC6 JUMP JUMPDEST PUSH1 0x0 DUP3 PUSH1 0x1 PUSH1 0x1 PUSH1 0xA0 SHL SUB AND DUP3 PUSH1 0x40 MLOAD PUSH1 0x0 PUSH1 0x40 MLOAD DUP1 DUP4 SUB DUP2 DUP6 DUP8 GAS CALL SWAP3 POP POP POP RETURNDATASIZE DUP1 PUSH1 0x0 DUP2 EQ PUSH2 0x113A JUMPI PUSH1 0x40 MLOAD SWAP2 POP PUSH1 0x1F NOT PUSH1 0x3F RETURNDATASIZE ADD AND DUP3 ADD PUSH1 0x40 MSTORE RETURNDATASIZE DUP3 MSTORE RETURNDATASIZE PUSH1 0x0 PUSH1 0x20 DUP5 ADD RETURNDATACOPY PUSH2 0x113F JUMP JUMPDEST PUSH1 0x60 SWAP2 POP JUMPDEST POP POP SWAP1 POP DUP1 PUSH2 0x1186 JUMPI PUSH1 0x40 MLOAD PUSH3 0x461BCD PUSH1 0xE5 SHL DUP2 MSTORE PUSH1 0x20 PUSH1 0x4 DUP3 ADD MSTORE PUSH1 0x13 PUSH1 0x24 DUP3 ADD MSTORE PUSH19 0x14995D1D5C9B88199D5B991CC819985A5B1959 PUSH1 0x6A SHL PUSH1 0x44 DUP3 ADD MSTORE PUSH1 0x64 ADD PUSH2 0x1B4 JUMP JUMPDEST CALLER PUSH1 0x0 SWAP1 DUP2 MSTORE PUSH1 0xD PUSH1 0x20 MSTORE PUSH1 0x40 DUP1 DUP3 KECCAK256 PUSH1 0x4 DUP2 ADD DUP4 SWAP1 SSTORE DUP3 DUP2 SSTORE PUSH1 0x2 DUP2 ADD DUP4 SWAP1 SSTORE PUSH1 0x3 ADD SWAP2 SWAP1 SWAP2 SSTORE MLOAD PUSH1 0x1 PUSH1 0x1 PUSH1 0xA0 SHL SUB DUP5 AND SWAP1 PUSH32 0xE523757EEE9C213543AF9B06C96E0629DA383D3149173F4A03AB96D8FF526760 SWAP1 PUSH2 0x11E9 SWAP1 DUP6 DUP2 MSTORE PUSH1 0x20 ADD SWAP1 JUMP JUMPDEST PUSH1 0x40 MLOAD DUP1 SWAP2 SUB SWAP1 LOG2 POP POP POP JUMP JUMPDEST PUSH1 0x20 DUP1 DUP3 MSTORE PUSH1 0x13 SWAP1 DUP3 ADD MSTORE PUSH19 0x29B2B73232B91034B9903737BA1037BBB732B9 PUSH1 0x69 SHL PUSH1 0x40 DUP3 ADD MSTORE PUSH1 0x60 ADD SWAP1 JUMP JUMPDEST PUSH1 0x0 DUP1 PUSH1 0x0 DUP1 PUSH1 0x80 DUP6 DUP8 SUB SLT ISZERO PUSH2 0x1239 JUMPI PUSH1 0x0 DUP1 REVERT JUMPDEST POP POP DUP3 CALLDATALOAD SWAP5 PUSH1 0x20 DUP5 ADD CALLDATALOAD SWAP5 POP PUSH1 0x40 DUP5 ADD CALLDATALOAD SWAP4 PUSH1 0x60 ADD CALLDATALOAD SWAP3 POP SWAP1 POP JUMP JUMPDEST DUP1 CALLDATALOAD PUSH1 0x1 PUSH1 0x1 PUSH1 0xA0 SHL SUB DUP2 AND DUP2 EQ PUSH2 0x126C JUMPI PUSH1 0x0 DUP1 REVERT JUMPDEST SWAP2 SWAP1 POP JUMP JUMPDEST PUSH1 0x0 DUP1 PUSH1 0x40 DUP4 DUP6 SUB SLT ISZERO PUSH2 0x1284 JUMPI PUSH1 0x0 DUP1 REVERT JUMPDEST PUSH2 0x128D DUP4 PUSH2 0x1255 JUMP JUMPDEST SWAP2 POP PUSH1 0x20 DUP4 ADD CALLDATALOAD DUP1 ISZERO ISZERO DUP2 EQ PUSH2 0x12A2 JUMPI PUSH1 0x0 DUP1 REVERT JUMPDEST DUP1 SWAP2 POP POP SWAP3 POP SWAP3 SWAP1 POP JUMP JUMPDEST PUSH1 0x0 PUSH1 0x20 DUP3 DUP5 SUB SLT ISZERO PUSH2 0x12BF JUMPI PUSH1 0x0 DUP1 REVERT JUMPDEST PUSH2 0x12C8 DUP3 PUSH2 0x1255 JUMP JUMPDEST SWAP4 SWAP3 POP POP POP JUMP JUMPDEST PUSH4 0x4E487B71 PUSH1 0xE0 SHL PUSH1 0x0 MSTORE PUSH1 0x11 PUSH1 0x4 MSTORE PUSH1 0x24 PUSH1 0x0 REVERT JUMPDEST PUSH1 0x0 DUP3 PUSH2 0x1302 JUMPI PUSH4 0x4E487B71 PUSH1 0xE0 SHL PUSH1 0x0 MSTORE PUSH1 0x12 PUSH1 0x4 MSTORE PUSH1 0x24 PUSH1 0x0 REVERT JUMPDEST POP DIV SWAP1 JUMP JUMPDEST DUP1 DUP3 MUL DUP2 ISZERO DUP3 DUP3 DIV DUP5 EQ OR PUSH2 0xEED JUMPI PUSH2 0xEED PUSH2 0x12CF JUMP JUMPDEST DUP1 DUP3 ADD DUP1 DUP3 GT ISZERO PUSH2 0xEED JUMPI PUSH2 0xEED PUSH2 0x12CF JUMP JUMPDEST DUP2 DUP2 SUB DUP2 DUP2 GT ISZERO PUSH2 0xEED JUMPI PUSH2 0xEED PUSH2 0x12CF JUMP INVALID LOG2 PUSH5 0x6970667358 0x22 SLT KECCAK256 DUP1 0xBF 0xE3 DUP5 MSTORE8 0xE3 PUSH30 0x56DFA5593196C4F52919E17AE2FCC9B56A68CCD5983C2B2AA664736F6C63 NUMBER STOP ADDMOD GT STOP CALLER "
				},
				"gasEstimates": {
					"creation": {
						"codeDepositCost": "997200",
						"executionCost": "infinite",
						"totalCost": "infinite"
					},
					"external": {
						"": "2524",
						"FEE_BASE()": "283",
						"closeAuction()": "infinite",
						"docsProcess()": "2361",
						"docsRegister()": "2438",
						"endAt()": "2362",
						"endAuction()": "38579",
						"ended()": "2389",
						"feeAddress()": "2393",
						"getBalance()": "229",
						"highestBid()": "2339",
						"highestBidder()": "2415",
						"isWhitelist(address)": "2617",
						"newBid(uint256,uint256,uint256,uint256)": "infinite",
						"nft()": "2415",
						"nftId()": "2362",
						"numberOfBids()": "2385",
						"pauseAuction()": "29835",
						"paused()": "2344",
						"receivedBids(address)": "11174",
						"seller()": "2350",
						"setWhitelist(address,bool)": "28396",
						"startAuction()": "infinite",
						"started()": "2356",
						"totalFee()": "2429",
						"unpauseAuction()": "29793",
						"withdraw()": "infinite"
					},
					"internal": {
						"_isWhitelist(address)": "infinite",
						"cashback(address,uint256)": "infinite"
					}
				},
				"methodIdentifiers": {
					"FEE_BASE()": "ecefc705",
					"closeAuction()": "378252f2",
					"docsProcess()": "d6b4675b",
					"docsRegister()": "1cf5e669",
					"endAt()": "7cc3ae8c",
					"endAuction()": "fe67a54b",
					"ended()": "12fa6feb",
					"feeAddress()": "41275358",
					"getBalance()": "12065fe0",
					"highestBid()": "d57bde79",
					"highestBidder()": "91f90157",
					"isWhitelist(address)": "c683630d",
					"newBid(uint256,uint256,uint256,uint256)": "2aeee493",
					"nft()": "47ccca02",
					"nftId()": "c6bc5182",
					"numberOfBids()": "17d531fc",
					"pauseAuction()": "b9ae7364",
					"paused()": "5c975abb",
					"receivedBids(address)": "95ecc5cc",
					"seller()": "08551a53",
					"setWhitelist(address,bool)": "53d6fd59",
					"startAuction()": "6b64c769",
					"started()": "1f2698ab",
					"totalFee()": "1df4ccfc",
					"unpauseAuction()": "ceb16419",
					"withdraw()": "3ccfd60b"
				}
			},
			"storageLayout": {
				"storage": [
					{
						"astId": 75,
						"contract": "Contracts/AuctionSPU.sol:AuctionSPU",
						"label": "nft",
						"offset": 0,
						"slot": "0",
						"type": "t_contract(IERC721)20"
					},
					{
						"astId": 77,
						"contract": "Contracts/AuctionSPU.sol:AuctionSPU",
						"label": "nftId",
						"offset": 0,
						"slot": "1",
						"type": "t_uint256"
					},
					{
						"astId": 79,
						"contract": "Contracts/AuctionSPU.sol:AuctionSPU",
						"label": "seller",
						"offset": 0,
						"slot": "2",
						"type": "t_address_payable"
					},
					{
						"astId": 81,
						"contract": "Contracts/AuctionSPU.sol:AuctionSPU",
						"label": "feeAddress",
						"offset": 0,
						"slot": "3",
						"type": "t_address_payable"
					},
					{
						"astId": 83,
						"contract": "Contracts/AuctionSPU.sol:AuctionSPU",
						"label": "docsRegister",
						"offset": 0,
						"slot": "4",
						"type": "t_address"
					},
					{
						"astId": 85,
						"contract": "Contracts/AuctionSPU.sol:AuctionSPU",
						"label": "docsProcess",
						"offset": 0,
						"slot": "5",
						"type": "t_uint256"
					},
					{
						"astId": 87,
						"contract": "Contracts/AuctionSPU.sol:AuctionSPU",
						"label": "endAt",
						"offset": 0,
						"slot": "6",
						"type": "t_uint256"
					},
					{
						"astId": 89,
						"contract": "Contracts/AuctionSPU.sol:AuctionSPU",
						"label": "started",
						"offset": 0,
						"slot": "7",
						"type": "t_bool"
					},
					{
						"astId": 91,
						"contract": "Contracts/AuctionSPU.sol:AuctionSPU",
						"label": "ended",
						"offset": 1,
						"slot": "7",
						"type": "t_bool"
					},
					{
						"astId": 93,
						"contract": "Contracts/AuctionSPU.sol:AuctionSPU",
						"label": "paused",
						"offset": 2,
						"slot": "7",
						"type": "t_bool"
					},
					{
						"astId": 95,
						"contract": "Contracts/AuctionSPU.sol:AuctionSPU",
						"label": "numberOfBids",
						"offset": 0,
						"slot": "8",
						"type": "t_uint256"
					},
					{
						"astId": 97,
						"contract": "Contracts/AuctionSPU.sol:AuctionSPU",
						"label": "transactionFee",
						"offset": 0,
						"slot": "9",
						"type": "t_uint256"
					},
					{
						"astId": 102,
						"contract": "Contracts/AuctionSPU.sol:AuctionSPU",
						"label": "totalFee",
						"offset": 0,
						"slot": "10",
						"type": "t_uint256"
					},
					{
						"astId": 104,
						"contract": "Contracts/AuctionSPU.sol:AuctionSPU",
						"label": "highestBidder",
						"offset": 0,
						"slot": "11",
						"type": "t_address"
					},
					{
						"astId": 106,
						"contract": "Contracts/AuctionSPU.sol:AuctionSPU",
						"label": "highestBid",
						"offset": 0,
						"slot": "12",
						"type": "t_uint256"
					},
					{
						"astId": 122,
						"contract": "Contracts/AuctionSPU.sol:AuctionSPU",
						"label": "receivedBids",
						"offset": 0,
						"slot": "13",
						"type": "t_mapping(t_address,t_struct(Bidders)117_storage)"
					},
					{
						"astId": 126,
						"contract": "Contracts/AuctionSPU.sol:AuctionSPU",
						"label": "_whitelist",
						"offset": 0,
						"slot": "14",
						"type": "t_mapping(t_address,t_bool)"
					}
				],
				"types": {
					"t_address": {
						"encoding": "inplace",
						"label": "address",
						"numberOfBytes": "20"
					},
					"t_address_payable": {
						"encoding": "inplace",
						"label": "address payable",
						"numberOfBytes": "20"
					},
					"t_bool": {
						"encoding": "inplace",
						"label": "bool",
						"numberOfBytes": "1"
					},
					"t_contract(IERC721)20": {
						"encoding": "inplace",
						"label": "contract IERC721",
						"numberOfBytes": "20"
					},
					"t_mapping(t_address,t_bool)": {
						"encoding": "mapping",
						"key": "t_address",
						"label": "mapping(address => bool)",
						"numberOfBytes": "32",
						"value": "t_bool"
					},
					"t_mapping(t_address,t_struct(Bidders)117_storage)": {
						"encoding": "mapping",
						"key": "t_address",
						"label": "mapping(address => struct AuctionSPU.Bidders)",
						"numberOfBytes": "32",
						"value": "t_struct(Bidders)117_storage"
					},
					"t_struct(Bidders)117_storage": {
						"encoding": "inplace",
						"label": "struct AuctionSPU.Bidders",
						"members": [
							{
								"astId": 108,
								"contract": "Contracts/AuctionSPU.sol:AuctionSPU",
								"label": "totalValue",
								"offset": 0,
								"slot": "0",
								"type": "t_uint256"
							},
							{
								"astId": 110,
								"contract": "Contracts/AuctionSPU.sol:AuctionSPU",
								"label": "realValue",
								"offset": 0,
								"slot": "1",
								"type": "t_uint256"
							},
							{
								"astId": 112,
								"contract": "Contracts/AuctionSPU.sol:AuctionSPU",
								"label": "portion",
								"offset": 0,
								"slot": "2",
								"type": "t_uint256"
							},
							{
								"astId": 114,
								"contract": "Contracts/AuctionSPU.sol:AuctionSPU",
								"label": "clientScore",
								"offset": 0,
								"slot": "3",
								"type": "t_uint256"
							},
							{
								"astId": 116,
								"contract": "Contracts/AuctionSPU.sol:AuctionSPU",
								"label": "downpay",
								"offset": 0,
								"slot": "4",
								"type": "t_uint256"
							}
						],
						"numberOfBytes": "160"
					},
					"t_uint256": {
						"encoding": "inplace",
						"label": "uint256",
						"numberOfBytes": "32"
					}
				}
			},
			"userdoc": {
				"kind": "user",
				"methods": {},
				"version": 1
			}
		}
	}
}