{
	"Contracts/AuctionSPU.sol": {
		"AuctionSPU": {
			"abi": [
				{
					"inputs": [
						{
							"internalType": "address",
							"name": "_nft",
							"type": "address"
						},
						{
							"internalType": "address",
							"name": "_feeAddres",
							"type": "address"
						},
						{
							"internalType": "uint256",
							"name": "_nftId",
							"type": "uint256"
						},
						{
							"internalType": "uint256",
							"name": "_startingBid",
							"type": "uint256"
						},
						{
							"internalType": "uint256",
							"name": "_period",
							"type": "uint256"
						},
						{
							"internalType": "uint256",
							"name": "_transactionFee",
							"type": "uint256"
						}
					],
					"stateMutability": "nonpayable",
					"type": "constructor"
				},
				{
					"anonymous": false,
					"inputs": [
						{
							"indexed": true,
							"internalType": "address",
							"name": "sender",
							"type": "address"
						},
						{
							"indexed": false,
							"internalType": "uint256",
							"name": "amount",
							"type": "uint256"
						}
					],
					"name": "Bid",
					"type": "event"
				},
				{
					"anonymous": false,
					"inputs": [
						{
							"indexed": false,
							"internalType": "address",
							"name": "winner",
							"type": "address"
						},
						{
							"indexed": false,
							"internalType": "uint256",
							"name": "amount",
							"type": "uint256"
						}
					],
					"name": "EndAuction",
					"type": "event"
				},
				{
					"anonymous": false,
					"inputs": [
						{
							"indexed": false,
							"internalType": "address",
							"name": "pauser",
							"type": "address"
						}
					],
					"name": "PauseAuction",
					"type": "event"
				},
				{
					"anonymous": false,
					"inputs": [],
					"name": "StartAuction",
					"type": "event"
				},
				{
					"anonymous": false,
					"inputs": [
						{
							"indexed": false,
							"internalType": "address",
							"name": "pauser",
							"type": "address"
						}
					],
					"name": "UnpauseAuction",
					"type": "event"
				},
				{
					"anonymous": false,
					"inputs": [
						{
							"indexed": true,
							"internalType": "address",
							"name": "bidder",
							"type": "address"
						},
						{
							"indexed": false,
							"internalType": "uint256",
							"name": "amount",
							"type": "uint256"
						}
					],
					"name": "Withdraw",
					"type": "event"
				},
				{
					"stateMutability": "payable",
					"type": "fallback"
				},
				{
					"inputs": [],
					"name": "FEE_BASE",
					"outputs": [
						{
							"internalType": "uint256",
							"name": "",
							"type": "uint256"
						}
					],
					"stateMutability": "view",
					"type": "function"
				},
				{
					"inputs": [
						{
							"internalType": "address",
							"name": "_newRecipient",
							"type": "address"
						},
						{
							"internalType": "uint8",
							"name": "_fee",
							"type": "uint8"
						}
					],
					"name": "addNewFeeReceiver",
					"outputs": [],
					"stateMutability": "nonpayable",
					"type": "function"
				},
				{
					"inputs": [],
					"name": "closeAuction",
					"outputs": [],
					"stateMutability": "nonpayable",
					"type": "function"
				},
				{
					"inputs": [],
					"name": "endAt",
					"outputs": [
						{
							"internalType": "uint256",
							"name": "",
							"type": "uint256"
						}
					],
					"stateMutability": "view",
					"type": "function"
				},
				{
					"inputs": [],
					"name": "endAuction",
					"outputs": [],
					"stateMutability": "nonpayable",
					"type": "function"
				},
				{
					"inputs": [],
					"name": "ended",
					"outputs": [
						{
							"internalType": "bool",
							"name": "",
							"type": "bool"
						}
					],
					"stateMutability": "view",
					"type": "function"
				},
				{
					"inputs": [],
					"name": "feeAddress",
					"outputs": [
						{
							"internalType": "address payable",
							"name": "",
							"type": "address"
						}
					],
					"stateMutability": "view",
					"type": "function"
				},
				{
					"inputs": [
						{
							"internalType": "address",
							"name": "",
							"type": "address"
						}
					],
					"name": "feeReceivers",
					"outputs": [
						{
							"internalType": "address",
							"name": "recipient",
							"type": "address"
						},
						{
							"internalType": "uint256",
							"name": "fee",
							"type": "uint256"
						}
					],
					"stateMutability": "view",
					"type": "function"
				},
				{
					"inputs": [],
					"name": "getBalance",
					"outputs": [
						{
							"internalType": "uint256",
							"name": "",
							"type": "uint256"
						}
					],
					"stateMutability": "view",
					"type": "function"
				},
				{
					"inputs": [],
					"name": "highestBid",
					"outputs": [
						{
							"internalType": "uint256",
							"name": "",
							"type": "uint256"
						}
					],
					"stateMutability": "view",
					"type": "function"
				},
				{
					"inputs": [],
					"name": "highestBidder",
					"outputs": [
						{
							"internalType": "address",
							"name": "",
							"type": "address"
						}
					],
					"stateMutability": "view",
					"type": "function"
				},
				{
					"inputs": [
						{
							"internalType": "uint256",
							"name": "_totalValue",
							"type": "uint256"
						},
						{
							"internalType": "uint256",
							"name": "_realValue",
							"type": "uint256"
						},
						{
							"internalType": "uint256",
							"name": "_portion",
							"type": "uint256"
						},
						{
							"internalType": "uint256",
							"name": "_clientScore",
							"type": "uint256"
						}
					],
					"name": "newBid",
					"outputs": [],
					"stateMutability": "payable",
					"type": "function"
				},
				{
					"inputs": [],
					"name": "nft",
					"outputs": [
						{
							"internalType": "contract IERC721",
							"name": "",
							"type": "address"
						}
					],
					"stateMutability": "view",
					"type": "function"
				},
				{
					"inputs": [],
					"name": "nftId",
					"outputs": [
						{
							"internalType": "uint256",
							"name": "",
							"type": "uint256"
						}
					],
					"stateMutability": "view",
					"type": "function"
				},
				{
					"inputs": [],
					"name": "numberOfBids",
					"outputs": [
						{
							"internalType": "uint256",
							"name": "",
							"type": "uint256"
						}
					],
					"stateMutability": "view",
					"type": "function"
				},
				{
					"inputs": [],
					"name": "pauseAuction",
					"outputs": [],
					"stateMutability": "nonpayable",
					"type": "function"
				},
				{
					"inputs": [],
					"name": "paused",
					"outputs": [
						{
							"internalType": "bool",
							"name": "",
							"type": "bool"
						}
					],
					"stateMutability": "view",
					"type": "function"
				},
				{
					"inputs": [
						{
							"internalType": "address",
							"name": "",
							"type": "address"
						}
					],
					"name": "receivedBids",
					"outputs": [
						{
							"internalType": "uint256",
							"name": "totalValue",
							"type": "uint256"
						},
						{
							"internalType": "uint256",
							"name": "realValue",
							"type": "uint256"
						},
						{
							"internalType": "uint256",
							"name": "portion",
							"type": "uint256"
						},
						{
							"internalType": "uint256",
							"name": "clientScore",
							"type": "uint256"
						}
					],
					"stateMutability": "view",
					"type": "function"
				},
				{
					"inputs": [],
					"name": "seller",
					"outputs": [
						{
							"internalType": "address payable",
							"name": "",
							"type": "address"
						}
					],
					"stateMutability": "view",
					"type": "function"
				},
				{
					"inputs": [],
					"name": "startAuction",
					"outputs": [],
					"stateMutability": "nonpayable",
					"type": "function"
				},
				{
					"inputs": [],
					"name": "started",
					"outputs": [
						{
							"internalType": "bool",
							"name": "",
							"type": "bool"
						}
					],
					"stateMutability": "view",
					"type": "function"
				},
				{
					"inputs": [],
					"name": "totalFee",
					"outputs": [
						{
							"internalType": "uint256",
							"name": "",
							"type": "uint256"
						}
					],
					"stateMutability": "view",
					"type": "function"
				},
				{
					"inputs": [],
					"name": "unpauseAuction",
					"outputs": [],
					"stateMutability": "nonpayable",
					"type": "function"
				},
				{
					"inputs": [],
					"name": "withdraw",
					"outputs": [],
					"stateMutability": "nonpayable",
					"type": "function"
				},
				{
					"stateMutability": "payable",
					"type": "receive"
				}
			],
			"devdoc": {
				"kind": "dev",
				"methods": {},
				"version": 1
			},
			"evm": {
				"assembly": "    /* \"Contracts/AuctionSPU.sol\":883:7929  contract AuctionSPU {... */\n  mstore(0x40, 0x80)\n    /* \"Contracts/AuctionSPU.sol\":2451:2914  constructor(... */\n  callvalue\n  dup1\n  iszero\n  tag_1\n  jumpi\n  0x00\n  dup1\n  revert\ntag_1:\n  pop\n  mload(0x40)\n  sub(codesize, bytecodeSize)\n  dup1\n  bytecodeSize\n  dup4\n  codecopy\n  dup2\n  dup2\n  add\n  0x40\n  mstore\n  dup2\n  add\n  swap1\n  tag_2\n  swap2\n  swap1\n  tag_3\n  jump\t// in\ntag_2:\n    /* \"Contracts/AuctionSPU.sol\":2661:2665  _nft */\n  dup6\n    /* \"Contracts/AuctionSPU.sol\":2647:2650  nft */\n  0x00\n  dup1\n    /* \"Contracts/AuctionSPU.sol\":2647:2666  nft = IERC721(_nft) */\n  0x0100\n  exp\n  dup2\n  sload\n  dup2\n  0xffffffffffffffffffffffffffffffffffffffff\n  mul\n  not\n  and\n  swap1\n  dup4\n  0xffffffffffffffffffffffffffffffffffffffff\n  and\n  mul\n  or\n  swap1\n  sstore\n  pop\n    /* \"Contracts/AuctionSPU.sol\":2685:2691  _nftId */\n  dup4\n    /* \"Contracts/AuctionSPU.sol\":2677:2682  nftId */\n  0x01\n    /* \"Contracts/AuctionSPU.sol\":2677:2691  nftId = _nftId */\n  dup2\n  swap1\n  sstore\n  pop\n    /* \"Contracts/AuctionSPU.sol\":2721:2731  msg.sender */\n  caller\n    /* \"Contracts/AuctionSPU.sol\":2704:2710  seller */\n  0x02\n  0x00\n    /* \"Contracts/AuctionSPU.sol\":2704:2732  seller = payable(msg.sender) */\n  0x0100\n  exp\n  dup2\n  sload\n  dup2\n  0xffffffffffffffffffffffffffffffffffffffff\n  mul\n  not\n  and\n  swap1\n  dup4\n  0xffffffffffffffffffffffffffffffffffffffff\n  and\n  mul\n  or\n  swap1\n  sstore\n  pop\n    /* \"Contracts/AuctionSPU.sol\":2764:2774  _feeAddres */\n  dup5\n    /* \"Contracts/AuctionSPU.sol\":2743:2753  feeAddress */\n  0x03\n  0x00\n    /* \"Contracts/AuctionSPU.sol\":2743:2775  feeAddress = payable(_feeAddres) */\n  0x0100\n  exp\n  dup2\n  sload\n  dup2\n  0xffffffffffffffffffffffffffffffffffffffff\n  mul\n  not\n  and\n  swap1\n  dup4\n  0xffffffffffffffffffffffffffffffffffffffff\n  and\n  mul\n  or\n  swap1\n  sstore\n  pop\n    /* \"Contracts/AuctionSPU.sol\":2799:2811  _startingBid */\n  dup3\n    /* \"Contracts/AuctionSPU.sol\":2786:2796  highestBid */\n  0x0a\n    /* \"Contracts/AuctionSPU.sol\":2786:2811  highestBid = _startingBid */\n  dup2\n  swap1\n  sstore\n  pop\n    /* \"Contracts/AuctionSPU.sol\":2830:2837  _period */\n  dup2\n    /* \"Contracts/AuctionSPU.sol\":2822:2827  endAt */\n  0x04\n    /* \"Contracts/AuctionSPU.sol\":2822:2837  endAt = _period */\n  dup2\n  swap1\n  sstore\n  pop\n    /* \"Contracts/AuctionSPU.sol\":2877:2892  _transactionFee */\n  dup1\n    /* \"Contracts/AuctionSPU.sol\":2860:2874  transactionFee */\n  0x07\n    /* \"Contracts/AuctionSPU.sol\":2860:2892  transactionFee = _transactionFee */\n  dup2\n  swap1\n  sstore\n  pop\n    /* \"Contracts/AuctionSPU.sol\":2451:2914  constructor(... */\n  pop\n  pop\n  pop\n  pop\n  pop\n  pop\n    /* \"Contracts/AuctionSPU.sol\":883:7929  contract AuctionSPU {... */\n  jump(tag_6)\n    /* \"#utility.yul\":88:205   */\ntag_8:\n    /* \"#utility.yul\":197:198   */\n  0x00\n    /* \"#utility.yul\":194:195   */\n  dup1\n    /* \"#utility.yul\":187:199   */\n  revert\n    /* \"#utility.yul\":334:460   */\ntag_10:\n    /* \"#utility.yul\":371:378   */\n  0x00\n    /* \"#utility.yul\":411:453   */\n  0xffffffffffffffffffffffffffffffffffffffff\n    /* \"#utility.yul\":404:409   */\n  dup3\n    /* \"#utility.yul\":400:454   */\n  and\n    /* \"#utility.yul\":389:454   */\n  swap1\n  pop\n    /* \"#utility.yul\":334:460   */\n  swap2\n  swap1\n  pop\n  jump\t// out\n    /* \"#utility.yul\":466:562   */\ntag_11:\n    /* \"#utility.yul\":503:510   */\n  0x00\n    /* \"#utility.yul\":532:556   */\n  tag_23\n    /* \"#utility.yul\":550:555   */\n  dup3\n    /* \"#utility.yul\":532:556   */\n  tag_10\n  jump\t// in\ntag_23:\n    /* \"#utility.yul\":521:556   */\n  swap1\n  pop\n    /* \"#utility.yul\":466:562   */\n  swap2\n  swap1\n  pop\n  jump\t// out\n    /* \"#utility.yul\":568:690   */\ntag_12:\n    /* \"#utility.yul\":641:665   */\n  tag_25\n    /* \"#utility.yul\":659:664   */\n  dup2\n    /* \"#utility.yul\":641:665   */\n  tag_11\n  jump\t// in\ntag_25:\n    /* \"#utility.yul\":634:639   */\n  dup2\n    /* \"#utility.yul\":631:666   */\n  eq\n    /* \"#utility.yul\":621:684   */\n  tag_26\n  jumpi\n    /* \"#utility.yul\":680:681   */\n  0x00\n    /* \"#utility.yul\":677:678   */\n  dup1\n    /* \"#utility.yul\":670:682   */\n  revert\n    /* \"#utility.yul\":621:684   */\ntag_26:\n    /* \"#utility.yul\":568:690   */\n  pop\n  jump\t// out\n    /* \"#utility.yul\":696:839   */\ntag_13:\n    /* \"#utility.yul\":753:758   */\n  0x00\n    /* \"#utility.yul\":784:790   */\n  dup2\n    /* \"#utility.yul\":778:791   */\n  mload\n    /* \"#utility.yul\":769:791   */\n  swap1\n  pop\n    /* \"#utility.yul\":800:833   */\n  tag_28\n    /* \"#utility.yul\":827:832   */\n  dup2\n    /* \"#utility.yul\":800:833   */\n  tag_12\n  jump\t// in\ntag_28:\n    /* \"#utility.yul\":696:839   */\n  swap3\n  swap2\n  pop\n  pop\n  jump\t// out\n    /* \"#utility.yul\":845:922   */\ntag_14:\n    /* \"#utility.yul\":882:889   */\n  0x00\n    /* \"#utility.yul\":911:916   */\n  dup2\n    /* \"#utility.yul\":900:916   */\n  swap1\n  pop\n    /* \"#utility.yul\":845:922   */\n  swap2\n  swap1\n  pop\n  jump\t// out\n    /* \"#utility.yul\":928:1050   */\ntag_15:\n    /* \"#utility.yul\":1001:1025   */\n  tag_31\n    /* \"#utility.yul\":1019:1024   */\n  dup2\n    /* \"#utility.yul\":1001:1025   */\n  tag_14\n  jump\t// in\ntag_31:\n    /* \"#utility.yul\":994:999   */\n  dup2\n    /* \"#utility.yul\":991:1026   */\n  eq\n    /* \"#utility.yul\":981:1044   */\n  tag_32\n  jumpi\n    /* \"#utility.yul\":1040:1041   */\n  0x00\n    /* \"#utility.yul\":1037:1038   */\n  dup1\n    /* \"#utility.yul\":1030:1042   */\n  revert\n    /* \"#utility.yul\":981:1044   */\ntag_32:\n    /* \"#utility.yul\":928:1050   */\n  pop\n  jump\t// out\n    /* \"#utility.yul\":1056:1199   */\ntag_16:\n    /* \"#utility.yul\":1113:1118   */\n  0x00\n    /* \"#utility.yul\":1144:1150   */\n  dup2\n    /* \"#utility.yul\":1138:1151   */\n  mload\n    /* \"#utility.yul\":1129:1151   */\n  swap1\n  pop\n    /* \"#utility.yul\":1160:1193   */\n  tag_34\n    /* \"#utility.yul\":1187:1192   */\n  dup2\n    /* \"#utility.yul\":1160:1193   */\n  tag_15\n  jump\t// in\ntag_34:\n    /* \"#utility.yul\":1056:1199   */\n  swap3\n  swap2\n  pop\n  pop\n  jump\t// out\n    /* \"#utility.yul\":1205:2339   */\ntag_3:\n    /* \"#utility.yul\":1320:1326   */\n  0x00\n    /* \"#utility.yul\":1328:1334   */\n  dup1\n    /* \"#utility.yul\":1336:1342   */\n  0x00\n    /* \"#utility.yul\":1344:1350   */\n  dup1\n    /* \"#utility.yul\":1352:1358   */\n  0x00\n    /* \"#utility.yul\":1360:1366   */\n  dup1\n    /* \"#utility.yul\":1409:1412   */\n  0xc0\n    /* \"#utility.yul\":1397:1406   */\n  dup8\n    /* \"#utility.yul\":1388:1395   */\n  dup10\n    /* \"#utility.yul\":1384:1407   */\n  sub\n    /* \"#utility.yul\":1380:1413   */\n  slt\n    /* \"#utility.yul\":1377:1497   */\n  iszero\n  tag_36\n  jumpi\n    /* \"#utility.yul\":1416:1495   */\n  tag_37\n  tag_8\n  jump\t// in\ntag_37:\n    /* \"#utility.yul\":1377:1497   */\ntag_36:\n    /* \"#utility.yul\":1536:1537   */\n  0x00\n    /* \"#utility.yul\":1561:1625   */\n  tag_38\n    /* \"#utility.yul\":1617:1624   */\n  dup10\n    /* \"#utility.yul\":1608:1614   */\n  dup3\n    /* \"#utility.yul\":1597:1606   */\n  dup11\n    /* \"#utility.yul\":1593:1615   */\n  add\n    /* \"#utility.yul\":1561:1625   */\n  tag_13\n  jump\t// in\ntag_38:\n    /* \"#utility.yul\":1551:1625   */\n  swap7\n  pop\n    /* \"#utility.yul\":1507:1635   */\n  pop\n    /* \"#utility.yul\":1674:1676   */\n  0x20\n    /* \"#utility.yul\":1700:1764   */\n  tag_39\n    /* \"#utility.yul\":1756:1763   */\n  dup10\n    /* \"#utility.yul\":1747:1753   */\n  dup3\n    /* \"#utility.yul\":1736:1745   */\n  dup11\n    /* \"#utility.yul\":1732:1754   */\n  add\n    /* \"#utility.yul\":1700:1764   */\n  tag_13\n  jump\t// in\ntag_39:\n    /* \"#utility.yul\":1690:1764   */\n  swap6\n  pop\n    /* \"#utility.yul\":1645:1774   */\n  pop\n    /* \"#utility.yul\":1813:1815   */\n  0x40\n    /* \"#utility.yul\":1839:1903   */\n  tag_40\n    /* \"#utility.yul\":1895:1902   */\n  dup10\n    /* \"#utility.yul\":1886:1892   */\n  dup3\n    /* \"#utility.yul\":1875:1884   */\n  dup11\n    /* \"#utility.yul\":1871:1893   */\n  add\n    /* \"#utility.yul\":1839:1903   */\n  tag_16\n  jump\t// in\ntag_40:\n    /* \"#utility.yul\":1829:1903   */\n  swap5\n  pop\n    /* \"#utility.yul\":1784:1913   */\n  pop\n    /* \"#utility.yul\":1952:1954   */\n  0x60\n    /* \"#utility.yul\":1978:2042   */\n  tag_41\n    /* \"#utility.yul\":2034:2041   */\n  dup10\n    /* \"#utility.yul\":2025:2031   */\n  dup3\n    /* \"#utility.yul\":2014:2023   */\n  dup11\n    /* \"#utility.yul\":2010:2032   */\n  add\n    /* \"#utility.yul\":1978:2042   */\n  tag_16\n  jump\t// in\ntag_41:\n    /* \"#utility.yul\":1968:2042   */\n  swap4\n  pop\n    /* \"#utility.yul\":1923:2052   */\n  pop\n    /* \"#utility.yul\":2091:2094   */\n  0x80\n    /* \"#utility.yul\":2118:2182   */\n  tag_42\n    /* \"#utility.yul\":2174:2181   */\n  dup10\n    /* \"#utility.yul\":2165:2171   */\n  dup3\n    /* \"#utility.yul\":2154:2163   */\n  dup11\n    /* \"#utility.yul\":2150:2172   */\n  add\n    /* \"#utility.yul\":2118:2182   */\n  tag_16\n  jump\t// in\ntag_42:\n    /* \"#utility.yul\":2108:2182   */\n  swap3\n  pop\n    /* \"#utility.yul\":2062:2192   */\n  pop\n    /* \"#utility.yul\":2231:2234   */\n  0xa0\n    /* \"#utility.yul\":2258:2322   */\n  tag_43\n    /* \"#utility.yul\":2314:2321   */\n  dup10\n    /* \"#utility.yul\":2305:2311   */\n  dup3\n    /* \"#utility.yul\":2294:2303   */\n  dup11\n    /* \"#utility.yul\":2290:2312   */\n  add\n    /* \"#utility.yul\":2258:2322   */\n  tag_16\n  jump\t// in\ntag_43:\n    /* \"#utility.yul\":2248:2322   */\n  swap2\n  pop\n    /* \"#utility.yul\":2202:2332   */\n  pop\n    /* \"#utility.yul\":1205:2339   */\n  swap3\n  swap6\n  pop\n  swap3\n  swap6\n  pop\n  swap3\n  swap6\n  jump\t// out\n    /* \"Contracts/AuctionSPU.sol\":883:7929  contract AuctionSPU {... */\ntag_6:\n  dataSize(sub_0)\n  dup1\n  dataOffset(sub_0)\n  0x00\n  codecopy\n  0x00\n  return\nstop\n\nsub_0: assembly {\n        /* \"Contracts/AuctionSPU.sol\":883:7929  contract AuctionSPU {... */\n      mstore(0x40, 0x80)\n      jumpi(tag_1, lt(calldatasize, 0x04))\n      shr(0xe0, calldataload(0x00))\n      dup1\n      0x5c975abb\n      gt\n      tag_27\n      jumpi\n      dup1\n      0xc6bc5182\n      gt\n      tag_28\n      jumpi\n      dup1\n      0xc6bc5182\n      eq\n      tag_21\n      jumpi\n      dup1\n      0xceb16419\n      eq\n      tag_22\n      jumpi\n      dup1\n      0xd57bde79\n      eq\n      tag_23\n      jumpi\n      dup1\n      0xecefc705\n      eq\n      tag_24\n      jumpi\n      dup1\n      0xfd231f8f\n      eq\n      tag_25\n      jumpi\n      dup1\n      0xfe67a54b\n      eq\n      tag_26\n      jumpi\n      jump(tag_2)\n    tag_28:\n      dup1\n      0x5c975abb\n      eq\n      tag_15\n      jumpi\n      dup1\n      0x6b64c769\n      eq\n      tag_16\n      jumpi\n      dup1\n      0x7cc3ae8c\n      eq\n      tag_17\n      jumpi\n      dup1\n      0x91f90157\n      eq\n      tag_18\n      jumpi\n      dup1\n      0x95ecc5cc\n      eq\n      tag_19\n      jumpi\n      dup1\n      0xb9ae7364\n      eq\n      tag_20\n      jumpi\n      jump(tag_2)\n    tag_27:\n      dup1\n      0x1f2698ab\n      gt\n      tag_29\n      jumpi\n      dup1\n      0x1f2698ab\n      eq\n      tag_9\n      jumpi\n      dup1\n      0x2aeee493\n      eq\n      tag_10\n      jumpi\n      dup1\n      0x378252f2\n      eq\n      tag_11\n      jumpi\n      dup1\n      0x3ccfd60b\n      eq\n      tag_12\n      jumpi\n      dup1\n      0x41275358\n      eq\n      tag_13\n      jumpi\n      dup1\n      0x47ccca02\n      eq\n      tag_14\n      jumpi\n      jump(tag_2)\n    tag_29:\n      dup1\n      0x02097ab1\n      eq\n      tag_3\n      jumpi\n      dup1\n      0x08551a53\n      eq\n      tag_4\n      jumpi\n      dup1\n      0x12065fe0\n      eq\n      tag_5\n      jumpi\n      dup1\n      0x12fa6feb\n      eq\n      tag_6\n      jumpi\n      dup1\n      0x17d531fc\n      eq\n      tag_7\n      jumpi\n      dup1\n      0x1df4ccfc\n      eq\n      tag_8\n      jumpi\n      jump(tag_2)\n    tag_1:\n      jumpi(tag_2, calldatasize)\n      stop\n    tag_2:\n      stop\n        /* \"Contracts/AuctionSPU.sol\":2072:2124  mapping(address => FeeReceivers) public feeReceivers */\n    tag_3:\n      callvalue\n      dup1\n      iszero\n      tag_34\n      jumpi\n      0x00\n      dup1\n      revert\n    tag_34:\n      pop\n      tag_35\n      0x04\n      dup1\n      calldatasize\n      sub\n      dup2\n      add\n      swap1\n      tag_36\n      swap2\n      swap1\n      tag_37\n      jump\t// in\n    tag_36:\n      tag_38\n      jump\t// in\n    tag_35:\n      mload(0x40)\n      tag_39\n      swap3\n      swap2\n      swap1\n      tag_40\n      jump\t// in\n    tag_39:\n      mload(0x40)\n      dup1\n      swap2\n      sub\n      swap1\n      return\n        /* \"Contracts/AuctionSPU.sol\":1383:1412  address payable public seller */\n    tag_4:\n      callvalue\n      dup1\n      iszero\n      tag_41\n      jumpi\n      0x00\n      dup1\n      revert\n    tag_41:\n      pop\n      tag_42\n      tag_43\n      jump\t// in\n    tag_42:\n      mload(0x40)\n      tag_44\n      swap2\n      swap1\n      tag_45\n      jump\t// in\n    tag_44:\n      mload(0x40)\n      dup1\n      swap2\n      sub\n      swap1\n      return\n        /* \"Contracts/AuctionSPU.sol\":3428:3524  function getBalance() public view returns (uint) {... */\n    tag_5:\n      callvalue\n      dup1\n      iszero\n      tag_46\n      jumpi\n      0x00\n      dup1\n      revert\n    tag_46:\n      pop\n      tag_47\n      tag_48\n      jump\t// in\n    tag_47:\n      mload(0x40)\n      tag_49\n      swap2\n      swap1\n      tag_50\n      jump\t// in\n    tag_49:\n      mload(0x40)\n      dup1\n      swap2\n      sub\n      swap1\n      return\n        /* \"Contracts/AuctionSPU.sol\":1509:1526  bool public ended */\n    tag_6:\n      callvalue\n      dup1\n      iszero\n      tag_51\n      jumpi\n      0x00\n      dup1\n      revert\n    tag_51:\n      pop\n      tag_52\n      tag_53\n      jump\t// in\n    tag_52:\n      mload(0x40)\n      tag_54\n      swap2\n      swap1\n      tag_55\n      jump\t// in\n    tag_54:\n      mload(0x40)\n      dup1\n      swap2\n      sub\n      swap1\n      return\n        /* \"Contracts/AuctionSPU.sol\":1558:1582  uint public numberOfBids */\n    tag_7:\n      callvalue\n      dup1\n      iszero\n      tag_56\n      jumpi\n      0x00\n      dup1\n      revert\n    tag_56:\n      pop\n      tag_57\n      tag_58\n      jump\t// in\n    tag_57:\n      mload(0x40)\n      tag_59\n      swap2\n      swap1\n      tag_50\n      jump\t// in\n    tag_59:\n      mload(0x40)\n      dup1\n      swap2\n      sub\n      swap1\n      return\n        /* \"Contracts/AuctionSPU.sol\":1667:1687  uint public totalFee */\n    tag_8:\n      callvalue\n      dup1\n      iszero\n      tag_60\n      jumpi\n      0x00\n      dup1\n      revert\n    tag_60:\n      pop\n      tag_61\n      tag_62\n      jump\t// in\n    tag_61:\n      mload(0x40)\n      tag_63\n      swap2\n      swap1\n      tag_50\n      jump\t// in\n    tag_63:\n      mload(0x40)\n      dup1\n      swap2\n      sub\n      swap1\n      return\n        /* \"Contracts/AuctionSPU.sol\":1483:1502  bool public started */\n    tag_9:\n      callvalue\n      dup1\n      iszero\n      tag_64\n      jumpi\n      0x00\n      dup1\n      revert\n    tag_64:\n      pop\n      tag_65\n      tag_66\n      jump\t// in\n    tag_65:\n      mload(0x40)\n      tag_67\n      swap2\n      swap1\n      tag_55\n      jump\t// in\n    tag_67:\n      mload(0x40)\n      dup1\n      swap2\n      sub\n      swap1\n      return\n        /* \"Contracts/AuctionSPU.sol\":4595:5903  function newBid(... */\n    tag_10:\n      tag_68\n      0x04\n      dup1\n      calldatasize\n      sub\n      dup2\n      add\n      swap1\n      tag_69\n      swap2\n      swap1\n      tag_70\n      jump\t// in\n    tag_69:\n      tag_71\n      jump\t// in\n    tag_68:\n      stop\n        /* \"Contracts/AuctionSPU.sol\":7014:7925  function closeAuction () external onlyOwner{... */\n    tag_11:\n      callvalue\n      dup1\n      iszero\n      tag_72\n      jumpi\n      0x00\n      dup1\n      revert\n    tag_72:\n      pop\n      tag_73\n      tag_74\n      jump\t// in\n    tag_73:\n      stop\n        /* \"Contracts/AuctionSPU.sol\":5911:6447  function withdraw() external {... */\n    tag_12:\n      callvalue\n      dup1\n      iszero\n      tag_75\n      jumpi\n      0x00\n      dup1\n      revert\n    tag_75:\n      pop\n      tag_76\n      tag_77\n      jump\t// in\n    tag_76:\n      stop\n        /* \"Contracts/AuctionSPU.sol\":1419:1452  address payable public feeAddress */\n    tag_13:\n      callvalue\n      dup1\n      iszero\n      tag_78\n      jumpi\n      0x00\n      dup1\n      revert\n    tag_78:\n      pop\n      tag_79\n      tag_80\n      jump\t// in\n    tag_79:\n      mload(0x40)\n      tag_81\n      swap2\n      swap1\n      tag_45\n      jump\t// in\n    tag_81:\n      mload(0x40)\n      dup1\n      swap2\n      sub\n      swap1\n      return\n        /* \"Contracts/AuctionSPU.sol\":1286:1304  IERC721 public nft */\n    tag_14:\n      callvalue\n      dup1\n      iszero\n      tag_82\n      jumpi\n      0x00\n      dup1\n      revert\n    tag_82:\n      pop\n      tag_83\n      tag_84\n      jump\t// in\n    tag_83:\n      mload(0x40)\n      tag_85\n      swap2\n      swap1\n      tag_86\n      jump\t// in\n    tag_85:\n      mload(0x40)\n      dup1\n      swap2\n      sub\n      swap1\n      return\n        /* \"Contracts/AuctionSPU.sol\":1533:1551  bool public paused */\n    tag_15:\n      callvalue\n      dup1\n      iszero\n      tag_87\n      jumpi\n      0x00\n      dup1\n      revert\n    tag_87:\n      pop\n      tag_88\n      tag_89\n      jump\t// in\n    tag_88:\n      mload(0x40)\n      tag_90\n      swap2\n      swap1\n      tag_55\n      jump\t// in\n    tag_90:\n      mload(0x40)\n      dup1\n      swap2\n      sub\n      swap1\n      return\n        /* \"Contracts/AuctionSPU.sol\":3577:3795  function startAuction() external onlyOwner {... */\n    tag_16:\n      callvalue\n      dup1\n      iszero\n      tag_91\n      jumpi\n      0x00\n      dup1\n      revert\n    tag_91:\n      pop\n      tag_92\n      tag_93\n      jump\t// in\n    tag_92:\n      stop\n        /* \"Contracts/AuctionSPU.sol\":1459:1476  uint public endAt */\n    tag_17:\n      callvalue\n      dup1\n      iszero\n      tag_94\n      jumpi\n      0x00\n      dup1\n      revert\n    tag_94:\n      pop\n      tag_95\n      tag_96\n      jump\t// in\n    tag_95:\n      mload(0x40)\n      tag_97\n      swap2\n      swap1\n      tag_50\n      jump\t// in\n    tag_97:\n      mload(0x40)\n      dup1\n      swap2\n      sub\n      swap1\n      return\n        /* \"Contracts/AuctionSPU.sol\":1737:1765  address public highestBidder */\n    tag_18:\n      callvalue\n      dup1\n      iszero\n      tag_98\n      jumpi\n      0x00\n      dup1\n      revert\n    tag_98:\n      pop\n      tag_99\n      tag_100\n      jump\t// in\n    tag_99:\n      mload(0x40)\n      tag_101\n      swap2\n      swap1\n      tag_102\n      jump\t// in\n    tag_101:\n      mload(0x40)\n      dup1\n      swap2\n      sub\n      swap1\n      return\n        /* \"Contracts/AuctionSPU.sol\":2018:2065  mapping(address => Bidders) public receivedBids */\n    tag_19:\n      callvalue\n      dup1\n      iszero\n      tag_103\n      jumpi\n      0x00\n      dup1\n      revert\n    tag_103:\n      pop\n      tag_104\n      0x04\n      dup1\n      calldatasize\n      sub\n      dup2\n      add\n      swap1\n      tag_105\n      swap2\n      swap1\n      tag_37\n      jump\t// in\n    tag_105:\n      tag_106\n      jump\t// in\n    tag_104:\n      mload(0x40)\n      tag_107\n      swap5\n      swap4\n      swap3\n      swap2\n      swap1\n      tag_108\n      jump\t// in\n    tag_107:\n      mload(0x40)\n      dup1\n      swap2\n      sub\n      swap1\n      return\n        /* \"Contracts/AuctionSPU.sol\":4149:4313  function pauseAuction() external onlyOwner {... */\n    tag_20:\n      callvalue\n      dup1\n      iszero\n      tag_109\n      jumpi\n      0x00\n      dup1\n      revert\n    tag_109:\n      pop\n      tag_110\n      tag_111\n      jump\t// in\n    tag_110:\n      stop\n        /* \"Contracts/AuctionSPU.sol\":1311:1328  uint public nftId */\n    tag_21:\n      callvalue\n      dup1\n      iszero\n      tag_112\n      jumpi\n      0x00\n      dup1\n      revert\n    tag_112:\n      pop\n      tag_113\n      tag_114\n      jump\t// in\n    tag_113:\n      mload(0x40)\n      tag_115\n      swap2\n      swap1\n      tag_50\n      jump\t// in\n    tag_115:\n      mload(0x40)\n      dup1\n      swap2\n      sub\n      swap1\n      return\n        /* \"Contracts/AuctionSPU.sol\":4368:4537  function unpauseAuction() external onlyOwner {... */\n    tag_22:\n      callvalue\n      dup1\n      iszero\n      tag_116\n      jumpi\n      0x00\n      dup1\n      revert\n    tag_116:\n      pop\n      tag_117\n      tag_118\n      jump\t// in\n    tag_117:\n      stop\n        /* \"Contracts/AuctionSPU.sol\":1772:1794  uint public highestBid */\n    tag_23:\n      callvalue\n      dup1\n      iszero\n      tag_119\n      jumpi\n      0x00\n      dup1\n      revert\n    tag_119:\n      pop\n      tag_120\n      tag_121\n      jump\t// in\n    tag_120:\n      mload(0x40)\n      tag_122\n      swap2\n      swap1\n      tag_50\n      jump\t// in\n    tag_122:\n      mload(0x40)\n      dup1\n      swap2\n      sub\n      swap1\n      return\n        /* \"Contracts/AuctionSPU.sol\":1623:1660  uint public constant FEE_BASE = 10000 */\n    tag_24:\n      callvalue\n      dup1\n      iszero\n      tag_123\n      jumpi\n      0x00\n      dup1\n      revert\n    tag_123:\n      pop\n      tag_124\n      tag_125\n      jump\t// in\n    tag_124:\n      mload(0x40)\n      tag_126\n      swap2\n      swap1\n      tag_50\n      jump\t// in\n    tag_126:\n      mload(0x40)\n      dup1\n      swap2\n      sub\n      swap1\n      return\n        /* \"Contracts/AuctionSPU.sol\":6661:7006  function addNewFeeReceiver(address _newRecipient, uint8 _fee) external onlyOwner{... */\n    tag_25:\n      callvalue\n      dup1\n      iszero\n      tag_127\n      jumpi\n      0x00\n      dup1\n      revert\n    tag_127:\n      pop\n      tag_128\n      0x04\n      dup1\n      calldatasize\n      sub\n      dup2\n      add\n      swap1\n      tag_129\n      swap2\n      swap1\n      tag_130\n      jump\t// in\n    tag_129:\n      tag_131\n      jump\t// in\n    tag_128:\n      stop\n        /* \"Contracts/AuctionSPU.sol\":3844:4096  function endAuction() external onlyOwner auctionStarted {... */\n    tag_26:\n      callvalue\n      dup1\n      iszero\n      tag_132\n      jumpi\n      0x00\n      dup1\n      revert\n    tag_132:\n      pop\n      tag_133\n      tag_134\n      jump\t// in\n    tag_133:\n      stop\n        /* \"Contracts/AuctionSPU.sol\":2072:2124  mapping(address => FeeReceivers) public feeReceivers */\n    tag_38:\n      mstore(0x20, 0x0c)\n      dup1\n      0x00\n      mstore\n      keccak256(0x00, 0x40)\n      0x00\n      swap2\n      pop\n      swap1\n      pop\n      dup1\n      0x00\n      add\n      0x00\n      swap1\n      sload\n      swap1\n      0x0100\n      exp\n      swap1\n      div\n      0xffffffffffffffffffffffffffffffffffffffff\n      and\n      swap1\n      dup1\n      0x01\n      add\n      sload\n      swap1\n      pop\n      dup3\n      jump\t// out\n        /* \"Contracts/AuctionSPU.sol\":1383:1412  address payable public seller */\n    tag_43:\n      0x02\n      0x00\n      swap1\n      sload\n      swap1\n      0x0100\n      exp\n      swap1\n      div\n      0xffffffffffffffffffffffffffffffffffffffff\n      and\n      dup2\n      jump\t// out\n        /* \"Contracts/AuctionSPU.sol\":3428:3524  function getBalance() public view returns (uint) {... */\n    tag_48:\n        /* \"Contracts/AuctionSPU.sol\":3471:3475  uint */\n      0x00\n        /* \"Contracts/AuctionSPU.sol\":3495:3516  address(this).balance */\n      selfbalance\n        /* \"Contracts/AuctionSPU.sol\":3488:3516  return address(this).balance */\n      swap1\n      pop\n        /* \"Contracts/AuctionSPU.sol\":3428:3524  function getBalance() public view returns (uint) {... */\n      swap1\n      jump\t// out\n        /* \"Contracts/AuctionSPU.sol\":1509:1526  bool public ended */\n    tag_53:\n      0x05\n      0x01\n      swap1\n      sload\n      swap1\n      0x0100\n      exp\n      swap1\n      div\n      0xff\n      and\n      dup2\n      jump\t// out\n        /* \"Contracts/AuctionSPU.sol\":1558:1582  uint public numberOfBids */\n    tag_58:\n      sload(0x06)\n      dup2\n      jump\t// out\n        /* \"Contracts/AuctionSPU.sol\":1667:1687  uint public totalFee */\n    tag_62:\n      sload(0x08)\n      dup2\n      jump\t// out\n        /* \"Contracts/AuctionSPU.sol\":1483:1502  bool public started */\n    tag_66:\n      0x05\n      0x00\n      swap1\n      sload\n      swap1\n      0x0100\n      exp\n      swap1\n      div\n      0xff\n      and\n      dup2\n      jump\t// out\n        /* \"Contracts/AuctionSPU.sol\":4595:5903  function newBid(... */\n    tag_71:\n        /* \"Contracts/AuctionSPU.sol\":3177:3184  started */\n      0x05\n      0x00\n      swap1\n      sload\n      swap1\n      0x0100\n      exp\n      swap1\n      div\n      0xff\n      and\n        /* \"Contracts/AuctionSPU.sol\":3169:3204  require(started, \"Not Started Yet\") */\n      tag_137\n      jumpi\n      mload(0x40)\n      0x08c379a000000000000000000000000000000000000000000000000000000000\n      dup2\n      mstore\n      0x04\n      add\n      tag_138\n      swap1\n      tag_139\n      jump\t// in\n    tag_138:\n      mload(0x40)\n      dup1\n      swap2\n      sub\n      swap1\n      revert\n    tag_137:\n        /* \"Contracts/AuctionSPU.sol\":3079:3085  paused */\n      0x05\n      0x02\n      swap1\n      sload\n      swap1\n      0x0100\n      exp\n      swap1\n      div\n      0xff\n      and\n        /* \"Contracts/AuctionSPU.sol\":3078:3085  !paused */\n      iszero\n        /* \"Contracts/AuctionSPU.sol\":3070:3104  require(!paused, \"Auction Paused\") */\n      tag_141\n      jumpi\n      mload(0x40)\n      0x08c379a000000000000000000000000000000000000000000000000000000000\n      dup2\n      mstore\n      0x04\n      add\n      tag_142\n      swap1\n      tag_143\n      jump\t// in\n    tag_142:\n      mload(0x40)\n      dup1\n      swap2\n      sub\n      swap1\n      revert\n    tag_141:\n        /* \"Contracts/AuctionSPU.sol\":4806:4811  endAt */\n      sload(0x04)\n        /* \"Contracts/AuctionSPU.sol\":4788:4803  block.timestamp */\n      timestamp\n        /* \"Contracts/AuctionSPU.sol\":4788:4811  block.timestamp < endAt */\n      lt\n        /* \"Contracts/AuctionSPU.sol\":4780:4829  require(block.timestamp < endAt, \"Already ended\") */\n      tag_145\n      jumpi\n      mload(0x40)\n      0x08c379a000000000000000000000000000000000000000000000000000000000\n      dup2\n      mstore\n      0x04\n      add\n      tag_146\n      swap1\n      tag_147\n      jump\t// in\n    tag_146:\n      mload(0x40)\n      dup1\n      swap2\n      sub\n      swap1\n      revert\n    tag_145:\n        /* \"Contracts/AuctionSPU.sol\":4860:4870  highestBid */\n      sload(0x0a)\n        /* \"Contracts/AuctionSPU.sol\":4848:4857  msg.value */\n      callvalue\n        /* \"Contracts/AuctionSPU.sol\":4848:4870  msg.value > highestBid */\n      gt\n        /* \"Contracts/AuctionSPU.sol\":4840:4884  require(msg.value > highestBid, \"Lower Bid\") */\n      tag_148\n      jumpi\n      mload(0x40)\n      0x08c379a000000000000000000000000000000000000000000000000000000000\n      dup2\n      mstore\n      0x04\n      add\n      tag_149\n      swap1\n      tag_150\n      jump\t// in\n    tag_149:\n      mload(0x40)\n      dup1\n      swap2\n      sub\n      swap1\n      revert\n    tag_148:\n        /* \"Contracts/AuctionSPU.sol\":4917:4923  seller */\n      0x02\n      0x00\n      swap1\n      sload\n      swap1\n      0x0100\n      exp\n      swap1\n      div\n      0xffffffffffffffffffffffffffffffffffffffff\n      and\n        /* \"Contracts/AuctionSPU.sol\":4903:4923  msg.sender != seller */\n      0xffffffffffffffffffffffffffffffffffffffff\n      and\n        /* \"Contracts/AuctionSPU.sol\":4903:4913  msg.sender */\n      caller\n        /* \"Contracts/AuctionSPU.sol\":4903:4923  msg.sender != seller */\n      0xffffffffffffffffffffffffffffffffffffffff\n      and\n      sub\n        /* \"Contracts/AuctionSPU.sol\":4895:4946  require(msg.sender != seller, \"Seller not allowed\") */\n      tag_151\n      jumpi\n      mload(0x40)\n      0x08c379a000000000000000000000000000000000000000000000000000000000\n      dup2\n      mstore\n      0x04\n      add\n      tag_152\n      swap1\n      tag_153\n      jump\t// in\n    tag_152:\n      mload(0x40)\n      dup1\n      swap2\n      sub\n      swap1\n      revert\n    tag_151:\n        /* \"Contracts/AuctionSPU.sol\":4967:4975  uint fee */\n      0x00\n        /* \"Contracts/AuctionSPU.sol\":5005:5019  transactionFee */\n      sload(0x07)\n        /* \"Contracts/AuctionSPU.sol\":1655:1660  10000 */\n      0x2710\n        /* \"Contracts/AuctionSPU.sol\":4979:4990  _totalValue */\n      dup7\n        /* \"Contracts/AuctionSPU.sol\":4979:5001  _totalValue / FEE_BASE */\n      tag_154\n      swap2\n      swap1\n      tag_155\n      jump\t// in\n    tag_154:\n        /* \"Contracts/AuctionSPU.sol\":4978:5019  (_totalValue / FEE_BASE) * transactionFee */\n      tag_156\n      swap2\n      swap1\n      tag_157\n      jump\t// in\n    tag_156:\n        /* \"Contracts/AuctionSPU.sol\":4967:5019  uint fee = (_totalValue / FEE_BASE) * transactionFee */\n      swap1\n      pop\n        /* \"Contracts/AuctionSPU.sol\":5042:5045  fee */\n      dup1\n        /* \"Contracts/AuctionSPU.sol\":5030:5038  totalFee */\n      0x08\n      0x00\n        /* \"Contracts/AuctionSPU.sol\":5030:5045  totalFee += fee */\n      dup3\n      dup3\n      sload\n      tag_158\n      swap2\n      swap1\n      tag_159\n      jump\t// in\n    tag_158:\n      swap3\n      pop\n      pop\n      dup2\n      swap1\n      sstore\n      pop\n        /* \"Contracts/AuctionSPU.sol\":5061:5124  cashback(highestBidder, receivedBids[highestBidder].totalValue) */\n      tag_160\n        /* \"Contracts/AuctionSPU.sol\":5070:5083  highestBidder */\n      0x09\n      0x00\n      swap1\n      sload\n      swap1\n      0x0100\n      exp\n      swap1\n      div\n      0xffffffffffffffffffffffffffffffffffffffff\n      and\n        /* \"Contracts/AuctionSPU.sol\":5085:5097  receivedBids */\n      0x0b\n        /* \"Contracts/AuctionSPU.sol\":5085:5112  receivedBids[highestBidder] */\n      0x00\n        /* \"Contracts/AuctionSPU.sol\":5098:5111  highestBidder */\n      0x09\n      0x00\n      swap1\n      sload\n      swap1\n      0x0100\n      exp\n      swap1\n      div\n      0xffffffffffffffffffffffffffffffffffffffff\n      and\n        /* \"Contracts/AuctionSPU.sol\":5085:5112  receivedBids[highestBidder] */\n      0xffffffffffffffffffffffffffffffffffffffff\n      and\n      0xffffffffffffffffffffffffffffffffffffffff\n      and\n      dup2\n      mstore\n      0x20\n      add\n      swap1\n      dup2\n      mstore\n      0x20\n      add\n      0x00\n      keccak256\n        /* \"Contracts/AuctionSPU.sol\":5085:5123  receivedBids[highestBidder].totalValue */\n      0x00\n      add\n      sload\n        /* \"Contracts/AuctionSPU.sol\":5061:5069  cashback */\n      tag_161\n        /* \"Contracts/AuctionSPU.sol\":5061:5124  cashback(highestBidder, receivedBids[highestBidder].totalValue) */\n      jump\t// in\n    tag_160:\n        /* \"Contracts/AuctionSPU.sol\":5181:5182  0 */\n      0x00\n        /* \"Contracts/AuctionSPU.sol\":5142:5154  receivedBids */\n      0x0b\n        /* \"Contracts/AuctionSPU.sol\":5142:5166  receivedBids[msg.sender] */\n      0x00\n        /* \"Contracts/AuctionSPU.sol\":5155:5165  msg.sender */\n      caller\n        /* \"Contracts/AuctionSPU.sol\":5142:5166  receivedBids[msg.sender] */\n      0xffffffffffffffffffffffffffffffffffffffff\n      and\n      0xffffffffffffffffffffffffffffffffffffffff\n      and\n      dup2\n      mstore\n      0x20\n      add\n      swap1\n      dup2\n      mstore\n      0x20\n      add\n      0x00\n      keccak256\n        /* \"Contracts/AuctionSPU.sol\":5142:5177  receivedBids[msg.sender].totalValue */\n      0x00\n      add\n      sload\n        /* \"Contracts/AuctionSPU.sol\":5142:5182  receivedBids[msg.sender].totalValue != 0 */\n      eq\n        /* \"Contracts/AuctionSPU.sol\":5138:5752  if (receivedBids[msg.sender].totalValue != 0) {  ... */\n      tag_162\n      jumpi\n        /* \"Contracts/AuctionSPU.sol\":5266:5269  fee */\n      dup1\n        /* \"Contracts/AuctionSPU.sol\":5252:5263  _totalValue */\n      dup6\n        /* \"Contracts/AuctionSPU.sol\":5252:5269  _totalValue - fee */\n      tag_163\n      swap2\n      swap1\n      tag_164\n      jump\t// in\n    tag_163:\n        /* \"Contracts/AuctionSPU.sol\":5214:5226  receivedBids */\n      0x0b\n        /* \"Contracts/AuctionSPU.sol\":5214:5238  receivedBids[msg.sender] */\n      0x00\n        /* \"Contracts/AuctionSPU.sol\":5227:5237  msg.sender */\n      caller\n        /* \"Contracts/AuctionSPU.sol\":5214:5238  receivedBids[msg.sender] */\n      0xffffffffffffffffffffffffffffffffffffffff\n      and\n      0xffffffffffffffffffffffffffffffffffffffff\n      and\n      dup2\n      mstore\n      0x20\n      add\n      swap1\n      dup2\n      mstore\n      0x20\n      add\n      0x00\n      keccak256\n        /* \"Contracts/AuctionSPU.sol\":5214:5249  receivedBids[msg.sender].totalValue */\n      0x00\n      add\n        /* \"Contracts/AuctionSPU.sol\":5214:5269  receivedBids[msg.sender].totalValue = _totalValue - fee */\n      dup2\n      swap1\n      sstore\n      pop\n        /* \"Contracts/AuctionSPU.sol\":5321:5331  _realValue */\n      dup4\n        /* \"Contracts/AuctionSPU.sol\":5284:5296  receivedBids */\n      0x0b\n        /* \"Contracts/AuctionSPU.sol\":5284:5308  receivedBids[msg.sender] */\n      0x00\n        /* \"Contracts/AuctionSPU.sol\":5297:5307  msg.sender */\n      caller\n        /* \"Contracts/AuctionSPU.sol\":5284:5308  receivedBids[msg.sender] */\n      0xffffffffffffffffffffffffffffffffffffffff\n      and\n      0xffffffffffffffffffffffffffffffffffffffff\n      and\n      dup2\n      mstore\n      0x20\n      add\n      swap1\n      dup2\n      mstore\n      0x20\n      add\n      0x00\n      keccak256\n        /* \"Contracts/AuctionSPU.sol\":5284:5318  receivedBids[msg.sender].realValue */\n      0x01\n      add\n        /* \"Contracts/AuctionSPU.sol\":5284:5331  receivedBids[msg.sender].realValue = _realValue */\n      dup2\n      swap1\n      sstore\n      pop\n        /* \"Contracts/AuctionSPU.sol\":5381:5389  _portion */\n      dup3\n        /* \"Contracts/AuctionSPU.sol\":5346:5358  receivedBids */\n      0x0b\n        /* \"Contracts/AuctionSPU.sol\":5346:5370  receivedBids[msg.sender] */\n      0x00\n        /* \"Contracts/AuctionSPU.sol\":5359:5369  msg.sender */\n      caller\n        /* \"Contracts/AuctionSPU.sol\":5346:5370  receivedBids[msg.sender] */\n      0xffffffffffffffffffffffffffffffffffffffff\n      and\n      0xffffffffffffffffffffffffffffffffffffffff\n      and\n      dup2\n      mstore\n      0x20\n      add\n      swap1\n      dup2\n      mstore\n      0x20\n      add\n      0x00\n      keccak256\n        /* \"Contracts/AuctionSPU.sol\":5346:5378  receivedBids[msg.sender].portion */\n      0x02\n      add\n        /* \"Contracts/AuctionSPU.sol\":5346:5389  receivedBids[msg.sender].portion = _portion */\n      dup2\n      swap1\n      sstore\n      pop\n        /* \"Contracts/AuctionSPU.sol\":5443:5455  _clientScore */\n      dup2\n        /* \"Contracts/AuctionSPU.sol\":5404:5416  receivedBids */\n      0x0b\n        /* \"Contracts/AuctionSPU.sol\":5404:5428  receivedBids[msg.sender] */\n      0x00\n        /* \"Contracts/AuctionSPU.sol\":5417:5427  msg.sender */\n      caller\n        /* \"Contracts/AuctionSPU.sol\":5404:5428  receivedBids[msg.sender] */\n      0xffffffffffffffffffffffffffffffffffffffff\n      and\n      0xffffffffffffffffffffffffffffffffffffffff\n      and\n      dup2\n      mstore\n      0x20\n      add\n      swap1\n      dup2\n      mstore\n      0x20\n      add\n      0x00\n      keccak256\n        /* \"Contracts/AuctionSPU.sol\":5404:5440  receivedBids[msg.sender].clientScore */\n      0x03\n      add\n        /* \"Contracts/AuctionSPU.sol\":5404:5455  receivedBids[msg.sender].clientScore = _clientScore */\n      dup2\n      swap1\n      sstore\n      pop\n        /* \"Contracts/AuctionSPU.sol\":5138:5752  if (receivedBids[msg.sender].totalValue != 0) {  ... */\n      jump(tag_165)\n    tag_162:\n        /* \"Contracts/AuctionSPU.sol\":5503:5519  Bidders memory b */\n      tag_166\n      tag_167\n      jump\t// in\n    tag_166:\n        /* \"Contracts/AuctionSPU.sol\":5564:5567  fee */\n      dup2\n        /* \"Contracts/AuctionSPU.sol\":5550:5561  _totalValue */\n      dup7\n        /* \"Contracts/AuctionSPU.sol\":5550:5567  _totalValue - fee */\n      tag_168\n      swap2\n      swap1\n      tag_164\n      jump\t// in\n    tag_168:\n        /* \"Contracts/AuctionSPU.sol\":5534:5535  b */\n      dup2\n        /* \"Contracts/AuctionSPU.sol\":5534:5546  b.totalValue */\n      0x00\n      add\n        /* \"Contracts/AuctionSPU.sol\":5534:5567  b.totalValue += _totalValue - fee */\n      dup2\n      dup2\n      mload\n      tag_169\n      swap2\n      swap1\n      tag_159\n      jump\t// in\n    tag_169:\n      swap2\n      pop\n      dup2\n      dup2\n      mstore\n      pop\n      pop\n        /* \"Contracts/AuctionSPU.sol\":5609:5619  _realValue */\n      dup5\n        /* \"Contracts/AuctionSPU.sol\":5594:5595  b */\n      dup2\n        /* \"Contracts/AuctionSPU.sol\":5594:5605  b.realValue */\n      0x20\n      add\n        /* \"Contracts/AuctionSPU.sol\":5594:5619  b.realValue += _realValue */\n      dup2\n      dup2\n      mload\n      tag_170\n      swap2\n      swap1\n      tag_159\n      jump\t// in\n    tag_170:\n      swap2\n      pop\n      dup2\n      dup2\n      mstore\n      pop\n      pop\n        /* \"Contracts/AuctionSPU.sol\":5646:5654  _portion */\n      dup4\n        /* \"Contracts/AuctionSPU.sol\":5634:5635  b */\n      dup2\n        /* \"Contracts/AuctionSPU.sol\":5634:5643  b.portion */\n      0x40\n      add\n        /* \"Contracts/AuctionSPU.sol\":5634:5654  b.portion = _portion */\n      dup2\n      dup2\n      mstore\n      pop\n      pop\n        /* \"Contracts/AuctionSPU.sol\":5685:5697  _clientScore */\n      dup3\n        /* \"Contracts/AuctionSPU.sol\":5669:5670  b */\n      dup2\n        /* \"Contracts/AuctionSPU.sol\":5669:5682  b.clientScore */\n      0x60\n      add\n        /* \"Contracts/AuctionSPU.sol\":5669:5697  b.clientScore = _clientScore */\n      dup2\n      dup2\n      mstore\n      pop\n      pop\n        /* \"Contracts/AuctionSPU.sol\":5739:5740  b */\n      dup1\n        /* \"Contracts/AuctionSPU.sol\":5712:5724  receivedBids */\n      0x0b\n        /* \"Contracts/AuctionSPU.sol\":5712:5736  receivedBids[msg.sender] */\n      0x00\n        /* \"Contracts/AuctionSPU.sol\":5725:5735  msg.sender */\n      caller\n        /* \"Contracts/AuctionSPU.sol\":5712:5736  receivedBids[msg.sender] */\n      0xffffffffffffffffffffffffffffffffffffffff\n      and\n      0xffffffffffffffffffffffffffffffffffffffff\n      and\n      dup2\n      mstore\n      0x20\n      add\n      swap1\n      dup2\n      mstore\n      0x20\n      add\n      0x00\n      keccak256\n        /* \"Contracts/AuctionSPU.sol\":5712:5740  receivedBids[msg.sender] = b */\n      0x00\n      dup3\n      add\n      mload\n      dup2\n      0x00\n      add\n      sstore\n      0x20\n      dup3\n      add\n      mload\n      dup2\n      0x01\n      add\n      sstore\n      0x40\n      dup3\n      add\n      mload\n      dup2\n      0x02\n      add\n      sstore\n      0x60\n      dup3\n      add\n      mload\n      dup2\n      0x03\n      add\n      sstore\n      swap1\n      pop\n      pop\n        /* \"Contracts/AuctionSPU.sol\":5475:5752  {           ... */\n      pop\n        /* \"Contracts/AuctionSPU.sol\":5138:5752  if (receivedBids[msg.sender].totalValue != 0) {  ... */\n    tag_165:\n        /* \"Contracts/AuctionSPU.sol\":5780:5790  msg.sender */\n      caller\n        /* \"Contracts/AuctionSPU.sol\":5764:5777  highestBidder */\n      0x09\n      0x00\n        /* \"Contracts/AuctionSPU.sol\":5764:5790  highestBidder = msg.sender */\n      0x0100\n      exp\n      dup2\n      sload\n      dup2\n      0xffffffffffffffffffffffffffffffffffffffff\n      mul\n      not\n      and\n      swap1\n      dup4\n      0xffffffffffffffffffffffffffffffffffffffff\n      and\n      mul\n      or\n      swap1\n      sstore\n      pop\n        /* \"Contracts/AuctionSPU.sol\":5814:5823  msg.value */\n      callvalue\n        /* \"Contracts/AuctionSPU.sol\":5801:5811  highestBid */\n      0x0a\n        /* \"Contracts/AuctionSPU.sol\":5801:5823  highestBid = msg.value */\n      dup2\n      swap1\n      sstore\n      pop\n        /* \"Contracts/AuctionSPU.sol\":5850:5851  1 */\n      0x01\n        /* \"Contracts/AuctionSPU.sol\":5834:5846  numberOfBids */\n      0x06\n      0x00\n        /* \"Contracts/AuctionSPU.sol\":5834:5851  numberOfBids += 1 */\n      dup3\n      dup3\n      sload\n      tag_171\n      swap2\n      swap1\n      tag_159\n      jump\t// in\n    tag_171:\n      swap3\n      pop\n      pop\n      dup2\n      swap1\n      sstore\n      pop\n        /* \"Contracts/AuctionSPU.sol\":5873:5883  msg.sender */\n      caller\n        /* \"Contracts/AuctionSPU.sol\":5869:5895  Bid(msg.sender, msg.value) */\n      0xffffffffffffffffffffffffffffffffffffffff\n      and\n      0xe684a55f31b79eca403df938249029212a5925ec6be8012e099b45bc1019e5d2\n        /* \"Contracts/AuctionSPU.sol\":5885:5894  msg.value */\n      callvalue\n        /* \"Contracts/AuctionSPU.sol\":5869:5895  Bid(msg.sender, msg.value) */\n      mload(0x40)\n      tag_172\n      swap2\n      swap1\n      tag_50\n      jump\t// in\n    tag_172:\n      mload(0x40)\n      dup1\n      swap2\n      sub\n      swap1\n      log2\n        /* \"Contracts/AuctionSPU.sol\":4769:5903  {... */\n      pop\n        /* \"Contracts/AuctionSPU.sol\":4595:5903  function newBid(... */\n      pop\n      pop\n      pop\n      pop\n      jump\t// out\n        /* \"Contracts/AuctionSPU.sol\":7014:7925  function closeAuction () external onlyOwner{... */\n    tag_74:\n        /* \"Contracts/AuctionSPU.sol\":2976:2982  seller */\n      0x02\n      0x00\n      swap1\n      sload\n      swap1\n      0x0100\n      exp\n      swap1\n      div\n      0xffffffffffffffffffffffffffffffffffffffff\n      and\n        /* \"Contracts/AuctionSPU.sol\":2962:2982  msg.sender == seller */\n      0xffffffffffffffffffffffffffffffffffffffff\n      and\n        /* \"Contracts/AuctionSPU.sol\":2962:2972  msg.sender */\n      caller\n        /* \"Contracts/AuctionSPU.sol\":2962:2982  msg.sender == seller */\n      0xffffffffffffffffffffffffffffffffffffffff\n      and\n      eq\n        /* \"Contracts/AuctionSPU.sol\":2954:3006  require(msg.sender == seller, \"Sender is not owner\") */\n      tag_174\n      jumpi\n      mload(0x40)\n      0x08c379a000000000000000000000000000000000000000000000000000000000\n      dup2\n      mstore\n      0x04\n      add\n      tag_175\n      swap1\n      tag_176\n      jump\t// in\n    tag_175:\n      mload(0x40)\n      dup1\n      swap2\n      sub\n      swap1\n      revert\n    tag_174:\n        /* \"Contracts/AuctionSPU.sol\":7097:7098  0 */\n      0x00\n        /* \"Contracts/AuctionSPU.sol\":7072:7099  highestBidder != address(0) */\n      0xffffffffffffffffffffffffffffffffffffffff\n      and\n        /* \"Contracts/AuctionSPU.sol\":7072:7085  highestBidder */\n      0x09\n      0x00\n      swap1\n      sload\n      swap1\n      0x0100\n      exp\n      swap1\n      div\n      0xffffffffffffffffffffffffffffffffffffffff\n      and\n        /* \"Contracts/AuctionSPU.sol\":7072:7099  highestBidder != address(0) */\n      0xffffffffffffffffffffffffffffffffffffffff\n      and\n      eq\n        /* \"Contracts/AuctionSPU.sol\":7068:7918  if (highestBidder != address(0)) {... */\n      tag_178\n      jumpi\n        /* \"Contracts/AuctionSPU.sol\":7116:7119  nft */\n      0x00\n      dup1\n      sload\n      swap1\n      0x0100\n      exp\n      swap1\n      div\n      0xffffffffffffffffffffffffffffffffffffffff\n      and\n        /* \"Contracts/AuctionSPU.sol\":7116:7136  nft.safeTransferFrom */\n      0xffffffffffffffffffffffffffffffffffffffff\n      and\n      0x42842e0e\n        /* \"Contracts/AuctionSPU.sol\":7145:7149  this */\n      address\n        /* \"Contracts/AuctionSPU.sol\":7152:7165  highestBidder */\n      0x09\n      0x00\n      swap1\n      sload\n      swap1\n      0x0100\n      exp\n      swap1\n      div\n      0xffffffffffffffffffffffffffffffffffffffff\n      and\n        /* \"Contracts/AuctionSPU.sol\":7167:7172  nftId */\n      sload(0x01)\n        /* \"Contracts/AuctionSPU.sol\":7116:7173  nft.safeTransferFrom(address(this), highestBidder, nftId) */\n      mload(0x40)\n      dup5\n      0xffffffff\n      and\n      0xe0\n      shl\n      dup2\n      mstore\n      0x04\n      add\n      tag_179\n      swap4\n      swap3\n      swap2\n      swap1\n      tag_180\n      jump\t// in\n    tag_179:\n      0x00\n      mload(0x40)\n      dup1\n      dup4\n      sub\n      dup2\n      0x00\n      dup8\n      dup1\n      extcodesize\n      iszero\n      dup1\n      iszero\n      tag_181\n      jumpi\n      0x00\n      dup1\n      revert\n    tag_181:\n      pop\n      gas\n      call\n      iszero\n      dup1\n      iszero\n      tag_183\n      jumpi\n      returndatasize\n      0x00\n      dup1\n      returndatacopy\n      revert(0x00, returndatasize)\n    tag_183:\n      pop\n      pop\n      pop\n      pop\n        /* \"Contracts/AuctionSPU.sol\":7203:7222  bool callSuccessFee */\n      0x00\n        /* \"Contracts/AuctionSPU.sol\":7236:7246  feeAddress */\n      0x03\n      0x00\n      swap1\n      sload\n      swap1\n      0x0100\n      exp\n      swap1\n      div\n      0xffffffffffffffffffffffffffffffffffffffff\n      and\n        /* \"Contracts/AuctionSPU.sol\":7228:7252  payable(feeAddress).call */\n      0xffffffffffffffffffffffffffffffffffffffff\n      and\n        /* \"Contracts/AuctionSPU.sol\":7260:7268  totalFee */\n      sload(0x08)\n        /* \"Contracts/AuctionSPU.sol\":7228:7273  payable(feeAddress).call{value: totalFee}(\"\") */\n      mload(0x40)\n      tag_184\n      swap1\n      tag_185\n      jump\t// in\n    tag_184:\n      0x00\n      mload(0x40)\n      dup1\n      dup4\n      sub\n      dup2\n      dup6\n      dup8\n      gas\n      call\n      swap3\n      pop\n      pop\n      pop\n      returndatasize\n      dup1\n      0x00\n      dup2\n      eq\n      tag_188\n      jumpi\n      mload(0x40)\n      swap2\n      pop\n      and(add(returndatasize, 0x3f), not(0x1f))\n      dup3\n      add\n      0x40\n      mstore\n      returndatasize\n      dup3\n      mstore\n      returndatasize\n      0x00\n      0x20\n      dup5\n      add\n      returndatacopy\n      jump(tag_187)\n    tag_188:\n      0x60\n      swap2\n      pop\n    tag_187:\n      pop\n        /* \"Contracts/AuctionSPU.sol\":7202:7273  (bool callSuccessFee, ) = payable(feeAddress).call{value: totalFee}(\"\") */\n      pop\n      swap1\n      pop\n        /* \"Contracts/AuctionSPU.sol\":7296:7310  callSuccessFee */\n      dup1\n        /* \"Contracts/AuctionSPU.sol\":7288:7338  require(callSuccessFee, \"Return fee funds failed\") */\n      tag_189\n      jumpi\n      mload(0x40)\n      0x08c379a000000000000000000000000000000000000000000000000000000000\n      dup2\n      mstore\n      0x04\n      add\n      tag_190\n      swap1\n      tag_191\n      jump\t// in\n    tag_190:\n      mload(0x40)\n      dup1\n      swap2\n      sub\n      swap1\n      revert\n    tag_189:\n        /* \"Contracts/AuctionSPU.sol\":7368:7384  bool callSuccess */\n      0x00\n        /* \"Contracts/AuctionSPU.sol\":7398:7404  seller */\n      0x02\n      0x00\n      swap1\n      sload\n      swap1\n      0x0100\n      exp\n      swap1\n      div\n      0xffffffffffffffffffffffffffffffffffffffff\n      and\n        /* \"Contracts/AuctionSPU.sol\":7390:7410  payable(seller).call */\n      0xffffffffffffffffffffffffffffffffffffffff\n      and\n        /* \"Contracts/AuctionSPU.sol\":7418:7428  highestBid */\n      sload(0x0a)\n        /* \"Contracts/AuctionSPU.sol\":7390:7433  payable(seller).call{value: highestBid}(\"\") */\n      mload(0x40)\n      tag_192\n      swap1\n      tag_185\n      jump\t// in\n    tag_192:\n      0x00\n      mload(0x40)\n      dup1\n      dup4\n      sub\n      dup2\n      dup6\n      dup8\n      gas\n      call\n      swap3\n      pop\n      pop\n      pop\n      returndatasize\n      dup1\n      0x00\n      dup2\n      eq\n      tag_195\n      jumpi\n      mload(0x40)\n      swap2\n      pop\n      and(add(returndatasize, 0x3f), not(0x1f))\n      dup3\n      add\n      0x40\n      mstore\n      returndatasize\n      dup3\n      mstore\n      returndatasize\n      0x00\n      0x20\n      dup5\n      add\n      returndatacopy\n      jump(tag_194)\n    tag_195:\n      0x60\n      swap2\n      pop\n    tag_194:\n      pop\n        /* \"Contracts/AuctionSPU.sol\":7367:7433  (bool callSuccess, ) = payable(seller).call{value: highestBid}(\"\") */\n      pop\n      swap1\n      pop\n        /* \"Contracts/AuctionSPU.sol\":7456:7467  callSuccess */\n      dup1\n        /* \"Contracts/AuctionSPU.sol\":7448:7491  require(callSuccess, \"Return funds failed\") */\n      tag_196\n      jumpi\n      mload(0x40)\n      0x08c379a000000000000000000000000000000000000000000000000000000000\n      dup2\n      mstore\n      0x04\n      add\n      tag_197\n      swap1\n      tag_198\n      jump\t// in\n    tag_197:\n      mload(0x40)\n      dup1\n      swap2\n      sub\n      swap1\n      revert\n    tag_196:\n        /* \"Contracts/AuctionSPU.sol\":7101:7517  {... */\n      pop\n      pop\n        /* \"Contracts/AuctionSPU.sol\":7068:7918  if (highestBidder != address(0)) {... */\n      jump(tag_199)\n    tag_178:\n        /* \"Contracts/AuctionSPU.sol\":7538:7541  nft */\n      0x00\n      dup1\n      sload\n      swap1\n      0x0100\n      exp\n      swap1\n      div\n      0xffffffffffffffffffffffffffffffffffffffff\n      and\n        /* \"Contracts/AuctionSPU.sol\":7538:7558  nft.safeTransferFrom */\n      0xffffffffffffffffffffffffffffffffffffffff\n      and\n      0x42842e0e\n        /* \"Contracts/AuctionSPU.sol\":7567:7571  this */\n      address\n        /* \"Contracts/AuctionSPU.sol\":7574:7580  seller */\n      0x02\n      0x00\n      swap1\n      sload\n      swap1\n      0x0100\n      exp\n      swap1\n      div\n      0xffffffffffffffffffffffffffffffffffffffff\n      and\n        /* \"Contracts/AuctionSPU.sol\":7582:7587  nftId */\n      sload(0x01)\n        /* \"Contracts/AuctionSPU.sol\":7538:7588  nft.safeTransferFrom(address(this), seller, nftId) */\n      mload(0x40)\n      dup5\n      0xffffffff\n      and\n      0xe0\n      shl\n      dup2\n      mstore\n      0x04\n      add\n      tag_200\n      swap4\n      swap3\n      swap2\n      swap1\n      tag_201\n      jump\t// in\n    tag_200:\n      0x00\n      mload(0x40)\n      dup1\n      dup4\n      sub\n      dup2\n      0x00\n      dup8\n      dup1\n      extcodesize\n      iszero\n      dup1\n      iszero\n      tag_202\n      jumpi\n      0x00\n      dup1\n      revert\n    tag_202:\n      pop\n      gas\n      call\n      iszero\n      dup1\n      iszero\n      tag_204\n      jumpi\n      returndatasize\n      0x00\n      dup1\n      returndatacopy\n      revert(0x00, returndatasize)\n    tag_204:\n      pop\n      pop\n      pop\n      pop\n        /* \"Contracts/AuctionSPU.sol\":7618:7637  bool callSuccessFee */\n      0x00\n        /* \"Contracts/AuctionSPU.sol\":7651:7661  feeAddress */\n      0x03\n      0x00\n      swap1\n      sload\n      swap1\n      0x0100\n      exp\n      swap1\n      div\n      0xffffffffffffffffffffffffffffffffffffffff\n      and\n        /* \"Contracts/AuctionSPU.sol\":7643:7667  payable(feeAddress).call */\n      0xffffffffffffffffffffffffffffffffffffffff\n      and\n        /* \"Contracts/AuctionSPU.sol\":7675:7683  totalFee */\n      sload(0x08)\n        /* \"Contracts/AuctionSPU.sol\":7643:7688  payable(feeAddress).call{value: totalFee}(\"\") */\n      mload(0x40)\n      tag_205\n      swap1\n      tag_185\n      jump\t// in\n    tag_205:\n      0x00\n      mload(0x40)\n      dup1\n      dup4\n      sub\n      dup2\n      dup6\n      dup8\n      gas\n      call\n      swap3\n      pop\n      pop\n      pop\n      returndatasize\n      dup1\n      0x00\n      dup2\n      eq\n      tag_208\n      jumpi\n      mload(0x40)\n      swap2\n      pop\n      and(add(returndatasize, 0x3f), not(0x1f))\n      dup3\n      add\n      0x40\n      mstore\n      returndatasize\n      dup3\n      mstore\n      returndatasize\n      0x00\n      0x20\n      dup5\n      add\n      returndatacopy\n      jump(tag_207)\n    tag_208:\n      0x60\n      swap2\n      pop\n    tag_207:\n      pop\n        /* \"Contracts/AuctionSPU.sol\":7617:7688  (bool callSuccessFee, ) = payable(feeAddress).call{value: totalFee}(\"\") */\n      pop\n      swap1\n      pop\n        /* \"Contracts/AuctionSPU.sol\":7711:7725  callSuccessFee */\n      dup1\n        /* \"Contracts/AuctionSPU.sol\":7703:7753  require(callSuccessFee, \"Return fee funds failed\") */\n      tag_209\n      jumpi\n      mload(0x40)\n      0x08c379a000000000000000000000000000000000000000000000000000000000\n      dup2\n      mstore\n      0x04\n      add\n      tag_210\n      swap1\n      tag_191\n      jump\t// in\n    tag_210:\n      mload(0x40)\n      dup1\n      swap2\n      sub\n      swap1\n      revert\n    tag_209:\n        /* \"Contracts/AuctionSPU.sol\":7783:7799  bool callSuccess */\n      0x00\n        /* \"Contracts/AuctionSPU.sol\":7813:7819  seller */\n      0x02\n      0x00\n      swap1\n      sload\n      swap1\n      0x0100\n      exp\n      swap1\n      div\n      0xffffffffffffffffffffffffffffffffffffffff\n      and\n        /* \"Contracts/AuctionSPU.sol\":7805:7825  payable(seller).call */\n      0xffffffffffffffffffffffffffffffffffffffff\n      and\n        /* \"Contracts/AuctionSPU.sol\":7833:7843  highestBid */\n      sload(0x0a)\n        /* \"Contracts/AuctionSPU.sol\":7805:7848  payable(seller).call{value: highestBid}(\"\") */\n      mload(0x40)\n      tag_211\n      swap1\n      tag_185\n      jump\t// in\n    tag_211:\n      0x00\n      mload(0x40)\n      dup1\n      dup4\n      sub\n      dup2\n      dup6\n      dup8\n      gas\n      call\n      swap3\n      pop\n      pop\n      pop\n      returndatasize\n      dup1\n      0x00\n      dup2\n      eq\n      tag_214\n      jumpi\n      mload(0x40)\n      swap2\n      pop\n      and(add(returndatasize, 0x3f), not(0x1f))\n      dup3\n      add\n      0x40\n      mstore\n      returndatasize\n      dup3\n      mstore\n      returndatasize\n      0x00\n      0x20\n      dup5\n      add\n      returndatacopy\n      jump(tag_213)\n    tag_214:\n      0x60\n      swap2\n      pop\n    tag_213:\n      pop\n        /* \"Contracts/AuctionSPU.sol\":7782:7848  (bool callSuccess, ) = payable(seller).call{value: highestBid}(\"\") */\n      pop\n      swap1\n      pop\n        /* \"Contracts/AuctionSPU.sol\":7871:7882  callSuccess */\n      dup1\n        /* \"Contracts/AuctionSPU.sol\":7863:7906  require(callSuccess, \"Return funds failed\") */\n      tag_215\n      jumpi\n      mload(0x40)\n      0x08c379a000000000000000000000000000000000000000000000000000000000\n      dup2\n      mstore\n      0x04\n      add\n      tag_216\n      swap1\n      tag_198\n      jump\t// in\n    tag_216:\n      mload(0x40)\n      dup1\n      swap2\n      sub\n      swap1\n      revert\n    tag_215:\n        /* \"Contracts/AuctionSPU.sol\":7523:7918  {... */\n      pop\n      pop\n        /* \"Contracts/AuctionSPU.sol\":7068:7918  if (highestBidder != address(0)) {... */\n    tag_199:\n        /* \"Contracts/AuctionSPU.sol\":7014:7925  function closeAuction () external onlyOwner{... */\n      jump\t// out\n        /* \"Contracts/AuctionSPU.sol\":5911:6447  function withdraw() external {... */\n    tag_77:\n        /* \"Contracts/AuctionSPU.sol\":5975:5988  highestBidder */\n      0x09\n      0x00\n      swap1\n      sload\n      swap1\n      0x0100\n      exp\n      swap1\n      div\n      0xffffffffffffffffffffffffffffffffffffffff\n      and\n        /* \"Contracts/AuctionSPU.sol\":5961:5988  msg.sender == highestBidder */\n      0xffffffffffffffffffffffffffffffffffffffff\n      and\n        /* \"Contracts/AuctionSPU.sol\":5961:5971  msg.sender */\n      caller\n        /* \"Contracts/AuctionSPU.sol\":5961:5988  msg.sender == highestBidder */\n      0xffffffffffffffffffffffffffffffffffffffff\n      and\n      sub\n        /* \"Contracts/AuctionSPU.sol\":5951:6016  require(!(msg.sender == highestBidder), \"Your Bid is the higher\") */\n      tag_218\n      jumpi\n      mload(0x40)\n      0x08c379a000000000000000000000000000000000000000000000000000000000\n      dup2\n      mstore\n      0x04\n      add\n      tag_219\n      swap1\n      tag_220\n      jump\t// in\n    tag_219:\n      mload(0x40)\n      dup1\n      swap2\n      sub\n      swap1\n      revert\n    tag_218:\n        /* \"Contracts/AuctionSPU.sol\":6074:6075  0 */\n      0x00\n        /* \"Contracts/AuctionSPU.sol\":6035:6047  receivedBids */\n      0x0b\n        /* \"Contracts/AuctionSPU.sol\":6035:6059  receivedBids[msg.sender] */\n      0x00\n        /* \"Contracts/AuctionSPU.sol\":6048:6058  msg.sender */\n      caller\n        /* \"Contracts/AuctionSPU.sol\":6035:6059  receivedBids[msg.sender] */\n      0xffffffffffffffffffffffffffffffffffffffff\n      and\n      0xffffffffffffffffffffffffffffffffffffffff\n      and\n      dup2\n      mstore\n      0x20\n      add\n      swap1\n      dup2\n      mstore\n      0x20\n      add\n      0x00\n      keccak256\n        /* \"Contracts/AuctionSPU.sol\":6035:6070  receivedBids[msg.sender].totalValue */\n      0x00\n      add\n      sload\n        /* \"Contracts/AuctionSPU.sol\":6035:6075  receivedBids[msg.sender].totalValue != 0 */\n      sub\n        /* \"Contracts/AuctionSPU.sol\":6027:6095  require(receivedBids[msg.sender].totalValue != 0, \"No bids founded\") */\n      tag_221\n      jumpi\n      mload(0x40)\n      0x08c379a000000000000000000000000000000000000000000000000000000000\n      dup2\n      mstore\n      0x04\n      add\n      tag_222\n      swap1\n      tag_223\n      jump\t// in\n    tag_222:\n      mload(0x40)\n      dup1\n      swap2\n      sub\n      swap1\n      revert\n    tag_221:\n        /* \"Contracts/AuctionSPU.sol\":6108:6165  cashback(msg.sender, receivedBids[msg.sender].totalValue) */\n      tag_224\n        /* \"Contracts/AuctionSPU.sol\":6117:6127  msg.sender */\n      caller\n        /* \"Contracts/AuctionSPU.sol\":6129:6141  receivedBids */\n      0x0b\n        /* \"Contracts/AuctionSPU.sol\":6129:6153  receivedBids[msg.sender] */\n      0x00\n        /* \"Contracts/AuctionSPU.sol\":6142:6152  msg.sender */\n      caller\n        /* \"Contracts/AuctionSPU.sol\":6129:6153  receivedBids[msg.sender] */\n      0xffffffffffffffffffffffffffffffffffffffff\n      and\n      0xffffffffffffffffffffffffffffffffffffffff\n      and\n      dup2\n      mstore\n      0x20\n      add\n      swap1\n      dup2\n      mstore\n      0x20\n      add\n      0x00\n      keccak256\n        /* \"Contracts/AuctionSPU.sol\":6129:6164  receivedBids[msg.sender].totalValue */\n      0x00\n      add\n      sload\n        /* \"Contracts/AuctionSPU.sol\":6108:6116  cashback */\n      tag_161\n        /* \"Contracts/AuctionSPU.sol\":6108:6165  cashback(msg.sender, receivedBids[msg.sender].totalValue) */\n      jump\t// in\n    tag_224:\n        /* \"Contracts/AuctionSPU.sol\":6216:6217  0 */\n      0x00\n        /* \"Contracts/AuctionSPU.sol\":6178:6190  receivedBids */\n      0x0b\n        /* \"Contracts/AuctionSPU.sol\":6178:6202  receivedBids[msg.sender] */\n      0x00\n        /* \"Contracts/AuctionSPU.sol\":6191:6201  msg.sender */\n      caller\n        /* \"Contracts/AuctionSPU.sol\":6178:6202  receivedBids[msg.sender] */\n      0xffffffffffffffffffffffffffffffffffffffff\n      and\n      0xffffffffffffffffffffffffffffffffffffffff\n      and\n      dup2\n      mstore\n      0x20\n      add\n      swap1\n      dup2\n      mstore\n      0x20\n      add\n      0x00\n      keccak256\n        /* \"Contracts/AuctionSPU.sol\":6178:6213  receivedBids[msg.sender].totalValue */\n      0x00\n      add\n        /* \"Contracts/AuctionSPU.sol\":6178:6217  receivedBids[msg.sender].totalValue = 0 */\n      dup2\n      swap1\n      sstore\n      pop\n        /* \"Contracts/AuctionSPU.sol\":6265:6266  0 */\n      0x00\n        /* \"Contracts/AuctionSPU.sol\":6228:6240  receivedBids */\n      0x0b\n        /* \"Contracts/AuctionSPU.sol\":6228:6252  receivedBids[msg.sender] */\n      0x00\n        /* \"Contracts/AuctionSPU.sol\":6241:6251  msg.sender */\n      caller\n        /* \"Contracts/AuctionSPU.sol\":6228:6252  receivedBids[msg.sender] */\n      0xffffffffffffffffffffffffffffffffffffffff\n      and\n      0xffffffffffffffffffffffffffffffffffffffff\n      and\n      dup2\n      mstore\n      0x20\n      add\n      swap1\n      dup2\n      mstore\n      0x20\n      add\n      0x00\n      keccak256\n        /* \"Contracts/AuctionSPU.sol\":6228:6262  receivedBids[msg.sender].realValue */\n      0x01\n      add\n        /* \"Contracts/AuctionSPU.sol\":6228:6266  receivedBids[msg.sender].realValue = 0 */\n      dup2\n      swap1\n      sstore\n      pop\n        /* \"Contracts/AuctionSPU.sol\":6312:6313  0 */\n      0x00\n        /* \"Contracts/AuctionSPU.sol\":6277:6289  receivedBids */\n      0x0b\n        /* \"Contracts/AuctionSPU.sol\":6277:6301  receivedBids[msg.sender] */\n      0x00\n        /* \"Contracts/AuctionSPU.sol\":6290:6300  msg.sender */\n      caller\n        /* \"Contracts/AuctionSPU.sol\":6277:6301  receivedBids[msg.sender] */\n      0xffffffffffffffffffffffffffffffffffffffff\n      and\n      0xffffffffffffffffffffffffffffffffffffffff\n      and\n      dup2\n      mstore\n      0x20\n      add\n      swap1\n      dup2\n      mstore\n      0x20\n      add\n      0x00\n      keccak256\n        /* \"Contracts/AuctionSPU.sol\":6277:6309  receivedBids[msg.sender].portion */\n      0x02\n      add\n        /* \"Contracts/AuctionSPU.sol\":6277:6313  receivedBids[msg.sender].portion = 0 */\n      dup2\n      swap1\n      sstore\n      pop\n        /* \"Contracts/AuctionSPU.sol\":6363:6364  0 */\n      0x00\n        /* \"Contracts/AuctionSPU.sol\":6324:6336  receivedBids */\n      0x0b\n        /* \"Contracts/AuctionSPU.sol\":6324:6348  receivedBids[msg.sender] */\n      0x00\n        /* \"Contracts/AuctionSPU.sol\":6337:6347  msg.sender */\n      caller\n        /* \"Contracts/AuctionSPU.sol\":6324:6348  receivedBids[msg.sender] */\n      0xffffffffffffffffffffffffffffffffffffffff\n      and\n      0xffffffffffffffffffffffffffffffffffffffff\n      and\n      dup2\n      mstore\n      0x20\n      add\n      swap1\n      dup2\n      mstore\n      0x20\n      add\n      0x00\n      keccak256\n        /* \"Contracts/AuctionSPU.sol\":6324:6360  receivedBids[msg.sender].clientScore */\n      0x03\n      add\n        /* \"Contracts/AuctionSPU.sol\":6324:6364  receivedBids[msg.sender].clientScore = 0 */\n      dup2\n      swap1\n      sstore\n      pop\n        /* \"Contracts/AuctionSPU.sol\":6391:6401  msg.sender */\n      caller\n        /* \"Contracts/AuctionSPU.sol\":6382:6439  Withdraw(msg.sender, receivedBids[msg.sender].totalValue) */\n      0xffffffffffffffffffffffffffffffffffffffff\n      and\n      0x884edad9ce6fa2440d8a54cc123490eb96d2768479d49ff9c7366125a9424364\n        /* \"Contracts/AuctionSPU.sol\":6403:6415  receivedBids */\n      0x0b\n        /* \"Contracts/AuctionSPU.sol\":6403:6427  receivedBids[msg.sender] */\n      0x00\n        /* \"Contracts/AuctionSPU.sol\":6416:6426  msg.sender */\n      caller\n        /* \"Contracts/AuctionSPU.sol\":6403:6427  receivedBids[msg.sender] */\n      0xffffffffffffffffffffffffffffffffffffffff\n      and\n      0xffffffffffffffffffffffffffffffffffffffff\n      and\n      dup2\n      mstore\n      0x20\n      add\n      swap1\n      dup2\n      mstore\n      0x20\n      add\n      0x00\n      keccak256\n        /* \"Contracts/AuctionSPU.sol\":6403:6438  receivedBids[msg.sender].totalValue */\n      0x00\n      add\n      sload\n        /* \"Contracts/AuctionSPU.sol\":6382:6439  Withdraw(msg.sender, receivedBids[msg.sender].totalValue) */\n      mload(0x40)\n      tag_225\n      swap2\n      swap1\n      tag_50\n      jump\t// in\n    tag_225:\n      mload(0x40)\n      dup1\n      swap2\n      sub\n      swap1\n      log2\n        /* \"Contracts/AuctionSPU.sol\":5911:6447  function withdraw() external {... */\n      jump\t// out\n        /* \"Contracts/AuctionSPU.sol\":1419:1452  address payable public feeAddress */\n    tag_80:\n      0x03\n      0x00\n      swap1\n      sload\n      swap1\n      0x0100\n      exp\n      swap1\n      div\n      0xffffffffffffffffffffffffffffffffffffffff\n      and\n      dup2\n      jump\t// out\n        /* \"Contracts/AuctionSPU.sol\":1286:1304  IERC721 public nft */\n    tag_84:\n      0x00\n      dup1\n      sload\n      swap1\n      0x0100\n      exp\n      swap1\n      div\n      0xffffffffffffffffffffffffffffffffffffffff\n      and\n      dup2\n      jump\t// out\n        /* \"Contracts/AuctionSPU.sol\":1533:1551  bool public paused */\n    tag_89:\n      0x05\n      0x02\n      swap1\n      sload\n      swap1\n      0x0100\n      exp\n      swap1\n      div\n      0xff\n      and\n      dup2\n      jump\t// out\n        /* \"Contracts/AuctionSPU.sol\":3577:3795  function startAuction() external onlyOwner {... */\n    tag_93:\n        /* \"Contracts/AuctionSPU.sol\":2976:2982  seller */\n      0x02\n      0x00\n      swap1\n      sload\n      swap1\n      0x0100\n      exp\n      swap1\n      div\n      0xffffffffffffffffffffffffffffffffffffffff\n      and\n        /* \"Contracts/AuctionSPU.sol\":2962:2982  msg.sender == seller */\n      0xffffffffffffffffffffffffffffffffffffffff\n      and\n        /* \"Contracts/AuctionSPU.sol\":2962:2972  msg.sender */\n      caller\n        /* \"Contracts/AuctionSPU.sol\":2962:2982  msg.sender == seller */\n      0xffffffffffffffffffffffffffffffffffffffff\n      and\n      eq\n        /* \"Contracts/AuctionSPU.sol\":2954:3006  require(msg.sender == seller, \"Sender is not owner\") */\n      tag_227\n      jumpi\n      mload(0x40)\n      0x08c379a000000000000000000000000000000000000000000000000000000000\n      dup2\n      mstore\n      0x04\n      add\n      tag_228\n      swap1\n      tag_176\n      jump\t// in\n    tag_228:\n      mload(0x40)\n      dup1\n      swap2\n      sub\n      swap1\n      revert\n    tag_227:\n        /* \"Contracts/AuctionSPU.sol\":3640:3647  started */\n      0x05\n      0x00\n      swap1\n      sload\n      swap1\n      0x0100\n      exp\n      swap1\n      div\n      0xff\n      and\n        /* \"Contracts/AuctionSPU.sol\":3639:3647  !started */\n      iszero\n        /* \"Contracts/AuctionSPU.sol\":3631:3667  require(!started, \"Already Started\") */\n      tag_230\n      jumpi\n      mload(0x40)\n      0x08c379a000000000000000000000000000000000000000000000000000000000\n      dup2\n      mstore\n      0x04\n      add\n      tag_231\n      swap1\n      tag_232\n      jump\t// in\n    tag_231:\n      mload(0x40)\n      dup1\n      swap2\n      sub\n      swap1\n      revert\n    tag_230:\n        /* \"Contracts/AuctionSPU.sol\":3680:3683  nft */\n      0x00\n      dup1\n      sload\n      swap1\n      0x0100\n      exp\n      swap1\n      div\n      0xffffffffffffffffffffffffffffffffffffffff\n      and\n        /* \"Contracts/AuctionSPU.sol\":3680:3696  nft.transferFrom */\n      0xffffffffffffffffffffffffffffffffffffffff\n      and\n      0x23b872dd\n        /* \"Contracts/AuctionSPU.sol\":3697:3707  msg.sender */\n      caller\n        /* \"Contracts/AuctionSPU.sol\":3717:3721  this */\n      address\n        /* \"Contracts/AuctionSPU.sol\":3724:3729  nftId */\n      sload(0x01)\n        /* \"Contracts/AuctionSPU.sol\":3680:3730  nft.transferFrom(msg.sender, address(this), nftId) */\n      mload(0x40)\n      dup5\n      0xffffffff\n      and\n      0xe0\n      shl\n      dup2\n      mstore\n      0x04\n      add\n      tag_233\n      swap4\n      swap3\n      swap2\n      swap1\n      tag_180\n      jump\t// in\n    tag_233:\n      0x00\n      mload(0x40)\n      dup1\n      dup4\n      sub\n      dup2\n      0x00\n      dup8\n      dup1\n      extcodesize\n      iszero\n      dup1\n      iszero\n      tag_234\n      jumpi\n      0x00\n      dup1\n      revert\n    tag_234:\n      pop\n      gas\n      call\n      iszero\n      dup1\n      iszero\n      tag_236\n      jumpi\n      returndatasize\n      0x00\n      dup1\n      returndatacopy\n      revert(0x00, returndatasize)\n    tag_236:\n      pop\n      pop\n      pop\n      pop\n        /* \"Contracts/AuctionSPU.sol\":3751:3755  true */\n      0x01\n        /* \"Contracts/AuctionSPU.sol\":3741:3748  started */\n      0x05\n      0x00\n        /* \"Contracts/AuctionSPU.sol\":3741:3755  started = true */\n      0x0100\n      exp\n      dup2\n      sload\n      dup2\n      0xff\n      mul\n      not\n      and\n      swap1\n      dup4\n      iszero\n      iszero\n      mul\n      or\n      swap1\n      sstore\n      pop\n        /* \"Contracts/AuctionSPU.sol\":3773:3787  StartAuction() */\n      0xd295ebf0a48a9a43d600a6ecb8626baa711d5750dec13a08145013aa30cb92ea\n      mload(0x40)\n      mload(0x40)\n      dup1\n      swap2\n      sub\n      swap1\n      log1\n        /* \"Contracts/AuctionSPU.sol\":3577:3795  function startAuction() external onlyOwner {... */\n      jump\t// out\n        /* \"Contracts/AuctionSPU.sol\":1459:1476  uint public endAt */\n    tag_96:\n      sload(0x04)\n      dup2\n      jump\t// out\n        /* \"Contracts/AuctionSPU.sol\":1737:1765  address public highestBidder */\n    tag_100:\n      0x09\n      0x00\n      swap1\n      sload\n      swap1\n      0x0100\n      exp\n      swap1\n      div\n      0xffffffffffffffffffffffffffffffffffffffff\n      and\n      dup2\n      jump\t// out\n        /* \"Contracts/AuctionSPU.sol\":2018:2065  mapping(address => Bidders) public receivedBids */\n    tag_106:\n      mstore(0x20, 0x0b)\n      dup1\n      0x00\n      mstore\n      keccak256(0x00, 0x40)\n      0x00\n      swap2\n      pop\n      swap1\n      pop\n      dup1\n      0x00\n      add\n      sload\n      swap1\n      dup1\n      0x01\n      add\n      sload\n      swap1\n      dup1\n      0x02\n      add\n      sload\n      swap1\n      dup1\n      0x03\n      add\n      sload\n      swap1\n      pop\n      dup5\n      jump\t// out\n        /* \"Contracts/AuctionSPU.sol\":4149:4313  function pauseAuction() external onlyOwner {... */\n    tag_111:\n        /* \"Contracts/AuctionSPU.sol\":2976:2982  seller */\n      0x02\n      0x00\n      swap1\n      sload\n      swap1\n      0x0100\n      exp\n      swap1\n      div\n      0xffffffffffffffffffffffffffffffffffffffff\n      and\n        /* \"Contracts/AuctionSPU.sol\":2962:2982  msg.sender == seller */\n      0xffffffffffffffffffffffffffffffffffffffff\n      and\n        /* \"Contracts/AuctionSPU.sol\":2962:2972  msg.sender */\n      caller\n        /* \"Contracts/AuctionSPU.sol\":2962:2982  msg.sender == seller */\n      0xffffffffffffffffffffffffffffffffffffffff\n      and\n      eq\n        /* \"Contracts/AuctionSPU.sol\":2954:3006  require(msg.sender == seller, \"Sender is not owner\") */\n      tag_238\n      jumpi\n      mload(0x40)\n      0x08c379a000000000000000000000000000000000000000000000000000000000\n      dup2\n      mstore\n      0x04\n      add\n      tag_239\n      swap1\n      tag_176\n      jump\t// in\n    tag_239:\n      mload(0x40)\n      dup1\n      swap2\n      sub\n      swap1\n      revert\n    tag_238:\n        /* \"Contracts/AuctionSPU.sol\":4212:4218  paused */\n      0x05\n      0x02\n      swap1\n      sload\n      swap1\n      0x0100\n      exp\n      swap1\n      div\n      0xff\n      and\n        /* \"Contracts/AuctionSPU.sol\":4211:4218  !paused */\n      iszero\n        /* \"Contracts/AuctionSPU.sol\":4203:4237  require(!paused, \"Already Paused\") */\n      tag_241\n      jumpi\n      mload(0x40)\n      0x08c379a000000000000000000000000000000000000000000000000000000000\n      dup2\n      mstore\n      0x04\n      add\n      tag_242\n      swap1\n      tag_243\n      jump\t// in\n    tag_242:\n      mload(0x40)\n      dup1\n      swap2\n      sub\n      swap1\n      revert\n    tag_241:\n        /* \"Contracts/AuctionSPU.sol\":4259:4263  true */\n      0x01\n        /* \"Contracts/AuctionSPU.sol\":4250:4256  paused */\n      0x05\n      0x02\n        /* \"Contracts/AuctionSPU.sol\":4250:4263  paused = true */\n      0x0100\n      exp\n      dup2\n      sload\n      dup2\n      0xff\n      mul\n      not\n      and\n      swap1\n      dup4\n      iszero\n      iszero\n      mul\n      or\n      swap1\n      sstore\n      pop\n        /* \"Contracts/AuctionSPU.sol\":4281:4305  PauseAuction(msg.sender) */\n      0xdee06086e53b718fd5176fdaa88a207819a06a56b42087ac2cab84d32a335654\n        /* \"Contracts/AuctionSPU.sol\":4294:4304  msg.sender */\n      caller\n        /* \"Contracts/AuctionSPU.sol\":4281:4305  PauseAuction(msg.sender) */\n      mload(0x40)\n      tag_244\n      swap2\n      swap1\n      tag_102\n      jump\t// in\n    tag_244:\n      mload(0x40)\n      dup1\n      swap2\n      sub\n      swap1\n      log1\n        /* \"Contracts/AuctionSPU.sol\":4149:4313  function pauseAuction() external onlyOwner {... */\n      jump\t// out\n        /* \"Contracts/AuctionSPU.sol\":1311:1328  uint public nftId */\n    tag_114:\n      sload(0x01)\n      dup2\n      jump\t// out\n        /* \"Contracts/AuctionSPU.sol\":4368:4537  function unpauseAuction() external onlyOwner {... */\n    tag_118:\n        /* \"Contracts/AuctionSPU.sol\":2976:2982  seller */\n      0x02\n      0x00\n      swap1\n      sload\n      swap1\n      0x0100\n      exp\n      swap1\n      div\n      0xffffffffffffffffffffffffffffffffffffffff\n      and\n        /* \"Contracts/AuctionSPU.sol\":2962:2982  msg.sender == seller */\n      0xffffffffffffffffffffffffffffffffffffffff\n      and\n        /* \"Contracts/AuctionSPU.sol\":2962:2972  msg.sender */\n      caller\n        /* \"Contracts/AuctionSPU.sol\":2962:2982  msg.sender == seller */\n      0xffffffffffffffffffffffffffffffffffffffff\n      and\n      eq\n        /* \"Contracts/AuctionSPU.sol\":2954:3006  require(msg.sender == seller, \"Sender is not owner\") */\n      tag_246\n      jumpi\n      mload(0x40)\n      0x08c379a000000000000000000000000000000000000000000000000000000000\n      dup2\n      mstore\n      0x04\n      add\n      tag_247\n      swap1\n      tag_176\n      jump\t// in\n    tag_247:\n      mload(0x40)\n      dup1\n      swap2\n      sub\n      swap1\n      revert\n    tag_246:\n        /* \"Contracts/AuctionSPU.sol\":4432:4438  paused */\n      0x05\n      0x02\n      swap1\n      sload\n      swap1\n      0x0100\n      exp\n      swap1\n      div\n      0xff\n      and\n        /* \"Contracts/AuctionSPU.sol\":4424:4458  require(paused, \"Already Running\") */\n      tag_249\n      jumpi\n      mload(0x40)\n      0x08c379a000000000000000000000000000000000000000000000000000000000\n      dup2\n      mstore\n      0x04\n      add\n      tag_250\n      swap1\n      tag_251\n      jump\t// in\n    tag_250:\n      mload(0x40)\n      dup1\n      swap2\n      sub\n      swap1\n      revert\n    tag_249:\n        /* \"Contracts/AuctionSPU.sol\":4480:4485  false */\n      0x00\n        /* \"Contracts/AuctionSPU.sol\":4471:4477  paused */\n      0x05\n      0x02\n        /* \"Contracts/AuctionSPU.sol\":4471:4485  paused = false */\n      0x0100\n      exp\n      dup2\n      sload\n      dup2\n      0xff\n      mul\n      not\n      and\n      swap1\n      dup4\n      iszero\n      iszero\n      mul\n      or\n      swap1\n      sstore\n      pop\n        /* \"Contracts/AuctionSPU.sol\":4503:4529  UnpauseAuction(msg.sender) */\n      0xc1a02e947cf77134ed09ac0692636f0553306db51ffe4a1d9e7b51b4dcd9c762\n        /* \"Contracts/AuctionSPU.sol\":4518:4528  msg.sender */\n      caller\n        /* \"Contracts/AuctionSPU.sol\":4503:4529  UnpauseAuction(msg.sender) */\n      mload(0x40)\n      tag_252\n      swap2\n      swap1\n      tag_102\n      jump\t// in\n    tag_252:\n      mload(0x40)\n      dup1\n      swap2\n      sub\n      swap1\n      log1\n        /* \"Contracts/AuctionSPU.sol\":4368:4537  function unpauseAuction() external onlyOwner {... */\n      jump\t// out\n        /* \"Contracts/AuctionSPU.sol\":1772:1794  uint public highestBid */\n    tag_121:\n      sload(0x0a)\n      dup2\n      jump\t// out\n        /* \"Contracts/AuctionSPU.sol\":1623:1660  uint public constant FEE_BASE = 10000 */\n    tag_125:\n        /* \"Contracts/AuctionSPU.sol\":1655:1660  10000 */\n      0x2710\n        /* \"Contracts/AuctionSPU.sol\":1623:1660  uint public constant FEE_BASE = 10000 */\n      dup2\n      jump\t// out\n        /* \"Contracts/AuctionSPU.sol\":6661:7006  function addNewFeeReceiver(address _newRecipient, uint8 _fee) external onlyOwner{... */\n    tag_131:\n        /* \"Contracts/AuctionSPU.sol\":2976:2982  seller */\n      0x02\n      0x00\n      swap1\n      sload\n      swap1\n      0x0100\n      exp\n      swap1\n      div\n      0xffffffffffffffffffffffffffffffffffffffff\n      and\n        /* \"Contracts/AuctionSPU.sol\":2962:2982  msg.sender == seller */\n      0xffffffffffffffffffffffffffffffffffffffff\n      and\n        /* \"Contracts/AuctionSPU.sol\":2962:2972  msg.sender */\n      caller\n        /* \"Contracts/AuctionSPU.sol\":2962:2982  msg.sender == seller */\n      0xffffffffffffffffffffffffffffffffffffffff\n      and\n      eq\n        /* \"Contracts/AuctionSPU.sol\":2954:3006  require(msg.sender == seller, \"Sender is not owner\") */\n      tag_254\n      jumpi\n      mload(0x40)\n      0x08c379a000000000000000000000000000000000000000000000000000000000\n      dup2\n      mstore\n      0x04\n      add\n      tag_255\n      swap1\n      tag_176\n      jump\t// in\n    tag_255:\n      mload(0x40)\n      dup1\n      swap2\n      sub\n      swap1\n      revert\n    tag_254:\n        /* \"Contracts/AuctionSPU.sol\":6788:6791  100 */\n      0x64\n        /* \"Contracts/AuctionSPU.sol\":6779:6783  _fee */\n      dup2\n        /* \"Contracts/AuctionSPU.sol\":6762:6783  transactionFee + _fee */\n      0xff\n      and\n        /* \"Contracts/AuctionSPU.sol\":6762:6776  transactionFee */\n      sload(0x07)\n        /* \"Contracts/AuctionSPU.sol\":6762:6783  transactionFee + _fee */\n      tag_257\n      swap2\n      swap1\n      tag_159\n      jump\t// in\n    tag_257:\n        /* \"Contracts/AuctionSPU.sol\":6761:6791  (transactionFee + _fee) <= 100 */\n      gt\n      iszero\n        /* \"Contracts/AuctionSPU.sol\":6752:6829  require( (transactionFee + _fee) <= 100 , \"100% of the fee already alocated\") */\n      tag_258\n      jumpi\n      mload(0x40)\n      0x08c379a000000000000000000000000000000000000000000000000000000000\n      dup2\n      mstore\n      0x04\n      add\n      tag_259\n      swap1\n      tag_260\n      jump\t// in\n    tag_259:\n      mload(0x40)\n      dup1\n      swap2\n      sub\n      swap1\n      revert\n    tag_258:\n        /* \"Contracts/AuctionSPU.sol\":6840:6862  FeeReceivers memory fR */\n      tag_261\n      tag_262\n      jump\t// in\n    tag_261:\n        /* \"Contracts/AuctionSPU.sol\":6888:6901  _newRecipient */\n      dup3\n        /* \"Contracts/AuctionSPU.sol\":6873:6875  fR */\n      dup2\n        /* \"Contracts/AuctionSPU.sol\":6873:6885  fR.recipient */\n      0x00\n      add\n        /* \"Contracts/AuctionSPU.sol\":6873:6901  fR.recipient = _newRecipient */\n      swap1\n      0xffffffffffffffffffffffffffffffffffffffff\n      and\n      swap1\n      dup2\n      0xffffffffffffffffffffffffffffffffffffffff\n      and\n      dup2\n      mstore\n      pop\n      pop\n        /* \"Contracts/AuctionSPU.sol\":6921:6925  _fee */\n      dup2\n        /* \"Contracts/AuctionSPU.sol\":6912:6925  fR.fee = _fee */\n      0xff\n      and\n        /* \"Contracts/AuctionSPU.sol\":6912:6914  fR */\n      dup2\n        /* \"Contracts/AuctionSPU.sol\":6912:6918  fR.fee */\n      0x20\n      add\n        /* \"Contracts/AuctionSPU.sol\":6912:6925  fR.fee = _fee */\n      dup2\n      dup2\n      mstore\n      pop\n      pop\n        /* \"Contracts/AuctionSPU.sol\":6954:6958  _fee */\n      dup2\n        /* \"Contracts/AuctionSPU.sol\":6936:6958  transactionFee += _fee */\n      0xff\n      and\n        /* \"Contracts/AuctionSPU.sol\":6936:6950  transactionFee */\n      0x07\n      0x00\n        /* \"Contracts/AuctionSPU.sol\":6936:6958  transactionFee += _fee */\n      dup3\n      dup3\n      sload\n      tag_263\n      swap2\n      swap1\n      tag_159\n      jump\t// in\n    tag_263:\n      swap3\n      pop\n      pop\n      dup2\n      swap1\n      sstore\n      pop\n        /* \"Contracts/AuctionSPU.sol\":6996:6998  fR */\n      dup1\n        /* \"Contracts/AuctionSPU.sol\":6969:6981  feeReceivers */\n      0x0c\n        /* \"Contracts/AuctionSPU.sol\":6969:6993  feeReceivers[msg.sender] */\n      0x00\n        /* \"Contracts/AuctionSPU.sol\":6982:6992  msg.sender */\n      caller\n        /* \"Contracts/AuctionSPU.sol\":6969:6993  feeReceivers[msg.sender] */\n      0xffffffffffffffffffffffffffffffffffffffff\n      and\n      0xffffffffffffffffffffffffffffffffffffffff\n      and\n      dup2\n      mstore\n      0x20\n      add\n      swap1\n      dup2\n      mstore\n      0x20\n      add\n      0x00\n      keccak256\n        /* \"Contracts/AuctionSPU.sol\":6969:6998  feeReceivers[msg.sender] = fR */\n      0x00\n      dup3\n      add\n      mload\n      dup2\n      0x00\n      add\n      exp(0x0100, 0x00)\n      dup2\n      sload\n      dup2\n      0xffffffffffffffffffffffffffffffffffffffff\n      mul\n      not\n      and\n      swap1\n      dup4\n      0xffffffffffffffffffffffffffffffffffffffff\n      and\n      mul\n      or\n      swap1\n      sstore\n      pop\n      0x20\n      dup3\n      add\n      mload\n      dup2\n      0x01\n      add\n      sstore\n      swap1\n      pop\n      pop\n        /* \"Contracts/AuctionSPU.sol\":6741:7006  {... */\n      pop\n        /* \"Contracts/AuctionSPU.sol\":6661:7006  function addNewFeeReceiver(address _newRecipient, uint8 _fee) external onlyOwner{... */\n      pop\n      pop\n      jump\t// out\n        /* \"Contracts/AuctionSPU.sol\":3844:4096  function endAuction() external onlyOwner auctionStarted {... */\n    tag_134:\n        /* \"Contracts/AuctionSPU.sol\":2976:2982  seller */\n      0x02\n      0x00\n      swap1\n      sload\n      swap1\n      0x0100\n      exp\n      swap1\n      div\n      0xffffffffffffffffffffffffffffffffffffffff\n      and\n        /* \"Contracts/AuctionSPU.sol\":2962:2982  msg.sender == seller */\n      0xffffffffffffffffffffffffffffffffffffffff\n      and\n        /* \"Contracts/AuctionSPU.sol\":2962:2972  msg.sender */\n      caller\n        /* \"Contracts/AuctionSPU.sol\":2962:2982  msg.sender == seller */\n      0xffffffffffffffffffffffffffffffffffffffff\n      and\n      eq\n        /* \"Contracts/AuctionSPU.sol\":2954:3006  require(msg.sender == seller, \"Sender is not owner\") */\n      tag_265\n      jumpi\n      mload(0x40)\n      0x08c379a000000000000000000000000000000000000000000000000000000000\n      dup2\n      mstore\n      0x04\n      add\n      tag_266\n      swap1\n      tag_176\n      jump\t// in\n    tag_266:\n      mload(0x40)\n      dup1\n      swap2\n      sub\n      swap1\n      revert\n    tag_265:\n        /* \"Contracts/AuctionSPU.sol\":3177:3184  started */\n      0x05\n      0x00\n      swap1\n      sload\n      swap1\n      0x0100\n      exp\n      swap1\n      div\n      0xff\n      and\n        /* \"Contracts/AuctionSPU.sol\":3169:3204  require(started, \"Not Started Yet\") */\n      tag_268\n      jumpi\n      mload(0x40)\n      0x08c379a000000000000000000000000000000000000000000000000000000000\n      dup2\n      mstore\n      0x04\n      add\n      tag_269\n      swap1\n      tag_139\n      jump\t// in\n    tag_269:\n      mload(0x40)\n      dup1\n      swap2\n      sub\n      swap1\n      revert\n    tag_268:\n        /* \"Contracts/AuctionSPU.sol\":3938:3943  endAt */\n      sload(0x04)\n        /* \"Contracts/AuctionSPU.sol\":3919:3934  block.timestamp */\n      timestamp\n        /* \"Contracts/AuctionSPU.sol\":3919:3943  block.timestamp >= endAt */\n      lt\n      iszero\n        /* \"Contracts/AuctionSPU.sol\":3911:3957  require(block.timestamp >= endAt, \"Not Ended\") */\n      tag_271\n      jumpi\n      mload(0x40)\n      0x08c379a000000000000000000000000000000000000000000000000000000000\n      dup2\n      mstore\n      0x04\n      add\n      tag_272\n      swap1\n      tag_273\n      jump\t// in\n    tag_272:\n      mload(0x40)\n      dup1\n      swap2\n      sub\n      swap1\n      revert\n    tag_271:\n        /* \"Contracts/AuctionSPU.sol\":3977:3982  ended */\n      0x05\n      0x01\n      swap1\n      sload\n      swap1\n      0x0100\n      exp\n      swap1\n      div\n      0xff\n      and\n        /* \"Contracts/AuctionSPU.sol\":3976:3982  !ended */\n      iszero\n        /* \"Contracts/AuctionSPU.sol\":3968:4000  require(!ended, \"Already Ended\") */\n      tag_274\n      jumpi\n      mload(0x40)\n      0x08c379a000000000000000000000000000000000000000000000000000000000\n      dup2\n      mstore\n      0x04\n      add\n      tag_275\n      swap1\n      tag_276\n      jump\t// in\n    tag_275:\n      mload(0x40)\n      dup1\n      swap2\n      sub\n      swap1\n      revert\n    tag_274:\n        /* \"Contracts/AuctionSPU.sol\":4021:4025  true */\n      0x01\n        /* \"Contracts/AuctionSPU.sol\":4013:4018  ended */\n      0x05\n      0x01\n        /* \"Contracts/AuctionSPU.sol\":4013:4025  ended = true */\n      0x0100\n      exp\n      dup2\n      sload\n      dup2\n      0xff\n      mul\n      not\n      and\n      swap1\n      dup4\n      iszero\n      iszero\n      mul\n      or\n      swap1\n      sstore\n      pop\n        /* \"Contracts/AuctionSPU.sol\":4051:4088  EndAuction(highestBidder, highestBid) */\n      0xca09734d1fc32150404dc9252b4d991c6bee44319031b7159c03d5ae2c062704\n        /* \"Contracts/AuctionSPU.sol\":4062:4075  highestBidder */\n      0x09\n      0x00\n      swap1\n      sload\n      swap1\n      0x0100\n      exp\n      swap1\n      div\n      0xffffffffffffffffffffffffffffffffffffffff\n      and\n        /* \"Contracts/AuctionSPU.sol\":4077:4087  highestBid */\n      sload(0x0a)\n        /* \"Contracts/AuctionSPU.sol\":4051:4088  EndAuction(highestBidder, highestBid) */\n      mload(0x40)\n      tag_277\n      swap3\n      swap2\n      swap1\n      tag_40\n      jump\t// in\n    tag_277:\n      mload(0x40)\n      dup1\n      swap2\n      sub\n      swap1\n      log1\n        /* \"Contracts/AuctionSPU.sol\":3844:4096  function endAuction() external onlyOwner auctionStarted {... */\n      jump\t// out\n        /* \"Contracts/AuctionSPU.sol\":6455:6653  function cashback(address _receiver, uint _amount) internal{... */\n    tag_161:\n        /* \"Contracts/AuctionSPU.sol\":6526:6542  bool callSuccess */\n      0x00\n        /* \"Contracts/AuctionSPU.sol\":6556:6565  _receiver */\n      dup3\n        /* \"Contracts/AuctionSPU.sol\":6548:6571  payable(_receiver).call */\n      0xffffffffffffffffffffffffffffffffffffffff\n      and\n        /* \"Contracts/AuctionSPU.sol\":6579:6586  _amount */\n      dup3\n        /* \"Contracts/AuctionSPU.sol\":6548:6591  payable(_receiver).call{value: _amount}(\"\") */\n      mload(0x40)\n      tag_279\n      swap1\n      tag_185\n      jump\t// in\n    tag_279:\n      0x00\n      mload(0x40)\n      dup1\n      dup4\n      sub\n      dup2\n      dup6\n      dup8\n      gas\n      call\n      swap3\n      pop\n      pop\n      pop\n      returndatasize\n      dup1\n      0x00\n      dup2\n      eq\n      tag_282\n      jumpi\n      mload(0x40)\n      swap2\n      pop\n      and(add(returndatasize, 0x3f), not(0x1f))\n      dup3\n      add\n      0x40\n      mstore\n      returndatasize\n      dup3\n      mstore\n      returndatasize\n      0x00\n      0x20\n      dup5\n      add\n      returndatacopy\n      jump(tag_281)\n    tag_282:\n      0x60\n      swap2\n      pop\n    tag_281:\n      pop\n        /* \"Contracts/AuctionSPU.sol\":6525:6591  (bool callSuccess, ) = payable(_receiver).call{value: _amount}(\"\") */\n      pop\n      swap1\n      pop\n        /* \"Contracts/AuctionSPU.sol\":6610:6621  callSuccess */\n      dup1\n        /* \"Contracts/AuctionSPU.sol\":6602:6645  require(callSuccess, \"Return funds failed\") */\n      tag_283\n      jumpi\n      mload(0x40)\n      0x08c379a000000000000000000000000000000000000000000000000000000000\n      dup2\n      mstore\n      0x04\n      add\n      tag_284\n      swap1\n      tag_198\n      jump\t// in\n    tag_284:\n      mload(0x40)\n      dup1\n      swap2\n      sub\n      swap1\n      revert\n    tag_283:\n        /* \"Contracts/AuctionSPU.sol\":6514:6653  {... */\n      pop\n        /* \"Contracts/AuctionSPU.sol\":6455:6653  function cashback(address _receiver, uint _amount) internal{... */\n      pop\n      pop\n      jump\t// out\n    tag_167:\n      mload(0x40)\n      dup1\n      0x80\n      add\n      0x40\n      mstore\n      dup1\n      0x00\n      dup2\n      mstore\n      0x20\n      add\n      0x00\n      dup2\n      mstore\n      0x20\n      add\n      0x00\n      dup2\n      mstore\n      0x20\n      add\n      0x00\n      dup2\n      mstore\n      pop\n      swap1\n      jump\t// out\n    tag_262:\n      mload(0x40)\n      dup1\n      0x40\n      add\n      0x40\n      mstore\n      dup1\n      and(0xffffffffffffffffffffffffffffffffffffffff, 0x00)\n      dup2\n      mstore\n      0x20\n      add\n      0x00\n      dup2\n      mstore\n      pop\n      swap1\n      jump\t// out\n        /* \"#utility.yul\":88:205   */\n    tag_286:\n        /* \"#utility.yul\":197:198   */\n      0x00\n        /* \"#utility.yul\":194:195   */\n      dup1\n        /* \"#utility.yul\":187:199   */\n      revert\n        /* \"#utility.yul\":334:460   */\n    tag_288:\n        /* \"#utility.yul\":371:378   */\n      0x00\n        /* \"#utility.yul\":411:453   */\n      0xffffffffffffffffffffffffffffffffffffffff\n        /* \"#utility.yul\":404:409   */\n      dup3\n        /* \"#utility.yul\":400:454   */\n      and\n        /* \"#utility.yul\":389:454   */\n      swap1\n      pop\n        /* \"#utility.yul\":334:460   */\n      swap2\n      swap1\n      pop\n      jump\t// out\n        /* \"#utility.yul\":466:562   */\n    tag_289:\n        /* \"#utility.yul\":503:510   */\n      0x00\n        /* \"#utility.yul\":532:556   */\n      tag_355\n        /* \"#utility.yul\":550:555   */\n      dup3\n        /* \"#utility.yul\":532:556   */\n      tag_288\n      jump\t// in\n    tag_355:\n        /* \"#utility.yul\":521:556   */\n      swap1\n      pop\n        /* \"#utility.yul\":466:562   */\n      swap2\n      swap1\n      pop\n      jump\t// out\n        /* \"#utility.yul\":568:690   */\n    tag_290:\n        /* \"#utility.yul\":641:665   */\n      tag_357\n        /* \"#utility.yul\":659:664   */\n      dup2\n        /* \"#utility.yul\":641:665   */\n      tag_289\n      jump\t// in\n    tag_357:\n        /* \"#utility.yul\":634:639   */\n      dup2\n        /* \"#utility.yul\":631:666   */\n      eq\n        /* \"#utility.yul\":621:684   */\n      tag_358\n      jumpi\n        /* \"#utility.yul\":680:681   */\n      0x00\n        /* \"#utility.yul\":677:678   */\n      dup1\n        /* \"#utility.yul\":670:682   */\n      revert\n        /* \"#utility.yul\":621:684   */\n    tag_358:\n        /* \"#utility.yul\":568:690   */\n      pop\n      jump\t// out\n        /* \"#utility.yul\":696:835   */\n    tag_291:\n        /* \"#utility.yul\":742:747   */\n      0x00\n        /* \"#utility.yul\":780:786   */\n      dup2\n        /* \"#utility.yul\":767:787   */\n      calldataload\n        /* \"#utility.yul\":758:787   */\n      swap1\n      pop\n        /* \"#utility.yul\":796:829   */\n      tag_360\n        /* \"#utility.yul\":823:828   */\n      dup2\n        /* \"#utility.yul\":796:829   */\n      tag_290\n      jump\t// in\n    tag_360:\n        /* \"#utility.yul\":696:835   */\n      swap3\n      swap2\n      pop\n      pop\n      jump\t// out\n        /* \"#utility.yul\":841:1170   */\n    tag_37:\n        /* \"#utility.yul\":900:906   */\n      0x00\n        /* \"#utility.yul\":949:951   */\n      0x20\n        /* \"#utility.yul\":937:946   */\n      dup3\n        /* \"#utility.yul\":928:935   */\n      dup5\n        /* \"#utility.yul\":924:947   */\n      sub\n        /* \"#utility.yul\":920:952   */\n      slt\n        /* \"#utility.yul\":917:1036   */\n      iszero\n      tag_362\n      jumpi\n        /* \"#utility.yul\":955:1034   */\n      tag_363\n      tag_286\n      jump\t// in\n    tag_363:\n        /* \"#utility.yul\":917:1036   */\n    tag_362:\n        /* \"#utility.yul\":1075:1076   */\n      0x00\n        /* \"#utility.yul\":1100:1153   */\n      tag_364\n        /* \"#utility.yul\":1145:1152   */\n      dup5\n        /* \"#utility.yul\":1136:1142   */\n      dup3\n        /* \"#utility.yul\":1125:1134   */\n      dup6\n        /* \"#utility.yul\":1121:1143   */\n      add\n        /* \"#utility.yul\":1100:1153   */\n      tag_291\n      jump\t// in\n    tag_364:\n        /* \"#utility.yul\":1090:1153   */\n      swap2\n      pop\n        /* \"#utility.yul\":1046:1163   */\n      pop\n        /* \"#utility.yul\":841:1170   */\n      swap3\n      swap2\n      pop\n      pop\n      jump\t// out\n        /* \"#utility.yul\":1176:1294   */\n    tag_292:\n        /* \"#utility.yul\":1263:1287   */\n      tag_366\n        /* \"#utility.yul\":1281:1286   */\n      dup2\n        /* \"#utility.yul\":1263:1287   */\n      tag_289\n      jump\t// in\n    tag_366:\n        /* \"#utility.yul\":1258:1261   */\n      dup3\n        /* \"#utility.yul\":1251:1288   */\n      mstore\n        /* \"#utility.yul\":1176:1294   */\n      pop\n      pop\n      jump\t// out\n        /* \"#utility.yul\":1300:1377   */\n    tag_293:\n        /* \"#utility.yul\":1337:1344   */\n      0x00\n        /* \"#utility.yul\":1366:1371   */\n      dup2\n        /* \"#utility.yul\":1355:1371   */\n      swap1\n      pop\n        /* \"#utility.yul\":1300:1377   */\n      swap2\n      swap1\n      pop\n      jump\t// out\n        /* \"#utility.yul\":1383:1501   */\n    tag_294:\n        /* \"#utility.yul\":1470:1494   */\n      tag_369\n        /* \"#utility.yul\":1488:1493   */\n      dup2\n        /* \"#utility.yul\":1470:1494   */\n      tag_293\n      jump\t// in\n    tag_369:\n        /* \"#utility.yul\":1465:1468   */\n      dup3\n        /* \"#utility.yul\":1458:1495   */\n      mstore\n        /* \"#utility.yul\":1383:1501   */\n      pop\n      pop\n      jump\t// out\n        /* \"#utility.yul\":1507:1839   */\n    tag_40:\n        /* \"#utility.yul\":1628:1632   */\n      0x00\n        /* \"#utility.yul\":1666:1668   */\n      0x40\n        /* \"#utility.yul\":1655:1664   */\n      dup3\n        /* \"#utility.yul\":1651:1669   */\n      add\n        /* \"#utility.yul\":1643:1669   */\n      swap1\n      pop\n        /* \"#utility.yul\":1679:1750   */\n      tag_371\n        /* \"#utility.yul\":1747:1748   */\n      0x00\n        /* \"#utility.yul\":1736:1745   */\n      dup4\n        /* \"#utility.yul\":1732:1749   */\n      add\n        /* \"#utility.yul\":1723:1729   */\n      dup6\n        /* \"#utility.yul\":1679:1750   */\n      tag_292\n      jump\t// in\n    tag_371:\n        /* \"#utility.yul\":1760:1832   */\n      tag_372\n        /* \"#utility.yul\":1828:1830   */\n      0x20\n        /* \"#utility.yul\":1817:1826   */\n      dup4\n        /* \"#utility.yul\":1813:1831   */\n      add\n        /* \"#utility.yul\":1804:1810   */\n      dup5\n        /* \"#utility.yul\":1760:1832   */\n      tag_294\n      jump\t// in\n    tag_372:\n        /* \"#utility.yul\":1507:1839   */\n      swap4\n      swap3\n      pop\n      pop\n      pop\n      jump\t// out\n        /* \"#utility.yul\":1845:1949   */\n    tag_295:\n        /* \"#utility.yul\":1890:1897   */\n      0x00\n        /* \"#utility.yul\":1919:1943   */\n      tag_374\n        /* \"#utility.yul\":1937:1942   */\n      dup3\n        /* \"#utility.yul\":1919:1943   */\n      tag_288\n      jump\t// in\n    tag_374:\n        /* \"#utility.yul\":1908:1943   */\n      swap1\n      pop\n        /* \"#utility.yul\":1845:1949   */\n      swap2\n      swap1\n      pop\n      jump\t// out\n        /* \"#utility.yul\":1955:2097   */\n    tag_296:\n        /* \"#utility.yul\":2058:2090   */\n      tag_376\n        /* \"#utility.yul\":2084:2089   */\n      dup2\n        /* \"#utility.yul\":2058:2090   */\n      tag_295\n      jump\t// in\n    tag_376:\n        /* \"#utility.yul\":2053:2056   */\n      dup3\n        /* \"#utility.yul\":2046:2091   */\n      mstore\n        /* \"#utility.yul\":1955:2097   */\n      pop\n      pop\n      jump\t// out\n        /* \"#utility.yul\":2103:2357   */\n    tag_45:\n        /* \"#utility.yul\":2212:2216   */\n      0x00\n        /* \"#utility.yul\":2250:2252   */\n      0x20\n        /* \"#utility.yul\":2239:2248   */\n      dup3\n        /* \"#utility.yul\":2235:2253   */\n      add\n        /* \"#utility.yul\":2227:2253   */\n      swap1\n      pop\n        /* \"#utility.yul\":2263:2350   */\n      tag_378\n        /* \"#utility.yul\":2347:2348   */\n      0x00\n        /* \"#utility.yul\":2336:2345   */\n      dup4\n        /* \"#utility.yul\":2332:2349   */\n      add\n        /* \"#utility.yul\":2323:2329   */\n      dup5\n        /* \"#utility.yul\":2263:2350   */\n      tag_296\n      jump\t// in\n    tag_378:\n        /* \"#utility.yul\":2103:2357   */\n      swap3\n      swap2\n      pop\n      pop\n      jump\t// out\n        /* \"#utility.yul\":2363:2585   */\n    tag_50:\n        /* \"#utility.yul\":2456:2460   */\n      0x00\n        /* \"#utility.yul\":2494:2496   */\n      0x20\n        /* \"#utility.yul\":2483:2492   */\n      dup3\n        /* \"#utility.yul\":2479:2497   */\n      add\n        /* \"#utility.yul\":2471:2497   */\n      swap1\n      pop\n        /* \"#utility.yul\":2507:2578   */\n      tag_380\n        /* \"#utility.yul\":2575:2576   */\n      0x00\n        /* \"#utility.yul\":2564:2573   */\n      dup4\n        /* \"#utility.yul\":2560:2577   */\n      add\n        /* \"#utility.yul\":2551:2557   */\n      dup5\n        /* \"#utility.yul\":2507:2578   */\n      tag_294\n      jump\t// in\n    tag_380:\n        /* \"#utility.yul\":2363:2585   */\n      swap3\n      swap2\n      pop\n      pop\n      jump\t// out\n        /* \"#utility.yul\":2591:2681   */\n    tag_297:\n        /* \"#utility.yul\":2625:2632   */\n      0x00\n        /* \"#utility.yul\":2668:2673   */\n      dup2\n        /* \"#utility.yul\":2661:2674   */\n      iszero\n        /* \"#utility.yul\":2654:2675   */\n      iszero\n        /* \"#utility.yul\":2643:2675   */\n      swap1\n      pop\n        /* \"#utility.yul\":2591:2681   */\n      swap2\n      swap1\n      pop\n      jump\t// out\n        /* \"#utility.yul\":2687:2796   */\n    tag_298:\n        /* \"#utility.yul\":2768:2789   */\n      tag_383\n        /* \"#utility.yul\":2783:2788   */\n      dup2\n        /* \"#utility.yul\":2768:2789   */\n      tag_297\n      jump\t// in\n    tag_383:\n        /* \"#utility.yul\":2763:2766   */\n      dup3\n        /* \"#utility.yul\":2756:2790   */\n      mstore\n        /* \"#utility.yul\":2687:2796   */\n      pop\n      pop\n      jump\t// out\n        /* \"#utility.yul\":2802:3012   */\n    tag_55:\n        /* \"#utility.yul\":2889:2893   */\n      0x00\n        /* \"#utility.yul\":2927:2929   */\n      0x20\n        /* \"#utility.yul\":2916:2925   */\n      dup3\n        /* \"#utility.yul\":2912:2930   */\n      add\n        /* \"#utility.yul\":2904:2930   */\n      swap1\n      pop\n        /* \"#utility.yul\":2940:3005   */\n      tag_385\n        /* \"#utility.yul\":3002:3003   */\n      0x00\n        /* \"#utility.yul\":2991:3000   */\n      dup4\n        /* \"#utility.yul\":2987:3004   */\n      add\n        /* \"#utility.yul\":2978:2984   */\n      dup5\n        /* \"#utility.yul\":2940:3005   */\n      tag_298\n      jump\t// in\n    tag_385:\n        /* \"#utility.yul\":2802:3012   */\n      swap3\n      swap2\n      pop\n      pop\n      jump\t// out\n        /* \"#utility.yul\":3018:3140   */\n    tag_299:\n        /* \"#utility.yul\":3091:3115   */\n      tag_387\n        /* \"#utility.yul\":3109:3114   */\n      dup2\n        /* \"#utility.yul\":3091:3115   */\n      tag_293\n      jump\t// in\n    tag_387:\n        /* \"#utility.yul\":3084:3089   */\n      dup2\n        /* \"#utility.yul\":3081:3116   */\n      eq\n        /* \"#utility.yul\":3071:3134   */\n      tag_388\n      jumpi\n        /* \"#utility.yul\":3130:3131   */\n      0x00\n        /* \"#utility.yul\":3127:3128   */\n      dup1\n        /* \"#utility.yul\":3120:3132   */\n      revert\n        /* \"#utility.yul\":3071:3134   */\n    tag_388:\n        /* \"#utility.yul\":3018:3140   */\n      pop\n      jump\t// out\n        /* \"#utility.yul\":3146:3285   */\n    tag_300:\n        /* \"#utility.yul\":3192:3197   */\n      0x00\n        /* \"#utility.yul\":3230:3236   */\n      dup2\n        /* \"#utility.yul\":3217:3237   */\n      calldataload\n        /* \"#utility.yul\":3208:3237   */\n      swap1\n      pop\n        /* \"#utility.yul\":3246:3279   */\n      tag_390\n        /* \"#utility.yul\":3273:3278   */\n      dup2\n        /* \"#utility.yul\":3246:3279   */\n      tag_299\n      jump\t// in\n    tag_390:\n        /* \"#utility.yul\":3146:3285   */\n      swap3\n      swap2\n      pop\n      pop\n      jump\t// out\n        /* \"#utility.yul\":3291:4056   */\n    tag_70:\n        /* \"#utility.yul\":3377:3383   */\n      0x00\n        /* \"#utility.yul\":3385:3391   */\n      dup1\n        /* \"#utility.yul\":3393:3399   */\n      0x00\n        /* \"#utility.yul\":3401:3407   */\n      dup1\n        /* \"#utility.yul\":3450:3453   */\n      0x80\n        /* \"#utility.yul\":3438:3447   */\n      dup6\n        /* \"#utility.yul\":3429:3436   */\n      dup8\n        /* \"#utility.yul\":3425:3448   */\n      sub\n        /* \"#utility.yul\":3421:3454   */\n      slt\n        /* \"#utility.yul\":3418:3538   */\n      iszero\n      tag_392\n      jumpi\n        /* \"#utility.yul\":3457:3536   */\n      tag_393\n      tag_286\n      jump\t// in\n    tag_393:\n        /* \"#utility.yul\":3418:3538   */\n    tag_392:\n        /* \"#utility.yul\":3577:3578   */\n      0x00\n        /* \"#utility.yul\":3602:3655   */\n      tag_394\n        /* \"#utility.yul\":3647:3654   */\n      dup8\n        /* \"#utility.yul\":3638:3644   */\n      dup3\n        /* \"#utility.yul\":3627:3636   */\n      dup9\n        /* \"#utility.yul\":3623:3645   */\n      add\n        /* \"#utility.yul\":3602:3655   */\n      tag_300\n      jump\t// in\n    tag_394:\n        /* \"#utility.yul\":3592:3655   */\n      swap5\n      pop\n        /* \"#utility.yul\":3548:3665   */\n      pop\n        /* \"#utility.yul\":3704:3706   */\n      0x20\n        /* \"#utility.yul\":3730:3783   */\n      tag_395\n        /* \"#utility.yul\":3775:3782   */\n      dup8\n        /* \"#utility.yul\":3766:3772   */\n      dup3\n        /* \"#utility.yul\":3755:3764   */\n      dup9\n        /* \"#utility.yul\":3751:3773   */\n      add\n        /* \"#utility.yul\":3730:3783   */\n      tag_300\n      jump\t// in\n    tag_395:\n        /* \"#utility.yul\":3720:3783   */\n      swap4\n      pop\n        /* \"#utility.yul\":3675:3793   */\n      pop\n        /* \"#utility.yul\":3832:3834   */\n      0x40\n        /* \"#utility.yul\":3858:3911   */\n      tag_396\n        /* \"#utility.yul\":3903:3910   */\n      dup8\n        /* \"#utility.yul\":3894:3900   */\n      dup3\n        /* \"#utility.yul\":3883:3892   */\n      dup9\n        /* \"#utility.yul\":3879:3901   */\n      add\n        /* \"#utility.yul\":3858:3911   */\n      tag_300\n      jump\t// in\n    tag_396:\n        /* \"#utility.yul\":3848:3911   */\n      swap3\n      pop\n        /* \"#utility.yul\":3803:3921   */\n      pop\n        /* \"#utility.yul\":3960:3962   */\n      0x60\n        /* \"#utility.yul\":3986:4039   */\n      tag_397\n        /* \"#utility.yul\":4031:4038   */\n      dup8\n        /* \"#utility.yul\":4022:4028   */\n      dup3\n        /* \"#utility.yul\":4011:4020   */\n      dup9\n        /* \"#utility.yul\":4007:4029   */\n      add\n        /* \"#utility.yul\":3986:4039   */\n      tag_300\n      jump\t// in\n    tag_397:\n        /* \"#utility.yul\":3976:4039   */\n      swap2\n      pop\n        /* \"#utility.yul\":3931:4049   */\n      pop\n        /* \"#utility.yul\":3291:4056   */\n      swap3\n      swap6\n      swap2\n      swap5\n      pop\n      swap3\n      pop\n      jump\t// out\n        /* \"#utility.yul\":4062:4122   */\n    tag_301:\n        /* \"#utility.yul\":4090:4093   */\n      0x00\n        /* \"#utility.yul\":4111:4116   */\n      dup2\n        /* \"#utility.yul\":4104:4116   */\n      swap1\n      pop\n        /* \"#utility.yul\":4062:4122   */\n      swap2\n      swap1\n      pop\n      jump\t// out\n        /* \"#utility.yul\":4128:4270   */\n    tag_302:\n        /* \"#utility.yul\":4178:4187   */\n      0x00\n        /* \"#utility.yul\":4211:4264   */\n      tag_400\n        /* \"#utility.yul\":4229:4263   */\n      tag_401\n        /* \"#utility.yul\":4238:4262   */\n      tag_402\n        /* \"#utility.yul\":4256:4261   */\n      dup5\n        /* \"#utility.yul\":4238:4262   */\n      tag_288\n      jump\t// in\n    tag_402:\n        /* \"#utility.yul\":4229:4263   */\n      tag_301\n      jump\t// in\n    tag_401:\n        /* \"#utility.yul\":4211:4264   */\n      tag_288\n      jump\t// in\n    tag_400:\n        /* \"#utility.yul\":4198:4264   */\n      swap1\n      pop\n        /* \"#utility.yul\":4128:4270   */\n      swap2\n      swap1\n      pop\n      jump\t// out\n        /* \"#utility.yul\":4276:4402   */\n    tag_303:\n        /* \"#utility.yul\":4326:4335   */\n      0x00\n        /* \"#utility.yul\":4359:4396   */\n      tag_404\n        /* \"#utility.yul\":4390:4395   */\n      dup3\n        /* \"#utility.yul\":4359:4396   */\n      tag_302\n      jump\t// in\n    tag_404:\n        /* \"#utility.yul\":4346:4396   */\n      swap1\n      pop\n        /* \"#utility.yul\":4276:4402   */\n      swap2\n      swap1\n      pop\n      jump\t// out\n        /* \"#utility.yul\":4408:4548   */\n    tag_304:\n        /* \"#utility.yul\":4472:4481   */\n      0x00\n        /* \"#utility.yul\":4505:4542   */\n      tag_406\n        /* \"#utility.yul\":4536:4541   */\n      dup3\n        /* \"#utility.yul\":4505:4542   */\n      tag_303\n      jump\t// in\n    tag_406:\n        /* \"#utility.yul\":4492:4542   */\n      swap1\n      pop\n        /* \"#utility.yul\":4408:4548   */\n      swap2\n      swap1\n      pop\n      jump\t// out\n        /* \"#utility.yul\":4554:4713   */\n    tag_305:\n        /* \"#utility.yul\":4655:4706   */\n      tag_408\n        /* \"#utility.yul\":4700:4705   */\n      dup2\n        /* \"#utility.yul\":4655:4706   */\n      tag_304\n      jump\t// in\n    tag_408:\n        /* \"#utility.yul\":4650:4653   */\n      dup3\n        /* \"#utility.yul\":4643:4707   */\n      mstore\n        /* \"#utility.yul\":4554:4713   */\n      pop\n      pop\n      jump\t// out\n        /* \"#utility.yul\":4719:4969   */\n    tag_86:\n        /* \"#utility.yul\":4826:4830   */\n      0x00\n        /* \"#utility.yul\":4864:4866   */\n      0x20\n        /* \"#utility.yul\":4853:4862   */\n      dup3\n        /* \"#utility.yul\":4849:4867   */\n      add\n        /* \"#utility.yul\":4841:4867   */\n      swap1\n      pop\n        /* \"#utility.yul\":4877:4962   */\n      tag_410\n        /* \"#utility.yul\":4959:4960   */\n      0x00\n        /* \"#utility.yul\":4948:4957   */\n      dup4\n        /* \"#utility.yul\":4944:4961   */\n      add\n        /* \"#utility.yul\":4935:4941   */\n      dup5\n        /* \"#utility.yul\":4877:4962   */\n      tag_305\n      jump\t// in\n    tag_410:\n        /* \"#utility.yul\":4719:4969   */\n      swap3\n      swap2\n      pop\n      pop\n      jump\t// out\n        /* \"#utility.yul\":4975:5197   */\n    tag_102:\n        /* \"#utility.yul\":5068:5072   */\n      0x00\n        /* \"#utility.yul\":5106:5108   */\n      0x20\n        /* \"#utility.yul\":5095:5104   */\n      dup3\n        /* \"#utility.yul\":5091:5109   */\n      add\n        /* \"#utility.yul\":5083:5109   */\n      swap1\n      pop\n        /* \"#utility.yul\":5119:5190   */\n      tag_412\n        /* \"#utility.yul\":5187:5188   */\n      0x00\n        /* \"#utility.yul\":5176:5185   */\n      dup4\n        /* \"#utility.yul\":5172:5189   */\n      add\n        /* \"#utility.yul\":5163:5169   */\n      dup5\n        /* \"#utility.yul\":5119:5190   */\n      tag_292\n      jump\t// in\n    tag_412:\n        /* \"#utility.yul\":4975:5197   */\n      swap3\n      swap2\n      pop\n      pop\n      jump\t// out\n        /* \"#utility.yul\":5203:5756   */\n    tag_108:\n        /* \"#utility.yul\":5380:5384   */\n      0x00\n        /* \"#utility.yul\":5418:5421   */\n      0x80\n        /* \"#utility.yul\":5407:5416   */\n      dup3\n        /* \"#utility.yul\":5403:5422   */\n      add\n        /* \"#utility.yul\":5395:5422   */\n      swap1\n      pop\n        /* \"#utility.yul\":5432:5503   */\n      tag_414\n        /* \"#utility.yul\":5500:5501   */\n      0x00\n        /* \"#utility.yul\":5489:5498   */\n      dup4\n        /* \"#utility.yul\":5485:5502   */\n      add\n        /* \"#utility.yul\":5476:5482   */\n      dup8\n        /* \"#utility.yul\":5432:5503   */\n      tag_294\n      jump\t// in\n    tag_414:\n        /* \"#utility.yul\":5513:5585   */\n      tag_415\n        /* \"#utility.yul\":5581:5583   */\n      0x20\n        /* \"#utility.yul\":5570:5579   */\n      dup4\n        /* \"#utility.yul\":5566:5584   */\n      add\n        /* \"#utility.yul\":5557:5563   */\n      dup7\n        /* \"#utility.yul\":5513:5585   */\n      tag_294\n      jump\t// in\n    tag_415:\n        /* \"#utility.yul\":5595:5667   */\n      tag_416\n        /* \"#utility.yul\":5663:5665   */\n      0x40\n        /* \"#utility.yul\":5652:5661   */\n      dup4\n        /* \"#utility.yul\":5648:5666   */\n      add\n        /* \"#utility.yul\":5639:5645   */\n      dup6\n        /* \"#utility.yul\":5595:5667   */\n      tag_294\n      jump\t// in\n    tag_416:\n        /* \"#utility.yul\":5677:5749   */\n      tag_417\n        /* \"#utility.yul\":5745:5747   */\n      0x60\n        /* \"#utility.yul\":5734:5743   */\n      dup4\n        /* \"#utility.yul\":5730:5748   */\n      add\n        /* \"#utility.yul\":5721:5727   */\n      dup5\n        /* \"#utility.yul\":5677:5749   */\n      tag_294\n      jump\t// in\n    tag_417:\n        /* \"#utility.yul\":5203:5756   */\n      swap6\n      swap5\n      pop\n      pop\n      pop\n      pop\n      pop\n      jump\t// out\n        /* \"#utility.yul\":5762:5848   */\n    tag_306:\n        /* \"#utility.yul\":5797:5804   */\n      0x00\n        /* \"#utility.yul\":5837:5841   */\n      0xff\n        /* \"#utility.yul\":5830:5835   */\n      dup3\n        /* \"#utility.yul\":5826:5842   */\n      and\n        /* \"#utility.yul\":5815:5842   */\n      swap1\n      pop\n        /* \"#utility.yul\":5762:5848   */\n      swap2\n      swap1\n      pop\n      jump\t// out\n        /* \"#utility.yul\":5854:5972   */\n    tag_307:\n        /* \"#utility.yul\":5925:5947   */\n      tag_420\n        /* \"#utility.yul\":5941:5946   */\n      dup2\n        /* \"#utility.yul\":5925:5947   */\n      tag_306\n      jump\t// in\n    tag_420:\n        /* \"#utility.yul\":5918:5923   */\n      dup2\n        /* \"#utility.yul\":5915:5948   */\n      eq\n        /* \"#utility.yul\":5905:5966   */\n      tag_421\n      jumpi\n        /* \"#utility.yul\":5962:5963   */\n      0x00\n        /* \"#utility.yul\":5959:5960   */\n      dup1\n        /* \"#utility.yul\":5952:5964   */\n      revert\n        /* \"#utility.yul\":5905:5966   */\n    tag_421:\n        /* \"#utility.yul\":5854:5972   */\n      pop\n      jump\t// out\n        /* \"#utility.yul\":5978:6113   */\n    tag_308:\n        /* \"#utility.yul\":6022:6027   */\n      0x00\n        /* \"#utility.yul\":6060:6066   */\n      dup2\n        /* \"#utility.yul\":6047:6067   */\n      calldataload\n        /* \"#utility.yul\":6038:6067   */\n      swap1\n      pop\n        /* \"#utility.yul\":6076:6107   */\n      tag_423\n        /* \"#utility.yul\":6101:6106   */\n      dup2\n        /* \"#utility.yul\":6076:6107   */\n      tag_307\n      jump\t// in\n    tag_423:\n        /* \"#utility.yul\":5978:6113   */\n      swap3\n      swap2\n      pop\n      pop\n      jump\t// out\n        /* \"#utility.yul\":6119:6589   */\n    tag_130:\n        /* \"#utility.yul\":6185:6191   */\n      0x00\n        /* \"#utility.yul\":6193:6199   */\n      dup1\n        /* \"#utility.yul\":6242:6244   */\n      0x40\n        /* \"#utility.yul\":6230:6239   */\n      dup4\n        /* \"#utility.yul\":6221:6228   */\n      dup6\n        /* \"#utility.yul\":6217:6240   */\n      sub\n        /* \"#utility.yul\":6213:6245   */\n      slt\n        /* \"#utility.yul\":6210:6329   */\n      iszero\n      tag_425\n      jumpi\n        /* \"#utility.yul\":6248:6327   */\n      tag_426\n      tag_286\n      jump\t// in\n    tag_426:\n        /* \"#utility.yul\":6210:6329   */\n    tag_425:\n        /* \"#utility.yul\":6368:6369   */\n      0x00\n        /* \"#utility.yul\":6393:6446   */\n      tag_427\n        /* \"#utility.yul\":6438:6445   */\n      dup6\n        /* \"#utility.yul\":6429:6435   */\n      dup3\n        /* \"#utility.yul\":6418:6427   */\n      dup7\n        /* \"#utility.yul\":6414:6436   */\n      add\n        /* \"#utility.yul\":6393:6446   */\n      tag_291\n      jump\t// in\n    tag_427:\n        /* \"#utility.yul\":6383:6446   */\n      swap3\n      pop\n        /* \"#utility.yul\":6339:6456   */\n      pop\n        /* \"#utility.yul\":6495:6497   */\n      0x20\n        /* \"#utility.yul\":6521:6572   */\n      tag_428\n        /* \"#utility.yul\":6564:6571   */\n      dup6\n        /* \"#utility.yul\":6555:6561   */\n      dup3\n        /* \"#utility.yul\":6544:6553   */\n      dup7\n        /* \"#utility.yul\":6540:6562   */\n      add\n        /* \"#utility.yul\":6521:6572   */\n      tag_308\n      jump\t// in\n    tag_428:\n        /* \"#utility.yul\":6511:6572   */\n      swap2\n      pop\n        /* \"#utility.yul\":6466:6582   */\n      pop\n        /* \"#utility.yul\":6119:6589   */\n      swap3\n      pop\n      swap3\n      swap1\n      pop\n      jump\t// out\n        /* \"#utility.yul\":6595:6764   */\n    tag_309:\n        /* \"#utility.yul\":6679:6690   */\n      0x00\n        /* \"#utility.yul\":6713:6719   */\n      dup3\n        /* \"#utility.yul\":6708:6711   */\n      dup3\n        /* \"#utility.yul\":6701:6720   */\n      mstore\n        /* \"#utility.yul\":6753:6757   */\n      0x20\n        /* \"#utility.yul\":6748:6751   */\n      dup3\n        /* \"#utility.yul\":6744:6758   */\n      add\n        /* \"#utility.yul\":6729:6758   */\n      swap1\n      pop\n        /* \"#utility.yul\":6595:6764   */\n      swap3\n      swap2\n      pop\n      pop\n      jump\t// out\n        /* \"#utility.yul\":6770:6935   */\n    tag_310:\n        /* \"#utility.yul\":6910:6927   */\n      0x4e6f742053746172746564205965740000000000000000000000000000000000\n        /* \"#utility.yul\":6906:6907   */\n      0x00\n        /* \"#utility.yul\":6898:6904   */\n      dup3\n        /* \"#utility.yul\":6894:6908   */\n      add\n        /* \"#utility.yul\":6887:6928   */\n      mstore\n        /* \"#utility.yul\":6770:6935   */\n      pop\n      jump\t// out\n        /* \"#utility.yul\":6941:7307   */\n    tag_311:\n        /* \"#utility.yul\":7083:7086   */\n      0x00\n        /* \"#utility.yul\":7104:7171   */\n      tag_432\n        /* \"#utility.yul\":7168:7170   */\n      0x0f\n        /* \"#utility.yul\":7163:7166   */\n      dup4\n        /* \"#utility.yul\":7104:7171   */\n      tag_309\n      jump\t// in\n    tag_432:\n        /* \"#utility.yul\":7097:7171   */\n      swap2\n      pop\n        /* \"#utility.yul\":7180:7273   */\n      tag_433\n        /* \"#utility.yul\":7269:7272   */\n      dup3\n        /* \"#utility.yul\":7180:7273   */\n      tag_310\n      jump\t// in\n    tag_433:\n        /* \"#utility.yul\":7298:7300   */\n      0x20\n        /* \"#utility.yul\":7293:7296   */\n      dup3\n        /* \"#utility.yul\":7289:7301   */\n      add\n        /* \"#utility.yul\":7282:7301   */\n      swap1\n      pop\n        /* \"#utility.yul\":6941:7307   */\n      swap2\n      swap1\n      pop\n      jump\t// out\n        /* \"#utility.yul\":7313:7732   */\n    tag_139:\n        /* \"#utility.yul\":7479:7483   */\n      0x00\n        /* \"#utility.yul\":7517:7519   */\n      0x20\n        /* \"#utility.yul\":7506:7515   */\n      dup3\n        /* \"#utility.yul\":7502:7520   */\n      add\n        /* \"#utility.yul\":7494:7520   */\n      swap1\n      pop\n        /* \"#utility.yul\":7566:7575   */\n      dup2\n        /* \"#utility.yul\":7560:7564   */\n      dup2\n        /* \"#utility.yul\":7556:7576   */\n      sub\n        /* \"#utility.yul\":7552:7553   */\n      0x00\n        /* \"#utility.yul\":7541:7550   */\n      dup4\n        /* \"#utility.yul\":7537:7554   */\n      add\n        /* \"#utility.yul\":7530:7577   */\n      mstore\n        /* \"#utility.yul\":7594:7725   */\n      tag_435\n        /* \"#utility.yul\":7720:7724   */\n      dup2\n        /* \"#utility.yul\":7594:7725   */\n      tag_311\n      jump\t// in\n    tag_435:\n        /* \"#utility.yul\":7586:7725   */\n      swap1\n      pop\n        /* \"#utility.yul\":7313:7732   */\n      swap2\n      swap1\n      pop\n      jump\t// out\n        /* \"#utility.yul\":7738:7902   */\n    tag_312:\n        /* \"#utility.yul\":7878:7894   */\n      0x41756374696f6e20506175736564000000000000000000000000000000000000\n        /* \"#utility.yul\":7874:7875   */\n      0x00\n        /* \"#utility.yul\":7866:7872   */\n      dup3\n        /* \"#utility.yul\":7862:7876   */\n      add\n        /* \"#utility.yul\":7855:7895   */\n      mstore\n        /* \"#utility.yul\":7738:7902   */\n      pop\n      jump\t// out\n        /* \"#utility.yul\":7908:8274   */\n    tag_313:\n        /* \"#utility.yul\":8050:8053   */\n      0x00\n        /* \"#utility.yul\":8071:8138   */\n      tag_438\n        /* \"#utility.yul\":8135:8137   */\n      0x0e\n        /* \"#utility.yul\":8130:8133   */\n      dup4\n        /* \"#utility.yul\":8071:8138   */\n      tag_309\n      jump\t// in\n    tag_438:\n        /* \"#utility.yul\":8064:8138   */\n      swap2\n      pop\n        /* \"#utility.yul\":8147:8240   */\n      tag_439\n        /* \"#utility.yul\":8236:8239   */\n      dup3\n        /* \"#utility.yul\":8147:8240   */\n      tag_312\n      jump\t// in\n    tag_439:\n        /* \"#utility.yul\":8265:8267   */\n      0x20\n        /* \"#utility.yul\":8260:8263   */\n      dup3\n        /* \"#utility.yul\":8256:8268   */\n      add\n        /* \"#utility.yul\":8249:8268   */\n      swap1\n      pop\n        /* \"#utility.yul\":7908:8274   */\n      swap2\n      swap1\n      pop\n      jump\t// out\n        /* \"#utility.yul\":8280:8699   */\n    tag_143:\n        /* \"#utility.yul\":8446:8450   */\n      0x00\n        /* \"#utility.yul\":8484:8486   */\n      0x20\n        /* \"#utility.yul\":8473:8482   */\n      dup3\n        /* \"#utility.yul\":8469:8487   */\n      add\n        /* \"#utility.yul\":8461:8487   */\n      swap1\n      pop\n        /* \"#utility.yul\":8533:8542   */\n      dup2\n        /* \"#utility.yul\":8527:8531   */\n      dup2\n        /* \"#utility.yul\":8523:8543   */\n      sub\n        /* \"#utility.yul\":8519:8520   */\n      0x00\n        /* \"#utility.yul\":8508:8517   */\n      dup4\n        /* \"#utility.yul\":8504:8521   */\n      add\n        /* \"#utility.yul\":8497:8544   */\n      mstore\n        /* \"#utility.yul\":8561:8692   */\n      tag_441\n        /* \"#utility.yul\":8687:8691   */\n      dup2\n        /* \"#utility.yul\":8561:8692   */\n      tag_313\n      jump\t// in\n    tag_441:\n        /* \"#utility.yul\":8553:8692   */\n      swap1\n      pop\n        /* \"#utility.yul\":8280:8699   */\n      swap2\n      swap1\n      pop\n      jump\t// out\n        /* \"#utility.yul\":8705:8868   */\n    tag_314:\n        /* \"#utility.yul\":8845:8860   */\n      0x416c726561647920656e64656400000000000000000000000000000000000000\n        /* \"#utility.yul\":8841:8842   */\n      0x00\n        /* \"#utility.yul\":8833:8839   */\n      dup3\n        /* \"#utility.yul\":8829:8843   */\n      add\n        /* \"#utility.yul\":8822:8861   */\n      mstore\n        /* \"#utility.yul\":8705:8868   */\n      pop\n      jump\t// out\n        /* \"#utility.yul\":8874:9240   */\n    tag_315:\n        /* \"#utility.yul\":9016:9019   */\n      0x00\n        /* \"#utility.yul\":9037:9104   */\n      tag_444\n        /* \"#utility.yul\":9101:9103   */\n      0x0d\n        /* \"#utility.yul\":9096:9099   */\n      dup4\n        /* \"#utility.yul\":9037:9104   */\n      tag_309\n      jump\t// in\n    tag_444:\n        /* \"#utility.yul\":9030:9104   */\n      swap2\n      pop\n        /* \"#utility.yul\":9113:9206   */\n      tag_445\n        /* \"#utility.yul\":9202:9205   */\n      dup3\n        /* \"#utility.yul\":9113:9206   */\n      tag_314\n      jump\t// in\n    tag_445:\n        /* \"#utility.yul\":9231:9233   */\n      0x20\n        /* \"#utility.yul\":9226:9229   */\n      dup3\n        /* \"#utility.yul\":9222:9234   */\n      add\n        /* \"#utility.yul\":9215:9234   */\n      swap1\n      pop\n        /* \"#utility.yul\":8874:9240   */\n      swap2\n      swap1\n      pop\n      jump\t// out\n        /* \"#utility.yul\":9246:9665   */\n    tag_147:\n        /* \"#utility.yul\":9412:9416   */\n      0x00\n        /* \"#utility.yul\":9450:9452   */\n      0x20\n        /* \"#utility.yul\":9439:9448   */\n      dup3\n        /* \"#utility.yul\":9435:9453   */\n      add\n        /* \"#utility.yul\":9427:9453   */\n      swap1\n      pop\n        /* \"#utility.yul\":9499:9508   */\n      dup2\n        /* \"#utility.yul\":9493:9497   */\n      dup2\n        /* \"#utility.yul\":9489:9509   */\n      sub\n        /* \"#utility.yul\":9485:9486   */\n      0x00\n        /* \"#utility.yul\":9474:9483   */\n      dup4\n        /* \"#utility.yul\":9470:9487   */\n      add\n        /* \"#utility.yul\":9463:9510   */\n      mstore\n        /* \"#utility.yul\":9527:9658   */\n      tag_447\n        /* \"#utility.yul\":9653:9657   */\n      dup2\n        /* \"#utility.yul\":9527:9658   */\n      tag_315\n      jump\t// in\n    tag_447:\n        /* \"#utility.yul\":9519:9658   */\n      swap1\n      pop\n        /* \"#utility.yul\":9246:9665   */\n      swap2\n      swap1\n      pop\n      jump\t// out\n        /* \"#utility.yul\":9671:9830   */\n    tag_316:\n        /* \"#utility.yul\":9811:9822   */\n      0x4c6f776572204269640000000000000000000000000000000000000000000000\n        /* \"#utility.yul\":9807:9808   */\n      0x00\n        /* \"#utility.yul\":9799:9805   */\n      dup3\n        /* \"#utility.yul\":9795:9809   */\n      add\n        /* \"#utility.yul\":9788:9823   */\n      mstore\n        /* \"#utility.yul\":9671:9830   */\n      pop\n      jump\t// out\n        /* \"#utility.yul\":9836:10201   */\n    tag_317:\n        /* \"#utility.yul\":9978:9981   */\n      0x00\n        /* \"#utility.yul\":9999:10065   */\n      tag_450\n        /* \"#utility.yul\":10063:10064   */\n      0x09\n        /* \"#utility.yul\":10058:10061   */\n      dup4\n        /* \"#utility.yul\":9999:10065   */\n      tag_309\n      jump\t// in\n    tag_450:\n        /* \"#utility.yul\":9992:10065   */\n      swap2\n      pop\n        /* \"#utility.yul\":10074:10167   */\n      tag_451\n        /* \"#utility.yul\":10163:10166   */\n      dup3\n        /* \"#utility.yul\":10074:10167   */\n      tag_316\n      jump\t// in\n    tag_451:\n        /* \"#utility.yul\":10192:10194   */\n      0x20\n        /* \"#utility.yul\":10187:10190   */\n      dup3\n        /* \"#utility.yul\":10183:10195   */\n      add\n        /* \"#utility.yul\":10176:10195   */\n      swap1\n      pop\n        /* \"#utility.yul\":9836:10201   */\n      swap2\n      swap1\n      pop\n      jump\t// out\n        /* \"#utility.yul\":10207:10626   */\n    tag_150:\n        /* \"#utility.yul\":10373:10377   */\n      0x00\n        /* \"#utility.yul\":10411:10413   */\n      0x20\n        /* \"#utility.yul\":10400:10409   */\n      dup3\n        /* \"#utility.yul\":10396:10414   */\n      add\n        /* \"#utility.yul\":10388:10414   */\n      swap1\n      pop\n        /* \"#utility.yul\":10460:10469   */\n      dup2\n        /* \"#utility.yul\":10454:10458   */\n      dup2\n        /* \"#utility.yul\":10450:10470   */\n      sub\n        /* \"#utility.yul\":10446:10447   */\n      0x00\n        /* \"#utility.yul\":10435:10444   */\n      dup4\n        /* \"#utility.yul\":10431:10448   */\n      add\n        /* \"#utility.yul\":10424:10471   */\n      mstore\n        /* \"#utility.yul\":10488:10619   */\n      tag_453\n        /* \"#utility.yul\":10614:10618   */\n      dup2\n        /* \"#utility.yul\":10488:10619   */\n      tag_317\n      jump\t// in\n    tag_453:\n        /* \"#utility.yul\":10480:10619   */\n      swap1\n      pop\n        /* \"#utility.yul\":10207:10626   */\n      swap2\n      swap1\n      pop\n      jump\t// out\n        /* \"#utility.yul\":10632:10800   */\n    tag_318:\n        /* \"#utility.yul\":10772:10792   */\n      0x53656c6c6572206e6f7420616c6c6f7765640000000000000000000000000000\n        /* \"#utility.yul\":10768:10769   */\n      0x00\n        /* \"#utility.yul\":10760:10766   */\n      dup3\n        /* \"#utility.yul\":10756:10770   */\n      add\n        /* \"#utility.yul\":10749:10793   */\n      mstore\n        /* \"#utility.yul\":10632:10800   */\n      pop\n      jump\t// out\n        /* \"#utility.yul\":10806:11172   */\n    tag_319:\n        /* \"#utility.yul\":10948:10951   */\n      0x00\n        /* \"#utility.yul\":10969:11036   */\n      tag_456\n        /* \"#utility.yul\":11033:11035   */\n      0x12\n        /* \"#utility.yul\":11028:11031   */\n      dup4\n        /* \"#utility.yul\":10969:11036   */\n      tag_309\n      jump\t// in\n    tag_456:\n        /* \"#utility.yul\":10962:11036   */\n      swap2\n      pop\n        /* \"#utility.yul\":11045:11138   */\n      tag_457\n        /* \"#utility.yul\":11134:11137   */\n      dup3\n        /* \"#utility.yul\":11045:11138   */\n      tag_318\n      jump\t// in\n    tag_457:\n        /* \"#utility.yul\":11163:11165   */\n      0x20\n        /* \"#utility.yul\":11158:11161   */\n      dup3\n        /* \"#utility.yul\":11154:11166   */\n      add\n        /* \"#utility.yul\":11147:11166   */\n      swap1\n      pop\n        /* \"#utility.yul\":10806:11172   */\n      swap2\n      swap1\n      pop\n      jump\t// out\n        /* \"#utility.yul\":11178:11597   */\n    tag_153:\n        /* \"#utility.yul\":11344:11348   */\n      0x00\n        /* \"#utility.yul\":11382:11384   */\n      0x20\n        /* \"#utility.yul\":11371:11380   */\n      dup3\n        /* \"#utility.yul\":11367:11385   */\n      add\n        /* \"#utility.yul\":11359:11385   */\n      swap1\n      pop\n        /* \"#utility.yul\":11431:11440   */\n      dup2\n        /* \"#utility.yul\":11425:11429   */\n      dup2\n        /* \"#utility.yul\":11421:11441   */\n      sub\n        /* \"#utility.yul\":11417:11418   */\n      0x00\n        /* \"#utility.yul\":11406:11415   */\n      dup4\n        /* \"#utility.yul\":11402:11419   */\n      add\n        /* \"#utility.yul\":11395:11442   */\n      mstore\n        /* \"#utility.yul\":11459:11590   */\n      tag_459\n        /* \"#utility.yul\":11585:11589   */\n      dup2\n        /* \"#utility.yul\":11459:11590   */\n      tag_319\n      jump\t// in\n    tag_459:\n        /* \"#utility.yul\":11451:11590   */\n      swap1\n      pop\n        /* \"#utility.yul\":11178:11597   */\n      swap2\n      swap1\n      pop\n      jump\t// out\n        /* \"#utility.yul\":11603:11783   */\n    tag_320:\n        /* \"#utility.yul\":11651:11728   */\n      0x4e487b7100000000000000000000000000000000000000000000000000000000\n        /* \"#utility.yul\":11648:11649   */\n      0x00\n        /* \"#utility.yul\":11641:11729   */\n      mstore\n        /* \"#utility.yul\":11748:11752   */\n      0x12\n        /* \"#utility.yul\":11745:11746   */\n      0x04\n        /* \"#utility.yul\":11738:11753   */\n      mstore\n        /* \"#utility.yul\":11772:11776   */\n      0x24\n        /* \"#utility.yul\":11769:11770   */\n      0x00\n        /* \"#utility.yul\":11762:11777   */\n      revert\n        /* \"#utility.yul\":11789:11969   */\n    tag_321:\n        /* \"#utility.yul\":11837:11914   */\n      0x4e487b7100000000000000000000000000000000000000000000000000000000\n        /* \"#utility.yul\":11834:11835   */\n      0x00\n        /* \"#utility.yul\":11827:11915   */\n      mstore\n        /* \"#utility.yul\":11934:11938   */\n      0x11\n        /* \"#utility.yul\":11931:11932   */\n      0x04\n        /* \"#utility.yul\":11924:11939   */\n      mstore\n        /* \"#utility.yul\":11958:11962   */\n      0x24\n        /* \"#utility.yul\":11955:11956   */\n      0x00\n        /* \"#utility.yul\":11948:11963   */\n      revert\n        /* \"#utility.yul\":11975:12160   */\n    tag_155:\n        /* \"#utility.yul\":12015:12016   */\n      0x00\n        /* \"#utility.yul\":12032:12052   */\n      tag_463\n        /* \"#utility.yul\":12050:12051   */\n      dup3\n        /* \"#utility.yul\":12032:12052   */\n      tag_293\n      jump\t// in\n    tag_463:\n        /* \"#utility.yul\":12027:12052   */\n      swap2\n      pop\n        /* \"#utility.yul\":12066:12086   */\n      tag_464\n        /* \"#utility.yul\":12084:12085   */\n      dup4\n        /* \"#utility.yul\":12066:12086   */\n      tag_293\n      jump\t// in\n    tag_464:\n        /* \"#utility.yul\":12061:12086   */\n      swap3\n      pop\n        /* \"#utility.yul\":12105:12106   */\n      dup3\n        /* \"#utility.yul\":12095:12130   */\n      tag_465\n      jumpi\n        /* \"#utility.yul\":12110:12128   */\n      tag_466\n      tag_320\n      jump\t// in\n    tag_466:\n        /* \"#utility.yul\":12095:12130   */\n    tag_465:\n        /* \"#utility.yul\":12152:12153   */\n      dup3\n        /* \"#utility.yul\":12149:12150   */\n      dup3\n        /* \"#utility.yul\":12145:12154   */\n      div\n        /* \"#utility.yul\":12140:12154   */\n      swap1\n      pop\n        /* \"#utility.yul\":11975:12160   */\n      swap3\n      swap2\n      pop\n      pop\n      jump\t// out\n        /* \"#utility.yul\":12166:12576   */\n    tag_157:\n        /* \"#utility.yul\":12206:12213   */\n      0x00\n        /* \"#utility.yul\":12229:12249   */\n      tag_468\n        /* \"#utility.yul\":12247:12248   */\n      dup3\n        /* \"#utility.yul\":12229:12249   */\n      tag_293\n      jump\t// in\n    tag_468:\n        /* \"#utility.yul\":12224:12249   */\n      swap2\n      pop\n        /* \"#utility.yul\":12263:12283   */\n      tag_469\n        /* \"#utility.yul\":12281:12282   */\n      dup4\n        /* \"#utility.yul\":12263:12283   */\n      tag_293\n      jump\t// in\n    tag_469:\n        /* \"#utility.yul\":12258:12283   */\n      swap3\n      pop\n        /* \"#utility.yul\":12318:12319   */\n      dup3\n        /* \"#utility.yul\":12315:12316   */\n      dup3\n        /* \"#utility.yul\":12311:12320   */\n      mul\n        /* \"#utility.yul\":12340:12370   */\n      tag_470\n        /* \"#utility.yul\":12358:12369   */\n      dup2\n        /* \"#utility.yul\":12340:12370   */\n      tag_293\n      jump\t// in\n    tag_470:\n        /* \"#utility.yul\":12329:12370   */\n      swap2\n      pop\n        /* \"#utility.yul\":12519:12520   */\n      dup3\n        /* \"#utility.yul\":12510:12517   */\n      dup3\n        /* \"#utility.yul\":12506:12521   */\n      div\n        /* \"#utility.yul\":12503:12504   */\n      dup5\n        /* \"#utility.yul\":12500:12522   */\n      eq\n        /* \"#utility.yul\":12480:12481   */\n      dup4\n        /* \"#utility.yul\":12473:12482   */\n      iszero\n        /* \"#utility.yul\":12453:12536   */\n      or\n        /* \"#utility.yul\":12430:12569   */\n      tag_471\n      jumpi\n        /* \"#utility.yul\":12549:12567   */\n      tag_472\n      tag_321\n      jump\t// in\n    tag_472:\n        /* \"#utility.yul\":12430:12569   */\n    tag_471:\n        /* \"#utility.yul\":12214:12576   */\n      pop\n        /* \"#utility.yul\":12166:12576   */\n      swap3\n      swap2\n      pop\n      pop\n      jump\t// out\n        /* \"#utility.yul\":12582:12773   */\n    tag_159:\n        /* \"#utility.yul\":12622:12625   */\n      0x00\n        /* \"#utility.yul\":12641:12661   */\n      tag_474\n        /* \"#utility.yul\":12659:12660   */\n      dup3\n        /* \"#utility.yul\":12641:12661   */\n      tag_293\n      jump\t// in\n    tag_474:\n        /* \"#utility.yul\":12636:12661   */\n      swap2\n      pop\n        /* \"#utility.yul\":12675:12695   */\n      tag_475\n        /* \"#utility.yul\":12693:12694   */\n      dup4\n        /* \"#utility.yul\":12675:12695   */\n      tag_293\n      jump\t// in\n    tag_475:\n        /* \"#utility.yul\":12670:12695   */\n      swap3\n      pop\n        /* \"#utility.yul\":12718:12719   */\n      dup3\n        /* \"#utility.yul\":12715:12716   */\n      dup3\n        /* \"#utility.yul\":12711:12720   */\n      add\n        /* \"#utility.yul\":12704:12720   */\n      swap1\n      pop\n        /* \"#utility.yul\":12739:12742   */\n      dup1\n        /* \"#utility.yul\":12736:12737   */\n      dup3\n        /* \"#utility.yul\":12733:12743   */\n      gt\n        /* \"#utility.yul\":12730:12766   */\n      iszero\n      tag_476\n      jumpi\n        /* \"#utility.yul\":12746:12764   */\n      tag_477\n      tag_321\n      jump\t// in\n    tag_477:\n        /* \"#utility.yul\":12730:12766   */\n    tag_476:\n        /* \"#utility.yul\":12582:12773   */\n      swap3\n      swap2\n      pop\n      pop\n      jump\t// out\n        /* \"#utility.yul\":12779:12973   */\n    tag_164:\n        /* \"#utility.yul\":12819:12823   */\n      0x00\n        /* \"#utility.yul\":12839:12859   */\n      tag_479\n        /* \"#utility.yul\":12857:12858   */\n      dup3\n        /* \"#utility.yul\":12839:12859   */\n      tag_293\n      jump\t// in\n    tag_479:\n        /* \"#utility.yul\":12834:12859   */\n      swap2\n      pop\n        /* \"#utility.yul\":12873:12893   */\n      tag_480\n        /* \"#utility.yul\":12891:12892   */\n      dup4\n        /* \"#utility.yul\":12873:12893   */\n      tag_293\n      jump\t// in\n    tag_480:\n        /* \"#utility.yul\":12868:12893   */\n      swap3\n      pop\n        /* \"#utility.yul\":12917:12918   */\n      dup3\n        /* \"#utility.yul\":12914:12915   */\n      dup3\n        /* \"#utility.yul\":12910:12919   */\n      sub\n        /* \"#utility.yul\":12902:12919   */\n      swap1\n      pop\n        /* \"#utility.yul\":12941:12942   */\n      dup2\n        /* \"#utility.yul\":12935:12939   */\n      dup2\n        /* \"#utility.yul\":12932:12943   */\n      gt\n        /* \"#utility.yul\":12929:12966   */\n      iszero\n      tag_481\n      jumpi\n        /* \"#utility.yul\":12946:12964   */\n      tag_482\n      tag_321\n      jump\t// in\n    tag_482:\n        /* \"#utility.yul\":12929:12966   */\n    tag_481:\n        /* \"#utility.yul\":12779:12973   */\n      swap3\n      swap2\n      pop\n      pop\n      jump\t// out\n        /* \"#utility.yul\":12979:13148   */\n    tag_322:\n        /* \"#utility.yul\":13119:13140   */\n      0x53656e646572206973206e6f74206f776e657200000000000000000000000000\n        /* \"#utility.yul\":13115:13116   */\n      0x00\n        /* \"#utility.yul\":13107:13113   */\n      dup3\n        /* \"#utility.yul\":13103:13117   */\n      add\n        /* \"#utility.yul\":13096:13141   */\n      mstore\n        /* \"#utility.yul\":12979:13148   */\n      pop\n      jump\t// out\n        /* \"#utility.yul\":13154:13520   */\n    tag_323:\n        /* \"#utility.yul\":13296:13299   */\n      0x00\n        /* \"#utility.yul\":13317:13384   */\n      tag_485\n        /* \"#utility.yul\":13381:13383   */\n      0x13\n        /* \"#utility.yul\":13376:13379   */\n      dup4\n        /* \"#utility.yul\":13317:13384   */\n      tag_309\n      jump\t// in\n    tag_485:\n        /* \"#utility.yul\":13310:13384   */\n      swap2\n      pop\n        /* \"#utility.yul\":13393:13486   */\n      tag_486\n        /* \"#utility.yul\":13482:13485   */\n      dup3\n        /* \"#utility.yul\":13393:13486   */\n      tag_322\n      jump\t// in\n    tag_486:\n        /* \"#utility.yul\":13511:13513   */\n      0x20\n        /* \"#utility.yul\":13506:13509   */\n      dup3\n        /* \"#utility.yul\":13502:13514   */\n      add\n        /* \"#utility.yul\":13495:13514   */\n      swap1\n      pop\n        /* \"#utility.yul\":13154:13520   */\n      swap2\n      swap1\n      pop\n      jump\t// out\n        /* \"#utility.yul\":13526:13945   */\n    tag_176:\n        /* \"#utility.yul\":13692:13696   */\n      0x00\n        /* \"#utility.yul\":13730:13732   */\n      0x20\n        /* \"#utility.yul\":13719:13728   */\n      dup3\n        /* \"#utility.yul\":13715:13733   */\n      add\n        /* \"#utility.yul\":13707:13733   */\n      swap1\n      pop\n        /* \"#utility.yul\":13779:13788   */\n      dup2\n        /* \"#utility.yul\":13773:13777   */\n      dup2\n        /* \"#utility.yul\":13769:13789   */\n      sub\n        /* \"#utility.yul\":13765:13766   */\n      0x00\n        /* \"#utility.yul\":13754:13763   */\n      dup4\n        /* \"#utility.yul\":13750:13767   */\n      add\n        /* \"#utility.yul\":13743:13790   */\n      mstore\n        /* \"#utility.yul\":13807:13938   */\n      tag_488\n        /* \"#utility.yul\":13933:13937   */\n      dup2\n        /* \"#utility.yul\":13807:13938   */\n      tag_323\n      jump\t// in\n    tag_488:\n        /* \"#utility.yul\":13799:13938   */\n      swap1\n      pop\n        /* \"#utility.yul\":13526:13945   */\n      swap2\n      swap1\n      pop\n      jump\t// out\n        /* \"#utility.yul\":13951:14393   */\n    tag_180:\n        /* \"#utility.yul\":14100:14104   */\n      0x00\n        /* \"#utility.yul\":14138:14140   */\n      0x60\n        /* \"#utility.yul\":14127:14136   */\n      dup3\n        /* \"#utility.yul\":14123:14141   */\n      add\n        /* \"#utility.yul\":14115:14141   */\n      swap1\n      pop\n        /* \"#utility.yul\":14151:14222   */\n      tag_490\n        /* \"#utility.yul\":14219:14220   */\n      0x00\n        /* \"#utility.yul\":14208:14217   */\n      dup4\n        /* \"#utility.yul\":14204:14221   */\n      add\n        /* \"#utility.yul\":14195:14201   */\n      dup7\n        /* \"#utility.yul\":14151:14222   */\n      tag_292\n      jump\t// in\n    tag_490:\n        /* \"#utility.yul\":14232:14304   */\n      tag_491\n        /* \"#utility.yul\":14300:14302   */\n      0x20\n        /* \"#utility.yul\":14289:14298   */\n      dup4\n        /* \"#utility.yul\":14285:14303   */\n      add\n        /* \"#utility.yul\":14276:14282   */\n      dup6\n        /* \"#utility.yul\":14232:14304   */\n      tag_292\n      jump\t// in\n    tag_491:\n        /* \"#utility.yul\":14314:14386   */\n      tag_492\n        /* \"#utility.yul\":14382:14384   */\n      0x40\n        /* \"#utility.yul\":14371:14380   */\n      dup4\n        /* \"#utility.yul\":14367:14385   */\n      add\n        /* \"#utility.yul\":14358:14364   */\n      dup5\n        /* \"#utility.yul\":14314:14386   */\n      tag_294\n      jump\t// in\n    tag_492:\n        /* \"#utility.yul\":13951:14393   */\n      swap5\n      swap4\n      pop\n      pop\n      pop\n      pop\n      jump\t// out\n        /* \"#utility.yul\":14399:14546   */\n    tag_324:\n        /* \"#utility.yul\":14500:14511   */\n      0x00\n        /* \"#utility.yul\":14537:14540   */\n      dup2\n        /* \"#utility.yul\":14522:14540   */\n      swap1\n      pop\n        /* \"#utility.yul\":14399:14546   */\n      swap3\n      swap2\n      pop\n      pop\n      jump\t// out\n        /* \"#utility.yul\":14552:14666   */\n    tag_325:\n      pop\n      jump\t// out\n        /* \"#utility.yul\":14672:15070   */\n    tag_326:\n        /* \"#utility.yul\":14831:14834   */\n      0x00\n        /* \"#utility.yul\":14852:14935   */\n      tag_496\n        /* \"#utility.yul\":14933:14934   */\n      0x00\n        /* \"#utility.yul\":14928:14931   */\n      dup4\n        /* \"#utility.yul\":14852:14935   */\n      tag_324\n      jump\t// in\n    tag_496:\n        /* \"#utility.yul\":14845:14935   */\n      swap2\n      pop\n        /* \"#utility.yul\":14944:15037   */\n      tag_497\n        /* \"#utility.yul\":15033:15036   */\n      dup3\n        /* \"#utility.yul\":14944:15037   */\n      tag_325\n      jump\t// in\n    tag_497:\n        /* \"#utility.yul\":15062:15063   */\n      0x00\n        /* \"#utility.yul\":15057:15060   */\n      dup3\n        /* \"#utility.yul\":15053:15064   */\n      add\n        /* \"#utility.yul\":15046:15064   */\n      swap1\n      pop\n        /* \"#utility.yul\":14672:15070   */\n      swap2\n      swap1\n      pop\n      jump\t// out\n        /* \"#utility.yul\":15076:15455   */\n    tag_185:\n        /* \"#utility.yul\":15260:15263   */\n      0x00\n        /* \"#utility.yul\":15282:15429   */\n      tag_499\n        /* \"#utility.yul\":15425:15428   */\n      dup3\n        /* \"#utility.yul\":15282:15429   */\n      tag_326\n      jump\t// in\n    tag_499:\n        /* \"#utility.yul\":15275:15429   */\n      swap2\n      pop\n        /* \"#utility.yul\":15446:15449   */\n      dup2\n        /* \"#utility.yul\":15439:15449   */\n      swap1\n      pop\n        /* \"#utility.yul\":15076:15455   */\n      swap2\n      swap1\n      pop\n      jump\t// out\n        /* \"#utility.yul\":15461:15634   */\n    tag_327:\n        /* \"#utility.yul\":15601:15626   */\n      0x52657475726e206665652066756e6473206661696c6564000000000000000000\n        /* \"#utility.yul\":15597:15598   */\n      0x00\n        /* \"#utility.yul\":15589:15595   */\n      dup3\n        /* \"#utility.yul\":15585:15599   */\n      add\n        /* \"#utility.yul\":15578:15627   */\n      mstore\n        /* \"#utility.yul\":15461:15634   */\n      pop\n      jump\t// out\n        /* \"#utility.yul\":15640:16006   */\n    tag_328:\n        /* \"#utility.yul\":15782:15785   */\n      0x00\n        /* \"#utility.yul\":15803:15870   */\n      tag_502\n        /* \"#utility.yul\":15867:15869   */\n      0x17\n        /* \"#utility.yul\":15862:15865   */\n      dup4\n        /* \"#utility.yul\":15803:15870   */\n      tag_309\n      jump\t// in\n    tag_502:\n        /* \"#utility.yul\":15796:15870   */\n      swap2\n      pop\n        /* \"#utility.yul\":15879:15972   */\n      tag_503\n        /* \"#utility.yul\":15968:15971   */\n      dup3\n        /* \"#utility.yul\":15879:15972   */\n      tag_327\n      jump\t// in\n    tag_503:\n        /* \"#utility.yul\":15997:15999   */\n      0x20\n        /* \"#utility.yul\":15992:15995   */\n      dup3\n        /* \"#utility.yul\":15988:16000   */\n      add\n        /* \"#utility.yul\":15981:16000   */\n      swap1\n      pop\n        /* \"#utility.yul\":15640:16006   */\n      swap2\n      swap1\n      pop\n      jump\t// out\n        /* \"#utility.yul\":16012:16431   */\n    tag_191:\n        /* \"#utility.yul\":16178:16182   */\n      0x00\n        /* \"#utility.yul\":16216:16218   */\n      0x20\n        /* \"#utility.yul\":16205:16214   */\n      dup3\n        /* \"#utility.yul\":16201:16219   */\n      add\n        /* \"#utility.yul\":16193:16219   */\n      swap1\n      pop\n        /* \"#utility.yul\":16265:16274   */\n      dup2\n        /* \"#utility.yul\":16259:16263   */\n      dup2\n        /* \"#utility.yul\":16255:16275   */\n      sub\n        /* \"#utility.yul\":16251:16252   */\n      0x00\n        /* \"#utility.yul\":16240:16249   */\n      dup4\n        /* \"#utility.yul\":16236:16253   */\n      add\n        /* \"#utility.yul\":16229:16276   */\n      mstore\n        /* \"#utility.yul\":16293:16424   */\n      tag_505\n        /* \"#utility.yul\":16419:16423   */\n      dup2\n        /* \"#utility.yul\":16293:16424   */\n      tag_328\n      jump\t// in\n    tag_505:\n        /* \"#utility.yul\":16285:16424   */\n      swap1\n      pop\n        /* \"#utility.yul\":16012:16431   */\n      swap2\n      swap1\n      pop\n      jump\t// out\n        /* \"#utility.yul\":16437:16606   */\n    tag_329:\n        /* \"#utility.yul\":16577:16598   */\n      0x52657475726e2066756e6473206661696c656400000000000000000000000000\n        /* \"#utility.yul\":16573:16574   */\n      0x00\n        /* \"#utility.yul\":16565:16571   */\n      dup3\n        /* \"#utility.yul\":16561:16575   */\n      add\n        /* \"#utility.yul\":16554:16599   */\n      mstore\n        /* \"#utility.yul\":16437:16606   */\n      pop\n      jump\t// out\n        /* \"#utility.yul\":16612:16978   */\n    tag_330:\n        /* \"#utility.yul\":16754:16757   */\n      0x00\n        /* \"#utility.yul\":16775:16842   */\n      tag_508\n        /* \"#utility.yul\":16839:16841   */\n      0x13\n        /* \"#utility.yul\":16834:16837   */\n      dup4\n        /* \"#utility.yul\":16775:16842   */\n      tag_309\n      jump\t// in\n    tag_508:\n        /* \"#utility.yul\":16768:16842   */\n      swap2\n      pop\n        /* \"#utility.yul\":16851:16944   */\n      tag_509\n        /* \"#utility.yul\":16940:16943   */\n      dup3\n        /* \"#utility.yul\":16851:16944   */\n      tag_329\n      jump\t// in\n    tag_509:\n        /* \"#utility.yul\":16969:16971   */\n      0x20\n        /* \"#utility.yul\":16964:16967   */\n      dup3\n        /* \"#utility.yul\":16960:16972   */\n      add\n        /* \"#utility.yul\":16953:16972   */\n      swap1\n      pop\n        /* \"#utility.yul\":16612:16978   */\n      swap2\n      swap1\n      pop\n      jump\t// out\n        /* \"#utility.yul\":16984:17403   */\n    tag_198:\n        /* \"#utility.yul\":17150:17154   */\n      0x00\n        /* \"#utility.yul\":17188:17190   */\n      0x20\n        /* \"#utility.yul\":17177:17186   */\n      dup3\n        /* \"#utility.yul\":17173:17191   */\n      add\n        /* \"#utility.yul\":17165:17191   */\n      swap1\n      pop\n        /* \"#utility.yul\":17237:17246   */\n      dup2\n        /* \"#utility.yul\":17231:17235   */\n      dup2\n        /* \"#utility.yul\":17227:17247   */\n      sub\n        /* \"#utility.yul\":17223:17224   */\n      0x00\n        /* \"#utility.yul\":17212:17221   */\n      dup4\n        /* \"#utility.yul\":17208:17225   */\n      add\n        /* \"#utility.yul\":17201:17248   */\n      mstore\n        /* \"#utility.yul\":17265:17396   */\n      tag_511\n        /* \"#utility.yul\":17391:17395   */\n      dup2\n        /* \"#utility.yul\":17265:17396   */\n      tag_330\n      jump\t// in\n    tag_511:\n        /* \"#utility.yul\":17257:17396   */\n      swap1\n      pop\n        /* \"#utility.yul\":16984:17403   */\n      swap2\n      swap1\n      pop\n      jump\t// out\n        /* \"#utility.yul\":17409:17543   */\n    tag_331:\n        /* \"#utility.yul\":17467:17476   */\n      0x00\n        /* \"#utility.yul\":17500:17537   */\n      tag_513\n        /* \"#utility.yul\":17531:17536   */\n      dup3\n        /* \"#utility.yul\":17500:17537   */\n      tag_303\n      jump\t// in\n    tag_513:\n        /* \"#utility.yul\":17487:17537   */\n      swap1\n      pop\n        /* \"#utility.yul\":17409:17543   */\n      swap2\n      swap1\n      pop\n      jump\t// out\n        /* \"#utility.yul\":17549:17696   */\n    tag_332:\n        /* \"#utility.yul\":17644:17689   */\n      tag_515\n        /* \"#utility.yul\":17683:17688   */\n      dup2\n        /* \"#utility.yul\":17644:17689   */\n      tag_331\n      jump\t// in\n    tag_515:\n        /* \"#utility.yul\":17639:17642   */\n      dup3\n        /* \"#utility.yul\":17632:17690   */\n      mstore\n        /* \"#utility.yul\":17549:17696   */\n      pop\n      pop\n      jump\t// out\n        /* \"#utility.yul\":17702:18160   */\n    tag_201:\n        /* \"#utility.yul\":17859:17863   */\n      0x00\n        /* \"#utility.yul\":17897:17899   */\n      0x60\n        /* \"#utility.yul\":17886:17895   */\n      dup3\n        /* \"#utility.yul\":17882:17900   */\n      add\n        /* \"#utility.yul\":17874:17900   */\n      swap1\n      pop\n        /* \"#utility.yul\":17910:17981   */\n      tag_517\n        /* \"#utility.yul\":17978:17979   */\n      0x00\n        /* \"#utility.yul\":17967:17976   */\n      dup4\n        /* \"#utility.yul\":17963:17980   */\n      add\n        /* \"#utility.yul\":17954:17960   */\n      dup7\n        /* \"#utility.yul\":17910:17981   */\n      tag_292\n      jump\t// in\n    tag_517:\n        /* \"#utility.yul\":17991:18071   */\n      tag_518\n        /* \"#utility.yul\":18067:18069   */\n      0x20\n        /* \"#utility.yul\":18056:18065   */\n      dup4\n        /* \"#utility.yul\":18052:18070   */\n      add\n        /* \"#utility.yul\":18043:18049   */\n      dup6\n        /* \"#utility.yul\":17991:18071   */\n      tag_332\n      jump\t// in\n    tag_518:\n        /* \"#utility.yul\":18081:18153   */\n      tag_519\n        /* \"#utility.yul\":18149:18151   */\n      0x40\n        /* \"#utility.yul\":18138:18147   */\n      dup4\n        /* \"#utility.yul\":18134:18152   */\n      add\n        /* \"#utility.yul\":18125:18131   */\n      dup5\n        /* \"#utility.yul\":18081:18153   */\n      tag_294\n      jump\t// in\n    tag_519:\n        /* \"#utility.yul\":17702:18160   */\n      swap5\n      swap4\n      pop\n      pop\n      pop\n      pop\n      jump\t// out\n        /* \"#utility.yul\":18166:18338   */\n    tag_333:\n        /* \"#utility.yul\":18306:18330   */\n      0x596f757220426964206973207468652068696768657200000000000000000000\n        /* \"#utility.yul\":18302:18303   */\n      0x00\n        /* \"#utility.yul\":18294:18300   */\n      dup3\n        /* \"#utility.yul\":18290:18304   */\n      add\n        /* \"#utility.yul\":18283:18331   */\n      mstore\n        /* \"#utility.yul\":18166:18338   */\n      pop\n      jump\t// out\n        /* \"#utility.yul\":18344:18710   */\n    tag_334:\n        /* \"#utility.yul\":18486:18489   */\n      0x00\n        /* \"#utility.yul\":18507:18574   */\n      tag_522\n        /* \"#utility.yul\":18571:18573   */\n      0x16\n        /* \"#utility.yul\":18566:18569   */\n      dup4\n        /* \"#utility.yul\":18507:18574   */\n      tag_309\n      jump\t// in\n    tag_522:\n        /* \"#utility.yul\":18500:18574   */\n      swap2\n      pop\n        /* \"#utility.yul\":18583:18676   */\n      tag_523\n        /* \"#utility.yul\":18672:18675   */\n      dup3\n        /* \"#utility.yul\":18583:18676   */\n      tag_333\n      jump\t// in\n    tag_523:\n        /* \"#utility.yul\":18701:18703   */\n      0x20\n        /* \"#utility.yul\":18696:18699   */\n      dup3\n        /* \"#utility.yul\":18692:18704   */\n      add\n        /* \"#utility.yul\":18685:18704   */\n      swap1\n      pop\n        /* \"#utility.yul\":18344:18710   */\n      swap2\n      swap1\n      pop\n      jump\t// out\n        /* \"#utility.yul\":18716:19135   */\n    tag_220:\n        /* \"#utility.yul\":18882:18886   */\n      0x00\n        /* \"#utility.yul\":18920:18922   */\n      0x20\n        /* \"#utility.yul\":18909:18918   */\n      dup3\n        /* \"#utility.yul\":18905:18923   */\n      add\n        /* \"#utility.yul\":18897:18923   */\n      swap1\n      pop\n        /* \"#utility.yul\":18969:18978   */\n      dup2\n        /* \"#utility.yul\":18963:18967   */\n      dup2\n        /* \"#utility.yul\":18959:18979   */\n      sub\n        /* \"#utility.yul\":18955:18956   */\n      0x00\n        /* \"#utility.yul\":18944:18953   */\n      dup4\n        /* \"#utility.yul\":18940:18957   */\n      add\n        /* \"#utility.yul\":18933:18980   */\n      mstore\n        /* \"#utility.yul\":18997:19128   */\n      tag_525\n        /* \"#utility.yul\":19123:19127   */\n      dup2\n        /* \"#utility.yul\":18997:19128   */\n      tag_334\n      jump\t// in\n    tag_525:\n        /* \"#utility.yul\":18989:19128   */\n      swap1\n      pop\n        /* \"#utility.yul\":18716:19135   */\n      swap2\n      swap1\n      pop\n      jump\t// out\n        /* \"#utility.yul\":19141:19306   */\n    tag_335:\n        /* \"#utility.yul\":19281:19298   */\n      0x4e6f206269647320666f756e6465640000000000000000000000000000000000\n        /* \"#utility.yul\":19277:19278   */\n      0x00\n        /* \"#utility.yul\":19269:19275   */\n      dup3\n        /* \"#utility.yul\":19265:19279   */\n      add\n        /* \"#utility.yul\":19258:19299   */\n      mstore\n        /* \"#utility.yul\":19141:19306   */\n      pop\n      jump\t// out\n        /* \"#utility.yul\":19312:19678   */\n    tag_336:\n        /* \"#utility.yul\":19454:19457   */\n      0x00\n        /* \"#utility.yul\":19475:19542   */\n      tag_528\n        /* \"#utility.yul\":19539:19541   */\n      0x0f\n        /* \"#utility.yul\":19534:19537   */\n      dup4\n        /* \"#utility.yul\":19475:19542   */\n      tag_309\n      jump\t// in\n    tag_528:\n        /* \"#utility.yul\":19468:19542   */\n      swap2\n      pop\n        /* \"#utility.yul\":19551:19644   */\n      tag_529\n        /* \"#utility.yul\":19640:19643   */\n      dup3\n        /* \"#utility.yul\":19551:19644   */\n      tag_335\n      jump\t// in\n    tag_529:\n        /* \"#utility.yul\":19669:19671   */\n      0x20\n        /* \"#utility.yul\":19664:19667   */\n      dup3\n        /* \"#utility.yul\":19660:19672   */\n      add\n        /* \"#utility.yul\":19653:19672   */\n      swap1\n      pop\n        /* \"#utility.yul\":19312:19678   */\n      swap2\n      swap1\n      pop\n      jump\t// out\n        /* \"#utility.yul\":19684:20103   */\n    tag_223:\n        /* \"#utility.yul\":19850:19854   */\n      0x00\n        /* \"#utility.yul\":19888:19890   */\n      0x20\n        /* \"#utility.yul\":19877:19886   */\n      dup3\n        /* \"#utility.yul\":19873:19891   */\n      add\n        /* \"#utility.yul\":19865:19891   */\n      swap1\n      pop\n        /* \"#utility.yul\":19937:19946   */\n      dup2\n        /* \"#utility.yul\":19931:19935   */\n      dup2\n        /* \"#utility.yul\":19927:19947   */\n      sub\n        /* \"#utility.yul\":19923:19924   */\n      0x00\n        /* \"#utility.yul\":19912:19921   */\n      dup4\n        /* \"#utility.yul\":19908:19925   */\n      add\n        /* \"#utility.yul\":19901:19948   */\n      mstore\n        /* \"#utility.yul\":19965:20096   */\n      tag_531\n        /* \"#utility.yul\":20091:20095   */\n      dup2\n        /* \"#utility.yul\":19965:20096   */\n      tag_336\n      jump\t// in\n    tag_531:\n        /* \"#utility.yul\":19957:20096   */\n      swap1\n      pop\n        /* \"#utility.yul\":19684:20103   */\n      swap2\n      swap1\n      pop\n      jump\t// out\n        /* \"#utility.yul\":20109:20274   */\n    tag_337:\n        /* \"#utility.yul\":20249:20266   */\n      0x416c726561647920537461727465640000000000000000000000000000000000\n        /* \"#utility.yul\":20245:20246   */\n      0x00\n        /* \"#utility.yul\":20237:20243   */\n      dup3\n        /* \"#utility.yul\":20233:20247   */\n      add\n        /* \"#utility.yul\":20226:20267   */\n      mstore\n        /* \"#utility.yul\":20109:20274   */\n      pop\n      jump\t// out\n        /* \"#utility.yul\":20280:20646   */\n    tag_338:\n        /* \"#utility.yul\":20422:20425   */\n      0x00\n        /* \"#utility.yul\":20443:20510   */\n      tag_534\n        /* \"#utility.yul\":20507:20509   */\n      0x0f\n        /* \"#utility.yul\":20502:20505   */\n      dup4\n        /* \"#utility.yul\":20443:20510   */\n      tag_309\n      jump\t// in\n    tag_534:\n        /* \"#utility.yul\":20436:20510   */\n      swap2\n      pop\n        /* \"#utility.yul\":20519:20612   */\n      tag_535\n        /* \"#utility.yul\":20608:20611   */\n      dup3\n        /* \"#utility.yul\":20519:20612   */\n      tag_337\n      jump\t// in\n    tag_535:\n        /* \"#utility.yul\":20637:20639   */\n      0x20\n        /* \"#utility.yul\":20632:20635   */\n      dup3\n        /* \"#utility.yul\":20628:20640   */\n      add\n        /* \"#utility.yul\":20621:20640   */\n      swap1\n      pop\n        /* \"#utility.yul\":20280:20646   */\n      swap2\n      swap1\n      pop\n      jump\t// out\n        /* \"#utility.yul\":20652:21071   */\n    tag_232:\n        /* \"#utility.yul\":20818:20822   */\n      0x00\n        /* \"#utility.yul\":20856:20858   */\n      0x20\n        /* \"#utility.yul\":20845:20854   */\n      dup3\n        /* \"#utility.yul\":20841:20859   */\n      add\n        /* \"#utility.yul\":20833:20859   */\n      swap1\n      pop\n        /* \"#utility.yul\":20905:20914   */\n      dup2\n        /* \"#utility.yul\":20899:20903   */\n      dup2\n        /* \"#utility.yul\":20895:20915   */\n      sub\n        /* \"#utility.yul\":20891:20892   */\n      0x00\n        /* \"#utility.yul\":20880:20889   */\n      dup4\n        /* \"#utility.yul\":20876:20893   */\n      add\n        /* \"#utility.yul\":20869:20916   */\n      mstore\n        /* \"#utility.yul\":20933:21064   */\n      tag_537\n        /* \"#utility.yul\":21059:21063   */\n      dup2\n        /* \"#utility.yul\":20933:21064   */\n      tag_338\n      jump\t// in\n    tag_537:\n        /* \"#utility.yul\":20925:21064   */\n      swap1\n      pop\n        /* \"#utility.yul\":20652:21071   */\n      swap2\n      swap1\n      pop\n      jump\t// out\n        /* \"#utility.yul\":21077:21241   */\n    tag_339:\n        /* \"#utility.yul\":21217:21233   */\n      0x416c726561647920506175736564000000000000000000000000000000000000\n        /* \"#utility.yul\":21213:21214   */\n      0x00\n        /* \"#utility.yul\":21205:21211   */\n      dup3\n        /* \"#utility.yul\":21201:21215   */\n      add\n        /* \"#utility.yul\":21194:21234   */\n      mstore\n        /* \"#utility.yul\":21077:21241   */\n      pop\n      jump\t// out\n        /* \"#utility.yul\":21247:21613   */\n    tag_340:\n        /* \"#utility.yul\":21389:21392   */\n      0x00\n        /* \"#utility.yul\":21410:21477   */\n      tag_540\n        /* \"#utility.yul\":21474:21476   */\n      0x0e\n        /* \"#utility.yul\":21469:21472   */\n      dup4\n        /* \"#utility.yul\":21410:21477   */\n      tag_309\n      jump\t// in\n    tag_540:\n        /* \"#utility.yul\":21403:21477   */\n      swap2\n      pop\n        /* \"#utility.yul\":21486:21579   */\n      tag_541\n        /* \"#utility.yul\":21575:21578   */\n      dup3\n        /* \"#utility.yul\":21486:21579   */\n      tag_339\n      jump\t// in\n    tag_541:\n        /* \"#utility.yul\":21604:21606   */\n      0x20\n        /* \"#utility.yul\":21599:21602   */\n      dup3\n        /* \"#utility.yul\":21595:21607   */\n      add\n        /* \"#utility.yul\":21588:21607   */\n      swap1\n      pop\n        /* \"#utility.yul\":21247:21613   */\n      swap2\n      swap1\n      pop\n      jump\t// out\n        /* \"#utility.yul\":21619:22038   */\n    tag_243:\n        /* \"#utility.yul\":21785:21789   */\n      0x00\n        /* \"#utility.yul\":21823:21825   */\n      0x20\n        /* \"#utility.yul\":21812:21821   */\n      dup3\n        /* \"#utility.yul\":21808:21826   */\n      add\n        /* \"#utility.yul\":21800:21826   */\n      swap1\n      pop\n        /* \"#utility.yul\":21872:21881   */\n      dup2\n        /* \"#utility.yul\":21866:21870   */\n      dup2\n        /* \"#utility.yul\":21862:21882   */\n      sub\n        /* \"#utility.yul\":21858:21859   */\n      0x00\n        /* \"#utility.yul\":21847:21856   */\n      dup4\n        /* \"#utility.yul\":21843:21860   */\n      add\n        /* \"#utility.yul\":21836:21883   */\n      mstore\n        /* \"#utility.yul\":21900:22031   */\n      tag_543\n        /* \"#utility.yul\":22026:22030   */\n      dup2\n        /* \"#utility.yul\":21900:22031   */\n      tag_340\n      jump\t// in\n    tag_543:\n        /* \"#utility.yul\":21892:22031   */\n      swap1\n      pop\n        /* \"#utility.yul\":21619:22038   */\n      swap2\n      swap1\n      pop\n      jump\t// out\n        /* \"#utility.yul\":22044:22209   */\n    tag_341:\n        /* \"#utility.yul\":22184:22201   */\n      0x416c72656164792052756e6e696e670000000000000000000000000000000000\n        /* \"#utility.yul\":22180:22181   */\n      0x00\n        /* \"#utility.yul\":22172:22178   */\n      dup3\n        /* \"#utility.yul\":22168:22182   */\n      add\n        /* \"#utility.yul\":22161:22202   */\n      mstore\n        /* \"#utility.yul\":22044:22209   */\n      pop\n      jump\t// out\n        /* \"#utility.yul\":22215:22581   */\n    tag_342:\n        /* \"#utility.yul\":22357:22360   */\n      0x00\n        /* \"#utility.yul\":22378:22445   */\n      tag_546\n        /* \"#utility.yul\":22442:22444   */\n      0x0f\n        /* \"#utility.yul\":22437:22440   */\n      dup4\n        /* \"#utility.yul\":22378:22445   */\n      tag_309\n      jump\t// in\n    tag_546:\n        /* \"#utility.yul\":22371:22445   */\n      swap2\n      pop\n        /* \"#utility.yul\":22454:22547   */\n      tag_547\n        /* \"#utility.yul\":22543:22546   */\n      dup3\n        /* \"#utility.yul\":22454:22547   */\n      tag_341\n      jump\t// in\n    tag_547:\n        /* \"#utility.yul\":22572:22574   */\n      0x20\n        /* \"#utility.yul\":22567:22570   */\n      dup3\n        /* \"#utility.yul\":22563:22575   */\n      add\n        /* \"#utility.yul\":22556:22575   */\n      swap1\n      pop\n        /* \"#utility.yul\":22215:22581   */\n      swap2\n      swap1\n      pop\n      jump\t// out\n        /* \"#utility.yul\":22587:23006   */\n    tag_251:\n        /* \"#utility.yul\":22753:22757   */\n      0x00\n        /* \"#utility.yul\":22791:22793   */\n      0x20\n        /* \"#utility.yul\":22780:22789   */\n      dup3\n        /* \"#utility.yul\":22776:22794   */\n      add\n        /* \"#utility.yul\":22768:22794   */\n      swap1\n      pop\n        /* \"#utility.yul\":22840:22849   */\n      dup2\n        /* \"#utility.yul\":22834:22838   */\n      dup2\n        /* \"#utility.yul\":22830:22850   */\n      sub\n        /* \"#utility.yul\":22826:22827   */\n      0x00\n        /* \"#utility.yul\":22815:22824   */\n      dup4\n        /* \"#utility.yul\":22811:22828   */\n      add\n        /* \"#utility.yul\":22804:22851   */\n      mstore\n        /* \"#utility.yul\":22868:22999   */\n      tag_549\n        /* \"#utility.yul\":22994:22998   */\n      dup2\n        /* \"#utility.yul\":22868:22999   */\n      tag_342\n      jump\t// in\n    tag_549:\n        /* \"#utility.yul\":22860:22999   */\n      swap1\n      pop\n        /* \"#utility.yul\":22587:23006   */\n      swap2\n      swap1\n      pop\n      jump\t// out\n        /* \"#utility.yul\":23012:23194   */\n    tag_343:\n        /* \"#utility.yul\":23152:23186   */\n      0x31303025206f66207468652066656520616c726561647920616c6f6361746564\n        /* \"#utility.yul\":23148:23149   */\n      0x00\n        /* \"#utility.yul\":23140:23146   */\n      dup3\n        /* \"#utility.yul\":23136:23150   */\n      add\n        /* \"#utility.yul\":23129:23187   */\n      mstore\n        /* \"#utility.yul\":23012:23194   */\n      pop\n      jump\t// out\n        /* \"#utility.yul\":23200:23566   */\n    tag_344:\n        /* \"#utility.yul\":23342:23345   */\n      0x00\n        /* \"#utility.yul\":23363:23430   */\n      tag_552\n        /* \"#utility.yul\":23427:23429   */\n      0x20\n        /* \"#utility.yul\":23422:23425   */\n      dup4\n        /* \"#utility.yul\":23363:23430   */\n      tag_309\n      jump\t// in\n    tag_552:\n        /* \"#utility.yul\":23356:23430   */\n      swap2\n      pop\n        /* \"#utility.yul\":23439:23532   */\n      tag_553\n        /* \"#utility.yul\":23528:23531   */\n      dup3\n        /* \"#utility.yul\":23439:23532   */\n      tag_343\n      jump\t// in\n    tag_553:\n        /* \"#utility.yul\":23557:23559   */\n      0x20\n        /* \"#utility.yul\":23552:23555   */\n      dup3\n        /* \"#utility.yul\":23548:23560   */\n      add\n        /* \"#utility.yul\":23541:23560   */\n      swap1\n      pop\n        /* \"#utility.yul\":23200:23566   */\n      swap2\n      swap1\n      pop\n      jump\t// out\n        /* \"#utility.yul\":23572:23991   */\n    tag_260:\n        /* \"#utility.yul\":23738:23742   */\n      0x00\n        /* \"#utility.yul\":23776:23778   */\n      0x20\n        /* \"#utility.yul\":23765:23774   */\n      dup3\n        /* \"#utility.yul\":23761:23779   */\n      add\n        /* \"#utility.yul\":23753:23779   */\n      swap1\n      pop\n        /* \"#utility.yul\":23825:23834   */\n      dup2\n        /* \"#utility.yul\":23819:23823   */\n      dup2\n        /* \"#utility.yul\":23815:23835   */\n      sub\n        /* \"#utility.yul\":23811:23812   */\n      0x00\n        /* \"#utility.yul\":23800:23809   */\n      dup4\n        /* \"#utility.yul\":23796:23813   */\n      add\n        /* \"#utility.yul\":23789:23836   */\n      mstore\n        /* \"#utility.yul\":23853:23984   */\n      tag_555\n        /* \"#utility.yul\":23979:23983   */\n      dup2\n        /* \"#utility.yul\":23853:23984   */\n      tag_344\n      jump\t// in\n    tag_555:\n        /* \"#utility.yul\":23845:23984   */\n      swap1\n      pop\n        /* \"#utility.yul\":23572:23991   */\n      swap2\n      swap1\n      pop\n      jump\t// out\n        /* \"#utility.yul\":23997:24156   */\n    tag_345:\n        /* \"#utility.yul\":24137:24148   */\n      0x4e6f7420456e6465640000000000000000000000000000000000000000000000\n        /* \"#utility.yul\":24133:24134   */\n      0x00\n        /* \"#utility.yul\":24125:24131   */\n      dup3\n        /* \"#utility.yul\":24121:24135   */\n      add\n        /* \"#utility.yul\":24114:24149   */\n      mstore\n        /* \"#utility.yul\":23997:24156   */\n      pop\n      jump\t// out\n        /* \"#utility.yul\":24162:24527   */\n    tag_346:\n        /* \"#utility.yul\":24304:24307   */\n      0x00\n        /* \"#utility.yul\":24325:24391   */\n      tag_558\n        /* \"#utility.yul\":24389:24390   */\n      0x09\n        /* \"#utility.yul\":24384:24387   */\n      dup4\n        /* \"#utility.yul\":24325:24391   */\n      tag_309\n      jump\t// in\n    tag_558:\n        /* \"#utility.yul\":24318:24391   */\n      swap2\n      pop\n        /* \"#utility.yul\":24400:24493   */\n      tag_559\n        /* \"#utility.yul\":24489:24492   */\n      dup3\n        /* \"#utility.yul\":24400:24493   */\n      tag_345\n      jump\t// in\n    tag_559:\n        /* \"#utility.yul\":24518:24520   */\n      0x20\n        /* \"#utility.yul\":24513:24516   */\n      dup3\n        /* \"#utility.yul\":24509:24521   */\n      add\n        /* \"#utility.yul\":24502:24521   */\n      swap1\n      pop\n        /* \"#utility.yul\":24162:24527   */\n      swap2\n      swap1\n      pop\n      jump\t// out\n        /* \"#utility.yul\":24533:24952   */\n    tag_273:\n        /* \"#utility.yul\":24699:24703   */\n      0x00\n        /* \"#utility.yul\":24737:24739   */\n      0x20\n        /* \"#utility.yul\":24726:24735   */\n      dup3\n        /* \"#utility.yul\":24722:24740   */\n      add\n        /* \"#utility.yul\":24714:24740   */\n      swap1\n      pop\n        /* \"#utility.yul\":24786:24795   */\n      dup2\n        /* \"#utility.yul\":24780:24784   */\n      dup2\n        /* \"#utility.yul\":24776:24796   */\n      sub\n        /* \"#utility.yul\":24772:24773   */\n      0x00\n        /* \"#utility.yul\":24761:24770   */\n      dup4\n        /* \"#utility.yul\":24757:24774   */\n      add\n        /* \"#utility.yul\":24750:24797   */\n      mstore\n        /* \"#utility.yul\":24814:24945   */\n      tag_561\n        /* \"#utility.yul\":24940:24944   */\n      dup2\n        /* \"#utility.yul\":24814:24945   */\n      tag_346\n      jump\t// in\n    tag_561:\n        /* \"#utility.yul\":24806:24945   */\n      swap1\n      pop\n        /* \"#utility.yul\":24533:24952   */\n      swap2\n      swap1\n      pop\n      jump\t// out\n        /* \"#utility.yul\":24958:25121   */\n    tag_347:\n        /* \"#utility.yul\":25098:25113   */\n      0x416c726561647920456e64656400000000000000000000000000000000000000\n        /* \"#utility.yul\":25094:25095   */\n      0x00\n        /* \"#utility.yul\":25086:25092   */\n      dup3\n        /* \"#utility.yul\":25082:25096   */\n      add\n        /* \"#utility.yul\":25075:25114   */\n      mstore\n        /* \"#utility.yul\":24958:25121   */\n      pop\n      jump\t// out\n        /* \"#utility.yul\":25127:25493   */\n    tag_348:\n        /* \"#utility.yul\":25269:25272   */\n      0x00\n        /* \"#utility.yul\":25290:25357   */\n      tag_564\n        /* \"#utility.yul\":25354:25356   */\n      0x0d\n        /* \"#utility.yul\":25349:25352   */\n      dup4\n        /* \"#utility.yul\":25290:25357   */\n      tag_309\n      jump\t// in\n    tag_564:\n        /* \"#utility.yul\":25283:25357   */\n      swap2\n      pop\n        /* \"#utility.yul\":25366:25459   */\n      tag_565\n        /* \"#utility.yul\":25455:25458   */\n      dup3\n        /* \"#utility.yul\":25366:25459   */\n      tag_347\n      jump\t// in\n    tag_565:\n        /* \"#utility.yul\":25484:25486   */\n      0x20\n        /* \"#utility.yul\":25479:25482   */\n      dup3\n        /* \"#utility.yul\":25475:25487   */\n      add\n        /* \"#utility.yul\":25468:25487   */\n      swap1\n      pop\n        /* \"#utility.yul\":25127:25493   */\n      swap2\n      swap1\n      pop\n      jump\t// out\n        /* \"#utility.yul\":25499:25918   */\n    tag_276:\n        /* \"#utility.yul\":25665:25669   */\n      0x00\n        /* \"#utility.yul\":25703:25705   */\n      0x20\n        /* \"#utility.yul\":25692:25701   */\n      dup3\n        /* \"#utility.yul\":25688:25706   */\n      add\n        /* \"#utility.yul\":25680:25706   */\n      swap1\n      pop\n        /* \"#utility.yul\":25752:25761   */\n      dup2\n        /* \"#utility.yul\":25746:25750   */\n      dup2\n        /* \"#utility.yul\":25742:25762   */\n      sub\n        /* \"#utility.yul\":25738:25739   */\n      0x00\n        /* \"#utility.yul\":25727:25736   */\n      dup4\n        /* \"#utility.yul\":25723:25740   */\n      add\n        /* \"#utility.yul\":25716:25763   */\n      mstore\n        /* \"#utility.yul\":25780:25911   */\n      tag_567\n        /* \"#utility.yul\":25906:25910   */\n      dup2\n        /* \"#utility.yul\":25780:25911   */\n      tag_348\n      jump\t// in\n    tag_567:\n        /* \"#utility.yul\":25772:25911   */\n      swap1\n      pop\n        /* \"#utility.yul\":25499:25918   */\n      swap2\n      swap1\n      pop\n      jump\t// out\n\n    auxdata: 0xa2646970667358221220914c9eb460b408780f479e2abe890b242580cf0ef393e2ad3fab248f352ef77564736f6c63430008110033\n}\n",
				"bytecode": {
					"linkReferences": {},
					"object": "60806040523480156200001157600080fd5b5060405162002c6438038062002c648339818101604052810190620000379190620001c6565b856000806101000a81548173ffffffffffffffffffffffffffffffffffffffff021916908373ffffffffffffffffffffffffffffffffffffffff1602179055508360018190555033600260006101000a81548173ffffffffffffffffffffffffffffffffffffffff021916908373ffffffffffffffffffffffffffffffffffffffff16021790555084600360006101000a81548173ffffffffffffffffffffffffffffffffffffffff021916908373ffffffffffffffffffffffffffffffffffffffff16021790555082600a81905550816004819055508060078190555050505050505062000262565b600080fd5b600073ffffffffffffffffffffffffffffffffffffffff82169050919050565b6000620001538262000126565b9050919050565b620001658162000146565b81146200017157600080fd5b50565b60008151905062000185816200015a565b92915050565b6000819050919050565b620001a0816200018b565b8114620001ac57600080fd5b50565b600081519050620001c08162000195565b92915050565b60008060008060008060c08789031215620001e657620001e562000121565b5b6000620001f689828a0162000174565b96505060206200020989828a0162000174565b95505060406200021c89828a01620001af565b94505060606200022f89828a01620001af565b93505060806200024289828a01620001af565b92505060a06200025589828a01620001af565b9150509295509295509295565b6129f280620002726000396000f3fe60806040526004361061014f5760003560e01c80635c975abb116100b6578063c6bc51821161006f578063c6bc518214610427578063ceb1641914610452578063d57bde7914610469578063ecefc70514610494578063fd231f8f146104bf578063fe67a54b146104e857610156565b80635c975abb146103385780636b64c769146103635780637cc3ae8c1461037a57806391f90157146103a557806395ecc5cc146103d0578063b9ae73641461041057610156565b80631f2698ab116101085780631f2698ab1461026d5780632aeee49314610298578063378252f2146102b45780633ccfd60b146102cb57806341275358146102e257806347ccca021461030d57610156565b806302097ab11461015857806308551a531461019657806312065fe0146101c157806312fa6feb146101ec57806317d531fc146102175780631df4ccfc1461024257610156565b3661015657005b005b34801561016457600080fd5b5061017f600480360381019061017a9190611dec565b6104ff565b60405161018d929190611e41565b60405180910390f35b3480156101a257600080fd5b506101ab610543565b6040516101b89190611e8b565b60405180910390f35b3480156101cd57600080fd5b506101d6610569565b6040516101e39190611ea6565b60405180910390f35b3480156101f857600080fd5b50610201610571565b60405161020e9190611edc565b60405180910390f35b34801561022357600080fd5b5061022c610584565b6040516102399190611ea6565b60405180910390f35b34801561024e57600080fd5b5061025761058a565b6040516102649190611ea6565b60405180910390f35b34801561027957600080fd5b50610282610590565b60405161028f9190611edc565b60405180910390f35b6102b260048036038101906102ad9190611f23565b6105a3565b005b3480156102c057600080fd5b506102c9610b15565b005b3480156102d757600080fd5b506102e06110ad565b005b3480156102ee57600080fd5b506102f76113c0565b6040516103049190611e8b565b60405180910390f35b34801561031957600080fd5b506103226113e6565b60405161032f9190611fe9565b60405180910390f35b34801561034457600080fd5b5061034d61140a565b60405161035a9190611edc565b60405180910390f35b34801561036f57600080fd5b5061037861141d565b005b34801561038657600080fd5b5061038f6115d7565b60405161039c9190611ea6565b60405180910390f35b3480156103b157600080fd5b506103ba6115dd565b6040516103c79190612004565b60405180910390f35b3480156103dc57600080fd5b506103f760048036038101906103f29190611dec565b611603565b604051610407949392919061201f565b60405180910390f35b34801561041c57600080fd5b50610425611633565b005b34801561043357600080fd5b5061043c611767565b6040516104499190611ea6565b60405180910390f35b34801561045e57600080fd5b5061046761176d565b005b34801561047557600080fd5b5061047e6118a0565b60405161048b9190611ea6565b60405180910390f35b3480156104a057600080fd5b506104a96118a6565b6040516104b69190611ea6565b60405180910390f35b3480156104cb57600080fd5b506104e660048036038101906104e1919061209d565b6118ac565b005b3480156104f457600080fd5b506104fd611a92565b005b600c6020528060005260406000206000915090508060000160009054906101000a900473ffffffffffffffffffffffffffffffffffffffff16908060010154905082565b600260009054906101000a900473ffffffffffffffffffffffffffffffffffffffff1681565b600047905090565b600560019054906101000a900460ff1681565b60065481565b60085481565b600560009054906101000a900460ff1681565b600560009054906101000a900460ff166105f2576040517f08c379a00000000000000000000000000000000000000000000000000000000081526004016105e99061213a565b60405180910390fd5b600560029054906101000a900460ff1615610642576040517f08c379a0000000000000000000000000000000000000000000000000000000008152600401610639906121a6565b60405180910390fd5b6004544210610686576040517f08c379a000000000000000000000000000000000000000000000000000000000815260040161067d90612212565b60405180910390fd5b600a5434116106ca576040517f08c379a00000000000000000000000000000000000000000000000000000000081526004016106c19061227e565b60405180910390fd5b600260009054906101000a900473ffffffffffffffffffffffffffffffffffffffff1673ffffffffffffffffffffffffffffffffffffffff163373ffffffffffffffffffffffffffffffffffffffff160361075a576040517f08c379a0000000000000000000000000000000000000000000000000000000008152600401610751906122ea565b60405180910390fd5b60006007546127108661076d9190612368565b6107779190612399565b9050806008600082825461078b91906123db565b92505081905550610822600960009054906101000a900473ffffffffffffffffffffffffffffffffffffffff16600b6000600960009054906101000a900473ffffffffffffffffffffffffffffffffffffffff1673ffffffffffffffffffffffffffffffffffffffff1673ffffffffffffffffffffffffffffffffffffffff16815260200190815260200160002060000154611c80565b6000600b60003373ffffffffffffffffffffffffffffffffffffffff1673ffffffffffffffffffffffffffffffffffffffff1681526020019081526020016000206000015414610998578085610878919061240f565b600b60003373ffffffffffffffffffffffffffffffffffffffff1673ffffffffffffffffffffffffffffffffffffffff1681526020019081526020016000206000018190555083600b60003373ffffffffffffffffffffffffffffffffffffffff1673ffffffffffffffffffffffffffffffffffffffff1681526020019081526020016000206001018190555082600b60003373ffffffffffffffffffffffffffffffffffffffff1673ffffffffffffffffffffffffffffffffffffffff1681526020019081526020016000206002018190555081600b60003373ffffffffffffffffffffffffffffffffffffffff1673ffffffffffffffffffffffffffffffffffffffff16815260200190815260200160002060030181905550610a5e565b6109a0611d31565b81866109ac919061240f565b816000018181516109bd91906123db565b9150818152505084816020018181516109d691906123db565b91508181525050838160400181815250508281606001818152505080600b60003373ffffffffffffffffffffffffffffffffffffffff1673ffffffffffffffffffffffffffffffffffffffff16815260200190815260200160002060008201518160000155602082015181600101556040820151816002015560608201518160030155905050505b33600960006101000a81548173ffffffffffffffffffffffffffffffffffffffff021916908373ffffffffffffffffffffffffffffffffffffffff16021790555034600a81905550600160066000828254610ab991906123db565b925050819055503373ffffffffffffffffffffffffffffffffffffffff167fe684a55f31b79eca403df938249029212a5925ec6be8012e099b45bc1019e5d234604051610b069190611ea6565b60405180910390a25050505050565b600260009054906101000a900473ffffffffffffffffffffffffffffffffffffffff1673ffffffffffffffffffffffffffffffffffffffff163373ffffffffffffffffffffffffffffffffffffffff1614610ba5576040517f08c379a0000000000000000000000000000000000000000000000000000000008152600401610b9c9061248f565b60405180910390fd5b600073ffffffffffffffffffffffffffffffffffffffff16600960009054906101000a900473ffffffffffffffffffffffffffffffffffffffff1673ffffffffffffffffffffffffffffffffffffffff1614610e555760008054906101000a900473ffffffffffffffffffffffffffffffffffffffff1673ffffffffffffffffffffffffffffffffffffffff166342842e0e30600960009054906101000a900473ffffffffffffffffffffffffffffffffffffffff166001546040518463ffffffff1660e01b8152600401610c7c939291906124af565b600060405180830381600087803b158015610c9657600080fd5b505af1158015610caa573d6000803e3d6000fd5b505050506000600360009054906101000a900473ffffffffffffffffffffffffffffffffffffffff1673ffffffffffffffffffffffffffffffffffffffff16600854604051610cf890612517565b60006040518083038185875af1925050503d8060008114610d35576040519150601f19603f3d011682016040523d82523d6000602084013e610d3a565b606091505b5050905080610d7e576040517f08c379a0000000000000000000000000000000000000000000000000000000008152600401610d7590612578565b60405180910390fd5b6000600260009054906101000a900473ffffffffffffffffffffffffffffffffffffffff1673ffffffffffffffffffffffffffffffffffffffff16600a54604051610dc890612517565b60006040518083038185875af1925050503d8060008114610e05576040519150601f19603f3d011682016040523d82523d6000602084013e610e0a565b606091505b5050905080610e4e576040517f08c379a0000000000000000000000000000000000000000000000000000000008152600401610e45906125e4565b60405180910390fd5b50506110ab565b60008054906101000a900473ffffffffffffffffffffffffffffffffffffffff1673ffffffffffffffffffffffffffffffffffffffff166342842e0e30600260009054906101000a900473ffffffffffffffffffffffffffffffffffffffff166001546040518463ffffffff1660e01b8152600401610ed693929190612625565b600060405180830381600087803b158015610ef057600080fd5b505af1158015610f04573d6000803e3d6000fd5b505050506000600360009054906101000a900473ffffffffffffffffffffffffffffffffffffffff1673ffffffffffffffffffffffffffffffffffffffff16600854604051610f5290612517565b60006040518083038185875af1925050503d8060008114610f8f576040519150601f19603f3d011682016040523d82523d6000602084013e610f94565b606091505b5050905080610fd8576040517f08c379a0000000000000000000000000000000000000000000000000000000008152600401610fcf90612578565b60405180910390fd5b6000600260009054906101000a900473ffffffffffffffffffffffffffffffffffffffff1673ffffffffffffffffffffffffffffffffffffffff16600a5460405161102290612517565b60006040518083038185875af1925050503d806000811461105f576040519150601f19603f3d011682016040523d82523d6000602084013e611064565b606091505b50509050806110a8576040517f08c379a000000000000000000000000000000000000000000000000000000000815260040161109f906125e4565b60405180910390fd5b50505b565b600960009054906101000a900473ffffffffffffffffffffffffffffffffffffffff1673ffffffffffffffffffffffffffffffffffffffff163373ffffffffffffffffffffffffffffffffffffffff160361113d576040517f08c379a0000000000000000000000000000000000000000000000000000000008152600401611134906126a8565b60405180910390fd5b6000600b60003373ffffffffffffffffffffffffffffffffffffffff1673ffffffffffffffffffffffffffffffffffffffff16815260200190815260200160002060000154036111c2576040517f08c379a00000000000000000000000000000000000000000000000000000000081526004016111b990612714565b60405180910390fd5b61120e33600b60003373ffffffffffffffffffffffffffffffffffffffff1673ffffffffffffffffffffffffffffffffffffffff16815260200190815260200160002060000154611c80565b6000600b60003373ffffffffffffffffffffffffffffffffffffffff1673ffffffffffffffffffffffffffffffffffffffff168152602001908152602001600020600001819055506000600b60003373ffffffffffffffffffffffffffffffffffffffff1673ffffffffffffffffffffffffffffffffffffffff168152602001908152602001600020600101819055506000600b60003373ffffffffffffffffffffffffffffffffffffffff1673ffffffffffffffffffffffffffffffffffffffff168152602001908152602001600020600201819055506000600b60003373ffffffffffffffffffffffffffffffffffffffff1673ffffffffffffffffffffffffffffffffffffffff168152602001908152602001600020600301819055503373ffffffffffffffffffffffffffffffffffffffff167f884edad9ce6fa2440d8a54cc123490eb96d2768479d49ff9c7366125a9424364600b60003373ffffffffffffffffffffffffffffffffffffffff1673ffffffffffffffffffffffffffffffffffffffff168152602001908152602001600020600001546040516113b69190611ea6565b60405180910390a2565b600360009054906101000a900473ffffffffffffffffffffffffffffffffffffffff1681565b60008054906101000a900473ffffffffffffffffffffffffffffffffffffffff1681565b600560029054906101000a900460ff1681565b600260009054906101000a900473ffffffffffffffffffffffffffffffffffffffff1673ffffffffffffffffffffffffffffffffffffffff163373ffffffffffffffffffffffffffffffffffffffff16146114ad576040517f08c379a00000000000000000000000000000000000000000000000000000000081526004016114a49061248f565b60405180910390fd5b600560009054906101000a900460ff16156114fd576040517f08c379a00000000000000000000000000000000000000000000000000000000081526004016114f490612780565b60405180910390fd5b60008054906101000a900473ffffffffffffffffffffffffffffffffffffffff1673ffffffffffffffffffffffffffffffffffffffff166323b872dd33306001546040518463ffffffff1660e01b815260040161155c939291906124af565b600060405180830381600087803b15801561157657600080fd5b505af115801561158a573d6000803e3d6000fd5b505050506001600560006101000a81548160ff0219169083151502179055507fd295ebf0a48a9a43d600a6ecb8626baa711d5750dec13a08145013aa30cb92ea60405160405180910390a1565b60045481565b600960009054906101000a900473ffffffffffffffffffffffffffffffffffffffff1681565b600b6020528060005260406000206000915090508060000154908060010154908060020154908060030154905084565b600260009054906101000a900473ffffffffffffffffffffffffffffffffffffffff1673ffffffffffffffffffffffffffffffffffffffff163373ffffffffffffffffffffffffffffffffffffffff16146116c3576040517f08c379a00000000000000000000000000000000000000000000000000000000081526004016116ba9061248f565b60405180910390fd5b600560029054906101000a900460ff1615611713576040517f08c379a000000000000000000000000000000000000000000000000000000000815260040161170a906127ec565b60405180910390fd5b6001600560026101000a81548160ff0219169083151502179055507fdee06086e53b718fd5176fdaa88a207819a06a56b42087ac2cab84d32a3356543360405161175d9190612004565b60405180910390a1565b60015481565b600260009054906101000a900473ffffffffffffffffffffffffffffffffffffffff1673ffffffffffffffffffffffffffffffffffffffff163373ffffffffffffffffffffffffffffffffffffffff16146117fd576040517f08c379a00000000000000000000000000000000000000000000000000000000081526004016117f49061248f565b60405180910390fd5b600560029054906101000a900460ff1661184c576040517f08c379a000000000000000000000000000000000000000000000000000000000815260040161184390612858565b60405180910390fd5b6000600560026101000a81548160ff0219169083151502179055507fc1a02e947cf77134ed09ac0692636f0553306db51ffe4a1d9e7b51b4dcd9c762336040516118969190612004565b60405180910390a1565b600a5481565b61271081565b600260009054906101000a900473ffffffffffffffffffffffffffffffffffffffff1673ffffffffffffffffffffffffffffffffffffffff163373ffffffffffffffffffffffffffffffffffffffff161461193c576040517f08c379a00000000000000000000000000000000000000000000000000000000081526004016119339061248f565b60405180910390fd5b60648160ff1660075461194f91906123db565b1115611990576040517f08c379a0000000000000000000000000000000000000000000000000000000008152600401611987906128c4565b60405180910390fd5b611998611d59565b82816000019073ffffffffffffffffffffffffffffffffffffffff16908173ffffffffffffffffffffffffffffffffffffffff16815250508160ff168160200181815250508160ff16600760008282546119f291906123db565b9250508190555080600c60003373ffffffffffffffffffffffffffffffffffffffff1673ffffffffffffffffffffffffffffffffffffffff16815260200190815260200160002060008201518160000160006101000a81548173ffffffffffffffffffffffffffffffffffffffff021916908373ffffffffffffffffffffffffffffffffffffffff16021790555060208201518160010155905050505050565b600260009054906101000a900473ffffffffffffffffffffffffffffffffffffffff1673ffffffffffffffffffffffffffffffffffffffff163373ffffffffffffffffffffffffffffffffffffffff1614611b22576040517f08c379a0000000000000000000000000000000000000000000000000000000008152600401611b199061248f565b60405180910390fd5b600560009054906101000a900460ff16611b71576040517f08c379a0000000000000000000000000000000000000000000000000000000008152600401611b689061213a565b60405180910390fd5b600454421015611bb6576040517f08c379a0000000000000000000000000000000000000000000000000000000008152600401611bad90612930565b60405180910390fd5b600560019054906101000a900460ff1615611c06576040517f08c379a0000000000000000000000000000000000000000000000000000000008152600401611bfd9061299c565b60405180910390fd5b6001600560016101000a81548160ff0219169083151502179055507fca09734d1fc32150404dc9252b4d991c6bee44319031b7159c03d5ae2c062704600960009054906101000a900473ffffffffffffffffffffffffffffffffffffffff16600a54604051611c76929190611e41565b60405180910390a1565b60008273ffffffffffffffffffffffffffffffffffffffff1682604051611ca690612517565b60006040518083038185875af1925050503d8060008114611ce3576040519150601f19603f3d011682016040523d82523d6000602084013e611ce8565b606091505b5050905080611d2c576040517f08c379a0000000000000000000000000000000000000000000000000000000008152600401611d23906125e4565b60405180910390fd5b505050565b6040518060800160405280600081526020016000815260200160008152602001600081525090565b6040518060400160405280600073ffffffffffffffffffffffffffffffffffffffff168152602001600081525090565b600080fd5b600073ffffffffffffffffffffffffffffffffffffffff82169050919050565b6000611db982611d8e565b9050919050565b611dc981611dae565b8114611dd457600080fd5b50565b600081359050611de681611dc0565b92915050565b600060208284031215611e0257611e01611d89565b5b6000611e1084828501611dd7565b91505092915050565b611e2281611dae565b82525050565b6000819050919050565b611e3b81611e28565b82525050565b6000604082019050611e566000830185611e19565b611e636020830184611e32565b9392505050565b6000611e7582611d8e565b9050919050565b611e8581611e6a565b82525050565b6000602082019050611ea06000830184611e7c565b92915050565b6000602082019050611ebb6000830184611e32565b92915050565b60008115159050919050565b611ed681611ec1565b82525050565b6000602082019050611ef16000830184611ecd565b92915050565b611f0081611e28565b8114611f0b57600080fd5b50565b600081359050611f1d81611ef7565b92915050565b60008060008060808587031215611f3d57611f3c611d89565b5b6000611f4b87828801611f0e565b9450506020611f5c87828801611f0e565b9350506040611f6d87828801611f0e565b9250506060611f7e87828801611f0e565b91505092959194509250565b6000819050919050565b6000611faf611faa611fa584611d8e565b611f8a565b611d8e565b9050919050565b6000611fc182611f94565b9050919050565b6000611fd382611fb6565b9050919050565b611fe381611fc8565b82525050565b6000602082019050611ffe6000830184611fda565b92915050565b60006020820190506120196000830184611e19565b92915050565b60006080820190506120346000830187611e32565b6120416020830186611e32565b61204e6040830185611e32565b61205b6060830184611e32565b95945050505050565b600060ff82169050919050565b61207a81612064565b811461208557600080fd5b50565b60008135905061209781612071565b92915050565b600080604083850312156120b4576120b3611d89565b5b60006120c285828601611dd7565b92505060206120d385828601612088565b9150509250929050565b600082825260208201905092915050565b7f4e6f742053746172746564205965740000000000000000000000000000000000600082015250565b6000612124600f836120dd565b915061212f826120ee565b602082019050919050565b6000602082019050818103600083015261215381612117565b9050919050565b7f41756374696f6e20506175736564000000000000000000000000000000000000600082015250565b6000612190600e836120dd565b915061219b8261215a565b602082019050919050565b600060208201905081810360008301526121bf81612183565b9050919050565b7f416c726561647920656e64656400000000000000000000000000000000000000600082015250565b60006121fc600d836120dd565b9150612207826121c6565b602082019050919050565b6000602082019050818103600083015261222b816121ef565b9050919050565b7f4c6f776572204269640000000000000000000000000000000000000000000000600082015250565b60006122686009836120dd565b915061227382612232565b602082019050919050565b600060208201905081810360008301526122978161225b565b9050919050565b7f53656c6c6572206e6f7420616c6c6f7765640000000000000000000000000000600082015250565b60006122d46012836120dd565b91506122df8261229e565b602082019050919050565b60006020820190508181036000830152612303816122c7565b9050919050565b7f4e487b7100000000000000000000000000000000000000000000000000000000600052601260045260246000fd5b7f4e487b7100000000000000000000000000000000000000000000000000000000600052601160045260246000fd5b600061237382611e28565b915061237e83611e28565b92508261238e5761238d61230a565b5b828204905092915050565b60006123a482611e28565b91506123af83611e28565b92508282026123bd81611e28565b915082820484148315176123d4576123d3612339565b5b5092915050565b60006123e682611e28565b91506123f183611e28565b925082820190508082111561240957612408612339565b5b92915050565b600061241a82611e28565b915061242583611e28565b925082820390508181111561243d5761243c612339565b5b92915050565b7f53656e646572206973206e6f74206f776e657200000000000000000000000000600082015250565b60006124796013836120dd565b915061248482612443565b602082019050919050565b600060208201905081810360008301526124a88161246c565b9050919050565b60006060820190506124c46000830186611e19565b6124d16020830185611e19565b6124de6040830184611e32565b949350505050565b600081905092915050565b50565b60006125016000836124e6565b915061250c826124f1565b600082019050919050565b6000612522826124f4565b9150819050919050565b7f52657475726e206665652066756e6473206661696c6564000000000000000000600082015250565b60006125626017836120dd565b915061256d8261252c565b602082019050919050565b6000602082019050818103600083015261259181612555565b9050919050565b7f52657475726e2066756e6473206661696c656400000000000000000000000000600082015250565b60006125ce6013836120dd565b91506125d982612598565b602082019050919050565b600060208201905081810360008301526125fd816125c1565b9050919050565b600061260f82611fb6565b9050919050565b61261f81612604565b82525050565b600060608201905061263a6000830186611e19565b6126476020830185612616565b6126546040830184611e32565b949350505050565b7f596f757220426964206973207468652068696768657200000000000000000000600082015250565b60006126926016836120dd565b915061269d8261265c565b602082019050919050565b600060208201905081810360008301526126c181612685565b9050919050565b7f4e6f206269647320666f756e6465640000000000000000000000000000000000600082015250565b60006126fe600f836120dd565b9150612709826126c8565b602082019050919050565b6000602082019050818103600083015261272d816126f1565b9050919050565b7f416c726561647920537461727465640000000000000000000000000000000000600082015250565b600061276a600f836120dd565b915061277582612734565b602082019050919050565b600060208201905081810360008301526127998161275d565b9050919050565b7f416c726561647920506175736564000000000000000000000000000000000000600082015250565b60006127d6600e836120dd565b91506127e1826127a0565b602082019050919050565b60006020820190508181036000830152612805816127c9565b9050919050565b7f416c72656164792052756e6e696e670000000000000000000000000000000000600082015250565b6000612842600f836120dd565b915061284d8261280c565b602082019050919050565b6000602082019050818103600083015261287181612835565b9050919050565b7f31303025206f66207468652066656520616c726561647920616c6f6361746564600082015250565b60006128ae6020836120dd565b91506128b982612878565b602082019050919050565b600060208201905081810360008301526128dd816128a1565b9050919050565b7f4e6f7420456e6465640000000000000000000000000000000000000000000000600082015250565b600061291a6009836120dd565b9150612925826128e4565b602082019050919050565b600060208201905081810360008301526129498161290d565b9050919050565b7f416c726561647920456e64656400000000000000000000000000000000000000600082015250565b6000612986600d836120dd565b915061299182612950565b602082019050919050565b600060208201905081810360008301526129b581612979565b905091905056fea2646970667358221220914c9eb460b408780f479e2abe890b242580cf0ef393e2ad3fab248f352ef77564736f6c63430008110033",
					"opcodes": "PUSH1 0x80 PUSH1 0x40 MSTORE CALLVALUE DUP1 ISZERO PUSH3 0x11 JUMPI PUSH1 0x0 DUP1 REVERT JUMPDEST POP PUSH1 0x40 MLOAD PUSH3 0x2C64 CODESIZE SUB DUP1 PUSH3 0x2C64 DUP4 CODECOPY DUP2 DUP2 ADD PUSH1 0x40 MSTORE DUP2 ADD SWAP1 PUSH3 0x37 SWAP2 SWAP1 PUSH3 0x1C6 JUMP JUMPDEST DUP6 PUSH1 0x0 DUP1 PUSH2 0x100 EXP DUP2 SLOAD DUP2 PUSH20 0xFFFFFFFFFFFFFFFFFFFFFFFFFFFFFFFFFFFFFFFF MUL NOT AND SWAP1 DUP4 PUSH20 0xFFFFFFFFFFFFFFFFFFFFFFFFFFFFFFFFFFFFFFFF AND MUL OR SWAP1 SSTORE POP DUP4 PUSH1 0x1 DUP2 SWAP1 SSTORE POP CALLER PUSH1 0x2 PUSH1 0x0 PUSH2 0x100 EXP DUP2 SLOAD DUP2 PUSH20 0xFFFFFFFFFFFFFFFFFFFFFFFFFFFFFFFFFFFFFFFF MUL NOT AND SWAP1 DUP4 PUSH20 0xFFFFFFFFFFFFFFFFFFFFFFFFFFFFFFFFFFFFFFFF AND MUL OR SWAP1 SSTORE POP DUP5 PUSH1 0x3 PUSH1 0x0 PUSH2 0x100 EXP DUP2 SLOAD DUP2 PUSH20 0xFFFFFFFFFFFFFFFFFFFFFFFFFFFFFFFFFFFFFFFF MUL NOT AND SWAP1 DUP4 PUSH20 0xFFFFFFFFFFFFFFFFFFFFFFFFFFFFFFFFFFFFFFFF AND MUL OR SWAP1 SSTORE POP DUP3 PUSH1 0xA DUP2 SWAP1 SSTORE POP DUP2 PUSH1 0x4 DUP2 SWAP1 SSTORE POP DUP1 PUSH1 0x7 DUP2 SWAP1 SSTORE POP POP POP POP POP POP POP PUSH3 0x262 JUMP JUMPDEST PUSH1 0x0 DUP1 REVERT JUMPDEST PUSH1 0x0 PUSH20 0xFFFFFFFFFFFFFFFFFFFFFFFFFFFFFFFFFFFFFFFF DUP3 AND SWAP1 POP SWAP2 SWAP1 POP JUMP JUMPDEST PUSH1 0x0 PUSH3 0x153 DUP3 PUSH3 0x126 JUMP JUMPDEST SWAP1 POP SWAP2 SWAP1 POP JUMP JUMPDEST PUSH3 0x165 DUP2 PUSH3 0x146 JUMP JUMPDEST DUP2 EQ PUSH3 0x171 JUMPI PUSH1 0x0 DUP1 REVERT JUMPDEST POP JUMP JUMPDEST PUSH1 0x0 DUP2 MLOAD SWAP1 POP PUSH3 0x185 DUP2 PUSH3 0x15A JUMP JUMPDEST SWAP3 SWAP2 POP POP JUMP JUMPDEST PUSH1 0x0 DUP2 SWAP1 POP SWAP2 SWAP1 POP JUMP JUMPDEST PUSH3 0x1A0 DUP2 PUSH3 0x18B JUMP JUMPDEST DUP2 EQ PUSH3 0x1AC JUMPI PUSH1 0x0 DUP1 REVERT JUMPDEST POP JUMP JUMPDEST PUSH1 0x0 DUP2 MLOAD SWAP1 POP PUSH3 0x1C0 DUP2 PUSH3 0x195 JUMP JUMPDEST SWAP3 SWAP2 POP POP JUMP JUMPDEST PUSH1 0x0 DUP1 PUSH1 0x0 DUP1 PUSH1 0x0 DUP1 PUSH1 0xC0 DUP8 DUP10 SUB SLT ISZERO PUSH3 0x1E6 JUMPI PUSH3 0x1E5 PUSH3 0x121 JUMP JUMPDEST JUMPDEST PUSH1 0x0 PUSH3 0x1F6 DUP10 DUP3 DUP11 ADD PUSH3 0x174 JUMP JUMPDEST SWAP7 POP POP PUSH1 0x20 PUSH3 0x209 DUP10 DUP3 DUP11 ADD PUSH3 0x174 JUMP JUMPDEST SWAP6 POP POP PUSH1 0x40 PUSH3 0x21C DUP10 DUP3 DUP11 ADD PUSH3 0x1AF JUMP JUMPDEST SWAP5 POP POP PUSH1 0x60 PUSH3 0x22F DUP10 DUP3 DUP11 ADD PUSH3 0x1AF JUMP JUMPDEST SWAP4 POP POP PUSH1 0x80 PUSH3 0x242 DUP10 DUP3 DUP11 ADD PUSH3 0x1AF JUMP JUMPDEST SWAP3 POP POP PUSH1 0xA0 PUSH3 0x255 DUP10 DUP3 DUP11 ADD PUSH3 0x1AF JUMP JUMPDEST SWAP2 POP POP SWAP3 SWAP6 POP SWAP3 SWAP6 POP SWAP3 SWAP6 JUMP JUMPDEST PUSH2 0x29F2 DUP1 PUSH3 0x272 PUSH1 0x0 CODECOPY PUSH1 0x0 RETURN INVALID PUSH1 0x80 PUSH1 0x40 MSTORE PUSH1 0x4 CALLDATASIZE LT PUSH2 0x14F JUMPI PUSH1 0x0 CALLDATALOAD PUSH1 0xE0 SHR DUP1 PUSH4 0x5C975ABB GT PUSH2 0xB6 JUMPI DUP1 PUSH4 0xC6BC5182 GT PUSH2 0x6F JUMPI DUP1 PUSH4 0xC6BC5182 EQ PUSH2 0x427 JUMPI DUP1 PUSH4 0xCEB16419 EQ PUSH2 0x452 JUMPI DUP1 PUSH4 0xD57BDE79 EQ PUSH2 0x469 JUMPI DUP1 PUSH4 0xECEFC705 EQ PUSH2 0x494 JUMPI DUP1 PUSH4 0xFD231F8F EQ PUSH2 0x4BF JUMPI DUP1 PUSH4 0xFE67A54B EQ PUSH2 0x4E8 JUMPI PUSH2 0x156 JUMP JUMPDEST DUP1 PUSH4 0x5C975ABB EQ PUSH2 0x338 JUMPI DUP1 PUSH4 0x6B64C769 EQ PUSH2 0x363 JUMPI DUP1 PUSH4 0x7CC3AE8C EQ PUSH2 0x37A JUMPI DUP1 PUSH4 0x91F90157 EQ PUSH2 0x3A5 JUMPI DUP1 PUSH4 0x95ECC5CC EQ PUSH2 0x3D0 JUMPI DUP1 PUSH4 0xB9AE7364 EQ PUSH2 0x410 JUMPI PUSH2 0x156 JUMP JUMPDEST DUP1 PUSH4 0x1F2698AB GT PUSH2 0x108 JUMPI DUP1 PUSH4 0x1F2698AB EQ PUSH2 0x26D JUMPI DUP1 PUSH4 0x2AEEE493 EQ PUSH2 0x298 JUMPI DUP1 PUSH4 0x378252F2 EQ PUSH2 0x2B4 JUMPI DUP1 PUSH4 0x3CCFD60B EQ PUSH2 0x2CB JUMPI DUP1 PUSH4 0x41275358 EQ PUSH2 0x2E2 JUMPI DUP1 PUSH4 0x47CCCA02 EQ PUSH2 0x30D JUMPI PUSH2 0x156 JUMP JUMPDEST DUP1 PUSH4 0x2097AB1 EQ PUSH2 0x158 JUMPI DUP1 PUSH4 0x8551A53 EQ PUSH2 0x196 JUMPI DUP1 PUSH4 0x12065FE0 EQ PUSH2 0x1C1 JUMPI DUP1 PUSH4 0x12FA6FEB EQ PUSH2 0x1EC JUMPI DUP1 PUSH4 0x17D531FC EQ PUSH2 0x217 JUMPI DUP1 PUSH4 0x1DF4CCFC EQ PUSH2 0x242 JUMPI PUSH2 0x156 JUMP JUMPDEST CALLDATASIZE PUSH2 0x156 JUMPI STOP JUMPDEST STOP JUMPDEST CALLVALUE DUP1 ISZERO PUSH2 0x164 JUMPI PUSH1 0x0 DUP1 REVERT JUMPDEST POP PUSH2 0x17F PUSH1 0x4 DUP1 CALLDATASIZE SUB DUP2 ADD SWAP1 PUSH2 0x17A SWAP2 SWAP1 PUSH2 0x1DEC JUMP JUMPDEST PUSH2 0x4FF JUMP JUMPDEST PUSH1 0x40 MLOAD PUSH2 0x18D SWAP3 SWAP2 SWAP1 PUSH2 0x1E41 JUMP JUMPDEST PUSH1 0x40 MLOAD DUP1 SWAP2 SUB SWAP1 RETURN JUMPDEST CALLVALUE DUP1 ISZERO PUSH2 0x1A2 JUMPI PUSH1 0x0 DUP1 REVERT JUMPDEST POP PUSH2 0x1AB PUSH2 0x543 JUMP JUMPDEST PUSH1 0x40 MLOAD PUSH2 0x1B8 SWAP2 SWAP1 PUSH2 0x1E8B JUMP JUMPDEST PUSH1 0x40 MLOAD DUP1 SWAP2 SUB SWAP1 RETURN JUMPDEST CALLVALUE DUP1 ISZERO PUSH2 0x1CD JUMPI PUSH1 0x0 DUP1 REVERT JUMPDEST POP PUSH2 0x1D6 PUSH2 0x569 JUMP JUMPDEST PUSH1 0x40 MLOAD PUSH2 0x1E3 SWAP2 SWAP1 PUSH2 0x1EA6 JUMP JUMPDEST PUSH1 0x40 MLOAD DUP1 SWAP2 SUB SWAP1 RETURN JUMPDEST CALLVALUE DUP1 ISZERO PUSH2 0x1F8 JUMPI PUSH1 0x0 DUP1 REVERT JUMPDEST POP PUSH2 0x201 PUSH2 0x571 JUMP JUMPDEST PUSH1 0x40 MLOAD PUSH2 0x20E SWAP2 SWAP1 PUSH2 0x1EDC JUMP JUMPDEST PUSH1 0x40 MLOAD DUP1 SWAP2 SUB SWAP1 RETURN JUMPDEST CALLVALUE DUP1 ISZERO PUSH2 0x223 JUMPI PUSH1 0x0 DUP1 REVERT JUMPDEST POP PUSH2 0x22C PUSH2 0x584 JUMP JUMPDEST PUSH1 0x40 MLOAD PUSH2 0x239 SWAP2 SWAP1 PUSH2 0x1EA6 JUMP JUMPDEST PUSH1 0x40 MLOAD DUP1 SWAP2 SUB SWAP1 RETURN JUMPDEST CALLVALUE DUP1 ISZERO PUSH2 0x24E JUMPI PUSH1 0x0 DUP1 REVERT JUMPDEST POP PUSH2 0x257 PUSH2 0x58A JUMP JUMPDEST PUSH1 0x40 MLOAD PUSH2 0x264 SWAP2 SWAP1 PUSH2 0x1EA6 JUMP JUMPDEST PUSH1 0x40 MLOAD DUP1 SWAP2 SUB SWAP1 RETURN JUMPDEST CALLVALUE DUP1 ISZERO PUSH2 0x279 JUMPI PUSH1 0x0 DUP1 REVERT JUMPDEST POP PUSH2 0x282 PUSH2 0x590 JUMP JUMPDEST PUSH1 0x40 MLOAD PUSH2 0x28F SWAP2 SWAP1 PUSH2 0x1EDC JUMP JUMPDEST PUSH1 0x40 MLOAD DUP1 SWAP2 SUB SWAP1 RETURN JUMPDEST PUSH2 0x2B2 PUSH1 0x4 DUP1 CALLDATASIZE SUB DUP2 ADD SWAP1 PUSH2 0x2AD SWAP2 SWAP1 PUSH2 0x1F23 JUMP JUMPDEST PUSH2 0x5A3 JUMP JUMPDEST STOP JUMPDEST CALLVALUE DUP1 ISZERO PUSH2 0x2C0 JUMPI PUSH1 0x0 DUP1 REVERT JUMPDEST POP PUSH2 0x2C9 PUSH2 0xB15 JUMP JUMPDEST STOP JUMPDEST CALLVALUE DUP1 ISZERO PUSH2 0x2D7 JUMPI PUSH1 0x0 DUP1 REVERT JUMPDEST POP PUSH2 0x2E0 PUSH2 0x10AD JUMP JUMPDEST STOP JUMPDEST CALLVALUE DUP1 ISZERO PUSH2 0x2EE JUMPI PUSH1 0x0 DUP1 REVERT JUMPDEST POP PUSH2 0x2F7 PUSH2 0x13C0 JUMP JUMPDEST PUSH1 0x40 MLOAD PUSH2 0x304 SWAP2 SWAP1 PUSH2 0x1E8B JUMP JUMPDEST PUSH1 0x40 MLOAD DUP1 SWAP2 SUB SWAP1 RETURN JUMPDEST CALLVALUE DUP1 ISZERO PUSH2 0x319 JUMPI PUSH1 0x0 DUP1 REVERT JUMPDEST POP PUSH2 0x322 PUSH2 0x13E6 JUMP JUMPDEST PUSH1 0x40 MLOAD PUSH2 0x32F SWAP2 SWAP1 PUSH2 0x1FE9 JUMP JUMPDEST PUSH1 0x40 MLOAD DUP1 SWAP2 SUB SWAP1 RETURN JUMPDEST CALLVALUE DUP1 ISZERO PUSH2 0x344 JUMPI PUSH1 0x0 DUP1 REVERT JUMPDEST POP PUSH2 0x34D PUSH2 0x140A JUMP JUMPDEST PUSH1 0x40 MLOAD PUSH2 0x35A SWAP2 SWAP1 PUSH2 0x1EDC JUMP JUMPDEST PUSH1 0x40 MLOAD DUP1 SWAP2 SUB SWAP1 RETURN JUMPDEST CALLVALUE DUP1 ISZERO PUSH2 0x36F JUMPI PUSH1 0x0 DUP1 REVERT JUMPDEST POP PUSH2 0x378 PUSH2 0x141D JUMP JUMPDEST STOP JUMPDEST CALLVALUE DUP1 ISZERO PUSH2 0x386 JUMPI PUSH1 0x0 DUP1 REVERT JUMPDEST POP PUSH2 0x38F PUSH2 0x15D7 JUMP JUMPDEST PUSH1 0x40 MLOAD PUSH2 0x39C SWAP2 SWAP1 PUSH2 0x1EA6 JUMP JUMPDEST PUSH1 0x40 MLOAD DUP1 SWAP2 SUB SWAP1 RETURN JUMPDEST CALLVALUE DUP1 ISZERO PUSH2 0x3B1 JUMPI PUSH1 0x0 DUP1 REVERT JUMPDEST POP PUSH2 0x3BA PUSH2 0x15DD JUMP JUMPDEST PUSH1 0x40 MLOAD PUSH2 0x3C7 SWAP2 SWAP1 PUSH2 0x2004 JUMP JUMPDEST PUSH1 0x40 MLOAD DUP1 SWAP2 SUB SWAP1 RETURN JUMPDEST CALLVALUE DUP1 ISZERO PUSH2 0x3DC JUMPI PUSH1 0x0 DUP1 REVERT JUMPDEST POP PUSH2 0x3F7 PUSH1 0x4 DUP1 CALLDATASIZE SUB DUP2 ADD SWAP1 PUSH2 0x3F2 SWAP2 SWAP1 PUSH2 0x1DEC JUMP JUMPDEST PUSH2 0x1603 JUMP JUMPDEST PUSH1 0x40 MLOAD PUSH2 0x407 SWAP5 SWAP4 SWAP3 SWAP2 SWAP1 PUSH2 0x201F JUMP JUMPDEST PUSH1 0x40 MLOAD DUP1 SWAP2 SUB SWAP1 RETURN JUMPDEST CALLVALUE DUP1 ISZERO PUSH2 0x41C JUMPI PUSH1 0x0 DUP1 REVERT JUMPDEST POP PUSH2 0x425 PUSH2 0x1633 JUMP JUMPDEST STOP JUMPDEST CALLVALUE DUP1 ISZERO PUSH2 0x433 JUMPI PUSH1 0x0 DUP1 REVERT JUMPDEST POP PUSH2 0x43C PUSH2 0x1767 JUMP JUMPDEST PUSH1 0x40 MLOAD PUSH2 0x449 SWAP2 SWAP1 PUSH2 0x1EA6 JUMP JUMPDEST PUSH1 0x40 MLOAD DUP1 SWAP2 SUB SWAP1 RETURN JUMPDEST CALLVALUE DUP1 ISZERO PUSH2 0x45E JUMPI PUSH1 0x0 DUP1 REVERT JUMPDEST POP PUSH2 0x467 PUSH2 0x176D JUMP JUMPDEST STOP JUMPDEST CALLVALUE DUP1 ISZERO PUSH2 0x475 JUMPI PUSH1 0x0 DUP1 REVERT JUMPDEST POP PUSH2 0x47E PUSH2 0x18A0 JUMP JUMPDEST PUSH1 0x40 MLOAD PUSH2 0x48B SWAP2 SWAP1 PUSH2 0x1EA6 JUMP JUMPDEST PUSH1 0x40 MLOAD DUP1 SWAP2 SUB SWAP1 RETURN JUMPDEST CALLVALUE DUP1 ISZERO PUSH2 0x4A0 JUMPI PUSH1 0x0 DUP1 REVERT JUMPDEST POP PUSH2 0x4A9 PUSH2 0x18A6 JUMP JUMPDEST PUSH1 0x40 MLOAD PUSH2 0x4B6 SWAP2 SWAP1 PUSH2 0x1EA6 JUMP JUMPDEST PUSH1 0x40 MLOAD DUP1 SWAP2 SUB SWAP1 RETURN JUMPDEST CALLVALUE DUP1 ISZERO PUSH2 0x4CB JUMPI PUSH1 0x0 DUP1 REVERT JUMPDEST POP PUSH2 0x4E6 PUSH1 0x4 DUP1 CALLDATASIZE SUB DUP2 ADD SWAP1 PUSH2 0x4E1 SWAP2 SWAP1 PUSH2 0x209D JUMP JUMPDEST PUSH2 0x18AC JUMP JUMPDEST STOP JUMPDEST CALLVALUE DUP1 ISZERO PUSH2 0x4F4 JUMPI PUSH1 0x0 DUP1 REVERT JUMPDEST POP PUSH2 0x4FD PUSH2 0x1A92 JUMP JUMPDEST STOP JUMPDEST PUSH1 0xC PUSH1 0x20 MSTORE DUP1 PUSH1 0x0 MSTORE PUSH1 0x40 PUSH1 0x0 KECCAK256 PUSH1 0x0 SWAP2 POP SWAP1 POP DUP1 PUSH1 0x0 ADD PUSH1 0x0 SWAP1 SLOAD SWAP1 PUSH2 0x100 EXP SWAP1 DIV PUSH20 0xFFFFFFFFFFFFFFFFFFFFFFFFFFFFFFFFFFFFFFFF AND SWAP1 DUP1 PUSH1 0x1 ADD SLOAD SWAP1 POP DUP3 JUMP JUMPDEST PUSH1 0x2 PUSH1 0x0 SWAP1 SLOAD SWAP1 PUSH2 0x100 EXP SWAP1 DIV PUSH20 0xFFFFFFFFFFFFFFFFFFFFFFFFFFFFFFFFFFFFFFFF AND DUP2 JUMP JUMPDEST PUSH1 0x0 SELFBALANCE SWAP1 POP SWAP1 JUMP JUMPDEST PUSH1 0x5 PUSH1 0x1 SWAP1 SLOAD SWAP1 PUSH2 0x100 EXP SWAP1 DIV PUSH1 0xFF AND DUP2 JUMP JUMPDEST PUSH1 0x6 SLOAD DUP2 JUMP JUMPDEST PUSH1 0x8 SLOAD DUP2 JUMP JUMPDEST PUSH1 0x5 PUSH1 0x0 SWAP1 SLOAD SWAP1 PUSH2 0x100 EXP SWAP1 DIV PUSH1 0xFF AND DUP2 JUMP JUMPDEST PUSH1 0x5 PUSH1 0x0 SWAP1 SLOAD SWAP1 PUSH2 0x100 EXP SWAP1 DIV PUSH1 0xFF AND PUSH2 0x5F2 JUMPI PUSH1 0x40 MLOAD PUSH32 0x8C379A000000000000000000000000000000000000000000000000000000000 DUP2 MSTORE PUSH1 0x4 ADD PUSH2 0x5E9 SWAP1 PUSH2 0x213A JUMP JUMPDEST PUSH1 0x40 MLOAD DUP1 SWAP2 SUB SWAP1 REVERT JUMPDEST PUSH1 0x5 PUSH1 0x2 SWAP1 SLOAD SWAP1 PUSH2 0x100 EXP SWAP1 DIV PUSH1 0xFF AND ISZERO PUSH2 0x642 JUMPI PUSH1 0x40 MLOAD PUSH32 0x8C379A000000000000000000000000000000000000000000000000000000000 DUP2 MSTORE PUSH1 0x4 ADD PUSH2 0x639 SWAP1 PUSH2 0x21A6 JUMP JUMPDEST PUSH1 0x40 MLOAD DUP1 SWAP2 SUB SWAP1 REVERT JUMPDEST PUSH1 0x4 SLOAD TIMESTAMP LT PUSH2 0x686 JUMPI PUSH1 0x40 MLOAD PUSH32 0x8C379A000000000000000000000000000000000000000000000000000000000 DUP2 MSTORE PUSH1 0x4 ADD PUSH2 0x67D SWAP1 PUSH2 0x2212 JUMP JUMPDEST PUSH1 0x40 MLOAD DUP1 SWAP2 SUB SWAP1 REVERT JUMPDEST PUSH1 0xA SLOAD CALLVALUE GT PUSH2 0x6CA JUMPI PUSH1 0x40 MLOAD PUSH32 0x8C379A000000000000000000000000000000000000000000000000000000000 DUP2 MSTORE PUSH1 0x4 ADD PUSH2 0x6C1 SWAP1 PUSH2 0x227E JUMP JUMPDEST PUSH1 0x40 MLOAD DUP1 SWAP2 SUB SWAP1 REVERT JUMPDEST PUSH1 0x2 PUSH1 0x0 SWAP1 SLOAD SWAP1 PUSH2 0x100 EXP SWAP1 DIV PUSH20 0xFFFFFFFFFFFFFFFFFFFFFFFFFFFFFFFFFFFFFFFF AND PUSH20 0xFFFFFFFFFFFFFFFFFFFFFFFFFFFFFFFFFFFFFFFF AND CALLER PUSH20 0xFFFFFFFFFFFFFFFFFFFFFFFFFFFFFFFFFFFFFFFF AND SUB PUSH2 0x75A JUMPI PUSH1 0x40 MLOAD PUSH32 0x8C379A000000000000000000000000000000000000000000000000000000000 DUP2 MSTORE PUSH1 0x4 ADD PUSH2 0x751 SWAP1 PUSH2 0x22EA JUMP JUMPDEST PUSH1 0x40 MLOAD DUP1 SWAP2 SUB SWAP1 REVERT JUMPDEST PUSH1 0x0 PUSH1 0x7 SLOAD PUSH2 0x2710 DUP7 PUSH2 0x76D SWAP2 SWAP1 PUSH2 0x2368 JUMP JUMPDEST PUSH2 0x777 SWAP2 SWAP1 PUSH2 0x2399 JUMP JUMPDEST SWAP1 POP DUP1 PUSH1 0x8 PUSH1 0x0 DUP3 DUP3 SLOAD PUSH2 0x78B SWAP2 SWAP1 PUSH2 0x23DB JUMP JUMPDEST SWAP3 POP POP DUP2 SWAP1 SSTORE POP PUSH2 0x822 PUSH1 0x9 PUSH1 0x0 SWAP1 SLOAD SWAP1 PUSH2 0x100 EXP SWAP1 DIV PUSH20 0xFFFFFFFFFFFFFFFFFFFFFFFFFFFFFFFFFFFFFFFF AND PUSH1 0xB PUSH1 0x0 PUSH1 0x9 PUSH1 0x0 SWAP1 SLOAD SWAP1 PUSH2 0x100 EXP SWAP1 DIV PUSH20 0xFFFFFFFFFFFFFFFFFFFFFFFFFFFFFFFFFFFFFFFF AND PUSH20 0xFFFFFFFFFFFFFFFFFFFFFFFFFFFFFFFFFFFFFFFF AND PUSH20 0xFFFFFFFFFFFFFFFFFFFFFFFFFFFFFFFFFFFFFFFF AND DUP2 MSTORE PUSH1 0x20 ADD SWAP1 DUP2 MSTORE PUSH1 0x20 ADD PUSH1 0x0 KECCAK256 PUSH1 0x0 ADD SLOAD PUSH2 0x1C80 JUMP JUMPDEST PUSH1 0x0 PUSH1 0xB PUSH1 0x0 CALLER PUSH20 0xFFFFFFFFFFFFFFFFFFFFFFFFFFFFFFFFFFFFFFFF AND PUSH20 0xFFFFFFFFFFFFFFFFFFFFFFFFFFFFFFFFFFFFFFFF AND DUP2 MSTORE PUSH1 0x20 ADD SWAP1 DUP2 MSTORE PUSH1 0x20 ADD PUSH1 0x0 KECCAK256 PUSH1 0x0 ADD SLOAD EQ PUSH2 0x998 JUMPI DUP1 DUP6 PUSH2 0x878 SWAP2 SWAP1 PUSH2 0x240F JUMP JUMPDEST PUSH1 0xB PUSH1 0x0 CALLER PUSH20 0xFFFFFFFFFFFFFFFFFFFFFFFFFFFFFFFFFFFFFFFF AND PUSH20 0xFFFFFFFFFFFFFFFFFFFFFFFFFFFFFFFFFFFFFFFF AND DUP2 MSTORE PUSH1 0x20 ADD SWAP1 DUP2 MSTORE PUSH1 0x20 ADD PUSH1 0x0 KECCAK256 PUSH1 0x0 ADD DUP2 SWAP1 SSTORE POP DUP4 PUSH1 0xB PUSH1 0x0 CALLER PUSH20 0xFFFFFFFFFFFFFFFFFFFFFFFFFFFFFFFFFFFFFFFF AND PUSH20 0xFFFFFFFFFFFFFFFFFFFFFFFFFFFFFFFFFFFFFFFF AND DUP2 MSTORE PUSH1 0x20 ADD SWAP1 DUP2 MSTORE PUSH1 0x20 ADD PUSH1 0x0 KECCAK256 PUSH1 0x1 ADD DUP2 SWAP1 SSTORE POP DUP3 PUSH1 0xB PUSH1 0x0 CALLER PUSH20 0xFFFFFFFFFFFFFFFFFFFFFFFFFFFFFFFFFFFFFFFF AND PUSH20 0xFFFFFFFFFFFFFFFFFFFFFFFFFFFFFFFFFFFFFFFF AND DUP2 MSTORE PUSH1 0x20 ADD SWAP1 DUP2 MSTORE PUSH1 0x20 ADD PUSH1 0x0 KECCAK256 PUSH1 0x2 ADD DUP2 SWAP1 SSTORE POP DUP2 PUSH1 0xB PUSH1 0x0 CALLER PUSH20 0xFFFFFFFFFFFFFFFFFFFFFFFFFFFFFFFFFFFFFFFF AND PUSH20 0xFFFFFFFFFFFFFFFFFFFFFFFFFFFFFFFFFFFFFFFF AND DUP2 MSTORE PUSH1 0x20 ADD SWAP1 DUP2 MSTORE PUSH1 0x20 ADD PUSH1 0x0 KECCAK256 PUSH1 0x3 ADD DUP2 SWAP1 SSTORE POP PUSH2 0xA5E JUMP JUMPDEST PUSH2 0x9A0 PUSH2 0x1D31 JUMP JUMPDEST DUP2 DUP7 PUSH2 0x9AC SWAP2 SWAP1 PUSH2 0x240F JUMP JUMPDEST DUP2 PUSH1 0x0 ADD DUP2 DUP2 MLOAD PUSH2 0x9BD SWAP2 SWAP1 PUSH2 0x23DB JUMP JUMPDEST SWAP2 POP DUP2 DUP2 MSTORE POP POP DUP5 DUP2 PUSH1 0x20 ADD DUP2 DUP2 MLOAD PUSH2 0x9D6 SWAP2 SWAP1 PUSH2 0x23DB JUMP JUMPDEST SWAP2 POP DUP2 DUP2 MSTORE POP POP DUP4 DUP2 PUSH1 0x40 ADD DUP2 DUP2 MSTORE POP POP DUP3 DUP2 PUSH1 0x60 ADD DUP2 DUP2 MSTORE POP POP DUP1 PUSH1 0xB PUSH1 0x0 CALLER PUSH20 0xFFFFFFFFFFFFFFFFFFFFFFFFFFFFFFFFFFFFFFFF AND PUSH20 0xFFFFFFFFFFFFFFFFFFFFFFFFFFFFFFFFFFFFFFFF AND DUP2 MSTORE PUSH1 0x20 ADD SWAP1 DUP2 MSTORE PUSH1 0x20 ADD PUSH1 0x0 KECCAK256 PUSH1 0x0 DUP3 ADD MLOAD DUP2 PUSH1 0x0 ADD SSTORE PUSH1 0x20 DUP3 ADD MLOAD DUP2 PUSH1 0x1 ADD SSTORE PUSH1 0x40 DUP3 ADD MLOAD DUP2 PUSH1 0x2 ADD SSTORE PUSH1 0x60 DUP3 ADD MLOAD DUP2 PUSH1 0x3 ADD SSTORE SWAP1 POP POP POP JUMPDEST CALLER PUSH1 0x9 PUSH1 0x0 PUSH2 0x100 EXP DUP2 SLOAD DUP2 PUSH20 0xFFFFFFFFFFFFFFFFFFFFFFFFFFFFFFFFFFFFFFFF MUL NOT AND SWAP1 DUP4 PUSH20 0xFFFFFFFFFFFFFFFFFFFFFFFFFFFFFFFFFFFFFFFF AND MUL OR SWAP1 SSTORE POP CALLVALUE PUSH1 0xA DUP2 SWAP1 SSTORE POP PUSH1 0x1 PUSH1 0x6 PUSH1 0x0 DUP3 DUP3 SLOAD PUSH2 0xAB9 SWAP2 SWAP1 PUSH2 0x23DB JUMP JUMPDEST SWAP3 POP POP DUP2 SWAP1 SSTORE POP CALLER PUSH20 0xFFFFFFFFFFFFFFFFFFFFFFFFFFFFFFFFFFFFFFFF AND PUSH32 0xE684A55F31B79ECA403DF938249029212A5925EC6BE8012E099B45BC1019E5D2 CALLVALUE PUSH1 0x40 MLOAD PUSH2 0xB06 SWAP2 SWAP1 PUSH2 0x1EA6 JUMP JUMPDEST PUSH1 0x40 MLOAD DUP1 SWAP2 SUB SWAP1 LOG2 POP POP POP POP POP JUMP JUMPDEST PUSH1 0x2 PUSH1 0x0 SWAP1 SLOAD SWAP1 PUSH2 0x100 EXP SWAP1 DIV PUSH20 0xFFFFFFFFFFFFFFFFFFFFFFFFFFFFFFFFFFFFFFFF AND PUSH20 0xFFFFFFFFFFFFFFFFFFFFFFFFFFFFFFFFFFFFFFFF AND CALLER PUSH20 0xFFFFFFFFFFFFFFFFFFFFFFFFFFFFFFFFFFFFFFFF AND EQ PUSH2 0xBA5 JUMPI PUSH1 0x40 MLOAD PUSH32 0x8C379A000000000000000000000000000000000000000000000000000000000 DUP2 MSTORE PUSH1 0x4 ADD PUSH2 0xB9C SWAP1 PUSH2 0x248F JUMP JUMPDEST PUSH1 0x40 MLOAD DUP1 SWAP2 SUB SWAP1 REVERT JUMPDEST PUSH1 0x0 PUSH20 0xFFFFFFFFFFFFFFFFFFFFFFFFFFFFFFFFFFFFFFFF AND PUSH1 0x9 PUSH1 0x0 SWAP1 SLOAD SWAP1 PUSH2 0x100 EXP SWAP1 DIV PUSH20 0xFFFFFFFFFFFFFFFFFFFFFFFFFFFFFFFFFFFFFFFF AND PUSH20 0xFFFFFFFFFFFFFFFFFFFFFFFFFFFFFFFFFFFFFFFF AND EQ PUSH2 0xE55 JUMPI PUSH1 0x0 DUP1 SLOAD SWAP1 PUSH2 0x100 EXP SWAP1 DIV PUSH20 0xFFFFFFFFFFFFFFFFFFFFFFFFFFFFFFFFFFFFFFFF AND PUSH20 0xFFFFFFFFFFFFFFFFFFFFFFFFFFFFFFFFFFFFFFFF AND PUSH4 0x42842E0E ADDRESS PUSH1 0x9 PUSH1 0x0 SWAP1 SLOAD SWAP1 PUSH2 0x100 EXP SWAP1 DIV PUSH20 0xFFFFFFFFFFFFFFFFFFFFFFFFFFFFFFFFFFFFFFFF AND PUSH1 0x1 SLOAD PUSH1 0x40 MLOAD DUP5 PUSH4 0xFFFFFFFF AND PUSH1 0xE0 SHL DUP2 MSTORE PUSH1 0x4 ADD PUSH2 0xC7C SWAP4 SWAP3 SWAP2 SWAP1 PUSH2 0x24AF JUMP JUMPDEST PUSH1 0x0 PUSH1 0x40 MLOAD DUP1 DUP4 SUB DUP2 PUSH1 0x0 DUP8 DUP1 EXTCODESIZE ISZERO DUP1 ISZERO PUSH2 0xC96 JUMPI PUSH1 0x0 DUP1 REVERT JUMPDEST POP GAS CALL ISZERO DUP1 ISZERO PUSH2 0xCAA JUMPI RETURNDATASIZE PUSH1 0x0 DUP1 RETURNDATACOPY RETURNDATASIZE PUSH1 0x0 REVERT JUMPDEST POP POP POP POP PUSH1 0x0 PUSH1 0x3 PUSH1 0x0 SWAP1 SLOAD SWAP1 PUSH2 0x100 EXP SWAP1 DIV PUSH20 0xFFFFFFFFFFFFFFFFFFFFFFFFFFFFFFFFFFFFFFFF AND PUSH20 0xFFFFFFFFFFFFFFFFFFFFFFFFFFFFFFFFFFFFFFFF AND PUSH1 0x8 SLOAD PUSH1 0x40 MLOAD PUSH2 0xCF8 SWAP1 PUSH2 0x2517 JUMP JUMPDEST PUSH1 0x0 PUSH1 0x40 MLOAD DUP1 DUP4 SUB DUP2 DUP6 DUP8 GAS CALL SWAP3 POP POP POP RETURNDATASIZE DUP1 PUSH1 0x0 DUP2 EQ PUSH2 0xD35 JUMPI PUSH1 0x40 MLOAD SWAP2 POP PUSH1 0x1F NOT PUSH1 0x3F RETURNDATASIZE ADD AND DUP3 ADD PUSH1 0x40 MSTORE RETURNDATASIZE DUP3 MSTORE RETURNDATASIZE PUSH1 0x0 PUSH1 0x20 DUP5 ADD RETURNDATACOPY PUSH2 0xD3A JUMP JUMPDEST PUSH1 0x60 SWAP2 POP JUMPDEST POP POP SWAP1 POP DUP1 PUSH2 0xD7E JUMPI PUSH1 0x40 MLOAD PUSH32 0x8C379A000000000000000000000000000000000000000000000000000000000 DUP2 MSTORE PUSH1 0x4 ADD PUSH2 0xD75 SWAP1 PUSH2 0x2578 JUMP JUMPDEST PUSH1 0x40 MLOAD DUP1 SWAP2 SUB SWAP1 REVERT JUMPDEST PUSH1 0x0 PUSH1 0x2 PUSH1 0x0 SWAP1 SLOAD SWAP1 PUSH2 0x100 EXP SWAP1 DIV PUSH20 0xFFFFFFFFFFFFFFFFFFFFFFFFFFFFFFFFFFFFFFFF AND PUSH20 0xFFFFFFFFFFFFFFFFFFFFFFFFFFFFFFFFFFFFFFFF AND PUSH1 0xA SLOAD PUSH1 0x40 MLOAD PUSH2 0xDC8 SWAP1 PUSH2 0x2517 JUMP JUMPDEST PUSH1 0x0 PUSH1 0x40 MLOAD DUP1 DUP4 SUB DUP2 DUP6 DUP8 GAS CALL SWAP3 POP POP POP RETURNDATASIZE DUP1 PUSH1 0x0 DUP2 EQ PUSH2 0xE05 JUMPI PUSH1 0x40 MLOAD SWAP2 POP PUSH1 0x1F NOT PUSH1 0x3F RETURNDATASIZE ADD AND DUP3 ADD PUSH1 0x40 MSTORE RETURNDATASIZE DUP3 MSTORE RETURNDATASIZE PUSH1 0x0 PUSH1 0x20 DUP5 ADD RETURNDATACOPY PUSH2 0xE0A JUMP JUMPDEST PUSH1 0x60 SWAP2 POP JUMPDEST POP POP SWAP1 POP DUP1 PUSH2 0xE4E JUMPI PUSH1 0x40 MLOAD PUSH32 0x8C379A000000000000000000000000000000000000000000000000000000000 DUP2 MSTORE PUSH1 0x4 ADD PUSH2 0xE45 SWAP1 PUSH2 0x25E4 JUMP JUMPDEST PUSH1 0x40 MLOAD DUP1 SWAP2 SUB SWAP1 REVERT JUMPDEST POP POP PUSH2 0x10AB JUMP JUMPDEST PUSH1 0x0 DUP1 SLOAD SWAP1 PUSH2 0x100 EXP SWAP1 DIV PUSH20 0xFFFFFFFFFFFFFFFFFFFFFFFFFFFFFFFFFFFFFFFF AND PUSH20 0xFFFFFFFFFFFFFFFFFFFFFFFFFFFFFFFFFFFFFFFF AND PUSH4 0x42842E0E ADDRESS PUSH1 0x2 PUSH1 0x0 SWAP1 SLOAD SWAP1 PUSH2 0x100 EXP SWAP1 DIV PUSH20 0xFFFFFFFFFFFFFFFFFFFFFFFFFFFFFFFFFFFFFFFF AND PUSH1 0x1 SLOAD PUSH1 0x40 MLOAD DUP5 PUSH4 0xFFFFFFFF AND PUSH1 0xE0 SHL DUP2 MSTORE PUSH1 0x4 ADD PUSH2 0xED6 SWAP4 SWAP3 SWAP2 SWAP1 PUSH2 0x2625 JUMP JUMPDEST PUSH1 0x0 PUSH1 0x40 MLOAD DUP1 DUP4 SUB DUP2 PUSH1 0x0 DUP8 DUP1 EXTCODESIZE ISZERO DUP1 ISZERO PUSH2 0xEF0 JUMPI PUSH1 0x0 DUP1 REVERT JUMPDEST POP GAS CALL ISZERO DUP1 ISZERO PUSH2 0xF04 JUMPI RETURNDATASIZE PUSH1 0x0 DUP1 RETURNDATACOPY RETURNDATASIZE PUSH1 0x0 REVERT JUMPDEST POP POP POP POP PUSH1 0x0 PUSH1 0x3 PUSH1 0x0 SWAP1 SLOAD SWAP1 PUSH2 0x100 EXP SWAP1 DIV PUSH20 0xFFFFFFFFFFFFFFFFFFFFFFFFFFFFFFFFFFFFFFFF AND PUSH20 0xFFFFFFFFFFFFFFFFFFFFFFFFFFFFFFFFFFFFFFFF AND PUSH1 0x8 SLOAD PUSH1 0x40 MLOAD PUSH2 0xF52 SWAP1 PUSH2 0x2517 JUMP JUMPDEST PUSH1 0x0 PUSH1 0x40 MLOAD DUP1 DUP4 SUB DUP2 DUP6 DUP8 GAS CALL SWAP3 POP POP POP RETURNDATASIZE DUP1 PUSH1 0x0 DUP2 EQ PUSH2 0xF8F JUMPI PUSH1 0x40 MLOAD SWAP2 POP PUSH1 0x1F NOT PUSH1 0x3F RETURNDATASIZE ADD AND DUP3 ADD PUSH1 0x40 MSTORE RETURNDATASIZE DUP3 MSTORE RETURNDATASIZE PUSH1 0x0 PUSH1 0x20 DUP5 ADD RETURNDATACOPY PUSH2 0xF94 JUMP JUMPDEST PUSH1 0x60 SWAP2 POP JUMPDEST POP POP SWAP1 POP DUP1 PUSH2 0xFD8 JUMPI PUSH1 0x40 MLOAD PUSH32 0x8C379A000000000000000000000000000000000000000000000000000000000 DUP2 MSTORE PUSH1 0x4 ADD PUSH2 0xFCF SWAP1 PUSH2 0x2578 JUMP JUMPDEST PUSH1 0x40 MLOAD DUP1 SWAP2 SUB SWAP1 REVERT JUMPDEST PUSH1 0x0 PUSH1 0x2 PUSH1 0x0 SWAP1 SLOAD SWAP1 PUSH2 0x100 EXP SWAP1 DIV PUSH20 0xFFFFFFFFFFFFFFFFFFFFFFFFFFFFFFFFFFFFFFFF AND PUSH20 0xFFFFFFFFFFFFFFFFFFFFFFFFFFFFFFFFFFFFFFFF AND PUSH1 0xA SLOAD PUSH1 0x40 MLOAD PUSH2 0x1022 SWAP1 PUSH2 0x2517 JUMP JUMPDEST PUSH1 0x0 PUSH1 0x40 MLOAD DUP1 DUP4 SUB DUP2 DUP6 DUP8 GAS CALL SWAP3 POP POP POP RETURNDATASIZE DUP1 PUSH1 0x0 DUP2 EQ PUSH2 0x105F JUMPI PUSH1 0x40 MLOAD SWAP2 POP PUSH1 0x1F NOT PUSH1 0x3F RETURNDATASIZE ADD AND DUP3 ADD PUSH1 0x40 MSTORE RETURNDATASIZE DUP3 MSTORE RETURNDATASIZE PUSH1 0x0 PUSH1 0x20 DUP5 ADD RETURNDATACOPY PUSH2 0x1064 JUMP JUMPDEST PUSH1 0x60 SWAP2 POP JUMPDEST POP POP SWAP1 POP DUP1 PUSH2 0x10A8 JUMPI PUSH1 0x40 MLOAD PUSH32 0x8C379A000000000000000000000000000000000000000000000000000000000 DUP2 MSTORE PUSH1 0x4 ADD PUSH2 0x109F SWAP1 PUSH2 0x25E4 JUMP JUMPDEST PUSH1 0x40 MLOAD DUP1 SWAP2 SUB SWAP1 REVERT JUMPDEST POP POP JUMPDEST JUMP JUMPDEST PUSH1 0x9 PUSH1 0x0 SWAP1 SLOAD SWAP1 PUSH2 0x100 EXP SWAP1 DIV PUSH20 0xFFFFFFFFFFFFFFFFFFFFFFFFFFFFFFFFFFFFFFFF AND PUSH20 0xFFFFFFFFFFFFFFFFFFFFFFFFFFFFFFFFFFFFFFFF AND CALLER PUSH20 0xFFFFFFFFFFFFFFFFFFFFFFFFFFFFFFFFFFFFFFFF AND SUB PUSH2 0x113D JUMPI PUSH1 0x40 MLOAD PUSH32 0x8C379A000000000000000000000000000000000000000000000000000000000 DUP2 MSTORE PUSH1 0x4 ADD PUSH2 0x1134 SWAP1 PUSH2 0x26A8 JUMP JUMPDEST PUSH1 0x40 MLOAD DUP1 SWAP2 SUB SWAP1 REVERT JUMPDEST PUSH1 0x0 PUSH1 0xB PUSH1 0x0 CALLER PUSH20 0xFFFFFFFFFFFFFFFFFFFFFFFFFFFFFFFFFFFFFFFF AND PUSH20 0xFFFFFFFFFFFFFFFFFFFFFFFFFFFFFFFFFFFFFFFF AND DUP2 MSTORE PUSH1 0x20 ADD SWAP1 DUP2 MSTORE PUSH1 0x20 ADD PUSH1 0x0 KECCAK256 PUSH1 0x0 ADD SLOAD SUB PUSH2 0x11C2 JUMPI PUSH1 0x40 MLOAD PUSH32 0x8C379A000000000000000000000000000000000000000000000000000000000 DUP2 MSTORE PUSH1 0x4 ADD PUSH2 0x11B9 SWAP1 PUSH2 0x2714 JUMP JUMPDEST PUSH1 0x40 MLOAD DUP1 SWAP2 SUB SWAP1 REVERT JUMPDEST PUSH2 0x120E CALLER PUSH1 0xB PUSH1 0x0 CALLER PUSH20 0xFFFFFFFFFFFFFFFFFFFFFFFFFFFFFFFFFFFFFFFF AND PUSH20 0xFFFFFFFFFFFFFFFFFFFFFFFFFFFFFFFFFFFFFFFF AND DUP2 MSTORE PUSH1 0x20 ADD SWAP1 DUP2 MSTORE PUSH1 0x20 ADD PUSH1 0x0 KECCAK256 PUSH1 0x0 ADD SLOAD PUSH2 0x1C80 JUMP JUMPDEST PUSH1 0x0 PUSH1 0xB PUSH1 0x0 CALLER PUSH20 0xFFFFFFFFFFFFFFFFFFFFFFFFFFFFFFFFFFFFFFFF AND PUSH20 0xFFFFFFFFFFFFFFFFFFFFFFFFFFFFFFFFFFFFFFFF AND DUP2 MSTORE PUSH1 0x20 ADD SWAP1 DUP2 MSTORE PUSH1 0x20 ADD PUSH1 0x0 KECCAK256 PUSH1 0x0 ADD DUP2 SWAP1 SSTORE POP PUSH1 0x0 PUSH1 0xB PUSH1 0x0 CALLER PUSH20 0xFFFFFFFFFFFFFFFFFFFFFFFFFFFFFFFFFFFFFFFF AND PUSH20 0xFFFFFFFFFFFFFFFFFFFFFFFFFFFFFFFFFFFFFFFF AND DUP2 MSTORE PUSH1 0x20 ADD SWAP1 DUP2 MSTORE PUSH1 0x20 ADD PUSH1 0x0 KECCAK256 PUSH1 0x1 ADD DUP2 SWAP1 SSTORE POP PUSH1 0x0 PUSH1 0xB PUSH1 0x0 CALLER PUSH20 0xFFFFFFFFFFFFFFFFFFFFFFFFFFFFFFFFFFFFFFFF AND PUSH20 0xFFFFFFFFFFFFFFFFFFFFFFFFFFFFFFFFFFFFFFFF AND DUP2 MSTORE PUSH1 0x20 ADD SWAP1 DUP2 MSTORE PUSH1 0x20 ADD PUSH1 0x0 KECCAK256 PUSH1 0x2 ADD DUP2 SWAP1 SSTORE POP PUSH1 0x0 PUSH1 0xB PUSH1 0x0 CALLER PUSH20 0xFFFFFFFFFFFFFFFFFFFFFFFFFFFFFFFFFFFFFFFF AND PUSH20 0xFFFFFFFFFFFFFFFFFFFFFFFFFFFFFFFFFFFFFFFF AND DUP2 MSTORE PUSH1 0x20 ADD SWAP1 DUP2 MSTORE PUSH1 0x20 ADD PUSH1 0x0 KECCAK256 PUSH1 0x3 ADD DUP2 SWAP1 SSTORE POP CALLER PUSH20 0xFFFFFFFFFFFFFFFFFFFFFFFFFFFFFFFFFFFFFFFF AND PUSH32 0x884EDAD9CE6FA2440D8A54CC123490EB96D2768479D49FF9C7366125A9424364 PUSH1 0xB PUSH1 0x0 CALLER PUSH20 0xFFFFFFFFFFFFFFFFFFFFFFFFFFFFFFFFFFFFFFFF AND PUSH20 0xFFFFFFFFFFFFFFFFFFFFFFFFFFFFFFFFFFFFFFFF AND DUP2 MSTORE PUSH1 0x20 ADD SWAP1 DUP2 MSTORE PUSH1 0x20 ADD PUSH1 0x0 KECCAK256 PUSH1 0x0 ADD SLOAD PUSH1 0x40 MLOAD PUSH2 0x13B6 SWAP2 SWAP1 PUSH2 0x1EA6 JUMP JUMPDEST PUSH1 0x40 MLOAD DUP1 SWAP2 SUB SWAP1 LOG2 JUMP JUMPDEST PUSH1 0x3 PUSH1 0x0 SWAP1 SLOAD SWAP1 PUSH2 0x100 EXP SWAP1 DIV PUSH20 0xFFFFFFFFFFFFFFFFFFFFFFFFFFFFFFFFFFFFFFFF AND DUP2 JUMP JUMPDEST PUSH1 0x0 DUP1 SLOAD SWAP1 PUSH2 0x100 EXP SWAP1 DIV PUSH20 0xFFFFFFFFFFFFFFFFFFFFFFFFFFFFFFFFFFFFFFFF AND DUP2 JUMP JUMPDEST PUSH1 0x5 PUSH1 0x2 SWAP1 SLOAD SWAP1 PUSH2 0x100 EXP SWAP1 DIV PUSH1 0xFF AND DUP2 JUMP JUMPDEST PUSH1 0x2 PUSH1 0x0 SWAP1 SLOAD SWAP1 PUSH2 0x100 EXP SWAP1 DIV PUSH20 0xFFFFFFFFFFFFFFFFFFFFFFFFFFFFFFFFFFFFFFFF AND PUSH20 0xFFFFFFFFFFFFFFFFFFFFFFFFFFFFFFFFFFFFFFFF AND CALLER PUSH20 0xFFFFFFFFFFFFFFFFFFFFFFFFFFFFFFFFFFFFFFFF AND EQ PUSH2 0x14AD JUMPI PUSH1 0x40 MLOAD PUSH32 0x8C379A000000000000000000000000000000000000000000000000000000000 DUP2 MSTORE PUSH1 0x4 ADD PUSH2 0x14A4 SWAP1 PUSH2 0x248F JUMP JUMPDEST PUSH1 0x40 MLOAD DUP1 SWAP2 SUB SWAP1 REVERT JUMPDEST PUSH1 0x5 PUSH1 0x0 SWAP1 SLOAD SWAP1 PUSH2 0x100 EXP SWAP1 DIV PUSH1 0xFF AND ISZERO PUSH2 0x14FD JUMPI PUSH1 0x40 MLOAD PUSH32 0x8C379A000000000000000000000000000000000000000000000000000000000 DUP2 MSTORE PUSH1 0x4 ADD PUSH2 0x14F4 SWAP1 PUSH2 0x2780 JUMP JUMPDEST PUSH1 0x40 MLOAD DUP1 SWAP2 SUB SWAP1 REVERT JUMPDEST PUSH1 0x0 DUP1 SLOAD SWAP1 PUSH2 0x100 EXP SWAP1 DIV PUSH20 0xFFFFFFFFFFFFFFFFFFFFFFFFFFFFFFFFFFFFFFFF AND PUSH20 0xFFFFFFFFFFFFFFFFFFFFFFFFFFFFFFFFFFFFFFFF AND PUSH4 0x23B872DD CALLER ADDRESS PUSH1 0x1 SLOAD PUSH1 0x40 MLOAD DUP5 PUSH4 0xFFFFFFFF AND PUSH1 0xE0 SHL DUP2 MSTORE PUSH1 0x4 ADD PUSH2 0x155C SWAP4 SWAP3 SWAP2 SWAP1 PUSH2 0x24AF JUMP JUMPDEST PUSH1 0x0 PUSH1 0x40 MLOAD DUP1 DUP4 SUB DUP2 PUSH1 0x0 DUP8 DUP1 EXTCODESIZE ISZERO DUP1 ISZERO PUSH2 0x1576 JUMPI PUSH1 0x0 DUP1 REVERT JUMPDEST POP GAS CALL ISZERO DUP1 ISZERO PUSH2 0x158A JUMPI RETURNDATASIZE PUSH1 0x0 DUP1 RETURNDATACOPY RETURNDATASIZE PUSH1 0x0 REVERT JUMPDEST POP POP POP POP PUSH1 0x1 PUSH1 0x5 PUSH1 0x0 PUSH2 0x100 EXP DUP2 SLOAD DUP2 PUSH1 0xFF MUL NOT AND SWAP1 DUP4 ISZERO ISZERO MUL OR SWAP1 SSTORE POP PUSH32 0xD295EBF0A48A9A43D600A6ECB8626BAA711D5750DEC13A08145013AA30CB92EA PUSH1 0x40 MLOAD PUSH1 0x40 MLOAD DUP1 SWAP2 SUB SWAP1 LOG1 JUMP JUMPDEST PUSH1 0x4 SLOAD DUP2 JUMP JUMPDEST PUSH1 0x9 PUSH1 0x0 SWAP1 SLOAD SWAP1 PUSH2 0x100 EXP SWAP1 DIV PUSH20 0xFFFFFFFFFFFFFFFFFFFFFFFFFFFFFFFFFFFFFFFF AND DUP2 JUMP JUMPDEST PUSH1 0xB PUSH1 0x20 MSTORE DUP1 PUSH1 0x0 MSTORE PUSH1 0x40 PUSH1 0x0 KECCAK256 PUSH1 0x0 SWAP2 POP SWAP1 POP DUP1 PUSH1 0x0 ADD SLOAD SWAP1 DUP1 PUSH1 0x1 ADD SLOAD SWAP1 DUP1 PUSH1 0x2 ADD SLOAD SWAP1 DUP1 PUSH1 0x3 ADD SLOAD SWAP1 POP DUP5 JUMP JUMPDEST PUSH1 0x2 PUSH1 0x0 SWAP1 SLOAD SWAP1 PUSH2 0x100 EXP SWAP1 DIV PUSH20 0xFFFFFFFFFFFFFFFFFFFFFFFFFFFFFFFFFFFFFFFF AND PUSH20 0xFFFFFFFFFFFFFFFFFFFFFFFFFFFFFFFFFFFFFFFF AND CALLER PUSH20 0xFFFFFFFFFFFFFFFFFFFFFFFFFFFFFFFFFFFFFFFF AND EQ PUSH2 0x16C3 JUMPI PUSH1 0x40 MLOAD PUSH32 0x8C379A000000000000000000000000000000000000000000000000000000000 DUP2 MSTORE PUSH1 0x4 ADD PUSH2 0x16BA SWAP1 PUSH2 0x248F JUMP JUMPDEST PUSH1 0x40 MLOAD DUP1 SWAP2 SUB SWAP1 REVERT JUMPDEST PUSH1 0x5 PUSH1 0x2 SWAP1 SLOAD SWAP1 PUSH2 0x100 EXP SWAP1 DIV PUSH1 0xFF AND ISZERO PUSH2 0x1713 JUMPI PUSH1 0x40 MLOAD PUSH32 0x8C379A000000000000000000000000000000000000000000000000000000000 DUP2 MSTORE PUSH1 0x4 ADD PUSH2 0x170A SWAP1 PUSH2 0x27EC JUMP JUMPDEST PUSH1 0x40 MLOAD DUP1 SWAP2 SUB SWAP1 REVERT JUMPDEST PUSH1 0x1 PUSH1 0x5 PUSH1 0x2 PUSH2 0x100 EXP DUP2 SLOAD DUP2 PUSH1 0xFF MUL NOT AND SWAP1 DUP4 ISZERO ISZERO MUL OR SWAP1 SSTORE POP PUSH32 0xDEE06086E53B718FD5176FDAA88A207819A06A56B42087AC2CAB84D32A335654 CALLER PUSH1 0x40 MLOAD PUSH2 0x175D SWAP2 SWAP1 PUSH2 0x2004 JUMP JUMPDEST PUSH1 0x40 MLOAD DUP1 SWAP2 SUB SWAP1 LOG1 JUMP JUMPDEST PUSH1 0x1 SLOAD DUP2 JUMP JUMPDEST PUSH1 0x2 PUSH1 0x0 SWAP1 SLOAD SWAP1 PUSH2 0x100 EXP SWAP1 DIV PUSH20 0xFFFFFFFFFFFFFFFFFFFFFFFFFFFFFFFFFFFFFFFF AND PUSH20 0xFFFFFFFFFFFFFFFFFFFFFFFFFFFFFFFFFFFFFFFF AND CALLER PUSH20 0xFFFFFFFFFFFFFFFFFFFFFFFFFFFFFFFFFFFFFFFF AND EQ PUSH2 0x17FD JUMPI PUSH1 0x40 MLOAD PUSH32 0x8C379A000000000000000000000000000000000000000000000000000000000 DUP2 MSTORE PUSH1 0x4 ADD PUSH2 0x17F4 SWAP1 PUSH2 0x248F JUMP JUMPDEST PUSH1 0x40 MLOAD DUP1 SWAP2 SUB SWAP1 REVERT JUMPDEST PUSH1 0x5 PUSH1 0x2 SWAP1 SLOAD SWAP1 PUSH2 0x100 EXP SWAP1 DIV PUSH1 0xFF AND PUSH2 0x184C JUMPI PUSH1 0x40 MLOAD PUSH32 0x8C379A000000000000000000000000000000000000000000000000000000000 DUP2 MSTORE PUSH1 0x4 ADD PUSH2 0x1843 SWAP1 PUSH2 0x2858 JUMP JUMPDEST PUSH1 0x40 MLOAD DUP1 SWAP2 SUB SWAP1 REVERT JUMPDEST PUSH1 0x0 PUSH1 0x5 PUSH1 0x2 PUSH2 0x100 EXP DUP2 SLOAD DUP2 PUSH1 0xFF MUL NOT AND SWAP1 DUP4 ISZERO ISZERO MUL OR SWAP1 SSTORE POP PUSH32 0xC1A02E947CF77134ED09AC0692636F0553306DB51FFE4A1D9E7B51B4DCD9C762 CALLER PUSH1 0x40 MLOAD PUSH2 0x1896 SWAP2 SWAP1 PUSH2 0x2004 JUMP JUMPDEST PUSH1 0x40 MLOAD DUP1 SWAP2 SUB SWAP1 LOG1 JUMP JUMPDEST PUSH1 0xA SLOAD DUP2 JUMP JUMPDEST PUSH2 0x2710 DUP2 JUMP JUMPDEST PUSH1 0x2 PUSH1 0x0 SWAP1 SLOAD SWAP1 PUSH2 0x100 EXP SWAP1 DIV PUSH20 0xFFFFFFFFFFFFFFFFFFFFFFFFFFFFFFFFFFFFFFFF AND PUSH20 0xFFFFFFFFFFFFFFFFFFFFFFFFFFFFFFFFFFFFFFFF AND CALLER PUSH20 0xFFFFFFFFFFFFFFFFFFFFFFFFFFFFFFFFFFFFFFFF AND EQ PUSH2 0x193C JUMPI PUSH1 0x40 MLOAD PUSH32 0x8C379A000000000000000000000000000000000000000000000000000000000 DUP2 MSTORE PUSH1 0x4 ADD PUSH2 0x1933 SWAP1 PUSH2 0x248F JUMP JUMPDEST PUSH1 0x40 MLOAD DUP1 SWAP2 SUB SWAP1 REVERT JUMPDEST PUSH1 0x64 DUP2 PUSH1 0xFF AND PUSH1 0x7 SLOAD PUSH2 0x194F SWAP2 SWAP1 PUSH2 0x23DB JUMP JUMPDEST GT ISZERO PUSH2 0x1990 JUMPI PUSH1 0x40 MLOAD PUSH32 0x8C379A000000000000000000000000000000000000000000000000000000000 DUP2 MSTORE PUSH1 0x4 ADD PUSH2 0x1987 SWAP1 PUSH2 0x28C4 JUMP JUMPDEST PUSH1 0x40 MLOAD DUP1 SWAP2 SUB SWAP1 REVERT JUMPDEST PUSH2 0x1998 PUSH2 0x1D59 JUMP JUMPDEST DUP3 DUP2 PUSH1 0x0 ADD SWAP1 PUSH20 0xFFFFFFFFFFFFFFFFFFFFFFFFFFFFFFFFFFFFFFFF AND SWAP1 DUP2 PUSH20 0xFFFFFFFFFFFFFFFFFFFFFFFFFFFFFFFFFFFFFFFF AND DUP2 MSTORE POP POP DUP2 PUSH1 0xFF AND DUP2 PUSH1 0x20 ADD DUP2 DUP2 MSTORE POP POP DUP2 PUSH1 0xFF AND PUSH1 0x7 PUSH1 0x0 DUP3 DUP3 SLOAD PUSH2 0x19F2 SWAP2 SWAP1 PUSH2 0x23DB JUMP JUMPDEST SWAP3 POP POP DUP2 SWAP1 SSTORE POP DUP1 PUSH1 0xC PUSH1 0x0 CALLER PUSH20 0xFFFFFFFFFFFFFFFFFFFFFFFFFFFFFFFFFFFFFFFF AND PUSH20 0xFFFFFFFFFFFFFFFFFFFFFFFFFFFFFFFFFFFFFFFF AND DUP2 MSTORE PUSH1 0x20 ADD SWAP1 DUP2 MSTORE PUSH1 0x20 ADD PUSH1 0x0 KECCAK256 PUSH1 0x0 DUP3 ADD MLOAD DUP2 PUSH1 0x0 ADD PUSH1 0x0 PUSH2 0x100 EXP DUP2 SLOAD DUP2 PUSH20 0xFFFFFFFFFFFFFFFFFFFFFFFFFFFFFFFFFFFFFFFF MUL NOT AND SWAP1 DUP4 PUSH20 0xFFFFFFFFFFFFFFFFFFFFFFFFFFFFFFFFFFFFFFFF AND MUL OR SWAP1 SSTORE POP PUSH1 0x20 DUP3 ADD MLOAD DUP2 PUSH1 0x1 ADD SSTORE SWAP1 POP POP POP POP POP JUMP JUMPDEST PUSH1 0x2 PUSH1 0x0 SWAP1 SLOAD SWAP1 PUSH2 0x100 EXP SWAP1 DIV PUSH20 0xFFFFFFFFFFFFFFFFFFFFFFFFFFFFFFFFFFFFFFFF AND PUSH20 0xFFFFFFFFFFFFFFFFFFFFFFFFFFFFFFFFFFFFFFFF AND CALLER PUSH20 0xFFFFFFFFFFFFFFFFFFFFFFFFFFFFFFFFFFFFFFFF AND EQ PUSH2 0x1B22 JUMPI PUSH1 0x40 MLOAD PUSH32 0x8C379A000000000000000000000000000000000000000000000000000000000 DUP2 MSTORE PUSH1 0x4 ADD PUSH2 0x1B19 SWAP1 PUSH2 0x248F JUMP JUMPDEST PUSH1 0x40 MLOAD DUP1 SWAP2 SUB SWAP1 REVERT JUMPDEST PUSH1 0x5 PUSH1 0x0 SWAP1 SLOAD SWAP1 PUSH2 0x100 EXP SWAP1 DIV PUSH1 0xFF AND PUSH2 0x1B71 JUMPI PUSH1 0x40 MLOAD PUSH32 0x8C379A000000000000000000000000000000000000000000000000000000000 DUP2 MSTORE PUSH1 0x4 ADD PUSH2 0x1B68 SWAP1 PUSH2 0x213A JUMP JUMPDEST PUSH1 0x40 MLOAD DUP1 SWAP2 SUB SWAP1 REVERT JUMPDEST PUSH1 0x4 SLOAD TIMESTAMP LT ISZERO PUSH2 0x1BB6 JUMPI PUSH1 0x40 MLOAD PUSH32 0x8C379A000000000000000000000000000000000000000000000000000000000 DUP2 MSTORE PUSH1 0x4 ADD PUSH2 0x1BAD SWAP1 PUSH2 0x2930 JUMP JUMPDEST PUSH1 0x40 MLOAD DUP1 SWAP2 SUB SWAP1 REVERT JUMPDEST PUSH1 0x5 PUSH1 0x1 SWAP1 SLOAD SWAP1 PUSH2 0x100 EXP SWAP1 DIV PUSH1 0xFF AND ISZERO PUSH2 0x1C06 JUMPI PUSH1 0x40 MLOAD PUSH32 0x8C379A000000000000000000000000000000000000000000000000000000000 DUP2 MSTORE PUSH1 0x4 ADD PUSH2 0x1BFD SWAP1 PUSH2 0x299C JUMP JUMPDEST PUSH1 0x40 MLOAD DUP1 SWAP2 SUB SWAP1 REVERT JUMPDEST PUSH1 0x1 PUSH1 0x5 PUSH1 0x1 PUSH2 0x100 EXP DUP2 SLOAD DUP2 PUSH1 0xFF MUL NOT AND SWAP1 DUP4 ISZERO ISZERO MUL OR SWAP1 SSTORE POP PUSH32 0xCA09734D1FC32150404DC9252B4D991C6BEE44319031B7159C03D5AE2C062704 PUSH1 0x9 PUSH1 0x0 SWAP1 SLOAD SWAP1 PUSH2 0x100 EXP SWAP1 DIV PUSH20 0xFFFFFFFFFFFFFFFFFFFFFFFFFFFFFFFFFFFFFFFF AND PUSH1 0xA SLOAD PUSH1 0x40 MLOAD PUSH2 0x1C76 SWAP3 SWAP2 SWAP1 PUSH2 0x1E41 JUMP JUMPDEST PUSH1 0x40 MLOAD DUP1 SWAP2 SUB SWAP1 LOG1 JUMP JUMPDEST PUSH1 0x0 DUP3 PUSH20 0xFFFFFFFFFFFFFFFFFFFFFFFFFFFFFFFFFFFFFFFF AND DUP3 PUSH1 0x40 MLOAD PUSH2 0x1CA6 SWAP1 PUSH2 0x2517 JUMP JUMPDEST PUSH1 0x0 PUSH1 0x40 MLOAD DUP1 DUP4 SUB DUP2 DUP6 DUP8 GAS CALL SWAP3 POP POP POP RETURNDATASIZE DUP1 PUSH1 0x0 DUP2 EQ PUSH2 0x1CE3 JUMPI PUSH1 0x40 MLOAD SWAP2 POP PUSH1 0x1F NOT PUSH1 0x3F RETURNDATASIZE ADD AND DUP3 ADD PUSH1 0x40 MSTORE RETURNDATASIZE DUP3 MSTORE RETURNDATASIZE PUSH1 0x0 PUSH1 0x20 DUP5 ADD RETURNDATACOPY PUSH2 0x1CE8 JUMP JUMPDEST PUSH1 0x60 SWAP2 POP JUMPDEST POP POP SWAP1 POP DUP1 PUSH2 0x1D2C JUMPI PUSH1 0x40 MLOAD PUSH32 0x8C379A000000000000000000000000000000000000000000000000000000000 DUP2 MSTORE PUSH1 0x4 ADD PUSH2 0x1D23 SWAP1 PUSH2 0x25E4 JUMP JUMPDEST PUSH1 0x40 MLOAD DUP1 SWAP2 SUB SWAP1 REVERT JUMPDEST POP POP POP JUMP JUMPDEST PUSH1 0x40 MLOAD DUP1 PUSH1 0x80 ADD PUSH1 0x40 MSTORE DUP1 PUSH1 0x0 DUP2 MSTORE PUSH1 0x20 ADD PUSH1 0x0 DUP2 MSTORE PUSH1 0x20 ADD PUSH1 0x0 DUP2 MSTORE PUSH1 0x20 ADD PUSH1 0x0 DUP2 MSTORE POP SWAP1 JUMP JUMPDEST PUSH1 0x40 MLOAD DUP1 PUSH1 0x40 ADD PUSH1 0x40 MSTORE DUP1 PUSH1 0x0 PUSH20 0xFFFFFFFFFFFFFFFFFFFFFFFFFFFFFFFFFFFFFFFF AND DUP2 MSTORE PUSH1 0x20 ADD PUSH1 0x0 DUP2 MSTORE POP SWAP1 JUMP JUMPDEST PUSH1 0x0 DUP1 REVERT JUMPDEST PUSH1 0x0 PUSH20 0xFFFFFFFFFFFFFFFFFFFFFFFFFFFFFFFFFFFFFFFF DUP3 AND SWAP1 POP SWAP2 SWAP1 POP JUMP JUMPDEST PUSH1 0x0 PUSH2 0x1DB9 DUP3 PUSH2 0x1D8E JUMP JUMPDEST SWAP1 POP SWAP2 SWAP1 POP JUMP JUMPDEST PUSH2 0x1DC9 DUP2 PUSH2 0x1DAE JUMP JUMPDEST DUP2 EQ PUSH2 0x1DD4 JUMPI PUSH1 0x0 DUP1 REVERT JUMPDEST POP JUMP JUMPDEST PUSH1 0x0 DUP2 CALLDATALOAD SWAP1 POP PUSH2 0x1DE6 DUP2 PUSH2 0x1DC0 JUMP JUMPDEST SWAP3 SWAP2 POP POP JUMP JUMPDEST PUSH1 0x0 PUSH1 0x20 DUP3 DUP5 SUB SLT ISZERO PUSH2 0x1E02 JUMPI PUSH2 0x1E01 PUSH2 0x1D89 JUMP JUMPDEST JUMPDEST PUSH1 0x0 PUSH2 0x1E10 DUP5 DUP3 DUP6 ADD PUSH2 0x1DD7 JUMP JUMPDEST SWAP2 POP POP SWAP3 SWAP2 POP POP JUMP JUMPDEST PUSH2 0x1E22 DUP2 PUSH2 0x1DAE JUMP JUMPDEST DUP3 MSTORE POP POP JUMP JUMPDEST PUSH1 0x0 DUP2 SWAP1 POP SWAP2 SWAP1 POP JUMP JUMPDEST PUSH2 0x1E3B DUP2 PUSH2 0x1E28 JUMP JUMPDEST DUP3 MSTORE POP POP JUMP JUMPDEST PUSH1 0x0 PUSH1 0x40 DUP3 ADD SWAP1 POP PUSH2 0x1E56 PUSH1 0x0 DUP4 ADD DUP6 PUSH2 0x1E19 JUMP JUMPDEST PUSH2 0x1E63 PUSH1 0x20 DUP4 ADD DUP5 PUSH2 0x1E32 JUMP JUMPDEST SWAP4 SWAP3 POP POP POP JUMP JUMPDEST PUSH1 0x0 PUSH2 0x1E75 DUP3 PUSH2 0x1D8E JUMP JUMPDEST SWAP1 POP SWAP2 SWAP1 POP JUMP JUMPDEST PUSH2 0x1E85 DUP2 PUSH2 0x1E6A JUMP JUMPDEST DUP3 MSTORE POP POP JUMP JUMPDEST PUSH1 0x0 PUSH1 0x20 DUP3 ADD SWAP1 POP PUSH2 0x1EA0 PUSH1 0x0 DUP4 ADD DUP5 PUSH2 0x1E7C JUMP JUMPDEST SWAP3 SWAP2 POP POP JUMP JUMPDEST PUSH1 0x0 PUSH1 0x20 DUP3 ADD SWAP1 POP PUSH2 0x1EBB PUSH1 0x0 DUP4 ADD DUP5 PUSH2 0x1E32 JUMP JUMPDEST SWAP3 SWAP2 POP POP JUMP JUMPDEST PUSH1 0x0 DUP2 ISZERO ISZERO SWAP1 POP SWAP2 SWAP1 POP JUMP JUMPDEST PUSH2 0x1ED6 DUP2 PUSH2 0x1EC1 JUMP JUMPDEST DUP3 MSTORE POP POP JUMP JUMPDEST PUSH1 0x0 PUSH1 0x20 DUP3 ADD SWAP1 POP PUSH2 0x1EF1 PUSH1 0x0 DUP4 ADD DUP5 PUSH2 0x1ECD JUMP JUMPDEST SWAP3 SWAP2 POP POP JUMP JUMPDEST PUSH2 0x1F00 DUP2 PUSH2 0x1E28 JUMP JUMPDEST DUP2 EQ PUSH2 0x1F0B JUMPI PUSH1 0x0 DUP1 REVERT JUMPDEST POP JUMP JUMPDEST PUSH1 0x0 DUP2 CALLDATALOAD SWAP1 POP PUSH2 0x1F1D DUP2 PUSH2 0x1EF7 JUMP JUMPDEST SWAP3 SWAP2 POP POP JUMP JUMPDEST PUSH1 0x0 DUP1 PUSH1 0x0 DUP1 PUSH1 0x80 DUP6 DUP8 SUB SLT ISZERO PUSH2 0x1F3D JUMPI PUSH2 0x1F3C PUSH2 0x1D89 JUMP JUMPDEST JUMPDEST PUSH1 0x0 PUSH2 0x1F4B DUP8 DUP3 DUP9 ADD PUSH2 0x1F0E JUMP JUMPDEST SWAP5 POP POP PUSH1 0x20 PUSH2 0x1F5C DUP8 DUP3 DUP9 ADD PUSH2 0x1F0E JUMP JUMPDEST SWAP4 POP POP PUSH1 0x40 PUSH2 0x1F6D DUP8 DUP3 DUP9 ADD PUSH2 0x1F0E JUMP JUMPDEST SWAP3 POP POP PUSH1 0x60 PUSH2 0x1F7E DUP8 DUP3 DUP9 ADD PUSH2 0x1F0E JUMP JUMPDEST SWAP2 POP POP SWAP3 SWAP6 SWAP2 SWAP5 POP SWAP3 POP JUMP JUMPDEST PUSH1 0x0 DUP2 SWAP1 POP SWAP2 SWAP1 POP JUMP JUMPDEST PUSH1 0x0 PUSH2 0x1FAF PUSH2 0x1FAA PUSH2 0x1FA5 DUP5 PUSH2 0x1D8E JUMP JUMPDEST PUSH2 0x1F8A JUMP JUMPDEST PUSH2 0x1D8E JUMP JUMPDEST SWAP1 POP SWAP2 SWAP1 POP JUMP JUMPDEST PUSH1 0x0 PUSH2 0x1FC1 DUP3 PUSH2 0x1F94 JUMP JUMPDEST SWAP1 POP SWAP2 SWAP1 POP JUMP JUMPDEST PUSH1 0x0 PUSH2 0x1FD3 DUP3 PUSH2 0x1FB6 JUMP JUMPDEST SWAP1 POP SWAP2 SWAP1 POP JUMP JUMPDEST PUSH2 0x1FE3 DUP2 PUSH2 0x1FC8 JUMP JUMPDEST DUP3 MSTORE POP POP JUMP JUMPDEST PUSH1 0x0 PUSH1 0x20 DUP3 ADD SWAP1 POP PUSH2 0x1FFE PUSH1 0x0 DUP4 ADD DUP5 PUSH2 0x1FDA JUMP JUMPDEST SWAP3 SWAP2 POP POP JUMP JUMPDEST PUSH1 0x0 PUSH1 0x20 DUP3 ADD SWAP1 POP PUSH2 0x2019 PUSH1 0x0 DUP4 ADD DUP5 PUSH2 0x1E19 JUMP JUMPDEST SWAP3 SWAP2 POP POP JUMP JUMPDEST PUSH1 0x0 PUSH1 0x80 DUP3 ADD SWAP1 POP PUSH2 0x2034 PUSH1 0x0 DUP4 ADD DUP8 PUSH2 0x1E32 JUMP JUMPDEST PUSH2 0x2041 PUSH1 0x20 DUP4 ADD DUP7 PUSH2 0x1E32 JUMP JUMPDEST PUSH2 0x204E PUSH1 0x40 DUP4 ADD DUP6 PUSH2 0x1E32 JUMP JUMPDEST PUSH2 0x205B PUSH1 0x60 DUP4 ADD DUP5 PUSH2 0x1E32 JUMP JUMPDEST SWAP6 SWAP5 POP POP POP POP POP JUMP JUMPDEST PUSH1 0x0 PUSH1 0xFF DUP3 AND SWAP1 POP SWAP2 SWAP1 POP JUMP JUMPDEST PUSH2 0x207A DUP2 PUSH2 0x2064 JUMP JUMPDEST DUP2 EQ PUSH2 0x2085 JUMPI PUSH1 0x0 DUP1 REVERT JUMPDEST POP JUMP JUMPDEST PUSH1 0x0 DUP2 CALLDATALOAD SWAP1 POP PUSH2 0x2097 DUP2 PUSH2 0x2071 JUMP JUMPDEST SWAP3 SWAP2 POP POP JUMP JUMPDEST PUSH1 0x0 DUP1 PUSH1 0x40 DUP4 DUP6 SUB SLT ISZERO PUSH2 0x20B4 JUMPI PUSH2 0x20B3 PUSH2 0x1D89 JUMP JUMPDEST JUMPDEST PUSH1 0x0 PUSH2 0x20C2 DUP6 DUP3 DUP7 ADD PUSH2 0x1DD7 JUMP JUMPDEST SWAP3 POP POP PUSH1 0x20 PUSH2 0x20D3 DUP6 DUP3 DUP7 ADD PUSH2 0x2088 JUMP JUMPDEST SWAP2 POP POP SWAP3 POP SWAP3 SWAP1 POP JUMP JUMPDEST PUSH1 0x0 DUP3 DUP3 MSTORE PUSH1 0x20 DUP3 ADD SWAP1 POP SWAP3 SWAP2 POP POP JUMP JUMPDEST PUSH32 0x4E6F742053746172746564205965740000000000000000000000000000000000 PUSH1 0x0 DUP3 ADD MSTORE POP JUMP JUMPDEST PUSH1 0x0 PUSH2 0x2124 PUSH1 0xF DUP4 PUSH2 0x20DD JUMP JUMPDEST SWAP2 POP PUSH2 0x212F DUP3 PUSH2 0x20EE JUMP JUMPDEST PUSH1 0x20 DUP3 ADD SWAP1 POP SWAP2 SWAP1 POP JUMP JUMPDEST PUSH1 0x0 PUSH1 0x20 DUP3 ADD SWAP1 POP DUP2 DUP2 SUB PUSH1 0x0 DUP4 ADD MSTORE PUSH2 0x2153 DUP2 PUSH2 0x2117 JUMP JUMPDEST SWAP1 POP SWAP2 SWAP1 POP JUMP JUMPDEST PUSH32 0x41756374696F6E20506175736564000000000000000000000000000000000000 PUSH1 0x0 DUP3 ADD MSTORE POP JUMP JUMPDEST PUSH1 0x0 PUSH2 0x2190 PUSH1 0xE DUP4 PUSH2 0x20DD JUMP JUMPDEST SWAP2 POP PUSH2 0x219B DUP3 PUSH2 0x215A JUMP JUMPDEST PUSH1 0x20 DUP3 ADD SWAP1 POP SWAP2 SWAP1 POP JUMP JUMPDEST PUSH1 0x0 PUSH1 0x20 DUP3 ADD SWAP1 POP DUP2 DUP2 SUB PUSH1 0x0 DUP4 ADD MSTORE PUSH2 0x21BF DUP2 PUSH2 0x2183 JUMP JUMPDEST SWAP1 POP SWAP2 SWAP1 POP JUMP JUMPDEST PUSH32 0x416C726561647920656E64656400000000000000000000000000000000000000 PUSH1 0x0 DUP3 ADD MSTORE POP JUMP JUMPDEST PUSH1 0x0 PUSH2 0x21FC PUSH1 0xD DUP4 PUSH2 0x20DD JUMP JUMPDEST SWAP2 POP PUSH2 0x2207 DUP3 PUSH2 0x21C6 JUMP JUMPDEST PUSH1 0x20 DUP3 ADD SWAP1 POP SWAP2 SWAP1 POP JUMP JUMPDEST PUSH1 0x0 PUSH1 0x20 DUP3 ADD SWAP1 POP DUP2 DUP2 SUB PUSH1 0x0 DUP4 ADD MSTORE PUSH2 0x222B DUP2 PUSH2 0x21EF JUMP JUMPDEST SWAP1 POP SWAP2 SWAP1 POP JUMP JUMPDEST PUSH32 0x4C6F776572204269640000000000000000000000000000000000000000000000 PUSH1 0x0 DUP3 ADD MSTORE POP JUMP JUMPDEST PUSH1 0x0 PUSH2 0x2268 PUSH1 0x9 DUP4 PUSH2 0x20DD JUMP JUMPDEST SWAP2 POP PUSH2 0x2273 DUP3 PUSH2 0x2232 JUMP JUMPDEST PUSH1 0x20 DUP3 ADD SWAP1 POP SWAP2 SWAP1 POP JUMP JUMPDEST PUSH1 0x0 PUSH1 0x20 DUP3 ADD SWAP1 POP DUP2 DUP2 SUB PUSH1 0x0 DUP4 ADD MSTORE PUSH2 0x2297 DUP2 PUSH2 0x225B JUMP JUMPDEST SWAP1 POP SWAP2 SWAP1 POP JUMP JUMPDEST PUSH32 0x53656C6C6572206E6F7420616C6C6F7765640000000000000000000000000000 PUSH1 0x0 DUP3 ADD MSTORE POP JUMP JUMPDEST PUSH1 0x0 PUSH2 0x22D4 PUSH1 0x12 DUP4 PUSH2 0x20DD JUMP JUMPDEST SWAP2 POP PUSH2 0x22DF DUP3 PUSH2 0x229E JUMP JUMPDEST PUSH1 0x20 DUP3 ADD SWAP1 POP SWAP2 SWAP1 POP JUMP JUMPDEST PUSH1 0x0 PUSH1 0x20 DUP3 ADD SWAP1 POP DUP2 DUP2 SUB PUSH1 0x0 DUP4 ADD MSTORE PUSH2 0x2303 DUP2 PUSH2 0x22C7 JUMP JUMPDEST SWAP1 POP SWAP2 SWAP1 POP JUMP JUMPDEST PUSH32 0x4E487B7100000000000000000000000000000000000000000000000000000000 PUSH1 0x0 MSTORE PUSH1 0x12 PUSH1 0x4 MSTORE PUSH1 0x24 PUSH1 0x0 REVERT JUMPDEST PUSH32 0x4E487B7100000000000000000000000000000000000000000000000000000000 PUSH1 0x0 MSTORE PUSH1 0x11 PUSH1 0x4 MSTORE PUSH1 0x24 PUSH1 0x0 REVERT JUMPDEST PUSH1 0x0 PUSH2 0x2373 DUP3 PUSH2 0x1E28 JUMP JUMPDEST SWAP2 POP PUSH2 0x237E DUP4 PUSH2 0x1E28 JUMP JUMPDEST SWAP3 POP DUP3 PUSH2 0x238E JUMPI PUSH2 0x238D PUSH2 0x230A JUMP JUMPDEST JUMPDEST DUP3 DUP3 DIV SWAP1 POP SWAP3 SWAP2 POP POP JUMP JUMPDEST PUSH1 0x0 PUSH2 0x23A4 DUP3 PUSH2 0x1E28 JUMP JUMPDEST SWAP2 POP PUSH2 0x23AF DUP4 PUSH2 0x1E28 JUMP JUMPDEST SWAP3 POP DUP3 DUP3 MUL PUSH2 0x23BD DUP2 PUSH2 0x1E28 JUMP JUMPDEST SWAP2 POP DUP3 DUP3 DIV DUP5 EQ DUP4 ISZERO OR PUSH2 0x23D4 JUMPI PUSH2 0x23D3 PUSH2 0x2339 JUMP JUMPDEST JUMPDEST POP SWAP3 SWAP2 POP POP JUMP JUMPDEST PUSH1 0x0 PUSH2 0x23E6 DUP3 PUSH2 0x1E28 JUMP JUMPDEST SWAP2 POP PUSH2 0x23F1 DUP4 PUSH2 0x1E28 JUMP JUMPDEST SWAP3 POP DUP3 DUP3 ADD SWAP1 POP DUP1 DUP3 GT ISZERO PUSH2 0x2409 JUMPI PUSH2 0x2408 PUSH2 0x2339 JUMP JUMPDEST JUMPDEST SWAP3 SWAP2 POP POP JUMP JUMPDEST PUSH1 0x0 PUSH2 0x241A DUP3 PUSH2 0x1E28 JUMP JUMPDEST SWAP2 POP PUSH2 0x2425 DUP4 PUSH2 0x1E28 JUMP JUMPDEST SWAP3 POP DUP3 DUP3 SUB SWAP1 POP DUP2 DUP2 GT ISZERO PUSH2 0x243D JUMPI PUSH2 0x243C PUSH2 0x2339 JUMP JUMPDEST JUMPDEST SWAP3 SWAP2 POP POP JUMP JUMPDEST PUSH32 0x53656E646572206973206E6F74206F776E657200000000000000000000000000 PUSH1 0x0 DUP3 ADD MSTORE POP JUMP JUMPDEST PUSH1 0x0 PUSH2 0x2479 PUSH1 0x13 DUP4 PUSH2 0x20DD JUMP JUMPDEST SWAP2 POP PUSH2 0x2484 DUP3 PUSH2 0x2443 JUMP JUMPDEST PUSH1 0x20 DUP3 ADD SWAP1 POP SWAP2 SWAP1 POP JUMP JUMPDEST PUSH1 0x0 PUSH1 0x20 DUP3 ADD SWAP1 POP DUP2 DUP2 SUB PUSH1 0x0 DUP4 ADD MSTORE PUSH2 0x24A8 DUP2 PUSH2 0x246C JUMP JUMPDEST SWAP1 POP SWAP2 SWAP1 POP JUMP JUMPDEST PUSH1 0x0 PUSH1 0x60 DUP3 ADD SWAP1 POP PUSH2 0x24C4 PUSH1 0x0 DUP4 ADD DUP7 PUSH2 0x1E19 JUMP JUMPDEST PUSH2 0x24D1 PUSH1 0x20 DUP4 ADD DUP6 PUSH2 0x1E19 JUMP JUMPDEST PUSH2 0x24DE PUSH1 0x40 DUP4 ADD DUP5 PUSH2 0x1E32 JUMP JUMPDEST SWAP5 SWAP4 POP POP POP POP JUMP JUMPDEST PUSH1 0x0 DUP2 SWAP1 POP SWAP3 SWAP2 POP POP JUMP JUMPDEST POP JUMP JUMPDEST PUSH1 0x0 PUSH2 0x2501 PUSH1 0x0 DUP4 PUSH2 0x24E6 JUMP JUMPDEST SWAP2 POP PUSH2 0x250C DUP3 PUSH2 0x24F1 JUMP JUMPDEST PUSH1 0x0 DUP3 ADD SWAP1 POP SWAP2 SWAP1 POP JUMP JUMPDEST PUSH1 0x0 PUSH2 0x2522 DUP3 PUSH2 0x24F4 JUMP JUMPDEST SWAP2 POP DUP2 SWAP1 POP SWAP2 SWAP1 POP JUMP JUMPDEST PUSH32 0x52657475726E206665652066756E6473206661696C6564000000000000000000 PUSH1 0x0 DUP3 ADD MSTORE POP JUMP JUMPDEST PUSH1 0x0 PUSH2 0x2562 PUSH1 0x17 DUP4 PUSH2 0x20DD JUMP JUMPDEST SWAP2 POP PUSH2 0x256D DUP3 PUSH2 0x252C JUMP JUMPDEST PUSH1 0x20 DUP3 ADD SWAP1 POP SWAP2 SWAP1 POP JUMP JUMPDEST PUSH1 0x0 PUSH1 0x20 DUP3 ADD SWAP1 POP DUP2 DUP2 SUB PUSH1 0x0 DUP4 ADD MSTORE PUSH2 0x2591 DUP2 PUSH2 0x2555 JUMP JUMPDEST SWAP1 POP SWAP2 SWAP1 POP JUMP JUMPDEST PUSH32 0x52657475726E2066756E6473206661696C656400000000000000000000000000 PUSH1 0x0 DUP3 ADD MSTORE POP JUMP JUMPDEST PUSH1 0x0 PUSH2 0x25CE PUSH1 0x13 DUP4 PUSH2 0x20DD JUMP JUMPDEST SWAP2 POP PUSH2 0x25D9 DUP3 PUSH2 0x2598 JUMP JUMPDEST PUSH1 0x20 DUP3 ADD SWAP1 POP SWAP2 SWAP1 POP JUMP JUMPDEST PUSH1 0x0 PUSH1 0x20 DUP3 ADD SWAP1 POP DUP2 DUP2 SUB PUSH1 0x0 DUP4 ADD MSTORE PUSH2 0x25FD DUP2 PUSH2 0x25C1 JUMP JUMPDEST SWAP1 POP SWAP2 SWAP1 POP JUMP JUMPDEST PUSH1 0x0 PUSH2 0x260F DUP3 PUSH2 0x1FB6 JUMP JUMPDEST SWAP1 POP SWAP2 SWAP1 POP JUMP JUMPDEST PUSH2 0x261F DUP2 PUSH2 0x2604 JUMP JUMPDEST DUP3 MSTORE POP POP JUMP JUMPDEST PUSH1 0x0 PUSH1 0x60 DUP3 ADD SWAP1 POP PUSH2 0x263A PUSH1 0x0 DUP4 ADD DUP7 PUSH2 0x1E19 JUMP JUMPDEST PUSH2 0x2647 PUSH1 0x20 DUP4 ADD DUP6 PUSH2 0x2616 JUMP JUMPDEST PUSH2 0x2654 PUSH1 0x40 DUP4 ADD DUP5 PUSH2 0x1E32 JUMP JUMPDEST SWAP5 SWAP4 POP POP POP POP JUMP JUMPDEST PUSH32 0x596F757220426964206973207468652068696768657200000000000000000000 PUSH1 0x0 DUP3 ADD MSTORE POP JUMP JUMPDEST PUSH1 0x0 PUSH2 0x2692 PUSH1 0x16 DUP4 PUSH2 0x20DD JUMP JUMPDEST SWAP2 POP PUSH2 0x269D DUP3 PUSH2 0x265C JUMP JUMPDEST PUSH1 0x20 DUP3 ADD SWAP1 POP SWAP2 SWAP1 POP JUMP JUMPDEST PUSH1 0x0 PUSH1 0x20 DUP3 ADD SWAP1 POP DUP2 DUP2 SUB PUSH1 0x0 DUP4 ADD MSTORE PUSH2 0x26C1 DUP2 PUSH2 0x2685 JUMP JUMPDEST SWAP1 POP SWAP2 SWAP1 POP JUMP JUMPDEST PUSH32 0x4E6F206269647320666F756E6465640000000000000000000000000000000000 PUSH1 0x0 DUP3 ADD MSTORE POP JUMP JUMPDEST PUSH1 0x0 PUSH2 0x26FE PUSH1 0xF DUP4 PUSH2 0x20DD JUMP JUMPDEST SWAP2 POP PUSH2 0x2709 DUP3 PUSH2 0x26C8 JUMP JUMPDEST PUSH1 0x20 DUP3 ADD SWAP1 POP SWAP2 SWAP1 POP JUMP JUMPDEST PUSH1 0x0 PUSH1 0x20 DUP3 ADD SWAP1 POP DUP2 DUP2 SUB PUSH1 0x0 DUP4 ADD MSTORE PUSH2 0x272D DUP2 PUSH2 0x26F1 JUMP JUMPDEST SWAP1 POP SWAP2 SWAP1 POP JUMP JUMPDEST PUSH32 0x416C726561647920537461727465640000000000000000000000000000000000 PUSH1 0x0 DUP3 ADD MSTORE POP JUMP JUMPDEST PUSH1 0x0 PUSH2 0x276A PUSH1 0xF DUP4 PUSH2 0x20DD JUMP JUMPDEST SWAP2 POP PUSH2 0x2775 DUP3 PUSH2 0x2734 JUMP JUMPDEST PUSH1 0x20 DUP3 ADD SWAP1 POP SWAP2 SWAP1 POP JUMP JUMPDEST PUSH1 0x0 PUSH1 0x20 DUP3 ADD SWAP1 POP DUP2 DUP2 SUB PUSH1 0x0 DUP4 ADD MSTORE PUSH2 0x2799 DUP2 PUSH2 0x275D JUMP JUMPDEST SWAP1 POP SWAP2 SWAP1 POP JUMP JUMPDEST PUSH32 0x416C726561647920506175736564000000000000000000000000000000000000 PUSH1 0x0 DUP3 ADD MSTORE POP JUMP JUMPDEST PUSH1 0x0 PUSH2 0x27D6 PUSH1 0xE DUP4 PUSH2 0x20DD JUMP JUMPDEST SWAP2 POP PUSH2 0x27E1 DUP3 PUSH2 0x27A0 JUMP JUMPDEST PUSH1 0x20 DUP3 ADD SWAP1 POP SWAP2 SWAP1 POP JUMP JUMPDEST PUSH1 0x0 PUSH1 0x20 DUP3 ADD SWAP1 POP DUP2 DUP2 SUB PUSH1 0x0 DUP4 ADD MSTORE PUSH2 0x2805 DUP2 PUSH2 0x27C9 JUMP JUMPDEST SWAP1 POP SWAP2 SWAP1 POP JUMP JUMPDEST PUSH32 0x416C72656164792052756E6E696E670000000000000000000000000000000000 PUSH1 0x0 DUP3 ADD MSTORE POP JUMP JUMPDEST PUSH1 0x0 PUSH2 0x2842 PUSH1 0xF DUP4 PUSH2 0x20DD JUMP JUMPDEST SWAP2 POP PUSH2 0x284D DUP3 PUSH2 0x280C JUMP JUMPDEST PUSH1 0x20 DUP3 ADD SWAP1 POP SWAP2 SWAP1 POP JUMP JUMPDEST PUSH1 0x0 PUSH1 0x20 DUP3 ADD SWAP1 POP DUP2 DUP2 SUB PUSH1 0x0 DUP4 ADD MSTORE PUSH2 0x2871 DUP2 PUSH2 0x2835 JUMP JUMPDEST SWAP1 POP SWAP2 SWAP1 POP JUMP JUMPDEST PUSH32 0x31303025206F66207468652066656520616C726561647920616C6F6361746564 PUSH1 0x0 DUP3 ADD MSTORE POP JUMP JUMPDEST PUSH1 0x0 PUSH2 0x28AE PUSH1 0x20 DUP4 PUSH2 0x20DD JUMP JUMPDEST SWAP2 POP PUSH2 0x28B9 DUP3 PUSH2 0x2878 JUMP JUMPDEST PUSH1 0x20 DUP3 ADD SWAP1 POP SWAP2 SWAP1 POP JUMP JUMPDEST PUSH1 0x0 PUSH1 0x20 DUP3 ADD SWAP1 POP DUP2 DUP2 SUB PUSH1 0x0 DUP4 ADD MSTORE PUSH2 0x28DD DUP2 PUSH2 0x28A1 JUMP JUMPDEST SWAP1 POP SWAP2 SWAP1 POP JUMP JUMPDEST PUSH32 0x4E6F7420456E6465640000000000000000000000000000000000000000000000 PUSH1 0x0 DUP3 ADD MSTORE POP JUMP JUMPDEST PUSH1 0x0 PUSH2 0x291A PUSH1 0x9 DUP4 PUSH2 0x20DD JUMP JUMPDEST SWAP2 POP PUSH2 0x2925 DUP3 PUSH2 0x28E4 JUMP JUMPDEST PUSH1 0x20 DUP3 ADD SWAP1 POP SWAP2 SWAP1 POP JUMP JUMPDEST PUSH1 0x0 PUSH1 0x20 DUP3 ADD SWAP1 POP DUP2 DUP2 SUB PUSH1 0x0 DUP4 ADD MSTORE PUSH2 0x2949 DUP2 PUSH2 0x290D JUMP JUMPDEST SWAP1 POP SWAP2 SWAP1 POP JUMP JUMPDEST PUSH32 0x416C726561647920456E64656400000000000000000000000000000000000000 PUSH1 0x0 DUP3 ADD MSTORE POP JUMP JUMPDEST PUSH1 0x0 PUSH2 0x2986 PUSH1 0xD DUP4 PUSH2 0x20DD JUMP JUMPDEST SWAP2 POP PUSH2 0x2991 DUP3 PUSH2 0x2950 JUMP JUMPDEST PUSH1 0x20 DUP3 ADD SWAP1 POP SWAP2 SWAP1 POP JUMP JUMPDEST PUSH1 0x0 PUSH1 0x20 DUP3 ADD SWAP1 POP DUP2 DUP2 SUB PUSH1 0x0 DUP4 ADD MSTORE PUSH2 0x29B5 DUP2 PUSH2 0x2979 JUMP JUMPDEST SWAP1 POP SWAP2 SWAP1 POP JUMP INVALID LOG2 PUSH5 0x6970667358 0x22 SLT KECCAK256 SWAP2 0x4C SWAP15 0xB4 PUSH1 0xB4 ADDMOD PUSH25 0xF479E2ABE890B242580CF0EF393E2AD3FAB248F352EF77564 PUSH20 0x6F6C634300081100330000000000000000000000 "
				},
				"gasEstimates": {
					"creation": {
						"codeDepositCost": "2147600",
						"executionCost": "infinite",
						"totalCost": "infinite"
					},
					"external": {
						"": "241",
						"FEE_BASE()": "417",
						"addNewFeeReceiver(address,uint8)": "infinite",
						"closeAuction()": "infinite",
						"endAt()": "2496",
						"endAuction()": "39082",
						"ended()": "2611",
						"feeAddress()": "2625",
						"feeReceivers(address)": "infinite",
						"getBalance()": "407",
						"highestBid()": "2495",
						"highestBidder()": "2603",
						"newBid(uint256,uint256,uint256,uint256)": "infinite",
						"nft()": "infinite",
						"nftId()": "2451",
						"numberOfBids()": "2541",
						"pauseAuction()": "30209",
						"paused()": "2544",
						"receivedBids(address)": "infinite",
						"seller()": "2560",
						"startAuction()": "infinite",
						"started()": "2494",
						"totalFee()": "2563",
						"unpauseAuction()": "30117",
						"withdraw()": "infinite"
					},
					"internal": {
						"cashback(address,uint256)": "infinite"
					}
				},
				"methodIdentifiers": {
					"FEE_BASE()": "ecefc705",
					"addNewFeeReceiver(address,uint8)": "fd231f8f",
					"closeAuction()": "378252f2",
					"endAt()": "7cc3ae8c",
					"endAuction()": "fe67a54b",
					"ended()": "12fa6feb",
					"feeAddress()": "41275358",
					"feeReceivers(address)": "02097ab1",
					"getBalance()": "12065fe0",
					"highestBid()": "d57bde79",
					"highestBidder()": "91f90157",
					"newBid(uint256,uint256,uint256,uint256)": "2aeee493",
					"nft()": "47ccca02",
					"nftId()": "c6bc5182",
					"numberOfBids()": "17d531fc",
					"pauseAuction()": "b9ae7364",
					"paused()": "5c975abb",
					"receivedBids(address)": "95ecc5cc",
					"seller()": "08551a53",
					"startAuction()": "6b64c769",
					"started()": "1f2698ab",
					"totalFee()": "1df4ccfc",
					"unpauseAuction()": "ceb16419",
					"withdraw()": "3ccfd60b"
				}
			},
			"storageLayout": {
				"storage": [
					{
						"astId": 51,
						"contract": "Contracts/AuctionSPU.sol:AuctionSPU",
						"label": "nft",
						"offset": 0,
						"slot": "0",
						"type": "t_contract(IERC721)20"
					},
					{
						"astId": 53,
						"contract": "Contracts/AuctionSPU.sol:AuctionSPU",
						"label": "nftId",
						"offset": 0,
						"slot": "1",
						"type": "t_uint256"
					},
					{
						"astId": 55,
						"contract": "Contracts/AuctionSPU.sol:AuctionSPU",
						"label": "seller",
						"offset": 0,
						"slot": "2",
						"type": "t_address_payable"
					},
					{
						"astId": 57,
						"contract": "Contracts/AuctionSPU.sol:AuctionSPU",
						"label": "feeAddress",
						"offset": 0,
						"slot": "3",
						"type": "t_address_payable"
					},
					{
						"astId": 59,
						"contract": "Contracts/AuctionSPU.sol:AuctionSPU",
						"label": "endAt",
						"offset": 0,
						"slot": "4",
						"type": "t_uint256"
					},
					{
						"astId": 61,
						"contract": "Contracts/AuctionSPU.sol:AuctionSPU",
						"label": "started",
						"offset": 0,
						"slot": "5",
						"type": "t_bool"
					},
					{
						"astId": 63,
						"contract": "Contracts/AuctionSPU.sol:AuctionSPU",
						"label": "ended",
						"offset": 1,
						"slot": "5",
						"type": "t_bool"
					},
					{
						"astId": 65,
						"contract": "Contracts/AuctionSPU.sol:AuctionSPU",
						"label": "paused",
						"offset": 2,
						"slot": "5",
						"type": "t_bool"
					},
					{
						"astId": 67,
						"contract": "Contracts/AuctionSPU.sol:AuctionSPU",
						"label": "numberOfBids",
						"offset": 0,
						"slot": "6",
						"type": "t_uint256"
					},
					{
						"astId": 69,
						"contract": "Contracts/AuctionSPU.sol:AuctionSPU",
						"label": "transactionFee",
						"offset": 0,
						"slot": "7",
						"type": "t_uint256"
					},
					{
						"astId": 74,
						"contract": "Contracts/AuctionSPU.sol:AuctionSPU",
						"label": "totalFee",
						"offset": 0,
						"slot": "8",
						"type": "t_uint256"
					},
					{
						"astId": 76,
						"contract": "Contracts/AuctionSPU.sol:AuctionSPU",
						"label": "highestBidder",
						"offset": 0,
						"slot": "9",
						"type": "t_address"
					},
					{
						"astId": 78,
						"contract": "Contracts/AuctionSPU.sol:AuctionSPU",
						"label": "highestBid",
						"offset": 0,
						"slot": "10",
						"type": "t_uint256"
					},
					{
						"astId": 97,
						"contract": "Contracts/AuctionSPU.sol:AuctionSPU",
						"label": "receivedBids",
						"offset": 0,
						"slot": "11",
						"type": "t_mapping(t_address,t_struct(Bidders)87_storage)"
					},
					{
						"astId": 102,
						"contract": "Contracts/AuctionSPU.sol:AuctionSPU",
						"label": "feeReceivers",
						"offset": 0,
						"slot": "12",
						"type": "t_mapping(t_address,t_struct(FeeReceivers)92_storage)"
					}
				],
				"types": {
					"t_address": {
						"encoding": "inplace",
						"label": "address",
						"numberOfBytes": "20"
					},
					"t_address_payable": {
						"encoding": "inplace",
						"label": "address payable",
						"numberOfBytes": "20"
					},
					"t_bool": {
						"encoding": "inplace",
						"label": "bool",
						"numberOfBytes": "1"
					},
					"t_contract(IERC721)20": {
						"encoding": "inplace",
						"label": "contract IERC721",
						"numberOfBytes": "20"
					},
					"t_mapping(t_address,t_struct(Bidders)87_storage)": {
						"encoding": "mapping",
						"key": "t_address",
						"label": "mapping(address => struct AuctionSPU.Bidders)",
						"numberOfBytes": "32",
						"value": "t_struct(Bidders)87_storage"
					},
					"t_mapping(t_address,t_struct(FeeReceivers)92_storage)": {
						"encoding": "mapping",
						"key": "t_address",
						"label": "mapping(address => struct AuctionSPU.FeeReceivers)",
						"numberOfBytes": "32",
						"value": "t_struct(FeeReceivers)92_storage"
					},
					"t_struct(Bidders)87_storage": {
						"encoding": "inplace",
						"label": "struct AuctionSPU.Bidders",
						"members": [
							{
								"astId": 80,
								"contract": "Contracts/AuctionSPU.sol:AuctionSPU",
								"label": "totalValue",
								"offset": 0,
								"slot": "0",
								"type": "t_uint256"
							},
							{
								"astId": 82,
								"contract": "Contracts/AuctionSPU.sol:AuctionSPU",
								"label": "realValue",
								"offset": 0,
								"slot": "1",
								"type": "t_uint256"
							},
							{
								"astId": 84,
								"contract": "Contracts/AuctionSPU.sol:AuctionSPU",
								"label": "portion",
								"offset": 0,
								"slot": "2",
								"type": "t_uint256"
							},
							{
								"astId": 86,
								"contract": "Contracts/AuctionSPU.sol:AuctionSPU",
								"label": "clientScore",
								"offset": 0,
								"slot": "3",
								"type": "t_uint256"
							}
						],
						"numberOfBytes": "128"
					},
					"t_struct(FeeReceivers)92_storage": {
						"encoding": "inplace",
						"label": "struct AuctionSPU.FeeReceivers",
						"members": [
							{
								"astId": 89,
								"contract": "Contracts/AuctionSPU.sol:AuctionSPU",
								"label": "recipient",
								"offset": 0,
								"slot": "0",
								"type": "t_address"
							},
							{
								"astId": 91,
								"contract": "Contracts/AuctionSPU.sol:AuctionSPU",
								"label": "fee",
								"offset": 0,
								"slot": "1",
								"type": "t_uint256"
							}
						],
						"numberOfBytes": "64"
					},
					"t_uint256": {
						"encoding": "inplace",
						"label": "uint256",
						"numberOfBytes": "32"
					}
				}
			},
			"userdoc": {
				"kind": "user",
				"methods": {},
				"version": 1
			}
		}
	}
}