{
	"Contracts/PaymentSplitFactory.sol": {
		"PaymentSplitFactory": {
			"abi": [
				{
					"inputs": [],
					"stateMutability": "nonpayable",
					"type": "constructor"
				},
				{
					"anonymous": false,
					"inputs": [
						{
							"indexed": false,
							"internalType": "address",
							"name": "creator",
							"type": "address"
						},
						{
							"indexed": false,
							"internalType": "address",
							"name": "newTokenAddress",
							"type": "address"
						}
					],
					"name": "NewPaymentSplitGenerated",
					"type": "event"
				},
				{
					"inputs": [
						{
							"internalType": "address",
							"name": "",
							"type": "address"
						}
					],
					"name": "_indexOfPaymentSplitByAddress",
					"outputs": [
						{
							"internalType": "uint256",
							"name": "",
							"type": "uint256"
						}
					],
					"stateMutability": "view",
					"type": "function"
				},
				{
					"inputs": [
						{
							"internalType": "uint256",
							"name": "",
							"type": "uint256"
						}
					],
					"name": "_paymentSplit",
					"outputs": [
						{
							"internalType": "contract PaymentSplit",
							"name": "",
							"type": "address"
						}
					],
					"stateMutability": "view",
					"type": "function"
				},
				{
					"inputs": [
						{
							"internalType": "address payable",
							"name": "_owner",
							"type": "address"
						}
					],
					"name": "createPaymentTokens",
					"outputs": [],
					"stateMutability": "nonpayable",
					"type": "function"
				},
				{
					"inputs": [],
					"name": "owner",
					"outputs": [
						{
							"internalType": "address payable",
							"name": "",
							"type": "address"
						}
					],
					"stateMutability": "view",
					"type": "function"
				}
			],
			"devdoc": {
				"kind": "dev",
				"methods": {},
				"version": 1
			},
			"evm": {
				"assembly": "    /* \"Contracts/PaymentSplitFactory.sol\":93:1101  contract PaymentSplitFactory{... */\n  mstore(0x40, 0x80)\n    /* \"Contracts/PaymentSplitFactory.sol\":382:450  constructor(){... */\n  callvalue\n  dup1\n  iszero\n  tag_1\n  jumpi\n  0x00\n  dup1\n  revert\ntag_1:\n  pop\n    /* \"Contracts/PaymentSplitFactory.sol\":410:415  owner */\n  0x02\n    /* \"Contracts/PaymentSplitFactory.sol\":410:437  owner = payable(msg.sender) */\n  dup1\n  sload\n  not(sub(shl(0xa0, 0x01), 0x01))\n  and\n    /* \"Contracts/PaymentSplitFactory.sol\":426:436  msg.sender */\n  caller\n    /* \"Contracts/PaymentSplitFactory.sol\":410:437  owner = payable(msg.sender) */\n  or\n  swap1\n  sstore\n    /* \"Contracts/PaymentSplitFactory.sol\":93:1101  contract PaymentSplitFactory{... */\n  dataSize(sub_0)\n  dup1\n  dataOffset(sub_0)\n  0x00\n  codecopy\n  0x00\n  return\nstop\n\nsub_0: assembly {\n        /* \"Contracts/PaymentSplitFactory.sol\":93:1101  contract PaymentSplitFactory{... */\n      mstore(0x40, 0x80)\n      callvalue\n      dup1\n      iszero\n      tag_1\n      jumpi\n      0x00\n      dup1\n      revert\n    tag_1:\n      pop\n      jumpi(tag_2, lt(calldatasize, 0x04))\n      shr(0xe0, calldataload(0x00))\n      dup1\n      0x384d4e6c\n      eq\n      tag_3\n      jumpi\n      dup1\n      0x8da5cb5b\n      eq\n      tag_4\n      jumpi\n      dup1\n      0x965fa668\n      eq\n      tag_5\n      jumpi\n      dup1\n      0xad5e9b65\n      eq\n      tag_6\n      jumpi\n    tag_2:\n      0x00\n      dup1\n      revert\n        /* \"Contracts/PaymentSplitFactory.sol\":267:328  mapping(address => uint) public _indexOfPaymentSplitByAddress */\n    tag_3:\n      tag_7\n      tag_8\n      calldatasize\n      0x04\n      tag_9\n      jump\t// in\n    tag_8:\n      mstore(0x20, 0x01)\n      0x00\n      swap1\n      dup2\n      mstore\n      0x40\n      swap1\n      keccak256\n      sload\n      dup2\n      jump\n    tag_7:\n      mload(0x40)\n        /* \"#utility.yul\":548:573   */\n      swap1\n      dup2\n      mstore\n        /* \"#utility.yul\":536:538   */\n      0x20\n        /* \"#utility.yul\":521:539   */\n      add\n        /* \"Contracts/PaymentSplitFactory.sol\":267:328  mapping(address => uint) public _indexOfPaymentSplitByAddress */\n    tag_11:\n      mload(0x40)\n      dup1\n      swap2\n      sub\n      swap1\n      return\n        /* \"Contracts/PaymentSplitFactory.sol\":341:369  address payable public owner */\n    tag_4:\n      sload(0x02)\n      tag_13\n      swap1\n      sub(shl(0xa0, 0x01), 0x01)\n      and\n      dup2\n      jump\n    tag_13:\n      mload(0x40)\n      sub(shl(0xa0, 0x01), 0x01)\n        /* \"#utility.yul\":764:796   */\n      swap1\n      swap2\n      and\n        /* \"#utility.yul\":746:797   */\n      dup2\n      mstore\n        /* \"#utility.yul\":734:736   */\n      0x20\n        /* \"#utility.yul\":719:737   */\n      add\n        /* \"Contracts/PaymentSplitFactory.sol\":341:369  address payable public owner */\n      tag_11\n        /* \"#utility.yul\":584:803   */\n      jump\n        /* \"Contracts/PaymentSplitFactory.sol\":589:1080  function createPaymentTokens(... */\n    tag_5:\n      tag_17\n      tag_18\n      calldatasize\n      0x04\n      tag_9\n      jump\t// in\n    tag_18:\n      tag_20\n      jump\t// in\n    tag_17:\n      stop\n        /* \"Contracts/PaymentSplitFactory.sol\":219:254  PaymentSplit[] public _paymentSplit */\n    tag_6:\n      tag_13\n      tag_22\n      calldatasize\n      0x04\n      tag_23\n      jump\t// in\n    tag_22:\n      tag_24\n      jump\t// in\n        /* \"Contracts/PaymentSplitFactory.sol\":589:1080  function createPaymentTokens(... */\n    tag_20:\n        /* \"Contracts/PaymentSplitFactory.sol\":520:525  owner */\n      and(sub(shl(0xa0, 0x01), 0x01), sload(0x02))\n        /* \"Contracts/PaymentSplitFactory.sol\":506:516  msg.sender */\n      caller\n        /* \"Contracts/PaymentSplitFactory.sol\":506:525  msg.sender == owner */\n      eq\n        /* \"Contracts/PaymentSplitFactory.sol\":498:549  require(msg.sender == owner, \"Sender is not owner\") */\n      tag_28\n      jumpi\n      mload(0x40)\n      shl(0xe5, 0x461bcd)\n      dup2\n      mstore\n        /* \"#utility.yul\":1691:1693   */\n      0x20\n        /* \"Contracts/PaymentSplitFactory.sol\":498:549  require(msg.sender == owner, \"Sender is not owner\") */\n      0x04\n      dup3\n      add\n        /* \"#utility.yul\":1673:1694   */\n      mstore\n        /* \"#utility.yul\":1730:1732   */\n      0x13\n        /* \"#utility.yul\":1710:1728   */\n      0x24\n      dup3\n      add\n        /* \"#utility.yul\":1703:1733   */\n      mstore\n      shl(0x69, 0x29b2b73232b91034b9903737ba1037bbb732b9)\n        /* \"#utility.yul\":1749:1767   */\n      0x44\n      dup3\n      add\n        /* \"#utility.yul\":1742:1791   */\n      mstore\n        /* \"#utility.yul\":1808:1826   */\n      0x64\n      add\n        /* \"Contracts/PaymentSplitFactory.sol\":498:549  require(msg.sender == owner, \"Sender is not owner\") */\n      mload(0x40)\n      dup1\n      swap2\n      sub\n      swap1\n      revert\n    tag_28:\n        /* \"Contracts/PaymentSplitFactory.sol\":712:740  PaymentSplit newSplitPayment */\n      0x00\n        /* \"Contracts/PaymentSplitFactory.sol\":794:800  _owner */\n      dup2\n        /* \"Contracts/PaymentSplitFactory.sol\":743:815  new PaymentSplit(                ... */\n      mload(0x40)\n      tag_32\n      swap1\n      tag_33\n      jump\t// in\n    tag_32:\n      sub(shl(0xa0, 0x01), 0x01)\n        /* \"#utility.yul\":764:796   */\n      swap1\n      swap2\n      and\n        /* \"#utility.yul\":746:797   */\n      dup2\n      mstore\n        /* \"#utility.yul\":734:736   */\n      0x20\n        /* \"#utility.yul\":719:737   */\n      add\n        /* \"Contracts/PaymentSplitFactory.sol\":743:815  new PaymentSplit(                ... */\n      mload(0x40)\n      dup1\n      swap2\n      sub\n      swap1\n      0x00\n      create\n      dup1\n      iszero\n      dup1\n      iszero\n      tag_35\n      jumpi\n      returndatasize\n      0x00\n      dup1\n      returndatacopy\n      revert(0x00, returndatasize)\n    tag_35:\n      pop\n        /* \"Contracts/PaymentSplitFactory.sol\":844:857  _paymentSplit */\n      0x00\n        /* \"Contracts/PaymentSplitFactory.sol\":844:879  _paymentSplit.push(newSplitPayment) */\n      dup1\n      sload\n      0x01\n      dup1\n      dup3\n      add\n      dup4\n      sstore\n      dup3\n      dup1\n      mstore\n      0x290decd9548b62a8d60345a988386fc84ba6bc95484008f6362f93160ef3e563\n      swap1\n      swap2\n      add\n      dup1\n      sload\n      not(sub(shl(0xa0, 0x01), 0x01))\n      and\n      sub(shl(0xa0, 0x01), 0x01)\n      dup6\n      and\n      or\n      swap1\n      sstore\n        /* \"Contracts/PaymentSplitFactory.sol\":957:977  _paymentSplit.length */\n      swap1\n      sload\n        /* \"Contracts/PaymentSplitFactory.sol\":844:879  _paymentSplit.push(newSplitPayment) */\n      swap2\n      swap3\n      pop\n        /* \"Contracts/PaymentSplitFactory.sol\":957:981  _paymentSplit.length - 1 */\n      tag_37\n      swap2\n      tag_38\n      jump\t// in\n    tag_37:\n        /* \"Contracts/PaymentSplitFactory.sol\":894:923  _indexOfPaymentSplitByAddress */\n      0x01\n        /* \"Contracts/PaymentSplitFactory.sol\":894:953  _indexOfPaymentSplitByAddress[newSplitPayment.getAddress()] */\n      0x00\n        /* \"Contracts/PaymentSplitFactory.sol\":924:939  newSplitPayment */\n      dup4\n      sub(shl(0xa0, 0x01), 0x01)\n        /* \"Contracts/PaymentSplitFactory.sol\":924:950  newSplitPayment.getAddress */\n      and\n      0x38cc4831\n        /* \"Contracts/PaymentSplitFactory.sol\":924:952  newSplitPayment.getAddress() */\n      mload(0x40)\n      dup2\n      0xffffffff\n      and\n      0xe0\n      shl\n      dup2\n      mstore\n      0x04\n      add\n      0x20\n      mload(0x40)\n      dup1\n      dup4\n      sub\n      dup2\n      dup7\n      gas\n      staticcall\n      iszero\n      dup1\n      iszero\n      tag_40\n      jumpi\n      returndatasize\n      0x00\n      dup1\n      returndatacopy\n      revert(0x00, returndatasize)\n    tag_40:\n      pop\n      pop\n      pop\n      pop\n      mload(0x40)\n      returndatasize\n      not(0x1f)\n      0x1f\n      dup3\n      add\n      and\n      dup3\n      add\n      dup1\n      0x40\n      mstore\n      pop\n      dup2\n      add\n      swap1\n      tag_41\n      swap2\n      swap1\n      tag_42\n      jump\t// in\n    tag_41:\n      sub(shl(0xa0, 0x01), 0x01)\n        /* \"Contracts/PaymentSplitFactory.sol\":894:953  _indexOfPaymentSplitByAddress[newSplitPayment.getAddress()] */\n      and\n      sub(shl(0xa0, 0x01), 0x01)\n      and\n      dup2\n      mstore\n      0x20\n      add\n      swap1\n      dup2\n      mstore\n      0x20\n      add\n      0x00\n      keccak256\n        /* \"Contracts/PaymentSplitFactory.sol\":894:982  _indexOfPaymentSplitByAddress[newSplitPayment.getAddress()] = (_paymentSplit.length - 1) */\n      dup2\n      swap1\n      sstore\n      pop\n        /* \"Contracts/PaymentSplitFactory.sol\":1002:1068  NewPaymentSplitGenerated(msg.sender, newSplitPayment.getAddress()) */\n      0xfaa85d4723fb8a9d6eb121a06f43e11f2c387c7d1f46891a47a52165c05d95ce\n        /* \"Contracts/PaymentSplitFactory.sol\":1027:1037  msg.sender */\n      caller\n        /* \"Contracts/PaymentSplitFactory.sol\":1039:1054  newSplitPayment */\n      dup3\n      sub(shl(0xa0, 0x01), 0x01)\n        /* \"Contracts/PaymentSplitFactory.sol\":1039:1065  newSplitPayment.getAddress */\n      and\n      0x38cc4831\n        /* \"Contracts/PaymentSplitFactory.sol\":1039:1067  newSplitPayment.getAddress() */\n      mload(0x40)\n      dup2\n      0xffffffff\n      and\n      0xe0\n      shl\n      dup2\n      mstore\n      0x04\n      add\n      0x20\n      mload(0x40)\n      dup1\n      dup4\n      sub\n      dup2\n      dup7\n      gas\n      staticcall\n      iszero\n      dup1\n      iszero\n      tag_44\n      jumpi\n      returndatasize\n      0x00\n      dup1\n      returndatacopy\n      revert(0x00, returndatasize)\n    tag_44:\n      pop\n      pop\n      pop\n      pop\n      mload(0x40)\n      returndatasize\n      not(0x1f)\n      0x1f\n      dup3\n      add\n      and\n      dup3\n      add\n      dup1\n      0x40\n      mstore\n      pop\n      dup2\n      add\n      swap1\n      tag_45\n      swap2\n      swap1\n      tag_42\n      jump\t// in\n    tag_45:\n        /* \"Contracts/PaymentSplitFactory.sol\":1002:1068  NewPaymentSplitGenerated(msg.sender, newSplitPayment.getAddress()) */\n      0x40\n      dup1\n      mload\n      sub(shl(0xa0, 0x01), 0x01)\n        /* \"#utility.yul\":2553:2568   */\n      swap4\n      dup5\n      and\n        /* \"#utility.yul\":2535:2569   */\n      dup2\n      mstore\n        /* \"#utility.yul\":2605:2620   */\n      swap3\n      swap1\n      swap2\n      and\n        /* \"#utility.yul\":2600:2602   */\n      0x20\n        /* \"#utility.yul\":2585:2603   */\n      dup4\n      add\n        /* \"#utility.yul\":2578:2621   */\n      mstore\n        /* \"#utility.yul\":2470:2488   */\n      add\n        /* \"Contracts/PaymentSplitFactory.sol\":1002:1068  NewPaymentSplitGenerated(msg.sender, newSplitPayment.getAddress()) */\n      mload(0x40)\n      dup1\n      swap2\n      sub\n      swap1\n      log1\n        /* \"Contracts/PaymentSplitFactory.sol\":697:1080  {... */\n      pop\n        /* \"Contracts/PaymentSplitFactory.sol\":589:1080  function createPaymentTokens(... */\n      pop\n      jump\t// out\n        /* \"Contracts/PaymentSplitFactory.sol\":219:254  PaymentSplit[] public _paymentSplit */\n    tag_24:\n      0x00\n      dup2\n      dup2\n      sload\n      dup2\n      lt\n      tag_48\n      jumpi\n      0x00\n      dup1\n      revert\n    tag_48:\n      0x00\n      swap2\n      dup3\n      mstore\n      0x20\n      swap1\n      swap2\n      keccak256\n      add\n      sload\n      sub(shl(0xa0, 0x01), 0x01)\n      and\n      swap1\n      pop\n      dup2\n      jump\t// out\n    tag_33:\n      dataSize(sub_0)\n      dup1\n      dataOffset(sub_0)\n      dup4\n      codecopy\n      add\n      swap1\n      jump\t// out\n        /* \"#utility.yul\":14:145   */\n    tag_50:\n      sub(shl(0xa0, 0x01), 0x01)\n        /* \"#utility.yul\":89:120   */\n      dup2\n      and\n        /* \"#utility.yul\":79:121   */\n      dup2\n      eq\n        /* \"#utility.yul\":69:139   */\n      tag_53\n      jumpi\n        /* \"#utility.yul\":135:136   */\n      0x00\n        /* \"#utility.yul\":132:133   */\n      dup1\n        /* \"#utility.yul\":125:137   */\n      revert\n        /* \"#utility.yul\":69:139   */\n    tag_53:\n        /* \"#utility.yul\":14:145   */\n      pop\n      jump\t// out\n        /* \"#utility.yul\":150:397   */\n    tag_9:\n        /* \"#utility.yul\":209:215   */\n      0x00\n        /* \"#utility.yul\":262:264   */\n      0x20\n        /* \"#utility.yul\":250:259   */\n      dup3\n        /* \"#utility.yul\":241:248   */\n      dup5\n        /* \"#utility.yul\":237:260   */\n      sub\n        /* \"#utility.yul\":233:265   */\n      slt\n        /* \"#utility.yul\":230:282   */\n      iszero\n      tag_55\n      jumpi\n        /* \"#utility.yul\":278:279   */\n      0x00\n        /* \"#utility.yul\":275:276   */\n      dup1\n        /* \"#utility.yul\":268:280   */\n      revert\n        /* \"#utility.yul\":230:282   */\n    tag_55:\n        /* \"#utility.yul\":317:326   */\n      dup2\n        /* \"#utility.yul\":304:327   */\n      calldataload\n        /* \"#utility.yul\":336:367   */\n      tag_56\n        /* \"#utility.yul\":361:366   */\n      dup2\n        /* \"#utility.yul\":336:367   */\n      tag_50\n      jump\t// in\n    tag_56:\n        /* \"#utility.yul\":386:391   */\n      swap4\n        /* \"#utility.yul\":150:397   */\n      swap3\n      pop\n      pop\n      pop\n      jump\t// out\n        /* \"#utility.yul\":1068:1248   */\n    tag_23:\n        /* \"#utility.yul\":1127:1133   */\n      0x00\n        /* \"#utility.yul\":1180:1182   */\n      0x20\n        /* \"#utility.yul\":1168:1177   */\n      dup3\n        /* \"#utility.yul\":1159:1166   */\n      dup5\n        /* \"#utility.yul\":1155:1178   */\n      sub\n        /* \"#utility.yul\":1151:1183   */\n      slt\n        /* \"#utility.yul\":1148:1200   */\n      iszero\n      tag_63\n      jumpi\n        /* \"#utility.yul\":1196:1197   */\n      0x00\n        /* \"#utility.yul\":1193:1194   */\n      dup1\n        /* \"#utility.yul\":1186:1198   */\n      revert\n        /* \"#utility.yul\":1148:1200   */\n    tag_63:\n      pop\n        /* \"#utility.yul\":1219:1242   */\n      calldataload\n      swap2\n        /* \"#utility.yul\":1068:1248   */\n      swap1\n      pop\n      jump\t// out\n        /* \"#utility.yul\":1837:2062   */\n    tag_38:\n        /* \"#utility.yul\":1904:1913   */\n      dup2\n      dup2\n      sub\n        /* \"#utility.yul\":1925:1936   */\n      dup2\n      dup2\n      gt\n        /* \"#utility.yul\":1922:2056   */\n      iszero\n      tag_67\n      jumpi\n        /* \"#utility.yul\":1978:1988   */\n      0x4e487b71\n        /* \"#utility.yul\":1973:1976   */\n      0xe0\n        /* \"#utility.yul\":1969:1989   */\n      shl\n        /* \"#utility.yul\":1966:1967   */\n      0x00\n        /* \"#utility.yul\":1959:1990   */\n      mstore\n        /* \"#utility.yul\":2013:2017   */\n      0x11\n        /* \"#utility.yul\":2010:2011   */\n      0x04\n        /* \"#utility.yul\":2003:2018   */\n      mstore\n        /* \"#utility.yul\":2041:2045   */\n      0x24\n        /* \"#utility.yul\":2038:2039   */\n      0x00\n        /* \"#utility.yul\":2031:2046   */\n      revert\n        /* \"#utility.yul\":1922:2056   */\n    tag_67:\n        /* \"#utility.yul\":1837:2062   */\n      swap3\n      swap2\n      pop\n      pop\n      jump\t// out\n        /* \"#utility.yul\":2067:2318   */\n    tag_42:\n        /* \"#utility.yul\":2137:2143   */\n      0x00\n        /* \"#utility.yul\":2190:2192   */\n      0x20\n        /* \"#utility.yul\":2178:2187   */\n      dup3\n        /* \"#utility.yul\":2169:2176   */\n      dup5\n        /* \"#utility.yul\":2165:2188   */\n      sub\n        /* \"#utility.yul\":2161:2193   */\n      slt\n        /* \"#utility.yul\":2158:2210   */\n      iszero\n      tag_69\n      jumpi\n        /* \"#utility.yul\":2206:2207   */\n      0x00\n        /* \"#utility.yul\":2203:2204   */\n      dup1\n        /* \"#utility.yul\":2196:2208   */\n      revert\n        /* \"#utility.yul\":2158:2210   */\n    tag_69:\n        /* \"#utility.yul\":2238:2247   */\n      dup2\n        /* \"#utility.yul\":2232:2248   */\n      mload\n        /* \"#utility.yul\":2257:2288   */\n      tag_56\n        /* \"#utility.yul\":2282:2287   */\n      dup2\n        /* \"#utility.yul\":2257:2288   */\n      tag_50\n      jump\t// in\n    stop\n\n    sub_0: assembly {\n            /* \"Contracts/PaymentSplit.sol\":61:2469  contract PaymentSplit{... */\n          mstore(0x40, 0x80)\n            /* \"Contracts/PaymentSplit.sol\":348:458  constructor(... */\n          callvalue\n          dup1\n          iszero\n          tag_1\n          jumpi\n          0x00\n          dup1\n          revert\n        tag_1:\n          pop\n          mload(0x40)\n          sub(codesize, bytecodeSize)\n          dup1\n          bytecodeSize\n          dup4\n          codecopy\n          dup2\n          add\n          0x40\n          dup2\n          swap1\n          mstore\n          tag_2\n          swap2\n          tag_3\n          jump\t// in\n        tag_2:\n            /* \"Contracts/PaymentSplit.sol\":431:436  owner */\n          0x00\n            /* \"Contracts/PaymentSplit.sol\":431:445  owner = _owner */\n          dup1\n          sload\n          not(sub(shl(0xa0, 0x01), 0x01))\n          and\n          sub(shl(0xa0, 0x01), 0x01)\n          swap3\n          swap1\n          swap3\n          and\n          swap2\n          swap1\n          swap2\n          or\n          swap1\n          sstore\n            /* \"Contracts/PaymentSplit.sol\":61:2469  contract PaymentSplit{... */\n          jump(tag_7)\n            /* \"#utility.yul\":14:312   */\n        tag_3:\n            /* \"#utility.yul\":92:98   */\n          0x00\n            /* \"#utility.yul\":145:147   */\n          0x20\n            /* \"#utility.yul\":133:142   */\n          dup3\n            /* \"#utility.yul\":124:131   */\n          dup5\n            /* \"#utility.yul\":120:143   */\n          sub\n            /* \"#utility.yul\":116:148   */\n          slt\n            /* \"#utility.yul\":113:165   */\n          iszero\n          tag_9\n          jumpi\n            /* \"#utility.yul\":161:162   */\n          0x00\n            /* \"#utility.yul\":158:159   */\n          dup1\n            /* \"#utility.yul\":151:163   */\n          revert\n            /* \"#utility.yul\":113:165   */\n        tag_9:\n            /* \"#utility.yul\":187:203   */\n          dup2\n          mload\n          sub(shl(0xa0, 0x01), 0x01)\n            /* \"#utility.yul\":232:263   */\n          dup2\n          and\n            /* \"#utility.yul\":222:264   */\n          dup2\n          eq\n            /* \"#utility.yul\":212:282   */\n          tag_10\n          jumpi\n            /* \"#utility.yul\":278:279   */\n          0x00\n            /* \"#utility.yul\":275:276   */\n          dup1\n            /* \"#utility.yul\":268:280   */\n          revert\n            /* \"#utility.yul\":212:282   */\n        tag_10:\n            /* \"#utility.yul\":301:306   */\n          swap4\n            /* \"#utility.yul\":14:312   */\n          swap3\n          pop\n          pop\n          pop\n          jump\t// out\n        tag_7:\n            /* \"Contracts/PaymentSplit.sol\":61:2469  contract PaymentSplit{... */\n          dataSize(sub_0)\n          dup1\n          dataOffset(sub_0)\n          0x00\n          codecopy\n          0x00\n          return\n        stop\n\n        sub_0: assembly {\n                /* \"Contracts/PaymentSplit.sol\":61:2469  contract PaymentSplit{... */\n              mstore(0x40, 0x80)\n              jumpi(tag_1, lt(calldatasize, 0x04))\n              shr(0xe0, calldataload(0x00))\n              dup1\n              0x8a0e72bb\n              gt\n              tag_12\n              jumpi\n              dup1\n              0x8a0e72bb\n              eq\n              tag_7\n              jumpi\n              dup1\n              0x8da5cb5b\n              eq\n              tag_8\n              jumpi\n              dup1\n              0xd1bc76a1\n              eq\n              tag_9\n              jumpi\n              dup1\n              0xe59de500\n              eq\n              tag_10\n              jumpi\n              dup1\n              0xecefc705\n              eq\n              tag_11\n              jumpi\n              jump(tag_2)\n            tag_12:\n              dup1\n              0x38cc4831\n              eq\n              tag_3\n              jumpi\n              dup1\n              0x3afe58af\n              eq\n              tag_4\n              jumpi\n              dup1\n              0x6a9df2b5\n              eq\n              tag_5\n              jumpi\n              dup1\n              0x7ae316d0\n              eq\n              tag_6\n              jumpi\n              jump(tag_2)\n            tag_1:\n              jumpi(tag_2, calldatasize)\n                /* \"Contracts/PaymentSplit.sol\":528:533  owner */\n              and(sub(shl(0xa0, 0x01), 0x01), sload(0x00))\n                /* \"Contracts/PaymentSplit.sol\":514:524  msg.sender */\n              caller\n                /* \"Contracts/PaymentSplit.sol\":514:533  msg.sender == owner */\n              eq\n                /* \"Contracts/PaymentSplit.sol\":506:557  require(msg.sender == owner, \"Sender is not owner\") */\n              tag_15\n              jumpi\n              mload(0x40)\n              shl(0xe5, 0x461bcd)\n              dup2\n              mstore\n              0x04\n              add\n              tag_16\n              swap1\n              tag_17\n              jump\t// in\n            tag_16:\n              mload(0x40)\n              dup1\n              swap2\n              sub\n              swap1\n              revert\n            tag_15:\n                /* \"Contracts/PaymentSplit.sol\":61:2469  contract PaymentSplit{... */\n              stop\n            tag_2:\n                /* \"Contracts/PaymentSplit.sol\":528:533  owner */\n              and(sub(shl(0xa0, 0x01), 0x01), sload(0x00))\n                /* \"Contracts/PaymentSplit.sol\":514:524  msg.sender */\n              caller\n                /* \"Contracts/PaymentSplit.sol\":514:533  msg.sender == owner */\n              eq\n                /* \"Contracts/PaymentSplit.sol\":506:557  require(msg.sender == owner, \"Sender is not owner\") */\n              tag_15\n              jumpi\n              mload(0x40)\n              shl(0xe5, 0x461bcd)\n              dup2\n              mstore\n              0x04\n              add\n              tag_16\n              swap1\n              tag_17\n              jump\t// in\n                /* \"Contracts/PaymentSplit.sol\":2094:2228  function getAddress() public view returns(address _splitPaymentAddress){... */\n            tag_3:\n              callvalue\n              dup1\n              iszero\n              tag_24\n              jumpi\n              0x00\n              dup1\n              revert\n            tag_24:\n              pop\n                /* \"Contracts/PaymentSplit.sol\":2211:2215  this */\n              address\n                /* \"Contracts/PaymentSplit.sol\":2094:2228  function getAddress() public view returns(address _splitPaymentAddress){... */\n            tag_25:\n              mload(0x40)\n              sub(shl(0xa0, 0x01), 0x01)\n                /* \"#utility.yul\":526:558   */\n              swap1\n              swap2\n              and\n                /* \"#utility.yul\":508:559   */\n              dup2\n              mstore\n                /* \"#utility.yul\":496:498   */\n              0x20\n                /* \"#utility.yul\":481:499   */\n              add\n                /* \"Contracts/PaymentSplit.sol\":2094:2228  function getAddress() public view returns(address _splitPaymentAddress){... */\n            tag_27:\n              mload(0x40)\n              dup1\n              swap2\n              sub\n              swap1\n              return\n                /* \"Contracts/PaymentSplit.sol\":605:792  function addRecipients(address payable _addrs , uint _amount)public onlyOwner{... */\n            tag_4:\n              callvalue\n              dup1\n              iszero\n              tag_29\n              jumpi\n              0x00\n              dup1\n              revert\n            tag_29:\n              pop\n              tag_15\n              tag_31\n              calldatasize\n              0x04\n              tag_32\n              jump\t// in\n            tag_31:\n              tag_33\n              jump\t// in\n                /* \"Contracts/PaymentSplit.sol\":1387:2082  function paySplitFee() public onlyOwner{... */\n            tag_5:\n              callvalue\n              dup1\n              iszero\n              tag_34\n              jumpi\n              0x00\n              dup1\n              revert\n            tag_34:\n              pop\n              tag_15\n              tag_36\n              jump\t// in\n                /* \"Contracts/PaymentSplit.sol\":962:1160  function getTotalFee() public view returns(uint totalFee){... */\n            tag_6:\n              callvalue\n              dup1\n              iszero\n              tag_37\n              jumpi\n              0x00\n              dup1\n              revert\n            tag_37:\n              pop\n              tag_38\n              tag_39\n              jump\t// in\n            tag_38:\n              mload(0x40)\n                /* \"#utility.yul\":1196:1221   */\n              swap1\n              dup2\n              mstore\n                /* \"#utility.yul\":1184:1186   */\n              0x20\n                /* \"#utility.yul\":1169:1187   */\n              add\n                /* \"Contracts/PaymentSplit.sol\":962:1160  function getTotalFee() public view returns(uint totalFee){... */\n              tag_27\n                /* \"#utility.yul\":1050:1227   */\n              jump\n                /* \"Contracts/PaymentSplit.sol\":812:942  function getFeeByAddress(address payable _addrs) public view returns(uint fee){... */\n            tag_7:\n              callvalue\n              dup1\n              iszero\n              tag_42\n              jumpi\n              0x00\n              dup1\n              revert\n            tag_42:\n              pop\n              tag_38\n              tag_44\n              calldatasize\n              0x04\n              tag_45\n              jump\t// in\n            tag_44:\n              sub(shl(0xa0, 0x01), 0x01)\n                /* \"Contracts/PaymentSplit.sol\":911:930  _recipients[_addrs] */\n              and\n                /* \"Contracts/PaymentSplit.sol\":881:889  uint fee */\n              0x00\n                /* \"Contracts/PaymentSplit.sol\":911:930  _recipients[_addrs] */\n              swap1\n              dup2\n              mstore\n                /* \"Contracts/PaymentSplit.sol\":911:922  _recipients */\n              0x01\n                /* \"Contracts/PaymentSplit.sol\":911:930  _recipients[_addrs] */\n              0x20\n              mstore\n              0x40\n              swap1\n              keccak256\n              sload\n              swap1\n                /* \"Contracts/PaymentSplit.sol\":812:942  function getFeeByAddress(address payable _addrs) public view returns(uint fee){... */\n              jump\n                /* \"Contracts/PaymentSplit.sol\":150:178  address payable public owner */\n            tag_8:\n              callvalue\n              dup1\n              iszero\n              tag_48\n              jumpi\n              0x00\n              dup1\n              revert\n            tag_48:\n              pop\n              sload(0x00)\n              tag_25\n              swap1\n              sub(shl(0xa0, 0x01), 0x01)\n              and\n              dup2\n              jump\n                /* \"Contracts/PaymentSplit.sol\":243:279  address payable [] public recipients */\n            tag_9:\n              callvalue\n              dup1\n              iszero\n              tag_53\n              jumpi\n              0x00\n              dup1\n              revert\n            tag_53:\n              pop\n              tag_25\n              tag_55\n              calldatasize\n              0x04\n              tag_56\n              jump\t// in\n            tag_55:\n              tag_57\n              jump\t// in\n                /* \"Contracts/PaymentSplit.sol\":189:232  mapping(address => uint) public _recipients */\n            tag_10:\n              callvalue\n              dup1\n              iszero\n              tag_59\n              jumpi\n              0x00\n              dup1\n              revert\n            tag_59:\n              pop\n              tag_38\n              tag_61\n              calldatasize\n              0x04\n              tag_45\n              jump\t// in\n            tag_61:\n              mstore(0x20, 0x01)\n              0x00\n              swap1\n              dup2\n              mstore\n              0x40\n              swap1\n              keccak256\n              sload\n              dup2\n              jump\n                /* \"Contracts/PaymentSplit.sol\":290:327  uint public constant FEE_BASE = 10000 */\n            tag_11:\n              callvalue\n              dup1\n              iszero\n              tag_65\n              jumpi\n              0x00\n              dup1\n              revert\n            tag_65:\n              pop\n              tag_38\n                /* \"Contracts/PaymentSplit.sol\":322:327  10000 */\n              0x2710\n                /* \"Contracts/PaymentSplit.sol\":290:327  uint public constant FEE_BASE = 10000 */\n              dup2\n              jump\n                /* \"Contracts/PaymentSplit.sol\":605:792  function addRecipients(address payable _addrs , uint _amount)public onlyOwner{... */\n            tag_33:\n                /* \"Contracts/PaymentSplit.sol\":528:533  owner */\n              and(sub(shl(0xa0, 0x01), 0x01), sload(0x00))\n                /* \"Contracts/PaymentSplit.sol\":514:524  msg.sender */\n              caller\n                /* \"Contracts/PaymentSplit.sol\":514:533  msg.sender == owner */\n              eq\n                /* \"Contracts/PaymentSplit.sol\":506:557  require(msg.sender == owner, \"Sender is not owner\") */\n              tag_71\n              jumpi\n              mload(0x40)\n              shl(0xe5, 0x461bcd)\n              dup2\n              mstore\n              0x04\n              add\n              tag_16\n              swap1\n              tag_17\n              jump\t// in\n            tag_71:\n              sub(shl(0xa0, 0x01), 0x01)\n                /* \"Contracts/PaymentSplit.sol\":711:730  _recipients[_addrs] */\n              swap1\n              swap2\n              and\n              0x00\n              dup2\n              dup2\n              mstore\n                /* \"Contracts/PaymentSplit.sol\":711:722  _recipients */\n              0x01\n                /* \"Contracts/PaymentSplit.sol\":711:730  _recipients[_addrs] */\n              0x20\n              dup2\n              swap1\n              mstore\n              0x40\n              dup3\n              keccak256\n                /* \"Contracts/PaymentSplit.sol\":711:740  _recipients[_addrs] = _amount */\n              swap4\n              swap1\n              swap4\n              sstore\n                /* \"Contracts/PaymentSplit.sol\":755:765  recipients */\n              0x02\n                /* \"Contracts/PaymentSplit.sol\":755:778  recipients.push(_addrs) */\n              dup1\n              sload\n              swap4\n              dup5\n              add\n              dup2\n              sstore\n              swap1\n              mstore\n              0x405787fa12a823e0f2b7631cc41b3ba8828b3321ca811111fa75cd3aa3bb5ace\n              swap1\n              swap2\n              add\n              dup1\n              sload\n              not(sub(shl(0xa0, 0x01), 0x01))\n              and\n              swap1\n              swap2\n              or\n              swap1\n              sstore\n                /* \"Contracts/PaymentSplit.sol\":605:792  function addRecipients(address payable _addrs , uint _amount)public onlyOwner{... */\n              jump\t// out\n                /* \"Contracts/PaymentSplit.sol\":1387:2082  function paySplitFee() public onlyOwner{... */\n            tag_36:\n                /* \"Contracts/PaymentSplit.sol\":528:533  owner */\n              and(sub(shl(0xa0, 0x01), 0x01), sload(0x00))\n                /* \"Contracts/PaymentSplit.sol\":514:524  msg.sender */\n              caller\n                /* \"Contracts/PaymentSplit.sol\":514:533  msg.sender == owner */\n              eq\n                /* \"Contracts/PaymentSplit.sol\":506:557  require(msg.sender == owner, \"Sender is not owner\") */\n              tag_76\n              jumpi\n              mload(0x40)\n              shl(0xe5, 0x461bcd)\n              dup2\n              mstore\n              0x04\n              add\n              tag_16\n              swap1\n              tag_17\n              jump\t// in\n            tag_76:\n                /* \"Contracts/PaymentSplit.sol\":1449:1470  address(this).balance */\n              selfbalance\n                /* \"Contracts/PaymentSplit.sol\":1474:1475  0 */\n              0x00\n                /* \"Contracts/PaymentSplit.sol\":1449:1475  address(this).balance != 0 */\n              sub\n                /* \"Contracts/PaymentSplit.sol\":1441:1495  require(address(this).balance != 0, \"Not enugh funds\") */\n              tag_79\n              jumpi\n              mload(0x40)\n              shl(0xe5, 0x461bcd)\n              dup2\n              mstore\n                /* \"#utility.yul\":2371:2373   */\n              0x20\n                /* \"Contracts/PaymentSplit.sol\":1441:1495  require(address(this).balance != 0, \"Not enugh funds\") */\n              0x04\n              dup3\n              add\n                /* \"#utility.yul\":2353:2374   */\n              mstore\n                /* \"#utility.yul\":2410:2412   */\n              0x0f\n                /* \"#utility.yul\":2390:2408   */\n              0x24\n              dup3\n              add\n                /* \"#utility.yul\":2383:2413   */\n              mstore\n              shl(0x88, 0x4e6f7420656e7567682066756e6473)\n                /* \"#utility.yul\":2429:2447   */\n              0x44\n              dup3\n              add\n                /* \"#utility.yul\":2422:2467   */\n              mstore\n                /* \"#utility.yul\":2484:2502   */\n              0x64\n              add\n                /* \"Contracts/PaymentSplit.sol\":1441:1495  require(address(this).balance != 0, \"Not enugh funds\") */\n              tag_16\n                /* \"#utility.yul\":2169:2508   */\n              jump\n                /* \"Contracts/PaymentSplit.sol\":1441:1495  require(address(this).balance != 0, \"Not enugh funds\") */\n            tag_79:\n                /* \"Contracts/PaymentSplit.sol\":322:327  10000 */\n              0x2710\n                /* \"Contracts/PaymentSplit.sol\":1518:1532  _getTotalFee() */\n              tag_82\n                /* \"Contracts/PaymentSplit.sol\":1518:1530  _getTotalFee */\n              tag_83\n                /* \"Contracts/PaymentSplit.sol\":1518:1532  _getTotalFee() */\n              jump\t// in\n            tag_82:\n                /* \"Contracts/PaymentSplit.sol\":1518:1544  _getTotalFee() == FEE_BASE */\n              eq\n                /* \"Contracts/PaymentSplit.sol\":1510:1575  require(_getTotalFee() == FEE_BASE, \"Payment not split entirely\") */\n              tag_84\n              jumpi\n              mload(0x40)\n              shl(0xe5, 0x461bcd)\n              dup2\n              mstore\n                /* \"#utility.yul\":2715:2717   */\n              0x20\n                /* \"Contracts/PaymentSplit.sol\":1510:1575  require(_getTotalFee() == FEE_BASE, \"Payment not split entirely\") */\n              0x04\n              dup3\n              add\n                /* \"#utility.yul\":2697:2718   */\n              mstore\n                /* \"#utility.yul\":2754:2756   */\n              0x1a\n                /* \"#utility.yul\":2734:2752   */\n              0x24\n              dup3\n              add\n                /* \"#utility.yul\":2727:2757   */\n              mstore\n                /* \"#utility.yul\":2793:2821   */\n              0x5061796d656e74206e6f742073706c697420656e746972656c79000000000000\n                /* \"#utility.yul\":2773:2791   */\n              0x44\n              dup3\n              add\n                /* \"#utility.yul\":2766:2822   */\n              mstore\n                /* \"#utility.yul\":2839:2857   */\n              0x64\n              add\n                /* \"Contracts/PaymentSplit.sol\":1510:1575  require(_getTotalFee() == FEE_BASE, \"Payment not split entirely\") */\n              tag_16\n                /* \"#utility.yul\":2513:2863   */\n              jump\n                /* \"Contracts/PaymentSplit.sol\":1510:1575  require(_getTotalFee() == FEE_BASE, \"Payment not split entirely\") */\n            tag_84:\n                /* \"Contracts/PaymentSplit.sol\":1592:1605  uint256 share */\n              0x00\n                /* \"Contracts/PaymentSplit.sol\":1646:1667  address(this).balance */\n              selfbalance\n                /* \"Contracts/PaymentSplit.sol\":1592:1605  uint256 share */\n              dup2\n                /* \"Contracts/PaymentSplit.sol\":1704:2054  for(uint i=0; i < recipients.length; i++){... */\n            tag_87:\n                /* \"Contracts/PaymentSplit.sol\":1722:1732  recipients */\n              0x02\n                /* \"Contracts/PaymentSplit.sol\":1722:1739  recipients.length */\n              sload\n                /* \"Contracts/PaymentSplit.sol\":1718:1739  i < recipients.length */\n              dup2\n              lt\n                /* \"Contracts/PaymentSplit.sol\":1704:2054  for(uint i=0; i < recipients.length; i++){... */\n              iszero\n              tag_88\n              jumpi\n                /* \"Contracts/PaymentSplit.sol\":1800:1811  _recipients */\n              0x01\n                /* \"Contracts/PaymentSplit.sol\":1800:1826  _recipients[recipients[i]] */\n              0x00\n                /* \"Contracts/PaymentSplit.sol\":1812:1822  recipients */\n              0x02\n                /* \"Contracts/PaymentSplit.sol\":1823:1824  i */\n              dup4\n                /* \"Contracts/PaymentSplit.sol\":1812:1825  recipients[i] */\n              dup2\n              sload\n              dup2\n              lt\n              tag_91\n              jumpi\n              tag_91\n              tag_92\n              jump\t// in\n            tag_91:\n              0x00\n              swap2\n              dup3\n              mstore\n              0x20\n              dup1\n              dup4\n              keccak256\n              swap1\n              swap2\n              add\n              sload\n              sub(shl(0xa0, 0x01), 0x01)\n              and\n                /* \"Contracts/PaymentSplit.sol\":1800:1826  _recipients[recipients[i]] */\n              dup4\n              mstore\n              dup3\n              add\n              swap3\n              swap1\n              swap3\n              mstore\n              0x40\n              add\n              swap1\n              keccak256\n              sload\n                /* \"Contracts/PaymentSplit.sol\":1773:1796  totalFeeValue/ FEE_BASE */\n              tag_94\n                /* \"Contracts/PaymentSplit.sol\":322:327  10000 */\n              0x2710\n                /* \"Contracts/PaymentSplit.sol\":1773:1786  totalFeeValue */\n              dup5\n                /* \"Contracts/PaymentSplit.sol\":1773:1796  totalFeeValue/ FEE_BASE */\n              tag_95\n              jump\t// in\n            tag_94:\n                /* \"Contracts/PaymentSplit.sol\":1772:1826  (totalFeeValue/ FEE_BASE) * _recipients[recipients[i]] */\n              tag_96\n              swap2\n              swap1\n              tag_97\n              jump\t// in\n            tag_96:\n                /* \"Contracts/PaymentSplit.sol\":1764:1826  share = (totalFeeValue/ FEE_BASE) * _recipients[recipients[i]] */\n              swap3\n              pop\n                /* \"Contracts/PaymentSplit.sol\":1846:1865  bool callSuccessFee */\n              0x00\n                /* \"Contracts/PaymentSplit.sol\":1879:1889  recipients */\n              0x02\n                /* \"Contracts/PaymentSplit.sol\":1890:1891  i */\n              dup3\n                /* \"Contracts/PaymentSplit.sol\":1879:1892  recipients[i] */\n              dup2\n              sload\n              dup2\n              lt\n              tag_99\n              jumpi\n              tag_99\n              tag_92\n              jump\t// in\n            tag_99:\n              0x00\n              swap2\n              dup3\n              mstore\n              0x20\n              dup3\n              keccak256\n              add\n              sload\n                /* \"Contracts/PaymentSplit.sol\":1871:1916  payable(recipients[i]).call{value: share}(\"\") */\n              mload(0x40)\n              sub(shl(0xa0, 0x01), 0x01)\n                /* \"Contracts/PaymentSplit.sol\":1879:1892  recipients[i] */\n              swap1\n              swap2\n              and\n              swap2\n                /* \"Contracts/PaymentSplit.sol\":1906:1911  share */\n              dup7\n              swap2\n                /* \"Contracts/PaymentSplit.sol\":1871:1916  payable(recipients[i]).call{value: share}(\"\") */\n              swap1\n              dup2\n                /* \"Contracts/PaymentSplit.sol\":1879:1892  recipients[i] */\n              dup2\n                /* \"Contracts/PaymentSplit.sol\":1871:1916  payable(recipients[i]).call{value: share}(\"\") */\n              dup2\n                /* \"Contracts/PaymentSplit.sol\":1906:1911  share */\n              dup6\n                /* \"Contracts/PaymentSplit.sol\":1879:1892  recipients[i] */\n              dup8\n                /* \"Contracts/PaymentSplit.sol\":1871:1916  payable(recipients[i]).call{value: share}(\"\") */\n              gas\n              call\n              swap3\n              pop\n              pop\n              pop\n              returndatasize\n              dup1\n              0x00\n              dup2\n              eq\n              tag_105\n              jumpi\n              mload(0x40)\n              swap2\n              pop\n              and(add(returndatasize, 0x3f), not(0x1f))\n              dup3\n              add\n              0x40\n              mstore\n              returndatasize\n              dup3\n              mstore\n              returndatasize\n              0x00\n              0x20\n              dup5\n              add\n              returndatacopy\n              jump(tag_104)\n            tag_105:\n              0x60\n              swap2\n              pop\n            tag_104:\n              pop\n                /* \"Contracts/PaymentSplit.sol\":1845:1916  (bool callSuccessFee, ) = payable(recipients[i]).call{value: share}(\"\") */\n              pop\n              swap1\n              pop\n                /* \"Contracts/PaymentSplit.sol\":1943:1957  callSuccessFee */\n              dup1\n                /* \"Contracts/PaymentSplit.sol\":1935:1985  require(callSuccessFee, \"Return fee funds failed\") */\n              tag_106\n              jumpi\n              mload(0x40)\n              shl(0xe5, 0x461bcd)\n              dup2\n              mstore\n                /* \"#utility.yul\":3939:3941   */\n              0x20\n                /* \"Contracts/PaymentSplit.sol\":1935:1985  require(callSuccessFee, \"Return fee funds failed\") */\n              0x04\n              dup3\n              add\n                /* \"#utility.yul\":3921:3942   */\n              mstore\n                /* \"#utility.yul\":3978:3980   */\n              0x17\n                /* \"#utility.yul\":3958:3976   */\n              0x24\n              dup3\n              add\n                /* \"#utility.yul\":3951:3981   */\n              mstore\n                /* \"#utility.yul\":4017:4042   */\n              0x52657475726e206665652066756e6473206661696c6564000000000000000000\n                /* \"#utility.yul\":3997:4015   */\n              0x44\n              dup3\n              add\n                /* \"#utility.yul\":3990:4043   */\n              mstore\n                /* \"#utility.yul\":4060:4078   */\n              0x64\n              add\n                /* \"Contracts/PaymentSplit.sol\":1935:1985  require(callSuccessFee, \"Return fee funds failed\") */\n              tag_16\n                /* \"#utility.yul\":3737:4084   */\n              jump\n                /* \"Contracts/PaymentSplit.sol\":1935:1985  require(callSuccessFee, \"Return fee funds failed\") */\n            tag_106:\n                /* \"Contracts/PaymentSplit.sol\":2009:2038  FeePaid(recipients[i], share) */\n              0x075a2720282fdf622141dae0b048ef90a21a7e57c134c76912d19d006b3b3f6f\n                /* \"Contracts/PaymentSplit.sol\":2017:2027  recipients */\n              0x02\n                /* \"Contracts/PaymentSplit.sol\":2028:2029  i */\n              dup4\n                /* \"Contracts/PaymentSplit.sol\":2017:2030  recipients[i] */\n              dup2\n              sload\n              dup2\n              lt\n              tag_110\n              jumpi\n              tag_110\n              tag_92\n              jump\t// in\n            tag_110:\n              0x00\n              swap2\n              dup3\n              mstore\n              0x20\n              swap2\n              dup3\n              swap1\n              keccak256\n              add\n              sload\n                /* \"Contracts/PaymentSplit.sol\":2009:2038  FeePaid(recipients[i], share) */\n              0x40\n              dup1\n              mload\n              sub(shl(0xa0, 0x01), 0x01)\n                /* \"Contracts/PaymentSplit.sol\":2017:2030  recipients[i] */\n              swap1\n              swap3\n              and\n                /* \"#utility.yul\":4271:4322   */\n              dup3\n              mstore\n                /* \"#utility.yul\":4338:4356   */\n              swap2\n              dup2\n              add\n                /* \"#utility.yul\":4331:4365   */\n              dup8\n              swap1\n              mstore\n                /* \"#utility.yul\":4244:4262   */\n              add\n                /* \"Contracts/PaymentSplit.sol\":2009:2038  FeePaid(recipients[i], share) */\n              mload(0x40)\n              dup1\n              swap2\n              sub\n              swap1\n              log1\n              pop\n                /* \"Contracts/PaymentSplit.sol\":1741:1744  i++ */\n              dup1\n              tag_114\n              dup2\n              tag_115\n              jump\t// in\n            tag_114:\n              swap2\n              pop\n              pop\n                /* \"Contracts/PaymentSplit.sol\":1704:2054  for(uint i=0; i < recipients.length; i++){... */\n              jump(tag_87)\n            tag_88:\n              pop\n                /* \"Contracts/PaymentSplit.sol\":1426:2082  {... */\n              pop\n              pop\n                /* \"Contracts/PaymentSplit.sol\":1387:2082  function paySplitFee() public onlyOwner{... */\n              jump\t// out\n                /* \"Contracts/PaymentSplit.sol\":962:1160  function getTotalFee() public view returns(uint totalFee){... */\n            tag_39:\n                /* \"Contracts/PaymentSplit.sol\":1005:1018  uint totalFee */\n              0x00\n              dup1\n                /* \"Contracts/PaymentSplit.sol\":1034:1148  for(uint i=0; i < recipients.length; i++){... */\n            tag_117:\n                /* \"Contracts/PaymentSplit.sol\":1052:1062  recipients */\n              0x02\n                /* \"Contracts/PaymentSplit.sol\":1052:1069  recipients.length */\n              sload\n                /* \"Contracts/PaymentSplit.sol\":1048:1069  i < recipients.length */\n              dup2\n              lt\n                /* \"Contracts/PaymentSplit.sol\":1034:1148  for(uint i=0; i < recipients.length; i++){... */\n              iszero\n              tag_118\n              jumpi\n                /* \"Contracts/PaymentSplit.sol\":1106:1117  _recipients */\n              0x01\n                /* \"Contracts/PaymentSplit.sol\":1106:1132  _recipients[recipients[i]] */\n              0x00\n                /* \"Contracts/PaymentSplit.sol\":1118:1128  recipients */\n              0x02\n                /* \"Contracts/PaymentSplit.sol\":1129:1130  i */\n              dup4\n                /* \"Contracts/PaymentSplit.sol\":1118:1131  recipients[i] */\n              dup2\n              sload\n              dup2\n              lt\n              tag_121\n              jumpi\n              tag_121\n              tag_92\n              jump\t// in\n            tag_121:\n              0x00\n              swap2\n              dup3\n              mstore\n              0x20\n              dup1\n              dup4\n              keccak256\n              swap1\n              swap2\n              add\n              sload\n              sub(shl(0xa0, 0x01), 0x01)\n              and\n                /* \"Contracts/PaymentSplit.sol\":1106:1132  _recipients[recipients[i]] */\n              dup4\n              mstore\n              dup3\n              add\n              swap3\n              swap1\n              swap3\n              mstore\n              0x40\n              add\n              swap1\n              keccak256\n              sload\n                /* \"Contracts/PaymentSplit.sol\":1094:1132  totalFee += _recipients[recipients[i]] */\n              tag_123\n              swap1\n              dup4\n              tag_124\n              jump\t// in\n            tag_123:\n              swap2\n              pop\n                /* \"Contracts/PaymentSplit.sol\":1071:1074  i++ */\n              dup1\n              tag_125\n              dup2\n              tag_115\n              jump\t// in\n            tag_125:\n              swap2\n              pop\n              pop\n                /* \"Contracts/PaymentSplit.sol\":1034:1148  for(uint i=0; i < recipients.length; i++){... */\n              jump(tag_117)\n            tag_118:\n              pop\n                /* \"Contracts/PaymentSplit.sol\":962:1160  function getTotalFee() public view returns(uint totalFee){... */\n              swap1\n              jump\t// out\n                /* \"Contracts/PaymentSplit.sol\":243:279  address payable [] public recipients */\n            tag_57:\n              0x02\n              dup2\n              dup2\n              sload\n              dup2\n              lt\n              tag_127\n              jumpi\n              0x00\n              dup1\n              revert\n            tag_127:\n              0x00\n              swap2\n              dup3\n              mstore\n              0x20\n              swap1\n              swap2\n              keccak256\n              add\n              sload\n              sub(shl(0xa0, 0x01), 0x01)\n              and\n              swap1\n              pop\n              dup2\n              jump\t// out\n                /* \"Contracts/PaymentSplit.sol\":1174:1375  function _getTotalFee() internal view returns(uint totalFee){... */\n            tag_83:\n                /* \"Contracts/PaymentSplit.sol\":1220:1233  uint totalFee */\n              0x00\n              dup1\n                /* \"Contracts/PaymentSplit.sol\":1249:1363  for(uint i=0; i < recipients.length; i++){... */\n            tag_130:\n                /* \"Contracts/PaymentSplit.sol\":1267:1277  recipients */\n              0x02\n                /* \"Contracts/PaymentSplit.sol\":1267:1284  recipients.length */\n              sload\n                /* \"Contracts/PaymentSplit.sol\":1263:1284  i < recipients.length */\n              dup2\n              lt\n                /* \"Contracts/PaymentSplit.sol\":1249:1363  for(uint i=0; i < recipients.length; i++){... */\n              iszero\n              tag_118\n              jumpi\n                /* \"Contracts/PaymentSplit.sol\":1321:1332  _recipients */\n              0x01\n                /* \"Contracts/PaymentSplit.sol\":1321:1347  _recipients[recipients[i]] */\n              0x00\n                /* \"Contracts/PaymentSplit.sol\":1333:1343  recipients */\n              0x02\n                /* \"Contracts/PaymentSplit.sol\":1344:1345  i */\n              dup4\n                /* \"Contracts/PaymentSplit.sol\":1333:1346  recipients[i] */\n              dup2\n              sload\n              dup2\n              lt\n              tag_134\n              jumpi\n              tag_134\n              tag_92\n              jump\t// in\n            tag_134:\n              0x00\n              swap2\n              dup3\n              mstore\n              0x20\n              dup1\n              dup4\n              keccak256\n              swap1\n              swap2\n              add\n              sload\n              sub(shl(0xa0, 0x01), 0x01)\n              and\n                /* \"Contracts/PaymentSplit.sol\":1321:1347  _recipients[recipients[i]] */\n              dup4\n              mstore\n              dup3\n              add\n              swap3\n              swap1\n              swap3\n              mstore\n              0x40\n              add\n              swap1\n              keccak256\n              sload\n                /* \"Contracts/PaymentSplit.sol\":1309:1347  totalFee += _recipients[recipients[i]] */\n              tag_136\n              swap1\n              dup4\n              tag_124\n              jump\t// in\n            tag_136:\n              swap2\n              pop\n                /* \"Contracts/PaymentSplit.sol\":1286:1289  i++ */\n              dup1\n              tag_137\n              dup2\n              tag_115\n              jump\t// in\n            tag_137:\n              swap2\n              pop\n              pop\n                /* \"Contracts/PaymentSplit.sol\":1249:1363  for(uint i=0; i < recipients.length; i++){... */\n              jump(tag_130)\n                /* \"#utility.yul\":14:357   */\n            tag_17:\n                /* \"#utility.yul\":216:218   */\n              0x20\n                /* \"#utility.yul\":198:219   */\n              dup1\n              dup3\n              mstore\n                /* \"#utility.yul\":255:257   */\n              0x13\n                /* \"#utility.yul\":235:253   */\n              swap1\n              dup3\n              add\n                /* \"#utility.yul\":228:258   */\n              mstore\n              shl(0x69, 0x29b2b73232b91034b9903737ba1037bbb732b9)\n                /* \"#utility.yul\":289:291   */\n              0x40\n                /* \"#utility.yul\":274:292   */\n              dup3\n              add\n                /* \"#utility.yul\":267:316   */\n              mstore\n                /* \"#utility.yul\":348:350   */\n              0x60\n                /* \"#utility.yul\":333:351   */\n              add\n              swap1\n                /* \"#utility.yul\":14:357   */\n              jump\t// out\n                /* \"#utility.yul\":570:709   */\n            tag_138:\n              sub(shl(0xa0, 0x01), 0x01)\n                /* \"#utility.yul\":653:684   */\n              dup2\n              and\n                /* \"#utility.yul\":643:685   */\n              dup2\n              eq\n                /* \"#utility.yul\":633:703   */\n              tag_144\n              jumpi\n                /* \"#utility.yul\":699:700   */\n              0x00\n                /* \"#utility.yul\":696:697   */\n              dup1\n                /* \"#utility.yul\":689:701   */\n              revert\n                /* \"#utility.yul\":633:703   */\n            tag_144:\n                /* \"#utility.yul\":570:709   */\n              pop\n              jump\t// out\n                /* \"#utility.yul\":714:1045   */\n            tag_32:\n                /* \"#utility.yul\":790:796   */\n              0x00\n                /* \"#utility.yul\":798:804   */\n              dup1\n                /* \"#utility.yul\":851:853   */\n              0x40\n                /* \"#utility.yul\":839:848   */\n              dup4\n                /* \"#utility.yul\":830:837   */\n              dup6\n                /* \"#utility.yul\":826:849   */\n              sub\n                /* \"#utility.yul\":822:854   */\n              slt\n                /* \"#utility.yul\":819:871   */\n              iszero\n              tag_146\n              jumpi\n                /* \"#utility.yul\":867:868   */\n              0x00\n                /* \"#utility.yul\":864:865   */\n              dup1\n                /* \"#utility.yul\":857:869   */\n              revert\n                /* \"#utility.yul\":819:871   */\n            tag_146:\n                /* \"#utility.yul\":906:915   */\n              dup3\n                /* \"#utility.yul\":893:916   */\n              calldataload\n                /* \"#utility.yul\":925:964   */\n              tag_147\n                /* \"#utility.yul\":958:963   */\n              dup2\n                /* \"#utility.yul\":925:964   */\n              tag_138\n              jump\t// in\n            tag_147:\n                /* \"#utility.yul\":983:988   */\n              swap5\n                /* \"#utility.yul\":1035:1037   */\n              0x20\n                /* \"#utility.yul\":1020:1038   */\n              swap4\n              swap1\n              swap4\n              add\n                /* \"#utility.yul\":1007:1039   */\n              calldataload\n              swap4\n              pop\n              pop\n              pop\n                /* \"#utility.yul\":714:1045   */\n              jump\t// out\n                /* \"#utility.yul\":1232:1495   */\n            tag_45:\n                /* \"#utility.yul\":1299:1305   */\n              0x00\n                /* \"#utility.yul\":1352:1354   */\n              0x20\n                /* \"#utility.yul\":1340:1349   */\n              dup3\n                /* \"#utility.yul\":1331:1338   */\n              dup5\n                /* \"#utility.yul\":1327:1350   */\n              sub\n                /* \"#utility.yul\":1323:1355   */\n              slt\n                /* \"#utility.yul\":1320:1372   */\n              iszero\n              tag_150\n              jumpi\n                /* \"#utility.yul\":1368:1369   */\n              0x00\n                /* \"#utility.yul\":1365:1366   */\n              dup1\n                /* \"#utility.yul\":1358:1370   */\n              revert\n                /* \"#utility.yul\":1320:1372   */\n            tag_150:\n                /* \"#utility.yul\":1407:1416   */\n              dup2\n                /* \"#utility.yul\":1394:1417   */\n              calldataload\n                /* \"#utility.yul\":1426:1465   */\n              tag_151\n                /* \"#utility.yul\":1459:1464   */\n              dup2\n                /* \"#utility.yul\":1426:1465   */\n              tag_138\n              jump\t// in\n            tag_151:\n                /* \"#utility.yul\":1484:1489   */\n              swap4\n                /* \"#utility.yul\":1232:1495   */\n              swap3\n              pop\n              pop\n              pop\n              jump\t// out\n                /* \"#utility.yul\":1724:1904   */\n            tag_56:\n                /* \"#utility.yul\":1783:1789   */\n              0x00\n                /* \"#utility.yul\":1836:1838   */\n              0x20\n                /* \"#utility.yul\":1824:1833   */\n              dup3\n                /* \"#utility.yul\":1815:1822   */\n              dup5\n                /* \"#utility.yul\":1811:1834   */\n              sub\n                /* \"#utility.yul\":1807:1839   */\n              slt\n                /* \"#utility.yul\":1804:1856   */\n              iszero\n              tag_154\n              jumpi\n                /* \"#utility.yul\":1852:1853   */\n              0x00\n                /* \"#utility.yul\":1849:1850   */\n              dup1\n                /* \"#utility.yul\":1842:1854   */\n              revert\n                /* \"#utility.yul\":1804:1856   */\n            tag_154:\n              pop\n                /* \"#utility.yul\":1875:1898   */\n              calldataload\n              swap2\n                /* \"#utility.yul\":1724:1904   */\n              swap1\n              pop\n              jump\t// out\n                /* \"#utility.yul\":2868:2995   */\n            tag_92:\n                /* \"#utility.yul\":2929:2939   */\n              0x4e487b71\n                /* \"#utility.yul\":2924:2927   */\n              0xe0\n                /* \"#utility.yul\":2920:2940   */\n              shl\n                /* \"#utility.yul\":2917:2918   */\n              0x00\n                /* \"#utility.yul\":2910:2941   */\n              mstore\n                /* \"#utility.yul\":2960:2964   */\n              0x32\n                /* \"#utility.yul\":2957:2958   */\n              0x04\n                /* \"#utility.yul\":2950:2965   */\n              mstore\n                /* \"#utility.yul\":2984:2988   */\n              0x24\n                /* \"#utility.yul\":2981:2982   */\n              0x00\n                /* \"#utility.yul\":2974:2989   */\n              revert\n                /* \"#utility.yul\":3000:3127   */\n            tag_139:\n                /* \"#utility.yul\":3061:3071   */\n              0x4e487b71\n                /* \"#utility.yul\":3056:3059   */\n              0xe0\n                /* \"#utility.yul\":3052:3072   */\n              shl\n                /* \"#utility.yul\":3049:3050   */\n              0x00\n                /* \"#utility.yul\":3042:3073   */\n              mstore\n                /* \"#utility.yul\":3092:3096   */\n              0x11\n                /* \"#utility.yul\":3089:3090   */\n              0x04\n                /* \"#utility.yul\":3082:3097   */\n              mstore\n                /* \"#utility.yul\":3116:3120   */\n              0x24\n                /* \"#utility.yul\":3113:3114   */\n              0x00\n                /* \"#utility.yul\":3106:3121   */\n              revert\n                /* \"#utility.yul\":3132:3349   */\n            tag_95:\n                /* \"#utility.yul\":3172:3173   */\n              0x00\n                /* \"#utility.yul\":3198:3199   */\n              dup3\n                /* \"#utility.yul\":3188:3320   */\n              tag_163\n              jumpi\n                /* \"#utility.yul\":3242:3252   */\n              0x4e487b71\n                /* \"#utility.yul\":3237:3240   */\n              0xe0\n                /* \"#utility.yul\":3233:3253   */\n              shl\n                /* \"#utility.yul\":3230:3231   */\n              0x00\n                /* \"#utility.yul\":3223:3254   */\n              mstore\n                /* \"#utility.yul\":3277:3281   */\n              0x12\n                /* \"#utility.yul\":3274:3275   */\n              0x04\n                /* \"#utility.yul\":3267:3282   */\n              mstore\n                /* \"#utility.yul\":3305:3309   */\n              0x24\n                /* \"#utility.yul\":3302:3303   */\n              0x00\n                /* \"#utility.yul\":3295:3310   */\n              revert\n                /* \"#utility.yul\":3188:3320   */\n            tag_163:\n              pop\n                /* \"#utility.yul\":3334:3343   */\n              div\n              swap1\n                /* \"#utility.yul\":3132:3349   */\n              jump\t// out\n                /* \"#utility.yul\":3354:3522   */\n            tag_97:\n                /* \"#utility.yul\":3427:3436   */\n              dup1\n              dup3\n              mul\n                /* \"#utility.yul\":3458:3467   */\n              dup2\n              iszero\n                /* \"#utility.yul\":3475:3490   */\n              dup3\n              dup3\n              div\n                /* \"#utility.yul\":3469:3491   */\n              dup5\n              eq\n                /* \"#utility.yul\":3455:3492   */\n              or\n                /* \"#utility.yul\":3445:3516   */\n              tag_166\n              jumpi\n                /* \"#utility.yul\":3496:3514   */\n              tag_166\n              tag_139\n              jump\t// in\n            tag_166:\n                /* \"#utility.yul\":3354:3522   */\n              swap3\n              swap2\n              pop\n              pop\n              jump\t// out\n                /* \"#utility.yul\":4376:4511   */\n            tag_115:\n                /* \"#utility.yul\":4415:4418   */\n              0x00\n                /* \"#utility.yul\":4436:4453   */\n              0x01\n              dup3\n              add\n                /* \"#utility.yul\":4433:4476   */\n              tag_172\n              jumpi\n                /* \"#utility.yul\":4456:4474   */\n              tag_172\n              tag_139\n              jump\t// in\n            tag_172:\n              pop\n                /* \"#utility.yul\":4503:4504   */\n              0x01\n                /* \"#utility.yul\":4492:4505   */\n              add\n              swap1\n                /* \"#utility.yul\":4376:4511   */\n              jump\t// out\n                /* \"#utility.yul\":4516:4641   */\n            tag_124:\n                /* \"#utility.yul\":4581:4590   */\n              dup1\n              dup3\n              add\n                /* \"#utility.yul\":4602:4612   */\n              dup1\n              dup3\n              gt\n                /* \"#utility.yul\":4599:4635   */\n              iszero\n              tag_166\n              jumpi\n                /* \"#utility.yul\":4615:4633   */\n              tag_166\n              tag_139\n              jump\t// in\n\n            auxdata: 0xa26469706673582212203704f2f5dafa7a63e62ec5bd7f32644df727eac44ae766d23325c2c62b306e3064736f6c63430008110033\n        }\n    }\n\n    auxdata: 0xa26469706673582212204a5bc94ff3129e67d222609fe04eec3ba4b568053b39311b875f14bfd7d2420264736f6c63430008110033\n}\n",
				"bytecode": {
					"linkReferences": {},
					"object": "608060405234801561001057600080fd5b50600280546001600160a01b03191633179055610c1c806100326000396000f3fe608060405234801561001057600080fd5b506004361061004c5760003560e01c8063384d4e6c146100515780638da5cb5b14610084578063965fa668146100af578063ad5e9b65146100c4575b600080fd5b61007161005f366004610344565b60016020526000908152604090205481565b6040519081526020015b60405180910390f35b600254610097906001600160a01b031681565b6040516001600160a01b03909116815260200161007b565b6100c26100bd366004610344565b6100d7565b005b6100976100d2366004610368565b6102f5565b6002546001600160a01b0316331461012b5760405162461bcd60e51b815260206004820152601360248201527229b2b73232b91034b9903737ba1037bbb732b960691b604482015260640160405180910390fd5b60008160405161013a9061031f565b6001600160a01b039091168152602001604051809103906000f080158015610166573d6000803e3d6000fd5b5060008054600180820183558280527f290decd9548b62a8d60345a988386fc84ba6bc95484008f6362f93160ef3e56390910180546001600160a01b0319166001600160a01b03851617905590549192506101c091610381565b60016000836001600160a01b03166338cc48316040518163ffffffff1660e01b8152600401602060405180830381865afa158015610202573d6000803e3d6000fd5b505050506040513d601f19601f8201168201806040525081019061022691906103a8565b6001600160a01b03166001600160a01b03168152602001908152602001600020819055507ffaa85d4723fb8a9d6eb121a06f43e11f2c387c7d1f46891a47a52165c05d95ce33826001600160a01b03166338cc48316040518163ffffffff1660e01b8152600401602060405180830381865afa1580156102aa573d6000803e3d6000fd5b505050506040513d601f19601f820116820180604052508101906102ce91906103a8565b604080516001600160a01b0393841681529290911660208301520160405180910390a15050565b6000818154811061030557600080fd5b6000918252602090912001546001600160a01b0316905081565b610821806103c683390190565b6001600160a01b038116811461034157600080fd5b50565b60006020828403121561035657600080fd5b81356103618161032c565b9392505050565b60006020828403121561037a57600080fd5b5035919050565b818103818111156103a257634e487b7160e01b600052601160045260246000fd5b92915050565b6000602082840312156103ba57600080fd5b81516103618161032c56fe608060405234801561001057600080fd5b5060405161082138038061082183398101604081905261002f91610054565b600080546001600160a01b0319166001600160a01b0392909216919091179055610084565b60006020828403121561006657600080fd5b81516001600160a01b038116811461007d57600080fd5b9392505050565b61078e806100936000396000f3fe60806040526004361061008a5760003560e01c80638a0e72bb116100595780638a0e72bb146101725780638da5cb5b146101a8578063d1bc76a1146101c8578063e59de500146101e8578063ecefc70514610215576100c4565b806338cc4831146100ee5780633afe58af1461011a5780636a9df2b51461013a5780637ae316d01461014f576100c4565b366100c4576000546001600160a01b031633146100c25760405162461bcd60e51b81526004016100b990610613565b60405180910390fd5b005b6000546001600160a01b031633146100c25760405162461bcd60e51b81526004016100b990610613565b3480156100fa57600080fd5b50305b6040516001600160a01b0390911681526020015b60405180910390f35b34801561012657600080fd5b506100c2610135366004610658565b61022b565b34801561014657600080fd5b506100c26102b6565b34801561015b57600080fd5b50610164610515565b604051908152602001610111565b34801561017e57600080fd5b5061016461018d366004610684565b6001600160a01b031660009081526001602052604090205490565b3480156101b457600080fd5b506000546100fd906001600160a01b031681565b3480156101d457600080fd5b506100fd6101e33660046106a8565b610581565b3480156101f457600080fd5b50610164610203366004610684565b60016020526000908152604090205481565b34801561022157600080fd5b5061016461271081565b6000546001600160a01b031633146102555760405162461bcd60e51b81526004016100b990610613565b6001600160a01b03909116600081815260016020819052604082209390935560028054938401815590527f405787fa12a823e0f2b7631cc41b3ba8828b3321ca811111fa75cd3aa3bb5ace90910180546001600160a01b0319169091179055565b6000546001600160a01b031633146102e05760405162461bcd60e51b81526004016100b990610613565b476000036103225760405162461bcd60e51b815260206004820152600f60248201526e4e6f7420656e7567682066756e647360881b60448201526064016100b9565b61271061032d6105ab565b1461037a5760405162461bcd60e51b815260206004820152601a60248201527f5061796d656e74206e6f742073706c697420656e746972656c7900000000000060448201526064016100b9565b600047815b6002548110156105105760016000600283815481106103a0576103a06106c1565b60009182526020808320909101546001600160a01b031683528201929092526040019020546103d1612710846106ed565b6103db919061070f565b92506000600282815481106103f2576103f26106c1565b60009182526020822001546040516001600160a01b039091169186919081818185875af1925050503d8060008114610446576040519150601f19603f3d011682016040523d82523d6000602084013e61044b565b606091505b505090508061049c5760405162461bcd60e51b815260206004820152601760248201527f52657475726e206665652066756e6473206661696c656400000000000000000060448201526064016100b9565b7f075a2720282fdf622141dae0b048ef90a21a7e57c134c76912d19d006b3b3f6f600283815481106104d0576104d06106c1565b60009182526020918290200154604080516001600160a01b0390921682529181018790520160405180910390a150806105088161072c565b91505061037f565b505050565b6000805b60025481101561057d57600160006002838154811061053a5761053a6106c1565b60009182526020808320909101546001600160a01b031683528201929092526040019020546105699083610745565b9150806105758161072c565b915050610519565b5090565b6002818154811061059157600080fd5b6000918252602090912001546001600160a01b0316905081565b6000805b60025481101561057d5760016000600283815481106105d0576105d06106c1565b60009182526020808320909101546001600160a01b031683528201929092526040019020546105ff9083610745565b91508061060b8161072c565b9150506105af565b60208082526013908201527229b2b73232b91034b9903737ba1037bbb732b960691b604082015260600190565b6001600160a01b038116811461065557600080fd5b50565b6000806040838503121561066b57600080fd5b823561067681610640565b946020939093013593505050565b60006020828403121561069657600080fd5b81356106a181610640565b9392505050565b6000602082840312156106ba57600080fd5b5035919050565b634e487b7160e01b600052603260045260246000fd5b634e487b7160e01b600052601160045260246000fd5b60008261070a57634e487b7160e01b600052601260045260246000fd5b500490565b8082028115828204841417610726576107266106d7565b92915050565b60006001820161073e5761073e6106d7565b5060010190565b80820180821115610726576107266106d756fea26469706673582212203704f2f5dafa7a63e62ec5bd7f32644df727eac44ae766d23325c2c62b306e3064736f6c63430008110033a26469706673582212204a5bc94ff3129e67d222609fe04eec3ba4b568053b39311b875f14bfd7d2420264736f6c63430008110033",
					"opcodes": "PUSH1 0x80 PUSH1 0x40 MSTORE CALLVALUE DUP1 ISZERO PUSH2 0x10 JUMPI PUSH1 0x0 DUP1 REVERT JUMPDEST POP PUSH1 0x2 DUP1 SLOAD PUSH1 0x1 PUSH1 0x1 PUSH1 0xA0 SHL SUB NOT AND CALLER OR SWAP1 SSTORE PUSH2 0xC1C DUP1 PUSH2 0x32 PUSH1 0x0 CODECOPY PUSH1 0x0 RETURN INVALID PUSH1 0x80 PUSH1 0x40 MSTORE CALLVALUE DUP1 ISZERO PUSH2 0x10 JUMPI PUSH1 0x0 DUP1 REVERT JUMPDEST POP PUSH1 0x4 CALLDATASIZE LT PUSH2 0x4C JUMPI PUSH1 0x0 CALLDATALOAD PUSH1 0xE0 SHR DUP1 PUSH4 0x384D4E6C EQ PUSH2 0x51 JUMPI DUP1 PUSH4 0x8DA5CB5B EQ PUSH2 0x84 JUMPI DUP1 PUSH4 0x965FA668 EQ PUSH2 0xAF JUMPI DUP1 PUSH4 0xAD5E9B65 EQ PUSH2 0xC4 JUMPI JUMPDEST PUSH1 0x0 DUP1 REVERT JUMPDEST PUSH2 0x71 PUSH2 0x5F CALLDATASIZE PUSH1 0x4 PUSH2 0x344 JUMP JUMPDEST PUSH1 0x1 PUSH1 0x20 MSTORE PUSH1 0x0 SWAP1 DUP2 MSTORE PUSH1 0x40 SWAP1 KECCAK256 SLOAD DUP2 JUMP JUMPDEST PUSH1 0x40 MLOAD SWAP1 DUP2 MSTORE PUSH1 0x20 ADD JUMPDEST PUSH1 0x40 MLOAD DUP1 SWAP2 SUB SWAP1 RETURN JUMPDEST PUSH1 0x2 SLOAD PUSH2 0x97 SWAP1 PUSH1 0x1 PUSH1 0x1 PUSH1 0xA0 SHL SUB AND DUP2 JUMP JUMPDEST PUSH1 0x40 MLOAD PUSH1 0x1 PUSH1 0x1 PUSH1 0xA0 SHL SUB SWAP1 SWAP2 AND DUP2 MSTORE PUSH1 0x20 ADD PUSH2 0x7B JUMP JUMPDEST PUSH2 0xC2 PUSH2 0xBD CALLDATASIZE PUSH1 0x4 PUSH2 0x344 JUMP JUMPDEST PUSH2 0xD7 JUMP JUMPDEST STOP JUMPDEST PUSH2 0x97 PUSH2 0xD2 CALLDATASIZE PUSH1 0x4 PUSH2 0x368 JUMP JUMPDEST PUSH2 0x2F5 JUMP JUMPDEST PUSH1 0x2 SLOAD PUSH1 0x1 PUSH1 0x1 PUSH1 0xA0 SHL SUB AND CALLER EQ PUSH2 0x12B JUMPI PUSH1 0x40 MLOAD PUSH3 0x461BCD PUSH1 0xE5 SHL DUP2 MSTORE PUSH1 0x20 PUSH1 0x4 DUP3 ADD MSTORE PUSH1 0x13 PUSH1 0x24 DUP3 ADD MSTORE PUSH19 0x29B2B73232B91034B9903737BA1037BBB732B9 PUSH1 0x69 SHL PUSH1 0x44 DUP3 ADD MSTORE PUSH1 0x64 ADD PUSH1 0x40 MLOAD DUP1 SWAP2 SUB SWAP1 REVERT JUMPDEST PUSH1 0x0 DUP2 PUSH1 0x40 MLOAD PUSH2 0x13A SWAP1 PUSH2 0x31F JUMP JUMPDEST PUSH1 0x1 PUSH1 0x1 PUSH1 0xA0 SHL SUB SWAP1 SWAP2 AND DUP2 MSTORE PUSH1 0x20 ADD PUSH1 0x40 MLOAD DUP1 SWAP2 SUB SWAP1 PUSH1 0x0 CREATE DUP1 ISZERO DUP1 ISZERO PUSH2 0x166 JUMPI RETURNDATASIZE PUSH1 0x0 DUP1 RETURNDATACOPY RETURNDATASIZE PUSH1 0x0 REVERT JUMPDEST POP PUSH1 0x0 DUP1 SLOAD PUSH1 0x1 DUP1 DUP3 ADD DUP4 SSTORE DUP3 DUP1 MSTORE PUSH32 0x290DECD9548B62A8D60345A988386FC84BA6BC95484008F6362F93160EF3E563 SWAP1 SWAP2 ADD DUP1 SLOAD PUSH1 0x1 PUSH1 0x1 PUSH1 0xA0 SHL SUB NOT AND PUSH1 0x1 PUSH1 0x1 PUSH1 0xA0 SHL SUB DUP6 AND OR SWAP1 SSTORE SWAP1 SLOAD SWAP2 SWAP3 POP PUSH2 0x1C0 SWAP2 PUSH2 0x381 JUMP JUMPDEST PUSH1 0x1 PUSH1 0x0 DUP4 PUSH1 0x1 PUSH1 0x1 PUSH1 0xA0 SHL SUB AND PUSH4 0x38CC4831 PUSH1 0x40 MLOAD DUP2 PUSH4 0xFFFFFFFF AND PUSH1 0xE0 SHL DUP2 MSTORE PUSH1 0x4 ADD PUSH1 0x20 PUSH1 0x40 MLOAD DUP1 DUP4 SUB DUP2 DUP7 GAS STATICCALL ISZERO DUP1 ISZERO PUSH2 0x202 JUMPI RETURNDATASIZE PUSH1 0x0 DUP1 RETURNDATACOPY RETURNDATASIZE PUSH1 0x0 REVERT JUMPDEST POP POP POP POP PUSH1 0x40 MLOAD RETURNDATASIZE PUSH1 0x1F NOT PUSH1 0x1F DUP3 ADD AND DUP3 ADD DUP1 PUSH1 0x40 MSTORE POP DUP2 ADD SWAP1 PUSH2 0x226 SWAP2 SWAP1 PUSH2 0x3A8 JUMP JUMPDEST PUSH1 0x1 PUSH1 0x1 PUSH1 0xA0 SHL SUB AND PUSH1 0x1 PUSH1 0x1 PUSH1 0xA0 SHL SUB AND DUP2 MSTORE PUSH1 0x20 ADD SWAP1 DUP2 MSTORE PUSH1 0x20 ADD PUSH1 0x0 KECCAK256 DUP2 SWAP1 SSTORE POP PUSH32 0xFAA85D4723FB8A9D6EB121A06F43E11F2C387C7D1F46891A47A52165C05D95CE CALLER DUP3 PUSH1 0x1 PUSH1 0x1 PUSH1 0xA0 SHL SUB AND PUSH4 0x38CC4831 PUSH1 0x40 MLOAD DUP2 PUSH4 0xFFFFFFFF AND PUSH1 0xE0 SHL DUP2 MSTORE PUSH1 0x4 ADD PUSH1 0x20 PUSH1 0x40 MLOAD DUP1 DUP4 SUB DUP2 DUP7 GAS STATICCALL ISZERO DUP1 ISZERO PUSH2 0x2AA JUMPI RETURNDATASIZE PUSH1 0x0 DUP1 RETURNDATACOPY RETURNDATASIZE PUSH1 0x0 REVERT JUMPDEST POP POP POP POP PUSH1 0x40 MLOAD RETURNDATASIZE PUSH1 0x1F NOT PUSH1 0x1F DUP3 ADD AND DUP3 ADD DUP1 PUSH1 0x40 MSTORE POP DUP2 ADD SWAP1 PUSH2 0x2CE SWAP2 SWAP1 PUSH2 0x3A8 JUMP JUMPDEST PUSH1 0x40 DUP1 MLOAD PUSH1 0x1 PUSH1 0x1 PUSH1 0xA0 SHL SUB SWAP4 DUP5 AND DUP2 MSTORE SWAP3 SWAP1 SWAP2 AND PUSH1 0x20 DUP4 ADD MSTORE ADD PUSH1 0x40 MLOAD DUP1 SWAP2 SUB SWAP1 LOG1 POP POP JUMP JUMPDEST PUSH1 0x0 DUP2 DUP2 SLOAD DUP2 LT PUSH2 0x305 JUMPI PUSH1 0x0 DUP1 REVERT JUMPDEST PUSH1 0x0 SWAP2 DUP3 MSTORE PUSH1 0x20 SWAP1 SWAP2 KECCAK256 ADD SLOAD PUSH1 0x1 PUSH1 0x1 PUSH1 0xA0 SHL SUB AND SWAP1 POP DUP2 JUMP JUMPDEST PUSH2 0x821 DUP1 PUSH2 0x3C6 DUP4 CODECOPY ADD SWAP1 JUMP JUMPDEST PUSH1 0x1 PUSH1 0x1 PUSH1 0xA0 SHL SUB DUP2 AND DUP2 EQ PUSH2 0x341 JUMPI PUSH1 0x0 DUP1 REVERT JUMPDEST POP JUMP JUMPDEST PUSH1 0x0 PUSH1 0x20 DUP3 DUP5 SUB SLT ISZERO PUSH2 0x356 JUMPI PUSH1 0x0 DUP1 REVERT JUMPDEST DUP2 CALLDATALOAD PUSH2 0x361 DUP2 PUSH2 0x32C JUMP JUMPDEST SWAP4 SWAP3 POP POP POP JUMP JUMPDEST PUSH1 0x0 PUSH1 0x20 DUP3 DUP5 SUB SLT ISZERO PUSH2 0x37A JUMPI PUSH1 0x0 DUP1 REVERT JUMPDEST POP CALLDATALOAD SWAP2 SWAP1 POP JUMP JUMPDEST DUP2 DUP2 SUB DUP2 DUP2 GT ISZERO PUSH2 0x3A2 JUMPI PUSH4 0x4E487B71 PUSH1 0xE0 SHL PUSH1 0x0 MSTORE PUSH1 0x11 PUSH1 0x4 MSTORE PUSH1 0x24 PUSH1 0x0 REVERT JUMPDEST SWAP3 SWAP2 POP POP JUMP JUMPDEST PUSH1 0x0 PUSH1 0x20 DUP3 DUP5 SUB SLT ISZERO PUSH2 0x3BA JUMPI PUSH1 0x0 DUP1 REVERT JUMPDEST DUP2 MLOAD PUSH2 0x361 DUP2 PUSH2 0x32C JUMP INVALID PUSH1 0x80 PUSH1 0x40 MSTORE CALLVALUE DUP1 ISZERO PUSH2 0x10 JUMPI PUSH1 0x0 DUP1 REVERT JUMPDEST POP PUSH1 0x40 MLOAD PUSH2 0x821 CODESIZE SUB DUP1 PUSH2 0x821 DUP4 CODECOPY DUP2 ADD PUSH1 0x40 DUP2 SWAP1 MSTORE PUSH2 0x2F SWAP2 PUSH2 0x54 JUMP JUMPDEST PUSH1 0x0 DUP1 SLOAD PUSH1 0x1 PUSH1 0x1 PUSH1 0xA0 SHL SUB NOT AND PUSH1 0x1 PUSH1 0x1 PUSH1 0xA0 SHL SUB SWAP3 SWAP1 SWAP3 AND SWAP2 SWAP1 SWAP2 OR SWAP1 SSTORE PUSH2 0x84 JUMP JUMPDEST PUSH1 0x0 PUSH1 0x20 DUP3 DUP5 SUB SLT ISZERO PUSH2 0x66 JUMPI PUSH1 0x0 DUP1 REVERT JUMPDEST DUP2 MLOAD PUSH1 0x1 PUSH1 0x1 PUSH1 0xA0 SHL SUB DUP2 AND DUP2 EQ PUSH2 0x7D JUMPI PUSH1 0x0 DUP1 REVERT JUMPDEST SWAP4 SWAP3 POP POP POP JUMP JUMPDEST PUSH2 0x78E DUP1 PUSH2 0x93 PUSH1 0x0 CODECOPY PUSH1 0x0 RETURN INVALID PUSH1 0x80 PUSH1 0x40 MSTORE PUSH1 0x4 CALLDATASIZE LT PUSH2 0x8A JUMPI PUSH1 0x0 CALLDATALOAD PUSH1 0xE0 SHR DUP1 PUSH4 0x8A0E72BB GT PUSH2 0x59 JUMPI DUP1 PUSH4 0x8A0E72BB EQ PUSH2 0x172 JUMPI DUP1 PUSH4 0x8DA5CB5B EQ PUSH2 0x1A8 JUMPI DUP1 PUSH4 0xD1BC76A1 EQ PUSH2 0x1C8 JUMPI DUP1 PUSH4 0xE59DE500 EQ PUSH2 0x1E8 JUMPI DUP1 PUSH4 0xECEFC705 EQ PUSH2 0x215 JUMPI PUSH2 0xC4 JUMP JUMPDEST DUP1 PUSH4 0x38CC4831 EQ PUSH2 0xEE JUMPI DUP1 PUSH4 0x3AFE58AF EQ PUSH2 0x11A JUMPI DUP1 PUSH4 0x6A9DF2B5 EQ PUSH2 0x13A JUMPI DUP1 PUSH4 0x7AE316D0 EQ PUSH2 0x14F JUMPI PUSH2 0xC4 JUMP JUMPDEST CALLDATASIZE PUSH2 0xC4 JUMPI PUSH1 0x0 SLOAD PUSH1 0x1 PUSH1 0x1 PUSH1 0xA0 SHL SUB AND CALLER EQ PUSH2 0xC2 JUMPI PUSH1 0x40 MLOAD PUSH3 0x461BCD PUSH1 0xE5 SHL DUP2 MSTORE PUSH1 0x4 ADD PUSH2 0xB9 SWAP1 PUSH2 0x613 JUMP JUMPDEST PUSH1 0x40 MLOAD DUP1 SWAP2 SUB SWAP1 REVERT JUMPDEST STOP JUMPDEST PUSH1 0x0 SLOAD PUSH1 0x1 PUSH1 0x1 PUSH1 0xA0 SHL SUB AND CALLER EQ PUSH2 0xC2 JUMPI PUSH1 0x40 MLOAD PUSH3 0x461BCD PUSH1 0xE5 SHL DUP2 MSTORE PUSH1 0x4 ADD PUSH2 0xB9 SWAP1 PUSH2 0x613 JUMP JUMPDEST CALLVALUE DUP1 ISZERO PUSH2 0xFA JUMPI PUSH1 0x0 DUP1 REVERT JUMPDEST POP ADDRESS JUMPDEST PUSH1 0x40 MLOAD PUSH1 0x1 PUSH1 0x1 PUSH1 0xA0 SHL SUB SWAP1 SWAP2 AND DUP2 MSTORE PUSH1 0x20 ADD JUMPDEST PUSH1 0x40 MLOAD DUP1 SWAP2 SUB SWAP1 RETURN JUMPDEST CALLVALUE DUP1 ISZERO PUSH2 0x126 JUMPI PUSH1 0x0 DUP1 REVERT JUMPDEST POP PUSH2 0xC2 PUSH2 0x135 CALLDATASIZE PUSH1 0x4 PUSH2 0x658 JUMP JUMPDEST PUSH2 0x22B JUMP JUMPDEST CALLVALUE DUP1 ISZERO PUSH2 0x146 JUMPI PUSH1 0x0 DUP1 REVERT JUMPDEST POP PUSH2 0xC2 PUSH2 0x2B6 JUMP JUMPDEST CALLVALUE DUP1 ISZERO PUSH2 0x15B JUMPI PUSH1 0x0 DUP1 REVERT JUMPDEST POP PUSH2 0x164 PUSH2 0x515 JUMP JUMPDEST PUSH1 0x40 MLOAD SWAP1 DUP2 MSTORE PUSH1 0x20 ADD PUSH2 0x111 JUMP JUMPDEST CALLVALUE DUP1 ISZERO PUSH2 0x17E JUMPI PUSH1 0x0 DUP1 REVERT JUMPDEST POP PUSH2 0x164 PUSH2 0x18D CALLDATASIZE PUSH1 0x4 PUSH2 0x684 JUMP JUMPDEST PUSH1 0x1 PUSH1 0x1 PUSH1 0xA0 SHL SUB AND PUSH1 0x0 SWAP1 DUP2 MSTORE PUSH1 0x1 PUSH1 0x20 MSTORE PUSH1 0x40 SWAP1 KECCAK256 SLOAD SWAP1 JUMP JUMPDEST CALLVALUE DUP1 ISZERO PUSH2 0x1B4 JUMPI PUSH1 0x0 DUP1 REVERT JUMPDEST POP PUSH1 0x0 SLOAD PUSH2 0xFD SWAP1 PUSH1 0x1 PUSH1 0x1 PUSH1 0xA0 SHL SUB AND DUP2 JUMP JUMPDEST CALLVALUE DUP1 ISZERO PUSH2 0x1D4 JUMPI PUSH1 0x0 DUP1 REVERT JUMPDEST POP PUSH2 0xFD PUSH2 0x1E3 CALLDATASIZE PUSH1 0x4 PUSH2 0x6A8 JUMP JUMPDEST PUSH2 0x581 JUMP JUMPDEST CALLVALUE DUP1 ISZERO PUSH2 0x1F4 JUMPI PUSH1 0x0 DUP1 REVERT JUMPDEST POP PUSH2 0x164 PUSH2 0x203 CALLDATASIZE PUSH1 0x4 PUSH2 0x684 JUMP JUMPDEST PUSH1 0x1 PUSH1 0x20 MSTORE PUSH1 0x0 SWAP1 DUP2 MSTORE PUSH1 0x40 SWAP1 KECCAK256 SLOAD DUP2 JUMP JUMPDEST CALLVALUE DUP1 ISZERO PUSH2 0x221 JUMPI PUSH1 0x0 DUP1 REVERT JUMPDEST POP PUSH2 0x164 PUSH2 0x2710 DUP2 JUMP JUMPDEST PUSH1 0x0 SLOAD PUSH1 0x1 PUSH1 0x1 PUSH1 0xA0 SHL SUB AND CALLER EQ PUSH2 0x255 JUMPI PUSH1 0x40 MLOAD PUSH3 0x461BCD PUSH1 0xE5 SHL DUP2 MSTORE PUSH1 0x4 ADD PUSH2 0xB9 SWAP1 PUSH2 0x613 JUMP JUMPDEST PUSH1 0x1 PUSH1 0x1 PUSH1 0xA0 SHL SUB SWAP1 SWAP2 AND PUSH1 0x0 DUP2 DUP2 MSTORE PUSH1 0x1 PUSH1 0x20 DUP2 SWAP1 MSTORE PUSH1 0x40 DUP3 KECCAK256 SWAP4 SWAP1 SWAP4 SSTORE PUSH1 0x2 DUP1 SLOAD SWAP4 DUP5 ADD DUP2 SSTORE SWAP1 MSTORE PUSH32 0x405787FA12A823E0F2B7631CC41B3BA8828B3321CA811111FA75CD3AA3BB5ACE SWAP1 SWAP2 ADD DUP1 SLOAD PUSH1 0x1 PUSH1 0x1 PUSH1 0xA0 SHL SUB NOT AND SWAP1 SWAP2 OR SWAP1 SSTORE JUMP JUMPDEST PUSH1 0x0 SLOAD PUSH1 0x1 PUSH1 0x1 PUSH1 0xA0 SHL SUB AND CALLER EQ PUSH2 0x2E0 JUMPI PUSH1 0x40 MLOAD PUSH3 0x461BCD PUSH1 0xE5 SHL DUP2 MSTORE PUSH1 0x4 ADD PUSH2 0xB9 SWAP1 PUSH2 0x613 JUMP JUMPDEST SELFBALANCE PUSH1 0x0 SUB PUSH2 0x322 JUMPI PUSH1 0x40 MLOAD PUSH3 0x461BCD PUSH1 0xE5 SHL DUP2 MSTORE PUSH1 0x20 PUSH1 0x4 DUP3 ADD MSTORE PUSH1 0xF PUSH1 0x24 DUP3 ADD MSTORE PUSH15 0x4E6F7420656E7567682066756E6473 PUSH1 0x88 SHL PUSH1 0x44 DUP3 ADD MSTORE PUSH1 0x64 ADD PUSH2 0xB9 JUMP JUMPDEST PUSH2 0x2710 PUSH2 0x32D PUSH2 0x5AB JUMP JUMPDEST EQ PUSH2 0x37A JUMPI PUSH1 0x40 MLOAD PUSH3 0x461BCD PUSH1 0xE5 SHL DUP2 MSTORE PUSH1 0x20 PUSH1 0x4 DUP3 ADD MSTORE PUSH1 0x1A PUSH1 0x24 DUP3 ADD MSTORE PUSH32 0x5061796D656E74206E6F742073706C697420656E746972656C79000000000000 PUSH1 0x44 DUP3 ADD MSTORE PUSH1 0x64 ADD PUSH2 0xB9 JUMP JUMPDEST PUSH1 0x0 SELFBALANCE DUP2 JUMPDEST PUSH1 0x2 SLOAD DUP2 LT ISZERO PUSH2 0x510 JUMPI PUSH1 0x1 PUSH1 0x0 PUSH1 0x2 DUP4 DUP2 SLOAD DUP2 LT PUSH2 0x3A0 JUMPI PUSH2 0x3A0 PUSH2 0x6C1 JUMP JUMPDEST PUSH1 0x0 SWAP2 DUP3 MSTORE PUSH1 0x20 DUP1 DUP4 KECCAK256 SWAP1 SWAP2 ADD SLOAD PUSH1 0x1 PUSH1 0x1 PUSH1 0xA0 SHL SUB AND DUP4 MSTORE DUP3 ADD SWAP3 SWAP1 SWAP3 MSTORE PUSH1 0x40 ADD SWAP1 KECCAK256 SLOAD PUSH2 0x3D1 PUSH2 0x2710 DUP5 PUSH2 0x6ED JUMP JUMPDEST PUSH2 0x3DB SWAP2 SWAP1 PUSH2 0x70F JUMP JUMPDEST SWAP3 POP PUSH1 0x0 PUSH1 0x2 DUP3 DUP2 SLOAD DUP2 LT PUSH2 0x3F2 JUMPI PUSH2 0x3F2 PUSH2 0x6C1 JUMP JUMPDEST PUSH1 0x0 SWAP2 DUP3 MSTORE PUSH1 0x20 DUP3 KECCAK256 ADD SLOAD PUSH1 0x40 MLOAD PUSH1 0x1 PUSH1 0x1 PUSH1 0xA0 SHL SUB SWAP1 SWAP2 AND SWAP2 DUP7 SWAP2 SWAP1 DUP2 DUP2 DUP2 DUP6 DUP8 GAS CALL SWAP3 POP POP POP RETURNDATASIZE DUP1 PUSH1 0x0 DUP2 EQ PUSH2 0x446 JUMPI PUSH1 0x40 MLOAD SWAP2 POP PUSH1 0x1F NOT PUSH1 0x3F RETURNDATASIZE ADD AND DUP3 ADD PUSH1 0x40 MSTORE RETURNDATASIZE DUP3 MSTORE RETURNDATASIZE PUSH1 0x0 PUSH1 0x20 DUP5 ADD RETURNDATACOPY PUSH2 0x44B JUMP JUMPDEST PUSH1 0x60 SWAP2 POP JUMPDEST POP POP SWAP1 POP DUP1 PUSH2 0x49C JUMPI PUSH1 0x40 MLOAD PUSH3 0x461BCD PUSH1 0xE5 SHL DUP2 MSTORE PUSH1 0x20 PUSH1 0x4 DUP3 ADD MSTORE PUSH1 0x17 PUSH1 0x24 DUP3 ADD MSTORE PUSH32 0x52657475726E206665652066756E6473206661696C6564000000000000000000 PUSH1 0x44 DUP3 ADD MSTORE PUSH1 0x64 ADD PUSH2 0xB9 JUMP JUMPDEST PUSH32 0x75A2720282FDF622141DAE0B048EF90A21A7E57C134C76912D19D006B3B3F6F PUSH1 0x2 DUP4 DUP2 SLOAD DUP2 LT PUSH2 0x4D0 JUMPI PUSH2 0x4D0 PUSH2 0x6C1 JUMP JUMPDEST PUSH1 0x0 SWAP2 DUP3 MSTORE PUSH1 0x20 SWAP2 DUP3 SWAP1 KECCAK256 ADD SLOAD PUSH1 0x40 DUP1 MLOAD PUSH1 0x1 PUSH1 0x1 PUSH1 0xA0 SHL SUB SWAP1 SWAP3 AND DUP3 MSTORE SWAP2 DUP2 ADD DUP8 SWAP1 MSTORE ADD PUSH1 0x40 MLOAD DUP1 SWAP2 SUB SWAP1 LOG1 POP DUP1 PUSH2 0x508 DUP2 PUSH2 0x72C JUMP JUMPDEST SWAP2 POP POP PUSH2 0x37F JUMP JUMPDEST POP POP POP JUMP JUMPDEST PUSH1 0x0 DUP1 JUMPDEST PUSH1 0x2 SLOAD DUP2 LT ISZERO PUSH2 0x57D JUMPI PUSH1 0x1 PUSH1 0x0 PUSH1 0x2 DUP4 DUP2 SLOAD DUP2 LT PUSH2 0x53A JUMPI PUSH2 0x53A PUSH2 0x6C1 JUMP JUMPDEST PUSH1 0x0 SWAP2 DUP3 MSTORE PUSH1 0x20 DUP1 DUP4 KECCAK256 SWAP1 SWAP2 ADD SLOAD PUSH1 0x1 PUSH1 0x1 PUSH1 0xA0 SHL SUB AND DUP4 MSTORE DUP3 ADD SWAP3 SWAP1 SWAP3 MSTORE PUSH1 0x40 ADD SWAP1 KECCAK256 SLOAD PUSH2 0x569 SWAP1 DUP4 PUSH2 0x745 JUMP JUMPDEST SWAP2 POP DUP1 PUSH2 0x575 DUP2 PUSH2 0x72C JUMP JUMPDEST SWAP2 POP POP PUSH2 0x519 JUMP JUMPDEST POP SWAP1 JUMP JUMPDEST PUSH1 0x2 DUP2 DUP2 SLOAD DUP2 LT PUSH2 0x591 JUMPI PUSH1 0x0 DUP1 REVERT JUMPDEST PUSH1 0x0 SWAP2 DUP3 MSTORE PUSH1 0x20 SWAP1 SWAP2 KECCAK256 ADD SLOAD PUSH1 0x1 PUSH1 0x1 PUSH1 0xA0 SHL SUB AND SWAP1 POP DUP2 JUMP JUMPDEST PUSH1 0x0 DUP1 JUMPDEST PUSH1 0x2 SLOAD DUP2 LT ISZERO PUSH2 0x57D JUMPI PUSH1 0x1 PUSH1 0x0 PUSH1 0x2 DUP4 DUP2 SLOAD DUP2 LT PUSH2 0x5D0 JUMPI PUSH2 0x5D0 PUSH2 0x6C1 JUMP JUMPDEST PUSH1 0x0 SWAP2 DUP3 MSTORE PUSH1 0x20 DUP1 DUP4 KECCAK256 SWAP1 SWAP2 ADD SLOAD PUSH1 0x1 PUSH1 0x1 PUSH1 0xA0 SHL SUB AND DUP4 MSTORE DUP3 ADD SWAP3 SWAP1 SWAP3 MSTORE PUSH1 0x40 ADD SWAP1 KECCAK256 SLOAD PUSH2 0x5FF SWAP1 DUP4 PUSH2 0x745 JUMP JUMPDEST SWAP2 POP DUP1 PUSH2 0x60B DUP2 PUSH2 0x72C JUMP JUMPDEST SWAP2 POP POP PUSH2 0x5AF JUMP JUMPDEST PUSH1 0x20 DUP1 DUP3 MSTORE PUSH1 0x13 SWAP1 DUP3 ADD MSTORE PUSH19 0x29B2B73232B91034B9903737BA1037BBB732B9 PUSH1 0x69 SHL PUSH1 0x40 DUP3 ADD MSTORE PUSH1 0x60 ADD SWAP1 JUMP JUMPDEST PUSH1 0x1 PUSH1 0x1 PUSH1 0xA0 SHL SUB DUP2 AND DUP2 EQ PUSH2 0x655 JUMPI PUSH1 0x0 DUP1 REVERT JUMPDEST POP JUMP JUMPDEST PUSH1 0x0 DUP1 PUSH1 0x40 DUP4 DUP6 SUB SLT ISZERO PUSH2 0x66B JUMPI PUSH1 0x0 DUP1 REVERT JUMPDEST DUP3 CALLDATALOAD PUSH2 0x676 DUP2 PUSH2 0x640 JUMP JUMPDEST SWAP5 PUSH1 0x20 SWAP4 SWAP1 SWAP4 ADD CALLDATALOAD SWAP4 POP POP POP JUMP JUMPDEST PUSH1 0x0 PUSH1 0x20 DUP3 DUP5 SUB SLT ISZERO PUSH2 0x696 JUMPI PUSH1 0x0 DUP1 REVERT JUMPDEST DUP2 CALLDATALOAD PUSH2 0x6A1 DUP2 PUSH2 0x640 JUMP JUMPDEST SWAP4 SWAP3 POP POP POP JUMP JUMPDEST PUSH1 0x0 PUSH1 0x20 DUP3 DUP5 SUB SLT ISZERO PUSH2 0x6BA JUMPI PUSH1 0x0 DUP1 REVERT JUMPDEST POP CALLDATALOAD SWAP2 SWAP1 POP JUMP JUMPDEST PUSH4 0x4E487B71 PUSH1 0xE0 SHL PUSH1 0x0 MSTORE PUSH1 0x32 PUSH1 0x4 MSTORE PUSH1 0x24 PUSH1 0x0 REVERT JUMPDEST PUSH4 0x4E487B71 PUSH1 0xE0 SHL PUSH1 0x0 MSTORE PUSH1 0x11 PUSH1 0x4 MSTORE PUSH1 0x24 PUSH1 0x0 REVERT JUMPDEST PUSH1 0x0 DUP3 PUSH2 0x70A JUMPI PUSH4 0x4E487B71 PUSH1 0xE0 SHL PUSH1 0x0 MSTORE PUSH1 0x12 PUSH1 0x4 MSTORE PUSH1 0x24 PUSH1 0x0 REVERT JUMPDEST POP DIV SWAP1 JUMP JUMPDEST DUP1 DUP3 MUL DUP2 ISZERO DUP3 DUP3 DIV DUP5 EQ OR PUSH2 0x726 JUMPI PUSH2 0x726 PUSH2 0x6D7 JUMP JUMPDEST SWAP3 SWAP2 POP POP JUMP JUMPDEST PUSH1 0x0 PUSH1 0x1 DUP3 ADD PUSH2 0x73E JUMPI PUSH2 0x73E PUSH2 0x6D7 JUMP JUMPDEST POP PUSH1 0x1 ADD SWAP1 JUMP JUMPDEST DUP1 DUP3 ADD DUP1 DUP3 GT ISZERO PUSH2 0x726 JUMPI PUSH2 0x726 PUSH2 0x6D7 JUMP INVALID LOG2 PUSH5 0x6970667358 0x22 SLT KECCAK256 CALLDATACOPY DIV CALLCODE CREATE2 0xDA STATICCALL PUSH27 0x63E62EC5BD7F32644DF727EAC44AE766D23325C2C62B306E306473 PUSH16 0x6C63430008110033A264697066735822 SLT KECCAK256 0x4A JUMPDEST 0xC9 0x4F RETURN SLT SWAP15 PUSH8 0xD222609FE04EEC3B LOG4 0xB5 PUSH9 0x53B39311B875F14BF 0xD7 0xD2 TIMESTAMP MUL PUSH5 0x736F6C6343 STOP ADDMOD GT STOP CALLER "
				},
				"gasEstimates": {
					"creation": {
						"codeDepositCost": "620000",
						"executionCost": "24886",
						"totalCost": "644886"
					},
					"external": {
						"_indexOfPaymentSplitByAddress(address)": "2480",
						"_paymentSplit(uint256)": "4658",
						"createPaymentTokens(address)": "infinite",
						"owner()": "2337"
					}
				},
				"methodIdentifiers": {
					"_indexOfPaymentSplitByAddress(address)": "384d4e6c",
					"_paymentSplit(uint256)": "ad5e9b65",
					"createPaymentTokens(address)": "965fa668",
					"owner()": "8da5cb5b"
				}
			},
			"storageLayout": {
				"storage": [
					{
						"astId": 259,
						"contract": "Contracts/PaymentSplitFactory.sol:PaymentSplitFactory",
						"label": "_paymentSplit",
						"offset": 0,
						"slot": "0",
						"type": "t_array(t_contract(PaymentSplit)246)dyn_storage"
					},
					{
						"astId": 263,
						"contract": "Contracts/PaymentSplitFactory.sol:PaymentSplitFactory",
						"label": "_indexOfPaymentSplitByAddress",
						"offset": 0,
						"slot": "1",
						"type": "t_mapping(t_address,t_uint256)"
					},
					{
						"astId": 265,
						"contract": "Contracts/PaymentSplitFactory.sol:PaymentSplitFactory",
						"label": "owner",
						"offset": 0,
						"slot": "2",
						"type": "t_address_payable"
					}
				],
				"types": {
					"t_address": {
						"encoding": "inplace",
						"label": "address",
						"numberOfBytes": "20"
					},
					"t_address_payable": {
						"encoding": "inplace",
						"label": "address payable",
						"numberOfBytes": "20"
					},
					"t_array(t_contract(PaymentSplit)246)dyn_storage": {
						"base": "t_contract(PaymentSplit)246",
						"encoding": "dynamic_array",
						"label": "contract PaymentSplit[]",
						"numberOfBytes": "32"
					},
					"t_contract(PaymentSplit)246": {
						"encoding": "inplace",
						"label": "contract PaymentSplit",
						"numberOfBytes": "20"
					},
					"t_mapping(t_address,t_uint256)": {
						"encoding": "mapping",
						"key": "t_address",
						"label": "mapping(address => uint256)",
						"numberOfBytes": "32",
						"value": "t_uint256"
					},
					"t_uint256": {
						"encoding": "inplace",
						"label": "uint256",
						"numberOfBytes": "32"
					}
				}
			},
			"userdoc": {
				"kind": "user",
				"methods": {},
				"version": 1
			}
		}
	}
}