{
	"Contracts/DocumentVault.sol": {
		"DocumentVault": {
			"abi": [
				{
					"inputs": [
						{
							"internalType": "uint256",
							"name": "_minimunFee",
							"type": "uint256"
						}
					],
					"stateMutability": "nonpayable",
					"type": "constructor"
				},
				{
					"anonymous": false,
					"inputs": [
						{
							"indexed": true,
							"internalType": "address",
							"name": "publisher",
							"type": "address"
						},
						{
							"indexed": false,
							"internalType": "string",
							"name": "docProcess",
							"type": "string"
						}
					],
					"name": "NewDocAdded",
					"type": "event"
				},
				{
					"anonymous": false,
					"inputs": [
						{
							"indexed": true,
							"internalType": "address",
							"name": "account",
							"type": "address"
						},
						{
							"indexed": false,
							"internalType": "bool",
							"name": "enable",
							"type": "bool"
						}
					],
					"name": "SetWhitelistByAddress",
					"type": "event"
				},
				{
					"stateMutability": "payable",
					"type": "fallback"
				},
				{
					"inputs": [
						{
							"internalType": "string",
							"name": "_typeOfDocument",
							"type": "string"
						},
						{
							"internalType": "string",
							"name": "_docsURI",
							"type": "string"
						},
						{
							"internalType": "string",
							"name": "_docsURIChesksum",
							"type": "string"
						},
						{
							"internalType": "string",
							"name": "_publisherResponsible",
							"type": "string"
						},
						{
							"internalType": "string",
							"name": "_docProcess",
							"type": "string"
						}
					],
					"name": "addNewDoc",
					"outputs": [],
					"stateMutability": "payable",
					"type": "function"
				},
				{
					"inputs": [],
					"name": "getBalance",
					"outputs": [
						{
							"internalType": "uint256",
							"name": "",
							"type": "uint256"
						}
					],
					"stateMutability": "view",
					"type": "function"
				},
				{
					"inputs": [
						{
							"internalType": "address",
							"name": "_account",
							"type": "address"
						}
					],
					"name": "isWhitelist",
					"outputs": [
						{
							"internalType": "bool",
							"name": "",
							"type": "bool"
						}
					],
					"stateMutability": "view",
					"type": "function"
				},
				{
					"inputs": [],
					"name": "owner",
					"outputs": [
						{
							"internalType": "address payable",
							"name": "",
							"type": "address"
						}
					],
					"stateMutability": "view",
					"type": "function"
				},
				{
					"inputs": [
						{
							"internalType": "string",
							"name": "",
							"type": "string"
						}
					],
					"name": "registeredDocs",
					"outputs": [
						{
							"internalType": "string",
							"name": "typeOfDocument",
							"type": "string"
						},
						{
							"internalType": "string",
							"name": "docsURI",
							"type": "string"
						},
						{
							"internalType": "string",
							"name": "docsURIChesksum",
							"type": "string"
						},
						{
							"internalType": "string",
							"name": "publisherResponsible",
							"type": "string"
						}
					],
					"stateMutability": "view",
					"type": "function"
				},
				{
					"inputs": [
						{
							"internalType": "address",
							"name": "_account",
							"type": "address"
						},
						{
							"internalType": "bool",
							"name": "enable",
							"type": "bool"
						}
					],
					"name": "setWhitelist",
					"outputs": [],
					"stateMutability": "nonpayable",
					"type": "function"
				},
				{
					"stateMutability": "payable",
					"type": "receive"
				}
			],
			"devdoc": {
				"author": "Gustavo Henrique / gustavo@useinsignia.com",
				"kind": "dev",
				"methods": {
					"addNewDoc(string,string,string,string,string)": {
						"details": "The owner of the contract could insert a fee to publish data, default 0 , e.g. 100 = 1%",
						"params": {
							"_docProcess": "The string to retrieve the data, should be related to the context of the documentation",
							"_docsURI": "The IPFS CID of the tree documentation  e.g. Auction_Docs",
							"_docsURIChesksum": "The hash of the tree documentation, certify the integrity of the data",
							"_publisherResponsible": "The responsible for publishing the documentation",
							"_typeOfDocument": "Type of the document added"
						}
					},
					"constructor": {
						"details": "Sets the values for :  {minimunFee} -> The fee charged on every new document added"
					},
					"getBalance()": {
						"returns": {
							"_0": "uint of the total native token balance"
						}
					},
					"isWhitelist(address)": {
						"params": {
							"_account": "Consultant address"
						},
						"returns": {
							"_0": "Boolean of the privilege setted"
						}
					},
					"setWhitelist(address,bool)": {
						"params": {
							"_account": "The address to insert",
							"enable": "True to guarantee privilegies, false to remove privilegies"
						}
					}
				},
				"title": "Vault for store real estate documents",
				"version": 1
			},
			"evm": {
				"assembly": "    /* \"Contracts/DocumentVault.sol\":476:4395  contract DocumentVault {... */\n  mstore(0x40, 0x80)\n    /* \"Contracts/DocumentVault.sol\":1297:1408  constructor(uint _minimunFee) {... */\n  callvalue\n  dup1\n  iszero\n  tag_1\n  jumpi\n  0x00\n  dup1\n  revert\ntag_1:\n  pop\n  mload(0x40)\n  sub(codesize, bytecodeSize)\n  dup1\n  bytecodeSize\n  dup4\n  codecopy\n  dup2\n  add\n  0x40\n  dup2\n  swap1\n  mstore\n  tag_2\n  swap2\n  tag_3\n  jump\t// in\ntag_2:\n    /* \"Contracts/DocumentVault.sol\":1338:1343  owner */\n  0x00\n    /* \"Contracts/DocumentVault.sol\":1338:1365  owner = payable(msg.sender) */\n  dup1\n  sload\n  not(sub(shl(0xa0, 0x01), 0x01))\n  and\n    /* \"Contracts/DocumentVault.sol\":1354:1364  msg.sender */\n  caller\n    /* \"Contracts/DocumentVault.sol\":1338:1365  owner = payable(msg.sender) */\n  or\n  swap1\n  sstore\n  0x01\n    /* \"Contracts/DocumentVault.sol\":1376:1400  minimunFee = _minimunFee */\n  sstore\n    /* \"Contracts/DocumentVault.sol\":476:4395  contract DocumentVault {... */\n  jump(tag_7)\n    /* \"#utility.yul\":14:198   */\ntag_3:\n    /* \"#utility.yul\":84:90   */\n  0x00\n    /* \"#utility.yul\":137:139   */\n  0x20\n    /* \"#utility.yul\":125:134   */\n  dup3\n    /* \"#utility.yul\":116:123   */\n  dup5\n    /* \"#utility.yul\":112:135   */\n  sub\n    /* \"#utility.yul\":108:140   */\n  slt\n    /* \"#utility.yul\":105:157   */\n  iszero\n  tag_9\n  jumpi\n    /* \"#utility.yul\":153:154   */\n  0x00\n    /* \"#utility.yul\":150:151   */\n  dup1\n    /* \"#utility.yul\":143:155   */\n  revert\n    /* \"#utility.yul\":105:157   */\ntag_9:\n  pop\n    /* \"#utility.yul\":176:192   */\n  mload\n  swap2\n    /* \"#utility.yul\":14:198   */\n  swap1\n  pop\n  jump\t// out\ntag_7:\n    /* \"Contracts/DocumentVault.sol\":476:4395  contract DocumentVault {... */\n  dataSize(sub_0)\n  dup1\n  dataOffset(sub_0)\n  0x00\n  codecopy\n  0x00\n  return\nstop\n\nsub_0: assembly {\n        /* \"Contracts/DocumentVault.sol\":476:4395  contract DocumentVault {... */\n      mstore(0x40, 0x80)\n      jumpi(tag_1, lt(calldatasize, 0x04))\n      shr(0xe0, calldataload(0x00))\n      dup1\n      0x12065fe0\n      eq\n      tag_3\n      jumpi\n      dup1\n      0x53d6fd59\n      eq\n      tag_4\n      jumpi\n      dup1\n      0x8da5cb5b\n      eq\n      tag_5\n      jumpi\n      dup1\n      0xc683630d\n      eq\n      tag_6\n      jumpi\n      dup1\n      0xd2bfb0bc\n      eq\n      tag_7\n      jumpi\n      dup1\n      0xf7ac5182\n      eq\n      tag_8\n      jumpi\n      jump(tag_2)\n    tag_1:\n      jumpi(tag_2, calldatasize)\n        /* \"Contracts/DocumentVault.sol\":1837:1842  owner */\n      and(sub(shl(0xa0, 0x01), 0x01), sload(0x00))\n        /* \"Contracts/DocumentVault.sol\":1823:1833  msg.sender */\n      caller\n        /* \"Contracts/DocumentVault.sol\":1823:1842  msg.sender == owner */\n      eq\n        /* \"Contracts/DocumentVault.sol\":1815:1866  require(msg.sender == owner, \"Sender is not owner\") */\n      tag_11\n      jumpi\n      mload(0x40)\n      shl(0xe5, 0x461bcd)\n      dup2\n      mstore\n      0x04\n      add\n      tag_12\n      swap1\n      tag_13\n      jump\t// in\n    tag_12:\n      mload(0x40)\n      dup1\n      swap2\n      sub\n      swap1\n      revert\n    tag_11:\n        /* \"Contracts/DocumentVault.sol\":476:4395  contract DocumentVault {... */\n      stop\n    tag_2:\n        /* \"Contracts/DocumentVault.sol\":1837:1842  owner */\n      and(sub(shl(0xa0, 0x01), 0x01), sload(0x00))\n        /* \"Contracts/DocumentVault.sol\":1823:1833  msg.sender */\n      caller\n        /* \"Contracts/DocumentVault.sol\":1823:1842  msg.sender == owner */\n      eq\n        /* \"Contracts/DocumentVault.sol\":1815:1866  require(msg.sender == owner, \"Sender is not owner\") */\n      tag_11\n      jumpi\n      mload(0x40)\n      shl(0xe5, 0x461bcd)\n      dup2\n      mstore\n      0x04\n      add\n      tag_12\n      swap1\n      tag_13\n      jump\t// in\n        /* \"Contracts/DocumentVault.sol\":4296:4392  function getBalance() public view returns (uint) {... */\n    tag_3:\n      callvalue\n      dup1\n      iszero\n      tag_20\n      jumpi\n      0x00\n      dup1\n      revert\n    tag_20:\n      pop\n      mload(0x40)\n        /* \"Contracts/DocumentVault.sol\":4363:4384  address(this).balance */\n      selfbalance\n        /* \"#utility.yul\":508:533   */\n      dup2\n      mstore\n        /* \"#utility.yul\":496:498   */\n      0x20\n        /* \"#utility.yul\":481:499   */\n      add\n        /* \"Contracts/DocumentVault.sol\":4296:4392  function getBalance() public view returns (uint) {... */\n    tag_23:\n      mload(0x40)\n      dup1\n      swap2\n      sub\n      swap1\n      return\n        /* \"Contracts/DocumentVault.sol\":3413:3596  function setWhitelist(address _account, bool enable) external onlyOwner {... */\n    tag_4:\n      callvalue\n      dup1\n      iszero\n      tag_25\n      jumpi\n      0x00\n      dup1\n      revert\n    tag_25:\n      pop\n      tag_11\n      tag_27\n      calldatasize\n      0x04\n      tag_28\n      jump\t// in\n    tag_27:\n      tag_29\n      jump\t// in\n        /* \"Contracts/DocumentVault.sol\":820:848  address payable public owner */\n    tag_5:\n      callvalue\n      dup1\n      iszero\n      tag_30\n      jumpi\n      0x00\n      dup1\n      revert\n    tag_30:\n      pop\n      sload(0x00)\n      tag_31\n      swap1\n      sub(shl(0xa0, 0x01), 0x01)\n      and\n      dup2\n      jump\n    tag_31:\n      mload(0x40)\n      sub(shl(0xa0, 0x01), 0x01)\n        /* \"#utility.yul\":1254:1286   */\n      swap1\n      swap2\n      and\n        /* \"#utility.yul\":1236:1287   */\n      dup2\n      mstore\n        /* \"#utility.yul\":1224:1226   */\n      0x20\n        /* \"#utility.yul\":1209:1227   */\n      add\n        /* \"Contracts/DocumentVault.sol\":820:848  address payable public owner */\n      tag_23\n        /* \"#utility.yul\":1074:1293   */\n      jump\n        /* \"Contracts/DocumentVault.sol\":4056:4170  function isWhitelist(address _account) public view returns (bool) {... */\n    tag_6:\n      callvalue\n      dup1\n      iszero\n      tag_35\n      jumpi\n      0x00\n      dup1\n      revert\n    tag_35:\n      pop\n      tag_36\n      tag_37\n      calldatasize\n      0x04\n      tag_38\n      jump\t// in\n    tag_37:\n      sub(shl(0xa0, 0x01), 0x01)\n        /* \"Contracts/DocumentVault.sol\":3852:3880  _allowedPublishers[_account] */\n      and\n        /* \"Contracts/DocumentVault.sol\":4116:4120  bool */\n      0x00\n        /* \"Contracts/DocumentVault.sol\":3852:3880  _allowedPublishers[_account] */\n      swap1\n      dup2\n      mstore\n        /* \"Contracts/DocumentVault.sol\":3852:3870  _allowedPublishers */\n      0x03\n        /* \"Contracts/DocumentVault.sol\":3852:3880  _allowedPublishers[_account] */\n      0x20\n      mstore\n      0x40\n      swap1\n      keccak256\n      sload\n      0xff\n      and\n      swap1\n        /* \"Contracts/DocumentVault.sol\":4056:4170  function isWhitelist(address _account) public view returns (bool) {... */\n      jump\n    tag_36:\n      mload(0x40)\n        /* \"#utility.yul\":1654:1668   */\n      swap1\n      iszero\n        /* \"#utility.yul\":1647:1669   */\n      iszero\n        /* \"#utility.yul\":1629:1670   */\n      dup2\n      mstore\n        /* \"#utility.yul\":1617:1619   */\n      0x20\n        /* \"#utility.yul\":1602:1620   */\n      add\n        /* \"Contracts/DocumentVault.sol\":4056:4170  function isWhitelist(address _account) public view returns (bool) {... */\n      tag_23\n        /* \"#utility.yul\":1489:1676   */\n      jump\n        /* \"Contracts/DocumentVault.sol\":2498:3213  function addNewDoc(... */\n    tag_7:\n      tag_11\n      tag_43\n      calldatasize\n      0x04\n      tag_44\n      jump\t// in\n    tag_43:\n      tag_45\n      jump\t// in\n        /* \"Contracts/DocumentVault.sol\":1044:1098  mapping(string => Documentation) public registeredDocs */\n    tag_8:\n      callvalue\n      dup1\n      iszero\n      tag_46\n      jumpi\n      0x00\n      dup1\n      revert\n    tag_46:\n      pop\n      tag_47\n      tag_48\n      calldatasize\n      0x04\n      tag_49\n      jump\t// in\n    tag_48:\n      tag_50\n      jump\t// in\n    tag_47:\n      mload(0x40)\n      tag_23\n      swap5\n      swap4\n      swap3\n      swap2\n      swap1\n      tag_52\n      jump\t// in\n        /* \"Contracts/DocumentVault.sol\":3413:3596  function setWhitelist(address _account, bool enable) external onlyOwner {... */\n    tag_29:\n        /* \"Contracts/DocumentVault.sol\":1837:1842  owner */\n      and(sub(shl(0xa0, 0x01), 0x01), sload(0x00))\n        /* \"Contracts/DocumentVault.sol\":1823:1833  msg.sender */\n      caller\n        /* \"Contracts/DocumentVault.sol\":1823:1842  msg.sender == owner */\n      eq\n        /* \"Contracts/DocumentVault.sol\":1815:1866  require(msg.sender == owner, \"Sender is not owner\") */\n      tag_55\n      jumpi\n      mload(0x40)\n      shl(0xe5, 0x461bcd)\n      dup2\n      mstore\n      0x04\n      add\n      tag_12\n      swap1\n      tag_13\n      jump\t// in\n    tag_55:\n      sub(shl(0xa0, 0x01), 0x01)\n        /* \"Contracts/DocumentVault.sol\":3496:3524  _allowedPublishers[_account] */\n      dup3\n      and\n      0x00\n      dup2\n      dup2\n      mstore\n        /* \"Contracts/DocumentVault.sol\":3496:3514  _allowedPublishers */\n      0x03\n        /* \"Contracts/DocumentVault.sol\":3496:3524  _allowedPublishers[_account] */\n      0x20\n      swap1\n      dup2\n      mstore\n      0x40\n      swap2\n      dup3\n      swap1\n      keccak256\n        /* \"Contracts/DocumentVault.sol\":3496:3533  _allowedPublishers[_account] = enable */\n      dup1\n      sload\n      not(0xff)\n      and\n      dup6\n      iszero\n      iszero\n      swap1\n      dup2\n      or\n      swap1\n      swap2\n      sstore\n        /* \"Contracts/DocumentVault.sol\":3549:3588  SetWhitelistByAddress(_account, enable) */\n      swap2\n      mload\n        /* \"#utility.yul\":1629:1670   */\n      swap2\n      dup3\n      mstore\n        /* \"Contracts/DocumentVault.sol\":3549:3588  SetWhitelistByAddress(_account, enable) */\n      0xc2c8beffdf047b9e6c79b0e9dcd0bd71d174d84f52e013102fcc0e200dd58ee0\n      swap2\n        /* \"#utility.yul\":1602:1620   */\n      add\n        /* \"Contracts/DocumentVault.sol\":3549:3588  SetWhitelistByAddress(_account, enable) */\n      mload(0x40)\n      dup1\n      swap2\n      sub\n      swap1\n      log2\n        /* \"Contracts/DocumentVault.sol\":3413:3596  function setWhitelist(address _account, bool enable) external onlyOwner {... */\n      pop\n      pop\n      jump\t// out\n        /* \"Contracts/DocumentVault.sol\":2498:3213  function addNewDoc(... */\n    tag_45:\n        /* \"Contracts/DocumentVault.sol\":2766:2776  minimunFee */\n      sload(0x01)\n        /* \"Contracts/DocumentVault.sol\":2754:2763  msg.value */\n      callvalue\n        /* \"Contracts/DocumentVault.sol\":2754:2776  msg.value > minimunFee */\n      gt\n        /* \"Contracts/DocumentVault.sol\":2746:2811  require(msg.value > minimunFee, \"Minimum fee needed to register\") */\n      tag_63\n      jumpi\n      mload(0x40)\n      shl(0xe5, 0x461bcd)\n      dup2\n      mstore\n        /* \"#utility.yul\":5463:5465   */\n      0x20\n        /* \"Contracts/DocumentVault.sol\":2746:2811  require(msg.value > minimunFee, \"Minimum fee needed to register\") */\n      0x04\n      dup3\n      add\n        /* \"#utility.yul\":5445:5466   */\n      mstore\n        /* \"#utility.yul\":5502:5504   */\n      0x1e\n        /* \"#utility.yul\":5482:5500   */\n      0x24\n      dup3\n      add\n        /* \"#utility.yul\":5475:5505   */\n      mstore\n        /* \"#utility.yul\":5541:5573   */\n      0x4d696e696d756d20666565206e656564656420746f2072656769737465720000\n        /* \"#utility.yul\":5521:5539   */\n      0x44\n      dup3\n      add\n        /* \"#utility.yul\":5514:5574   */\n      mstore\n        /* \"#utility.yul\":5591:5609   */\n      0x64\n      add\n        /* \"Contracts/DocumentVault.sol\":2746:2811  require(msg.value > minimunFee, \"Minimum fee needed to register\") */\n      tag_12\n        /* \"#utility.yul\":5261:5615   */\n      jump\n        /* \"Contracts/DocumentVault.sol\":2746:2811  require(msg.value > minimunFee, \"Minimum fee needed to register\") */\n    tag_63:\n        /* \"Contracts/DocumentVault.sol\":2843:2853  msg.sender */\n      caller\n        /* \"Contracts/DocumentVault.sol\":3828:3832  bool */\n      0x00\n        /* \"Contracts/DocumentVault.sol\":3852:3880  _allowedPublishers[_account] */\n      swap1\n      dup2\n      mstore\n        /* \"Contracts/DocumentVault.sol\":3852:3870  _allowedPublishers */\n      0x03\n        /* \"Contracts/DocumentVault.sol\":3852:3880  _allowedPublishers[_account] */\n      0x20\n      mstore\n      0x40\n      swap1\n      keccak256\n      sload\n      0xff\n      and\n        /* \"Contracts/DocumentVault.sol\":2822:2876  require(_isWhitelist(msg.sender), \"Permission denied\") */\n      tag_67\n      jumpi\n      mload(0x40)\n      shl(0xe5, 0x461bcd)\n      dup2\n      mstore\n        /* \"#utility.yul\":5822:5824   */\n      0x20\n        /* \"Contracts/DocumentVault.sol\":2822:2876  require(_isWhitelist(msg.sender), \"Permission denied\") */\n      0x04\n      dup3\n      add\n        /* \"#utility.yul\":5804:5825   */\n      mstore\n        /* \"#utility.yul\":5861:5863   */\n      0x11\n        /* \"#utility.yul\":5841:5859   */\n      0x24\n      dup3\n      add\n        /* \"#utility.yul\":5834:5864   */\n      mstore\n      shl(0x7a, 0x14195c9b5a5cdcda5bdb8819195b9a5959)\n        /* \"#utility.yul\":5880:5898   */\n      0x44\n      dup3\n      add\n        /* \"#utility.yul\":5873:5920   */\n      mstore\n        /* \"#utility.yul\":5937:5955   */\n      0x64\n      add\n        /* \"Contracts/DocumentVault.sol\":2822:2876  require(_isWhitelist(msg.sender), \"Permission denied\") */\n      tag_12\n        /* \"#utility.yul\":5620:5961   */\n      jump\n        /* \"Contracts/DocumentVault.sol\":2822:2876  require(_isWhitelist(msg.sender), \"Permission denied\") */\n    tag_67:\n        /* \"Contracts/DocumentVault.sol\":2889:2914  Documentation memory docs */\n      tag_70\n      mload(0x40)\n      dup1\n      0x80\n      add\n      0x40\n      mstore\n      dup1\n      0x60\n      dup2\n      mstore\n      0x20\n      add\n      0x60\n      dup2\n      mstore\n      0x20\n      add\n      0x60\n      dup2\n      mstore\n      0x20\n      add\n      0x60\n      dup2\n      mstore\n      pop\n      swap1\n      jump\n    tag_70:\n        /* \"Contracts/DocumentVault.sol\":2925:2962  docs.typeOfDocument = _typeOfDocument */\n      dup6\n      dup2\n      mstore\n        /* \"Contracts/DocumentVault.sol\":2973:2985  docs.docsURI */\n      0x20\n      dup2\n      add\n        /* \"Contracts/DocumentVault.sol\":2973:2996  docs.docsURI = _docsURI */\n      dup6\n      swap1\n      mstore\n        /* \"Contracts/DocumentVault.sol\":3007:3027  docs.docsURIChesksum */\n      0x40\n      dup1\n      dup3\n      add\n        /* \"Contracts/DocumentVault.sol\":3007:3046  docs.docsURIChesksum = _docsURIChesksum */\n      dup6\n      swap1\n      mstore\n        /* \"Contracts/DocumentVault.sol\":3057:3082  docs.publisherResponsible */\n      0x60\n      dup3\n      add\n        /* \"Contracts/DocumentVault.sol\":3057:3106  docs.publisherResponsible = _publisherResponsible */\n      dup5\n      swap1\n      mstore\n        /* \"Contracts/DocumentVault.sol\":3117:3144  registeredDocs[_docProcess] */\n      mload\n        /* \"Contracts/DocumentVault.sol\":2925:2929  docs */\n      dup2\n      swap1\n        /* \"Contracts/DocumentVault.sol\":3117:3131  registeredDocs */\n      0x02\n      swap1\n        /* \"Contracts/DocumentVault.sol\":3117:3144  registeredDocs[_docProcess] */\n      tag_72\n      swap1\n        /* \"Contracts/DocumentVault.sol\":3132:3143  _docProcess */\n      dup6\n      swap1\n        /* \"Contracts/DocumentVault.sol\":3117:3144  registeredDocs[_docProcess] */\n      tag_73\n      jump\t// in\n    tag_72:\n      swap1\n      dup2\n      mstore\n      mload(0x40)\n      swap1\n      dup2\n      swap1\n      sub\n      0x20\n      add\n      swap1\n      keccak256\n        /* \"Contracts/DocumentVault.sol\":3117:3151  registeredDocs[_docProcess] = docs */\n      dup2\n      mload\n        /* \"Contracts/DocumentVault.sol\":3117:3144  registeredDocs[_docProcess] */\n      dup2\n      swap1\n        /* \"Contracts/DocumentVault.sol\":3117:3151  registeredDocs[_docProcess] = docs */\n      tag_74\n      swap1\n        /* \"Contracts/DocumentVault.sol\":3117:3144  registeredDocs[_docProcess] */\n      dup3\n        /* \"Contracts/DocumentVault.sol\":3117:3151  registeredDocs[_docProcess] = docs */\n      tag_75\n      jump\t// in\n    tag_74:\n      pop\n      0x20\n      dup3\n      add\n      mload\n      0x01\n      dup3\n      add\n      swap1\n      tag_76\n      swap1\n      dup3\n      tag_75\n      jump\t// in\n    tag_76:\n      pop\n      0x40\n      dup3\n      add\n      mload\n      0x02\n      dup3\n      add\n      swap1\n      tag_77\n      swap1\n      dup3\n      tag_75\n      jump\t// in\n    tag_77:\n      pop\n      0x60\n      dup3\n      add\n      mload\n      0x03\n      dup3\n      add\n      swap1\n      tag_78\n      swap1\n      dup3\n      tag_75\n      jump\t// in\n    tag_78:\n      pop\n      pop\n        /* \"Contracts/DocumentVault.sol\":3169:3205  NewDocAdded(msg.sender, _docProcess) */\n      mload(0x40)\n        /* \"Contracts/DocumentVault.sol\":3181:3191  msg.sender */\n      caller\n      swap2\n      pop\n        /* \"Contracts/DocumentVault.sol\":3169:3205  NewDocAdded(msg.sender, _docProcess) */\n      0xa6a69184572b903be08b48268bce3da3a79d5d2cff476eb6e4c43ec0662cbe33\n      swap1\n      tag_79\n      swap1\n        /* \"Contracts/DocumentVault.sol\":3193:3204  _docProcess */\n      dup6\n      swap1\n        /* \"Contracts/DocumentVault.sol\":3169:3205  NewDocAdded(msg.sender, _docProcess) */\n      tag_80\n      jump\t// in\n    tag_79:\n      mload(0x40)\n      dup1\n      swap2\n      sub\n      swap1\n      log2\n        /* \"Contracts/DocumentVault.sol\":2735:3213  {... */\n      pop\n        /* \"Contracts/DocumentVault.sol\":2498:3213  function addNewDoc(... */\n      pop\n      pop\n      pop\n      pop\n      pop\n      jump\t// out\n        /* \"Contracts/DocumentVault.sol\":1044:1098  mapping(string => Documentation) public registeredDocs */\n    tag_50:\n      dup1\n      mload\n      0x20\n      dup2\n      dup4\n      add\n      dup2\n      add\n      dup1\n      mload\n      0x02\n      dup3\n      mstore\n      swap3\n      dup3\n      add\n      swap2\n      swap1\n      swap4\n      add\n      keccak256\n      swap2\n      mstore\n      dup1\n      sload\n      dup2\n      swap1\n      tag_81\n      swap1\n      tag_82\n      jump\t// in\n    tag_81:\n      dup1\n      0x1f\n      add\n      0x20\n      dup1\n      swap2\n      div\n      mul\n      0x20\n      add\n      mload(0x40)\n      swap1\n      dup2\n      add\n      0x40\n      mstore\n      dup1\n      swap3\n      swap2\n      swap1\n      dup2\n      dup2\n      mstore\n      0x20\n      add\n      dup3\n      dup1\n      sload\n      tag_83\n      swap1\n      tag_82\n      jump\t// in\n    tag_83:\n      dup1\n      iszero\n      tag_84\n      jumpi\n      dup1\n      0x1f\n      lt\n      tag_85\n      jumpi\n      0x0100\n      dup1\n      dup4\n      sload\n      div\n      mul\n      dup4\n      mstore\n      swap2\n      0x20\n      add\n      swap2\n      jump(tag_84)\n    tag_85:\n      dup3\n      add\n      swap2\n      swap1\n      0x00\n      mstore\n      keccak256(0x00, 0x20)\n      swap1\n    tag_86:\n      dup2\n      sload\n      dup2\n      mstore\n      swap1\n      0x01\n      add\n      swap1\n      0x20\n      add\n      dup1\n      dup4\n      gt\n      tag_86\n      jumpi\n      dup3\n      swap1\n      sub\n      0x1f\n      and\n      dup3\n      add\n      swap2\n    tag_84:\n      pop\n      pop\n      pop\n      pop\n      pop\n      swap1\n      dup1\n      0x01\n      add\n      dup1\n      sload\n      tag_87\n      swap1\n      tag_82\n      jump\t// in\n    tag_87:\n      dup1\n      0x1f\n      add\n      0x20\n      dup1\n      swap2\n      div\n      mul\n      0x20\n      add\n      mload(0x40)\n      swap1\n      dup2\n      add\n      0x40\n      mstore\n      dup1\n      swap3\n      swap2\n      swap1\n      dup2\n      dup2\n      mstore\n      0x20\n      add\n      dup3\n      dup1\n      sload\n      tag_88\n      swap1\n      tag_82\n      jump\t// in\n    tag_88:\n      dup1\n      iszero\n      tag_89\n      jumpi\n      dup1\n      0x1f\n      lt\n      tag_90\n      jumpi\n      0x0100\n      dup1\n      dup4\n      sload\n      div\n      mul\n      dup4\n      mstore\n      swap2\n      0x20\n      add\n      swap2\n      jump(tag_89)\n    tag_90:\n      dup3\n      add\n      swap2\n      swap1\n      0x00\n      mstore\n      keccak256(0x00, 0x20)\n      swap1\n    tag_91:\n      dup2\n      sload\n      dup2\n      mstore\n      swap1\n      0x01\n      add\n      swap1\n      0x20\n      add\n      dup1\n      dup4\n      gt\n      tag_91\n      jumpi\n      dup3\n      swap1\n      sub\n      0x1f\n      and\n      dup3\n      add\n      swap2\n    tag_89:\n      pop\n      pop\n      pop\n      pop\n      pop\n      swap1\n      dup1\n      0x02\n      add\n      dup1\n      sload\n      tag_92\n      swap1\n      tag_82\n      jump\t// in\n    tag_92:\n      dup1\n      0x1f\n      add\n      0x20\n      dup1\n      swap2\n      div\n      mul\n      0x20\n      add\n      mload(0x40)\n      swap1\n      dup2\n      add\n      0x40\n      mstore\n      dup1\n      swap3\n      swap2\n      swap1\n      dup2\n      dup2\n      mstore\n      0x20\n      add\n      dup3\n      dup1\n      sload\n      tag_93\n      swap1\n      tag_82\n      jump\t// in\n    tag_93:\n      dup1\n      iszero\n      tag_94\n      jumpi\n      dup1\n      0x1f\n      lt\n      tag_95\n      jumpi\n      0x0100\n      dup1\n      dup4\n      sload\n      div\n      mul\n      dup4\n      mstore\n      swap2\n      0x20\n      add\n      swap2\n      jump(tag_94)\n    tag_95:\n      dup3\n      add\n      swap2\n      swap1\n      0x00\n      mstore\n      keccak256(0x00, 0x20)\n      swap1\n    tag_96:\n      dup2\n      sload\n      dup2\n      mstore\n      swap1\n      0x01\n      add\n      swap1\n      0x20\n      add\n      dup1\n      dup4\n      gt\n      tag_96\n      jumpi\n      dup3\n      swap1\n      sub\n      0x1f\n      and\n      dup3\n      add\n      swap2\n    tag_94:\n      pop\n      pop\n      pop\n      pop\n      pop\n      swap1\n      dup1\n      0x03\n      add\n      dup1\n      sload\n      tag_97\n      swap1\n      tag_82\n      jump\t// in\n    tag_97:\n      dup1\n      0x1f\n      add\n      0x20\n      dup1\n      swap2\n      div\n      mul\n      0x20\n      add\n      mload(0x40)\n      swap1\n      dup2\n      add\n      0x40\n      mstore\n      dup1\n      swap3\n      swap2\n      swap1\n      dup2\n      dup2\n      mstore\n      0x20\n      add\n      dup3\n      dup1\n      sload\n      tag_98\n      swap1\n      tag_82\n      jump\t// in\n    tag_98:\n      dup1\n      iszero\n      tag_99\n      jumpi\n      dup1\n      0x1f\n      lt\n      tag_100\n      jumpi\n      0x0100\n      dup1\n      dup4\n      sload\n      div\n      mul\n      dup4\n      mstore\n      swap2\n      0x20\n      add\n      swap2\n      jump(tag_99)\n    tag_100:\n      dup3\n      add\n      swap2\n      swap1\n      0x00\n      mstore\n      keccak256(0x00, 0x20)\n      swap1\n    tag_101:\n      dup2\n      sload\n      dup2\n      mstore\n      swap1\n      0x01\n      add\n      swap1\n      0x20\n      add\n      dup1\n      dup4\n      gt\n      tag_101\n      jumpi\n      dup3\n      swap1\n      sub\n      0x1f\n      and\n      dup3\n      add\n      swap2\n    tag_99:\n      pop\n      pop\n      pop\n      pop\n      pop\n      swap1\n      pop\n      dup5\n      jump\t// out\n        /* \"#utility.yul\":14:357   */\n    tag_13:\n        /* \"#utility.yul\":216:218   */\n      0x20\n        /* \"#utility.yul\":198:219   */\n      dup1\n      dup3\n      mstore\n        /* \"#utility.yul\":255:257   */\n      0x13\n        /* \"#utility.yul\":235:253   */\n      swap1\n      dup3\n      add\n        /* \"#utility.yul\":228:258   */\n      mstore\n      shl(0x69, 0x29b2b73232b91034b9903737ba1037bbb732b9)\n        /* \"#utility.yul\":289:291   */\n      0x40\n        /* \"#utility.yul\":274:292   */\n      dup3\n      add\n        /* \"#utility.yul\":267:316   */\n      mstore\n        /* \"#utility.yul\":348:350   */\n      0x60\n        /* \"#utility.yul\":333:351   */\n      add\n      swap1\n        /* \"#utility.yul\":14:357   */\n      jump\t// out\n        /* \"#utility.yul\":544:717   */\n    tag_103:\n        /* \"#utility.yul\":612:632   */\n      dup1\n      calldataload\n      sub(shl(0xa0, 0x01), 0x01)\n        /* \"#utility.yul\":661:692   */\n      dup2\n      and\n        /* \"#utility.yul\":651:693   */\n      dup2\n      eq\n        /* \"#utility.yul\":641:711   */\n      tag_115\n      jumpi\n        /* \"#utility.yul\":707:708   */\n      0x00\n        /* \"#utility.yul\":704:705   */\n      dup1\n        /* \"#utility.yul\":697:709   */\n      revert\n        /* \"#utility.yul\":641:711   */\n    tag_115:\n        /* \"#utility.yul\":544:717   */\n      swap2\n      swap1\n      pop\n      jump\t// out\n        /* \"#utility.yul\":722:1069   */\n    tag_28:\n        /* \"#utility.yul\":787:793   */\n      0x00\n        /* \"#utility.yul\":795:801   */\n      dup1\n        /* \"#utility.yul\":848:850   */\n      0x40\n        /* \"#utility.yul\":836:845   */\n      dup4\n        /* \"#utility.yul\":827:834   */\n      dup6\n        /* \"#utility.yul\":823:846   */\n      sub\n        /* \"#utility.yul\":819:851   */\n      slt\n        /* \"#utility.yul\":816:868   */\n      iszero\n      tag_117\n      jumpi\n        /* \"#utility.yul\":864:865   */\n      0x00\n        /* \"#utility.yul\":861:862   */\n      dup1\n        /* \"#utility.yul\":854:866   */\n      revert\n        /* \"#utility.yul\":816:868   */\n    tag_117:\n        /* \"#utility.yul\":887:916   */\n      tag_118\n        /* \"#utility.yul\":906:915   */\n      dup4\n        /* \"#utility.yul\":887:916   */\n      tag_103\n      jump\t// in\n    tag_118:\n        /* \"#utility.yul\":877:916   */\n      swap2\n      pop\n        /* \"#utility.yul\":966:968   */\n      0x20\n        /* \"#utility.yul\":955:964   */\n      dup4\n        /* \"#utility.yul\":951:969   */\n      add\n        /* \"#utility.yul\":938:970   */\n      calldataload\n        /* \"#utility.yul\":1013:1018   */\n      dup1\n        /* \"#utility.yul\":1006:1019   */\n      iszero\n        /* \"#utility.yul\":999:1020   */\n      iszero\n        /* \"#utility.yul\":992:997   */\n      dup2\n        /* \"#utility.yul\":989:1021   */\n      eq\n        /* \"#utility.yul\":979:1039   */\n      tag_119\n      jumpi\n        /* \"#utility.yul\":1035:1036   */\n      0x00\n        /* \"#utility.yul\":1032:1033   */\n      dup1\n        /* \"#utility.yul\":1025:1037   */\n      revert\n        /* \"#utility.yul\":979:1039   */\n    tag_119:\n        /* \"#utility.yul\":1058:1063   */\n      dup1\n        /* \"#utility.yul\":1048:1063   */\n      swap2\n      pop\n      pop\n        /* \"#utility.yul\":722:1069   */\n      swap3\n      pop\n      swap3\n      swap1\n      pop\n      jump\t// out\n        /* \"#utility.yul\":1298:1484   */\n    tag_38:\n        /* \"#utility.yul\":1357:1363   */\n      0x00\n        /* \"#utility.yul\":1410:1412   */\n      0x20\n        /* \"#utility.yul\":1398:1407   */\n      dup3\n        /* \"#utility.yul\":1389:1396   */\n      dup5\n        /* \"#utility.yul\":1385:1408   */\n      sub\n        /* \"#utility.yul\":1381:1413   */\n      slt\n        /* \"#utility.yul\":1378:1430   */\n      iszero\n      tag_122\n      jumpi\n        /* \"#utility.yul\":1426:1427   */\n      0x00\n        /* \"#utility.yul\":1423:1424   */\n      dup1\n        /* \"#utility.yul\":1416:1428   */\n      revert\n        /* \"#utility.yul\":1378:1430   */\n    tag_122:\n        /* \"#utility.yul\":1449:1478   */\n      tag_123\n        /* \"#utility.yul\":1468:1477   */\n      dup3\n        /* \"#utility.yul\":1449:1478   */\n      tag_103\n      jump\t// in\n    tag_123:\n        /* \"#utility.yul\":1439:1478   */\n      swap4\n        /* \"#utility.yul\":1298:1484   */\n      swap3\n      pop\n      pop\n      pop\n      jump\t// out\n        /* \"#utility.yul\":1681:1808   */\n    tag_104:\n        /* \"#utility.yul\":1742:1752   */\n      0x4e487b71\n        /* \"#utility.yul\":1737:1740   */\n      0xe0\n        /* \"#utility.yul\":1733:1753   */\n      shl\n        /* \"#utility.yul\":1730:1731   */\n      0x00\n        /* \"#utility.yul\":1723:1754   */\n      mstore\n        /* \"#utility.yul\":1773:1777   */\n      0x41\n        /* \"#utility.yul\":1770:1771   */\n      0x04\n        /* \"#utility.yul\":1763:1778   */\n      mstore\n        /* \"#utility.yul\":1797:1801   */\n      0x24\n        /* \"#utility.yul\":1794:1795   */\n      0x00\n        /* \"#utility.yul\":1787:1802   */\n      revert\n        /* \"#utility.yul\":1813:2532   */\n    tag_105:\n        /* \"#utility.yul\":1856:1861   */\n      0x00\n        /* \"#utility.yul\":1909:1912   */\n      dup3\n        /* \"#utility.yul\":1902:1906   */\n      0x1f\n        /* \"#utility.yul\":1894:1900   */\n      dup4\n        /* \"#utility.yul\":1890:1907   */\n      add\n        /* \"#utility.yul\":1886:1913   */\n      slt\n        /* \"#utility.yul\":1876:1931   */\n      tag_127\n      jumpi\n        /* \"#utility.yul\":1927:1928   */\n      0x00\n        /* \"#utility.yul\":1924:1925   */\n      dup1\n        /* \"#utility.yul\":1917:1929   */\n      revert\n        /* \"#utility.yul\":1876:1931   */\n    tag_127:\n        /* \"#utility.yul\":1963:1969   */\n      dup2\n        /* \"#utility.yul\":1950:1970   */\n      calldataload\n        /* \"#utility.yul\":1989:2007   */\n      0xffffffffffffffff\n        /* \"#utility.yul\":2026:2028   */\n      dup1\n        /* \"#utility.yul\":2022:2024   */\n      dup3\n        /* \"#utility.yul\":2019:2029   */\n      gt\n        /* \"#utility.yul\":2016:2052   */\n      iszero\n      tag_129\n      jumpi\n        /* \"#utility.yul\":2032:2050   */\n      tag_129\n      tag_104\n      jump\t// in\n    tag_129:\n        /* \"#utility.yul\":2107:2109   */\n      0x40\n        /* \"#utility.yul\":2101:2110   */\n      mload\n        /* \"#utility.yul\":2075:2077   */\n      0x1f\n        /* \"#utility.yul\":2161:2174   */\n      dup4\n      add\n      not(0x1f)\n        /* \"#utility.yul\":2157:2179   */\n      swap1\n      dup2\n      and\n        /* \"#utility.yul\":2181:2183   */\n      0x3f\n        /* \"#utility.yul\":2153:2184   */\n      add\n        /* \"#utility.yul\":2149:2189   */\n      and\n        /* \"#utility.yul\":2137:2190   */\n      dup2\n      add\n      swap1\n        /* \"#utility.yul\":2205:2223   */\n      dup3\n      dup3\n      gt\n        /* \"#utility.yul\":2225:2247   */\n      dup2\n      dup4\n      lt\n        /* \"#utility.yul\":2202:2248   */\n      or\n        /* \"#utility.yul\":2199:2271   */\n      iszero\n      tag_131\n      jumpi\n        /* \"#utility.yul\":2251:2269   */\n      tag_131\n      tag_104\n      jump\t// in\n    tag_131:\n        /* \"#utility.yul\":2291:2301   */\n      dup2\n        /* \"#utility.yul\":2287:2289   */\n      0x40\n        /* \"#utility.yul\":2280:2302   */\n      mstore\n        /* \"#utility.yul\":2326:2328   */\n      dup4\n        /* \"#utility.yul\":2318:2324   */\n      dup2\n        /* \"#utility.yul\":2311:2329   */\n      mstore\n        /* \"#utility.yul\":2372:2375   */\n      dup7\n        /* \"#utility.yul\":2365:2369   */\n      0x20\n        /* \"#utility.yul\":2360:2362   */\n      dup6\n        /* \"#utility.yul\":2352:2358   */\n      dup9\n        /* \"#utility.yul\":2348:2363   */\n      add\n        /* \"#utility.yul\":2344:2370   */\n      add\n        /* \"#utility.yul\":2341:2376   */\n      gt\n        /* \"#utility.yul\":2338:2393   */\n      iszero\n      tag_132\n      jumpi\n        /* \"#utility.yul\":2389:2390   */\n      0x00\n        /* \"#utility.yul\":2386:2387   */\n      dup1\n        /* \"#utility.yul\":2379:2391   */\n      revert\n        /* \"#utility.yul\":2338:2393   */\n    tag_132:\n        /* \"#utility.yul\":2453:2455   */\n      dup4\n        /* \"#utility.yul\":2446:2450   */\n      0x20\n        /* \"#utility.yul\":2438:2444   */\n      dup8\n        /* \"#utility.yul\":2434:2451   */\n      add\n        /* \"#utility.yul\":2427:2431   */\n      0x20\n        /* \"#utility.yul\":2419:2425   */\n      dup4\n        /* \"#utility.yul\":2415:2432   */\n      add\n        /* \"#utility.yul\":2402:2456   */\n      calldatacopy\n        /* \"#utility.yul\":2500:2501   */\n      0x00\n        /* \"#utility.yul\":2493:2497   */\n      0x20\n        /* \"#utility.yul\":2488:2490   */\n      dup6\n        /* \"#utility.yul\":2480:2486   */\n      dup4\n        /* \"#utility.yul\":2476:2491   */\n      add\n        /* \"#utility.yul\":2472:2498   */\n      add\n        /* \"#utility.yul\":2465:2502   */\n      mstore\n        /* \"#utility.yul\":2520:2526   */\n      dup1\n        /* \"#utility.yul\":2511:2526   */\n      swap5\n      pop\n      pop\n      pop\n      pop\n      pop\n        /* \"#utility.yul\":1813:2532   */\n      swap3\n      swap2\n      pop\n      pop\n      jump\t// out\n        /* \"#utility.yul\":2537:3682   */\n    tag_44:\n        /* \"#utility.yul\":2682:2688   */\n      0x00\n        /* \"#utility.yul\":2690:2696   */\n      dup1\n        /* \"#utility.yul\":2698:2704   */\n      0x00\n        /* \"#utility.yul\":2706:2712   */\n      dup1\n        /* \"#utility.yul\":2714:2720   */\n      0x00\n        /* \"#utility.yul\":2767:2770   */\n      0xa0\n        /* \"#utility.yul\":2755:2764   */\n      dup7\n        /* \"#utility.yul\":2746:2753   */\n      dup9\n        /* \"#utility.yul\":2742:2765   */\n      sub\n        /* \"#utility.yul\":2738:2771   */\n      slt\n        /* \"#utility.yul\":2735:2788   */\n      iszero\n      tag_134\n      jumpi\n        /* \"#utility.yul\":2784:2785   */\n      0x00\n        /* \"#utility.yul\":2781:2782   */\n      dup1\n        /* \"#utility.yul\":2774:2786   */\n      revert\n        /* \"#utility.yul\":2735:2788   */\n    tag_134:\n        /* \"#utility.yul\":2824:2833   */\n      dup6\n        /* \"#utility.yul\":2811:2834   */\n      calldataload\n        /* \"#utility.yul\":2853:2871   */\n      0xffffffffffffffff\n        /* \"#utility.yul\":2894:2896   */\n      dup1\n        /* \"#utility.yul\":2886:2892   */\n      dup3\n        /* \"#utility.yul\":2883:2897   */\n      gt\n        /* \"#utility.yul\":2880:2914   */\n      iszero\n      tag_135\n      jumpi\n        /* \"#utility.yul\":2910:2911   */\n      0x00\n        /* \"#utility.yul\":2907:2908   */\n      dup1\n        /* \"#utility.yul\":2900:2912   */\n      revert\n        /* \"#utility.yul\":2880:2914   */\n    tag_135:\n        /* \"#utility.yul\":2933:2983   */\n      tag_136\n        /* \"#utility.yul\":2975:2982   */\n      dup10\n        /* \"#utility.yul\":2966:2972   */\n      dup4\n        /* \"#utility.yul\":2955:2964   */\n      dup11\n        /* \"#utility.yul\":2951:2973   */\n      add\n        /* \"#utility.yul\":2933:2983   */\n      tag_105\n      jump\t// in\n    tag_136:\n        /* \"#utility.yul\":2923:2983   */\n      swap7\n      pop\n        /* \"#utility.yul\":3036:3038   */\n      0x20\n        /* \"#utility.yul\":3025:3034   */\n      dup9\n        /* \"#utility.yul\":3021:3039   */\n      add\n        /* \"#utility.yul\":3008:3040   */\n      calldataload\n        /* \"#utility.yul\":2992:3040   */\n      swap2\n      pop\n        /* \"#utility.yul\":3065:3067   */\n      dup1\n        /* \"#utility.yul\":3055:3063   */\n      dup3\n        /* \"#utility.yul\":3052:3068   */\n      gt\n        /* \"#utility.yul\":3049:3085   */\n      iszero\n      tag_137\n      jumpi\n        /* \"#utility.yul\":3081:3082   */\n      0x00\n        /* \"#utility.yul\":3078:3079   */\n      dup1\n        /* \"#utility.yul\":3071:3083   */\n      revert\n        /* \"#utility.yul\":3049:3085   */\n    tag_137:\n        /* \"#utility.yul\":3104:3156   */\n      tag_138\n        /* \"#utility.yul\":3148:3155   */\n      dup10\n        /* \"#utility.yul\":3137:3145   */\n      dup4\n        /* \"#utility.yul\":3126:3135   */\n      dup11\n        /* \"#utility.yul\":3122:3146   */\n      add\n        /* \"#utility.yul\":3104:3156   */\n      tag_105\n      jump\t// in\n    tag_138:\n        /* \"#utility.yul\":3094:3156   */\n      swap6\n      pop\n        /* \"#utility.yul\":3209:3211   */\n      0x40\n        /* \"#utility.yul\":3198:3207   */\n      dup9\n        /* \"#utility.yul\":3194:3212   */\n      add\n        /* \"#utility.yul\":3181:3213   */\n      calldataload\n        /* \"#utility.yul\":3165:3213   */\n      swap2\n      pop\n        /* \"#utility.yul\":3238:3240   */\n      dup1\n        /* \"#utility.yul\":3228:3236   */\n      dup3\n        /* \"#utility.yul\":3225:3241   */\n      gt\n        /* \"#utility.yul\":3222:3258   */\n      iszero\n      tag_139\n      jumpi\n        /* \"#utility.yul\":3254:3255   */\n      0x00\n        /* \"#utility.yul\":3251:3252   */\n      dup1\n        /* \"#utility.yul\":3244:3256   */\n      revert\n        /* \"#utility.yul\":3222:3258   */\n    tag_139:\n        /* \"#utility.yul\":3277:3329   */\n      tag_140\n        /* \"#utility.yul\":3321:3328   */\n      dup10\n        /* \"#utility.yul\":3310:3318   */\n      dup4\n        /* \"#utility.yul\":3299:3308   */\n      dup11\n        /* \"#utility.yul\":3295:3319   */\n      add\n        /* \"#utility.yul\":3277:3329   */\n      tag_105\n      jump\t// in\n    tag_140:\n        /* \"#utility.yul\":3267:3329   */\n      swap5\n      pop\n        /* \"#utility.yul\":3382:3384   */\n      0x60\n        /* \"#utility.yul\":3371:3380   */\n      dup9\n        /* \"#utility.yul\":3367:3385   */\n      add\n        /* \"#utility.yul\":3354:3386   */\n      calldataload\n        /* \"#utility.yul\":3338:3386   */\n      swap2\n      pop\n        /* \"#utility.yul\":3411:3413   */\n      dup1\n        /* \"#utility.yul\":3401:3409   */\n      dup3\n        /* \"#utility.yul\":3398:3414   */\n      gt\n        /* \"#utility.yul\":3395:3431   */\n      iszero\n      tag_141\n      jumpi\n        /* \"#utility.yul\":3427:3428   */\n      0x00\n        /* \"#utility.yul\":3424:3425   */\n      dup1\n        /* \"#utility.yul\":3417:3429   */\n      revert\n        /* \"#utility.yul\":3395:3431   */\n    tag_141:\n        /* \"#utility.yul\":3450:3502   */\n      tag_142\n        /* \"#utility.yul\":3494:3501   */\n      dup10\n        /* \"#utility.yul\":3483:3491   */\n      dup4\n        /* \"#utility.yul\":3472:3481   */\n      dup11\n        /* \"#utility.yul\":3468:3492   */\n      add\n        /* \"#utility.yul\":3450:3502   */\n      tag_105\n      jump\t// in\n    tag_142:\n        /* \"#utility.yul\":3440:3502   */\n      swap4\n      pop\n        /* \"#utility.yul\":3555:3558   */\n      0x80\n        /* \"#utility.yul\":3544:3553   */\n      dup9\n        /* \"#utility.yul\":3540:3559   */\n      add\n        /* \"#utility.yul\":3527:3560   */\n      calldataload\n        /* \"#utility.yul\":3511:3560   */\n      swap2\n      pop\n        /* \"#utility.yul\":3585:3587   */\n      dup1\n        /* \"#utility.yul\":3575:3583   */\n      dup3\n        /* \"#utility.yul\":3572:3588   */\n      gt\n        /* \"#utility.yul\":3569:3605   */\n      iszero\n      tag_143\n      jumpi\n        /* \"#utility.yul\":3601:3602   */\n      0x00\n        /* \"#utility.yul\":3598:3599   */\n      dup1\n        /* \"#utility.yul\":3591:3603   */\n      revert\n        /* \"#utility.yul\":3569:3605   */\n    tag_143:\n      pop\n        /* \"#utility.yul\":3624:3676   */\n      tag_144\n        /* \"#utility.yul\":3668:3675   */\n      dup9\n        /* \"#utility.yul\":3657:3665   */\n      dup3\n        /* \"#utility.yul\":3646:3655   */\n      dup10\n        /* \"#utility.yul\":3642:3666   */\n      add\n        /* \"#utility.yul\":3624:3676   */\n      tag_105\n      jump\t// in\n    tag_144:\n        /* \"#utility.yul\":3614:3676   */\n      swap2\n      pop\n      pop\n        /* \"#utility.yul\":2537:3682   */\n      swap3\n      swap6\n      pop\n      swap3\n      swap6\n      swap1\n      swap4\n      pop\n      jump\t// out\n        /* \"#utility.yul\":3687:4009   */\n    tag_49:\n        /* \"#utility.yul\":3756:3762   */\n      0x00\n        /* \"#utility.yul\":3809:3811   */\n      0x20\n        /* \"#utility.yul\":3797:3806   */\n      dup3\n        /* \"#utility.yul\":3788:3795   */\n      dup5\n        /* \"#utility.yul\":3784:3807   */\n      sub\n        /* \"#utility.yul\":3780:3812   */\n      slt\n        /* \"#utility.yul\":3777:3829   */\n      iszero\n      tag_146\n      jumpi\n        /* \"#utility.yul\":3825:3826   */\n      0x00\n        /* \"#utility.yul\":3822:3823   */\n      dup1\n        /* \"#utility.yul\":3815:3827   */\n      revert\n        /* \"#utility.yul\":3777:3829   */\n    tag_146:\n        /* \"#utility.yul\":3865:3874   */\n      dup2\n        /* \"#utility.yul\":3852:3875   */\n      calldataload\n        /* \"#utility.yul\":3898:3916   */\n      0xffffffffffffffff\n        /* \"#utility.yul\":3890:3896   */\n      dup2\n        /* \"#utility.yul\":3887:3917   */\n      gt\n        /* \"#utility.yul\":3884:3934   */\n      iszero\n      tag_147\n      jumpi\n        /* \"#utility.yul\":3930:3931   */\n      0x00\n        /* \"#utility.yul\":3927:3928   */\n      dup1\n        /* \"#utility.yul\":3920:3932   */\n      revert\n        /* \"#utility.yul\":3884:3934   */\n    tag_147:\n        /* \"#utility.yul\":3953:4003   */\n      tag_148\n        /* \"#utility.yul\":3995:4002   */\n      dup5\n        /* \"#utility.yul\":3986:3992   */\n      dup3\n        /* \"#utility.yul\":3975:3984   */\n      dup6\n        /* \"#utility.yul\":3971:3993   */\n      add\n        /* \"#utility.yul\":3953:4003   */\n      tag_105\n      jump\t// in\n    tag_148:\n        /* \"#utility.yul\":3943:4003   */\n      swap5\n        /* \"#utility.yul\":3687:4009   */\n      swap4\n      pop\n      pop\n      pop\n      pop\n      jump\t// out\n        /* \"#utility.yul\":4014:4264   */\n    tag_106:\n        /* \"#utility.yul\":4099:4100   */\n      0x00\n        /* \"#utility.yul\":4109:4222   */\n    tag_150:\n        /* \"#utility.yul\":4123:4129   */\n      dup4\n        /* \"#utility.yul\":4120:4121   */\n      dup2\n        /* \"#utility.yul\":4117:4130   */\n      lt\n        /* \"#utility.yul\":4109:4222   */\n      iszero\n      tag_152\n      jumpi\n        /* \"#utility.yul\":4199:4210   */\n      dup2\n      dup2\n      add\n        /* \"#utility.yul\":4193:4211   */\n      mload\n        /* \"#utility.yul\":4180:4191   */\n      dup4\n      dup3\n      add\n        /* \"#utility.yul\":4173:4212   */\n      mstore\n        /* \"#utility.yul\":4145:4147   */\n      0x20\n        /* \"#utility.yul\":4138:4148   */\n      add\n        /* \"#utility.yul\":4109:4222   */\n      jump(tag_150)\n    tag_152:\n      pop\n      pop\n        /* \"#utility.yul\":4256:4257   */\n      0x00\n        /* \"#utility.yul\":4238:4254   */\n      swap2\n      add\n        /* \"#utility.yul\":4231:4258   */\n      mstore\n        /* \"#utility.yul\":4014:4264   */\n      jump\t// out\n        /* \"#utility.yul\":4269:4540   */\n    tag_107:\n        /* \"#utility.yul\":4311:4314   */\n      0x00\n        /* \"#utility.yul\":4349:4354   */\n      dup2\n        /* \"#utility.yul\":4343:4355   */\n      mload\n        /* \"#utility.yul\":4376:4382   */\n      dup1\n        /* \"#utility.yul\":4371:4374   */\n      dup5\n        /* \"#utility.yul\":4364:4383   */\n      mstore\n        /* \"#utility.yul\":4392:4468   */\n      tag_154\n        /* \"#utility.yul\":4461:4467   */\n      dup2\n        /* \"#utility.yul\":4454:4458   */\n      0x20\n        /* \"#utility.yul\":4449:4452   */\n      dup7\n        /* \"#utility.yul\":4445:4459   */\n      add\n        /* \"#utility.yul\":4438:4442   */\n      0x20\n        /* \"#utility.yul\":4431:4436   */\n      dup7\n        /* \"#utility.yul\":4427:4443   */\n      add\n        /* \"#utility.yul\":4392:4468   */\n      tag_106\n      jump\t// in\n    tag_154:\n        /* \"#utility.yul\":4522:4524   */\n      0x1f\n        /* \"#utility.yul\":4501:4516   */\n      add\n      not(0x1f)\n        /* \"#utility.yul\":4497:4526   */\n      and\n        /* \"#utility.yul\":4488:4527   */\n      swap3\n      swap1\n      swap3\n      add\n        /* \"#utility.yul\":4529:4533   */\n      0x20\n        /* \"#utility.yul\":4484:4534   */\n      add\n      swap3\n        /* \"#utility.yul\":4269:4540   */\n      swap2\n      pop\n      pop\n      jump\t// out\n        /* \"#utility.yul\":4545:5256   */\n    tag_52:\n        /* \"#utility.yul\":4838:4841   */\n      0x80\n        /* \"#utility.yul\":4827:4836   */\n      dup2\n        /* \"#utility.yul\":4820:4842   */\n      mstore\n        /* \"#utility.yul\":4801:4805   */\n      0x00\n        /* \"#utility.yul\":4865:4911   */\n      tag_156\n        /* \"#utility.yul\":4906:4909   */\n      0x80\n        /* \"#utility.yul\":4895:4904   */\n      dup4\n        /* \"#utility.yul\":4891:4910   */\n      add\n        /* \"#utility.yul\":4883:4889   */\n      dup8\n        /* \"#utility.yul\":4865:4911   */\n      tag_107\n      jump\t// in\n    tag_156:\n        /* \"#utility.yul\":4959:4968   */\n      dup3\n        /* \"#utility.yul\":4951:4957   */\n      dup2\n        /* \"#utility.yul\":4947:4969   */\n      sub\n        /* \"#utility.yul\":4942:4944   */\n      0x20\n        /* \"#utility.yul\":4931:4940   */\n      dup5\n        /* \"#utility.yul\":4927:4945   */\n      add\n        /* \"#utility.yul\":4920:4970   */\n      mstore\n        /* \"#utility.yul\":4993:5026   */\n      tag_157\n        /* \"#utility.yul\":5019:5025   */\n      dup2\n        /* \"#utility.yul\":5011:5017   */\n      dup8\n        /* \"#utility.yul\":4993:5026   */\n      tag_107\n      jump\t// in\n    tag_157:\n        /* \"#utility.yul\":4979:5026   */\n      swap1\n      pop\n        /* \"#utility.yul\":5074:5083   */\n      dup3\n        /* \"#utility.yul\":5066:5072   */\n      dup2\n        /* \"#utility.yul\":5062:5084   */\n      sub\n        /* \"#utility.yul\":5057:5059   */\n      0x40\n        /* \"#utility.yul\":5046:5055   */\n      dup5\n        /* \"#utility.yul\":5042:5060   */\n      add\n        /* \"#utility.yul\":5035:5085   */\n      mstore\n        /* \"#utility.yul\":5108:5141   */\n      tag_158\n        /* \"#utility.yul\":5134:5140   */\n      dup2\n        /* \"#utility.yul\":5126:5132   */\n      dup7\n        /* \"#utility.yul\":5108:5141   */\n      tag_107\n      jump\t// in\n    tag_158:\n        /* \"#utility.yul\":5094:5141   */\n      swap1\n      pop\n        /* \"#utility.yul\":5189:5198   */\n      dup3\n        /* \"#utility.yul\":5181:5187   */\n      dup2\n        /* \"#utility.yul\":5177:5199   */\n      sub\n        /* \"#utility.yul\":5172:5174   */\n      0x60\n        /* \"#utility.yul\":5161:5170   */\n      dup5\n        /* \"#utility.yul\":5157:5175   */\n      add\n        /* \"#utility.yul\":5150:5200   */\n      mstore\n        /* \"#utility.yul\":5217:5250   */\n      tag_159\n        /* \"#utility.yul\":5243:5249   */\n      dup2\n        /* \"#utility.yul\":5235:5241   */\n      dup6\n        /* \"#utility.yul\":5217:5250   */\n      tag_107\n      jump\t// in\n    tag_159:\n        /* \"#utility.yul\":5209:5250   */\n      swap8\n        /* \"#utility.yul\":4545:5256   */\n      swap7\n      pop\n      pop\n      pop\n      pop\n      pop\n      pop\n      pop\n      jump\t// out\n        /* \"#utility.yul\":5966:6255   */\n    tag_73:\n        /* \"#utility.yul\":6097:6100   */\n      0x00\n        /* \"#utility.yul\":6135:6141   */\n      dup3\n        /* \"#utility.yul\":6129:6142   */\n      mload\n        /* \"#utility.yul\":6151:6217   */\n      tag_163\n        /* \"#utility.yul\":6210:6216   */\n      dup2\n        /* \"#utility.yul\":6205:6208   */\n      dup5\n        /* \"#utility.yul\":6198:6202   */\n      0x20\n        /* \"#utility.yul\":6190:6196   */\n      dup8\n        /* \"#utility.yul\":6186:6203   */\n      add\n        /* \"#utility.yul\":6151:6217   */\n      tag_106\n      jump\t// in\n    tag_163:\n        /* \"#utility.yul\":6233:6249   */\n      swap2\n      swap1\n      swap2\n      add\n      swap3\n        /* \"#utility.yul\":5966:6255   */\n      swap2\n      pop\n      pop\n      jump\t// out\n        /* \"#utility.yul\":6260:6640   */\n    tag_82:\n        /* \"#utility.yul\":6339:6340   */\n      0x01\n        /* \"#utility.yul\":6335:6347   */\n      dup2\n      dup2\n      shr\n      swap1\n        /* \"#utility.yul\":6382:6394   */\n      dup3\n      and\n      dup1\n        /* \"#utility.yul\":6403:6464   */\n      tag_165\n      jumpi\n        /* \"#utility.yul\":6457:6461   */\n      0x7f\n        /* \"#utility.yul\":6449:6455   */\n      dup3\n        /* \"#utility.yul\":6445:6462   */\n      and\n        /* \"#utility.yul\":6435:6462   */\n      swap2\n      pop\n        /* \"#utility.yul\":6403:6464   */\n    tag_165:\n        /* \"#utility.yul\":6510:6512   */\n      0x20\n        /* \"#utility.yul\":6502:6508   */\n      dup3\n        /* \"#utility.yul\":6499:6513   */\n      lt\n        /* \"#utility.yul\":6479:6497   */\n      dup2\n        /* \"#utility.yul\":6476:6514   */\n      sub\n        /* \"#utility.yul\":6473:6634   */\n      tag_166\n      jumpi\n        /* \"#utility.yul\":6556:6566   */\n      0x4e487b71\n        /* \"#utility.yul\":6551:6554   */\n      0xe0\n        /* \"#utility.yul\":6547:6567   */\n      shl\n        /* \"#utility.yul\":6544:6545   */\n      0x00\n        /* \"#utility.yul\":6537:6568   */\n      mstore\n        /* \"#utility.yul\":6591:6595   */\n      0x22\n        /* \"#utility.yul\":6588:6589   */\n      0x04\n        /* \"#utility.yul\":6581:6596   */\n      mstore\n        /* \"#utility.yul\":6619:6623   */\n      0x24\n        /* \"#utility.yul\":6616:6617   */\n      0x00\n        /* \"#utility.yul\":6609:6624   */\n      revert\n        /* \"#utility.yul\":6473:6634   */\n    tag_166:\n      pop\n        /* \"#utility.yul\":6260:6640   */\n      swap2\n      swap1\n      pop\n      jump\t// out\n        /* \"#utility.yul\":6771:7316   */\n    tag_109:\n        /* \"#utility.yul\":6873:6875   */\n      0x1f\n        /* \"#utility.yul\":6868:6871   */\n      dup3\n        /* \"#utility.yul\":6865:6876   */\n      gt\n        /* \"#utility.yul\":6862:7310   */\n      iszero\n      tag_169\n      jumpi\n        /* \"#utility.yul\":6909:6910   */\n      0x00\n        /* \"#utility.yul\":6934:6939   */\n      dup2\n        /* \"#utility.yul\":6930:6932   */\n      dup2\n        /* \"#utility.yul\":6923:6940   */\n      mstore\n        /* \"#utility.yul\":6979:6983   */\n      0x20\n        /* \"#utility.yul\":6975:6977   */\n      dup2\n        /* \"#utility.yul\":6965:6984   */\n      keccak256\n        /* \"#utility.yul\":7049:7051   */\n      0x1f\n        /* \"#utility.yul\":7037:7047   */\n      dup6\n        /* \"#utility.yul\":7033:7052   */\n      add\n        /* \"#utility.yul\":7030:7031   */\n      0x05\n        /* \"#utility.yul\":7026:7053   */\n      shr\n        /* \"#utility.yul\":7020:7024   */\n      dup2\n        /* \"#utility.yul\":7016:7054   */\n      add\n        /* \"#utility.yul\":7085:7089   */\n      0x20\n        /* \"#utility.yul\":7073:7083   */\n      dup7\n        /* \"#utility.yul\":7070:7090   */\n      lt\n        /* \"#utility.yul\":7067:7114   */\n      iszero\n      tag_170\n      jumpi\n      pop\n        /* \"#utility.yul\":7108:7112   */\n      dup1\n        /* \"#utility.yul\":7067:7114   */\n    tag_170:\n        /* \"#utility.yul\":7163:7165   */\n      0x1f\n        /* \"#utility.yul\":7158:7161   */\n      dup6\n        /* \"#utility.yul\":7154:7166   */\n      add\n        /* \"#utility.yul\":7151:7152   */\n      0x05\n        /* \"#utility.yul\":7147:7167   */\n      shr\n        /* \"#utility.yul\":7141:7145   */\n      dup3\n        /* \"#utility.yul\":7137:7168   */\n      add\n        /* \"#utility.yul\":7127:7168   */\n      swap2\n      pop\n        /* \"#utility.yul\":7218:7300   */\n    tag_171:\n        /* \"#utility.yul\":7236:7238   */\n      dup2\n        /* \"#utility.yul\":7229:7234   */\n      dup2\n        /* \"#utility.yul\":7226:7239   */\n      lt\n        /* \"#utility.yul\":7218:7300   */\n      iszero\n      tag_173\n      jumpi\n        /* \"#utility.yul\":7281:7298   */\n      dup3\n      dup2\n      sstore\n        /* \"#utility.yul\":7262:7263   */\n      0x01\n        /* \"#utility.yul\":7251:7264   */\n      add\n        /* \"#utility.yul\":7218:7300   */\n      jump(tag_171)\n    tag_173:\n        /* \"#utility.yul\":7222:7225   */\n      pop\n      pop\n      pop\n        /* \"#utility.yul\":6862:7310   */\n    tag_169:\n        /* \"#utility.yul\":6771:7316   */\n      pop\n      pop\n      pop\n      jump\t// out\n        /* \"#utility.yul\":7492:8844   */\n    tag_75:\n        /* \"#utility.yul\":7618:7621   */\n      dup2\n        /* \"#utility.yul\":7612:7622   */\n      mload\n        /* \"#utility.yul\":7645:7663   */\n      0xffffffffffffffff\n        /* \"#utility.yul\":7637:7643   */\n      dup2\n        /* \"#utility.yul\":7634:7664   */\n      gt\n        /* \"#utility.yul\":7631:7687   */\n      iszero\n      tag_177\n      jumpi\n        /* \"#utility.yul\":7667:7685   */\n      tag_177\n      tag_104\n      jump\t// in\n    tag_177:\n        /* \"#utility.yul\":7696:7793   */\n      tag_178\n        /* \"#utility.yul\":7786:7792   */\n      dup2\n        /* \"#utility.yul\":7746:7784   */\n      tag_179\n        /* \"#utility.yul\":7778:7782   */\n      dup5\n        /* \"#utility.yul\":7772:7783   */\n      sload\n        /* \"#utility.yul\":7746:7784   */\n      tag_82\n      jump\t// in\n    tag_179:\n        /* \"#utility.yul\":7740:7744   */\n      dup5\n        /* \"#utility.yul\":7696:7793   */\n      tag_109\n      jump\t// in\n    tag_178:\n        /* \"#utility.yul\":7848:7852   */\n      0x20\n      dup1\n        /* \"#utility.yul\":7912:7914   */\n      0x1f\n        /* \"#utility.yul\":7901:7915   */\n      dup4\n      gt\n        /* \"#utility.yul\":7929:7930   */\n      0x01\n        /* \"#utility.yul\":7924:8587   */\n      dup2\n      eq\n      tag_181\n      jumpi\n        /* \"#utility.yul\":8631:8632   */\n      0x00\n        /* \"#utility.yul\":8648:8654   */\n      dup5\n        /* \"#utility.yul\":8645:8734   */\n      iszero\n      tag_182\n      jumpi\n      pop\n        /* \"#utility.yul\":8700:8719   */\n      dup6\n      dup4\n      add\n        /* \"#utility.yul\":8694:8720   */\n      mload\n        /* \"#utility.yul\":8645:8734   */\n    tag_182:\n      not(0x00)\n        /* \"#utility.yul\":7449:7450   */\n      0x03\n        /* \"#utility.yul\":7445:7456   */\n      dup7\n      swap1\n      shl\n        /* \"#utility.yul\":7441:7465   */\n      shr\n        /* \"#utility.yul\":7437:7466   */\n      not\n        /* \"#utility.yul\":7427:7467   */\n      and\n        /* \"#utility.yul\":7473:7474   */\n      0x01\n        /* \"#utility.yul\":7469:7480   */\n      dup6\n      swap1\n      shl\n        /* \"#utility.yul\":7424:7481   */\n      or\n        /* \"#utility.yul\":8747:8828   */\n      dup6\n      sstore\n        /* \"#utility.yul\":7894:8838   */\n      jump(tag_173)\n        /* \"#utility.yul\":7924:8587   */\n    tag_181:\n        /* \"#utility.yul\":6718:6719   */\n      0x00\n        /* \"#utility.yul\":6711:6725   */\n      dup6\n      dup2\n      mstore\n        /* \"#utility.yul\":6755:6759   */\n      0x20\n        /* \"#utility.yul\":6742:6760   */\n      dup2\n      keccak256\n      not(0x1f)\n        /* \"#utility.yul\":7960:7980   */\n      dup7\n      and\n      swap2\n        /* \"#utility.yul\":8078:8314   */\n    tag_185:\n        /* \"#utility.yul\":8092:8099   */\n      dup3\n        /* \"#utility.yul\":8089:8090   */\n      dup2\n        /* \"#utility.yul\":8086:8100   */\n      lt\n        /* \"#utility.yul\":8078:8314   */\n      iszero\n      tag_187\n      jumpi\n        /* \"#utility.yul\":8181:8200   */\n      dup9\n      dup7\n      add\n        /* \"#utility.yul\":8175:8201   */\n      mload\n        /* \"#utility.yul\":8160:8202   */\n      dup3\n      sstore\n        /* \"#utility.yul\":8273:8300   */\n      swap5\n      dup5\n      add\n      swap5\n        /* \"#utility.yul\":8241:8242   */\n      0x01\n        /* \"#utility.yul\":8229:8243   */\n      swap1\n      swap2\n      add\n      swap1\n        /* \"#utility.yul\":8108:8127   */\n      dup5\n      add\n        /* \"#utility.yul\":8078:8314   */\n      jump(tag_185)\n    tag_187:\n        /* \"#utility.yul\":8082:8085   */\n      pop\n        /* \"#utility.yul\":8342:8348   */\n      dup6\n        /* \"#utility.yul\":8333:8340   */\n      dup3\n        /* \"#utility.yul\":8330:8349   */\n      lt\n        /* \"#utility.yul\":8327:8528   */\n      iszero\n      tag_188\n      jumpi\n        /* \"#utility.yul\":8403:8422   */\n      dup8\n      dup6\n      add\n        /* \"#utility.yul\":8397:8423   */\n      mload\n      not(0x00)\n        /* \"#utility.yul\":8486:8487   */\n      0x03\n        /* \"#utility.yul\":8482:8496   */\n      dup9\n      swap1\n      shl\n        /* \"#utility.yul\":8498:8501   */\n      0xf8\n        /* \"#utility.yul\":8478:8502   */\n      and\n        /* \"#utility.yul\":8474:8511   */\n      shr\n        /* \"#utility.yul\":8470:8512   */\n      not\n        /* \"#utility.yul\":8455:8513   */\n      and\n        /* \"#utility.yul\":8440:8514   */\n      dup2\n      sstore\n        /* \"#utility.yul\":8327:8528   */\n    tag_188:\n      pop\n      pop\n      pop\n      pop\n      pop\n        /* \"#utility.yul\":8574:8575   */\n      0x01\n        /* \"#utility.yul\":8558:8572   */\n      swap1\n      dup2\n      shl\n        /* \"#utility.yul\":8554:8576   */\n      add\n        /* \"#utility.yul\":8541:8577   */\n      swap1\n      sstore\n      pop\n        /* \"#utility.yul\":7492:8844   */\n      jump\t// out\n        /* \"#utility.yul\":8849:9069   */\n    tag_80:\n        /* \"#utility.yul\":8998:9000   */\n      0x20\n        /* \"#utility.yul\":8987:8996   */\n      dup2\n        /* \"#utility.yul\":8980:9001   */\n      mstore\n        /* \"#utility.yul\":8961:8965   */\n      0x00\n        /* \"#utility.yul\":9018:9063   */\n      tag_123\n        /* \"#utility.yul\":9059:9061   */\n      0x20\n        /* \"#utility.yul\":9048:9057   */\n      dup4\n        /* \"#utility.yul\":9044:9062   */\n      add\n        /* \"#utility.yul\":9036:9042   */\n      dup5\n        /* \"#utility.yul\":9018:9063   */\n      tag_107\n      jump\t// in\n\n    auxdata: 0xa264697066735822122083f6e5681d351bb7b5db25d0cae86a6065dde1bdb63ed84b7260ca521613af3d64736f6c63430008110033\n}\n",
				"bytecode": {
					"linkReferences": {},
					"object": "608060405234801561001057600080fd5b50604051610b57380380610b5783398101604081905261002f91610049565b600080546001600160a01b03191633179055600155610062565b60006020828403121561005b57600080fd5b5051919050565b610ae6806100716000396000f3fe6080604052600436106100595760003560e01c806312065fe0146100bd57806353d6fd59146100dd5780638da5cb5b146100fd578063c683630d14610135578063d2bfb0bc1461017e578063f7ac51821461019157610093565b36610093576000546001600160a01b031633146100915760405162461bcd60e51b815260040161008890610637565b60405180910390fd5b005b6000546001600160a01b031633146100915760405162461bcd60e51b815260040161008890610637565b3480156100c957600080fd5b506040514781526020015b60405180910390f35b3480156100e957600080fd5b506100916100f8366004610680565b6101c1565b34801561010957600080fd5b5060005461011d906001600160a01b031681565b6040516001600160a01b0390911681526020016100d4565b34801561014157600080fd5b5061016e6101503660046106bc565b6001600160a01b031660009081526003602052604090205460ff1690565b60405190151581526020016100d4565b61009161018c366004610781565b61024a565b34801561019d57600080fd5b506101b16101ac366004610853565b6103e4565b6040516100d494939291906108e0565b6000546001600160a01b031633146101eb5760405162461bcd60e51b815260040161008890610637565b6001600160a01b038216600081815260036020908152604091829020805460ff191685151590811790915591519182527fc2c8beffdf047b9e6c79b0e9dcd0bd71d174d84f52e013102fcc0e200dd58ee0910160405180910390a25050565b600154341161029b5760405162461bcd60e51b815260206004820152601e60248201527f4d696e696d756d20666565206e656564656420746f20726567697374657200006044820152606401610088565b3360009081526003602052604090205460ff166102ee5760405162461bcd60e51b815260206004820152601160248201527014195c9b5a5cdcda5bdb8819195b9a5959607a1b6044820152606401610088565b6103196040518060800160405280606081526020016060815260200160608152602001606081525090565b85815260208101859052604080820185905260608201849052518190600290610343908590610938565b9081526040519081900360200190208151819061036090826109dd565b506020820151600182019061037590826109dd565b506040820151600282019061038a90826109dd565b506060820151600382019061039f90826109dd565b50506040513391507fa6a69184572b903be08b48268bce3da3a79d5d2cff476eb6e4c43ec0662cbe33906103d4908590610a9d565b60405180910390a2505050505050565b805160208183018101805160028252928201919093012091528054819061040a90610954565b80601f016020809104026020016040519081016040528092919081815260200182805461043690610954565b80156104835780601f1061045857610100808354040283529160200191610483565b820191906000526020600020905b81548152906001019060200180831161046657829003601f168201915b50505050509080600101805461049890610954565b80601f01602080910402602001604051908101604052809291908181526020018280546104c490610954565b80156105115780601f106104e657610100808354040283529160200191610511565b820191906000526020600020905b8154815290600101906020018083116104f457829003601f168201915b50505050509080600201805461052690610954565b80601f016020809104026020016040519081016040528092919081815260200182805461055290610954565b801561059f5780601f106105745761010080835404028352916020019161059f565b820191906000526020600020905b81548152906001019060200180831161058257829003601f168201915b5050505050908060030180546105b490610954565b80601f01602080910402602001604051908101604052809291908181526020018280546105e090610954565b801561062d5780601f106106025761010080835404028352916020019161062d565b820191906000526020600020905b81548152906001019060200180831161061057829003601f168201915b5050505050905084565b60208082526013908201527229b2b73232b91034b9903737ba1037bbb732b960691b604082015260600190565b80356001600160a01b038116811461067b57600080fd5b919050565b6000806040838503121561069357600080fd5b61069c83610664565b9150602083013580151581146106b157600080fd5b809150509250929050565b6000602082840312156106ce57600080fd5b6106d782610664565b9392505050565b634e487b7160e01b600052604160045260246000fd5b600082601f83011261070557600080fd5b813567ffffffffffffffff80821115610720576107206106de565b604051601f8301601f19908116603f01168101908282118183101715610748576107486106de565b8160405283815286602085880101111561076157600080fd5b836020870160208301376000602085830101528094505050505092915050565b600080600080600060a0868803121561079957600080fd5b853567ffffffffffffffff808211156107b157600080fd5b6107bd89838a016106f4565b965060208801359150808211156107d357600080fd5b6107df89838a016106f4565b955060408801359150808211156107f557600080fd5b61080189838a016106f4565b9450606088013591508082111561081757600080fd5b61082389838a016106f4565b9350608088013591508082111561083957600080fd5b50610846888289016106f4565b9150509295509295909350565b60006020828403121561086557600080fd5b813567ffffffffffffffff81111561087c57600080fd5b610888848285016106f4565b949350505050565b60005b838110156108ab578181015183820152602001610893565b50506000910152565b600081518084526108cc816020860160208601610890565b601f01601f19169290920160200192915050565b6080815260006108f360808301876108b4565b828103602084015261090581876108b4565b9050828103604084015261091981866108b4565b9050828103606084015261092d81856108b4565b979650505050505050565b6000825161094a818460208701610890565b9190910192915050565b600181811c9082168061096857607f821691505b60208210810361098857634e487b7160e01b600052602260045260246000fd5b50919050565b601f8211156109d857600081815260208120601f850160051c810160208610156109b55750805b601f850160051c820191505b818110156109d4578281556001016109c1565b5050505b505050565b815167ffffffffffffffff8111156109f7576109f76106de565b610a0b81610a058454610954565b8461098e565b602080601f831160018114610a405760008415610a285750858301515b600019600386901b1c1916600185901b1785556109d4565b600085815260208120601f198616915b82811015610a6f57888601518255948401946001909101908401610a50565b5085821015610a8d5787850151600019600388901b60f8161c191681555b5050505050600190811b01905550565b6020815260006106d760208301846108b456fea264697066735822122083f6e5681d351bb7b5db25d0cae86a6065dde1bdb63ed84b7260ca521613af3d64736f6c63430008110033",
					"opcodes": "PUSH1 0x80 PUSH1 0x40 MSTORE CALLVALUE DUP1 ISZERO PUSH2 0x10 JUMPI PUSH1 0x0 DUP1 REVERT JUMPDEST POP PUSH1 0x40 MLOAD PUSH2 0xB57 CODESIZE SUB DUP1 PUSH2 0xB57 DUP4 CODECOPY DUP2 ADD PUSH1 0x40 DUP2 SWAP1 MSTORE PUSH2 0x2F SWAP2 PUSH2 0x49 JUMP JUMPDEST PUSH1 0x0 DUP1 SLOAD PUSH1 0x1 PUSH1 0x1 PUSH1 0xA0 SHL SUB NOT AND CALLER OR SWAP1 SSTORE PUSH1 0x1 SSTORE PUSH2 0x62 JUMP JUMPDEST PUSH1 0x0 PUSH1 0x20 DUP3 DUP5 SUB SLT ISZERO PUSH2 0x5B JUMPI PUSH1 0x0 DUP1 REVERT JUMPDEST POP MLOAD SWAP2 SWAP1 POP JUMP JUMPDEST PUSH2 0xAE6 DUP1 PUSH2 0x71 PUSH1 0x0 CODECOPY PUSH1 0x0 RETURN INVALID PUSH1 0x80 PUSH1 0x40 MSTORE PUSH1 0x4 CALLDATASIZE LT PUSH2 0x59 JUMPI PUSH1 0x0 CALLDATALOAD PUSH1 0xE0 SHR DUP1 PUSH4 0x12065FE0 EQ PUSH2 0xBD JUMPI DUP1 PUSH4 0x53D6FD59 EQ PUSH2 0xDD JUMPI DUP1 PUSH4 0x8DA5CB5B EQ PUSH2 0xFD JUMPI DUP1 PUSH4 0xC683630D EQ PUSH2 0x135 JUMPI DUP1 PUSH4 0xD2BFB0BC EQ PUSH2 0x17E JUMPI DUP1 PUSH4 0xF7AC5182 EQ PUSH2 0x191 JUMPI PUSH2 0x93 JUMP JUMPDEST CALLDATASIZE PUSH2 0x93 JUMPI PUSH1 0x0 SLOAD PUSH1 0x1 PUSH1 0x1 PUSH1 0xA0 SHL SUB AND CALLER EQ PUSH2 0x91 JUMPI PUSH1 0x40 MLOAD PUSH3 0x461BCD PUSH1 0xE5 SHL DUP2 MSTORE PUSH1 0x4 ADD PUSH2 0x88 SWAP1 PUSH2 0x637 JUMP JUMPDEST PUSH1 0x40 MLOAD DUP1 SWAP2 SUB SWAP1 REVERT JUMPDEST STOP JUMPDEST PUSH1 0x0 SLOAD PUSH1 0x1 PUSH1 0x1 PUSH1 0xA0 SHL SUB AND CALLER EQ PUSH2 0x91 JUMPI PUSH1 0x40 MLOAD PUSH3 0x461BCD PUSH1 0xE5 SHL DUP2 MSTORE PUSH1 0x4 ADD PUSH2 0x88 SWAP1 PUSH2 0x637 JUMP JUMPDEST CALLVALUE DUP1 ISZERO PUSH2 0xC9 JUMPI PUSH1 0x0 DUP1 REVERT JUMPDEST POP PUSH1 0x40 MLOAD SELFBALANCE DUP2 MSTORE PUSH1 0x20 ADD JUMPDEST PUSH1 0x40 MLOAD DUP1 SWAP2 SUB SWAP1 RETURN JUMPDEST CALLVALUE DUP1 ISZERO PUSH2 0xE9 JUMPI PUSH1 0x0 DUP1 REVERT JUMPDEST POP PUSH2 0x91 PUSH2 0xF8 CALLDATASIZE PUSH1 0x4 PUSH2 0x680 JUMP JUMPDEST PUSH2 0x1C1 JUMP JUMPDEST CALLVALUE DUP1 ISZERO PUSH2 0x109 JUMPI PUSH1 0x0 DUP1 REVERT JUMPDEST POP PUSH1 0x0 SLOAD PUSH2 0x11D SWAP1 PUSH1 0x1 PUSH1 0x1 PUSH1 0xA0 SHL SUB AND DUP2 JUMP JUMPDEST PUSH1 0x40 MLOAD PUSH1 0x1 PUSH1 0x1 PUSH1 0xA0 SHL SUB SWAP1 SWAP2 AND DUP2 MSTORE PUSH1 0x20 ADD PUSH2 0xD4 JUMP JUMPDEST CALLVALUE DUP1 ISZERO PUSH2 0x141 JUMPI PUSH1 0x0 DUP1 REVERT JUMPDEST POP PUSH2 0x16E PUSH2 0x150 CALLDATASIZE PUSH1 0x4 PUSH2 0x6BC JUMP JUMPDEST PUSH1 0x1 PUSH1 0x1 PUSH1 0xA0 SHL SUB AND PUSH1 0x0 SWAP1 DUP2 MSTORE PUSH1 0x3 PUSH1 0x20 MSTORE PUSH1 0x40 SWAP1 KECCAK256 SLOAD PUSH1 0xFF AND SWAP1 JUMP JUMPDEST PUSH1 0x40 MLOAD SWAP1 ISZERO ISZERO DUP2 MSTORE PUSH1 0x20 ADD PUSH2 0xD4 JUMP JUMPDEST PUSH2 0x91 PUSH2 0x18C CALLDATASIZE PUSH1 0x4 PUSH2 0x781 JUMP JUMPDEST PUSH2 0x24A JUMP JUMPDEST CALLVALUE DUP1 ISZERO PUSH2 0x19D JUMPI PUSH1 0x0 DUP1 REVERT JUMPDEST POP PUSH2 0x1B1 PUSH2 0x1AC CALLDATASIZE PUSH1 0x4 PUSH2 0x853 JUMP JUMPDEST PUSH2 0x3E4 JUMP JUMPDEST PUSH1 0x40 MLOAD PUSH2 0xD4 SWAP5 SWAP4 SWAP3 SWAP2 SWAP1 PUSH2 0x8E0 JUMP JUMPDEST PUSH1 0x0 SLOAD PUSH1 0x1 PUSH1 0x1 PUSH1 0xA0 SHL SUB AND CALLER EQ PUSH2 0x1EB JUMPI PUSH1 0x40 MLOAD PUSH3 0x461BCD PUSH1 0xE5 SHL DUP2 MSTORE PUSH1 0x4 ADD PUSH2 0x88 SWAP1 PUSH2 0x637 JUMP JUMPDEST PUSH1 0x1 PUSH1 0x1 PUSH1 0xA0 SHL SUB DUP3 AND PUSH1 0x0 DUP2 DUP2 MSTORE PUSH1 0x3 PUSH1 0x20 SWAP1 DUP2 MSTORE PUSH1 0x40 SWAP2 DUP3 SWAP1 KECCAK256 DUP1 SLOAD PUSH1 0xFF NOT AND DUP6 ISZERO ISZERO SWAP1 DUP2 OR SWAP1 SWAP2 SSTORE SWAP2 MLOAD SWAP2 DUP3 MSTORE PUSH32 0xC2C8BEFFDF047B9E6C79B0E9DCD0BD71D174D84F52E013102FCC0E200DD58EE0 SWAP2 ADD PUSH1 0x40 MLOAD DUP1 SWAP2 SUB SWAP1 LOG2 POP POP JUMP JUMPDEST PUSH1 0x1 SLOAD CALLVALUE GT PUSH2 0x29B JUMPI PUSH1 0x40 MLOAD PUSH3 0x461BCD PUSH1 0xE5 SHL DUP2 MSTORE PUSH1 0x20 PUSH1 0x4 DUP3 ADD MSTORE PUSH1 0x1E PUSH1 0x24 DUP3 ADD MSTORE PUSH32 0x4D696E696D756D20666565206E656564656420746F2072656769737465720000 PUSH1 0x44 DUP3 ADD MSTORE PUSH1 0x64 ADD PUSH2 0x88 JUMP JUMPDEST CALLER PUSH1 0x0 SWAP1 DUP2 MSTORE PUSH1 0x3 PUSH1 0x20 MSTORE PUSH1 0x40 SWAP1 KECCAK256 SLOAD PUSH1 0xFF AND PUSH2 0x2EE JUMPI PUSH1 0x40 MLOAD PUSH3 0x461BCD PUSH1 0xE5 SHL DUP2 MSTORE PUSH1 0x20 PUSH1 0x4 DUP3 ADD MSTORE PUSH1 0x11 PUSH1 0x24 DUP3 ADD MSTORE PUSH17 0x14195C9B5A5CDCDA5BDB8819195B9A5959 PUSH1 0x7A SHL PUSH1 0x44 DUP3 ADD MSTORE PUSH1 0x64 ADD PUSH2 0x88 JUMP JUMPDEST PUSH2 0x319 PUSH1 0x40 MLOAD DUP1 PUSH1 0x80 ADD PUSH1 0x40 MSTORE DUP1 PUSH1 0x60 DUP2 MSTORE PUSH1 0x20 ADD PUSH1 0x60 DUP2 MSTORE PUSH1 0x20 ADD PUSH1 0x60 DUP2 MSTORE PUSH1 0x20 ADD PUSH1 0x60 DUP2 MSTORE POP SWAP1 JUMP JUMPDEST DUP6 DUP2 MSTORE PUSH1 0x20 DUP2 ADD DUP6 SWAP1 MSTORE PUSH1 0x40 DUP1 DUP3 ADD DUP6 SWAP1 MSTORE PUSH1 0x60 DUP3 ADD DUP5 SWAP1 MSTORE MLOAD DUP2 SWAP1 PUSH1 0x2 SWAP1 PUSH2 0x343 SWAP1 DUP6 SWAP1 PUSH2 0x938 JUMP JUMPDEST SWAP1 DUP2 MSTORE PUSH1 0x40 MLOAD SWAP1 DUP2 SWAP1 SUB PUSH1 0x20 ADD SWAP1 KECCAK256 DUP2 MLOAD DUP2 SWAP1 PUSH2 0x360 SWAP1 DUP3 PUSH2 0x9DD JUMP JUMPDEST POP PUSH1 0x20 DUP3 ADD MLOAD PUSH1 0x1 DUP3 ADD SWAP1 PUSH2 0x375 SWAP1 DUP3 PUSH2 0x9DD JUMP JUMPDEST POP PUSH1 0x40 DUP3 ADD MLOAD PUSH1 0x2 DUP3 ADD SWAP1 PUSH2 0x38A SWAP1 DUP3 PUSH2 0x9DD JUMP JUMPDEST POP PUSH1 0x60 DUP3 ADD MLOAD PUSH1 0x3 DUP3 ADD SWAP1 PUSH2 0x39F SWAP1 DUP3 PUSH2 0x9DD JUMP JUMPDEST POP POP PUSH1 0x40 MLOAD CALLER SWAP2 POP PUSH32 0xA6A69184572B903BE08B48268BCE3DA3A79D5D2CFF476EB6E4C43EC0662CBE33 SWAP1 PUSH2 0x3D4 SWAP1 DUP6 SWAP1 PUSH2 0xA9D JUMP JUMPDEST PUSH1 0x40 MLOAD DUP1 SWAP2 SUB SWAP1 LOG2 POP POP POP POP POP POP JUMP JUMPDEST DUP1 MLOAD PUSH1 0x20 DUP2 DUP4 ADD DUP2 ADD DUP1 MLOAD PUSH1 0x2 DUP3 MSTORE SWAP3 DUP3 ADD SWAP2 SWAP1 SWAP4 ADD KECCAK256 SWAP2 MSTORE DUP1 SLOAD DUP2 SWAP1 PUSH2 0x40A SWAP1 PUSH2 0x954 JUMP JUMPDEST DUP1 PUSH1 0x1F ADD PUSH1 0x20 DUP1 SWAP2 DIV MUL PUSH1 0x20 ADD PUSH1 0x40 MLOAD SWAP1 DUP2 ADD PUSH1 0x40 MSTORE DUP1 SWAP3 SWAP2 SWAP1 DUP2 DUP2 MSTORE PUSH1 0x20 ADD DUP3 DUP1 SLOAD PUSH2 0x436 SWAP1 PUSH2 0x954 JUMP JUMPDEST DUP1 ISZERO PUSH2 0x483 JUMPI DUP1 PUSH1 0x1F LT PUSH2 0x458 JUMPI PUSH2 0x100 DUP1 DUP4 SLOAD DIV MUL DUP4 MSTORE SWAP2 PUSH1 0x20 ADD SWAP2 PUSH2 0x483 JUMP JUMPDEST DUP3 ADD SWAP2 SWAP1 PUSH1 0x0 MSTORE PUSH1 0x20 PUSH1 0x0 KECCAK256 SWAP1 JUMPDEST DUP2 SLOAD DUP2 MSTORE SWAP1 PUSH1 0x1 ADD SWAP1 PUSH1 0x20 ADD DUP1 DUP4 GT PUSH2 0x466 JUMPI DUP3 SWAP1 SUB PUSH1 0x1F AND DUP3 ADD SWAP2 JUMPDEST POP POP POP POP POP SWAP1 DUP1 PUSH1 0x1 ADD DUP1 SLOAD PUSH2 0x498 SWAP1 PUSH2 0x954 JUMP JUMPDEST DUP1 PUSH1 0x1F ADD PUSH1 0x20 DUP1 SWAP2 DIV MUL PUSH1 0x20 ADD PUSH1 0x40 MLOAD SWAP1 DUP2 ADD PUSH1 0x40 MSTORE DUP1 SWAP3 SWAP2 SWAP1 DUP2 DUP2 MSTORE PUSH1 0x20 ADD DUP3 DUP1 SLOAD PUSH2 0x4C4 SWAP1 PUSH2 0x954 JUMP JUMPDEST DUP1 ISZERO PUSH2 0x511 JUMPI DUP1 PUSH1 0x1F LT PUSH2 0x4E6 JUMPI PUSH2 0x100 DUP1 DUP4 SLOAD DIV MUL DUP4 MSTORE SWAP2 PUSH1 0x20 ADD SWAP2 PUSH2 0x511 JUMP JUMPDEST DUP3 ADD SWAP2 SWAP1 PUSH1 0x0 MSTORE PUSH1 0x20 PUSH1 0x0 KECCAK256 SWAP1 JUMPDEST DUP2 SLOAD DUP2 MSTORE SWAP1 PUSH1 0x1 ADD SWAP1 PUSH1 0x20 ADD DUP1 DUP4 GT PUSH2 0x4F4 JUMPI DUP3 SWAP1 SUB PUSH1 0x1F AND DUP3 ADD SWAP2 JUMPDEST POP POP POP POP POP SWAP1 DUP1 PUSH1 0x2 ADD DUP1 SLOAD PUSH2 0x526 SWAP1 PUSH2 0x954 JUMP JUMPDEST DUP1 PUSH1 0x1F ADD PUSH1 0x20 DUP1 SWAP2 DIV MUL PUSH1 0x20 ADD PUSH1 0x40 MLOAD SWAP1 DUP2 ADD PUSH1 0x40 MSTORE DUP1 SWAP3 SWAP2 SWAP1 DUP2 DUP2 MSTORE PUSH1 0x20 ADD DUP3 DUP1 SLOAD PUSH2 0x552 SWAP1 PUSH2 0x954 JUMP JUMPDEST DUP1 ISZERO PUSH2 0x59F JUMPI DUP1 PUSH1 0x1F LT PUSH2 0x574 JUMPI PUSH2 0x100 DUP1 DUP4 SLOAD DIV MUL DUP4 MSTORE SWAP2 PUSH1 0x20 ADD SWAP2 PUSH2 0x59F JUMP JUMPDEST DUP3 ADD SWAP2 SWAP1 PUSH1 0x0 MSTORE PUSH1 0x20 PUSH1 0x0 KECCAK256 SWAP1 JUMPDEST DUP2 SLOAD DUP2 MSTORE SWAP1 PUSH1 0x1 ADD SWAP1 PUSH1 0x20 ADD DUP1 DUP4 GT PUSH2 0x582 JUMPI DUP3 SWAP1 SUB PUSH1 0x1F AND DUP3 ADD SWAP2 JUMPDEST POP POP POP POP POP SWAP1 DUP1 PUSH1 0x3 ADD DUP1 SLOAD PUSH2 0x5B4 SWAP1 PUSH2 0x954 JUMP JUMPDEST DUP1 PUSH1 0x1F ADD PUSH1 0x20 DUP1 SWAP2 DIV MUL PUSH1 0x20 ADD PUSH1 0x40 MLOAD SWAP1 DUP2 ADD PUSH1 0x40 MSTORE DUP1 SWAP3 SWAP2 SWAP1 DUP2 DUP2 MSTORE PUSH1 0x20 ADD DUP3 DUP1 SLOAD PUSH2 0x5E0 SWAP1 PUSH2 0x954 JUMP JUMPDEST DUP1 ISZERO PUSH2 0x62D JUMPI DUP1 PUSH1 0x1F LT PUSH2 0x602 JUMPI PUSH2 0x100 DUP1 DUP4 SLOAD DIV MUL DUP4 MSTORE SWAP2 PUSH1 0x20 ADD SWAP2 PUSH2 0x62D JUMP JUMPDEST DUP3 ADD SWAP2 SWAP1 PUSH1 0x0 MSTORE PUSH1 0x20 PUSH1 0x0 KECCAK256 SWAP1 JUMPDEST DUP2 SLOAD DUP2 MSTORE SWAP1 PUSH1 0x1 ADD SWAP1 PUSH1 0x20 ADD DUP1 DUP4 GT PUSH2 0x610 JUMPI DUP3 SWAP1 SUB PUSH1 0x1F AND DUP3 ADD SWAP2 JUMPDEST POP POP POP POP POP SWAP1 POP DUP5 JUMP JUMPDEST PUSH1 0x20 DUP1 DUP3 MSTORE PUSH1 0x13 SWAP1 DUP3 ADD MSTORE PUSH19 0x29B2B73232B91034B9903737BA1037BBB732B9 PUSH1 0x69 SHL PUSH1 0x40 DUP3 ADD MSTORE PUSH1 0x60 ADD SWAP1 JUMP JUMPDEST DUP1 CALLDATALOAD PUSH1 0x1 PUSH1 0x1 PUSH1 0xA0 SHL SUB DUP2 AND DUP2 EQ PUSH2 0x67B JUMPI PUSH1 0x0 DUP1 REVERT JUMPDEST SWAP2 SWAP1 POP JUMP JUMPDEST PUSH1 0x0 DUP1 PUSH1 0x40 DUP4 DUP6 SUB SLT ISZERO PUSH2 0x693 JUMPI PUSH1 0x0 DUP1 REVERT JUMPDEST PUSH2 0x69C DUP4 PUSH2 0x664 JUMP JUMPDEST SWAP2 POP PUSH1 0x20 DUP4 ADD CALLDATALOAD DUP1 ISZERO ISZERO DUP2 EQ PUSH2 0x6B1 JUMPI PUSH1 0x0 DUP1 REVERT JUMPDEST DUP1 SWAP2 POP POP SWAP3 POP SWAP3 SWAP1 POP JUMP JUMPDEST PUSH1 0x0 PUSH1 0x20 DUP3 DUP5 SUB SLT ISZERO PUSH2 0x6CE JUMPI PUSH1 0x0 DUP1 REVERT JUMPDEST PUSH2 0x6D7 DUP3 PUSH2 0x664 JUMP JUMPDEST SWAP4 SWAP3 POP POP POP JUMP JUMPDEST PUSH4 0x4E487B71 PUSH1 0xE0 SHL PUSH1 0x0 MSTORE PUSH1 0x41 PUSH1 0x4 MSTORE PUSH1 0x24 PUSH1 0x0 REVERT JUMPDEST PUSH1 0x0 DUP3 PUSH1 0x1F DUP4 ADD SLT PUSH2 0x705 JUMPI PUSH1 0x0 DUP1 REVERT JUMPDEST DUP2 CALLDATALOAD PUSH8 0xFFFFFFFFFFFFFFFF DUP1 DUP3 GT ISZERO PUSH2 0x720 JUMPI PUSH2 0x720 PUSH2 0x6DE JUMP JUMPDEST PUSH1 0x40 MLOAD PUSH1 0x1F DUP4 ADD PUSH1 0x1F NOT SWAP1 DUP2 AND PUSH1 0x3F ADD AND DUP2 ADD SWAP1 DUP3 DUP3 GT DUP2 DUP4 LT OR ISZERO PUSH2 0x748 JUMPI PUSH2 0x748 PUSH2 0x6DE JUMP JUMPDEST DUP2 PUSH1 0x40 MSTORE DUP4 DUP2 MSTORE DUP7 PUSH1 0x20 DUP6 DUP9 ADD ADD GT ISZERO PUSH2 0x761 JUMPI PUSH1 0x0 DUP1 REVERT JUMPDEST DUP4 PUSH1 0x20 DUP8 ADD PUSH1 0x20 DUP4 ADD CALLDATACOPY PUSH1 0x0 PUSH1 0x20 DUP6 DUP4 ADD ADD MSTORE DUP1 SWAP5 POP POP POP POP POP SWAP3 SWAP2 POP POP JUMP JUMPDEST PUSH1 0x0 DUP1 PUSH1 0x0 DUP1 PUSH1 0x0 PUSH1 0xA0 DUP7 DUP9 SUB SLT ISZERO PUSH2 0x799 JUMPI PUSH1 0x0 DUP1 REVERT JUMPDEST DUP6 CALLDATALOAD PUSH8 0xFFFFFFFFFFFFFFFF DUP1 DUP3 GT ISZERO PUSH2 0x7B1 JUMPI PUSH1 0x0 DUP1 REVERT JUMPDEST PUSH2 0x7BD DUP10 DUP4 DUP11 ADD PUSH2 0x6F4 JUMP JUMPDEST SWAP7 POP PUSH1 0x20 DUP9 ADD CALLDATALOAD SWAP2 POP DUP1 DUP3 GT ISZERO PUSH2 0x7D3 JUMPI PUSH1 0x0 DUP1 REVERT JUMPDEST PUSH2 0x7DF DUP10 DUP4 DUP11 ADD PUSH2 0x6F4 JUMP JUMPDEST SWAP6 POP PUSH1 0x40 DUP9 ADD CALLDATALOAD SWAP2 POP DUP1 DUP3 GT ISZERO PUSH2 0x7F5 JUMPI PUSH1 0x0 DUP1 REVERT JUMPDEST PUSH2 0x801 DUP10 DUP4 DUP11 ADD PUSH2 0x6F4 JUMP JUMPDEST SWAP5 POP PUSH1 0x60 DUP9 ADD CALLDATALOAD SWAP2 POP DUP1 DUP3 GT ISZERO PUSH2 0x817 JUMPI PUSH1 0x0 DUP1 REVERT JUMPDEST PUSH2 0x823 DUP10 DUP4 DUP11 ADD PUSH2 0x6F4 JUMP JUMPDEST SWAP4 POP PUSH1 0x80 DUP9 ADD CALLDATALOAD SWAP2 POP DUP1 DUP3 GT ISZERO PUSH2 0x839 JUMPI PUSH1 0x0 DUP1 REVERT JUMPDEST POP PUSH2 0x846 DUP9 DUP3 DUP10 ADD PUSH2 0x6F4 JUMP JUMPDEST SWAP2 POP POP SWAP3 SWAP6 POP SWAP3 SWAP6 SWAP1 SWAP4 POP JUMP JUMPDEST PUSH1 0x0 PUSH1 0x20 DUP3 DUP5 SUB SLT ISZERO PUSH2 0x865 JUMPI PUSH1 0x0 DUP1 REVERT JUMPDEST DUP2 CALLDATALOAD PUSH8 0xFFFFFFFFFFFFFFFF DUP2 GT ISZERO PUSH2 0x87C JUMPI PUSH1 0x0 DUP1 REVERT JUMPDEST PUSH2 0x888 DUP5 DUP3 DUP6 ADD PUSH2 0x6F4 JUMP JUMPDEST SWAP5 SWAP4 POP POP POP POP JUMP JUMPDEST PUSH1 0x0 JUMPDEST DUP4 DUP2 LT ISZERO PUSH2 0x8AB JUMPI DUP2 DUP2 ADD MLOAD DUP4 DUP3 ADD MSTORE PUSH1 0x20 ADD PUSH2 0x893 JUMP JUMPDEST POP POP PUSH1 0x0 SWAP2 ADD MSTORE JUMP JUMPDEST PUSH1 0x0 DUP2 MLOAD DUP1 DUP5 MSTORE PUSH2 0x8CC DUP2 PUSH1 0x20 DUP7 ADD PUSH1 0x20 DUP7 ADD PUSH2 0x890 JUMP JUMPDEST PUSH1 0x1F ADD PUSH1 0x1F NOT AND SWAP3 SWAP1 SWAP3 ADD PUSH1 0x20 ADD SWAP3 SWAP2 POP POP JUMP JUMPDEST PUSH1 0x80 DUP2 MSTORE PUSH1 0x0 PUSH2 0x8F3 PUSH1 0x80 DUP4 ADD DUP8 PUSH2 0x8B4 JUMP JUMPDEST DUP3 DUP2 SUB PUSH1 0x20 DUP5 ADD MSTORE PUSH2 0x905 DUP2 DUP8 PUSH2 0x8B4 JUMP JUMPDEST SWAP1 POP DUP3 DUP2 SUB PUSH1 0x40 DUP5 ADD MSTORE PUSH2 0x919 DUP2 DUP7 PUSH2 0x8B4 JUMP JUMPDEST SWAP1 POP DUP3 DUP2 SUB PUSH1 0x60 DUP5 ADD MSTORE PUSH2 0x92D DUP2 DUP6 PUSH2 0x8B4 JUMP JUMPDEST SWAP8 SWAP7 POP POP POP POP POP POP POP JUMP JUMPDEST PUSH1 0x0 DUP3 MLOAD PUSH2 0x94A DUP2 DUP5 PUSH1 0x20 DUP8 ADD PUSH2 0x890 JUMP JUMPDEST SWAP2 SWAP1 SWAP2 ADD SWAP3 SWAP2 POP POP JUMP JUMPDEST PUSH1 0x1 DUP2 DUP2 SHR SWAP1 DUP3 AND DUP1 PUSH2 0x968 JUMPI PUSH1 0x7F DUP3 AND SWAP2 POP JUMPDEST PUSH1 0x20 DUP3 LT DUP2 SUB PUSH2 0x988 JUMPI PUSH4 0x4E487B71 PUSH1 0xE0 SHL PUSH1 0x0 MSTORE PUSH1 0x22 PUSH1 0x4 MSTORE PUSH1 0x24 PUSH1 0x0 REVERT JUMPDEST POP SWAP2 SWAP1 POP JUMP JUMPDEST PUSH1 0x1F DUP3 GT ISZERO PUSH2 0x9D8 JUMPI PUSH1 0x0 DUP2 DUP2 MSTORE PUSH1 0x20 DUP2 KECCAK256 PUSH1 0x1F DUP6 ADD PUSH1 0x5 SHR DUP2 ADD PUSH1 0x20 DUP7 LT ISZERO PUSH2 0x9B5 JUMPI POP DUP1 JUMPDEST PUSH1 0x1F DUP6 ADD PUSH1 0x5 SHR DUP3 ADD SWAP2 POP JUMPDEST DUP2 DUP2 LT ISZERO PUSH2 0x9D4 JUMPI DUP3 DUP2 SSTORE PUSH1 0x1 ADD PUSH2 0x9C1 JUMP JUMPDEST POP POP POP JUMPDEST POP POP POP JUMP JUMPDEST DUP2 MLOAD PUSH8 0xFFFFFFFFFFFFFFFF DUP2 GT ISZERO PUSH2 0x9F7 JUMPI PUSH2 0x9F7 PUSH2 0x6DE JUMP JUMPDEST PUSH2 0xA0B DUP2 PUSH2 0xA05 DUP5 SLOAD PUSH2 0x954 JUMP JUMPDEST DUP5 PUSH2 0x98E JUMP JUMPDEST PUSH1 0x20 DUP1 PUSH1 0x1F DUP4 GT PUSH1 0x1 DUP2 EQ PUSH2 0xA40 JUMPI PUSH1 0x0 DUP5 ISZERO PUSH2 0xA28 JUMPI POP DUP6 DUP4 ADD MLOAD JUMPDEST PUSH1 0x0 NOT PUSH1 0x3 DUP7 SWAP1 SHL SHR NOT AND PUSH1 0x1 DUP6 SWAP1 SHL OR DUP6 SSTORE PUSH2 0x9D4 JUMP JUMPDEST PUSH1 0x0 DUP6 DUP2 MSTORE PUSH1 0x20 DUP2 KECCAK256 PUSH1 0x1F NOT DUP7 AND SWAP2 JUMPDEST DUP3 DUP2 LT ISZERO PUSH2 0xA6F JUMPI DUP9 DUP7 ADD MLOAD DUP3 SSTORE SWAP5 DUP5 ADD SWAP5 PUSH1 0x1 SWAP1 SWAP2 ADD SWAP1 DUP5 ADD PUSH2 0xA50 JUMP JUMPDEST POP DUP6 DUP3 LT ISZERO PUSH2 0xA8D JUMPI DUP8 DUP6 ADD MLOAD PUSH1 0x0 NOT PUSH1 0x3 DUP9 SWAP1 SHL PUSH1 0xF8 AND SHR NOT AND DUP2 SSTORE JUMPDEST POP POP POP POP POP PUSH1 0x1 SWAP1 DUP2 SHL ADD SWAP1 SSTORE POP JUMP JUMPDEST PUSH1 0x20 DUP2 MSTORE PUSH1 0x0 PUSH2 0x6D7 PUSH1 0x20 DUP4 ADD DUP5 PUSH2 0x8B4 JUMP INVALID LOG2 PUSH5 0x6970667358 0x22 SLT KECCAK256 DUP4 0xF6 0xE5 PUSH9 0x1D351BB7B5DB25D0CA 0xE8 PUSH11 0x6065DDE1BDB63ED84B7260 0xCA MSTORE AND SGT 0xAF RETURNDATASIZE PUSH5 0x736F6C6343 STOP ADDMOD GT STOP CALLER "
				},
				"gasEstimates": {
					"creation": {
						"codeDepositCost": "558000",
						"executionCost": "infinite",
						"totalCost": "infinite"
					},
					"external": {
						"": "2478",
						"addNewDoc(string,string,string,string,string)": "infinite",
						"getBalance()": "146",
						"isWhitelist(address)": "2593",
						"owner()": "2359",
						"registeredDocs(string)": "infinite",
						"setWhitelist(address,bool)": "28273"
					},
					"internal": {
						"_isWhitelist(address)": "infinite"
					}
				},
				"methodIdentifiers": {
					"addNewDoc(string,string,string,string,string)": "d2bfb0bc",
					"getBalance()": "12065fe0",
					"isWhitelist(address)": "c683630d",
					"owner()": "8da5cb5b",
					"registeredDocs(string)": "f7ac5182",
					"setWhitelist(address,bool)": "53d6fd59"
				}
			},
			"storageLayout": {
				"storage": [
					{
						"astId": 18,
						"contract": "Contracts/DocumentVault.sol:DocumentVault",
						"label": "owner",
						"offset": 0,
						"slot": "0",
						"type": "t_address_payable"
					},
					{
						"astId": 20,
						"contract": "Contracts/DocumentVault.sol:DocumentVault",
						"label": "minimunFee",
						"offset": 0,
						"slot": "1",
						"type": "t_uint256"
					},
					{
						"astId": 34,
						"contract": "Contracts/DocumentVault.sol:DocumentVault",
						"label": "registeredDocs",
						"offset": 0,
						"slot": "2",
						"type": "t_mapping(t_string_memory_ptr,t_struct(Documentation)29_storage)"
					},
					{
						"astId": 38,
						"contract": "Contracts/DocumentVault.sol:DocumentVault",
						"label": "_allowedPublishers",
						"offset": 0,
						"slot": "3",
						"type": "t_mapping(t_address,t_bool)"
					}
				],
				"types": {
					"t_address": {
						"encoding": "inplace",
						"label": "address",
						"numberOfBytes": "20"
					},
					"t_address_payable": {
						"encoding": "inplace",
						"label": "address payable",
						"numberOfBytes": "20"
					},
					"t_bool": {
						"encoding": "inplace",
						"label": "bool",
						"numberOfBytes": "1"
					},
					"t_mapping(t_address,t_bool)": {
						"encoding": "mapping",
						"key": "t_address",
						"label": "mapping(address => bool)",
						"numberOfBytes": "32",
						"value": "t_bool"
					},
					"t_mapping(t_string_memory_ptr,t_struct(Documentation)29_storage)": {
						"encoding": "mapping",
						"key": "t_string_memory_ptr",
						"label": "mapping(string => struct DocumentVault.Documentation)",
						"numberOfBytes": "32",
						"value": "t_struct(Documentation)29_storage"
					},
					"t_string_memory_ptr": {
						"encoding": "bytes",
						"label": "string",
						"numberOfBytes": "32"
					},
					"t_string_storage": {
						"encoding": "bytes",
						"label": "string",
						"numberOfBytes": "32"
					},
					"t_struct(Documentation)29_storage": {
						"encoding": "inplace",
						"label": "struct DocumentVault.Documentation",
						"members": [
							{
								"astId": 22,
								"contract": "Contracts/DocumentVault.sol:DocumentVault",
								"label": "typeOfDocument",
								"offset": 0,
								"slot": "0",
								"type": "t_string_storage"
							},
							{
								"astId": 24,
								"contract": "Contracts/DocumentVault.sol:DocumentVault",
								"label": "docsURI",
								"offset": 0,
								"slot": "1",
								"type": "t_string_storage"
							},
							{
								"astId": 26,
								"contract": "Contracts/DocumentVault.sol:DocumentVault",
								"label": "docsURIChesksum",
								"offset": 0,
								"slot": "2",
								"type": "t_string_storage"
							},
							{
								"astId": 28,
								"contract": "Contracts/DocumentVault.sol:DocumentVault",
								"label": "publisherResponsible",
								"offset": 0,
								"slot": "3",
								"type": "t_string_storage"
							}
						],
						"numberOfBytes": "128"
					},
					"t_uint256": {
						"encoding": "inplace",
						"label": "uint256",
						"numberOfBytes": "32"
					}
				}
			},
			"userdoc": {
				"events": {
					"NewDocAdded(address,string)": {
						"notice": "New document added"
					},
					"SetWhitelistByAddress(address,bool)": {
						"notice": "New address added to allowed publishers"
					}
				},
				"kind": "user",
				"methods": {
					"addNewDoc(string,string,string,string,string)": {
						"notice": "Method for adding new documentation"
					},
					"getBalance()": {
						"notice": "Public method to retrieve contract's balance"
					},
					"isWhitelist(address)": {
						"notice": "Public method to check if address has privilegies"
					},
					"setWhitelist(address,bool)": {
						"notice": "Method to insert new address to the whitelist"
					}
				},
				"notice": "DocumentVault contract",
				"version": 1
			}
		}
	}
}