{
	"Contracts/PaymentSplit.sol": {
		"PaymentSplit": {
			"abi": [
				{
					"inputs": [
						{
							"internalType": "address payable",
							"name": "_owner",
							"type": "address"
						}
					],
					"stateMutability": "nonpayable",
					"type": "constructor"
				},
				{
					"anonymous": false,
					"inputs": [
						{
							"indexed": false,
							"internalType": "address",
							"name": "_from",
							"type": "address"
						},
						{
							"indexed": false,
							"internalType": "uint256",
							"name": "_amount",
							"type": "uint256"
						}
					],
					"name": "FeePaid",
					"type": "event"
				},
				{
					"stateMutability": "payable",
					"type": "fallback"
				},
				{
					"inputs": [],
					"name": "FEE_BASE",
					"outputs": [
						{
							"internalType": "uint256",
							"name": "",
							"type": "uint256"
						}
					],
					"stateMutability": "view",
					"type": "function"
				},
				{
					"inputs": [
						{
							"internalType": "address",
							"name": "",
							"type": "address"
						}
					],
					"name": "_recipients",
					"outputs": [
						{
							"internalType": "uint256",
							"name": "",
							"type": "uint256"
						}
					],
					"stateMutability": "view",
					"type": "function"
				},
				{
					"inputs": [
						{
							"internalType": "address payable",
							"name": "_addrs",
							"type": "address"
						},
						{
							"internalType": "uint256",
							"name": "_amount",
							"type": "uint256"
						}
					],
					"name": "addRecipients",
					"outputs": [],
					"stateMutability": "nonpayable",
					"type": "function"
				},
				{
					"inputs": [],
					"name": "getAddress",
					"outputs": [
						{
							"internalType": "address",
							"name": "_splitPaymentAddress",
							"type": "address"
						}
					],
					"stateMutability": "view",
					"type": "function"
				},
				{
					"inputs": [
						{
							"internalType": "address payable",
							"name": "_addrs",
							"type": "address"
						}
					],
					"name": "getFeeByAddress",
					"outputs": [
						{
							"internalType": "uint256",
							"name": "fee",
							"type": "uint256"
						}
					],
					"stateMutability": "view",
					"type": "function"
				},
				{
					"inputs": [],
					"name": "getTotalFee",
					"outputs": [
						{
							"internalType": "uint256",
							"name": "totalFee",
							"type": "uint256"
						}
					],
					"stateMutability": "view",
					"type": "function"
				},
				{
					"inputs": [],
					"name": "owner",
					"outputs": [
						{
							"internalType": "address payable",
							"name": "",
							"type": "address"
						}
					],
					"stateMutability": "view",
					"type": "function"
				},
				{
					"inputs": [],
					"name": "paySplitFee",
					"outputs": [],
					"stateMutability": "nonpayable",
					"type": "function"
				},
				{
					"inputs": [
						{
							"internalType": "uint256",
							"name": "",
							"type": "uint256"
						}
					],
					"name": "recipients",
					"outputs": [
						{
							"internalType": "address payable",
							"name": "",
							"type": "address"
						}
					],
					"stateMutability": "view",
					"type": "function"
				},
				{
					"stateMutability": "payable",
					"type": "receive"
				}
			],
			"devdoc": {
				"author": "Gustavo Henrique / gustavo@useinsignia.com",
				"kind": "dev",
				"methods": {
					"addRecipients(address,uint256)": {
						"details": "The total sum of percentage is 100%, in this way be aware of the _amount",
						"params": {
							"_addrs": "The address of the recipient",
							"_amount": "The percentage amount to pay"
						}
					},
					"getAddress()": {
						"details": "This method supports PaymentSplitFactory contract",
						"returns": {
							"_splitPaymentAddress": "Address of the payment sppliter contract"
						}
					},
					"getFeeByAddress(address)": {
						"params": {
							"_addrs": "The address of the recipient"
						},
						"returns": {
							"fee": "The percentage amount to pay"
						}
					},
					"getTotalFee()": {
						"returns": {
							"totalFee": "The total percentage amount to pay"
						}
					},
					"paySplitFee()": {
						"details": "The total sum of percentage is 100%, in this way be aware of the _amount,   a possible improvement is use getTotalFee verification"
					}
				},
				"title": "Payment sppliter",
				"version": 1
			},
			"evm": {
				"assembly": "    /* \"Contracts/PaymentSplit.sol\":434:3912  contract PaymentSplit {... */\n  mstore(0x40, 0x80)\n    /* \"Contracts/PaymentSplit.sol\":731:800  constructor(address payable _owner) {... */\n  callvalue\n  dup1\n  iszero\n  tag_1\n  jumpi\n  0x00\n  dup1\n  revert\ntag_1:\n  pop\n  mload(0x40)\n  sub(codesize, bytecodeSize)\n  dup1\n  bytecodeSize\n  dup4\n  codecopy\n  dup2\n  dup2\n  add\n  0x40\n  mstore\n  dup2\n  add\n  swap1\n  tag_2\n  swap2\n  swap1\n  tag_3\n  jump\t// in\ntag_2:\n    /* \"Contracts/PaymentSplit.sol\":786:792  _owner */\n  dup1\n    /* \"Contracts/PaymentSplit.sol\":778:783  owner */\n  0x00\n  dup1\n    /* \"Contracts/PaymentSplit.sol\":778:792  owner = _owner */\n  0x0100\n  exp\n  dup2\n  sload\n  dup2\n  0xffffffffffffffffffffffffffffffffffffffff\n  mul\n  not\n  and\n  swap1\n  dup4\n  0xffffffffffffffffffffffffffffffffffffffff\n  and\n  mul\n  or\n  swap1\n  sstore\n  pop\n    /* \"Contracts/PaymentSplit.sol\":731:800  constructor(address payable _owner) {... */\n  pop\n    /* \"Contracts/PaymentSplit.sol\":434:3912  contract PaymentSplit {... */\n  jump(tag_6)\n    /* \"#utility.yul\":88:205   */\ntag_8:\n    /* \"#utility.yul\":197:198   */\n  0x00\n    /* \"#utility.yul\":194:195   */\n  dup1\n    /* \"#utility.yul\":187:199   */\n  revert\n    /* \"#utility.yul\":334:460   */\ntag_10:\n    /* \"#utility.yul\":371:378   */\n  0x00\n    /* \"#utility.yul\":411:453   */\n  0xffffffffffffffffffffffffffffffffffffffff\n    /* \"#utility.yul\":404:409   */\n  dup3\n    /* \"#utility.yul\":400:454   */\n  and\n    /* \"#utility.yul\":389:454   */\n  swap1\n  pop\n    /* \"#utility.yul\":334:460   */\n  swap2\n  swap1\n  pop\n  jump\t// out\n    /* \"#utility.yul\":466:570   */\ntag_11:\n    /* \"#utility.yul\":511:518   */\n  0x00\n    /* \"#utility.yul\":540:564   */\n  tag_20\n    /* \"#utility.yul\":558:563   */\n  dup3\n    /* \"#utility.yul\":540:564   */\n  tag_10\n  jump\t// in\ntag_20:\n    /* \"#utility.yul\":529:564   */\n  swap1\n  pop\n    /* \"#utility.yul\":466:570   */\n  swap2\n  swap1\n  pop\n  jump\t// out\n    /* \"#utility.yul\":576:714   */\ntag_12:\n    /* \"#utility.yul\":657:689   */\n  tag_22\n    /* \"#utility.yul\":683:688   */\n  dup2\n    /* \"#utility.yul\":657:689   */\n  tag_11\n  jump\t// in\ntag_22:\n    /* \"#utility.yul\":650:655   */\n  dup2\n    /* \"#utility.yul\":647:690   */\n  eq\n    /* \"#utility.yul\":637:708   */\n  tag_23\n  jumpi\n    /* \"#utility.yul\":704:705   */\n  0x00\n    /* \"#utility.yul\":701:702   */\n  dup1\n    /* \"#utility.yul\":694:706   */\n  revert\n    /* \"#utility.yul\":637:708   */\ntag_23:\n    /* \"#utility.yul\":576:714   */\n  pop\n  jump\t// out\n    /* \"#utility.yul\":720:879   */\ntag_13:\n    /* \"#utility.yul\":785:790   */\n  0x00\n    /* \"#utility.yul\":816:822   */\n  dup2\n    /* \"#utility.yul\":810:823   */\n  mload\n    /* \"#utility.yul\":801:823   */\n  swap1\n  pop\n    /* \"#utility.yul\":832:873   */\n  tag_25\n    /* \"#utility.yul\":867:872   */\n  dup2\n    /* \"#utility.yul\":832:873   */\n  tag_12\n  jump\t// in\ntag_25:\n    /* \"#utility.yul\":720:879   */\n  swap3\n  swap2\n  pop\n  pop\n  jump\t// out\n    /* \"#utility.yul\":885:1252   */\ntag_3:\n    /* \"#utility.yul\":963:969   */\n  0x00\n    /* \"#utility.yul\":1012:1014   */\n  0x20\n    /* \"#utility.yul\":1000:1009   */\n  dup3\n    /* \"#utility.yul\":991:998   */\n  dup5\n    /* \"#utility.yul\":987:1010   */\n  sub\n    /* \"#utility.yul\":983:1015   */\n  slt\n    /* \"#utility.yul\":980:1099   */\n  iszero\n  tag_27\n  jumpi\n    /* \"#utility.yul\":1018:1097   */\n  tag_28\n  tag_8\n  jump\t// in\ntag_28:\n    /* \"#utility.yul\":980:1099   */\ntag_27:\n    /* \"#utility.yul\":1138:1139   */\n  0x00\n    /* \"#utility.yul\":1163:1235   */\n  tag_29\n    /* \"#utility.yul\":1227:1234   */\n  dup5\n    /* \"#utility.yul\":1218:1224   */\n  dup3\n    /* \"#utility.yul\":1207:1216   */\n  dup6\n    /* \"#utility.yul\":1203:1225   */\n  add\n    /* \"#utility.yul\":1163:1235   */\n  tag_13\n  jump\t// in\ntag_29:\n    /* \"#utility.yul\":1153:1235   */\n  swap2\n  pop\n    /* \"#utility.yul\":1109:1245   */\n  pop\n    /* \"#utility.yul\":885:1252   */\n  swap3\n  swap2\n  pop\n  pop\n  jump\t// out\n    /* \"Contracts/PaymentSplit.sol\":434:3912  contract PaymentSplit {... */\ntag_6:\n  dataSize(sub_0)\n  dup1\n  dataOffset(sub_0)\n  0x00\n  codecopy\n  0x00\n  return\nstop\n\nsub_0: assembly {\n        /* \"Contracts/PaymentSplit.sol\":434:3912  contract PaymentSplit {... */\n      mstore(0x40, 0x80)\n      jumpi(tag_1, lt(calldatasize, 0x04))\n      shr(0xe0, calldataload(0x00))\n      dup1\n      0x8a0e72bb\n      gt\n      tag_12\n      jumpi\n      dup1\n      0x8a0e72bb\n      eq\n      tag_7\n      jumpi\n      dup1\n      0x8da5cb5b\n      eq\n      tag_8\n      jumpi\n      dup1\n      0xd1bc76a1\n      eq\n      tag_9\n      jumpi\n      dup1\n      0xe59de500\n      eq\n      tag_10\n      jumpi\n      dup1\n      0xecefc705\n      eq\n      tag_11\n      jumpi\n      jump(tag_2)\n    tag_12:\n      dup1\n      0x38cc4831\n      eq\n      tag_3\n      jumpi\n      dup1\n      0x3afe58af\n      eq\n      tag_4\n      jumpi\n      dup1\n      0x6a9df2b5\n      eq\n      tag_5\n      jumpi\n      dup1\n      0x7ae316d0\n      eq\n      tag_6\n      jumpi\n      jump(tag_2)\n    tag_1:\n      jumpi(tag_2, calldatasize)\n        /* \"Contracts/PaymentSplit.sol\":998:1003  owner */\n      0x00\n      dup1\n      sload\n      swap1\n      0x0100\n      exp\n      swap1\n      div\n      0xffffffffffffffffffffffffffffffffffffffff\n      and\n        /* \"Contracts/PaymentSplit.sol\":984:1003  msg.sender == owner */\n      0xffffffffffffffffffffffffffffffffffffffff\n      and\n        /* \"Contracts/PaymentSplit.sol\":984:994  msg.sender */\n      caller\n        /* \"Contracts/PaymentSplit.sol\":984:1003  msg.sender == owner */\n      0xffffffffffffffffffffffffffffffffffffffff\n      and\n      eq\n        /* \"Contracts/PaymentSplit.sol\":976:1027  require(msg.sender == owner, \"Sender is not owner\") */\n      tag_15\n      jumpi\n      mload(0x40)\n      0x08c379a000000000000000000000000000000000000000000000000000000000\n      dup2\n      mstore\n      0x04\n      add\n      tag_16\n      swap1\n      tag_17\n      jump\t// in\n    tag_16:\n      mload(0x40)\n      dup1\n      swap2\n      sub\n      swap1\n      revert\n    tag_15:\n        /* \"Contracts/PaymentSplit.sol\":434:3912  contract PaymentSplit {... */\n      stop\n    tag_2:\n        /* \"Contracts/PaymentSplit.sol\":998:1003  owner */\n      0x00\n      dup1\n      sload\n      swap1\n      0x0100\n      exp\n      swap1\n      div\n      0xffffffffffffffffffffffffffffffffffffffff\n      and\n        /* \"Contracts/PaymentSplit.sol\":984:1003  msg.sender == owner */\n      0xffffffffffffffffffffffffffffffffffffffff\n      and\n        /* \"Contracts/PaymentSplit.sol\":984:994  msg.sender */\n      caller\n        /* \"Contracts/PaymentSplit.sol\":984:1003  msg.sender == owner */\n      0xffffffffffffffffffffffffffffffffffffffff\n      and\n      eq\n        /* \"Contracts/PaymentSplit.sol\":976:1027  require(msg.sender == owner, \"Sender is not owner\") */\n      tag_21\n      jumpi\n      mload(0x40)\n      0x08c379a000000000000000000000000000000000000000000000000000000000\n      dup2\n      mstore\n      0x04\n      add\n      tag_22\n      swap1\n      tag_17\n      jump\t// in\n    tag_22:\n      mload(0x40)\n      dup1\n      swap2\n      sub\n      swap1\n      revert\n    tag_21:\n        /* \"Contracts/PaymentSplit.sol\":434:3912  contract PaymentSplit {... */\n      stop\n        /* \"Contracts/PaymentSplit.sol\":3550:3678  function getAddress() public view returns (address _splitPaymentAddress) {... */\n    tag_3:\n      callvalue\n      dup1\n      iszero\n      tag_24\n      jumpi\n      0x00\n      dup1\n      revert\n    tag_24:\n      pop\n      tag_25\n      tag_26\n      jump\t// in\n    tag_25:\n      mload(0x40)\n      tag_27\n      swap2\n      swap1\n      tag_28\n      jump\t// in\n    tag_27:\n      mload(0x40)\n      dup1\n      swap2\n      sub\n      swap1\n      return\n        /* \"Contracts/PaymentSplit.sol\":1297:1482  function addRecipients(... */\n    tag_4:\n      callvalue\n      dup1\n      iszero\n      tag_29\n      jumpi\n      0x00\n      dup1\n      revert\n    tag_29:\n      pop\n      tag_30\n      0x04\n      dup1\n      calldatasize\n      sub\n      dup2\n      add\n      swap1\n      tag_31\n      swap2\n      swap1\n      tag_32\n      jump\t// in\n    tag_31:\n      tag_33\n      jump\t// in\n    tag_30:\n      stop\n        /* \"Contracts/PaymentSplit.sol\":2686:3337  function paySplitFee() public onlyOwner {... */\n    tag_5:\n      callvalue\n      dup1\n      iszero\n      tag_34\n      jumpi\n      0x00\n      dup1\n      revert\n    tag_34:\n      pop\n      tag_35\n      tag_36\n      jump\t// in\n    tag_35:\n      stop\n        /* \"Contracts/PaymentSplit.sol\":1942:2129  function getTotalFee() public view returns (uint totalFee) {... */\n    tag_6:\n      callvalue\n      dup1\n      iszero\n      tag_37\n      jumpi\n      0x00\n      dup1\n      revert\n    tag_37:\n      pop\n      tag_38\n      tag_39\n      jump\t// in\n    tag_38:\n      mload(0x40)\n      tag_40\n      swap2\n      swap1\n      tag_41\n      jump\t// in\n    tag_40:\n      mload(0x40)\n      dup1\n      swap2\n      sub\n      swap1\n      return\n        /* \"Contracts/PaymentSplit.sol\":1662:1802  function getFeeByAddress(... */\n    tag_7:\n      callvalue\n      dup1\n      iszero\n      tag_42\n      jumpi\n      0x00\n      dup1\n      revert\n    tag_42:\n      pop\n      tag_43\n      0x04\n      dup1\n      calldatasize\n      sub\n      dup2\n      add\n      swap1\n      tag_44\n      swap2\n      swap1\n      tag_45\n      jump\t// in\n    tag_44:\n      tag_46\n      jump\t// in\n    tag_43:\n      mload(0x40)\n      tag_47\n      swap2\n      swap1\n      tag_41\n      jump\t// in\n    tag_47:\n      mload(0x40)\n      dup1\n      swap2\n      sub\n      swap1\n      return\n        /* \"Contracts/PaymentSplit.sol\":558:586  address payable public owner */\n    tag_8:\n      callvalue\n      dup1\n      iszero\n      tag_48\n      jumpi\n      0x00\n      dup1\n      revert\n    tag_48:\n      pop\n      tag_49\n      tag_50\n      jump\t// in\n    tag_49:\n      mload(0x40)\n      tag_51\n      swap2\n      swap1\n      tag_52\n      jump\t// in\n    tag_51:\n      mload(0x40)\n      dup1\n      swap2\n      sub\n      swap1\n      return\n        /* \"Contracts/PaymentSplit.sol\":643:678  address payable[] public recipients */\n    tag_9:\n      callvalue\n      dup1\n      iszero\n      tag_53\n      jumpi\n      0x00\n      dup1\n      revert\n    tag_53:\n      pop\n      tag_54\n      0x04\n      dup1\n      calldatasize\n      sub\n      dup2\n      add\n      swap1\n      tag_55\n      swap2\n      swap1\n      tag_56\n      jump\t// in\n    tag_55:\n      tag_57\n      jump\t// in\n    tag_54:\n      mload(0x40)\n      tag_58\n      swap2\n      swap1\n      tag_52\n      jump\t// in\n    tag_58:\n      mload(0x40)\n      dup1\n      swap2\n      sub\n      swap1\n      return\n        /* \"Contracts/PaymentSplit.sol\":593:636  mapping(address => uint) public _recipients */\n    tag_10:\n      callvalue\n      dup1\n      iszero\n      tag_59\n      jumpi\n      0x00\n      dup1\n      revert\n    tag_59:\n      pop\n      tag_60\n      0x04\n      dup1\n      calldatasize\n      sub\n      dup2\n      add\n      swap1\n      tag_61\n      swap2\n      swap1\n      tag_62\n      jump\t// in\n    tag_61:\n      tag_63\n      jump\t// in\n    tag_60:\n      mload(0x40)\n      tag_64\n      swap2\n      swap1\n      tag_41\n      jump\t// in\n    tag_64:\n      mload(0x40)\n      dup1\n      swap2\n      sub\n      swap1\n      return\n        /* \"Contracts/PaymentSplit.sol\":685:722  uint public constant FEE_BASE = 10000 */\n    tag_11:\n      callvalue\n      dup1\n      iszero\n      tag_65\n      jumpi\n      0x00\n      dup1\n      revert\n    tag_65:\n      pop\n      tag_66\n      tag_67\n      jump\t// in\n    tag_66:\n      mload(0x40)\n      tag_68\n      swap2\n      swap1\n      tag_41\n      jump\t// in\n    tag_68:\n      mload(0x40)\n      dup1\n      swap2\n      sub\n      swap1\n      return\n        /* \"Contracts/PaymentSplit.sol\":3550:3678  function getAddress() public view returns (address _splitPaymentAddress) {... */\n    tag_26:\n        /* \"Contracts/PaymentSplit.sol\":3593:3621  address _splitPaymentAddress */\n      0x00\n        /* \"Contracts/PaymentSplit.sol\":3665:3669  this */\n      address\n        /* \"Contracts/PaymentSplit.sol\":3634:3670  _splitPaymentAddress = address(this) */\n      swap1\n      pop\n        /* \"Contracts/PaymentSplit.sol\":3550:3678  function getAddress() public view returns (address _splitPaymentAddress) {... */\n      swap1\n      jump\t// out\n        /* \"Contracts/PaymentSplit.sol\":1297:1482  function addRecipients(... */\n    tag_33:\n        /* \"Contracts/PaymentSplit.sol\":998:1003  owner */\n      0x00\n      dup1\n      sload\n      swap1\n      0x0100\n      exp\n      swap1\n      div\n      0xffffffffffffffffffffffffffffffffffffffff\n      and\n        /* \"Contracts/PaymentSplit.sol\":984:1003  msg.sender == owner */\n      0xffffffffffffffffffffffffffffffffffffffff\n      and\n        /* \"Contracts/PaymentSplit.sol\":984:994  msg.sender */\n      caller\n        /* \"Contracts/PaymentSplit.sol\":984:1003  msg.sender == owner */\n      0xffffffffffffffffffffffffffffffffffffffff\n      and\n      eq\n        /* \"Contracts/PaymentSplit.sol\":976:1027  require(msg.sender == owner, \"Sender is not owner\") */\n      tag_71\n      jumpi\n      mload(0x40)\n      0x08c379a000000000000000000000000000000000000000000000000000000000\n      dup2\n      mstore\n      0x04\n      add\n      tag_72\n      swap1\n      tag_17\n      jump\t// in\n    tag_72:\n      mload(0x40)\n      dup1\n      swap2\n      sub\n      swap1\n      revert\n    tag_71:\n        /* \"Contracts/PaymentSplit.sol\":1433:1440  _amount */\n      dup1\n        /* \"Contracts/PaymentSplit.sol\":1411:1422  _recipients */\n      0x01\n        /* \"Contracts/PaymentSplit.sol\":1411:1430  _recipients[_addrs] */\n      0x00\n        /* \"Contracts/PaymentSplit.sol\":1423:1429  _addrs */\n      dup5\n        /* \"Contracts/PaymentSplit.sol\":1411:1430  _recipients[_addrs] */\n      0xffffffffffffffffffffffffffffffffffffffff\n      and\n      0xffffffffffffffffffffffffffffffffffffffff\n      and\n      dup2\n      mstore\n      0x20\n      add\n      swap1\n      dup2\n      mstore\n      0x20\n      add\n      0x00\n      keccak256\n        /* \"Contracts/PaymentSplit.sol\":1411:1440  _recipients[_addrs] = _amount */\n      dup2\n      swap1\n      sstore\n      pop\n        /* \"Contracts/PaymentSplit.sol\":1451:1461  recipients */\n      0x02\n        /* \"Contracts/PaymentSplit.sol\":1467:1473  _addrs */\n      dup3\n        /* \"Contracts/PaymentSplit.sol\":1451:1474  recipients.push(_addrs) */\n      swap1\n      dup1\n      0x01\n      dup2\n      sload\n      add\n      dup1\n      dup3\n      sstore\n      dup1\n      swap2\n      pop\n      pop\n      0x01\n      swap1\n      sub\n      swap1\n      0x00\n      mstore\n      keccak256(0x00, 0x20)\n      add\n      0x00\n      swap1\n      swap2\n      swap1\n      swap2\n      swap1\n      swap2\n      0x0100\n      exp\n      dup2\n      sload\n      dup2\n      0xffffffffffffffffffffffffffffffffffffffff\n      mul\n      not\n      and\n      swap1\n      dup4\n      0xffffffffffffffffffffffffffffffffffffffff\n      and\n      mul\n      or\n      swap1\n      sstore\n      pop\n        /* \"Contracts/PaymentSplit.sol\":1297:1482  function addRecipients(... */\n      pop\n      pop\n      jump\t// out\n        /* \"Contracts/PaymentSplit.sol\":2686:3337  function paySplitFee() public onlyOwner {... */\n    tag_36:\n        /* \"Contracts/PaymentSplit.sol\":998:1003  owner */\n      0x00\n      dup1\n      sload\n      swap1\n      0x0100\n      exp\n      swap1\n      div\n      0xffffffffffffffffffffffffffffffffffffffff\n      and\n        /* \"Contracts/PaymentSplit.sol\":984:1003  msg.sender == owner */\n      0xffffffffffffffffffffffffffffffffffffffff\n      and\n        /* \"Contracts/PaymentSplit.sol\":984:994  msg.sender */\n      caller\n        /* \"Contracts/PaymentSplit.sol\":984:1003  msg.sender == owner */\n      0xffffffffffffffffffffffffffffffffffffffff\n      and\n      eq\n        /* \"Contracts/PaymentSplit.sol\":976:1027  require(msg.sender == owner, \"Sender is not owner\") */\n      tag_76\n      jumpi\n      mload(0x40)\n      0x08c379a000000000000000000000000000000000000000000000000000000000\n      dup2\n      mstore\n      0x04\n      add\n      tag_77\n      swap1\n      tag_17\n      jump\t// in\n    tag_77:\n      mload(0x40)\n      dup1\n      swap2\n      sub\n      swap1\n      revert\n    tag_76:\n        /* \"Contracts/PaymentSplit.sol\":2770:2771  0 */\n      0x00\n        /* \"Contracts/PaymentSplit.sol\":2745:2766  address(this).balance */\n      selfbalance\n        /* \"Contracts/PaymentSplit.sol\":2745:2771  address(this).balance != 0 */\n      sub\n        /* \"Contracts/PaymentSplit.sol\":2737:2791  require(address(this).balance != 0, \"Not enugh funds\") */\n      tag_79\n      jumpi\n      mload(0x40)\n      0x08c379a000000000000000000000000000000000000000000000000000000000\n      dup2\n      mstore\n      0x04\n      add\n      tag_80\n      swap1\n      tag_81\n      jump\t// in\n    tag_80:\n      mload(0x40)\n      dup1\n      swap2\n      sub\n      swap1\n      revert\n    tag_79:\n        /* \"Contracts/PaymentSplit.sol\":717:722  10000 */\n      0x2710\n        /* \"Contracts/PaymentSplit.sol\":2810:2824  _getTotalFee() */\n      tag_82\n        /* \"Contracts/PaymentSplit.sol\":2810:2822  _getTotalFee */\n      tag_83\n        /* \"Contracts/PaymentSplit.sol\":2810:2824  _getTotalFee() */\n      jump\t// in\n    tag_82:\n        /* \"Contracts/PaymentSplit.sol\":2810:2836  _getTotalFee() == FEE_BASE */\n      eq\n        /* \"Contracts/PaymentSplit.sol\":2802:2867  require(_getTotalFee() == FEE_BASE, \"Payment not split entirely\") */\n      tag_84\n      jumpi\n      mload(0x40)\n      0x08c379a000000000000000000000000000000000000000000000000000000000\n      dup2\n      mstore\n      0x04\n      add\n      tag_85\n      swap1\n      tag_86\n      jump\t// in\n    tag_85:\n      mload(0x40)\n      dup1\n      swap2\n      sub\n      swap1\n      revert\n    tag_84:\n        /* \"Contracts/PaymentSplit.sol\":2880:2893  uint256 share */\n      0x00\n        /* \"Contracts/PaymentSplit.sol\":2908:2926  uint totalFeeValue */\n      dup1\n        /* \"Contracts/PaymentSplit.sol\":2929:2950  address(this).balance */\n      selfbalance\n        /* \"Contracts/PaymentSplit.sol\":2908:2950  uint totalFeeValue = address(this).balance */\n      swap1\n      pop\n        /* \"Contracts/PaymentSplit.sol\":2968:2974  uint i */\n      0x00\n        /* \"Contracts/PaymentSplit.sol\":2963:3330  for (uint i = 0; i < recipients.length; i++) {... */\n    tag_87:\n        /* \"Contracts/PaymentSplit.sol\":2984:2994  recipients */\n      0x02\n        /* \"Contracts/PaymentSplit.sol\":2984:3001  recipients.length */\n      dup1\n      sload\n      swap1\n      pop\n        /* \"Contracts/PaymentSplit.sol\":2980:2981  i */\n      dup2\n        /* \"Contracts/PaymentSplit.sol\":2980:3001  i < recipients.length */\n      lt\n        /* \"Contracts/PaymentSplit.sol\":2963:3330  for (uint i = 0; i < recipients.length; i++) {... */\n      iszero\n      tag_88\n      jumpi\n        /* \"Contracts/PaymentSplit.sol\":3060:3071  _recipients */\n      0x01\n        /* \"Contracts/PaymentSplit.sol\":3060:3086  _recipients[recipients[i]] */\n      0x00\n        /* \"Contracts/PaymentSplit.sol\":3072:3082  recipients */\n      0x02\n        /* \"Contracts/PaymentSplit.sol\":3083:3084  i */\n      dup4\n        /* \"Contracts/PaymentSplit.sol\":3072:3085  recipients[i] */\n      dup2\n      sload\n      dup2\n      lt\n      tag_90\n      jumpi\n      tag_91\n      tag_92\n      jump\t// in\n    tag_91:\n    tag_90:\n      swap1\n      0x00\n      mstore\n      keccak256(0x00, 0x20)\n      add\n      0x00\n      swap1\n      sload\n      swap1\n      0x0100\n      exp\n      swap1\n      div\n      0xffffffffffffffffffffffffffffffffffffffff\n      and\n        /* \"Contracts/PaymentSplit.sol\":3060:3086  _recipients[recipients[i]] */\n      0xffffffffffffffffffffffffffffffffffffffff\n      and\n      0xffffffffffffffffffffffffffffffffffffffff\n      and\n      dup2\n      mstore\n      0x20\n      add\n      swap1\n      dup2\n      mstore\n      0x20\n      add\n      0x00\n      keccak256\n      sload\n        /* \"Contracts/PaymentSplit.sol\":717:722  10000 */\n      0x2710\n        /* \"Contracts/PaymentSplit.sol\":3032:3045  totalFeeValue */\n      dup4\n        /* \"Contracts/PaymentSplit.sol\":3032:3056  totalFeeValue / FEE_BASE */\n      tag_94\n      swap2\n      swap1\n      tag_95\n      jump\t// in\n    tag_94:\n        /* \"Contracts/PaymentSplit.sol\":3031:3086  (totalFeeValue / FEE_BASE) * _recipients[recipients[i]] */\n      tag_96\n      swap2\n      swap1\n      tag_97\n      jump\t// in\n    tag_96:\n        /* \"Contracts/PaymentSplit.sol\":3023:3086  share = (totalFeeValue / FEE_BASE) * _recipients[recipients[i]] */\n      swap3\n      pop\n        /* \"Contracts/PaymentSplit.sol\":3102:3121  bool callSuccessFee */\n      0x00\n        /* \"Contracts/PaymentSplit.sol\":3135:3145  recipients */\n      0x02\n        /* \"Contracts/PaymentSplit.sol\":3146:3147  i */\n      dup3\n        /* \"Contracts/PaymentSplit.sol\":3135:3148  recipients[i] */\n      dup2\n      sload\n      dup2\n      lt\n      tag_98\n      jumpi\n      tag_99\n      tag_92\n      jump\t// in\n    tag_99:\n    tag_98:\n      swap1\n      0x00\n      mstore\n      keccak256(0x00, 0x20)\n      add\n      0x00\n      swap1\n      sload\n      swap1\n      0x0100\n      exp\n      swap1\n      div\n      0xffffffffffffffffffffffffffffffffffffffff\n      and\n        /* \"Contracts/PaymentSplit.sol\":3127:3154  payable(recipients[i]).call */\n      0xffffffffffffffffffffffffffffffffffffffff\n      and\n        /* \"Contracts/PaymentSplit.sol\":3162:3167  share */\n      dup5\n        /* \"Contracts/PaymentSplit.sol\":3127:3204  payable(recipients[i]).call{value: share}(... */\n      mload(0x40)\n      tag_101\n      swap1\n      tag_102\n      jump\t// in\n    tag_101:\n      0x00\n      mload(0x40)\n      dup1\n      dup4\n      sub\n      dup2\n      dup6\n      dup8\n      gas\n      call\n      swap3\n      pop\n      pop\n      pop\n      returndatasize\n      dup1\n      0x00\n      dup2\n      eq\n      tag_105\n      jumpi\n      mload(0x40)\n      swap2\n      pop\n      and(add(returndatasize, 0x3f), not(0x1f))\n      dup3\n      add\n      0x40\n      mstore\n      returndatasize\n      dup3\n      mstore\n      returndatasize\n      0x00\n      0x20\n      dup5\n      add\n      returndatacopy\n      jump(tag_104)\n    tag_105:\n      0x60\n      swap2\n      pop\n    tag_104:\n      pop\n        /* \"Contracts/PaymentSplit.sol\":3101:3204  (bool callSuccessFee, ) = payable(recipients[i]).call{value: share}(... */\n      pop\n      swap1\n      pop\n        /* \"Contracts/PaymentSplit.sol\":3227:3241  callSuccessFee */\n      dup1\n        /* \"Contracts/PaymentSplit.sol\":3219:3269  require(callSuccessFee, \"Return fee funds failed\") */\n      tag_106\n      jumpi\n      mload(0x40)\n      0x08c379a000000000000000000000000000000000000000000000000000000000\n      dup2\n      mstore\n      0x04\n      add\n      tag_107\n      swap1\n      tag_108\n      jump\t// in\n    tag_107:\n      mload(0x40)\n      dup1\n      swap2\n      sub\n      swap1\n      revert\n    tag_106:\n        /* \"Contracts/PaymentSplit.sol\":3289:3318  FeePaid(recipients[i], share) */\n      0x075a2720282fdf622141dae0b048ef90a21a7e57c134c76912d19d006b3b3f6f\n        /* \"Contracts/PaymentSplit.sol\":3297:3307  recipients */\n      0x02\n        /* \"Contracts/PaymentSplit.sol\":3308:3309  i */\n      dup4\n        /* \"Contracts/PaymentSplit.sol\":3297:3310  recipients[i] */\n      dup2\n      sload\n      dup2\n      lt\n      tag_109\n      jumpi\n      tag_110\n      tag_92\n      jump\t// in\n    tag_110:\n    tag_109:\n      swap1\n      0x00\n      mstore\n      keccak256(0x00, 0x20)\n      add\n      0x00\n      swap1\n      sload\n      swap1\n      0x0100\n      exp\n      swap1\n      div\n      0xffffffffffffffffffffffffffffffffffffffff\n      and\n        /* \"Contracts/PaymentSplit.sol\":3312:3317  share */\n      dup6\n        /* \"Contracts/PaymentSplit.sol\":3289:3318  FeePaid(recipients[i], share) */\n      mload(0x40)\n      tag_112\n      swap3\n      swap2\n      swap1\n      tag_113\n      jump\t// in\n    tag_112:\n      mload(0x40)\n      dup1\n      swap2\n      sub\n      swap1\n      log1\n        /* \"Contracts/PaymentSplit.sol\":3008:3330  {... */\n      pop\n        /* \"Contracts/PaymentSplit.sol\":3003:3006  i++ */\n      dup1\n      dup1\n      tag_114\n      swap1\n      tag_115\n      jump\t// in\n    tag_114:\n      swap2\n      pop\n      pop\n        /* \"Contracts/PaymentSplit.sol\":2963:3330  for (uint i = 0; i < recipients.length; i++) {... */\n      jump(tag_87)\n    tag_88:\n      pop\n        /* \"Contracts/PaymentSplit.sol\":2726:3337  {... */\n      pop\n      pop\n        /* \"Contracts/PaymentSplit.sol\":2686:3337  function paySplitFee() public onlyOwner {... */\n      jump\t// out\n        /* \"Contracts/PaymentSplit.sol\":1942:2129  function getTotalFee() public view returns (uint totalFee) {... */\n    tag_39:\n        /* \"Contracts/PaymentSplit.sol\":1986:1999  uint totalFee */\n      0x00\n        /* \"Contracts/PaymentSplit.sol\":2017:2023  uint i */\n      dup1\n        /* \"Contracts/PaymentSplit.sol\":2026:2027  0 */\n      0x00\n        /* \"Contracts/PaymentSplit.sol\":2017:2027  uint i = 0 */\n      swap1\n      pop\n        /* \"Contracts/PaymentSplit.sol\":2012:2122  for (uint i = 0; i < recipients.length; i++) {... */\n    tag_117:\n        /* \"Contracts/PaymentSplit.sol\":2033:2043  recipients */\n      0x02\n        /* \"Contracts/PaymentSplit.sol\":2033:2050  recipients.length */\n      dup1\n      sload\n      swap1\n      pop\n        /* \"Contracts/PaymentSplit.sol\":2029:2030  i */\n      dup2\n        /* \"Contracts/PaymentSplit.sol\":2029:2050  i < recipients.length */\n      lt\n        /* \"Contracts/PaymentSplit.sol\":2012:2122  for (uint i = 0; i < recipients.length; i++) {... */\n      iszero\n      tag_118\n      jumpi\n        /* \"Contracts/PaymentSplit.sol\":2084:2095  _recipients */\n      0x01\n        /* \"Contracts/PaymentSplit.sol\":2084:2110  _recipients[recipients[i]] */\n      0x00\n        /* \"Contracts/PaymentSplit.sol\":2096:2106  recipients */\n      0x02\n        /* \"Contracts/PaymentSplit.sol\":2107:2108  i */\n      dup4\n        /* \"Contracts/PaymentSplit.sol\":2096:2109  recipients[i] */\n      dup2\n      sload\n      dup2\n      lt\n      tag_120\n      jumpi\n      tag_121\n      tag_92\n      jump\t// in\n    tag_121:\n    tag_120:\n      swap1\n      0x00\n      mstore\n      keccak256(0x00, 0x20)\n      add\n      0x00\n      swap1\n      sload\n      swap1\n      0x0100\n      exp\n      swap1\n      div\n      0xffffffffffffffffffffffffffffffffffffffff\n      and\n        /* \"Contracts/PaymentSplit.sol\":2084:2110  _recipients[recipients[i]] */\n      0xffffffffffffffffffffffffffffffffffffffff\n      and\n      0xffffffffffffffffffffffffffffffffffffffff\n      and\n      dup2\n      mstore\n      0x20\n      add\n      swap1\n      dup2\n      mstore\n      0x20\n      add\n      0x00\n      keccak256\n      sload\n        /* \"Contracts/PaymentSplit.sol\":2072:2110  totalFee += _recipients[recipients[i]] */\n      dup3\n      tag_123\n      swap2\n      swap1\n      tag_124\n      jump\t// in\n    tag_123:\n      swap2\n      pop\n        /* \"Contracts/PaymentSplit.sol\":2052:2055  i++ */\n      dup1\n      dup1\n      tag_125\n      swap1\n      tag_115\n      jump\t// in\n    tag_125:\n      swap2\n      pop\n      pop\n        /* \"Contracts/PaymentSplit.sol\":2012:2122  for (uint i = 0; i < recipients.length; i++) {... */\n      jump(tag_117)\n    tag_118:\n      pop\n        /* \"Contracts/PaymentSplit.sol\":1942:2129  function getTotalFee() public view returns (uint totalFee) {... */\n      swap1\n      jump\t// out\n        /* \"Contracts/PaymentSplit.sol\":1662:1802  function getFeeByAddress(... */\n    tag_46:\n        /* \"Contracts/PaymentSplit.sol\":1748:1756  uint fee */\n      0x00\n        /* \"Contracts/PaymentSplit.sol\":1775:1786  _recipients */\n      0x01\n        /* \"Contracts/PaymentSplit.sol\":1775:1794  _recipients[_addrs] */\n      0x00\n        /* \"Contracts/PaymentSplit.sol\":1787:1793  _addrs */\n      dup4\n        /* \"Contracts/PaymentSplit.sol\":1775:1794  _recipients[_addrs] */\n      0xffffffffffffffffffffffffffffffffffffffff\n      and\n      0xffffffffffffffffffffffffffffffffffffffff\n      and\n      dup2\n      mstore\n      0x20\n      add\n      swap1\n      dup2\n      mstore\n      0x20\n      add\n      0x00\n      keccak256\n      sload\n        /* \"Contracts/PaymentSplit.sol\":1769:1794  fee = _recipients[_addrs] */\n      swap1\n      pop\n        /* \"Contracts/PaymentSplit.sol\":1662:1802  function getFeeByAddress(... */\n      swap2\n      swap1\n      pop\n      jump\t// out\n        /* \"Contracts/PaymentSplit.sol\":558:586  address payable public owner */\n    tag_50:\n      0x00\n      dup1\n      sload\n      swap1\n      0x0100\n      exp\n      swap1\n      div\n      0xffffffffffffffffffffffffffffffffffffffff\n      and\n      dup2\n      jump\t// out\n        /* \"Contracts/PaymentSplit.sol\":643:678  address payable[] public recipients */\n    tag_57:\n      0x02\n      dup2\n      dup2\n      sload\n      dup2\n      lt\n      tag_127\n      jumpi\n      0x00\n      dup1\n      revert\n    tag_127:\n      swap1\n      0x00\n      mstore\n      keccak256(0x00, 0x20)\n      add\n      0x00\n      swap2\n      pop\n      sload\n      swap1\n      0x0100\n      exp\n      swap1\n      div\n      0xffffffffffffffffffffffffffffffffffffffff\n      and\n      dup2\n      jump\t// out\n        /* \"Contracts/PaymentSplit.sol\":593:636  mapping(address => uint) public _recipients */\n    tag_63:\n      mstore(0x20, 0x01)\n      dup1\n      0x00\n      mstore\n      keccak256(0x00, 0x40)\n      0x00\n      swap2\n      pop\n      swap1\n      pop\n      sload\n      dup2\n      jump\t// out\n        /* \"Contracts/PaymentSplit.sol\":685:722  uint public constant FEE_BASE = 10000 */\n    tag_67:\n        /* \"Contracts/PaymentSplit.sol\":717:722  10000 */\n      0x2710\n        /* \"Contracts/PaymentSplit.sol\":685:722  uint public constant FEE_BASE = 10000 */\n      dup2\n      jump\t// out\n        /* \"Contracts/PaymentSplit.sol\":2271:2461  function _getTotalFee() internal view returns (uint totalFee) {... */\n    tag_83:\n        /* \"Contracts/PaymentSplit.sol\":2318:2331  uint totalFee */\n      0x00\n        /* \"Contracts/PaymentSplit.sol\":2349:2355  uint i */\n      dup1\n        /* \"Contracts/PaymentSplit.sol\":2358:2359  0 */\n      0x00\n        /* \"Contracts/PaymentSplit.sol\":2349:2359  uint i = 0 */\n      swap1\n      pop\n        /* \"Contracts/PaymentSplit.sol\":2344:2454  for (uint i = 0; i < recipients.length; i++) {... */\n    tag_130:\n        /* \"Contracts/PaymentSplit.sol\":2365:2375  recipients */\n      0x02\n        /* \"Contracts/PaymentSplit.sol\":2365:2382  recipients.length */\n      dup1\n      sload\n      swap1\n      pop\n        /* \"Contracts/PaymentSplit.sol\":2361:2362  i */\n      dup2\n        /* \"Contracts/PaymentSplit.sol\":2361:2382  i < recipients.length */\n      lt\n        /* \"Contracts/PaymentSplit.sol\":2344:2454  for (uint i = 0; i < recipients.length; i++) {... */\n      iszero\n      tag_131\n      jumpi\n        /* \"Contracts/PaymentSplit.sol\":2416:2427  _recipients */\n      0x01\n        /* \"Contracts/PaymentSplit.sol\":2416:2442  _recipients[recipients[i]] */\n      0x00\n        /* \"Contracts/PaymentSplit.sol\":2428:2438  recipients */\n      0x02\n        /* \"Contracts/PaymentSplit.sol\":2439:2440  i */\n      dup4\n        /* \"Contracts/PaymentSplit.sol\":2428:2441  recipients[i] */\n      dup2\n      sload\n      dup2\n      lt\n      tag_133\n      jumpi\n      tag_134\n      tag_92\n      jump\t// in\n    tag_134:\n    tag_133:\n      swap1\n      0x00\n      mstore\n      keccak256(0x00, 0x20)\n      add\n      0x00\n      swap1\n      sload\n      swap1\n      0x0100\n      exp\n      swap1\n      div\n      0xffffffffffffffffffffffffffffffffffffffff\n      and\n        /* \"Contracts/PaymentSplit.sol\":2416:2442  _recipients[recipients[i]] */\n      0xffffffffffffffffffffffffffffffffffffffff\n      and\n      0xffffffffffffffffffffffffffffffffffffffff\n      and\n      dup2\n      mstore\n      0x20\n      add\n      swap1\n      dup2\n      mstore\n      0x20\n      add\n      0x00\n      keccak256\n      sload\n        /* \"Contracts/PaymentSplit.sol\":2404:2442  totalFee += _recipients[recipients[i]] */\n      dup3\n      tag_136\n      swap2\n      swap1\n      tag_124\n      jump\t// in\n    tag_136:\n      swap2\n      pop\n        /* \"Contracts/PaymentSplit.sol\":2384:2387  i++ */\n      dup1\n      dup1\n      tag_137\n      swap1\n      tag_115\n      jump\t// in\n    tag_137:\n      swap2\n      pop\n      pop\n        /* \"Contracts/PaymentSplit.sol\":2344:2454  for (uint i = 0; i < recipients.length; i++) {... */\n      jump(tag_130)\n    tag_131:\n      pop\n        /* \"Contracts/PaymentSplit.sol\":2271:2461  function _getTotalFee() internal view returns (uint totalFee) {... */\n      swap1\n      jump\t// out\n        /* \"#utility.yul\":7:176   */\n    tag_138:\n        /* \"#utility.yul\":91:102   */\n      0x00\n        /* \"#utility.yul\":125:131   */\n      dup3\n        /* \"#utility.yul\":120:123   */\n      dup3\n        /* \"#utility.yul\":113:132   */\n      mstore\n        /* \"#utility.yul\":165:169   */\n      0x20\n        /* \"#utility.yul\":160:163   */\n      dup3\n        /* \"#utility.yul\":156:170   */\n      add\n        /* \"#utility.yul\":141:170   */\n      swap1\n      pop\n        /* \"#utility.yul\":7:176   */\n      swap3\n      swap2\n      pop\n      pop\n      jump\t// out\n        /* \"#utility.yul\":182:351   */\n    tag_139:\n        /* \"#utility.yul\":322:343   */\n      0x53656e646572206973206e6f74206f776e657200000000000000000000000000\n        /* \"#utility.yul\":318:319   */\n      0x00\n        /* \"#utility.yul\":310:316   */\n      dup3\n        /* \"#utility.yul\":306:320   */\n      add\n        /* \"#utility.yul\":299:344   */\n      mstore\n        /* \"#utility.yul\":182:351   */\n      pop\n      jump\t// out\n        /* \"#utility.yul\":357:723   */\n    tag_140:\n        /* \"#utility.yul\":499:502   */\n      0x00\n        /* \"#utility.yul\":520:587   */\n      tag_177\n        /* \"#utility.yul\":584:586   */\n      0x13\n        /* \"#utility.yul\":579:582   */\n      dup4\n        /* \"#utility.yul\":520:587   */\n      tag_138\n      jump\t// in\n    tag_177:\n        /* \"#utility.yul\":513:587   */\n      swap2\n      pop\n        /* \"#utility.yul\":596:689   */\n      tag_178\n        /* \"#utility.yul\":685:688   */\n      dup3\n        /* \"#utility.yul\":596:689   */\n      tag_139\n      jump\t// in\n    tag_178:\n        /* \"#utility.yul\":714:716   */\n      0x20\n        /* \"#utility.yul\":709:712   */\n      dup3\n        /* \"#utility.yul\":705:717   */\n      add\n        /* \"#utility.yul\":698:717   */\n      swap1\n      pop\n        /* \"#utility.yul\":357:723   */\n      swap2\n      swap1\n      pop\n      jump\t// out\n        /* \"#utility.yul\":729:1148   */\n    tag_17:\n        /* \"#utility.yul\":895:899   */\n      0x00\n        /* \"#utility.yul\":933:935   */\n      0x20\n        /* \"#utility.yul\":922:931   */\n      dup3\n        /* \"#utility.yul\":918:936   */\n      add\n        /* \"#utility.yul\":910:936   */\n      swap1\n      pop\n        /* \"#utility.yul\":982:991   */\n      dup2\n        /* \"#utility.yul\":976:980   */\n      dup2\n        /* \"#utility.yul\":972:992   */\n      sub\n        /* \"#utility.yul\":968:969   */\n      0x00\n        /* \"#utility.yul\":957:966   */\n      dup4\n        /* \"#utility.yul\":953:970   */\n      add\n        /* \"#utility.yul\":946:993   */\n      mstore\n        /* \"#utility.yul\":1010:1141   */\n      tag_180\n        /* \"#utility.yul\":1136:1140   */\n      dup2\n        /* \"#utility.yul\":1010:1141   */\n      tag_140\n      jump\t// in\n    tag_180:\n        /* \"#utility.yul\":1002:1141   */\n      swap1\n      pop\n        /* \"#utility.yul\":729:1148   */\n      swap2\n      swap1\n      pop\n      jump\t// out\n        /* \"#utility.yul\":1154:1280   */\n    tag_141:\n        /* \"#utility.yul\":1191:1198   */\n      0x00\n        /* \"#utility.yul\":1231:1273   */\n      0xffffffffffffffffffffffffffffffffffffffff\n        /* \"#utility.yul\":1224:1229   */\n      dup3\n        /* \"#utility.yul\":1220:1274   */\n      and\n        /* \"#utility.yul\":1209:1274   */\n      swap1\n      pop\n        /* \"#utility.yul\":1154:1280   */\n      swap2\n      swap1\n      pop\n      jump\t// out\n        /* \"#utility.yul\":1286:1382   */\n    tag_142:\n        /* \"#utility.yul\":1323:1330   */\n      0x00\n        /* \"#utility.yul\":1352:1376   */\n      tag_183\n        /* \"#utility.yul\":1370:1375   */\n      dup3\n        /* \"#utility.yul\":1352:1376   */\n      tag_141\n      jump\t// in\n    tag_183:\n        /* \"#utility.yul\":1341:1376   */\n      swap1\n      pop\n        /* \"#utility.yul\":1286:1382   */\n      swap2\n      swap1\n      pop\n      jump\t// out\n        /* \"#utility.yul\":1388:1506   */\n    tag_143:\n        /* \"#utility.yul\":1475:1499   */\n      tag_185\n        /* \"#utility.yul\":1493:1498   */\n      dup2\n        /* \"#utility.yul\":1475:1499   */\n      tag_142\n      jump\t// in\n    tag_185:\n        /* \"#utility.yul\":1470:1473   */\n      dup3\n        /* \"#utility.yul\":1463:1500   */\n      mstore\n        /* \"#utility.yul\":1388:1506   */\n      pop\n      pop\n      jump\t// out\n        /* \"#utility.yul\":1512:1734   */\n    tag_28:\n        /* \"#utility.yul\":1605:1609   */\n      0x00\n        /* \"#utility.yul\":1643:1645   */\n      0x20\n        /* \"#utility.yul\":1632:1641   */\n      dup3\n        /* \"#utility.yul\":1628:1646   */\n      add\n        /* \"#utility.yul\":1620:1646   */\n      swap1\n      pop\n        /* \"#utility.yul\":1656:1727   */\n      tag_187\n        /* \"#utility.yul\":1724:1725   */\n      0x00\n        /* \"#utility.yul\":1713:1722   */\n      dup4\n        /* \"#utility.yul\":1709:1726   */\n      add\n        /* \"#utility.yul\":1700:1706   */\n      dup5\n        /* \"#utility.yul\":1656:1727   */\n      tag_143\n      jump\t// in\n    tag_187:\n        /* \"#utility.yul\":1512:1734   */\n      swap3\n      swap2\n      pop\n      pop\n      jump\t// out\n        /* \"#utility.yul\":1821:1938   */\n    tag_145:\n        /* \"#utility.yul\":1930:1931   */\n      0x00\n        /* \"#utility.yul\":1927:1928   */\n      dup1\n        /* \"#utility.yul\":1920:1932   */\n      revert\n        /* \"#utility.yul\":2067:2171   */\n    tag_147:\n        /* \"#utility.yul\":2112:2119   */\n      0x00\n        /* \"#utility.yul\":2141:2165   */\n      tag_192\n        /* \"#utility.yul\":2159:2164   */\n      dup3\n        /* \"#utility.yul\":2141:2165   */\n      tag_141\n      jump\t// in\n    tag_192:\n        /* \"#utility.yul\":2130:2165   */\n      swap1\n      pop\n        /* \"#utility.yul\":2067:2171   */\n      swap2\n      swap1\n      pop\n      jump\t// out\n        /* \"#utility.yul\":2177:2315   */\n    tag_148:\n        /* \"#utility.yul\":2258:2290   */\n      tag_194\n        /* \"#utility.yul\":2284:2289   */\n      dup2\n        /* \"#utility.yul\":2258:2290   */\n      tag_147\n      jump\t// in\n    tag_194:\n        /* \"#utility.yul\":2251:2256   */\n      dup2\n        /* \"#utility.yul\":2248:2291   */\n      eq\n        /* \"#utility.yul\":2238:2309   */\n      tag_195\n      jumpi\n        /* \"#utility.yul\":2305:2306   */\n      0x00\n        /* \"#utility.yul\":2302:2303   */\n      dup1\n        /* \"#utility.yul\":2295:2307   */\n      revert\n        /* \"#utility.yul\":2238:2309   */\n    tag_195:\n        /* \"#utility.yul\":2177:2315   */\n      pop\n      jump\t// out\n        /* \"#utility.yul\":2321:2476   */\n    tag_149:\n        /* \"#utility.yul\":2375:2380   */\n      0x00\n        /* \"#utility.yul\":2413:2419   */\n      dup2\n        /* \"#utility.yul\":2400:2420   */\n      calldataload\n        /* \"#utility.yul\":2391:2420   */\n      swap1\n      pop\n        /* \"#utility.yul\":2429:2470   */\n      tag_197\n        /* \"#utility.yul\":2464:2469   */\n      dup2\n        /* \"#utility.yul\":2429:2470   */\n      tag_148\n      jump\t// in\n    tag_197:\n        /* \"#utility.yul\":2321:2476   */\n      swap3\n      swap2\n      pop\n      pop\n      jump\t// out\n        /* \"#utility.yul\":2482:2559   */\n    tag_150:\n        /* \"#utility.yul\":2519:2526   */\n      0x00\n        /* \"#utility.yul\":2548:2553   */\n      dup2\n        /* \"#utility.yul\":2537:2553   */\n      swap1\n      pop\n        /* \"#utility.yul\":2482:2559   */\n      swap2\n      swap1\n      pop\n      jump\t// out\n        /* \"#utility.yul\":2565:2687   */\n    tag_151:\n        /* \"#utility.yul\":2638:2662   */\n      tag_200\n        /* \"#utility.yul\":2656:2661   */\n      dup2\n        /* \"#utility.yul\":2638:2662   */\n      tag_150\n      jump\t// in\n    tag_200:\n        /* \"#utility.yul\":2631:2636   */\n      dup2\n        /* \"#utility.yul\":2628:2663   */\n      eq\n        /* \"#utility.yul\":2618:2681   */\n      tag_201\n      jumpi\n        /* \"#utility.yul\":2677:2678   */\n      0x00\n        /* \"#utility.yul\":2674:2675   */\n      dup1\n        /* \"#utility.yul\":2667:2679   */\n      revert\n        /* \"#utility.yul\":2618:2681   */\n    tag_201:\n        /* \"#utility.yul\":2565:2687   */\n      pop\n      jump\t// out\n        /* \"#utility.yul\":2693:2832   */\n    tag_152:\n        /* \"#utility.yul\":2739:2744   */\n      0x00\n        /* \"#utility.yul\":2777:2783   */\n      dup2\n        /* \"#utility.yul\":2764:2784   */\n      calldataload\n        /* \"#utility.yul\":2755:2784   */\n      swap1\n      pop\n        /* \"#utility.yul\":2793:2826   */\n      tag_203\n        /* \"#utility.yul\":2820:2825   */\n      dup2\n        /* \"#utility.yul\":2793:2826   */\n      tag_151\n      jump\t// in\n    tag_203:\n        /* \"#utility.yul\":2693:2832   */\n      swap3\n      swap2\n      pop\n      pop\n      jump\t// out\n        /* \"#utility.yul\":2838:3328   */\n    tag_32:\n        /* \"#utility.yul\":2914:2920   */\n      0x00\n        /* \"#utility.yul\":2922:2928   */\n      dup1\n        /* \"#utility.yul\":2971:2973   */\n      0x40\n        /* \"#utility.yul\":2959:2968   */\n      dup4\n        /* \"#utility.yul\":2950:2957   */\n      dup6\n        /* \"#utility.yul\":2946:2969   */\n      sub\n        /* \"#utility.yul\":2942:2974   */\n      slt\n        /* \"#utility.yul\":2939:3058   */\n      iszero\n      tag_205\n      jumpi\n        /* \"#utility.yul\":2977:3056   */\n      tag_206\n      tag_145\n      jump\t// in\n    tag_206:\n        /* \"#utility.yul\":2939:3058   */\n    tag_205:\n        /* \"#utility.yul\":3097:3098   */\n      0x00\n        /* \"#utility.yul\":3122:3183   */\n      tag_207\n        /* \"#utility.yul\":3175:3182   */\n      dup6\n        /* \"#utility.yul\":3166:3172   */\n      dup3\n        /* \"#utility.yul\":3155:3164   */\n      dup7\n        /* \"#utility.yul\":3151:3173   */\n      add\n        /* \"#utility.yul\":3122:3183   */\n      tag_149\n      jump\t// in\n    tag_207:\n        /* \"#utility.yul\":3112:3183   */\n      swap3\n      pop\n        /* \"#utility.yul\":3068:3193   */\n      pop\n        /* \"#utility.yul\":3232:3234   */\n      0x20\n        /* \"#utility.yul\":3258:3311   */\n      tag_208\n        /* \"#utility.yul\":3303:3310   */\n      dup6\n        /* \"#utility.yul\":3294:3300   */\n      dup3\n        /* \"#utility.yul\":3283:3292   */\n      dup7\n        /* \"#utility.yul\":3279:3301   */\n      add\n        /* \"#utility.yul\":3258:3311   */\n      tag_152\n      jump\t// in\n    tag_208:\n        /* \"#utility.yul\":3248:3311   */\n      swap2\n      pop\n        /* \"#utility.yul\":3203:3321   */\n      pop\n        /* \"#utility.yul\":2838:3328   */\n      swap3\n      pop\n      swap3\n      swap1\n      pop\n      jump\t// out\n        /* \"#utility.yul\":3334:3452   */\n    tag_153:\n        /* \"#utility.yul\":3421:3445   */\n      tag_210\n        /* \"#utility.yul\":3439:3444   */\n      dup2\n        /* \"#utility.yul\":3421:3445   */\n      tag_150\n      jump\t// in\n    tag_210:\n        /* \"#utility.yul\":3416:3419   */\n      dup3\n        /* \"#utility.yul\":3409:3446   */\n      mstore\n        /* \"#utility.yul\":3334:3452   */\n      pop\n      pop\n      jump\t// out\n        /* \"#utility.yul\":3458:3680   */\n    tag_41:\n        /* \"#utility.yul\":3551:3555   */\n      0x00\n        /* \"#utility.yul\":3589:3591   */\n      0x20\n        /* \"#utility.yul\":3578:3587   */\n      dup3\n        /* \"#utility.yul\":3574:3592   */\n      add\n        /* \"#utility.yul\":3566:3592   */\n      swap1\n      pop\n        /* \"#utility.yul\":3602:3673   */\n      tag_212\n        /* \"#utility.yul\":3670:3671   */\n      0x00\n        /* \"#utility.yul\":3659:3668   */\n      dup4\n        /* \"#utility.yul\":3655:3672   */\n      add\n        /* \"#utility.yul\":3646:3652   */\n      dup5\n        /* \"#utility.yul\":3602:3673   */\n      tag_153\n      jump\t// in\n    tag_212:\n        /* \"#utility.yul\":3458:3680   */\n      swap3\n      swap2\n      pop\n      pop\n      jump\t// out\n        /* \"#utility.yul\":3686:4031   */\n    tag_45:\n        /* \"#utility.yul\":3753:3759   */\n      0x00\n        /* \"#utility.yul\":3802:3804   */\n      0x20\n        /* \"#utility.yul\":3790:3799   */\n      dup3\n        /* \"#utility.yul\":3781:3788   */\n      dup5\n        /* \"#utility.yul\":3777:3800   */\n      sub\n        /* \"#utility.yul\":3773:3805   */\n      slt\n        /* \"#utility.yul\":3770:3889   */\n      iszero\n      tag_214\n      jumpi\n        /* \"#utility.yul\":3808:3887   */\n      tag_215\n      tag_145\n      jump\t// in\n    tag_215:\n        /* \"#utility.yul\":3770:3889   */\n    tag_214:\n        /* \"#utility.yul\":3928:3929   */\n      0x00\n        /* \"#utility.yul\":3953:4014   */\n      tag_216\n        /* \"#utility.yul\":4006:4013   */\n      dup5\n        /* \"#utility.yul\":3997:4003   */\n      dup3\n        /* \"#utility.yul\":3986:3995   */\n      dup6\n        /* \"#utility.yul\":3982:4004   */\n      add\n        /* \"#utility.yul\":3953:4014   */\n      tag_149\n      jump\t// in\n    tag_216:\n        /* \"#utility.yul\":3943:4014   */\n      swap2\n      pop\n        /* \"#utility.yul\":3899:4024   */\n      pop\n        /* \"#utility.yul\":3686:4031   */\n      swap3\n      swap2\n      pop\n      pop\n      jump\t// out\n        /* \"#utility.yul\":4037:4179   */\n    tag_154:\n        /* \"#utility.yul\":4140:4172   */\n      tag_218\n        /* \"#utility.yul\":4166:4171   */\n      dup2\n        /* \"#utility.yul\":4140:4172   */\n      tag_147\n      jump\t// in\n    tag_218:\n        /* \"#utility.yul\":4135:4138   */\n      dup3\n        /* \"#utility.yul\":4128:4173   */\n      mstore\n        /* \"#utility.yul\":4037:4179   */\n      pop\n      pop\n      jump\t// out\n        /* \"#utility.yul\":4185:4439   */\n    tag_52:\n        /* \"#utility.yul\":4294:4298   */\n      0x00\n        /* \"#utility.yul\":4332:4334   */\n      0x20\n        /* \"#utility.yul\":4321:4330   */\n      dup3\n        /* \"#utility.yul\":4317:4335   */\n      add\n        /* \"#utility.yul\":4309:4335   */\n      swap1\n      pop\n        /* \"#utility.yul\":4345:4432   */\n      tag_220\n        /* \"#utility.yul\":4429:4430   */\n      0x00\n        /* \"#utility.yul\":4418:4427   */\n      dup4\n        /* \"#utility.yul\":4414:4431   */\n      add\n        /* \"#utility.yul\":4405:4411   */\n      dup5\n        /* \"#utility.yul\":4345:4432   */\n      tag_154\n      jump\t// in\n    tag_220:\n        /* \"#utility.yul\":4185:4439   */\n      swap3\n      swap2\n      pop\n      pop\n      jump\t// out\n        /* \"#utility.yul\":4445:4774   */\n    tag_56:\n        /* \"#utility.yul\":4504:4510   */\n      0x00\n        /* \"#utility.yul\":4553:4555   */\n      0x20\n        /* \"#utility.yul\":4541:4550   */\n      dup3\n        /* \"#utility.yul\":4532:4539   */\n      dup5\n        /* \"#utility.yul\":4528:4551   */\n      sub\n        /* \"#utility.yul\":4524:4556   */\n      slt\n        /* \"#utility.yul\":4521:4640   */\n      iszero\n      tag_222\n      jumpi\n        /* \"#utility.yul\":4559:4638   */\n      tag_223\n      tag_145\n      jump\t// in\n    tag_223:\n        /* \"#utility.yul\":4521:4640   */\n    tag_222:\n        /* \"#utility.yul\":4679:4680   */\n      0x00\n        /* \"#utility.yul\":4704:4757   */\n      tag_224\n        /* \"#utility.yul\":4749:4756   */\n      dup5\n        /* \"#utility.yul\":4740:4746   */\n      dup3\n        /* \"#utility.yul\":4729:4738   */\n      dup6\n        /* \"#utility.yul\":4725:4747   */\n      add\n        /* \"#utility.yul\":4704:4757   */\n      tag_152\n      jump\t// in\n    tag_224:\n        /* \"#utility.yul\":4694:4757   */\n      swap2\n      pop\n        /* \"#utility.yul\":4650:4767   */\n      pop\n        /* \"#utility.yul\":4445:4774   */\n      swap3\n      swap2\n      pop\n      pop\n      jump\t// out\n        /* \"#utility.yul\":4780:4902   */\n    tag_155:\n        /* \"#utility.yul\":4853:4877   */\n      tag_226\n        /* \"#utility.yul\":4871:4876   */\n      dup2\n        /* \"#utility.yul\":4853:4877   */\n      tag_142\n      jump\t// in\n    tag_226:\n        /* \"#utility.yul\":4846:4851   */\n      dup2\n        /* \"#utility.yul\":4843:4878   */\n      eq\n        /* \"#utility.yul\":4833:4896   */\n      tag_227\n      jumpi\n        /* \"#utility.yul\":4892:4893   */\n      0x00\n        /* \"#utility.yul\":4889:4890   */\n      dup1\n        /* \"#utility.yul\":4882:4894   */\n      revert\n        /* \"#utility.yul\":4833:4896   */\n    tag_227:\n        /* \"#utility.yul\":4780:4902   */\n      pop\n      jump\t// out\n        /* \"#utility.yul\":4908:5047   */\n    tag_156:\n        /* \"#utility.yul\":4954:4959   */\n      0x00\n        /* \"#utility.yul\":4992:4998   */\n      dup2\n        /* \"#utility.yul\":4979:4999   */\n      calldataload\n        /* \"#utility.yul\":4970:4999   */\n      swap1\n      pop\n        /* \"#utility.yul\":5008:5041   */\n      tag_229\n        /* \"#utility.yul\":5035:5040   */\n      dup2\n        /* \"#utility.yul\":5008:5041   */\n      tag_155\n      jump\t// in\n    tag_229:\n        /* \"#utility.yul\":4908:5047   */\n      swap3\n      swap2\n      pop\n      pop\n      jump\t// out\n        /* \"#utility.yul\":5053:5382   */\n    tag_62:\n        /* \"#utility.yul\":5112:5118   */\n      0x00\n        /* \"#utility.yul\":5161:5163   */\n      0x20\n        /* \"#utility.yul\":5149:5158   */\n      dup3\n        /* \"#utility.yul\":5140:5147   */\n      dup5\n        /* \"#utility.yul\":5136:5159   */\n      sub\n        /* \"#utility.yul\":5132:5164   */\n      slt\n        /* \"#utility.yul\":5129:5248   */\n      iszero\n      tag_231\n      jumpi\n        /* \"#utility.yul\":5167:5246   */\n      tag_232\n      tag_145\n      jump\t// in\n    tag_232:\n        /* \"#utility.yul\":5129:5248   */\n    tag_231:\n        /* \"#utility.yul\":5287:5288   */\n      0x00\n        /* \"#utility.yul\":5312:5365   */\n      tag_233\n        /* \"#utility.yul\":5357:5364   */\n      dup5\n        /* \"#utility.yul\":5348:5354   */\n      dup3\n        /* \"#utility.yul\":5337:5346   */\n      dup6\n        /* \"#utility.yul\":5333:5355   */\n      add\n        /* \"#utility.yul\":5312:5365   */\n      tag_156\n      jump\t// in\n    tag_233:\n        /* \"#utility.yul\":5302:5365   */\n      swap2\n      pop\n        /* \"#utility.yul\":5258:5375   */\n      pop\n        /* \"#utility.yul\":5053:5382   */\n      swap3\n      swap2\n      pop\n      pop\n      jump\t// out\n        /* \"#utility.yul\":5388:5553   */\n    tag_157:\n        /* \"#utility.yul\":5528:5545   */\n      0x4e6f7420656e7567682066756e64730000000000000000000000000000000000\n        /* \"#utility.yul\":5524:5525   */\n      0x00\n        /* \"#utility.yul\":5516:5522   */\n      dup3\n        /* \"#utility.yul\":5512:5526   */\n      add\n        /* \"#utility.yul\":5505:5546   */\n      mstore\n        /* \"#utility.yul\":5388:5553   */\n      pop\n      jump\t// out\n        /* \"#utility.yul\":5559:5925   */\n    tag_158:\n        /* \"#utility.yul\":5701:5704   */\n      0x00\n        /* \"#utility.yul\":5722:5789   */\n      tag_236\n        /* \"#utility.yul\":5786:5788   */\n      0x0f\n        /* \"#utility.yul\":5781:5784   */\n      dup4\n        /* \"#utility.yul\":5722:5789   */\n      tag_138\n      jump\t// in\n    tag_236:\n        /* \"#utility.yul\":5715:5789   */\n      swap2\n      pop\n        /* \"#utility.yul\":5798:5891   */\n      tag_237\n        /* \"#utility.yul\":5887:5890   */\n      dup3\n        /* \"#utility.yul\":5798:5891   */\n      tag_157\n      jump\t// in\n    tag_237:\n        /* \"#utility.yul\":5916:5918   */\n      0x20\n        /* \"#utility.yul\":5911:5914   */\n      dup3\n        /* \"#utility.yul\":5907:5919   */\n      add\n        /* \"#utility.yul\":5900:5919   */\n      swap1\n      pop\n        /* \"#utility.yul\":5559:5925   */\n      swap2\n      swap1\n      pop\n      jump\t// out\n        /* \"#utility.yul\":5931:6350   */\n    tag_81:\n        /* \"#utility.yul\":6097:6101   */\n      0x00\n        /* \"#utility.yul\":6135:6137   */\n      0x20\n        /* \"#utility.yul\":6124:6133   */\n      dup3\n        /* \"#utility.yul\":6120:6138   */\n      add\n        /* \"#utility.yul\":6112:6138   */\n      swap1\n      pop\n        /* \"#utility.yul\":6184:6193   */\n      dup2\n        /* \"#utility.yul\":6178:6182   */\n      dup2\n        /* \"#utility.yul\":6174:6194   */\n      sub\n        /* \"#utility.yul\":6170:6171   */\n      0x00\n        /* \"#utility.yul\":6159:6168   */\n      dup4\n        /* \"#utility.yul\":6155:6172   */\n      add\n        /* \"#utility.yul\":6148:6195   */\n      mstore\n        /* \"#utility.yul\":6212:6343   */\n      tag_239\n        /* \"#utility.yul\":6338:6342   */\n      dup2\n        /* \"#utility.yul\":6212:6343   */\n      tag_158\n      jump\t// in\n    tag_239:\n        /* \"#utility.yul\":6204:6343   */\n      swap1\n      pop\n        /* \"#utility.yul\":5931:6350   */\n      swap2\n      swap1\n      pop\n      jump\t// out\n        /* \"#utility.yul\":6356:6532   */\n    tag_159:\n        /* \"#utility.yul\":6496:6524   */\n      0x5061796d656e74206e6f742073706c697420656e746972656c79000000000000\n        /* \"#utility.yul\":6492:6493   */\n      0x00\n        /* \"#utility.yul\":6484:6490   */\n      dup3\n        /* \"#utility.yul\":6480:6494   */\n      add\n        /* \"#utility.yul\":6473:6525   */\n      mstore\n        /* \"#utility.yul\":6356:6532   */\n      pop\n      jump\t// out\n        /* \"#utility.yul\":6538:6904   */\n    tag_160:\n        /* \"#utility.yul\":6680:6683   */\n      0x00\n        /* \"#utility.yul\":6701:6768   */\n      tag_242\n        /* \"#utility.yul\":6765:6767   */\n      0x1a\n        /* \"#utility.yul\":6760:6763   */\n      dup4\n        /* \"#utility.yul\":6701:6768   */\n      tag_138\n      jump\t// in\n    tag_242:\n        /* \"#utility.yul\":6694:6768   */\n      swap2\n      pop\n        /* \"#utility.yul\":6777:6870   */\n      tag_243\n        /* \"#utility.yul\":6866:6869   */\n      dup3\n        /* \"#utility.yul\":6777:6870   */\n      tag_159\n      jump\t// in\n    tag_243:\n        /* \"#utility.yul\":6895:6897   */\n      0x20\n        /* \"#utility.yul\":6890:6893   */\n      dup3\n        /* \"#utility.yul\":6886:6898   */\n      add\n        /* \"#utility.yul\":6879:6898   */\n      swap1\n      pop\n        /* \"#utility.yul\":6538:6904   */\n      swap2\n      swap1\n      pop\n      jump\t// out\n        /* \"#utility.yul\":6910:7329   */\n    tag_86:\n        /* \"#utility.yul\":7076:7080   */\n      0x00\n        /* \"#utility.yul\":7114:7116   */\n      0x20\n        /* \"#utility.yul\":7103:7112   */\n      dup3\n        /* \"#utility.yul\":7099:7117   */\n      add\n        /* \"#utility.yul\":7091:7117   */\n      swap1\n      pop\n        /* \"#utility.yul\":7163:7172   */\n      dup2\n        /* \"#utility.yul\":7157:7161   */\n      dup2\n        /* \"#utility.yul\":7153:7173   */\n      sub\n        /* \"#utility.yul\":7149:7150   */\n      0x00\n        /* \"#utility.yul\":7138:7147   */\n      dup4\n        /* \"#utility.yul\":7134:7151   */\n      add\n        /* \"#utility.yul\":7127:7174   */\n      mstore\n        /* \"#utility.yul\":7191:7322   */\n      tag_245\n        /* \"#utility.yul\":7317:7321   */\n      dup2\n        /* \"#utility.yul\":7191:7322   */\n      tag_160\n      jump\t// in\n    tag_245:\n        /* \"#utility.yul\":7183:7322   */\n      swap1\n      pop\n        /* \"#utility.yul\":6910:7329   */\n      swap2\n      swap1\n      pop\n      jump\t// out\n        /* \"#utility.yul\":7335:7515   */\n    tag_92:\n        /* \"#utility.yul\":7383:7460   */\n      0x4e487b7100000000000000000000000000000000000000000000000000000000\n        /* \"#utility.yul\":7380:7381   */\n      0x00\n        /* \"#utility.yul\":7373:7461   */\n      mstore\n        /* \"#utility.yul\":7480:7484   */\n      0x32\n        /* \"#utility.yul\":7477:7478   */\n      0x04\n        /* \"#utility.yul\":7470:7485   */\n      mstore\n        /* \"#utility.yul\":7504:7508   */\n      0x24\n        /* \"#utility.yul\":7501:7502   */\n      0x00\n        /* \"#utility.yul\":7494:7509   */\n      revert\n        /* \"#utility.yul\":7521:7701   */\n    tag_161:\n        /* \"#utility.yul\":7569:7646   */\n      0x4e487b7100000000000000000000000000000000000000000000000000000000\n        /* \"#utility.yul\":7566:7567   */\n      0x00\n        /* \"#utility.yul\":7559:7647   */\n      mstore\n        /* \"#utility.yul\":7666:7670   */\n      0x12\n        /* \"#utility.yul\":7663:7664   */\n      0x04\n        /* \"#utility.yul\":7656:7671   */\n      mstore\n        /* \"#utility.yul\":7690:7694   */\n      0x24\n        /* \"#utility.yul\":7687:7688   */\n      0x00\n        /* \"#utility.yul\":7680:7695   */\n      revert\n        /* \"#utility.yul\":7707:7887   */\n    tag_162:\n        /* \"#utility.yul\":7755:7832   */\n      0x4e487b7100000000000000000000000000000000000000000000000000000000\n        /* \"#utility.yul\":7752:7753   */\n      0x00\n        /* \"#utility.yul\":7745:7833   */\n      mstore\n        /* \"#utility.yul\":7852:7856   */\n      0x11\n        /* \"#utility.yul\":7849:7850   */\n      0x04\n        /* \"#utility.yul\":7842:7857   */\n      mstore\n        /* \"#utility.yul\":7876:7880   */\n      0x24\n        /* \"#utility.yul\":7873:7874   */\n      0x00\n        /* \"#utility.yul\":7866:7881   */\n      revert\n        /* \"#utility.yul\":7893:8078   */\n    tag_95:\n        /* \"#utility.yul\":7933:7934   */\n      0x00\n        /* \"#utility.yul\":7950:7970   */\n      tag_250\n        /* \"#utility.yul\":7968:7969   */\n      dup3\n        /* \"#utility.yul\":7950:7970   */\n      tag_150\n      jump\t// in\n    tag_250:\n        /* \"#utility.yul\":7945:7970   */\n      swap2\n      pop\n        /* \"#utility.yul\":7984:8004   */\n      tag_251\n        /* \"#utility.yul\":8002:8003   */\n      dup4\n        /* \"#utility.yul\":7984:8004   */\n      tag_150\n      jump\t// in\n    tag_251:\n        /* \"#utility.yul\":7979:8004   */\n      swap3\n      pop\n        /* \"#utility.yul\":8023:8024   */\n      dup3\n        /* \"#utility.yul\":8013:8048   */\n      tag_252\n      jumpi\n        /* \"#utility.yul\":8028:8046   */\n      tag_253\n      tag_161\n      jump\t// in\n    tag_253:\n        /* \"#utility.yul\":8013:8048   */\n    tag_252:\n        /* \"#utility.yul\":8070:8071   */\n      dup3\n        /* \"#utility.yul\":8067:8068   */\n      dup3\n        /* \"#utility.yul\":8063:8072   */\n      div\n        /* \"#utility.yul\":8058:8072   */\n      swap1\n      pop\n        /* \"#utility.yul\":7893:8078   */\n      swap3\n      swap2\n      pop\n      pop\n      jump\t// out\n        /* \"#utility.yul\":8084:8494   */\n    tag_97:\n        /* \"#utility.yul\":8124:8131   */\n      0x00\n        /* \"#utility.yul\":8147:8167   */\n      tag_255\n        /* \"#utility.yul\":8165:8166   */\n      dup3\n        /* \"#utility.yul\":8147:8167   */\n      tag_150\n      jump\t// in\n    tag_255:\n        /* \"#utility.yul\":8142:8167   */\n      swap2\n      pop\n        /* \"#utility.yul\":8181:8201   */\n      tag_256\n        /* \"#utility.yul\":8199:8200   */\n      dup4\n        /* \"#utility.yul\":8181:8201   */\n      tag_150\n      jump\t// in\n    tag_256:\n        /* \"#utility.yul\":8176:8201   */\n      swap3\n      pop\n        /* \"#utility.yul\":8236:8237   */\n      dup3\n        /* \"#utility.yul\":8233:8234   */\n      dup3\n        /* \"#utility.yul\":8229:8238   */\n      mul\n        /* \"#utility.yul\":8258:8288   */\n      tag_257\n        /* \"#utility.yul\":8276:8287   */\n      dup2\n        /* \"#utility.yul\":8258:8288   */\n      tag_150\n      jump\t// in\n    tag_257:\n        /* \"#utility.yul\":8247:8288   */\n      swap2\n      pop\n        /* \"#utility.yul\":8437:8438   */\n      dup3\n        /* \"#utility.yul\":8428:8435   */\n      dup3\n        /* \"#utility.yul\":8424:8439   */\n      div\n        /* \"#utility.yul\":8421:8422   */\n      dup5\n        /* \"#utility.yul\":8418:8440   */\n      eq\n        /* \"#utility.yul\":8398:8399   */\n      dup4\n        /* \"#utility.yul\":8391:8400   */\n      iszero\n        /* \"#utility.yul\":8371:8454   */\n      or\n        /* \"#utility.yul\":8348:8487   */\n      tag_258\n      jumpi\n        /* \"#utility.yul\":8467:8485   */\n      tag_259\n      tag_162\n      jump\t// in\n    tag_259:\n        /* \"#utility.yul\":8348:8487   */\n    tag_258:\n        /* \"#utility.yul\":8132:8494   */\n      pop\n        /* \"#utility.yul\":8084:8494   */\n      swap3\n      swap2\n      pop\n      pop\n      jump\t// out\n        /* \"#utility.yul\":8500:8647   */\n    tag_163:\n        /* \"#utility.yul\":8601:8612   */\n      0x00\n        /* \"#utility.yul\":8638:8641   */\n      dup2\n        /* \"#utility.yul\":8623:8641   */\n      swap1\n      pop\n        /* \"#utility.yul\":8500:8647   */\n      swap3\n      swap2\n      pop\n      pop\n      jump\t// out\n        /* \"#utility.yul\":8653:8767   */\n    tag_164:\n      pop\n      jump\t// out\n        /* \"#utility.yul\":8773:9171   */\n    tag_165:\n        /* \"#utility.yul\":8932:8935   */\n      0x00\n        /* \"#utility.yul\":8953:9036   */\n      tag_263\n        /* \"#utility.yul\":9034:9035   */\n      0x00\n        /* \"#utility.yul\":9029:9032   */\n      dup4\n        /* \"#utility.yul\":8953:9036   */\n      tag_163\n      jump\t// in\n    tag_263:\n        /* \"#utility.yul\":8946:9036   */\n      swap2\n      pop\n        /* \"#utility.yul\":9045:9138   */\n      tag_264\n        /* \"#utility.yul\":9134:9137   */\n      dup3\n        /* \"#utility.yul\":9045:9138   */\n      tag_164\n      jump\t// in\n    tag_264:\n        /* \"#utility.yul\":9163:9164   */\n      0x00\n        /* \"#utility.yul\":9158:9161   */\n      dup3\n        /* \"#utility.yul\":9154:9165   */\n      add\n        /* \"#utility.yul\":9147:9165   */\n      swap1\n      pop\n        /* \"#utility.yul\":8773:9171   */\n      swap2\n      swap1\n      pop\n      jump\t// out\n        /* \"#utility.yul\":9177:9556   */\n    tag_102:\n        /* \"#utility.yul\":9361:9364   */\n      0x00\n        /* \"#utility.yul\":9383:9530   */\n      tag_266\n        /* \"#utility.yul\":9526:9529   */\n      dup3\n        /* \"#utility.yul\":9383:9530   */\n      tag_165\n      jump\t// in\n    tag_266:\n        /* \"#utility.yul\":9376:9530   */\n      swap2\n      pop\n        /* \"#utility.yul\":9547:9550   */\n      dup2\n        /* \"#utility.yul\":9540:9550   */\n      swap1\n      pop\n        /* \"#utility.yul\":9177:9556   */\n      swap2\n      swap1\n      pop\n      jump\t// out\n        /* \"#utility.yul\":9562:9735   */\n    tag_166:\n        /* \"#utility.yul\":9702:9727   */\n      0x52657475726e206665652066756e6473206661696c6564000000000000000000\n        /* \"#utility.yul\":9698:9699   */\n      0x00\n        /* \"#utility.yul\":9690:9696   */\n      dup3\n        /* \"#utility.yul\":9686:9700   */\n      add\n        /* \"#utility.yul\":9679:9728   */\n      mstore\n        /* \"#utility.yul\":9562:9735   */\n      pop\n      jump\t// out\n        /* \"#utility.yul\":9741:10107   */\n    tag_167:\n        /* \"#utility.yul\":9883:9886   */\n      0x00\n        /* \"#utility.yul\":9904:9971   */\n      tag_269\n        /* \"#utility.yul\":9968:9970   */\n      0x17\n        /* \"#utility.yul\":9963:9966   */\n      dup4\n        /* \"#utility.yul\":9904:9971   */\n      tag_138\n      jump\t// in\n    tag_269:\n        /* \"#utility.yul\":9897:9971   */\n      swap2\n      pop\n        /* \"#utility.yul\":9980:10073   */\n      tag_270\n        /* \"#utility.yul\":10069:10072   */\n      dup3\n        /* \"#utility.yul\":9980:10073   */\n      tag_166\n      jump\t// in\n    tag_270:\n        /* \"#utility.yul\":10098:10100   */\n      0x20\n        /* \"#utility.yul\":10093:10096   */\n      dup3\n        /* \"#utility.yul\":10089:10101   */\n      add\n        /* \"#utility.yul\":10082:10101   */\n      swap1\n      pop\n        /* \"#utility.yul\":9741:10107   */\n      swap2\n      swap1\n      pop\n      jump\t// out\n        /* \"#utility.yul\":10113:10532   */\n    tag_108:\n        /* \"#utility.yul\":10279:10283   */\n      0x00\n        /* \"#utility.yul\":10317:10319   */\n      0x20\n        /* \"#utility.yul\":10306:10315   */\n      dup3\n        /* \"#utility.yul\":10302:10320   */\n      add\n        /* \"#utility.yul\":10294:10320   */\n      swap1\n      pop\n        /* \"#utility.yul\":10366:10375   */\n      dup2\n        /* \"#utility.yul\":10360:10364   */\n      dup2\n        /* \"#utility.yul\":10356:10376   */\n      sub\n        /* \"#utility.yul\":10352:10353   */\n      0x00\n        /* \"#utility.yul\":10341:10350   */\n      dup4\n        /* \"#utility.yul\":10337:10354   */\n      add\n        /* \"#utility.yul\":10330:10377   */\n      mstore\n        /* \"#utility.yul\":10394:10525   */\n      tag_272\n        /* \"#utility.yul\":10520:10524   */\n      dup2\n        /* \"#utility.yul\":10394:10525   */\n      tag_167\n      jump\t// in\n    tag_272:\n        /* \"#utility.yul\":10386:10525   */\n      swap1\n      pop\n        /* \"#utility.yul\":10113:10532   */\n      swap2\n      swap1\n      pop\n      jump\t// out\n        /* \"#utility.yul\":10538:10598   */\n    tag_168:\n        /* \"#utility.yul\":10566:10569   */\n      0x00\n        /* \"#utility.yul\":10587:10592   */\n      dup2\n        /* \"#utility.yul\":10580:10592   */\n      swap1\n      pop\n        /* \"#utility.yul\":10538:10598   */\n      swap2\n      swap1\n      pop\n      jump\t// out\n        /* \"#utility.yul\":10604:10746   */\n    tag_169:\n        /* \"#utility.yul\":10654:10663   */\n      0x00\n        /* \"#utility.yul\":10687:10740   */\n      tag_275\n        /* \"#utility.yul\":10705:10739   */\n      tag_276\n        /* \"#utility.yul\":10714:10738   */\n      tag_277\n        /* \"#utility.yul\":10732:10737   */\n      dup5\n        /* \"#utility.yul\":10714:10738   */\n      tag_141\n      jump\t// in\n    tag_277:\n        /* \"#utility.yul\":10705:10739   */\n      tag_168\n      jump\t// in\n    tag_276:\n        /* \"#utility.yul\":10687:10740   */\n      tag_141\n      jump\t// in\n    tag_275:\n        /* \"#utility.yul\":10674:10740   */\n      swap1\n      pop\n        /* \"#utility.yul\":10604:10746   */\n      swap2\n      swap1\n      pop\n      jump\t// out\n        /* \"#utility.yul\":10752:10878   */\n    tag_170:\n        /* \"#utility.yul\":10802:10811   */\n      0x00\n        /* \"#utility.yul\":10835:10872   */\n      tag_279\n        /* \"#utility.yul\":10866:10871   */\n      dup3\n        /* \"#utility.yul\":10835:10872   */\n      tag_169\n      jump\t// in\n    tag_279:\n        /* \"#utility.yul\":10822:10872   */\n      swap1\n      pop\n        /* \"#utility.yul\":10752:10878   */\n      swap2\n      swap1\n      pop\n      jump\t// out\n        /* \"#utility.yul\":10884:11018   */\n    tag_171:\n        /* \"#utility.yul\":10942:10951   */\n      0x00\n        /* \"#utility.yul\":10975:11012   */\n      tag_281\n        /* \"#utility.yul\":11006:11011   */\n      dup3\n        /* \"#utility.yul\":10975:11012   */\n      tag_170\n      jump\t// in\n    tag_281:\n        /* \"#utility.yul\":10962:11012   */\n      swap1\n      pop\n        /* \"#utility.yul\":10884:11018   */\n      swap2\n      swap1\n      pop\n      jump\t// out\n        /* \"#utility.yul\":11024:11171   */\n    tag_172:\n        /* \"#utility.yul\":11119:11164   */\n      tag_283\n        /* \"#utility.yul\":11158:11163   */\n      dup2\n        /* \"#utility.yul\":11119:11164   */\n      tag_171\n      jump\t// in\n    tag_283:\n        /* \"#utility.yul\":11114:11117   */\n      dup3\n        /* \"#utility.yul\":11107:11165   */\n      mstore\n        /* \"#utility.yul\":11024:11171   */\n      pop\n      pop\n      jump\t// out\n        /* \"#utility.yul\":11177:11525   */\n    tag_113:\n        /* \"#utility.yul\":11306:11310   */\n      0x00\n        /* \"#utility.yul\":11344:11346   */\n      0x40\n        /* \"#utility.yul\":11333:11342   */\n      dup3\n        /* \"#utility.yul\":11329:11347   */\n      add\n        /* \"#utility.yul\":11321:11347   */\n      swap1\n      pop\n        /* \"#utility.yul\":11357:11436   */\n      tag_285\n        /* \"#utility.yul\":11433:11434   */\n      0x00\n        /* \"#utility.yul\":11422:11431   */\n      dup4\n        /* \"#utility.yul\":11418:11435   */\n      add\n        /* \"#utility.yul\":11409:11415   */\n      dup6\n        /* \"#utility.yul\":11357:11436   */\n      tag_172\n      jump\t// in\n    tag_285:\n        /* \"#utility.yul\":11446:11518   */\n      tag_286\n        /* \"#utility.yul\":11514:11516   */\n      0x20\n        /* \"#utility.yul\":11503:11512   */\n      dup4\n        /* \"#utility.yul\":11499:11517   */\n      add\n        /* \"#utility.yul\":11490:11496   */\n      dup5\n        /* \"#utility.yul\":11446:11518   */\n      tag_153\n      jump\t// in\n    tag_286:\n        /* \"#utility.yul\":11177:11525   */\n      swap4\n      swap3\n      pop\n      pop\n      pop\n      jump\t// out\n        /* \"#utility.yul\":11531:11764   */\n    tag_115:\n        /* \"#utility.yul\":11570:11573   */\n      0x00\n        /* \"#utility.yul\":11593:11617   */\n      tag_288\n        /* \"#utility.yul\":11611:11616   */\n      dup3\n        /* \"#utility.yul\":11593:11617   */\n      tag_150\n      jump\t// in\n    tag_288:\n        /* \"#utility.yul\":11584:11617   */\n      swap2\n      pop\n        /* \"#utility.yul\":11639:11705   */\n      0xffffffffffffffffffffffffffffffffffffffffffffffffffffffffffffffff\n        /* \"#utility.yul\":11632:11637   */\n      dup3\n        /* \"#utility.yul\":11629:11706   */\n      sub\n        /* \"#utility.yul\":11626:11729   */\n      tag_289\n      jumpi\n        /* \"#utility.yul\":11709:11727   */\n      tag_290\n      tag_162\n      jump\t// in\n    tag_290:\n        /* \"#utility.yul\":11626:11729   */\n    tag_289:\n        /* \"#utility.yul\":11756:11757   */\n      0x01\n        /* \"#utility.yul\":11749:11754   */\n      dup3\n        /* \"#utility.yul\":11745:11758   */\n      add\n        /* \"#utility.yul\":11738:11758   */\n      swap1\n      pop\n        /* \"#utility.yul\":11531:11764   */\n      swap2\n      swap1\n      pop\n      jump\t// out\n        /* \"#utility.yul\":11770:11961   */\n    tag_124:\n        /* \"#utility.yul\":11810:11813   */\n      0x00\n        /* \"#utility.yul\":11829:11849   */\n      tag_292\n        /* \"#utility.yul\":11847:11848   */\n      dup3\n        /* \"#utility.yul\":11829:11849   */\n      tag_150\n      jump\t// in\n    tag_292:\n        /* \"#utility.yul\":11824:11849   */\n      swap2\n      pop\n        /* \"#utility.yul\":11863:11883   */\n      tag_293\n        /* \"#utility.yul\":11881:11882   */\n      dup4\n        /* \"#utility.yul\":11863:11883   */\n      tag_150\n      jump\t// in\n    tag_293:\n        /* \"#utility.yul\":11858:11883   */\n      swap3\n      pop\n        /* \"#utility.yul\":11906:11907   */\n      dup3\n        /* \"#utility.yul\":11903:11904   */\n      dup3\n        /* \"#utility.yul\":11899:11908   */\n      add\n        /* \"#utility.yul\":11892:11908   */\n      swap1\n      pop\n        /* \"#utility.yul\":11927:11930   */\n      dup1\n        /* \"#utility.yul\":11924:11925   */\n      dup3\n        /* \"#utility.yul\":11921:11931   */\n      gt\n        /* \"#utility.yul\":11918:11954   */\n      iszero\n      tag_294\n      jumpi\n        /* \"#utility.yul\":11934:11952   */\n      tag_295\n      tag_162\n      jump\t// in\n    tag_295:\n        /* \"#utility.yul\":11918:11954   */\n    tag_294:\n        /* \"#utility.yul\":11770:11961   */\n      swap3\n      swap2\n      pop\n      pop\n      jump\t// out\n\n    auxdata: 0xa2646970667358221220f7ada383978115c193573c545e3c5b87db83250470bdf70760c621b866cd3c4064736f6c63430008110033\n}\n",
				"bytecode": {
					"linkReferences": {},
					"object": "60806040523480156200001157600080fd5b5060405162001196380380620011968339818101604052810190620000379190620000e8565b806000806101000a81548173ffffffffffffffffffffffffffffffffffffffff021916908373ffffffffffffffffffffffffffffffffffffffff160217905550506200011a565b600080fd5b600073ffffffffffffffffffffffffffffffffffffffff82169050919050565b6000620000b08262000083565b9050919050565b620000c281620000a3565b8114620000ce57600080fd5b50565b600081519050620000e281620000b7565b92915050565b6000602082840312156200010157620001006200007e565b5b60006200011184828501620000d1565b91505092915050565b61106c806200012a6000396000f3fe60806040526004361061008a5760003560e01c80638a0e72bb116100595780638a0e72bb146102455780638da5cb5b14610282578063d1bc76a1146102ad578063e59de500146102ea578063ecefc705146103275761011f565b806338cc4831146101af5780633afe58af146101da5780636a9df2b5146102035780637ae316d01461021a5761011f565b3661011f5760008054906101000a900473ffffffffffffffffffffffffffffffffffffffff1673ffffffffffffffffffffffffffffffffffffffff163373ffffffffffffffffffffffffffffffffffffffff161461011d576040517f08c379a000000000000000000000000000000000000000000000000000000000815260040161011490610a6c565b60405180910390fd5b005b60008054906101000a900473ffffffffffffffffffffffffffffffffffffffff1673ffffffffffffffffffffffffffffffffffffffff163373ffffffffffffffffffffffffffffffffffffffff16146101ad576040517f08c379a00000000000000000000000000000000000000000000000000000000081526004016101a490610a6c565b60405180910390fd5b005b3480156101bb57600080fd5b506101c4610352565b6040516101d19190610acd565b60405180910390f35b3480156101e657600080fd5b5061020160048036038101906101fc9190610b61565b61035a565b005b34801561020f57600080fd5b50610218610493565b005b34801561022657600080fd5b5061022f6107d7565b60405161023c9190610bb0565b60405180910390f35b34801561025157600080fd5b5061026c60048036038101906102679190610bcb565b61088e565b6040516102799190610bb0565b60405180910390f35b34801561028e57600080fd5b506102976108d7565b6040516102a49190610c07565b60405180910390f35b3480156102b957600080fd5b506102d460048036038101906102cf9190610c22565b6108fb565b6040516102e19190610c07565b60405180910390f35b3480156102f657600080fd5b50610311600480360381019061030c9190610c7b565b61093a565b60405161031e9190610bb0565b60405180910390f35b34801561033357600080fd5b5061033c610952565b6040516103499190610bb0565b60405180910390f35b600030905090565b60008054906101000a900473ffffffffffffffffffffffffffffffffffffffff1673ffffffffffffffffffffffffffffffffffffffff163373ffffffffffffffffffffffffffffffffffffffff16146103e8576040517f08c379a00000000000000000000000000000000000000000000000000000000081526004016103df90610a6c565b60405180910390fd5b80600160008473ffffffffffffffffffffffffffffffffffffffff1673ffffffffffffffffffffffffffffffffffffffff168152602001908152602001600020819055506002829080600181540180825580915050600190039060005260206000200160009091909190916101000a81548173ffffffffffffffffffffffffffffffffffffffff021916908373ffffffffffffffffffffffffffffffffffffffff1602179055505050565b60008054906101000a900473ffffffffffffffffffffffffffffffffffffffff1673ffffffffffffffffffffffffffffffffffffffff163373ffffffffffffffffffffffffffffffffffffffff1614610521576040517f08c379a000000000000000000000000000000000000000000000000000000000815260040161051890610a6c565b60405180910390fd5b60004703610564576040517f08c379a000000000000000000000000000000000000000000000000000000000815260040161055b90610cf4565b60405180910390fd5b61271061056f610958565b146105af576040517f08c379a00000000000000000000000000000000000000000000000000000000081526004016105a690610d60565b60405180910390fd5b60008047905060005b6002805490508110156107d25760016000600283815481106105dd576105dc610d80565b5b9060005260206000200160009054906101000a900473ffffffffffffffffffffffffffffffffffffffff1673ffffffffffffffffffffffffffffffffffffffff1673ffffffffffffffffffffffffffffffffffffffff16815260200190815260200160002054612710836106519190610e0d565b61065b9190610e3e565b925060006002828154811061067357610672610d80565b5b9060005260206000200160009054906101000a900473ffffffffffffffffffffffffffffffffffffffff1673ffffffffffffffffffffffffffffffffffffffff16846040516106c190610eb1565b60006040518083038185875af1925050503d80600081146106fe576040519150601f19603f3d011682016040523d82523d6000602084013e610703565b606091505b5050905080610747576040517f08c379a000000000000000000000000000000000000000000000000000000000815260040161073e90610f12565b60405180910390fd5b7f075a2720282fdf622141dae0b048ef90a21a7e57c134c76912d19d006b3b3f6f6002838154811061077c5761077b610d80565b5b9060005260206000200160009054906101000a900473ffffffffffffffffffffffffffffffffffffffff16856040516107b6929190610f91565b60405180910390a15080806107ca90610fba565b9150506105b8565b505050565b600080600090505b60028054905081101561088a57600160006002838154811061080457610803610d80565b5b9060005260206000200160009054906101000a900473ffffffffffffffffffffffffffffffffffffffff1673ffffffffffffffffffffffffffffffffffffffff1673ffffffffffffffffffffffffffffffffffffffff16815260200190815260200160002054826108759190611002565b9150808061088290610fba565b9150506107df565b5090565b6000600160008373ffffffffffffffffffffffffffffffffffffffff1673ffffffffffffffffffffffffffffffffffffffff168152602001908152602001600020549050919050565b60008054906101000a900473ffffffffffffffffffffffffffffffffffffffff1681565b6002818154811061090b57600080fd5b906000526020600020016000915054906101000a900473ffffffffffffffffffffffffffffffffffffffff1681565b60016020528060005260406000206000915090505481565b61271081565b600080600090505b600280549050811015610a0b57600160006002838154811061098557610984610d80565b5b9060005260206000200160009054906101000a900473ffffffffffffffffffffffffffffffffffffffff1673ffffffffffffffffffffffffffffffffffffffff1673ffffffffffffffffffffffffffffffffffffffff16815260200190815260200160002054826109f69190611002565b91508080610a0390610fba565b915050610960565b5090565b600082825260208201905092915050565b7f53656e646572206973206e6f74206f776e657200000000000000000000000000600082015250565b6000610a56601383610a0f565b9150610a6182610a20565b602082019050919050565b60006020820190508181036000830152610a8581610a49565b9050919050565b600073ffffffffffffffffffffffffffffffffffffffff82169050919050565b6000610ab782610a8c565b9050919050565b610ac781610aac565b82525050565b6000602082019050610ae26000830184610abe565b92915050565b600080fd5b6000610af882610a8c565b9050919050565b610b0881610aed565b8114610b1357600080fd5b50565b600081359050610b2581610aff565b92915050565b6000819050919050565b610b3e81610b2b565b8114610b4957600080fd5b50565b600081359050610b5b81610b35565b92915050565b60008060408385031215610b7857610b77610ae8565b5b6000610b8685828601610b16565b9250506020610b9785828601610b4c565b9150509250929050565b610baa81610b2b565b82525050565b6000602082019050610bc56000830184610ba1565b92915050565b600060208284031215610be157610be0610ae8565b5b6000610bef84828501610b16565b91505092915050565b610c0181610aed565b82525050565b6000602082019050610c1c6000830184610bf8565b92915050565b600060208284031215610c3857610c37610ae8565b5b6000610c4684828501610b4c565b91505092915050565b610c5881610aac565b8114610c6357600080fd5b50565b600081359050610c7581610c4f565b92915050565b600060208284031215610c9157610c90610ae8565b5b6000610c9f84828501610c66565b91505092915050565b7f4e6f7420656e7567682066756e64730000000000000000000000000000000000600082015250565b6000610cde600f83610a0f565b9150610ce982610ca8565b602082019050919050565b60006020820190508181036000830152610d0d81610cd1565b9050919050565b7f5061796d656e74206e6f742073706c697420656e746972656c79000000000000600082015250565b6000610d4a601a83610a0f565b9150610d5582610d14565b602082019050919050565b60006020820190508181036000830152610d7981610d3d565b9050919050565b7f4e487b7100000000000000000000000000000000000000000000000000000000600052603260045260246000fd5b7f4e487b7100000000000000000000000000000000000000000000000000000000600052601260045260246000fd5b7f4e487b7100000000000000000000000000000000000000000000000000000000600052601160045260246000fd5b6000610e1882610b2b565b9150610e2383610b2b565b925082610e3357610e32610daf565b5b828204905092915050565b6000610e4982610b2b565b9150610e5483610b2b565b9250828202610e6281610b2b565b91508282048414831517610e7957610e78610dde565b5b5092915050565b600081905092915050565b50565b6000610e9b600083610e80565b9150610ea682610e8b565b600082019050919050565b6000610ebc82610e8e565b9150819050919050565b7f52657475726e206665652066756e6473206661696c6564000000000000000000600082015250565b6000610efc601783610a0f565b9150610f0782610ec6565b602082019050919050565b60006020820190508181036000830152610f2b81610eef565b9050919050565b6000819050919050565b6000610f57610f52610f4d84610a8c565b610f32565b610a8c565b9050919050565b6000610f6982610f3c565b9050919050565b6000610f7b82610f5e565b9050919050565b610f8b81610f70565b82525050565b6000604082019050610fa66000830185610f82565b610fb36020830184610ba1565b9392505050565b6000610fc582610b2b565b91507fffffffffffffffffffffffffffffffffffffffffffffffffffffffffffffffff8203610ff757610ff6610dde565b5b600182019050919050565b600061100d82610b2b565b915061101883610b2b565b92508282019050808211156110305761102f610dde565b5b9291505056fea2646970667358221220f7ada383978115c193573c545e3c5b87db83250470bdf70760c621b866cd3c4064736f6c63430008110033",
					"opcodes": "PUSH1 0x80 PUSH1 0x40 MSTORE CALLVALUE DUP1 ISZERO PUSH3 0x11 JUMPI PUSH1 0x0 DUP1 REVERT JUMPDEST POP PUSH1 0x40 MLOAD PUSH3 0x1196 CODESIZE SUB DUP1 PUSH3 0x1196 DUP4 CODECOPY DUP2 DUP2 ADD PUSH1 0x40 MSTORE DUP2 ADD SWAP1 PUSH3 0x37 SWAP2 SWAP1 PUSH3 0xE8 JUMP JUMPDEST DUP1 PUSH1 0x0 DUP1 PUSH2 0x100 EXP DUP2 SLOAD DUP2 PUSH20 0xFFFFFFFFFFFFFFFFFFFFFFFFFFFFFFFFFFFFFFFF MUL NOT AND SWAP1 DUP4 PUSH20 0xFFFFFFFFFFFFFFFFFFFFFFFFFFFFFFFFFFFFFFFF AND MUL OR SWAP1 SSTORE POP POP PUSH3 0x11A JUMP JUMPDEST PUSH1 0x0 DUP1 REVERT JUMPDEST PUSH1 0x0 PUSH20 0xFFFFFFFFFFFFFFFFFFFFFFFFFFFFFFFFFFFFFFFF DUP3 AND SWAP1 POP SWAP2 SWAP1 POP JUMP JUMPDEST PUSH1 0x0 PUSH3 0xB0 DUP3 PUSH3 0x83 JUMP JUMPDEST SWAP1 POP SWAP2 SWAP1 POP JUMP JUMPDEST PUSH3 0xC2 DUP2 PUSH3 0xA3 JUMP JUMPDEST DUP2 EQ PUSH3 0xCE JUMPI PUSH1 0x0 DUP1 REVERT JUMPDEST POP JUMP JUMPDEST PUSH1 0x0 DUP2 MLOAD SWAP1 POP PUSH3 0xE2 DUP2 PUSH3 0xB7 JUMP JUMPDEST SWAP3 SWAP2 POP POP JUMP JUMPDEST PUSH1 0x0 PUSH1 0x20 DUP3 DUP5 SUB SLT ISZERO PUSH3 0x101 JUMPI PUSH3 0x100 PUSH3 0x7E JUMP JUMPDEST JUMPDEST PUSH1 0x0 PUSH3 0x111 DUP5 DUP3 DUP6 ADD PUSH3 0xD1 JUMP JUMPDEST SWAP2 POP POP SWAP3 SWAP2 POP POP JUMP JUMPDEST PUSH2 0x106C DUP1 PUSH3 0x12A PUSH1 0x0 CODECOPY PUSH1 0x0 RETURN INVALID PUSH1 0x80 PUSH1 0x40 MSTORE PUSH1 0x4 CALLDATASIZE LT PUSH2 0x8A JUMPI PUSH1 0x0 CALLDATALOAD PUSH1 0xE0 SHR DUP1 PUSH4 0x8A0E72BB GT PUSH2 0x59 JUMPI DUP1 PUSH4 0x8A0E72BB EQ PUSH2 0x245 JUMPI DUP1 PUSH4 0x8DA5CB5B EQ PUSH2 0x282 JUMPI DUP1 PUSH4 0xD1BC76A1 EQ PUSH2 0x2AD JUMPI DUP1 PUSH4 0xE59DE500 EQ PUSH2 0x2EA JUMPI DUP1 PUSH4 0xECEFC705 EQ PUSH2 0x327 JUMPI PUSH2 0x11F JUMP JUMPDEST DUP1 PUSH4 0x38CC4831 EQ PUSH2 0x1AF JUMPI DUP1 PUSH4 0x3AFE58AF EQ PUSH2 0x1DA JUMPI DUP1 PUSH4 0x6A9DF2B5 EQ PUSH2 0x203 JUMPI DUP1 PUSH4 0x7AE316D0 EQ PUSH2 0x21A JUMPI PUSH2 0x11F JUMP JUMPDEST CALLDATASIZE PUSH2 0x11F JUMPI PUSH1 0x0 DUP1 SLOAD SWAP1 PUSH2 0x100 EXP SWAP1 DIV PUSH20 0xFFFFFFFFFFFFFFFFFFFFFFFFFFFFFFFFFFFFFFFF AND PUSH20 0xFFFFFFFFFFFFFFFFFFFFFFFFFFFFFFFFFFFFFFFF AND CALLER PUSH20 0xFFFFFFFFFFFFFFFFFFFFFFFFFFFFFFFFFFFFFFFF AND EQ PUSH2 0x11D JUMPI PUSH1 0x40 MLOAD PUSH32 0x8C379A000000000000000000000000000000000000000000000000000000000 DUP2 MSTORE PUSH1 0x4 ADD PUSH2 0x114 SWAP1 PUSH2 0xA6C JUMP JUMPDEST PUSH1 0x40 MLOAD DUP1 SWAP2 SUB SWAP1 REVERT JUMPDEST STOP JUMPDEST PUSH1 0x0 DUP1 SLOAD SWAP1 PUSH2 0x100 EXP SWAP1 DIV PUSH20 0xFFFFFFFFFFFFFFFFFFFFFFFFFFFFFFFFFFFFFFFF AND PUSH20 0xFFFFFFFFFFFFFFFFFFFFFFFFFFFFFFFFFFFFFFFF AND CALLER PUSH20 0xFFFFFFFFFFFFFFFFFFFFFFFFFFFFFFFFFFFFFFFF AND EQ PUSH2 0x1AD JUMPI PUSH1 0x40 MLOAD PUSH32 0x8C379A000000000000000000000000000000000000000000000000000000000 DUP2 MSTORE PUSH1 0x4 ADD PUSH2 0x1A4 SWAP1 PUSH2 0xA6C JUMP JUMPDEST PUSH1 0x40 MLOAD DUP1 SWAP2 SUB SWAP1 REVERT JUMPDEST STOP JUMPDEST CALLVALUE DUP1 ISZERO PUSH2 0x1BB JUMPI PUSH1 0x0 DUP1 REVERT JUMPDEST POP PUSH2 0x1C4 PUSH2 0x352 JUMP JUMPDEST PUSH1 0x40 MLOAD PUSH2 0x1D1 SWAP2 SWAP1 PUSH2 0xACD JUMP JUMPDEST PUSH1 0x40 MLOAD DUP1 SWAP2 SUB SWAP1 RETURN JUMPDEST CALLVALUE DUP1 ISZERO PUSH2 0x1E6 JUMPI PUSH1 0x0 DUP1 REVERT JUMPDEST POP PUSH2 0x201 PUSH1 0x4 DUP1 CALLDATASIZE SUB DUP2 ADD SWAP1 PUSH2 0x1FC SWAP2 SWAP1 PUSH2 0xB61 JUMP JUMPDEST PUSH2 0x35A JUMP JUMPDEST STOP JUMPDEST CALLVALUE DUP1 ISZERO PUSH2 0x20F JUMPI PUSH1 0x0 DUP1 REVERT JUMPDEST POP PUSH2 0x218 PUSH2 0x493 JUMP JUMPDEST STOP JUMPDEST CALLVALUE DUP1 ISZERO PUSH2 0x226 JUMPI PUSH1 0x0 DUP1 REVERT JUMPDEST POP PUSH2 0x22F PUSH2 0x7D7 JUMP JUMPDEST PUSH1 0x40 MLOAD PUSH2 0x23C SWAP2 SWAP1 PUSH2 0xBB0 JUMP JUMPDEST PUSH1 0x40 MLOAD DUP1 SWAP2 SUB SWAP1 RETURN JUMPDEST CALLVALUE DUP1 ISZERO PUSH2 0x251 JUMPI PUSH1 0x0 DUP1 REVERT JUMPDEST POP PUSH2 0x26C PUSH1 0x4 DUP1 CALLDATASIZE SUB DUP2 ADD SWAP1 PUSH2 0x267 SWAP2 SWAP1 PUSH2 0xBCB JUMP JUMPDEST PUSH2 0x88E JUMP JUMPDEST PUSH1 0x40 MLOAD PUSH2 0x279 SWAP2 SWAP1 PUSH2 0xBB0 JUMP JUMPDEST PUSH1 0x40 MLOAD DUP1 SWAP2 SUB SWAP1 RETURN JUMPDEST CALLVALUE DUP1 ISZERO PUSH2 0x28E JUMPI PUSH1 0x0 DUP1 REVERT JUMPDEST POP PUSH2 0x297 PUSH2 0x8D7 JUMP JUMPDEST PUSH1 0x40 MLOAD PUSH2 0x2A4 SWAP2 SWAP1 PUSH2 0xC07 JUMP JUMPDEST PUSH1 0x40 MLOAD DUP1 SWAP2 SUB SWAP1 RETURN JUMPDEST CALLVALUE DUP1 ISZERO PUSH2 0x2B9 JUMPI PUSH1 0x0 DUP1 REVERT JUMPDEST POP PUSH2 0x2D4 PUSH1 0x4 DUP1 CALLDATASIZE SUB DUP2 ADD SWAP1 PUSH2 0x2CF SWAP2 SWAP1 PUSH2 0xC22 JUMP JUMPDEST PUSH2 0x8FB JUMP JUMPDEST PUSH1 0x40 MLOAD PUSH2 0x2E1 SWAP2 SWAP1 PUSH2 0xC07 JUMP JUMPDEST PUSH1 0x40 MLOAD DUP1 SWAP2 SUB SWAP1 RETURN JUMPDEST CALLVALUE DUP1 ISZERO PUSH2 0x2F6 JUMPI PUSH1 0x0 DUP1 REVERT JUMPDEST POP PUSH2 0x311 PUSH1 0x4 DUP1 CALLDATASIZE SUB DUP2 ADD SWAP1 PUSH2 0x30C SWAP2 SWAP1 PUSH2 0xC7B JUMP JUMPDEST PUSH2 0x93A JUMP JUMPDEST PUSH1 0x40 MLOAD PUSH2 0x31E SWAP2 SWAP1 PUSH2 0xBB0 JUMP JUMPDEST PUSH1 0x40 MLOAD DUP1 SWAP2 SUB SWAP1 RETURN JUMPDEST CALLVALUE DUP1 ISZERO PUSH2 0x333 JUMPI PUSH1 0x0 DUP1 REVERT JUMPDEST POP PUSH2 0x33C PUSH2 0x952 JUMP JUMPDEST PUSH1 0x40 MLOAD PUSH2 0x349 SWAP2 SWAP1 PUSH2 0xBB0 JUMP JUMPDEST PUSH1 0x40 MLOAD DUP1 SWAP2 SUB SWAP1 RETURN JUMPDEST PUSH1 0x0 ADDRESS SWAP1 POP SWAP1 JUMP JUMPDEST PUSH1 0x0 DUP1 SLOAD SWAP1 PUSH2 0x100 EXP SWAP1 DIV PUSH20 0xFFFFFFFFFFFFFFFFFFFFFFFFFFFFFFFFFFFFFFFF AND PUSH20 0xFFFFFFFFFFFFFFFFFFFFFFFFFFFFFFFFFFFFFFFF AND CALLER PUSH20 0xFFFFFFFFFFFFFFFFFFFFFFFFFFFFFFFFFFFFFFFF AND EQ PUSH2 0x3E8 JUMPI PUSH1 0x40 MLOAD PUSH32 0x8C379A000000000000000000000000000000000000000000000000000000000 DUP2 MSTORE PUSH1 0x4 ADD PUSH2 0x3DF SWAP1 PUSH2 0xA6C JUMP JUMPDEST PUSH1 0x40 MLOAD DUP1 SWAP2 SUB SWAP1 REVERT JUMPDEST DUP1 PUSH1 0x1 PUSH1 0x0 DUP5 PUSH20 0xFFFFFFFFFFFFFFFFFFFFFFFFFFFFFFFFFFFFFFFF AND PUSH20 0xFFFFFFFFFFFFFFFFFFFFFFFFFFFFFFFFFFFFFFFF AND DUP2 MSTORE PUSH1 0x20 ADD SWAP1 DUP2 MSTORE PUSH1 0x20 ADD PUSH1 0x0 KECCAK256 DUP2 SWAP1 SSTORE POP PUSH1 0x2 DUP3 SWAP1 DUP1 PUSH1 0x1 DUP2 SLOAD ADD DUP1 DUP3 SSTORE DUP1 SWAP2 POP POP PUSH1 0x1 SWAP1 SUB SWAP1 PUSH1 0x0 MSTORE PUSH1 0x20 PUSH1 0x0 KECCAK256 ADD PUSH1 0x0 SWAP1 SWAP2 SWAP1 SWAP2 SWAP1 SWAP2 PUSH2 0x100 EXP DUP2 SLOAD DUP2 PUSH20 0xFFFFFFFFFFFFFFFFFFFFFFFFFFFFFFFFFFFFFFFF MUL NOT AND SWAP1 DUP4 PUSH20 0xFFFFFFFFFFFFFFFFFFFFFFFFFFFFFFFFFFFFFFFF AND MUL OR SWAP1 SSTORE POP POP POP JUMP JUMPDEST PUSH1 0x0 DUP1 SLOAD SWAP1 PUSH2 0x100 EXP SWAP1 DIV PUSH20 0xFFFFFFFFFFFFFFFFFFFFFFFFFFFFFFFFFFFFFFFF AND PUSH20 0xFFFFFFFFFFFFFFFFFFFFFFFFFFFFFFFFFFFFFFFF AND CALLER PUSH20 0xFFFFFFFFFFFFFFFFFFFFFFFFFFFFFFFFFFFFFFFF AND EQ PUSH2 0x521 JUMPI PUSH1 0x40 MLOAD PUSH32 0x8C379A000000000000000000000000000000000000000000000000000000000 DUP2 MSTORE PUSH1 0x4 ADD PUSH2 0x518 SWAP1 PUSH2 0xA6C JUMP JUMPDEST PUSH1 0x40 MLOAD DUP1 SWAP2 SUB SWAP1 REVERT JUMPDEST PUSH1 0x0 SELFBALANCE SUB PUSH2 0x564 JUMPI PUSH1 0x40 MLOAD PUSH32 0x8C379A000000000000000000000000000000000000000000000000000000000 DUP2 MSTORE PUSH1 0x4 ADD PUSH2 0x55B SWAP1 PUSH2 0xCF4 JUMP JUMPDEST PUSH1 0x40 MLOAD DUP1 SWAP2 SUB SWAP1 REVERT JUMPDEST PUSH2 0x2710 PUSH2 0x56F PUSH2 0x958 JUMP JUMPDEST EQ PUSH2 0x5AF JUMPI PUSH1 0x40 MLOAD PUSH32 0x8C379A000000000000000000000000000000000000000000000000000000000 DUP2 MSTORE PUSH1 0x4 ADD PUSH2 0x5A6 SWAP1 PUSH2 0xD60 JUMP JUMPDEST PUSH1 0x40 MLOAD DUP1 SWAP2 SUB SWAP1 REVERT JUMPDEST PUSH1 0x0 DUP1 SELFBALANCE SWAP1 POP PUSH1 0x0 JUMPDEST PUSH1 0x2 DUP1 SLOAD SWAP1 POP DUP2 LT ISZERO PUSH2 0x7D2 JUMPI PUSH1 0x1 PUSH1 0x0 PUSH1 0x2 DUP4 DUP2 SLOAD DUP2 LT PUSH2 0x5DD JUMPI PUSH2 0x5DC PUSH2 0xD80 JUMP JUMPDEST JUMPDEST SWAP1 PUSH1 0x0 MSTORE PUSH1 0x20 PUSH1 0x0 KECCAK256 ADD PUSH1 0x0 SWAP1 SLOAD SWAP1 PUSH2 0x100 EXP SWAP1 DIV PUSH20 0xFFFFFFFFFFFFFFFFFFFFFFFFFFFFFFFFFFFFFFFF AND PUSH20 0xFFFFFFFFFFFFFFFFFFFFFFFFFFFFFFFFFFFFFFFF AND PUSH20 0xFFFFFFFFFFFFFFFFFFFFFFFFFFFFFFFFFFFFFFFF AND DUP2 MSTORE PUSH1 0x20 ADD SWAP1 DUP2 MSTORE PUSH1 0x20 ADD PUSH1 0x0 KECCAK256 SLOAD PUSH2 0x2710 DUP4 PUSH2 0x651 SWAP2 SWAP1 PUSH2 0xE0D JUMP JUMPDEST PUSH2 0x65B SWAP2 SWAP1 PUSH2 0xE3E JUMP JUMPDEST SWAP3 POP PUSH1 0x0 PUSH1 0x2 DUP3 DUP2 SLOAD DUP2 LT PUSH2 0x673 JUMPI PUSH2 0x672 PUSH2 0xD80 JUMP JUMPDEST JUMPDEST SWAP1 PUSH1 0x0 MSTORE PUSH1 0x20 PUSH1 0x0 KECCAK256 ADD PUSH1 0x0 SWAP1 SLOAD SWAP1 PUSH2 0x100 EXP SWAP1 DIV PUSH20 0xFFFFFFFFFFFFFFFFFFFFFFFFFFFFFFFFFFFFFFFF AND PUSH20 0xFFFFFFFFFFFFFFFFFFFFFFFFFFFFFFFFFFFFFFFF AND DUP5 PUSH1 0x40 MLOAD PUSH2 0x6C1 SWAP1 PUSH2 0xEB1 JUMP JUMPDEST PUSH1 0x0 PUSH1 0x40 MLOAD DUP1 DUP4 SUB DUP2 DUP6 DUP8 GAS CALL SWAP3 POP POP POP RETURNDATASIZE DUP1 PUSH1 0x0 DUP2 EQ PUSH2 0x6FE JUMPI PUSH1 0x40 MLOAD SWAP2 POP PUSH1 0x1F NOT PUSH1 0x3F RETURNDATASIZE ADD AND DUP3 ADD PUSH1 0x40 MSTORE RETURNDATASIZE DUP3 MSTORE RETURNDATASIZE PUSH1 0x0 PUSH1 0x20 DUP5 ADD RETURNDATACOPY PUSH2 0x703 JUMP JUMPDEST PUSH1 0x60 SWAP2 POP JUMPDEST POP POP SWAP1 POP DUP1 PUSH2 0x747 JUMPI PUSH1 0x40 MLOAD PUSH32 0x8C379A000000000000000000000000000000000000000000000000000000000 DUP2 MSTORE PUSH1 0x4 ADD PUSH2 0x73E SWAP1 PUSH2 0xF12 JUMP JUMPDEST PUSH1 0x40 MLOAD DUP1 SWAP2 SUB SWAP1 REVERT JUMPDEST PUSH32 0x75A2720282FDF622141DAE0B048EF90A21A7E57C134C76912D19D006B3B3F6F PUSH1 0x2 DUP4 DUP2 SLOAD DUP2 LT PUSH2 0x77C JUMPI PUSH2 0x77B PUSH2 0xD80 JUMP JUMPDEST JUMPDEST SWAP1 PUSH1 0x0 MSTORE PUSH1 0x20 PUSH1 0x0 KECCAK256 ADD PUSH1 0x0 SWAP1 SLOAD SWAP1 PUSH2 0x100 EXP SWAP1 DIV PUSH20 0xFFFFFFFFFFFFFFFFFFFFFFFFFFFFFFFFFFFFFFFF AND DUP6 PUSH1 0x40 MLOAD PUSH2 0x7B6 SWAP3 SWAP2 SWAP1 PUSH2 0xF91 JUMP JUMPDEST PUSH1 0x40 MLOAD DUP1 SWAP2 SUB SWAP1 LOG1 POP DUP1 DUP1 PUSH2 0x7CA SWAP1 PUSH2 0xFBA JUMP JUMPDEST SWAP2 POP POP PUSH2 0x5B8 JUMP JUMPDEST POP POP POP JUMP JUMPDEST PUSH1 0x0 DUP1 PUSH1 0x0 SWAP1 POP JUMPDEST PUSH1 0x2 DUP1 SLOAD SWAP1 POP DUP2 LT ISZERO PUSH2 0x88A JUMPI PUSH1 0x1 PUSH1 0x0 PUSH1 0x2 DUP4 DUP2 SLOAD DUP2 LT PUSH2 0x804 JUMPI PUSH2 0x803 PUSH2 0xD80 JUMP JUMPDEST JUMPDEST SWAP1 PUSH1 0x0 MSTORE PUSH1 0x20 PUSH1 0x0 KECCAK256 ADD PUSH1 0x0 SWAP1 SLOAD SWAP1 PUSH2 0x100 EXP SWAP1 DIV PUSH20 0xFFFFFFFFFFFFFFFFFFFFFFFFFFFFFFFFFFFFFFFF AND PUSH20 0xFFFFFFFFFFFFFFFFFFFFFFFFFFFFFFFFFFFFFFFF AND PUSH20 0xFFFFFFFFFFFFFFFFFFFFFFFFFFFFFFFFFFFFFFFF AND DUP2 MSTORE PUSH1 0x20 ADD SWAP1 DUP2 MSTORE PUSH1 0x20 ADD PUSH1 0x0 KECCAK256 SLOAD DUP3 PUSH2 0x875 SWAP2 SWAP1 PUSH2 0x1002 JUMP JUMPDEST SWAP2 POP DUP1 DUP1 PUSH2 0x882 SWAP1 PUSH2 0xFBA JUMP JUMPDEST SWAP2 POP POP PUSH2 0x7DF JUMP JUMPDEST POP SWAP1 JUMP JUMPDEST PUSH1 0x0 PUSH1 0x1 PUSH1 0x0 DUP4 PUSH20 0xFFFFFFFFFFFFFFFFFFFFFFFFFFFFFFFFFFFFFFFF AND PUSH20 0xFFFFFFFFFFFFFFFFFFFFFFFFFFFFFFFFFFFFFFFF AND DUP2 MSTORE PUSH1 0x20 ADD SWAP1 DUP2 MSTORE PUSH1 0x20 ADD PUSH1 0x0 KECCAK256 SLOAD SWAP1 POP SWAP2 SWAP1 POP JUMP JUMPDEST PUSH1 0x0 DUP1 SLOAD SWAP1 PUSH2 0x100 EXP SWAP1 DIV PUSH20 0xFFFFFFFFFFFFFFFFFFFFFFFFFFFFFFFFFFFFFFFF AND DUP2 JUMP JUMPDEST PUSH1 0x2 DUP2 DUP2 SLOAD DUP2 LT PUSH2 0x90B JUMPI PUSH1 0x0 DUP1 REVERT JUMPDEST SWAP1 PUSH1 0x0 MSTORE PUSH1 0x20 PUSH1 0x0 KECCAK256 ADD PUSH1 0x0 SWAP2 POP SLOAD SWAP1 PUSH2 0x100 EXP SWAP1 DIV PUSH20 0xFFFFFFFFFFFFFFFFFFFFFFFFFFFFFFFFFFFFFFFF AND DUP2 JUMP JUMPDEST PUSH1 0x1 PUSH1 0x20 MSTORE DUP1 PUSH1 0x0 MSTORE PUSH1 0x40 PUSH1 0x0 KECCAK256 PUSH1 0x0 SWAP2 POP SWAP1 POP SLOAD DUP2 JUMP JUMPDEST PUSH2 0x2710 DUP2 JUMP JUMPDEST PUSH1 0x0 DUP1 PUSH1 0x0 SWAP1 POP JUMPDEST PUSH1 0x2 DUP1 SLOAD SWAP1 POP DUP2 LT ISZERO PUSH2 0xA0B JUMPI PUSH1 0x1 PUSH1 0x0 PUSH1 0x2 DUP4 DUP2 SLOAD DUP2 LT PUSH2 0x985 JUMPI PUSH2 0x984 PUSH2 0xD80 JUMP JUMPDEST JUMPDEST SWAP1 PUSH1 0x0 MSTORE PUSH1 0x20 PUSH1 0x0 KECCAK256 ADD PUSH1 0x0 SWAP1 SLOAD SWAP1 PUSH2 0x100 EXP SWAP1 DIV PUSH20 0xFFFFFFFFFFFFFFFFFFFFFFFFFFFFFFFFFFFFFFFF AND PUSH20 0xFFFFFFFFFFFFFFFFFFFFFFFFFFFFFFFFFFFFFFFF AND PUSH20 0xFFFFFFFFFFFFFFFFFFFFFFFFFFFFFFFFFFFFFFFF AND DUP2 MSTORE PUSH1 0x20 ADD SWAP1 DUP2 MSTORE PUSH1 0x20 ADD PUSH1 0x0 KECCAK256 SLOAD DUP3 PUSH2 0x9F6 SWAP2 SWAP1 PUSH2 0x1002 JUMP JUMPDEST SWAP2 POP DUP1 DUP1 PUSH2 0xA03 SWAP1 PUSH2 0xFBA JUMP JUMPDEST SWAP2 POP POP PUSH2 0x960 JUMP JUMPDEST POP SWAP1 JUMP JUMPDEST PUSH1 0x0 DUP3 DUP3 MSTORE PUSH1 0x20 DUP3 ADD SWAP1 POP SWAP3 SWAP2 POP POP JUMP JUMPDEST PUSH32 0x53656E646572206973206E6F74206F776E657200000000000000000000000000 PUSH1 0x0 DUP3 ADD MSTORE POP JUMP JUMPDEST PUSH1 0x0 PUSH2 0xA56 PUSH1 0x13 DUP4 PUSH2 0xA0F JUMP JUMPDEST SWAP2 POP PUSH2 0xA61 DUP3 PUSH2 0xA20 JUMP JUMPDEST PUSH1 0x20 DUP3 ADD SWAP1 POP SWAP2 SWAP1 POP JUMP JUMPDEST PUSH1 0x0 PUSH1 0x20 DUP3 ADD SWAP1 POP DUP2 DUP2 SUB PUSH1 0x0 DUP4 ADD MSTORE PUSH2 0xA85 DUP2 PUSH2 0xA49 JUMP JUMPDEST SWAP1 POP SWAP2 SWAP1 POP JUMP JUMPDEST PUSH1 0x0 PUSH20 0xFFFFFFFFFFFFFFFFFFFFFFFFFFFFFFFFFFFFFFFF DUP3 AND SWAP1 POP SWAP2 SWAP1 POP JUMP JUMPDEST PUSH1 0x0 PUSH2 0xAB7 DUP3 PUSH2 0xA8C JUMP JUMPDEST SWAP1 POP SWAP2 SWAP1 POP JUMP JUMPDEST PUSH2 0xAC7 DUP2 PUSH2 0xAAC JUMP JUMPDEST DUP3 MSTORE POP POP JUMP JUMPDEST PUSH1 0x0 PUSH1 0x20 DUP3 ADD SWAP1 POP PUSH2 0xAE2 PUSH1 0x0 DUP4 ADD DUP5 PUSH2 0xABE JUMP JUMPDEST SWAP3 SWAP2 POP POP JUMP JUMPDEST PUSH1 0x0 DUP1 REVERT JUMPDEST PUSH1 0x0 PUSH2 0xAF8 DUP3 PUSH2 0xA8C JUMP JUMPDEST SWAP1 POP SWAP2 SWAP1 POP JUMP JUMPDEST PUSH2 0xB08 DUP2 PUSH2 0xAED JUMP JUMPDEST DUP2 EQ PUSH2 0xB13 JUMPI PUSH1 0x0 DUP1 REVERT JUMPDEST POP JUMP JUMPDEST PUSH1 0x0 DUP2 CALLDATALOAD SWAP1 POP PUSH2 0xB25 DUP2 PUSH2 0xAFF JUMP JUMPDEST SWAP3 SWAP2 POP POP JUMP JUMPDEST PUSH1 0x0 DUP2 SWAP1 POP SWAP2 SWAP1 POP JUMP JUMPDEST PUSH2 0xB3E DUP2 PUSH2 0xB2B JUMP JUMPDEST DUP2 EQ PUSH2 0xB49 JUMPI PUSH1 0x0 DUP1 REVERT JUMPDEST POP JUMP JUMPDEST PUSH1 0x0 DUP2 CALLDATALOAD SWAP1 POP PUSH2 0xB5B DUP2 PUSH2 0xB35 JUMP JUMPDEST SWAP3 SWAP2 POP POP JUMP JUMPDEST PUSH1 0x0 DUP1 PUSH1 0x40 DUP4 DUP6 SUB SLT ISZERO PUSH2 0xB78 JUMPI PUSH2 0xB77 PUSH2 0xAE8 JUMP JUMPDEST JUMPDEST PUSH1 0x0 PUSH2 0xB86 DUP6 DUP3 DUP7 ADD PUSH2 0xB16 JUMP JUMPDEST SWAP3 POP POP PUSH1 0x20 PUSH2 0xB97 DUP6 DUP3 DUP7 ADD PUSH2 0xB4C JUMP JUMPDEST SWAP2 POP POP SWAP3 POP SWAP3 SWAP1 POP JUMP JUMPDEST PUSH2 0xBAA DUP2 PUSH2 0xB2B JUMP JUMPDEST DUP3 MSTORE POP POP JUMP JUMPDEST PUSH1 0x0 PUSH1 0x20 DUP3 ADD SWAP1 POP PUSH2 0xBC5 PUSH1 0x0 DUP4 ADD DUP5 PUSH2 0xBA1 JUMP JUMPDEST SWAP3 SWAP2 POP POP JUMP JUMPDEST PUSH1 0x0 PUSH1 0x20 DUP3 DUP5 SUB SLT ISZERO PUSH2 0xBE1 JUMPI PUSH2 0xBE0 PUSH2 0xAE8 JUMP JUMPDEST JUMPDEST PUSH1 0x0 PUSH2 0xBEF DUP5 DUP3 DUP6 ADD PUSH2 0xB16 JUMP JUMPDEST SWAP2 POP POP SWAP3 SWAP2 POP POP JUMP JUMPDEST PUSH2 0xC01 DUP2 PUSH2 0xAED JUMP JUMPDEST DUP3 MSTORE POP POP JUMP JUMPDEST PUSH1 0x0 PUSH1 0x20 DUP3 ADD SWAP1 POP PUSH2 0xC1C PUSH1 0x0 DUP4 ADD DUP5 PUSH2 0xBF8 JUMP JUMPDEST SWAP3 SWAP2 POP POP JUMP JUMPDEST PUSH1 0x0 PUSH1 0x20 DUP3 DUP5 SUB SLT ISZERO PUSH2 0xC38 JUMPI PUSH2 0xC37 PUSH2 0xAE8 JUMP JUMPDEST JUMPDEST PUSH1 0x0 PUSH2 0xC46 DUP5 DUP3 DUP6 ADD PUSH2 0xB4C JUMP JUMPDEST SWAP2 POP POP SWAP3 SWAP2 POP POP JUMP JUMPDEST PUSH2 0xC58 DUP2 PUSH2 0xAAC JUMP JUMPDEST DUP2 EQ PUSH2 0xC63 JUMPI PUSH1 0x0 DUP1 REVERT JUMPDEST POP JUMP JUMPDEST PUSH1 0x0 DUP2 CALLDATALOAD SWAP1 POP PUSH2 0xC75 DUP2 PUSH2 0xC4F JUMP JUMPDEST SWAP3 SWAP2 POP POP JUMP JUMPDEST PUSH1 0x0 PUSH1 0x20 DUP3 DUP5 SUB SLT ISZERO PUSH2 0xC91 JUMPI PUSH2 0xC90 PUSH2 0xAE8 JUMP JUMPDEST JUMPDEST PUSH1 0x0 PUSH2 0xC9F DUP5 DUP3 DUP6 ADD PUSH2 0xC66 JUMP JUMPDEST SWAP2 POP POP SWAP3 SWAP2 POP POP JUMP JUMPDEST PUSH32 0x4E6F7420656E7567682066756E64730000000000000000000000000000000000 PUSH1 0x0 DUP3 ADD MSTORE POP JUMP JUMPDEST PUSH1 0x0 PUSH2 0xCDE PUSH1 0xF DUP4 PUSH2 0xA0F JUMP JUMPDEST SWAP2 POP PUSH2 0xCE9 DUP3 PUSH2 0xCA8 JUMP JUMPDEST PUSH1 0x20 DUP3 ADD SWAP1 POP SWAP2 SWAP1 POP JUMP JUMPDEST PUSH1 0x0 PUSH1 0x20 DUP3 ADD SWAP1 POP DUP2 DUP2 SUB PUSH1 0x0 DUP4 ADD MSTORE PUSH2 0xD0D DUP2 PUSH2 0xCD1 JUMP JUMPDEST SWAP1 POP SWAP2 SWAP1 POP JUMP JUMPDEST PUSH32 0x5061796D656E74206E6F742073706C697420656E746972656C79000000000000 PUSH1 0x0 DUP3 ADD MSTORE POP JUMP JUMPDEST PUSH1 0x0 PUSH2 0xD4A PUSH1 0x1A DUP4 PUSH2 0xA0F JUMP JUMPDEST SWAP2 POP PUSH2 0xD55 DUP3 PUSH2 0xD14 JUMP JUMPDEST PUSH1 0x20 DUP3 ADD SWAP1 POP SWAP2 SWAP1 POP JUMP JUMPDEST PUSH1 0x0 PUSH1 0x20 DUP3 ADD SWAP1 POP DUP2 DUP2 SUB PUSH1 0x0 DUP4 ADD MSTORE PUSH2 0xD79 DUP2 PUSH2 0xD3D JUMP JUMPDEST SWAP1 POP SWAP2 SWAP1 POP JUMP JUMPDEST PUSH32 0x4E487B7100000000000000000000000000000000000000000000000000000000 PUSH1 0x0 MSTORE PUSH1 0x32 PUSH1 0x4 MSTORE PUSH1 0x24 PUSH1 0x0 REVERT JUMPDEST PUSH32 0x4E487B7100000000000000000000000000000000000000000000000000000000 PUSH1 0x0 MSTORE PUSH1 0x12 PUSH1 0x4 MSTORE PUSH1 0x24 PUSH1 0x0 REVERT JUMPDEST PUSH32 0x4E487B7100000000000000000000000000000000000000000000000000000000 PUSH1 0x0 MSTORE PUSH1 0x11 PUSH1 0x4 MSTORE PUSH1 0x24 PUSH1 0x0 REVERT JUMPDEST PUSH1 0x0 PUSH2 0xE18 DUP3 PUSH2 0xB2B JUMP JUMPDEST SWAP2 POP PUSH2 0xE23 DUP4 PUSH2 0xB2B JUMP JUMPDEST SWAP3 POP DUP3 PUSH2 0xE33 JUMPI PUSH2 0xE32 PUSH2 0xDAF JUMP JUMPDEST JUMPDEST DUP3 DUP3 DIV SWAP1 POP SWAP3 SWAP2 POP POP JUMP JUMPDEST PUSH1 0x0 PUSH2 0xE49 DUP3 PUSH2 0xB2B JUMP JUMPDEST SWAP2 POP PUSH2 0xE54 DUP4 PUSH2 0xB2B JUMP JUMPDEST SWAP3 POP DUP3 DUP3 MUL PUSH2 0xE62 DUP2 PUSH2 0xB2B JUMP JUMPDEST SWAP2 POP DUP3 DUP3 DIV DUP5 EQ DUP4 ISZERO OR PUSH2 0xE79 JUMPI PUSH2 0xE78 PUSH2 0xDDE JUMP JUMPDEST JUMPDEST POP SWAP3 SWAP2 POP POP JUMP JUMPDEST PUSH1 0x0 DUP2 SWAP1 POP SWAP3 SWAP2 POP POP JUMP JUMPDEST POP JUMP JUMPDEST PUSH1 0x0 PUSH2 0xE9B PUSH1 0x0 DUP4 PUSH2 0xE80 JUMP JUMPDEST SWAP2 POP PUSH2 0xEA6 DUP3 PUSH2 0xE8B JUMP JUMPDEST PUSH1 0x0 DUP3 ADD SWAP1 POP SWAP2 SWAP1 POP JUMP JUMPDEST PUSH1 0x0 PUSH2 0xEBC DUP3 PUSH2 0xE8E JUMP JUMPDEST SWAP2 POP DUP2 SWAP1 POP SWAP2 SWAP1 POP JUMP JUMPDEST PUSH32 0x52657475726E206665652066756E6473206661696C6564000000000000000000 PUSH1 0x0 DUP3 ADD MSTORE POP JUMP JUMPDEST PUSH1 0x0 PUSH2 0xEFC PUSH1 0x17 DUP4 PUSH2 0xA0F JUMP JUMPDEST SWAP2 POP PUSH2 0xF07 DUP3 PUSH2 0xEC6 JUMP JUMPDEST PUSH1 0x20 DUP3 ADD SWAP1 POP SWAP2 SWAP1 POP JUMP JUMPDEST PUSH1 0x0 PUSH1 0x20 DUP3 ADD SWAP1 POP DUP2 DUP2 SUB PUSH1 0x0 DUP4 ADD MSTORE PUSH2 0xF2B DUP2 PUSH2 0xEEF JUMP JUMPDEST SWAP1 POP SWAP2 SWAP1 POP JUMP JUMPDEST PUSH1 0x0 DUP2 SWAP1 POP SWAP2 SWAP1 POP JUMP JUMPDEST PUSH1 0x0 PUSH2 0xF57 PUSH2 0xF52 PUSH2 0xF4D DUP5 PUSH2 0xA8C JUMP JUMPDEST PUSH2 0xF32 JUMP JUMPDEST PUSH2 0xA8C JUMP JUMPDEST SWAP1 POP SWAP2 SWAP1 POP JUMP JUMPDEST PUSH1 0x0 PUSH2 0xF69 DUP3 PUSH2 0xF3C JUMP JUMPDEST SWAP1 POP SWAP2 SWAP1 POP JUMP JUMPDEST PUSH1 0x0 PUSH2 0xF7B DUP3 PUSH2 0xF5E JUMP JUMPDEST SWAP1 POP SWAP2 SWAP1 POP JUMP JUMPDEST PUSH2 0xF8B DUP2 PUSH2 0xF70 JUMP JUMPDEST DUP3 MSTORE POP POP JUMP JUMPDEST PUSH1 0x0 PUSH1 0x40 DUP3 ADD SWAP1 POP PUSH2 0xFA6 PUSH1 0x0 DUP4 ADD DUP6 PUSH2 0xF82 JUMP JUMPDEST PUSH2 0xFB3 PUSH1 0x20 DUP4 ADD DUP5 PUSH2 0xBA1 JUMP JUMPDEST SWAP4 SWAP3 POP POP POP JUMP JUMPDEST PUSH1 0x0 PUSH2 0xFC5 DUP3 PUSH2 0xB2B JUMP JUMPDEST SWAP2 POP PUSH32 0xFFFFFFFFFFFFFFFFFFFFFFFFFFFFFFFFFFFFFFFFFFFFFFFFFFFFFFFFFFFFFFFF DUP3 SUB PUSH2 0xFF7 JUMPI PUSH2 0xFF6 PUSH2 0xDDE JUMP JUMPDEST JUMPDEST PUSH1 0x1 DUP3 ADD SWAP1 POP SWAP2 SWAP1 POP JUMP JUMPDEST PUSH1 0x0 PUSH2 0x100D DUP3 PUSH2 0xB2B JUMP JUMPDEST SWAP2 POP PUSH2 0x1018 DUP4 PUSH2 0xB2B JUMP JUMPDEST SWAP3 POP DUP3 DUP3 ADD SWAP1 POP DUP1 DUP3 GT ISZERO PUSH2 0x1030 JUMPI PUSH2 0x102F PUSH2 0xDDE JUMP JUMPDEST JUMPDEST SWAP3 SWAP2 POP POP JUMP INVALID LOG2 PUSH5 0x6970667358 0x22 SLT KECCAK256 0xF7 0xAD LOG3 DUP4 SWAP8 DUP2 ISZERO 0xC1 SWAP4 JUMPI EXTCODECOPY SLOAD 0x5E EXTCODECOPY JUMPDEST DUP8 0xDB DUP4 0x25 DIV PUSH17 0xBDF70760C621B866CD3C4064736F6C6343 STOP ADDMOD GT STOP CALLER "
				},
				"gasEstimates": {
					"creation": {
						"codeDepositCost": "840800",
						"executionCost": "infinite",
						"totalCost": "infinite"
					},
					"external": {
						"": "2639",
						"FEE_BASE()": "417",
						"_recipients(address)": "2880",
						"addRecipients(address,uint256)": "73601",
						"getAddress()": "386",
						"getFeeByAddress(address)": "2841",
						"getTotalFee()": "infinite",
						"owner()": "2533",
						"paySplitFee()": "infinite",
						"recipients(uint256)": "5000"
					},
					"internal": {
						"_getTotalFee()": "infinite"
					}
				},
				"methodIdentifiers": {
					"FEE_BASE()": "ecefc705",
					"_recipients(address)": "e59de500",
					"addRecipients(address,uint256)": "3afe58af",
					"getAddress()": "38cc4831",
					"getFeeByAddress(address)": "8a0e72bb",
					"getTotalFee()": "7ae316d0",
					"owner()": "8da5cb5b",
					"paySplitFee()": "6a9df2b5",
					"recipients(uint256)": "d1bc76a1"
				}
			},
			"storageLayout": {
				"storage": [
					{
						"astId": 11,
						"contract": "Contracts/PaymentSplit.sol:PaymentSplit",
						"label": "owner",
						"offset": 0,
						"slot": "0",
						"type": "t_address_payable"
					},
					{
						"astId": 15,
						"contract": "Contracts/PaymentSplit.sol:PaymentSplit",
						"label": "_recipients",
						"offset": 0,
						"slot": "1",
						"type": "t_mapping(t_address,t_uint256)"
					},
					{
						"astId": 18,
						"contract": "Contracts/PaymentSplit.sol:PaymentSplit",
						"label": "recipients",
						"offset": 0,
						"slot": "2",
						"type": "t_array(t_address_payable)dyn_storage"
					}
				],
				"types": {
					"t_address": {
						"encoding": "inplace",
						"label": "address",
						"numberOfBytes": "20"
					},
					"t_address_payable": {
						"encoding": "inplace",
						"label": "address payable",
						"numberOfBytes": "20"
					},
					"t_array(t_address_payable)dyn_storage": {
						"base": "t_address_payable",
						"encoding": "dynamic_array",
						"label": "address payable[]",
						"numberOfBytes": "32"
					},
					"t_mapping(t_address,t_uint256)": {
						"encoding": "mapping",
						"key": "t_address",
						"label": "mapping(address => uint256)",
						"numberOfBytes": "32",
						"value": "t_uint256"
					},
					"t_uint256": {
						"encoding": "inplace",
						"label": "uint256",
						"numberOfBytes": "32"
					}
				}
			},
			"userdoc": {
				"events": {
					"FeePaid(address,uint256)": {
						"notice": "Payment sent to recipients"
					}
				},
				"kind": "user",
				"methods": {
					"addRecipients(address,uint256)": {
						"notice": "Method for adding new recipients"
					},
					"getAddress()": {
						"notice": "Public method to retrieve contract's address"
					},
					"getFeeByAddress(address)": {
						"notice": "Method to retrieve the amount to pay for a recipient"
					},
					"getTotalFee()": {
						"notice": "Public method to retrieve the total amount registered"
					}
				},
				"notice": "PaymentSplit contract",
				"version": 1
			}
		}
	}
}